{
	"sun5.0/sun.sol": {
		"SUN": {
			"abi": [
				{
					"inputs": [
						{
							"internalType": "address",
							"name": "holder",
							"type": "address"
						}
					],
					"stateMutability": "nonpayable",
					"type": "constructor"
				},
				{
					"inputs": [
						{
							"internalType": "address",
							"name": "toAddress",
							"type": "address"
						},
						{
							"internalType": "uint256",
							"name": "amount",
							"type": "uint256"
						}
					],
					"name": "Aspirated",
					"outputs": [
						{
							"internalType": "bool",
							"name": "",
							"type": "bool"
						}
					],
					"stateMutability": "payable",
					"type": "function"
				},
				{
					"inputs": [],
					"name": "pr",
					"outputs": [
						{
							"internalType": "uint256",
							"name": "AllPower",
							"type": "uint256"
						},
						{
							"internalType": "uint256",
							"name": "StoragePower",
							"type": "uint256"
						},
						{
							"internalType": "uint256",
							"name": "StaticPower",
							"type": "uint256"
						},
						{
							"internalType": "uint256",
							"name": "FlowPower",
							"type": "uint256"
						},
						{
							"internalType": "uint256",
							"name": "AspiratedPower",
							"type": "uint256"
						},
						{
							"internalType": "uint256",
							"name": "SalvationalPower",
							"type": "uint256"
						}
					],
					"stateMutability": "view",
					"type": "function"
				},
				{
					"stateMutability": "payable",
					"type": "receive"
				}
			],
			"devdoc": {
				"kind": "dev",
				"methods": {},
				"version": 1
			},
			"evm": {
				"assembly": "    /* \"sun5.0/sun.sol\":728:2315  contract SUN {... */\n  mstore(0x40, 0x80)\n    /* \"sun5.0/sun.sol\":1417:1743  constructor(... */\n  callvalue\n  dup1\n  iszero\n  tag_1\n  jumpi\n  0x00\n  dup1\n  revert\ntag_1:\n  pop\n  mload(0x40)\n  sub(codesize, bytecodeSize)\n  dup1\n  bytecodeSize\n  dup4\n  codecopy\n  dup2\n  dup2\n  add\n  0x40\n  mstore\n  dup2\n  add\n  swap1\n  tag_2\n  swap2\n  swap1\n  tag_3\n  jump\t// in\ntag_2:\n    /* \"sun5.0/sun.sol\":1482:1488  holder */\n  dup1\n    /* \"sun5.0/sun.sol\":1472:1479  manager */\n  0x00\n  dup1\n    /* \"sun5.0/sun.sol\":1472:1488  manager = holder */\n  0x0100\n  exp\n  dup2\n  sload\n  dup2\n  0xffffffffffffffffffffffffffffffffffffffff\n  mul\n  not\n  and\n  swap1\n  dup4\n  0xffffffffffffffffffffffffffffffffffffffff\n  and\n  mul\n  or\n  swap1\n  sstore\n  pop\n    /* \"sun5.0/sun.sol\":1512:1513  0 */\n  0x00\n    /* \"sun5.0/sun.sol\":1498:1500  pr */\n  0x01\n    /* \"sun5.0/sun.sol\":1498:1509  pr.AllPower */\n  0x00\n  add\n    /* \"sun5.0/sun.sol\":1498:1513  pr.AllPower = 0 */\n  dup2\n  swap1\n  sstore\n  pop\n    /* \"sun5.0/sun.sol\":1542:1543  0 */\n  0x00\n    /* \"sun5.0/sun.sol\":1524:1526  pr */\n  0x01\n    /* \"sun5.0/sun.sol\":1524:1539  pr.StoragePower */\n  dup1\n  add\n    /* \"sun5.0/sun.sol\":1524:1543  pr.StoragePower = 0 */\n  dup2\n  swap1\n  sstore\n  pop\n    /* \"sun5.0/sun.sol\":1571:1572  0 */\n  0x00\n    /* \"sun5.0/sun.sol\":1554:1556  pr */\n  0x01\n    /* \"sun5.0/sun.sol\":1554:1568  pr.StaticPower */\n  0x02\n  add\n    /* \"sun5.0/sun.sol\":1554:1572  pr.StaticPower = 0 */\n  dup2\n  swap1\n  sstore\n  pop\n    /* \"sun5.0/sun.sol\":1598:1599  0 */\n  0x00\n    /* \"sun5.0/sun.sol\":1583:1585  pr */\n  0x01\n    /* \"sun5.0/sun.sol\":1583:1595  pr.FlowPower */\n  0x03\n  add\n    /* \"sun5.0/sun.sol\":1583:1599  pr.FlowPower = 0 */\n  dup2\n  swap1\n  sstore\n  pop\n    /* \"sun5.0/sun.sol\":1630:1631  0 */\n  0x00\n    /* \"sun5.0/sun.sol\":1610:1612  pr */\n  0x01\n    /* \"sun5.0/sun.sol\":1610:1627  pr.AspiratedPower */\n  0x04\n  add\n    /* \"sun5.0/sun.sol\":1610:1631  pr.AspiratedPower = 0 */\n  dup2\n  swap1\n  sstore\n  pop\n    /* \"sun5.0/sun.sol\":1664:1665  0 */\n  0x00\n    /* \"sun5.0/sun.sol\":1642:1644  pr */\n  0x01\n    /* \"sun5.0/sun.sol\":1642:1661  pr.SalvationalPower */\n  0x05\n  add\n    /* \"sun5.0/sun.sol\":1642:1665  pr.SalvationalPower = 0 */\n  dup2\n  swap1\n  sstore\n  pop\n    /* \"sun5.0/sun.sol\":1417:1743  constructor(... */\n  pop\n    /* \"sun5.0/sun.sol\":728:2315  contract SUN {... */\n  jump(tag_6)\n    /* \"#utility.yul\":7:150   */\ntag_8:\n    /* \"#utility.yul\":64:69   */\n  0x00\n    /* \"#utility.yul\":95:101   */\n  dup2\n    /* \"#utility.yul\":89:102   */\n  mload\n    /* \"#utility.yul\":80:102   */\n  swap1\n  pop\n    /* \"#utility.yul\":111:144   */\n  tag_10\n    /* \"#utility.yul\":138:143   */\n  dup2\n    /* \"#utility.yul\":111:144   */\n  tag_11\n  jump\t// in\ntag_10:\n    /* \"#utility.yul\":7:150   */\n  swap3\n  swap2\n  pop\n  pop\n  jump\t// out\n    /* \"#utility.yul\":156:507   */\ntag_3:\n    /* \"#utility.yul\":226:232   */\n  0x00\n    /* \"#utility.yul\":275:277   */\n  0x20\n    /* \"#utility.yul\":263:272   */\n  dup3\n    /* \"#utility.yul\":254:261   */\n  dup5\n    /* \"#utility.yul\":250:273   */\n  sub\n    /* \"#utility.yul\":246:278   */\n  slt\n    /* \"#utility.yul\":243:362   */\n  iszero\n  tag_13\n  jumpi\n    /* \"#utility.yul\":281:360   */\n  tag_14\n  tag_15\n  jump\t// in\ntag_14:\n    /* \"#utility.yul\":243:362   */\ntag_13:\n    /* \"#utility.yul\":401:402   */\n  0x00\n    /* \"#utility.yul\":426:490   */\n  tag_16\n    /* \"#utility.yul\":482:489   */\n  dup5\n    /* \"#utility.yul\":473:479   */\n  dup3\n    /* \"#utility.yul\":462:471   */\n  dup6\n    /* \"#utility.yul\":458:480   */\n  add\n    /* \"#utility.yul\":426:490   */\n  tag_8\n  jump\t// in\ntag_16:\n    /* \"#utility.yul\":416:490   */\n  swap2\n  pop\n    /* \"#utility.yul\":372:500   */\n  pop\n    /* \"#utility.yul\":156:507   */\n  swap3\n  swap2\n  pop\n  pop\n  jump\t// out\n    /* \"#utility.yul\":594:690   */\ntag_19:\n    /* \"#utility.yul\":631:638   */\n  0x00\n    /* \"#utility.yul\":660:684   */\n  tag_21\n    /* \"#utility.yul\":678:683   */\n  dup3\n    /* \"#utility.yul\":660:684   */\n  tag_22\n  jump\t// in\ntag_21:\n    /* \"#utility.yul\":649:684   */\n  swap1\n  pop\n    /* \"#utility.yul\":594:690   */\n  swap2\n  swap1\n  pop\n  jump\t// out\n    /* \"#utility.yul\":696:822   */\ntag_22:\n    /* \"#utility.yul\":733:740   */\n  0x00\n    /* \"#utility.yul\":773:815   */\n  0xffffffffffffffffffffffffffffffffffffffff\n    /* \"#utility.yul\":766:771   */\n  dup3\n    /* \"#utility.yul\":762:816   */\n  and\n    /* \"#utility.yul\":751:816   */\n  swap1\n  pop\n    /* \"#utility.yul\":696:822   */\n  swap2\n  swap1\n  pop\n  jump\t// out\n    /* \"#utility.yul\":951:1068   */\ntag_15:\n    /* \"#utility.yul\":1060:1061   */\n  0x00\n    /* \"#utility.yul\":1057:1058   */\n  dup1\n    /* \"#utility.yul\":1050:1062   */\n  revert\n    /* \"#utility.yul\":1074:1196   */\ntag_11:\n    /* \"#utility.yul\":1147:1171   */\n  tag_28\n    /* \"#utility.yul\":1165:1170   */\n  dup2\n    /* \"#utility.yul\":1147:1171   */\n  tag_19\n  jump\t// in\ntag_28:\n    /* \"#utility.yul\":1140:1145   */\n  dup2\n    /* \"#utility.yul\":1137:1172   */\n  eq\n    /* \"#utility.yul\":1127:1190   */\n  tag_29\n  jumpi\n    /* \"#utility.yul\":1186:1187   */\n  0x00\n    /* \"#utility.yul\":1183:1184   */\n  dup1\n    /* \"#utility.yul\":1176:1188   */\n  revert\n    /* \"#utility.yul\":1127:1190   */\ntag_29:\n    /* \"#utility.yul\":1074:1196   */\n  pop\n  jump\t// out\n    /* \"sun5.0/sun.sol\":728:2315  contract SUN {... */\ntag_6:\n  dataSize(sub_0)\n  dup1\n  dataOffset(sub_0)\n  0x00\n  codecopy\n  0x00\n  return\nstop\n\nsub_0: assembly {\n        /* \"sun5.0/sun.sol\":728:2315  contract SUN {... */\n      mstore(0x40, 0x80)\n      jumpi(tag_1, lt(calldatasize, 0x04))\n      shr(0xe0, calldataload(0x00))\n      dup1\n      0x1509c42a\n      eq\n      tag_3\n      jumpi\n      dup1\n      0x46f188e4\n      eq\n      tag_4\n      jumpi\n      jump(tag_2)\n    tag_1:\n      jumpi(tag_2, calldatasize)\n      stop\n    tag_2:\n      0x00\n      dup1\n      revert\n        /* \"sun5.0/sun.sol\":1360:1382  PowerReserve public pr */\n    tag_3:\n      callvalue\n      dup1\n      iszero\n      tag_7\n      jumpi\n      0x00\n      dup1\n      revert\n    tag_7:\n      pop\n      tag_8\n      tag_9\n      jump\t// in\n    tag_8:\n      mload(0x40)\n      tag_10\n      swap7\n      swap6\n      swap5\n      swap4\n      swap3\n      swap2\n      swap1\n      tag_11\n      jump\t// in\n    tag_10:\n      mload(0x40)\n      dup1\n      swap2\n      sub\n      swap1\n      return\n        /* \"sun5.0/sun.sol\":1819:2061  function Aspirated(address toAddress,uint256 amount)external onlyManager payable returns(bool){... */\n    tag_4:\n      tag_12\n      0x04\n      dup1\n      calldatasize\n      sub\n      dup2\n      add\n      swap1\n      tag_13\n      swap2\n      swap1\n      tag_14\n      jump\t// in\n    tag_13:\n      tag_15\n      jump\t// in\n    tag_12:\n      mload(0x40)\n      tag_16\n      swap2\n      swap1\n      tag_17\n      jump\t// in\n    tag_16:\n      mload(0x40)\n      dup1\n      swap2\n      sub\n      swap1\n      return\n        /* \"sun5.0/sun.sol\":1360:1382  PowerReserve public pr */\n    tag_9:\n      0x01\n      dup1\n      0x00\n      add\n      sload\n      swap1\n      dup1\n      0x01\n      add\n      sload\n      swap1\n      dup1\n      0x02\n      add\n      sload\n      swap1\n      dup1\n      0x03\n      add\n      sload\n      swap1\n      dup1\n      0x04\n      add\n      sload\n      swap1\n      dup1\n      0x05\n      add\n      sload\n      swap1\n      pop\n      dup7\n      jump\t// out\n        /* \"sun5.0/sun.sol\":1819:2061  function Aspirated(address toAddress,uint256 amount)external onlyManager payable returns(bool){... */\n    tag_15:\n        /* \"sun5.0/sun.sol\":1908:1912  bool */\n      0x00\n        /* \"sun5.0/sun.sol\":2237:2244  manager */\n      dup1\n      0x00\n      swap1\n      sload\n      swap1\n      0x0100\n      exp\n      swap1\n      div\n      0xffffffffffffffffffffffffffffffffffffffff\n      and\n        /* \"sun5.0/sun.sol\":2223:2244  msg.sender == manager */\n      0xffffffffffffffffffffffffffffffffffffffff\n      and\n        /* \"sun5.0/sun.sol\":2223:2233  msg.sender */\n      caller\n        /* \"sun5.0/sun.sol\":2223:2244  msg.sender == manager */\n      0xffffffffffffffffffffffffffffffffffffffff\n      and\n      eq\n        /* \"sun5.0/sun.sol\":2202:2295  require(... */\n      tag_19\n      jumpi\n      mload(0x40)\n      0x08c379a000000000000000000000000000000000000000000000000000000000\n      dup2\n      mstore\n      0x04\n      add\n      tag_20\n      swap1\n      tag_21\n      jump\t// in\n    tag_20:\n      mload(0x40)\n      dup1\n      swap2\n      sub\n      swap1\n      revert\n    tag_19:\n        /* \"sun5.0/sun.sol\":1927:1960  address payable toAddress_address */\n      0x00\n        /* \"sun5.0/sun.sol\":1971:1980  toAddress */\n      dup4\n        /* \"sun5.0/sun.sol\":1927:1981  address payable toAddress_address = payable(toAddress) */\n      swap1\n      pop\n        /* \"sun5.0/sun.sol\":1995:2012  toAddress_address */\n      dup1\n        /* \"sun5.0/sun.sol\":1995:2021  toAddress_address.transfer */\n      0xffffffffffffffffffffffffffffffffffffffff\n      and\n        /* \"sun5.0/sun.sol\":1995:2029  toAddress_address.transfer(amount) */\n      0x08fc\n        /* \"sun5.0/sun.sol\":2022:2028  amount */\n      dup5\n        /* \"sun5.0/sun.sol\":1995:2029  toAddress_address.transfer(amount) */\n      swap1\n      dup2\n      iszero\n      mul\n      swap1\n      mload(0x40)\n      0x00\n      mload(0x40)\n      dup1\n      dup4\n      sub\n      dup2\n      dup6\n      dup9\n      dup9\n      call\n      swap4\n      pop\n      pop\n      pop\n      pop\n      iszero\n      dup1\n      iszero\n      tag_24\n      jumpi\n      returndatasize\n      0x00\n      dup1\n      returndatacopy\n      revert(0x00, returndatasize)\n    tag_24:\n      pop\n        /* \"sun5.0/sun.sol\":2050:2054  true */\n      0x01\n        /* \"sun5.0/sun.sol\":2043:2054  return true */\n      swap2\n      pop\n      pop\n        /* \"sun5.0/sun.sol\":1819:2061  function Aspirated(address toAddress,uint256 amount)external onlyManager payable returns(bool){... */\n      swap3\n      swap2\n      pop\n      pop\n      jump\t// out\n        /* \"#utility.yul\":7:146   */\n    tag_26:\n        /* \"#utility.yul\":53:58   */\n      0x00\n        /* \"#utility.yul\":91:97   */\n      dup2\n        /* \"#utility.yul\":78:98   */\n      calldataload\n        /* \"#utility.yul\":69:98   */\n      swap1\n      pop\n        /* \"#utility.yul\":107:140   */\n      tag_28\n        /* \"#utility.yul\":134:139   */\n      dup2\n        /* \"#utility.yul\":107:140   */\n      tag_29\n      jump\t// in\n    tag_28:\n        /* \"#utility.yul\":7:146   */\n      swap3\n      swap2\n      pop\n      pop\n      jump\t// out\n        /* \"#utility.yul\":152:291   */\n    tag_30:\n        /* \"#utility.yul\":198:203   */\n      0x00\n        /* \"#utility.yul\":236:242   */\n      dup2\n        /* \"#utility.yul\":223:243   */\n      calldataload\n        /* \"#utility.yul\":214:243   */\n      swap1\n      pop\n        /* \"#utility.yul\":252:285   */\n      tag_32\n        /* \"#utility.yul\":279:284   */\n      dup2\n        /* \"#utility.yul\":252:285   */\n      tag_33\n      jump\t// in\n    tag_32:\n        /* \"#utility.yul\":152:291   */\n      swap3\n      swap2\n      pop\n      pop\n      jump\t// out\n        /* \"#utility.yul\":297:771   */\n    tag_14:\n        /* \"#utility.yul\":365:371   */\n      0x00\n        /* \"#utility.yul\":373:379   */\n      dup1\n        /* \"#utility.yul\":422:424   */\n      0x40\n        /* \"#utility.yul\":410:419   */\n      dup4\n        /* \"#utility.yul\":401:408   */\n      dup6\n        /* \"#utility.yul\":397:420   */\n      sub\n        /* \"#utility.yul\":393:425   */\n      slt\n        /* \"#utility.yul\":390:509   */\n      iszero\n      tag_35\n      jumpi\n        /* \"#utility.yul\":428:507   */\n      tag_36\n      tag_37\n      jump\t// in\n    tag_36:\n        /* \"#utility.yul\":390:509   */\n    tag_35:\n        /* \"#utility.yul\":548:549   */\n      0x00\n        /* \"#utility.yul\":573:626   */\n      tag_38\n        /* \"#utility.yul\":618:625   */\n      dup6\n        /* \"#utility.yul\":609:615   */\n      dup3\n        /* \"#utility.yul\":598:607   */\n      dup7\n        /* \"#utility.yul\":594:616   */\n      add\n        /* \"#utility.yul\":573:626   */\n      tag_26\n      jump\t// in\n    tag_38:\n        /* \"#utility.yul\":563:626   */\n      swap3\n      pop\n        /* \"#utility.yul\":519:636   */\n      pop\n        /* \"#utility.yul\":675:677   */\n      0x20\n        /* \"#utility.yul\":701:754   */\n      tag_39\n        /* \"#utility.yul\":746:753   */\n      dup6\n        /* \"#utility.yul\":737:743   */\n      dup3\n        /* \"#utility.yul\":726:735   */\n      dup7\n        /* \"#utility.yul\":722:744   */\n      add\n        /* \"#utility.yul\":701:754   */\n      tag_30\n      jump\t// in\n    tag_39:\n        /* \"#utility.yul\":691:754   */\n      swap2\n      pop\n        /* \"#utility.yul\":646:764   */\n      pop\n        /* \"#utility.yul\":297:771   */\n      swap3\n      pop\n      swap3\n      swap1\n      pop\n      jump\t// out\n        /* \"#utility.yul\":777:886   */\n    tag_40:\n        /* \"#utility.yul\":858:879   */\n      tag_42\n        /* \"#utility.yul\":873:878   */\n      dup2\n        /* \"#utility.yul\":858:879   */\n      tag_43\n      jump\t// in\n    tag_42:\n        /* \"#utility.yul\":853:856   */\n      dup3\n        /* \"#utility.yul\":846:880   */\n      mstore\n        /* \"#utility.yul\":777:886   */\n      pop\n      pop\n      jump\t// out\n        /* \"#utility.yul\":892:1258   */\n    tag_44:\n        /* \"#utility.yul\":1034:1037   */\n      0x00\n        /* \"#utility.yul\":1055:1122   */\n      tag_46\n        /* \"#utility.yul\":1119:1121   */\n      0x19\n        /* \"#utility.yul\":1114:1117   */\n      dup4\n        /* \"#utility.yul\":1055:1122   */\n      tag_47\n      jump\t// in\n    tag_46:\n        /* \"#utility.yul\":1048:1122   */\n      swap2\n      pop\n        /* \"#utility.yul\":1131:1224   */\n      tag_48\n        /* \"#utility.yul\":1220:1223   */\n      dup3\n        /* \"#utility.yul\":1131:1224   */\n      tag_49\n      jump\t// in\n    tag_48:\n        /* \"#utility.yul\":1249:1251   */\n      0x20\n        /* \"#utility.yul\":1244:1247   */\n      dup3\n        /* \"#utility.yul\":1240:1252   */\n      add\n        /* \"#utility.yul\":1233:1252   */\n      swap1\n      pop\n        /* \"#utility.yul\":892:1258   */\n      swap2\n      swap1\n      pop\n      jump\t// out\n        /* \"#utility.yul\":1264:1382   */\n    tag_50:\n        /* \"#utility.yul\":1351:1375   */\n      tag_52\n        /* \"#utility.yul\":1369:1374   */\n      dup2\n        /* \"#utility.yul\":1351:1375   */\n      tag_53\n      jump\t// in\n    tag_52:\n        /* \"#utility.yul\":1346:1349   */\n      dup3\n        /* \"#utility.yul\":1339:1376   */\n      mstore\n        /* \"#utility.yul\":1264:1382   */\n      pop\n      pop\n      jump\t// out\n        /* \"#utility.yul\":1388:1598   */\n    tag_17:\n        /* \"#utility.yul\":1475:1479   */\n      0x00\n        /* \"#utility.yul\":1513:1515   */\n      0x20\n        /* \"#utility.yul\":1502:1511   */\n      dup3\n        /* \"#utility.yul\":1498:1516   */\n      add\n        /* \"#utility.yul\":1490:1516   */\n      swap1\n      pop\n        /* \"#utility.yul\":1526:1591   */\n      tag_55\n        /* \"#utility.yul\":1588:1589   */\n      0x00\n        /* \"#utility.yul\":1577:1586   */\n      dup4\n        /* \"#utility.yul\":1573:1590   */\n      add\n        /* \"#utility.yul\":1564:1570   */\n      dup5\n        /* \"#utility.yul\":1526:1591   */\n      tag_40\n      jump\t// in\n    tag_55:\n        /* \"#utility.yul\":1388:1598   */\n      swap3\n      swap2\n      pop\n      pop\n      jump\t// out\n        /* \"#utility.yul\":1604:2023   */\n    tag_21:\n        /* \"#utility.yul\":1770:1774   */\n      0x00\n        /* \"#utility.yul\":1808:1810   */\n      0x20\n        /* \"#utility.yul\":1797:1806   */\n      dup3\n        /* \"#utility.yul\":1793:1811   */\n      add\n        /* \"#utility.yul\":1785:1811   */\n      swap1\n      pop\n        /* \"#utility.yul\":1857:1866   */\n      dup2\n        /* \"#utility.yul\":1851:1855   */\n      dup2\n        /* \"#utility.yul\":1847:1867   */\n      sub\n        /* \"#utility.yul\":1843:1844   */\n      0x00\n        /* \"#utility.yul\":1832:1841   */\n      dup4\n        /* \"#utility.yul\":1828:1845   */\n      add\n        /* \"#utility.yul\":1821:1868   */\n      mstore\n        /* \"#utility.yul\":1885:2016   */\n      tag_57\n        /* \"#utility.yul\":2011:2015   */\n      dup2\n        /* \"#utility.yul\":1885:2016   */\n      tag_44\n      jump\t// in\n    tag_57:\n        /* \"#utility.yul\":1877:2016   */\n      swap1\n      pop\n        /* \"#utility.yul\":1604:2023   */\n      swap2\n      swap1\n      pop\n      jump\t// out\n        /* \"#utility.yul\":2029:2804   */\n    tag_11:\n        /* \"#utility.yul\":2262:2266   */\n      0x00\n        /* \"#utility.yul\":2300:2303   */\n      0xc0\n        /* \"#utility.yul\":2289:2298   */\n      dup3\n        /* \"#utility.yul\":2285:2304   */\n      add\n        /* \"#utility.yul\":2277:2304   */\n      swap1\n      pop\n        /* \"#utility.yul\":2314:2385   */\n      tag_59\n        /* \"#utility.yul\":2382:2383   */\n      0x00\n        /* \"#utility.yul\":2371:2380   */\n      dup4\n        /* \"#utility.yul\":2367:2384   */\n      add\n        /* \"#utility.yul\":2358:2364   */\n      dup10\n        /* \"#utility.yul\":2314:2385   */\n      tag_50\n      jump\t// in\n    tag_59:\n        /* \"#utility.yul\":2395:2467   */\n      tag_60\n        /* \"#utility.yul\":2463:2465   */\n      0x20\n        /* \"#utility.yul\":2452:2461   */\n      dup4\n        /* \"#utility.yul\":2448:2466   */\n      add\n        /* \"#utility.yul\":2439:2445   */\n      dup9\n        /* \"#utility.yul\":2395:2467   */\n      tag_50\n      jump\t// in\n    tag_60:\n        /* \"#utility.yul\":2477:2549   */\n      tag_61\n        /* \"#utility.yul\":2545:2547   */\n      0x40\n        /* \"#utility.yul\":2534:2543   */\n      dup4\n        /* \"#utility.yul\":2530:2548   */\n      add\n        /* \"#utility.yul\":2521:2527   */\n      dup8\n        /* \"#utility.yul\":2477:2549   */\n      tag_50\n      jump\t// in\n    tag_61:\n        /* \"#utility.yul\":2559:2631   */\n      tag_62\n        /* \"#utility.yul\":2627:2629   */\n      0x60\n        /* \"#utility.yul\":2616:2625   */\n      dup4\n        /* \"#utility.yul\":2612:2630   */\n      add\n        /* \"#utility.yul\":2603:2609   */\n      dup7\n        /* \"#utility.yul\":2559:2631   */\n      tag_50\n      jump\t// in\n    tag_62:\n        /* \"#utility.yul\":2641:2714   */\n      tag_63\n        /* \"#utility.yul\":2709:2712   */\n      0x80\n        /* \"#utility.yul\":2698:2707   */\n      dup4\n        /* \"#utility.yul\":2694:2713   */\n      add\n        /* \"#utility.yul\":2685:2691   */\n      dup6\n        /* \"#utility.yul\":2641:2714   */\n      tag_50\n      jump\t// in\n    tag_63:\n        /* \"#utility.yul\":2724:2797   */\n      tag_64\n        /* \"#utility.yul\":2792:2795   */\n      0xa0\n        /* \"#utility.yul\":2781:2790   */\n      dup4\n        /* \"#utility.yul\":2777:2796   */\n      add\n        /* \"#utility.yul\":2768:2774   */\n      dup5\n        /* \"#utility.yul\":2724:2797   */\n      tag_50\n      jump\t// in\n    tag_64:\n        /* \"#utility.yul\":2029:2804   */\n      swap8\n      swap7\n      pop\n      pop\n      pop\n      pop\n      pop\n      pop\n      pop\n      jump\t// out\n        /* \"#utility.yul\":2891:3060   */\n    tag_47:\n        /* \"#utility.yul\":2975:2986   */\n      0x00\n        /* \"#utility.yul\":3009:3015   */\n      dup3\n        /* \"#utility.yul\":3004:3007   */\n      dup3\n        /* \"#utility.yul\":2997:3016   */\n      mstore\n        /* \"#utility.yul\":3049:3053   */\n      0x20\n        /* \"#utility.yul\":3044:3047   */\n      dup3\n        /* \"#utility.yul\":3040:3054   */\n      add\n        /* \"#utility.yul\":3025:3054   */\n      swap1\n      pop\n        /* \"#utility.yul\":2891:3060   */\n      swap3\n      swap2\n      pop\n      pop\n      jump\t// out\n        /* \"#utility.yul\":3066:3162   */\n    tag_68:\n        /* \"#utility.yul\":3103:3110   */\n      0x00\n        /* \"#utility.yul\":3132:3156   */\n      tag_70\n        /* \"#utility.yul\":3150:3155   */\n      dup3\n        /* \"#utility.yul\":3132:3156   */\n      tag_71\n      jump\t// in\n    tag_70:\n        /* \"#utility.yul\":3121:3156   */\n      swap1\n      pop\n        /* \"#utility.yul\":3066:3162   */\n      swap2\n      swap1\n      pop\n      jump\t// out\n        /* \"#utility.yul\":3168:3258   */\n    tag_43:\n        /* \"#utility.yul\":3202:3209   */\n      0x00\n        /* \"#utility.yul\":3245:3250   */\n      dup2\n        /* \"#utility.yul\":3238:3251   */\n      iszero\n        /* \"#utility.yul\":3231:3252   */\n      iszero\n        /* \"#utility.yul\":3220:3252   */\n      swap1\n      pop\n        /* \"#utility.yul\":3168:3258   */\n      swap2\n      swap1\n      pop\n      jump\t// out\n        /* \"#utility.yul\":3264:3390   */\n    tag_71:\n        /* \"#utility.yul\":3301:3308   */\n      0x00\n        /* \"#utility.yul\":3341:3383   */\n      0xffffffffffffffffffffffffffffffffffffffff\n        /* \"#utility.yul\":3334:3339   */\n      dup3\n        /* \"#utility.yul\":3330:3384   */\n      and\n        /* \"#utility.yul\":3319:3384   */\n      swap1\n      pop\n        /* \"#utility.yul\":3264:3390   */\n      swap2\n      swap1\n      pop\n      jump\t// out\n        /* \"#utility.yul\":3396:3473   */\n    tag_53:\n        /* \"#utility.yul\":3433:3440   */\n      0x00\n        /* \"#utility.yul\":3462:3467   */\n      dup2\n        /* \"#utility.yul\":3451:3467   */\n      swap1\n      pop\n        /* \"#utility.yul\":3396:3473   */\n      swap2\n      swap1\n      pop\n      jump\t// out\n        /* \"#utility.yul\":3602:3719   */\n    tag_37:\n        /* \"#utility.yul\":3711:3712   */\n      0x00\n        /* \"#utility.yul\":3708:3709   */\n      dup1\n        /* \"#utility.yul\":3701:3713   */\n      revert\n        /* \"#utility.yul\":3725:3900   */\n    tag_49:\n        /* \"#utility.yul\":3865:3892   */\n      0x4f6e6c79206f776e65722063616e2063616c6c20746869732e00000000000000\n        /* \"#utility.yul\":3861:3862   */\n      0x00\n        /* \"#utility.yul\":3853:3859   */\n      dup3\n        /* \"#utility.yul\":3849:3863   */\n      add\n        /* \"#utility.yul\":3842:3893   */\n      mstore\n        /* \"#utility.yul\":3725:3900   */\n      pop\n      jump\t// out\n        /* \"#utility.yul\":3906:4028   */\n    tag_29:\n        /* \"#utility.yul\":3979:4003   */\n      tag_80\n        /* \"#utility.yul\":3997:4002   */\n      dup2\n        /* \"#utility.yul\":3979:4003   */\n      tag_68\n      jump\t// in\n    tag_80:\n        /* \"#utility.yul\":3972:3977   */\n      dup2\n        /* \"#utility.yul\":3969:4004   */\n      eq\n        /* \"#utility.yul\":3959:4022   */\n      tag_81\n      jumpi\n        /* \"#utility.yul\":4018:4019   */\n      0x00\n        /* \"#utility.yul\":4015:4016   */\n      dup1\n        /* \"#utility.yul\":4008:4020   */\n      revert\n        /* \"#utility.yul\":3959:4022   */\n    tag_81:\n        /* \"#utility.yul\":3906:4028   */\n      pop\n      jump\t// out\n        /* \"#utility.yul\":4034:4156   */\n    tag_33:\n        /* \"#utility.yul\":4107:4131   */\n      tag_83\n        /* \"#utility.yul\":4125:4130   */\n      dup2\n        /* \"#utility.yul\":4107:4131   */\n      tag_53\n      jump\t// in\n    tag_83:\n        /* \"#utility.yul\":4100:4105   */\n      dup2\n        /* \"#utility.yul\":4097:4132   */\n      eq\n        /* \"#utility.yul\":4087:4150   */\n      tag_84\n      jumpi\n        /* \"#utility.yul\":4146:4147   */\n      0x00\n        /* \"#utility.yul\":4143:4144   */\n      dup1\n        /* \"#utility.yul\":4136:4148   */\n      revert\n        /* \"#utility.yul\":4087:4150   */\n    tag_84:\n        /* \"#utility.yul\":4034:4156   */\n      pop\n      jump\t// out\n\n    auxdata: 0xa2646970667358221220508d0428ee77e9d84373e5dcc13af390789356beacfdb353d0c532ca9f50f8fb64736f6c63430008070033\n}\n",
				"bytecode": {
					"linkReferences": {},
					"object": "608060405234801561001057600080fd5b50604051610535380380610535833981810160405281019061003291906100ce565b806000806101000a81548173ffffffffffffffffffffffffffffffffffffffff021916908373ffffffffffffffffffffffffffffffffffffffff160217905550600060016000018190555060006001800181905550600060016002018190555060006001600301819055506000600160040181905550600060016005018190555050610149565b6000815190506100c881610132565b92915050565b6000602082840312156100e4576100e361012d565b5b60006100f2848285016100b9565b91505092915050565b60006101068261010d565b9050919050565b600073ffffffffffffffffffffffffffffffffffffffff82169050919050565b600080fd5b61013b816100fb565b811461014657600080fd5b50565b6103dd806101586000396000f3fe60806040526004361061002d5760003560e01c80631509c42a1461003957806346f188e41461006957610034565b3661003457005b600080fd5b34801561004557600080fd5b5061004e610099565b60405161006096959493929190610291565b60405180910390f35b610083600480360381019061007e91906101d5565b6100c3565b6040516100909190610256565b60405180910390f35b60018060000154908060010154908060020154908060030154908060040154908060050154905086565b60008060009054906101000a900473ffffffffffffffffffffffffffffffffffffffff1673ffffffffffffffffffffffffffffffffffffffff163373ffffffffffffffffffffffffffffffffffffffff1614610154576040517f08c379a000000000000000000000000000000000000000000000000000000000815260040161014b90610271565b60405180910390fd5b60008390508073ffffffffffffffffffffffffffffffffffffffff166108fc849081150290604051600060405180830381858888f1935050505015801561019f573d6000803e3d6000fd5b50600191505092915050565b6000813590506101ba81610379565b92915050565b6000813590506101cf81610390565b92915050565b600080604083850312156101ec576101eb61034b565b5b60006101fa858286016101ab565b925050602061020b858286016101c0565b9150509250929050565b61021e81610315565b82525050565b60006102316019836102f2565b915061023c82610350565b602082019050919050565b61025081610341565b82525050565b600060208201905061026b6000830184610215565b92915050565b6000602082019050818103600083015261028a81610224565b9050919050565b600060c0820190506102a66000830189610247565b6102b36020830188610247565b6102c06040830187610247565b6102cd6060830186610247565b6102da6080830185610247565b6102e760a0830184610247565b979650505050505050565b600082825260208201905092915050565b600061030e82610321565b9050919050565b60008115159050919050565b600073ffffffffffffffffffffffffffffffffffffffff82169050919050565b6000819050919050565b600080fd5b7f4f6e6c79206f776e65722063616e2063616c6c20746869732e00000000000000600082015250565b61038281610303565b811461038d57600080fd5b50565b61039981610341565b81146103a457600080fd5b5056fea2646970667358221220508d0428ee77e9d84373e5dcc13af390789356beacfdb353d0c532ca9f50f8fb64736f6c63430008070033",
					"opcodes": "PUSH1 0x80 PUSH1 0x40 MSTORE CALLVALUE DUP1 ISZERO PUSH2 0x10 JUMPI PUSH1 0x0 DUP1 REVERT JUMPDEST POP PUSH1 0x40 MLOAD PUSH2 0x535 CODESIZE SUB DUP1 PUSH2 0x535 DUP4 CODECOPY DUP2 DUP2 ADD PUSH1 0x40 MSTORE DUP2 ADD SWAP1 PUSH2 0x32 SWAP2 SWAP1 PUSH2 0xCE JUMP JUMPDEST DUP1 PUSH1 0x0 DUP1 PUSH2 0x100 EXP DUP2 SLOAD DUP2 PUSH20 0xFFFFFFFFFFFFFFFFFFFFFFFFFFFFFFFFFFFFFFFF MUL NOT AND SWAP1 DUP4 PUSH20 0xFFFFFFFFFFFFFFFFFFFFFFFFFFFFFFFFFFFFFFFF AND MUL OR SWAP1 SSTORE POP PUSH1 0x0 PUSH1 0x1 PUSH1 0x0 ADD DUP2 SWAP1 SSTORE POP PUSH1 0x0 PUSH1 0x1 DUP1 ADD DUP2 SWAP1 SSTORE POP PUSH1 0x0 PUSH1 0x1 PUSH1 0x2 ADD DUP2 SWAP1 SSTORE POP PUSH1 0x0 PUSH1 0x1 PUSH1 0x3 ADD DUP2 SWAP1 SSTORE POP PUSH1 0x0 PUSH1 0x1 PUSH1 0x4 ADD DUP2 SWAP1 SSTORE POP PUSH1 0x0 PUSH1 0x1 PUSH1 0x5 ADD DUP2 SWAP1 SSTORE POP POP PUSH2 0x149 JUMP JUMPDEST PUSH1 0x0 DUP2 MLOAD SWAP1 POP PUSH2 0xC8 DUP2 PUSH2 0x132 JUMP JUMPDEST SWAP3 SWAP2 POP POP JUMP JUMPDEST PUSH1 0x0 PUSH1 0x20 DUP3 DUP5 SUB SLT ISZERO PUSH2 0xE4 JUMPI PUSH2 0xE3 PUSH2 0x12D JUMP JUMPDEST JUMPDEST PUSH1 0x0 PUSH2 0xF2 DUP5 DUP3 DUP6 ADD PUSH2 0xB9 JUMP JUMPDEST SWAP2 POP POP SWAP3 SWAP2 POP POP JUMP JUMPDEST PUSH1 0x0 PUSH2 0x106 DUP3 PUSH2 0x10D JUMP JUMPDEST SWAP1 POP SWAP2 SWAP1 POP JUMP JUMPDEST PUSH1 0x0 PUSH20 0xFFFFFFFFFFFFFFFFFFFFFFFFFFFFFFFFFFFFFFFF DUP3 AND SWAP1 POP SWAP2 SWAP1 POP JUMP JUMPDEST PUSH1 0x0 DUP1 REVERT JUMPDEST PUSH2 0x13B DUP2 PUSH2 0xFB JUMP JUMPDEST DUP2 EQ PUSH2 0x146 JUMPI PUSH1 0x0 DUP1 REVERT JUMPDEST POP JUMP JUMPDEST PUSH2 0x3DD DUP1 PUSH2 0x158 PUSH1 0x0 CODECOPY PUSH1 0x0 RETURN INVALID PUSH1 0x80 PUSH1 0x40 MSTORE PUSH1 0x4 CALLDATASIZE LT PUSH2 0x2D JUMPI PUSH1 0x0 CALLDATALOAD PUSH1 0xE0 SHR DUP1 PUSH4 0x1509C42A EQ PUSH2 0x39 JUMPI DUP1 PUSH4 0x46F188E4 EQ PUSH2 0x69 JUMPI PUSH2 0x34 JUMP JUMPDEST CALLDATASIZE PUSH2 0x34 JUMPI STOP JUMPDEST PUSH1 0x0 DUP1 REVERT JUMPDEST CALLVALUE DUP1 ISZERO PUSH2 0x45 JUMPI PUSH1 0x0 DUP1 REVERT JUMPDEST POP PUSH2 0x4E PUSH2 0x99 JUMP JUMPDEST PUSH1 0x40 MLOAD PUSH2 0x60 SWAP7 SWAP6 SWAP5 SWAP4 SWAP3 SWAP2 SWAP1 PUSH2 0x291 JUMP JUMPDEST PUSH1 0x40 MLOAD DUP1 SWAP2 SUB SWAP1 RETURN JUMPDEST PUSH2 0x83 PUSH1 0x4 DUP1 CALLDATASIZE SUB DUP2 ADD SWAP1 PUSH2 0x7E SWAP2 SWAP1 PUSH2 0x1D5 JUMP JUMPDEST PUSH2 0xC3 JUMP JUMPDEST PUSH1 0x40 MLOAD PUSH2 0x90 SWAP2 SWAP1 PUSH2 0x256 JUMP JUMPDEST PUSH1 0x40 MLOAD DUP1 SWAP2 SUB SWAP1 RETURN JUMPDEST PUSH1 0x1 DUP1 PUSH1 0x0 ADD SLOAD SWAP1 DUP1 PUSH1 0x1 ADD SLOAD SWAP1 DUP1 PUSH1 0x2 ADD SLOAD SWAP1 DUP1 PUSH1 0x3 ADD SLOAD SWAP1 DUP1 PUSH1 0x4 ADD SLOAD SWAP1 DUP1 PUSH1 0x5 ADD SLOAD SWAP1 POP DUP7 JUMP JUMPDEST PUSH1 0x0 DUP1 PUSH1 0x0 SWAP1 SLOAD SWAP1 PUSH2 0x100 EXP SWAP1 DIV PUSH20 0xFFFFFFFFFFFFFFFFFFFFFFFFFFFFFFFFFFFFFFFF AND PUSH20 0xFFFFFFFFFFFFFFFFFFFFFFFFFFFFFFFFFFFFFFFF AND CALLER PUSH20 0xFFFFFFFFFFFFFFFFFFFFFFFFFFFFFFFFFFFFFFFF AND EQ PUSH2 0x154 JUMPI PUSH1 0x40 MLOAD PUSH32 0x8C379A000000000000000000000000000000000000000000000000000000000 DUP2 MSTORE PUSH1 0x4 ADD PUSH2 0x14B SWAP1 PUSH2 0x271 JUMP JUMPDEST PUSH1 0x40 MLOAD DUP1 SWAP2 SUB SWAP1 REVERT JUMPDEST PUSH1 0x0 DUP4 SWAP1 POP DUP1 PUSH20 0xFFFFFFFFFFFFFFFFFFFFFFFFFFFFFFFFFFFFFFFF AND PUSH2 0x8FC DUP5 SWAP1 DUP2 ISZERO MUL SWAP1 PUSH1 0x40 MLOAD PUSH1 0x0 PUSH1 0x40 MLOAD DUP1 DUP4 SUB DUP2 DUP6 DUP9 DUP9 CALL SWAP4 POP POP POP POP ISZERO DUP1 ISZERO PUSH2 0x19F JUMPI RETURNDATASIZE PUSH1 0x0 DUP1 RETURNDATACOPY RETURNDATASIZE PUSH1 0x0 REVERT JUMPDEST POP PUSH1 0x1 SWAP2 POP POP SWAP3 SWAP2 POP POP JUMP JUMPDEST PUSH1 0x0 DUP2 CALLDATALOAD SWAP1 POP PUSH2 0x1BA DUP2 PUSH2 0x379 JUMP JUMPDEST SWAP3 SWAP2 POP POP JUMP JUMPDEST PUSH1 0x0 DUP2 CALLDATALOAD SWAP1 POP PUSH2 0x1CF DUP2 PUSH2 0x390 JUMP JUMPDEST SWAP3 SWAP2 POP POP JUMP JUMPDEST PUSH1 0x0 DUP1 PUSH1 0x40 DUP4 DUP6 SUB SLT ISZERO PUSH2 0x1EC JUMPI PUSH2 0x1EB PUSH2 0x34B JUMP JUMPDEST JUMPDEST PUSH1 0x0 PUSH2 0x1FA DUP6 DUP3 DUP7 ADD PUSH2 0x1AB JUMP JUMPDEST SWAP3 POP POP PUSH1 0x20 PUSH2 0x20B DUP6 DUP3 DUP7 ADD PUSH2 0x1C0 JUMP JUMPDEST SWAP2 POP POP SWAP3 POP SWAP3 SWAP1 POP JUMP JUMPDEST PUSH2 0x21E DUP2 PUSH2 0x315 JUMP JUMPDEST DUP3 MSTORE POP POP JUMP JUMPDEST PUSH1 0x0 PUSH2 0x231 PUSH1 0x19 DUP4 PUSH2 0x2F2 JUMP JUMPDEST SWAP2 POP PUSH2 0x23C DUP3 PUSH2 0x350 JUMP JUMPDEST PUSH1 0x20 DUP3 ADD SWAP1 POP SWAP2 SWAP1 POP JUMP JUMPDEST PUSH2 0x250 DUP2 PUSH2 0x341 JUMP JUMPDEST DUP3 MSTORE POP POP JUMP JUMPDEST PUSH1 0x0 PUSH1 0x20 DUP3 ADD SWAP1 POP PUSH2 0x26B PUSH1 0x0 DUP4 ADD DUP5 PUSH2 0x215 JUMP JUMPDEST SWAP3 SWAP2 POP POP JUMP JUMPDEST PUSH1 0x0 PUSH1 0x20 DUP3 ADD SWAP1 POP DUP2 DUP2 SUB PUSH1 0x0 DUP4 ADD MSTORE PUSH2 0x28A DUP2 PUSH2 0x224 JUMP JUMPDEST SWAP1 POP SWAP2 SWAP1 POP JUMP JUMPDEST PUSH1 0x0 PUSH1 0xC0 DUP3 ADD SWAP1 POP PUSH2 0x2A6 PUSH1 0x0 DUP4 ADD DUP10 PUSH2 0x247 JUMP JUMPDEST PUSH2 0x2B3 PUSH1 0x20 DUP4 ADD DUP9 PUSH2 0x247 JUMP JUMPDEST PUSH2 0x2C0 PUSH1 0x40 DUP4 ADD DUP8 PUSH2 0x247 JUMP JUMPDEST PUSH2 0x2CD PUSH1 0x60 DUP4 ADD DUP7 PUSH2 0x247 JUMP JUMPDEST PUSH2 0x2DA PUSH1 0x80 DUP4 ADD DUP6 PUSH2 0x247 JUMP JUMPDEST PUSH2 0x2E7 PUSH1 0xA0 DUP4 ADD DUP5 PUSH2 0x247 JUMP JUMPDEST SWAP8 SWAP7 POP POP POP POP POP POP POP JUMP JUMPDEST PUSH1 0x0 DUP3 DUP3 MSTORE PUSH1 0x20 DUP3 ADD SWAP1 POP SWAP3 SWAP2 POP POP JUMP JUMPDEST PUSH1 0x0 PUSH2 0x30E DUP3 PUSH2 0x321 JUMP JUMPDEST SWAP1 POP SWAP2 SWAP1 POP JUMP JUMPDEST PUSH1 0x0 DUP2 ISZERO ISZERO SWAP1 POP SWAP2 SWAP1 POP JUMP JUMPDEST PUSH1 0x0 PUSH20 0xFFFFFFFFFFFFFFFFFFFFFFFFFFFFFFFFFFFFFFFF DUP3 AND SWAP1 POP SWAP2 SWAP1 POP JUMP JUMPDEST PUSH1 0x0 DUP2 SWAP1 POP SWAP2 SWAP1 POP JUMP JUMPDEST PUSH1 0x0 DUP1 REVERT JUMPDEST PUSH32 0x4F6E6C79206F776E65722063616E2063616C6C20746869732E00000000000000 PUSH1 0x0 DUP3 ADD MSTORE POP JUMP JUMPDEST PUSH2 0x382 DUP2 PUSH2 0x303 JUMP JUMPDEST DUP2 EQ PUSH2 0x38D JUMPI PUSH1 0x0 DUP1 REVERT JUMPDEST POP JUMP JUMPDEST PUSH2 0x399 DUP2 PUSH2 0x341 JUMP JUMPDEST DUP2 EQ PUSH2 0x3A4 JUMPI PUSH1 0x0 DUP1 REVERT JUMPDEST POP JUMP INVALID LOG2 PUSH5 0x6970667358 0x22 SLT KECCAK256 POP DUP14 DIV 0x28 0xEE PUSH24 0xE9D84373E5DCC13AF390789356BEACFDB353D0C532CA9F50 0xF8 0xFB PUSH5 0x736F6C6343 STOP ADDMOD SMOD STOP CALLER "
				},
				"gasEstimates": {
					"creation": {
						"codeDepositCost": "197800",
						"executionCost": "infinite",
						"totalCost": "infinite"
					},
					"external": {
						"Aspirated(address,uint256)": "infinite",
						"pr()": "infinite"
					},
					"internal": {
						"restartReserve()": "infinite"
					}
				},
				"methodIdentifiers": {
					"Aspirated(address,uint256)": "46f188e4",
					"pr()": "1509c42a"
				}
			},
			"storageLayout": {
				"storage": [
					{
						"astId": 170,
						"contract": "sun5.0/sun.sol:SUN",
						"label": "manager",
						"offset": 0,
						"slot": "0",
						"type": "t_address"
					},
					{
						"astId": 173,
						"contract": "sun5.0/sun.sol:SUN",
						"label": "pr",
						"offset": 0,
						"slot": "1",
						"type": "t_struct(PowerReserve)165_storage"
					},
					{
						"astId": 175,
						"contract": "sun5.0/sun.sol:SUN",
						"label": "AccumulatePower",
						"offset": 0,
						"slot": "7",
						"type": "t_uint256"
					}
				],
				"types": {
					"t_address": {
						"encoding": "inplace",
						"label": "address",
						"numberOfBytes": "20"
					},
					"t_struct(PowerReserve)165_storage": {
						"encoding": "inplace",
						"label": "struct SUN.PowerReserve",
						"members": [
							{
								"astId": 154,
								"contract": "sun5.0/sun.sol:SUN",
								"label": "AllPower",
								"offset": 0,
								"slot": "0",
								"type": "t_uint256"
							},
							{
								"astId": 156,
								"contract": "sun5.0/sun.sol:SUN",
								"label": "StoragePower",
								"offset": 0,
								"slot": "1",
								"type": "t_uint256"
							},
							{
								"astId": 158,
								"contract": "sun5.0/sun.sol:SUN",
								"label": "StaticPower",
								"offset": 0,
								"slot": "2",
								"type": "t_uint256"
							},
							{
								"astId": 160,
								"contract": "sun5.0/sun.sol:SUN",
								"label": "FlowPower",
								"offset": 0,
								"slot": "3",
								"type": "t_uint256"
							},
							{
								"astId": 162,
								"contract": "sun5.0/sun.sol:SUN",
								"label": "AspiratedPower",
								"offset": 0,
								"slot": "4",
								"type": "t_uint256"
							},
							{
								"astId": 164,
								"contract": "sun5.0/sun.sol:SUN",
								"label": "SalvationalPower",
								"offset": 0,
								"slot": "5",
								"type": "t_uint256"
							}
						],
						"numberOfBytes": "192"
					},
					"t_uint256": {
						"encoding": "inplace",
						"label": "uint256",
						"numberOfBytes": "32"
					}
				}
			},
			"userdoc": {
				"kind": "user",
				"methods": {},
				"version": 1
			}
		}
	}
}