{
	"wwcc-contracts/contracts/wwccPool.sol": {
		"WCPOOL": {
			"abi": [
				{
					"inputs": [
						{
							"internalType": "address",
							"name": "holder",
							"type": "address"
						},
						{
							"internalType": "uint256",
							"name": "firstBasal",
							"type": "uint256"
						}
					],
					"stateMutability": "nonpayable",
					"type": "constructor"
				},
				{
					"anonymous": false,
					"inputs": [
						{
							"indexed": false,
							"internalType": "address",
							"name": "",
							"type": "address"
						},
						{
							"indexed": false,
							"internalType": "uint256",
							"name": "",
							"type": "uint256"
						}
					],
					"name": "Received",
					"type": "event"
				},
				{
					"inputs": [
						{
							"internalType": "bytes32",
							"name": "poolKey",
							"type": "bytes32"
						},
						{
							"internalType": "uint256",
							"name": "homeScore",
							"type": "uint256"
						},
						{
							"internalType": "uint256",
							"name": "visitScore",
							"type": "uint256"
						},
						{
							"internalType": "uint256",
							"name": "result",
							"type": "uint256"
						}
					],
					"name": "Award",
					"outputs": [
						{
							"internalType": "bool",
							"name": "",
							"type": "bool"
						}
					],
					"stateMutability": "payable",
					"type": "function"
				},
				{
					"inputs": [],
					"name": "CheckBasal",
					"outputs": [
						{
							"internalType": "uint256",
							"name": "",
							"type": "uint256"
						}
					],
					"stateMutability": "nonpayable",
					"type": "function"
				},
				{
					"inputs": [
						{
							"internalType": "bytes32",
							"name": "poolKey",
							"type": "bytes32"
						}
					],
					"name": "CheckExpect",
					"outputs": [
						{
							"internalType": "uint256",
							"name": "",
							"type": "uint256"
						}
					],
					"stateMutability": "nonpayable",
					"type": "function"
				},
				{
					"inputs": [
						{
							"internalType": "address",
							"name": "joiner",
							"type": "address"
						},
						{
							"internalType": "uint256",
							"name": "weight",
							"type": "uint256"
						},
						{
							"internalType": "bytes32",
							"name": "poolKey",
							"type": "bytes32"
						},
						{
							"internalType": "uint256",
							"name": "homeScore",
							"type": "uint256"
						},
						{
							"internalType": "uint256",
							"name": "visitScore",
							"type": "uint256"
						},
						{
							"internalType": "uint256",
							"name": "kind",
							"type": "uint256"
						}
					],
					"name": "Picking",
					"outputs": [
						{
							"internalType": "bool",
							"name": "",
							"type": "bool"
						}
					],
					"stateMutability": "nonpayable",
					"type": "function"
				},
				{
					"inputs": [
						{
							"internalType": "bytes32",
							"name": "poolKey",
							"type": "bytes32"
						},
						{
							"internalType": "uint256",
							"name": "basal",
							"type": "uint256"
						}
					],
					"name": "Set_Basal",
					"outputs": [
						{
							"internalType": "bool",
							"name": "",
							"type": "bool"
						}
					],
					"stateMutability": "nonpayable",
					"type": "function"
				},
				{
					"inputs": [
						{
							"internalType": "string",
							"name": "home",
							"type": "string"
						},
						{
							"internalType": "string",
							"name": "visit",
							"type": "string"
						},
						{
							"internalType": "string",
							"name": "rounds",
							"type": "string"
						},
						{
							"internalType": "bool",
							"name": "decided",
							"type": "bool"
						}
					],
					"name": "Set_Pool",
					"outputs": [
						{
							"internalType": "bytes32",
							"name": "",
							"type": "bytes32"
						}
					],
					"stateMutability": "nonpayable",
					"type": "function"
				},
				{
					"inputs": [
						{
							"internalType": "address",
							"name": "toAddress",
							"type": "address"
						},
						{
							"internalType": "bytes32",
							"name": "poolKey",
							"type": "bytes32"
						}
					],
					"name": "Withdrawal",
					"outputs": [
						{
							"internalType": "bool",
							"name": "",
							"type": "bool"
						}
					],
					"stateMutability": "payable",
					"type": "function"
				},
				{
					"inputs": [
						{
							"internalType": "bytes32",
							"name": "poolKey",
							"type": "bytes32"
						}
					],
					"name": "getPool",
					"outputs": [
						{
							"internalType": "string",
							"name": "vs",
							"type": "string"
						},
						{
							"internalType": "string",
							"name": "rounds",
							"type": "string"
						},
						{
							"components": [
								{
									"internalType": "uint256",
									"name": "wPool",
									"type": "uint256"
								},
								{
									"internalType": "uint256",
									"name": "dPool",
									"type": "uint256"
								},
								{
									"internalType": "uint256",
									"name": "lPool",
									"type": "uint256"
								},
								{
									"internalType": "uint256",
									"name": "sPool",
									"type": "uint256"
								},
								{
									"internalType": "uint256",
									"name": "basal",
									"type": "uint256"
								}
							],
							"internalType": "struct WCPOOL.PoolViewInfo",
							"name": "viewInfo",
							"type": "tuple"
						}
					],
					"stateMutability": "view",
					"type": "function"
				},
				{
					"inputs": [
						{
							"internalType": "address",
							"name": "joiner",
							"type": "address"
						},
						{
							"internalType": "uint256",
							"name": "amount",
							"type": "uint256"
						}
					],
					"name": "voteWithdrawal",
					"outputs": [
						{
							"internalType": "bool",
							"name": "",
							"type": "bool"
						}
					],
					"stateMutability": "payable",
					"type": "function"
				},
				{
					"stateMutability": "payable",
					"type": "receive"
				}
			],
			"devdoc": {
				"kind": "dev",
				"methods": {},
				"version": 1
			},
			"evm": {
				"assembly": "    /* \"wwcc-contracts/contracts/wwccPool.sol\":96:12292  contract WCPOOL {... */\n  mstore(0x40, 0x80)\n    /* \"wwcc-contracts/contracts/wwccPool.sol\":1487:1734  constructor(... */\n  callvalue\n  dup1\n  iszero\n  tag_1\n  jumpi\n  0x00\n  dup1\n  revert\ntag_1:\n  pop\n  mload(0x40)\n  sub(codesize, bytecodeSize)\n  dup1\n  bytecodeSize\n  dup4\n  codecopy\n  dup2\n  dup2\n  add\n  0x40\n  mstore\n  dup2\n  add\n  swap1\n  tag_2\n  swap2\n  swap1\n  tag_3\n  jump\t// in\ntag_2:\n    /* \"wwcc-contracts/contracts/wwccPool.sol\":1615:1621  holder */\n  dup2\n    /* \"wwcc-contracts/contracts/wwccPool.sol\":1607:1612  owner */\n  0x00\n  dup1\n    /* \"wwcc-contracts/contracts/wwccPool.sol\":1607:1621  owner = holder */\n  0x0100\n  exp\n  dup2\n  sload\n  dup2\n  0xffffffffffffffffffffffffffffffffffffffff\n  mul\n  not\n  and\n  swap1\n  dup4\n  0xffffffffffffffffffffffffffffffffffffffff\n  and\n  mul\n  or\n  swap1\n  sstore\n  pop\n    /* \"wwcc-contracts/contracts/wwccPool.sol\":1647:1657  firstBasal */\n  dup1\n    /* \"wwcc-contracts/contracts/wwccPool.sol\":1631:1644  nextBasalLast */\n  0x07\n    /* \"wwcc-contracts/contracts/wwccPool.sol\":1631:1657  nextBasalLast = firstBasal */\n  dup2\n  swap1\n  sstore\n  pop\n    /* \"wwcc-contracts/contracts/wwccPool.sol\":1487:1734  constructor(... */\n  pop\n  pop\n    /* \"wwcc-contracts/contracts/wwccPool.sol\":96:12292  contract WCPOOL {... */\n  jump(tag_6)\n    /* \"#utility.yul\":7:150   */\ntag_8:\n    /* \"#utility.yul\":64:69   */\n  0x00\n    /* \"#utility.yul\":95:101   */\n  dup2\n    /* \"#utility.yul\":89:102   */\n  mload\n    /* \"#utility.yul\":80:102   */\n  swap1\n  pop\n    /* \"#utility.yul\":111:144   */\n  tag_10\n    /* \"#utility.yul\":138:143   */\n  dup2\n    /* \"#utility.yul\":111:144   */\n  tag_11\n  jump\t// in\ntag_10:\n    /* \"#utility.yul\":7:150   */\n  swap3\n  swap2\n  pop\n  pop\n  jump\t// out\n    /* \"#utility.yul\":156:299   */\ntag_12:\n    /* \"#utility.yul\":213:218   */\n  0x00\n    /* \"#utility.yul\":244:250   */\n  dup2\n    /* \"#utility.yul\":238:251   */\n  mload\n    /* \"#utility.yul\":229:251   */\n  swap1\n  pop\n    /* \"#utility.yul\":260:293   */\n  tag_14\n    /* \"#utility.yul\":287:292   */\n  dup2\n    /* \"#utility.yul\":260:293   */\n  tag_15\n  jump\t// in\ntag_14:\n    /* \"#utility.yul\":156:299   */\n  swap3\n  swap2\n  pop\n  pop\n  jump\t// out\n    /* \"#utility.yul\":305:812   */\ntag_3:\n    /* \"#utility.yul\":384:390   */\n  0x00\n    /* \"#utility.yul\":392:398   */\n  dup1\n    /* \"#utility.yul\":441:443   */\n  0x40\n    /* \"#utility.yul\":429:438   */\n  dup4\n    /* \"#utility.yul\":420:427   */\n  dup6\n    /* \"#utility.yul\":416:439   */\n  sub\n    /* \"#utility.yul\":412:444   */\n  slt\n    /* \"#utility.yul\":409:528   */\n  iszero\n  tag_17\n  jumpi\n    /* \"#utility.yul\":447:526   */\n  tag_18\n  tag_19\n  jump\t// in\ntag_18:\n    /* \"#utility.yul\":409:528   */\ntag_17:\n    /* \"#utility.yul\":567:568   */\n  0x00\n    /* \"#utility.yul\":592:656   */\n  tag_20\n    /* \"#utility.yul\":648:655   */\n  dup6\n    /* \"#utility.yul\":639:645   */\n  dup3\n    /* \"#utility.yul\":628:637   */\n  dup7\n    /* \"#utility.yul\":624:646   */\n  add\n    /* \"#utility.yul\":592:656   */\n  tag_8\n  jump\t// in\ntag_20:\n    /* \"#utility.yul\":582:656   */\n  swap3\n  pop\n    /* \"#utility.yul\":538:666   */\n  pop\n    /* \"#utility.yul\":705:707   */\n  0x20\n    /* \"#utility.yul\":731:795   */\n  tag_21\n    /* \"#utility.yul\":787:794   */\n  dup6\n    /* \"#utility.yul\":778:784   */\n  dup3\n    /* \"#utility.yul\":767:776   */\n  dup7\n    /* \"#utility.yul\":763:785   */\n  add\n    /* \"#utility.yul\":731:795   */\n  tag_12\n  jump\t// in\ntag_21:\n    /* \"#utility.yul\":721:795   */\n  swap2\n  pop\n    /* \"#utility.yul\":676:805   */\n  pop\n    /* \"#utility.yul\":305:812   */\n  swap3\n  pop\n  swap3\n  swap1\n  pop\n  jump\t// out\n    /* \"#utility.yul\":899:995   */\ntag_24:\n    /* \"#utility.yul\":936:943   */\n  0x00\n    /* \"#utility.yul\":965:989   */\n  tag_26\n    /* \"#utility.yul\":983:988   */\n  dup3\n    /* \"#utility.yul\":965:989   */\n  tag_27\n  jump\t// in\ntag_26:\n    /* \"#utility.yul\":954:989   */\n  swap1\n  pop\n    /* \"#utility.yul\":899:995   */\n  swap2\n  swap1\n  pop\n  jump\t// out\n    /* \"#utility.yul\":1001:1127   */\ntag_27:\n    /* \"#utility.yul\":1038:1045   */\n  0x00\n    /* \"#utility.yul\":1078:1120   */\n  0xffffffffffffffffffffffffffffffffffffffff\n    /* \"#utility.yul\":1071:1076   */\n  dup3\n    /* \"#utility.yul\":1067:1121   */\n  and\n    /* \"#utility.yul\":1056:1121   */\n  swap1\n  pop\n    /* \"#utility.yul\":1001:1127   */\n  swap2\n  swap1\n  pop\n  jump\t// out\n    /* \"#utility.yul\":1133:1210   */\ntag_29:\n    /* \"#utility.yul\":1170:1177   */\n  0x00\n    /* \"#utility.yul\":1199:1204   */\n  dup2\n    /* \"#utility.yul\":1188:1204   */\n  swap1\n  pop\n    /* \"#utility.yul\":1133:1210   */\n  swap2\n  swap1\n  pop\n  jump\t// out\n    /* \"#utility.yul\":1339:1456   */\ntag_19:\n    /* \"#utility.yul\":1448:1449   */\n  0x00\n    /* \"#utility.yul\":1445:1446   */\n  dup1\n    /* \"#utility.yul\":1438:1450   */\n  revert\n    /* \"#utility.yul\":1462:1584   */\ntag_11:\n    /* \"#utility.yul\":1535:1559   */\n  tag_35\n    /* \"#utility.yul\":1553:1558   */\n  dup2\n    /* \"#utility.yul\":1535:1559   */\n  tag_24\n  jump\t// in\ntag_35:\n    /* \"#utility.yul\":1528:1533   */\n  dup2\n    /* \"#utility.yul\":1525:1560   */\n  eq\n    /* \"#utility.yul\":1515:1578   */\n  tag_36\n  jumpi\n    /* \"#utility.yul\":1574:1575   */\n  0x00\n    /* \"#utility.yul\":1571:1572   */\n  dup1\n    /* \"#utility.yul\":1564:1576   */\n  revert\n    /* \"#utility.yul\":1515:1578   */\ntag_36:\n    /* \"#utility.yul\":1462:1584   */\n  pop\n  jump\t// out\n    /* \"#utility.yul\":1590:1712   */\ntag_15:\n    /* \"#utility.yul\":1663:1687   */\n  tag_38\n    /* \"#utility.yul\":1681:1686   */\n  dup2\n    /* \"#utility.yul\":1663:1687   */\n  tag_29\n  jump\t// in\ntag_38:\n    /* \"#utility.yul\":1656:1661   */\n  dup2\n    /* \"#utility.yul\":1653:1688   */\n  eq\n    /* \"#utility.yul\":1643:1706   */\n  tag_39\n  jumpi\n    /* \"#utility.yul\":1702:1703   */\n  0x00\n    /* \"#utility.yul\":1699:1700   */\n  dup1\n    /* \"#utility.yul\":1692:1704   */\n  revert\n    /* \"#utility.yul\":1643:1706   */\ntag_39:\n    /* \"#utility.yul\":1590:1712   */\n  pop\n  jump\t// out\n    /* \"wwcc-contracts/contracts/wwccPool.sol\":96:12292  contract WCPOOL {... */\ntag_6:\n  dataSize(sub_0)\n  dup1\n  dataOffset(sub_0)\n  0x00\n  codecopy\n  0x00\n  return\nstop\n\nsub_0: assembly {\n        /* \"wwcc-contracts/contracts/wwccPool.sol\":96:12292  contract WCPOOL {... */\n      mstore(0x40, 0x80)\n      jumpi(tag_1, lt(calldatasize, 0x04))\n      shr(0xe0, calldataload(0x00))\n      dup1\n      0x4121855f\n      gt\n      tag_12\n      jumpi\n      dup1\n      0x4121855f\n      eq\n      tag_7\n      jumpi\n      dup1\n      0x47e4dd27\n      eq\n      tag_8\n      jumpi\n      dup1\n      0x74fe9bc2\n      eq\n      tag_9\n      jumpi\n      dup1\n      0x9bd0abf1\n      eq\n      tag_10\n      jumpi\n      dup1\n      0xf6c00927\n      eq\n      tag_11\n      jumpi\n      jump(tag_2)\n    tag_12:\n      dup1\n      0x0ce49053\n      eq\n      tag_3\n      jumpi\n      dup1\n      0x2bf21ecc\n      eq\n      tag_4\n      jumpi\n      dup1\n      0x357965ba\n      eq\n      tag_5\n      jumpi\n      dup1\n      0x3e6ff1a2\n      eq\n      tag_6\n      jumpi\n      jump(tag_2)\n    tag_1:\n      jumpi(tag_2, calldatasize)\n        /* \"wwcc-contracts/contracts/wwccPool.sol\":12153:12158  owner */\n      0x00\n      dup1\n      sload\n      swap1\n      0x0100\n      exp\n      swap1\n      div\n      0xffffffffffffffffffffffffffffffffffffffff\n      and\n        /* \"wwcc-contracts/contracts/wwccPool.sol\":12139:12158  msg.sender != owner */\n      0xffffffffffffffffffffffffffffffffffffffff\n      and\n        /* \"wwcc-contracts/contracts/wwccPool.sol\":12139:12149  msg.sender */\n      caller\n        /* \"wwcc-contracts/contracts/wwccPool.sol\":12139:12158  msg.sender != owner */\n      0xffffffffffffffffffffffffffffffffffffffff\n      and\n      eq\n        /* \"wwcc-contracts/contracts/wwccPool.sol\":12136:12285  if(msg.sender != owner){... */\n      tag_15\n      jumpi\n        /* \"wwcc-contracts/contracts/wwccPool.sol\":12198:12207  msg.value */\n      callvalue\n        /* \"wwcc-contracts/contracts/wwccPool.sol\":12172:12182  voteAmount */\n      0x05\n        /* \"wwcc-contracts/contracts/wwccPool.sol\":12172:12194  voteAmount[msg.sender] */\n      0x00\n        /* \"wwcc-contracts/contracts/wwccPool.sol\":12183:12193  msg.sender */\n      caller\n        /* \"wwcc-contracts/contracts/wwccPool.sol\":12172:12194  voteAmount[msg.sender] */\n      0xffffffffffffffffffffffffffffffffffffffff\n      and\n      0xffffffffffffffffffffffffffffffffffffffff\n      and\n      dup2\n      mstore\n      0x20\n      add\n      swap1\n      dup2\n      mstore\n      0x20\n      add\n      0x00\n      keccak256\n      0x00\n        /* \"wwcc-contracts/contracts/wwccPool.sol\":12172:12207  voteAmount[msg.sender] += msg.value */\n      dup3\n      dup3\n      sload\n      tag_16\n      swap2\n      swap1\n      tag_17\n      jump\t// in\n    tag_16:\n      swap3\n      pop\n      pop\n      dup2\n      swap1\n      sstore\n      pop\n        /* \"wwcc-contracts/contracts/wwccPool.sol\":12225:12256  Received(msg.sender, msg.value) */\n      0x88a5966d370b9919b20f3e2c13ff65706f196a4e32cc2c12bf57088f88525874\n        /* \"wwcc-contracts/contracts/wwccPool.sol\":12234:12244  msg.sender */\n      caller\n        /* \"wwcc-contracts/contracts/wwccPool.sol\":12246:12255  msg.value */\n      callvalue\n        /* \"wwcc-contracts/contracts/wwccPool.sol\":12225:12256  Received(msg.sender, msg.value) */\n      mload(0x40)\n      tag_18\n      swap3\n      swap2\n      swap1\n      tag_19\n      jump\t// in\n    tag_18:\n      mload(0x40)\n      dup1\n      swap2\n      sub\n      swap1\n      log1\n        /* \"wwcc-contracts/contracts/wwccPool.sol\":12136:12285  if(msg.sender != owner){... */\n      jump(tag_20)\n    tag_15:\n    tag_20:\n        /* \"wwcc-contracts/contracts/wwccPool.sol\":96:12292  contract WCPOOL {... */\n      stop\n    tag_2:\n      0x00\n      dup1\n      revert\n        /* \"wwcc-contracts/contracts/wwccPool.sol\":4503:5158  function Withdrawal(address toAddress,bytes32 poolKey) external onlyManager payable returns (bool){... */\n    tag_3:\n      tag_21\n      0x04\n      dup1\n      calldatasize\n      sub\n      dup2\n      add\n      swap1\n      tag_22\n      swap2\n      swap1\n      tag_23\n      jump\t// in\n    tag_22:\n      tag_24\n      jump\t// in\n    tag_21:\n      mload(0x40)\n      tag_25\n      swap2\n      swap1\n      tag_26\n      jump\t// in\n    tag_25:\n      mload(0x40)\n      dup1\n      swap2\n      sub\n      swap1\n      return\n        /* \"wwcc-contracts/contracts/wwccPool.sol\":3976:4498  function Set_Basal(bytes32 poolKey,uint256 basal) external onlyManager  returns (bool){... */\n    tag_4:\n      callvalue\n      dup1\n      iszero\n      tag_27\n      jumpi\n      0x00\n      dup1\n      revert\n    tag_27:\n      pop\n      tag_28\n      0x04\n      dup1\n      calldatasize\n      sub\n      dup2\n      add\n      swap1\n      tag_29\n      swap2\n      swap1\n      tag_30\n      jump\t// in\n    tag_29:\n      tag_31\n      jump\t// in\n    tag_28:\n      mload(0x40)\n      tag_32\n      swap2\n      swap1\n      tag_26\n      jump\t// in\n    tag_32:\n      mload(0x40)\n      dup1\n      swap2\n      sub\n      swap1\n      return\n        /* \"wwcc-contracts/contracts/wwccPool.sol\":1739:2628  function Set_Pool(... */\n    tag_5:\n      callvalue\n      dup1\n      iszero\n      tag_33\n      jumpi\n      0x00\n      dup1\n      revert\n    tag_33:\n      pop\n      tag_34\n      0x04\n      dup1\n      calldatasize\n      sub\n      dup2\n      add\n      swap1\n      tag_35\n      swap2\n      swap1\n      tag_36\n      jump\t// in\n    tag_35:\n      tag_37\n      jump\t// in\n    tag_34:\n      mload(0x40)\n      tag_38\n      swap2\n      swap1\n      tag_39\n      jump\t// in\n    tag_38:\n      mload(0x40)\n      dup1\n      swap2\n      sub\n      swap1\n      return\n        /* \"wwcc-contracts/contracts/wwccPool.sol\":5895:6005  function CheckBasal() external onlyManager  returns (uint256){... */\n    tag_6:\n      callvalue\n      dup1\n      iszero\n      tag_40\n      jumpi\n      0x00\n      dup1\n      revert\n    tag_40:\n      pop\n      tag_41\n      tag_42\n      jump\t// in\n    tag_41:\n      mload(0x40)\n      tag_43\n      swap2\n      swap1\n      tag_44\n      jump\t// in\n    tag_43:\n      mload(0x40)\n      dup1\n      swap2\n      sub\n      swap1\n      return\n        /* \"wwcc-contracts/contracts/wwccPool.sol\":5537:5890  function CheckExpect(bytes32 poolKey) external onlyManager  returns (uint256){... */\n    tag_7:\n      callvalue\n      dup1\n      iszero\n      tag_45\n      jumpi\n      0x00\n      dup1\n      revert\n    tag_45:\n      pop\n      tag_46\n      0x04\n      dup1\n      calldatasize\n      sub\n      dup2\n      add\n      swap1\n      tag_47\n      swap2\n      swap1\n      tag_48\n      jump\t// in\n    tag_47:\n      tag_49\n      jump\t// in\n    tag_46:\n      mload(0x40)\n      tag_50\n      swap2\n      swap1\n      tag_44\n      jump\t// in\n    tag_50:\n      mload(0x40)\n      dup1\n      swap2\n      sub\n      swap1\n      return\n        /* \"wwcc-contracts/contracts/wwccPool.sol\":2633:3971  function Picking(address joiner,uint256 weight,bytes32 poolKey,uint256 homeScore,uint256 visitScore,uint256 kind) external onlyManager returns(bool){... */\n    tag_8:\n      callvalue\n      dup1\n      iszero\n      tag_51\n      jumpi\n      0x00\n      dup1\n      revert\n    tag_51:\n      pop\n      tag_52\n      0x04\n      dup1\n      calldatasize\n      sub\n      dup2\n      add\n      swap1\n      tag_53\n      swap2\n      swap1\n      tag_54\n      jump\t// in\n    tag_53:\n      tag_55\n      jump\t// in\n    tag_52:\n      mload(0x40)\n      tag_56\n      swap2\n      swap1\n      tag_26\n      jump\t// in\n    tag_56:\n      mload(0x40)\n      dup1\n      swap2\n      sub\n      swap1\n      return\n        /* \"wwcc-contracts/contracts/wwccPool.sol\":6010:9467  function Award(bytes32 poolKey,uint256 homeScore,uint256 visitScore,uint256 result)  external onlyManager  payable returns(bool){... */\n    tag_9:\n      tag_57\n      0x04\n      dup1\n      calldatasize\n      sub\n      dup2\n      add\n      swap1\n      tag_58\n      swap2\n      swap1\n      tag_59\n      jump\t// in\n    tag_58:\n      tag_60\n      jump\t// in\n    tag_57:\n      mload(0x40)\n      tag_61\n      swap2\n      swap1\n      tag_26\n      jump\t// in\n    tag_61:\n      mload(0x40)\n      dup1\n      swap2\n      sub\n      swap1\n      return\n        /* \"wwcc-contracts/contracts/wwccPool.sol\":5163:5532  function voteWithdrawal(address joiner,uint256 amount) external onlyManager payable returns (bool){... */\n    tag_10:\n      tag_62\n      0x04\n      dup1\n      calldatasize\n      sub\n      dup2\n      add\n      swap1\n      tag_63\n      swap2\n      swap1\n      tag_64\n      jump\t// in\n    tag_63:\n      tag_65\n      jump\t// in\n    tag_62:\n      mload(0x40)\n      tag_66\n      swap2\n      swap1\n      tag_26\n      jump\t// in\n    tag_66:\n      mload(0x40)\n      dup1\n      swap2\n      sub\n      swap1\n      return\n        /* \"wwcc-contracts/contracts/wwccPool.sol\":9472:10135  function getPool(bytes32 poolKey) external view returns (string memory vs,string memory rounds,PoolViewInfo memory viewInfo){... */\n    tag_11:\n      callvalue\n      dup1\n      iszero\n      tag_67\n      jumpi\n      0x00\n      dup1\n      revert\n    tag_67:\n      pop\n      tag_68\n      0x04\n      dup1\n      calldatasize\n      sub\n      dup2\n      add\n      swap1\n      tag_69\n      swap2\n      swap1\n      tag_48\n      jump\t// in\n    tag_69:\n      tag_70\n      jump\t// in\n    tag_68:\n      mload(0x40)\n      tag_71\n      swap4\n      swap3\n      swap2\n      swap1\n      tag_72\n      jump\t// in\n    tag_71:\n      mload(0x40)\n      dup1\n      swap2\n      sub\n      swap1\n      return\n        /* \"wwcc-contracts/contracts/wwccPool.sol\":4503:5158  function Withdrawal(address toAddress,bytes32 poolKey) external onlyManager payable returns (bool){... */\n    tag_24:\n        /* \"wwcc-contracts/contracts/wwccPool.sol\":4596:4600  bool */\n      0x00\n        /* \"wwcc-contracts/contracts/wwccPool.sol\":12019:12024  owner */\n      dup1\n      0x00\n      swap1\n      sload\n      swap1\n      0x0100\n      exp\n      swap1\n      div\n      0xffffffffffffffffffffffffffffffffffffffff\n      and\n        /* \"wwcc-contracts/contracts/wwccPool.sol\":12005:12024  msg.sender == owner */\n      0xffffffffffffffffffffffffffffffffffffffff\n      and\n        /* \"wwcc-contracts/contracts/wwccPool.sol\":12005:12015  msg.sender */\n      caller\n        /* \"wwcc-contracts/contracts/wwccPool.sol\":12005:12024  msg.sender == owner */\n      0xffffffffffffffffffffffffffffffffffffffff\n      and\n      eq\n        /* \"wwcc-contracts/contracts/wwccPool.sol\":11984:12075  require(... */\n      tag_74\n      jumpi\n      mload(0x40)\n      0x08c379a000000000000000000000000000000000000000000000000000000000\n      dup2\n      mstore\n      0x04\n      add\n      tag_75\n      swap1\n      tag_76\n      jump\t// in\n    tag_75:\n      mload(0x40)\n      dup1\n      swap2\n      sub\n      swap1\n      revert\n    tag_74:\n        /* \"wwcc-contracts/contracts/wwccPool.sol\":4618:4635  contains(poolKey) */\n      tag_78\n        /* \"wwcc-contracts/contracts/wwccPool.sol\":4627:4634  poolKey */\n      dup3\n        /* \"wwcc-contracts/contracts/wwccPool.sol\":4618:4626  contains */\n      tag_79\n        /* \"wwcc-contracts/contracts/wwccPool.sol\":4618:4635  contains(poolKey) */\n      jump\t// in\n    tag_78:\n        /* \"wwcc-contracts/contracts/wwccPool.sol\":4614:5152  if(!contains(poolKey)) { ... */\n      tag_80\n      jumpi\n        /* \"wwcc-contracts/contracts/wwccPool.sol\":4656:4680  revert(\"pool not exist\") */\n      mload(0x40)\n      0x08c379a000000000000000000000000000000000000000000000000000000000\n      dup2\n      mstore\n      0x04\n      add\n      tag_81\n      swap1\n      tag_82\n      jump\t// in\n    tag_81:\n      mload(0x40)\n      dup1\n      swap2\n      sub\n      swap1\n      revert\n        /* \"wwcc-contracts/contracts/wwccPool.sol\":4614:5152  if(!contains(poolKey)) { ... */\n    tag_80:\n        /* \"wwcc-contracts/contracts/wwccPool.sol\":4716:4734  WcPool memory pool */\n      0x00\n        /* \"wwcc-contracts/contracts/wwccPool.sol\":4737:4744  WcPools */\n      0x06\n        /* \"wwcc-contracts/contracts/wwccPool.sol\":4737:4753  WcPools[poolKey] */\n      0x00\n        /* \"wwcc-contracts/contracts/wwccPool.sol\":4745:4752  poolKey */\n      dup5\n        /* \"wwcc-contracts/contracts/wwccPool.sol\":4737:4753  WcPools[poolKey] */\n      dup2\n      mstore\n      0x20\n      add\n      swap1\n      dup2\n      mstore\n      0x20\n      add\n      0x00\n      keccak256\n        /* \"wwcc-contracts/contracts/wwccPool.sol\":4716:4753  WcPool memory pool = WcPools[poolKey] */\n      mload(0x40)\n      dup1\n      0x0160\n      add\n      0x40\n      mstore\n      swap1\n      dup2\n      0x00\n      dup3\n      add\n      dup1\n      sload\n      tag_84\n      swap1\n      tag_85\n      jump\t// in\n    tag_84:\n      dup1\n      0x1f\n      add\n      0x20\n      dup1\n      swap2\n      div\n      mul\n      0x20\n      add\n      mload(0x40)\n      swap1\n      dup2\n      add\n      0x40\n      mstore\n      dup1\n      swap3\n      swap2\n      swap1\n      dup2\n      dup2\n      mstore\n      0x20\n      add\n      dup3\n      dup1\n      sload\n      tag_86\n      swap1\n      tag_85\n      jump\t// in\n    tag_86:\n      dup1\n      iszero\n      tag_87\n      jumpi\n      dup1\n      0x1f\n      lt\n      tag_88\n      jumpi\n      0x0100\n      dup1\n      dup4\n      sload\n      div\n      mul\n      dup4\n      mstore\n      swap2\n      0x20\n      add\n      swap2\n      jump(tag_87)\n    tag_88:\n      dup3\n      add\n      swap2\n      swap1\n      0x00\n      mstore\n      keccak256(0x00, 0x20)\n      swap1\n    tag_89:\n      dup2\n      sload\n      dup2\n      mstore\n      swap1\n      0x01\n      add\n      swap1\n      0x20\n      add\n      dup1\n      dup4\n      gt\n      tag_89\n      jumpi\n      dup3\n      swap1\n      sub\n      0x1f\n      and\n      dup3\n      add\n      swap2\n    tag_87:\n      pop\n      pop\n      pop\n      pop\n      pop\n      dup2\n      mstore\n      0x20\n      add\n      0x01\n      dup3\n      add\n      dup1\n      sload\n      tag_90\n      swap1\n      tag_85\n      jump\t// in\n    tag_90:\n      dup1\n      0x1f\n      add\n      0x20\n      dup1\n      swap2\n      div\n      mul\n      0x20\n      add\n      mload(0x40)\n      swap1\n      dup2\n      add\n      0x40\n      mstore\n      dup1\n      swap3\n      swap2\n      swap1\n      dup2\n      dup2\n      mstore\n      0x20\n      add\n      dup3\n      dup1\n      sload\n      tag_91\n      swap1\n      tag_85\n      jump\t// in\n    tag_91:\n      dup1\n      iszero\n      tag_92\n      jumpi\n      dup1\n      0x1f\n      lt\n      tag_93\n      jumpi\n      0x0100\n      dup1\n      dup4\n      sload\n      div\n      mul\n      dup4\n      mstore\n      swap2\n      0x20\n      add\n      swap2\n      jump(tag_92)\n    tag_93:\n      dup3\n      add\n      swap2\n      swap1\n      0x00\n      mstore\n      keccak256(0x00, 0x20)\n      swap1\n    tag_94:\n      dup2\n      sload\n      dup2\n      mstore\n      swap1\n      0x01\n      add\n      swap1\n      0x20\n      add\n      dup1\n      dup4\n      gt\n      tag_94\n      jumpi\n      dup3\n      swap1\n      sub\n      0x1f\n      and\n      dup3\n      add\n      swap2\n    tag_92:\n      pop\n      pop\n      pop\n      pop\n      pop\n      dup2\n      mstore\n      0x20\n      add\n      0x02\n      dup3\n      add\n      dup1\n      sload\n      tag_95\n      swap1\n      tag_85\n      jump\t// in\n    tag_95:\n      dup1\n      0x1f\n      add\n      0x20\n      dup1\n      swap2\n      div\n      mul\n      0x20\n      add\n      mload(0x40)\n      swap1\n      dup2\n      add\n      0x40\n      mstore\n      dup1\n      swap3\n      swap2\n      swap1\n      dup2\n      dup2\n      mstore\n      0x20\n      add\n      dup3\n      dup1\n      sload\n      tag_96\n      swap1\n      tag_85\n      jump\t// in\n    tag_96:\n      dup1\n      iszero\n      tag_97\n      jumpi\n      dup1\n      0x1f\n      lt\n      tag_98\n      jumpi\n      0x0100\n      dup1\n      dup4\n      sload\n      div\n      mul\n      dup4\n      mstore\n      swap2\n      0x20\n      add\n      swap2\n      jump(tag_97)\n    tag_98:\n      dup3\n      add\n      swap2\n      swap1\n      0x00\n      mstore\n      keccak256(0x00, 0x20)\n      swap1\n    tag_99:\n      dup2\n      sload\n      dup2\n      mstore\n      swap1\n      0x01\n      add\n      swap1\n      0x20\n      add\n      dup1\n      dup4\n      gt\n      tag_99\n      jumpi\n      dup3\n      swap1\n      sub\n      0x1f\n      and\n      dup3\n      add\n      swap2\n    tag_97:\n      pop\n      pop\n      pop\n      pop\n      pop\n      dup2\n      mstore\n      0x20\n      add\n      0x03\n      dup3\n      add\n      sload\n      dup2\n      mstore\n      0x20\n      add\n      0x04\n      dup3\n      add\n      sload\n      dup2\n      mstore\n      0x20\n      add\n      0x05\n      dup3\n      add\n      sload\n      dup2\n      mstore\n      0x20\n      add\n      0x06\n      dup3\n      add\n      sload\n      dup2\n      mstore\n      0x20\n      add\n      0x07\n      dup3\n      add\n      sload\n      dup2\n      mstore\n      0x20\n      add\n      0x08\n      dup3\n      add\n      0x00\n      swap1\n      sload\n      swap1\n      0x0100\n      exp\n      swap1\n      div\n      0xff\n      and\n      iszero\n      iszero\n      iszero\n      iszero\n      dup2\n      mstore\n      0x20\n      add\n      0x08\n      dup3\n      add\n      0x01\n      swap1\n      sload\n      swap1\n      0x0100\n      exp\n      swap1\n      div\n      0xff\n      and\n      iszero\n      iszero\n      iszero\n      iszero\n      dup2\n      mstore\n      0x20\n      add\n      0x08\n      dup3\n      add\n      0x02\n      swap1\n      sload\n      swap1\n      0x0100\n      exp\n      swap1\n      div\n      0xff\n      and\n      iszero\n      iszero\n      iszero\n      iszero\n      dup2\n      mstore\n      pop\n      pop\n      swap1\n      pop\n        /* \"wwcc-contracts/contracts/wwccPool.sol\":4771:4785  uint256 expect */\n      0x00\n        /* \"wwcc-contracts/contracts/wwccPool.sol\":4788:4854  (pool.wPool+pool.lPool+pool.dPool+pool.sPool + pool.basal).div(10) */\n      tag_100\n        /* \"wwcc-contracts/contracts/wwccPool.sol\":4851:4853  10 */\n      0x0a\n        /* \"wwcc-contracts/contracts/wwccPool.sol\":4835:4839  pool */\n      dup4\n        /* \"wwcc-contracts/contracts/wwccPool.sol\":4835:4845  pool.basal */\n      0xe0\n      add\n      mload\n        /* \"wwcc-contracts/contracts/wwccPool.sol\":4822:4826  pool */\n      dup5\n        /* \"wwcc-contracts/contracts/wwccPool.sol\":4822:4832  pool.sPool */\n      0xc0\n      add\n      mload\n        /* \"wwcc-contracts/contracts/wwccPool.sol\":4811:4815  pool */\n      dup6\n        /* \"wwcc-contracts/contracts/wwccPool.sol\":4811:4821  pool.dPool */\n      0x80\n      add\n      mload\n        /* \"wwcc-contracts/contracts/wwccPool.sol\":4800:4804  pool */\n      dup7\n        /* \"wwcc-contracts/contracts/wwccPool.sol\":4800:4810  pool.lPool */\n      0xa0\n      add\n      mload\n        /* \"wwcc-contracts/contracts/wwccPool.sol\":4789:4793  pool */\n      dup8\n        /* \"wwcc-contracts/contracts/wwccPool.sol\":4789:4799  pool.wPool */\n      0x60\n      add\n      mload\n        /* \"wwcc-contracts/contracts/wwccPool.sol\":4789:4810  pool.wPool+pool.lPool */\n      tag_101\n      swap2\n      swap1\n      tag_17\n      jump\t// in\n    tag_101:\n        /* \"wwcc-contracts/contracts/wwccPool.sol\":4789:4821  pool.wPool+pool.lPool+pool.dPool */\n      tag_102\n      swap2\n      swap1\n      tag_17\n      jump\t// in\n    tag_102:\n        /* \"wwcc-contracts/contracts/wwccPool.sol\":4789:4832  pool.wPool+pool.lPool+pool.dPool+pool.sPool */\n      tag_103\n      swap2\n      swap1\n      tag_17\n      jump\t// in\n    tag_103:\n        /* \"wwcc-contracts/contracts/wwccPool.sol\":4789:4845  pool.wPool+pool.lPool+pool.dPool+pool.sPool + pool.basal */\n      tag_104\n      swap2\n      swap1\n      tag_17\n      jump\t// in\n    tag_104:\n        /* \"wwcc-contracts/contracts/wwccPool.sol\":4788:4850  (pool.wPool+pool.lPool+pool.dPool+pool.sPool + pool.basal).div */\n      tag_105\n      swap1\n        /* \"wwcc-contracts/contracts/wwccPool.sol\":4788:4854  (pool.wPool+pool.lPool+pool.dPool+pool.sPool + pool.basal).div(10) */\n      swap2\n      swap1\n      0xffffffff\n      and\n      jump\t// in\n    tag_100:\n        /* \"wwcc-contracts/contracts/wwccPool.sol\":4771:4854  uint256 expect = (pool.wPool+pool.lPool+pool.dPool+pool.sPool + pool.basal).div(10) */\n      swap1\n      pop\n        /* \"wwcc-contracts/contracts/wwccPool.sol\":4892:4896  true */\n      0x01\n        /* \"wwcc-contracts/contracts/wwccPool.sol\":4876:4880  pool */\n      dup3\n        /* \"wwcc-contracts/contracts/wwccPool.sol\":4876:4889  pool.finished */\n      0x0140\n      add\n        /* \"wwcc-contracts/contracts/wwccPool.sol\":4876:4896  pool.finished = true */\n      swap1\n      iszero\n      iszero\n      swap1\n      dup2\n      iszero\n      iszero\n      dup2\n      mstore\n      pop\n        /* \"wwcc-contracts/contracts/wwccPool.sol\":4872:5124  if (pool.finished = true){... */\n      iszero\n      tag_106\n      jumpi\n        /* \"wwcc-contracts/contracts/wwccPool.sol\":4919:4952  address payable toAddress_address */\n      0x00\n        /* \"wwcc-contracts/contracts/wwccPool.sol\":4963:4972  toAddress */\n      dup6\n        /* \"wwcc-contracts/contracts/wwccPool.sol\":4919:4973  address payable toAddress_address = payable(toAddress) */\n      swap1\n      pop\n        /* \"wwcc-contracts/contracts/wwccPool.sol\":4995:5012  toAddress_address */\n      dup1\n        /* \"wwcc-contracts/contracts/wwccPool.sol\":4995:5021  toAddress_address.transfer */\n      0xffffffffffffffffffffffffffffffffffffffff\n      and\n        /* \"wwcc-contracts/contracts/wwccPool.sol\":4995:5029  toAddress_address.transfer(expect) */\n      0x08fc\n        /* \"wwcc-contracts/contracts/wwccPool.sol\":5022:5028  expect */\n      dup4\n        /* \"wwcc-contracts/contracts/wwccPool.sol\":4995:5029  toAddress_address.transfer(expect) */\n      swap1\n      dup2\n      iszero\n      mul\n      swap1\n      mload(0x40)\n      0x00\n      mload(0x40)\n      dup1\n      dup4\n      sub\n      dup2\n      dup6\n      dup9\n      dup9\n      call\n      swap4\n      pop\n      pop\n      pop\n      pop\n      iszero\n      dup1\n      iszero\n      tag_108\n      jumpi\n      returndatasize\n      0x00\n      dup1\n      returndatacopy\n      revert(0x00, returndatasize)\n    tag_108:\n      pop\n        /* \"wwcc-contracts/contracts/wwccPool.sol\":4897:5048  {... */\n      pop\n        /* \"wwcc-contracts/contracts/wwccPool.sol\":4872:5124  if (pool.finished = true){... */\n      jump(tag_109)\n    tag_106:\n        /* \"wwcc-contracts/contracts/wwccPool.sol\":5074:5105  revert(\"pool has not finished\") */\n      mload(0x40)\n      0x08c379a000000000000000000000000000000000000000000000000000000000\n      dup2\n      mstore\n      0x04\n      add\n      tag_110\n      swap1\n      tag_111\n      jump\t// in\n    tag_110:\n      mload(0x40)\n      dup1\n      swap2\n      sub\n      swap1\n      revert\n        /* \"wwcc-contracts/contracts/wwccPool.sol\":4872:5124  if (pool.finished = true){... */\n    tag_109:\n        /* \"wwcc-contracts/contracts/wwccPool.sol\":4698:5152  {... */\n      pop\n      pop\n        /* \"wwcc-contracts/contracts/wwccPool.sol\":4503:5158  function Withdrawal(address toAddress,bytes32 poolKey) external onlyManager payable returns (bool){... */\n      swap3\n      swap2\n      pop\n      pop\n      jump\t// out\n        /* \"wwcc-contracts/contracts/wwccPool.sol\":3976:4498  function Set_Basal(bytes32 poolKey,uint256 basal) external onlyManager  returns (bool){... */\n    tag_31:\n        /* \"wwcc-contracts/contracts/wwccPool.sol\":4057:4061  bool */\n      0x00\n        /* \"wwcc-contracts/contracts/wwccPool.sol\":12019:12024  owner */\n      dup1\n      0x00\n      swap1\n      sload\n      swap1\n      0x0100\n      exp\n      swap1\n      div\n      0xffffffffffffffffffffffffffffffffffffffff\n      and\n        /* \"wwcc-contracts/contracts/wwccPool.sol\":12005:12024  msg.sender == owner */\n      0xffffffffffffffffffffffffffffffffffffffff\n      and\n        /* \"wwcc-contracts/contracts/wwccPool.sol\":12005:12015  msg.sender */\n      caller\n        /* \"wwcc-contracts/contracts/wwccPool.sol\":12005:12024  msg.sender == owner */\n      0xffffffffffffffffffffffffffffffffffffffff\n      and\n      eq\n        /* \"wwcc-contracts/contracts/wwccPool.sol\":11984:12075  require(... */\n      tag_113\n      jumpi\n      mload(0x40)\n      0x08c379a000000000000000000000000000000000000000000000000000000000\n      dup2\n      mstore\n      0x04\n      add\n      tag_114\n      swap1\n      tag_76\n      jump\t// in\n    tag_114:\n      mload(0x40)\n      dup1\n      swap2\n      sub\n      swap1\n      revert\n    tag_113:\n        /* \"wwcc-contracts/contracts/wwccPool.sol\":4076:4093  contains(poolKey) */\n      tag_116\n        /* \"wwcc-contracts/contracts/wwccPool.sol\":4085:4092  poolKey */\n      dup4\n        /* \"wwcc-contracts/contracts/wwccPool.sol\":4076:4084  contains */\n      tag_79\n        /* \"wwcc-contracts/contracts/wwccPool.sol\":4076:4093  contains(poolKey) */\n      jump\t// in\n    tag_116:\n        /* \"wwcc-contracts/contracts/wwccPool.sol\":4072:4492  if(!contains(poolKey)) { ... */\n      tag_117\n      jumpi\n        /* \"wwcc-contracts/contracts/wwccPool.sol\":4110:4134  revert(\"pool not exist\") */\n      mload(0x40)\n      0x08c379a000000000000000000000000000000000000000000000000000000000\n      dup2\n      mstore\n      0x04\n      add\n      tag_118\n      swap1\n      tag_82\n      jump\t// in\n    tag_118:\n      mload(0x40)\n      dup1\n      swap2\n      sub\n      swap1\n      revert\n        /* \"wwcc-contracts/contracts/wwccPool.sol\":4072:4492  if(!contains(poolKey)) { ... */\n    tag_117:\n        /* \"wwcc-contracts/contracts/wwccPool.sol\":4162:4180  WcPool memory pool */\n      0x00\n        /* \"wwcc-contracts/contracts/wwccPool.sol\":4183:4190  WcPools */\n      0x06\n        /* \"wwcc-contracts/contracts/wwccPool.sol\":4183:4199  WcPools[poolKey] */\n      0x00\n        /* \"wwcc-contracts/contracts/wwccPool.sol\":4191:4198  poolKey */\n      dup6\n        /* \"wwcc-contracts/contracts/wwccPool.sol\":4183:4199  WcPools[poolKey] */\n      dup2\n      mstore\n      0x20\n      add\n      swap1\n      dup2\n      mstore\n      0x20\n      add\n      0x00\n      keccak256\n        /* \"wwcc-contracts/contracts/wwccPool.sol\":4162:4199  WcPool memory pool = WcPools[poolKey] */\n      mload(0x40)\n      dup1\n      0x0160\n      add\n      0x40\n      mstore\n      swap1\n      dup2\n      0x00\n      dup3\n      add\n      dup1\n      sload\n      tag_120\n      swap1\n      tag_85\n      jump\t// in\n    tag_120:\n      dup1\n      0x1f\n      add\n      0x20\n      dup1\n      swap2\n      div\n      mul\n      0x20\n      add\n      mload(0x40)\n      swap1\n      dup2\n      add\n      0x40\n      mstore\n      dup1\n      swap3\n      swap2\n      swap1\n      dup2\n      dup2\n      mstore\n      0x20\n      add\n      dup3\n      dup1\n      sload\n      tag_121\n      swap1\n      tag_85\n      jump\t// in\n    tag_121:\n      dup1\n      iszero\n      tag_122\n      jumpi\n      dup1\n      0x1f\n      lt\n      tag_123\n      jumpi\n      0x0100\n      dup1\n      dup4\n      sload\n      div\n      mul\n      dup4\n      mstore\n      swap2\n      0x20\n      add\n      swap2\n      jump(tag_122)\n    tag_123:\n      dup3\n      add\n      swap2\n      swap1\n      0x00\n      mstore\n      keccak256(0x00, 0x20)\n      swap1\n    tag_124:\n      dup2\n      sload\n      dup2\n      mstore\n      swap1\n      0x01\n      add\n      swap1\n      0x20\n      add\n      dup1\n      dup4\n      gt\n      tag_124\n      jumpi\n      dup3\n      swap1\n      sub\n      0x1f\n      and\n      dup3\n      add\n      swap2\n    tag_122:\n      pop\n      pop\n      pop\n      pop\n      pop\n      dup2\n      mstore\n      0x20\n      add\n      0x01\n      dup3\n      add\n      dup1\n      sload\n      tag_125\n      swap1\n      tag_85\n      jump\t// in\n    tag_125:\n      dup1\n      0x1f\n      add\n      0x20\n      dup1\n      swap2\n      div\n      mul\n      0x20\n      add\n      mload(0x40)\n      swap1\n      dup2\n      add\n      0x40\n      mstore\n      dup1\n      swap3\n      swap2\n      swap1\n      dup2\n      dup2\n      mstore\n      0x20\n      add\n      dup3\n      dup1\n      sload\n      tag_126\n      swap1\n      tag_85\n      jump\t// in\n    tag_126:\n      dup1\n      iszero\n      tag_127\n      jumpi\n      dup1\n      0x1f\n      lt\n      tag_128\n      jumpi\n      0x0100\n      dup1\n      dup4\n      sload\n      div\n      mul\n      dup4\n      mstore\n      swap2\n      0x20\n      add\n      swap2\n      jump(tag_127)\n    tag_128:\n      dup3\n      add\n      swap2\n      swap1\n      0x00\n      mstore\n      keccak256(0x00, 0x20)\n      swap1\n    tag_129:\n      dup2\n      sload\n      dup2\n      mstore\n      swap1\n      0x01\n      add\n      swap1\n      0x20\n      add\n      dup1\n      dup4\n      gt\n      tag_129\n      jumpi\n      dup3\n      swap1\n      sub\n      0x1f\n      and\n      dup3\n      add\n      swap2\n    tag_127:\n      pop\n      pop\n      pop\n      pop\n      pop\n      dup2\n      mstore\n      0x20\n      add\n      0x02\n      dup3\n      add\n      dup1\n      sload\n      tag_130\n      swap1\n      tag_85\n      jump\t// in\n    tag_130:\n      dup1\n      0x1f\n      add\n      0x20\n      dup1\n      swap2\n      div\n      mul\n      0x20\n      add\n      mload(0x40)\n      swap1\n      dup2\n      add\n      0x40\n      mstore\n      dup1\n      swap3\n      swap2\n      swap1\n      dup2\n      dup2\n      mstore\n      0x20\n      add\n      dup3\n      dup1\n      sload\n      tag_131\n      swap1\n      tag_85\n      jump\t// in\n    tag_131:\n      dup1\n      iszero\n      tag_132\n      jumpi\n      dup1\n      0x1f\n      lt\n      tag_133\n      jumpi\n      0x0100\n      dup1\n      dup4\n      sload\n      div\n      mul\n      dup4\n      mstore\n      swap2\n      0x20\n      add\n      swap2\n      jump(tag_132)\n    tag_133:\n      dup3\n      add\n      swap2\n      swap1\n      0x00\n      mstore\n      keccak256(0x00, 0x20)\n      swap1\n    tag_134:\n      dup2\n      sload\n      dup2\n      mstore\n      swap1\n      0x01\n      add\n      swap1\n      0x20\n      add\n      dup1\n      dup4\n      gt\n      tag_134\n      jumpi\n      dup3\n      swap1\n      sub\n      0x1f\n      and\n      dup3\n      add\n      swap2\n    tag_132:\n      pop\n      pop\n      pop\n      pop\n      pop\n      dup2\n      mstore\n      0x20\n      add\n      0x03\n      dup3\n      add\n      sload\n      dup2\n      mstore\n      0x20\n      add\n      0x04\n      dup3\n      add\n      sload\n      dup2\n      mstore\n      0x20\n      add\n      0x05\n      dup3\n      add\n      sload\n      dup2\n      mstore\n      0x20\n      add\n      0x06\n      dup3\n      add\n      sload\n      dup2\n      mstore\n      0x20\n      add\n      0x07\n      dup3\n      add\n      sload\n      dup2\n      mstore\n      0x20\n      add\n      0x08\n      dup3\n      add\n      0x00\n      swap1\n      sload\n      swap1\n      0x0100\n      exp\n      swap1\n      div\n      0xff\n      and\n      iszero\n      iszero\n      iszero\n      iszero\n      dup2\n      mstore\n      0x20\n      add\n      0x08\n      dup3\n      add\n      0x01\n      swap1\n      sload\n      swap1\n      0x0100\n      exp\n      swap1\n      div\n      0xff\n      and\n      iszero\n      iszero\n      iszero\n      iszero\n      dup2\n      mstore\n      0x20\n      add\n      0x08\n      dup3\n      add\n      0x02\n      swap1\n      sload\n      swap1\n      0x0100\n      exp\n      swap1\n      div\n      0xff\n      and\n      iszero\n      iszero\n      iszero\n      iszero\n      dup2\n      mstore\n      pop\n      pop\n      swap1\n      pop\n        /* \"wwcc-contracts/contracts/wwccPool.sol\":4229:4230  0 */\n      0x00\n        /* \"wwcc-contracts/contracts/wwccPool.sol\":4216:4220  pool */\n      dup2\n        /* \"wwcc-contracts/contracts/wwccPool.sol\":4216:4226  pool.basal */\n      0xe0\n      add\n      mload\n        /* \"wwcc-contracts/contracts/wwccPool.sol\":4216:4230  pool.basal > 0 */\n      gt\n        /* \"wwcc-contracts/contracts/wwccPool.sol\":4212:4295  if (pool.basal > 0){... */\n      iszero\n      tag_135\n      jumpi\n        /* \"wwcc-contracts/contracts/wwccPool.sol\":4248:4281  revert(\"pool basal has been set\") */\n      mload(0x40)\n      0x08c379a000000000000000000000000000000000000000000000000000000000\n      dup2\n      mstore\n      0x04\n      add\n      tag_136\n      swap1\n      tag_137\n      jump\t// in\n    tag_136:\n      mload(0x40)\n      dup1\n      swap2\n      sub\n      swap1\n      revert\n        /* \"wwcc-contracts/contracts/wwccPool.sol\":4212:4295  if (pool.basal > 0){... */\n    tag_135:\n        /* \"wwcc-contracts/contracts/wwccPool.sol\":4327:4332  basal */\n      dup3\n        /* \"wwcc-contracts/contracts/wwccPool.sol\":4311:4324  nextBasalLast */\n      sload(0x07)\n        /* \"wwcc-contracts/contracts/wwccPool.sol\":4311:4332  nextBasalLast > basal */\n      gt\n        /* \"wwcc-contracts/contracts/wwccPool.sol\":4307:4390  if (nextBasalLast > basal){... */\n      iszero\n      tag_138\n      jumpi\n        /* \"wwcc-contracts/contracts/wwccPool.sol\":4350:4376  revert(\"not enough basal\") */\n      mload(0x40)\n      0x08c379a000000000000000000000000000000000000000000000000000000000\n      dup2\n      mstore\n      0x04\n      add\n      tag_139\n      swap1\n      tag_140\n      jump\t// in\n    tag_139:\n      mload(0x40)\n      dup1\n      swap2\n      sub\n      swap1\n      revert\n        /* \"wwcc-contracts/contracts/wwccPool.sol\":4307:4390  if (nextBasalLast > basal){... */\n    tag_138:\n        /* \"wwcc-contracts/contracts/wwccPool.sol\":4416:4421  basal */\n      dup3\n        /* \"wwcc-contracts/contracts/wwccPool.sol\":4402:4406  pool */\n      dup2\n        /* \"wwcc-contracts/contracts/wwccPool.sol\":4402:4412  pool.basal */\n      0xe0\n      add\n        /* \"wwcc-contracts/contracts/wwccPool.sol\":4402:4421  pool.basal += basal */\n      dup2\n      dup2\n      mload\n      tag_141\n      swap2\n      swap1\n      tag_17\n      jump\t// in\n    tag_141:\n      swap2\n      pop\n      dup2\n      dup2\n      mstore\n      pop\n      pop\n        /* \"wwcc-contracts/contracts/wwccPool.sol\":4452:4457  basal */\n      dup3\n        /* \"wwcc-contracts/contracts/wwccPool.sol\":4434:4447  nextBasalLast */\n      0x07\n      0x00\n        /* \"wwcc-contracts/contracts/wwccPool.sol\":4434:4457  nextBasalLast -=  basal */\n      dup3\n      dup3\n      sload\n      tag_142\n      swap2\n      swap1\n      tag_143\n      jump\t// in\n    tag_142:\n      swap3\n      pop\n      pop\n      dup2\n      swap1\n      sstore\n      pop\n        /* \"wwcc-contracts/contracts/wwccPool.sol\":4477:4481  true */\n      0x01\n        /* \"wwcc-contracts/contracts/wwccPool.sol\":4470:4481  return true */\n      swap2\n      pop\n      pop\n        /* \"wwcc-contracts/contracts/wwccPool.sol\":3976:4498  function Set_Basal(bytes32 poolKey,uint256 basal) external onlyManager  returns (bool){... */\n      swap3\n      swap2\n      pop\n      pop\n      jump\t// out\n        /* \"wwcc-contracts/contracts/wwccPool.sol\":1739:2628  function Set_Pool(... */\n    tag_37:\n        /* \"wwcc-contracts/contracts/wwccPool.sol\":1886:1893  bytes32 */\n      0x00\n        /* \"wwcc-contracts/contracts/wwccPool.sol\":12019:12024  owner */\n      dup1\n      0x00\n      swap1\n      sload\n      swap1\n      0x0100\n      exp\n      swap1\n      div\n      0xffffffffffffffffffffffffffffffffffffffff\n      and\n        /* \"wwcc-contracts/contracts/wwccPool.sol\":12005:12024  msg.sender == owner */\n      0xffffffffffffffffffffffffffffffffffffffff\n      and\n        /* \"wwcc-contracts/contracts/wwccPool.sol\":12005:12015  msg.sender */\n      caller\n        /* \"wwcc-contracts/contracts/wwccPool.sol\":12005:12024  msg.sender == owner */\n      0xffffffffffffffffffffffffffffffffffffffff\n      and\n      eq\n        /* \"wwcc-contracts/contracts/wwccPool.sol\":11984:12075  require(... */\n      tag_145\n      jumpi\n      mload(0x40)\n      0x08c379a000000000000000000000000000000000000000000000000000000000\n      dup2\n      mstore\n      0x04\n      add\n      tag_146\n      swap1\n      tag_76\n      jump\t// in\n    tag_146:\n      mload(0x40)\n      dup1\n      swap2\n      sub\n      swap1\n      revert\n    tag_145:\n        /* \"wwcc-contracts/contracts/wwccPool.sol\":1904:1920  string memory s1 */\n      0x00\n        /* \"wwcc-contracts/contracts/wwccPool.sol\":1923:1944  strConcat(home,visit) */\n      tag_148\n        /* \"wwcc-contracts/contracts/wwccPool.sol\":1933:1937  home */\n      dup7\n        /* \"wwcc-contracts/contracts/wwccPool.sol\":1938:1943  visit */\n      dup7\n        /* \"wwcc-contracts/contracts/wwccPool.sol\":1923:1932  strConcat */\n      tag_149\n        /* \"wwcc-contracts/contracts/wwccPool.sol\":1923:1944  strConcat(home,visit) */\n      jump\t// in\n    tag_148:\n        /* \"wwcc-contracts/contracts/wwccPool.sol\":1904:1944  string memory s1 = strConcat(home,visit) */\n      swap1\n      pop\n        /* \"wwcc-contracts/contracts/wwccPool.sol\":1953:1969  string memory s2 */\n      0x00\n        /* \"wwcc-contracts/contracts/wwccPool.sol\":1972:1992  strConcat(s1,rounds) */\n      tag_150\n        /* \"wwcc-contracts/contracts/wwccPool.sol\":1982:1984  s1 */\n      dup3\n        /* \"wwcc-contracts/contracts/wwccPool.sol\":1985:1991  rounds */\n      dup7\n        /* \"wwcc-contracts/contracts/wwccPool.sol\":1972:1981  strConcat */\n      tag_149\n        /* \"wwcc-contracts/contracts/wwccPool.sol\":1972:1992  strConcat(s1,rounds) */\n      jump\t// in\n    tag_150:\n        /* \"wwcc-contracts/contracts/wwccPool.sol\":1953:1992  string memory s2 = strConcat(s1,rounds) */\n      swap1\n      pop\n        /* \"wwcc-contracts/contracts/wwccPool.sol\":2001:2016  bytes32 poolKey */\n      0x00\n        /* \"wwcc-contracts/contracts/wwccPool.sol\":2046:2048  s2 */\n      dup2\n        /* \"wwcc-contracts/contracts/wwccPool.sol\":2029:2049  abi.encodePacked(s2) */\n      add(0x20, mload(0x40))\n      tag_151\n      swap2\n      swap1\n      tag_152\n      jump\t// in\n    tag_151:\n      mload(0x40)\n      0x20\n      dup2\n      dup4\n      sub\n      sub\n      dup2\n      mstore\n      swap1\n      0x40\n      mstore\n        /* \"wwcc-contracts/contracts/wwccPool.sol\":2019:2050  keccak256(abi.encodePacked(s2)) */\n      dup1\n      mload\n      swap1\n      0x20\n      add\n      keccak256\n        /* \"wwcc-contracts/contracts/wwccPool.sol\":2001:2050  bytes32 poolKey = keccak256(abi.encodePacked(s2)) */\n      swap1\n      pop\n        /* \"wwcc-contracts/contracts/wwccPool.sol\":2062:2079  contains(poolKey) */\n      tag_153\n        /* \"wwcc-contracts/contracts/wwccPool.sol\":2071:2078  poolKey */\n      dup2\n        /* \"wwcc-contracts/contracts/wwccPool.sol\":2062:2070  contains */\n      tag_79\n        /* \"wwcc-contracts/contracts/wwccPool.sol\":2062:2079  contains(poolKey) */\n      jump\t// in\n    tag_153:\n        /* \"wwcc-contracts/contracts/wwccPool.sol\":2059:2599  if(contains(poolKey)) { ... */\n      iszero\n      tag_154\n      jumpi\n        /* \"wwcc-contracts/contracts/wwccPool.sol\":2096:2116  revert(\"pair exist\") */\n      mload(0x40)\n      0x08c379a000000000000000000000000000000000000000000000000000000000\n      dup2\n      mstore\n      0x04\n      add\n      tag_155\n      swap1\n      tag_156\n      jump\t// in\n    tag_155:\n      mload(0x40)\n      dup1\n      swap2\n      sub\n      swap1\n      revert\n        /* \"wwcc-contracts/contracts/wwccPool.sol\":2059:2599  if(contains(poolKey)) { ... */\n    tag_154:\n        /* \"wwcc-contracts/contracts/wwccPool.sol\":2167:2171  true */\n      0x01\n        /* \"wwcc-contracts/contracts/wwccPool.sol\":2143:2150  WcPools */\n      0x06\n        /* \"wwcc-contracts/contracts/wwccPool.sol\":2143:2159  WcPools[poolKey] */\n      0x00\n        /* \"wwcc-contracts/contracts/wwccPool.sol\":2151:2158  poolKey */\n      dup4\n        /* \"wwcc-contracts/contracts/wwccPool.sol\":2143:2159  WcPools[poolKey] */\n      dup2\n      mstore\n      0x20\n      add\n      swap1\n      dup2\n      mstore\n      0x20\n      add\n      0x00\n      keccak256\n        /* \"wwcc-contracts/contracts/wwccPool.sol\":2143:2164  WcPools[poolKey].used */\n      0x08\n      add\n      0x01\n        /* \"wwcc-contracts/contracts/wwccPool.sol\":2143:2171  WcPools[poolKey].used = true */\n      0x0100\n      exp\n      dup2\n      sload\n      dup2\n      0xff\n      mul\n      not\n      and\n      swap1\n      dup4\n      iszero\n      iszero\n      mul\n      or\n      swap1\n      sstore\n      pop\n        /* \"wwcc-contracts/contracts/wwccPool.sol\":2208:2212  home */\n      dup8\n        /* \"wwcc-contracts/contracts/wwccPool.sol\":2184:2191  WcPools */\n      0x06\n        /* \"wwcc-contracts/contracts/wwccPool.sol\":2184:2200  WcPools[poolKey] */\n      0x00\n        /* \"wwcc-contracts/contracts/wwccPool.sol\":2192:2199  poolKey */\n      dup4\n        /* \"wwcc-contracts/contracts/wwccPool.sol\":2184:2200  WcPools[poolKey] */\n      dup2\n      mstore\n      0x20\n      add\n      swap1\n      dup2\n      mstore\n      0x20\n      add\n      0x00\n      keccak256\n        /* \"wwcc-contracts/contracts/wwccPool.sol\":2184:2205  WcPools[poolKey].home */\n      0x00\n      add\n        /* \"wwcc-contracts/contracts/wwccPool.sol\":2184:2212  WcPools[poolKey].home = home */\n      swap1\n      dup1\n      mload\n      swap1\n      0x20\n      add\n      swap1\n      tag_158\n      swap3\n      swap2\n      swap1\n      tag_159\n      jump\t// in\n    tag_158:\n      pop\n        /* \"wwcc-contracts/contracts/wwccPool.sol\":2250:2255  visit */\n      dup7\n        /* \"wwcc-contracts/contracts/wwccPool.sol\":2225:2232  WcPools */\n      0x06\n        /* \"wwcc-contracts/contracts/wwccPool.sol\":2225:2241  WcPools[poolKey] */\n      0x00\n        /* \"wwcc-contracts/contracts/wwccPool.sol\":2233:2240  poolKey */\n      dup4\n        /* \"wwcc-contracts/contracts/wwccPool.sol\":2225:2241  WcPools[poolKey] */\n      dup2\n      mstore\n      0x20\n      add\n      swap1\n      dup2\n      mstore\n      0x20\n      add\n      0x00\n      keccak256\n        /* \"wwcc-contracts/contracts/wwccPool.sol\":2225:2247  WcPools[poolKey].visit */\n      0x01\n      add\n        /* \"wwcc-contracts/contracts/wwccPool.sol\":2225:2255  WcPools[poolKey].visit = visit */\n      swap1\n      dup1\n      mload\n      swap1\n      0x20\n      add\n      swap1\n      tag_160\n      swap3\n      swap2\n      swap1\n      tag_159\n      jump\t// in\n    tag_160:\n      pop\n        /* \"wwcc-contracts/contracts/wwccPool.sol\":2294:2300  rounds */\n      dup6\n        /* \"wwcc-contracts/contracts/wwccPool.sol\":2268:2275  WcPools */\n      0x06\n        /* \"wwcc-contracts/contracts/wwccPool.sol\":2268:2284  WcPools[poolKey] */\n      0x00\n        /* \"wwcc-contracts/contracts/wwccPool.sol\":2276:2283  poolKey */\n      dup4\n        /* \"wwcc-contracts/contracts/wwccPool.sol\":2268:2284  WcPools[poolKey] */\n      dup2\n      mstore\n      0x20\n      add\n      swap1\n      dup2\n      mstore\n      0x20\n      add\n      0x00\n      keccak256\n        /* \"wwcc-contracts/contracts/wwccPool.sol\":2268:2291  WcPools[poolKey].rounds */\n      0x02\n      add\n        /* \"wwcc-contracts/contracts/wwccPool.sol\":2268:2300  WcPools[poolKey].rounds = rounds */\n      swap1\n      dup1\n      mload\n      swap1\n      0x20\n      add\n      swap1\n      tag_161\n      swap3\n      swap2\n      swap1\n      tag_159\n      jump\t// in\n    tag_161:\n      pop\n        /* \"wwcc-contracts/contracts/wwccPool.sol\":2338:2339  0 */\n      0x00\n        /* \"wwcc-contracts/contracts/wwccPool.sol\":2313:2320  WcPools */\n      0x06\n        /* \"wwcc-contracts/contracts/wwccPool.sol\":2313:2329  WcPools[poolKey] */\n      0x00\n        /* \"wwcc-contracts/contracts/wwccPool.sol\":2321:2328  poolKey */\n      dup4\n        /* \"wwcc-contracts/contracts/wwccPool.sol\":2313:2329  WcPools[poolKey] */\n      dup2\n      mstore\n      0x20\n      add\n      swap1\n      dup2\n      mstore\n      0x20\n      add\n      0x00\n      keccak256\n        /* \"wwcc-contracts/contracts/wwccPool.sol\":2313:2335  WcPools[poolKey].wPool */\n      0x03\n      add\n        /* \"wwcc-contracts/contracts/wwccPool.sol\":2313:2339  WcPools[poolKey].wPool = 0 */\n      dup2\n      swap1\n      sstore\n      pop\n        /* \"wwcc-contracts/contracts/wwccPool.sol\":2377:2378  0 */\n      0x00\n        /* \"wwcc-contracts/contracts/wwccPool.sol\":2352:2359  WcPools */\n      0x06\n        /* \"wwcc-contracts/contracts/wwccPool.sol\":2352:2368  WcPools[poolKey] */\n      0x00\n        /* \"wwcc-contracts/contracts/wwccPool.sol\":2360:2367  poolKey */\n      dup4\n        /* \"wwcc-contracts/contracts/wwccPool.sol\":2352:2368  WcPools[poolKey] */\n      dup2\n      mstore\n      0x20\n      add\n      swap1\n      dup2\n      mstore\n      0x20\n      add\n      0x00\n      keccak256\n        /* \"wwcc-contracts/contracts/wwccPool.sol\":2352:2374  WcPools[poolKey].dPool */\n      0x04\n      add\n        /* \"wwcc-contracts/contracts/wwccPool.sol\":2352:2378  WcPools[poolKey].dPool = 0 */\n      dup2\n      swap1\n      sstore\n      pop\n        /* \"wwcc-contracts/contracts/wwccPool.sol\":2416:2417  0 */\n      0x00\n        /* \"wwcc-contracts/contracts/wwccPool.sol\":2391:2398  WcPools */\n      0x06\n        /* \"wwcc-contracts/contracts/wwccPool.sol\":2391:2407  WcPools[poolKey] */\n      0x00\n        /* \"wwcc-contracts/contracts/wwccPool.sol\":2399:2406  poolKey */\n      dup4\n        /* \"wwcc-contracts/contracts/wwccPool.sol\":2391:2407  WcPools[poolKey] */\n      dup2\n      mstore\n      0x20\n      add\n      swap1\n      dup2\n      mstore\n      0x20\n      add\n      0x00\n      keccak256\n        /* \"wwcc-contracts/contracts/wwccPool.sol\":2391:2413  WcPools[poolKey].lPool */\n      0x05\n      add\n        /* \"wwcc-contracts/contracts/wwccPool.sol\":2391:2417  WcPools[poolKey].lPool = 0 */\n      dup2\n      swap1\n      sstore\n      pop\n        /* \"wwcc-contracts/contracts/wwccPool.sol\":2455:2456  0 */\n      0x00\n        /* \"wwcc-contracts/contracts/wwccPool.sol\":2430:2437  WcPools */\n      0x06\n        /* \"wwcc-contracts/contracts/wwccPool.sol\":2430:2446  WcPools[poolKey] */\n      0x00\n        /* \"wwcc-contracts/contracts/wwccPool.sol\":2438:2445  poolKey */\n      dup4\n        /* \"wwcc-contracts/contracts/wwccPool.sol\":2430:2446  WcPools[poolKey] */\n      dup2\n      mstore\n      0x20\n      add\n      swap1\n      dup2\n      mstore\n      0x20\n      add\n      0x00\n      keccak256\n        /* \"wwcc-contracts/contracts/wwccPool.sol\":2430:2452  WcPools[poolKey].sPool */\n      0x06\n      add\n        /* \"wwcc-contracts/contracts/wwccPool.sol\":2430:2456  WcPools[poolKey].sPool = 0 */\n      dup2\n      swap1\n      sstore\n      pop\n        /* \"wwcc-contracts/contracts/wwccPool.sol\":2494:2495  0 */\n      0x00\n        /* \"wwcc-contracts/contracts/wwccPool.sol\":2469:2476  WcPools */\n      0x06\n        /* \"wwcc-contracts/contracts/wwccPool.sol\":2469:2485  WcPools[poolKey] */\n      0x00\n        /* \"wwcc-contracts/contracts/wwccPool.sol\":2477:2484  poolKey */\n      dup4\n        /* \"wwcc-contracts/contracts/wwccPool.sol\":2469:2485  WcPools[poolKey] */\n      dup2\n      mstore\n      0x20\n      add\n      swap1\n      dup2\n      mstore\n      0x20\n      add\n      0x00\n      keccak256\n        /* \"wwcc-contracts/contracts/wwccPool.sol\":2469:2491  WcPools[poolKey].basal */\n      0x07\n      add\n        /* \"wwcc-contracts/contracts/wwccPool.sol\":2469:2495  WcPools[poolKey].basal = 0 */\n      dup2\n      swap1\n      sstore\n      pop\n        /* \"wwcc-contracts/contracts/wwccPool.sol\":2535:2542  decided */\n      dup5\n        /* \"wwcc-contracts/contracts/wwccPool.sol\":2508:2515  WcPools */\n      0x06\n        /* \"wwcc-contracts/contracts/wwccPool.sol\":2508:2524  WcPools[poolKey] */\n      0x00\n        /* \"wwcc-contracts/contracts/wwccPool.sol\":2516:2523  poolKey */\n      dup4\n        /* \"wwcc-contracts/contracts/wwccPool.sol\":2508:2524  WcPools[poolKey] */\n      dup2\n      mstore\n      0x20\n      add\n      swap1\n      dup2\n      mstore\n      0x20\n      add\n      0x00\n      keccak256\n        /* \"wwcc-contracts/contracts/wwccPool.sol\":2508:2532  WcPools[poolKey].decided */\n      0x08\n      add\n      0x00\n        /* \"wwcc-contracts/contracts/wwccPool.sol\":2508:2542  WcPools[poolKey].decided = decided */\n      0x0100\n      exp\n      dup2\n      sload\n      dup2\n      0xff\n      mul\n      not\n      and\n      swap1\n      dup4\n      iszero\n      iszero\n      mul\n      or\n      swap1\n      sstore\n      pop\n        /* \"wwcc-contracts/contracts/wwccPool.sol\":2583:2588  false */\n      0x00\n        /* \"wwcc-contracts/contracts/wwccPool.sol\":2555:2562  WcPools */\n      0x06\n        /* \"wwcc-contracts/contracts/wwccPool.sol\":2555:2571  WcPools[poolKey] */\n      0x00\n        /* \"wwcc-contracts/contracts/wwccPool.sol\":2563:2570  poolKey */\n      dup4\n        /* \"wwcc-contracts/contracts/wwccPool.sol\":2555:2571  WcPools[poolKey] */\n      dup2\n      mstore\n      0x20\n      add\n      swap1\n      dup2\n      mstore\n      0x20\n      add\n      0x00\n      keccak256\n        /* \"wwcc-contracts/contracts/wwccPool.sol\":2555:2580  WcPools[poolKey].finished */\n      0x08\n      add\n      0x02\n        /* \"wwcc-contracts/contracts/wwccPool.sol\":2555:2588  WcPools[poolKey].finished = false */\n      0x0100\n      exp\n      dup2\n      sload\n      dup2\n      0xff\n      mul\n      not\n      and\n      swap1\n      dup4\n      iszero\n      iszero\n      mul\n      or\n      swap1\n      sstore\n      pop\n        /* \"wwcc-contracts/contracts/wwccPool.sol\":2614:2621  poolKey */\n      dup1\n        /* \"wwcc-contracts/contracts/wwccPool.sol\":2607:2621  return poolKey */\n      swap4\n      pop\n      pop\n      pop\n      pop\n        /* \"wwcc-contracts/contracts/wwccPool.sol\":1739:2628  function Set_Pool(... */\n      swap5\n      swap4\n      pop\n      pop\n      pop\n      pop\n      jump\t// out\n        /* \"wwcc-contracts/contracts/wwccPool.sol\":5895:6005  function CheckBasal() external onlyManager  returns (uint256){... */\n    tag_42:\n        /* \"wwcc-contracts/contracts/wwccPool.sol\":5948:5955  uint256 */\n      0x00\n        /* \"wwcc-contracts/contracts/wwccPool.sol\":12019:12024  owner */\n      dup1\n      0x00\n      swap1\n      sload\n      swap1\n      0x0100\n      exp\n      swap1\n      div\n      0xffffffffffffffffffffffffffffffffffffffff\n      and\n        /* \"wwcc-contracts/contracts/wwccPool.sol\":12005:12024  msg.sender == owner */\n      0xffffffffffffffffffffffffffffffffffffffff\n      and\n        /* \"wwcc-contracts/contracts/wwccPool.sol\":12005:12015  msg.sender */\n      caller\n        /* \"wwcc-contracts/contracts/wwccPool.sol\":12005:12024  msg.sender == owner */\n      0xffffffffffffffffffffffffffffffffffffffff\n      and\n      eq\n        /* \"wwcc-contracts/contracts/wwccPool.sol\":11984:12075  require(... */\n      tag_163\n      jumpi\n      mload(0x40)\n      0x08c379a000000000000000000000000000000000000000000000000000000000\n      dup2\n      mstore\n      0x04\n      add\n      tag_164\n      swap1\n      tag_76\n      jump\t// in\n    tag_164:\n      mload(0x40)\n      dup1\n      swap2\n      sub\n      swap1\n      revert\n    tag_163:\n        /* \"wwcc-contracts/contracts/wwccPool.sol\":5976:5989  nextBasalLast */\n      sload(0x07)\n        /* \"wwcc-contracts/contracts/wwccPool.sol\":5969:5989  return nextBasalLast */\n      swap1\n      pop\n        /* \"wwcc-contracts/contracts/wwccPool.sol\":5895:6005  function CheckBasal() external onlyManager  returns (uint256){... */\n      swap1\n      jump\t// out\n        /* \"wwcc-contracts/contracts/wwccPool.sol\":5537:5890  function CheckExpect(bytes32 poolKey) external onlyManager  returns (uint256){... */\n    tag_49:\n        /* \"wwcc-contracts/contracts/wwccPool.sol\":5606:5613  uint256 */\n      0x00\n        /* \"wwcc-contracts/contracts/wwccPool.sol\":12019:12024  owner */\n      dup1\n      0x00\n      swap1\n      sload\n      swap1\n      0x0100\n      exp\n      swap1\n      div\n      0xffffffffffffffffffffffffffffffffffffffff\n      and\n        /* \"wwcc-contracts/contracts/wwccPool.sol\":12005:12024  msg.sender == owner */\n      0xffffffffffffffffffffffffffffffffffffffff\n      and\n        /* \"wwcc-contracts/contracts/wwccPool.sol\":12005:12015  msg.sender */\n      caller\n        /* \"wwcc-contracts/contracts/wwccPool.sol\":12005:12024  msg.sender == owner */\n      0xffffffffffffffffffffffffffffffffffffffff\n      and\n      eq\n        /* \"wwcc-contracts/contracts/wwccPool.sol\":11984:12075  require(... */\n      tag_167\n      jumpi\n      mload(0x40)\n      0x08c379a000000000000000000000000000000000000000000000000000000000\n      dup2\n      mstore\n      0x04\n      add\n      tag_168\n      swap1\n      tag_76\n      jump\t// in\n    tag_168:\n      mload(0x40)\n      dup1\n      swap2\n      sub\n      swap1\n      revert\n    tag_167:\n        /* \"wwcc-contracts/contracts/wwccPool.sol\":5628:5645  contains(poolKey) */\n      tag_170\n        /* \"wwcc-contracts/contracts/wwccPool.sol\":5637:5644  poolKey */\n      dup3\n        /* \"wwcc-contracts/contracts/wwccPool.sol\":5628:5636  contains */\n      tag_79\n        /* \"wwcc-contracts/contracts/wwccPool.sol\":5628:5645  contains(poolKey) */\n      jump\t// in\n    tag_170:\n        /* \"wwcc-contracts/contracts/wwccPool.sol\":5624:5884  if(!contains(poolKey)) { ... */\n      tag_171\n      jumpi\n        /* \"wwcc-contracts/contracts/wwccPool.sol\":5662:5686  revert(\"pool not exist\") */\n      mload(0x40)\n      0x08c379a000000000000000000000000000000000000000000000000000000000\n      dup2\n      mstore\n      0x04\n      add\n      tag_172\n      swap1\n      tag_82\n      jump\t// in\n    tag_172:\n      mload(0x40)\n      dup1\n      swap2\n      sub\n      swap1\n      revert\n        /* \"wwcc-contracts/contracts/wwccPool.sol\":5624:5884  if(!contains(poolKey)) { ... */\n    tag_171:\n        /* \"wwcc-contracts/contracts/wwccPool.sol\":5714:5732  WcPool memory pool */\n      0x00\n        /* \"wwcc-contracts/contracts/wwccPool.sol\":5735:5742  WcPools */\n      0x06\n        /* \"wwcc-contracts/contracts/wwccPool.sol\":5735:5751  WcPools[poolKey] */\n      0x00\n        /* \"wwcc-contracts/contracts/wwccPool.sol\":5743:5750  poolKey */\n      dup5\n        /* \"wwcc-contracts/contracts/wwccPool.sol\":5735:5751  WcPools[poolKey] */\n      dup2\n      mstore\n      0x20\n      add\n      swap1\n      dup2\n      mstore\n      0x20\n      add\n      0x00\n      keccak256\n        /* \"wwcc-contracts/contracts/wwccPool.sol\":5714:5751  WcPool memory pool = WcPools[poolKey] */\n      mload(0x40)\n      dup1\n      0x0160\n      add\n      0x40\n      mstore\n      swap1\n      dup2\n      0x00\n      dup3\n      add\n      dup1\n      sload\n      tag_174\n      swap1\n      tag_85\n      jump\t// in\n    tag_174:\n      dup1\n      0x1f\n      add\n      0x20\n      dup1\n      swap2\n      div\n      mul\n      0x20\n      add\n      mload(0x40)\n      swap1\n      dup2\n      add\n      0x40\n      mstore\n      dup1\n      swap3\n      swap2\n      swap1\n      dup2\n      dup2\n      mstore\n      0x20\n      add\n      dup3\n      dup1\n      sload\n      tag_175\n      swap1\n      tag_85\n      jump\t// in\n    tag_175:\n      dup1\n      iszero\n      tag_176\n      jumpi\n      dup1\n      0x1f\n      lt\n      tag_177\n      jumpi\n      0x0100\n      dup1\n      dup4\n      sload\n      div\n      mul\n      dup4\n      mstore\n      swap2\n      0x20\n      add\n      swap2\n      jump(tag_176)\n    tag_177:\n      dup3\n      add\n      swap2\n      swap1\n      0x00\n      mstore\n      keccak256(0x00, 0x20)\n      swap1\n    tag_178:\n      dup2\n      sload\n      dup2\n      mstore\n      swap1\n      0x01\n      add\n      swap1\n      0x20\n      add\n      dup1\n      dup4\n      gt\n      tag_178\n      jumpi\n      dup3\n      swap1\n      sub\n      0x1f\n      and\n      dup3\n      add\n      swap2\n    tag_176:\n      pop\n      pop\n      pop\n      pop\n      pop\n      dup2\n      mstore\n      0x20\n      add\n      0x01\n      dup3\n      add\n      dup1\n      sload\n      tag_179\n      swap1\n      tag_85\n      jump\t// in\n    tag_179:\n      dup1\n      0x1f\n      add\n      0x20\n      dup1\n      swap2\n      div\n      mul\n      0x20\n      add\n      mload(0x40)\n      swap1\n      dup2\n      add\n      0x40\n      mstore\n      dup1\n      swap3\n      swap2\n      swap1\n      dup2\n      dup2\n      mstore\n      0x20\n      add\n      dup3\n      dup1\n      sload\n      tag_180\n      swap1\n      tag_85\n      jump\t// in\n    tag_180:\n      dup1\n      iszero\n      tag_181\n      jumpi\n      dup1\n      0x1f\n      lt\n      tag_182\n      jumpi\n      0x0100\n      dup1\n      dup4\n      sload\n      div\n      mul\n      dup4\n      mstore\n      swap2\n      0x20\n      add\n      swap2\n      jump(tag_181)\n    tag_182:\n      dup3\n      add\n      swap2\n      swap1\n      0x00\n      mstore\n      keccak256(0x00, 0x20)\n      swap1\n    tag_183:\n      dup2\n      sload\n      dup2\n      mstore\n      swap1\n      0x01\n      add\n      swap1\n      0x20\n      add\n      dup1\n      dup4\n      gt\n      tag_183\n      jumpi\n      dup3\n      swap1\n      sub\n      0x1f\n      and\n      dup3\n      add\n      swap2\n    tag_181:\n      pop\n      pop\n      pop\n      pop\n      pop\n      dup2\n      mstore\n      0x20\n      add\n      0x02\n      dup3\n      add\n      dup1\n      sload\n      tag_184\n      swap1\n      tag_85\n      jump\t// in\n    tag_184:\n      dup1\n      0x1f\n      add\n      0x20\n      dup1\n      swap2\n      div\n      mul\n      0x20\n      add\n      mload(0x40)\n      swap1\n      dup2\n      add\n      0x40\n      mstore\n      dup1\n      swap3\n      swap2\n      swap1\n      dup2\n      dup2\n      mstore\n      0x20\n      add\n      dup3\n      dup1\n      sload\n      tag_185\n      swap1\n      tag_85\n      jump\t// in\n    tag_185:\n      dup1\n      iszero\n      tag_186\n      jumpi\n      dup1\n      0x1f\n      lt\n      tag_187\n      jumpi\n      0x0100\n      dup1\n      dup4\n      sload\n      div\n      mul\n      dup4\n      mstore\n      swap2\n      0x20\n      add\n      swap2\n      jump(tag_186)\n    tag_187:\n      dup3\n      add\n      swap2\n      swap1\n      0x00\n      mstore\n      keccak256(0x00, 0x20)\n      swap1\n    tag_188:\n      dup2\n      sload\n      dup2\n      mstore\n      swap1\n      0x01\n      add\n      swap1\n      0x20\n      add\n      dup1\n      dup4\n      gt\n      tag_188\n      jumpi\n      dup3\n      swap1\n      sub\n      0x1f\n      and\n      dup3\n      add\n      swap2\n    tag_186:\n      pop\n      pop\n      pop\n      pop\n      pop\n      dup2\n      mstore\n      0x20\n      add\n      0x03\n      dup3\n      add\n      sload\n      dup2\n      mstore\n      0x20\n      add\n      0x04\n      dup3\n      add\n      sload\n      dup2\n      mstore\n      0x20\n      add\n      0x05\n      dup3\n      add\n      sload\n      dup2\n      mstore\n      0x20\n      add\n      0x06\n      dup3\n      add\n      sload\n      dup2\n      mstore\n      0x20\n      add\n      0x07\n      dup3\n      add\n      sload\n      dup2\n      mstore\n      0x20\n      add\n      0x08\n      dup3\n      add\n      0x00\n      swap1\n      sload\n      swap1\n      0x0100\n      exp\n      swap1\n      div\n      0xff\n      and\n      iszero\n      iszero\n      iszero\n      iszero\n      dup2\n      mstore\n      0x20\n      add\n      0x08\n      dup3\n      add\n      0x01\n      swap1\n      sload\n      swap1\n      0x0100\n      exp\n      swap1\n      div\n      0xff\n      and\n      iszero\n      iszero\n      iszero\n      iszero\n      dup2\n      mstore\n      0x20\n      add\n      0x08\n      dup3\n      add\n      0x02\n      swap1\n      sload\n      swap1\n      0x0100\n      exp\n      swap1\n      div\n      0xff\n      and\n      iszero\n      iszero\n      iszero\n      iszero\n      dup2\n      mstore\n      pop\n      pop\n      swap1\n      pop\n        /* \"wwcc-contracts/contracts/wwccPool.sol\":5764:5778  uint256 expect */\n      0x00\n        /* \"wwcc-contracts/contracts/wwccPool.sol\":5781:5847  (pool.wPool+pool.lPool+pool.dPool+pool.sPool + pool.basal).div(10) */\n      tag_189\n        /* \"wwcc-contracts/contracts/wwccPool.sol\":5844:5846  10 */\n      0x0a\n        /* \"wwcc-contracts/contracts/wwccPool.sol\":5828:5832  pool */\n      dup4\n        /* \"wwcc-contracts/contracts/wwccPool.sol\":5828:5838  pool.basal */\n      0xe0\n      add\n      mload\n        /* \"wwcc-contracts/contracts/wwccPool.sol\":5815:5819  pool */\n      dup5\n        /* \"wwcc-contracts/contracts/wwccPool.sol\":5815:5825  pool.sPool */\n      0xc0\n      add\n      mload\n        /* \"wwcc-contracts/contracts/wwccPool.sol\":5804:5808  pool */\n      dup6\n        /* \"wwcc-contracts/contracts/wwccPool.sol\":5804:5814  pool.dPool */\n      0x80\n      add\n      mload\n        /* \"wwcc-contracts/contracts/wwccPool.sol\":5793:5797  pool */\n      dup7\n        /* \"wwcc-contracts/contracts/wwccPool.sol\":5793:5803  pool.lPool */\n      0xa0\n      add\n      mload\n        /* \"wwcc-contracts/contracts/wwccPool.sol\":5782:5786  pool */\n      dup8\n        /* \"wwcc-contracts/contracts/wwccPool.sol\":5782:5792  pool.wPool */\n      0x60\n      add\n      mload\n        /* \"wwcc-contracts/contracts/wwccPool.sol\":5782:5803  pool.wPool+pool.lPool */\n      tag_190\n      swap2\n      swap1\n      tag_17\n      jump\t// in\n    tag_190:\n        /* \"wwcc-contracts/contracts/wwccPool.sol\":5782:5814  pool.wPool+pool.lPool+pool.dPool */\n      tag_191\n      swap2\n      swap1\n      tag_17\n      jump\t// in\n    tag_191:\n        /* \"wwcc-contracts/contracts/wwccPool.sol\":5782:5825  pool.wPool+pool.lPool+pool.dPool+pool.sPool */\n      tag_192\n      swap2\n      swap1\n      tag_17\n      jump\t// in\n    tag_192:\n        /* \"wwcc-contracts/contracts/wwccPool.sol\":5782:5838  pool.wPool+pool.lPool+pool.dPool+pool.sPool + pool.basal */\n      tag_193\n      swap2\n      swap1\n      tag_17\n      jump\t// in\n    tag_193:\n        /* \"wwcc-contracts/contracts/wwccPool.sol\":5781:5843  (pool.wPool+pool.lPool+pool.dPool+pool.sPool + pool.basal).div */\n      tag_105\n      swap1\n        /* \"wwcc-contracts/contracts/wwccPool.sol\":5781:5847  (pool.wPool+pool.lPool+pool.dPool+pool.sPool + pool.basal).div(10) */\n      swap2\n      swap1\n      0xffffffff\n      and\n      jump\t// in\n    tag_189:\n        /* \"wwcc-contracts/contracts/wwccPool.sol\":5764:5847  uint256 expect = (pool.wPool+pool.lPool+pool.dPool+pool.sPool + pool.basal).div(10) */\n      swap1\n      pop\n        /* \"wwcc-contracts/contracts/wwccPool.sol\":5867:5873  expect */\n      dup1\n        /* \"wwcc-contracts/contracts/wwccPool.sol\":5860:5873  return expect */\n      swap3\n      pop\n      pop\n      pop\n        /* \"wwcc-contracts/contracts/wwccPool.sol\":5537:5890  function CheckExpect(bytes32 poolKey) external onlyManager  returns (uint256){... */\n      swap2\n      swap1\n      pop\n      jump\t// out\n        /* \"wwcc-contracts/contracts/wwccPool.sol\":2633:3971  function Picking(address joiner,uint256 weight,bytes32 poolKey,uint256 homeScore,uint256 visitScore,uint256 kind) external onlyManager returns(bool){... */\n    tag_55:\n        /* \"wwcc-contracts/contracts/wwccPool.sol\":2776:2780  bool */\n      0x00\n        /* \"wwcc-contracts/contracts/wwccPool.sol\":12019:12024  owner */\n      dup1\n      0x00\n      swap1\n      sload\n      swap1\n      0x0100\n      exp\n      swap1\n      div\n      0xffffffffffffffffffffffffffffffffffffffff\n      and\n        /* \"wwcc-contracts/contracts/wwccPool.sol\":12005:12024  msg.sender == owner */\n      0xffffffffffffffffffffffffffffffffffffffff\n      and\n        /* \"wwcc-contracts/contracts/wwccPool.sol\":12005:12015  msg.sender */\n      caller\n        /* \"wwcc-contracts/contracts/wwccPool.sol\":12005:12024  msg.sender == owner */\n      0xffffffffffffffffffffffffffffffffffffffff\n      and\n      eq\n        /* \"wwcc-contracts/contracts/wwccPool.sol\":11984:12075  require(... */\n      tag_195\n      jumpi\n      mload(0x40)\n      0x08c379a000000000000000000000000000000000000000000000000000000000\n      dup2\n      mstore\n      0x04\n      add\n      tag_196\n      swap1\n      tag_76\n      jump\t// in\n    tag_196:\n      mload(0x40)\n      dup1\n      swap2\n      sub\n      swap1\n      revert\n    tag_195:\n        /* \"wwcc-contracts/contracts/wwccPool.sol\":2795:2812  contains(poolKey) */\n      tag_198\n        /* \"wwcc-contracts/contracts/wwccPool.sol\":2804:2811  poolKey */\n      dup6\n        /* \"wwcc-contracts/contracts/wwccPool.sol\":2795:2803  contains */\n      tag_79\n        /* \"wwcc-contracts/contracts/wwccPool.sol\":2795:2812  contains(poolKey) */\n      jump\t// in\n    tag_198:\n        /* \"wwcc-contracts/contracts/wwccPool.sol\":2791:3945  if(!contains(poolKey)) { ... */\n      tag_199\n      jumpi\n        /* \"wwcc-contracts/contracts/wwccPool.sol\":2829:2853  revert(\"pool not exist\") */\n      mload(0x40)\n      0x08c379a000000000000000000000000000000000000000000000000000000000\n      dup2\n      mstore\n      0x04\n      add\n      tag_200\n      swap1\n      tag_82\n      jump\t// in\n    tag_200:\n      mload(0x40)\n      dup1\n      swap2\n      sub\n      swap1\n      revert\n        /* \"wwcc-contracts/contracts/wwccPool.sol\":2791:3945  if(!contains(poolKey)) { ... */\n    tag_199:\n        /* \"wwcc-contracts/contracts/wwccPool.sol\":2902:2908  weight */\n      dup6\n        /* \"wwcc-contracts/contracts/wwccPool.sol\":2883:2893  voteAmount */\n      0x05\n        /* \"wwcc-contracts/contracts/wwccPool.sol\":2883:2901  voteAmount[joiner] */\n      0x00\n        /* \"wwcc-contracts/contracts/wwccPool.sol\":2894:2900  joiner */\n      dup10\n        /* \"wwcc-contracts/contracts/wwccPool.sol\":2883:2901  voteAmount[joiner] */\n      0xffffffffffffffffffffffffffffffffffffffff\n      and\n      0xffffffffffffffffffffffffffffffffffffffff\n      and\n      dup2\n      mstore\n      0x20\n      add\n      swap1\n      dup2\n      mstore\n      0x20\n      add\n      0x00\n      keccak256\n      sload\n        /* \"wwcc-contracts/contracts/wwccPool.sol\":2883:2908  voteAmount[joiner]<weight */\n      lt\n        /* \"wwcc-contracts/contracts/wwccPool.sol\":2880:2971  if(voteAmount[joiner]<weight){... */\n      iszero\n      tag_202\n      jumpi\n        /* \"wwcc-contracts/contracts/wwccPool.sol\":2926:2957  revert(\"not enough voteAmount\") */\n      mload(0x40)\n      0x08c379a000000000000000000000000000000000000000000000000000000000\n      dup2\n      mstore\n      0x04\n      add\n      tag_203\n      swap1\n      tag_204\n      jump\t// in\n    tag_203:\n      mload(0x40)\n      dup1\n      swap2\n      sub\n      swap1\n      revert\n        /* \"wwcc-contracts/contracts/wwccPool.sol\":2880:2971  if(voteAmount[joiner]<weight){... */\n    tag_202:\n        /* \"wwcc-contracts/contracts/wwccPool.sol\":2983:3001  WcPool memory pool */\n      0x00\n        /* \"wwcc-contracts/contracts/wwccPool.sol\":3004:3011  WcPools */\n      0x06\n        /* \"wwcc-contracts/contracts/wwccPool.sol\":3004:3020  WcPools[poolKey] */\n      0x00\n        /* \"wwcc-contracts/contracts/wwccPool.sol\":3012:3019  poolKey */\n      dup8\n        /* \"wwcc-contracts/contracts/wwccPool.sol\":3004:3020  WcPools[poolKey] */\n      dup2\n      mstore\n      0x20\n      add\n      swap1\n      dup2\n      mstore\n      0x20\n      add\n      0x00\n      keccak256\n        /* \"wwcc-contracts/contracts/wwccPool.sol\":2983:3020  WcPool memory pool = WcPools[poolKey] */\n      mload(0x40)\n      dup1\n      0x0160\n      add\n      0x40\n      mstore\n      swap1\n      dup2\n      0x00\n      dup3\n      add\n      dup1\n      sload\n      tag_205\n      swap1\n      tag_85\n      jump\t// in\n    tag_205:\n      dup1\n      0x1f\n      add\n      0x20\n      dup1\n      swap2\n      div\n      mul\n      0x20\n      add\n      mload(0x40)\n      swap1\n      dup2\n      add\n      0x40\n      mstore\n      dup1\n      swap3\n      swap2\n      swap1\n      dup2\n      dup2\n      mstore\n      0x20\n      add\n      dup3\n      dup1\n      sload\n      tag_206\n      swap1\n      tag_85\n      jump\t// in\n    tag_206:\n      dup1\n      iszero\n      tag_207\n      jumpi\n      dup1\n      0x1f\n      lt\n      tag_208\n      jumpi\n      0x0100\n      dup1\n      dup4\n      sload\n      div\n      mul\n      dup4\n      mstore\n      swap2\n      0x20\n      add\n      swap2\n      jump(tag_207)\n    tag_208:\n      dup3\n      add\n      swap2\n      swap1\n      0x00\n      mstore\n      keccak256(0x00, 0x20)\n      swap1\n    tag_209:\n      dup2\n      sload\n      dup2\n      mstore\n      swap1\n      0x01\n      add\n      swap1\n      0x20\n      add\n      dup1\n      dup4\n      gt\n      tag_209\n      jumpi\n      dup3\n      swap1\n      sub\n      0x1f\n      and\n      dup3\n      add\n      swap2\n    tag_207:\n      pop\n      pop\n      pop\n      pop\n      pop\n      dup2\n      mstore\n      0x20\n      add\n      0x01\n      dup3\n      add\n      dup1\n      sload\n      tag_210\n      swap1\n      tag_85\n      jump\t// in\n    tag_210:\n      dup1\n      0x1f\n      add\n      0x20\n      dup1\n      swap2\n      div\n      mul\n      0x20\n      add\n      mload(0x40)\n      swap1\n      dup2\n      add\n      0x40\n      mstore\n      dup1\n      swap3\n      swap2\n      swap1\n      dup2\n      dup2\n      mstore\n      0x20\n      add\n      dup3\n      dup1\n      sload\n      tag_211\n      swap1\n      tag_85\n      jump\t// in\n    tag_211:\n      dup1\n      iszero\n      tag_212\n      jumpi\n      dup1\n      0x1f\n      lt\n      tag_213\n      jumpi\n      0x0100\n      dup1\n      dup4\n      sload\n      div\n      mul\n      dup4\n      mstore\n      swap2\n      0x20\n      add\n      swap2\n      jump(tag_212)\n    tag_213:\n      dup3\n      add\n      swap2\n      swap1\n      0x00\n      mstore\n      keccak256(0x00, 0x20)\n      swap1\n    tag_214:\n      dup2\n      sload\n      dup2\n      mstore\n      swap1\n      0x01\n      add\n      swap1\n      0x20\n      add\n      dup1\n      dup4\n      gt\n      tag_214\n      jumpi\n      dup3\n      swap1\n      sub\n      0x1f\n      and\n      dup3\n      add\n      swap2\n    tag_212:\n      pop\n      pop\n      pop\n      pop\n      pop\n      dup2\n      mstore\n      0x20\n      add\n      0x02\n      dup3\n      add\n      dup1\n      sload\n      tag_215\n      swap1\n      tag_85\n      jump\t// in\n    tag_215:\n      dup1\n      0x1f\n      add\n      0x20\n      dup1\n      swap2\n      div\n      mul\n      0x20\n      add\n      mload(0x40)\n      swap1\n      dup2\n      add\n      0x40\n      mstore\n      dup1\n      swap3\n      swap2\n      swap1\n      dup2\n      dup2\n      mstore\n      0x20\n      add\n      dup3\n      dup1\n      sload\n      tag_216\n      swap1\n      tag_85\n      jump\t// in\n    tag_216:\n      dup1\n      iszero\n      tag_217\n      jumpi\n      dup1\n      0x1f\n      lt\n      tag_218\n      jumpi\n      0x0100\n      dup1\n      dup4\n      sload\n      div\n      mul\n      dup4\n      mstore\n      swap2\n      0x20\n      add\n      swap2\n      jump(tag_217)\n    tag_218:\n      dup3\n      add\n      swap2\n      swap1\n      0x00\n      mstore\n      keccak256(0x00, 0x20)\n      swap1\n    tag_219:\n      dup2\n      sload\n      dup2\n      mstore\n      swap1\n      0x01\n      add\n      swap1\n      0x20\n      add\n      dup1\n      dup4\n      gt\n      tag_219\n      jumpi\n      dup3\n      swap1\n      sub\n      0x1f\n      and\n      dup3\n      add\n      swap2\n    tag_217:\n      pop\n      pop\n      pop\n      pop\n      pop\n      dup2\n      mstore\n      0x20\n      add\n      0x03\n      dup3\n      add\n      sload\n      dup2\n      mstore\n      0x20\n      add\n      0x04\n      dup3\n      add\n      sload\n      dup2\n      mstore\n      0x20\n      add\n      0x05\n      dup3\n      add\n      sload\n      dup2\n      mstore\n      0x20\n      add\n      0x06\n      dup3\n      add\n      sload\n      dup2\n      mstore\n      0x20\n      add\n      0x07\n      dup3\n      add\n      sload\n      dup2\n      mstore\n      0x20\n      add\n      0x08\n      dup3\n      add\n      0x00\n      swap1\n      sload\n      swap1\n      0x0100\n      exp\n      swap1\n      div\n      0xff\n      and\n      iszero\n      iszero\n      iszero\n      iszero\n      dup2\n      mstore\n      0x20\n      add\n      0x08\n      dup3\n      add\n      0x01\n      swap1\n      sload\n      swap1\n      0x0100\n      exp\n      swap1\n      div\n      0xff\n      and\n      iszero\n      iszero\n      iszero\n      iszero\n      dup2\n      mstore\n      0x20\n      add\n      0x08\n      dup3\n      add\n      0x02\n      swap1\n      sload\n      swap1\n      0x0100\n      exp\n      swap1\n      div\n      0xff\n      and\n      iszero\n      iszero\n      iszero\n      iszero\n      dup2\n      mstore\n      pop\n      pop\n      swap1\n      pop\n        /* \"wwcc-contracts/contracts/wwccPool.sol\":3033:3050  string  memory si */\n      0x00\n        /* \"wwcc-contracts/contracts/wwccPool.sol\":3053:3118  strConcat(uint256ToString(homeScore),uint256ToString(visitScore)) */\n      tag_220\n        /* \"wwcc-contracts/contracts/wwccPool.sol\":3063:3089  uint256ToString(homeScore) */\n      tag_221\n        /* \"wwcc-contracts/contracts/wwccPool.sol\":3079:3088  homeScore */\n      dup8\n        /* \"wwcc-contracts/contracts/wwccPool.sol\":3063:3078  uint256ToString */\n      tag_222\n        /* \"wwcc-contracts/contracts/wwccPool.sol\":3063:3089  uint256ToString(homeScore) */\n      jump\t// in\n    tag_221:\n        /* \"wwcc-contracts/contracts/wwccPool.sol\":3090:3117  uint256ToString(visitScore) */\n      tag_223\n        /* \"wwcc-contracts/contracts/wwccPool.sol\":3106:3116  visitScore */\n      dup8\n        /* \"wwcc-contracts/contracts/wwccPool.sol\":3090:3105  uint256ToString */\n      tag_222\n        /* \"wwcc-contracts/contracts/wwccPool.sol\":3090:3117  uint256ToString(visitScore) */\n      jump\t// in\n    tag_223:\n        /* \"wwcc-contracts/contracts/wwccPool.sol\":3053:3062  strConcat */\n      tag_149\n        /* \"wwcc-contracts/contracts/wwccPool.sol\":3053:3118  strConcat(uint256ToString(homeScore),uint256ToString(visitScore)) */\n      jump\t// in\n    tag_220:\n        /* \"wwcc-contracts/contracts/wwccPool.sol\":3033:3118  string  memory si = strConcat(uint256ToString(homeScore),uint256ToString(visitScore)) */\n      swap1\n      pop\n        /* \"wwcc-contracts/contracts/wwccPool.sol\":3131:3156  string  memory pickingKey */\n      0x00\n        /* \"wwcc-contracts/contracts/wwccPool.sol\":3159:3197  strConcat(bytes32ToString(poolKey),si) */\n      tag_224\n        /* \"wwcc-contracts/contracts/wwccPool.sol\":3169:3193  bytes32ToString(poolKey) */\n      tag_225\n        /* \"wwcc-contracts/contracts/wwccPool.sol\":3185:3192  poolKey */\n      dup10\n        /* \"wwcc-contracts/contracts/wwccPool.sol\":3169:3184  bytes32ToString */\n      tag_226\n        /* \"wwcc-contracts/contracts/wwccPool.sol\":3169:3193  bytes32ToString(poolKey) */\n      jump\t// in\n    tag_225:\n        /* \"wwcc-contracts/contracts/wwccPool.sol\":3194:3196  si */\n      dup4\n        /* \"wwcc-contracts/contracts/wwccPool.sol\":3159:3168  strConcat */\n      tag_149\n        /* \"wwcc-contracts/contracts/wwccPool.sol\":3159:3197  strConcat(bytes32ToString(poolKey),si) */\n      jump\t// in\n    tag_224:\n        /* \"wwcc-contracts/contracts/wwccPool.sol\":3131:3197  string  memory pickingKey = strConcat(bytes32ToString(poolKey),si) */\n      swap1\n      pop\n        /* \"wwcc-contracts/contracts/wwccPool.sol\":3210:3233  JoinerPicking memory jp */\n      0x00\n        /* \"wwcc-contracts/contracts/wwccPool.sol\":3236:3307  JoinerPicking(weight,kind,homeScore,visitScore,joiner,pickingKey,false) */\n      mload(0x40)\n      dup1\n      0xe0\n      add\n      0x40\n      mstore\n      dup1\n        /* \"wwcc-contracts/contracts/wwccPool.sol\":3250:3256  weight */\n      dup12\n        /* \"wwcc-contracts/contracts/wwccPool.sol\":3236:3307  JoinerPicking(weight,kind,homeScore,visitScore,joiner,pickingKey,false) */\n      dup2\n      mstore\n      0x20\n      add\n        /* \"wwcc-contracts/contracts/wwccPool.sol\":3257:3261  kind */\n      dup8\n        /* \"wwcc-contracts/contracts/wwccPool.sol\":3236:3307  JoinerPicking(weight,kind,homeScore,visitScore,joiner,pickingKey,false) */\n      dup2\n      mstore\n      0x20\n      add\n        /* \"wwcc-contracts/contracts/wwccPool.sol\":3262:3271  homeScore */\n      dup10\n        /* \"wwcc-contracts/contracts/wwccPool.sol\":3236:3307  JoinerPicking(weight,kind,homeScore,visitScore,joiner,pickingKey,false) */\n      dup2\n      mstore\n      0x20\n      add\n        /* \"wwcc-contracts/contracts/wwccPool.sol\":3272:3282  visitScore */\n      dup9\n        /* \"wwcc-contracts/contracts/wwccPool.sol\":3236:3307  JoinerPicking(weight,kind,homeScore,visitScore,joiner,pickingKey,false) */\n      dup2\n      mstore\n      0x20\n      add\n        /* \"wwcc-contracts/contracts/wwccPool.sol\":3283:3289  joiner */\n      dup13\n        /* \"wwcc-contracts/contracts/wwccPool.sol\":3236:3307  JoinerPicking(weight,kind,homeScore,visitScore,joiner,pickingKey,false) */\n      0xffffffffffffffffffffffffffffffffffffffff\n      and\n      dup2\n      mstore\n      0x20\n      add\n        /* \"wwcc-contracts/contracts/wwccPool.sol\":3290:3300  pickingKey */\n      dup4\n        /* \"wwcc-contracts/contracts/wwccPool.sol\":3236:3307  JoinerPicking(weight,kind,homeScore,visitScore,joiner,pickingKey,false) */\n      dup2\n      mstore\n      0x20\n      add\n        /* \"wwcc-contracts/contracts/wwccPool.sol\":3301:3306  false */\n      0x00\n        /* \"wwcc-contracts/contracts/wwccPool.sol\":3236:3307  JoinerPicking(weight,kind,homeScore,visitScore,joiner,pickingKey,false) */\n      iszero\n      iszero\n      dup2\n      mstore\n      pop\n        /* \"wwcc-contracts/contracts/wwccPool.sol\":3210:3307  JoinerPicking memory jp = JoinerPicking(weight,kind,homeScore,visitScore,joiner,pickingKey,false) */\n      swap1\n      pop\n        /* \"wwcc-contracts/contracts/wwccPool.sol\":3356:3363  poolKey */\n      dup9\n        /* \"wwcc-contracts/contracts/wwccPool.sol\":3320:3336  allScorePoolInfo */\n      0x02\n        /* \"wwcc-contracts/contracts/wwccPool.sol\":3320:3345  allScorePoolInfo[poolKey] */\n      0x00\n        /* \"wwcc-contracts/contracts/wwccPool.sol\":3337:3344  poolKey */\n      dup12\n        /* \"wwcc-contracts/contracts/wwccPool.sol\":3320:3345  allScorePoolInfo[poolKey] */\n      dup2\n      mstore\n      0x20\n      add\n      swap1\n      dup2\n      mstore\n      0x20\n      add\n      0x00\n      keccak256\n        /* \"wwcc-contracts/contracts/wwccPool.sol\":3320:3353  allScorePoolInfo[poolKey].poolKey */\n      0x01\n      add\n        /* \"wwcc-contracts/contracts/wwccPool.sol\":3320:3363  allScorePoolInfo[poolKey].poolKey = poolKey */\n      dup2\n      swap1\n      sstore\n      pop\n        /* \"wwcc-contracts/contracts/wwccPool.sol\":3376:3392  allScorePoolInfo */\n      0x02\n        /* \"wwcc-contracts/contracts/wwccPool.sol\":3376:3401  allScorePoolInfo[poolKey] */\n      0x00\n        /* \"wwcc-contracts/contracts/wwccPool.sol\":3393:3400  poolKey */\n      dup11\n        /* \"wwcc-contracts/contracts/wwccPool.sol\":3376:3401  allScorePoolInfo[poolKey] */\n      dup2\n      mstore\n      0x20\n      add\n      swap1\n      dup2\n      mstore\n      0x20\n      add\n      0x00\n      keccak256\n        /* \"wwcc-contracts/contracts/wwccPool.sol\":3376:3413  allScorePoolInfo[poolKey].separateBet */\n      0x00\n      add\n        /* \"wwcc-contracts/contracts/wwccPool.sol\":3419:3421  jp */\n      dup2\n        /* \"wwcc-contracts/contracts/wwccPool.sol\":3376:3422  allScorePoolInfo[poolKey].separateBet.push(jp) */\n      swap1\n      dup1\n      0x01\n      dup2\n      sload\n      add\n      dup1\n      dup3\n      sstore\n      dup1\n      swap2\n      pop\n      pop\n      0x01\n      swap1\n      sub\n      swap1\n      0x00\n      mstore\n      keccak256(0x00, 0x20)\n      swap1\n      0x07\n      mul\n      add\n      0x00\n      swap1\n      swap2\n      swap1\n      swap2\n      swap1\n      swap2\n      pop\n      0x00\n      dup3\n      add\n      mload\n      dup2\n      0x00\n      add\n      sstore\n      0x20\n      dup3\n      add\n      mload\n      dup2\n      0x01\n      add\n      sstore\n      0x40\n      dup3\n      add\n      mload\n      dup2\n      0x02\n      add\n      sstore\n      0x60\n      dup3\n      add\n      mload\n      dup2\n      0x03\n      add\n      sstore\n      0x80\n      dup3\n      add\n      mload\n      dup2\n      0x04\n      add\n      exp(0x0100, 0x00)\n      dup2\n      sload\n      dup2\n      0xffffffffffffffffffffffffffffffffffffffff\n      mul\n      not\n      and\n      swap1\n      dup4\n      0xffffffffffffffffffffffffffffffffffffffff\n      and\n      mul\n      or\n      swap1\n      sstore\n      pop\n      0xa0\n      dup3\n      add\n      mload\n      dup2\n      0x05\n      add\n      swap1\n      dup1\n      mload\n      swap1\n      0x20\n      add\n      swap1\n      tag_228\n      swap3\n      swap2\n      swap1\n      tag_159\n      jump\t// in\n    tag_228:\n      pop\n      0xc0\n      dup3\n      add\n      mload\n      dup2\n      0x06\n      add\n      exp(0x0100, 0x00)\n      dup2\n      sload\n      dup2\n      0xff\n      mul\n      not\n      and\n      swap1\n      dup4\n      iszero\n      iszero\n      mul\n      or\n      swap1\n      sstore\n      pop\n      pop\n      pop\n        /* \"wwcc-contracts/contracts/wwccPool.sol\":3470:3476  joiner */\n      dup11\n        /* \"wwcc-contracts/contracts/wwccPool.sol\":3436:3452  joinerAllPicking */\n      0x04\n        /* \"wwcc-contracts/contracts/wwccPool.sol\":3436:3460  joinerAllPicking[joiner] */\n      0x00\n        /* \"wwcc-contracts/contracts/wwccPool.sol\":3453:3459  joiner */\n      dup14\n        /* \"wwcc-contracts/contracts/wwccPool.sol\":3436:3460  joinerAllPicking[joiner] */\n      0xffffffffffffffffffffffffffffffffffffffff\n      and\n      0xffffffffffffffffffffffffffffffffffffffff\n      and\n      dup2\n      mstore\n      0x20\n      add\n      swap1\n      dup2\n      mstore\n      0x20\n      add\n      0x00\n      keccak256\n        /* \"wwcc-contracts/contracts/wwccPool.sol\":3436:3467  joinerAllPicking[joiner].joiner */\n      0x01\n      add\n      0x00\n        /* \"wwcc-contracts/contracts/wwccPool.sol\":3436:3476  joinerAllPicking[joiner].joiner = joiner */\n      0x0100\n      exp\n      dup2\n      sload\n      dup2\n      0xffffffffffffffffffffffffffffffffffffffff\n      mul\n      not\n      and\n      swap1\n      dup4\n      0xffffffffffffffffffffffffffffffffffffffff\n      and\n      mul\n      or\n      swap1\n      sstore\n      pop\n        /* \"wwcc-contracts/contracts/wwccPool.sol\":3489:3505  allScorePoolInfo */\n      0x02\n        /* \"wwcc-contracts/contracts/wwccPool.sol\":3489:3514  allScorePoolInfo[poolKey] */\n      0x00\n        /* \"wwcc-contracts/contracts/wwccPool.sol\":3506:3513  poolKey */\n      dup11\n        /* \"wwcc-contracts/contracts/wwccPool.sol\":3489:3514  allScorePoolInfo[poolKey] */\n      dup2\n      mstore\n      0x20\n      add\n      swap1\n      dup2\n      mstore\n      0x20\n      add\n      0x00\n      keccak256\n        /* \"wwcc-contracts/contracts/wwccPool.sol\":3489:3526  allScorePoolInfo[poolKey].separateBet */\n      0x00\n      add\n        /* \"wwcc-contracts/contracts/wwccPool.sol\":3532:3534  jp */\n      dup2\n        /* \"wwcc-contracts/contracts/wwccPool.sol\":3489:3535  allScorePoolInfo[poolKey].separateBet.push(jp) */\n      swap1\n      dup1\n      0x01\n      dup2\n      sload\n      add\n      dup1\n      dup3\n      sstore\n      dup1\n      swap2\n      pop\n      pop\n      0x01\n      swap1\n      sub\n      swap1\n      0x00\n      mstore\n      keccak256(0x00, 0x20)\n      swap1\n      0x07\n      mul\n      add\n      0x00\n      swap1\n      swap2\n      swap1\n      swap2\n      swap1\n      swap2\n      pop\n      0x00\n      dup3\n      add\n      mload\n      dup2\n      0x00\n      add\n      sstore\n      0x20\n      dup3\n      add\n      mload\n      dup2\n      0x01\n      add\n      sstore\n      0x40\n      dup3\n      add\n      mload\n      dup2\n      0x02\n      add\n      sstore\n      0x60\n      dup3\n      add\n      mload\n      dup2\n      0x03\n      add\n      sstore\n      0x80\n      dup3\n      add\n      mload\n      dup2\n      0x04\n      add\n      exp(0x0100, 0x00)\n      dup2\n      sload\n      dup2\n      0xffffffffffffffffffffffffffffffffffffffff\n      mul\n      not\n      and\n      swap1\n      dup4\n      0xffffffffffffffffffffffffffffffffffffffff\n      and\n      mul\n      or\n      swap1\n      sstore\n      pop\n      0xa0\n      dup3\n      add\n      mload\n      dup2\n      0x05\n      add\n      swap1\n      dup1\n      mload\n      swap1\n      0x20\n      add\n      swap1\n      tag_230\n      swap3\n      swap2\n      swap1\n      tag_159\n      jump\t// in\n    tag_230:\n      pop\n      0xc0\n      dup3\n      add\n      mload\n      dup2\n      0x06\n      add\n      exp(0x0100, 0x00)\n      dup2\n      sload\n      dup2\n      0xff\n      mul\n      not\n      and\n      swap1\n      dup4\n      iszero\n      iszero\n      mul\n      or\n      swap1\n      sstore\n      pop\n      pop\n      pop\n        /* \"wwcc-contracts/contracts/wwccPool.sol\":3562:3563  2 */\n      0x02\n        /* \"wwcc-contracts/contracts/wwccPool.sol\":3554:3558  kind */\n      dup7\n        /* \"wwcc-contracts/contracts/wwccPool.sol\":3554:3563  kind == 2 */\n      eq\n        /* \"wwcc-contracts/contracts/wwccPool.sol\":3550:3882  if (kind == 2){... */\n      iszero\n      tag_231\n      jumpi\n        /* \"wwcc-contracts/contracts/wwccPool.sol\":3594:3600  weight */\n      dup10\n        /* \"wwcc-contracts/contracts/wwccPool.sol\":3580:3584  pool */\n      dup5\n        /* \"wwcc-contracts/contracts/wwccPool.sol\":3580:3590  pool.sPool */\n      0xc0\n      add\n        /* \"wwcc-contracts/contracts/wwccPool.sol\":3580:3600  pool.sPool += weight */\n      dup2\n      dup2\n      mload\n      tag_232\n      swap2\n      swap1\n      tag_17\n      jump\t// in\n    tag_232:\n      swap2\n      pop\n      dup2\n      dup2\n      mstore\n      pop\n      pop\n        /* \"wwcc-contracts/contracts/wwccPool.sol\":3647:3653  weight */\n      dup10\n        /* \"wwcc-contracts/contracts/wwccPool.sol\":3616:3631  singleScorePool */\n      0x03\n        /* \"wwcc-contracts/contracts/wwccPool.sol\":3632:3642  pickingKey */\n      dup4\n        /* \"wwcc-contracts/contracts/wwccPool.sol\":3616:3643  singleScorePool[pickingKey] */\n      mload(0x40)\n      tag_233\n      swap2\n      swap1\n      tag_152\n      jump\t// in\n    tag_233:\n      swap1\n      dup2\n      mstore\n      0x20\n      add\n      mload(0x40)\n      dup1\n      swap2\n      sub\n      swap1\n      keccak256\n      0x00\n        /* \"wwcc-contracts/contracts/wwccPool.sol\":3616:3653  singleScorePool[pickingKey] += weight */\n      dup3\n      dup3\n      sload\n      tag_234\n      swap2\n      swap1\n      tag_17\n      jump\t// in\n    tag_234:\n      swap3\n      pop\n      pop\n      dup2\n      swap1\n      sstore\n      pop\n        /* \"wwcc-contracts/contracts/wwccPool.sol\":3550:3882  if (kind == 2){... */\n      jump(tag_235)\n    tag_231:\n        /* \"wwcc-contracts/contracts/wwccPool.sol\":3697:3698  3 */\n      0x03\n        /* \"wwcc-contracts/contracts/wwccPool.sol\":3689:3693  kind */\n      dup7\n        /* \"wwcc-contracts/contracts/wwccPool.sol\":3689:3698  kind == 3 */\n      eq\n        /* \"wwcc-contracts/contracts/wwccPool.sol\":3686:3882  if(kind == 3){... */\n      iszero\n      tag_236\n      jumpi\n        /* \"wwcc-contracts/contracts/wwccPool.sol\":3731:3737  weight */\n      dup10\n        /* \"wwcc-contracts/contracts/wwccPool.sol\":3717:3721  pool */\n      dup5\n        /* \"wwcc-contracts/contracts/wwccPool.sol\":3717:3727  pool.wPool */\n      0x60\n      add\n        /* \"wwcc-contracts/contracts/wwccPool.sol\":3717:3737  pool.wPool += weight */\n      dup2\n      dup2\n      mload\n      tag_237\n      swap2\n      swap1\n      tag_17\n      jump\t// in\n    tag_237:\n      swap2\n      pop\n      dup2\n      dup2\n      mstore\n      pop\n      pop\n        /* \"wwcc-contracts/contracts/wwccPool.sol\":3686:3882  if(kind == 3){... */\n      jump(tag_238)\n    tag_236:\n        /* \"wwcc-contracts/contracts/wwccPool.sol\":3769:3770  1 */\n      0x01\n        /* \"wwcc-contracts/contracts/wwccPool.sol\":3761:3765  kind */\n      dup7\n        /* \"wwcc-contracts/contracts/wwccPool.sol\":3761:3770  kind == 1 */\n      eq\n        /* \"wwcc-contracts/contracts/wwccPool.sol\":3757:3882  if (kind == 1){... */\n      iszero\n      tag_239\n      jumpi\n        /* \"wwcc-contracts/contracts/wwccPool.sol\":3803:3809  weight */\n      dup10\n        /* \"wwcc-contracts/contracts/wwccPool.sol\":3789:3793  pool */\n      dup5\n        /* \"wwcc-contracts/contracts/wwccPool.sol\":3789:3799  pool.dPool */\n      0x80\n      add\n        /* \"wwcc-contracts/contracts/wwccPool.sol\":3789:3809  pool.dPool += weight */\n      dup2\n      dup2\n      mload\n      tag_240\n      swap2\n      swap1\n      tag_17\n      jump\t// in\n    tag_240:\n      swap2\n      pop\n      dup2\n      dup2\n      mstore\n      pop\n      pop\n        /* \"wwcc-contracts/contracts/wwccPool.sol\":3757:3882  if (kind == 1){... */\n      jump(tag_241)\n    tag_239:\n        /* \"wwcc-contracts/contracts/wwccPool.sol\":3861:3867  weight */\n      dup10\n        /* \"wwcc-contracts/contracts/wwccPool.sol\":3847:3851  pool */\n      dup5\n        /* \"wwcc-contracts/contracts/wwccPool.sol\":3847:3857  pool.lPool */\n      0xa0\n      add\n        /* \"wwcc-contracts/contracts/wwccPool.sol\":3847:3867  pool.lPool += weight */\n      dup2\n      dup2\n      mload\n      tag_242\n      swap2\n      swap1\n      tag_17\n      jump\t// in\n    tag_242:\n      swap2\n      pop\n      dup2\n      dup2\n      mstore\n      pop\n      pop\n        /* \"wwcc-contracts/contracts/wwccPool.sol\":3757:3882  if (kind == 1){... */\n    tag_241:\n        /* \"wwcc-contracts/contracts/wwccPool.sol\":3686:3882  if(kind == 3){... */\n    tag_238:\n        /* \"wwcc-contracts/contracts/wwccPool.sol\":3550:3882  if (kind == 2){... */\n    tag_235:\n        /* \"wwcc-contracts/contracts/wwccPool.sol\":3917:3923  weight */\n      dup10\n        /* \"wwcc-contracts/contracts/wwccPool.sol\":3895:3905  voteAmount */\n      0x05\n        /* \"wwcc-contracts/contracts/wwccPool.sol\":3895:3913  voteAmount[joiner] */\n      0x00\n        /* \"wwcc-contracts/contracts/wwccPool.sol\":3906:3912  joiner */\n      dup14\n        /* \"wwcc-contracts/contracts/wwccPool.sol\":3895:3913  voteAmount[joiner] */\n      0xffffffffffffffffffffffffffffffffffffffff\n      and\n      0xffffffffffffffffffffffffffffffffffffffff\n      and\n      dup2\n      mstore\n      0x20\n      add\n      swap1\n      dup2\n      mstore\n      0x20\n      add\n      0x00\n      keccak256\n      0x00\n        /* \"wwcc-contracts/contracts/wwccPool.sol\":3895:3923  voteAmount[joiner] -= weight */\n      dup3\n      dup3\n      sload\n      tag_243\n      swap2\n      swap1\n      tag_143\n      jump\t// in\n    tag_243:\n      swap3\n      pop\n      pop\n      dup2\n      swap1\n      sstore\n      pop\n        /* \"wwcc-contracts/contracts/wwccPool.sol\":2867:3945  {... */\n      pop\n      pop\n      pop\n      pop\n        /* \"wwcc-contracts/contracts/wwccPool.sol\":3960:3964  true */\n      0x01\n        /* \"wwcc-contracts/contracts/wwccPool.sol\":3953:3964  return true */\n      swap1\n      pop\n        /* \"wwcc-contracts/contracts/wwccPool.sol\":2633:3971  function Picking(address joiner,uint256 weight,bytes32 poolKey,uint256 homeScore,uint256 visitScore,uint256 kind) external onlyManager returns(bool){... */\n      swap7\n      swap6\n      pop\n      pop\n      pop\n      pop\n      pop\n      pop\n      jump\t// out\n        /* \"wwcc-contracts/contracts/wwccPool.sol\":6010:9467  function Award(bytes32 poolKey,uint256 homeScore,uint256 visitScore,uint256 result)  external onlyManager  payable returns(bool){... */\n    tag_60:\n        /* \"wwcc-contracts/contracts/wwccPool.sol\":6133:6137  bool */\n      0x00\n        /* \"wwcc-contracts/contracts/wwccPool.sol\":12019:12024  owner */\n      dup1\n      0x00\n      swap1\n      sload\n      swap1\n      0x0100\n      exp\n      swap1\n      div\n      0xffffffffffffffffffffffffffffffffffffffff\n      and\n        /* \"wwcc-contracts/contracts/wwccPool.sol\":12005:12024  msg.sender == owner */\n      0xffffffffffffffffffffffffffffffffffffffff\n      and\n        /* \"wwcc-contracts/contracts/wwccPool.sol\":12005:12015  msg.sender */\n      caller\n        /* \"wwcc-contracts/contracts/wwccPool.sol\":12005:12024  msg.sender == owner */\n      0xffffffffffffffffffffffffffffffffffffffff\n      and\n      eq\n        /* \"wwcc-contracts/contracts/wwccPool.sol\":11984:12075  require(... */\n      tag_245\n      jumpi\n      mload(0x40)\n      0x08c379a000000000000000000000000000000000000000000000000000000000\n      dup2\n      mstore\n      0x04\n      add\n      tag_246\n      swap1\n      tag_76\n      jump\t// in\n    tag_246:\n      mload(0x40)\n      dup1\n      swap2\n      sub\n      swap1\n      revert\n    tag_245:\n        /* \"wwcc-contracts/contracts/wwccPool.sol\":6152:6169  contains(poolKey) */\n      tag_248\n        /* \"wwcc-contracts/contracts/wwccPool.sol\":6161:6168  poolKey */\n      dup6\n        /* \"wwcc-contracts/contracts/wwccPool.sol\":6152:6160  contains */\n      tag_79\n        /* \"wwcc-contracts/contracts/wwccPool.sol\":6152:6169  contains(poolKey) */\n      jump\t// in\n    tag_248:\n        /* \"wwcc-contracts/contracts/wwccPool.sol\":6148:9441  if(!contains(poolKey)) { ... */\n      tag_249\n      jumpi\n        /* \"wwcc-contracts/contracts/wwccPool.sol\":6186:6210  revert(\"pool not exist\") */\n      mload(0x40)\n      0x08c379a000000000000000000000000000000000000000000000000000000000\n      dup2\n      mstore\n      0x04\n      add\n      tag_250\n      swap1\n      tag_82\n      jump\t// in\n    tag_250:\n      mload(0x40)\n      dup1\n      swap2\n      sub\n      swap1\n      revert\n        /* \"wwcc-contracts/contracts/wwccPool.sol\":6148:9441  if(!contains(poolKey)) { ... */\n    tag_249:\n        /* \"wwcc-contracts/contracts/wwccPool.sol\":6237:6255  WcPool memory pool */\n      0x00\n        /* \"wwcc-contracts/contracts/wwccPool.sol\":6258:6265  WcPools */\n      0x06\n        /* \"wwcc-contracts/contracts/wwccPool.sol\":6258:6274  WcPools[poolKey] */\n      0x00\n        /* \"wwcc-contracts/contracts/wwccPool.sol\":6266:6273  poolKey */\n      dup8\n        /* \"wwcc-contracts/contracts/wwccPool.sol\":6258:6274  WcPools[poolKey] */\n      dup2\n      mstore\n      0x20\n      add\n      swap1\n      dup2\n      mstore\n      0x20\n      add\n      0x00\n      keccak256\n        /* \"wwcc-contracts/contracts/wwccPool.sol\":6237:6274  WcPool memory pool = WcPools[poolKey] */\n      mload(0x40)\n      dup1\n      0x0160\n      add\n      0x40\n      mstore\n      swap1\n      dup2\n      0x00\n      dup3\n      add\n      dup1\n      sload\n      tag_252\n      swap1\n      tag_85\n      jump\t// in\n    tag_252:\n      dup1\n      0x1f\n      add\n      0x20\n      dup1\n      swap2\n      div\n      mul\n      0x20\n      add\n      mload(0x40)\n      swap1\n      dup2\n      add\n      0x40\n      mstore\n      dup1\n      swap3\n      swap2\n      swap1\n      dup2\n      dup2\n      mstore\n      0x20\n      add\n      dup3\n      dup1\n      sload\n      tag_253\n      swap1\n      tag_85\n      jump\t// in\n    tag_253:\n      dup1\n      iszero\n      tag_254\n      jumpi\n      dup1\n      0x1f\n      lt\n      tag_255\n      jumpi\n      0x0100\n      dup1\n      dup4\n      sload\n      div\n      mul\n      dup4\n      mstore\n      swap2\n      0x20\n      add\n      swap2\n      jump(tag_254)\n    tag_255:\n      dup3\n      add\n      swap2\n      swap1\n      0x00\n      mstore\n      keccak256(0x00, 0x20)\n      swap1\n    tag_256:\n      dup2\n      sload\n      dup2\n      mstore\n      swap1\n      0x01\n      add\n      swap1\n      0x20\n      add\n      dup1\n      dup4\n      gt\n      tag_256\n      jumpi\n      dup3\n      swap1\n      sub\n      0x1f\n      and\n      dup3\n      add\n      swap2\n    tag_254:\n      pop\n      pop\n      pop\n      pop\n      pop\n      dup2\n      mstore\n      0x20\n      add\n      0x01\n      dup3\n      add\n      dup1\n      sload\n      tag_257\n      swap1\n      tag_85\n      jump\t// in\n    tag_257:\n      dup1\n      0x1f\n      add\n      0x20\n      dup1\n      swap2\n      div\n      mul\n      0x20\n      add\n      mload(0x40)\n      swap1\n      dup2\n      add\n      0x40\n      mstore\n      dup1\n      swap3\n      swap2\n      swap1\n      dup2\n      dup2\n      mstore\n      0x20\n      add\n      dup3\n      dup1\n      sload\n      tag_258\n      swap1\n      tag_85\n      jump\t// in\n    tag_258:\n      dup1\n      iszero\n      tag_259\n      jumpi\n      dup1\n      0x1f\n      lt\n      tag_260\n      jumpi\n      0x0100\n      dup1\n      dup4\n      sload\n      div\n      mul\n      dup4\n      mstore\n      swap2\n      0x20\n      add\n      swap2\n      jump(tag_259)\n    tag_260:\n      dup3\n      add\n      swap2\n      swap1\n      0x00\n      mstore\n      keccak256(0x00, 0x20)\n      swap1\n    tag_261:\n      dup2\n      sload\n      dup2\n      mstore\n      swap1\n      0x01\n      add\n      swap1\n      0x20\n      add\n      dup1\n      dup4\n      gt\n      tag_261\n      jumpi\n      dup3\n      swap1\n      sub\n      0x1f\n      and\n      dup3\n      add\n      swap2\n    tag_259:\n      pop\n      pop\n      pop\n      pop\n      pop\n      dup2\n      mstore\n      0x20\n      add\n      0x02\n      dup3\n      add\n      dup1\n      sload\n      tag_262\n      swap1\n      tag_85\n      jump\t// in\n    tag_262:\n      dup1\n      0x1f\n      add\n      0x20\n      dup1\n      swap2\n      div\n      mul\n      0x20\n      add\n      mload(0x40)\n      swap1\n      dup2\n      add\n      0x40\n      mstore\n      dup1\n      swap3\n      swap2\n      swap1\n      dup2\n      dup2\n      mstore\n      0x20\n      add\n      dup3\n      dup1\n      sload\n      tag_263\n      swap1\n      tag_85\n      jump\t// in\n    tag_263:\n      dup1\n      iszero\n      tag_264\n      jumpi\n      dup1\n      0x1f\n      lt\n      tag_265\n      jumpi\n      0x0100\n      dup1\n      dup4\n      sload\n      div\n      mul\n      dup4\n      mstore\n      swap2\n      0x20\n      add\n      swap2\n      jump(tag_264)\n    tag_265:\n      dup3\n      add\n      swap2\n      swap1\n      0x00\n      mstore\n      keccak256(0x00, 0x20)\n      swap1\n    tag_266:\n      dup2\n      sload\n      dup2\n      mstore\n      swap1\n      0x01\n      add\n      swap1\n      0x20\n      add\n      dup1\n      dup4\n      gt\n      tag_266\n      jumpi\n      dup3\n      swap1\n      sub\n      0x1f\n      and\n      dup3\n      add\n      swap2\n    tag_264:\n      pop\n      pop\n      pop\n      pop\n      pop\n      dup2\n      mstore\n      0x20\n      add\n      0x03\n      dup3\n      add\n      sload\n      dup2\n      mstore\n      0x20\n      add\n      0x04\n      dup3\n      add\n      sload\n      dup2\n      mstore\n      0x20\n      add\n      0x05\n      dup3\n      add\n      sload\n      dup2\n      mstore\n      0x20\n      add\n      0x06\n      dup3\n      add\n      sload\n      dup2\n      mstore\n      0x20\n      add\n      0x07\n      dup3\n      add\n      sload\n      dup2\n      mstore\n      0x20\n      add\n      0x08\n      dup3\n      add\n      0x00\n      swap1\n      sload\n      swap1\n      0x0100\n      exp\n      swap1\n      div\n      0xff\n      and\n      iszero\n      iszero\n      iszero\n      iszero\n      dup2\n      mstore\n      0x20\n      add\n      0x08\n      dup3\n      add\n      0x01\n      swap1\n      sload\n      swap1\n      0x0100\n      exp\n      swap1\n      div\n      0xff\n      and\n      iszero\n      iszero\n      iszero\n      iszero\n      dup2\n      mstore\n      0x20\n      add\n      0x08\n      dup3\n      add\n      0x02\n      swap1\n      sload\n      swap1\n      0x0100\n      exp\n      swap1\n      div\n      0xff\n      and\n      iszero\n      iszero\n      iszero\n      iszero\n      dup2\n      mstore\n      pop\n      pop\n      swap1\n      pop\n        /* \"wwcc-contracts/contracts/wwccPool.sol\":6305:6309  true */\n      0x01\n        /* \"wwcc-contracts/contracts/wwccPool.sol\":6291:6295  pool */\n      dup2\n        /* \"wwcc-contracts/contracts/wwccPool.sol\":6291:6304  pool.finished */\n      0x0140\n      add\n        /* \"wwcc-contracts/contracts/wwccPool.sol\":6291:6309  pool.finished=true */\n      swap1\n      iszero\n      iszero\n      swap1\n      dup2\n      iszero\n      iszero\n      dup2\n      mstore\n      pop\n        /* \"wwcc-contracts/contracts/wwccPool.sol\":6287:6368  if (pool.finished=true){... */\n      iszero\n      tag_267\n      jumpi\n        /* \"wwcc-contracts/contracts/wwccPool.sol\":6327:6354  revert(\"pool has finished\") */\n      mload(0x40)\n      0x08c379a000000000000000000000000000000000000000000000000000000000\n      dup2\n      mstore\n      0x04\n      add\n      tag_268\n      swap1\n      tag_269\n      jump\t// in\n    tag_268:\n      mload(0x40)\n      dup1\n      swap2\n      sub\n      swap1\n      revert\n        /* \"wwcc-contracts/contracts/wwccPool.sol\":6287:6368  if (pool.finished=true){... */\n    tag_267:\n        /* \"wwcc-contracts/contracts/wwccPool.sol\":6380:6415  JoinerPicking[] memory separateBets */\n      0x00\n        /* \"wwcc-contracts/contracts/wwccPool.sol\":6418:6434  allScorePoolInfo */\n      0x02\n        /* \"wwcc-contracts/contracts/wwccPool.sol\":6418:6443  allScorePoolInfo[poolKey] */\n      0x00\n        /* \"wwcc-contracts/contracts/wwccPool.sol\":6435:6442  poolKey */\n      dup9\n        /* \"wwcc-contracts/contracts/wwccPool.sol\":6418:6443  allScorePoolInfo[poolKey] */\n      dup2\n      mstore\n      0x20\n      add\n      swap1\n      dup2\n      mstore\n      0x20\n      add\n      0x00\n      keccak256\n        /* \"wwcc-contracts/contracts/wwccPool.sol\":6418:6455  allScorePoolInfo[poolKey].separateBet */\n      0x00\n      add\n        /* \"wwcc-contracts/contracts/wwccPool.sol\":6380:6455  JoinerPicking[] memory separateBets = allScorePoolInfo[poolKey].separateBet */\n      dup1\n      sload\n      dup1\n      0x20\n      mul\n      0x20\n      add\n      mload(0x40)\n      swap1\n      dup2\n      add\n      0x40\n      mstore\n      dup1\n      swap3\n      swap2\n      swap1\n      dup2\n      dup2\n      mstore\n      0x20\n      add\n      0x00\n      swap1\n    tag_270:\n      dup3\n      dup3\n      lt\n      iszero\n      tag_271\n      jumpi\n      dup4\n      dup3\n      swap1\n      0x00\n      mstore\n      keccak256(0x00, 0x20)\n      swap1\n      0x07\n      mul\n      add\n      mload(0x40)\n      dup1\n      0xe0\n      add\n      0x40\n      mstore\n      swap1\n      dup2\n      0x00\n      dup3\n      add\n      sload\n      dup2\n      mstore\n      0x20\n      add\n      0x01\n      dup3\n      add\n      sload\n      dup2\n      mstore\n      0x20\n      add\n      0x02\n      dup3\n      add\n      sload\n      dup2\n      mstore\n      0x20\n      add\n      0x03\n      dup3\n      add\n      sload\n      dup2\n      mstore\n      0x20\n      add\n      0x04\n      dup3\n      add\n      0x00\n      swap1\n      sload\n      swap1\n      0x0100\n      exp\n      swap1\n      div\n      0xffffffffffffffffffffffffffffffffffffffff\n      and\n      0xffffffffffffffffffffffffffffffffffffffff\n      and\n      0xffffffffffffffffffffffffffffffffffffffff\n      and\n      dup2\n      mstore\n      0x20\n      add\n      0x05\n      dup3\n      add\n      dup1\n      sload\n      tag_273\n      swap1\n      tag_85\n      jump\t// in\n    tag_273:\n      dup1\n      0x1f\n      add\n      0x20\n      dup1\n      swap2\n      div\n      mul\n      0x20\n      add\n      mload(0x40)\n      swap1\n      dup2\n      add\n      0x40\n      mstore\n      dup1\n      swap3\n      swap2\n      swap1\n      dup2\n      dup2\n      mstore\n      0x20\n      add\n      dup3\n      dup1\n      sload\n      tag_274\n      swap1\n      tag_85\n      jump\t// in\n    tag_274:\n      dup1\n      iszero\n      tag_275\n      jumpi\n      dup1\n      0x1f\n      lt\n      tag_276\n      jumpi\n      0x0100\n      dup1\n      dup4\n      sload\n      div\n      mul\n      dup4\n      mstore\n      swap2\n      0x20\n      add\n      swap2\n      jump(tag_275)\n    tag_276:\n      dup3\n      add\n      swap2\n      swap1\n      0x00\n      mstore\n      keccak256(0x00, 0x20)\n      swap1\n    tag_277:\n      dup2\n      sload\n      dup2\n      mstore\n      swap1\n      0x01\n      add\n      swap1\n      0x20\n      add\n      dup1\n      dup4\n      gt\n      tag_277\n      jumpi\n      dup3\n      swap1\n      sub\n      0x1f\n      and\n      dup3\n      add\n      swap2\n    tag_275:\n      pop\n      pop\n      pop\n      pop\n      pop\n      dup2\n      mstore\n      0x20\n      add\n      0x06\n      dup3\n      add\n      0x00\n      swap1\n      sload\n      swap1\n      0x0100\n      exp\n      swap1\n      div\n      0xff\n      and\n      iszero\n      iszero\n      iszero\n      iszero\n      dup2\n      mstore\n      pop\n      pop\n      dup2\n      mstore\n      0x20\n      add\n      swap1\n      0x01\n      add\n      swap1\n      jump(tag_270)\n    tag_271:\n      pop\n      pop\n      pop\n      pop\n      swap1\n      pop\n        /* \"wwcc-contracts/contracts/wwccPool.sol\":6468:6491  uint256 allRewardAmount */\n      0x00\n        /* \"wwcc-contracts/contracts/wwccPool.sol\":6525:6600  (pool.sPool + pool.wPool+pool.lPool+pool.dPool + pool.basal.div(2)).div(20) */\n      tag_278\n        /* \"wwcc-contracts/contracts/wwccPool.sol\":6597:6599  20 */\n      0x14\n        /* \"wwcc-contracts/contracts/wwccPool.sol\":6574:6591  pool.basal.div(2) */\n      tag_279\n        /* \"wwcc-contracts/contracts/wwccPool.sol\":6589:6590  2 */\n      0x02\n        /* \"wwcc-contracts/contracts/wwccPool.sol\":6574:6578  pool */\n      dup7\n        /* \"wwcc-contracts/contracts/wwccPool.sol\":6574:6584  pool.basal */\n      0xe0\n      add\n      mload\n        /* \"wwcc-contracts/contracts/wwccPool.sol\":6574:6588  pool.basal.div */\n      tag_105\n      swap1\n        /* \"wwcc-contracts/contracts/wwccPool.sol\":6574:6591  pool.basal.div(2) */\n      swap2\n      swap1\n      0xffffffff\n      and\n      jump\t// in\n    tag_279:\n        /* \"wwcc-contracts/contracts/wwccPool.sol\":6561:6565  pool */\n      dup6\n        /* \"wwcc-contracts/contracts/wwccPool.sol\":6561:6571  pool.dPool */\n      0x80\n      add\n      mload\n        /* \"wwcc-contracts/contracts/wwccPool.sol\":6550:6554  pool */\n      dup7\n        /* \"wwcc-contracts/contracts/wwccPool.sol\":6550:6560  pool.lPool */\n      0xa0\n      add\n      mload\n        /* \"wwcc-contracts/contracts/wwccPool.sol\":6539:6543  pool */\n      dup8\n        /* \"wwcc-contracts/contracts/wwccPool.sol\":6539:6549  pool.wPool */\n      0x60\n      add\n      mload\n        /* \"wwcc-contracts/contracts/wwccPool.sol\":6526:6530  pool */\n      dup9\n        /* \"wwcc-contracts/contracts/wwccPool.sol\":6526:6536  pool.sPool */\n      0xc0\n      add\n      mload\n        /* \"wwcc-contracts/contracts/wwccPool.sol\":6526:6549  pool.sPool + pool.wPool */\n      tag_280\n      swap2\n      swap1\n      tag_17\n      jump\t// in\n    tag_280:\n        /* \"wwcc-contracts/contracts/wwccPool.sol\":6526:6560  pool.sPool + pool.wPool+pool.lPool */\n      tag_281\n      swap2\n      swap1\n      tag_17\n      jump\t// in\n    tag_281:\n        /* \"wwcc-contracts/contracts/wwccPool.sol\":6526:6571  pool.sPool + pool.wPool+pool.lPool+pool.dPool */\n      tag_282\n      swap2\n      swap1\n      tag_17\n      jump\t// in\n    tag_282:\n        /* \"wwcc-contracts/contracts/wwccPool.sol\":6526:6591  pool.sPool + pool.wPool+pool.lPool+pool.dPool + pool.basal.div(2) */\n      tag_283\n      swap2\n      swap1\n      tag_17\n      jump\t// in\n    tag_283:\n        /* \"wwcc-contracts/contracts/wwccPool.sol\":6525:6596  (pool.sPool + pool.wPool+pool.lPool+pool.dPool + pool.basal.div(2)).div */\n      tag_105\n      swap1\n        /* \"wwcc-contracts/contracts/wwccPool.sol\":6525:6600  (pool.sPool + pool.wPool+pool.lPool+pool.dPool + pool.basal.div(2)).div(20) */\n      swap2\n      swap1\n      0xffffffff\n      and\n      jump\t// in\n    tag_278:\n        /* \"wwcc-contracts/contracts/wwccPool.sol\":6508:6521  nextBasalLast */\n      0x07\n      0x00\n        /* \"wwcc-contracts/contracts/wwccPool.sol\":6508:6600  nextBasalLast += (pool.sPool + pool.wPool+pool.lPool+pool.dPool + pool.basal.div(2)).div(20) */\n      dup3\n      dup3\n      sload\n      tag_284\n      swap2\n      swap1\n      tag_17\n      jump\t// in\n    tag_284:\n      swap3\n      pop\n      pop\n      dup2\n      swap1\n      sstore\n      pop\n        /* \"wwcc-contracts/contracts/wwccPool.sol\":6774:6780  uint j */\n      0x00\n        /* \"wwcc-contracts/contracts/wwccPool.sol\":6752:9269  for (... */\n    tag_285:\n        /* \"wwcc-contracts/contracts/wwccPool.sol\":6827:6828  1 */\n      0x01\n        /* \"wwcc-contracts/contracts/wwccPool.sol\":6807:6819  separateBets */\n      dup4\n        /* \"wwcc-contracts/contracts/wwccPool.sol\":6807:6826  separateBets.length */\n      mload\n        /* \"wwcc-contracts/contracts/wwccPool.sol\":6807:6828  separateBets.length-1 */\n      tag_288\n      swap2\n      swap1\n      tag_143\n      jump\t// in\n    tag_288:\n        /* \"wwcc-contracts/contracts/wwccPool.sol\":6802:6803  j */\n      dup2\n        /* \"wwcc-contracts/contracts/wwccPool.sol\":6802:6828  j <= separateBets.length-1 */\n      gt\n        /* \"wwcc-contracts/contracts/wwccPool.sol\":6752:9269  for (... */\n      tag_286\n      jumpi\n        /* \"wwcc-contracts/contracts/wwccPool.sol\":6918:6923  false */\n      0x00\n        /* \"wwcc-contracts/contracts/wwccPool.sol\":6891:6903  separateBets */\n      dup4\n        /* \"wwcc-contracts/contracts/wwccPool.sol\":6904:6905  j */\n      dup3\n        /* \"wwcc-contracts/contracts/wwccPool.sol\":6891:6906  separateBets[j] */\n      dup2\n      mload\n      dup2\n      lt\n      tag_289\n      jumpi\n      tag_290\n      tag_291\n      jump\t// in\n    tag_290:\n    tag_289:\n      0x20\n      mul\n      0x20\n      add\n      add\n      mload\n        /* \"wwcc-contracts/contracts/wwccPool.sol\":6891:6915  separateBets[j].finished */\n      0xc0\n      add\n        /* \"wwcc-contracts/contracts/wwccPool.sol\":6891:6923  separateBets[j].finished = false */\n      swap1\n      iszero\n      iszero\n      swap1\n      dup2\n      iszero\n      iszero\n      dup2\n      mstore\n      pop\n        /* \"wwcc-contracts/contracts/wwccPool.sol\":6888:9249  if(separateBets[j].finished = false){... */\n      iszero\n      tag_292\n      jumpi\n        /* \"wwcc-contracts/contracts/wwccPool.sol\":6973:6974  2 */\n      0x02\n        /* \"wwcc-contracts/contracts/wwccPool.sol\":6951:6963  separateBets */\n      dup4\n        /* \"wwcc-contracts/contracts/wwccPool.sol\":6964:6965  j */\n      dup3\n        /* \"wwcc-contracts/contracts/wwccPool.sol\":6951:6966  separateBets[j] */\n      dup2\n      mload\n      dup2\n      lt\n      tag_293\n      jumpi\n      tag_294\n      tag_291\n      jump\t// in\n    tag_294:\n    tag_293:\n      0x20\n      mul\n      0x20\n      add\n      add\n      mload\n        /* \"wwcc-contracts/contracts/wwccPool.sol\":6951:6971  separateBets[j].kind */\n      0x20\n      add\n      mload\n        /* \"wwcc-contracts/contracts/wwccPool.sol\":6951:6974  separateBets[j].kind==2 */\n      eq\n        /* \"wwcc-contracts/contracts/wwccPool.sol\":6948:9229  if(separateBets[j].kind==2){... */\n      iszero\n      tag_295\n      jumpi\n        /* \"wwcc-contracts/contracts/wwccPool.sol\":7021:7070  (pool.sPool + pool.basal.div(2)).mul(85).div(100) */\n      tag_296\n        /* \"wwcc-contracts/contracts/wwccPool.sol\":7066:7069  100 */\n      0x64\n        /* \"wwcc-contracts/contracts/wwccPool.sol\":7021:7061  (pool.sPool + pool.basal.div(2)).mul(85) */\n      tag_297\n        /* \"wwcc-contracts/contracts/wwccPool.sol\":7058:7060  85 */\n      0x55\n        /* \"wwcc-contracts/contracts/wwccPool.sol\":7035:7052  pool.basal.div(2) */\n      tag_298\n        /* \"wwcc-contracts/contracts/wwccPool.sol\":7050:7051  2 */\n      0x02\n        /* \"wwcc-contracts/contracts/wwccPool.sol\":7035:7039  pool */\n      dup10\n        /* \"wwcc-contracts/contracts/wwccPool.sol\":7035:7045  pool.basal */\n      0xe0\n      add\n      mload\n        /* \"wwcc-contracts/contracts/wwccPool.sol\":7035:7049  pool.basal.div */\n      tag_105\n      swap1\n        /* \"wwcc-contracts/contracts/wwccPool.sol\":7035:7052  pool.basal.div(2) */\n      swap2\n      swap1\n      0xffffffff\n      and\n      jump\t// in\n    tag_298:\n        /* \"wwcc-contracts/contracts/wwccPool.sol\":7022:7026  pool */\n      dup9\n        /* \"wwcc-contracts/contracts/wwccPool.sol\":7022:7032  pool.sPool */\n      0xc0\n      add\n      mload\n        /* \"wwcc-contracts/contracts/wwccPool.sol\":7022:7052  pool.sPool + pool.basal.div(2) */\n      tag_299\n      swap2\n      swap1\n      tag_17\n      jump\t// in\n    tag_299:\n        /* \"wwcc-contracts/contracts/wwccPool.sol\":7021:7057  (pool.sPool + pool.basal.div(2)).mul */\n      tag_300\n      swap1\n        /* \"wwcc-contracts/contracts/wwccPool.sol\":7021:7061  (pool.sPool + pool.basal.div(2)).mul(85) */\n      swap2\n      swap1\n      0xffffffff\n      and\n      jump\t// in\n    tag_297:\n        /* \"wwcc-contracts/contracts/wwccPool.sol\":7021:7065  (pool.sPool + pool.basal.div(2)).mul(85).div */\n      tag_105\n      swap1\n        /* \"wwcc-contracts/contracts/wwccPool.sol\":7021:7070  (pool.sPool + pool.basal.div(2)).mul(85).div(100) */\n      swap2\n      swap1\n      0xffffffff\n      and\n      jump\t// in\n    tag_296:\n        /* \"wwcc-contracts/contracts/wwccPool.sol\":7003:7070  allRewardAmount = (pool.sPool + pool.basal.div(2)).mul(85).div(100) */\n      swap2\n      pop\n        /* \"wwcc-contracts/contracts/wwccPool.sol\":7125:7134  homeScore */\n      dup8\n        /* \"wwcc-contracts/contracts/wwccPool.sol\":7098:7110  separateBets */\n      dup4\n        /* \"wwcc-contracts/contracts/wwccPool.sol\":7111:7112  j */\n      dup3\n        /* \"wwcc-contracts/contracts/wwccPool.sol\":7098:7113  separateBets[j] */\n      dup2\n      mload\n      dup2\n      lt\n      tag_301\n      jumpi\n      tag_302\n      tag_291\n      jump\t// in\n    tag_302:\n    tag_301:\n      0x20\n      mul\n      0x20\n      add\n      add\n      mload\n        /* \"wwcc-contracts/contracts/wwccPool.sol\":7098:7123  separateBets[j].homeScore */\n      0x40\n      add\n      mload\n        /* \"wwcc-contracts/contracts/wwccPool.sol\":7098:7134  separateBets[j].homeScore==homeScore */\n      eq\n        /* \"wwcc-contracts/contracts/wwccPool.sol\":7098:7176  separateBets[j].homeScore==homeScore && separateBets[j].visitScore==visitScore */\n      dup1\n      iszero\n      tag_303\n      jumpi\n      pop\n        /* \"wwcc-contracts/contracts/wwccPool.sol\":7166:7176  visitScore */\n      dup7\n        /* \"wwcc-contracts/contracts/wwccPool.sol\":7138:7150  separateBets */\n      dup4\n        /* \"wwcc-contracts/contracts/wwccPool.sol\":7151:7152  j */\n      dup3\n        /* \"wwcc-contracts/contracts/wwccPool.sol\":7138:7153  separateBets[j] */\n      dup2\n      mload\n      dup2\n      lt\n      tag_304\n      jumpi\n      tag_305\n      tag_291\n      jump\t// in\n    tag_305:\n    tag_304:\n      0x20\n      mul\n      0x20\n      add\n      add\n      mload\n        /* \"wwcc-contracts/contracts/wwccPool.sol\":7138:7164  separateBets[j].visitScore */\n      0x60\n      add\n      mload\n        /* \"wwcc-contracts/contracts/wwccPool.sol\":7138:7176  separateBets[j].visitScore==visitScore */\n      eq\n        /* \"wwcc-contracts/contracts/wwccPool.sol\":7098:7176  separateBets[j].homeScore==homeScore && separateBets[j].visitScore==visitScore */\n    tag_303:\n        /* \"wwcc-contracts/contracts/wwccPool.sol\":7094:7892  if (separateBets[j].homeScore==homeScore && separateBets[j].visitScore==visitScore){... */\n      iszero\n      tag_306\n      jumpi\n        /* \"wwcc-contracts/contracts/wwccPool.sol\":7205:7234  uint256 singleScorePoolAmount */\n      0x00\n        /* \"wwcc-contracts/contracts/wwccPool.sol\":7237:7252  singleScorePool */\n      0x03\n        /* \"wwcc-contracts/contracts/wwccPool.sol\":7253:7265  separateBets */\n      dup5\n        /* \"wwcc-contracts/contracts/wwccPool.sol\":7266:7267  j */\n      dup4\n        /* \"wwcc-contracts/contracts/wwccPool.sol\":7253:7268  separateBets[j] */\n      dup2\n      mload\n      dup2\n      lt\n      tag_307\n      jumpi\n      tag_308\n      tag_291\n      jump\t// in\n    tag_308:\n    tag_307:\n      0x20\n      mul\n      0x20\n      add\n      add\n      mload\n        /* \"wwcc-contracts/contracts/wwccPool.sol\":7253:7279  separateBets[j].pickingKey */\n      0xa0\n      add\n      mload\n        /* \"wwcc-contracts/contracts/wwccPool.sol\":7237:7280  singleScorePool[separateBets[j].pickingKey] */\n      mload(0x40)\n      tag_309\n      swap2\n      swap1\n      tag_152\n      jump\t// in\n    tag_309:\n      swap1\n      dup2\n      mstore\n      0x20\n      add\n      mload(0x40)\n      dup1\n      swap2\n      sub\n      swap1\n      keccak256\n      sload\n        /* \"wwcc-contracts/contracts/wwccPool.sol\":7205:7280  uint256 singleScorePoolAmount = singleScorePool[separateBets[j].pickingKey] */\n      swap1\n      pop\n        /* \"wwcc-contracts/contracts/wwccPool.sol\":7308:7328  uint256 rewardAmount */\n      0x00\n        /* \"wwcc-contracts/contracts/wwccPool.sol\":7375:7396  singleScorePoolAmount */\n      dup2\n        /* \"wwcc-contracts/contracts/wwccPool.sol\":7349:7361  separateBets */\n      dup6\n        /* \"wwcc-contracts/contracts/wwccPool.sol\":7362:7363  j */\n      dup5\n        /* \"wwcc-contracts/contracts/wwccPool.sol\":7349:7364  separateBets[j] */\n      dup2\n      mload\n      dup2\n      lt\n      tag_310\n      jumpi\n      tag_311\n      tag_291\n      jump\t// in\n    tag_311:\n    tag_310:\n      0x20\n      mul\n      0x20\n      add\n      add\n      mload\n        /* \"wwcc-contracts/contracts/wwccPool.sol\":7349:7371  separateBets[j].weight */\n      0x00\n      add\n      mload\n        /* \"wwcc-contracts/contracts/wwccPool.sol\":7331:7346  allRewardAmount */\n      dup6\n        /* \"wwcc-contracts/contracts/wwccPool.sol\":7331:7371  allRewardAmount * separateBets[j].weight */\n      tag_312\n      swap2\n      swap1\n      tag_313\n      jump\t// in\n    tag_312:\n        /* \"wwcc-contracts/contracts/wwccPool.sol\":7331:7396  allRewardAmount * separateBets[j].weight /  singleScorePoolAmount */\n      tag_314\n      swap2\n      swap1\n      tag_315\n      jump\t// in\n    tag_314:\n        /* \"wwcc-contracts/contracts/wwccPool.sol\":7308:7396  uint256 rewardAmount = allRewardAmount * separateBets[j].weight /  singleScorePoolAmount */\n      swap1\n      pop\n        /* \"wwcc-contracts/contracts/wwccPool.sol\":7768:7780  rewardAmount */\n      dup1\n        /* \"wwcc-contracts/contracts/wwccPool.sol\":7730:7740  voteAmount */\n      0x05\n        /* \"wwcc-contracts/contracts/wwccPool.sol\":7730:7764  voteAmount[separateBets[j].joiner] */\n      0x00\n        /* \"wwcc-contracts/contracts/wwccPool.sol\":7741:7753  separateBets */\n      dup8\n        /* \"wwcc-contracts/contracts/wwccPool.sol\":7754:7755  j */\n      dup7\n        /* \"wwcc-contracts/contracts/wwccPool.sol\":7741:7756  separateBets[j] */\n      dup2\n      mload\n      dup2\n      lt\n      tag_316\n      jumpi\n      tag_317\n      tag_291\n      jump\t// in\n    tag_317:\n    tag_316:\n      0x20\n      mul\n      0x20\n      add\n      add\n      mload\n        /* \"wwcc-contracts/contracts/wwccPool.sol\":7741:7763  separateBets[j].joiner */\n      0x80\n      add\n      mload\n        /* \"wwcc-contracts/contracts/wwccPool.sol\":7730:7764  voteAmount[separateBets[j].joiner] */\n      0xffffffffffffffffffffffffffffffffffffffff\n      and\n      0xffffffffffffffffffffffffffffffffffffffff\n      and\n      dup2\n      mstore\n      0x20\n      add\n      swap1\n      dup2\n      mstore\n      0x20\n      add\n      0x00\n      keccak256\n      0x00\n        /* \"wwcc-contracts/contracts/wwccPool.sol\":7730:7780  voteAmount[separateBets[j].joiner] += rewardAmount */\n      dup3\n      dup3\n      sload\n      tag_318\n      swap2\n      swap1\n      tag_17\n      jump\t// in\n    tag_318:\n      swap3\n      pop\n      pop\n      dup2\n      swap1\n      sstore\n      pop\n        /* \"wwcc-contracts/contracts/wwccPool.sol\":7835:7839  true */\n      0x01\n        /* \"wwcc-contracts/contracts/wwccPool.sol\":7808:7820  separateBets */\n      dup6\n        /* \"wwcc-contracts/contracts/wwccPool.sol\":7821:7822  j */\n      dup5\n        /* \"wwcc-contracts/contracts/wwccPool.sol\":7808:7823  separateBets[j] */\n      dup2\n      mload\n      dup2\n      lt\n      tag_319\n      jumpi\n      tag_320\n      tag_291\n      jump\t// in\n    tag_320:\n    tag_319:\n      0x20\n      mul\n      0x20\n      add\n      add\n      mload\n        /* \"wwcc-contracts/contracts/wwccPool.sol\":7808:7832  separateBets[j].finished */\n      0xc0\n      add\n        /* \"wwcc-contracts/contracts/wwccPool.sol\":7808:7839  separateBets[j].finished = true */\n      swap1\n      iszero\n      iszero\n      swap1\n      dup2\n      iszero\n      iszero\n      dup2\n      mstore\n      pop\n      pop\n        /* \"wwcc-contracts/contracts/wwccPool.sol\":7177:7892  {... */\n      pop\n      pop\n        /* \"wwcc-contracts/contracts/wwccPool.sol\":7094:7892  if (separateBets[j].homeScore==homeScore && separateBets[j].visitScore==visitScore){... */\n    tag_306:\n        /* \"wwcc-contracts/contracts/wwccPool.sol\":6948:9229  if(separateBets[j].kind==2){... */\n      jump(tag_321)\n    tag_295:\n        /* \"wwcc-contracts/contracts/wwccPool.sol\":7967:7973  result */\n      dup6\n        /* \"wwcc-contracts/contracts/wwccPool.sol\":7945:7957  separateBets */\n      dup4\n        /* \"wwcc-contracts/contracts/wwccPool.sol\":7958:7959  j */\n      dup3\n        /* \"wwcc-contracts/contracts/wwccPool.sol\":7945:7960  separateBets[j] */\n      dup2\n      mload\n      dup2\n      lt\n      tag_322\n      jumpi\n      tag_323\n      tag_291\n      jump\t// in\n    tag_323:\n    tag_322:\n      0x20\n      mul\n      0x20\n      add\n      add\n      mload\n        /* \"wwcc-contracts/contracts/wwccPool.sol\":7945:7965  separateBets[j].kind */\n      0x20\n      add\n      mload\n        /* \"wwcc-contracts/contracts/wwccPool.sol\":7945:7973  separateBets[j].kind==result */\n      eq\n        /* \"wwcc-contracts/contracts/wwccPool.sol\":7942:9207  if(separateBets[j].kind==result){... */\n      iszero\n      tag_324\n      jumpi\n        /* \"wwcc-contracts/contracts/wwccPool.sol\":8020:8090  (pool.wPool+pool.lPool+pool.dPool+ pool.basal.div(2)).mul(85).div(100) */\n      tag_325\n        /* \"wwcc-contracts/contracts/wwccPool.sol\":8086:8089  100 */\n      0x64\n        /* \"wwcc-contracts/contracts/wwccPool.sol\":8020:8081  (pool.wPool+pool.lPool+pool.dPool+ pool.basal.div(2)).mul(85) */\n      tag_326\n        /* \"wwcc-contracts/contracts/wwccPool.sol\":8078:8080  85 */\n      0x55\n        /* \"wwcc-contracts/contracts/wwccPool.sol\":8055:8072  pool.basal.div(2) */\n      tag_327\n        /* \"wwcc-contracts/contracts/wwccPool.sol\":8070:8071  2 */\n      0x02\n        /* \"wwcc-contracts/contracts/wwccPool.sol\":8055:8059  pool */\n      dup10\n        /* \"wwcc-contracts/contracts/wwccPool.sol\":8055:8065  pool.basal */\n      0xe0\n      add\n      mload\n        /* \"wwcc-contracts/contracts/wwccPool.sol\":8055:8069  pool.basal.div */\n      tag_105\n      swap1\n        /* \"wwcc-contracts/contracts/wwccPool.sol\":8055:8072  pool.basal.div(2) */\n      swap2\n      swap1\n      0xffffffff\n      and\n      jump\t// in\n    tag_327:\n        /* \"wwcc-contracts/contracts/wwccPool.sol\":8043:8047  pool */\n      dup9\n        /* \"wwcc-contracts/contracts/wwccPool.sol\":8043:8053  pool.dPool */\n      0x80\n      add\n      mload\n        /* \"wwcc-contracts/contracts/wwccPool.sol\":8032:8036  pool */\n      dup10\n        /* \"wwcc-contracts/contracts/wwccPool.sol\":8032:8042  pool.lPool */\n      0xa0\n      add\n      mload\n        /* \"wwcc-contracts/contracts/wwccPool.sol\":8021:8025  pool */\n      dup11\n        /* \"wwcc-contracts/contracts/wwccPool.sol\":8021:8031  pool.wPool */\n      0x60\n      add\n      mload\n        /* \"wwcc-contracts/contracts/wwccPool.sol\":8021:8042  pool.wPool+pool.lPool */\n      tag_328\n      swap2\n      swap1\n      tag_17\n      jump\t// in\n    tag_328:\n        /* \"wwcc-contracts/contracts/wwccPool.sol\":8021:8053  pool.wPool+pool.lPool+pool.dPool */\n      tag_329\n      swap2\n      swap1\n      tag_17\n      jump\t// in\n    tag_329:\n        /* \"wwcc-contracts/contracts/wwccPool.sol\":8021:8072  pool.wPool+pool.lPool+pool.dPool+ pool.basal.div(2) */\n      tag_330\n      swap2\n      swap1\n      tag_17\n      jump\t// in\n    tag_330:\n        /* \"wwcc-contracts/contracts/wwccPool.sol\":8020:8077  (pool.wPool+pool.lPool+pool.dPool+ pool.basal.div(2)).mul */\n      tag_300\n      swap1\n        /* \"wwcc-contracts/contracts/wwccPool.sol\":8020:8081  (pool.wPool+pool.lPool+pool.dPool+ pool.basal.div(2)).mul(85) */\n      swap2\n      swap1\n      0xffffffff\n      and\n      jump\t// in\n    tag_326:\n        /* \"wwcc-contracts/contracts/wwccPool.sol\":8020:8085  (pool.wPool+pool.lPool+pool.dPool+ pool.basal.div(2)).mul(85).div */\n      tag_105\n      swap1\n        /* \"wwcc-contracts/contracts/wwccPool.sol\":8020:8090  (pool.wPool+pool.lPool+pool.dPool+ pool.basal.div(2)).mul(85).div(100) */\n      swap2\n      swap1\n      0xffffffff\n      and\n      jump\t// in\n    tag_325:\n        /* \"wwcc-contracts/contracts/wwccPool.sol\":8002:8090  allRewardAmount = (pool.wPool+pool.lPool+pool.dPool+ pool.basal.div(2)).mul(85).div(100) */\n      swap2\n      pop\n        /* \"wwcc-contracts/contracts/wwccPool.sol\":8118:8140  uint256 pickPoolAmount */\n      0x00\n        /* \"wwcc-contracts/contracts/wwccPool.sol\":8200:8201  0 */\n      dup1\n        /* \"wwcc-contracts/contracts/wwccPool.sol\":8176:8188  separateBets */\n      dup5\n        /* \"wwcc-contracts/contracts/wwccPool.sol\":8189:8190  j */\n      dup4\n        /* \"wwcc-contracts/contracts/wwccPool.sol\":8176:8191  separateBets[j] */\n      dup2\n      mload\n      dup2\n      lt\n      tag_331\n      jumpi\n      tag_332\n      tag_291\n      jump\t// in\n    tag_332:\n    tag_331:\n      0x20\n      mul\n      0x20\n      add\n      add\n      mload\n        /* \"wwcc-contracts/contracts/wwccPool.sol\":8176:8196  separateBets[j].kind */\n      0x20\n      add\n      mload\n        /* \"wwcc-contracts/contracts/wwccPool.sol\":8176:8201  separateBets[j].kind == 0 */\n      eq\n        /* \"wwcc-contracts/contracts/wwccPool.sol\":8172:8307  if (separateBets[j].kind == 0){... */\n      iszero\n      tag_333\n      jumpi\n        /* \"wwcc-contracts/contracts/wwccPool.sol\":8251:8278  pool.lPool.mul(85).div(100) */\n      tag_334\n        /* \"wwcc-contracts/contracts/wwccPool.sol\":8274:8277  100 */\n      0x64\n        /* \"wwcc-contracts/contracts/wwccPool.sol\":8251:8269  pool.lPool.mul(85) */\n      tag_335\n        /* \"wwcc-contracts/contracts/wwccPool.sol\":8266:8268  85 */\n      0x55\n        /* \"wwcc-contracts/contracts/wwccPool.sol\":8251:8255  pool */\n      dup9\n        /* \"wwcc-contracts/contracts/wwccPool.sol\":8251:8261  pool.lPool */\n      0xa0\n      add\n      mload\n        /* \"wwcc-contracts/contracts/wwccPool.sol\":8251:8265  pool.lPool.mul */\n      tag_300\n      swap1\n        /* \"wwcc-contracts/contracts/wwccPool.sol\":8251:8269  pool.lPool.mul(85) */\n      swap2\n      swap1\n      0xffffffff\n      and\n      jump\t// in\n    tag_335:\n        /* \"wwcc-contracts/contracts/wwccPool.sol\":8251:8273  pool.lPool.mul(85).div */\n      tag_105\n      swap1\n        /* \"wwcc-contracts/contracts/wwccPool.sol\":8251:8278  pool.lPool.mul(85).div(100) */\n      swap2\n      swap1\n      0xffffffff\n      and\n      jump\t// in\n    tag_334:\n        /* \"wwcc-contracts/contracts/wwccPool.sol\":8234:8278  pickPoolAmount = pool.lPool.mul(85).div(100) */\n      swap1\n      pop\n        /* \"wwcc-contracts/contracts/wwccPool.sol\":8172:8307  if (separateBets[j].kind == 0){... */\n    tag_333:\n        /* \"wwcc-contracts/contracts/wwccPool.sol\":8362:8363  1 */\n      0x01\n        /* \"wwcc-contracts/contracts/wwccPool.sol\":8338:8350  separateBets */\n      dup5\n        /* \"wwcc-contracts/contracts/wwccPool.sol\":8351:8352  j */\n      dup4\n        /* \"wwcc-contracts/contracts/wwccPool.sol\":8338:8353  separateBets[j] */\n      dup2\n      mload\n      dup2\n      lt\n      tag_336\n      jumpi\n      tag_337\n      tag_291\n      jump\t// in\n    tag_337:\n    tag_336:\n      0x20\n      mul\n      0x20\n      add\n      add\n      mload\n        /* \"wwcc-contracts/contracts/wwccPool.sol\":8338:8358  separateBets[j].kind */\n      0x20\n      add\n      mload\n        /* \"wwcc-contracts/contracts/wwccPool.sol\":8338:8363  separateBets[j].kind == 1 */\n      eq\n        /* \"wwcc-contracts/contracts/wwccPool.sol\":8334:8469  if (separateBets[j].kind == 1){... */\n      iszero\n      tag_338\n      jumpi\n        /* \"wwcc-contracts/contracts/wwccPool.sol\":8413:8440  pool.dPool.mul(85).div(100) */\n      tag_339\n        /* \"wwcc-contracts/contracts/wwccPool.sol\":8436:8439  100 */\n      0x64\n        /* \"wwcc-contracts/contracts/wwccPool.sol\":8413:8431  pool.dPool.mul(85) */\n      tag_340\n        /* \"wwcc-contracts/contracts/wwccPool.sol\":8428:8430  85 */\n      0x55\n        /* \"wwcc-contracts/contracts/wwccPool.sol\":8413:8417  pool */\n      dup9\n        /* \"wwcc-contracts/contracts/wwccPool.sol\":8413:8423  pool.dPool */\n      0x80\n      add\n      mload\n        /* \"wwcc-contracts/contracts/wwccPool.sol\":8413:8427  pool.dPool.mul */\n      tag_300\n      swap1\n        /* \"wwcc-contracts/contracts/wwccPool.sol\":8413:8431  pool.dPool.mul(85) */\n      swap2\n      swap1\n      0xffffffff\n      and\n      jump\t// in\n    tag_340:\n        /* \"wwcc-contracts/contracts/wwccPool.sol\":8413:8435  pool.dPool.mul(85).div */\n      tag_105\n      swap1\n        /* \"wwcc-contracts/contracts/wwccPool.sol\":8413:8440  pool.dPool.mul(85).div(100) */\n      swap2\n      swap1\n      0xffffffff\n      and\n      jump\t// in\n    tag_339:\n        /* \"wwcc-contracts/contracts/wwccPool.sol\":8396:8440  pickPoolAmount = pool.dPool.mul(85).div(100) */\n      swap1\n      pop\n        /* \"wwcc-contracts/contracts/wwccPool.sol\":8334:8469  if (separateBets[j].kind == 1){... */\n    tag_338:\n        /* \"wwcc-contracts/contracts/wwccPool.sol\":8524:8525  3 */\n      0x03\n        /* \"wwcc-contracts/contracts/wwccPool.sol\":8500:8512  separateBets */\n      dup5\n        /* \"wwcc-contracts/contracts/wwccPool.sol\":8513:8514  j */\n      dup4\n        /* \"wwcc-contracts/contracts/wwccPool.sol\":8500:8515  separateBets[j] */\n      dup2\n      mload\n      dup2\n      lt\n      tag_341\n      jumpi\n      tag_342\n      tag_291\n      jump\t// in\n    tag_342:\n    tag_341:\n      0x20\n      mul\n      0x20\n      add\n      add\n      mload\n        /* \"wwcc-contracts/contracts/wwccPool.sol\":8500:8520  separateBets[j].kind */\n      0x20\n      add\n      mload\n        /* \"wwcc-contracts/contracts/wwccPool.sol\":8500:8525  separateBets[j].kind == 3 */\n      eq\n        /* \"wwcc-contracts/contracts/wwccPool.sol\":8496:8631  if (separateBets[j].kind == 3){... */\n      iszero\n      tag_343\n      jumpi\n        /* \"wwcc-contracts/contracts/wwccPool.sol\":8575:8602  pool.wPool.mul(85).div(100) */\n      tag_344\n        /* \"wwcc-contracts/contracts/wwccPool.sol\":8598:8601  100 */\n      0x64\n        /* \"wwcc-contracts/contracts/wwccPool.sol\":8575:8593  pool.wPool.mul(85) */\n      tag_345\n        /* \"wwcc-contracts/contracts/wwccPool.sol\":8590:8592  85 */\n      0x55\n        /* \"wwcc-contracts/contracts/wwccPool.sol\":8575:8579  pool */\n      dup9\n        /* \"wwcc-contracts/contracts/wwccPool.sol\":8575:8585  pool.wPool */\n      0x60\n      add\n      mload\n        /* \"wwcc-contracts/contracts/wwccPool.sol\":8575:8589  pool.wPool.mul */\n      tag_300\n      swap1\n        /* \"wwcc-contracts/contracts/wwccPool.sol\":8575:8593  pool.wPool.mul(85) */\n      swap2\n      swap1\n      0xffffffff\n      and\n      jump\t// in\n    tag_345:\n        /* \"wwcc-contracts/contracts/wwccPool.sol\":8575:8597  pool.wPool.mul(85).div */\n      tag_105\n      swap1\n        /* \"wwcc-contracts/contracts/wwccPool.sol\":8575:8602  pool.wPool.mul(85).div(100) */\n      swap2\n      swap1\n      0xffffffff\n      and\n      jump\t// in\n    tag_344:\n        /* \"wwcc-contracts/contracts/wwccPool.sol\":8558:8602  pickPoolAmount = pool.wPool.mul(85).div(100) */\n      swap1\n      pop\n        /* \"wwcc-contracts/contracts/wwccPool.sol\":8496:8631  if (separateBets[j].kind == 3){... */\n    tag_343:\n        /* \"wwcc-contracts/contracts/wwccPool.sol\":8658:8678  uint256 rewardAmount */\n      0x00\n        /* \"wwcc-contracts/contracts/wwccPool.sol\":8725:8739  pickPoolAmount */\n      dup2\n        /* \"wwcc-contracts/contracts/wwccPool.sol\":8699:8711  separateBets */\n      dup6\n        /* \"wwcc-contracts/contracts/wwccPool.sol\":8712:8713  j */\n      dup5\n        /* \"wwcc-contracts/contracts/wwccPool.sol\":8699:8714  separateBets[j] */\n      dup2\n      mload\n      dup2\n      lt\n      tag_346\n      jumpi\n      tag_347\n      tag_291\n      jump\t// in\n    tag_347:\n    tag_346:\n      0x20\n      mul\n      0x20\n      add\n      add\n      mload\n        /* \"wwcc-contracts/contracts/wwccPool.sol\":8699:8721  separateBets[j].weight */\n      0x00\n      add\n      mload\n        /* \"wwcc-contracts/contracts/wwccPool.sol\":8681:8696  allRewardAmount */\n      dup6\n        /* \"wwcc-contracts/contracts/wwccPool.sol\":8681:8721  allRewardAmount * separateBets[j].weight */\n      tag_348\n      swap2\n      swap1\n      tag_313\n      jump\t// in\n    tag_348:\n        /* \"wwcc-contracts/contracts/wwccPool.sol\":8681:8739  allRewardAmount * separateBets[j].weight /  pickPoolAmount */\n      tag_349\n      swap2\n      swap1\n      tag_315\n      jump\t// in\n    tag_349:\n        /* \"wwcc-contracts/contracts/wwccPool.sol\":8658:8739  uint256 rewardAmount = allRewardAmount * separateBets[j].weight /  pickPoolAmount */\n      swap1\n      pop\n        /* \"wwcc-contracts/contracts/wwccPool.sol\":9111:9123  rewardAmount */\n      dup1\n        /* \"wwcc-contracts/contracts/wwccPool.sol\":9073:9083  voteAmount */\n      0x05\n        /* \"wwcc-contracts/contracts/wwccPool.sol\":9073:9107  voteAmount[separateBets[j].joiner] */\n      0x00\n        /* \"wwcc-contracts/contracts/wwccPool.sol\":9084:9096  separateBets */\n      dup8\n        /* \"wwcc-contracts/contracts/wwccPool.sol\":9097:9098  j */\n      dup7\n        /* \"wwcc-contracts/contracts/wwccPool.sol\":9084:9099  separateBets[j] */\n      dup2\n      mload\n      dup2\n      lt\n      tag_350\n      jumpi\n      tag_351\n      tag_291\n      jump\t// in\n    tag_351:\n    tag_350:\n      0x20\n      mul\n      0x20\n      add\n      add\n      mload\n        /* \"wwcc-contracts/contracts/wwccPool.sol\":9084:9106  separateBets[j].joiner */\n      0x80\n      add\n      mload\n        /* \"wwcc-contracts/contracts/wwccPool.sol\":9073:9107  voteAmount[separateBets[j].joiner] */\n      0xffffffffffffffffffffffffffffffffffffffff\n      and\n      0xffffffffffffffffffffffffffffffffffffffff\n      and\n      dup2\n      mstore\n      0x20\n      add\n      swap1\n      dup2\n      mstore\n      0x20\n      add\n      0x00\n      keccak256\n      0x00\n        /* \"wwcc-contracts/contracts/wwccPool.sol\":9073:9123  voteAmount[separateBets[j].joiner] += rewardAmount */\n      dup3\n      dup3\n      sload\n      tag_352\n      swap2\n      swap1\n      tag_17\n      jump\t// in\n    tag_352:\n      swap3\n      pop\n      pop\n      dup2\n      swap1\n      sstore\n      pop\n        /* \"wwcc-contracts/contracts/wwccPool.sol\":9178:9182  true */\n      0x01\n        /* \"wwcc-contracts/contracts/wwccPool.sol\":9151:9163  separateBets */\n      dup6\n        /* \"wwcc-contracts/contracts/wwccPool.sol\":9164:9165  j */\n      dup5\n        /* \"wwcc-contracts/contracts/wwccPool.sol\":9151:9166  separateBets[j] */\n      dup2\n      mload\n      dup2\n      lt\n      tag_353\n      jumpi\n      tag_354\n      tag_291\n      jump\t// in\n    tag_354:\n    tag_353:\n      0x20\n      mul\n      0x20\n      add\n      add\n      mload\n        /* \"wwcc-contracts/contracts/wwccPool.sol\":9151:9175  separateBets[j].finished */\n      0xc0\n      add\n        /* \"wwcc-contracts/contracts/wwccPool.sol\":9151:9182  separateBets[j].finished = true */\n      swap1\n      iszero\n      iszero\n      swap1\n      dup2\n      iszero\n      iszero\n      dup2\n      mstore\n      pop\n      pop\n        /* \"wwcc-contracts/contracts/wwccPool.sol\":7974:9207  {... */\n      pop\n      pop\n        /* \"wwcc-contracts/contracts/wwccPool.sol\":7942:9207  if(separateBets[j].kind==result){... */\n    tag_324:\n        /* \"wwcc-contracts/contracts/wwccPool.sol\":6948:9229  if(separateBets[j].kind==2){... */\n    tag_321:\n        /* \"wwcc-contracts/contracts/wwccPool.sol\":6888:9249  if(separateBets[j].finished = false){... */\n    tag_292:\n        /* \"wwcc-contracts/contracts/wwccPool.sol\":6846:6850  j ++ */\n      dup1\n      dup1\n      tag_355\n      swap1\n      tag_356\n      jump\t// in\n    tag_355:\n      swap2\n      pop\n      pop\n        /* \"wwcc-contracts/contracts/wwccPool.sol\":6752:9269  for (... */\n      jump(tag_285)\n    tag_286:\n      pop\n        /* \"wwcc-contracts/contracts/wwccPool.sol\":9302:9306  true */\n      0x01\n        /* \"wwcc-contracts/contracts/wwccPool.sol\":9286:9290  pool */\n      dup4\n        /* \"wwcc-contracts/contracts/wwccPool.sol\":9286:9299  pool.finished */\n      0x0140\n      add\n        /* \"wwcc-contracts/contracts/wwccPool.sol\":9286:9306  pool.finished = true */\n      swap1\n      iszero\n      iszero\n      swap1\n      dup2\n      iszero\n      iszero\n      dup2\n      mstore\n      pop\n      pop\n        /* \"wwcc-contracts/contracts/wwccPool.sol\":6224:9441  {... */\n      pop\n      pop\n      pop\n        /* \"wwcc-contracts/contracts/wwccPool.sol\":9456:9460  true */\n      0x01\n        /* \"wwcc-contracts/contracts/wwccPool.sol\":9449:9460  return true */\n      swap1\n      pop\n        /* \"wwcc-contracts/contracts/wwccPool.sol\":6010:9467  function Award(bytes32 poolKey,uint256 homeScore,uint256 visitScore,uint256 result)  external onlyManager  payable returns(bool){... */\n      swap5\n      swap4\n      pop\n      pop\n      pop\n      pop\n      jump\t// out\n        /* \"wwcc-contracts/contracts/wwccPool.sol\":5163:5532  function voteWithdrawal(address joiner,uint256 amount) external onlyManager payable returns (bool){... */\n    tag_65:\n        /* \"wwcc-contracts/contracts/wwccPool.sol\":5256:5260  bool */\n      0x00\n        /* \"wwcc-contracts/contracts/wwccPool.sol\":12019:12024  owner */\n      dup1\n      0x00\n      swap1\n      sload\n      swap1\n      0x0100\n      exp\n      swap1\n      div\n      0xffffffffffffffffffffffffffffffffffffffff\n      and\n        /* \"wwcc-contracts/contracts/wwccPool.sol\":12005:12024  msg.sender == owner */\n      0xffffffffffffffffffffffffffffffffffffffff\n      and\n        /* \"wwcc-contracts/contracts/wwccPool.sol\":12005:12015  msg.sender */\n      caller\n        /* \"wwcc-contracts/contracts/wwccPool.sol\":12005:12024  msg.sender == owner */\n      0xffffffffffffffffffffffffffffffffffffffff\n      and\n      eq\n        /* \"wwcc-contracts/contracts/wwccPool.sol\":11984:12075  require(... */\n      tag_358\n      jumpi\n      mload(0x40)\n      0x08c379a000000000000000000000000000000000000000000000000000000000\n      dup2\n      mstore\n      0x04\n      add\n      tag_359\n      swap1\n      tag_76\n      jump\t// in\n    tag_359:\n      mload(0x40)\n      dup1\n      swap2\n      sub\n      swap1\n      revert\n    tag_358:\n        /* \"wwcc-contracts/contracts/wwccPool.sol\":5296:5302  amount */\n      dup2\n        /* \"wwcc-contracts/contracts/wwccPool.sol\":5274:5284  voteAmount */\n      0x05\n        /* \"wwcc-contracts/contracts/wwccPool.sol\":5274:5292  voteAmount[joiner] */\n      0x00\n        /* \"wwcc-contracts/contracts/wwccPool.sol\":5285:5291  joiner */\n      dup6\n        /* \"wwcc-contracts/contracts/wwccPool.sol\":5274:5292  voteAmount[joiner] */\n      0xffffffffffffffffffffffffffffffffffffffff\n      and\n      0xffffffffffffffffffffffffffffffffffffffff\n      and\n      dup2\n      mstore\n      0x20\n      add\n      swap1\n      dup2\n      mstore\n      0x20\n      add\n      0x00\n      keccak256\n      sload\n        /* \"wwcc-contracts/contracts/wwccPool.sol\":5274:5302  voteAmount[joiner] >= amount */\n      lt\n      iszero\n        /* \"wwcc-contracts/contracts/wwccPool.sol\":5274:5329  voteAmount[joiner] >= amount && voteAmount[joiner] >= 0 */\n      dup1\n      iszero\n      tag_361\n      jumpi\n      pop\n        /* \"wwcc-contracts/contracts/wwccPool.sol\":5328:5329  0 */\n      0x00\n        /* \"wwcc-contracts/contracts/wwccPool.sol\":5306:5316  voteAmount */\n      0x05\n        /* \"wwcc-contracts/contracts/wwccPool.sol\":5306:5324  voteAmount[joiner] */\n      0x00\n        /* \"wwcc-contracts/contracts/wwccPool.sol\":5317:5323  joiner */\n      dup6\n        /* \"wwcc-contracts/contracts/wwccPool.sol\":5306:5324  voteAmount[joiner] */\n      0xffffffffffffffffffffffffffffffffffffffff\n      and\n      0xffffffffffffffffffffffffffffffffffffffff\n      and\n      dup2\n      mstore\n      0x20\n      add\n      swap1\n      dup2\n      mstore\n      0x20\n      add\n      0x00\n      keccak256\n      sload\n        /* \"wwcc-contracts/contracts/wwccPool.sol\":5306:5329  voteAmount[joiner] >= 0 */\n      lt\n      iszero\n        /* \"wwcc-contracts/contracts/wwccPool.sol\":5274:5329  voteAmount[joiner] >= amount && voteAmount[joiner] >= 0 */\n    tag_361:\n        /* \"wwcc-contracts/contracts/wwccPool.sol\":5271:5526  if(voteAmount[joiner] >= amount && voteAmount[joiner] >= 0){... */\n      iszero\n      tag_362\n      jumpi\n        /* \"wwcc-contracts/contracts/wwccPool.sol\":5344:5377  address payable toAddress_address */\n      0x00\n        /* \"wwcc-contracts/contracts/wwccPool.sol\":5388:5394  joiner */\n      dup4\n        /* \"wwcc-contracts/contracts/wwccPool.sol\":5344:5395  address payable toAddress_address = payable(joiner) */\n      swap1\n      pop\n        /* \"wwcc-contracts/contracts/wwccPool.sol\":5409:5426  toAddress_address */\n      dup1\n        /* \"wwcc-contracts/contracts/wwccPool.sol\":5409:5435  toAddress_address.transfer */\n      0xffffffffffffffffffffffffffffffffffffffff\n      and\n        /* \"wwcc-contracts/contracts/wwccPool.sol\":5409:5455  toAddress_address.transfer(voteAmount[joiner]) */\n      0x08fc\n        /* \"wwcc-contracts/contracts/wwccPool.sol\":5436:5446  voteAmount */\n      0x05\n        /* \"wwcc-contracts/contracts/wwccPool.sol\":5436:5454  voteAmount[joiner] */\n      0x00\n        /* \"wwcc-contracts/contracts/wwccPool.sol\":5447:5453  joiner */\n      dup8\n        /* \"wwcc-contracts/contracts/wwccPool.sol\":5436:5454  voteAmount[joiner] */\n      0xffffffffffffffffffffffffffffffffffffffff\n      and\n      0xffffffffffffffffffffffffffffffffffffffff\n      and\n      dup2\n      mstore\n      0x20\n      add\n      swap1\n      dup2\n      mstore\n      0x20\n      add\n      0x00\n      keccak256\n      sload\n        /* \"wwcc-contracts/contracts/wwccPool.sol\":5409:5455  toAddress_address.transfer(voteAmount[joiner]) */\n      swap1\n      dup2\n      iszero\n      mul\n      swap1\n      mload(0x40)\n      0x00\n      mload(0x40)\n      dup1\n      dup4\n      sub\n      dup2\n      dup6\n      dup9\n      dup9\n      call\n      swap4\n      pop\n      pop\n      pop\n      pop\n      iszero\n      dup1\n      iszero\n      tag_364\n      jumpi\n      returndatasize\n      0x00\n      dup1\n      returndatacopy\n      revert(0x00, returndatasize)\n    tag_364:\n      pop\n        /* \"wwcc-contracts/contracts/wwccPool.sol\":5330:5466  {... */\n      pop\n        /* \"wwcc-contracts/contracts/wwccPool.sol\":5271:5526  if(voteAmount[joiner] >= amount && voteAmount[joiner] >= 0){... */\n      jump(tag_365)\n    tag_362:\n        /* \"wwcc-contracts/contracts/wwccPool.sol\":5484:5515  revert(\"not enough voteAmount\") */\n      mload(0x40)\n      0x08c379a000000000000000000000000000000000000000000000000000000000\n      dup2\n      mstore\n      0x04\n      add\n      tag_366\n      swap1\n      tag_204\n      jump\t// in\n    tag_366:\n      mload(0x40)\n      dup1\n      swap2\n      sub\n      swap1\n      revert\n        /* \"wwcc-contracts/contracts/wwccPool.sol\":5271:5526  if(voteAmount[joiner] >= amount && voteAmount[joiner] >= 0){... */\n    tag_365:\n        /* \"wwcc-contracts/contracts/wwccPool.sol\":5163:5532  function voteWithdrawal(address joiner,uint256 amount) external onlyManager payable returns (bool){... */\n      swap3\n      swap2\n      pop\n      pop\n      jump\t// out\n        /* \"wwcc-contracts/contracts/wwccPool.sol\":9472:10135  function getPool(bytes32 poolKey) external view returns (string memory vs,string memory rounds,PoolViewInfo memory viewInfo){... */\n    tag_70:\n        /* \"wwcc-contracts/contracts/wwccPool.sol\":9529:9545  string memory vs */\n      0x60\n        /* \"wwcc-contracts/contracts/wwccPool.sol\":9546:9566  string memory rounds */\n      dup1\n        /* \"wwcc-contracts/contracts/wwccPool.sol\":9567:9595  PoolViewInfo memory viewInfo */\n      tag_367\n      tag_368\n      jump\t// in\n    tag_367:\n        /* \"wwcc-contracts/contracts/wwccPool.sol\":9610:9627  contains(poolKey) */\n      tag_370\n        /* \"wwcc-contracts/contracts/wwccPool.sol\":9619:9626  poolKey */\n      dup5\n        /* \"wwcc-contracts/contracts/wwccPool.sol\":9610:9618  contains */\n      tag_79\n        /* \"wwcc-contracts/contracts/wwccPool.sol\":9610:9627  contains(poolKey) */\n      jump\t// in\n    tag_370:\n        /* \"wwcc-contracts/contracts/wwccPool.sol\":9606:10129  if(!contains(poolKey)) { ... */\n      tag_371\n      jumpi\n        /* \"wwcc-contracts/contracts/wwccPool.sol\":9644:9663  revert(\"not exist\") */\n      mload(0x40)\n      0x08c379a000000000000000000000000000000000000000000000000000000000\n      dup2\n      mstore\n      0x04\n      add\n      tag_372\n      swap1\n      tag_373\n      jump\t// in\n    tag_372:\n      mload(0x40)\n      dup1\n      swap2\n      sub\n      swap1\n      revert\n        /* \"wwcc-contracts/contracts/wwccPool.sol\":9606:10129  if(!contains(poolKey)) { ... */\n    tag_371:\n        /* \"wwcc-contracts/contracts/wwccPool.sol\":9692:9709  string  memory hv */\n      0x00\n        /* \"wwcc-contracts/contracts/wwccPool.sol\":9712:9751  strConcat(WcPools[poolKey].home,\" vs \") */\n      tag_375\n        /* \"wwcc-contracts/contracts/wwccPool.sol\":9722:9729  WcPools */\n      0x06\n        /* \"wwcc-contracts/contracts/wwccPool.sol\":9722:9738  WcPools[poolKey] */\n      0x00\n        /* \"wwcc-contracts/contracts/wwccPool.sol\":9730:9737  poolKey */\n      dup8\n        /* \"wwcc-contracts/contracts/wwccPool.sol\":9722:9738  WcPools[poolKey] */\n      dup2\n      mstore\n      0x20\n      add\n      swap1\n      dup2\n      mstore\n      0x20\n      add\n      0x00\n      keccak256\n        /* \"wwcc-contracts/contracts/wwccPool.sol\":9722:9743  WcPools[poolKey].home */\n      0x00\n      add\n        /* \"wwcc-contracts/contracts/wwccPool.sol\":9712:9751  strConcat(WcPools[poolKey].home,\" vs \") */\n      dup1\n      sload\n      tag_376\n      swap1\n      tag_85\n      jump\t// in\n    tag_376:\n      dup1\n      0x1f\n      add\n      0x20\n      dup1\n      swap2\n      div\n      mul\n      0x20\n      add\n      mload(0x40)\n      swap1\n      dup2\n      add\n      0x40\n      mstore\n      dup1\n      swap3\n      swap2\n      swap1\n      dup2\n      dup2\n      mstore\n      0x20\n      add\n      dup3\n      dup1\n      sload\n      tag_377\n      swap1\n      tag_85\n      jump\t// in\n    tag_377:\n      dup1\n      iszero\n      tag_378\n      jumpi\n      dup1\n      0x1f\n      lt\n      tag_379\n      jumpi\n      0x0100\n      dup1\n      dup4\n      sload\n      div\n      mul\n      dup4\n      mstore\n      swap2\n      0x20\n      add\n      swap2\n      jump(tag_378)\n    tag_379:\n      dup3\n      add\n      swap2\n      swap1\n      0x00\n      mstore\n      keccak256(0x00, 0x20)\n      swap1\n    tag_380:\n      dup2\n      sload\n      dup2\n      mstore\n      swap1\n      0x01\n      add\n      swap1\n      0x20\n      add\n      dup1\n      dup4\n      gt\n      tag_380\n      jumpi\n      dup3\n      swap1\n      sub\n      0x1f\n      and\n      dup3\n      add\n      swap2\n    tag_378:\n      pop\n      pop\n      pop\n      pop\n      pop\n      mload(0x40)\n      dup1\n      0x40\n      add\n      0x40\n      mstore\n      dup1\n      0x04\n      dup2\n      mstore\n      0x20\n      add\n      0x2076732000000000000000000000000000000000000000000000000000000000\n      dup2\n      mstore\n      pop\n        /* \"wwcc-contracts/contracts/wwccPool.sol\":9712:9721  strConcat */\n      tag_149\n        /* \"wwcc-contracts/contracts/wwccPool.sol\":9712:9751  strConcat(WcPools[poolKey].home,\" vs \") */\n      jump\t// in\n    tag_375:\n        /* \"wwcc-contracts/contracts/wwccPool.sol\":9692:9751  string  memory hv = strConcat(WcPools[poolKey].home,\" vs \") */\n      swap1\n      pop\n        /* \"wwcc-contracts/contracts/wwccPool.sol\":9765:9782  string  memory vs */\n      0x00\n        /* \"wwcc-contracts/contracts/wwccPool.sol\":9785:9821  strConcat(hv,WcPools[poolKey].visit) */\n      tag_381\n        /* \"wwcc-contracts/contracts/wwccPool.sol\":9795:9797  hv */\n      dup3\n        /* \"wwcc-contracts/contracts/wwccPool.sol\":9798:9805  WcPools */\n      0x06\n        /* \"wwcc-contracts/contracts/wwccPool.sol\":9798:9814  WcPools[poolKey] */\n      0x00\n        /* \"wwcc-contracts/contracts/wwccPool.sol\":9806:9813  poolKey */\n      dup10\n        /* \"wwcc-contracts/contracts/wwccPool.sol\":9798:9814  WcPools[poolKey] */\n      dup2\n      mstore\n      0x20\n      add\n      swap1\n      dup2\n      mstore\n      0x20\n      add\n      0x00\n      keccak256\n        /* \"wwcc-contracts/contracts/wwccPool.sol\":9798:9820  WcPools[poolKey].visit */\n      0x01\n      add\n        /* \"wwcc-contracts/contracts/wwccPool.sol\":9785:9821  strConcat(hv,WcPools[poolKey].visit) */\n      dup1\n      sload\n      tag_382\n      swap1\n      tag_85\n      jump\t// in\n    tag_382:\n      dup1\n      0x1f\n      add\n      0x20\n      dup1\n      swap2\n      div\n      mul\n      0x20\n      add\n      mload(0x40)\n      swap1\n      dup2\n      add\n      0x40\n      mstore\n      dup1\n      swap3\n      swap2\n      swap1\n      dup2\n      dup2\n      mstore\n      0x20\n      add\n      dup3\n      dup1\n      sload\n      tag_383\n      swap1\n      tag_85\n      jump\t// in\n    tag_383:\n      dup1\n      iszero\n      tag_384\n      jumpi\n      dup1\n      0x1f\n      lt\n      tag_385\n      jumpi\n      0x0100\n      dup1\n      dup4\n      sload\n      div\n      mul\n      dup4\n      mstore\n      swap2\n      0x20\n      add\n      swap2\n      jump(tag_384)\n    tag_385:\n      dup3\n      add\n      swap2\n      swap1\n      0x00\n      mstore\n      keccak256(0x00, 0x20)\n      swap1\n    tag_386:\n      dup2\n      sload\n      dup2\n      mstore\n      swap1\n      0x01\n      add\n      swap1\n      0x20\n      add\n      dup1\n      dup4\n      gt\n      tag_386\n      jumpi\n      dup3\n      swap1\n      sub\n      0x1f\n      and\n      dup3\n      add\n      swap2\n    tag_384:\n      pop\n      pop\n      pop\n      pop\n      pop\n        /* \"wwcc-contracts/contracts/wwccPool.sol\":9785:9794  strConcat */\n      tag_149\n        /* \"wwcc-contracts/contracts/wwccPool.sol\":9785:9821  strConcat(hv,WcPools[poolKey].visit) */\n      jump\t// in\n    tag_381:\n        /* \"wwcc-contracts/contracts/wwccPool.sol\":9765:9821  string  memory vs = strConcat(hv,WcPools[poolKey].visit) */\n      swap1\n      pop\n        /* \"wwcc-contracts/contracts/wwccPool.sol\":9835:9857  PoolViewInfo memory vi */\n      0x00\n        /* \"wwcc-contracts/contracts/wwccPool.sol\":9860:10040  PoolViewInfo(WcPools[poolKey].wPool,... */\n      mload(0x40)\n      dup1\n      0xa0\n      add\n      0x40\n      mstore\n      dup1\n        /* \"wwcc-contracts/contracts/wwccPool.sol\":9873:9880  WcPools */\n      0x06\n        /* \"wwcc-contracts/contracts/wwccPool.sol\":9873:9889  WcPools[poolKey] */\n      0x00\n        /* \"wwcc-contracts/contracts/wwccPool.sol\":9881:9888  poolKey */\n      dup11\n        /* \"wwcc-contracts/contracts/wwccPool.sol\":9873:9889  WcPools[poolKey] */\n      dup2\n      mstore\n      0x20\n      add\n      swap1\n      dup2\n      mstore\n      0x20\n      add\n      0x00\n      keccak256\n        /* \"wwcc-contracts/contracts/wwccPool.sol\":9873:9895  WcPools[poolKey].wPool */\n      0x03\n      add\n      sload\n        /* \"wwcc-contracts/contracts/wwccPool.sol\":9860:10040  PoolViewInfo(WcPools[poolKey].wPool,... */\n      dup2\n      mstore\n      0x20\n      add\n        /* \"wwcc-contracts/contracts/wwccPool.sol\":9909:9916  WcPools */\n      0x06\n        /* \"wwcc-contracts/contracts/wwccPool.sol\":9909:9925  WcPools[poolKey] */\n      0x00\n        /* \"wwcc-contracts/contracts/wwccPool.sol\":9917:9924  poolKey */\n      dup11\n        /* \"wwcc-contracts/contracts/wwccPool.sol\":9909:9925  WcPools[poolKey] */\n      dup2\n      mstore\n      0x20\n      add\n      swap1\n      dup2\n      mstore\n      0x20\n      add\n      0x00\n      keccak256\n        /* \"wwcc-contracts/contracts/wwccPool.sol\":9909:9931  WcPools[poolKey].dPool */\n      0x04\n      add\n      sload\n        /* \"wwcc-contracts/contracts/wwccPool.sol\":9860:10040  PoolViewInfo(WcPools[poolKey].wPool,... */\n      dup2\n      mstore\n      0x20\n      add\n        /* \"wwcc-contracts/contracts/wwccPool.sol\":9945:9952  WcPools */\n      0x06\n        /* \"wwcc-contracts/contracts/wwccPool.sol\":9945:9961  WcPools[poolKey] */\n      0x00\n        /* \"wwcc-contracts/contracts/wwccPool.sol\":9953:9960  poolKey */\n      dup11\n        /* \"wwcc-contracts/contracts/wwccPool.sol\":9945:9961  WcPools[poolKey] */\n      dup2\n      mstore\n      0x20\n      add\n      swap1\n      dup2\n      mstore\n      0x20\n      add\n      0x00\n      keccak256\n        /* \"wwcc-contracts/contracts/wwccPool.sol\":9945:9967  WcPools[poolKey].lPool */\n      0x05\n      add\n      sload\n        /* \"wwcc-contracts/contracts/wwccPool.sol\":9860:10040  PoolViewInfo(WcPools[poolKey].wPool,... */\n      dup2\n      mstore\n      0x20\n      add\n        /* \"wwcc-contracts/contracts/wwccPool.sol\":9981:9988  WcPools */\n      0x06\n        /* \"wwcc-contracts/contracts/wwccPool.sol\":9981:9997  WcPools[poolKey] */\n      0x00\n        /* \"wwcc-contracts/contracts/wwccPool.sol\":9989:9996  poolKey */\n      dup11\n        /* \"wwcc-contracts/contracts/wwccPool.sol\":9981:9997  WcPools[poolKey] */\n      dup2\n      mstore\n      0x20\n      add\n      swap1\n      dup2\n      mstore\n      0x20\n      add\n      0x00\n      keccak256\n        /* \"wwcc-contracts/contracts/wwccPool.sol\":9981:10003  WcPools[poolKey].sPool */\n      0x06\n      add\n      sload\n        /* \"wwcc-contracts/contracts/wwccPool.sol\":9860:10040  PoolViewInfo(WcPools[poolKey].wPool,... */\n      dup2\n      mstore\n      0x20\n      add\n        /* \"wwcc-contracts/contracts/wwccPool.sol\":10017:10024  WcPools */\n      0x06\n        /* \"wwcc-contracts/contracts/wwccPool.sol\":10017:10033  WcPools[poolKey] */\n      0x00\n        /* \"wwcc-contracts/contracts/wwccPool.sol\":10025:10032  poolKey */\n      dup11\n        /* \"wwcc-contracts/contracts/wwccPool.sol\":10017:10033  WcPools[poolKey] */\n      dup2\n      mstore\n      0x20\n      add\n      swap1\n      dup2\n      mstore\n      0x20\n      add\n      0x00\n      keccak256\n        /* \"wwcc-contracts/contracts/wwccPool.sol\":10017:10039  WcPools[poolKey].basal */\n      0x07\n      add\n      sload\n        /* \"wwcc-contracts/contracts/wwccPool.sol\":9860:10040  PoolViewInfo(WcPools[poolKey].wPool,... */\n      dup2\n      mstore\n      pop\n        /* \"wwcc-contracts/contracts/wwccPool.sol\":9835:10040  PoolViewInfo memory vi = PoolViewInfo(WcPools[poolKey].wPool,... */\n      swap1\n      pop\n        /* \"wwcc-contracts/contracts/wwccPool.sol\":10062:10064  vs */\n      dup2\n        /* \"wwcc-contracts/contracts/wwccPool.sol\":10078:10085  WcPools */\n      0x06\n        /* \"wwcc-contracts/contracts/wwccPool.sol\":10078:10094  WcPools[poolKey] */\n      0x00\n        /* \"wwcc-contracts/contracts/wwccPool.sol\":10086:10093  poolKey */\n      dup10\n        /* \"wwcc-contracts/contracts/wwccPool.sol\":10078:10094  WcPools[poolKey] */\n      dup2\n      mstore\n      0x20\n      add\n      swap1\n      dup2\n      mstore\n      0x20\n      add\n      0x00\n      keccak256\n        /* \"wwcc-contracts/contracts/wwccPool.sol\":10078:10101  WcPools[poolKey].rounds */\n      0x02\n      add\n        /* \"wwcc-contracts/contracts/wwccPool.sol\":10115:10117  vi */\n      dup3\n        /* \"wwcc-contracts/contracts/wwccPool.sol\":10054:10118  return (vs,... */\n      dup2\n      dup1\n      sload\n      tag_387\n      swap1\n      tag_85\n      jump\t// in\n    tag_387:\n      dup1\n      0x1f\n      add\n      0x20\n      dup1\n      swap2\n      div\n      mul\n      0x20\n      add\n      mload(0x40)\n      swap1\n      dup2\n      add\n      0x40\n      mstore\n      dup1\n      swap3\n      swap2\n      swap1\n      dup2\n      dup2\n      mstore\n      0x20\n      add\n      dup3\n      dup1\n      sload\n      tag_388\n      swap1\n      tag_85\n      jump\t// in\n    tag_388:\n      dup1\n      iszero\n      tag_389\n      jumpi\n      dup1\n      0x1f\n      lt\n      tag_390\n      jumpi\n      0x0100\n      dup1\n      dup4\n      sload\n      div\n      mul\n      dup4\n      mstore\n      swap2\n      0x20\n      add\n      swap2\n      jump(tag_389)\n    tag_390:\n      dup3\n      add\n      swap2\n      swap1\n      0x00\n      mstore\n      keccak256(0x00, 0x20)\n      swap1\n    tag_391:\n      dup2\n      sload\n      dup2\n      mstore\n      swap1\n      0x01\n      add\n      swap1\n      0x20\n      add\n      dup1\n      dup4\n      gt\n      tag_391\n      jumpi\n      dup3\n      swap1\n      sub\n      0x1f\n      and\n      dup3\n      add\n      swap2\n    tag_389:\n      pop\n      pop\n      pop\n      pop\n      pop\n      swap2\n      pop\n      swap6\n      pop\n      swap6\n      pop\n      swap6\n      pop\n      pop\n      pop\n      pop\n        /* \"wwcc-contracts/contracts/wwccPool.sol\":9472:10135  function getPool(bytes32 poolKey) external view returns (string memory vs,string memory rounds,PoolViewInfo memory viewInfo){... */\n      swap2\n      swap4\n      swap1\n      swap3\n      pop\n      jump\t// out\n        /* \"wwcc-contracts/contracts/wwccPool.sol\":10140:10253  function contains(bytes32 poolKey) internal view returns (bool) {... */\n    tag_79:\n        /* \"wwcc-contracts/contracts/wwccPool.sol\":10198:10202  bool */\n      0x00\n        /* \"wwcc-contracts/contracts/wwccPool.sol\":10225:10232  WcPools */\n      0x06\n        /* \"wwcc-contracts/contracts/wwccPool.sol\":10225:10241  WcPools[poolKey] */\n      0x00\n        /* \"wwcc-contracts/contracts/wwccPool.sol\":10233:10240  poolKey */\n      dup4\n        /* \"wwcc-contracts/contracts/wwccPool.sol\":10225:10241  WcPools[poolKey] */\n      dup2\n      mstore\n      0x20\n      add\n      swap1\n      dup2\n      mstore\n      0x20\n      add\n      0x00\n      keccak256\n        /* \"wwcc-contracts/contracts/wwccPool.sol\":10225:10246  WcPools[poolKey].used */\n      0x08\n      add\n      0x01\n      swap1\n      sload\n      swap1\n      0x0100\n      exp\n      swap1\n      div\n      0xff\n      and\n        /* \"wwcc-contracts/contracts/wwccPool.sol\":10218:10246  return WcPools[poolKey].used */\n      swap1\n      pop\n        /* \"wwcc-contracts/contracts/wwccPool.sol\":10140:10253  function contains(bytes32 poolKey) internal view returns (bool) {... */\n      swap2\n      swap1\n      pop\n      jump\t// out\n        /* \"wwcc-contracts/contracts/safemath.sol\":274:417  function div(uint256 a, uint256 b) internal pure returns (uint256) {... */\n    tag_105:\n        /* \"wwcc-contracts/contracts/safemath.sol\":332:339  uint256 */\n      0x00\n        /* \"wwcc-contracts/contracts/safemath.sol\":363:364  0 */\n      dup1\n        /* \"wwcc-contracts/contracts/safemath.sol\":359:360  b */\n      dup3\n        /* \"wwcc-contracts/contracts/safemath.sol\":359:364  b > 0 */\n      gt\n        /* \"wwcc-contracts/contracts/safemath.sol\":351:365  require(b > 0) */\n      tag_394\n      jumpi\n      0x00\n      dup1\n      revert\n    tag_394:\n        /* \"wwcc-contracts/contracts/safemath.sol\":375:384  uint256 c */\n      0x00\n        /* \"wwcc-contracts/contracts/safemath.sol\":391:392  b */\n      dup3\n        /* \"wwcc-contracts/contracts/safemath.sol\":387:388  a */\n      dup5\n        /* \"wwcc-contracts/contracts/safemath.sol\":387:392  a / b */\n      tag_395\n      swap2\n      swap1\n      tag_315\n      jump\t// in\n    tag_395:\n        /* \"wwcc-contracts/contracts/safemath.sol\":375:392  uint256 c = a / b */\n      swap1\n      pop\n        /* \"wwcc-contracts/contracts/safemath.sol\":409:410  c */\n      dup1\n        /* \"wwcc-contracts/contracts/safemath.sol\":402:410  return c */\n      swap2\n      pop\n      pop\n        /* \"wwcc-contracts/contracts/safemath.sol\":274:417  function div(uint256 a, uint256 b) internal pure returns (uint256) {... */\n      swap3\n      swap2\n      pop\n      pop\n      jump\t// out\n        /* \"wwcc-contracts/contracts/wwccPool.sol\":10258:10747  function strConcat(string memory _a,string memory _b) internal pure returns (string memory){... */\n    tag_149:\n        /* \"wwcc-contracts/contracts/wwccPool.sol\":10335:10348  string memory */\n      0x60\n        /* \"wwcc-contracts/contracts/wwccPool.sol\":10363:10379  bytes memory _ba */\n      0x00\n        /* \"wwcc-contracts/contracts/wwccPool.sol\":10388:10390  _a */\n      dup4\n        /* \"wwcc-contracts/contracts/wwccPool.sol\":10363:10391  bytes memory _ba = bytes(_a) */\n      swap1\n      pop\n        /* \"wwcc-contracts/contracts/wwccPool.sol\":10405:10421  bytes memory _bb */\n      0x00\n        /* \"wwcc-contracts/contracts/wwccPool.sol\":10430:10432  _b */\n      dup4\n        /* \"wwcc-contracts/contracts/wwccPool.sol\":10405:10433  bytes memory _bb = bytes(_b) */\n      swap1\n      pop\n        /* \"wwcc-contracts/contracts/wwccPool.sol\":10447:10464  string memory ret */\n      0x00\n        /* \"wwcc-contracts/contracts/wwccPool.sol\":10491:10494  _bb */\n      dup2\n        /* \"wwcc-contracts/contracts/wwccPool.sol\":10491:10501  _bb.length */\n      mload\n        /* \"wwcc-contracts/contracts/wwccPool.sol\":10478:10481  _ba */\n      dup4\n        /* \"wwcc-contracts/contracts/wwccPool.sol\":10478:10488  _ba.length */\n      mload\n        /* \"wwcc-contracts/contracts/wwccPool.sol\":10478:10501  _ba.length + _bb.length */\n      tag_397\n      swap2\n      swap1\n      tag_17\n      jump\t// in\n    tag_397:\n        /* \"wwcc-contracts/contracts/wwccPool.sol\":10467:10502  new string(_ba.length + _bb.length) */\n      0xffffffffffffffff\n      dup2\n      gt\n      iszero\n      tag_398\n      jumpi\n      tag_399\n      tag_400\n      jump\t// in\n    tag_399:\n    tag_398:\n      mload(0x40)\n      swap1\n      dup1\n      dup3\n      mstore\n      dup1\n      0x1f\n      add\n      not(0x1f)\n      and\n      0x20\n      add\n      dup3\n      add\n      0x40\n      mstore\n      dup1\n      iszero\n      tag_401\n      jumpi\n      dup2\n      0x20\n      add\n      0x01\n      dup3\n      mul\n      dup1\n      calldatasize\n      dup4\n      calldatacopy\n      dup1\n      dup3\n      add\n      swap2\n      pop\n      pop\n      swap1\n      pop\n    tag_401:\n      pop\n        /* \"wwcc-contracts/contracts/wwccPool.sol\":10447:10502  string memory ret = new string(_ba.length + _bb.length) */\n      swap1\n      pop\n        /* \"wwcc-contracts/contracts/wwccPool.sol\":10516:10533  bytes memory bret */\n      0x00\n        /* \"wwcc-contracts/contracts/wwccPool.sol\":10542:10545  ret */\n      dup2\n        /* \"wwcc-contracts/contracts/wwccPool.sol\":10516:10546  bytes memory bret = bytes(ret) */\n      swap1\n      pop\n        /* \"wwcc-contracts/contracts/wwccPool.sol\":10560:10566  uint k */\n      0x00\n        /* \"wwcc-contracts/contracts/wwccPool.sol\":10588:10594  uint i */\n      dup1\n        /* \"wwcc-contracts/contracts/wwccPool.sol\":10584:10637  for(uint i = 0;i < _ba.length;i++) bret[k++] = _ba[i] */\n    tag_402:\n        /* \"wwcc-contracts/contracts/wwccPool.sol\":10603:10606  _ba */\n      dup6\n        /* \"wwcc-contracts/contracts/wwccPool.sol\":10603:10613  _ba.length */\n      mload\n        /* \"wwcc-contracts/contracts/wwccPool.sol\":10599:10600  i */\n      dup2\n        /* \"wwcc-contracts/contracts/wwccPool.sol\":10599:10613  i < _ba.length */\n      lt\n        /* \"wwcc-contracts/contracts/wwccPool.sol\":10584:10637  for(uint i = 0;i < _ba.length;i++) bret[k++] = _ba[i] */\n      iszero\n      tag_403\n      jumpi\n        /* \"wwcc-contracts/contracts/wwccPool.sol\":10631:10634  _ba */\n      dup6\n        /* \"wwcc-contracts/contracts/wwccPool.sol\":10635:10636  i */\n      dup2\n        /* \"wwcc-contracts/contracts/wwccPool.sol\":10631:10637  _ba[i] */\n      dup2\n      mload\n      dup2\n      lt\n      tag_405\n      jumpi\n      tag_406\n      tag_291\n      jump\t// in\n    tag_406:\n    tag_405:\n      0x20\n      add\n      add\n      mload\n      0xf8\n      shr\n      0xf8\n      shl\n        /* \"wwcc-contracts/contracts/wwccPool.sol\":10619:10623  bret */\n      dup4\n        /* \"wwcc-contracts/contracts/wwccPool.sol\":10624:10627  k++ */\n      dup4\n      dup1\n      tag_407\n      swap1\n      tag_356\n      jump\t// in\n    tag_407:\n      swap5\n      pop\n        /* \"wwcc-contracts/contracts/wwccPool.sol\":10619:10628  bret[k++] */\n      dup2\n      mload\n      dup2\n      lt\n      tag_408\n      jumpi\n      tag_409\n      tag_291\n      jump\t// in\n    tag_409:\n    tag_408:\n      0x20\n      add\n      add\n        /* \"wwcc-contracts/contracts/wwccPool.sol\":10619:10637  bret[k++] = _ba[i] */\n      swap1\n      not(0xffffffffffffffffffffffffffffffffffffffffffffffffffffffffffffff)\n      and\n      swap1\n      dup2\n      0x00\n      byte\n      swap1\n      mstore8\n      pop\n        /* \"wwcc-contracts/contracts/wwccPool.sol\":10614:10617  i++ */\n      dup1\n      dup1\n      tag_410\n      swap1\n      tag_356\n      jump\t// in\n    tag_410:\n      swap2\n      pop\n      pop\n        /* \"wwcc-contracts/contracts/wwccPool.sol\":10584:10637  for(uint i = 0;i < _ba.length;i++) bret[k++] = _ba[i] */\n      jump(tag_402)\n    tag_403:\n      pop\n        /* \"wwcc-contracts/contracts/wwccPool.sol\":10655:10661  uint i */\n      0x00\n        /* \"wwcc-contracts/contracts/wwccPool.sol\":10651:10704  for(uint i = 0;i < _bb.length;i++) bret[k++] = _bb[i] */\n    tag_411:\n        /* \"wwcc-contracts/contracts/wwccPool.sol\":10670:10673  _bb */\n      dup5\n        /* \"wwcc-contracts/contracts/wwccPool.sol\":10670:10680  _bb.length */\n      mload\n        /* \"wwcc-contracts/contracts/wwccPool.sol\":10666:10667  i */\n      dup2\n        /* \"wwcc-contracts/contracts/wwccPool.sol\":10666:10680  i < _bb.length */\n      lt\n        /* \"wwcc-contracts/contracts/wwccPool.sol\":10651:10704  for(uint i = 0;i < _bb.length;i++) bret[k++] = _bb[i] */\n      iszero\n      tag_412\n      jumpi\n        /* \"wwcc-contracts/contracts/wwccPool.sol\":10698:10701  _bb */\n      dup5\n        /* \"wwcc-contracts/contracts/wwccPool.sol\":10702:10703  i */\n      dup2\n        /* \"wwcc-contracts/contracts/wwccPool.sol\":10698:10704  _bb[i] */\n      dup2\n      mload\n      dup2\n      lt\n      tag_414\n      jumpi\n      tag_415\n      tag_291\n      jump\t// in\n    tag_415:\n    tag_414:\n      0x20\n      add\n      add\n      mload\n      0xf8\n      shr\n      0xf8\n      shl\n        /* \"wwcc-contracts/contracts/wwccPool.sol\":10686:10690  bret */\n      dup4\n        /* \"wwcc-contracts/contracts/wwccPool.sol\":10691:10694  k++ */\n      dup4\n      dup1\n      tag_416\n      swap1\n      tag_356\n      jump\t// in\n    tag_416:\n      swap5\n      pop\n        /* \"wwcc-contracts/contracts/wwccPool.sol\":10686:10695  bret[k++] */\n      dup2\n      mload\n      dup2\n      lt\n      tag_417\n      jumpi\n      tag_418\n      tag_291\n      jump\t// in\n    tag_418:\n    tag_417:\n      0x20\n      add\n      add\n        /* \"wwcc-contracts/contracts/wwccPool.sol\":10686:10704  bret[k++] = _bb[i] */\n      swap1\n      not(0xffffffffffffffffffffffffffffffffffffffffffffffffffffffffffffff)\n      and\n      swap1\n      dup2\n      0x00\n      byte\n      swap1\n      mstore8\n      pop\n        /* \"wwcc-contracts/contracts/wwccPool.sol\":10681:10684  i++ */\n      dup1\n      dup1\n      tag_419\n      swap1\n      tag_356\n      jump\t// in\n    tag_419:\n      swap2\n      pop\n      pop\n        /* \"wwcc-contracts/contracts/wwccPool.sol\":10651:10704  for(uint i = 0;i < _bb.length;i++) bret[k++] = _bb[i] */\n      jump(tag_411)\n    tag_412:\n      pop\n        /* \"wwcc-contracts/contracts/wwccPool.sol\":10732:10735  ret */\n      dup3\n        /* \"wwcc-contracts/contracts/wwccPool.sol\":10718:10736  return string(ret) */\n      swap6\n      pop\n      pop\n      pop\n      pop\n      pop\n      pop\n        /* \"wwcc-contracts/contracts/wwccPool.sol\":10258:10747  function strConcat(string memory _a,string memory _b) internal pure returns (string memory){... */\n      swap3\n      swap2\n      pop\n      pop\n      jump\t// out\n        /* \"wwcc-contracts/contracts/wwccPool.sol\":10886:11015  function uint256ToString(uint256 u) internal pure returns(string memory){... */\n    tag_222:\n        /* \"wwcc-contracts/contracts/wwccPool.sol\":10944:10957  string memory */\n      0x60\n        /* \"wwcc-contracts/contracts/wwccPool.sol\":10979:11008  toString(abi.encodePacked(u)) */\n      tag_421\n        /* \"wwcc-contracts/contracts/wwccPool.sol\":11005:11006  u */\n      dup3\n        /* \"wwcc-contracts/contracts/wwccPool.sol\":10988:11007  abi.encodePacked(u) */\n      add(0x20, mload(0x40))\n      tag_422\n      swap2\n      swap1\n      tag_423\n      jump\t// in\n    tag_422:\n      mload(0x40)\n      0x20\n      dup2\n      dup4\n      sub\n      sub\n      dup2\n      mstore\n      swap1\n      0x40\n      mstore\n        /* \"wwcc-contracts/contracts/wwccPool.sol\":10979:10987  toString */\n      tag_424\n        /* \"wwcc-contracts/contracts/wwccPool.sol\":10979:11008  toString(abi.encodePacked(u)) */\n      jump\t// in\n    tag_421:\n        /* \"wwcc-contracts/contracts/wwccPool.sol\":10972:11008  return toString(abi.encodePacked(u)) */\n      swap1\n      pop\n        /* \"wwcc-contracts/contracts/wwccPool.sol\":10886:11015  function uint256ToString(uint256 u) internal pure returns(string memory){... */\n      swap2\n      swap1\n      pop\n      jump\t// out\n        /* \"wwcc-contracts/contracts/wwccPool.sol\":11020:11150  function bytes32ToString(bytes32 b) internal pure returns(string memory){... */\n    tag_226:\n        /* \"wwcc-contracts/contracts/wwccPool.sol\":11078:11091  string memory */\n      0x60\n        /* \"wwcc-contracts/contracts/wwccPool.sol\":11113:11142  toString(abi.encodePacked(b)) */\n      tag_426\n        /* \"wwcc-contracts/contracts/wwccPool.sol\":11139:11140  b */\n      dup3\n        /* \"wwcc-contracts/contracts/wwccPool.sol\":11122:11141  abi.encodePacked(b) */\n      add(0x20, mload(0x40))\n      tag_427\n      swap2\n      swap1\n      tag_428\n      jump\t// in\n    tag_427:\n      mload(0x40)\n      0x20\n      dup2\n      dup4\n      sub\n      sub\n      dup2\n      mstore\n      swap1\n      0x40\n      mstore\n        /* \"wwcc-contracts/contracts/wwccPool.sol\":11113:11121  toString */\n      tag_424\n        /* \"wwcc-contracts/contracts/wwccPool.sol\":11113:11142  toString(abi.encodePacked(b)) */\n      jump\t// in\n    tag_426:\n        /* \"wwcc-contracts/contracts/wwccPool.sol\":11106:11142  return toString(abi.encodePacked(b)) */\n      swap1\n      pop\n        /* \"wwcc-contracts/contracts/wwccPool.sol\":11020:11150  function bytes32ToString(bytes32 b) internal pure returns(string memory){... */\n      swap2\n      swap1\n      pop\n      jump\t// out\n        /* \"wwcc-contracts/contracts/safemath.sol\":62:266  function mul(uint256 a, uint256 b) internal pure returns (uint256) {... */\n    tag_300:\n        /* \"wwcc-contracts/contracts/safemath.sol\":120:127  uint256 */\n      0x00\n        /* \"wwcc-contracts/contracts/safemath.sol\":148:149  0 */\n      dup1\n        /* \"wwcc-contracts/contracts/safemath.sol\":143:144  a */\n      dup4\n        /* \"wwcc-contracts/contracts/safemath.sol\":143:149  a == 0 */\n      eq\n        /* \"wwcc-contracts/contracts/safemath.sol\":139:184  if (a == 0) {... */\n      iszero\n      tag_430\n      jumpi\n        /* \"wwcc-contracts/contracts/safemath.sol\":172:173  0 */\n      0x00\n        /* \"wwcc-contracts/contracts/safemath.sol\":165:173  return 0 */\n      swap1\n      pop\n      jump(tag_429)\n        /* \"wwcc-contracts/contracts/safemath.sol\":139:184  if (a == 0) {... */\n    tag_430:\n        /* \"wwcc-contracts/contracts/safemath.sol\":195:204  uint256 c */\n      0x00\n        /* \"wwcc-contracts/contracts/safemath.sol\":211:212  b */\n      dup3\n        /* \"wwcc-contracts/contracts/safemath.sol\":207:208  a */\n      dup5\n        /* \"wwcc-contracts/contracts/safemath.sol\":207:212  a * b */\n      tag_431\n      swap2\n      swap1\n      tag_313\n      jump\t// in\n    tag_431:\n        /* \"wwcc-contracts/contracts/safemath.sol\":195:212  uint256 c = a * b */\n      swap1\n      pop\n        /* \"wwcc-contracts/contracts/safemath.sol\":239:240  b */\n      dup3\n        /* \"wwcc-contracts/contracts/safemath.sol\":234:235  a */\n      dup5\n        /* \"wwcc-contracts/contracts/safemath.sol\":230:231  c */\n      dup3\n        /* \"wwcc-contracts/contracts/safemath.sol\":230:235  c / a */\n      tag_432\n      swap2\n      swap1\n      tag_315\n      jump\t// in\n    tag_432:\n        /* \"wwcc-contracts/contracts/safemath.sol\":230:240  c / a == b */\n      eq\n        /* \"wwcc-contracts/contracts/safemath.sol\":222:241  require(c / a == b) */\n      tag_433\n      jumpi\n      0x00\n      dup1\n      revert\n    tag_433:\n        /* \"wwcc-contracts/contracts/safemath.sol\":258:259  c */\n      dup1\n        /* \"wwcc-contracts/contracts/safemath.sol\":251:259  return c */\n      swap2\n      pop\n      pop\n        /* \"wwcc-contracts/contracts/safemath.sol\":62:266  function mul(uint256 a, uint256 b) internal pure returns (uint256) {... */\n    tag_429:\n      swap3\n      swap2\n      pop\n      pop\n      jump\t// out\n        /* \"wwcc-contracts/contracts/wwccPool.sol\":11155:11642  function toString(bytes memory data) internal pure returns(string memory){... */\n    tag_424:\n        /* \"wwcc-contracts/contracts/wwccPool.sol\":11214:11227  string memory */\n      0x60\n        /* \"wwcc-contracts/contracts/wwccPool.sol\":11242:11263  bytes memory alphabet */\n      0x00\n        /* \"wwcc-contracts/contracts/wwccPool.sol\":11242:11284  bytes memory alphabet = \"0123456789abcdef\" */\n      mload(0x40)\n      dup1\n      0x40\n      add\n      0x40\n      mstore\n      dup1\n      0x10\n      dup2\n      mstore\n      0x20\n      add\n      0x3031323334353637383961626364656600000000000000000000000000000000\n      dup2\n      mstore\n      pop\n      swap1\n      pop\n        /* \"wwcc-contracts/contracts/wwccPool.sol\":11298:11314  bytes memory str */\n      0x00\n        /* \"wwcc-contracts/contracts/wwccPool.sol\":11345:11346  2 */\n      0x02\n        /* \"wwcc-contracts/contracts/wwccPool.sol\":11331:11335  data */\n      dup5\n        /* \"wwcc-contracts/contracts/wwccPool.sol\":11331:11342  data.length */\n      mload\n        /* \"wwcc-contracts/contracts/wwccPool.sol\":11331:11346  data.length * 2 */\n      tag_435\n      swap2\n      swap1\n      tag_313\n      jump\t// in\n    tag_435:\n        /* \"wwcc-contracts/contracts/wwccPool.sol\":11327:11328  2 */\n      0x02\n        /* \"wwcc-contracts/contracts/wwccPool.sol\":11327:11346  2 + data.length * 2 */\n      tag_436\n      swap2\n      swap1\n      tag_17\n      jump\t// in\n    tag_436:\n        /* \"wwcc-contracts/contracts/wwccPool.sol\":11317:11347  new bytes(2 + data.length * 2) */\n      0xffffffffffffffff\n      dup2\n      gt\n      iszero\n      tag_437\n      jumpi\n      tag_438\n      tag_400\n      jump\t// in\n    tag_438:\n    tag_437:\n      mload(0x40)\n      swap1\n      dup1\n      dup3\n      mstore\n      dup1\n      0x1f\n      add\n      not(0x1f)\n      and\n      0x20\n      add\n      dup3\n      add\n      0x40\n      mstore\n      dup1\n      iszero\n      tag_439\n      jumpi\n      dup2\n      0x20\n      add\n      0x01\n      dup3\n      mul\n      dup1\n      calldatasize\n      dup4\n      calldatacopy\n      dup1\n      dup3\n      add\n      swap2\n      pop\n      pop\n      swap1\n      pop\n    tag_439:\n      pop\n        /* \"wwcc-contracts/contracts/wwccPool.sol\":11298:11347  bytes memory str = new bytes(2 + data.length * 2) */\n      swap1\n      pop\n        /* \"wwcc-contracts/contracts/wwccPool.sol\":11361:11373  str[0] = \"0\" */\n      0x3000000000000000000000000000000000000000000000000000000000000000\n        /* \"wwcc-contracts/contracts/wwccPool.sol\":11361:11364  str */\n      dup2\n        /* \"wwcc-contracts/contracts/wwccPool.sol\":11365:11366  0 */\n      0x00\n        /* \"wwcc-contracts/contracts/wwccPool.sol\":11361:11367  str[0] */\n      dup2\n      mload\n      dup2\n      lt\n      tag_440\n      jumpi\n      tag_441\n      tag_291\n      jump\t// in\n    tag_441:\n    tag_440:\n      0x20\n      add\n      add\n        /* \"wwcc-contracts/contracts/wwccPool.sol\":11361:11373  str[0] = \"0\" */\n      swap1\n      not(0xffffffffffffffffffffffffffffffffffffffffffffffffffffffffffffff)\n      and\n      swap1\n      dup2\n      0x00\n      byte\n      swap1\n      mstore8\n      pop\n        /* \"wwcc-contracts/contracts/wwccPool.sol\":11387:11399  str[1] = \"x\" */\n      0x7800000000000000000000000000000000000000000000000000000000000000\n        /* \"wwcc-contracts/contracts/wwccPool.sol\":11387:11390  str */\n      dup2\n        /* \"wwcc-contracts/contracts/wwccPool.sol\":11391:11392  1 */\n      0x01\n        /* \"wwcc-contracts/contracts/wwccPool.sol\":11387:11393  str[1] */\n      dup2\n      mload\n      dup2\n      lt\n      tag_442\n      jumpi\n      tag_443\n      tag_291\n      jump\t// in\n    tag_443:\n    tag_442:\n      0x20\n      add\n      add\n        /* \"wwcc-contracts/contracts/wwccPool.sol\":11387:11399  str[1] = \"x\" */\n      swap1\n      not(0xffffffffffffffffffffffffffffffffffffffffffffffffffffffffffffff)\n      and\n      swap1\n      dup2\n      0x00\n      byte\n      swap1\n      mstore8\n      pop\n        /* \"wwcc-contracts/contracts/wwccPool.sol\":11417:11423  uint i */\n      0x00\n        /* \"wwcc-contracts/contracts/wwccPool.sol\":11413:11604  for(uint i =0;i < data.length;i++){... */\n    tag_444:\n        /* \"wwcc-contracts/contracts/wwccPool.sol\":11431:11435  data */\n      dup5\n        /* \"wwcc-contracts/contracts/wwccPool.sol\":11431:11442  data.length */\n      mload\n        /* \"wwcc-contracts/contracts/wwccPool.sol\":11427:11428  i */\n      dup2\n        /* \"wwcc-contracts/contracts/wwccPool.sol\":11427:11442  i < data.length */\n      lt\n        /* \"wwcc-contracts/contracts/wwccPool.sol\":11413:11604  for(uint i =0;i < data.length;i++){... */\n      iszero\n      tag_445\n      jumpi\n        /* \"wwcc-contracts/contracts/wwccPool.sol\":11482:11490  alphabet */\n      dup3\n        /* \"wwcc-contracts/contracts/wwccPool.sol\":11513:11514  4 */\n      0x04\n        /* \"wwcc-contracts/contracts/wwccPool.sol\":11502:11506  data */\n      dup7\n        /* \"wwcc-contracts/contracts/wwccPool.sol\":11507:11508  i */\n      dup4\n        /* \"wwcc-contracts/contracts/wwccPool.sol\":11502:11509  data[i] */\n      dup2\n      mload\n      dup2\n      lt\n      tag_447\n      jumpi\n      tag_448\n      tag_291\n      jump\t// in\n    tag_448:\n    tag_447:\n      0x20\n      add\n      add\n      mload\n      0xf8\n      shr\n      0xf8\n      shl\n        /* \"wwcc-contracts/contracts/wwccPool.sol\":11502:11514  data[i] >> 4 */\n      not(0xffffffffffffffffffffffffffffffffffffffffffffffffffffffffffffff)\n      and\n      swap1\n      shr\n        /* \"wwcc-contracts/contracts/wwccPool.sol\":11496:11515  uint8(data[i] >> 4) */\n      0xf8\n      shr\n        /* \"wwcc-contracts/contracts/wwccPool.sol\":11491:11516  uint(uint8(data[i] >> 4)) */\n      0xff\n      and\n        /* \"wwcc-contracts/contracts/wwccPool.sol\":11482:11517  alphabet[uint(uint8(data[i] >> 4))] */\n      dup2\n      mload\n      dup2\n      lt\n      tag_449\n      jumpi\n      tag_450\n      tag_291\n      jump\t// in\n    tag_450:\n    tag_449:\n      0x20\n      add\n      add\n      mload\n      0xf8\n      shr\n      0xf8\n      shl\n        /* \"wwcc-contracts/contracts/wwccPool.sol\":11465:11468  str */\n      dup3\n        /* \"wwcc-contracts/contracts/wwccPool.sol\":11477:11478  2 */\n      0x02\n        /* \"wwcc-contracts/contracts/wwccPool.sol\":11473:11474  i */\n      dup4\n        /* \"wwcc-contracts/contracts/wwccPool.sol\":11473:11478  i * 2 */\n      tag_451\n      swap2\n      swap1\n      tag_313\n      jump\t// in\n    tag_451:\n        /* \"wwcc-contracts/contracts/wwccPool.sol\":11469:11470  2 */\n      0x02\n        /* \"wwcc-contracts/contracts/wwccPool.sol\":11469:11478  2 + i * 2 */\n      tag_452\n      swap2\n      swap1\n      tag_17\n      jump\t// in\n    tag_452:\n        /* \"wwcc-contracts/contracts/wwccPool.sol\":11465:11479  str[2 + i * 2] */\n      dup2\n      mload\n      dup2\n      lt\n      tag_453\n      jumpi\n      tag_454\n      tag_291\n      jump\t// in\n    tag_454:\n    tag_453:\n      0x20\n      add\n      add\n        /* \"wwcc-contracts/contracts/wwccPool.sol\":11465:11517  str[2 + i * 2] = alphabet[uint(uint8(data[i] >> 4))] */\n      swap1\n      not(0xffffffffffffffffffffffffffffffffffffffffffffffffffffffffffffff)\n      and\n      swap1\n      dup2\n      0x00\n      byte\n      swap1\n      mstore8\n      pop\n        /* \"wwcc-contracts/contracts/wwccPool.sol\":11552:11560  alphabet */\n      dup3\n        /* \"wwcc-contracts/contracts/wwccPool.sol\":11582:11586  0x0f */\n      0x0f\n        /* \"wwcc-contracts/contracts/wwccPool.sol\":11572:11586  data[i] & 0x0f */\n      0xf8\n      shl\n        /* \"wwcc-contracts/contracts/wwccPool.sol\":11572:11576  data */\n      dup7\n        /* \"wwcc-contracts/contracts/wwccPool.sol\":11577:11578  i */\n      dup4\n        /* \"wwcc-contracts/contracts/wwccPool.sol\":11572:11579  data[i] */\n      dup2\n      mload\n      dup2\n      lt\n      tag_455\n      jumpi\n      tag_456\n      tag_291\n      jump\t// in\n    tag_456:\n    tag_455:\n      0x20\n      add\n      add\n      mload\n      0xf8\n      shr\n      0xf8\n      shl\n        /* \"wwcc-contracts/contracts/wwccPool.sol\":11572:11586  data[i] & 0x0f */\n      and\n        /* \"wwcc-contracts/contracts/wwccPool.sol\":11566:11587  uint8(data[i] & 0x0f) */\n      0xf8\n      shr\n        /* \"wwcc-contracts/contracts/wwccPool.sol\":11561:11588  uint(uint8(data[i] & 0x0f)) */\n      0xff\n      and\n        /* \"wwcc-contracts/contracts/wwccPool.sol\":11552:11589  alphabet[uint(uint8(data[i] & 0x0f))] */\n      dup2\n      mload\n      dup2\n      lt\n      tag_457\n      jumpi\n      tag_458\n      tag_291\n      jump\t// in\n    tag_458:\n    tag_457:\n      0x20\n      add\n      add\n      mload\n      0xf8\n      shr\n      0xf8\n      shl\n        /* \"wwcc-contracts/contracts/wwccPool.sol\":11535:11538  str */\n      dup3\n        /* \"wwcc-contracts/contracts/wwccPool.sol\":11547:11548  2 */\n      0x02\n        /* \"wwcc-contracts/contracts/wwccPool.sol\":11543:11544  i */\n      dup4\n        /* \"wwcc-contracts/contracts/wwccPool.sol\":11543:11548  i * 2 */\n      tag_459\n      swap2\n      swap1\n      tag_313\n      jump\t// in\n    tag_459:\n        /* \"wwcc-contracts/contracts/wwccPool.sol\":11539:11540  3 */\n      0x03\n        /* \"wwcc-contracts/contracts/wwccPool.sol\":11539:11548  3 + i * 2 */\n      tag_460\n      swap2\n      swap1\n      tag_17\n      jump\t// in\n    tag_460:\n        /* \"wwcc-contracts/contracts/wwccPool.sol\":11535:11549  str[3 + i * 2] */\n      dup2\n      mload\n      dup2\n      lt\n      tag_461\n      jumpi\n      tag_462\n      tag_291\n      jump\t// in\n    tag_462:\n    tag_461:\n      0x20\n      add\n      add\n        /* \"wwcc-contracts/contracts/wwccPool.sol\":11535:11589  str[3 + i * 2] = alphabet[uint(uint8(data[i] & 0x0f))] */\n      swap1\n      not(0xffffffffffffffffffffffffffffffffffffffffffffffffffffffffffffff)\n      and\n      swap1\n      dup2\n      0x00\n      byte\n      swap1\n      mstore8\n      pop\n        /* \"wwcc-contracts/contracts/wwccPool.sol\":11443:11446  i++ */\n      dup1\n      dup1\n      tag_463\n      swap1\n      tag_356\n      jump\t// in\n    tag_463:\n      swap2\n      pop\n      pop\n        /* \"wwcc-contracts/contracts/wwccPool.sol\":11413:11604  for(uint i =0;i < data.length;i++){... */\n      jump(tag_444)\n    tag_445:\n      pop\n        /* \"wwcc-contracts/contracts/wwccPool.sol\":11631:11634  str */\n      dup1\n        /* \"wwcc-contracts/contracts/wwccPool.sol\":11617:11635  return string(str) */\n      swap3\n      pop\n      pop\n      pop\n        /* \"wwcc-contracts/contracts/wwccPool.sol\":11155:11642  function toString(bytes memory data) internal pure returns(string memory){... */\n      swap2\n      swap1\n      pop\n      jump\t// out\n    tag_159:\n      dup3\n      dup1\n      sload\n      tag_464\n      swap1\n      tag_85\n      jump\t// in\n    tag_464:\n      swap1\n      0x00\n      mstore\n      keccak256(0x00, 0x20)\n      swap1\n      0x1f\n      add\n      0x20\n      swap1\n      div\n      dup2\n      add\n      swap3\n      dup3\n      tag_466\n      jumpi\n      0x00\n      dup6\n      sstore\n      jump(tag_465)\n    tag_466:\n      dup3\n      0x1f\n      lt\n      tag_467\n      jumpi\n      dup1\n      mload\n      not(0xff)\n      and\n      dup4\n      dup1\n      add\n      or\n      dup6\n      sstore\n      jump(tag_465)\n    tag_467:\n      dup3\n      dup1\n      add\n      0x01\n      add\n      dup6\n      sstore\n      dup3\n      iszero\n      tag_465\n      jumpi\n      swap2\n      dup3\n      add\n    tag_468:\n      dup3\n      dup2\n      gt\n      iszero\n      tag_469\n      jumpi\n      dup3\n      mload\n      dup3\n      sstore\n      swap2\n      0x20\n      add\n      swap2\n      swap1\n      0x01\n      add\n      swap1\n      jump(tag_468)\n    tag_469:\n    tag_465:\n      pop\n      swap1\n      pop\n      tag_470\n      swap2\n      swap1\n      tag_471\n      jump\t// in\n    tag_470:\n      pop\n      swap1\n      jump\t// out\n    tag_368:\n      mload(0x40)\n      dup1\n      0xa0\n      add\n      0x40\n      mstore\n      dup1\n      0x00\n      dup2\n      mstore\n      0x20\n      add\n      0x00\n      dup2\n      mstore\n      0x20\n      add\n      0x00\n      dup2\n      mstore\n      0x20\n      add\n      0x00\n      dup2\n      mstore\n      0x20\n      add\n      0x00\n      dup2\n      mstore\n      pop\n      swap1\n      jump\t// out\n    tag_471:\n    tag_472:\n      dup1\n      dup3\n      gt\n      iszero\n      tag_473\n      jumpi\n      0x00\n      dup2\n      0x00\n      swap1\n      sstore\n      pop\n      0x01\n      add\n      jump(tag_472)\n    tag_473:\n      pop\n      swap1\n      jump\t// out\n        /* \"#utility.yul\":7:419   */\n    tag_475:\n        /* \"#utility.yul\":85:90   */\n      0x00\n        /* \"#utility.yul\":110:176   */\n      tag_477\n        /* \"#utility.yul\":126:175   */\n      tag_478\n        /* \"#utility.yul\":168:174   */\n      dup5\n        /* \"#utility.yul\":126:175   */\n      tag_479\n      jump\t// in\n    tag_478:\n        /* \"#utility.yul\":110:176   */\n      tag_480\n      jump\t// in\n    tag_477:\n        /* \"#utility.yul\":101:176   */\n      swap1\n      pop\n        /* \"#utility.yul\":199:205   */\n      dup3\n        /* \"#utility.yul\":192:197   */\n      dup2\n        /* \"#utility.yul\":185:206   */\n      mstore\n        /* \"#utility.yul\":237:241   */\n      0x20\n        /* \"#utility.yul\":230:235   */\n      dup2\n        /* \"#utility.yul\":226:242   */\n      add\n        /* \"#utility.yul\":275:278   */\n      dup5\n        /* \"#utility.yul\":266:272   */\n      dup5\n        /* \"#utility.yul\":261:264   */\n      dup5\n        /* \"#utility.yul\":257:273   */\n      add\n        /* \"#utility.yul\":254:279   */\n      gt\n        /* \"#utility.yul\":251:363   */\n      iszero\n      tag_481\n      jumpi\n        /* \"#utility.yul\":282:361   */\n      tag_482\n      tag_483\n      jump\t// in\n    tag_482:\n        /* \"#utility.yul\":251:363   */\n    tag_481:\n        /* \"#utility.yul\":372:413   */\n      tag_484\n        /* \"#utility.yul\":406:412   */\n      dup5\n        /* \"#utility.yul\":401:404   */\n      dup3\n        /* \"#utility.yul\":396:399   */\n      dup6\n        /* \"#utility.yul\":372:413   */\n      tag_485\n      jump\t// in\n    tag_484:\n        /* \"#utility.yul\":91:419   */\n      pop\n        /* \"#utility.yul\":7:419   */\n      swap4\n      swap3\n      pop\n      pop\n      pop\n      jump\t// out\n        /* \"#utility.yul\":425:564   */\n    tag_486:\n        /* \"#utility.yul\":471:476   */\n      0x00\n        /* \"#utility.yul\":509:515   */\n      dup2\n        /* \"#utility.yul\":496:516   */\n      calldataload\n        /* \"#utility.yul\":487:516   */\n      swap1\n      pop\n        /* \"#utility.yul\":525:558   */\n      tag_488\n        /* \"#utility.yul\":552:557   */\n      dup2\n        /* \"#utility.yul\":525:558   */\n      tag_489\n      jump\t// in\n    tag_488:\n        /* \"#utility.yul\":425:564   */\n      swap3\n      swap2\n      pop\n      pop\n      jump\t// out\n        /* \"#utility.yul\":570:703   */\n    tag_490:\n        /* \"#utility.yul\":613:618   */\n      0x00\n        /* \"#utility.yul\":651:657   */\n      dup2\n        /* \"#utility.yul\":638:658   */\n      calldataload\n        /* \"#utility.yul\":629:658   */\n      swap1\n      pop\n        /* \"#utility.yul\":667:697   */\n      tag_492\n        /* \"#utility.yul\":691:696   */\n      dup2\n        /* \"#utility.yul\":667:697   */\n      tag_493\n      jump\t// in\n    tag_492:\n        /* \"#utility.yul\":570:703   */\n      swap3\n      swap2\n      pop\n      pop\n      jump\t// out\n        /* \"#utility.yul\":709:848   */\n    tag_494:\n        /* \"#utility.yul\":755:760   */\n      0x00\n        /* \"#utility.yul\":793:799   */\n      dup2\n        /* \"#utility.yul\":780:800   */\n      calldataload\n        /* \"#utility.yul\":771:800   */\n      swap1\n      pop\n        /* \"#utility.yul\":809:842   */\n      tag_496\n        /* \"#utility.yul\":836:841   */\n      dup2\n        /* \"#utility.yul\":809:842   */\n      tag_497\n      jump\t// in\n    tag_496:\n        /* \"#utility.yul\":709:848   */\n      swap3\n      swap2\n      pop\n      pop\n      jump\t// out\n        /* \"#utility.yul\":868:1208   */\n    tag_498:\n        /* \"#utility.yul\":924:929   */\n      0x00\n        /* \"#utility.yul\":973:976   */\n      dup3\n        /* \"#utility.yul\":966:970   */\n      0x1f\n        /* \"#utility.yul\":958:964   */\n      dup4\n        /* \"#utility.yul\":954:971   */\n      add\n        /* \"#utility.yul\":950:977   */\n      slt\n        /* \"#utility.yul\":940:1062   */\n      tag_500\n      jumpi\n        /* \"#utility.yul\":981:1060   */\n      tag_501\n      tag_502\n      jump\t// in\n    tag_501:\n        /* \"#utility.yul\":940:1062   */\n    tag_500:\n        /* \"#utility.yul\":1098:1104   */\n      dup2\n        /* \"#utility.yul\":1085:1105   */\n      calldataload\n        /* \"#utility.yul\":1123:1202   */\n      tag_503\n        /* \"#utility.yul\":1198:1201   */\n      dup5\n        /* \"#utility.yul\":1190:1196   */\n      dup3\n        /* \"#utility.yul\":1183:1187   */\n      0x20\n        /* \"#utility.yul\":1175:1181   */\n      dup7\n        /* \"#utility.yul\":1171:1188   */\n      add\n        /* \"#utility.yul\":1123:1202   */\n      tag_475\n      jump\t// in\n    tag_503:\n        /* \"#utility.yul\":1114:1202   */\n      swap2\n      pop\n        /* \"#utility.yul\":930:1208   */\n      pop\n        /* \"#utility.yul\":868:1208   */\n      swap3\n      swap2\n      pop\n      pop\n      jump\t// out\n        /* \"#utility.yul\":1214:1353   */\n    tag_504:\n        /* \"#utility.yul\":1260:1265   */\n      0x00\n        /* \"#utility.yul\":1298:1304   */\n      dup2\n        /* \"#utility.yul\":1285:1305   */\n      calldataload\n        /* \"#utility.yul\":1276:1305   */\n      swap1\n      pop\n        /* \"#utility.yul\":1314:1347   */\n      tag_506\n        /* \"#utility.yul\":1341:1346   */\n      dup2\n        /* \"#utility.yul\":1314:1347   */\n      tag_507\n      jump\t// in\n    tag_506:\n        /* \"#utility.yul\":1214:1353   */\n      swap3\n      swap2\n      pop\n      pop\n      jump\t// out\n        /* \"#utility.yul\":1359:1833   */\n    tag_23:\n        /* \"#utility.yul\":1427:1433   */\n      0x00\n        /* \"#utility.yul\":1435:1441   */\n      dup1\n        /* \"#utility.yul\":1484:1486   */\n      0x40\n        /* \"#utility.yul\":1472:1481   */\n      dup4\n        /* \"#utility.yul\":1463:1470   */\n      dup6\n        /* \"#utility.yul\":1459:1482   */\n      sub\n        /* \"#utility.yul\":1455:1487   */\n      slt\n        /* \"#utility.yul\":1452:1571   */\n      iszero\n      tag_509\n      jumpi\n        /* \"#utility.yul\":1490:1569   */\n      tag_510\n      tag_511\n      jump\t// in\n    tag_510:\n        /* \"#utility.yul\":1452:1571   */\n    tag_509:\n        /* \"#utility.yul\":1610:1611   */\n      0x00\n        /* \"#utility.yul\":1635:1688   */\n      tag_512\n        /* \"#utility.yul\":1680:1687   */\n      dup6\n        /* \"#utility.yul\":1671:1677   */\n      dup3\n        /* \"#utility.yul\":1660:1669   */\n      dup7\n        /* \"#utility.yul\":1656:1678   */\n      add\n        /* \"#utility.yul\":1635:1688   */\n      tag_486\n      jump\t// in\n    tag_512:\n        /* \"#utility.yul\":1625:1688   */\n      swap3\n      pop\n        /* \"#utility.yul\":1581:1698   */\n      pop\n        /* \"#utility.yul\":1737:1739   */\n      0x20\n        /* \"#utility.yul\":1763:1816   */\n      tag_513\n        /* \"#utility.yul\":1808:1815   */\n      dup6\n        /* \"#utility.yul\":1799:1805   */\n      dup3\n        /* \"#utility.yul\":1788:1797   */\n      dup7\n        /* \"#utility.yul\":1784:1806   */\n      add\n        /* \"#utility.yul\":1763:1816   */\n      tag_494\n      jump\t// in\n    tag_513:\n        /* \"#utility.yul\":1753:1816   */\n      swap2\n      pop\n        /* \"#utility.yul\":1708:1826   */\n      pop\n        /* \"#utility.yul\":1359:1833   */\n      swap3\n      pop\n      swap3\n      swap1\n      pop\n      jump\t// out\n        /* \"#utility.yul\":1839:2313   */\n    tag_64:\n        /* \"#utility.yul\":1907:1913   */\n      0x00\n        /* \"#utility.yul\":1915:1921   */\n      dup1\n        /* \"#utility.yul\":1964:1966   */\n      0x40\n        /* \"#utility.yul\":1952:1961   */\n      dup4\n        /* \"#utility.yul\":1943:1950   */\n      dup6\n        /* \"#utility.yul\":1939:1962   */\n      sub\n        /* \"#utility.yul\":1935:1967   */\n      slt\n        /* \"#utility.yul\":1932:2051   */\n      iszero\n      tag_515\n      jumpi\n        /* \"#utility.yul\":1970:2049   */\n      tag_516\n      tag_511\n      jump\t// in\n    tag_516:\n        /* \"#utility.yul\":1932:2051   */\n    tag_515:\n        /* \"#utility.yul\":2090:2091   */\n      0x00\n        /* \"#utility.yul\":2115:2168   */\n      tag_517\n        /* \"#utility.yul\":2160:2167   */\n      dup6\n        /* \"#utility.yul\":2151:2157   */\n      dup3\n        /* \"#utility.yul\":2140:2149   */\n      dup7\n        /* \"#utility.yul\":2136:2158   */\n      add\n        /* \"#utility.yul\":2115:2168   */\n      tag_486\n      jump\t// in\n    tag_517:\n        /* \"#utility.yul\":2105:2168   */\n      swap3\n      pop\n        /* \"#utility.yul\":2061:2178   */\n      pop\n        /* \"#utility.yul\":2217:2219   */\n      0x20\n        /* \"#utility.yul\":2243:2296   */\n      tag_518\n        /* \"#utility.yul\":2288:2295   */\n      dup6\n        /* \"#utility.yul\":2279:2285   */\n      dup3\n        /* \"#utility.yul\":2268:2277   */\n      dup7\n        /* \"#utility.yul\":2264:2286   */\n      add\n        /* \"#utility.yul\":2243:2296   */\n      tag_504\n      jump\t// in\n    tag_518:\n        /* \"#utility.yul\":2233:2296   */\n      swap2\n      pop\n        /* \"#utility.yul\":2188:2306   */\n      pop\n        /* \"#utility.yul\":1839:2313   */\n      swap3\n      pop\n      swap3\n      swap1\n      pop\n      jump\t// out\n        /* \"#utility.yul\":2319:3376   */\n    tag_54:\n        /* \"#utility.yul\":2423:2429   */\n      0x00\n        /* \"#utility.yul\":2431:2437   */\n      dup1\n        /* \"#utility.yul\":2439:2445   */\n      0x00\n        /* \"#utility.yul\":2447:2453   */\n      dup1\n        /* \"#utility.yul\":2455:2461   */\n      0x00\n        /* \"#utility.yul\":2463:2469   */\n      dup1\n        /* \"#utility.yul\":2512:2515   */\n      0xc0\n        /* \"#utility.yul\":2500:2509   */\n      dup8\n        /* \"#utility.yul\":2491:2498   */\n      dup10\n        /* \"#utility.yul\":2487:2510   */\n      sub\n        /* \"#utility.yul\":2483:2516   */\n      slt\n        /* \"#utility.yul\":2480:2600   */\n      iszero\n      tag_520\n      jumpi\n        /* \"#utility.yul\":2519:2598   */\n      tag_521\n      tag_511\n      jump\t// in\n    tag_521:\n        /* \"#utility.yul\":2480:2600   */\n    tag_520:\n        /* \"#utility.yul\":2639:2640   */\n      0x00\n        /* \"#utility.yul\":2664:2717   */\n      tag_522\n        /* \"#utility.yul\":2709:2716   */\n      dup10\n        /* \"#utility.yul\":2700:2706   */\n      dup3\n        /* \"#utility.yul\":2689:2698   */\n      dup11\n        /* \"#utility.yul\":2685:2707   */\n      add\n        /* \"#utility.yul\":2664:2717   */\n      tag_486\n      jump\t// in\n    tag_522:\n        /* \"#utility.yul\":2654:2717   */\n      swap7\n      pop\n        /* \"#utility.yul\":2610:2727   */\n      pop\n        /* \"#utility.yul\":2766:2768   */\n      0x20\n        /* \"#utility.yul\":2792:2845   */\n      tag_523\n        /* \"#utility.yul\":2837:2844   */\n      dup10\n        /* \"#utility.yul\":2828:2834   */\n      dup3\n        /* \"#utility.yul\":2817:2826   */\n      dup11\n        /* \"#utility.yul\":2813:2835   */\n      add\n        /* \"#utility.yul\":2792:2845   */\n      tag_504\n      jump\t// in\n    tag_523:\n        /* \"#utility.yul\":2782:2845   */\n      swap6\n      pop\n        /* \"#utility.yul\":2737:2855   */\n      pop\n        /* \"#utility.yul\":2894:2896   */\n      0x40\n        /* \"#utility.yul\":2920:2973   */\n      tag_524\n        /* \"#utility.yul\":2965:2972   */\n      dup10\n        /* \"#utility.yul\":2956:2962   */\n      dup3\n        /* \"#utility.yul\":2945:2954   */\n      dup11\n        /* \"#utility.yul\":2941:2963   */\n      add\n        /* \"#utility.yul\":2920:2973   */\n      tag_494\n      jump\t// in\n    tag_524:\n        /* \"#utility.yul\":2910:2973   */\n      swap5\n      pop\n        /* \"#utility.yul\":2865:2983   */\n      pop\n        /* \"#utility.yul\":3022:3024   */\n      0x60\n        /* \"#utility.yul\":3048:3101   */\n      tag_525\n        /* \"#utility.yul\":3093:3100   */\n      dup10\n        /* \"#utility.yul\":3084:3090   */\n      dup3\n        /* \"#utility.yul\":3073:3082   */\n      dup11\n        /* \"#utility.yul\":3069:3091   */\n      add\n        /* \"#utility.yul\":3048:3101   */\n      tag_504\n      jump\t// in\n    tag_525:\n        /* \"#utility.yul\":3038:3101   */\n      swap4\n      pop\n        /* \"#utility.yul\":2993:3111   */\n      pop\n        /* \"#utility.yul\":3150:3153   */\n      0x80\n        /* \"#utility.yul\":3177:3230   */\n      tag_526\n        /* \"#utility.yul\":3222:3229   */\n      dup10\n        /* \"#utility.yul\":3213:3219   */\n      dup3\n        /* \"#utility.yul\":3202:3211   */\n      dup11\n        /* \"#utility.yul\":3198:3220   */\n      add\n        /* \"#utility.yul\":3177:3230   */\n      tag_504\n      jump\t// in\n    tag_526:\n        /* \"#utility.yul\":3167:3230   */\n      swap3\n      pop\n        /* \"#utility.yul\":3121:3240   */\n      pop\n        /* \"#utility.yul\":3279:3282   */\n      0xa0\n        /* \"#utility.yul\":3306:3359   */\n      tag_527\n        /* \"#utility.yul\":3351:3358   */\n      dup10\n        /* \"#utility.yul\":3342:3348   */\n      dup3\n        /* \"#utility.yul\":3331:3340   */\n      dup11\n        /* \"#utility.yul\":3327:3349   */\n      add\n        /* \"#utility.yul\":3306:3359   */\n      tag_504\n      jump\t// in\n    tag_527:\n        /* \"#utility.yul\":3296:3359   */\n      swap2\n      pop\n        /* \"#utility.yul\":3250:3369   */\n      pop\n        /* \"#utility.yul\":2319:3376   */\n      swap3\n      swap6\n      pop\n      swap3\n      swap6\n      pop\n      swap3\n      swap6\n      jump\t// out\n        /* \"#utility.yul\":3382:3711   */\n    tag_48:\n        /* \"#utility.yul\":3441:3447   */\n      0x00\n        /* \"#utility.yul\":3490:3492   */\n      0x20\n        /* \"#utility.yul\":3478:3487   */\n      dup3\n        /* \"#utility.yul\":3469:3476   */\n      dup5\n        /* \"#utility.yul\":3465:3488   */\n      sub\n        /* \"#utility.yul\":3461:3493   */\n      slt\n        /* \"#utility.yul\":3458:3577   */\n      iszero\n      tag_529\n      jumpi\n        /* \"#utility.yul\":3496:3575   */\n      tag_530\n      tag_511\n      jump\t// in\n    tag_530:\n        /* \"#utility.yul\":3458:3577   */\n    tag_529:\n        /* \"#utility.yul\":3616:3617   */\n      0x00\n        /* \"#utility.yul\":3641:3694   */\n      tag_531\n        /* \"#utility.yul\":3686:3693   */\n      dup5\n        /* \"#utility.yul\":3677:3683   */\n      dup3\n        /* \"#utility.yul\":3666:3675   */\n      dup6\n        /* \"#utility.yul\":3662:3684   */\n      add\n        /* \"#utility.yul\":3641:3694   */\n      tag_494\n      jump\t// in\n    tag_531:\n        /* \"#utility.yul\":3631:3694   */\n      swap2\n      pop\n        /* \"#utility.yul\":3587:3704   */\n      pop\n        /* \"#utility.yul\":3382:3711   */\n      swap3\n      swap2\n      pop\n      pop\n      jump\t// out\n        /* \"#utility.yul\":3717:4191   */\n    tag_30:\n        /* \"#utility.yul\":3785:3791   */\n      0x00\n        /* \"#utility.yul\":3793:3799   */\n      dup1\n        /* \"#utility.yul\":3842:3844   */\n      0x40\n        /* \"#utility.yul\":3830:3839   */\n      dup4\n        /* \"#utility.yul\":3821:3828   */\n      dup6\n        /* \"#utility.yul\":3817:3840   */\n      sub\n        /* \"#utility.yul\":3813:3845   */\n      slt\n        /* \"#utility.yul\":3810:3929   */\n      iszero\n      tag_533\n      jumpi\n        /* \"#utility.yul\":3848:3927   */\n      tag_534\n      tag_511\n      jump\t// in\n    tag_534:\n        /* \"#utility.yul\":3810:3929   */\n    tag_533:\n        /* \"#utility.yul\":3968:3969   */\n      0x00\n        /* \"#utility.yul\":3993:4046   */\n      tag_535\n        /* \"#utility.yul\":4038:4045   */\n      dup6\n        /* \"#utility.yul\":4029:4035   */\n      dup3\n        /* \"#utility.yul\":4018:4027   */\n      dup7\n        /* \"#utility.yul\":4014:4036   */\n      add\n        /* \"#utility.yul\":3993:4046   */\n      tag_494\n      jump\t// in\n    tag_535:\n        /* \"#utility.yul\":3983:4046   */\n      swap3\n      pop\n        /* \"#utility.yul\":3939:4056   */\n      pop\n        /* \"#utility.yul\":4095:4097   */\n      0x20\n        /* \"#utility.yul\":4121:4174   */\n      tag_536\n        /* \"#utility.yul\":4166:4173   */\n      dup6\n        /* \"#utility.yul\":4157:4163   */\n      dup3\n        /* \"#utility.yul\":4146:4155   */\n      dup7\n        /* \"#utility.yul\":4142:4164   */\n      add\n        /* \"#utility.yul\":4121:4174   */\n      tag_504\n      jump\t// in\n    tag_536:\n        /* \"#utility.yul\":4111:4174   */\n      swap2\n      pop\n        /* \"#utility.yul\":4066:4184   */\n      pop\n        /* \"#utility.yul\":3717:4191   */\n      swap3\n      pop\n      swap3\n      swap1\n      pop\n      jump\t// out\n        /* \"#utility.yul\":4197:4962   */\n    tag_59:\n        /* \"#utility.yul\":4283:4289   */\n      0x00\n        /* \"#utility.yul\":4291:4297   */\n      dup1\n        /* \"#utility.yul\":4299:4305   */\n      0x00\n        /* \"#utility.yul\":4307:4313   */\n      dup1\n        /* \"#utility.yul\":4356:4359   */\n      0x80\n        /* \"#utility.yul\":4344:4353   */\n      dup6\n        /* \"#utility.yul\":4335:4342   */\n      dup8\n        /* \"#utility.yul\":4331:4354   */\n      sub\n        /* \"#utility.yul\":4327:4360   */\n      slt\n        /* \"#utility.yul\":4324:4444   */\n      iszero\n      tag_538\n      jumpi\n        /* \"#utility.yul\":4363:4442   */\n      tag_539\n      tag_511\n      jump\t// in\n    tag_539:\n        /* \"#utility.yul\":4324:4444   */\n    tag_538:\n        /* \"#utility.yul\":4483:4484   */\n      0x00\n        /* \"#utility.yul\":4508:4561   */\n      tag_540\n        /* \"#utility.yul\":4553:4560   */\n      dup8\n        /* \"#utility.yul\":4544:4550   */\n      dup3\n        /* \"#utility.yul\":4533:4542   */\n      dup9\n        /* \"#utility.yul\":4529:4551   */\n      add\n        /* \"#utility.yul\":4508:4561   */\n      tag_494\n      jump\t// in\n    tag_540:\n        /* \"#utility.yul\":4498:4561   */\n      swap5\n      pop\n        /* \"#utility.yul\":4454:4571   */\n      pop\n        /* \"#utility.yul\":4610:4612   */\n      0x20\n        /* \"#utility.yul\":4636:4689   */\n      tag_541\n        /* \"#utility.yul\":4681:4688   */\n      dup8\n        /* \"#utility.yul\":4672:4678   */\n      dup3\n        /* \"#utility.yul\":4661:4670   */\n      dup9\n        /* \"#utility.yul\":4657:4679   */\n      add\n        /* \"#utility.yul\":4636:4689   */\n      tag_504\n      jump\t// in\n    tag_541:\n        /* \"#utility.yul\":4626:4689   */\n      swap4\n      pop\n        /* \"#utility.yul\":4581:4699   */\n      pop\n        /* \"#utility.yul\":4738:4740   */\n      0x40\n        /* \"#utility.yul\":4764:4817   */\n      tag_542\n        /* \"#utility.yul\":4809:4816   */\n      dup8\n        /* \"#utility.yul\":4800:4806   */\n      dup3\n        /* \"#utility.yul\":4789:4798   */\n      dup9\n        /* \"#utility.yul\":4785:4807   */\n      add\n        /* \"#utility.yul\":4764:4817   */\n      tag_504\n      jump\t// in\n    tag_542:\n        /* \"#utility.yul\":4754:4817   */\n      swap3\n      pop\n        /* \"#utility.yul\":4709:4827   */\n      pop\n        /* \"#utility.yul\":4866:4868   */\n      0x60\n        /* \"#utility.yul\":4892:4945   */\n      tag_543\n        /* \"#utility.yul\":4937:4944   */\n      dup8\n        /* \"#utility.yul\":4928:4934   */\n      dup3\n        /* \"#utility.yul\":4917:4926   */\n      dup9\n        /* \"#utility.yul\":4913:4935   */\n      add\n        /* \"#utility.yul\":4892:4945   */\n      tag_504\n      jump\t// in\n    tag_543:\n        /* \"#utility.yul\":4882:4945   */\n      swap2\n      pop\n        /* \"#utility.yul\":4837:4955   */\n      pop\n        /* \"#utility.yul\":4197:4962   */\n      swap3\n      swap6\n      swap2\n      swap5\n      pop\n      swap3\n      pop\n      jump\t// out\n        /* \"#utility.yul\":4968:6267   */\n    tag_36:\n        /* \"#utility.yul\":5081:5087   */\n      0x00\n        /* \"#utility.yul\":5089:5095   */\n      dup1\n        /* \"#utility.yul\":5097:5103   */\n      0x00\n        /* \"#utility.yul\":5105:5111   */\n      dup1\n        /* \"#utility.yul\":5154:5157   */\n      0x80\n        /* \"#utility.yul\":5142:5151   */\n      dup6\n        /* \"#utility.yul\":5133:5140   */\n      dup8\n        /* \"#utility.yul\":5129:5152   */\n      sub\n        /* \"#utility.yul\":5125:5158   */\n      slt\n        /* \"#utility.yul\":5122:5242   */\n      iszero\n      tag_545\n      jumpi\n        /* \"#utility.yul\":5161:5240   */\n      tag_546\n      tag_511\n      jump\t// in\n    tag_546:\n        /* \"#utility.yul\":5122:5242   */\n    tag_545:\n        /* \"#utility.yul\":5309:5310   */\n      0x00\n        /* \"#utility.yul\":5298:5307   */\n      dup6\n        /* \"#utility.yul\":5294:5311   */\n      add\n        /* \"#utility.yul\":5281:5312   */\n      calldataload\n        /* \"#utility.yul\":5339:5357   */\n      0xffffffffffffffff\n        /* \"#utility.yul\":5331:5337   */\n      dup2\n        /* \"#utility.yul\":5328:5358   */\n      gt\n        /* \"#utility.yul\":5325:5442   */\n      iszero\n      tag_547\n      jumpi\n        /* \"#utility.yul\":5361:5440   */\n      tag_548\n      tag_549\n      jump\t// in\n    tag_548:\n        /* \"#utility.yul\":5325:5442   */\n    tag_547:\n        /* \"#utility.yul\":5466:5529   */\n      tag_550\n        /* \"#utility.yul\":5521:5528   */\n      dup8\n        /* \"#utility.yul\":5512:5518   */\n      dup3\n        /* \"#utility.yul\":5501:5510   */\n      dup9\n        /* \"#utility.yul\":5497:5519   */\n      add\n        /* \"#utility.yul\":5466:5529   */\n      tag_498\n      jump\t// in\n    tag_550:\n        /* \"#utility.yul\":5456:5529   */\n      swap5\n      pop\n        /* \"#utility.yul\":5252:5539   */\n      pop\n        /* \"#utility.yul\":5606:5608   */\n      0x20\n        /* \"#utility.yul\":5595:5604   */\n      dup6\n        /* \"#utility.yul\":5591:5609   */\n      add\n        /* \"#utility.yul\":5578:5610   */\n      calldataload\n        /* \"#utility.yul\":5637:5655   */\n      0xffffffffffffffff\n        /* \"#utility.yul\":5629:5635   */\n      dup2\n        /* \"#utility.yul\":5626:5656   */\n      gt\n        /* \"#utility.yul\":5623:5740   */\n      iszero\n      tag_551\n      jumpi\n        /* \"#utility.yul\":5659:5738   */\n      tag_552\n      tag_549\n      jump\t// in\n    tag_552:\n        /* \"#utility.yul\":5623:5740   */\n    tag_551:\n        /* \"#utility.yul\":5764:5827   */\n      tag_553\n        /* \"#utility.yul\":5819:5826   */\n      dup8\n        /* \"#utility.yul\":5810:5816   */\n      dup3\n        /* \"#utility.yul\":5799:5808   */\n      dup9\n        /* \"#utility.yul\":5795:5817   */\n      add\n        /* \"#utility.yul\":5764:5827   */\n      tag_498\n      jump\t// in\n    tag_553:\n        /* \"#utility.yul\":5754:5827   */\n      swap4\n      pop\n        /* \"#utility.yul\":5549:5837   */\n      pop\n        /* \"#utility.yul\":5904:5906   */\n      0x40\n        /* \"#utility.yul\":5893:5902   */\n      dup6\n        /* \"#utility.yul\":5889:5907   */\n      add\n        /* \"#utility.yul\":5876:5908   */\n      calldataload\n        /* \"#utility.yul\":5935:5953   */\n      0xffffffffffffffff\n        /* \"#utility.yul\":5927:5933   */\n      dup2\n        /* \"#utility.yul\":5924:5954   */\n      gt\n        /* \"#utility.yul\":5921:6038   */\n      iszero\n      tag_554\n      jumpi\n        /* \"#utility.yul\":5957:6036   */\n      tag_555\n      tag_549\n      jump\t// in\n    tag_555:\n        /* \"#utility.yul\":5921:6038   */\n    tag_554:\n        /* \"#utility.yul\":6062:6125   */\n      tag_556\n        /* \"#utility.yul\":6117:6124   */\n      dup8\n        /* \"#utility.yul\":6108:6114   */\n      dup3\n        /* \"#utility.yul\":6097:6106   */\n      dup9\n        /* \"#utility.yul\":6093:6115   */\n      add\n        /* \"#utility.yul\":6062:6125   */\n      tag_498\n      jump\t// in\n    tag_556:\n        /* \"#utility.yul\":6052:6125   */\n      swap3\n      pop\n        /* \"#utility.yul\":5847:6135   */\n      pop\n        /* \"#utility.yul\":6174:6176   */\n      0x60\n        /* \"#utility.yul\":6200:6250   */\n      tag_557\n        /* \"#utility.yul\":6242:6249   */\n      dup8\n        /* \"#utility.yul\":6233:6239   */\n      dup3\n        /* \"#utility.yul\":6222:6231   */\n      dup9\n        /* \"#utility.yul\":6218:6240   */\n      add\n        /* \"#utility.yul\":6200:6250   */\n      tag_490\n      jump\t// in\n    tag_557:\n        /* \"#utility.yul\":6190:6250   */\n      swap2\n      pop\n        /* \"#utility.yul\":6145:6260   */\n      pop\n        /* \"#utility.yul\":4968:6267   */\n      swap3\n      swap6\n      swap2\n      swap5\n      pop\n      swap3\n      pop\n      jump\t// out\n        /* \"#utility.yul\":6273:6391   */\n    tag_558:\n        /* \"#utility.yul\":6360:6384   */\n      tag_560\n        /* \"#utility.yul\":6378:6383   */\n      dup2\n        /* \"#utility.yul\":6360:6384   */\n      tag_561\n      jump\t// in\n    tag_560:\n        /* \"#utility.yul\":6355:6358   */\n      dup3\n        /* \"#utility.yul\":6348:6385   */\n      mstore\n        /* \"#utility.yul\":6273:6391   */\n      pop\n      pop\n      jump\t// out\n        /* \"#utility.yul\":6397:6506   */\n    tag_562:\n        /* \"#utility.yul\":6478:6499   */\n      tag_564\n        /* \"#utility.yul\":6493:6498   */\n      dup2\n        /* \"#utility.yul\":6478:6499   */\n      tag_565\n      jump\t// in\n    tag_564:\n        /* \"#utility.yul\":6473:6476   */\n      dup3\n        /* \"#utility.yul\":6466:6500   */\n      mstore\n        /* \"#utility.yul\":6397:6506   */\n      pop\n      pop\n      jump\t// out\n        /* \"#utility.yul\":6512:6630   */\n    tag_566:\n        /* \"#utility.yul\":6599:6623   */\n      tag_568\n        /* \"#utility.yul\":6617:6622   */\n      dup2\n        /* \"#utility.yul\":6599:6623   */\n      tag_569\n      jump\t// in\n    tag_568:\n        /* \"#utility.yul\":6594:6597   */\n      dup3\n        /* \"#utility.yul\":6587:6624   */\n      mstore\n        /* \"#utility.yul\":6512:6630   */\n      pop\n      pop\n      jump\t// out\n        /* \"#utility.yul\":6636:6793   */\n    tag_570:\n        /* \"#utility.yul\":6741:6786   */\n      tag_572\n        /* \"#utility.yul\":6761:6785   */\n      tag_573\n        /* \"#utility.yul\":6779:6784   */\n      dup3\n        /* \"#utility.yul\":6761:6785   */\n      tag_569\n      jump\t// in\n    tag_573:\n        /* \"#utility.yul\":6741:6786   */\n      tag_574\n      jump\t// in\n    tag_572:\n        /* \"#utility.yul\":6736:6739   */\n      dup3\n        /* \"#utility.yul\":6729:6787   */\n      mstore\n        /* \"#utility.yul\":6636:6793   */\n      pop\n      pop\n      jump\t// out\n        /* \"#utility.yul\":6799:7163   */\n    tag_575:\n        /* \"#utility.yul\":6887:6890   */\n      0x00\n        /* \"#utility.yul\":6915:6954   */\n      tag_577\n        /* \"#utility.yul\":6948:6953   */\n      dup3\n        /* \"#utility.yul\":6915:6954   */\n      tag_578\n      jump\t// in\n    tag_577:\n        /* \"#utility.yul\":6970:7041   */\n      tag_579\n        /* \"#utility.yul\":7034:7040   */\n      dup2\n        /* \"#utility.yul\":7029:7032   */\n      dup6\n        /* \"#utility.yul\":6970:7041   */\n      tag_580\n      jump\t// in\n    tag_579:\n        /* \"#utility.yul\":6963:7041   */\n      swap4\n      pop\n        /* \"#utility.yul\":7050:7102   */\n      tag_581\n        /* \"#utility.yul\":7095:7101   */\n      dup2\n        /* \"#utility.yul\":7090:7093   */\n      dup6\n        /* \"#utility.yul\":7083:7087   */\n      0x20\n        /* \"#utility.yul\":7076:7081   */\n      dup7\n        /* \"#utility.yul\":7072:7088   */\n      add\n        /* \"#utility.yul\":7050:7102   */\n      tag_582\n      jump\t// in\n    tag_581:\n        /* \"#utility.yul\":7127:7156   */\n      tag_583\n        /* \"#utility.yul\":7149:7155   */\n      dup2\n        /* \"#utility.yul\":7127:7156   */\n      tag_584\n      jump\t// in\n    tag_583:\n        /* \"#utility.yul\":7122:7125   */\n      dup5\n        /* \"#utility.yul\":7118:7157   */\n      add\n        /* \"#utility.yul\":7111:7157   */\n      swap2\n      pop\n        /* \"#utility.yul\":6891:7163   */\n      pop\n        /* \"#utility.yul\":6799:7163   */\n      swap3\n      swap2\n      pop\n      pop\n      jump\t// out\n        /* \"#utility.yul\":7169:7546   */\n    tag_585:\n        /* \"#utility.yul\":7275:7278   */\n      0x00\n        /* \"#utility.yul\":7303:7342   */\n      tag_587\n        /* \"#utility.yul\":7336:7341   */\n      dup3\n        /* \"#utility.yul\":7303:7342   */\n      tag_578\n      jump\t// in\n    tag_587:\n        /* \"#utility.yul\":7358:7447   */\n      tag_588\n        /* \"#utility.yul\":7440:7446   */\n      dup2\n        /* \"#utility.yul\":7435:7438   */\n      dup6\n        /* \"#utility.yul\":7358:7447   */\n      tag_589\n      jump\t// in\n    tag_588:\n        /* \"#utility.yul\":7351:7447   */\n      swap4\n      pop\n        /* \"#utility.yul\":7456:7508   */\n      tag_590\n        /* \"#utility.yul\":7501:7507   */\n      dup2\n        /* \"#utility.yul\":7496:7499   */\n      dup6\n        /* \"#utility.yul\":7489:7493   */\n      0x20\n        /* \"#utility.yul\":7482:7487   */\n      dup7\n        /* \"#utility.yul\":7478:7494   */\n      add\n        /* \"#utility.yul\":7456:7508   */\n      tag_582\n      jump\t// in\n    tag_590:\n        /* \"#utility.yul\":7533:7539   */\n      dup1\n        /* \"#utility.yul\":7528:7531   */\n      dup5\n        /* \"#utility.yul\":7524:7540   */\n      add\n        /* \"#utility.yul\":7517:7540   */\n      swap2\n      pop\n        /* \"#utility.yul\":7279:7546   */\n      pop\n        /* \"#utility.yul\":7169:7546   */\n      swap3\n      swap2\n      pop\n      pop\n      jump\t// out\n        /* \"#utility.yul\":7552:7918   */\n    tag_591:\n        /* \"#utility.yul\":7694:7697   */\n      0x00\n        /* \"#utility.yul\":7715:7782   */\n      tag_593\n        /* \"#utility.yul\":7779:7781   */\n      0x19\n        /* \"#utility.yul\":7774:7777   */\n      dup4\n        /* \"#utility.yul\":7715:7782   */\n      tag_580\n      jump\t// in\n    tag_593:\n        /* \"#utility.yul\":7708:7782   */\n      swap2\n      pop\n        /* \"#utility.yul\":7791:7884   */\n      tag_594\n        /* \"#utility.yul\":7880:7883   */\n      dup3\n        /* \"#utility.yul\":7791:7884   */\n      tag_595\n      jump\t// in\n    tag_594:\n        /* \"#utility.yul\":7909:7911   */\n      0x20\n        /* \"#utility.yul\":7904:7907   */\n      dup3\n        /* \"#utility.yul\":7900:7912   */\n      add\n        /* \"#utility.yul\":7893:7912   */\n      swap1\n      pop\n        /* \"#utility.yul\":7552:7918   */\n      swap2\n      swap1\n      pop\n      jump\t// out\n        /* \"#utility.yul\":7924:8289   */\n    tag_596:\n        /* \"#utility.yul\":8066:8069   */\n      0x00\n        /* \"#utility.yul\":8087:8153   */\n      tag_598\n        /* \"#utility.yul\":8151:8152   */\n      0x09\n        /* \"#utility.yul\":8146:8149   */\n      dup4\n        /* \"#utility.yul\":8087:8153   */\n      tag_580\n      jump\t// in\n    tag_598:\n        /* \"#utility.yul\":8080:8153   */\n      swap2\n      pop\n        /* \"#utility.yul\":8162:8255   */\n      tag_599\n        /* \"#utility.yul\":8251:8254   */\n      dup3\n        /* \"#utility.yul\":8162:8255   */\n      tag_600\n      jump\t// in\n    tag_599:\n        /* \"#utility.yul\":8280:8282   */\n      0x20\n        /* \"#utility.yul\":8275:8278   */\n      dup3\n        /* \"#utility.yul\":8271:8283   */\n      add\n        /* \"#utility.yul\":8264:8283   */\n      swap1\n      pop\n        /* \"#utility.yul\":7924:8289   */\n      swap2\n      swap1\n      pop\n      jump\t// out\n        /* \"#utility.yul\":8295:8661   */\n    tag_601:\n        /* \"#utility.yul\":8437:8440   */\n      0x00\n        /* \"#utility.yul\":8458:8525   */\n      tag_603\n        /* \"#utility.yul\":8522:8524   */\n      0x0e\n        /* \"#utility.yul\":8517:8520   */\n      dup4\n        /* \"#utility.yul\":8458:8525   */\n      tag_580\n      jump\t// in\n    tag_603:\n        /* \"#utility.yul\":8451:8525   */\n      swap2\n      pop\n        /* \"#utility.yul\":8534:8627   */\n      tag_604\n        /* \"#utility.yul\":8623:8626   */\n      dup3\n        /* \"#utility.yul\":8534:8627   */\n      tag_605\n      jump\t// in\n    tag_604:\n        /* \"#utility.yul\":8652:8654   */\n      0x20\n        /* \"#utility.yul\":8647:8650   */\n      dup3\n        /* \"#utility.yul\":8643:8655   */\n      add\n        /* \"#utility.yul\":8636:8655   */\n      swap1\n      pop\n        /* \"#utility.yul\":8295:8661   */\n      swap2\n      swap1\n      pop\n      jump\t// out\n        /* \"#utility.yul\":8667:9033   */\n    tag_606:\n        /* \"#utility.yul\":8809:8812   */\n      0x00\n        /* \"#utility.yul\":8830:8897   */\n      tag_608\n        /* \"#utility.yul\":8894:8896   */\n      0x17\n        /* \"#utility.yul\":8889:8892   */\n      dup4\n        /* \"#utility.yul\":8830:8897   */\n      tag_580\n      jump\t// in\n    tag_608:\n        /* \"#utility.yul\":8823:8897   */\n      swap2\n      pop\n        /* \"#utility.yul\":8906:8999   */\n      tag_609\n        /* \"#utility.yul\":8995:8998   */\n      dup3\n        /* \"#utility.yul\":8906:8999   */\n      tag_610\n      jump\t// in\n    tag_609:\n        /* \"#utility.yul\":9024:9026   */\n      0x20\n        /* \"#utility.yul\":9019:9022   */\n      dup3\n        /* \"#utility.yul\":9015:9027   */\n      add\n        /* \"#utility.yul\":9008:9027   */\n      swap1\n      pop\n        /* \"#utility.yul\":8667:9033   */\n      swap2\n      swap1\n      pop\n      jump\t// out\n        /* \"#utility.yul\":9039:9405   */\n    tag_611:\n        /* \"#utility.yul\":9181:9184   */\n      0x00\n        /* \"#utility.yul\":9202:9269   */\n      tag_613\n        /* \"#utility.yul\":9266:9268   */\n      0x0a\n        /* \"#utility.yul\":9261:9264   */\n      dup4\n        /* \"#utility.yul\":9202:9269   */\n      tag_580\n      jump\t// in\n    tag_613:\n        /* \"#utility.yul\":9195:9269   */\n      swap2\n      pop\n        /* \"#utility.yul\":9278:9371   */\n      tag_614\n        /* \"#utility.yul\":9367:9370   */\n      dup3\n        /* \"#utility.yul\":9278:9371   */\n      tag_615\n      jump\t// in\n    tag_614:\n        /* \"#utility.yul\":9396:9398   */\n      0x20\n        /* \"#utility.yul\":9391:9394   */\n      dup3\n        /* \"#utility.yul\":9387:9399   */\n      add\n        /* \"#utility.yul\":9380:9399   */\n      swap1\n      pop\n        /* \"#utility.yul\":9039:9405   */\n      swap2\n      swap1\n      pop\n      jump\t// out\n        /* \"#utility.yul\":9411:9777   */\n    tag_616:\n        /* \"#utility.yul\":9553:9556   */\n      0x00\n        /* \"#utility.yul\":9574:9641   */\n      tag_618\n        /* \"#utility.yul\":9638:9640   */\n      0x15\n        /* \"#utility.yul\":9633:9636   */\n      dup4\n        /* \"#utility.yul\":9574:9641   */\n      tag_580\n      jump\t// in\n    tag_618:\n        /* \"#utility.yul\":9567:9641   */\n      swap2\n      pop\n        /* \"#utility.yul\":9650:9743   */\n      tag_619\n        /* \"#utility.yul\":9739:9742   */\n      dup3\n        /* \"#utility.yul\":9650:9743   */\n      tag_620\n      jump\t// in\n    tag_619:\n        /* \"#utility.yul\":9768:9770   */\n      0x20\n        /* \"#utility.yul\":9763:9766   */\n      dup3\n        /* \"#utility.yul\":9759:9771   */\n      add\n        /* \"#utility.yul\":9752:9771   */\n      swap1\n      pop\n        /* \"#utility.yul\":9411:9777   */\n      swap2\n      swap1\n      pop\n      jump\t// out\n        /* \"#utility.yul\":9783:10149   */\n    tag_621:\n        /* \"#utility.yul\":9925:9928   */\n      0x00\n        /* \"#utility.yul\":9946:10013   */\n      tag_623\n        /* \"#utility.yul\":10010:10012   */\n      0x15\n        /* \"#utility.yul\":10005:10008   */\n      dup4\n        /* \"#utility.yul\":9946:10013   */\n      tag_580\n      jump\t// in\n    tag_623:\n        /* \"#utility.yul\":9939:10013   */\n      swap2\n      pop\n        /* \"#utility.yul\":10022:10115   */\n      tag_624\n        /* \"#utility.yul\":10111:10114   */\n      dup3\n        /* \"#utility.yul\":10022:10115   */\n      tag_625\n      jump\t// in\n    tag_624:\n        /* \"#utility.yul\":10140:10142   */\n      0x20\n        /* \"#utility.yul\":10135:10138   */\n      dup3\n        /* \"#utility.yul\":10131:10143   */\n      add\n        /* \"#utility.yul\":10124:10143   */\n      swap1\n      pop\n        /* \"#utility.yul\":9783:10149   */\n      swap2\n      swap1\n      pop\n      jump\t// out\n        /* \"#utility.yul\":10155:10521   */\n    tag_626:\n        /* \"#utility.yul\":10297:10300   */\n      0x00\n        /* \"#utility.yul\":10318:10385   */\n      tag_628\n        /* \"#utility.yul\":10382:10384   */\n      0x10\n        /* \"#utility.yul\":10377:10380   */\n      dup4\n        /* \"#utility.yul\":10318:10385   */\n      tag_580\n      jump\t// in\n    tag_628:\n        /* \"#utility.yul\":10311:10385   */\n      swap2\n      pop\n        /* \"#utility.yul\":10394:10487   */\n      tag_629\n        /* \"#utility.yul\":10483:10486   */\n      dup3\n        /* \"#utility.yul\":10394:10487   */\n      tag_630\n      jump\t// in\n    tag_629:\n        /* \"#utility.yul\":10512:10514   */\n      0x20\n        /* \"#utility.yul\":10507:10510   */\n      dup3\n        /* \"#utility.yul\":10503:10515   */\n      add\n        /* \"#utility.yul\":10496:10515   */\n      swap1\n      pop\n        /* \"#utility.yul\":10155:10521   */\n      swap2\n      swap1\n      pop\n      jump\t// out\n        /* \"#utility.yul\":10527:10893   */\n    tag_631:\n        /* \"#utility.yul\":10669:10672   */\n      0x00\n        /* \"#utility.yul\":10690:10757   */\n      tag_633\n        /* \"#utility.yul\":10754:10756   */\n      0x11\n        /* \"#utility.yul\":10749:10752   */\n      dup4\n        /* \"#utility.yul\":10690:10757   */\n      tag_580\n      jump\t// in\n    tag_633:\n        /* \"#utility.yul\":10683:10757   */\n      swap2\n      pop\n        /* \"#utility.yul\":10766:10859   */\n      tag_634\n        /* \"#utility.yul\":10855:10858   */\n      dup3\n        /* \"#utility.yul\":10766:10859   */\n      tag_635\n      jump\t// in\n    tag_634:\n        /* \"#utility.yul\":10884:10886   */\n      0x20\n        /* \"#utility.yul\":10879:10882   */\n      dup3\n        /* \"#utility.yul\":10875:10887   */\n      add\n        /* \"#utility.yul\":10868:10887   */\n      swap1\n      pop\n        /* \"#utility.yul\":10527:10893   */\n      swap2\n      swap1\n      pop\n      jump\t// out\n        /* \"#utility.yul\":10963:12005   */\n    tag_636:\n        /* \"#utility.yul\":11118:11122   */\n      0xa0\n        /* \"#utility.yul\":11113:11116   */\n      dup3\n        /* \"#utility.yul\":11109:11123   */\n      add\n        /* \"#utility.yul\":11206:11210   */\n      0x00\n        /* \"#utility.yul\":11199:11204   */\n      dup3\n        /* \"#utility.yul\":11195:11211   */\n      add\n        /* \"#utility.yul\":11189:11212   */\n      mload\n        /* \"#utility.yul\":11225:11288   */\n      tag_638\n        /* \"#utility.yul\":11282:11286   */\n      0x00\n        /* \"#utility.yul\":11277:11280   */\n      dup6\n        /* \"#utility.yul\":11273:11287   */\n      add\n        /* \"#utility.yul\":11259:11271   */\n      dup3\n        /* \"#utility.yul\":11225:11288   */\n      tag_639\n      jump\t// in\n    tag_638:\n        /* \"#utility.yul\":11133:11298   */\n      pop\n        /* \"#utility.yul\":11381:11385   */\n      0x20\n        /* \"#utility.yul\":11374:11379   */\n      dup3\n        /* \"#utility.yul\":11370:11386   */\n      add\n        /* \"#utility.yul\":11364:11387   */\n      mload\n        /* \"#utility.yul\":11400:11463   */\n      tag_640\n        /* \"#utility.yul\":11457:11461   */\n      0x20\n        /* \"#utility.yul\":11452:11455   */\n      dup6\n        /* \"#utility.yul\":11448:11462   */\n      add\n        /* \"#utility.yul\":11434:11446   */\n      dup3\n        /* \"#utility.yul\":11400:11463   */\n      tag_639\n      jump\t// in\n    tag_640:\n        /* \"#utility.yul\":11308:11473   */\n      pop\n        /* \"#utility.yul\":11556:11560   */\n      0x40\n        /* \"#utility.yul\":11549:11554   */\n      dup3\n        /* \"#utility.yul\":11545:11561   */\n      add\n        /* \"#utility.yul\":11539:11562   */\n      mload\n        /* \"#utility.yul\":11575:11638   */\n      tag_641\n        /* \"#utility.yul\":11632:11636   */\n      0x40\n        /* \"#utility.yul\":11627:11630   */\n      dup6\n        /* \"#utility.yul\":11623:11637   */\n      add\n        /* \"#utility.yul\":11609:11621   */\n      dup3\n        /* \"#utility.yul\":11575:11638   */\n      tag_639\n      jump\t// in\n    tag_641:\n        /* \"#utility.yul\":11483:11648   */\n      pop\n        /* \"#utility.yul\":11731:11735   */\n      0x60\n        /* \"#utility.yul\":11724:11729   */\n      dup3\n        /* \"#utility.yul\":11720:11736   */\n      add\n        /* \"#utility.yul\":11714:11737   */\n      mload\n        /* \"#utility.yul\":11750:11813   */\n      tag_642\n        /* \"#utility.yul\":11807:11811   */\n      0x60\n        /* \"#utility.yul\":11802:11805   */\n      dup6\n        /* \"#utility.yul\":11798:11812   */\n      add\n        /* \"#utility.yul\":11784:11796   */\n      dup3\n        /* \"#utility.yul\":11750:11813   */\n      tag_639\n      jump\t// in\n    tag_642:\n        /* \"#utility.yul\":11658:11823   */\n      pop\n        /* \"#utility.yul\":11906:11910   */\n      0x80\n        /* \"#utility.yul\":11899:11904   */\n      dup3\n        /* \"#utility.yul\":11895:11911   */\n      add\n        /* \"#utility.yul\":11889:11912   */\n      mload\n        /* \"#utility.yul\":11925:11988   */\n      tag_643\n        /* \"#utility.yul\":11982:11986   */\n      0x80\n        /* \"#utility.yul\":11977:11980   */\n      dup6\n        /* \"#utility.yul\":11973:11987   */\n      add\n        /* \"#utility.yul\":11959:11971   */\n      dup3\n        /* \"#utility.yul\":11925:11988   */\n      tag_639\n      jump\t// in\n    tag_643:\n        /* \"#utility.yul\":11833:11998   */\n      pop\n        /* \"#utility.yul\":11087:12005   */\n      pop\n        /* \"#utility.yul\":10963:12005   */\n      pop\n      pop\n      jump\t// out\n        /* \"#utility.yul\":12011:12119   */\n    tag_639:\n        /* \"#utility.yul\":12088:12112   */\n      tag_645\n        /* \"#utility.yul\":12106:12111   */\n      dup2\n        /* \"#utility.yul\":12088:12112   */\n      tag_646\n      jump\t// in\n    tag_645:\n        /* \"#utility.yul\":12083:12086   */\n      dup3\n        /* \"#utility.yul\":12076:12113   */\n      mstore\n        /* \"#utility.yul\":12011:12119   */\n      pop\n      pop\n      jump\t// out\n        /* \"#utility.yul\":12125:12243   */\n    tag_647:\n        /* \"#utility.yul\":12212:12236   */\n      tag_649\n        /* \"#utility.yul\":12230:12235   */\n      dup2\n        /* \"#utility.yul\":12212:12236   */\n      tag_646\n      jump\t// in\n    tag_649:\n        /* \"#utility.yul\":12207:12210   */\n      dup3\n        /* \"#utility.yul\":12200:12237   */\n      mstore\n        /* \"#utility.yul\":12125:12243   */\n      pop\n      pop\n      jump\t// out\n        /* \"#utility.yul\":12249:12406   */\n    tag_650:\n        /* \"#utility.yul\":12354:12399   */\n      tag_652\n        /* \"#utility.yul\":12374:12398   */\n      tag_653\n        /* \"#utility.yul\":12392:12397   */\n      dup3\n        /* \"#utility.yul\":12374:12398   */\n      tag_646\n      jump\t// in\n    tag_653:\n        /* \"#utility.yul\":12354:12399   */\n      tag_654\n      jump\t// in\n    tag_652:\n        /* \"#utility.yul\":12349:12352   */\n      dup3\n        /* \"#utility.yul\":12342:12400   */\n      mstore\n        /* \"#utility.yul\":12249:12406   */\n      pop\n      pop\n      jump\t// out\n        /* \"#utility.yul\":12412:12668   */\n    tag_428:\n        /* \"#utility.yul\":12524:12527   */\n      0x00\n        /* \"#utility.yul\":12539:12614   */\n      tag_656\n        /* \"#utility.yul\":12610:12613   */\n      dup3\n        /* \"#utility.yul\":12601:12607   */\n      dup5\n        /* \"#utility.yul\":12539:12614   */\n      tag_570\n      jump\t// in\n    tag_656:\n        /* \"#utility.yul\":12639:12641   */\n      0x20\n        /* \"#utility.yul\":12634:12637   */\n      dup3\n        /* \"#utility.yul\":12630:12642   */\n      add\n        /* \"#utility.yul\":12623:12642   */\n      swap2\n      pop\n        /* \"#utility.yul\":12659:12662   */\n      dup2\n        /* \"#utility.yul\":12652:12662   */\n      swap1\n      pop\n        /* \"#utility.yul\":12412:12668   */\n      swap3\n      swap2\n      pop\n      pop\n      jump\t// out\n        /* \"#utility.yul\":12674:12949   */\n    tag_152:\n        /* \"#utility.yul\":12806:12809   */\n      0x00\n        /* \"#utility.yul\":12828:12923   */\n      tag_658\n        /* \"#utility.yul\":12919:12922   */\n      dup3\n        /* \"#utility.yul\":12910:12916   */\n      dup5\n        /* \"#utility.yul\":12828:12923   */\n      tag_585\n      jump\t// in\n    tag_658:\n        /* \"#utility.yul\":12821:12923   */\n      swap2\n      pop\n        /* \"#utility.yul\":12940:12943   */\n      dup2\n        /* \"#utility.yul\":12933:12943   */\n      swap1\n      pop\n        /* \"#utility.yul\":12674:12949   */\n      swap3\n      swap2\n      pop\n      pop\n      jump\t// out\n        /* \"#utility.yul\":12955:13211   */\n    tag_423:\n        /* \"#utility.yul\":13067:13070   */\n      0x00\n        /* \"#utility.yul\":13082:13157   */\n      tag_660\n        /* \"#utility.yul\":13153:13156   */\n      dup3\n        /* \"#utility.yul\":13144:13150   */\n      dup5\n        /* \"#utility.yul\":13082:13157   */\n      tag_650\n      jump\t// in\n    tag_660:\n        /* \"#utility.yul\":13182:13184   */\n      0x20\n        /* \"#utility.yul\":13177:13180   */\n      dup3\n        /* \"#utility.yul\":13173:13185   */\n      add\n        /* \"#utility.yul\":13166:13185   */\n      swap2\n      pop\n        /* \"#utility.yul\":13202:13205   */\n      dup2\n        /* \"#utility.yul\":13195:13205   */\n      swap1\n      pop\n        /* \"#utility.yul\":12955:13211   */\n      swap3\n      swap2\n      pop\n      pop\n      jump\t// out\n        /* \"#utility.yul\":13217:13549   */\n    tag_19:\n        /* \"#utility.yul\":13338:13342   */\n      0x00\n        /* \"#utility.yul\":13376:13378   */\n      0x40\n        /* \"#utility.yul\":13365:13374   */\n      dup3\n        /* \"#utility.yul\":13361:13379   */\n      add\n        /* \"#utility.yul\":13353:13379   */\n      swap1\n      pop\n        /* \"#utility.yul\":13389:13460   */\n      tag_662\n        /* \"#utility.yul\":13457:13458   */\n      0x00\n        /* \"#utility.yul\":13446:13455   */\n      dup4\n        /* \"#utility.yul\":13442:13459   */\n      add\n        /* \"#utility.yul\":13433:13439   */\n      dup6\n        /* \"#utility.yul\":13389:13460   */\n      tag_558\n      jump\t// in\n    tag_662:\n        /* \"#utility.yul\":13470:13542   */\n      tag_663\n        /* \"#utility.yul\":13538:13540   */\n      0x20\n        /* \"#utility.yul\":13527:13536   */\n      dup4\n        /* \"#utility.yul\":13523:13541   */\n      add\n        /* \"#utility.yul\":13514:13520   */\n      dup5\n        /* \"#utility.yul\":13470:13542   */\n      tag_647\n      jump\t// in\n    tag_663:\n        /* \"#utility.yul\":13217:13549   */\n      swap4\n      swap3\n      pop\n      pop\n      pop\n      jump\t// out\n        /* \"#utility.yul\":13555:13765   */\n    tag_26:\n        /* \"#utility.yul\":13642:13646   */\n      0x00\n        /* \"#utility.yul\":13680:13682   */\n      0x20\n        /* \"#utility.yul\":13669:13678   */\n      dup3\n        /* \"#utility.yul\":13665:13683   */\n      add\n        /* \"#utility.yul\":13657:13683   */\n      swap1\n      pop\n        /* \"#utility.yul\":13693:13758   */\n      tag_665\n        /* \"#utility.yul\":13755:13756   */\n      0x00\n        /* \"#utility.yul\":13744:13753   */\n      dup4\n        /* \"#utility.yul\":13740:13757   */\n      add\n        /* \"#utility.yul\":13731:13737   */\n      dup5\n        /* \"#utility.yul\":13693:13758   */\n      tag_562\n      jump\t// in\n    tag_665:\n        /* \"#utility.yul\":13555:13765   */\n      swap3\n      swap2\n      pop\n      pop\n      jump\t// out\n        /* \"#utility.yul\":13771:13993   */\n    tag_39:\n        /* \"#utility.yul\":13864:13868   */\n      0x00\n        /* \"#utility.yul\":13902:13904   */\n      0x20\n        /* \"#utility.yul\":13891:13900   */\n      dup3\n        /* \"#utility.yul\":13887:13905   */\n      add\n        /* \"#utility.yul\":13879:13905   */\n      swap1\n      pop\n        /* \"#utility.yul\":13915:13986   */\n      tag_667\n        /* \"#utility.yul\":13983:13984   */\n      0x00\n        /* \"#utility.yul\":13972:13981   */\n      dup4\n        /* \"#utility.yul\":13968:13985   */\n      add\n        /* \"#utility.yul\":13959:13965   */\n      dup5\n        /* \"#utility.yul\":13915:13986   */\n      tag_566\n      jump\t// in\n    tag_667:\n        /* \"#utility.yul\":13771:13993   */\n      swap3\n      swap2\n      pop\n      pop\n      jump\t// out\n        /* \"#utility.yul\":13999:14740   */\n    tag_72:\n        /* \"#utility.yul\":14246:14250   */\n      0x00\n        /* \"#utility.yul\":14284:14287   */\n      0xe0\n        /* \"#utility.yul\":14273:14282   */\n      dup3\n        /* \"#utility.yul\":14269:14288   */\n      add\n        /* \"#utility.yul\":14261:14288   */\n      swap1\n      pop\n        /* \"#utility.yul\":14334:14343   */\n      dup2\n        /* \"#utility.yul\":14328:14332   */\n      dup2\n        /* \"#utility.yul\":14324:14344   */\n      sub\n        /* \"#utility.yul\":14320:14321   */\n      0x00\n        /* \"#utility.yul\":14309:14318   */\n      dup4\n        /* \"#utility.yul\":14305:14322   */\n      add\n        /* \"#utility.yul\":14298:14345   */\n      mstore\n        /* \"#utility.yul\":14362:14440   */\n      tag_669\n        /* \"#utility.yul\":14435:14439   */\n      dup2\n        /* \"#utility.yul\":14426:14432   */\n      dup7\n        /* \"#utility.yul\":14362:14440   */\n      tag_575\n      jump\t// in\n    tag_669:\n        /* \"#utility.yul\":14354:14440   */\n      swap1\n      pop\n        /* \"#utility.yul\":14487:14496   */\n      dup2\n        /* \"#utility.yul\":14481:14485   */\n      dup2\n        /* \"#utility.yul\":14477:14497   */\n      sub\n        /* \"#utility.yul\":14472:14474   */\n      0x20\n        /* \"#utility.yul\":14461:14470   */\n      dup4\n        /* \"#utility.yul\":14457:14475   */\n      add\n        /* \"#utility.yul\":14450:14498   */\n      mstore\n        /* \"#utility.yul\":14515:14593   */\n      tag_670\n        /* \"#utility.yul\":14588:14592   */\n      dup2\n        /* \"#utility.yul\":14579:14585   */\n      dup6\n        /* \"#utility.yul\":14515:14593   */\n      tag_575\n      jump\t// in\n    tag_670:\n        /* \"#utility.yul\":14507:14593   */\n      swap1\n      pop\n        /* \"#utility.yul\":14603:14733   */\n      tag_671\n        /* \"#utility.yul\":14729:14731   */\n      0x40\n        /* \"#utility.yul\":14718:14727   */\n      dup4\n        /* \"#utility.yul\":14714:14732   */\n      add\n        /* \"#utility.yul\":14705:14711   */\n      dup5\n        /* \"#utility.yul\":14603:14733   */\n      tag_636\n      jump\t// in\n    tag_671:\n        /* \"#utility.yul\":13999:14740   */\n      swap5\n      swap4\n      pop\n      pop\n      pop\n      pop\n      jump\t// out\n        /* \"#utility.yul\":14746:15165   */\n    tag_76:\n        /* \"#utility.yul\":14912:14916   */\n      0x00\n        /* \"#utility.yul\":14950:14952   */\n      0x20\n        /* \"#utility.yul\":14939:14948   */\n      dup3\n        /* \"#utility.yul\":14935:14953   */\n      add\n        /* \"#utility.yul\":14927:14953   */\n      swap1\n      pop\n        /* \"#utility.yul\":14999:15008   */\n      dup2\n        /* \"#utility.yul\":14993:14997   */\n      dup2\n        /* \"#utility.yul\":14989:15009   */\n      sub\n        /* \"#utility.yul\":14985:14986   */\n      0x00\n        /* \"#utility.yul\":14974:14983   */\n      dup4\n        /* \"#utility.yul\":14970:14987   */\n      add\n        /* \"#utility.yul\":14963:15010   */\n      mstore\n        /* \"#utility.yul\":15027:15158   */\n      tag_673\n        /* \"#utility.yul\":15153:15157   */\n      dup2\n        /* \"#utility.yul\":15027:15158   */\n      tag_591\n      jump\t// in\n    tag_673:\n        /* \"#utility.yul\":15019:15158   */\n      swap1\n      pop\n        /* \"#utility.yul\":14746:15165   */\n      swap2\n      swap1\n      pop\n      jump\t// out\n        /* \"#utility.yul\":15171:15590   */\n    tag_373:\n        /* \"#utility.yul\":15337:15341   */\n      0x00\n        /* \"#utility.yul\":15375:15377   */\n      0x20\n        /* \"#utility.yul\":15364:15373   */\n      dup3\n        /* \"#utility.yul\":15360:15378   */\n      add\n        /* \"#utility.yul\":15352:15378   */\n      swap1\n      pop\n        /* \"#utility.yul\":15424:15433   */\n      dup2\n        /* \"#utility.yul\":15418:15422   */\n      dup2\n        /* \"#utility.yul\":15414:15434   */\n      sub\n        /* \"#utility.yul\":15410:15411   */\n      0x00\n        /* \"#utility.yul\":15399:15408   */\n      dup4\n        /* \"#utility.yul\":15395:15412   */\n      add\n        /* \"#utility.yul\":15388:15435   */\n      mstore\n        /* \"#utility.yul\":15452:15583   */\n      tag_675\n        /* \"#utility.yul\":15578:15582   */\n      dup2\n        /* \"#utility.yul\":15452:15583   */\n      tag_596\n      jump\t// in\n    tag_675:\n        /* \"#utility.yul\":15444:15583   */\n      swap1\n      pop\n        /* \"#utility.yul\":15171:15590   */\n      swap2\n      swap1\n      pop\n      jump\t// out\n        /* \"#utility.yul\":15596:16015   */\n    tag_82:\n        /* \"#utility.yul\":15762:15766   */\n      0x00\n        /* \"#utility.yul\":15800:15802   */\n      0x20\n        /* \"#utility.yul\":15789:15798   */\n      dup3\n        /* \"#utility.yul\":15785:15803   */\n      add\n        /* \"#utility.yul\":15777:15803   */\n      swap1\n      pop\n        /* \"#utility.yul\":15849:15858   */\n      dup2\n        /* \"#utility.yul\":15843:15847   */\n      dup2\n        /* \"#utility.yul\":15839:15859   */\n      sub\n        /* \"#utility.yul\":15835:15836   */\n      0x00\n        /* \"#utility.yul\":15824:15833   */\n      dup4\n        /* \"#utility.yul\":15820:15837   */\n      add\n        /* \"#utility.yul\":15813:15860   */\n      mstore\n        /* \"#utility.yul\":15877:16008   */\n      tag_677\n        /* \"#utility.yul\":16003:16007   */\n      dup2\n        /* \"#utility.yul\":15877:16008   */\n      tag_601\n      jump\t// in\n    tag_677:\n        /* \"#utility.yul\":15869:16008   */\n      swap1\n      pop\n        /* \"#utility.yul\":15596:16015   */\n      swap2\n      swap1\n      pop\n      jump\t// out\n        /* \"#utility.yul\":16021:16440   */\n    tag_137:\n        /* \"#utility.yul\":16187:16191   */\n      0x00\n        /* \"#utility.yul\":16225:16227   */\n      0x20\n        /* \"#utility.yul\":16214:16223   */\n      dup3\n        /* \"#utility.yul\":16210:16228   */\n      add\n        /* \"#utility.yul\":16202:16228   */\n      swap1\n      pop\n        /* \"#utility.yul\":16274:16283   */\n      dup2\n        /* \"#utility.yul\":16268:16272   */\n      dup2\n        /* \"#utility.yul\":16264:16284   */\n      sub\n        /* \"#utility.yul\":16260:16261   */\n      0x00\n        /* \"#utility.yul\":16249:16258   */\n      dup4\n        /* \"#utility.yul\":16245:16262   */\n      add\n        /* \"#utility.yul\":16238:16285   */\n      mstore\n        /* \"#utility.yul\":16302:16433   */\n      tag_679\n        /* \"#utility.yul\":16428:16432   */\n      dup2\n        /* \"#utility.yul\":16302:16433   */\n      tag_606\n      jump\t// in\n    tag_679:\n        /* \"#utility.yul\":16294:16433   */\n      swap1\n      pop\n        /* \"#utility.yul\":16021:16440   */\n      swap2\n      swap1\n      pop\n      jump\t// out\n        /* \"#utility.yul\":16446:16865   */\n    tag_156:\n        /* \"#utility.yul\":16612:16616   */\n      0x00\n        /* \"#utility.yul\":16650:16652   */\n      0x20\n        /* \"#utility.yul\":16639:16648   */\n      dup3\n        /* \"#utility.yul\":16635:16653   */\n      add\n        /* \"#utility.yul\":16627:16653   */\n      swap1\n      pop\n        /* \"#utility.yul\":16699:16708   */\n      dup2\n        /* \"#utility.yul\":16693:16697   */\n      dup2\n        /* \"#utility.yul\":16689:16709   */\n      sub\n        /* \"#utility.yul\":16685:16686   */\n      0x00\n        /* \"#utility.yul\":16674:16683   */\n      dup4\n        /* \"#utility.yul\":16670:16687   */\n      add\n        /* \"#utility.yul\":16663:16710   */\n      mstore\n        /* \"#utility.yul\":16727:16858   */\n      tag_681\n        /* \"#utility.yul\":16853:16857   */\n      dup2\n        /* \"#utility.yul\":16727:16858   */\n      tag_611\n      jump\t// in\n    tag_681:\n        /* \"#utility.yul\":16719:16858   */\n      swap1\n      pop\n        /* \"#utility.yul\":16446:16865   */\n      swap2\n      swap1\n      pop\n      jump\t// out\n        /* \"#utility.yul\":16871:17290   */\n    tag_111:\n        /* \"#utility.yul\":17037:17041   */\n      0x00\n        /* \"#utility.yul\":17075:17077   */\n      0x20\n        /* \"#utility.yul\":17064:17073   */\n      dup3\n        /* \"#utility.yul\":17060:17078   */\n      add\n        /* \"#utility.yul\":17052:17078   */\n      swap1\n      pop\n        /* \"#utility.yul\":17124:17133   */\n      dup2\n        /* \"#utility.yul\":17118:17122   */\n      dup2\n        /* \"#utility.yul\":17114:17134   */\n      sub\n        /* \"#utility.yul\":17110:17111   */\n      0x00\n        /* \"#utility.yul\":17099:17108   */\n      dup4\n        /* \"#utility.yul\":17095:17112   */\n      add\n        /* \"#utility.yul\":17088:17135   */\n      mstore\n        /* \"#utility.yul\":17152:17283   */\n      tag_683\n        /* \"#utility.yul\":17278:17282   */\n      dup2\n        /* \"#utility.yul\":17152:17283   */\n      tag_616\n      jump\t// in\n    tag_683:\n        /* \"#utility.yul\":17144:17283   */\n      swap1\n      pop\n        /* \"#utility.yul\":16871:17290   */\n      swap2\n      swap1\n      pop\n      jump\t// out\n        /* \"#utility.yul\":17296:17715   */\n    tag_204:\n        /* \"#utility.yul\":17462:17466   */\n      0x00\n        /* \"#utility.yul\":17500:17502   */\n      0x20\n        /* \"#utility.yul\":17489:17498   */\n      dup3\n        /* \"#utility.yul\":17485:17503   */\n      add\n        /* \"#utility.yul\":17477:17503   */\n      swap1\n      pop\n        /* \"#utility.yul\":17549:17558   */\n      dup2\n        /* \"#utility.yul\":17543:17547   */\n      dup2\n        /* \"#utility.yul\":17539:17559   */\n      sub\n        /* \"#utility.yul\":17535:17536   */\n      0x00\n        /* \"#utility.yul\":17524:17533   */\n      dup4\n        /* \"#utility.yul\":17520:17537   */\n      add\n        /* \"#utility.yul\":17513:17560   */\n      mstore\n        /* \"#utility.yul\":17577:17708   */\n      tag_685\n        /* \"#utility.yul\":17703:17707   */\n      dup2\n        /* \"#utility.yul\":17577:17708   */\n      tag_621\n      jump\t// in\n    tag_685:\n        /* \"#utility.yul\":17569:17708   */\n      swap1\n      pop\n        /* \"#utility.yul\":17296:17715   */\n      swap2\n      swap1\n      pop\n      jump\t// out\n        /* \"#utility.yul\":17721:18140   */\n    tag_140:\n        /* \"#utility.yul\":17887:17891   */\n      0x00\n        /* \"#utility.yul\":17925:17927   */\n      0x20\n        /* \"#utility.yul\":17914:17923   */\n      dup3\n        /* \"#utility.yul\":17910:17928   */\n      add\n        /* \"#utility.yul\":17902:17928   */\n      swap1\n      pop\n        /* \"#utility.yul\":17974:17983   */\n      dup2\n        /* \"#utility.yul\":17968:17972   */\n      dup2\n        /* \"#utility.yul\":17964:17984   */\n      sub\n        /* \"#utility.yul\":17960:17961   */\n      0x00\n        /* \"#utility.yul\":17949:17958   */\n      dup4\n        /* \"#utility.yul\":17945:17962   */\n      add\n        /* \"#utility.yul\":17938:17985   */\n      mstore\n        /* \"#utility.yul\":18002:18133   */\n      tag_687\n        /* \"#utility.yul\":18128:18132   */\n      dup2\n        /* \"#utility.yul\":18002:18133   */\n      tag_626\n      jump\t// in\n    tag_687:\n        /* \"#utility.yul\":17994:18133   */\n      swap1\n      pop\n        /* \"#utility.yul\":17721:18140   */\n      swap2\n      swap1\n      pop\n      jump\t// out\n        /* \"#utility.yul\":18146:18565   */\n    tag_269:\n        /* \"#utility.yul\":18312:18316   */\n      0x00\n        /* \"#utility.yul\":18350:18352   */\n      0x20\n        /* \"#utility.yul\":18339:18348   */\n      dup3\n        /* \"#utility.yul\":18335:18353   */\n      add\n        /* \"#utility.yul\":18327:18353   */\n      swap1\n      pop\n        /* \"#utility.yul\":18399:18408   */\n      dup2\n        /* \"#utility.yul\":18393:18397   */\n      dup2\n        /* \"#utility.yul\":18389:18409   */\n      sub\n        /* \"#utility.yul\":18385:18386   */\n      0x00\n        /* \"#utility.yul\":18374:18383   */\n      dup4\n        /* \"#utility.yul\":18370:18387   */\n      add\n        /* \"#utility.yul\":18363:18410   */\n      mstore\n        /* \"#utility.yul\":18427:18558   */\n      tag_689\n        /* \"#utility.yul\":18553:18557   */\n      dup2\n        /* \"#utility.yul\":18427:18558   */\n      tag_631\n      jump\t// in\n    tag_689:\n        /* \"#utility.yul\":18419:18558   */\n      swap1\n      pop\n        /* \"#utility.yul\":18146:18565   */\n      swap2\n      swap1\n      pop\n      jump\t// out\n        /* \"#utility.yul\":18571:18793   */\n    tag_44:\n        /* \"#utility.yul\":18664:18668   */\n      0x00\n        /* \"#utility.yul\":18702:18704   */\n      0x20\n        /* \"#utility.yul\":18691:18700   */\n      dup3\n        /* \"#utility.yul\":18687:18705   */\n      add\n        /* \"#utility.yul\":18679:18705   */\n      swap1\n      pop\n        /* \"#utility.yul\":18715:18786   */\n      tag_691\n        /* \"#utility.yul\":18783:18784   */\n      0x00\n        /* \"#utility.yul\":18772:18781   */\n      dup4\n        /* \"#utility.yul\":18768:18785   */\n      add\n        /* \"#utility.yul\":18759:18765   */\n      dup5\n        /* \"#utility.yul\":18715:18786   */\n      tag_647\n      jump\t// in\n    tag_691:\n        /* \"#utility.yul\":18571:18793   */\n      swap3\n      swap2\n      pop\n      pop\n      jump\t// out\n        /* \"#utility.yul\":18799:18928   */\n    tag_480:\n        /* \"#utility.yul\":18833:18839   */\n      0x00\n        /* \"#utility.yul\":18860:18880   */\n      tag_693\n      tag_694\n      jump\t// in\n    tag_693:\n        /* \"#utility.yul\":18850:18880   */\n      swap1\n      pop\n        /* \"#utility.yul\":18889:18922   */\n      tag_695\n        /* \"#utility.yul\":18917:18921   */\n      dup3\n        /* \"#utility.yul\":18909:18915   */\n      dup3\n        /* \"#utility.yul\":18889:18922   */\n      tag_696\n      jump\t// in\n    tag_695:\n        /* \"#utility.yul\":18799:18928   */\n      swap2\n      swap1\n      pop\n      jump\t// out\n        /* \"#utility.yul\":18934:19009   */\n    tag_694:\n        /* \"#utility.yul\":18967:18973   */\n      0x00\n        /* \"#utility.yul\":19000:19002   */\n      0x40\n        /* \"#utility.yul\":18994:19003   */\n      mload\n        /* \"#utility.yul\":18984:19003   */\n      swap1\n      pop\n        /* \"#utility.yul\":18934:19009   */\n      swap1\n      jump\t// out\n        /* \"#utility.yul\":19015:19323   */\n    tag_479:\n        /* \"#utility.yul\":19077:19081   */\n      0x00\n        /* \"#utility.yul\":19167:19185   */\n      0xffffffffffffffff\n        /* \"#utility.yul\":19159:19165   */\n      dup3\n        /* \"#utility.yul\":19156:19186   */\n      gt\n        /* \"#utility.yul\":19153:19209   */\n      iszero\n      tag_699\n      jumpi\n        /* \"#utility.yul\":19189:19207   */\n      tag_700\n      tag_400\n      jump\t// in\n    tag_700:\n        /* \"#utility.yul\":19153:19209   */\n    tag_699:\n        /* \"#utility.yul\":19227:19256   */\n      tag_701\n        /* \"#utility.yul\":19249:19255   */\n      dup3\n        /* \"#utility.yul\":19227:19256   */\n      tag_584\n      jump\t// in\n    tag_701:\n        /* \"#utility.yul\":19219:19256   */\n      swap1\n      pop\n        /* \"#utility.yul\":19311:19315   */\n      0x20\n        /* \"#utility.yul\":19305:19309   */\n      dup2\n        /* \"#utility.yul\":19301:19316   */\n      add\n        /* \"#utility.yul\":19293:19316   */\n      swap1\n      pop\n        /* \"#utility.yul\":19015:19323   */\n      swap2\n      swap1\n      pop\n      jump\t// out\n        /* \"#utility.yul\":19329:19428   */\n    tag_578:\n        /* \"#utility.yul\":19381:19387   */\n      0x00\n        /* \"#utility.yul\":19415:19420   */\n      dup2\n        /* \"#utility.yul\":19409:19421   */\n      mload\n        /* \"#utility.yul\":19399:19421   */\n      swap1\n      pop\n        /* \"#utility.yul\":19329:19428   */\n      swap2\n      swap1\n      pop\n      jump\t// out\n        /* \"#utility.yul\":19434:19603   */\n    tag_580:\n        /* \"#utility.yul\":19518:19529   */\n      0x00\n        /* \"#utility.yul\":19552:19558   */\n      dup3\n        /* \"#utility.yul\":19547:19550   */\n      dup3\n        /* \"#utility.yul\":19540:19559   */\n      mstore\n        /* \"#utility.yul\":19592:19596   */\n      0x20\n        /* \"#utility.yul\":19587:19590   */\n      dup3\n        /* \"#utility.yul\":19583:19597   */\n      add\n        /* \"#utility.yul\":19568:19597   */\n      swap1\n      pop\n        /* \"#utility.yul\":19434:19603   */\n      swap3\n      swap2\n      pop\n      pop\n      jump\t// out\n        /* \"#utility.yul\":19609:19757   */\n    tag_589:\n        /* \"#utility.yul\":19711:19722   */\n      0x00\n        /* \"#utility.yul\":19748:19751   */\n      dup2\n        /* \"#utility.yul\":19733:19751   */\n      swap1\n      pop\n        /* \"#utility.yul\":19609:19757   */\n      swap3\n      swap2\n      pop\n      pop\n      jump\t// out\n        /* \"#utility.yul\":19763:20068   */\n    tag_17:\n        /* \"#utility.yul\":19803:19806   */\n      0x00\n        /* \"#utility.yul\":19822:19842   */\n      tag_706\n        /* \"#utility.yul\":19840:19841   */\n      dup3\n        /* \"#utility.yul\":19822:19842   */\n      tag_646\n      jump\t// in\n    tag_706:\n        /* \"#utility.yul\":19817:19842   */\n      swap2\n      pop\n        /* \"#utility.yul\":19856:19876   */\n      tag_707\n        /* \"#utility.yul\":19874:19875   */\n      dup4\n        /* \"#utility.yul\":19856:19876   */\n      tag_646\n      jump\t// in\n    tag_707:\n        /* \"#utility.yul\":19851:19876   */\n      swap3\n      pop\n        /* \"#utility.yul\":20010:20011   */\n      dup3\n        /* \"#utility.yul\":19942:20008   */\n      0xffffffffffffffffffffffffffffffffffffffffffffffffffffffffffffffff\n        /* \"#utility.yul\":19938:20012   */\n      sub\n        /* \"#utility.yul\":19935:19936   */\n      dup3\n        /* \"#utility.yul\":19932:20013   */\n      gt\n        /* \"#utility.yul\":19929:20036   */\n      iszero\n      tag_708\n      jumpi\n        /* \"#utility.yul\":20016:20034   */\n      tag_709\n      tag_710\n      jump\t// in\n    tag_709:\n        /* \"#utility.yul\":19929:20036   */\n    tag_708:\n        /* \"#utility.yul\":20060:20061   */\n      dup3\n        /* \"#utility.yul\":20057:20058   */\n      dup3\n        /* \"#utility.yul\":20053:20062   */\n      add\n        /* \"#utility.yul\":20046:20062   */\n      swap1\n      pop\n        /* \"#utility.yul\":19763:20068   */\n      swap3\n      swap2\n      pop\n      pop\n      jump\t// out\n        /* \"#utility.yul\":20074:20259   */\n    tag_315:\n        /* \"#utility.yul\":20114:20115   */\n      0x00\n        /* \"#utility.yul\":20131:20151   */\n      tag_712\n        /* \"#utility.yul\":20149:20150   */\n      dup3\n        /* \"#utility.yul\":20131:20151   */\n      tag_646\n      jump\t// in\n    tag_712:\n        /* \"#utility.yul\":20126:20151   */\n      swap2\n      pop\n        /* \"#utility.yul\":20165:20185   */\n      tag_713\n        /* \"#utility.yul\":20183:20184   */\n      dup4\n        /* \"#utility.yul\":20165:20185   */\n      tag_646\n      jump\t// in\n    tag_713:\n        /* \"#utility.yul\":20160:20185   */\n      swap3\n      pop\n        /* \"#utility.yul\":20204:20205   */\n      dup3\n        /* \"#utility.yul\":20194:20229   */\n      tag_714\n      jumpi\n        /* \"#utility.yul\":20209:20227   */\n      tag_715\n      tag_716\n      jump\t// in\n    tag_715:\n        /* \"#utility.yul\":20194:20229   */\n    tag_714:\n        /* \"#utility.yul\":20251:20252   */\n      dup3\n        /* \"#utility.yul\":20248:20249   */\n      dup3\n        /* \"#utility.yul\":20244:20253   */\n      div\n        /* \"#utility.yul\":20239:20253   */\n      swap1\n      pop\n        /* \"#utility.yul\":20074:20259   */\n      swap3\n      swap2\n      pop\n      pop\n      jump\t// out\n        /* \"#utility.yul\":20265:20613   */\n    tag_313:\n        /* \"#utility.yul\":20305:20312   */\n      0x00\n        /* \"#utility.yul\":20328:20348   */\n      tag_718\n        /* \"#utility.yul\":20346:20347   */\n      dup3\n        /* \"#utility.yul\":20328:20348   */\n      tag_646\n      jump\t// in\n    tag_718:\n        /* \"#utility.yul\":20323:20348   */\n      swap2\n      pop\n        /* \"#utility.yul\":20362:20382   */\n      tag_719\n        /* \"#utility.yul\":20380:20381   */\n      dup4\n        /* \"#utility.yul\":20362:20382   */\n      tag_646\n      jump\t// in\n    tag_719:\n        /* \"#utility.yul\":20357:20382   */\n      swap3\n      pop\n        /* \"#utility.yul\":20550:20551   */\n      dup2\n        /* \"#utility.yul\":20482:20548   */\n      0xffffffffffffffffffffffffffffffffffffffffffffffffffffffffffffffff\n        /* \"#utility.yul\":20478:20552   */\n      div\n        /* \"#utility.yul\":20475:20476   */\n      dup4\n        /* \"#utility.yul\":20472:20553   */\n      gt\n        /* \"#utility.yul\":20467:20468   */\n      dup3\n        /* \"#utility.yul\":20460:20469   */\n      iszero\n        /* \"#utility.yul\":20453:20470   */\n      iszero\n        /* \"#utility.yul\":20449:20554   */\n      and\n        /* \"#utility.yul\":20446:20577   */\n      iszero\n      tag_720\n      jumpi\n        /* \"#utility.yul\":20557:20575   */\n      tag_721\n      tag_710\n      jump\t// in\n    tag_721:\n        /* \"#utility.yul\":20446:20577   */\n    tag_720:\n        /* \"#utility.yul\":20605:20606   */\n      dup3\n        /* \"#utility.yul\":20602:20603   */\n      dup3\n        /* \"#utility.yul\":20598:20607   */\n      mul\n        /* \"#utility.yul\":20587:20607   */\n      swap1\n      pop\n        /* \"#utility.yul\":20265:20613   */\n      swap3\n      swap2\n      pop\n      pop\n      jump\t// out\n        /* \"#utility.yul\":20619:20810   */\n    tag_143:\n        /* \"#utility.yul\":20659:20663   */\n      0x00\n        /* \"#utility.yul\":20679:20699   */\n      tag_723\n        /* \"#utility.yul\":20697:20698   */\n      dup3\n        /* \"#utility.yul\":20679:20699   */\n      tag_646\n      jump\t// in\n    tag_723:\n        /* \"#utility.yul\":20674:20699   */\n      swap2\n      pop\n        /* \"#utility.yul\":20713:20733   */\n      tag_724\n        /* \"#utility.yul\":20731:20732   */\n      dup4\n        /* \"#utility.yul\":20713:20733   */\n      tag_646\n      jump\t// in\n    tag_724:\n        /* \"#utility.yul\":20708:20733   */\n      swap3\n      pop\n        /* \"#utility.yul\":20752:20753   */\n      dup3\n        /* \"#utility.yul\":20749:20750   */\n      dup3\n        /* \"#utility.yul\":20746:20754   */\n      lt\n        /* \"#utility.yul\":20743:20777   */\n      iszero\n      tag_725\n      jumpi\n        /* \"#utility.yul\":20757:20775   */\n      tag_726\n      tag_710\n      jump\t// in\n    tag_726:\n        /* \"#utility.yul\":20743:20777   */\n    tag_725:\n        /* \"#utility.yul\":20802:20803   */\n      dup3\n        /* \"#utility.yul\":20799:20800   */\n      dup3\n        /* \"#utility.yul\":20795:20804   */\n      sub\n        /* \"#utility.yul\":20787:20804   */\n      swap1\n      pop\n        /* \"#utility.yul\":20619:20810   */\n      swap3\n      swap2\n      pop\n      pop\n      jump\t// out\n        /* \"#utility.yul\":20816:20912   */\n    tag_561:\n        /* \"#utility.yul\":20853:20860   */\n      0x00\n        /* \"#utility.yul\":20882:20906   */\n      tag_728\n        /* \"#utility.yul\":20900:20905   */\n      dup3\n        /* \"#utility.yul\":20882:20906   */\n      tag_729\n      jump\t// in\n    tag_728:\n        /* \"#utility.yul\":20871:20906   */\n      swap1\n      pop\n        /* \"#utility.yul\":20816:20912   */\n      swap2\n      swap1\n      pop\n      jump\t// out\n        /* \"#utility.yul\":20918:21008   */\n    tag_565:\n        /* \"#utility.yul\":20952:20959   */\n      0x00\n        /* \"#utility.yul\":20995:21000   */\n      dup2\n        /* \"#utility.yul\":20988:21001   */\n      iszero\n        /* \"#utility.yul\":20981:21002   */\n      iszero\n        /* \"#utility.yul\":20970:21002   */\n      swap1\n      pop\n        /* \"#utility.yul\":20918:21008   */\n      swap2\n      swap1\n      pop\n      jump\t// out\n        /* \"#utility.yul\":21014:21091   */\n    tag_569:\n        /* \"#utility.yul\":21051:21058   */\n      0x00\n        /* \"#utility.yul\":21080:21085   */\n      dup2\n        /* \"#utility.yul\":21069:21085   */\n      swap1\n      pop\n        /* \"#utility.yul\":21014:21091   */\n      swap2\n      swap1\n      pop\n      jump\t// out\n        /* \"#utility.yul\":21097:21223   */\n    tag_729:\n        /* \"#utility.yul\":21134:21141   */\n      0x00\n        /* \"#utility.yul\":21174:21216   */\n      0xffffffffffffffffffffffffffffffffffffffff\n        /* \"#utility.yul\":21167:21172   */\n      dup3\n        /* \"#utility.yul\":21163:21217   */\n      and\n        /* \"#utility.yul\":21152:21217   */\n      swap1\n      pop\n        /* \"#utility.yul\":21097:21223   */\n      swap2\n      swap1\n      pop\n      jump\t// out\n        /* \"#utility.yul\":21229:21306   */\n    tag_646:\n        /* \"#utility.yul\":21266:21273   */\n      0x00\n        /* \"#utility.yul\":21295:21300   */\n      dup2\n        /* \"#utility.yul\":21284:21300   */\n      swap1\n      pop\n        /* \"#utility.yul\":21229:21306   */\n      swap2\n      swap1\n      pop\n      jump\t// out\n        /* \"#utility.yul\":21312:21466   */\n    tag_485:\n        /* \"#utility.yul\":21396:21402   */\n      dup3\n        /* \"#utility.yul\":21391:21394   */\n      dup2\n        /* \"#utility.yul\":21386:21389   */\n      dup4\n        /* \"#utility.yul\":21373:21403   */\n      calldatacopy\n        /* \"#utility.yul\":21458:21459   */\n      0x00\n        /* \"#utility.yul\":21449:21455   */\n      dup4\n        /* \"#utility.yul\":21444:21447   */\n      dup4\n        /* \"#utility.yul\":21440:21456   */\n      add\n        /* \"#utility.yul\":21433:21460   */\n      mstore\n        /* \"#utility.yul\":21312:21466   */\n      pop\n      pop\n      pop\n      jump\t// out\n        /* \"#utility.yul\":21472:21779   */\n    tag_582:\n        /* \"#utility.yul\":21540:21541   */\n      0x00\n        /* \"#utility.yul\":21550:21663   */\n    tag_736:\n        /* \"#utility.yul\":21564:21570   */\n      dup4\n        /* \"#utility.yul\":21561:21562   */\n      dup2\n        /* \"#utility.yul\":21558:21571   */\n      lt\n        /* \"#utility.yul\":21550:21663   */\n      iszero\n      tag_738\n      jumpi\n        /* \"#utility.yul\":21649:21650   */\n      dup1\n        /* \"#utility.yul\":21644:21647   */\n      dup3\n        /* \"#utility.yul\":21640:21651   */\n      add\n        /* \"#utility.yul\":21634:21652   */\n      mload\n        /* \"#utility.yul\":21630:21631   */\n      dup2\n        /* \"#utility.yul\":21625:21628   */\n      dup5\n        /* \"#utility.yul\":21621:21632   */\n      add\n        /* \"#utility.yul\":21614:21653   */\n      mstore\n        /* \"#utility.yul\":21586:21588   */\n      0x20\n        /* \"#utility.yul\":21583:21584   */\n      dup2\n        /* \"#utility.yul\":21579:21589   */\n      add\n        /* \"#utility.yul\":21574:21589   */\n      swap1\n      pop\n        /* \"#utility.yul\":21550:21663   */\n      jump(tag_736)\n    tag_738:\n        /* \"#utility.yul\":21681:21687   */\n      dup4\n        /* \"#utility.yul\":21678:21679   */\n      dup2\n        /* \"#utility.yul\":21675:21688   */\n      gt\n        /* \"#utility.yul\":21672:21773   */\n      iszero\n      tag_739\n      jumpi\n        /* \"#utility.yul\":21761:21762   */\n      0x00\n        /* \"#utility.yul\":21752:21758   */\n      dup5\n        /* \"#utility.yul\":21747:21750   */\n      dup5\n        /* \"#utility.yul\":21743:21759   */\n      add\n        /* \"#utility.yul\":21736:21763   */\n      mstore\n        /* \"#utility.yul\":21672:21773   */\n    tag_739:\n        /* \"#utility.yul\":21521:21779   */\n      pop\n        /* \"#utility.yul\":21472:21779   */\n      pop\n      pop\n      pop\n      jump\t// out\n        /* \"#utility.yul\":21785:22105   */\n    tag_85:\n        /* \"#utility.yul\":21829:21835   */\n      0x00\n        /* \"#utility.yul\":21866:21867   */\n      0x02\n        /* \"#utility.yul\":21860:21864   */\n      dup3\n        /* \"#utility.yul\":21856:21868   */\n      div\n        /* \"#utility.yul\":21846:21868   */\n      swap1\n      pop\n        /* \"#utility.yul\":21913:21914   */\n      0x01\n        /* \"#utility.yul\":21907:21911   */\n      dup3\n        /* \"#utility.yul\":21903:21915   */\n      and\n        /* \"#utility.yul\":21934:21952   */\n      dup1\n        /* \"#utility.yul\":21924:22005   */\n      tag_741\n      jumpi\n        /* \"#utility.yul\":21990:21994   */\n      0x7f\n        /* \"#utility.yul\":21982:21988   */\n      dup3\n        /* \"#utility.yul\":21978:21995   */\n      and\n        /* \"#utility.yul\":21968:21995   */\n      swap2\n      pop\n        /* \"#utility.yul\":21924:22005   */\n    tag_741:\n        /* \"#utility.yul\":22052:22054   */\n      0x20\n        /* \"#utility.yul\":22044:22050   */\n      dup3\n        /* \"#utility.yul\":22041:22055   */\n      lt\n        /* \"#utility.yul\":22021:22039   */\n      dup2\n        /* \"#utility.yul\":22018:22056   */\n      eq\n        /* \"#utility.yul\":22015:22099   */\n      iszero\n      tag_742\n      jumpi\n        /* \"#utility.yul\":22071:22089   */\n      tag_743\n      tag_744\n      jump\t// in\n    tag_743:\n        /* \"#utility.yul\":22015:22099   */\n    tag_742:\n        /* \"#utility.yul\":21836:22105   */\n      pop\n        /* \"#utility.yul\":21785:22105   */\n      swap2\n      swap1\n      pop\n      jump\t// out\n        /* \"#utility.yul\":22111:22392   */\n    tag_696:\n        /* \"#utility.yul\":22194:22221   */\n      tag_746\n        /* \"#utility.yul\":22216:22220   */\n      dup3\n        /* \"#utility.yul\":22194:22221   */\n      tag_584\n      jump\t// in\n    tag_746:\n        /* \"#utility.yul\":22186:22192   */\n      dup2\n        /* \"#utility.yul\":22182:22222   */\n      add\n        /* \"#utility.yul\":22324:22330   */\n      dup2\n        /* \"#utility.yul\":22312:22322   */\n      dup2\n        /* \"#utility.yul\":22309:22331   */\n      lt\n        /* \"#utility.yul\":22288:22306   */\n      0xffffffffffffffff\n        /* \"#utility.yul\":22276:22286   */\n      dup3\n        /* \"#utility.yul\":22273:22307   */\n      gt\n        /* \"#utility.yul\":22270:22332   */\n      or\n        /* \"#utility.yul\":22267:22355   */\n      iszero\n      tag_747\n      jumpi\n        /* \"#utility.yul\":22335:22353   */\n      tag_748\n      tag_400\n      jump\t// in\n    tag_748:\n        /* \"#utility.yul\":22267:22355   */\n    tag_747:\n        /* \"#utility.yul\":22375:22385   */\n      dup1\n        /* \"#utility.yul\":22371:22373   */\n      0x40\n        /* \"#utility.yul\":22364:22386   */\n      mstore\n        /* \"#utility.yul\":22154:22392   */\n      pop\n        /* \"#utility.yul\":22111:22392   */\n      pop\n      pop\n      jump\t// out\n        /* \"#utility.yul\":22398:22631   */\n    tag_356:\n        /* \"#utility.yul\":22437:22440   */\n      0x00\n        /* \"#utility.yul\":22460:22484   */\n      tag_750\n        /* \"#utility.yul\":22478:22483   */\n      dup3\n        /* \"#utility.yul\":22460:22484   */\n      tag_646\n      jump\t// in\n    tag_750:\n        /* \"#utility.yul\":22451:22484   */\n      swap2\n      pop\n        /* \"#utility.yul\":22506:22572   */\n      0xffffffffffffffffffffffffffffffffffffffffffffffffffffffffffffffff\n        /* \"#utility.yul\":22499:22504   */\n      dup3\n        /* \"#utility.yul\":22496:22573   */\n      eq\n        /* \"#utility.yul\":22493:22596   */\n      iszero\n      tag_751\n      jumpi\n        /* \"#utility.yul\":22576:22594   */\n      tag_752\n      tag_710\n      jump\t// in\n    tag_752:\n        /* \"#utility.yul\":22493:22596   */\n    tag_751:\n        /* \"#utility.yul\":22623:22624   */\n      0x01\n        /* \"#utility.yul\":22616:22621   */\n      dup3\n        /* \"#utility.yul\":22612:22625   */\n      add\n        /* \"#utility.yul\":22605:22625   */\n      swap1\n      pop\n        /* \"#utility.yul\":22398:22631   */\n      swap2\n      swap1\n      pop\n      jump\t// out\n        /* \"#utility.yul\":22637:22716   */\n    tag_574:\n        /* \"#utility.yul\":22676:22683   */\n      0x00\n        /* \"#utility.yul\":22705:22710   */\n      dup2\n        /* \"#utility.yul\":22694:22710   */\n      swap1\n      pop\n        /* \"#utility.yul\":22637:22716   */\n      swap2\n      swap1\n      pop\n      jump\t// out\n        /* \"#utility.yul\":22722:22801   */\n    tag_654:\n        /* \"#utility.yul\":22761:22768   */\n      0x00\n        /* \"#utility.yul\":22790:22795   */\n      dup2\n        /* \"#utility.yul\":22779:22795   */\n      swap1\n      pop\n        /* \"#utility.yul\":22722:22801   */\n      swap2\n      swap1\n      pop\n      jump\t// out\n        /* \"#utility.yul\":22807:22987   */\n    tag_710:\n        /* \"#utility.yul\":22855:22932   */\n      0x4e487b7100000000000000000000000000000000000000000000000000000000\n        /* \"#utility.yul\":22852:22853   */\n      0x00\n        /* \"#utility.yul\":22845:22933   */\n      mstore\n        /* \"#utility.yul\":22952:22956   */\n      0x11\n        /* \"#utility.yul\":22949:22950   */\n      0x04\n        /* \"#utility.yul\":22942:22957   */\n      mstore\n        /* \"#utility.yul\":22976:22980   */\n      0x24\n        /* \"#utility.yul\":22973:22974   */\n      0x00\n        /* \"#utility.yul\":22966:22981   */\n      revert\n        /* \"#utility.yul\":22993:23173   */\n    tag_716:\n        /* \"#utility.yul\":23041:23118   */\n      0x4e487b7100000000000000000000000000000000000000000000000000000000\n        /* \"#utility.yul\":23038:23039   */\n      0x00\n        /* \"#utility.yul\":23031:23119   */\n      mstore\n        /* \"#utility.yul\":23138:23142   */\n      0x12\n        /* \"#utility.yul\":23135:23136   */\n      0x04\n        /* \"#utility.yul\":23128:23143   */\n      mstore\n        /* \"#utility.yul\":23162:23166   */\n      0x24\n        /* \"#utility.yul\":23159:23160   */\n      0x00\n        /* \"#utility.yul\":23152:23167   */\n      revert\n        /* \"#utility.yul\":23179:23359   */\n    tag_744:\n        /* \"#utility.yul\":23227:23304   */\n      0x4e487b7100000000000000000000000000000000000000000000000000000000\n        /* \"#utility.yul\":23224:23225   */\n      0x00\n        /* \"#utility.yul\":23217:23305   */\n      mstore\n        /* \"#utility.yul\":23324:23328   */\n      0x22\n        /* \"#utility.yul\":23321:23322   */\n      0x04\n        /* \"#utility.yul\":23314:23329   */\n      mstore\n        /* \"#utility.yul\":23348:23352   */\n      0x24\n        /* \"#utility.yul\":23345:23346   */\n      0x00\n        /* \"#utility.yul\":23338:23353   */\n      revert\n        /* \"#utility.yul\":23365:23545   */\n    tag_291:\n        /* \"#utility.yul\":23413:23490   */\n      0x4e487b7100000000000000000000000000000000000000000000000000000000\n        /* \"#utility.yul\":23410:23411   */\n      0x00\n        /* \"#utility.yul\":23403:23491   */\n      mstore\n        /* \"#utility.yul\":23510:23514   */\n      0x32\n        /* \"#utility.yul\":23507:23508   */\n      0x04\n        /* \"#utility.yul\":23500:23515   */\n      mstore\n        /* \"#utility.yul\":23534:23538   */\n      0x24\n        /* \"#utility.yul\":23531:23532   */\n      0x00\n        /* \"#utility.yul\":23524:23539   */\n      revert\n        /* \"#utility.yul\":23551:23731   */\n    tag_400:\n        /* \"#utility.yul\":23599:23676   */\n      0x4e487b7100000000000000000000000000000000000000000000000000000000\n        /* \"#utility.yul\":23596:23597   */\n      0x00\n        /* \"#utility.yul\":23589:23677   */\n      mstore\n        /* \"#utility.yul\":23696:23700   */\n      0x41\n        /* \"#utility.yul\":23693:23694   */\n      0x04\n        /* \"#utility.yul\":23686:23701   */\n      mstore\n        /* \"#utility.yul\":23720:23724   */\n      0x24\n        /* \"#utility.yul\":23717:23718   */\n      0x00\n        /* \"#utility.yul\":23710:23725   */\n      revert\n        /* \"#utility.yul\":23737:23854   */\n    tag_502:\n        /* \"#utility.yul\":23846:23847   */\n      0x00\n        /* \"#utility.yul\":23843:23844   */\n      dup1\n        /* \"#utility.yul\":23836:23848   */\n      revert\n        /* \"#utility.yul\":23860:23977   */\n    tag_483:\n        /* \"#utility.yul\":23969:23970   */\n      0x00\n        /* \"#utility.yul\":23966:23967   */\n      dup1\n        /* \"#utility.yul\":23959:23971   */\n      revert\n        /* \"#utility.yul\":23983:24100   */\n    tag_549:\n        /* \"#utility.yul\":24092:24093   */\n      0x00\n        /* \"#utility.yul\":24089:24090   */\n      dup1\n        /* \"#utility.yul\":24082:24094   */\n      revert\n        /* \"#utility.yul\":24106:24223   */\n    tag_511:\n        /* \"#utility.yul\":24215:24216   */\n      0x00\n        /* \"#utility.yul\":24212:24213   */\n      dup1\n        /* \"#utility.yul\":24205:24217   */\n      revert\n        /* \"#utility.yul\":24229:24331   */\n    tag_584:\n        /* \"#utility.yul\":24270:24276   */\n      0x00\n        /* \"#utility.yul\":24321:24323   */\n      0x1f\n        /* \"#utility.yul\":24317:24324   */\n      not\n        /* \"#utility.yul\":24312:24314   */\n      0x1f\n        /* \"#utility.yul\":24305:24310   */\n      dup4\n        /* \"#utility.yul\":24301:24315   */\n      add\n        /* \"#utility.yul\":24297:24325   */\n      and\n        /* \"#utility.yul\":24287:24325   */\n      swap1\n      pop\n        /* \"#utility.yul\":24229:24331   */\n      swap2\n      swap1\n      pop\n      jump\t// out\n        /* \"#utility.yul\":24337:24512   */\n    tag_595:\n        /* \"#utility.yul\":24477:24504   */\n      0x4f6e6c79206f776e65722063616e2063616c6c20746869732e00000000000000\n        /* \"#utility.yul\":24473:24474   */\n      0x00\n        /* \"#utility.yul\":24465:24471   */\n      dup3\n        /* \"#utility.yul\":24461:24475   */\n      add\n        /* \"#utility.yul\":24454:24505   */\n      mstore\n        /* \"#utility.yul\":24337:24512   */\n      pop\n      jump\t// out\n        /* \"#utility.yul\":24518:24677   */\n    tag_600:\n        /* \"#utility.yul\":24658:24669   */\n      0x6e6f742065786973740000000000000000000000000000000000000000000000\n        /* \"#utility.yul\":24654:24655   */\n      0x00\n        /* \"#utility.yul\":24646:24652   */\n      dup3\n        /* \"#utility.yul\":24642:24656   */\n      add\n        /* \"#utility.yul\":24635:24670   */\n      mstore\n        /* \"#utility.yul\":24518:24677   */\n      pop\n      jump\t// out\n        /* \"#utility.yul\":24683:24847   */\n    tag_605:\n        /* \"#utility.yul\":24823:24839   */\n      0x706f6f6c206e6f74206578697374000000000000000000000000000000000000\n        /* \"#utility.yul\":24819:24820   */\n      0x00\n        /* \"#utility.yul\":24811:24817   */\n      dup3\n        /* \"#utility.yul\":24807:24821   */\n      add\n        /* \"#utility.yul\":24800:24840   */\n      mstore\n        /* \"#utility.yul\":24683:24847   */\n      pop\n      jump\t// out\n        /* \"#utility.yul\":24853:25026   */\n    tag_610:\n        /* \"#utility.yul\":24993:25018   */\n      0x706f6f6c20626173616c20686173206265656e20736574000000000000000000\n        /* \"#utility.yul\":24989:24990   */\n      0x00\n        /* \"#utility.yul\":24981:24987   */\n      dup3\n        /* \"#utility.yul\":24977:24991   */\n      add\n        /* \"#utility.yul\":24970:25019   */\n      mstore\n        /* \"#utility.yul\":24853:25026   */\n      pop\n      jump\t// out\n        /* \"#utility.yul\":25032:25192   */\n    tag_615:\n        /* \"#utility.yul\":25172:25184   */\n      0x7061697220657869737400000000000000000000000000000000000000000000\n        /* \"#utility.yul\":25168:25169   */\n      0x00\n        /* \"#utility.yul\":25160:25166   */\n      dup3\n        /* \"#utility.yul\":25156:25170   */\n      add\n        /* \"#utility.yul\":25149:25185   */\n      mstore\n        /* \"#utility.yul\":25032:25192   */\n      pop\n      jump\t// out\n        /* \"#utility.yul\":25198:25369   */\n    tag_620:\n        /* \"#utility.yul\":25338:25361   */\n      0x706f6f6c20686173206e6f742066696e69736865640000000000000000000000\n        /* \"#utility.yul\":25334:25335   */\n      0x00\n        /* \"#utility.yul\":25326:25332   */\n      dup3\n        /* \"#utility.yul\":25322:25336   */\n      add\n        /* \"#utility.yul\":25315:25362   */\n      mstore\n        /* \"#utility.yul\":25198:25369   */\n      pop\n      jump\t// out\n        /* \"#utility.yul\":25375:25546   */\n    tag_625:\n        /* \"#utility.yul\":25515:25538   */\n      0x6e6f7420656e6f75676820766f7465416d6f756e740000000000000000000000\n        /* \"#utility.yul\":25511:25512   */\n      0x00\n        /* \"#utility.yul\":25503:25509   */\n      dup3\n        /* \"#utility.yul\":25499:25513   */\n      add\n        /* \"#utility.yul\":25492:25539   */\n      mstore\n        /* \"#utility.yul\":25375:25546   */\n      pop\n      jump\t// out\n        /* \"#utility.yul\":25552:25718   */\n    tag_630:\n        /* \"#utility.yul\":25692:25710   */\n      0x6e6f7420656e6f75676820626173616c00000000000000000000000000000000\n        /* \"#utility.yul\":25688:25689   */\n      0x00\n        /* \"#utility.yul\":25680:25686   */\n      dup3\n        /* \"#utility.yul\":25676:25690   */\n      add\n        /* \"#utility.yul\":25669:25711   */\n      mstore\n        /* \"#utility.yul\":25552:25718   */\n      pop\n      jump\t// out\n        /* \"#utility.yul\":25724:25891   */\n    tag_635:\n        /* \"#utility.yul\":25864:25883   */\n      0x706f6f6c206861732066696e6973686564000000000000000000000000000000\n        /* \"#utility.yul\":25860:25861   */\n      0x00\n        /* \"#utility.yul\":25852:25858   */\n      dup3\n        /* \"#utility.yul\":25848:25862   */\n      add\n        /* \"#utility.yul\":25841:25884   */\n      mstore\n        /* \"#utility.yul\":25724:25891   */\n      pop\n      jump\t// out\n        /* \"#utility.yul\":25897:26019   */\n    tag_489:\n        /* \"#utility.yul\":25970:25994   */\n      tag_775\n        /* \"#utility.yul\":25988:25993   */\n      dup2\n        /* \"#utility.yul\":25970:25994   */\n      tag_561\n      jump\t// in\n    tag_775:\n        /* \"#utility.yul\":25963:25968   */\n      dup2\n        /* \"#utility.yul\":25960:25995   */\n      eq\n        /* \"#utility.yul\":25950:26013   */\n      tag_776\n      jumpi\n        /* \"#utility.yul\":26009:26010   */\n      0x00\n        /* \"#utility.yul\":26006:26007   */\n      dup1\n        /* \"#utility.yul\":25999:26011   */\n      revert\n        /* \"#utility.yul\":25950:26013   */\n    tag_776:\n        /* \"#utility.yul\":25897:26019   */\n      pop\n      jump\t// out\n        /* \"#utility.yul\":26025:26141   */\n    tag_493:\n        /* \"#utility.yul\":26095:26116   */\n      tag_778\n        /* \"#utility.yul\":26110:26115   */\n      dup2\n        /* \"#utility.yul\":26095:26116   */\n      tag_565\n      jump\t// in\n    tag_778:\n        /* \"#utility.yul\":26088:26093   */\n      dup2\n        /* \"#utility.yul\":26085:26117   */\n      eq\n        /* \"#utility.yul\":26075:26135   */\n      tag_779\n      jumpi\n        /* \"#utility.yul\":26131:26132   */\n      0x00\n        /* \"#utility.yul\":26128:26129   */\n      dup1\n        /* \"#utility.yul\":26121:26133   */\n      revert\n        /* \"#utility.yul\":26075:26135   */\n    tag_779:\n        /* \"#utility.yul\":26025:26141   */\n      pop\n      jump\t// out\n        /* \"#utility.yul\":26147:26269   */\n    tag_497:\n        /* \"#utility.yul\":26220:26244   */\n      tag_781\n        /* \"#utility.yul\":26238:26243   */\n      dup2\n        /* \"#utility.yul\":26220:26244   */\n      tag_569\n      jump\t// in\n    tag_781:\n        /* \"#utility.yul\":26213:26218   */\n      dup2\n        /* \"#utility.yul\":26210:26245   */\n      eq\n        /* \"#utility.yul\":26200:26263   */\n      tag_782\n      jumpi\n        /* \"#utility.yul\":26259:26260   */\n      0x00\n        /* \"#utility.yul\":26256:26257   */\n      dup1\n        /* \"#utility.yul\":26249:26261   */\n      revert\n        /* \"#utility.yul\":26200:26263   */\n    tag_782:\n        /* \"#utility.yul\":26147:26269   */\n      pop\n      jump\t// out\n        /* \"#utility.yul\":26275:26397   */\n    tag_507:\n        /* \"#utility.yul\":26348:26372   */\n      tag_784\n        /* \"#utility.yul\":26366:26371   */\n      dup2\n        /* \"#utility.yul\":26348:26372   */\n      tag_646\n      jump\t// in\n    tag_784:\n        /* \"#utility.yul\":26341:26346   */\n      dup2\n        /* \"#utility.yul\":26338:26373   */\n      eq\n        /* \"#utility.yul\":26328:26391   */\n      tag_785\n      jumpi\n        /* \"#utility.yul\":26387:26388   */\n      0x00\n        /* \"#utility.yul\":26384:26385   */\n      dup1\n        /* \"#utility.yul\":26377:26389   */\n      revert\n        /* \"#utility.yul\":26328:26391   */\n    tag_785:\n        /* \"#utility.yul\":26275:26397   */\n      pop\n      jump\t// out\n\n    auxdata: 0xa26469706673582212201e70cc1aad2a6596a3e7e9bdd87e7f1aef1e132191936f986e0a2036218f6bde64736f6c63430008070033\n}\n",
				"bytecode": {
					"linkReferences": {},
					"object": "60806040523480156200001157600080fd5b5060405162003ffe38038062003ffe8339818101604052810190620000379190620000b4565b816000806101000a81548173ffffffffffffffffffffffffffffffffffffffff021916908373ffffffffffffffffffffffffffffffffffffffff16021790555080600781905550505062000172565b60008151905062000097816200013e565b92915050565b600081519050620000ae8162000158565b92915050565b60008060408385031215620000ce57620000cd62000139565b5b6000620000de8582860162000086565b9250506020620000f1858286016200009d565b9150509250929050565b600062000108826200010f565b9050919050565b600073ffffffffffffffffffffffffffffffffffffffff82169050919050565b6000819050919050565b600080fd5b6200014981620000fb565b81146200015557600080fd5b50565b62000163816200012f565b81146200016f57600080fd5b50565b613e7c80620001826000396000f3fe60806040526004361061008a5760003560e01c80634121855f116100595780634121855f1461025357806347e4dd271461029057806374fe9bc2146102cd5780639bd0abf1146102fd578063f6c009271461032d57610179565b80630ce490531461017e5780632bf21ecc146101ae578063357965ba146101eb5780633e6ff1a21461022857610179565b366101795760008054906101000a900473ffffffffffffffffffffffffffffffffffffffff1673ffffffffffffffffffffffffffffffffffffffff163373ffffffffffffffffffffffffffffffffffffffff16146101765734600560003373ffffffffffffffffffffffffffffffffffffffff1673ffffffffffffffffffffffffffffffffffffffff16815260200190815260200160002060008282546101319190613900565b925050819055507f88a5966d370b9919b20f3e2c13ff65706f196a4e32cc2c12bf57088f8852587433346040516101699291906136a4565b60405180910390a1610177565b5b005b600080fd5b61019860048036038101906101939190613135565b61036c565b6040516101a591906136cd565b60405180910390f35b3480156101ba57600080fd5b506101d560048036038101906101d0919061326f565b6107a4565b6040516101e291906136cd565b60405180910390f35b3480156101f757600080fd5b50610212600480360381019061020d9190613316565b610ba3565b60405161021f91906136e8565b60405180910390f35b34801561023457600080fd5b5061023d610e6b565b60405161024a9190613868565b60405180910390f35b34801561025f57600080fd5b5061027a60048036038101906102759190613242565b610f04565b6040516102879190613868565b60405180910390f35b34801561029c57600080fd5b506102b760048036038101906102b291906131b5565b61129b565b6040516102c491906136cd565b60405180910390f35b6102e760048036038101906102e291906132af565b611a7c565b6040516102f491906136cd565b60405180910390f35b61031760048036038101906103129190613175565b6124ef565b60405161032491906136cd565b60405180910390f35b34801561033957600080fd5b50610354600480360381019061034f9190613242565b6126e6565b60405161036393929190613703565b60405180910390f35b60008060009054906101000a900473ffffffffffffffffffffffffffffffffffffffff1673ffffffffffffffffffffffffffffffffffffffff163373ffffffffffffffffffffffffffffffffffffffff16146103fd576040517f08c379a00000000000000000000000000000000000000000000000000000000081526004016103f490613748565b60405180910390fd5b61040682612a13565b610445576040517f08c379a000000000000000000000000000000000000000000000000000000000815260040161043c90613788565b60405180910390fd5b6000600660008481526020019081526020016000206040518061016001604052908160008201805461047690613aa9565b80601f01602080910402602001604051908101604052809291908181526020018280546104a290613aa9565b80156104ef5780601f106104c4576101008083540402835291602001916104ef565b820191906000526020600020905b8154815290600101906020018083116104d257829003601f168201915b5050505050815260200160018201805461050890613aa9565b80601f016020809104026020016040519081016040528092919081815260200182805461053490613aa9565b80156105815780601f1061055657610100808354040283529160200191610581565b820191906000526020600020905b81548152906001019060200180831161056457829003601f168201915b5050505050815260200160028201805461059a90613aa9565b80601f01602080910402602001604051908101604052809291908181526020018280546105c690613aa9565b80156106135780601f106105e857610100808354040283529160200191610613565b820191906000526020600020905b8154815290600101906020018083116105f657829003601f168201915b5050505050815260200160038201548152602001600482015481526020016005820154815260200160068201548152602001600782015481526020016008820160009054906101000a900460ff161515151581526020016008820160019054906101000a900460ff161515151581526020016008820160029054906101000a900460ff161515151581525050905060006106f7600a8360e001518460c0015185608001518660a0015187606001516106cb9190613900565b6106d59190613900565b6106df9190613900565b6106e99190613900565b612a4090919063ffffffff16565b90506001826101400190151590811515815250156107615760008590508073ffffffffffffffffffffffffffffffffffffffff166108fc839081150290604051600060405180830381858888f1935050505015801561075a573d6000803e3d6000fd5b505061079c565b6040517f08c379a0000000000000000000000000000000000000000000000000000000008152600401610793906137e8565b60405180910390fd5b505092915050565b60008060009054906101000a900473ffffffffffffffffffffffffffffffffffffffff1673ffffffffffffffffffffffffffffffffffffffff163373ffffffffffffffffffffffffffffffffffffffff1614610835576040517f08c379a000000000000000000000000000000000000000000000000000000000815260040161082c90613748565b60405180910390fd5b61083e83612a13565b61087d576040517f08c379a000000000000000000000000000000000000000000000000000000000815260040161087490613788565b60405180910390fd5b600060066000858152602001908152602001600020604051806101600160405290816000820180546108ae90613aa9565b80601f01602080910402602001604051908101604052809291908181526020018280546108da90613aa9565b80156109275780601f106108fc57610100808354040283529160200191610927565b820191906000526020600020905b81548152906001019060200180831161090a57829003601f168201915b5050505050815260200160018201805461094090613aa9565b80601f016020809104026020016040519081016040528092919081815260200182805461096c90613aa9565b80156109b95780601f1061098e576101008083540402835291602001916109b9565b820191906000526020600020905b81548152906001019060200180831161099c57829003601f168201915b505050505081526020016002820180546109d290613aa9565b80601f01602080910402602001604051908101604052809291908181526020018280546109fe90613aa9565b8015610a4b5780601f10610a2057610100808354040283529160200191610a4b565b820191906000526020600020905b815481529060010190602001808311610a2e57829003601f168201915b5050505050815260200160038201548152602001600482015481526020016005820154815260200160068201548152602001600782015481526020016008820160009054906101000a900460ff161515151581526020016008820160019054906101000a900460ff161515151581526020016008820160029054906101000a900460ff161515151581525050905060008160e001511115610b21576040517f08c379a0000000000000000000000000000000000000000000000000000000008152600401610b18906137a8565b60405180910390fd5b826007541115610b66576040517f08c379a0000000000000000000000000000000000000000000000000000000008152600401610b5d90613828565b60405180910390fd5b828160e001818151610b789190613900565b915081815250508260076000828254610b9191906139e1565b92505081905550600191505092915050565b60008060009054906101000a900473ffffffffffffffffffffffffffffffffffffffff1673ffffffffffffffffffffffffffffffffffffffff163373ffffffffffffffffffffffffffffffffffffffff1614610c34576040517f08c379a0000000000000000000000000000000000000000000000000000000008152600401610c2b90613748565b60405180910390fd5b6000610c408686612a68565b90506000610c4e8286612a68565b9050600081604051602001610c639190613672565b604051602081830303815290604052805190602001209050610c8481612a13565b15610cc4576040517f08c379a0000000000000000000000000000000000000000000000000000000008152600401610cbb906137c8565b60405180910390fd5b60016006600083815260200190815260200160002060080160016101000a81548160ff02191690831515021790555087600660008381526020019081526020016000206000019080519060200190610d1d929190612f9f565b5086600660008381526020019081526020016000206001019080519060200190610d48929190612f9f565b5085600660008381526020019081526020016000206002019080519060200190610d73929190612f9f565b506000600660008381526020019081526020016000206003018190555060006006600083815260200190815260200160002060040181905550600060066000838152602001908152602001600020600501819055506000600660008381526020019081526020016000206006018190555060006006600083815260200190815260200160002060070181905550846006600083815260200190815260200160002060080160006101000a81548160ff02191690831515021790555060006006600083815260200190815260200160002060080160026101000a81548160ff021916908315150217905550809350505050949350505050565b60008060009054906101000a900473ffffffffffffffffffffffffffffffffffffffff1673ffffffffffffffffffffffffffffffffffffffff163373ffffffffffffffffffffffffffffffffffffffff1614610efc576040517f08c379a0000000000000000000000000000000000000000000000000000000008152600401610ef390613748565b60405180910390fd5b600754905090565b60008060009054906101000a900473ffffffffffffffffffffffffffffffffffffffff1673ffffffffffffffffffffffffffffffffffffffff163373ffffffffffffffffffffffffffffffffffffffff1614610f95576040517f08c379a0000000000000000000000000000000000000000000000000000000008152600401610f8c90613748565b60405180910390fd5b610f9e82612a13565b610fdd576040517f08c379a0000000000000000000000000000000000000000000000000000000008152600401610fd490613788565b60405180910390fd5b6000600660008481526020019081526020016000206040518061016001604052908160008201805461100e90613aa9565b80601f016020809104026020016040519081016040528092919081815260200182805461103a90613aa9565b80156110875780601f1061105c57610100808354040283529160200191611087565b820191906000526020600020905b81548152906001019060200180831161106a57829003601f168201915b505050505081526020016001820180546110a090613aa9565b80601f01602080910402602001604051908101604052809291908181526020018280546110cc90613aa9565b80156111195780601f106110ee57610100808354040283529160200191611119565b820191906000526020600020905b8154815290600101906020018083116110fc57829003601f168201915b5050505050815260200160028201805461113290613aa9565b80601f016020809104026020016040519081016040528092919081815260200182805461115e90613aa9565b80156111ab5780601f10611180576101008083540402835291602001916111ab565b820191906000526020600020905b81548152906001019060200180831161118e57829003601f168201915b5050505050815260200160038201548152602001600482015481526020016005820154815260200160068201548152602001600782015481526020016008820160009054906101000a900460ff161515151581526020016008820160019054906101000a900460ff161515151581526020016008820160029054906101000a900460ff1615151515815250509050600061128f600a8360e001518460c0015185608001518660a0015187606001516112639190613900565b61126d9190613900565b6112779190613900565b6112819190613900565b612a4090919063ffffffff16565b90508092505050919050565b60008060009054906101000a900473ffffffffffffffffffffffffffffffffffffffff1673ffffffffffffffffffffffffffffffffffffffff163373ffffffffffffffffffffffffffffffffffffffff161461132c576040517f08c379a000000000000000000000000000000000000000000000000000000000815260040161132390613748565b60405180910390fd5b61133585612a13565b611374576040517f08c379a000000000000000000000000000000000000000000000000000000000815260040161136b90613788565b60405180910390fd5b85600560008973ffffffffffffffffffffffffffffffffffffffff1673ffffffffffffffffffffffffffffffffffffffff1681526020019081526020016000205410156113f6576040517f08c379a00000000000000000000000000000000000000000000000000000000081526004016113ed90613808565b60405180910390fd5b6000600660008781526020019081526020016000206040518061016001604052908160008201805461142790613aa9565b80601f016020809104026020016040519081016040528092919081815260200182805461145390613aa9565b80156114a05780601f10611475576101008083540402835291602001916114a0565b820191906000526020600020905b81548152906001019060200180831161148357829003601f168201915b505050505081526020016001820180546114b990613aa9565b80601f01602080910402602001604051908101604052809291908181526020018280546114e590613aa9565b80156115325780601f1061150757610100808354040283529160200191611532565b820191906000526020600020905b81548152906001019060200180831161151557829003601f168201915b5050505050815260200160028201805461154b90613aa9565b80601f016020809104026020016040519081016040528092919081815260200182805461157790613aa9565b80156115c45780601f10611599576101008083540402835291602001916115c4565b820191906000526020600020905b8154815290600101906020018083116115a757829003601f168201915b5050505050815260200160038201548152602001600482015481526020016005820154815260200160068201548152602001600782015481526020016008820160009054906101000a900460ff161515151581526020016008820160019054906101000a900460ff161515151581526020016008820160029054906101000a900460ff1615151515815250509050600061166e61166087612bfe565b61166987612bfe565b612a68565b9050600061168461167e89612c2f565b83612a68565b905060006040518060e001604052808b81526020018781526020018981526020018881526020018c73ffffffffffffffffffffffffffffffffffffffff16815260200183815260200160001515815250905088600260008b815260200190815260200160002060010181905550600260008a81526020019081526020016000206000018190806001815401808255809150506001900390600052602060002090600702016000909190919091506000820151816000015560208201518160010155604082015181600201556060820151816003015560808201518160040160006101000a81548173ffffffffffffffffffffffffffffffffffffffff021916908373ffffffffffffffffffffffffffffffffffffffff16021790555060a08201518160050190805190602001906117bc929190612f9f565b5060c08201518160060160006101000a81548160ff02191690831515021790555050508a600460008d73ffffffffffffffffffffffffffffffffffffffff1673ffffffffffffffffffffffffffffffffffffffff16815260200190815260200160002060010160006101000a81548173ffffffffffffffffffffffffffffffffffffffff021916908373ffffffffffffffffffffffffffffffffffffffff160217905550600260008a81526020019081526020016000206000018190806001815401808255809150506001900390600052602060002090600702016000909190919091506000820151816000015560208201518160010155604082015181600201556060820151816003015560808201518160040160006101000a81548173ffffffffffffffffffffffffffffffffffffffff021916908373ffffffffffffffffffffffffffffffffffffffff16021790555060a082015181600501908051906020019061192b929190612f9f565b5060c08201518160060160006101000a81548160ff021916908315150217905550505060028614156119aa57898460c0018181516119699190613900565b91508181525050896003836040516119819190613672565b9081526020016040518091039020600082825461199e9190613900565b92505081905550611a14565b60038614156119d15789846060018181516119c59190613900565b91508181525050611a13565b60018614156119f85789846080018181516119ec9190613900565b91508181525050611a12565b898460a001818151611a0a9190613900565b915081815250505b5b5b89600560008d73ffffffffffffffffffffffffffffffffffffffff1673ffffffffffffffffffffffffffffffffffffffff1681526020019081526020016000206000828254611a6391906139e1565b9250508190555050505050600190509695505050505050565b60008060009054906101000a900473ffffffffffffffffffffffffffffffffffffffff1673ffffffffffffffffffffffffffffffffffffffff163373ffffffffffffffffffffffffffffffffffffffff1614611b0d576040517f08c379a0000000000000000000000000000000000000000000000000000000008152600401611b0490613748565b60405180910390fd5b611b1685612a13565b611b55576040517f08c379a0000000000000000000000000000000000000000000000000000000008152600401611b4c90613788565b60405180910390fd5b60006006600087815260200190815260200160002060405180610160016040529081600082018054611b8690613aa9565b80601f0160208091040260200160405190810160405280929190818152602001828054611bb290613aa9565b8015611bff5780601f10611bd457610100808354040283529160200191611bff565b820191906000526020600020905b815481529060010190602001808311611be257829003601f168201915b50505050508152602001600182018054611c1890613aa9565b80601f0160208091040260200160405190810160405280929190818152602001828054611c4490613aa9565b8015611c915780601f10611c6657610100808354040283529160200191611c91565b820191906000526020600020905b815481529060010190602001808311611c7457829003601f168201915b50505050508152602001600282018054611caa90613aa9565b80601f0160208091040260200160405190810160405280929190818152602001828054611cd690613aa9565b8015611d235780601f10611cf857610100808354040283529160200191611d23565b820191906000526020600020905b815481529060010190602001808311611d0657829003601f168201915b5050505050815260200160038201548152602001600482015481526020016005820154815260200160068201548152602001600782015481526020016008820160009054906101000a900460ff161515151581526020016008820160019054906101000a900460ff161515151581526020016008820160029054906101000a900460ff1615151515815250509050600181610140019015159081151581525015611e02576040517f08c379a0000000000000000000000000000000000000000000000000000000008152600401611df990613848565b60405180910390fd5b600060026000888152602001908152602001600020600001805480602002602001604051908101604052809291908181526020016000905b82821015611f9757838290600052602060002090600702016040518060e0016040529081600082015481526020016001820154815260200160028201548152602001600382015481526020016004820160009054906101000a900473ffffffffffffffffffffffffffffffffffffffff1673ffffffffffffffffffffffffffffffffffffffff1673ffffffffffffffffffffffffffffffffffffffff168152602001600582018054611eeb90613aa9565b80601f0160208091040260200160405190810160405280929190818152602001828054611f1790613aa9565b8015611f645780601f10611f3957610100808354040283529160200191611f64565b820191906000526020600020905b815481529060010190602001808311611f4757829003601f168201915b505050505081526020016006820160009054906101000a900460ff16151515158152505081526020019060010190611e3a565b50505050905060006120066014611fbc60028660e00151612a4090919063ffffffff16565b85608001518660a0015187606001518860c00151611fda9190613900565b611fe49190613900565b611fee9190613900565b611ff89190613900565b612a4090919063ffffffff16565b600760008282546120179190613900565b9250508190555060005b6001835161202f91906139e1565b81116124cd57600083828151811061204a57612049613bf6565b5b602002602001015160c00190151590811515815250156124ba57600283828151811061207957612078613bf6565b5b602002602001015160200151141561224a576120d860646120ca60556120ad60028960e00151612a4090919063ffffffff16565b8860c001516120bc9190613900565b612c6090919063ffffffff16565b612a4090919063ffffffff16565b9150878382815181106120ee576120ed613bf6565b5b60200260200101516040015114801561212457508683828151811061211657612115613bf6565b5b602002602001015160600151145b1561224557600060038483815181106121405761213f613bf6565b5b602002602001015160a001516040516121599190613672565b90815260200160405180910390205490506000818584815181106121805761217f613bf6565b5b602002602001015160000151856121979190613987565b6121a19190613956565b905080600560008786815181106121bb576121ba613bf6565b5b60200260200101516080015173ffffffffffffffffffffffffffffffffffffffff1673ffffffffffffffffffffffffffffffffffffffff16815260200190815260200160002060008282546122109190613900565b92505081905550600185848151811061222c5761222b613bf6565b5b602002602001015160c001901515908115158152505050505b6124b9565b8583828151811061225e5761225d613bf6565b5b60200260200101516020015114156124b8576122db60646122cd605561229260028960e00151612a4090919063ffffffff16565b88608001518960a001518a606001516122ab9190613900565b6122b59190613900565b6122bf9190613900565b612c6090919063ffffffff16565b612a4090919063ffffffff16565b91506000808483815181106122f3576122f2613bf6565b5b602002602001015160200151141561233357612330606461232260558860a00151612c6090919063ffffffff16565b612a4090919063ffffffff16565b90505b600184838151811061234857612347613bf6565b5b602002602001015160200151141561238857612385606461237760558860800151612c6090919063ffffffff16565b612a4090919063ffffffff16565b90505b600384838151811061239d5761239c613bf6565b5b60200260200101516020015114156123dd576123da60646123cc60558860600151612c6090919063ffffffff16565b612a4090919063ffffffff16565b90505b6000818584815181106123f3576123f2613bf6565b5b6020026020010151600001518561240a9190613987565b6124149190613956565b9050806005600087868151811061242e5761242d613bf6565b5b60200260200101516080015173ffffffffffffffffffffffffffffffffffffffff1673ffffffffffffffffffffffffffffffffffffffff16815260200190815260200160002060008282546124839190613900565b92505081905550600185848151811061249f5761249e613bf6565b5b602002602001015160c001901515908115158152505050505b5b5b80806124c590613b0c565b915050612021565b5060018361014001901515908115158152505050505060019050949350505050565b60008060009054906101000a900473ffffffffffffffffffffffffffffffffffffffff1673ffffffffffffffffffffffffffffffffffffffff163373ffffffffffffffffffffffffffffffffffffffff1614612580576040517f08c379a000000000000000000000000000000000000000000000000000000000815260040161257790613748565b60405180910390fd5b81600560008573ffffffffffffffffffffffffffffffffffffffff1673ffffffffffffffffffffffffffffffffffffffff168152602001908152602001600020541015801561260f57506000600560008573ffffffffffffffffffffffffffffffffffffffff1673ffffffffffffffffffffffffffffffffffffffff1681526020019081526020016000205410155b156126a55760008390508073ffffffffffffffffffffffffffffffffffffffff166108fc600560008773ffffffffffffffffffffffffffffffffffffffff1673ffffffffffffffffffffffffffffffffffffffff168152602001908152602001600020549081150290604051600060405180830381858888f1935050505015801561269e573d6000803e3d6000fd5b50506126e0565b6040517f08c379a00000000000000000000000000000000000000000000000000000000081526004016126d790613808565b60405180910390fd5b92915050565b6060806126f1613025565b6126fa84612a13565b612739576040517f08c379a000000000000000000000000000000000000000000000000000000000815260040161273090613768565b60405180910390fd5b600061281860066000878152602001908152602001600020600001805461275f90613aa9565b80601f016020809104026020016040519081016040528092919081815260200182805461278b90613aa9565b80156127d85780601f106127ad576101008083540402835291602001916127d8565b820191906000526020600020905b8154815290600101906020018083116127bb57829003601f168201915b50505050506040518060400160405280600481526020017f2076732000000000000000000000000000000000000000000000000000000000815250612a68565b905060006128c48260066000898152602001908152602001600020600101805461284190613aa9565b80601f016020809104026020016040519081016040528092919081815260200182805461286d90613aa9565b80156128ba5780601f1061288f576101008083540402835291602001916128ba565b820191906000526020600020905b81548152906001019060200180831161289d57829003601f168201915b5050505050612a68565b905060006040518060a00160405280600660008a8152602001908152602001600020600301548152602001600660008a8152602001908152602001600020600401548152602001600660008a8152602001908152602001600020600501548152602001600660008a8152602001908152602001600020600601548152602001600660008a815260200190815260200160002060070154815250905081600660008981526020019081526020016000206002018281805461298390613aa9565b80601f01602080910402602001604051908101604052809291908181526020018280546129af90613aa9565b80156129fc5780601f106129d1576101008083540402835291602001916129fc565b820191906000526020600020905b8154815290600101906020018083116129df57829003601f168201915b505050505091509550955095505050509193909250565b60006006600083815260200190815260200160002060080160019054906101000a900460ff169050919050565b6000808211612a4e57600080fd5b60008284612a5c9190613956565b90508091505092915050565b606060008390506000839050600081518351612a849190613900565b67ffffffffffffffff811115612a9d57612a9c613c25565b5b6040519080825280601f01601f191660200182016040528015612acf5781602001600182028036833780820191505090505b50905060008190506000805b8551811015612b6357858181518110612af757612af6613bf6565b5b602001015160f81c60f81b838380612b0e90613b0c565b945081518110612b2157612b20613bf6565b5b60200101907effffffffffffffffffffffffffffffffffffffffffffffffffffffffffffff1916908160001a9053508080612b5b90613b0c565b915050612adb565b5060005b8451811015612bef57848181518110612b8357612b82613bf6565b5b602001015160f81c60f81b838380612b9a90613b0c565b945081518110612bad57612bac613bf6565b5b60200101907effffffffffffffffffffffffffffffffffffffffffffffffffffffffffffff1916908160001a9053508080612be790613b0c565b915050612b67565b50829550505050505092915050565b6060612c2882604051602001612c149190613689565b604051602081830303815290604052612ca5565b9050919050565b6060612c5982604051602001612c459190613657565b604051602081830303815290604052612ca5565b9050919050565b600080831415612c735760009050612c9f565b60008284612c819190613987565b9050828482612c909190613956565b14612c9a57600080fd5b809150505b92915050565b606060006040518060400160405280601081526020017f30313233343536373839616263646566000000000000000000000000000000008152509050600060028451612cf19190613987565b6002612cfd9190613900565b67ffffffffffffffff811115612d1657612d15613c25565b5b6040519080825280601f01601f191660200182016040528015612d485781602001600182028036833780820191505090505b5090507f300000000000000000000000000000000000000000000000000000000000000081600081518110612d8057612d7f613bf6565b5b60200101907effffffffffffffffffffffffffffffffffffffffffffffffffffffffffffff1916908160001a9053507f780000000000000000000000000000000000000000000000000000000000000081600181518110612de457612de3613bf6565b5b60200101907effffffffffffffffffffffffffffffffffffffffffffffffffffffffffffff1916908160001a90535060005b8451811015612f9457826004868381518110612e3557612e34613bf6565b5b602001015160f81c60f81b7effffffffffffffffffffffffffffffffffffffffffffffffffffffffffffff1916901c60f81c60ff1681518110612e7b57612e7a613bf6565b5b602001015160f81c60f81b82600283612e949190613987565b6002612ea09190613900565b81518110612eb157612eb0613bf6565b5b60200101907effffffffffffffffffffffffffffffffffffffffffffffffffffffffffffff1916908160001a90535082600f60f81b868381518110612ef957612ef8613bf6565b5b602001015160f81c60f81b1660f81c60ff1681518110612f1c57612f1b613bf6565b5b602001015160f81c60f81b82600283612f359190613987565b6003612f419190613900565b81518110612f5257612f51613bf6565b5b60200101907effffffffffffffffffffffffffffffffffffffffffffffffffffffffffffff1916908160001a9053508080612f8c90613b0c565b915050612e16565b508092505050919050565b828054612fab90613aa9565b90600052602060002090601f016020900481019282612fcd5760008555613014565b82601f10612fe657805160ff1916838001178555613014565b82800160010185558215613014579182015b82811115613013578251825591602001919060010190612ff8565b5b5090506130219190613054565b5090565b6040518060a0016040528060008152602001600081526020016000815260200160008152602001600081525090565b5b8082111561306d576000816000905550600101613055565b5090565b600061308461307f846138a8565b613883565b9050828152602081018484840111156130a05761309f613c59565b5b6130ab848285613a67565b509392505050565b6000813590506130c281613dea565b92915050565b6000813590506130d781613e01565b92915050565b6000813590506130ec81613e18565b92915050565b600082601f83011261310757613106613c54565b5b8135613117848260208601613071565b91505092915050565b60008135905061312f81613e2f565b92915050565b6000806040838503121561314c5761314b613c63565b5b600061315a858286016130b3565b925050602061316b858286016130dd565b9150509250929050565b6000806040838503121561318c5761318b613c63565b5b600061319a858286016130b3565b92505060206131ab85828601613120565b9150509250929050565b60008060008060008060c087890312156131d2576131d1613c63565b5b60006131e089828a016130b3565b96505060206131f189828a01613120565b955050604061320289828a016130dd565b945050606061321389828a01613120565b935050608061322489828a01613120565b92505060a061323589828a01613120565b9150509295509295509295565b60006020828403121561325857613257613c63565b5b6000613266848285016130dd565b91505092915050565b6000806040838503121561328657613285613c63565b5b6000613294858286016130dd565b92505060206132a585828601613120565b9150509250929050565b600080600080608085870312156132c9576132c8613c63565b5b60006132d7878288016130dd565b94505060206132e887828801613120565b93505060406132f987828801613120565b925050606061330a87828801613120565b91505092959194509250565b600080600080608085870312156133305761332f613c63565b5b600085013567ffffffffffffffff81111561334e5761334d613c5e565b5b61335a878288016130f2565b945050602085013567ffffffffffffffff81111561337b5761337a613c5e565b5b613387878288016130f2565b935050604085013567ffffffffffffffff8111156133a8576133a7613c5e565b5b6133b4878288016130f2565b92505060606133c5878288016130c8565b91505092959194509250565b6133da81613a15565b82525050565b6133e981613a27565b82525050565b6133f881613a33565b82525050565b61340f61340a82613a33565b613b55565b82525050565b6000613420826138d9565b61342a81856138e4565b935061343a818560208601613a76565b61344381613c68565b840191505092915050565b6000613459826138d9565b61346381856138f5565b9350613473818560208601613a76565b80840191505092915050565b600061348c6019836138e4565b915061349782613c79565b602082019050919050565b60006134af6009836138e4565b91506134ba82613ca2565b602082019050919050565b60006134d2600e836138e4565b91506134dd82613ccb565b602082019050919050565b60006134f56017836138e4565b915061350082613cf4565b602082019050919050565b6000613518600a836138e4565b915061352382613d1d565b602082019050919050565b600061353b6015836138e4565b915061354682613d46565b602082019050919050565b600061355e6015836138e4565b915061356982613d6f565b602082019050919050565b60006135816010836138e4565b915061358c82613d98565b602082019050919050565b60006135a46011836138e4565b91506135af82613dc1565b602082019050919050565b60a0820160008201516135d06000850182613622565b5060208201516135e36020850182613622565b5060408201516135f66040850182613622565b5060608201516136096060850182613622565b50608082015161361c6080850182613622565b50505050565b61362b81613a5d565b82525050565b61363a81613a5d565b82525050565b61365161364c82613a5d565b613b5f565b82525050565b600061366382846133fe565b60208201915081905092915050565b600061367e828461344e565b915081905092915050565b60006136958284613640565b60208201915081905092915050565b60006040820190506136b960008301856133d1565b6136c66020830184613631565b9392505050565b60006020820190506136e260008301846133e0565b92915050565b60006020820190506136fd60008301846133ef565b92915050565b600060e082019050818103600083015261371d8186613415565b905081810360208301526137318185613415565b905061374060408301846135ba565b949350505050565b600060208201905081810360008301526137618161347f565b9050919050565b60006020820190508181036000830152613781816134a2565b9050919050565b600060208201905081810360008301526137a1816134c5565b9050919050565b600060208201905081810360008301526137c1816134e8565b9050919050565b600060208201905081810360008301526137e18161350b565b9050919050565b600060208201905081810360008301526138018161352e565b9050919050565b6000602082019050818103600083015261382181613551565b9050919050565b6000602082019050818103600083015261384181613574565b9050919050565b6000602082019050818103600083015261386181613597565b9050919050565b600060208201905061387d6000830184613631565b92915050565b600061388d61389e565b90506138998282613adb565b919050565b6000604051905090565b600067ffffffffffffffff8211156138c3576138c2613c25565b5b6138cc82613c68565b9050602081019050919050565b600081519050919050565b600082825260208201905092915050565b600081905092915050565b600061390b82613a5d565b915061391683613a5d565b9250827fffffffffffffffffffffffffffffffffffffffffffffffffffffffffffffffff0382111561394b5761394a613b69565b5b828201905092915050565b600061396182613a5d565b915061396c83613a5d565b92508261397c5761397b613b98565b5b828204905092915050565b600061399282613a5d565b915061399d83613a5d565b9250817fffffffffffffffffffffffffffffffffffffffffffffffffffffffffffffffff04831182151516156139d6576139d5613b69565b5b828202905092915050565b60006139ec82613a5d565b91506139f783613a5d565b925082821015613a0a57613a09613b69565b5b828203905092915050565b6000613a2082613a3d565b9050919050565b60008115159050919050565b6000819050919050565b600073ffffffffffffffffffffffffffffffffffffffff82169050919050565b6000819050919050565b82818337600083830152505050565b60005b83811015613a94578082015181840152602081019050613a79565b83811115613aa3576000848401525b50505050565b60006002820490506001821680613ac157607f821691505b60208210811415613ad557613ad4613bc7565b5b50919050565b613ae482613c68565b810181811067ffffffffffffffff82111715613b0357613b02613c25565b5b80604052505050565b6000613b1782613a5d565b91507fffffffffffffffffffffffffffffffffffffffffffffffffffffffffffffffff821415613b4a57613b49613b69565b5b600182019050919050565b6000819050919050565b6000819050919050565b7f4e487b7100000000000000000000000000000000000000000000000000000000600052601160045260246000fd5b7f4e487b7100000000000000000000000000000000000000000000000000000000600052601260045260246000fd5b7f4e487b7100000000000000000000000000000000000000000000000000000000600052602260045260246000fd5b7f4e487b7100000000000000000000000000000000000000000000000000000000600052603260045260246000fd5b7f4e487b7100000000000000000000000000000000000000000000000000000000600052604160045260246000fd5b600080fd5b600080fd5b600080fd5b600080fd5b6000601f19601f8301169050919050565b7f4f6e6c79206f776e65722063616e2063616c6c20746869732e00000000000000600082015250565b7f6e6f742065786973740000000000000000000000000000000000000000000000600082015250565b7f706f6f6c206e6f74206578697374000000000000000000000000000000000000600082015250565b7f706f6f6c20626173616c20686173206265656e20736574000000000000000000600082015250565b7f7061697220657869737400000000000000000000000000000000000000000000600082015250565b7f706f6f6c20686173206e6f742066696e69736865640000000000000000000000600082015250565b7f6e6f7420656e6f75676820766f7465416d6f756e740000000000000000000000600082015250565b7f6e6f7420656e6f75676820626173616c00000000000000000000000000000000600082015250565b7f706f6f6c206861732066696e6973686564000000000000000000000000000000600082015250565b613df381613a15565b8114613dfe57600080fd5b50565b613e0a81613a27565b8114613e1557600080fd5b50565b613e2181613a33565b8114613e2c57600080fd5b50565b613e3881613a5d565b8114613e4357600080fd5b5056fea26469706673582212201e70cc1aad2a6596a3e7e9bdd87e7f1aef1e132191936f986e0a2036218f6bde64736f6c63430008070033",
					"opcodes": "PUSH1 0x80 PUSH1 0x40 MSTORE CALLVALUE DUP1 ISZERO PUSH3 0x11 JUMPI PUSH1 0x0 DUP1 REVERT JUMPDEST POP PUSH1 0x40 MLOAD PUSH3 0x3FFE CODESIZE SUB DUP1 PUSH3 0x3FFE DUP4 CODECOPY DUP2 DUP2 ADD PUSH1 0x40 MSTORE DUP2 ADD SWAP1 PUSH3 0x37 SWAP2 SWAP1 PUSH3 0xB4 JUMP JUMPDEST DUP2 PUSH1 0x0 DUP1 PUSH2 0x100 EXP DUP2 SLOAD DUP2 PUSH20 0xFFFFFFFFFFFFFFFFFFFFFFFFFFFFFFFFFFFFFFFF MUL NOT AND SWAP1 DUP4 PUSH20 0xFFFFFFFFFFFFFFFFFFFFFFFFFFFFFFFFFFFFFFFF AND MUL OR SWAP1 SSTORE POP DUP1 PUSH1 0x7 DUP2 SWAP1 SSTORE POP POP POP PUSH3 0x172 JUMP JUMPDEST PUSH1 0x0 DUP2 MLOAD SWAP1 POP PUSH3 0x97 DUP2 PUSH3 0x13E JUMP JUMPDEST SWAP3 SWAP2 POP POP JUMP JUMPDEST PUSH1 0x0 DUP2 MLOAD SWAP1 POP PUSH3 0xAE DUP2 PUSH3 0x158 JUMP JUMPDEST SWAP3 SWAP2 POP POP JUMP JUMPDEST PUSH1 0x0 DUP1 PUSH1 0x40 DUP4 DUP6 SUB SLT ISZERO PUSH3 0xCE JUMPI PUSH3 0xCD PUSH3 0x139 JUMP JUMPDEST JUMPDEST PUSH1 0x0 PUSH3 0xDE DUP6 DUP3 DUP7 ADD PUSH3 0x86 JUMP JUMPDEST SWAP3 POP POP PUSH1 0x20 PUSH3 0xF1 DUP6 DUP3 DUP7 ADD PUSH3 0x9D JUMP JUMPDEST SWAP2 POP POP SWAP3 POP SWAP3 SWAP1 POP JUMP JUMPDEST PUSH1 0x0 PUSH3 0x108 DUP3 PUSH3 0x10F JUMP JUMPDEST SWAP1 POP SWAP2 SWAP1 POP JUMP JUMPDEST PUSH1 0x0 PUSH20 0xFFFFFFFFFFFFFFFFFFFFFFFFFFFFFFFFFFFFFFFF DUP3 AND SWAP1 POP SWAP2 SWAP1 POP JUMP JUMPDEST PUSH1 0x0 DUP2 SWAP1 POP SWAP2 SWAP1 POP JUMP JUMPDEST PUSH1 0x0 DUP1 REVERT JUMPDEST PUSH3 0x149 DUP2 PUSH3 0xFB JUMP JUMPDEST DUP2 EQ PUSH3 0x155 JUMPI PUSH1 0x0 DUP1 REVERT JUMPDEST POP JUMP JUMPDEST PUSH3 0x163 DUP2 PUSH3 0x12F JUMP JUMPDEST DUP2 EQ PUSH3 0x16F JUMPI PUSH1 0x0 DUP1 REVERT JUMPDEST POP JUMP JUMPDEST PUSH2 0x3E7C DUP1 PUSH3 0x182 PUSH1 0x0 CODECOPY PUSH1 0x0 RETURN INVALID PUSH1 0x80 PUSH1 0x40 MSTORE PUSH1 0x4 CALLDATASIZE LT PUSH2 0x8A JUMPI PUSH1 0x0 CALLDATALOAD PUSH1 0xE0 SHR DUP1 PUSH4 0x4121855F GT PUSH2 0x59 JUMPI DUP1 PUSH4 0x4121855F EQ PUSH2 0x253 JUMPI DUP1 PUSH4 0x47E4DD27 EQ PUSH2 0x290 JUMPI DUP1 PUSH4 0x74FE9BC2 EQ PUSH2 0x2CD JUMPI DUP1 PUSH4 0x9BD0ABF1 EQ PUSH2 0x2FD JUMPI DUP1 PUSH4 0xF6C00927 EQ PUSH2 0x32D JUMPI PUSH2 0x179 JUMP JUMPDEST DUP1 PUSH4 0xCE49053 EQ PUSH2 0x17E JUMPI DUP1 PUSH4 0x2BF21ECC EQ PUSH2 0x1AE JUMPI DUP1 PUSH4 0x357965BA EQ PUSH2 0x1EB JUMPI DUP1 PUSH4 0x3E6FF1A2 EQ PUSH2 0x228 JUMPI PUSH2 0x179 JUMP JUMPDEST CALLDATASIZE PUSH2 0x179 JUMPI PUSH1 0x0 DUP1 SLOAD SWAP1 PUSH2 0x100 EXP SWAP1 DIV PUSH20 0xFFFFFFFFFFFFFFFFFFFFFFFFFFFFFFFFFFFFFFFF AND PUSH20 0xFFFFFFFFFFFFFFFFFFFFFFFFFFFFFFFFFFFFFFFF AND CALLER PUSH20 0xFFFFFFFFFFFFFFFFFFFFFFFFFFFFFFFFFFFFFFFF AND EQ PUSH2 0x176 JUMPI CALLVALUE PUSH1 0x5 PUSH1 0x0 CALLER PUSH20 0xFFFFFFFFFFFFFFFFFFFFFFFFFFFFFFFFFFFFFFFF AND PUSH20 0xFFFFFFFFFFFFFFFFFFFFFFFFFFFFFFFFFFFFFFFF AND DUP2 MSTORE PUSH1 0x20 ADD SWAP1 DUP2 MSTORE PUSH1 0x20 ADD PUSH1 0x0 KECCAK256 PUSH1 0x0 DUP3 DUP3 SLOAD PUSH2 0x131 SWAP2 SWAP1 PUSH2 0x3900 JUMP JUMPDEST SWAP3 POP POP DUP2 SWAP1 SSTORE POP PUSH32 0x88A5966D370B9919B20F3E2C13FF65706F196A4E32CC2C12BF57088F88525874 CALLER CALLVALUE PUSH1 0x40 MLOAD PUSH2 0x169 SWAP3 SWAP2 SWAP1 PUSH2 0x36A4 JUMP JUMPDEST PUSH1 0x40 MLOAD DUP1 SWAP2 SUB SWAP1 LOG1 PUSH2 0x177 JUMP JUMPDEST JUMPDEST STOP JUMPDEST PUSH1 0x0 DUP1 REVERT JUMPDEST PUSH2 0x198 PUSH1 0x4 DUP1 CALLDATASIZE SUB DUP2 ADD SWAP1 PUSH2 0x193 SWAP2 SWAP1 PUSH2 0x3135 JUMP JUMPDEST PUSH2 0x36C JUMP JUMPDEST PUSH1 0x40 MLOAD PUSH2 0x1A5 SWAP2 SWAP1 PUSH2 0x36CD JUMP JUMPDEST PUSH1 0x40 MLOAD DUP1 SWAP2 SUB SWAP1 RETURN JUMPDEST CALLVALUE DUP1 ISZERO PUSH2 0x1BA JUMPI PUSH1 0x0 DUP1 REVERT JUMPDEST POP PUSH2 0x1D5 PUSH1 0x4 DUP1 CALLDATASIZE SUB DUP2 ADD SWAP1 PUSH2 0x1D0 SWAP2 SWAP1 PUSH2 0x326F JUMP JUMPDEST PUSH2 0x7A4 JUMP JUMPDEST PUSH1 0x40 MLOAD PUSH2 0x1E2 SWAP2 SWAP1 PUSH2 0x36CD JUMP JUMPDEST PUSH1 0x40 MLOAD DUP1 SWAP2 SUB SWAP1 RETURN JUMPDEST CALLVALUE DUP1 ISZERO PUSH2 0x1F7 JUMPI PUSH1 0x0 DUP1 REVERT JUMPDEST POP PUSH2 0x212 PUSH1 0x4 DUP1 CALLDATASIZE SUB DUP2 ADD SWAP1 PUSH2 0x20D SWAP2 SWAP1 PUSH2 0x3316 JUMP JUMPDEST PUSH2 0xBA3 JUMP JUMPDEST PUSH1 0x40 MLOAD PUSH2 0x21F SWAP2 SWAP1 PUSH2 0x36E8 JUMP JUMPDEST PUSH1 0x40 MLOAD DUP1 SWAP2 SUB SWAP1 RETURN JUMPDEST CALLVALUE DUP1 ISZERO PUSH2 0x234 JUMPI PUSH1 0x0 DUP1 REVERT JUMPDEST POP PUSH2 0x23D PUSH2 0xE6B JUMP JUMPDEST PUSH1 0x40 MLOAD PUSH2 0x24A SWAP2 SWAP1 PUSH2 0x3868 JUMP JUMPDEST PUSH1 0x40 MLOAD DUP1 SWAP2 SUB SWAP1 RETURN JUMPDEST CALLVALUE DUP1 ISZERO PUSH2 0x25F JUMPI PUSH1 0x0 DUP1 REVERT JUMPDEST POP PUSH2 0x27A PUSH1 0x4 DUP1 CALLDATASIZE SUB DUP2 ADD SWAP1 PUSH2 0x275 SWAP2 SWAP1 PUSH2 0x3242 JUMP JUMPDEST PUSH2 0xF04 JUMP JUMPDEST PUSH1 0x40 MLOAD PUSH2 0x287 SWAP2 SWAP1 PUSH2 0x3868 JUMP JUMPDEST PUSH1 0x40 MLOAD DUP1 SWAP2 SUB SWAP1 RETURN JUMPDEST CALLVALUE DUP1 ISZERO PUSH2 0x29C JUMPI PUSH1 0x0 DUP1 REVERT JUMPDEST POP PUSH2 0x2B7 PUSH1 0x4 DUP1 CALLDATASIZE SUB DUP2 ADD SWAP1 PUSH2 0x2B2 SWAP2 SWAP1 PUSH2 0x31B5 JUMP JUMPDEST PUSH2 0x129B JUMP JUMPDEST PUSH1 0x40 MLOAD PUSH2 0x2C4 SWAP2 SWAP1 PUSH2 0x36CD JUMP JUMPDEST PUSH1 0x40 MLOAD DUP1 SWAP2 SUB SWAP1 RETURN JUMPDEST PUSH2 0x2E7 PUSH1 0x4 DUP1 CALLDATASIZE SUB DUP2 ADD SWAP1 PUSH2 0x2E2 SWAP2 SWAP1 PUSH2 0x32AF JUMP JUMPDEST PUSH2 0x1A7C JUMP JUMPDEST PUSH1 0x40 MLOAD PUSH2 0x2F4 SWAP2 SWAP1 PUSH2 0x36CD JUMP JUMPDEST PUSH1 0x40 MLOAD DUP1 SWAP2 SUB SWAP1 RETURN JUMPDEST PUSH2 0x317 PUSH1 0x4 DUP1 CALLDATASIZE SUB DUP2 ADD SWAP1 PUSH2 0x312 SWAP2 SWAP1 PUSH2 0x3175 JUMP JUMPDEST PUSH2 0x24EF JUMP JUMPDEST PUSH1 0x40 MLOAD PUSH2 0x324 SWAP2 SWAP1 PUSH2 0x36CD JUMP JUMPDEST PUSH1 0x40 MLOAD DUP1 SWAP2 SUB SWAP1 RETURN JUMPDEST CALLVALUE DUP1 ISZERO PUSH2 0x339 JUMPI PUSH1 0x0 DUP1 REVERT JUMPDEST POP PUSH2 0x354 PUSH1 0x4 DUP1 CALLDATASIZE SUB DUP2 ADD SWAP1 PUSH2 0x34F SWAP2 SWAP1 PUSH2 0x3242 JUMP JUMPDEST PUSH2 0x26E6 JUMP JUMPDEST PUSH1 0x40 MLOAD PUSH2 0x363 SWAP4 SWAP3 SWAP2 SWAP1 PUSH2 0x3703 JUMP JUMPDEST PUSH1 0x40 MLOAD DUP1 SWAP2 SUB SWAP1 RETURN JUMPDEST PUSH1 0x0 DUP1 PUSH1 0x0 SWAP1 SLOAD SWAP1 PUSH2 0x100 EXP SWAP1 DIV PUSH20 0xFFFFFFFFFFFFFFFFFFFFFFFFFFFFFFFFFFFFFFFF AND PUSH20 0xFFFFFFFFFFFFFFFFFFFFFFFFFFFFFFFFFFFFFFFF AND CALLER PUSH20 0xFFFFFFFFFFFFFFFFFFFFFFFFFFFFFFFFFFFFFFFF AND EQ PUSH2 0x3FD JUMPI PUSH1 0x40 MLOAD PUSH32 0x8C379A000000000000000000000000000000000000000000000000000000000 DUP2 MSTORE PUSH1 0x4 ADD PUSH2 0x3F4 SWAP1 PUSH2 0x3748 JUMP JUMPDEST PUSH1 0x40 MLOAD DUP1 SWAP2 SUB SWAP1 REVERT JUMPDEST PUSH2 0x406 DUP3 PUSH2 0x2A13 JUMP JUMPDEST PUSH2 0x445 JUMPI PUSH1 0x40 MLOAD PUSH32 0x8C379A000000000000000000000000000000000000000000000000000000000 DUP2 MSTORE PUSH1 0x4 ADD PUSH2 0x43C SWAP1 PUSH2 0x3788 JUMP JUMPDEST PUSH1 0x40 MLOAD DUP1 SWAP2 SUB SWAP1 REVERT JUMPDEST PUSH1 0x0 PUSH1 0x6 PUSH1 0x0 DUP5 DUP2 MSTORE PUSH1 0x20 ADD SWAP1 DUP2 MSTORE PUSH1 0x20 ADD PUSH1 0x0 KECCAK256 PUSH1 0x40 MLOAD DUP1 PUSH2 0x160 ADD PUSH1 0x40 MSTORE SWAP1 DUP2 PUSH1 0x0 DUP3 ADD DUP1 SLOAD PUSH2 0x476 SWAP1 PUSH2 0x3AA9 JUMP JUMPDEST DUP1 PUSH1 0x1F ADD PUSH1 0x20 DUP1 SWAP2 DIV MUL PUSH1 0x20 ADD PUSH1 0x40 MLOAD SWAP1 DUP2 ADD PUSH1 0x40 MSTORE DUP1 SWAP3 SWAP2 SWAP1 DUP2 DUP2 MSTORE PUSH1 0x20 ADD DUP3 DUP1 SLOAD PUSH2 0x4A2 SWAP1 PUSH2 0x3AA9 JUMP JUMPDEST DUP1 ISZERO PUSH2 0x4EF JUMPI DUP1 PUSH1 0x1F LT PUSH2 0x4C4 JUMPI PUSH2 0x100 DUP1 DUP4 SLOAD DIV MUL DUP4 MSTORE SWAP2 PUSH1 0x20 ADD SWAP2 PUSH2 0x4EF JUMP JUMPDEST DUP3 ADD SWAP2 SWAP1 PUSH1 0x0 MSTORE PUSH1 0x20 PUSH1 0x0 KECCAK256 SWAP1 JUMPDEST DUP2 SLOAD DUP2 MSTORE SWAP1 PUSH1 0x1 ADD SWAP1 PUSH1 0x20 ADD DUP1 DUP4 GT PUSH2 0x4D2 JUMPI DUP3 SWAP1 SUB PUSH1 0x1F AND DUP3 ADD SWAP2 JUMPDEST POP POP POP POP POP DUP2 MSTORE PUSH1 0x20 ADD PUSH1 0x1 DUP3 ADD DUP1 SLOAD PUSH2 0x508 SWAP1 PUSH2 0x3AA9 JUMP JUMPDEST DUP1 PUSH1 0x1F ADD PUSH1 0x20 DUP1 SWAP2 DIV MUL PUSH1 0x20 ADD PUSH1 0x40 MLOAD SWAP1 DUP2 ADD PUSH1 0x40 MSTORE DUP1 SWAP3 SWAP2 SWAP1 DUP2 DUP2 MSTORE PUSH1 0x20 ADD DUP3 DUP1 SLOAD PUSH2 0x534 SWAP1 PUSH2 0x3AA9 JUMP JUMPDEST DUP1 ISZERO PUSH2 0x581 JUMPI DUP1 PUSH1 0x1F LT PUSH2 0x556 JUMPI PUSH2 0x100 DUP1 DUP4 SLOAD DIV MUL DUP4 MSTORE SWAP2 PUSH1 0x20 ADD SWAP2 PUSH2 0x581 JUMP JUMPDEST DUP3 ADD SWAP2 SWAP1 PUSH1 0x0 MSTORE PUSH1 0x20 PUSH1 0x0 KECCAK256 SWAP1 JUMPDEST DUP2 SLOAD DUP2 MSTORE SWAP1 PUSH1 0x1 ADD SWAP1 PUSH1 0x20 ADD DUP1 DUP4 GT PUSH2 0x564 JUMPI DUP3 SWAP1 SUB PUSH1 0x1F AND DUP3 ADD SWAP2 JUMPDEST POP POP POP POP POP DUP2 MSTORE PUSH1 0x20 ADD PUSH1 0x2 DUP3 ADD DUP1 SLOAD PUSH2 0x59A SWAP1 PUSH2 0x3AA9 JUMP JUMPDEST DUP1 PUSH1 0x1F ADD PUSH1 0x20 DUP1 SWAP2 DIV MUL PUSH1 0x20 ADD PUSH1 0x40 MLOAD SWAP1 DUP2 ADD PUSH1 0x40 MSTORE DUP1 SWAP3 SWAP2 SWAP1 DUP2 DUP2 MSTORE PUSH1 0x20 ADD DUP3 DUP1 SLOAD PUSH2 0x5C6 SWAP1 PUSH2 0x3AA9 JUMP JUMPDEST DUP1 ISZERO PUSH2 0x613 JUMPI DUP1 PUSH1 0x1F LT PUSH2 0x5E8 JUMPI PUSH2 0x100 DUP1 DUP4 SLOAD DIV MUL DUP4 MSTORE SWAP2 PUSH1 0x20 ADD SWAP2 PUSH2 0x613 JUMP JUMPDEST DUP3 ADD SWAP2 SWAP1 PUSH1 0x0 MSTORE PUSH1 0x20 PUSH1 0x0 KECCAK256 SWAP1 JUMPDEST DUP2 SLOAD DUP2 MSTORE SWAP1 PUSH1 0x1 ADD SWAP1 PUSH1 0x20 ADD DUP1 DUP4 GT PUSH2 0x5F6 JUMPI DUP3 SWAP1 SUB PUSH1 0x1F AND DUP3 ADD SWAP2 JUMPDEST POP POP POP POP POP DUP2 MSTORE PUSH1 0x20 ADD PUSH1 0x3 DUP3 ADD SLOAD DUP2 MSTORE PUSH1 0x20 ADD PUSH1 0x4 DUP3 ADD SLOAD DUP2 MSTORE PUSH1 0x20 ADD PUSH1 0x5 DUP3 ADD SLOAD DUP2 MSTORE PUSH1 0x20 ADD PUSH1 0x6 DUP3 ADD SLOAD DUP2 MSTORE PUSH1 0x20 ADD PUSH1 0x7 DUP3 ADD SLOAD DUP2 MSTORE PUSH1 0x20 ADD PUSH1 0x8 DUP3 ADD PUSH1 0x0 SWAP1 SLOAD SWAP1 PUSH2 0x100 EXP SWAP1 DIV PUSH1 0xFF AND ISZERO ISZERO ISZERO ISZERO DUP2 MSTORE PUSH1 0x20 ADD PUSH1 0x8 DUP3 ADD PUSH1 0x1 SWAP1 SLOAD SWAP1 PUSH2 0x100 EXP SWAP1 DIV PUSH1 0xFF AND ISZERO ISZERO ISZERO ISZERO DUP2 MSTORE PUSH1 0x20 ADD PUSH1 0x8 DUP3 ADD PUSH1 0x2 SWAP1 SLOAD SWAP1 PUSH2 0x100 EXP SWAP1 DIV PUSH1 0xFF AND ISZERO ISZERO ISZERO ISZERO DUP2 MSTORE POP POP SWAP1 POP PUSH1 0x0 PUSH2 0x6F7 PUSH1 0xA DUP4 PUSH1 0xE0 ADD MLOAD DUP5 PUSH1 0xC0 ADD MLOAD DUP6 PUSH1 0x80 ADD MLOAD DUP7 PUSH1 0xA0 ADD MLOAD DUP8 PUSH1 0x60 ADD MLOAD PUSH2 0x6CB SWAP2 SWAP1 PUSH2 0x3900 JUMP JUMPDEST PUSH2 0x6D5 SWAP2 SWAP1 PUSH2 0x3900 JUMP JUMPDEST PUSH2 0x6DF SWAP2 SWAP1 PUSH2 0x3900 JUMP JUMPDEST PUSH2 0x6E9 SWAP2 SWAP1 PUSH2 0x3900 JUMP JUMPDEST PUSH2 0x2A40 SWAP1 SWAP2 SWAP1 PUSH4 0xFFFFFFFF AND JUMP JUMPDEST SWAP1 POP PUSH1 0x1 DUP3 PUSH2 0x140 ADD SWAP1 ISZERO ISZERO SWAP1 DUP2 ISZERO ISZERO DUP2 MSTORE POP ISZERO PUSH2 0x761 JUMPI PUSH1 0x0 DUP6 SWAP1 POP DUP1 PUSH20 0xFFFFFFFFFFFFFFFFFFFFFFFFFFFFFFFFFFFFFFFF AND PUSH2 0x8FC DUP4 SWAP1 DUP2 ISZERO MUL SWAP1 PUSH1 0x40 MLOAD PUSH1 0x0 PUSH1 0x40 MLOAD DUP1 DUP4 SUB DUP2 DUP6 DUP9 DUP9 CALL SWAP4 POP POP POP POP ISZERO DUP1 ISZERO PUSH2 0x75A JUMPI RETURNDATASIZE PUSH1 0x0 DUP1 RETURNDATACOPY RETURNDATASIZE PUSH1 0x0 REVERT JUMPDEST POP POP PUSH2 0x79C JUMP JUMPDEST PUSH1 0x40 MLOAD PUSH32 0x8C379A000000000000000000000000000000000000000000000000000000000 DUP2 MSTORE PUSH1 0x4 ADD PUSH2 0x793 SWAP1 PUSH2 0x37E8 JUMP JUMPDEST PUSH1 0x40 MLOAD DUP1 SWAP2 SUB SWAP1 REVERT JUMPDEST POP POP SWAP3 SWAP2 POP POP JUMP JUMPDEST PUSH1 0x0 DUP1 PUSH1 0x0 SWAP1 SLOAD SWAP1 PUSH2 0x100 EXP SWAP1 DIV PUSH20 0xFFFFFFFFFFFFFFFFFFFFFFFFFFFFFFFFFFFFFFFF AND PUSH20 0xFFFFFFFFFFFFFFFFFFFFFFFFFFFFFFFFFFFFFFFF AND CALLER PUSH20 0xFFFFFFFFFFFFFFFFFFFFFFFFFFFFFFFFFFFFFFFF AND EQ PUSH2 0x835 JUMPI PUSH1 0x40 MLOAD PUSH32 0x8C379A000000000000000000000000000000000000000000000000000000000 DUP2 MSTORE PUSH1 0x4 ADD PUSH2 0x82C SWAP1 PUSH2 0x3748 JUMP JUMPDEST PUSH1 0x40 MLOAD DUP1 SWAP2 SUB SWAP1 REVERT JUMPDEST PUSH2 0x83E DUP4 PUSH2 0x2A13 JUMP JUMPDEST PUSH2 0x87D JUMPI PUSH1 0x40 MLOAD PUSH32 0x8C379A000000000000000000000000000000000000000000000000000000000 DUP2 MSTORE PUSH1 0x4 ADD PUSH2 0x874 SWAP1 PUSH2 0x3788 JUMP JUMPDEST PUSH1 0x40 MLOAD DUP1 SWAP2 SUB SWAP1 REVERT JUMPDEST PUSH1 0x0 PUSH1 0x6 PUSH1 0x0 DUP6 DUP2 MSTORE PUSH1 0x20 ADD SWAP1 DUP2 MSTORE PUSH1 0x20 ADD PUSH1 0x0 KECCAK256 PUSH1 0x40 MLOAD DUP1 PUSH2 0x160 ADD PUSH1 0x40 MSTORE SWAP1 DUP2 PUSH1 0x0 DUP3 ADD DUP1 SLOAD PUSH2 0x8AE SWAP1 PUSH2 0x3AA9 JUMP JUMPDEST DUP1 PUSH1 0x1F ADD PUSH1 0x20 DUP1 SWAP2 DIV MUL PUSH1 0x20 ADD PUSH1 0x40 MLOAD SWAP1 DUP2 ADD PUSH1 0x40 MSTORE DUP1 SWAP3 SWAP2 SWAP1 DUP2 DUP2 MSTORE PUSH1 0x20 ADD DUP3 DUP1 SLOAD PUSH2 0x8DA SWAP1 PUSH2 0x3AA9 JUMP JUMPDEST DUP1 ISZERO PUSH2 0x927 JUMPI DUP1 PUSH1 0x1F LT PUSH2 0x8FC JUMPI PUSH2 0x100 DUP1 DUP4 SLOAD DIV MUL DUP4 MSTORE SWAP2 PUSH1 0x20 ADD SWAP2 PUSH2 0x927 JUMP JUMPDEST DUP3 ADD SWAP2 SWAP1 PUSH1 0x0 MSTORE PUSH1 0x20 PUSH1 0x0 KECCAK256 SWAP1 JUMPDEST DUP2 SLOAD DUP2 MSTORE SWAP1 PUSH1 0x1 ADD SWAP1 PUSH1 0x20 ADD DUP1 DUP4 GT PUSH2 0x90A JUMPI DUP3 SWAP1 SUB PUSH1 0x1F AND DUP3 ADD SWAP2 JUMPDEST POP POP POP POP POP DUP2 MSTORE PUSH1 0x20 ADD PUSH1 0x1 DUP3 ADD DUP1 SLOAD PUSH2 0x940 SWAP1 PUSH2 0x3AA9 JUMP JUMPDEST DUP1 PUSH1 0x1F ADD PUSH1 0x20 DUP1 SWAP2 DIV MUL PUSH1 0x20 ADD PUSH1 0x40 MLOAD SWAP1 DUP2 ADD PUSH1 0x40 MSTORE DUP1 SWAP3 SWAP2 SWAP1 DUP2 DUP2 MSTORE PUSH1 0x20 ADD DUP3 DUP1 SLOAD PUSH2 0x96C SWAP1 PUSH2 0x3AA9 JUMP JUMPDEST DUP1 ISZERO PUSH2 0x9B9 JUMPI DUP1 PUSH1 0x1F LT PUSH2 0x98E JUMPI PUSH2 0x100 DUP1 DUP4 SLOAD DIV MUL DUP4 MSTORE SWAP2 PUSH1 0x20 ADD SWAP2 PUSH2 0x9B9 JUMP JUMPDEST DUP3 ADD SWAP2 SWAP1 PUSH1 0x0 MSTORE PUSH1 0x20 PUSH1 0x0 KECCAK256 SWAP1 JUMPDEST DUP2 SLOAD DUP2 MSTORE SWAP1 PUSH1 0x1 ADD SWAP1 PUSH1 0x20 ADD DUP1 DUP4 GT PUSH2 0x99C JUMPI DUP3 SWAP1 SUB PUSH1 0x1F AND DUP3 ADD SWAP2 JUMPDEST POP POP POP POP POP DUP2 MSTORE PUSH1 0x20 ADD PUSH1 0x2 DUP3 ADD DUP1 SLOAD PUSH2 0x9D2 SWAP1 PUSH2 0x3AA9 JUMP JUMPDEST DUP1 PUSH1 0x1F ADD PUSH1 0x20 DUP1 SWAP2 DIV MUL PUSH1 0x20 ADD PUSH1 0x40 MLOAD SWAP1 DUP2 ADD PUSH1 0x40 MSTORE DUP1 SWAP3 SWAP2 SWAP1 DUP2 DUP2 MSTORE PUSH1 0x20 ADD DUP3 DUP1 SLOAD PUSH2 0x9FE SWAP1 PUSH2 0x3AA9 JUMP JUMPDEST DUP1 ISZERO PUSH2 0xA4B JUMPI DUP1 PUSH1 0x1F LT PUSH2 0xA20 JUMPI PUSH2 0x100 DUP1 DUP4 SLOAD DIV MUL DUP4 MSTORE SWAP2 PUSH1 0x20 ADD SWAP2 PUSH2 0xA4B JUMP JUMPDEST DUP3 ADD SWAP2 SWAP1 PUSH1 0x0 MSTORE PUSH1 0x20 PUSH1 0x0 KECCAK256 SWAP1 JUMPDEST DUP2 SLOAD DUP2 MSTORE SWAP1 PUSH1 0x1 ADD SWAP1 PUSH1 0x20 ADD DUP1 DUP4 GT PUSH2 0xA2E JUMPI DUP3 SWAP1 SUB PUSH1 0x1F AND DUP3 ADD SWAP2 JUMPDEST POP POP POP POP POP DUP2 MSTORE PUSH1 0x20 ADD PUSH1 0x3 DUP3 ADD SLOAD DUP2 MSTORE PUSH1 0x20 ADD PUSH1 0x4 DUP3 ADD SLOAD DUP2 MSTORE PUSH1 0x20 ADD PUSH1 0x5 DUP3 ADD SLOAD DUP2 MSTORE PUSH1 0x20 ADD PUSH1 0x6 DUP3 ADD SLOAD DUP2 MSTORE PUSH1 0x20 ADD PUSH1 0x7 DUP3 ADD SLOAD DUP2 MSTORE PUSH1 0x20 ADD PUSH1 0x8 DUP3 ADD PUSH1 0x0 SWAP1 SLOAD SWAP1 PUSH2 0x100 EXP SWAP1 DIV PUSH1 0xFF AND ISZERO ISZERO ISZERO ISZERO DUP2 MSTORE PUSH1 0x20 ADD PUSH1 0x8 DUP3 ADD PUSH1 0x1 SWAP1 SLOAD SWAP1 PUSH2 0x100 EXP SWAP1 DIV PUSH1 0xFF AND ISZERO ISZERO ISZERO ISZERO DUP2 MSTORE PUSH1 0x20 ADD PUSH1 0x8 DUP3 ADD PUSH1 0x2 SWAP1 SLOAD SWAP1 PUSH2 0x100 EXP SWAP1 DIV PUSH1 0xFF AND ISZERO ISZERO ISZERO ISZERO DUP2 MSTORE POP POP SWAP1 POP PUSH1 0x0 DUP2 PUSH1 0xE0 ADD MLOAD GT ISZERO PUSH2 0xB21 JUMPI PUSH1 0x40 MLOAD PUSH32 0x8C379A000000000000000000000000000000000000000000000000000000000 DUP2 MSTORE PUSH1 0x4 ADD PUSH2 0xB18 SWAP1 PUSH2 0x37A8 JUMP JUMPDEST PUSH1 0x40 MLOAD DUP1 SWAP2 SUB SWAP1 REVERT JUMPDEST DUP3 PUSH1 0x7 SLOAD GT ISZERO PUSH2 0xB66 JUMPI PUSH1 0x40 MLOAD PUSH32 0x8C379A000000000000000000000000000000000000000000000000000000000 DUP2 MSTORE PUSH1 0x4 ADD PUSH2 0xB5D SWAP1 PUSH2 0x3828 JUMP JUMPDEST PUSH1 0x40 MLOAD DUP1 SWAP2 SUB SWAP1 REVERT JUMPDEST DUP3 DUP2 PUSH1 0xE0 ADD DUP2 DUP2 MLOAD PUSH2 0xB78 SWAP2 SWAP1 PUSH2 0x3900 JUMP JUMPDEST SWAP2 POP DUP2 DUP2 MSTORE POP POP DUP3 PUSH1 0x7 PUSH1 0x0 DUP3 DUP3 SLOAD PUSH2 0xB91 SWAP2 SWAP1 PUSH2 0x39E1 JUMP JUMPDEST SWAP3 POP POP DUP2 SWAP1 SSTORE POP PUSH1 0x1 SWAP2 POP POP SWAP3 SWAP2 POP POP JUMP JUMPDEST PUSH1 0x0 DUP1 PUSH1 0x0 SWAP1 SLOAD SWAP1 PUSH2 0x100 EXP SWAP1 DIV PUSH20 0xFFFFFFFFFFFFFFFFFFFFFFFFFFFFFFFFFFFFFFFF AND PUSH20 0xFFFFFFFFFFFFFFFFFFFFFFFFFFFFFFFFFFFFFFFF AND CALLER PUSH20 0xFFFFFFFFFFFFFFFFFFFFFFFFFFFFFFFFFFFFFFFF AND EQ PUSH2 0xC34 JUMPI PUSH1 0x40 MLOAD PUSH32 0x8C379A000000000000000000000000000000000000000000000000000000000 DUP2 MSTORE PUSH1 0x4 ADD PUSH2 0xC2B SWAP1 PUSH2 0x3748 JUMP JUMPDEST PUSH1 0x40 MLOAD DUP1 SWAP2 SUB SWAP1 REVERT JUMPDEST PUSH1 0x0 PUSH2 0xC40 DUP7 DUP7 PUSH2 0x2A68 JUMP JUMPDEST SWAP1 POP PUSH1 0x0 PUSH2 0xC4E DUP3 DUP7 PUSH2 0x2A68 JUMP JUMPDEST SWAP1 POP PUSH1 0x0 DUP2 PUSH1 0x40 MLOAD PUSH1 0x20 ADD PUSH2 0xC63 SWAP2 SWAP1 PUSH2 0x3672 JUMP JUMPDEST PUSH1 0x40 MLOAD PUSH1 0x20 DUP2 DUP4 SUB SUB DUP2 MSTORE SWAP1 PUSH1 0x40 MSTORE DUP1 MLOAD SWAP1 PUSH1 0x20 ADD KECCAK256 SWAP1 POP PUSH2 0xC84 DUP2 PUSH2 0x2A13 JUMP JUMPDEST ISZERO PUSH2 0xCC4 JUMPI PUSH1 0x40 MLOAD PUSH32 0x8C379A000000000000000000000000000000000000000000000000000000000 DUP2 MSTORE PUSH1 0x4 ADD PUSH2 0xCBB SWAP1 PUSH2 0x37C8 JUMP JUMPDEST PUSH1 0x40 MLOAD DUP1 SWAP2 SUB SWAP1 REVERT JUMPDEST PUSH1 0x1 PUSH1 0x6 PUSH1 0x0 DUP4 DUP2 MSTORE PUSH1 0x20 ADD SWAP1 DUP2 MSTORE PUSH1 0x20 ADD PUSH1 0x0 KECCAK256 PUSH1 0x8 ADD PUSH1 0x1 PUSH2 0x100 EXP DUP2 SLOAD DUP2 PUSH1 0xFF MUL NOT AND SWAP1 DUP4 ISZERO ISZERO MUL OR SWAP1 SSTORE POP DUP8 PUSH1 0x6 PUSH1 0x0 DUP4 DUP2 MSTORE PUSH1 0x20 ADD SWAP1 DUP2 MSTORE PUSH1 0x20 ADD PUSH1 0x0 KECCAK256 PUSH1 0x0 ADD SWAP1 DUP1 MLOAD SWAP1 PUSH1 0x20 ADD SWAP1 PUSH2 0xD1D SWAP3 SWAP2 SWAP1 PUSH2 0x2F9F JUMP JUMPDEST POP DUP7 PUSH1 0x6 PUSH1 0x0 DUP4 DUP2 MSTORE PUSH1 0x20 ADD SWAP1 DUP2 MSTORE PUSH1 0x20 ADD PUSH1 0x0 KECCAK256 PUSH1 0x1 ADD SWAP1 DUP1 MLOAD SWAP1 PUSH1 0x20 ADD SWAP1 PUSH2 0xD48 SWAP3 SWAP2 SWAP1 PUSH2 0x2F9F JUMP JUMPDEST POP DUP6 PUSH1 0x6 PUSH1 0x0 DUP4 DUP2 MSTORE PUSH1 0x20 ADD SWAP1 DUP2 MSTORE PUSH1 0x20 ADD PUSH1 0x0 KECCAK256 PUSH1 0x2 ADD SWAP1 DUP1 MLOAD SWAP1 PUSH1 0x20 ADD SWAP1 PUSH2 0xD73 SWAP3 SWAP2 SWAP1 PUSH2 0x2F9F JUMP JUMPDEST POP PUSH1 0x0 PUSH1 0x6 PUSH1 0x0 DUP4 DUP2 MSTORE PUSH1 0x20 ADD SWAP1 DUP2 MSTORE PUSH1 0x20 ADD PUSH1 0x0 KECCAK256 PUSH1 0x3 ADD DUP2 SWAP1 SSTORE POP PUSH1 0x0 PUSH1 0x6 PUSH1 0x0 DUP4 DUP2 MSTORE PUSH1 0x20 ADD SWAP1 DUP2 MSTORE PUSH1 0x20 ADD PUSH1 0x0 KECCAK256 PUSH1 0x4 ADD DUP2 SWAP1 SSTORE POP PUSH1 0x0 PUSH1 0x6 PUSH1 0x0 DUP4 DUP2 MSTORE PUSH1 0x20 ADD SWAP1 DUP2 MSTORE PUSH1 0x20 ADD PUSH1 0x0 KECCAK256 PUSH1 0x5 ADD DUP2 SWAP1 SSTORE POP PUSH1 0x0 PUSH1 0x6 PUSH1 0x0 DUP4 DUP2 MSTORE PUSH1 0x20 ADD SWAP1 DUP2 MSTORE PUSH1 0x20 ADD PUSH1 0x0 KECCAK256 PUSH1 0x6 ADD DUP2 SWAP1 SSTORE POP PUSH1 0x0 PUSH1 0x6 PUSH1 0x0 DUP4 DUP2 MSTORE PUSH1 0x20 ADD SWAP1 DUP2 MSTORE PUSH1 0x20 ADD PUSH1 0x0 KECCAK256 PUSH1 0x7 ADD DUP2 SWAP1 SSTORE POP DUP5 PUSH1 0x6 PUSH1 0x0 DUP4 DUP2 MSTORE PUSH1 0x20 ADD SWAP1 DUP2 MSTORE PUSH1 0x20 ADD PUSH1 0x0 KECCAK256 PUSH1 0x8 ADD PUSH1 0x0 PUSH2 0x100 EXP DUP2 SLOAD DUP2 PUSH1 0xFF MUL NOT AND SWAP1 DUP4 ISZERO ISZERO MUL OR SWAP1 SSTORE POP PUSH1 0x0 PUSH1 0x6 PUSH1 0x0 DUP4 DUP2 MSTORE PUSH1 0x20 ADD SWAP1 DUP2 MSTORE PUSH1 0x20 ADD PUSH1 0x0 KECCAK256 PUSH1 0x8 ADD PUSH1 0x2 PUSH2 0x100 EXP DUP2 SLOAD DUP2 PUSH1 0xFF MUL NOT AND SWAP1 DUP4 ISZERO ISZERO MUL OR SWAP1 SSTORE POP DUP1 SWAP4 POP POP POP POP SWAP5 SWAP4 POP POP POP POP JUMP JUMPDEST PUSH1 0x0 DUP1 PUSH1 0x0 SWAP1 SLOAD SWAP1 PUSH2 0x100 EXP SWAP1 DIV PUSH20 0xFFFFFFFFFFFFFFFFFFFFFFFFFFFFFFFFFFFFFFFF AND PUSH20 0xFFFFFFFFFFFFFFFFFFFFFFFFFFFFFFFFFFFFFFFF AND CALLER PUSH20 0xFFFFFFFFFFFFFFFFFFFFFFFFFFFFFFFFFFFFFFFF AND EQ PUSH2 0xEFC JUMPI PUSH1 0x40 MLOAD PUSH32 0x8C379A000000000000000000000000000000000000000000000000000000000 DUP2 MSTORE PUSH1 0x4 ADD PUSH2 0xEF3 SWAP1 PUSH2 0x3748 JUMP JUMPDEST PUSH1 0x40 MLOAD DUP1 SWAP2 SUB SWAP1 REVERT JUMPDEST PUSH1 0x7 SLOAD SWAP1 POP SWAP1 JUMP JUMPDEST PUSH1 0x0 DUP1 PUSH1 0x0 SWAP1 SLOAD SWAP1 PUSH2 0x100 EXP SWAP1 DIV PUSH20 0xFFFFFFFFFFFFFFFFFFFFFFFFFFFFFFFFFFFFFFFF AND PUSH20 0xFFFFFFFFFFFFFFFFFFFFFFFFFFFFFFFFFFFFFFFF AND CALLER PUSH20 0xFFFFFFFFFFFFFFFFFFFFFFFFFFFFFFFFFFFFFFFF AND EQ PUSH2 0xF95 JUMPI PUSH1 0x40 MLOAD PUSH32 0x8C379A000000000000000000000000000000000000000000000000000000000 DUP2 MSTORE PUSH1 0x4 ADD PUSH2 0xF8C SWAP1 PUSH2 0x3748 JUMP JUMPDEST PUSH1 0x40 MLOAD DUP1 SWAP2 SUB SWAP1 REVERT JUMPDEST PUSH2 0xF9E DUP3 PUSH2 0x2A13 JUMP JUMPDEST PUSH2 0xFDD JUMPI PUSH1 0x40 MLOAD PUSH32 0x8C379A000000000000000000000000000000000000000000000000000000000 DUP2 MSTORE PUSH1 0x4 ADD PUSH2 0xFD4 SWAP1 PUSH2 0x3788 JUMP JUMPDEST PUSH1 0x40 MLOAD DUP1 SWAP2 SUB SWAP1 REVERT JUMPDEST PUSH1 0x0 PUSH1 0x6 PUSH1 0x0 DUP5 DUP2 MSTORE PUSH1 0x20 ADD SWAP1 DUP2 MSTORE PUSH1 0x20 ADD PUSH1 0x0 KECCAK256 PUSH1 0x40 MLOAD DUP1 PUSH2 0x160 ADD PUSH1 0x40 MSTORE SWAP1 DUP2 PUSH1 0x0 DUP3 ADD DUP1 SLOAD PUSH2 0x100E SWAP1 PUSH2 0x3AA9 JUMP JUMPDEST DUP1 PUSH1 0x1F ADD PUSH1 0x20 DUP1 SWAP2 DIV MUL PUSH1 0x20 ADD PUSH1 0x40 MLOAD SWAP1 DUP2 ADD PUSH1 0x40 MSTORE DUP1 SWAP3 SWAP2 SWAP1 DUP2 DUP2 MSTORE PUSH1 0x20 ADD DUP3 DUP1 SLOAD PUSH2 0x103A SWAP1 PUSH2 0x3AA9 JUMP JUMPDEST DUP1 ISZERO PUSH2 0x1087 JUMPI DUP1 PUSH1 0x1F LT PUSH2 0x105C JUMPI PUSH2 0x100 DUP1 DUP4 SLOAD DIV MUL DUP4 MSTORE SWAP2 PUSH1 0x20 ADD SWAP2 PUSH2 0x1087 JUMP JUMPDEST DUP3 ADD SWAP2 SWAP1 PUSH1 0x0 MSTORE PUSH1 0x20 PUSH1 0x0 KECCAK256 SWAP1 JUMPDEST DUP2 SLOAD DUP2 MSTORE SWAP1 PUSH1 0x1 ADD SWAP1 PUSH1 0x20 ADD DUP1 DUP4 GT PUSH2 0x106A JUMPI DUP3 SWAP1 SUB PUSH1 0x1F AND DUP3 ADD SWAP2 JUMPDEST POP POP POP POP POP DUP2 MSTORE PUSH1 0x20 ADD PUSH1 0x1 DUP3 ADD DUP1 SLOAD PUSH2 0x10A0 SWAP1 PUSH2 0x3AA9 JUMP JUMPDEST DUP1 PUSH1 0x1F ADD PUSH1 0x20 DUP1 SWAP2 DIV MUL PUSH1 0x20 ADD PUSH1 0x40 MLOAD SWAP1 DUP2 ADD PUSH1 0x40 MSTORE DUP1 SWAP3 SWAP2 SWAP1 DUP2 DUP2 MSTORE PUSH1 0x20 ADD DUP3 DUP1 SLOAD PUSH2 0x10CC SWAP1 PUSH2 0x3AA9 JUMP JUMPDEST DUP1 ISZERO PUSH2 0x1119 JUMPI DUP1 PUSH1 0x1F LT PUSH2 0x10EE JUMPI PUSH2 0x100 DUP1 DUP4 SLOAD DIV MUL DUP4 MSTORE SWAP2 PUSH1 0x20 ADD SWAP2 PUSH2 0x1119 JUMP JUMPDEST DUP3 ADD SWAP2 SWAP1 PUSH1 0x0 MSTORE PUSH1 0x20 PUSH1 0x0 KECCAK256 SWAP1 JUMPDEST DUP2 SLOAD DUP2 MSTORE SWAP1 PUSH1 0x1 ADD SWAP1 PUSH1 0x20 ADD DUP1 DUP4 GT PUSH2 0x10FC JUMPI DUP3 SWAP1 SUB PUSH1 0x1F AND DUP3 ADD SWAP2 JUMPDEST POP POP POP POP POP DUP2 MSTORE PUSH1 0x20 ADD PUSH1 0x2 DUP3 ADD DUP1 SLOAD PUSH2 0x1132 SWAP1 PUSH2 0x3AA9 JUMP JUMPDEST DUP1 PUSH1 0x1F ADD PUSH1 0x20 DUP1 SWAP2 DIV MUL PUSH1 0x20 ADD PUSH1 0x40 MLOAD SWAP1 DUP2 ADD PUSH1 0x40 MSTORE DUP1 SWAP3 SWAP2 SWAP1 DUP2 DUP2 MSTORE PUSH1 0x20 ADD DUP3 DUP1 SLOAD PUSH2 0x115E SWAP1 PUSH2 0x3AA9 JUMP JUMPDEST DUP1 ISZERO PUSH2 0x11AB JUMPI DUP1 PUSH1 0x1F LT PUSH2 0x1180 JUMPI PUSH2 0x100 DUP1 DUP4 SLOAD DIV MUL DUP4 MSTORE SWAP2 PUSH1 0x20 ADD SWAP2 PUSH2 0x11AB JUMP JUMPDEST DUP3 ADD SWAP2 SWAP1 PUSH1 0x0 MSTORE PUSH1 0x20 PUSH1 0x0 KECCAK256 SWAP1 JUMPDEST DUP2 SLOAD DUP2 MSTORE SWAP1 PUSH1 0x1 ADD SWAP1 PUSH1 0x20 ADD DUP1 DUP4 GT PUSH2 0x118E JUMPI DUP3 SWAP1 SUB PUSH1 0x1F AND DUP3 ADD SWAP2 JUMPDEST POP POP POP POP POP DUP2 MSTORE PUSH1 0x20 ADD PUSH1 0x3 DUP3 ADD SLOAD DUP2 MSTORE PUSH1 0x20 ADD PUSH1 0x4 DUP3 ADD SLOAD DUP2 MSTORE PUSH1 0x20 ADD PUSH1 0x5 DUP3 ADD SLOAD DUP2 MSTORE PUSH1 0x20 ADD PUSH1 0x6 DUP3 ADD SLOAD DUP2 MSTORE PUSH1 0x20 ADD PUSH1 0x7 DUP3 ADD SLOAD DUP2 MSTORE PUSH1 0x20 ADD PUSH1 0x8 DUP3 ADD PUSH1 0x0 SWAP1 SLOAD SWAP1 PUSH2 0x100 EXP SWAP1 DIV PUSH1 0xFF AND ISZERO ISZERO ISZERO ISZERO DUP2 MSTORE PUSH1 0x20 ADD PUSH1 0x8 DUP3 ADD PUSH1 0x1 SWAP1 SLOAD SWAP1 PUSH2 0x100 EXP SWAP1 DIV PUSH1 0xFF AND ISZERO ISZERO ISZERO ISZERO DUP2 MSTORE PUSH1 0x20 ADD PUSH1 0x8 DUP3 ADD PUSH1 0x2 SWAP1 SLOAD SWAP1 PUSH2 0x100 EXP SWAP1 DIV PUSH1 0xFF AND ISZERO ISZERO ISZERO ISZERO DUP2 MSTORE POP POP SWAP1 POP PUSH1 0x0 PUSH2 0x128F PUSH1 0xA DUP4 PUSH1 0xE0 ADD MLOAD DUP5 PUSH1 0xC0 ADD MLOAD DUP6 PUSH1 0x80 ADD MLOAD DUP7 PUSH1 0xA0 ADD MLOAD DUP8 PUSH1 0x60 ADD MLOAD PUSH2 0x1263 SWAP2 SWAP1 PUSH2 0x3900 JUMP JUMPDEST PUSH2 0x126D SWAP2 SWAP1 PUSH2 0x3900 JUMP JUMPDEST PUSH2 0x1277 SWAP2 SWAP1 PUSH2 0x3900 JUMP JUMPDEST PUSH2 0x1281 SWAP2 SWAP1 PUSH2 0x3900 JUMP JUMPDEST PUSH2 0x2A40 SWAP1 SWAP2 SWAP1 PUSH4 0xFFFFFFFF AND JUMP JUMPDEST SWAP1 POP DUP1 SWAP3 POP POP POP SWAP2 SWAP1 POP JUMP JUMPDEST PUSH1 0x0 DUP1 PUSH1 0x0 SWAP1 SLOAD SWAP1 PUSH2 0x100 EXP SWAP1 DIV PUSH20 0xFFFFFFFFFFFFFFFFFFFFFFFFFFFFFFFFFFFFFFFF AND PUSH20 0xFFFFFFFFFFFFFFFFFFFFFFFFFFFFFFFFFFFFFFFF AND CALLER PUSH20 0xFFFFFFFFFFFFFFFFFFFFFFFFFFFFFFFFFFFFFFFF AND EQ PUSH2 0x132C JUMPI PUSH1 0x40 MLOAD PUSH32 0x8C379A000000000000000000000000000000000000000000000000000000000 DUP2 MSTORE PUSH1 0x4 ADD PUSH2 0x1323 SWAP1 PUSH2 0x3748 JUMP JUMPDEST PUSH1 0x40 MLOAD DUP1 SWAP2 SUB SWAP1 REVERT JUMPDEST PUSH2 0x1335 DUP6 PUSH2 0x2A13 JUMP JUMPDEST PUSH2 0x1374 JUMPI PUSH1 0x40 MLOAD PUSH32 0x8C379A000000000000000000000000000000000000000000000000000000000 DUP2 MSTORE PUSH1 0x4 ADD PUSH2 0x136B SWAP1 PUSH2 0x3788 JUMP JUMPDEST PUSH1 0x40 MLOAD DUP1 SWAP2 SUB SWAP1 REVERT JUMPDEST DUP6 PUSH1 0x5 PUSH1 0x0 DUP10 PUSH20 0xFFFFFFFFFFFFFFFFFFFFFFFFFFFFFFFFFFFFFFFF AND PUSH20 0xFFFFFFFFFFFFFFFFFFFFFFFFFFFFFFFFFFFFFFFF AND DUP2 MSTORE PUSH1 0x20 ADD SWAP1 DUP2 MSTORE PUSH1 0x20 ADD PUSH1 0x0 KECCAK256 SLOAD LT ISZERO PUSH2 0x13F6 JUMPI PUSH1 0x40 MLOAD PUSH32 0x8C379A000000000000000000000000000000000000000000000000000000000 DUP2 MSTORE PUSH1 0x4 ADD PUSH2 0x13ED SWAP1 PUSH2 0x3808 JUMP JUMPDEST PUSH1 0x40 MLOAD DUP1 SWAP2 SUB SWAP1 REVERT JUMPDEST PUSH1 0x0 PUSH1 0x6 PUSH1 0x0 DUP8 DUP2 MSTORE PUSH1 0x20 ADD SWAP1 DUP2 MSTORE PUSH1 0x20 ADD PUSH1 0x0 KECCAK256 PUSH1 0x40 MLOAD DUP1 PUSH2 0x160 ADD PUSH1 0x40 MSTORE SWAP1 DUP2 PUSH1 0x0 DUP3 ADD DUP1 SLOAD PUSH2 0x1427 SWAP1 PUSH2 0x3AA9 JUMP JUMPDEST DUP1 PUSH1 0x1F ADD PUSH1 0x20 DUP1 SWAP2 DIV MUL PUSH1 0x20 ADD PUSH1 0x40 MLOAD SWAP1 DUP2 ADD PUSH1 0x40 MSTORE DUP1 SWAP3 SWAP2 SWAP1 DUP2 DUP2 MSTORE PUSH1 0x20 ADD DUP3 DUP1 SLOAD PUSH2 0x1453 SWAP1 PUSH2 0x3AA9 JUMP JUMPDEST DUP1 ISZERO PUSH2 0x14A0 JUMPI DUP1 PUSH1 0x1F LT PUSH2 0x1475 JUMPI PUSH2 0x100 DUP1 DUP4 SLOAD DIV MUL DUP4 MSTORE SWAP2 PUSH1 0x20 ADD SWAP2 PUSH2 0x14A0 JUMP JUMPDEST DUP3 ADD SWAP2 SWAP1 PUSH1 0x0 MSTORE PUSH1 0x20 PUSH1 0x0 KECCAK256 SWAP1 JUMPDEST DUP2 SLOAD DUP2 MSTORE SWAP1 PUSH1 0x1 ADD SWAP1 PUSH1 0x20 ADD DUP1 DUP4 GT PUSH2 0x1483 JUMPI DUP3 SWAP1 SUB PUSH1 0x1F AND DUP3 ADD SWAP2 JUMPDEST POP POP POP POP POP DUP2 MSTORE PUSH1 0x20 ADD PUSH1 0x1 DUP3 ADD DUP1 SLOAD PUSH2 0x14B9 SWAP1 PUSH2 0x3AA9 JUMP JUMPDEST DUP1 PUSH1 0x1F ADD PUSH1 0x20 DUP1 SWAP2 DIV MUL PUSH1 0x20 ADD PUSH1 0x40 MLOAD SWAP1 DUP2 ADD PUSH1 0x40 MSTORE DUP1 SWAP3 SWAP2 SWAP1 DUP2 DUP2 MSTORE PUSH1 0x20 ADD DUP3 DUP1 SLOAD PUSH2 0x14E5 SWAP1 PUSH2 0x3AA9 JUMP JUMPDEST DUP1 ISZERO PUSH2 0x1532 JUMPI DUP1 PUSH1 0x1F LT PUSH2 0x1507 JUMPI PUSH2 0x100 DUP1 DUP4 SLOAD DIV MUL DUP4 MSTORE SWAP2 PUSH1 0x20 ADD SWAP2 PUSH2 0x1532 JUMP JUMPDEST DUP3 ADD SWAP2 SWAP1 PUSH1 0x0 MSTORE PUSH1 0x20 PUSH1 0x0 KECCAK256 SWAP1 JUMPDEST DUP2 SLOAD DUP2 MSTORE SWAP1 PUSH1 0x1 ADD SWAP1 PUSH1 0x20 ADD DUP1 DUP4 GT PUSH2 0x1515 JUMPI DUP3 SWAP1 SUB PUSH1 0x1F AND DUP3 ADD SWAP2 JUMPDEST POP POP POP POP POP DUP2 MSTORE PUSH1 0x20 ADD PUSH1 0x2 DUP3 ADD DUP1 SLOAD PUSH2 0x154B SWAP1 PUSH2 0x3AA9 JUMP JUMPDEST DUP1 PUSH1 0x1F ADD PUSH1 0x20 DUP1 SWAP2 DIV MUL PUSH1 0x20 ADD PUSH1 0x40 MLOAD SWAP1 DUP2 ADD PUSH1 0x40 MSTORE DUP1 SWAP3 SWAP2 SWAP1 DUP2 DUP2 MSTORE PUSH1 0x20 ADD DUP3 DUP1 SLOAD PUSH2 0x1577 SWAP1 PUSH2 0x3AA9 JUMP JUMPDEST DUP1 ISZERO PUSH2 0x15C4 JUMPI DUP1 PUSH1 0x1F LT PUSH2 0x1599 JUMPI PUSH2 0x100 DUP1 DUP4 SLOAD DIV MUL DUP4 MSTORE SWAP2 PUSH1 0x20 ADD SWAP2 PUSH2 0x15C4 JUMP JUMPDEST DUP3 ADD SWAP2 SWAP1 PUSH1 0x0 MSTORE PUSH1 0x20 PUSH1 0x0 KECCAK256 SWAP1 JUMPDEST DUP2 SLOAD DUP2 MSTORE SWAP1 PUSH1 0x1 ADD SWAP1 PUSH1 0x20 ADD DUP1 DUP4 GT PUSH2 0x15A7 JUMPI DUP3 SWAP1 SUB PUSH1 0x1F AND DUP3 ADD SWAP2 JUMPDEST POP POP POP POP POP DUP2 MSTORE PUSH1 0x20 ADD PUSH1 0x3 DUP3 ADD SLOAD DUP2 MSTORE PUSH1 0x20 ADD PUSH1 0x4 DUP3 ADD SLOAD DUP2 MSTORE PUSH1 0x20 ADD PUSH1 0x5 DUP3 ADD SLOAD DUP2 MSTORE PUSH1 0x20 ADD PUSH1 0x6 DUP3 ADD SLOAD DUP2 MSTORE PUSH1 0x20 ADD PUSH1 0x7 DUP3 ADD SLOAD DUP2 MSTORE PUSH1 0x20 ADD PUSH1 0x8 DUP3 ADD PUSH1 0x0 SWAP1 SLOAD SWAP1 PUSH2 0x100 EXP SWAP1 DIV PUSH1 0xFF AND ISZERO ISZERO ISZERO ISZERO DUP2 MSTORE PUSH1 0x20 ADD PUSH1 0x8 DUP3 ADD PUSH1 0x1 SWAP1 SLOAD SWAP1 PUSH2 0x100 EXP SWAP1 DIV PUSH1 0xFF AND ISZERO ISZERO ISZERO ISZERO DUP2 MSTORE PUSH1 0x20 ADD PUSH1 0x8 DUP3 ADD PUSH1 0x2 SWAP1 SLOAD SWAP1 PUSH2 0x100 EXP SWAP1 DIV PUSH1 0xFF AND ISZERO ISZERO ISZERO ISZERO DUP2 MSTORE POP POP SWAP1 POP PUSH1 0x0 PUSH2 0x166E PUSH2 0x1660 DUP8 PUSH2 0x2BFE JUMP JUMPDEST PUSH2 0x1669 DUP8 PUSH2 0x2BFE JUMP JUMPDEST PUSH2 0x2A68 JUMP JUMPDEST SWAP1 POP PUSH1 0x0 PUSH2 0x1684 PUSH2 0x167E DUP10 PUSH2 0x2C2F JUMP JUMPDEST DUP4 PUSH2 0x2A68 JUMP JUMPDEST SWAP1 POP PUSH1 0x0 PUSH1 0x40 MLOAD DUP1 PUSH1 0xE0 ADD PUSH1 0x40 MSTORE DUP1 DUP12 DUP2 MSTORE PUSH1 0x20 ADD DUP8 DUP2 MSTORE PUSH1 0x20 ADD DUP10 DUP2 MSTORE PUSH1 0x20 ADD DUP9 DUP2 MSTORE PUSH1 0x20 ADD DUP13 PUSH20 0xFFFFFFFFFFFFFFFFFFFFFFFFFFFFFFFFFFFFFFFF AND DUP2 MSTORE PUSH1 0x20 ADD DUP4 DUP2 MSTORE PUSH1 0x20 ADD PUSH1 0x0 ISZERO ISZERO DUP2 MSTORE POP SWAP1 POP DUP9 PUSH1 0x2 PUSH1 0x0 DUP12 DUP2 MSTORE PUSH1 0x20 ADD SWAP1 DUP2 MSTORE PUSH1 0x20 ADD PUSH1 0x0 KECCAK256 PUSH1 0x1 ADD DUP2 SWAP1 SSTORE POP PUSH1 0x2 PUSH1 0x0 DUP11 DUP2 MSTORE PUSH1 0x20 ADD SWAP1 DUP2 MSTORE PUSH1 0x20 ADD PUSH1 0x0 KECCAK256 PUSH1 0x0 ADD DUP2 SWAP1 DUP1 PUSH1 0x1 DUP2 SLOAD ADD DUP1 DUP3 SSTORE DUP1 SWAP2 POP POP PUSH1 0x1 SWAP1 SUB SWAP1 PUSH1 0x0 MSTORE PUSH1 0x20 PUSH1 0x0 KECCAK256 SWAP1 PUSH1 0x7 MUL ADD PUSH1 0x0 SWAP1 SWAP2 SWAP1 SWAP2 SWAP1 SWAP2 POP PUSH1 0x0 DUP3 ADD MLOAD DUP2 PUSH1 0x0 ADD SSTORE PUSH1 0x20 DUP3 ADD MLOAD DUP2 PUSH1 0x1 ADD SSTORE PUSH1 0x40 DUP3 ADD MLOAD DUP2 PUSH1 0x2 ADD SSTORE PUSH1 0x60 DUP3 ADD MLOAD DUP2 PUSH1 0x3 ADD SSTORE PUSH1 0x80 DUP3 ADD MLOAD DUP2 PUSH1 0x4 ADD PUSH1 0x0 PUSH2 0x100 EXP DUP2 SLOAD DUP2 PUSH20 0xFFFFFFFFFFFFFFFFFFFFFFFFFFFFFFFFFFFFFFFF MUL NOT AND SWAP1 DUP4 PUSH20 0xFFFFFFFFFFFFFFFFFFFFFFFFFFFFFFFFFFFFFFFF AND MUL OR SWAP1 SSTORE POP PUSH1 0xA0 DUP3 ADD MLOAD DUP2 PUSH1 0x5 ADD SWAP1 DUP1 MLOAD SWAP1 PUSH1 0x20 ADD SWAP1 PUSH2 0x17BC SWAP3 SWAP2 SWAP1 PUSH2 0x2F9F JUMP JUMPDEST POP PUSH1 0xC0 DUP3 ADD MLOAD DUP2 PUSH1 0x6 ADD PUSH1 0x0 PUSH2 0x100 EXP DUP2 SLOAD DUP2 PUSH1 0xFF MUL NOT AND SWAP1 DUP4 ISZERO ISZERO MUL OR SWAP1 SSTORE POP POP POP DUP11 PUSH1 0x4 PUSH1 0x0 DUP14 PUSH20 0xFFFFFFFFFFFFFFFFFFFFFFFFFFFFFFFFFFFFFFFF AND PUSH20 0xFFFFFFFFFFFFFFFFFFFFFFFFFFFFFFFFFFFFFFFF AND DUP2 MSTORE PUSH1 0x20 ADD SWAP1 DUP2 MSTORE PUSH1 0x20 ADD PUSH1 0x0 KECCAK256 PUSH1 0x1 ADD PUSH1 0x0 PUSH2 0x100 EXP DUP2 SLOAD DUP2 PUSH20 0xFFFFFFFFFFFFFFFFFFFFFFFFFFFFFFFFFFFFFFFF MUL NOT AND SWAP1 DUP4 PUSH20 0xFFFFFFFFFFFFFFFFFFFFFFFFFFFFFFFFFFFFFFFF AND MUL OR SWAP1 SSTORE POP PUSH1 0x2 PUSH1 0x0 DUP11 DUP2 MSTORE PUSH1 0x20 ADD SWAP1 DUP2 MSTORE PUSH1 0x20 ADD PUSH1 0x0 KECCAK256 PUSH1 0x0 ADD DUP2 SWAP1 DUP1 PUSH1 0x1 DUP2 SLOAD ADD DUP1 DUP3 SSTORE DUP1 SWAP2 POP POP PUSH1 0x1 SWAP1 SUB SWAP1 PUSH1 0x0 MSTORE PUSH1 0x20 PUSH1 0x0 KECCAK256 SWAP1 PUSH1 0x7 MUL ADD PUSH1 0x0 SWAP1 SWAP2 SWAP1 SWAP2 SWAP1 SWAP2 POP PUSH1 0x0 DUP3 ADD MLOAD DUP2 PUSH1 0x0 ADD SSTORE PUSH1 0x20 DUP3 ADD MLOAD DUP2 PUSH1 0x1 ADD SSTORE PUSH1 0x40 DUP3 ADD MLOAD DUP2 PUSH1 0x2 ADD SSTORE PUSH1 0x60 DUP3 ADD MLOAD DUP2 PUSH1 0x3 ADD SSTORE PUSH1 0x80 DUP3 ADD MLOAD DUP2 PUSH1 0x4 ADD PUSH1 0x0 PUSH2 0x100 EXP DUP2 SLOAD DUP2 PUSH20 0xFFFFFFFFFFFFFFFFFFFFFFFFFFFFFFFFFFFFFFFF MUL NOT AND SWAP1 DUP4 PUSH20 0xFFFFFFFFFFFFFFFFFFFFFFFFFFFFFFFFFFFFFFFF AND MUL OR SWAP1 SSTORE POP PUSH1 0xA0 DUP3 ADD MLOAD DUP2 PUSH1 0x5 ADD SWAP1 DUP1 MLOAD SWAP1 PUSH1 0x20 ADD SWAP1 PUSH2 0x192B SWAP3 SWAP2 SWAP1 PUSH2 0x2F9F JUMP JUMPDEST POP PUSH1 0xC0 DUP3 ADD MLOAD DUP2 PUSH1 0x6 ADD PUSH1 0x0 PUSH2 0x100 EXP DUP2 SLOAD DUP2 PUSH1 0xFF MUL NOT AND SWAP1 DUP4 ISZERO ISZERO MUL OR SWAP1 SSTORE POP POP POP PUSH1 0x2 DUP7 EQ ISZERO PUSH2 0x19AA JUMPI DUP10 DUP5 PUSH1 0xC0 ADD DUP2 DUP2 MLOAD PUSH2 0x1969 SWAP2 SWAP1 PUSH2 0x3900 JUMP JUMPDEST SWAP2 POP DUP2 DUP2 MSTORE POP POP DUP10 PUSH1 0x3 DUP4 PUSH1 0x40 MLOAD PUSH2 0x1981 SWAP2 SWAP1 PUSH2 0x3672 JUMP JUMPDEST SWAP1 DUP2 MSTORE PUSH1 0x20 ADD PUSH1 0x40 MLOAD DUP1 SWAP2 SUB SWAP1 KECCAK256 PUSH1 0x0 DUP3 DUP3 SLOAD PUSH2 0x199E SWAP2 SWAP1 PUSH2 0x3900 JUMP JUMPDEST SWAP3 POP POP DUP2 SWAP1 SSTORE POP PUSH2 0x1A14 JUMP JUMPDEST PUSH1 0x3 DUP7 EQ ISZERO PUSH2 0x19D1 JUMPI DUP10 DUP5 PUSH1 0x60 ADD DUP2 DUP2 MLOAD PUSH2 0x19C5 SWAP2 SWAP1 PUSH2 0x3900 JUMP JUMPDEST SWAP2 POP DUP2 DUP2 MSTORE POP POP PUSH2 0x1A13 JUMP JUMPDEST PUSH1 0x1 DUP7 EQ ISZERO PUSH2 0x19F8 JUMPI DUP10 DUP5 PUSH1 0x80 ADD DUP2 DUP2 MLOAD PUSH2 0x19EC SWAP2 SWAP1 PUSH2 0x3900 JUMP JUMPDEST SWAP2 POP DUP2 DUP2 MSTORE POP POP PUSH2 0x1A12 JUMP JUMPDEST DUP10 DUP5 PUSH1 0xA0 ADD DUP2 DUP2 MLOAD PUSH2 0x1A0A SWAP2 SWAP1 PUSH2 0x3900 JUMP JUMPDEST SWAP2 POP DUP2 DUP2 MSTORE POP POP JUMPDEST JUMPDEST JUMPDEST DUP10 PUSH1 0x5 PUSH1 0x0 DUP14 PUSH20 0xFFFFFFFFFFFFFFFFFFFFFFFFFFFFFFFFFFFFFFFF AND PUSH20 0xFFFFFFFFFFFFFFFFFFFFFFFFFFFFFFFFFFFFFFFF AND DUP2 MSTORE PUSH1 0x20 ADD SWAP1 DUP2 MSTORE PUSH1 0x20 ADD PUSH1 0x0 KECCAK256 PUSH1 0x0 DUP3 DUP3 SLOAD PUSH2 0x1A63 SWAP2 SWAP1 PUSH2 0x39E1 JUMP JUMPDEST SWAP3 POP POP DUP2 SWAP1 SSTORE POP POP POP POP POP PUSH1 0x1 SWAP1 POP SWAP7 SWAP6 POP POP POP POP POP POP JUMP JUMPDEST PUSH1 0x0 DUP1 PUSH1 0x0 SWAP1 SLOAD SWAP1 PUSH2 0x100 EXP SWAP1 DIV PUSH20 0xFFFFFFFFFFFFFFFFFFFFFFFFFFFFFFFFFFFFFFFF AND PUSH20 0xFFFFFFFFFFFFFFFFFFFFFFFFFFFFFFFFFFFFFFFF AND CALLER PUSH20 0xFFFFFFFFFFFFFFFFFFFFFFFFFFFFFFFFFFFFFFFF AND EQ PUSH2 0x1B0D JUMPI PUSH1 0x40 MLOAD PUSH32 0x8C379A000000000000000000000000000000000000000000000000000000000 DUP2 MSTORE PUSH1 0x4 ADD PUSH2 0x1B04 SWAP1 PUSH2 0x3748 JUMP JUMPDEST PUSH1 0x40 MLOAD DUP1 SWAP2 SUB SWAP1 REVERT JUMPDEST PUSH2 0x1B16 DUP6 PUSH2 0x2A13 JUMP JUMPDEST PUSH2 0x1B55 JUMPI PUSH1 0x40 MLOAD PUSH32 0x8C379A000000000000000000000000000000000000000000000000000000000 DUP2 MSTORE PUSH1 0x4 ADD PUSH2 0x1B4C SWAP1 PUSH2 0x3788 JUMP JUMPDEST PUSH1 0x40 MLOAD DUP1 SWAP2 SUB SWAP1 REVERT JUMPDEST PUSH1 0x0 PUSH1 0x6 PUSH1 0x0 DUP8 DUP2 MSTORE PUSH1 0x20 ADD SWAP1 DUP2 MSTORE PUSH1 0x20 ADD PUSH1 0x0 KECCAK256 PUSH1 0x40 MLOAD DUP1 PUSH2 0x160 ADD PUSH1 0x40 MSTORE SWAP1 DUP2 PUSH1 0x0 DUP3 ADD DUP1 SLOAD PUSH2 0x1B86 SWAP1 PUSH2 0x3AA9 JUMP JUMPDEST DUP1 PUSH1 0x1F ADD PUSH1 0x20 DUP1 SWAP2 DIV MUL PUSH1 0x20 ADD PUSH1 0x40 MLOAD SWAP1 DUP2 ADD PUSH1 0x40 MSTORE DUP1 SWAP3 SWAP2 SWAP1 DUP2 DUP2 MSTORE PUSH1 0x20 ADD DUP3 DUP1 SLOAD PUSH2 0x1BB2 SWAP1 PUSH2 0x3AA9 JUMP JUMPDEST DUP1 ISZERO PUSH2 0x1BFF JUMPI DUP1 PUSH1 0x1F LT PUSH2 0x1BD4 JUMPI PUSH2 0x100 DUP1 DUP4 SLOAD DIV MUL DUP4 MSTORE SWAP2 PUSH1 0x20 ADD SWAP2 PUSH2 0x1BFF JUMP JUMPDEST DUP3 ADD SWAP2 SWAP1 PUSH1 0x0 MSTORE PUSH1 0x20 PUSH1 0x0 KECCAK256 SWAP1 JUMPDEST DUP2 SLOAD DUP2 MSTORE SWAP1 PUSH1 0x1 ADD SWAP1 PUSH1 0x20 ADD DUP1 DUP4 GT PUSH2 0x1BE2 JUMPI DUP3 SWAP1 SUB PUSH1 0x1F AND DUP3 ADD SWAP2 JUMPDEST POP POP POP POP POP DUP2 MSTORE PUSH1 0x20 ADD PUSH1 0x1 DUP3 ADD DUP1 SLOAD PUSH2 0x1C18 SWAP1 PUSH2 0x3AA9 JUMP JUMPDEST DUP1 PUSH1 0x1F ADD PUSH1 0x20 DUP1 SWAP2 DIV MUL PUSH1 0x20 ADD PUSH1 0x40 MLOAD SWAP1 DUP2 ADD PUSH1 0x40 MSTORE DUP1 SWAP3 SWAP2 SWAP1 DUP2 DUP2 MSTORE PUSH1 0x20 ADD DUP3 DUP1 SLOAD PUSH2 0x1C44 SWAP1 PUSH2 0x3AA9 JUMP JUMPDEST DUP1 ISZERO PUSH2 0x1C91 JUMPI DUP1 PUSH1 0x1F LT PUSH2 0x1C66 JUMPI PUSH2 0x100 DUP1 DUP4 SLOAD DIV MUL DUP4 MSTORE SWAP2 PUSH1 0x20 ADD SWAP2 PUSH2 0x1C91 JUMP JUMPDEST DUP3 ADD SWAP2 SWAP1 PUSH1 0x0 MSTORE PUSH1 0x20 PUSH1 0x0 KECCAK256 SWAP1 JUMPDEST DUP2 SLOAD DUP2 MSTORE SWAP1 PUSH1 0x1 ADD SWAP1 PUSH1 0x20 ADD DUP1 DUP4 GT PUSH2 0x1C74 JUMPI DUP3 SWAP1 SUB PUSH1 0x1F AND DUP3 ADD SWAP2 JUMPDEST POP POP POP POP POP DUP2 MSTORE PUSH1 0x20 ADD PUSH1 0x2 DUP3 ADD DUP1 SLOAD PUSH2 0x1CAA SWAP1 PUSH2 0x3AA9 JUMP JUMPDEST DUP1 PUSH1 0x1F ADD PUSH1 0x20 DUP1 SWAP2 DIV MUL PUSH1 0x20 ADD PUSH1 0x40 MLOAD SWAP1 DUP2 ADD PUSH1 0x40 MSTORE DUP1 SWAP3 SWAP2 SWAP1 DUP2 DUP2 MSTORE PUSH1 0x20 ADD DUP3 DUP1 SLOAD PUSH2 0x1CD6 SWAP1 PUSH2 0x3AA9 JUMP JUMPDEST DUP1 ISZERO PUSH2 0x1D23 JUMPI DUP1 PUSH1 0x1F LT PUSH2 0x1CF8 JUMPI PUSH2 0x100 DUP1 DUP4 SLOAD DIV MUL DUP4 MSTORE SWAP2 PUSH1 0x20 ADD SWAP2 PUSH2 0x1D23 JUMP JUMPDEST DUP3 ADD SWAP2 SWAP1 PUSH1 0x0 MSTORE PUSH1 0x20 PUSH1 0x0 KECCAK256 SWAP1 JUMPDEST DUP2 SLOAD DUP2 MSTORE SWAP1 PUSH1 0x1 ADD SWAP1 PUSH1 0x20 ADD DUP1 DUP4 GT PUSH2 0x1D06 JUMPI DUP3 SWAP1 SUB PUSH1 0x1F AND DUP3 ADD SWAP2 JUMPDEST POP POP POP POP POP DUP2 MSTORE PUSH1 0x20 ADD PUSH1 0x3 DUP3 ADD SLOAD DUP2 MSTORE PUSH1 0x20 ADD PUSH1 0x4 DUP3 ADD SLOAD DUP2 MSTORE PUSH1 0x20 ADD PUSH1 0x5 DUP3 ADD SLOAD DUP2 MSTORE PUSH1 0x20 ADD PUSH1 0x6 DUP3 ADD SLOAD DUP2 MSTORE PUSH1 0x20 ADD PUSH1 0x7 DUP3 ADD SLOAD DUP2 MSTORE PUSH1 0x20 ADD PUSH1 0x8 DUP3 ADD PUSH1 0x0 SWAP1 SLOAD SWAP1 PUSH2 0x100 EXP SWAP1 DIV PUSH1 0xFF AND ISZERO ISZERO ISZERO ISZERO DUP2 MSTORE PUSH1 0x20 ADD PUSH1 0x8 DUP3 ADD PUSH1 0x1 SWAP1 SLOAD SWAP1 PUSH2 0x100 EXP SWAP1 DIV PUSH1 0xFF AND ISZERO ISZERO ISZERO ISZERO DUP2 MSTORE PUSH1 0x20 ADD PUSH1 0x8 DUP3 ADD PUSH1 0x2 SWAP1 SLOAD SWAP1 PUSH2 0x100 EXP SWAP1 DIV PUSH1 0xFF AND ISZERO ISZERO ISZERO ISZERO DUP2 MSTORE POP POP SWAP1 POP PUSH1 0x1 DUP2 PUSH2 0x140 ADD SWAP1 ISZERO ISZERO SWAP1 DUP2 ISZERO ISZERO DUP2 MSTORE POP ISZERO PUSH2 0x1E02 JUMPI PUSH1 0x40 MLOAD PUSH32 0x8C379A000000000000000000000000000000000000000000000000000000000 DUP2 MSTORE PUSH1 0x4 ADD PUSH2 0x1DF9 SWAP1 PUSH2 0x3848 JUMP JUMPDEST PUSH1 0x40 MLOAD DUP1 SWAP2 SUB SWAP1 REVERT JUMPDEST PUSH1 0x0 PUSH1 0x2 PUSH1 0x0 DUP9 DUP2 MSTORE PUSH1 0x20 ADD SWAP1 DUP2 MSTORE PUSH1 0x20 ADD PUSH1 0x0 KECCAK256 PUSH1 0x0 ADD DUP1 SLOAD DUP1 PUSH1 0x20 MUL PUSH1 0x20 ADD PUSH1 0x40 MLOAD SWAP1 DUP2 ADD PUSH1 0x40 MSTORE DUP1 SWAP3 SWAP2 SWAP1 DUP2 DUP2 MSTORE PUSH1 0x20 ADD PUSH1 0x0 SWAP1 JUMPDEST DUP3 DUP3 LT ISZERO PUSH2 0x1F97 JUMPI DUP4 DUP3 SWAP1 PUSH1 0x0 MSTORE PUSH1 0x20 PUSH1 0x0 KECCAK256 SWAP1 PUSH1 0x7 MUL ADD PUSH1 0x40 MLOAD DUP1 PUSH1 0xE0 ADD PUSH1 0x40 MSTORE SWAP1 DUP2 PUSH1 0x0 DUP3 ADD SLOAD DUP2 MSTORE PUSH1 0x20 ADD PUSH1 0x1 DUP3 ADD SLOAD DUP2 MSTORE PUSH1 0x20 ADD PUSH1 0x2 DUP3 ADD SLOAD DUP2 MSTORE PUSH1 0x20 ADD PUSH1 0x3 DUP3 ADD SLOAD DUP2 MSTORE PUSH1 0x20 ADD PUSH1 0x4 DUP3 ADD PUSH1 0x0 SWAP1 SLOAD SWAP1 PUSH2 0x100 EXP SWAP1 DIV PUSH20 0xFFFFFFFFFFFFFFFFFFFFFFFFFFFFFFFFFFFFFFFF AND PUSH20 0xFFFFFFFFFFFFFFFFFFFFFFFFFFFFFFFFFFFFFFFF AND PUSH20 0xFFFFFFFFFFFFFFFFFFFFFFFFFFFFFFFFFFFFFFFF AND DUP2 MSTORE PUSH1 0x20 ADD PUSH1 0x5 DUP3 ADD DUP1 SLOAD PUSH2 0x1EEB SWAP1 PUSH2 0x3AA9 JUMP JUMPDEST DUP1 PUSH1 0x1F ADD PUSH1 0x20 DUP1 SWAP2 DIV MUL PUSH1 0x20 ADD PUSH1 0x40 MLOAD SWAP1 DUP2 ADD PUSH1 0x40 MSTORE DUP1 SWAP3 SWAP2 SWAP1 DUP2 DUP2 MSTORE PUSH1 0x20 ADD DUP3 DUP1 SLOAD PUSH2 0x1F17 SWAP1 PUSH2 0x3AA9 JUMP JUMPDEST DUP1 ISZERO PUSH2 0x1F64 JUMPI DUP1 PUSH1 0x1F LT PUSH2 0x1F39 JUMPI PUSH2 0x100 DUP1 DUP4 SLOAD DIV MUL DUP4 MSTORE SWAP2 PUSH1 0x20 ADD SWAP2 PUSH2 0x1F64 JUMP JUMPDEST DUP3 ADD SWAP2 SWAP1 PUSH1 0x0 MSTORE PUSH1 0x20 PUSH1 0x0 KECCAK256 SWAP1 JUMPDEST DUP2 SLOAD DUP2 MSTORE SWAP1 PUSH1 0x1 ADD SWAP1 PUSH1 0x20 ADD DUP1 DUP4 GT PUSH2 0x1F47 JUMPI DUP3 SWAP1 SUB PUSH1 0x1F AND DUP3 ADD SWAP2 JUMPDEST POP POP POP POP POP DUP2 MSTORE PUSH1 0x20 ADD PUSH1 0x6 DUP3 ADD PUSH1 0x0 SWAP1 SLOAD SWAP1 PUSH2 0x100 EXP SWAP1 DIV PUSH1 0xFF AND ISZERO ISZERO ISZERO ISZERO DUP2 MSTORE POP POP DUP2 MSTORE PUSH1 0x20 ADD SWAP1 PUSH1 0x1 ADD SWAP1 PUSH2 0x1E3A JUMP JUMPDEST POP POP POP POP SWAP1 POP PUSH1 0x0 PUSH2 0x2006 PUSH1 0x14 PUSH2 0x1FBC PUSH1 0x2 DUP7 PUSH1 0xE0 ADD MLOAD PUSH2 0x2A40 SWAP1 SWAP2 SWAP1 PUSH4 0xFFFFFFFF AND JUMP JUMPDEST DUP6 PUSH1 0x80 ADD MLOAD DUP7 PUSH1 0xA0 ADD MLOAD DUP8 PUSH1 0x60 ADD MLOAD DUP9 PUSH1 0xC0 ADD MLOAD PUSH2 0x1FDA SWAP2 SWAP1 PUSH2 0x3900 JUMP JUMPDEST PUSH2 0x1FE4 SWAP2 SWAP1 PUSH2 0x3900 JUMP JUMPDEST PUSH2 0x1FEE SWAP2 SWAP1 PUSH2 0x3900 JUMP JUMPDEST PUSH2 0x1FF8 SWAP2 SWAP1 PUSH2 0x3900 JUMP JUMPDEST PUSH2 0x2A40 SWAP1 SWAP2 SWAP1 PUSH4 0xFFFFFFFF AND JUMP JUMPDEST PUSH1 0x7 PUSH1 0x0 DUP3 DUP3 SLOAD PUSH2 0x2017 SWAP2 SWAP1 PUSH2 0x3900 JUMP JUMPDEST SWAP3 POP POP DUP2 SWAP1 SSTORE POP PUSH1 0x0 JUMPDEST PUSH1 0x1 DUP4 MLOAD PUSH2 0x202F SWAP2 SWAP1 PUSH2 0x39E1 JUMP JUMPDEST DUP2 GT PUSH2 0x24CD JUMPI PUSH1 0x0 DUP4 DUP3 DUP2 MLOAD DUP2 LT PUSH2 0x204A JUMPI PUSH2 0x2049 PUSH2 0x3BF6 JUMP JUMPDEST JUMPDEST PUSH1 0x20 MUL PUSH1 0x20 ADD ADD MLOAD PUSH1 0xC0 ADD SWAP1 ISZERO ISZERO SWAP1 DUP2 ISZERO ISZERO DUP2 MSTORE POP ISZERO PUSH2 0x24BA JUMPI PUSH1 0x2 DUP4 DUP3 DUP2 MLOAD DUP2 LT PUSH2 0x2079 JUMPI PUSH2 0x2078 PUSH2 0x3BF6 JUMP JUMPDEST JUMPDEST PUSH1 0x20 MUL PUSH1 0x20 ADD ADD MLOAD PUSH1 0x20 ADD MLOAD EQ ISZERO PUSH2 0x224A JUMPI PUSH2 0x20D8 PUSH1 0x64 PUSH2 0x20CA PUSH1 0x55 PUSH2 0x20AD PUSH1 0x2 DUP10 PUSH1 0xE0 ADD MLOAD PUSH2 0x2A40 SWAP1 SWAP2 SWAP1 PUSH4 0xFFFFFFFF AND JUMP JUMPDEST DUP9 PUSH1 0xC0 ADD MLOAD PUSH2 0x20BC SWAP2 SWAP1 PUSH2 0x3900 JUMP JUMPDEST PUSH2 0x2C60 SWAP1 SWAP2 SWAP1 PUSH4 0xFFFFFFFF AND JUMP JUMPDEST PUSH2 0x2A40 SWAP1 SWAP2 SWAP1 PUSH4 0xFFFFFFFF AND JUMP JUMPDEST SWAP2 POP DUP8 DUP4 DUP3 DUP2 MLOAD DUP2 LT PUSH2 0x20EE JUMPI PUSH2 0x20ED PUSH2 0x3BF6 JUMP JUMPDEST JUMPDEST PUSH1 0x20 MUL PUSH1 0x20 ADD ADD MLOAD PUSH1 0x40 ADD MLOAD EQ DUP1 ISZERO PUSH2 0x2124 JUMPI POP DUP7 DUP4 DUP3 DUP2 MLOAD DUP2 LT PUSH2 0x2116 JUMPI PUSH2 0x2115 PUSH2 0x3BF6 JUMP JUMPDEST JUMPDEST PUSH1 0x20 MUL PUSH1 0x20 ADD ADD MLOAD PUSH1 0x60 ADD MLOAD EQ JUMPDEST ISZERO PUSH2 0x2245 JUMPI PUSH1 0x0 PUSH1 0x3 DUP5 DUP4 DUP2 MLOAD DUP2 LT PUSH2 0x2140 JUMPI PUSH2 0x213F PUSH2 0x3BF6 JUMP JUMPDEST JUMPDEST PUSH1 0x20 MUL PUSH1 0x20 ADD ADD MLOAD PUSH1 0xA0 ADD MLOAD PUSH1 0x40 MLOAD PUSH2 0x2159 SWAP2 SWAP1 PUSH2 0x3672 JUMP JUMPDEST SWAP1 DUP2 MSTORE PUSH1 0x20 ADD PUSH1 0x40 MLOAD DUP1 SWAP2 SUB SWAP1 KECCAK256 SLOAD SWAP1 POP PUSH1 0x0 DUP2 DUP6 DUP5 DUP2 MLOAD DUP2 LT PUSH2 0x2180 JUMPI PUSH2 0x217F PUSH2 0x3BF6 JUMP JUMPDEST JUMPDEST PUSH1 0x20 MUL PUSH1 0x20 ADD ADD MLOAD PUSH1 0x0 ADD MLOAD DUP6 PUSH2 0x2197 SWAP2 SWAP1 PUSH2 0x3987 JUMP JUMPDEST PUSH2 0x21A1 SWAP2 SWAP1 PUSH2 0x3956 JUMP JUMPDEST SWAP1 POP DUP1 PUSH1 0x5 PUSH1 0x0 DUP8 DUP7 DUP2 MLOAD DUP2 LT PUSH2 0x21BB JUMPI PUSH2 0x21BA PUSH2 0x3BF6 JUMP JUMPDEST JUMPDEST PUSH1 0x20 MUL PUSH1 0x20 ADD ADD MLOAD PUSH1 0x80 ADD MLOAD PUSH20 0xFFFFFFFFFFFFFFFFFFFFFFFFFFFFFFFFFFFFFFFF AND PUSH20 0xFFFFFFFFFFFFFFFFFFFFFFFFFFFFFFFFFFFFFFFF AND DUP2 MSTORE PUSH1 0x20 ADD SWAP1 DUP2 MSTORE PUSH1 0x20 ADD PUSH1 0x0 KECCAK256 PUSH1 0x0 DUP3 DUP3 SLOAD PUSH2 0x2210 SWAP2 SWAP1 PUSH2 0x3900 JUMP JUMPDEST SWAP3 POP POP DUP2 SWAP1 SSTORE POP PUSH1 0x1 DUP6 DUP5 DUP2 MLOAD DUP2 LT PUSH2 0x222C JUMPI PUSH2 0x222B PUSH2 0x3BF6 JUMP JUMPDEST JUMPDEST PUSH1 0x20 MUL PUSH1 0x20 ADD ADD MLOAD PUSH1 0xC0 ADD SWAP1 ISZERO ISZERO SWAP1 DUP2 ISZERO ISZERO DUP2 MSTORE POP POP POP POP JUMPDEST PUSH2 0x24B9 JUMP JUMPDEST DUP6 DUP4 DUP3 DUP2 MLOAD DUP2 LT PUSH2 0x225E JUMPI PUSH2 0x225D PUSH2 0x3BF6 JUMP JUMPDEST JUMPDEST PUSH1 0x20 MUL PUSH1 0x20 ADD ADD MLOAD PUSH1 0x20 ADD MLOAD EQ ISZERO PUSH2 0x24B8 JUMPI PUSH2 0x22DB PUSH1 0x64 PUSH2 0x22CD PUSH1 0x55 PUSH2 0x2292 PUSH1 0x2 DUP10 PUSH1 0xE0 ADD MLOAD PUSH2 0x2A40 SWAP1 SWAP2 SWAP1 PUSH4 0xFFFFFFFF AND JUMP JUMPDEST DUP9 PUSH1 0x80 ADD MLOAD DUP10 PUSH1 0xA0 ADD MLOAD DUP11 PUSH1 0x60 ADD MLOAD PUSH2 0x22AB SWAP2 SWAP1 PUSH2 0x3900 JUMP JUMPDEST PUSH2 0x22B5 SWAP2 SWAP1 PUSH2 0x3900 JUMP JUMPDEST PUSH2 0x22BF SWAP2 SWAP1 PUSH2 0x3900 JUMP JUMPDEST PUSH2 0x2C60 SWAP1 SWAP2 SWAP1 PUSH4 0xFFFFFFFF AND JUMP JUMPDEST PUSH2 0x2A40 SWAP1 SWAP2 SWAP1 PUSH4 0xFFFFFFFF AND JUMP JUMPDEST SWAP2 POP PUSH1 0x0 DUP1 DUP5 DUP4 DUP2 MLOAD DUP2 LT PUSH2 0x22F3 JUMPI PUSH2 0x22F2 PUSH2 0x3BF6 JUMP JUMPDEST JUMPDEST PUSH1 0x20 MUL PUSH1 0x20 ADD ADD MLOAD PUSH1 0x20 ADD MLOAD EQ ISZERO PUSH2 0x2333 JUMPI PUSH2 0x2330 PUSH1 0x64 PUSH2 0x2322 PUSH1 0x55 DUP9 PUSH1 0xA0 ADD MLOAD PUSH2 0x2C60 SWAP1 SWAP2 SWAP1 PUSH4 0xFFFFFFFF AND JUMP JUMPDEST PUSH2 0x2A40 SWAP1 SWAP2 SWAP1 PUSH4 0xFFFFFFFF AND JUMP JUMPDEST SWAP1 POP JUMPDEST PUSH1 0x1 DUP5 DUP4 DUP2 MLOAD DUP2 LT PUSH2 0x2348 JUMPI PUSH2 0x2347 PUSH2 0x3BF6 JUMP JUMPDEST JUMPDEST PUSH1 0x20 MUL PUSH1 0x20 ADD ADD MLOAD PUSH1 0x20 ADD MLOAD EQ ISZERO PUSH2 0x2388 JUMPI PUSH2 0x2385 PUSH1 0x64 PUSH2 0x2377 PUSH1 0x55 DUP9 PUSH1 0x80 ADD MLOAD PUSH2 0x2C60 SWAP1 SWAP2 SWAP1 PUSH4 0xFFFFFFFF AND JUMP JUMPDEST PUSH2 0x2A40 SWAP1 SWAP2 SWAP1 PUSH4 0xFFFFFFFF AND JUMP JUMPDEST SWAP1 POP JUMPDEST PUSH1 0x3 DUP5 DUP4 DUP2 MLOAD DUP2 LT PUSH2 0x239D JUMPI PUSH2 0x239C PUSH2 0x3BF6 JUMP JUMPDEST JUMPDEST PUSH1 0x20 MUL PUSH1 0x20 ADD ADD MLOAD PUSH1 0x20 ADD MLOAD EQ ISZERO PUSH2 0x23DD JUMPI PUSH2 0x23DA PUSH1 0x64 PUSH2 0x23CC PUSH1 0x55 DUP9 PUSH1 0x60 ADD MLOAD PUSH2 0x2C60 SWAP1 SWAP2 SWAP1 PUSH4 0xFFFFFFFF AND JUMP JUMPDEST PUSH2 0x2A40 SWAP1 SWAP2 SWAP1 PUSH4 0xFFFFFFFF AND JUMP JUMPDEST SWAP1 POP JUMPDEST PUSH1 0x0 DUP2 DUP6 DUP5 DUP2 MLOAD DUP2 LT PUSH2 0x23F3 JUMPI PUSH2 0x23F2 PUSH2 0x3BF6 JUMP JUMPDEST JUMPDEST PUSH1 0x20 MUL PUSH1 0x20 ADD ADD MLOAD PUSH1 0x0 ADD MLOAD DUP6 PUSH2 0x240A SWAP2 SWAP1 PUSH2 0x3987 JUMP JUMPDEST PUSH2 0x2414 SWAP2 SWAP1 PUSH2 0x3956 JUMP JUMPDEST SWAP1 POP DUP1 PUSH1 0x5 PUSH1 0x0 DUP8 DUP7 DUP2 MLOAD DUP2 LT PUSH2 0x242E JUMPI PUSH2 0x242D PUSH2 0x3BF6 JUMP JUMPDEST JUMPDEST PUSH1 0x20 MUL PUSH1 0x20 ADD ADD MLOAD PUSH1 0x80 ADD MLOAD PUSH20 0xFFFFFFFFFFFFFFFFFFFFFFFFFFFFFFFFFFFFFFFF AND PUSH20 0xFFFFFFFFFFFFFFFFFFFFFFFFFFFFFFFFFFFFFFFF AND DUP2 MSTORE PUSH1 0x20 ADD SWAP1 DUP2 MSTORE PUSH1 0x20 ADD PUSH1 0x0 KECCAK256 PUSH1 0x0 DUP3 DUP3 SLOAD PUSH2 0x2483 SWAP2 SWAP1 PUSH2 0x3900 JUMP JUMPDEST SWAP3 POP POP DUP2 SWAP1 SSTORE POP PUSH1 0x1 DUP6 DUP5 DUP2 MLOAD DUP2 LT PUSH2 0x249F JUMPI PUSH2 0x249E PUSH2 0x3BF6 JUMP JUMPDEST JUMPDEST PUSH1 0x20 MUL PUSH1 0x20 ADD ADD MLOAD PUSH1 0xC0 ADD SWAP1 ISZERO ISZERO SWAP1 DUP2 ISZERO ISZERO DUP2 MSTORE POP POP POP POP JUMPDEST JUMPDEST JUMPDEST DUP1 DUP1 PUSH2 0x24C5 SWAP1 PUSH2 0x3B0C JUMP JUMPDEST SWAP2 POP POP PUSH2 0x2021 JUMP JUMPDEST POP PUSH1 0x1 DUP4 PUSH2 0x140 ADD SWAP1 ISZERO ISZERO SWAP1 DUP2 ISZERO ISZERO DUP2 MSTORE POP POP POP POP POP PUSH1 0x1 SWAP1 POP SWAP5 SWAP4 POP POP POP POP JUMP JUMPDEST PUSH1 0x0 DUP1 PUSH1 0x0 SWAP1 SLOAD SWAP1 PUSH2 0x100 EXP SWAP1 DIV PUSH20 0xFFFFFFFFFFFFFFFFFFFFFFFFFFFFFFFFFFFFFFFF AND PUSH20 0xFFFFFFFFFFFFFFFFFFFFFFFFFFFFFFFFFFFFFFFF AND CALLER PUSH20 0xFFFFFFFFFFFFFFFFFFFFFFFFFFFFFFFFFFFFFFFF AND EQ PUSH2 0x2580 JUMPI PUSH1 0x40 MLOAD PUSH32 0x8C379A000000000000000000000000000000000000000000000000000000000 DUP2 MSTORE PUSH1 0x4 ADD PUSH2 0x2577 SWAP1 PUSH2 0x3748 JUMP JUMPDEST PUSH1 0x40 MLOAD DUP1 SWAP2 SUB SWAP1 REVERT JUMPDEST DUP2 PUSH1 0x5 PUSH1 0x0 DUP6 PUSH20 0xFFFFFFFFFFFFFFFFFFFFFFFFFFFFFFFFFFFFFFFF AND PUSH20 0xFFFFFFFFFFFFFFFFFFFFFFFFFFFFFFFFFFFFFFFF AND DUP2 MSTORE PUSH1 0x20 ADD SWAP1 DUP2 MSTORE PUSH1 0x20 ADD PUSH1 0x0 KECCAK256 SLOAD LT ISZERO DUP1 ISZERO PUSH2 0x260F JUMPI POP PUSH1 0x0 PUSH1 0x5 PUSH1 0x0 DUP6 PUSH20 0xFFFFFFFFFFFFFFFFFFFFFFFFFFFFFFFFFFFFFFFF AND PUSH20 0xFFFFFFFFFFFFFFFFFFFFFFFFFFFFFFFFFFFFFFFF AND DUP2 MSTORE PUSH1 0x20 ADD SWAP1 DUP2 MSTORE PUSH1 0x20 ADD PUSH1 0x0 KECCAK256 SLOAD LT ISZERO JUMPDEST ISZERO PUSH2 0x26A5 JUMPI PUSH1 0x0 DUP4 SWAP1 POP DUP1 PUSH20 0xFFFFFFFFFFFFFFFFFFFFFFFFFFFFFFFFFFFFFFFF AND PUSH2 0x8FC PUSH1 0x5 PUSH1 0x0 DUP8 PUSH20 0xFFFFFFFFFFFFFFFFFFFFFFFFFFFFFFFFFFFFFFFF AND PUSH20 0xFFFFFFFFFFFFFFFFFFFFFFFFFFFFFFFFFFFFFFFF AND DUP2 MSTORE PUSH1 0x20 ADD SWAP1 DUP2 MSTORE PUSH1 0x20 ADD PUSH1 0x0 KECCAK256 SLOAD SWAP1 DUP2 ISZERO MUL SWAP1 PUSH1 0x40 MLOAD PUSH1 0x0 PUSH1 0x40 MLOAD DUP1 DUP4 SUB DUP2 DUP6 DUP9 DUP9 CALL SWAP4 POP POP POP POP ISZERO DUP1 ISZERO PUSH2 0x269E JUMPI RETURNDATASIZE PUSH1 0x0 DUP1 RETURNDATACOPY RETURNDATASIZE PUSH1 0x0 REVERT JUMPDEST POP POP PUSH2 0x26E0 JUMP JUMPDEST PUSH1 0x40 MLOAD PUSH32 0x8C379A000000000000000000000000000000000000000000000000000000000 DUP2 MSTORE PUSH1 0x4 ADD PUSH2 0x26D7 SWAP1 PUSH2 0x3808 JUMP JUMPDEST PUSH1 0x40 MLOAD DUP1 SWAP2 SUB SWAP1 REVERT JUMPDEST SWAP3 SWAP2 POP POP JUMP JUMPDEST PUSH1 0x60 DUP1 PUSH2 0x26F1 PUSH2 0x3025 JUMP JUMPDEST PUSH2 0x26FA DUP5 PUSH2 0x2A13 JUMP JUMPDEST PUSH2 0x2739 JUMPI PUSH1 0x40 MLOAD PUSH32 0x8C379A000000000000000000000000000000000000000000000000000000000 DUP2 MSTORE PUSH1 0x4 ADD PUSH2 0x2730 SWAP1 PUSH2 0x3768 JUMP JUMPDEST PUSH1 0x40 MLOAD DUP1 SWAP2 SUB SWAP1 REVERT JUMPDEST PUSH1 0x0 PUSH2 0x2818 PUSH1 0x6 PUSH1 0x0 DUP8 DUP2 MSTORE PUSH1 0x20 ADD SWAP1 DUP2 MSTORE PUSH1 0x20 ADD PUSH1 0x0 KECCAK256 PUSH1 0x0 ADD DUP1 SLOAD PUSH2 0x275F SWAP1 PUSH2 0x3AA9 JUMP JUMPDEST DUP1 PUSH1 0x1F ADD PUSH1 0x20 DUP1 SWAP2 DIV MUL PUSH1 0x20 ADD PUSH1 0x40 MLOAD SWAP1 DUP2 ADD PUSH1 0x40 MSTORE DUP1 SWAP3 SWAP2 SWAP1 DUP2 DUP2 MSTORE PUSH1 0x20 ADD DUP3 DUP1 SLOAD PUSH2 0x278B SWAP1 PUSH2 0x3AA9 JUMP JUMPDEST DUP1 ISZERO PUSH2 0x27D8 JUMPI DUP1 PUSH1 0x1F LT PUSH2 0x27AD JUMPI PUSH2 0x100 DUP1 DUP4 SLOAD DIV MUL DUP4 MSTORE SWAP2 PUSH1 0x20 ADD SWAP2 PUSH2 0x27D8 JUMP JUMPDEST DUP3 ADD SWAP2 SWAP1 PUSH1 0x0 MSTORE PUSH1 0x20 PUSH1 0x0 KECCAK256 SWAP1 JUMPDEST DUP2 SLOAD DUP2 MSTORE SWAP1 PUSH1 0x1 ADD SWAP1 PUSH1 0x20 ADD DUP1 DUP4 GT PUSH2 0x27BB JUMPI DUP3 SWAP1 SUB PUSH1 0x1F AND DUP3 ADD SWAP2 JUMPDEST POP POP POP POP POP PUSH1 0x40 MLOAD DUP1 PUSH1 0x40 ADD PUSH1 0x40 MSTORE DUP1 PUSH1 0x4 DUP2 MSTORE PUSH1 0x20 ADD PUSH32 0x2076732000000000000000000000000000000000000000000000000000000000 DUP2 MSTORE POP PUSH2 0x2A68 JUMP JUMPDEST SWAP1 POP PUSH1 0x0 PUSH2 0x28C4 DUP3 PUSH1 0x6 PUSH1 0x0 DUP10 DUP2 MSTORE PUSH1 0x20 ADD SWAP1 DUP2 MSTORE PUSH1 0x20 ADD PUSH1 0x0 KECCAK256 PUSH1 0x1 ADD DUP1 SLOAD PUSH2 0x2841 SWAP1 PUSH2 0x3AA9 JUMP JUMPDEST DUP1 PUSH1 0x1F ADD PUSH1 0x20 DUP1 SWAP2 DIV MUL PUSH1 0x20 ADD PUSH1 0x40 MLOAD SWAP1 DUP2 ADD PUSH1 0x40 MSTORE DUP1 SWAP3 SWAP2 SWAP1 DUP2 DUP2 MSTORE PUSH1 0x20 ADD DUP3 DUP1 SLOAD PUSH2 0x286D SWAP1 PUSH2 0x3AA9 JUMP JUMPDEST DUP1 ISZERO PUSH2 0x28BA JUMPI DUP1 PUSH1 0x1F LT PUSH2 0x288F JUMPI PUSH2 0x100 DUP1 DUP4 SLOAD DIV MUL DUP4 MSTORE SWAP2 PUSH1 0x20 ADD SWAP2 PUSH2 0x28BA JUMP JUMPDEST DUP3 ADD SWAP2 SWAP1 PUSH1 0x0 MSTORE PUSH1 0x20 PUSH1 0x0 KECCAK256 SWAP1 JUMPDEST DUP2 SLOAD DUP2 MSTORE SWAP1 PUSH1 0x1 ADD SWAP1 PUSH1 0x20 ADD DUP1 DUP4 GT PUSH2 0x289D JUMPI DUP3 SWAP1 SUB PUSH1 0x1F AND DUP3 ADD SWAP2 JUMPDEST POP POP POP POP POP PUSH2 0x2A68 JUMP JUMPDEST SWAP1 POP PUSH1 0x0 PUSH1 0x40 MLOAD DUP1 PUSH1 0xA0 ADD PUSH1 0x40 MSTORE DUP1 PUSH1 0x6 PUSH1 0x0 DUP11 DUP2 MSTORE PUSH1 0x20 ADD SWAP1 DUP2 MSTORE PUSH1 0x20 ADD PUSH1 0x0 KECCAK256 PUSH1 0x3 ADD SLOAD DUP2 MSTORE PUSH1 0x20 ADD PUSH1 0x6 PUSH1 0x0 DUP11 DUP2 MSTORE PUSH1 0x20 ADD SWAP1 DUP2 MSTORE PUSH1 0x20 ADD PUSH1 0x0 KECCAK256 PUSH1 0x4 ADD SLOAD DUP2 MSTORE PUSH1 0x20 ADD PUSH1 0x6 PUSH1 0x0 DUP11 DUP2 MSTORE PUSH1 0x20 ADD SWAP1 DUP2 MSTORE PUSH1 0x20 ADD PUSH1 0x0 KECCAK256 PUSH1 0x5 ADD SLOAD DUP2 MSTORE PUSH1 0x20 ADD PUSH1 0x6 PUSH1 0x0 DUP11 DUP2 MSTORE PUSH1 0x20 ADD SWAP1 DUP2 MSTORE PUSH1 0x20 ADD PUSH1 0x0 KECCAK256 PUSH1 0x6 ADD SLOAD DUP2 MSTORE PUSH1 0x20 ADD PUSH1 0x6 PUSH1 0x0 DUP11 DUP2 MSTORE PUSH1 0x20 ADD SWAP1 DUP2 MSTORE PUSH1 0x20 ADD PUSH1 0x0 KECCAK256 PUSH1 0x7 ADD SLOAD DUP2 MSTORE POP SWAP1 POP DUP2 PUSH1 0x6 PUSH1 0x0 DUP10 DUP2 MSTORE PUSH1 0x20 ADD SWAP1 DUP2 MSTORE PUSH1 0x20 ADD PUSH1 0x0 KECCAK256 PUSH1 0x2 ADD DUP3 DUP2 DUP1 SLOAD PUSH2 0x2983 SWAP1 PUSH2 0x3AA9 JUMP JUMPDEST DUP1 PUSH1 0x1F ADD PUSH1 0x20 DUP1 SWAP2 DIV MUL PUSH1 0x20 ADD PUSH1 0x40 MLOAD SWAP1 DUP2 ADD PUSH1 0x40 MSTORE DUP1 SWAP3 SWAP2 SWAP1 DUP2 DUP2 MSTORE PUSH1 0x20 ADD DUP3 DUP1 SLOAD PUSH2 0x29AF SWAP1 PUSH2 0x3AA9 JUMP JUMPDEST DUP1 ISZERO PUSH2 0x29FC JUMPI DUP1 PUSH1 0x1F LT PUSH2 0x29D1 JUMPI PUSH2 0x100 DUP1 DUP4 SLOAD DIV MUL DUP4 MSTORE SWAP2 PUSH1 0x20 ADD SWAP2 PUSH2 0x29FC JUMP JUMPDEST DUP3 ADD SWAP2 SWAP1 PUSH1 0x0 MSTORE PUSH1 0x20 PUSH1 0x0 KECCAK256 SWAP1 JUMPDEST DUP2 SLOAD DUP2 MSTORE SWAP1 PUSH1 0x1 ADD SWAP1 PUSH1 0x20 ADD DUP1 DUP4 GT PUSH2 0x29DF JUMPI DUP3 SWAP1 SUB PUSH1 0x1F AND DUP3 ADD SWAP2 JUMPDEST POP POP POP POP POP SWAP2 POP SWAP6 POP SWAP6 POP SWAP6 POP POP POP POP SWAP2 SWAP4 SWAP1 SWAP3 POP JUMP JUMPDEST PUSH1 0x0 PUSH1 0x6 PUSH1 0x0 DUP4 DUP2 MSTORE PUSH1 0x20 ADD SWAP1 DUP2 MSTORE PUSH1 0x20 ADD PUSH1 0x0 KECCAK256 PUSH1 0x8 ADD PUSH1 0x1 SWAP1 SLOAD SWAP1 PUSH2 0x100 EXP SWAP1 DIV PUSH1 0xFF AND SWAP1 POP SWAP2 SWAP1 POP JUMP JUMPDEST PUSH1 0x0 DUP1 DUP3 GT PUSH2 0x2A4E JUMPI PUSH1 0x0 DUP1 REVERT JUMPDEST PUSH1 0x0 DUP3 DUP5 PUSH2 0x2A5C SWAP2 SWAP1 PUSH2 0x3956 JUMP JUMPDEST SWAP1 POP DUP1 SWAP2 POP POP SWAP3 SWAP2 POP POP JUMP JUMPDEST PUSH1 0x60 PUSH1 0x0 DUP4 SWAP1 POP PUSH1 0x0 DUP4 SWAP1 POP PUSH1 0x0 DUP2 MLOAD DUP4 MLOAD PUSH2 0x2A84 SWAP2 SWAP1 PUSH2 0x3900 JUMP JUMPDEST PUSH8 0xFFFFFFFFFFFFFFFF DUP2 GT ISZERO PUSH2 0x2A9D JUMPI PUSH2 0x2A9C PUSH2 0x3C25 JUMP JUMPDEST JUMPDEST PUSH1 0x40 MLOAD SWAP1 DUP1 DUP3 MSTORE DUP1 PUSH1 0x1F ADD PUSH1 0x1F NOT AND PUSH1 0x20 ADD DUP3 ADD PUSH1 0x40 MSTORE DUP1 ISZERO PUSH2 0x2ACF JUMPI DUP2 PUSH1 0x20 ADD PUSH1 0x1 DUP3 MUL DUP1 CALLDATASIZE DUP4 CALLDATACOPY DUP1 DUP3 ADD SWAP2 POP POP SWAP1 POP JUMPDEST POP SWAP1 POP PUSH1 0x0 DUP2 SWAP1 POP PUSH1 0x0 DUP1 JUMPDEST DUP6 MLOAD DUP2 LT ISZERO PUSH2 0x2B63 JUMPI DUP6 DUP2 DUP2 MLOAD DUP2 LT PUSH2 0x2AF7 JUMPI PUSH2 0x2AF6 PUSH2 0x3BF6 JUMP JUMPDEST JUMPDEST PUSH1 0x20 ADD ADD MLOAD PUSH1 0xF8 SHR PUSH1 0xF8 SHL DUP4 DUP4 DUP1 PUSH2 0x2B0E SWAP1 PUSH2 0x3B0C JUMP JUMPDEST SWAP5 POP DUP2 MLOAD DUP2 LT PUSH2 0x2B21 JUMPI PUSH2 0x2B20 PUSH2 0x3BF6 JUMP JUMPDEST JUMPDEST PUSH1 0x20 ADD ADD SWAP1 PUSH31 0xFFFFFFFFFFFFFFFFFFFFFFFFFFFFFFFFFFFFFFFFFFFFFFFFFFFFFFFFFFFFFF NOT AND SWAP1 DUP2 PUSH1 0x0 BYTE SWAP1 MSTORE8 POP DUP1 DUP1 PUSH2 0x2B5B SWAP1 PUSH2 0x3B0C JUMP JUMPDEST SWAP2 POP POP PUSH2 0x2ADB JUMP JUMPDEST POP PUSH1 0x0 JUMPDEST DUP5 MLOAD DUP2 LT ISZERO PUSH2 0x2BEF JUMPI DUP5 DUP2 DUP2 MLOAD DUP2 LT PUSH2 0x2B83 JUMPI PUSH2 0x2B82 PUSH2 0x3BF6 JUMP JUMPDEST JUMPDEST PUSH1 0x20 ADD ADD MLOAD PUSH1 0xF8 SHR PUSH1 0xF8 SHL DUP4 DUP4 DUP1 PUSH2 0x2B9A SWAP1 PUSH2 0x3B0C JUMP JUMPDEST SWAP5 POP DUP2 MLOAD DUP2 LT PUSH2 0x2BAD JUMPI PUSH2 0x2BAC PUSH2 0x3BF6 JUMP JUMPDEST JUMPDEST PUSH1 0x20 ADD ADD SWAP1 PUSH31 0xFFFFFFFFFFFFFFFFFFFFFFFFFFFFFFFFFFFFFFFFFFFFFFFFFFFFFFFFFFFFFF NOT AND SWAP1 DUP2 PUSH1 0x0 BYTE SWAP1 MSTORE8 POP DUP1 DUP1 PUSH2 0x2BE7 SWAP1 PUSH2 0x3B0C JUMP JUMPDEST SWAP2 POP POP PUSH2 0x2B67 JUMP JUMPDEST POP DUP3 SWAP6 POP POP POP POP POP POP SWAP3 SWAP2 POP POP JUMP JUMPDEST PUSH1 0x60 PUSH2 0x2C28 DUP3 PUSH1 0x40 MLOAD PUSH1 0x20 ADD PUSH2 0x2C14 SWAP2 SWAP1 PUSH2 0x3689 JUMP JUMPDEST PUSH1 0x40 MLOAD PUSH1 0x20 DUP2 DUP4 SUB SUB DUP2 MSTORE SWAP1 PUSH1 0x40 MSTORE PUSH2 0x2CA5 JUMP JUMPDEST SWAP1 POP SWAP2 SWAP1 POP JUMP JUMPDEST PUSH1 0x60 PUSH2 0x2C59 DUP3 PUSH1 0x40 MLOAD PUSH1 0x20 ADD PUSH2 0x2C45 SWAP2 SWAP1 PUSH2 0x3657 JUMP JUMPDEST PUSH1 0x40 MLOAD PUSH1 0x20 DUP2 DUP4 SUB SUB DUP2 MSTORE SWAP1 PUSH1 0x40 MSTORE PUSH2 0x2CA5 JUMP JUMPDEST SWAP1 POP SWAP2 SWAP1 POP JUMP JUMPDEST PUSH1 0x0 DUP1 DUP4 EQ ISZERO PUSH2 0x2C73 JUMPI PUSH1 0x0 SWAP1 POP PUSH2 0x2C9F JUMP JUMPDEST PUSH1 0x0 DUP3 DUP5 PUSH2 0x2C81 SWAP2 SWAP1 PUSH2 0x3987 JUMP JUMPDEST SWAP1 POP DUP3 DUP5 DUP3 PUSH2 0x2C90 SWAP2 SWAP1 PUSH2 0x3956 JUMP JUMPDEST EQ PUSH2 0x2C9A JUMPI PUSH1 0x0 DUP1 REVERT JUMPDEST DUP1 SWAP2 POP POP JUMPDEST SWAP3 SWAP2 POP POP JUMP JUMPDEST PUSH1 0x60 PUSH1 0x0 PUSH1 0x40 MLOAD DUP1 PUSH1 0x40 ADD PUSH1 0x40 MSTORE DUP1 PUSH1 0x10 DUP2 MSTORE PUSH1 0x20 ADD PUSH32 0x3031323334353637383961626364656600000000000000000000000000000000 DUP2 MSTORE POP SWAP1 POP PUSH1 0x0 PUSH1 0x2 DUP5 MLOAD PUSH2 0x2CF1 SWAP2 SWAP1 PUSH2 0x3987 JUMP JUMPDEST PUSH1 0x2 PUSH2 0x2CFD SWAP2 SWAP1 PUSH2 0x3900 JUMP JUMPDEST PUSH8 0xFFFFFFFFFFFFFFFF DUP2 GT ISZERO PUSH2 0x2D16 JUMPI PUSH2 0x2D15 PUSH2 0x3C25 JUMP JUMPDEST JUMPDEST PUSH1 0x40 MLOAD SWAP1 DUP1 DUP3 MSTORE DUP1 PUSH1 0x1F ADD PUSH1 0x1F NOT AND PUSH1 0x20 ADD DUP3 ADD PUSH1 0x40 MSTORE DUP1 ISZERO PUSH2 0x2D48 JUMPI DUP2 PUSH1 0x20 ADD PUSH1 0x1 DUP3 MUL DUP1 CALLDATASIZE DUP4 CALLDATACOPY DUP1 DUP3 ADD SWAP2 POP POP SWAP1 POP JUMPDEST POP SWAP1 POP PUSH32 0x3000000000000000000000000000000000000000000000000000000000000000 DUP2 PUSH1 0x0 DUP2 MLOAD DUP2 LT PUSH2 0x2D80 JUMPI PUSH2 0x2D7F PUSH2 0x3BF6 JUMP JUMPDEST JUMPDEST PUSH1 0x20 ADD ADD SWAP1 PUSH31 0xFFFFFFFFFFFFFFFFFFFFFFFFFFFFFFFFFFFFFFFFFFFFFFFFFFFFFFFFFFFFFF NOT AND SWAP1 DUP2 PUSH1 0x0 BYTE SWAP1 MSTORE8 POP PUSH32 0x7800000000000000000000000000000000000000000000000000000000000000 DUP2 PUSH1 0x1 DUP2 MLOAD DUP2 LT PUSH2 0x2DE4 JUMPI PUSH2 0x2DE3 PUSH2 0x3BF6 JUMP JUMPDEST JUMPDEST PUSH1 0x20 ADD ADD SWAP1 PUSH31 0xFFFFFFFFFFFFFFFFFFFFFFFFFFFFFFFFFFFFFFFFFFFFFFFFFFFFFFFFFFFFFF NOT AND SWAP1 DUP2 PUSH1 0x0 BYTE SWAP1 MSTORE8 POP PUSH1 0x0 JUMPDEST DUP5 MLOAD DUP2 LT ISZERO PUSH2 0x2F94 JUMPI DUP3 PUSH1 0x4 DUP7 DUP4 DUP2 MLOAD DUP2 LT PUSH2 0x2E35 JUMPI PUSH2 0x2E34 PUSH2 0x3BF6 JUMP JUMPDEST JUMPDEST PUSH1 0x20 ADD ADD MLOAD PUSH1 0xF8 SHR PUSH1 0xF8 SHL PUSH31 0xFFFFFFFFFFFFFFFFFFFFFFFFFFFFFFFFFFFFFFFFFFFFFFFFFFFFFFFFFFFFFF NOT AND SWAP1 SHR PUSH1 0xF8 SHR PUSH1 0xFF AND DUP2 MLOAD DUP2 LT PUSH2 0x2E7B JUMPI PUSH2 0x2E7A PUSH2 0x3BF6 JUMP JUMPDEST JUMPDEST PUSH1 0x20 ADD ADD MLOAD PUSH1 0xF8 SHR PUSH1 0xF8 SHL DUP3 PUSH1 0x2 DUP4 PUSH2 0x2E94 SWAP2 SWAP1 PUSH2 0x3987 JUMP JUMPDEST PUSH1 0x2 PUSH2 0x2EA0 SWAP2 SWAP1 PUSH2 0x3900 JUMP JUMPDEST DUP2 MLOAD DUP2 LT PUSH2 0x2EB1 JUMPI PUSH2 0x2EB0 PUSH2 0x3BF6 JUMP JUMPDEST JUMPDEST PUSH1 0x20 ADD ADD SWAP1 PUSH31 0xFFFFFFFFFFFFFFFFFFFFFFFFFFFFFFFFFFFFFFFFFFFFFFFFFFFFFFFFFFFFFF NOT AND SWAP1 DUP2 PUSH1 0x0 BYTE SWAP1 MSTORE8 POP DUP3 PUSH1 0xF PUSH1 0xF8 SHL DUP7 DUP4 DUP2 MLOAD DUP2 LT PUSH2 0x2EF9 JUMPI PUSH2 0x2EF8 PUSH2 0x3BF6 JUMP JUMPDEST JUMPDEST PUSH1 0x20 ADD ADD MLOAD PUSH1 0xF8 SHR PUSH1 0xF8 SHL AND PUSH1 0xF8 SHR PUSH1 0xFF AND DUP2 MLOAD DUP2 LT PUSH2 0x2F1C JUMPI PUSH2 0x2F1B PUSH2 0x3BF6 JUMP JUMPDEST JUMPDEST PUSH1 0x20 ADD ADD MLOAD PUSH1 0xF8 SHR PUSH1 0xF8 SHL DUP3 PUSH1 0x2 DUP4 PUSH2 0x2F35 SWAP2 SWAP1 PUSH2 0x3987 JUMP JUMPDEST PUSH1 0x3 PUSH2 0x2F41 SWAP2 SWAP1 PUSH2 0x3900 JUMP JUMPDEST DUP2 MLOAD DUP2 LT PUSH2 0x2F52 JUMPI PUSH2 0x2F51 PUSH2 0x3BF6 JUMP JUMPDEST JUMPDEST PUSH1 0x20 ADD ADD SWAP1 PUSH31 0xFFFFFFFFFFFFFFFFFFFFFFFFFFFFFFFFFFFFFFFFFFFFFFFFFFFFFFFFFFFFFF NOT AND SWAP1 DUP2 PUSH1 0x0 BYTE SWAP1 MSTORE8 POP DUP1 DUP1 PUSH2 0x2F8C SWAP1 PUSH2 0x3B0C JUMP JUMPDEST SWAP2 POP POP PUSH2 0x2E16 JUMP JUMPDEST POP DUP1 SWAP3 POP POP POP SWAP2 SWAP1 POP JUMP JUMPDEST DUP3 DUP1 SLOAD PUSH2 0x2FAB SWAP1 PUSH2 0x3AA9 JUMP JUMPDEST SWAP1 PUSH1 0x0 MSTORE PUSH1 0x20 PUSH1 0x0 KECCAK256 SWAP1 PUSH1 0x1F ADD PUSH1 0x20 SWAP1 DIV DUP2 ADD SWAP3 DUP3 PUSH2 0x2FCD JUMPI PUSH1 0x0 DUP6 SSTORE PUSH2 0x3014 JUMP JUMPDEST DUP3 PUSH1 0x1F LT PUSH2 0x2FE6 JUMPI DUP1 MLOAD PUSH1 0xFF NOT AND DUP4 DUP1 ADD OR DUP6 SSTORE PUSH2 0x3014 JUMP JUMPDEST DUP3 DUP1 ADD PUSH1 0x1 ADD DUP6 SSTORE DUP3 ISZERO PUSH2 0x3014 JUMPI SWAP2 DUP3 ADD JUMPDEST DUP3 DUP2 GT ISZERO PUSH2 0x3013 JUMPI DUP3 MLOAD DUP3 SSTORE SWAP2 PUSH1 0x20 ADD SWAP2 SWAP1 PUSH1 0x1 ADD SWAP1 PUSH2 0x2FF8 JUMP JUMPDEST JUMPDEST POP SWAP1 POP PUSH2 0x3021 SWAP2 SWAP1 PUSH2 0x3054 JUMP JUMPDEST POP SWAP1 JUMP JUMPDEST PUSH1 0x40 MLOAD DUP1 PUSH1 0xA0 ADD PUSH1 0x40 MSTORE DUP1 PUSH1 0x0 DUP2 MSTORE PUSH1 0x20 ADD PUSH1 0x0 DUP2 MSTORE PUSH1 0x20 ADD PUSH1 0x0 DUP2 MSTORE PUSH1 0x20 ADD PUSH1 0x0 DUP2 MSTORE PUSH1 0x20 ADD PUSH1 0x0 DUP2 MSTORE POP SWAP1 JUMP JUMPDEST JUMPDEST DUP1 DUP3 GT ISZERO PUSH2 0x306D JUMPI PUSH1 0x0 DUP2 PUSH1 0x0 SWAP1 SSTORE POP PUSH1 0x1 ADD PUSH2 0x3055 JUMP JUMPDEST POP SWAP1 JUMP JUMPDEST PUSH1 0x0 PUSH2 0x3084 PUSH2 0x307F DUP5 PUSH2 0x38A8 JUMP JUMPDEST PUSH2 0x3883 JUMP JUMPDEST SWAP1 POP DUP3 DUP2 MSTORE PUSH1 0x20 DUP2 ADD DUP5 DUP5 DUP5 ADD GT ISZERO PUSH2 0x30A0 JUMPI PUSH2 0x309F PUSH2 0x3C59 JUMP JUMPDEST JUMPDEST PUSH2 0x30AB DUP5 DUP3 DUP6 PUSH2 0x3A67 JUMP JUMPDEST POP SWAP4 SWAP3 POP POP POP JUMP JUMPDEST PUSH1 0x0 DUP2 CALLDATALOAD SWAP1 POP PUSH2 0x30C2 DUP2 PUSH2 0x3DEA JUMP JUMPDEST SWAP3 SWAP2 POP POP JUMP JUMPDEST PUSH1 0x0 DUP2 CALLDATALOAD SWAP1 POP PUSH2 0x30D7 DUP2 PUSH2 0x3E01 JUMP JUMPDEST SWAP3 SWAP2 POP POP JUMP JUMPDEST PUSH1 0x0 DUP2 CALLDATALOAD SWAP1 POP PUSH2 0x30EC DUP2 PUSH2 0x3E18 JUMP JUMPDEST SWAP3 SWAP2 POP POP JUMP JUMPDEST PUSH1 0x0 DUP3 PUSH1 0x1F DUP4 ADD SLT PUSH2 0x3107 JUMPI PUSH2 0x3106 PUSH2 0x3C54 JUMP JUMPDEST JUMPDEST DUP2 CALLDATALOAD PUSH2 0x3117 DUP5 DUP3 PUSH1 0x20 DUP7 ADD PUSH2 0x3071 JUMP JUMPDEST SWAP2 POP POP SWAP3 SWAP2 POP POP JUMP JUMPDEST PUSH1 0x0 DUP2 CALLDATALOAD SWAP1 POP PUSH2 0x312F DUP2 PUSH2 0x3E2F JUMP JUMPDEST SWAP3 SWAP2 POP POP JUMP JUMPDEST PUSH1 0x0 DUP1 PUSH1 0x40 DUP4 DUP6 SUB SLT ISZERO PUSH2 0x314C JUMPI PUSH2 0x314B PUSH2 0x3C63 JUMP JUMPDEST JUMPDEST PUSH1 0x0 PUSH2 0x315A DUP6 DUP3 DUP7 ADD PUSH2 0x30B3 JUMP JUMPDEST SWAP3 POP POP PUSH1 0x20 PUSH2 0x316B DUP6 DUP3 DUP7 ADD PUSH2 0x30DD JUMP JUMPDEST SWAP2 POP POP SWAP3 POP SWAP3 SWAP1 POP JUMP JUMPDEST PUSH1 0x0 DUP1 PUSH1 0x40 DUP4 DUP6 SUB SLT ISZERO PUSH2 0x318C JUMPI PUSH2 0x318B PUSH2 0x3C63 JUMP JUMPDEST JUMPDEST PUSH1 0x0 PUSH2 0x319A DUP6 DUP3 DUP7 ADD PUSH2 0x30B3 JUMP JUMPDEST SWAP3 POP POP PUSH1 0x20 PUSH2 0x31AB DUP6 DUP3 DUP7 ADD PUSH2 0x3120 JUMP JUMPDEST SWAP2 POP POP SWAP3 POP SWAP3 SWAP1 POP JUMP JUMPDEST PUSH1 0x0 DUP1 PUSH1 0x0 DUP1 PUSH1 0x0 DUP1 PUSH1 0xC0 DUP8 DUP10 SUB SLT ISZERO PUSH2 0x31D2 JUMPI PUSH2 0x31D1 PUSH2 0x3C63 JUMP JUMPDEST JUMPDEST PUSH1 0x0 PUSH2 0x31E0 DUP10 DUP3 DUP11 ADD PUSH2 0x30B3 JUMP JUMPDEST SWAP7 POP POP PUSH1 0x20 PUSH2 0x31F1 DUP10 DUP3 DUP11 ADD PUSH2 0x3120 JUMP JUMPDEST SWAP6 POP POP PUSH1 0x40 PUSH2 0x3202 DUP10 DUP3 DUP11 ADD PUSH2 0x30DD JUMP JUMPDEST SWAP5 POP POP PUSH1 0x60 PUSH2 0x3213 DUP10 DUP3 DUP11 ADD PUSH2 0x3120 JUMP JUMPDEST SWAP4 POP POP PUSH1 0x80 PUSH2 0x3224 DUP10 DUP3 DUP11 ADD PUSH2 0x3120 JUMP JUMPDEST SWAP3 POP POP PUSH1 0xA0 PUSH2 0x3235 DUP10 DUP3 DUP11 ADD PUSH2 0x3120 JUMP JUMPDEST SWAP2 POP POP SWAP3 SWAP6 POP SWAP3 SWAP6 POP SWAP3 SWAP6 JUMP JUMPDEST PUSH1 0x0 PUSH1 0x20 DUP3 DUP5 SUB SLT ISZERO PUSH2 0x3258 JUMPI PUSH2 0x3257 PUSH2 0x3C63 JUMP JUMPDEST JUMPDEST PUSH1 0x0 PUSH2 0x3266 DUP5 DUP3 DUP6 ADD PUSH2 0x30DD JUMP JUMPDEST SWAP2 POP POP SWAP3 SWAP2 POP POP JUMP JUMPDEST PUSH1 0x0 DUP1 PUSH1 0x40 DUP4 DUP6 SUB SLT ISZERO PUSH2 0x3286 JUMPI PUSH2 0x3285 PUSH2 0x3C63 JUMP JUMPDEST JUMPDEST PUSH1 0x0 PUSH2 0x3294 DUP6 DUP3 DUP7 ADD PUSH2 0x30DD JUMP JUMPDEST SWAP3 POP POP PUSH1 0x20 PUSH2 0x32A5 DUP6 DUP3 DUP7 ADD PUSH2 0x3120 JUMP JUMPDEST SWAP2 POP POP SWAP3 POP SWAP3 SWAP1 POP JUMP JUMPDEST PUSH1 0x0 DUP1 PUSH1 0x0 DUP1 PUSH1 0x80 DUP6 DUP8 SUB SLT ISZERO PUSH2 0x32C9 JUMPI PUSH2 0x32C8 PUSH2 0x3C63 JUMP JUMPDEST JUMPDEST PUSH1 0x0 PUSH2 0x32D7 DUP8 DUP3 DUP9 ADD PUSH2 0x30DD JUMP JUMPDEST SWAP5 POP POP PUSH1 0x20 PUSH2 0x32E8 DUP8 DUP3 DUP9 ADD PUSH2 0x3120 JUMP JUMPDEST SWAP4 POP POP PUSH1 0x40 PUSH2 0x32F9 DUP8 DUP3 DUP9 ADD PUSH2 0x3120 JUMP JUMPDEST SWAP3 POP POP PUSH1 0x60 PUSH2 0x330A DUP8 DUP3 DUP9 ADD PUSH2 0x3120 JUMP JUMPDEST SWAP2 POP POP SWAP3 SWAP6 SWAP2 SWAP5 POP SWAP3 POP JUMP JUMPDEST PUSH1 0x0 DUP1 PUSH1 0x0 DUP1 PUSH1 0x80 DUP6 DUP8 SUB SLT ISZERO PUSH2 0x3330 JUMPI PUSH2 0x332F PUSH2 0x3C63 JUMP JUMPDEST JUMPDEST PUSH1 0x0 DUP6 ADD CALLDATALOAD PUSH8 0xFFFFFFFFFFFFFFFF DUP2 GT ISZERO PUSH2 0x334E JUMPI PUSH2 0x334D PUSH2 0x3C5E JUMP JUMPDEST JUMPDEST PUSH2 0x335A DUP8 DUP3 DUP9 ADD PUSH2 0x30F2 JUMP JUMPDEST SWAP5 POP POP PUSH1 0x20 DUP6 ADD CALLDATALOAD PUSH8 0xFFFFFFFFFFFFFFFF DUP2 GT ISZERO PUSH2 0x337B JUMPI PUSH2 0x337A PUSH2 0x3C5E JUMP JUMPDEST JUMPDEST PUSH2 0x3387 DUP8 DUP3 DUP9 ADD PUSH2 0x30F2 JUMP JUMPDEST SWAP4 POP POP PUSH1 0x40 DUP6 ADD CALLDATALOAD PUSH8 0xFFFFFFFFFFFFFFFF DUP2 GT ISZERO PUSH2 0x33A8 JUMPI PUSH2 0x33A7 PUSH2 0x3C5E JUMP JUMPDEST JUMPDEST PUSH2 0x33B4 DUP8 DUP3 DUP9 ADD PUSH2 0x30F2 JUMP JUMPDEST SWAP3 POP POP PUSH1 0x60 PUSH2 0x33C5 DUP8 DUP3 DUP9 ADD PUSH2 0x30C8 JUMP JUMPDEST SWAP2 POP POP SWAP3 SWAP6 SWAP2 SWAP5 POP SWAP3 POP JUMP JUMPDEST PUSH2 0x33DA DUP2 PUSH2 0x3A15 JUMP JUMPDEST DUP3 MSTORE POP POP JUMP JUMPDEST PUSH2 0x33E9 DUP2 PUSH2 0x3A27 JUMP JUMPDEST DUP3 MSTORE POP POP JUMP JUMPDEST PUSH2 0x33F8 DUP2 PUSH2 0x3A33 JUMP JUMPDEST DUP3 MSTORE POP POP JUMP JUMPDEST PUSH2 0x340F PUSH2 0x340A DUP3 PUSH2 0x3A33 JUMP JUMPDEST PUSH2 0x3B55 JUMP JUMPDEST DUP3 MSTORE POP POP JUMP JUMPDEST PUSH1 0x0 PUSH2 0x3420 DUP3 PUSH2 0x38D9 JUMP JUMPDEST PUSH2 0x342A DUP2 DUP6 PUSH2 0x38E4 JUMP JUMPDEST SWAP4 POP PUSH2 0x343A DUP2 DUP6 PUSH1 0x20 DUP7 ADD PUSH2 0x3A76 JUMP JUMPDEST PUSH2 0x3443 DUP2 PUSH2 0x3C68 JUMP JUMPDEST DUP5 ADD SWAP2 POP POP SWAP3 SWAP2 POP POP JUMP JUMPDEST PUSH1 0x0 PUSH2 0x3459 DUP3 PUSH2 0x38D9 JUMP JUMPDEST PUSH2 0x3463 DUP2 DUP6 PUSH2 0x38F5 JUMP JUMPDEST SWAP4 POP PUSH2 0x3473 DUP2 DUP6 PUSH1 0x20 DUP7 ADD PUSH2 0x3A76 JUMP JUMPDEST DUP1 DUP5 ADD SWAP2 POP POP SWAP3 SWAP2 POP POP JUMP JUMPDEST PUSH1 0x0 PUSH2 0x348C PUSH1 0x19 DUP4 PUSH2 0x38E4 JUMP JUMPDEST SWAP2 POP PUSH2 0x3497 DUP3 PUSH2 0x3C79 JUMP JUMPDEST PUSH1 0x20 DUP3 ADD SWAP1 POP SWAP2 SWAP1 POP JUMP JUMPDEST PUSH1 0x0 PUSH2 0x34AF PUSH1 0x9 DUP4 PUSH2 0x38E4 JUMP JUMPDEST SWAP2 POP PUSH2 0x34BA DUP3 PUSH2 0x3CA2 JUMP JUMPDEST PUSH1 0x20 DUP3 ADD SWAP1 POP SWAP2 SWAP1 POP JUMP JUMPDEST PUSH1 0x0 PUSH2 0x34D2 PUSH1 0xE DUP4 PUSH2 0x38E4 JUMP JUMPDEST SWAP2 POP PUSH2 0x34DD DUP3 PUSH2 0x3CCB JUMP JUMPDEST PUSH1 0x20 DUP3 ADD SWAP1 POP SWAP2 SWAP1 POP JUMP JUMPDEST PUSH1 0x0 PUSH2 0x34F5 PUSH1 0x17 DUP4 PUSH2 0x38E4 JUMP JUMPDEST SWAP2 POP PUSH2 0x3500 DUP3 PUSH2 0x3CF4 JUMP JUMPDEST PUSH1 0x20 DUP3 ADD SWAP1 POP SWAP2 SWAP1 POP JUMP JUMPDEST PUSH1 0x0 PUSH2 0x3518 PUSH1 0xA DUP4 PUSH2 0x38E4 JUMP JUMPDEST SWAP2 POP PUSH2 0x3523 DUP3 PUSH2 0x3D1D JUMP JUMPDEST PUSH1 0x20 DUP3 ADD SWAP1 POP SWAP2 SWAP1 POP JUMP JUMPDEST PUSH1 0x0 PUSH2 0x353B PUSH1 0x15 DUP4 PUSH2 0x38E4 JUMP JUMPDEST SWAP2 POP PUSH2 0x3546 DUP3 PUSH2 0x3D46 JUMP JUMPDEST PUSH1 0x20 DUP3 ADD SWAP1 POP SWAP2 SWAP1 POP JUMP JUMPDEST PUSH1 0x0 PUSH2 0x355E PUSH1 0x15 DUP4 PUSH2 0x38E4 JUMP JUMPDEST SWAP2 POP PUSH2 0x3569 DUP3 PUSH2 0x3D6F JUMP JUMPDEST PUSH1 0x20 DUP3 ADD SWAP1 POP SWAP2 SWAP1 POP JUMP JUMPDEST PUSH1 0x0 PUSH2 0x3581 PUSH1 0x10 DUP4 PUSH2 0x38E4 JUMP JUMPDEST SWAP2 POP PUSH2 0x358C DUP3 PUSH2 0x3D98 JUMP JUMPDEST PUSH1 0x20 DUP3 ADD SWAP1 POP SWAP2 SWAP1 POP JUMP JUMPDEST PUSH1 0x0 PUSH2 0x35A4 PUSH1 0x11 DUP4 PUSH2 0x38E4 JUMP JUMPDEST SWAP2 POP PUSH2 0x35AF DUP3 PUSH2 0x3DC1 JUMP JUMPDEST PUSH1 0x20 DUP3 ADD SWAP1 POP SWAP2 SWAP1 POP JUMP JUMPDEST PUSH1 0xA0 DUP3 ADD PUSH1 0x0 DUP3 ADD MLOAD PUSH2 0x35D0 PUSH1 0x0 DUP6 ADD DUP3 PUSH2 0x3622 JUMP JUMPDEST POP PUSH1 0x20 DUP3 ADD MLOAD PUSH2 0x35E3 PUSH1 0x20 DUP6 ADD DUP3 PUSH2 0x3622 JUMP JUMPDEST POP PUSH1 0x40 DUP3 ADD MLOAD PUSH2 0x35F6 PUSH1 0x40 DUP6 ADD DUP3 PUSH2 0x3622 JUMP JUMPDEST POP PUSH1 0x60 DUP3 ADD MLOAD PUSH2 0x3609 PUSH1 0x60 DUP6 ADD DUP3 PUSH2 0x3622 JUMP JUMPDEST POP PUSH1 0x80 DUP3 ADD MLOAD PUSH2 0x361C PUSH1 0x80 DUP6 ADD DUP3 PUSH2 0x3622 JUMP JUMPDEST POP POP POP POP JUMP JUMPDEST PUSH2 0x362B DUP2 PUSH2 0x3A5D JUMP JUMPDEST DUP3 MSTORE POP POP JUMP JUMPDEST PUSH2 0x363A DUP2 PUSH2 0x3A5D JUMP JUMPDEST DUP3 MSTORE POP POP JUMP JUMPDEST PUSH2 0x3651 PUSH2 0x364C DUP3 PUSH2 0x3A5D JUMP JUMPDEST PUSH2 0x3B5F JUMP JUMPDEST DUP3 MSTORE POP POP JUMP JUMPDEST PUSH1 0x0 PUSH2 0x3663 DUP3 DUP5 PUSH2 0x33FE JUMP JUMPDEST PUSH1 0x20 DUP3 ADD SWAP2 POP DUP2 SWAP1 POP SWAP3 SWAP2 POP POP JUMP JUMPDEST PUSH1 0x0 PUSH2 0x367E DUP3 DUP5 PUSH2 0x344E JUMP JUMPDEST SWAP2 POP DUP2 SWAP1 POP SWAP3 SWAP2 POP POP JUMP JUMPDEST PUSH1 0x0 PUSH2 0x3695 DUP3 DUP5 PUSH2 0x3640 JUMP JUMPDEST PUSH1 0x20 DUP3 ADD SWAP2 POP DUP2 SWAP1 POP SWAP3 SWAP2 POP POP JUMP JUMPDEST PUSH1 0x0 PUSH1 0x40 DUP3 ADD SWAP1 POP PUSH2 0x36B9 PUSH1 0x0 DUP4 ADD DUP6 PUSH2 0x33D1 JUMP JUMPDEST PUSH2 0x36C6 PUSH1 0x20 DUP4 ADD DUP5 PUSH2 0x3631 JUMP JUMPDEST SWAP4 SWAP3 POP POP POP JUMP JUMPDEST PUSH1 0x0 PUSH1 0x20 DUP3 ADD SWAP1 POP PUSH2 0x36E2 PUSH1 0x0 DUP4 ADD DUP5 PUSH2 0x33E0 JUMP JUMPDEST SWAP3 SWAP2 POP POP JUMP JUMPDEST PUSH1 0x0 PUSH1 0x20 DUP3 ADD SWAP1 POP PUSH2 0x36FD PUSH1 0x0 DUP4 ADD DUP5 PUSH2 0x33EF JUMP JUMPDEST SWAP3 SWAP2 POP POP JUMP JUMPDEST PUSH1 0x0 PUSH1 0xE0 DUP3 ADD SWAP1 POP DUP2 DUP2 SUB PUSH1 0x0 DUP4 ADD MSTORE PUSH2 0x371D DUP2 DUP7 PUSH2 0x3415 JUMP JUMPDEST SWAP1 POP DUP2 DUP2 SUB PUSH1 0x20 DUP4 ADD MSTORE PUSH2 0x3731 DUP2 DUP6 PUSH2 0x3415 JUMP JUMPDEST SWAP1 POP PUSH2 0x3740 PUSH1 0x40 DUP4 ADD DUP5 PUSH2 0x35BA JUMP JUMPDEST SWAP5 SWAP4 POP POP POP POP JUMP JUMPDEST PUSH1 0x0 PUSH1 0x20 DUP3 ADD SWAP1 POP DUP2 DUP2 SUB PUSH1 0x0 DUP4 ADD MSTORE PUSH2 0x3761 DUP2 PUSH2 0x347F JUMP JUMPDEST SWAP1 POP SWAP2 SWAP1 POP JUMP JUMPDEST PUSH1 0x0 PUSH1 0x20 DUP3 ADD SWAP1 POP DUP2 DUP2 SUB PUSH1 0x0 DUP4 ADD MSTORE PUSH2 0x3781 DUP2 PUSH2 0x34A2 JUMP JUMPDEST SWAP1 POP SWAP2 SWAP1 POP JUMP JUMPDEST PUSH1 0x0 PUSH1 0x20 DUP3 ADD SWAP1 POP DUP2 DUP2 SUB PUSH1 0x0 DUP4 ADD MSTORE PUSH2 0x37A1 DUP2 PUSH2 0x34C5 JUMP JUMPDEST SWAP1 POP SWAP2 SWAP1 POP JUMP JUMPDEST PUSH1 0x0 PUSH1 0x20 DUP3 ADD SWAP1 POP DUP2 DUP2 SUB PUSH1 0x0 DUP4 ADD MSTORE PUSH2 0x37C1 DUP2 PUSH2 0x34E8 JUMP JUMPDEST SWAP1 POP SWAP2 SWAP1 POP JUMP JUMPDEST PUSH1 0x0 PUSH1 0x20 DUP3 ADD SWAP1 POP DUP2 DUP2 SUB PUSH1 0x0 DUP4 ADD MSTORE PUSH2 0x37E1 DUP2 PUSH2 0x350B JUMP JUMPDEST SWAP1 POP SWAP2 SWAP1 POP JUMP JUMPDEST PUSH1 0x0 PUSH1 0x20 DUP3 ADD SWAP1 POP DUP2 DUP2 SUB PUSH1 0x0 DUP4 ADD MSTORE PUSH2 0x3801 DUP2 PUSH2 0x352E JUMP JUMPDEST SWAP1 POP SWAP2 SWAP1 POP JUMP JUMPDEST PUSH1 0x0 PUSH1 0x20 DUP3 ADD SWAP1 POP DUP2 DUP2 SUB PUSH1 0x0 DUP4 ADD MSTORE PUSH2 0x3821 DUP2 PUSH2 0x3551 JUMP JUMPDEST SWAP1 POP SWAP2 SWAP1 POP JUMP JUMPDEST PUSH1 0x0 PUSH1 0x20 DUP3 ADD SWAP1 POP DUP2 DUP2 SUB PUSH1 0x0 DUP4 ADD MSTORE PUSH2 0x3841 DUP2 PUSH2 0x3574 JUMP JUMPDEST SWAP1 POP SWAP2 SWAP1 POP JUMP JUMPDEST PUSH1 0x0 PUSH1 0x20 DUP3 ADD SWAP1 POP DUP2 DUP2 SUB PUSH1 0x0 DUP4 ADD MSTORE PUSH2 0x3861 DUP2 PUSH2 0x3597 JUMP JUMPDEST SWAP1 POP SWAP2 SWAP1 POP JUMP JUMPDEST PUSH1 0x0 PUSH1 0x20 DUP3 ADD SWAP1 POP PUSH2 0x387D PUSH1 0x0 DUP4 ADD DUP5 PUSH2 0x3631 JUMP JUMPDEST SWAP3 SWAP2 POP POP JUMP JUMPDEST PUSH1 0x0 PUSH2 0x388D PUSH2 0x389E JUMP JUMPDEST SWAP1 POP PUSH2 0x3899 DUP3 DUP3 PUSH2 0x3ADB JUMP JUMPDEST SWAP2 SWAP1 POP JUMP JUMPDEST PUSH1 0x0 PUSH1 0x40 MLOAD SWAP1 POP SWAP1 JUMP JUMPDEST PUSH1 0x0 PUSH8 0xFFFFFFFFFFFFFFFF DUP3 GT ISZERO PUSH2 0x38C3 JUMPI PUSH2 0x38C2 PUSH2 0x3C25 JUMP JUMPDEST JUMPDEST PUSH2 0x38CC DUP3 PUSH2 0x3C68 JUMP JUMPDEST SWAP1 POP PUSH1 0x20 DUP2 ADD SWAP1 POP SWAP2 SWAP1 POP JUMP JUMPDEST PUSH1 0x0 DUP2 MLOAD SWAP1 POP SWAP2 SWAP1 POP JUMP JUMPDEST PUSH1 0x0 DUP3 DUP3 MSTORE PUSH1 0x20 DUP3 ADD SWAP1 POP SWAP3 SWAP2 POP POP JUMP JUMPDEST PUSH1 0x0 DUP2 SWAP1 POP SWAP3 SWAP2 POP POP JUMP JUMPDEST PUSH1 0x0 PUSH2 0x390B DUP3 PUSH2 0x3A5D JUMP JUMPDEST SWAP2 POP PUSH2 0x3916 DUP4 PUSH2 0x3A5D JUMP JUMPDEST SWAP3 POP DUP3 PUSH32 0xFFFFFFFFFFFFFFFFFFFFFFFFFFFFFFFFFFFFFFFFFFFFFFFFFFFFFFFFFFFFFFFF SUB DUP3 GT ISZERO PUSH2 0x394B JUMPI PUSH2 0x394A PUSH2 0x3B69 JUMP JUMPDEST JUMPDEST DUP3 DUP3 ADD SWAP1 POP SWAP3 SWAP2 POP POP JUMP JUMPDEST PUSH1 0x0 PUSH2 0x3961 DUP3 PUSH2 0x3A5D JUMP JUMPDEST SWAP2 POP PUSH2 0x396C DUP4 PUSH2 0x3A5D JUMP JUMPDEST SWAP3 POP DUP3 PUSH2 0x397C JUMPI PUSH2 0x397B PUSH2 0x3B98 JUMP JUMPDEST JUMPDEST DUP3 DUP3 DIV SWAP1 POP SWAP3 SWAP2 POP POP JUMP JUMPDEST PUSH1 0x0 PUSH2 0x3992 DUP3 PUSH2 0x3A5D JUMP JUMPDEST SWAP2 POP PUSH2 0x399D DUP4 PUSH2 0x3A5D JUMP JUMPDEST SWAP3 POP DUP2 PUSH32 0xFFFFFFFFFFFFFFFFFFFFFFFFFFFFFFFFFFFFFFFFFFFFFFFFFFFFFFFFFFFFFFFF DIV DUP4 GT DUP3 ISZERO ISZERO AND ISZERO PUSH2 0x39D6 JUMPI PUSH2 0x39D5 PUSH2 0x3B69 JUMP JUMPDEST JUMPDEST DUP3 DUP3 MUL SWAP1 POP SWAP3 SWAP2 POP POP JUMP JUMPDEST PUSH1 0x0 PUSH2 0x39EC DUP3 PUSH2 0x3A5D JUMP JUMPDEST SWAP2 POP PUSH2 0x39F7 DUP4 PUSH2 0x3A5D JUMP JUMPDEST SWAP3 POP DUP3 DUP3 LT ISZERO PUSH2 0x3A0A JUMPI PUSH2 0x3A09 PUSH2 0x3B69 JUMP JUMPDEST JUMPDEST DUP3 DUP3 SUB SWAP1 POP SWAP3 SWAP2 POP POP JUMP JUMPDEST PUSH1 0x0 PUSH2 0x3A20 DUP3 PUSH2 0x3A3D JUMP JUMPDEST SWAP1 POP SWAP2 SWAP1 POP JUMP JUMPDEST PUSH1 0x0 DUP2 ISZERO ISZERO SWAP1 POP SWAP2 SWAP1 POP JUMP JUMPDEST PUSH1 0x0 DUP2 SWAP1 POP SWAP2 SWAP1 POP JUMP JUMPDEST PUSH1 0x0 PUSH20 0xFFFFFFFFFFFFFFFFFFFFFFFFFFFFFFFFFFFFFFFF DUP3 AND SWAP1 POP SWAP2 SWAP1 POP JUMP JUMPDEST PUSH1 0x0 DUP2 SWAP1 POP SWAP2 SWAP1 POP JUMP JUMPDEST DUP3 DUP2 DUP4 CALLDATACOPY PUSH1 0x0 DUP4 DUP4 ADD MSTORE POP POP POP JUMP JUMPDEST PUSH1 0x0 JUMPDEST DUP4 DUP2 LT ISZERO PUSH2 0x3A94 JUMPI DUP1 DUP3 ADD MLOAD DUP2 DUP5 ADD MSTORE PUSH1 0x20 DUP2 ADD SWAP1 POP PUSH2 0x3A79 JUMP JUMPDEST DUP4 DUP2 GT ISZERO PUSH2 0x3AA3 JUMPI PUSH1 0x0 DUP5 DUP5 ADD MSTORE JUMPDEST POP POP POP POP JUMP JUMPDEST PUSH1 0x0 PUSH1 0x2 DUP3 DIV SWAP1 POP PUSH1 0x1 DUP3 AND DUP1 PUSH2 0x3AC1 JUMPI PUSH1 0x7F DUP3 AND SWAP2 POP JUMPDEST PUSH1 0x20 DUP3 LT DUP2 EQ ISZERO PUSH2 0x3AD5 JUMPI PUSH2 0x3AD4 PUSH2 0x3BC7 JUMP JUMPDEST JUMPDEST POP SWAP2 SWAP1 POP JUMP JUMPDEST PUSH2 0x3AE4 DUP3 PUSH2 0x3C68 JUMP JUMPDEST DUP2 ADD DUP2 DUP2 LT PUSH8 0xFFFFFFFFFFFFFFFF DUP3 GT OR ISZERO PUSH2 0x3B03 JUMPI PUSH2 0x3B02 PUSH2 0x3C25 JUMP JUMPDEST JUMPDEST DUP1 PUSH1 0x40 MSTORE POP POP POP JUMP JUMPDEST PUSH1 0x0 PUSH2 0x3B17 DUP3 PUSH2 0x3A5D JUMP JUMPDEST SWAP2 POP PUSH32 0xFFFFFFFFFFFFFFFFFFFFFFFFFFFFFFFFFFFFFFFFFFFFFFFFFFFFFFFFFFFFFFFF DUP3 EQ ISZERO PUSH2 0x3B4A JUMPI PUSH2 0x3B49 PUSH2 0x3B69 JUMP JUMPDEST JUMPDEST PUSH1 0x1 DUP3 ADD SWAP1 POP SWAP2 SWAP1 POP JUMP JUMPDEST PUSH1 0x0 DUP2 SWAP1 POP SWAP2 SWAP1 POP JUMP JUMPDEST PUSH1 0x0 DUP2 SWAP1 POP SWAP2 SWAP1 POP JUMP JUMPDEST PUSH32 0x4E487B7100000000000000000000000000000000000000000000000000000000 PUSH1 0x0 MSTORE PUSH1 0x11 PUSH1 0x4 MSTORE PUSH1 0x24 PUSH1 0x0 REVERT JUMPDEST PUSH32 0x4E487B7100000000000000000000000000000000000000000000000000000000 PUSH1 0x0 MSTORE PUSH1 0x12 PUSH1 0x4 MSTORE PUSH1 0x24 PUSH1 0x0 REVERT JUMPDEST PUSH32 0x4E487B7100000000000000000000000000000000000000000000000000000000 PUSH1 0x0 MSTORE PUSH1 0x22 PUSH1 0x4 MSTORE PUSH1 0x24 PUSH1 0x0 REVERT JUMPDEST PUSH32 0x4E487B7100000000000000000000000000000000000000000000000000000000 PUSH1 0x0 MSTORE PUSH1 0x32 PUSH1 0x4 MSTORE PUSH1 0x24 PUSH1 0x0 REVERT JUMPDEST PUSH32 0x4E487B7100000000000000000000000000000000000000000000000000000000 PUSH1 0x0 MSTORE PUSH1 0x41 PUSH1 0x4 MSTORE PUSH1 0x24 PUSH1 0x0 REVERT JUMPDEST PUSH1 0x0 DUP1 REVERT JUMPDEST PUSH1 0x0 DUP1 REVERT JUMPDEST PUSH1 0x0 DUP1 REVERT JUMPDEST PUSH1 0x0 DUP1 REVERT JUMPDEST PUSH1 0x0 PUSH1 0x1F NOT PUSH1 0x1F DUP4 ADD AND SWAP1 POP SWAP2 SWAP1 POP JUMP JUMPDEST PUSH32 0x4F6E6C79206F776E65722063616E2063616C6C20746869732E00000000000000 PUSH1 0x0 DUP3 ADD MSTORE POP JUMP JUMPDEST PUSH32 0x6E6F742065786973740000000000000000000000000000000000000000000000 PUSH1 0x0 DUP3 ADD MSTORE POP JUMP JUMPDEST PUSH32 0x706F6F6C206E6F74206578697374000000000000000000000000000000000000 PUSH1 0x0 DUP3 ADD MSTORE POP JUMP JUMPDEST PUSH32 0x706F6F6C20626173616C20686173206265656E20736574000000000000000000 PUSH1 0x0 DUP3 ADD MSTORE POP JUMP JUMPDEST PUSH32 0x7061697220657869737400000000000000000000000000000000000000000000 PUSH1 0x0 DUP3 ADD MSTORE POP JUMP JUMPDEST PUSH32 0x706F6F6C20686173206E6F742066696E69736865640000000000000000000000 PUSH1 0x0 DUP3 ADD MSTORE POP JUMP JUMPDEST PUSH32 0x6E6F7420656E6F75676820766F7465416D6F756E740000000000000000000000 PUSH1 0x0 DUP3 ADD MSTORE POP JUMP JUMPDEST PUSH32 0x6E6F7420656E6F75676820626173616C00000000000000000000000000000000 PUSH1 0x0 DUP3 ADD MSTORE POP JUMP JUMPDEST PUSH32 0x706F6F6C206861732066696E6973686564000000000000000000000000000000 PUSH1 0x0 DUP3 ADD MSTORE POP JUMP JUMPDEST PUSH2 0x3DF3 DUP2 PUSH2 0x3A15 JUMP JUMPDEST DUP2 EQ PUSH2 0x3DFE JUMPI PUSH1 0x0 DUP1 REVERT JUMPDEST POP JUMP JUMPDEST PUSH2 0x3E0A DUP2 PUSH2 0x3A27 JUMP JUMPDEST DUP2 EQ PUSH2 0x3E15 JUMPI PUSH1 0x0 DUP1 REVERT JUMPDEST POP JUMP JUMPDEST PUSH2 0x3E21 DUP2 PUSH2 0x3A33 JUMP JUMPDEST DUP2 EQ PUSH2 0x3E2C JUMPI PUSH1 0x0 DUP1 REVERT JUMPDEST POP JUMP JUMPDEST PUSH2 0x3E38 DUP2 PUSH2 0x3A5D JUMP JUMPDEST DUP2 EQ PUSH2 0x3E43 JUMPI PUSH1 0x0 DUP1 REVERT JUMPDEST POP JUMP INVALID LOG2 PUSH5 0x6970667358 0x22 SLT KECCAK256 0x1E PUSH17 0xCC1AAD2A6596A3E7E9BDD87E7F1AEF1E13 0x21 SWAP2 SWAP4 PUSH16 0x986E0A2036218F6BDE64736F6C634300 ADDMOD SMOD STOP CALLER "
				},
				"gasEstimates": {
					"creation": {
						"codeDepositCost": "3199200",
						"executionCost": "infinite",
						"totalCost": "infinite"
					},
					"external": {
						"Award(bytes32,uint256,uint256,uint256)": "infinite",
						"CheckBasal()": "4674",
						"CheckExpect(bytes32)": "infinite",
						"Picking(address,uint256,bytes32,uint256,uint256,uint256)": "infinite",
						"Set_Basal(bytes32,uint256)": "infinite",
						"Set_Pool(string,string,string,bool)": "infinite",
						"Withdrawal(address,bytes32)": "infinite",
						"getPool(bytes32)": "infinite",
						"voteWithdrawal(address,uint256)": "infinite"
					},
					"internal": {
						"addressToString(address)": "infinite",
						"bytes32ToString(bytes32)": "infinite",
						"contains(bytes32)": "2304",
						"strConcat(string memory,string memory)": "infinite",
						"stringCompare(string memory,string memory)": "infinite",
						"toString(bytes memory)": "infinite",
						"uint256ToString(uint256)": "infinite"
					}
				},
				"methodIdentifiers": {
					"Award(bytes32,uint256,uint256,uint256)": "74fe9bc2",
					"CheckBasal()": "3e6ff1a2",
					"CheckExpect(bytes32)": "4121855f",
					"Picking(address,uint256,bytes32,uint256,uint256,uint256)": "47e4dd27",
					"Set_Basal(bytes32,uint256)": "2bf21ecc",
					"Set_Pool(string,string,string,bool)": "357965ba",
					"Withdrawal(address,bytes32)": "0ce49053",
					"getPool(bytes32)": "f6c00927",
					"voteWithdrawal(address,uint256)": "9bd0abf1"
				}
			},
			"storageLayout": {
				"storage": [
					{
						"astId": 198,
						"contract": "wwcc-contracts/contracts/wwccPool.sol:WCPOOL",
						"label": "owner",
						"offset": 0,
						"slot": "0",
						"type": "t_address"
					},
					{
						"astId": 202,
						"contract": "wwcc-contracts/contracts/wwccPool.sol:WCPOOL",
						"label": "scorePools",
						"offset": 0,
						"slot": "1",
						"type": "t_mapping(t_string_memory_ptr,t_uint256)"
					},
					{
						"astId": 207,
						"contract": "wwcc-contracts/contracts/wwccPool.sol:WCPOOL",
						"label": "allScorePoolInfo",
						"offset": 0,
						"slot": "2",
						"type": "t_mapping(t_bytes32,t_struct(AllScorePool)171_storage)"
					},
					{
						"astId": 211,
						"contract": "wwcc-contracts/contracts/wwccPool.sol:WCPOOL",
						"label": "singleScorePool",
						"offset": 0,
						"slot": "3",
						"type": "t_mapping(t_string_memory_ptr,t_uint256)"
					},
					{
						"astId": 216,
						"contract": "wwcc-contracts/contracts/wwccPool.sol:WCPOOL",
						"label": "joinerAllPicking",
						"offset": 0,
						"slot": "4",
						"type": "t_mapping(t_address,t_struct(JoinerAllPicking)178_storage)"
					},
					{
						"astId": 220,
						"contract": "wwcc-contracts/contracts/wwccPool.sol:WCPOOL",
						"label": "voteAmount",
						"offset": 0,
						"slot": "5",
						"type": "t_mapping(t_address,t_uint256)"
					},
					{
						"astId": 225,
						"contract": "wwcc-contracts/contracts/wwccPool.sol:WCPOOL",
						"label": "WcPools",
						"offset": 0,
						"slot": "6",
						"type": "t_mapping(t_bytes32,t_struct(WcPool)153_storage)"
					},
					{
						"astId": 227,
						"contract": "wwcc-contracts/contracts/wwccPool.sol:WCPOOL",
						"label": "nextBasalLast",
						"offset": 0,
						"slot": "7",
						"type": "t_uint256"
					}
				],
				"types": {
					"t_address": {
						"encoding": "inplace",
						"label": "address",
						"numberOfBytes": "20"
					},
					"t_array(t_struct(JoinerPicking)193_storage)dyn_storage": {
						"base": "t_struct(JoinerPicking)193_storage",
						"encoding": "dynamic_array",
						"label": "struct WCPOOL.JoinerPicking[]",
						"numberOfBytes": "32"
					},
					"t_bool": {
						"encoding": "inplace",
						"label": "bool",
						"numberOfBytes": "1"
					},
					"t_bytes32": {
						"encoding": "inplace",
						"label": "bytes32",
						"numberOfBytes": "32"
					},
					"t_mapping(t_address,t_struct(JoinerAllPicking)178_storage)": {
						"encoding": "mapping",
						"key": "t_address",
						"label": "mapping(address => struct WCPOOL.JoinerAllPicking)",
						"numberOfBytes": "32",
						"value": "t_struct(JoinerAllPicking)178_storage"
					},
					"t_mapping(t_address,t_uint256)": {
						"encoding": "mapping",
						"key": "t_address",
						"label": "mapping(address => uint256)",
						"numberOfBytes": "32",
						"value": "t_uint256"
					},
					"t_mapping(t_bytes32,t_struct(AllScorePool)171_storage)": {
						"encoding": "mapping",
						"key": "t_bytes32",
						"label": "mapping(bytes32 => struct WCPOOL.AllScorePool)",
						"numberOfBytes": "32",
						"value": "t_struct(AllScorePool)171_storage"
					},
					"t_mapping(t_bytes32,t_struct(WcPool)153_storage)": {
						"encoding": "mapping",
						"key": "t_bytes32",
						"label": "mapping(bytes32 => struct WCPOOL.WcPool)",
						"numberOfBytes": "32",
						"value": "t_struct(WcPool)153_storage"
					},
					"t_mapping(t_string_memory_ptr,t_uint256)": {
						"encoding": "mapping",
						"key": "t_string_memory_ptr",
						"label": "mapping(string => uint256)",
						"numberOfBytes": "32",
						"value": "t_uint256"
					},
					"t_string_memory_ptr": {
						"encoding": "bytes",
						"label": "string",
						"numberOfBytes": "32"
					},
					"t_string_storage": {
						"encoding": "bytes",
						"label": "string",
						"numberOfBytes": "32"
					},
					"t_struct(AllScorePool)171_storage": {
						"encoding": "inplace",
						"label": "struct WCPOOL.AllScorePool",
						"members": [
							{
								"astId": 168,
								"contract": "wwcc-contracts/contracts/wwccPool.sol:WCPOOL",
								"label": "separateBet",
								"offset": 0,
								"slot": "0",
								"type": "t_array(t_struct(JoinerPicking)193_storage)dyn_storage"
							},
							{
								"astId": 170,
								"contract": "wwcc-contracts/contracts/wwccPool.sol:WCPOOL",
								"label": "poolKey",
								"offset": 0,
								"slot": "1",
								"type": "t_bytes32"
							}
						],
						"numberOfBytes": "64"
					},
					"t_struct(JoinerAllPicking)178_storage": {
						"encoding": "inplace",
						"label": "struct WCPOOL.JoinerAllPicking",
						"members": [
							{
								"astId": 175,
								"contract": "wwcc-contracts/contracts/wwccPool.sol:WCPOOL",
								"label": "separateBet",
								"offset": 0,
								"slot": "0",
								"type": "t_array(t_struct(JoinerPicking)193_storage)dyn_storage"
							},
							{
								"astId": 177,
								"contract": "wwcc-contracts/contracts/wwccPool.sol:WCPOOL",
								"label": "joiner",
								"offset": 0,
								"slot": "1",
								"type": "t_address"
							}
						],
						"numberOfBytes": "64"
					},
					"t_struct(JoinerPicking)193_storage": {
						"encoding": "inplace",
						"label": "struct WCPOOL.JoinerPicking",
						"members": [
							{
								"astId": 180,
								"contract": "wwcc-contracts/contracts/wwccPool.sol:WCPOOL",
								"label": "weight",
								"offset": 0,
								"slot": "0",
								"type": "t_uint256"
							},
							{
								"astId": 182,
								"contract": "wwcc-contracts/contracts/wwccPool.sol:WCPOOL",
								"label": "kind",
								"offset": 0,
								"slot": "1",
								"type": "t_uint256"
							},
							{
								"astId": 184,
								"contract": "wwcc-contracts/contracts/wwccPool.sol:WCPOOL",
								"label": "homeScore",
								"offset": 0,
								"slot": "2",
								"type": "t_uint256"
							},
							{
								"astId": 186,
								"contract": "wwcc-contracts/contracts/wwccPool.sol:WCPOOL",
								"label": "visitScore",
								"offset": 0,
								"slot": "3",
								"type": "t_uint256"
							},
							{
								"astId": 188,
								"contract": "wwcc-contracts/contracts/wwccPool.sol:WCPOOL",
								"label": "joiner",
								"offset": 0,
								"slot": "4",
								"type": "t_address"
							},
							{
								"astId": 190,
								"contract": "wwcc-contracts/contracts/wwccPool.sol:WCPOOL",
								"label": "pickingKey",
								"offset": 0,
								"slot": "5",
								"type": "t_string_storage"
							},
							{
								"astId": 192,
								"contract": "wwcc-contracts/contracts/wwccPool.sol:WCPOOL",
								"label": "finished",
								"offset": 0,
								"slot": "6",
								"type": "t_bool"
							}
						],
						"numberOfBytes": "224"
					},
					"t_struct(WcPool)153_storage": {
						"encoding": "inplace",
						"label": "struct WCPOOL.WcPool",
						"members": [
							{
								"astId": 132,
								"contract": "wwcc-contracts/contracts/wwccPool.sol:WCPOOL",
								"label": "home",
								"offset": 0,
								"slot": "0",
								"type": "t_string_storage"
							},
							{
								"astId": 134,
								"contract": "wwcc-contracts/contracts/wwccPool.sol:WCPOOL",
								"label": "visit",
								"offset": 0,
								"slot": "1",
								"type": "t_string_storage"
							},
							{
								"astId": 136,
								"contract": "wwcc-contracts/contracts/wwccPool.sol:WCPOOL",
								"label": "rounds",
								"offset": 0,
								"slot": "2",
								"type": "t_string_storage"
							},
							{
								"astId": 138,
								"contract": "wwcc-contracts/contracts/wwccPool.sol:WCPOOL",
								"label": "wPool",
								"offset": 0,
								"slot": "3",
								"type": "t_uint256"
							},
							{
								"astId": 140,
								"contract": "wwcc-contracts/contracts/wwccPool.sol:WCPOOL",
								"label": "dPool",
								"offset": 0,
								"slot": "4",
								"type": "t_uint256"
							},
							{
								"astId": 142,
								"contract": "wwcc-contracts/contracts/wwccPool.sol:WCPOOL",
								"label": "lPool",
								"offset": 0,
								"slot": "5",
								"type": "t_uint256"
							},
							{
								"astId": 144,
								"contract": "wwcc-contracts/contracts/wwccPool.sol:WCPOOL",
								"label": "sPool",
								"offset": 0,
								"slot": "6",
								"type": "t_uint256"
							},
							{
								"astId": 146,
								"contract": "wwcc-contracts/contracts/wwccPool.sol:WCPOOL",
								"label": "basal",
								"offset": 0,
								"slot": "7",
								"type": "t_uint256"
							},
							{
								"astId": 148,
								"contract": "wwcc-contracts/contracts/wwccPool.sol:WCPOOL",
								"label": "decided",
								"offset": 0,
								"slot": "8",
								"type": "t_bool"
							},
							{
								"astId": 150,
								"contract": "wwcc-contracts/contracts/wwccPool.sol:WCPOOL",
								"label": "used",
								"offset": 1,
								"slot": "8",
								"type": "t_bool"
							},
							{
								"astId": 152,
								"contract": "wwcc-contracts/contracts/wwccPool.sol:WCPOOL",
								"label": "finished",
								"offset": 2,
								"slot": "8",
								"type": "t_bool"
							}
						],
						"numberOfBytes": "288"
					},
					"t_uint256": {
						"encoding": "inplace",
						"label": "uint256",
						"numberOfBytes": "32"
					}
				}
			},
			"userdoc": {
				"kind": "user",
				"methods": {},
				"version": 1
			}
		}
	}
}