{
	"wwcc-contracts/contracts/wwccPool.sol": {
		"WCPOOL": {
			"abi": [
				{
					"inputs": [
						{
							"internalType": "address",
							"name": "holder",
							"type": "address"
						}
					],
					"stateMutability": "nonpayable",
					"type": "constructor"
				},
				{
					"anonymous": false,
					"inputs": [
						{
							"indexed": false,
							"internalType": "address",
							"name": "owner",
							"type": "address"
						},
						{
							"indexed": false,
							"internalType": "address",
							"name": "spender",
							"type": "address"
						},
						{
							"indexed": false,
							"internalType": "uint256",
							"name": "value",
							"type": "uint256"
						}
					],
					"name": "Approval",
					"type": "event"
				},
				{
					"anonymous": false,
					"inputs": [
						{
							"indexed": false,
							"internalType": "address",
							"name": "",
							"type": "address"
						},
						{
							"indexed": false,
							"internalType": "uint256",
							"name": "",
							"type": "uint256"
						}
					],
					"name": "Received",
					"type": "event"
				},
				{
					"anonymous": false,
					"inputs": [
						{
							"indexed": false,
							"internalType": "address",
							"name": "owner",
							"type": "address"
						},
						{
							"indexed": false,
							"internalType": "address",
							"name": "spender",
							"type": "address"
						},
						{
							"indexed": false,
							"internalType": "uint256",
							"name": "value",
							"type": "uint256"
						}
					],
					"name": "Transfer",
					"type": "event"
				},
				{
					"inputs": [
						{
							"internalType": "bytes32",
							"name": "poolKey",
							"type": "bytes32"
						},
						{
							"internalType": "uint256",
							"name": "homeScore",
							"type": "uint256"
						},
						{
							"internalType": "uint256",
							"name": "visitScore",
							"type": "uint256"
						},
						{
							"internalType": "uint256",
							"name": "result",
							"type": "uint256"
						}
					],
					"name": "Award",
					"outputs": [
						{
							"internalType": "bool",
							"name": "",
							"type": "bool"
						}
					],
					"stateMutability": "payable",
					"type": "function"
				},
				{
					"inputs": [
						{
							"internalType": "bytes32",
							"name": "poolKey",
							"type": "bytes32"
						}
					],
					"name": "CheckExpect",
					"outputs": [
						{
							"internalType": "uint256",
							"name": "",
							"type": "uint256"
						}
					],
					"stateMutability": "nonpayable",
					"type": "function"
				},
				{
					"inputs": [
						{
							"internalType": "address",
							"name": "joiner",
							"type": "address"
						},
						{
							"internalType": "uint256",
							"name": "weight",
							"type": "uint256"
						},
						{
							"internalType": "bytes32",
							"name": "poolKey",
							"type": "bytes32"
						},
						{
							"internalType": "uint256",
							"name": "homeScore",
							"type": "uint256"
						},
						{
							"internalType": "uint256",
							"name": "visitScore",
							"type": "uint256"
						},
						{
							"internalType": "uint256",
							"name": "kind",
							"type": "uint256"
						}
					],
					"name": "Picking",
					"outputs": [
						{
							"internalType": "bool",
							"name": "",
							"type": "bool"
						}
					],
					"stateMutability": "nonpayable",
					"type": "function"
				},
				{
					"inputs": [
						{
							"internalType": "bytes32",
							"name": "poolKey",
							"type": "bytes32"
						}
					],
					"name": "Set_Basal",
					"outputs": [
						{
							"internalType": "bool",
							"name": "",
							"type": "bool"
						}
					],
					"stateMutability": "nonpayable",
					"type": "function"
				},
				{
					"inputs": [
						{
							"internalType": "string",
							"name": "home",
							"type": "string"
						},
						{
							"internalType": "string",
							"name": "visit",
							"type": "string"
						},
						{
							"internalType": "string",
							"name": "rounds",
							"type": "string"
						},
						{
							"internalType": "bool",
							"name": "decided",
							"type": "bool"
						}
					],
					"name": "Set_Pool",
					"outputs": [
						{
							"internalType": "bytes32",
							"name": "",
							"type": "bytes32"
						}
					],
					"stateMutability": "nonpayable",
					"type": "function"
				},
				{
					"inputs": [
						{
							"internalType": "address",
							"name": "toAddress",
							"type": "address"
						},
						{
							"internalType": "bytes32",
							"name": "poolKey",
							"type": "bytes32"
						}
					],
					"name": "Withdrawal",
					"outputs": [
						{
							"internalType": "bool",
							"name": "",
							"type": "bool"
						}
					],
					"stateMutability": "payable",
					"type": "function"
				},
				{
					"inputs": [
						{
							"internalType": "bytes32",
							"name": "poolKey",
							"type": "bytes32"
						}
					],
					"name": "getPair",
					"outputs": [
						{
							"internalType": "string",
							"name": "home",
							"type": "string"
						},
						{
							"internalType": "string",
							"name": "visit",
							"type": "string"
						},
						{
							"internalType": "string",
							"name": "rounds",
							"type": "string"
						},
						{
							"internalType": "uint256",
							"name": "wPool",
							"type": "uint256"
						},
						{
							"internalType": "uint256",
							"name": "dPool",
							"type": "uint256"
						},
						{
							"internalType": "uint256",
							"name": "lPool",
							"type": "uint256"
						},
						{
							"internalType": "uint256",
							"name": "sPool",
							"type": "uint256"
						}
					],
					"stateMutability": "view",
					"type": "function"
				},
				{
					"inputs": [
						{
							"internalType": "address",
							"name": "joiner",
							"type": "address"
						},
						{
							"internalType": "uint256",
							"name": "amount",
							"type": "uint256"
						}
					],
					"name": "voteWithdrawal",
					"outputs": [
						{
							"internalType": "bool",
							"name": "",
							"type": "bool"
						}
					],
					"stateMutability": "payable",
					"type": "function"
				},
				{
					"stateMutability": "payable",
					"type": "receive"
				}
			],
			"devdoc": {
				"kind": "dev",
				"methods": {},
				"version": 1
			},
			"evm": {
				"assembly": "    /* \"wwcc-contracts/contracts/wwccPool.sol\":96:11664  contract WCPOOL {... */\n  mstore(0x40, 0x80)\n    /* \"wwcc-contracts/contracts/wwccPool.sol\":1491:1683  constructor(... */\n  callvalue\n  dup1\n  iszero\n  tag_1\n  jumpi\n  0x00\n  dup1\n  revert\ntag_1:\n  pop\n  mload(0x40)\n  sub(codesize, bytecodeSize)\n  dup1\n  bytecodeSize\n  dup4\n  codecopy\n  dup2\n  dup2\n  add\n  0x40\n  mstore\n  dup2\n  add\n  swap1\n  tag_2\n  swap2\n  swap1\n  tag_3\n  jump\t// in\ntag_2:\n    /* \"wwcc-contracts/contracts/wwccPool.sol\":1600:1606  holder */\n  dup1\n    /* \"wwcc-contracts/contracts/wwccPool.sol\":1592:1597  owner */\n  0x00\n  dup1\n    /* \"wwcc-contracts/contracts/wwccPool.sol\":1592:1606  owner = holder */\n  0x0100\n  exp\n  dup2\n  sload\n  dup2\n  0xffffffffffffffffffffffffffffffffffffffff\n  mul\n  not\n  and\n  swap1\n  dup4\n  0xffffffffffffffffffffffffffffffffffffffff\n  and\n  mul\n  or\n  swap1\n  sstore\n  pop\n    /* \"wwcc-contracts/contracts/wwccPool.sol\":1491:1683  constructor(... */\n  pop\n    /* \"wwcc-contracts/contracts/wwccPool.sol\":96:11664  contract WCPOOL {... */\n  jump(tag_6)\n    /* \"#utility.yul\":7:150   */\ntag_8:\n    /* \"#utility.yul\":64:69   */\n  0x00\n    /* \"#utility.yul\":95:101   */\n  dup2\n    /* \"#utility.yul\":89:102   */\n  mload\n    /* \"#utility.yul\":80:102   */\n  swap1\n  pop\n    /* \"#utility.yul\":111:144   */\n  tag_10\n    /* \"#utility.yul\":138:143   */\n  dup2\n    /* \"#utility.yul\":111:144   */\n  tag_11\n  jump\t// in\ntag_10:\n    /* \"#utility.yul\":7:150   */\n  swap3\n  swap2\n  pop\n  pop\n  jump\t// out\n    /* \"#utility.yul\":156:507   */\ntag_3:\n    /* \"#utility.yul\":226:232   */\n  0x00\n    /* \"#utility.yul\":275:277   */\n  0x20\n    /* \"#utility.yul\":263:272   */\n  dup3\n    /* \"#utility.yul\":254:261   */\n  dup5\n    /* \"#utility.yul\":250:273   */\n  sub\n    /* \"#utility.yul\":246:278   */\n  slt\n    /* \"#utility.yul\":243:362   */\n  iszero\n  tag_13\n  jumpi\n    /* \"#utility.yul\":281:360   */\n  tag_14\n  tag_15\n  jump\t// in\ntag_14:\n    /* \"#utility.yul\":243:362   */\ntag_13:\n    /* \"#utility.yul\":401:402   */\n  0x00\n    /* \"#utility.yul\":426:490   */\n  tag_16\n    /* \"#utility.yul\":482:489   */\n  dup5\n    /* \"#utility.yul\":473:479   */\n  dup3\n    /* \"#utility.yul\":462:471   */\n  dup6\n    /* \"#utility.yul\":458:480   */\n  add\n    /* \"#utility.yul\":426:490   */\n  tag_8\n  jump\t// in\ntag_16:\n    /* \"#utility.yul\":416:490   */\n  swap2\n  pop\n    /* \"#utility.yul\":372:500   */\n  pop\n    /* \"#utility.yul\":156:507   */\n  swap3\n  swap2\n  pop\n  pop\n  jump\t// out\n    /* \"#utility.yul\":594:690   */\ntag_19:\n    /* \"#utility.yul\":631:638   */\n  0x00\n    /* \"#utility.yul\":660:684   */\n  tag_21\n    /* \"#utility.yul\":678:683   */\n  dup3\n    /* \"#utility.yul\":660:684   */\n  tag_22\n  jump\t// in\ntag_21:\n    /* \"#utility.yul\":649:684   */\n  swap1\n  pop\n    /* \"#utility.yul\":594:690   */\n  swap2\n  swap1\n  pop\n  jump\t// out\n    /* \"#utility.yul\":696:822   */\ntag_22:\n    /* \"#utility.yul\":733:740   */\n  0x00\n    /* \"#utility.yul\":773:815   */\n  0xffffffffffffffffffffffffffffffffffffffff\n    /* \"#utility.yul\":766:771   */\n  dup3\n    /* \"#utility.yul\":762:816   */\n  and\n    /* \"#utility.yul\":751:816   */\n  swap1\n  pop\n    /* \"#utility.yul\":696:822   */\n  swap2\n  swap1\n  pop\n  jump\t// out\n    /* \"#utility.yul\":951:1068   */\ntag_15:\n    /* \"#utility.yul\":1060:1061   */\n  0x00\n    /* \"#utility.yul\":1057:1058   */\n  dup1\n    /* \"#utility.yul\":1050:1062   */\n  revert\n    /* \"#utility.yul\":1074:1196   */\ntag_11:\n    /* \"#utility.yul\":1147:1171   */\n  tag_28\n    /* \"#utility.yul\":1165:1170   */\n  dup2\n    /* \"#utility.yul\":1147:1171   */\n  tag_19\n  jump\t// in\ntag_28:\n    /* \"#utility.yul\":1140:1145   */\n  dup2\n    /* \"#utility.yul\":1137:1172   */\n  eq\n    /* \"#utility.yul\":1127:1190   */\n  tag_29\n  jumpi\n    /* \"#utility.yul\":1186:1187   */\n  0x00\n    /* \"#utility.yul\":1183:1184   */\n  dup1\n    /* \"#utility.yul\":1176:1188   */\n  revert\n    /* \"#utility.yul\":1127:1190   */\ntag_29:\n    /* \"#utility.yul\":1074:1196   */\n  pop\n  jump\t// out\n    /* \"wwcc-contracts/contracts/wwccPool.sol\":96:11664  contract WCPOOL {... */\ntag_6:\n  dataSize(sub_0)\n  dup1\n  dataOffset(sub_0)\n  0x00\n  codecopy\n  0x00\n  return\nstop\n\nsub_0: assembly {\n        /* \"wwcc-contracts/contracts/wwccPool.sol\":96:11664  contract WCPOOL {... */\n      mstore(0x40, 0x80)\n      jumpi(tag_1, lt(calldatasize, 0x04))\n      shr(0xe0, calldataload(0x00))\n      dup1\n      0x742f8a77\n      gt\n      tag_11\n      jumpi\n      dup1\n      0x742f8a77\n      eq\n      tag_7\n      jumpi\n      dup1\n      0x74fe9bc2\n      eq\n      tag_8\n      jumpi\n      dup1\n      0x9bd0abf1\n      eq\n      tag_9\n      jumpi\n      dup1\n      0xb8e5303d\n      eq\n      tag_10\n      jumpi\n      jump(tag_2)\n    tag_11:\n      dup1\n      0x0ce49053\n      eq\n      tag_3\n      jumpi\n      dup1\n      0x357965ba\n      eq\n      tag_4\n      jumpi\n      dup1\n      0x4121855f\n      eq\n      tag_5\n      jumpi\n      dup1\n      0x47e4dd27\n      eq\n      tag_6\n      jumpi\n      jump(tag_2)\n    tag_1:\n      jumpi(tag_2, calldatasize)\n        /* \"wwcc-contracts/contracts/wwccPool.sol\":11525:11530  owner */\n      0x00\n      dup1\n      sload\n      swap1\n      0x0100\n      exp\n      swap1\n      div\n      0xffffffffffffffffffffffffffffffffffffffff\n      and\n        /* \"wwcc-contracts/contracts/wwccPool.sol\":11511:11530  msg.sender != owner */\n      0xffffffffffffffffffffffffffffffffffffffff\n      and\n        /* \"wwcc-contracts/contracts/wwccPool.sol\":11511:11521  msg.sender */\n      caller\n        /* \"wwcc-contracts/contracts/wwccPool.sol\":11511:11530  msg.sender != owner */\n      0xffffffffffffffffffffffffffffffffffffffff\n      and\n      eq\n        /* \"wwcc-contracts/contracts/wwccPool.sol\":11508:11657  if(msg.sender != owner){... */\n      tag_14\n      jumpi\n        /* \"wwcc-contracts/contracts/wwccPool.sol\":11570:11579  msg.value */\n      callvalue\n        /* \"wwcc-contracts/contracts/wwccPool.sol\":11544:11554  voteAmount */\n      0x05\n        /* \"wwcc-contracts/contracts/wwccPool.sol\":11544:11566  voteAmount[msg.sender] */\n      0x00\n        /* \"wwcc-contracts/contracts/wwccPool.sol\":11555:11565  msg.sender */\n      caller\n        /* \"wwcc-contracts/contracts/wwccPool.sol\":11544:11566  voteAmount[msg.sender] */\n      0xffffffffffffffffffffffffffffffffffffffff\n      and\n      0xffffffffffffffffffffffffffffffffffffffff\n      and\n      dup2\n      mstore\n      0x20\n      add\n      swap1\n      dup2\n      mstore\n      0x20\n      add\n      0x00\n      keccak256\n      0x00\n        /* \"wwcc-contracts/contracts/wwccPool.sol\":11544:11579  voteAmount[msg.sender] += msg.value */\n      dup3\n      dup3\n      sload\n      tag_15\n      swap2\n      swap1\n      tag_16\n      jump\t// in\n    tag_15:\n      swap3\n      pop\n      pop\n      dup2\n      swap1\n      sstore\n      pop\n        /* \"wwcc-contracts/contracts/wwccPool.sol\":11597:11628  Received(msg.sender, msg.value) */\n      0x88a5966d370b9919b20f3e2c13ff65706f196a4e32cc2c12bf57088f88525874\n        /* \"wwcc-contracts/contracts/wwccPool.sol\":11606:11616  msg.sender */\n      caller\n        /* \"wwcc-contracts/contracts/wwccPool.sol\":11618:11627  msg.value */\n      callvalue\n        /* \"wwcc-contracts/contracts/wwccPool.sol\":11597:11628  Received(msg.sender, msg.value) */\n      mload(0x40)\n      tag_17\n      swap3\n      swap2\n      swap1\n      tag_18\n      jump\t// in\n    tag_17:\n      mload(0x40)\n      dup1\n      swap2\n      sub\n      swap1\n      log1\n        /* \"wwcc-contracts/contracts/wwccPool.sol\":11508:11657  if(msg.sender != owner){... */\n      jump(tag_19)\n    tag_14:\n    tag_19:\n        /* \"wwcc-contracts/contracts/wwccPool.sol\":96:11664  contract WCPOOL {... */\n      stop\n    tag_2:\n      0x00\n      dup1\n      revert\n        /* \"wwcc-contracts/contracts/wwccPool.sol\":4233:4884  function Withdrawal(address toAddress,bytes32 poolKey) external onlyManager payable returns (bool){... */\n    tag_3:\n      tag_20\n      0x04\n      dup1\n      calldatasize\n      sub\n      dup2\n      add\n      swap1\n      tag_21\n      swap2\n      swap1\n      tag_22\n      jump\t// in\n    tag_21:\n      tag_23\n      jump\t// in\n    tag_20:\n      mload(0x40)\n      tag_24\n      swap2\n      swap1\n      tag_25\n      jump\t// in\n    tag_24:\n      mload(0x40)\n      dup1\n      swap2\n      sub\n      swap1\n      return\n        /* \"wwcc-contracts/contracts/wwccPool.sol\":1688:2538  function Set_Pool(... */\n    tag_4:\n      callvalue\n      dup1\n      iszero\n      tag_26\n      jumpi\n      0x00\n      dup1\n      revert\n    tag_26:\n      pop\n      tag_27\n      0x04\n      dup1\n      calldatasize\n      sub\n      dup2\n      add\n      swap1\n      tag_28\n      swap2\n      swap1\n      tag_29\n      jump\t// in\n    tag_28:\n      tag_30\n      jump\t// in\n    tag_27:\n      mload(0x40)\n      tag_31\n      swap2\n      swap1\n      tag_32\n      jump\t// in\n    tag_31:\n      mload(0x40)\n      dup1\n      swap2\n      sub\n      swap1\n      return\n        /* \"wwcc-contracts/contracts/wwccPool.sol\":5263:5612  function CheckExpect(bytes32 poolKey) external onlyManager  returns (uint256){... */\n    tag_5:\n      callvalue\n      dup1\n      iszero\n      tag_33\n      jumpi\n      0x00\n      dup1\n      revert\n    tag_33:\n      pop\n      tag_34\n      0x04\n      dup1\n      calldatasize\n      sub\n      dup2\n      add\n      swap1\n      tag_35\n      swap2\n      swap1\n      tag_36\n      jump\t// in\n    tag_35:\n      tag_37\n      jump\t// in\n    tag_34:\n      mload(0x40)\n      tag_38\n      swap2\n      swap1\n      tag_39\n      jump\t// in\n    tag_38:\n      mload(0x40)\n      dup1\n      swap2\n      sub\n      swap1\n      return\n        /* \"wwcc-contracts/contracts/wwccPool.sol\":2543:3881  function Picking(address joiner,uint256 weight,bytes32 poolKey,uint256 homeScore,uint256 visitScore,uint256 kind) external onlyManager returns(bool){... */\n    tag_6:\n      callvalue\n      dup1\n      iszero\n      tag_40\n      jumpi\n      0x00\n      dup1\n      revert\n    tag_40:\n      pop\n      tag_41\n      0x04\n      dup1\n      calldatasize\n      sub\n      dup2\n      add\n      swap1\n      tag_42\n      swap2\n      swap1\n      tag_43\n      jump\t// in\n    tag_42:\n      tag_44\n      jump\t// in\n    tag_41:\n      mload(0x40)\n      tag_45\n      swap2\n      swap1\n      tag_25\n      jump\t// in\n    tag_45:\n      mload(0x40)\n      dup1\n      swap2\n      sub\n      swap1\n      return\n        /* \"wwcc-contracts/contracts/wwccPool.sol\":3886:4228  function Set_Basal(bytes32 poolKey) external onlyManager  returns (bool){... */\n    tag_7:\n      callvalue\n      dup1\n      iszero\n      tag_46\n      jumpi\n      0x00\n      dup1\n      revert\n    tag_46:\n      pop\n      tag_47\n      0x04\n      dup1\n      calldatasize\n      sub\n      dup2\n      add\n      swap1\n      tag_48\n      swap2\n      swap1\n      tag_36\n      jump\t// in\n    tag_48:\n      tag_49\n      jump\t// in\n    tag_47:\n      mload(0x40)\n      tag_50\n      swap2\n      swap1\n      tag_25\n      jump\t// in\n    tag_50:\n      mload(0x40)\n      dup1\n      swap2\n      sub\n      swap1\n      return\n        /* \"wwcc-contracts/contracts/wwccPool.sol\":5617:8969  function Award(bytes32 poolKey,uint256 homeScore,uint256 visitScore,uint256 result)  external onlyManager  payable returns(bool){... */\n    tag_8:\n      tag_51\n      0x04\n      dup1\n      calldatasize\n      sub\n      dup2\n      add\n      swap1\n      tag_52\n      swap2\n      swap1\n      tag_53\n      jump\t// in\n    tag_52:\n      tag_54\n      jump\t// in\n    tag_51:\n      mload(0x40)\n      tag_55\n      swap2\n      swap1\n      tag_25\n      jump\t// in\n    tag_55:\n      mload(0x40)\n      dup1\n      swap2\n      sub\n      swap1\n      return\n        /* \"wwcc-contracts/contracts/wwccPool.sol\":4889:5258  function voteWithdrawal(address joiner,uint256 amount) external onlyManager payable returns (bool){... */\n    tag_9:\n      tag_56\n      0x04\n      dup1\n      calldatasize\n      sub\n      dup2\n      add\n      swap1\n      tag_57\n      swap2\n      swap1\n      tag_58\n      jump\t// in\n    tag_57:\n      tag_59\n      jump\t// in\n    tag_56:\n      mload(0x40)\n      tag_60\n      swap2\n      swap1\n      tag_25\n      jump\t// in\n    tag_60:\n      mload(0x40)\n      dup1\n      swap2\n      sub\n      swap1\n      return\n        /* \"wwcc-contracts/contracts/wwccPool.sol\":8974:9507  function getPair(bytes32 poolKey) external view returns (string memory home,string memory visit,string memory rounds,uint256 wPool,uint256 dPool,uint256 lPool,uint256 sPool){... */\n    tag_10:\n      callvalue\n      dup1\n      iszero\n      tag_61\n      jumpi\n      0x00\n      dup1\n      revert\n    tag_61:\n      pop\n      tag_62\n      0x04\n      dup1\n      calldatasize\n      sub\n      dup2\n      add\n      swap1\n      tag_63\n      swap2\n      swap1\n      tag_36\n      jump\t// in\n    tag_63:\n      tag_64\n      jump\t// in\n    tag_62:\n      mload(0x40)\n      tag_65\n      swap8\n      swap7\n      swap6\n      swap5\n      swap4\n      swap3\n      swap2\n      swap1\n      tag_66\n      jump\t// in\n    tag_65:\n      mload(0x40)\n      dup1\n      swap2\n      sub\n      swap1\n      return\n        /* \"wwcc-contracts/contracts/wwccPool.sol\":4233:4884  function Withdrawal(address toAddress,bytes32 poolKey) external onlyManager payable returns (bool){... */\n    tag_23:\n        /* \"wwcc-contracts/contracts/wwccPool.sol\":4326:4330  bool */\n      0x00\n        /* \"wwcc-contracts/contracts/wwccPool.sol\":11391:11396  owner */\n      dup1\n      0x00\n      swap1\n      sload\n      swap1\n      0x0100\n      exp\n      swap1\n      div\n      0xffffffffffffffffffffffffffffffffffffffff\n      and\n        /* \"wwcc-contracts/contracts/wwccPool.sol\":11377:11396  msg.sender == owner */\n      0xffffffffffffffffffffffffffffffffffffffff\n      and\n        /* \"wwcc-contracts/contracts/wwccPool.sol\":11377:11387  msg.sender */\n      caller\n        /* \"wwcc-contracts/contracts/wwccPool.sol\":11377:11396  msg.sender == owner */\n      0xffffffffffffffffffffffffffffffffffffffff\n      and\n      eq\n        /* \"wwcc-contracts/contracts/wwccPool.sol\":11356:11447  require(... */\n      tag_68\n      jumpi\n      mload(0x40)\n      0x08c379a000000000000000000000000000000000000000000000000000000000\n      dup2\n      mstore\n      0x04\n      add\n      tag_69\n      swap1\n      tag_70\n      jump\t// in\n    tag_69:\n      mload(0x40)\n      dup1\n      swap2\n      sub\n      swap1\n      revert\n    tag_68:\n        /* \"wwcc-contracts/contracts/wwccPool.sol\":4348:4365  contains(poolKey) */\n      tag_72\n        /* \"wwcc-contracts/contracts/wwccPool.sol\":4357:4364  poolKey */\n      dup3\n        /* \"wwcc-contracts/contracts/wwccPool.sol\":4348:4356  contains */\n      tag_73\n        /* \"wwcc-contracts/contracts/wwccPool.sol\":4348:4365  contains(poolKey) */\n      jump\t// in\n    tag_72:\n        /* \"wwcc-contracts/contracts/wwccPool.sol\":4344:4878  if(!contains(poolKey)) { ... */\n      tag_74\n      jumpi\n        /* \"wwcc-contracts/contracts/wwccPool.sol\":4386:4410  revert(\"pool not exist\") */\n      mload(0x40)\n      0x08c379a000000000000000000000000000000000000000000000000000000000\n      dup2\n      mstore\n      0x04\n      add\n      tag_75\n      swap1\n      tag_76\n      jump\t// in\n    tag_75:\n      mload(0x40)\n      dup1\n      swap2\n      sub\n      swap1\n      revert\n        /* \"wwcc-contracts/contracts/wwccPool.sol\":4344:4878  if(!contains(poolKey)) { ... */\n    tag_74:\n        /* \"wwcc-contracts/contracts/wwccPool.sol\":4446:4464  WcPool memory pool */\n      0x00\n        /* \"wwcc-contracts/contracts/wwccPool.sol\":4467:4474  WcPools */\n      0x06\n        /* \"wwcc-contracts/contracts/wwccPool.sol\":4467:4483  WcPools[poolKey] */\n      0x00\n        /* \"wwcc-contracts/contracts/wwccPool.sol\":4475:4482  poolKey */\n      dup5\n        /* \"wwcc-contracts/contracts/wwccPool.sol\":4467:4483  WcPools[poolKey] */\n      dup2\n      mstore\n      0x20\n      add\n      swap1\n      dup2\n      mstore\n      0x20\n      add\n      0x00\n      keccak256\n        /* \"wwcc-contracts/contracts/wwccPool.sol\":4446:4483  WcPool memory pool = WcPools[poolKey] */\n      mload(0x40)\n      dup1\n      0x0140\n      add\n      0x40\n      mstore\n      swap1\n      dup2\n      0x00\n      dup3\n      add\n      dup1\n      sload\n      tag_78\n      swap1\n      tag_79\n      jump\t// in\n    tag_78:\n      dup1\n      0x1f\n      add\n      0x20\n      dup1\n      swap2\n      div\n      mul\n      0x20\n      add\n      mload(0x40)\n      swap1\n      dup2\n      add\n      0x40\n      mstore\n      dup1\n      swap3\n      swap2\n      swap1\n      dup2\n      dup2\n      mstore\n      0x20\n      add\n      dup3\n      dup1\n      sload\n      tag_80\n      swap1\n      tag_79\n      jump\t// in\n    tag_80:\n      dup1\n      iszero\n      tag_81\n      jumpi\n      dup1\n      0x1f\n      lt\n      tag_82\n      jumpi\n      0x0100\n      dup1\n      dup4\n      sload\n      div\n      mul\n      dup4\n      mstore\n      swap2\n      0x20\n      add\n      swap2\n      jump(tag_81)\n    tag_82:\n      dup3\n      add\n      swap2\n      swap1\n      0x00\n      mstore\n      keccak256(0x00, 0x20)\n      swap1\n    tag_83:\n      dup2\n      sload\n      dup2\n      mstore\n      swap1\n      0x01\n      add\n      swap1\n      0x20\n      add\n      dup1\n      dup4\n      gt\n      tag_83\n      jumpi\n      dup3\n      swap1\n      sub\n      0x1f\n      and\n      dup3\n      add\n      swap2\n    tag_81:\n      pop\n      pop\n      pop\n      pop\n      pop\n      dup2\n      mstore\n      0x20\n      add\n      0x01\n      dup3\n      add\n      dup1\n      sload\n      tag_84\n      swap1\n      tag_79\n      jump\t// in\n    tag_84:\n      dup1\n      0x1f\n      add\n      0x20\n      dup1\n      swap2\n      div\n      mul\n      0x20\n      add\n      mload(0x40)\n      swap1\n      dup2\n      add\n      0x40\n      mstore\n      dup1\n      swap3\n      swap2\n      swap1\n      dup2\n      dup2\n      mstore\n      0x20\n      add\n      dup3\n      dup1\n      sload\n      tag_85\n      swap1\n      tag_79\n      jump\t// in\n    tag_85:\n      dup1\n      iszero\n      tag_86\n      jumpi\n      dup1\n      0x1f\n      lt\n      tag_87\n      jumpi\n      0x0100\n      dup1\n      dup4\n      sload\n      div\n      mul\n      dup4\n      mstore\n      swap2\n      0x20\n      add\n      swap2\n      jump(tag_86)\n    tag_87:\n      dup3\n      add\n      swap2\n      swap1\n      0x00\n      mstore\n      keccak256(0x00, 0x20)\n      swap1\n    tag_88:\n      dup2\n      sload\n      dup2\n      mstore\n      swap1\n      0x01\n      add\n      swap1\n      0x20\n      add\n      dup1\n      dup4\n      gt\n      tag_88\n      jumpi\n      dup3\n      swap1\n      sub\n      0x1f\n      and\n      dup3\n      add\n      swap2\n    tag_86:\n      pop\n      pop\n      pop\n      pop\n      pop\n      dup2\n      mstore\n      0x20\n      add\n      0x02\n      dup3\n      add\n      dup1\n      sload\n      tag_89\n      swap1\n      tag_79\n      jump\t// in\n    tag_89:\n      dup1\n      0x1f\n      add\n      0x20\n      dup1\n      swap2\n      div\n      mul\n      0x20\n      add\n      mload(0x40)\n      swap1\n      dup2\n      add\n      0x40\n      mstore\n      dup1\n      swap3\n      swap2\n      swap1\n      dup2\n      dup2\n      mstore\n      0x20\n      add\n      dup3\n      dup1\n      sload\n      tag_90\n      swap1\n      tag_79\n      jump\t// in\n    tag_90:\n      dup1\n      iszero\n      tag_91\n      jumpi\n      dup1\n      0x1f\n      lt\n      tag_92\n      jumpi\n      0x0100\n      dup1\n      dup4\n      sload\n      div\n      mul\n      dup4\n      mstore\n      swap2\n      0x20\n      add\n      swap2\n      jump(tag_91)\n    tag_92:\n      dup3\n      add\n      swap2\n      swap1\n      0x00\n      mstore\n      keccak256(0x00, 0x20)\n      swap1\n    tag_93:\n      dup2\n      sload\n      dup2\n      mstore\n      swap1\n      0x01\n      add\n      swap1\n      0x20\n      add\n      dup1\n      dup4\n      gt\n      tag_93\n      jumpi\n      dup3\n      swap1\n      sub\n      0x1f\n      and\n      dup3\n      add\n      swap2\n    tag_91:\n      pop\n      pop\n      pop\n      pop\n      pop\n      dup2\n      mstore\n      0x20\n      add\n      0x03\n      dup3\n      add\n      sload\n      dup2\n      mstore\n      0x20\n      add\n      0x04\n      dup3\n      add\n      sload\n      dup2\n      mstore\n      0x20\n      add\n      0x05\n      dup3\n      add\n      sload\n      dup2\n      mstore\n      0x20\n      add\n      0x06\n      dup3\n      add\n      sload\n      dup2\n      mstore\n      0x20\n      add\n      0x07\n      dup3\n      add\n      0x00\n      swap1\n      sload\n      swap1\n      0x0100\n      exp\n      swap1\n      div\n      0xff\n      and\n      iszero\n      iszero\n      iszero\n      iszero\n      dup2\n      mstore\n      0x20\n      add\n      0x07\n      dup3\n      add\n      0x01\n      swap1\n      sload\n      swap1\n      0x0100\n      exp\n      swap1\n      div\n      0xff\n      and\n      iszero\n      iszero\n      iszero\n      iszero\n      dup2\n      mstore\n      0x20\n      add\n      0x07\n      dup3\n      add\n      0x02\n      swap1\n      sload\n      swap1\n      0x0100\n      exp\n      swap1\n      div\n      0xff\n      and\n      iszero\n      iszero\n      iszero\n      iszero\n      dup2\n      mstore\n      pop\n      pop\n      swap1\n      pop\n        /* \"wwcc-contracts/contracts/wwccPool.sol\":4501:4515  uint256 expect */\n      0x00\n        /* \"wwcc-contracts/contracts/wwccPool.sol\":4518:4580  (pool.wPool+pool.lPool+pool.dPool+pool.sPool).mul(10).div(100) */\n      tag_94\n        /* \"wwcc-contracts/contracts/wwccPool.sol\":4576:4579  100 */\n      0x64\n        /* \"wwcc-contracts/contracts/wwccPool.sol\":4518:4571  (pool.wPool+pool.lPool+pool.dPool+pool.sPool).mul(10) */\n      tag_95\n        /* \"wwcc-contracts/contracts/wwccPool.sol\":4568:4570  10 */\n      0x0a\n        /* \"wwcc-contracts/contracts/wwccPool.sol\":4552:4556  pool */\n      dup6\n        /* \"wwcc-contracts/contracts/wwccPool.sol\":4552:4562  pool.sPool */\n      0xc0\n      add\n      mload\n        /* \"wwcc-contracts/contracts/wwccPool.sol\":4541:4545  pool */\n      dup7\n        /* \"wwcc-contracts/contracts/wwccPool.sol\":4541:4551  pool.dPool */\n      0x80\n      add\n      mload\n        /* \"wwcc-contracts/contracts/wwccPool.sol\":4530:4534  pool */\n      dup8\n        /* \"wwcc-contracts/contracts/wwccPool.sol\":4530:4540  pool.lPool */\n      0xa0\n      add\n      mload\n        /* \"wwcc-contracts/contracts/wwccPool.sol\":4519:4523  pool */\n      dup9\n        /* \"wwcc-contracts/contracts/wwccPool.sol\":4519:4529  pool.wPool */\n      0x60\n      add\n      mload\n        /* \"wwcc-contracts/contracts/wwccPool.sol\":4519:4540  pool.wPool+pool.lPool */\n      tag_96\n      swap2\n      swap1\n      tag_16\n      jump\t// in\n    tag_96:\n        /* \"wwcc-contracts/contracts/wwccPool.sol\":4519:4551  pool.wPool+pool.lPool+pool.dPool */\n      tag_97\n      swap2\n      swap1\n      tag_16\n      jump\t// in\n    tag_97:\n        /* \"wwcc-contracts/contracts/wwccPool.sol\":4519:4562  pool.wPool+pool.lPool+pool.dPool+pool.sPool */\n      tag_98\n      swap2\n      swap1\n      tag_16\n      jump\t// in\n    tag_98:\n        /* \"wwcc-contracts/contracts/wwccPool.sol\":4518:4567  (pool.wPool+pool.lPool+pool.dPool+pool.sPool).mul */\n      tag_99\n      swap1\n        /* \"wwcc-contracts/contracts/wwccPool.sol\":4518:4571  (pool.wPool+pool.lPool+pool.dPool+pool.sPool).mul(10) */\n      swap2\n      swap1\n      0xffffffff\n      and\n      jump\t// in\n    tag_95:\n        /* \"wwcc-contracts/contracts/wwccPool.sol\":4518:4575  (pool.wPool+pool.lPool+pool.dPool+pool.sPool).mul(10).div */\n      tag_100\n      swap1\n        /* \"wwcc-contracts/contracts/wwccPool.sol\":4518:4580  (pool.wPool+pool.lPool+pool.dPool+pool.sPool).mul(10).div(100) */\n      swap2\n      swap1\n      0xffffffff\n      and\n      jump\t// in\n    tag_94:\n        /* \"wwcc-contracts/contracts/wwccPool.sol\":4501:4580  uint256 expect = (pool.wPool+pool.lPool+pool.dPool+pool.sPool).mul(10).div(100) */\n      swap1\n      pop\n        /* \"wwcc-contracts/contracts/wwccPool.sol\":4618:4622  true */\n      0x01\n        /* \"wwcc-contracts/contracts/wwccPool.sol\":4602:4606  pool */\n      dup3\n        /* \"wwcc-contracts/contracts/wwccPool.sol\":4602:4615  pool.finished */\n      0x0120\n      add\n        /* \"wwcc-contracts/contracts/wwccPool.sol\":4602:4622  pool.finished = true */\n      swap1\n      iszero\n      iszero\n      swap1\n      dup2\n      iszero\n      iszero\n      dup2\n      mstore\n      pop\n        /* \"wwcc-contracts/contracts/wwccPool.sol\":4598:4850  if (pool.finished = true){... */\n      iszero\n      tag_101\n      jumpi\n        /* \"wwcc-contracts/contracts/wwccPool.sol\":4645:4678  address payable toAddress_address */\n      0x00\n        /* \"wwcc-contracts/contracts/wwccPool.sol\":4689:4698  toAddress */\n      dup6\n        /* \"wwcc-contracts/contracts/wwccPool.sol\":4645:4699  address payable toAddress_address = payable(toAddress) */\n      swap1\n      pop\n        /* \"wwcc-contracts/contracts/wwccPool.sol\":4721:4738  toAddress_address */\n      dup1\n        /* \"wwcc-contracts/contracts/wwccPool.sol\":4721:4747  toAddress_address.transfer */\n      0xffffffffffffffffffffffffffffffffffffffff\n      and\n        /* \"wwcc-contracts/contracts/wwccPool.sol\":4721:4755  toAddress_address.transfer(expect) */\n      0x08fc\n        /* \"wwcc-contracts/contracts/wwccPool.sol\":4748:4754  expect */\n      dup4\n        /* \"wwcc-contracts/contracts/wwccPool.sol\":4721:4755  toAddress_address.transfer(expect) */\n      swap1\n      dup2\n      iszero\n      mul\n      swap1\n      mload(0x40)\n      0x00\n      mload(0x40)\n      dup1\n      dup4\n      sub\n      dup2\n      dup6\n      dup9\n      dup9\n      call\n      swap4\n      pop\n      pop\n      pop\n      pop\n      iszero\n      dup1\n      iszero\n      tag_103\n      jumpi\n      returndatasize\n      0x00\n      dup1\n      returndatacopy\n      revert(0x00, returndatasize)\n    tag_103:\n      pop\n        /* \"wwcc-contracts/contracts/wwccPool.sol\":4623:4774  {... */\n      pop\n        /* \"wwcc-contracts/contracts/wwccPool.sol\":4598:4850  if (pool.finished = true){... */\n      jump(tag_104)\n    tag_101:\n        /* \"wwcc-contracts/contracts/wwccPool.sol\":4800:4831  revert(\"pool has not finished\") */\n      mload(0x40)\n      0x08c379a000000000000000000000000000000000000000000000000000000000\n      dup2\n      mstore\n      0x04\n      add\n      tag_105\n      swap1\n      tag_106\n      jump\t// in\n    tag_105:\n      mload(0x40)\n      dup1\n      swap2\n      sub\n      swap1\n      revert\n        /* \"wwcc-contracts/contracts/wwccPool.sol\":4598:4850  if (pool.finished = true){... */\n    tag_104:\n        /* \"wwcc-contracts/contracts/wwccPool.sol\":4428:4878  {... */\n      pop\n      pop\n        /* \"wwcc-contracts/contracts/wwccPool.sol\":4233:4884  function Withdrawal(address toAddress,bytes32 poolKey) external onlyManager payable returns (bool){... */\n      swap3\n      swap2\n      pop\n      pop\n      jump\t// out\n        /* \"wwcc-contracts/contracts/wwccPool.sol\":1688:2538  function Set_Pool(... */\n    tag_30:\n        /* \"wwcc-contracts/contracts/wwccPool.sol\":1835:1842  bytes32 */\n      0x00\n        /* \"wwcc-contracts/contracts/wwccPool.sol\":11391:11396  owner */\n      dup1\n      0x00\n      swap1\n      sload\n      swap1\n      0x0100\n      exp\n      swap1\n      div\n      0xffffffffffffffffffffffffffffffffffffffff\n      and\n        /* \"wwcc-contracts/contracts/wwccPool.sol\":11377:11396  msg.sender == owner */\n      0xffffffffffffffffffffffffffffffffffffffff\n      and\n        /* \"wwcc-contracts/contracts/wwccPool.sol\":11377:11387  msg.sender */\n      caller\n        /* \"wwcc-contracts/contracts/wwccPool.sol\":11377:11396  msg.sender == owner */\n      0xffffffffffffffffffffffffffffffffffffffff\n      and\n      eq\n        /* \"wwcc-contracts/contracts/wwccPool.sol\":11356:11447  require(... */\n      tag_108\n      jumpi\n      mload(0x40)\n      0x08c379a000000000000000000000000000000000000000000000000000000000\n      dup2\n      mstore\n      0x04\n      add\n      tag_109\n      swap1\n      tag_70\n      jump\t// in\n    tag_109:\n      mload(0x40)\n      dup1\n      swap2\n      sub\n      swap1\n      revert\n    tag_108:\n        /* \"wwcc-contracts/contracts/wwccPool.sol\":1853:1869  string memory s1 */\n      0x00\n        /* \"wwcc-contracts/contracts/wwccPool.sol\":1872:1893  strConcat(home,visit) */\n      tag_111\n        /* \"wwcc-contracts/contracts/wwccPool.sol\":1882:1886  home */\n      dup7\n        /* \"wwcc-contracts/contracts/wwccPool.sol\":1887:1892  visit */\n      dup7\n        /* \"wwcc-contracts/contracts/wwccPool.sol\":1872:1881  strConcat */\n      tag_112\n        /* \"wwcc-contracts/contracts/wwccPool.sol\":1872:1893  strConcat(home,visit) */\n      jump\t// in\n    tag_111:\n        /* \"wwcc-contracts/contracts/wwccPool.sol\":1853:1893  string memory s1 = strConcat(home,visit) */\n      swap1\n      pop\n        /* \"wwcc-contracts/contracts/wwccPool.sol\":1902:1918  string memory s2 */\n      0x00\n        /* \"wwcc-contracts/contracts/wwccPool.sol\":1921:1941  strConcat(s1,rounds) */\n      tag_113\n        /* \"wwcc-contracts/contracts/wwccPool.sol\":1931:1933  s1 */\n      dup3\n        /* \"wwcc-contracts/contracts/wwccPool.sol\":1934:1940  rounds */\n      dup7\n        /* \"wwcc-contracts/contracts/wwccPool.sol\":1921:1930  strConcat */\n      tag_112\n        /* \"wwcc-contracts/contracts/wwccPool.sol\":1921:1941  strConcat(s1,rounds) */\n      jump\t// in\n    tag_113:\n        /* \"wwcc-contracts/contracts/wwccPool.sol\":1902:1941  string memory s2 = strConcat(s1,rounds) */\n      swap1\n      pop\n        /* \"wwcc-contracts/contracts/wwccPool.sol\":1950:1965  bytes32 poolKey */\n      0x00\n        /* \"wwcc-contracts/contracts/wwccPool.sol\":1995:1997  s2 */\n      dup2\n        /* \"wwcc-contracts/contracts/wwccPool.sol\":1978:1998  abi.encodePacked(s2) */\n      add(0x20, mload(0x40))\n      tag_114\n      swap2\n      swap1\n      tag_115\n      jump\t// in\n    tag_114:\n      mload(0x40)\n      0x20\n      dup2\n      dup4\n      sub\n      sub\n      dup2\n      mstore\n      swap1\n      0x40\n      mstore\n        /* \"wwcc-contracts/contracts/wwccPool.sol\":1968:1999  keccak256(abi.encodePacked(s2)) */\n      dup1\n      mload\n      swap1\n      0x20\n      add\n      keccak256\n        /* \"wwcc-contracts/contracts/wwccPool.sol\":1950:1999  bytes32 poolKey = keccak256(abi.encodePacked(s2)) */\n      swap1\n      pop\n        /* \"wwcc-contracts/contracts/wwccPool.sol\":2011:2028  contains(poolKey) */\n      tag_116\n        /* \"wwcc-contracts/contracts/wwccPool.sol\":2020:2027  poolKey */\n      dup2\n        /* \"wwcc-contracts/contracts/wwccPool.sol\":2011:2019  contains */\n      tag_73\n        /* \"wwcc-contracts/contracts/wwccPool.sol\":2011:2028  contains(poolKey) */\n      jump\t// in\n    tag_116:\n        /* \"wwcc-contracts/contracts/wwccPool.sol\":2008:2509  if(contains(poolKey)) { ... */\n      iszero\n      tag_117\n      jumpi\n        /* \"wwcc-contracts/contracts/wwccPool.sol\":2045:2065  revert(\"pair exist\") */\n      mload(0x40)\n      0x08c379a000000000000000000000000000000000000000000000000000000000\n      dup2\n      mstore\n      0x04\n      add\n      tag_118\n      swap1\n      tag_119\n      jump\t// in\n    tag_118:\n      mload(0x40)\n      dup1\n      swap2\n      sub\n      swap1\n      revert\n        /* \"wwcc-contracts/contracts/wwccPool.sol\":2008:2509  if(contains(poolKey)) { ... */\n    tag_117:\n        /* \"wwcc-contracts/contracts/wwccPool.sol\":2116:2120  true */\n      0x01\n        /* \"wwcc-contracts/contracts/wwccPool.sol\":2092:2099  WcPools */\n      0x06\n        /* \"wwcc-contracts/contracts/wwccPool.sol\":2092:2108  WcPools[poolKey] */\n      0x00\n        /* \"wwcc-contracts/contracts/wwccPool.sol\":2100:2107  poolKey */\n      dup4\n        /* \"wwcc-contracts/contracts/wwccPool.sol\":2092:2108  WcPools[poolKey] */\n      dup2\n      mstore\n      0x20\n      add\n      swap1\n      dup2\n      mstore\n      0x20\n      add\n      0x00\n      keccak256\n        /* \"wwcc-contracts/contracts/wwccPool.sol\":2092:2113  WcPools[poolKey].used */\n      0x07\n      add\n      0x01\n        /* \"wwcc-contracts/contracts/wwccPool.sol\":2092:2120  WcPools[poolKey].used = true */\n      0x0100\n      exp\n      dup2\n      sload\n      dup2\n      0xff\n      mul\n      not\n      and\n      swap1\n      dup4\n      iszero\n      iszero\n      mul\n      or\n      swap1\n      sstore\n      pop\n        /* \"wwcc-contracts/contracts/wwccPool.sol\":2157:2161  home */\n      dup8\n        /* \"wwcc-contracts/contracts/wwccPool.sol\":2133:2140  WcPools */\n      0x06\n        /* \"wwcc-contracts/contracts/wwccPool.sol\":2133:2149  WcPools[poolKey] */\n      0x00\n        /* \"wwcc-contracts/contracts/wwccPool.sol\":2141:2148  poolKey */\n      dup4\n        /* \"wwcc-contracts/contracts/wwccPool.sol\":2133:2149  WcPools[poolKey] */\n      dup2\n      mstore\n      0x20\n      add\n      swap1\n      dup2\n      mstore\n      0x20\n      add\n      0x00\n      keccak256\n        /* \"wwcc-contracts/contracts/wwccPool.sol\":2133:2154  WcPools[poolKey].home */\n      0x00\n      add\n        /* \"wwcc-contracts/contracts/wwccPool.sol\":2133:2161  WcPools[poolKey].home = home */\n      swap1\n      dup1\n      mload\n      swap1\n      0x20\n      add\n      swap1\n      tag_121\n      swap3\n      swap2\n      swap1\n      tag_122\n      jump\t// in\n    tag_121:\n      pop\n        /* \"wwcc-contracts/contracts/wwccPool.sol\":2199:2204  visit */\n      dup7\n        /* \"wwcc-contracts/contracts/wwccPool.sol\":2174:2181  WcPools */\n      0x06\n        /* \"wwcc-contracts/contracts/wwccPool.sol\":2174:2190  WcPools[poolKey] */\n      0x00\n        /* \"wwcc-contracts/contracts/wwccPool.sol\":2182:2189  poolKey */\n      dup4\n        /* \"wwcc-contracts/contracts/wwccPool.sol\":2174:2190  WcPools[poolKey] */\n      dup2\n      mstore\n      0x20\n      add\n      swap1\n      dup2\n      mstore\n      0x20\n      add\n      0x00\n      keccak256\n        /* \"wwcc-contracts/contracts/wwccPool.sol\":2174:2196  WcPools[poolKey].visit */\n      0x01\n      add\n        /* \"wwcc-contracts/contracts/wwccPool.sol\":2174:2204  WcPools[poolKey].visit = visit */\n      swap1\n      dup1\n      mload\n      swap1\n      0x20\n      add\n      swap1\n      tag_123\n      swap3\n      swap2\n      swap1\n      tag_122\n      jump\t// in\n    tag_123:\n      pop\n        /* \"wwcc-contracts/contracts/wwccPool.sol\":2243:2249  rounds */\n      dup6\n        /* \"wwcc-contracts/contracts/wwccPool.sol\":2217:2224  WcPools */\n      0x06\n        /* \"wwcc-contracts/contracts/wwccPool.sol\":2217:2233  WcPools[poolKey] */\n      0x00\n        /* \"wwcc-contracts/contracts/wwccPool.sol\":2225:2232  poolKey */\n      dup4\n        /* \"wwcc-contracts/contracts/wwccPool.sol\":2217:2233  WcPools[poolKey] */\n      dup2\n      mstore\n      0x20\n      add\n      swap1\n      dup2\n      mstore\n      0x20\n      add\n      0x00\n      keccak256\n        /* \"wwcc-contracts/contracts/wwccPool.sol\":2217:2240  WcPools[poolKey].rounds */\n      0x02\n      add\n        /* \"wwcc-contracts/contracts/wwccPool.sol\":2217:2249  WcPools[poolKey].rounds = rounds */\n      swap1\n      dup1\n      mload\n      swap1\n      0x20\n      add\n      swap1\n      tag_124\n      swap3\n      swap2\n      swap1\n      tag_122\n      jump\t// in\n    tag_124:\n      pop\n        /* \"wwcc-contracts/contracts/wwccPool.sol\":2287:2288  0 */\n      0x00\n        /* \"wwcc-contracts/contracts/wwccPool.sol\":2262:2269  WcPools */\n      0x06\n        /* \"wwcc-contracts/contracts/wwccPool.sol\":2262:2278  WcPools[poolKey] */\n      0x00\n        /* \"wwcc-contracts/contracts/wwccPool.sol\":2270:2277  poolKey */\n      dup4\n        /* \"wwcc-contracts/contracts/wwccPool.sol\":2262:2278  WcPools[poolKey] */\n      dup2\n      mstore\n      0x20\n      add\n      swap1\n      dup2\n      mstore\n      0x20\n      add\n      0x00\n      keccak256\n        /* \"wwcc-contracts/contracts/wwccPool.sol\":2262:2284  WcPools[poolKey].wPool */\n      0x03\n      add\n        /* \"wwcc-contracts/contracts/wwccPool.sol\":2262:2288  WcPools[poolKey].wPool = 0 */\n      dup2\n      swap1\n      sstore\n      pop\n        /* \"wwcc-contracts/contracts/wwccPool.sol\":2326:2327  0 */\n      0x00\n        /* \"wwcc-contracts/contracts/wwccPool.sol\":2301:2308  WcPools */\n      0x06\n        /* \"wwcc-contracts/contracts/wwccPool.sol\":2301:2317  WcPools[poolKey] */\n      0x00\n        /* \"wwcc-contracts/contracts/wwccPool.sol\":2309:2316  poolKey */\n      dup4\n        /* \"wwcc-contracts/contracts/wwccPool.sol\":2301:2317  WcPools[poolKey] */\n      dup2\n      mstore\n      0x20\n      add\n      swap1\n      dup2\n      mstore\n      0x20\n      add\n      0x00\n      keccak256\n        /* \"wwcc-contracts/contracts/wwccPool.sol\":2301:2323  WcPools[poolKey].dPool */\n      0x04\n      add\n        /* \"wwcc-contracts/contracts/wwccPool.sol\":2301:2327  WcPools[poolKey].dPool = 0 */\n      dup2\n      swap1\n      sstore\n      pop\n        /* \"wwcc-contracts/contracts/wwccPool.sol\":2365:2366  0 */\n      0x00\n        /* \"wwcc-contracts/contracts/wwccPool.sol\":2340:2347  WcPools */\n      0x06\n        /* \"wwcc-contracts/contracts/wwccPool.sol\":2340:2356  WcPools[poolKey] */\n      0x00\n        /* \"wwcc-contracts/contracts/wwccPool.sol\":2348:2355  poolKey */\n      dup4\n        /* \"wwcc-contracts/contracts/wwccPool.sol\":2340:2356  WcPools[poolKey] */\n      dup2\n      mstore\n      0x20\n      add\n      swap1\n      dup2\n      mstore\n      0x20\n      add\n      0x00\n      keccak256\n        /* \"wwcc-contracts/contracts/wwccPool.sol\":2340:2362  WcPools[poolKey].lPool */\n      0x05\n      add\n        /* \"wwcc-contracts/contracts/wwccPool.sol\":2340:2366  WcPools[poolKey].lPool = 0 */\n      dup2\n      swap1\n      sstore\n      pop\n        /* \"wwcc-contracts/contracts/wwccPool.sol\":2404:2405  0 */\n      0x00\n        /* \"wwcc-contracts/contracts/wwccPool.sol\":2379:2386  WcPools */\n      0x06\n        /* \"wwcc-contracts/contracts/wwccPool.sol\":2379:2395  WcPools[poolKey] */\n      0x00\n        /* \"wwcc-contracts/contracts/wwccPool.sol\":2387:2394  poolKey */\n      dup4\n        /* \"wwcc-contracts/contracts/wwccPool.sol\":2379:2395  WcPools[poolKey] */\n      dup2\n      mstore\n      0x20\n      add\n      swap1\n      dup2\n      mstore\n      0x20\n      add\n      0x00\n      keccak256\n        /* \"wwcc-contracts/contracts/wwccPool.sol\":2379:2401  WcPools[poolKey].sPool */\n      0x06\n      add\n        /* \"wwcc-contracts/contracts/wwccPool.sol\":2379:2405  WcPools[poolKey].sPool = 0 */\n      dup2\n      swap1\n      sstore\n      pop\n        /* \"wwcc-contracts/contracts/wwccPool.sol\":2445:2452  decided */\n      dup5\n        /* \"wwcc-contracts/contracts/wwccPool.sol\":2418:2425  WcPools */\n      0x06\n        /* \"wwcc-contracts/contracts/wwccPool.sol\":2418:2434  WcPools[poolKey] */\n      0x00\n        /* \"wwcc-contracts/contracts/wwccPool.sol\":2426:2433  poolKey */\n      dup4\n        /* \"wwcc-contracts/contracts/wwccPool.sol\":2418:2434  WcPools[poolKey] */\n      dup2\n      mstore\n      0x20\n      add\n      swap1\n      dup2\n      mstore\n      0x20\n      add\n      0x00\n      keccak256\n        /* \"wwcc-contracts/contracts/wwccPool.sol\":2418:2442  WcPools[poolKey].decided */\n      0x07\n      add\n      0x00\n        /* \"wwcc-contracts/contracts/wwccPool.sol\":2418:2452  WcPools[poolKey].decided = decided */\n      0x0100\n      exp\n      dup2\n      sload\n      dup2\n      0xff\n      mul\n      not\n      and\n      swap1\n      dup4\n      iszero\n      iszero\n      mul\n      or\n      swap1\n      sstore\n      pop\n        /* \"wwcc-contracts/contracts/wwccPool.sol\":2493:2498  false */\n      0x00\n        /* \"wwcc-contracts/contracts/wwccPool.sol\":2465:2472  WcPools */\n      0x06\n        /* \"wwcc-contracts/contracts/wwccPool.sol\":2465:2481  WcPools[poolKey] */\n      0x00\n        /* \"wwcc-contracts/contracts/wwccPool.sol\":2473:2480  poolKey */\n      dup4\n        /* \"wwcc-contracts/contracts/wwccPool.sol\":2465:2481  WcPools[poolKey] */\n      dup2\n      mstore\n      0x20\n      add\n      swap1\n      dup2\n      mstore\n      0x20\n      add\n      0x00\n      keccak256\n        /* \"wwcc-contracts/contracts/wwccPool.sol\":2465:2490  WcPools[poolKey].finished */\n      0x07\n      add\n      0x02\n        /* \"wwcc-contracts/contracts/wwccPool.sol\":2465:2498  WcPools[poolKey].finished = false */\n      0x0100\n      exp\n      dup2\n      sload\n      dup2\n      0xff\n      mul\n      not\n      and\n      swap1\n      dup4\n      iszero\n      iszero\n      mul\n      or\n      swap1\n      sstore\n      pop\n        /* \"wwcc-contracts/contracts/wwccPool.sol\":2524:2531  poolKey */\n      dup1\n        /* \"wwcc-contracts/contracts/wwccPool.sol\":2517:2531  return poolKey */\n      swap4\n      pop\n      pop\n      pop\n      pop\n        /* \"wwcc-contracts/contracts/wwccPool.sol\":1688:2538  function Set_Pool(... */\n      swap5\n      swap4\n      pop\n      pop\n      pop\n      pop\n      jump\t// out\n        /* \"wwcc-contracts/contracts/wwccPool.sol\":5263:5612  function CheckExpect(bytes32 poolKey) external onlyManager  returns (uint256){... */\n    tag_37:\n        /* \"wwcc-contracts/contracts/wwccPool.sol\":5332:5339  uint256 */\n      0x00\n        /* \"wwcc-contracts/contracts/wwccPool.sol\":11391:11396  owner */\n      dup1\n      0x00\n      swap1\n      sload\n      swap1\n      0x0100\n      exp\n      swap1\n      div\n      0xffffffffffffffffffffffffffffffffffffffff\n      and\n        /* \"wwcc-contracts/contracts/wwccPool.sol\":11377:11396  msg.sender == owner */\n      0xffffffffffffffffffffffffffffffffffffffff\n      and\n        /* \"wwcc-contracts/contracts/wwccPool.sol\":11377:11387  msg.sender */\n      caller\n        /* \"wwcc-contracts/contracts/wwccPool.sol\":11377:11396  msg.sender == owner */\n      0xffffffffffffffffffffffffffffffffffffffff\n      and\n      eq\n        /* \"wwcc-contracts/contracts/wwccPool.sol\":11356:11447  require(... */\n      tag_126\n      jumpi\n      mload(0x40)\n      0x08c379a000000000000000000000000000000000000000000000000000000000\n      dup2\n      mstore\n      0x04\n      add\n      tag_127\n      swap1\n      tag_70\n      jump\t// in\n    tag_127:\n      mload(0x40)\n      dup1\n      swap2\n      sub\n      swap1\n      revert\n    tag_126:\n        /* \"wwcc-contracts/contracts/wwccPool.sol\":5354:5371  contains(poolKey) */\n      tag_129\n        /* \"wwcc-contracts/contracts/wwccPool.sol\":5363:5370  poolKey */\n      dup3\n        /* \"wwcc-contracts/contracts/wwccPool.sol\":5354:5362  contains */\n      tag_73\n        /* \"wwcc-contracts/contracts/wwccPool.sol\":5354:5371  contains(poolKey) */\n      jump\t// in\n    tag_129:\n        /* \"wwcc-contracts/contracts/wwccPool.sol\":5350:5606  if(!contains(poolKey)) { ... */\n      tag_130\n      jumpi\n        /* \"wwcc-contracts/contracts/wwccPool.sol\":5388:5412  revert(\"pool not exist\") */\n      mload(0x40)\n      0x08c379a000000000000000000000000000000000000000000000000000000000\n      dup2\n      mstore\n      0x04\n      add\n      tag_131\n      swap1\n      tag_76\n      jump\t// in\n    tag_131:\n      mload(0x40)\n      dup1\n      swap2\n      sub\n      swap1\n      revert\n        /* \"wwcc-contracts/contracts/wwccPool.sol\":5350:5606  if(!contains(poolKey)) { ... */\n    tag_130:\n        /* \"wwcc-contracts/contracts/wwccPool.sol\":5440:5458  WcPool memory pool */\n      0x00\n        /* \"wwcc-contracts/contracts/wwccPool.sol\":5461:5468  WcPools */\n      0x06\n        /* \"wwcc-contracts/contracts/wwccPool.sol\":5461:5477  WcPools[poolKey] */\n      0x00\n        /* \"wwcc-contracts/contracts/wwccPool.sol\":5469:5476  poolKey */\n      dup5\n        /* \"wwcc-contracts/contracts/wwccPool.sol\":5461:5477  WcPools[poolKey] */\n      dup2\n      mstore\n      0x20\n      add\n      swap1\n      dup2\n      mstore\n      0x20\n      add\n      0x00\n      keccak256\n        /* \"wwcc-contracts/contracts/wwccPool.sol\":5440:5477  WcPool memory pool = WcPools[poolKey] */\n      mload(0x40)\n      dup1\n      0x0140\n      add\n      0x40\n      mstore\n      swap1\n      dup2\n      0x00\n      dup3\n      add\n      dup1\n      sload\n      tag_133\n      swap1\n      tag_79\n      jump\t// in\n    tag_133:\n      dup1\n      0x1f\n      add\n      0x20\n      dup1\n      swap2\n      div\n      mul\n      0x20\n      add\n      mload(0x40)\n      swap1\n      dup2\n      add\n      0x40\n      mstore\n      dup1\n      swap3\n      swap2\n      swap1\n      dup2\n      dup2\n      mstore\n      0x20\n      add\n      dup3\n      dup1\n      sload\n      tag_134\n      swap1\n      tag_79\n      jump\t// in\n    tag_134:\n      dup1\n      iszero\n      tag_135\n      jumpi\n      dup1\n      0x1f\n      lt\n      tag_136\n      jumpi\n      0x0100\n      dup1\n      dup4\n      sload\n      div\n      mul\n      dup4\n      mstore\n      swap2\n      0x20\n      add\n      swap2\n      jump(tag_135)\n    tag_136:\n      dup3\n      add\n      swap2\n      swap1\n      0x00\n      mstore\n      keccak256(0x00, 0x20)\n      swap1\n    tag_137:\n      dup2\n      sload\n      dup2\n      mstore\n      swap1\n      0x01\n      add\n      swap1\n      0x20\n      add\n      dup1\n      dup4\n      gt\n      tag_137\n      jumpi\n      dup3\n      swap1\n      sub\n      0x1f\n      and\n      dup3\n      add\n      swap2\n    tag_135:\n      pop\n      pop\n      pop\n      pop\n      pop\n      dup2\n      mstore\n      0x20\n      add\n      0x01\n      dup3\n      add\n      dup1\n      sload\n      tag_138\n      swap1\n      tag_79\n      jump\t// in\n    tag_138:\n      dup1\n      0x1f\n      add\n      0x20\n      dup1\n      swap2\n      div\n      mul\n      0x20\n      add\n      mload(0x40)\n      swap1\n      dup2\n      add\n      0x40\n      mstore\n      dup1\n      swap3\n      swap2\n      swap1\n      dup2\n      dup2\n      mstore\n      0x20\n      add\n      dup3\n      dup1\n      sload\n      tag_139\n      swap1\n      tag_79\n      jump\t// in\n    tag_139:\n      dup1\n      iszero\n      tag_140\n      jumpi\n      dup1\n      0x1f\n      lt\n      tag_141\n      jumpi\n      0x0100\n      dup1\n      dup4\n      sload\n      div\n      mul\n      dup4\n      mstore\n      swap2\n      0x20\n      add\n      swap2\n      jump(tag_140)\n    tag_141:\n      dup3\n      add\n      swap2\n      swap1\n      0x00\n      mstore\n      keccak256(0x00, 0x20)\n      swap1\n    tag_142:\n      dup2\n      sload\n      dup2\n      mstore\n      swap1\n      0x01\n      add\n      swap1\n      0x20\n      add\n      dup1\n      dup4\n      gt\n      tag_142\n      jumpi\n      dup3\n      swap1\n      sub\n      0x1f\n      and\n      dup3\n      add\n      swap2\n    tag_140:\n      pop\n      pop\n      pop\n      pop\n      pop\n      dup2\n      mstore\n      0x20\n      add\n      0x02\n      dup3\n      add\n      dup1\n      sload\n      tag_143\n      swap1\n      tag_79\n      jump\t// in\n    tag_143:\n      dup1\n      0x1f\n      add\n      0x20\n      dup1\n      swap2\n      div\n      mul\n      0x20\n      add\n      mload(0x40)\n      swap1\n      dup2\n      add\n      0x40\n      mstore\n      dup1\n      swap3\n      swap2\n      swap1\n      dup2\n      dup2\n      mstore\n      0x20\n      add\n      dup3\n      dup1\n      sload\n      tag_144\n      swap1\n      tag_79\n      jump\t// in\n    tag_144:\n      dup1\n      iszero\n      tag_145\n      jumpi\n      dup1\n      0x1f\n      lt\n      tag_146\n      jumpi\n      0x0100\n      dup1\n      dup4\n      sload\n      div\n      mul\n      dup4\n      mstore\n      swap2\n      0x20\n      add\n      swap2\n      jump(tag_145)\n    tag_146:\n      dup3\n      add\n      swap2\n      swap1\n      0x00\n      mstore\n      keccak256(0x00, 0x20)\n      swap1\n    tag_147:\n      dup2\n      sload\n      dup2\n      mstore\n      swap1\n      0x01\n      add\n      swap1\n      0x20\n      add\n      dup1\n      dup4\n      gt\n      tag_147\n      jumpi\n      dup3\n      swap1\n      sub\n      0x1f\n      and\n      dup3\n      add\n      swap2\n    tag_145:\n      pop\n      pop\n      pop\n      pop\n      pop\n      dup2\n      mstore\n      0x20\n      add\n      0x03\n      dup3\n      add\n      sload\n      dup2\n      mstore\n      0x20\n      add\n      0x04\n      dup3\n      add\n      sload\n      dup2\n      mstore\n      0x20\n      add\n      0x05\n      dup3\n      add\n      sload\n      dup2\n      mstore\n      0x20\n      add\n      0x06\n      dup3\n      add\n      sload\n      dup2\n      mstore\n      0x20\n      add\n      0x07\n      dup3\n      add\n      0x00\n      swap1\n      sload\n      swap1\n      0x0100\n      exp\n      swap1\n      div\n      0xff\n      and\n      iszero\n      iszero\n      iszero\n      iszero\n      dup2\n      mstore\n      0x20\n      add\n      0x07\n      dup3\n      add\n      0x01\n      swap1\n      sload\n      swap1\n      0x0100\n      exp\n      swap1\n      div\n      0xff\n      and\n      iszero\n      iszero\n      iszero\n      iszero\n      dup2\n      mstore\n      0x20\n      add\n      0x07\n      dup3\n      add\n      0x02\n      swap1\n      sload\n      swap1\n      0x0100\n      exp\n      swap1\n      div\n      0xff\n      and\n      iszero\n      iszero\n      iszero\n      iszero\n      dup2\n      mstore\n      pop\n      pop\n      swap1\n      pop\n        /* \"wwcc-contracts/contracts/wwccPool.sol\":5490:5504  uint256 expect */\n      0x00\n        /* \"wwcc-contracts/contracts/wwccPool.sol\":5507:5569  (pool.wPool+pool.lPool+pool.dPool+pool.sPool).mul(10).div(100) */\n      tag_148\n        /* \"wwcc-contracts/contracts/wwccPool.sol\":5565:5568  100 */\n      0x64\n        /* \"wwcc-contracts/contracts/wwccPool.sol\":5507:5560  (pool.wPool+pool.lPool+pool.dPool+pool.sPool).mul(10) */\n      tag_149\n        /* \"wwcc-contracts/contracts/wwccPool.sol\":5557:5559  10 */\n      0x0a\n        /* \"wwcc-contracts/contracts/wwccPool.sol\":5541:5545  pool */\n      dup6\n        /* \"wwcc-contracts/contracts/wwccPool.sol\":5541:5551  pool.sPool */\n      0xc0\n      add\n      mload\n        /* \"wwcc-contracts/contracts/wwccPool.sol\":5530:5534  pool */\n      dup7\n        /* \"wwcc-contracts/contracts/wwccPool.sol\":5530:5540  pool.dPool */\n      0x80\n      add\n      mload\n        /* \"wwcc-contracts/contracts/wwccPool.sol\":5519:5523  pool */\n      dup8\n        /* \"wwcc-contracts/contracts/wwccPool.sol\":5519:5529  pool.lPool */\n      0xa0\n      add\n      mload\n        /* \"wwcc-contracts/contracts/wwccPool.sol\":5508:5512  pool */\n      dup9\n        /* \"wwcc-contracts/contracts/wwccPool.sol\":5508:5518  pool.wPool */\n      0x60\n      add\n      mload\n        /* \"wwcc-contracts/contracts/wwccPool.sol\":5508:5529  pool.wPool+pool.lPool */\n      tag_150\n      swap2\n      swap1\n      tag_16\n      jump\t// in\n    tag_150:\n        /* \"wwcc-contracts/contracts/wwccPool.sol\":5508:5540  pool.wPool+pool.lPool+pool.dPool */\n      tag_151\n      swap2\n      swap1\n      tag_16\n      jump\t// in\n    tag_151:\n        /* \"wwcc-contracts/contracts/wwccPool.sol\":5508:5551  pool.wPool+pool.lPool+pool.dPool+pool.sPool */\n      tag_152\n      swap2\n      swap1\n      tag_16\n      jump\t// in\n    tag_152:\n        /* \"wwcc-contracts/contracts/wwccPool.sol\":5507:5556  (pool.wPool+pool.lPool+pool.dPool+pool.sPool).mul */\n      tag_99\n      swap1\n        /* \"wwcc-contracts/contracts/wwccPool.sol\":5507:5560  (pool.wPool+pool.lPool+pool.dPool+pool.sPool).mul(10) */\n      swap2\n      swap1\n      0xffffffff\n      and\n      jump\t// in\n    tag_149:\n        /* \"wwcc-contracts/contracts/wwccPool.sol\":5507:5564  (pool.wPool+pool.lPool+pool.dPool+pool.sPool).mul(10).div */\n      tag_100\n      swap1\n        /* \"wwcc-contracts/contracts/wwccPool.sol\":5507:5569  (pool.wPool+pool.lPool+pool.dPool+pool.sPool).mul(10).div(100) */\n      swap2\n      swap1\n      0xffffffff\n      and\n      jump\t// in\n    tag_148:\n        /* \"wwcc-contracts/contracts/wwccPool.sol\":5490:5569  uint256 expect = (pool.wPool+pool.lPool+pool.dPool+pool.sPool).mul(10).div(100) */\n      swap1\n      pop\n        /* \"wwcc-contracts/contracts/wwccPool.sol\":5589:5595  expect */\n      dup1\n        /* \"wwcc-contracts/contracts/wwccPool.sol\":5582:5595  return expect */\n      swap3\n      pop\n      pop\n      pop\n        /* \"wwcc-contracts/contracts/wwccPool.sol\":5263:5612  function CheckExpect(bytes32 poolKey) external onlyManager  returns (uint256){... */\n      swap2\n      swap1\n      pop\n      jump\t// out\n        /* \"wwcc-contracts/contracts/wwccPool.sol\":2543:3881  function Picking(address joiner,uint256 weight,bytes32 poolKey,uint256 homeScore,uint256 visitScore,uint256 kind) external onlyManager returns(bool){... */\n    tag_44:\n        /* \"wwcc-contracts/contracts/wwccPool.sol\":2686:2690  bool */\n      0x00\n        /* \"wwcc-contracts/contracts/wwccPool.sol\":11391:11396  owner */\n      dup1\n      0x00\n      swap1\n      sload\n      swap1\n      0x0100\n      exp\n      swap1\n      div\n      0xffffffffffffffffffffffffffffffffffffffff\n      and\n        /* \"wwcc-contracts/contracts/wwccPool.sol\":11377:11396  msg.sender == owner */\n      0xffffffffffffffffffffffffffffffffffffffff\n      and\n        /* \"wwcc-contracts/contracts/wwccPool.sol\":11377:11387  msg.sender */\n      caller\n        /* \"wwcc-contracts/contracts/wwccPool.sol\":11377:11396  msg.sender == owner */\n      0xffffffffffffffffffffffffffffffffffffffff\n      and\n      eq\n        /* \"wwcc-contracts/contracts/wwccPool.sol\":11356:11447  require(... */\n      tag_154\n      jumpi\n      mload(0x40)\n      0x08c379a000000000000000000000000000000000000000000000000000000000\n      dup2\n      mstore\n      0x04\n      add\n      tag_155\n      swap1\n      tag_70\n      jump\t// in\n    tag_155:\n      mload(0x40)\n      dup1\n      swap2\n      sub\n      swap1\n      revert\n    tag_154:\n        /* \"wwcc-contracts/contracts/wwccPool.sol\":2705:2722  contains(poolKey) */\n      tag_157\n        /* \"wwcc-contracts/contracts/wwccPool.sol\":2714:2721  poolKey */\n      dup6\n        /* \"wwcc-contracts/contracts/wwccPool.sol\":2705:2713  contains */\n      tag_73\n        /* \"wwcc-contracts/contracts/wwccPool.sol\":2705:2722  contains(poolKey) */\n      jump\t// in\n    tag_157:\n        /* \"wwcc-contracts/contracts/wwccPool.sol\":2701:3855  if(!contains(poolKey)) { ... */\n      tag_158\n      jumpi\n        /* \"wwcc-contracts/contracts/wwccPool.sol\":2739:2763  revert(\"pool not exist\") */\n      mload(0x40)\n      0x08c379a000000000000000000000000000000000000000000000000000000000\n      dup2\n      mstore\n      0x04\n      add\n      tag_159\n      swap1\n      tag_76\n      jump\t// in\n    tag_159:\n      mload(0x40)\n      dup1\n      swap2\n      sub\n      swap1\n      revert\n        /* \"wwcc-contracts/contracts/wwccPool.sol\":2701:3855  if(!contains(poolKey)) { ... */\n    tag_158:\n        /* \"wwcc-contracts/contracts/wwccPool.sol\":2812:2818  weight */\n      dup6\n        /* \"wwcc-contracts/contracts/wwccPool.sol\":2793:2803  voteAmount */\n      0x05\n        /* \"wwcc-contracts/contracts/wwccPool.sol\":2793:2811  voteAmount[joiner] */\n      0x00\n        /* \"wwcc-contracts/contracts/wwccPool.sol\":2804:2810  joiner */\n      dup10\n        /* \"wwcc-contracts/contracts/wwccPool.sol\":2793:2811  voteAmount[joiner] */\n      0xffffffffffffffffffffffffffffffffffffffff\n      and\n      0xffffffffffffffffffffffffffffffffffffffff\n      and\n      dup2\n      mstore\n      0x20\n      add\n      swap1\n      dup2\n      mstore\n      0x20\n      add\n      0x00\n      keccak256\n      sload\n        /* \"wwcc-contracts/contracts/wwccPool.sol\":2793:2818  voteAmount[joiner]<weight */\n      lt\n        /* \"wwcc-contracts/contracts/wwccPool.sol\":2790:2881  if(voteAmount[joiner]<weight){... */\n      iszero\n      tag_161\n      jumpi\n        /* \"wwcc-contracts/contracts/wwccPool.sol\":2836:2867  revert(\"not enough voteAmount\") */\n      mload(0x40)\n      0x08c379a000000000000000000000000000000000000000000000000000000000\n      dup2\n      mstore\n      0x04\n      add\n      tag_162\n      swap1\n      tag_163\n      jump\t// in\n    tag_162:\n      mload(0x40)\n      dup1\n      swap2\n      sub\n      swap1\n      revert\n        /* \"wwcc-contracts/contracts/wwccPool.sol\":2790:2881  if(voteAmount[joiner]<weight){... */\n    tag_161:\n        /* \"wwcc-contracts/contracts/wwccPool.sol\":2893:2911  WcPool memory pool */\n      0x00\n        /* \"wwcc-contracts/contracts/wwccPool.sol\":2914:2921  WcPools */\n      0x06\n        /* \"wwcc-contracts/contracts/wwccPool.sol\":2914:2930  WcPools[poolKey] */\n      0x00\n        /* \"wwcc-contracts/contracts/wwccPool.sol\":2922:2929  poolKey */\n      dup8\n        /* \"wwcc-contracts/contracts/wwccPool.sol\":2914:2930  WcPools[poolKey] */\n      dup2\n      mstore\n      0x20\n      add\n      swap1\n      dup2\n      mstore\n      0x20\n      add\n      0x00\n      keccak256\n        /* \"wwcc-contracts/contracts/wwccPool.sol\":2893:2930  WcPool memory pool = WcPools[poolKey] */\n      mload(0x40)\n      dup1\n      0x0140\n      add\n      0x40\n      mstore\n      swap1\n      dup2\n      0x00\n      dup3\n      add\n      dup1\n      sload\n      tag_164\n      swap1\n      tag_79\n      jump\t// in\n    tag_164:\n      dup1\n      0x1f\n      add\n      0x20\n      dup1\n      swap2\n      div\n      mul\n      0x20\n      add\n      mload(0x40)\n      swap1\n      dup2\n      add\n      0x40\n      mstore\n      dup1\n      swap3\n      swap2\n      swap1\n      dup2\n      dup2\n      mstore\n      0x20\n      add\n      dup3\n      dup1\n      sload\n      tag_165\n      swap1\n      tag_79\n      jump\t// in\n    tag_165:\n      dup1\n      iszero\n      tag_166\n      jumpi\n      dup1\n      0x1f\n      lt\n      tag_167\n      jumpi\n      0x0100\n      dup1\n      dup4\n      sload\n      div\n      mul\n      dup4\n      mstore\n      swap2\n      0x20\n      add\n      swap2\n      jump(tag_166)\n    tag_167:\n      dup3\n      add\n      swap2\n      swap1\n      0x00\n      mstore\n      keccak256(0x00, 0x20)\n      swap1\n    tag_168:\n      dup2\n      sload\n      dup2\n      mstore\n      swap1\n      0x01\n      add\n      swap1\n      0x20\n      add\n      dup1\n      dup4\n      gt\n      tag_168\n      jumpi\n      dup3\n      swap1\n      sub\n      0x1f\n      and\n      dup3\n      add\n      swap2\n    tag_166:\n      pop\n      pop\n      pop\n      pop\n      pop\n      dup2\n      mstore\n      0x20\n      add\n      0x01\n      dup3\n      add\n      dup1\n      sload\n      tag_169\n      swap1\n      tag_79\n      jump\t// in\n    tag_169:\n      dup1\n      0x1f\n      add\n      0x20\n      dup1\n      swap2\n      div\n      mul\n      0x20\n      add\n      mload(0x40)\n      swap1\n      dup2\n      add\n      0x40\n      mstore\n      dup1\n      swap3\n      swap2\n      swap1\n      dup2\n      dup2\n      mstore\n      0x20\n      add\n      dup3\n      dup1\n      sload\n      tag_170\n      swap1\n      tag_79\n      jump\t// in\n    tag_170:\n      dup1\n      iszero\n      tag_171\n      jumpi\n      dup1\n      0x1f\n      lt\n      tag_172\n      jumpi\n      0x0100\n      dup1\n      dup4\n      sload\n      div\n      mul\n      dup4\n      mstore\n      swap2\n      0x20\n      add\n      swap2\n      jump(tag_171)\n    tag_172:\n      dup3\n      add\n      swap2\n      swap1\n      0x00\n      mstore\n      keccak256(0x00, 0x20)\n      swap1\n    tag_173:\n      dup2\n      sload\n      dup2\n      mstore\n      swap1\n      0x01\n      add\n      swap1\n      0x20\n      add\n      dup1\n      dup4\n      gt\n      tag_173\n      jumpi\n      dup3\n      swap1\n      sub\n      0x1f\n      and\n      dup3\n      add\n      swap2\n    tag_171:\n      pop\n      pop\n      pop\n      pop\n      pop\n      dup2\n      mstore\n      0x20\n      add\n      0x02\n      dup3\n      add\n      dup1\n      sload\n      tag_174\n      swap1\n      tag_79\n      jump\t// in\n    tag_174:\n      dup1\n      0x1f\n      add\n      0x20\n      dup1\n      swap2\n      div\n      mul\n      0x20\n      add\n      mload(0x40)\n      swap1\n      dup2\n      add\n      0x40\n      mstore\n      dup1\n      swap3\n      swap2\n      swap1\n      dup2\n      dup2\n      mstore\n      0x20\n      add\n      dup3\n      dup1\n      sload\n      tag_175\n      swap1\n      tag_79\n      jump\t// in\n    tag_175:\n      dup1\n      iszero\n      tag_176\n      jumpi\n      dup1\n      0x1f\n      lt\n      tag_177\n      jumpi\n      0x0100\n      dup1\n      dup4\n      sload\n      div\n      mul\n      dup4\n      mstore\n      swap2\n      0x20\n      add\n      swap2\n      jump(tag_176)\n    tag_177:\n      dup3\n      add\n      swap2\n      swap1\n      0x00\n      mstore\n      keccak256(0x00, 0x20)\n      swap1\n    tag_178:\n      dup2\n      sload\n      dup2\n      mstore\n      swap1\n      0x01\n      add\n      swap1\n      0x20\n      add\n      dup1\n      dup4\n      gt\n      tag_178\n      jumpi\n      dup3\n      swap1\n      sub\n      0x1f\n      and\n      dup3\n      add\n      swap2\n    tag_176:\n      pop\n      pop\n      pop\n      pop\n      pop\n      dup2\n      mstore\n      0x20\n      add\n      0x03\n      dup3\n      add\n      sload\n      dup2\n      mstore\n      0x20\n      add\n      0x04\n      dup3\n      add\n      sload\n      dup2\n      mstore\n      0x20\n      add\n      0x05\n      dup3\n      add\n      sload\n      dup2\n      mstore\n      0x20\n      add\n      0x06\n      dup3\n      add\n      sload\n      dup2\n      mstore\n      0x20\n      add\n      0x07\n      dup3\n      add\n      0x00\n      swap1\n      sload\n      swap1\n      0x0100\n      exp\n      swap1\n      div\n      0xff\n      and\n      iszero\n      iszero\n      iszero\n      iszero\n      dup2\n      mstore\n      0x20\n      add\n      0x07\n      dup3\n      add\n      0x01\n      swap1\n      sload\n      swap1\n      0x0100\n      exp\n      swap1\n      div\n      0xff\n      and\n      iszero\n      iszero\n      iszero\n      iszero\n      dup2\n      mstore\n      0x20\n      add\n      0x07\n      dup3\n      add\n      0x02\n      swap1\n      sload\n      swap1\n      0x0100\n      exp\n      swap1\n      div\n      0xff\n      and\n      iszero\n      iszero\n      iszero\n      iszero\n      dup2\n      mstore\n      pop\n      pop\n      swap1\n      pop\n        /* \"wwcc-contracts/contracts/wwccPool.sol\":2943:2960  string  memory si */\n      0x00\n        /* \"wwcc-contracts/contracts/wwccPool.sol\":2963:3028  strConcat(uint256ToString(homeScore),uint256ToString(visitScore)) */\n      tag_179\n        /* \"wwcc-contracts/contracts/wwccPool.sol\":2973:2999  uint256ToString(homeScore) */\n      tag_180\n        /* \"wwcc-contracts/contracts/wwccPool.sol\":2989:2998  homeScore */\n      dup8\n        /* \"wwcc-contracts/contracts/wwccPool.sol\":2973:2988  uint256ToString */\n      tag_181\n        /* \"wwcc-contracts/contracts/wwccPool.sol\":2973:2999  uint256ToString(homeScore) */\n      jump\t// in\n    tag_180:\n        /* \"wwcc-contracts/contracts/wwccPool.sol\":3000:3027  uint256ToString(visitScore) */\n      tag_182\n        /* \"wwcc-contracts/contracts/wwccPool.sol\":3016:3026  visitScore */\n      dup8\n        /* \"wwcc-contracts/contracts/wwccPool.sol\":3000:3015  uint256ToString */\n      tag_181\n        /* \"wwcc-contracts/contracts/wwccPool.sol\":3000:3027  uint256ToString(visitScore) */\n      jump\t// in\n    tag_182:\n        /* \"wwcc-contracts/contracts/wwccPool.sol\":2963:2972  strConcat */\n      tag_112\n        /* \"wwcc-contracts/contracts/wwccPool.sol\":2963:3028  strConcat(uint256ToString(homeScore),uint256ToString(visitScore)) */\n      jump\t// in\n    tag_179:\n        /* \"wwcc-contracts/contracts/wwccPool.sol\":2943:3028  string  memory si = strConcat(uint256ToString(homeScore),uint256ToString(visitScore)) */\n      swap1\n      pop\n        /* \"wwcc-contracts/contracts/wwccPool.sol\":3041:3066  string  memory pickingKey */\n      0x00\n        /* \"wwcc-contracts/contracts/wwccPool.sol\":3069:3107  strConcat(bytes32ToString(poolKey),si) */\n      tag_183\n        /* \"wwcc-contracts/contracts/wwccPool.sol\":3079:3103  bytes32ToString(poolKey) */\n      tag_184\n        /* \"wwcc-contracts/contracts/wwccPool.sol\":3095:3102  poolKey */\n      dup10\n        /* \"wwcc-contracts/contracts/wwccPool.sol\":3079:3094  bytes32ToString */\n      tag_185\n        /* \"wwcc-contracts/contracts/wwccPool.sol\":3079:3103  bytes32ToString(poolKey) */\n      jump\t// in\n    tag_184:\n        /* \"wwcc-contracts/contracts/wwccPool.sol\":3104:3106  si */\n      dup4\n        /* \"wwcc-contracts/contracts/wwccPool.sol\":3069:3078  strConcat */\n      tag_112\n        /* \"wwcc-contracts/contracts/wwccPool.sol\":3069:3107  strConcat(bytes32ToString(poolKey),si) */\n      jump\t// in\n    tag_183:\n        /* \"wwcc-contracts/contracts/wwccPool.sol\":3041:3107  string  memory pickingKey = strConcat(bytes32ToString(poolKey),si) */\n      swap1\n      pop\n        /* \"wwcc-contracts/contracts/wwccPool.sol\":3120:3143  JoinerPicking memory jp */\n      0x00\n        /* \"wwcc-contracts/contracts/wwccPool.sol\":3146:3217  JoinerPicking(weight,kind,homeScore,visitScore,joiner,pickingKey,false) */\n      mload(0x40)\n      dup1\n      0xe0\n      add\n      0x40\n      mstore\n      dup1\n        /* \"wwcc-contracts/contracts/wwccPool.sol\":3160:3166  weight */\n      dup12\n        /* \"wwcc-contracts/contracts/wwccPool.sol\":3146:3217  JoinerPicking(weight,kind,homeScore,visitScore,joiner,pickingKey,false) */\n      dup2\n      mstore\n      0x20\n      add\n        /* \"wwcc-contracts/contracts/wwccPool.sol\":3167:3171  kind */\n      dup8\n        /* \"wwcc-contracts/contracts/wwccPool.sol\":3146:3217  JoinerPicking(weight,kind,homeScore,visitScore,joiner,pickingKey,false) */\n      dup2\n      mstore\n      0x20\n      add\n        /* \"wwcc-contracts/contracts/wwccPool.sol\":3172:3181  homeScore */\n      dup10\n        /* \"wwcc-contracts/contracts/wwccPool.sol\":3146:3217  JoinerPicking(weight,kind,homeScore,visitScore,joiner,pickingKey,false) */\n      dup2\n      mstore\n      0x20\n      add\n        /* \"wwcc-contracts/contracts/wwccPool.sol\":3182:3192  visitScore */\n      dup9\n        /* \"wwcc-contracts/contracts/wwccPool.sol\":3146:3217  JoinerPicking(weight,kind,homeScore,visitScore,joiner,pickingKey,false) */\n      dup2\n      mstore\n      0x20\n      add\n        /* \"wwcc-contracts/contracts/wwccPool.sol\":3193:3199  joiner */\n      dup13\n        /* \"wwcc-contracts/contracts/wwccPool.sol\":3146:3217  JoinerPicking(weight,kind,homeScore,visitScore,joiner,pickingKey,false) */\n      0xffffffffffffffffffffffffffffffffffffffff\n      and\n      dup2\n      mstore\n      0x20\n      add\n        /* \"wwcc-contracts/contracts/wwccPool.sol\":3200:3210  pickingKey */\n      dup4\n        /* \"wwcc-contracts/contracts/wwccPool.sol\":3146:3217  JoinerPicking(weight,kind,homeScore,visitScore,joiner,pickingKey,false) */\n      dup2\n      mstore\n      0x20\n      add\n        /* \"wwcc-contracts/contracts/wwccPool.sol\":3211:3216  false */\n      0x00\n        /* \"wwcc-contracts/contracts/wwccPool.sol\":3146:3217  JoinerPicking(weight,kind,homeScore,visitScore,joiner,pickingKey,false) */\n      iszero\n      iszero\n      dup2\n      mstore\n      pop\n        /* \"wwcc-contracts/contracts/wwccPool.sol\":3120:3217  JoinerPicking memory jp = JoinerPicking(weight,kind,homeScore,visitScore,joiner,pickingKey,false) */\n      swap1\n      pop\n        /* \"wwcc-contracts/contracts/wwccPool.sol\":3266:3273  poolKey */\n      dup9\n        /* \"wwcc-contracts/contracts/wwccPool.sol\":3230:3246  allScorePoolInfo */\n      0x02\n        /* \"wwcc-contracts/contracts/wwccPool.sol\":3230:3255  allScorePoolInfo[poolKey] */\n      0x00\n        /* \"wwcc-contracts/contracts/wwccPool.sol\":3247:3254  poolKey */\n      dup12\n        /* \"wwcc-contracts/contracts/wwccPool.sol\":3230:3255  allScorePoolInfo[poolKey] */\n      dup2\n      mstore\n      0x20\n      add\n      swap1\n      dup2\n      mstore\n      0x20\n      add\n      0x00\n      keccak256\n        /* \"wwcc-contracts/contracts/wwccPool.sol\":3230:3263  allScorePoolInfo[poolKey].poolKey */\n      0x01\n      add\n        /* \"wwcc-contracts/contracts/wwccPool.sol\":3230:3273  allScorePoolInfo[poolKey].poolKey = poolKey */\n      dup2\n      swap1\n      sstore\n      pop\n        /* \"wwcc-contracts/contracts/wwccPool.sol\":3286:3302  allScorePoolInfo */\n      0x02\n        /* \"wwcc-contracts/contracts/wwccPool.sol\":3286:3311  allScorePoolInfo[poolKey] */\n      0x00\n        /* \"wwcc-contracts/contracts/wwccPool.sol\":3303:3310  poolKey */\n      dup11\n        /* \"wwcc-contracts/contracts/wwccPool.sol\":3286:3311  allScorePoolInfo[poolKey] */\n      dup2\n      mstore\n      0x20\n      add\n      swap1\n      dup2\n      mstore\n      0x20\n      add\n      0x00\n      keccak256\n        /* \"wwcc-contracts/contracts/wwccPool.sol\":3286:3323  allScorePoolInfo[poolKey].separateBet */\n      0x00\n      add\n        /* \"wwcc-contracts/contracts/wwccPool.sol\":3329:3331  jp */\n      dup2\n        /* \"wwcc-contracts/contracts/wwccPool.sol\":3286:3332  allScorePoolInfo[poolKey].separateBet.push(jp) */\n      swap1\n      dup1\n      0x01\n      dup2\n      sload\n      add\n      dup1\n      dup3\n      sstore\n      dup1\n      swap2\n      pop\n      pop\n      0x01\n      swap1\n      sub\n      swap1\n      0x00\n      mstore\n      keccak256(0x00, 0x20)\n      swap1\n      0x07\n      mul\n      add\n      0x00\n      swap1\n      swap2\n      swap1\n      swap2\n      swap1\n      swap2\n      pop\n      0x00\n      dup3\n      add\n      mload\n      dup2\n      0x00\n      add\n      sstore\n      0x20\n      dup3\n      add\n      mload\n      dup2\n      0x01\n      add\n      sstore\n      0x40\n      dup3\n      add\n      mload\n      dup2\n      0x02\n      add\n      sstore\n      0x60\n      dup3\n      add\n      mload\n      dup2\n      0x03\n      add\n      sstore\n      0x80\n      dup3\n      add\n      mload\n      dup2\n      0x04\n      add\n      exp(0x0100, 0x00)\n      dup2\n      sload\n      dup2\n      0xffffffffffffffffffffffffffffffffffffffff\n      mul\n      not\n      and\n      swap1\n      dup4\n      0xffffffffffffffffffffffffffffffffffffffff\n      and\n      mul\n      or\n      swap1\n      sstore\n      pop\n      0xa0\n      dup3\n      add\n      mload\n      dup2\n      0x05\n      add\n      swap1\n      dup1\n      mload\n      swap1\n      0x20\n      add\n      swap1\n      tag_187\n      swap3\n      swap2\n      swap1\n      tag_122\n      jump\t// in\n    tag_187:\n      pop\n      0xc0\n      dup3\n      add\n      mload\n      dup2\n      0x06\n      add\n      exp(0x0100, 0x00)\n      dup2\n      sload\n      dup2\n      0xff\n      mul\n      not\n      and\n      swap1\n      dup4\n      iszero\n      iszero\n      mul\n      or\n      swap1\n      sstore\n      pop\n      pop\n      pop\n        /* \"wwcc-contracts/contracts/wwccPool.sol\":3380:3386  joiner */\n      dup11\n        /* \"wwcc-contracts/contracts/wwccPool.sol\":3346:3362  joinerAllPicking */\n      0x04\n        /* \"wwcc-contracts/contracts/wwccPool.sol\":3346:3370  joinerAllPicking[joiner] */\n      0x00\n        /* \"wwcc-contracts/contracts/wwccPool.sol\":3363:3369  joiner */\n      dup14\n        /* \"wwcc-contracts/contracts/wwccPool.sol\":3346:3370  joinerAllPicking[joiner] */\n      0xffffffffffffffffffffffffffffffffffffffff\n      and\n      0xffffffffffffffffffffffffffffffffffffffff\n      and\n      dup2\n      mstore\n      0x20\n      add\n      swap1\n      dup2\n      mstore\n      0x20\n      add\n      0x00\n      keccak256\n        /* \"wwcc-contracts/contracts/wwccPool.sol\":3346:3377  joinerAllPicking[joiner].joiner */\n      0x01\n      add\n      0x00\n        /* \"wwcc-contracts/contracts/wwccPool.sol\":3346:3386  joinerAllPicking[joiner].joiner = joiner */\n      0x0100\n      exp\n      dup2\n      sload\n      dup2\n      0xffffffffffffffffffffffffffffffffffffffff\n      mul\n      not\n      and\n      swap1\n      dup4\n      0xffffffffffffffffffffffffffffffffffffffff\n      and\n      mul\n      or\n      swap1\n      sstore\n      pop\n        /* \"wwcc-contracts/contracts/wwccPool.sol\":3399:3415  allScorePoolInfo */\n      0x02\n        /* \"wwcc-contracts/contracts/wwccPool.sol\":3399:3424  allScorePoolInfo[poolKey] */\n      0x00\n        /* \"wwcc-contracts/contracts/wwccPool.sol\":3416:3423  poolKey */\n      dup11\n        /* \"wwcc-contracts/contracts/wwccPool.sol\":3399:3424  allScorePoolInfo[poolKey] */\n      dup2\n      mstore\n      0x20\n      add\n      swap1\n      dup2\n      mstore\n      0x20\n      add\n      0x00\n      keccak256\n        /* \"wwcc-contracts/contracts/wwccPool.sol\":3399:3436  allScorePoolInfo[poolKey].separateBet */\n      0x00\n      add\n        /* \"wwcc-contracts/contracts/wwccPool.sol\":3442:3444  jp */\n      dup2\n        /* \"wwcc-contracts/contracts/wwccPool.sol\":3399:3445  allScorePoolInfo[poolKey].separateBet.push(jp) */\n      swap1\n      dup1\n      0x01\n      dup2\n      sload\n      add\n      dup1\n      dup3\n      sstore\n      dup1\n      swap2\n      pop\n      pop\n      0x01\n      swap1\n      sub\n      swap1\n      0x00\n      mstore\n      keccak256(0x00, 0x20)\n      swap1\n      0x07\n      mul\n      add\n      0x00\n      swap1\n      swap2\n      swap1\n      swap2\n      swap1\n      swap2\n      pop\n      0x00\n      dup3\n      add\n      mload\n      dup2\n      0x00\n      add\n      sstore\n      0x20\n      dup3\n      add\n      mload\n      dup2\n      0x01\n      add\n      sstore\n      0x40\n      dup3\n      add\n      mload\n      dup2\n      0x02\n      add\n      sstore\n      0x60\n      dup3\n      add\n      mload\n      dup2\n      0x03\n      add\n      sstore\n      0x80\n      dup3\n      add\n      mload\n      dup2\n      0x04\n      add\n      exp(0x0100, 0x00)\n      dup2\n      sload\n      dup2\n      0xffffffffffffffffffffffffffffffffffffffff\n      mul\n      not\n      and\n      swap1\n      dup4\n      0xffffffffffffffffffffffffffffffffffffffff\n      and\n      mul\n      or\n      swap1\n      sstore\n      pop\n      0xa0\n      dup3\n      add\n      mload\n      dup2\n      0x05\n      add\n      swap1\n      dup1\n      mload\n      swap1\n      0x20\n      add\n      swap1\n      tag_189\n      swap3\n      swap2\n      swap1\n      tag_122\n      jump\t// in\n    tag_189:\n      pop\n      0xc0\n      dup3\n      add\n      mload\n      dup2\n      0x06\n      add\n      exp(0x0100, 0x00)\n      dup2\n      sload\n      dup2\n      0xff\n      mul\n      not\n      and\n      swap1\n      dup4\n      iszero\n      iszero\n      mul\n      or\n      swap1\n      sstore\n      pop\n      pop\n      pop\n        /* \"wwcc-contracts/contracts/wwccPool.sol\":3472:3473  2 */\n      0x02\n        /* \"wwcc-contracts/contracts/wwccPool.sol\":3464:3468  kind */\n      dup7\n        /* \"wwcc-contracts/contracts/wwccPool.sol\":3464:3473  kind == 2 */\n      eq\n        /* \"wwcc-contracts/contracts/wwccPool.sol\":3460:3792  if (kind == 2){... */\n      iszero\n      tag_190\n      jumpi\n        /* \"wwcc-contracts/contracts/wwccPool.sol\":3504:3510  weight */\n      dup10\n        /* \"wwcc-contracts/contracts/wwccPool.sol\":3490:3494  pool */\n      dup5\n        /* \"wwcc-contracts/contracts/wwccPool.sol\":3490:3500  pool.sPool */\n      0xc0\n      add\n        /* \"wwcc-contracts/contracts/wwccPool.sol\":3490:3510  pool.sPool += weight */\n      dup2\n      dup2\n      mload\n      tag_191\n      swap2\n      swap1\n      tag_16\n      jump\t// in\n    tag_191:\n      swap2\n      pop\n      dup2\n      dup2\n      mstore\n      pop\n      pop\n        /* \"wwcc-contracts/contracts/wwccPool.sol\":3557:3563  weight */\n      dup10\n        /* \"wwcc-contracts/contracts/wwccPool.sol\":3526:3541  singleScorePool */\n      0x03\n        /* \"wwcc-contracts/contracts/wwccPool.sol\":3542:3552  pickingKey */\n      dup4\n        /* \"wwcc-contracts/contracts/wwccPool.sol\":3526:3553  singleScorePool[pickingKey] */\n      mload(0x40)\n      tag_192\n      swap2\n      swap1\n      tag_115\n      jump\t// in\n    tag_192:\n      swap1\n      dup2\n      mstore\n      0x20\n      add\n      mload(0x40)\n      dup1\n      swap2\n      sub\n      swap1\n      keccak256\n      0x00\n        /* \"wwcc-contracts/contracts/wwccPool.sol\":3526:3563  singleScorePool[pickingKey] += weight */\n      dup3\n      dup3\n      sload\n      tag_193\n      swap2\n      swap1\n      tag_16\n      jump\t// in\n    tag_193:\n      swap3\n      pop\n      pop\n      dup2\n      swap1\n      sstore\n      pop\n        /* \"wwcc-contracts/contracts/wwccPool.sol\":3460:3792  if (kind == 2){... */\n      jump(tag_194)\n    tag_190:\n        /* \"wwcc-contracts/contracts/wwccPool.sol\":3607:3608  3 */\n      0x03\n        /* \"wwcc-contracts/contracts/wwccPool.sol\":3599:3603  kind */\n      dup7\n        /* \"wwcc-contracts/contracts/wwccPool.sol\":3599:3608  kind == 3 */\n      eq\n        /* \"wwcc-contracts/contracts/wwccPool.sol\":3596:3792  if(kind == 3){... */\n      iszero\n      tag_195\n      jumpi\n        /* \"wwcc-contracts/contracts/wwccPool.sol\":3641:3647  weight */\n      dup10\n        /* \"wwcc-contracts/contracts/wwccPool.sol\":3627:3631  pool */\n      dup5\n        /* \"wwcc-contracts/contracts/wwccPool.sol\":3627:3637  pool.wPool */\n      0x60\n      add\n        /* \"wwcc-contracts/contracts/wwccPool.sol\":3627:3647  pool.wPool += weight */\n      dup2\n      dup2\n      mload\n      tag_196\n      swap2\n      swap1\n      tag_16\n      jump\t// in\n    tag_196:\n      swap2\n      pop\n      dup2\n      dup2\n      mstore\n      pop\n      pop\n        /* \"wwcc-contracts/contracts/wwccPool.sol\":3596:3792  if(kind == 3){... */\n      jump(tag_197)\n    tag_195:\n        /* \"wwcc-contracts/contracts/wwccPool.sol\":3679:3680  1 */\n      0x01\n        /* \"wwcc-contracts/contracts/wwccPool.sol\":3671:3675  kind */\n      dup7\n        /* \"wwcc-contracts/contracts/wwccPool.sol\":3671:3680  kind == 1 */\n      eq\n        /* \"wwcc-contracts/contracts/wwccPool.sol\":3667:3792  if (kind == 1){... */\n      iszero\n      tag_198\n      jumpi\n        /* \"wwcc-contracts/contracts/wwccPool.sol\":3713:3719  weight */\n      dup10\n        /* \"wwcc-contracts/contracts/wwccPool.sol\":3699:3703  pool */\n      dup5\n        /* \"wwcc-contracts/contracts/wwccPool.sol\":3699:3709  pool.dPool */\n      0x80\n      add\n        /* \"wwcc-contracts/contracts/wwccPool.sol\":3699:3719  pool.dPool += weight */\n      dup2\n      dup2\n      mload\n      tag_199\n      swap2\n      swap1\n      tag_16\n      jump\t// in\n    tag_199:\n      swap2\n      pop\n      dup2\n      dup2\n      mstore\n      pop\n      pop\n        /* \"wwcc-contracts/contracts/wwccPool.sol\":3667:3792  if (kind == 1){... */\n      jump(tag_200)\n    tag_198:\n        /* \"wwcc-contracts/contracts/wwccPool.sol\":3771:3777  weight */\n      dup10\n        /* \"wwcc-contracts/contracts/wwccPool.sol\":3757:3761  pool */\n      dup5\n        /* \"wwcc-contracts/contracts/wwccPool.sol\":3757:3767  pool.lPool */\n      0xa0\n      add\n        /* \"wwcc-contracts/contracts/wwccPool.sol\":3757:3777  pool.lPool += weight */\n      dup2\n      dup2\n      mload\n      tag_201\n      swap2\n      swap1\n      tag_16\n      jump\t// in\n    tag_201:\n      swap2\n      pop\n      dup2\n      dup2\n      mstore\n      pop\n      pop\n        /* \"wwcc-contracts/contracts/wwccPool.sol\":3667:3792  if (kind == 1){... */\n    tag_200:\n        /* \"wwcc-contracts/contracts/wwccPool.sol\":3596:3792  if(kind == 3){... */\n    tag_197:\n        /* \"wwcc-contracts/contracts/wwccPool.sol\":3460:3792  if (kind == 2){... */\n    tag_194:\n        /* \"wwcc-contracts/contracts/wwccPool.sol\":3827:3833  weight */\n      dup10\n        /* \"wwcc-contracts/contracts/wwccPool.sol\":3805:3815  voteAmount */\n      0x05\n        /* \"wwcc-contracts/contracts/wwccPool.sol\":3805:3823  voteAmount[joiner] */\n      0x00\n        /* \"wwcc-contracts/contracts/wwccPool.sol\":3816:3822  joiner */\n      dup14\n        /* \"wwcc-contracts/contracts/wwccPool.sol\":3805:3823  voteAmount[joiner] */\n      0xffffffffffffffffffffffffffffffffffffffff\n      and\n      0xffffffffffffffffffffffffffffffffffffffff\n      and\n      dup2\n      mstore\n      0x20\n      add\n      swap1\n      dup2\n      mstore\n      0x20\n      add\n      0x00\n      keccak256\n      0x00\n        /* \"wwcc-contracts/contracts/wwccPool.sol\":3805:3833  voteAmount[joiner] -= weight */\n      dup3\n      dup3\n      sload\n      tag_202\n      swap2\n      swap1\n      tag_203\n      jump\t// in\n    tag_202:\n      swap3\n      pop\n      pop\n      dup2\n      swap1\n      sstore\n      pop\n        /* \"wwcc-contracts/contracts/wwccPool.sol\":2777:3855  {... */\n      pop\n      pop\n      pop\n      pop\n        /* \"wwcc-contracts/contracts/wwccPool.sol\":3870:3874  true */\n      0x01\n        /* \"wwcc-contracts/contracts/wwccPool.sol\":3863:3874  return true */\n      swap1\n      pop\n        /* \"wwcc-contracts/contracts/wwccPool.sol\":2543:3881  function Picking(address joiner,uint256 weight,bytes32 poolKey,uint256 homeScore,uint256 visitScore,uint256 kind) external onlyManager returns(bool){... */\n      swap7\n      swap6\n      pop\n      pop\n      pop\n      pop\n      pop\n      pop\n      jump\t// out\n        /* \"wwcc-contracts/contracts/wwccPool.sol\":3886:4228  function Set_Basal(bytes32 poolKey) external onlyManager  returns (bool){... */\n    tag_49:\n        /* \"wwcc-contracts/contracts/wwccPool.sol\":3953:3957  bool */\n      0x00\n        /* \"wwcc-contracts/contracts/wwccPool.sol\":11391:11396  owner */\n      dup1\n      0x00\n      swap1\n      sload\n      swap1\n      0x0100\n      exp\n      swap1\n      div\n      0xffffffffffffffffffffffffffffffffffffffff\n      and\n        /* \"wwcc-contracts/contracts/wwccPool.sol\":11377:11396  msg.sender == owner */\n      0xffffffffffffffffffffffffffffffffffffffff\n      and\n        /* \"wwcc-contracts/contracts/wwccPool.sol\":11377:11387  msg.sender */\n      caller\n        /* \"wwcc-contracts/contracts/wwccPool.sol\":11377:11396  msg.sender == owner */\n      0xffffffffffffffffffffffffffffffffffffffff\n      and\n      eq\n        /* \"wwcc-contracts/contracts/wwccPool.sol\":11356:11447  require(... */\n      tag_205\n      jumpi\n      mload(0x40)\n      0x08c379a000000000000000000000000000000000000000000000000000000000\n      dup2\n      mstore\n      0x04\n      add\n      tag_206\n      swap1\n      tag_70\n      jump\t// in\n    tag_206:\n      mload(0x40)\n      dup1\n      swap2\n      sub\n      swap1\n      revert\n    tag_205:\n        /* \"wwcc-contracts/contracts/wwccPool.sol\":3972:3989  contains(poolKey) */\n      tag_208\n        /* \"wwcc-contracts/contracts/wwccPool.sol\":3981:3988  poolKey */\n      dup3\n        /* \"wwcc-contracts/contracts/wwccPool.sol\":3972:3980  contains */\n      tag_73\n        /* \"wwcc-contracts/contracts/wwccPool.sol\":3972:3989  contains(poolKey) */\n      jump\t// in\n    tag_208:\n        /* \"wwcc-contracts/contracts/wwccPool.sol\":3968:4222  if(!contains(poolKey)) { ... */\n      tag_209\n      jumpi\n        /* \"wwcc-contracts/contracts/wwccPool.sol\":4006:4030  revert(\"pool not exist\") */\n      mload(0x40)\n      0x08c379a000000000000000000000000000000000000000000000000000000000\n      dup2\n      mstore\n      0x04\n      add\n      tag_210\n      swap1\n      tag_76\n      jump\t// in\n    tag_210:\n      mload(0x40)\n      dup1\n      swap2\n      sub\n      swap1\n      revert\n        /* \"wwcc-contracts/contracts/wwccPool.sol\":3968:4222  if(!contains(poolKey)) { ... */\n    tag_209:\n        /* \"wwcc-contracts/contracts/wwccPool.sol\":4058:4076  WcPool memory pool */\n      0x00\n        /* \"wwcc-contracts/contracts/wwccPool.sol\":4079:4086  WcPools */\n      0x06\n        /* \"wwcc-contracts/contracts/wwccPool.sol\":4079:4095  WcPools[poolKey] */\n      0x00\n        /* \"wwcc-contracts/contracts/wwccPool.sol\":4087:4094  poolKey */\n      dup5\n        /* \"wwcc-contracts/contracts/wwccPool.sol\":4079:4095  WcPools[poolKey] */\n      dup2\n      mstore\n      0x20\n      add\n      swap1\n      dup2\n      mstore\n      0x20\n      add\n      0x00\n      keccak256\n        /* \"wwcc-contracts/contracts/wwccPool.sol\":4058:4095  WcPool memory pool = WcPools[poolKey] */\n      mload(0x40)\n      dup1\n      0x0140\n      add\n      0x40\n      mstore\n      swap1\n      dup2\n      0x00\n      dup3\n      add\n      dup1\n      sload\n      tag_212\n      swap1\n      tag_79\n      jump\t// in\n    tag_212:\n      dup1\n      0x1f\n      add\n      0x20\n      dup1\n      swap2\n      div\n      mul\n      0x20\n      add\n      mload(0x40)\n      swap1\n      dup2\n      add\n      0x40\n      mstore\n      dup1\n      swap3\n      swap2\n      swap1\n      dup2\n      dup2\n      mstore\n      0x20\n      add\n      dup3\n      dup1\n      sload\n      tag_213\n      swap1\n      tag_79\n      jump\t// in\n    tag_213:\n      dup1\n      iszero\n      tag_214\n      jumpi\n      dup1\n      0x1f\n      lt\n      tag_215\n      jumpi\n      0x0100\n      dup1\n      dup4\n      sload\n      div\n      mul\n      dup4\n      mstore\n      swap2\n      0x20\n      add\n      swap2\n      jump(tag_214)\n    tag_215:\n      dup3\n      add\n      swap2\n      swap1\n      0x00\n      mstore\n      keccak256(0x00, 0x20)\n      swap1\n    tag_216:\n      dup2\n      sload\n      dup2\n      mstore\n      swap1\n      0x01\n      add\n      swap1\n      0x20\n      add\n      dup1\n      dup4\n      gt\n      tag_216\n      jumpi\n      dup3\n      swap1\n      sub\n      0x1f\n      and\n      dup3\n      add\n      swap2\n    tag_214:\n      pop\n      pop\n      pop\n      pop\n      pop\n      dup2\n      mstore\n      0x20\n      add\n      0x01\n      dup3\n      add\n      dup1\n      sload\n      tag_217\n      swap1\n      tag_79\n      jump\t// in\n    tag_217:\n      dup1\n      0x1f\n      add\n      0x20\n      dup1\n      swap2\n      div\n      mul\n      0x20\n      add\n      mload(0x40)\n      swap1\n      dup2\n      add\n      0x40\n      mstore\n      dup1\n      swap3\n      swap2\n      swap1\n      dup2\n      dup2\n      mstore\n      0x20\n      add\n      dup3\n      dup1\n      sload\n      tag_218\n      swap1\n      tag_79\n      jump\t// in\n    tag_218:\n      dup1\n      iszero\n      tag_219\n      jumpi\n      dup1\n      0x1f\n      lt\n      tag_220\n      jumpi\n      0x0100\n      dup1\n      dup4\n      sload\n      div\n      mul\n      dup4\n      mstore\n      swap2\n      0x20\n      add\n      swap2\n      jump(tag_219)\n    tag_220:\n      dup3\n      add\n      swap2\n      swap1\n      0x00\n      mstore\n      keccak256(0x00, 0x20)\n      swap1\n    tag_221:\n      dup2\n      sload\n      dup2\n      mstore\n      swap1\n      0x01\n      add\n      swap1\n      0x20\n      add\n      dup1\n      dup4\n      gt\n      tag_221\n      jumpi\n      dup3\n      swap1\n      sub\n      0x1f\n      and\n      dup3\n      add\n      swap2\n    tag_219:\n      pop\n      pop\n      pop\n      pop\n      pop\n      dup2\n      mstore\n      0x20\n      add\n      0x02\n      dup3\n      add\n      dup1\n      sload\n      tag_222\n      swap1\n      tag_79\n      jump\t// in\n    tag_222:\n      dup1\n      0x1f\n      add\n      0x20\n      dup1\n      swap2\n      div\n      mul\n      0x20\n      add\n      mload(0x40)\n      swap1\n      dup2\n      add\n      0x40\n      mstore\n      dup1\n      swap3\n      swap2\n      swap1\n      dup2\n      dup2\n      mstore\n      0x20\n      add\n      dup3\n      dup1\n      sload\n      tag_223\n      swap1\n      tag_79\n      jump\t// in\n    tag_223:\n      dup1\n      iszero\n      tag_224\n      jumpi\n      dup1\n      0x1f\n      lt\n      tag_225\n      jumpi\n      0x0100\n      dup1\n      dup4\n      sload\n      div\n      mul\n      dup4\n      mstore\n      swap2\n      0x20\n      add\n      swap2\n      jump(tag_224)\n    tag_225:\n      dup3\n      add\n      swap2\n      swap1\n      0x00\n      mstore\n      keccak256(0x00, 0x20)\n      swap1\n    tag_226:\n      dup2\n      sload\n      dup2\n      mstore\n      swap1\n      0x01\n      add\n      swap1\n      0x20\n      add\n      dup1\n      dup4\n      gt\n      tag_226\n      jumpi\n      dup3\n      swap1\n      sub\n      0x1f\n      and\n      dup3\n      add\n      swap2\n    tag_224:\n      pop\n      pop\n      pop\n      pop\n      pop\n      dup2\n      mstore\n      0x20\n      add\n      0x03\n      dup3\n      add\n      sload\n      dup2\n      mstore\n      0x20\n      add\n      0x04\n      dup3\n      add\n      sload\n      dup2\n      mstore\n      0x20\n      add\n      0x05\n      dup3\n      add\n      sload\n      dup2\n      mstore\n      0x20\n      add\n      0x06\n      dup3\n      add\n      sload\n      dup2\n      mstore\n      0x20\n      add\n      0x07\n      dup3\n      add\n      0x00\n      swap1\n      sload\n      swap1\n      0x0100\n      exp\n      swap1\n      div\n      0xff\n      and\n      iszero\n      iszero\n      iszero\n      iszero\n      dup2\n      mstore\n      0x20\n      add\n      0x07\n      dup3\n      add\n      0x01\n      swap1\n      sload\n      swap1\n      0x0100\n      exp\n      swap1\n      div\n      0xff\n      and\n      iszero\n      iszero\n      iszero\n      iszero\n      dup2\n      mstore\n      0x20\n      add\n      0x07\n      dup3\n      add\n      0x02\n      swap1\n      sload\n      swap1\n      0x0100\n      exp\n      swap1\n      div\n      0xff\n      and\n      iszero\n      iszero\n      iszero\n      iszero\n      dup2\n      mstore\n      pop\n      pop\n      swap1\n      pop\n        /* \"wwcc-contracts/contracts/wwccPool.sol\":4108:4122  uint256 expect */\n      0x00\n        /* \"wwcc-contracts/contracts/wwccPool.sol\":4125:4187  (pool.wPool+pool.lPool+pool.dPool+pool.sPool).mul(10).div(100) */\n      tag_227\n        /* \"wwcc-contracts/contracts/wwccPool.sol\":4183:4186  100 */\n      0x64\n        /* \"wwcc-contracts/contracts/wwccPool.sol\":4125:4178  (pool.wPool+pool.lPool+pool.dPool+pool.sPool).mul(10) */\n      tag_228\n        /* \"wwcc-contracts/contracts/wwccPool.sol\":4175:4177  10 */\n      0x0a\n        /* \"wwcc-contracts/contracts/wwccPool.sol\":4159:4163  pool */\n      dup6\n        /* \"wwcc-contracts/contracts/wwccPool.sol\":4159:4169  pool.sPool */\n      0xc0\n      add\n      mload\n        /* \"wwcc-contracts/contracts/wwccPool.sol\":4148:4152  pool */\n      dup7\n        /* \"wwcc-contracts/contracts/wwccPool.sol\":4148:4158  pool.dPool */\n      0x80\n      add\n      mload\n        /* \"wwcc-contracts/contracts/wwccPool.sol\":4137:4141  pool */\n      dup8\n        /* \"wwcc-contracts/contracts/wwccPool.sol\":4137:4147  pool.lPool */\n      0xa0\n      add\n      mload\n        /* \"wwcc-contracts/contracts/wwccPool.sol\":4126:4130  pool */\n      dup9\n        /* \"wwcc-contracts/contracts/wwccPool.sol\":4126:4136  pool.wPool */\n      0x60\n      add\n      mload\n        /* \"wwcc-contracts/contracts/wwccPool.sol\":4126:4147  pool.wPool+pool.lPool */\n      tag_229\n      swap2\n      swap1\n      tag_16\n      jump\t// in\n    tag_229:\n        /* \"wwcc-contracts/contracts/wwccPool.sol\":4126:4158  pool.wPool+pool.lPool+pool.dPool */\n      tag_230\n      swap2\n      swap1\n      tag_16\n      jump\t// in\n    tag_230:\n        /* \"wwcc-contracts/contracts/wwccPool.sol\":4126:4169  pool.wPool+pool.lPool+pool.dPool+pool.sPool */\n      tag_231\n      swap2\n      swap1\n      tag_16\n      jump\t// in\n    tag_231:\n        /* \"wwcc-contracts/contracts/wwccPool.sol\":4125:4174  (pool.wPool+pool.lPool+pool.dPool+pool.sPool).mul */\n      tag_99\n      swap1\n        /* \"wwcc-contracts/contracts/wwccPool.sol\":4125:4178  (pool.wPool+pool.lPool+pool.dPool+pool.sPool).mul(10) */\n      swap2\n      swap1\n      0xffffffff\n      and\n      jump\t// in\n    tag_228:\n        /* \"wwcc-contracts/contracts/wwccPool.sol\":4125:4182  (pool.wPool+pool.lPool+pool.dPool+pool.sPool).mul(10).div */\n      tag_100\n      swap1\n        /* \"wwcc-contracts/contracts/wwccPool.sol\":4125:4187  (pool.wPool+pool.lPool+pool.dPool+pool.sPool).mul(10).div(100) */\n      swap2\n      swap1\n      0xffffffff\n      and\n      jump\t// in\n    tag_227:\n        /* \"wwcc-contracts/contracts/wwccPool.sol\":4108:4187  uint256 expect = (pool.wPool+pool.lPool+pool.dPool+pool.sPool).mul(10).div(100) */\n      swap1\n      pop\n        /* \"wwcc-contracts/contracts/wwccPool.sol\":4207:4211  true */\n      0x01\n        /* \"wwcc-contracts/contracts/wwccPool.sol\":4200:4211  return true */\n      swap3\n      pop\n      pop\n      pop\n        /* \"wwcc-contracts/contracts/wwccPool.sol\":3886:4228  function Set_Basal(bytes32 poolKey) external onlyManager  returns (bool){... */\n      swap2\n      swap1\n      pop\n      jump\t// out\n        /* \"wwcc-contracts/contracts/wwccPool.sol\":5617:8969  function Award(bytes32 poolKey,uint256 homeScore,uint256 visitScore,uint256 result)  external onlyManager  payable returns(bool){... */\n    tag_54:\n        /* \"wwcc-contracts/contracts/wwccPool.sol\":5740:5744  bool */\n      0x00\n        /* \"wwcc-contracts/contracts/wwccPool.sol\":11391:11396  owner */\n      dup1\n      0x00\n      swap1\n      sload\n      swap1\n      0x0100\n      exp\n      swap1\n      div\n      0xffffffffffffffffffffffffffffffffffffffff\n      and\n        /* \"wwcc-contracts/contracts/wwccPool.sol\":11377:11396  msg.sender == owner */\n      0xffffffffffffffffffffffffffffffffffffffff\n      and\n        /* \"wwcc-contracts/contracts/wwccPool.sol\":11377:11387  msg.sender */\n      caller\n        /* \"wwcc-contracts/contracts/wwccPool.sol\":11377:11396  msg.sender == owner */\n      0xffffffffffffffffffffffffffffffffffffffff\n      and\n      eq\n        /* \"wwcc-contracts/contracts/wwccPool.sol\":11356:11447  require(... */\n      tag_233\n      jumpi\n      mload(0x40)\n      0x08c379a000000000000000000000000000000000000000000000000000000000\n      dup2\n      mstore\n      0x04\n      add\n      tag_234\n      swap1\n      tag_70\n      jump\t// in\n    tag_234:\n      mload(0x40)\n      dup1\n      swap2\n      sub\n      swap1\n      revert\n    tag_233:\n        /* \"wwcc-contracts/contracts/wwccPool.sol\":5759:5776  contains(poolKey) */\n      tag_236\n        /* \"wwcc-contracts/contracts/wwccPool.sol\":5768:5775  poolKey */\n      dup6\n        /* \"wwcc-contracts/contracts/wwccPool.sol\":5759:5767  contains */\n      tag_73\n        /* \"wwcc-contracts/contracts/wwccPool.sol\":5759:5776  contains(poolKey) */\n      jump\t// in\n    tag_236:\n        /* \"wwcc-contracts/contracts/wwccPool.sol\":5755:8943  if(!contains(poolKey)) { ... */\n      tag_237\n      jumpi\n        /* \"wwcc-contracts/contracts/wwccPool.sol\":5793:5817  revert(\"pool not exist\") */\n      mload(0x40)\n      0x08c379a000000000000000000000000000000000000000000000000000000000\n      dup2\n      mstore\n      0x04\n      add\n      tag_238\n      swap1\n      tag_76\n      jump\t// in\n    tag_238:\n      mload(0x40)\n      dup1\n      swap2\n      sub\n      swap1\n      revert\n        /* \"wwcc-contracts/contracts/wwccPool.sol\":5755:8943  if(!contains(poolKey)) { ... */\n    tag_237:\n        /* \"wwcc-contracts/contracts/wwccPool.sol\":5844:5862  WcPool memory pool */\n      0x00\n        /* \"wwcc-contracts/contracts/wwccPool.sol\":5865:5872  WcPools */\n      0x06\n        /* \"wwcc-contracts/contracts/wwccPool.sol\":5865:5881  WcPools[poolKey] */\n      0x00\n        /* \"wwcc-contracts/contracts/wwccPool.sol\":5873:5880  poolKey */\n      dup8\n        /* \"wwcc-contracts/contracts/wwccPool.sol\":5865:5881  WcPools[poolKey] */\n      dup2\n      mstore\n      0x20\n      add\n      swap1\n      dup2\n      mstore\n      0x20\n      add\n      0x00\n      keccak256\n        /* \"wwcc-contracts/contracts/wwccPool.sol\":5844:5881  WcPool memory pool = WcPools[poolKey] */\n      mload(0x40)\n      dup1\n      0x0140\n      add\n      0x40\n      mstore\n      swap1\n      dup2\n      0x00\n      dup3\n      add\n      dup1\n      sload\n      tag_240\n      swap1\n      tag_79\n      jump\t// in\n    tag_240:\n      dup1\n      0x1f\n      add\n      0x20\n      dup1\n      swap2\n      div\n      mul\n      0x20\n      add\n      mload(0x40)\n      swap1\n      dup2\n      add\n      0x40\n      mstore\n      dup1\n      swap3\n      swap2\n      swap1\n      dup2\n      dup2\n      mstore\n      0x20\n      add\n      dup3\n      dup1\n      sload\n      tag_241\n      swap1\n      tag_79\n      jump\t// in\n    tag_241:\n      dup1\n      iszero\n      tag_242\n      jumpi\n      dup1\n      0x1f\n      lt\n      tag_243\n      jumpi\n      0x0100\n      dup1\n      dup4\n      sload\n      div\n      mul\n      dup4\n      mstore\n      swap2\n      0x20\n      add\n      swap2\n      jump(tag_242)\n    tag_243:\n      dup3\n      add\n      swap2\n      swap1\n      0x00\n      mstore\n      keccak256(0x00, 0x20)\n      swap1\n    tag_244:\n      dup2\n      sload\n      dup2\n      mstore\n      swap1\n      0x01\n      add\n      swap1\n      0x20\n      add\n      dup1\n      dup4\n      gt\n      tag_244\n      jumpi\n      dup3\n      swap1\n      sub\n      0x1f\n      and\n      dup3\n      add\n      swap2\n    tag_242:\n      pop\n      pop\n      pop\n      pop\n      pop\n      dup2\n      mstore\n      0x20\n      add\n      0x01\n      dup3\n      add\n      dup1\n      sload\n      tag_245\n      swap1\n      tag_79\n      jump\t// in\n    tag_245:\n      dup1\n      0x1f\n      add\n      0x20\n      dup1\n      swap2\n      div\n      mul\n      0x20\n      add\n      mload(0x40)\n      swap1\n      dup2\n      add\n      0x40\n      mstore\n      dup1\n      swap3\n      swap2\n      swap1\n      dup2\n      dup2\n      mstore\n      0x20\n      add\n      dup3\n      dup1\n      sload\n      tag_246\n      swap1\n      tag_79\n      jump\t// in\n    tag_246:\n      dup1\n      iszero\n      tag_247\n      jumpi\n      dup1\n      0x1f\n      lt\n      tag_248\n      jumpi\n      0x0100\n      dup1\n      dup4\n      sload\n      div\n      mul\n      dup4\n      mstore\n      swap2\n      0x20\n      add\n      swap2\n      jump(tag_247)\n    tag_248:\n      dup3\n      add\n      swap2\n      swap1\n      0x00\n      mstore\n      keccak256(0x00, 0x20)\n      swap1\n    tag_249:\n      dup2\n      sload\n      dup2\n      mstore\n      swap1\n      0x01\n      add\n      swap1\n      0x20\n      add\n      dup1\n      dup4\n      gt\n      tag_249\n      jumpi\n      dup3\n      swap1\n      sub\n      0x1f\n      and\n      dup3\n      add\n      swap2\n    tag_247:\n      pop\n      pop\n      pop\n      pop\n      pop\n      dup2\n      mstore\n      0x20\n      add\n      0x02\n      dup3\n      add\n      dup1\n      sload\n      tag_250\n      swap1\n      tag_79\n      jump\t// in\n    tag_250:\n      dup1\n      0x1f\n      add\n      0x20\n      dup1\n      swap2\n      div\n      mul\n      0x20\n      add\n      mload(0x40)\n      swap1\n      dup2\n      add\n      0x40\n      mstore\n      dup1\n      swap3\n      swap2\n      swap1\n      dup2\n      dup2\n      mstore\n      0x20\n      add\n      dup3\n      dup1\n      sload\n      tag_251\n      swap1\n      tag_79\n      jump\t// in\n    tag_251:\n      dup1\n      iszero\n      tag_252\n      jumpi\n      dup1\n      0x1f\n      lt\n      tag_253\n      jumpi\n      0x0100\n      dup1\n      dup4\n      sload\n      div\n      mul\n      dup4\n      mstore\n      swap2\n      0x20\n      add\n      swap2\n      jump(tag_252)\n    tag_253:\n      dup3\n      add\n      swap2\n      swap1\n      0x00\n      mstore\n      keccak256(0x00, 0x20)\n      swap1\n    tag_254:\n      dup2\n      sload\n      dup2\n      mstore\n      swap1\n      0x01\n      add\n      swap1\n      0x20\n      add\n      dup1\n      dup4\n      gt\n      tag_254\n      jumpi\n      dup3\n      swap1\n      sub\n      0x1f\n      and\n      dup3\n      add\n      swap2\n    tag_252:\n      pop\n      pop\n      pop\n      pop\n      pop\n      dup2\n      mstore\n      0x20\n      add\n      0x03\n      dup3\n      add\n      sload\n      dup2\n      mstore\n      0x20\n      add\n      0x04\n      dup3\n      add\n      sload\n      dup2\n      mstore\n      0x20\n      add\n      0x05\n      dup3\n      add\n      sload\n      dup2\n      mstore\n      0x20\n      add\n      0x06\n      dup3\n      add\n      sload\n      dup2\n      mstore\n      0x20\n      add\n      0x07\n      dup3\n      add\n      0x00\n      swap1\n      sload\n      swap1\n      0x0100\n      exp\n      swap1\n      div\n      0xff\n      and\n      iszero\n      iszero\n      iszero\n      iszero\n      dup2\n      mstore\n      0x20\n      add\n      0x07\n      dup3\n      add\n      0x01\n      swap1\n      sload\n      swap1\n      0x0100\n      exp\n      swap1\n      div\n      0xff\n      and\n      iszero\n      iszero\n      iszero\n      iszero\n      dup2\n      mstore\n      0x20\n      add\n      0x07\n      dup3\n      add\n      0x02\n      swap1\n      sload\n      swap1\n      0x0100\n      exp\n      swap1\n      div\n      0xff\n      and\n      iszero\n      iszero\n      iszero\n      iszero\n      dup2\n      mstore\n      pop\n      pop\n      swap1\n      pop\n        /* \"wwcc-contracts/contracts/wwccPool.sol\":5894:5929  JoinerPicking[] memory separateBets */\n      0x00\n        /* \"wwcc-contracts/contracts/wwccPool.sol\":5932:5948  allScorePoolInfo */\n      0x02\n        /* \"wwcc-contracts/contracts/wwccPool.sol\":5932:5957  allScorePoolInfo[poolKey] */\n      0x00\n        /* \"wwcc-contracts/contracts/wwccPool.sol\":5949:5956  poolKey */\n      dup9\n        /* \"wwcc-contracts/contracts/wwccPool.sol\":5932:5957  allScorePoolInfo[poolKey] */\n      dup2\n      mstore\n      0x20\n      add\n      swap1\n      dup2\n      mstore\n      0x20\n      add\n      0x00\n      keccak256\n        /* \"wwcc-contracts/contracts/wwccPool.sol\":5932:5969  allScorePoolInfo[poolKey].separateBet */\n      0x00\n      add\n        /* \"wwcc-contracts/contracts/wwccPool.sol\":5894:5969  JoinerPicking[] memory separateBets = allScorePoolInfo[poolKey].separateBet */\n      dup1\n      sload\n      dup1\n      0x20\n      mul\n      0x20\n      add\n      mload(0x40)\n      swap1\n      dup2\n      add\n      0x40\n      mstore\n      dup1\n      swap3\n      swap2\n      swap1\n      dup2\n      dup2\n      mstore\n      0x20\n      add\n      0x00\n      swap1\n    tag_255:\n      dup3\n      dup3\n      lt\n      iszero\n      tag_256\n      jumpi\n      dup4\n      dup3\n      swap1\n      0x00\n      mstore\n      keccak256(0x00, 0x20)\n      swap1\n      0x07\n      mul\n      add\n      mload(0x40)\n      dup1\n      0xe0\n      add\n      0x40\n      mstore\n      swap1\n      dup2\n      0x00\n      dup3\n      add\n      sload\n      dup2\n      mstore\n      0x20\n      add\n      0x01\n      dup3\n      add\n      sload\n      dup2\n      mstore\n      0x20\n      add\n      0x02\n      dup3\n      add\n      sload\n      dup2\n      mstore\n      0x20\n      add\n      0x03\n      dup3\n      add\n      sload\n      dup2\n      mstore\n      0x20\n      add\n      0x04\n      dup3\n      add\n      0x00\n      swap1\n      sload\n      swap1\n      0x0100\n      exp\n      swap1\n      div\n      0xffffffffffffffffffffffffffffffffffffffff\n      and\n      0xffffffffffffffffffffffffffffffffffffffff\n      and\n      0xffffffffffffffffffffffffffffffffffffffff\n      and\n      dup2\n      mstore\n      0x20\n      add\n      0x05\n      dup3\n      add\n      dup1\n      sload\n      tag_258\n      swap1\n      tag_79\n      jump\t// in\n    tag_258:\n      dup1\n      0x1f\n      add\n      0x20\n      dup1\n      swap2\n      div\n      mul\n      0x20\n      add\n      mload(0x40)\n      swap1\n      dup2\n      add\n      0x40\n      mstore\n      dup1\n      swap3\n      swap2\n      swap1\n      dup2\n      dup2\n      mstore\n      0x20\n      add\n      dup3\n      dup1\n      sload\n      tag_259\n      swap1\n      tag_79\n      jump\t// in\n    tag_259:\n      dup1\n      iszero\n      tag_260\n      jumpi\n      dup1\n      0x1f\n      lt\n      tag_261\n      jumpi\n      0x0100\n      dup1\n      dup4\n      sload\n      div\n      mul\n      dup4\n      mstore\n      swap2\n      0x20\n      add\n      swap2\n      jump(tag_260)\n    tag_261:\n      dup3\n      add\n      swap2\n      swap1\n      0x00\n      mstore\n      keccak256(0x00, 0x20)\n      swap1\n    tag_262:\n      dup2\n      sload\n      dup2\n      mstore\n      swap1\n      0x01\n      add\n      swap1\n      0x20\n      add\n      dup1\n      dup4\n      gt\n      tag_262\n      jumpi\n      dup3\n      swap1\n      sub\n      0x1f\n      and\n      dup3\n      add\n      swap2\n    tag_260:\n      pop\n      pop\n      pop\n      pop\n      pop\n      dup2\n      mstore\n      0x20\n      add\n      0x06\n      dup3\n      add\n      0x00\n      swap1\n      sload\n      swap1\n      0x0100\n      exp\n      swap1\n      div\n      0xff\n      and\n      iszero\n      iszero\n      iszero\n      iszero\n      dup2\n      mstore\n      pop\n      pop\n      dup2\n      mstore\n      0x20\n      add\n      swap1\n      0x01\n      add\n      swap1\n      jump(tag_255)\n    tag_256:\n      pop\n      pop\n      pop\n      pop\n      swap1\n      pop\n        /* \"wwcc-contracts/contracts/wwccPool.sol\":5982:6005  uint256 allRewardAmount */\n      0x00\n        /* \"wwcc-contracts/contracts/wwccPool.sol\":6317:6323  uint j */\n      dup1\n        /* \"wwcc-contracts/contracts/wwccPool.sol\":6295:8771  for (... */\n    tag_263:\n        /* \"wwcc-contracts/contracts/wwccPool.sol\":6370:6371  1 */\n      0x01\n        /* \"wwcc-contracts/contracts/wwccPool.sol\":6350:6362  separateBets */\n      dup4\n        /* \"wwcc-contracts/contracts/wwccPool.sol\":6350:6369  separateBets.length */\n      mload\n        /* \"wwcc-contracts/contracts/wwccPool.sol\":6350:6371  separateBets.length-1 */\n      tag_266\n      swap2\n      swap1\n      tag_203\n      jump\t// in\n    tag_266:\n        /* \"wwcc-contracts/contracts/wwccPool.sol\":6345:6346  j */\n      dup2\n        /* \"wwcc-contracts/contracts/wwccPool.sol\":6345:6371  j <= separateBets.length-1 */\n      gt\n        /* \"wwcc-contracts/contracts/wwccPool.sol\":6295:8771  for (... */\n      tag_264\n      jumpi\n        /* \"wwcc-contracts/contracts/wwccPool.sol\":6461:6466  false */\n      0x00\n        /* \"wwcc-contracts/contracts/wwccPool.sol\":6434:6446  separateBets */\n      dup4\n        /* \"wwcc-contracts/contracts/wwccPool.sol\":6447:6448  j */\n      dup3\n        /* \"wwcc-contracts/contracts/wwccPool.sol\":6434:6449  separateBets[j] */\n      dup2\n      mload\n      dup2\n      lt\n      tag_267\n      jumpi\n      tag_268\n      tag_269\n      jump\t// in\n    tag_268:\n    tag_267:\n      0x20\n      mul\n      0x20\n      add\n      add\n      mload\n        /* \"wwcc-contracts/contracts/wwccPool.sol\":6434:6458  separateBets[j].finished */\n      0xc0\n      add\n        /* \"wwcc-contracts/contracts/wwccPool.sol\":6434:6466  separateBets[j].finished = false */\n      swap1\n      iszero\n      iszero\n      swap1\n      dup2\n      iszero\n      iszero\n      dup2\n      mstore\n      pop\n        /* \"wwcc-contracts/contracts/wwccPool.sol\":6431:8751  if(separateBets[j].finished = false){... */\n      iszero\n      tag_270\n      jumpi\n        /* \"wwcc-contracts/contracts/wwccPool.sol\":6516:6517  2 */\n      0x02\n        /* \"wwcc-contracts/contracts/wwccPool.sol\":6494:6506  separateBets */\n      dup4\n        /* \"wwcc-contracts/contracts/wwccPool.sol\":6507:6508  j */\n      dup3\n        /* \"wwcc-contracts/contracts/wwccPool.sol\":6494:6509  separateBets[j] */\n      dup2\n      mload\n      dup2\n      lt\n      tag_271\n      jumpi\n      tag_272\n      tag_269\n      jump\t// in\n    tag_272:\n    tag_271:\n      0x20\n      mul\n      0x20\n      add\n      add\n      mload\n        /* \"wwcc-contracts/contracts/wwccPool.sol\":6494:6514  separateBets[j].kind */\n      0x20\n      add\n      mload\n        /* \"wwcc-contracts/contracts/wwccPool.sol\":6494:6517  separateBets[j].kind==2 */\n      eq\n        /* \"wwcc-contracts/contracts/wwccPool.sol\":6491:8731  if(separateBets[j].kind==2){... */\n      iszero\n      tag_273\n      jumpi\n        /* \"wwcc-contracts/contracts/wwccPool.sol\":6564:6591  pool.sPool.mul(85).div(100) */\n      tag_274\n        /* \"wwcc-contracts/contracts/wwccPool.sol\":6587:6590  100 */\n      0x64\n        /* \"wwcc-contracts/contracts/wwccPool.sol\":6564:6582  pool.sPool.mul(85) */\n      tag_275\n        /* \"wwcc-contracts/contracts/wwccPool.sol\":6579:6581  85 */\n      0x55\n        /* \"wwcc-contracts/contracts/wwccPool.sol\":6564:6568  pool */\n      dup8\n        /* \"wwcc-contracts/contracts/wwccPool.sol\":6564:6574  pool.sPool */\n      0xc0\n      add\n      mload\n        /* \"wwcc-contracts/contracts/wwccPool.sol\":6564:6578  pool.sPool.mul */\n      tag_99\n      swap1\n        /* \"wwcc-contracts/contracts/wwccPool.sol\":6564:6582  pool.sPool.mul(85) */\n      swap2\n      swap1\n      0xffffffff\n      and\n      jump\t// in\n    tag_275:\n        /* \"wwcc-contracts/contracts/wwccPool.sol\":6564:6586  pool.sPool.mul(85).div */\n      tag_100\n      swap1\n        /* \"wwcc-contracts/contracts/wwccPool.sol\":6564:6591  pool.sPool.mul(85).div(100) */\n      swap2\n      swap1\n      0xffffffff\n      and\n      jump\t// in\n    tag_274:\n        /* \"wwcc-contracts/contracts/wwccPool.sol\":6546:6591  allRewardAmount = pool.sPool.mul(85).div(100) */\n      swap2\n      pop\n        /* \"wwcc-contracts/contracts/wwccPool.sol\":6646:6655  homeScore */\n      dup8\n        /* \"wwcc-contracts/contracts/wwccPool.sol\":6619:6631  separateBets */\n      dup4\n        /* \"wwcc-contracts/contracts/wwccPool.sol\":6632:6633  j */\n      dup3\n        /* \"wwcc-contracts/contracts/wwccPool.sol\":6619:6634  separateBets[j] */\n      dup2\n      mload\n      dup2\n      lt\n      tag_276\n      jumpi\n      tag_277\n      tag_269\n      jump\t// in\n    tag_277:\n    tag_276:\n      0x20\n      mul\n      0x20\n      add\n      add\n      mload\n        /* \"wwcc-contracts/contracts/wwccPool.sol\":6619:6644  separateBets[j].homeScore */\n      0x40\n      add\n      mload\n        /* \"wwcc-contracts/contracts/wwccPool.sol\":6619:6655  separateBets[j].homeScore==homeScore */\n      eq\n        /* \"wwcc-contracts/contracts/wwccPool.sol\":6619:6697  separateBets[j].homeScore==homeScore && separateBets[j].visitScore==visitScore */\n      dup1\n      iszero\n      tag_278\n      jumpi\n      pop\n        /* \"wwcc-contracts/contracts/wwccPool.sol\":6687:6697  visitScore */\n      dup7\n        /* \"wwcc-contracts/contracts/wwccPool.sol\":6659:6671  separateBets */\n      dup4\n        /* \"wwcc-contracts/contracts/wwccPool.sol\":6672:6673  j */\n      dup3\n        /* \"wwcc-contracts/contracts/wwccPool.sol\":6659:6674  separateBets[j] */\n      dup2\n      mload\n      dup2\n      lt\n      tag_279\n      jumpi\n      tag_280\n      tag_269\n      jump\t// in\n    tag_280:\n    tag_279:\n      0x20\n      mul\n      0x20\n      add\n      add\n      mload\n        /* \"wwcc-contracts/contracts/wwccPool.sol\":6659:6685  separateBets[j].visitScore */\n      0x60\n      add\n      mload\n        /* \"wwcc-contracts/contracts/wwccPool.sol\":6659:6697  separateBets[j].visitScore==visitScore */\n      eq\n        /* \"wwcc-contracts/contracts/wwccPool.sol\":6619:6697  separateBets[j].homeScore==homeScore && separateBets[j].visitScore==visitScore */\n    tag_278:\n        /* \"wwcc-contracts/contracts/wwccPool.sol\":6615:7413  if (separateBets[j].homeScore==homeScore && separateBets[j].visitScore==visitScore){... */\n      iszero\n      tag_281\n      jumpi\n        /* \"wwcc-contracts/contracts/wwccPool.sol\":6726:6755  uint256 singleScorePoolAmount */\n      0x00\n        /* \"wwcc-contracts/contracts/wwccPool.sol\":6758:6773  singleScorePool */\n      0x03\n        /* \"wwcc-contracts/contracts/wwccPool.sol\":6774:6786  separateBets */\n      dup5\n        /* \"wwcc-contracts/contracts/wwccPool.sol\":6787:6788  j */\n      dup4\n        /* \"wwcc-contracts/contracts/wwccPool.sol\":6774:6789  separateBets[j] */\n      dup2\n      mload\n      dup2\n      lt\n      tag_282\n      jumpi\n      tag_283\n      tag_269\n      jump\t// in\n    tag_283:\n    tag_282:\n      0x20\n      mul\n      0x20\n      add\n      add\n      mload\n        /* \"wwcc-contracts/contracts/wwccPool.sol\":6774:6800  separateBets[j].pickingKey */\n      0xa0\n      add\n      mload\n        /* \"wwcc-contracts/contracts/wwccPool.sol\":6758:6801  singleScorePool[separateBets[j].pickingKey] */\n      mload(0x40)\n      tag_284\n      swap2\n      swap1\n      tag_115\n      jump\t// in\n    tag_284:\n      swap1\n      dup2\n      mstore\n      0x20\n      add\n      mload(0x40)\n      dup1\n      swap2\n      sub\n      swap1\n      keccak256\n      sload\n        /* \"wwcc-contracts/contracts/wwccPool.sol\":6726:6801  uint256 singleScorePoolAmount = singleScorePool[separateBets[j].pickingKey] */\n      swap1\n      pop\n        /* \"wwcc-contracts/contracts/wwccPool.sol\":6829:6849  uint256 rewardAmount */\n      0x00\n        /* \"wwcc-contracts/contracts/wwccPool.sol\":6896:6917  singleScorePoolAmount */\n      dup2\n        /* \"wwcc-contracts/contracts/wwccPool.sol\":6870:6882  separateBets */\n      dup6\n        /* \"wwcc-contracts/contracts/wwccPool.sol\":6883:6884  j */\n      dup5\n        /* \"wwcc-contracts/contracts/wwccPool.sol\":6870:6885  separateBets[j] */\n      dup2\n      mload\n      dup2\n      lt\n      tag_285\n      jumpi\n      tag_286\n      tag_269\n      jump\t// in\n    tag_286:\n    tag_285:\n      0x20\n      mul\n      0x20\n      add\n      add\n      mload\n        /* \"wwcc-contracts/contracts/wwccPool.sol\":6870:6892  separateBets[j].weight */\n      0x00\n      add\n      mload\n        /* \"wwcc-contracts/contracts/wwccPool.sol\":6852:6867  allRewardAmount */\n      dup6\n        /* \"wwcc-contracts/contracts/wwccPool.sol\":6852:6892  allRewardAmount * separateBets[j].weight */\n      tag_287\n      swap2\n      swap1\n      tag_288\n      jump\t// in\n    tag_287:\n        /* \"wwcc-contracts/contracts/wwccPool.sol\":6852:6917  allRewardAmount * separateBets[j].weight /  singleScorePoolAmount */\n      tag_289\n      swap2\n      swap1\n      tag_290\n      jump\t// in\n    tag_289:\n        /* \"wwcc-contracts/contracts/wwccPool.sol\":6829:6917  uint256 rewardAmount = allRewardAmount * separateBets[j].weight /  singleScorePoolAmount */\n      swap1\n      pop\n        /* \"wwcc-contracts/contracts/wwccPool.sol\":7289:7301  rewardAmount */\n      dup1\n        /* \"wwcc-contracts/contracts/wwccPool.sol\":7251:7261  voteAmount */\n      0x05\n        /* \"wwcc-contracts/contracts/wwccPool.sol\":7251:7285  voteAmount[separateBets[j].joiner] */\n      0x00\n        /* \"wwcc-contracts/contracts/wwccPool.sol\":7262:7274  separateBets */\n      dup8\n        /* \"wwcc-contracts/contracts/wwccPool.sol\":7275:7276  j */\n      dup7\n        /* \"wwcc-contracts/contracts/wwccPool.sol\":7262:7277  separateBets[j] */\n      dup2\n      mload\n      dup2\n      lt\n      tag_291\n      jumpi\n      tag_292\n      tag_269\n      jump\t// in\n    tag_292:\n    tag_291:\n      0x20\n      mul\n      0x20\n      add\n      add\n      mload\n        /* \"wwcc-contracts/contracts/wwccPool.sol\":7262:7284  separateBets[j].joiner */\n      0x80\n      add\n      mload\n        /* \"wwcc-contracts/contracts/wwccPool.sol\":7251:7285  voteAmount[separateBets[j].joiner] */\n      0xffffffffffffffffffffffffffffffffffffffff\n      and\n      0xffffffffffffffffffffffffffffffffffffffff\n      and\n      dup2\n      mstore\n      0x20\n      add\n      swap1\n      dup2\n      mstore\n      0x20\n      add\n      0x00\n      keccak256\n      0x00\n        /* \"wwcc-contracts/contracts/wwccPool.sol\":7251:7301  voteAmount[separateBets[j].joiner] += rewardAmount */\n      dup3\n      dup3\n      sload\n      tag_293\n      swap2\n      swap1\n      tag_16\n      jump\t// in\n    tag_293:\n      swap3\n      pop\n      pop\n      dup2\n      swap1\n      sstore\n      pop\n        /* \"wwcc-contracts/contracts/wwccPool.sol\":7356:7360  true */\n      0x01\n        /* \"wwcc-contracts/contracts/wwccPool.sol\":7329:7341  separateBets */\n      dup6\n        /* \"wwcc-contracts/contracts/wwccPool.sol\":7342:7343  j */\n      dup5\n        /* \"wwcc-contracts/contracts/wwccPool.sol\":7329:7344  separateBets[j] */\n      dup2\n      mload\n      dup2\n      lt\n      tag_294\n      jumpi\n      tag_295\n      tag_269\n      jump\t// in\n    tag_295:\n    tag_294:\n      0x20\n      mul\n      0x20\n      add\n      add\n      mload\n        /* \"wwcc-contracts/contracts/wwccPool.sol\":7329:7353  separateBets[j].finished */\n      0xc0\n      add\n        /* \"wwcc-contracts/contracts/wwccPool.sol\":7329:7360  separateBets[j].finished = true */\n      swap1\n      iszero\n      iszero\n      swap1\n      dup2\n      iszero\n      iszero\n      dup2\n      mstore\n      pop\n      pop\n        /* \"wwcc-contracts/contracts/wwccPool.sol\":6698:7413  {... */\n      pop\n      pop\n        /* \"wwcc-contracts/contracts/wwccPool.sol\":6615:7413  if (separateBets[j].homeScore==homeScore && separateBets[j].visitScore==visitScore){... */\n    tag_281:\n        /* \"wwcc-contracts/contracts/wwccPool.sol\":6491:8731  if(separateBets[j].kind==2){... */\n      jump(tag_296)\n    tag_273:\n        /* \"wwcc-contracts/contracts/wwccPool.sol\":7488:7494  result */\n      dup6\n        /* \"wwcc-contracts/contracts/wwccPool.sol\":7466:7478  separateBets */\n      dup4\n        /* \"wwcc-contracts/contracts/wwccPool.sol\":7479:7480  j */\n      dup3\n        /* \"wwcc-contracts/contracts/wwccPool.sol\":7466:7481  separateBets[j] */\n      dup2\n      mload\n      dup2\n      lt\n      tag_297\n      jumpi\n      tag_298\n      tag_269\n      jump\t// in\n    tag_298:\n    tag_297:\n      0x20\n      mul\n      0x20\n      add\n      add\n      mload\n        /* \"wwcc-contracts/contracts/wwccPool.sol\":7466:7486  separateBets[j].kind */\n      0x20\n      add\n      mload\n        /* \"wwcc-contracts/contracts/wwccPool.sol\":7466:7494  separateBets[j].kind==result */\n      eq\n        /* \"wwcc-contracts/contracts/wwccPool.sol\":7463:8709  if(separateBets[j].kind==result){... */\n      iszero\n      tag_299\n      jumpi\n        /* \"wwcc-contracts/contracts/wwccPool.sol\":7541:7592  (pool.wPool+pool.lPool+pool.dPool).mul(85).div(100) */\n      tag_300\n        /* \"wwcc-contracts/contracts/wwccPool.sol\":7588:7591  100 */\n      0x64\n        /* \"wwcc-contracts/contracts/wwccPool.sol\":7541:7583  (pool.wPool+pool.lPool+pool.dPool).mul(85) */\n      tag_301\n        /* \"wwcc-contracts/contracts/wwccPool.sol\":7580:7582  85 */\n      0x55\n        /* \"wwcc-contracts/contracts/wwccPool.sol\":7564:7568  pool */\n      dup8\n        /* \"wwcc-contracts/contracts/wwccPool.sol\":7564:7574  pool.dPool */\n      0x80\n      add\n      mload\n        /* \"wwcc-contracts/contracts/wwccPool.sol\":7553:7557  pool */\n      dup9\n        /* \"wwcc-contracts/contracts/wwccPool.sol\":7553:7563  pool.lPool */\n      0xa0\n      add\n      mload\n        /* \"wwcc-contracts/contracts/wwccPool.sol\":7542:7546  pool */\n      dup10\n        /* \"wwcc-contracts/contracts/wwccPool.sol\":7542:7552  pool.wPool */\n      0x60\n      add\n      mload\n        /* \"wwcc-contracts/contracts/wwccPool.sol\":7542:7563  pool.wPool+pool.lPool */\n      tag_302\n      swap2\n      swap1\n      tag_16\n      jump\t// in\n    tag_302:\n        /* \"wwcc-contracts/contracts/wwccPool.sol\":7542:7574  pool.wPool+pool.lPool+pool.dPool */\n      tag_303\n      swap2\n      swap1\n      tag_16\n      jump\t// in\n    tag_303:\n        /* \"wwcc-contracts/contracts/wwccPool.sol\":7541:7579  (pool.wPool+pool.lPool+pool.dPool).mul */\n      tag_99\n      swap1\n        /* \"wwcc-contracts/contracts/wwccPool.sol\":7541:7583  (pool.wPool+pool.lPool+pool.dPool).mul(85) */\n      swap2\n      swap1\n      0xffffffff\n      and\n      jump\t// in\n    tag_301:\n        /* \"wwcc-contracts/contracts/wwccPool.sol\":7541:7587  (pool.wPool+pool.lPool+pool.dPool).mul(85).div */\n      tag_100\n      swap1\n        /* \"wwcc-contracts/contracts/wwccPool.sol\":7541:7592  (pool.wPool+pool.lPool+pool.dPool).mul(85).div(100) */\n      swap2\n      swap1\n      0xffffffff\n      and\n      jump\t// in\n    tag_300:\n        /* \"wwcc-contracts/contracts/wwccPool.sol\":7523:7592  allRewardAmount = (pool.wPool+pool.lPool+pool.dPool).mul(85).div(100) */\n      swap2\n      pop\n        /* \"wwcc-contracts/contracts/wwccPool.sol\":7620:7642  uint256 pickPoolAmount */\n      0x00\n        /* \"wwcc-contracts/contracts/wwccPool.sol\":7702:7703  0 */\n      dup1\n        /* \"wwcc-contracts/contracts/wwccPool.sol\":7678:7690  separateBets */\n      dup5\n        /* \"wwcc-contracts/contracts/wwccPool.sol\":7691:7692  j */\n      dup4\n        /* \"wwcc-contracts/contracts/wwccPool.sol\":7678:7693  separateBets[j] */\n      dup2\n      mload\n      dup2\n      lt\n      tag_304\n      jumpi\n      tag_305\n      tag_269\n      jump\t// in\n    tag_305:\n    tag_304:\n      0x20\n      mul\n      0x20\n      add\n      add\n      mload\n        /* \"wwcc-contracts/contracts/wwccPool.sol\":7678:7698  separateBets[j].kind */\n      0x20\n      add\n      mload\n        /* \"wwcc-contracts/contracts/wwccPool.sol\":7678:7703  separateBets[j].kind == 0 */\n      eq\n        /* \"wwcc-contracts/contracts/wwccPool.sol\":7674:7809  if (separateBets[j].kind == 0){... */\n      iszero\n      tag_306\n      jumpi\n        /* \"wwcc-contracts/contracts/wwccPool.sol\":7753:7780  pool.lPool.mul(85).div(100) */\n      tag_307\n        /* \"wwcc-contracts/contracts/wwccPool.sol\":7776:7779  100 */\n      0x64\n        /* \"wwcc-contracts/contracts/wwccPool.sol\":7753:7771  pool.lPool.mul(85) */\n      tag_308\n        /* \"wwcc-contracts/contracts/wwccPool.sol\":7768:7770  85 */\n      0x55\n        /* \"wwcc-contracts/contracts/wwccPool.sol\":7753:7757  pool */\n      dup9\n        /* \"wwcc-contracts/contracts/wwccPool.sol\":7753:7763  pool.lPool */\n      0xa0\n      add\n      mload\n        /* \"wwcc-contracts/contracts/wwccPool.sol\":7753:7767  pool.lPool.mul */\n      tag_99\n      swap1\n        /* \"wwcc-contracts/contracts/wwccPool.sol\":7753:7771  pool.lPool.mul(85) */\n      swap2\n      swap1\n      0xffffffff\n      and\n      jump\t// in\n    tag_308:\n        /* \"wwcc-contracts/contracts/wwccPool.sol\":7753:7775  pool.lPool.mul(85).div */\n      tag_100\n      swap1\n        /* \"wwcc-contracts/contracts/wwccPool.sol\":7753:7780  pool.lPool.mul(85).div(100) */\n      swap2\n      swap1\n      0xffffffff\n      and\n      jump\t// in\n    tag_307:\n        /* \"wwcc-contracts/contracts/wwccPool.sol\":7736:7780  pickPoolAmount = pool.lPool.mul(85).div(100) */\n      swap1\n      pop\n        /* \"wwcc-contracts/contracts/wwccPool.sol\":7674:7809  if (separateBets[j].kind == 0){... */\n    tag_306:\n        /* \"wwcc-contracts/contracts/wwccPool.sol\":7864:7865  1 */\n      0x01\n        /* \"wwcc-contracts/contracts/wwccPool.sol\":7840:7852  separateBets */\n      dup5\n        /* \"wwcc-contracts/contracts/wwccPool.sol\":7853:7854  j */\n      dup4\n        /* \"wwcc-contracts/contracts/wwccPool.sol\":7840:7855  separateBets[j] */\n      dup2\n      mload\n      dup2\n      lt\n      tag_309\n      jumpi\n      tag_310\n      tag_269\n      jump\t// in\n    tag_310:\n    tag_309:\n      0x20\n      mul\n      0x20\n      add\n      add\n      mload\n        /* \"wwcc-contracts/contracts/wwccPool.sol\":7840:7860  separateBets[j].kind */\n      0x20\n      add\n      mload\n        /* \"wwcc-contracts/contracts/wwccPool.sol\":7840:7865  separateBets[j].kind == 1 */\n      eq\n        /* \"wwcc-contracts/contracts/wwccPool.sol\":7836:7971  if (separateBets[j].kind == 1){... */\n      iszero\n      tag_311\n      jumpi\n        /* \"wwcc-contracts/contracts/wwccPool.sol\":7915:7942  pool.dPool.mul(85).div(100) */\n      tag_312\n        /* \"wwcc-contracts/contracts/wwccPool.sol\":7938:7941  100 */\n      0x64\n        /* \"wwcc-contracts/contracts/wwccPool.sol\":7915:7933  pool.dPool.mul(85) */\n      tag_313\n        /* \"wwcc-contracts/contracts/wwccPool.sol\":7930:7932  85 */\n      0x55\n        /* \"wwcc-contracts/contracts/wwccPool.sol\":7915:7919  pool */\n      dup9\n        /* \"wwcc-contracts/contracts/wwccPool.sol\":7915:7925  pool.dPool */\n      0x80\n      add\n      mload\n        /* \"wwcc-contracts/contracts/wwccPool.sol\":7915:7929  pool.dPool.mul */\n      tag_99\n      swap1\n        /* \"wwcc-contracts/contracts/wwccPool.sol\":7915:7933  pool.dPool.mul(85) */\n      swap2\n      swap1\n      0xffffffff\n      and\n      jump\t// in\n    tag_313:\n        /* \"wwcc-contracts/contracts/wwccPool.sol\":7915:7937  pool.dPool.mul(85).div */\n      tag_100\n      swap1\n        /* \"wwcc-contracts/contracts/wwccPool.sol\":7915:7942  pool.dPool.mul(85).div(100) */\n      swap2\n      swap1\n      0xffffffff\n      and\n      jump\t// in\n    tag_312:\n        /* \"wwcc-contracts/contracts/wwccPool.sol\":7898:7942  pickPoolAmount = pool.dPool.mul(85).div(100) */\n      swap1\n      pop\n        /* \"wwcc-contracts/contracts/wwccPool.sol\":7836:7971  if (separateBets[j].kind == 1){... */\n    tag_311:\n        /* \"wwcc-contracts/contracts/wwccPool.sol\":8026:8027  3 */\n      0x03\n        /* \"wwcc-contracts/contracts/wwccPool.sol\":8002:8014  separateBets */\n      dup5\n        /* \"wwcc-contracts/contracts/wwccPool.sol\":8015:8016  j */\n      dup4\n        /* \"wwcc-contracts/contracts/wwccPool.sol\":8002:8017  separateBets[j] */\n      dup2\n      mload\n      dup2\n      lt\n      tag_314\n      jumpi\n      tag_315\n      tag_269\n      jump\t// in\n    tag_315:\n    tag_314:\n      0x20\n      mul\n      0x20\n      add\n      add\n      mload\n        /* \"wwcc-contracts/contracts/wwccPool.sol\":8002:8022  separateBets[j].kind */\n      0x20\n      add\n      mload\n        /* \"wwcc-contracts/contracts/wwccPool.sol\":8002:8027  separateBets[j].kind == 3 */\n      eq\n        /* \"wwcc-contracts/contracts/wwccPool.sol\":7998:8133  if (separateBets[j].kind == 3){... */\n      iszero\n      tag_316\n      jumpi\n        /* \"wwcc-contracts/contracts/wwccPool.sol\":8077:8104  pool.wPool.mul(85).div(100) */\n      tag_317\n        /* \"wwcc-contracts/contracts/wwccPool.sol\":8100:8103  100 */\n      0x64\n        /* \"wwcc-contracts/contracts/wwccPool.sol\":8077:8095  pool.wPool.mul(85) */\n      tag_318\n        /* \"wwcc-contracts/contracts/wwccPool.sol\":8092:8094  85 */\n      0x55\n        /* \"wwcc-contracts/contracts/wwccPool.sol\":8077:8081  pool */\n      dup9\n        /* \"wwcc-contracts/contracts/wwccPool.sol\":8077:8087  pool.wPool */\n      0x60\n      add\n      mload\n        /* \"wwcc-contracts/contracts/wwccPool.sol\":8077:8091  pool.wPool.mul */\n      tag_99\n      swap1\n        /* \"wwcc-contracts/contracts/wwccPool.sol\":8077:8095  pool.wPool.mul(85) */\n      swap2\n      swap1\n      0xffffffff\n      and\n      jump\t// in\n    tag_318:\n        /* \"wwcc-contracts/contracts/wwccPool.sol\":8077:8099  pool.wPool.mul(85).div */\n      tag_100\n      swap1\n        /* \"wwcc-contracts/contracts/wwccPool.sol\":8077:8104  pool.wPool.mul(85).div(100) */\n      swap2\n      swap1\n      0xffffffff\n      and\n      jump\t// in\n    tag_317:\n        /* \"wwcc-contracts/contracts/wwccPool.sol\":8060:8104  pickPoolAmount = pool.wPool.mul(85).div(100) */\n      swap1\n      pop\n        /* \"wwcc-contracts/contracts/wwccPool.sol\":7998:8133  if (separateBets[j].kind == 3){... */\n    tag_316:\n        /* \"wwcc-contracts/contracts/wwccPool.sol\":8160:8180  uint256 rewardAmount */\n      0x00\n        /* \"wwcc-contracts/contracts/wwccPool.sol\":8227:8241  pickPoolAmount */\n      dup2\n        /* \"wwcc-contracts/contracts/wwccPool.sol\":8201:8213  separateBets */\n      dup6\n        /* \"wwcc-contracts/contracts/wwccPool.sol\":8214:8215  j */\n      dup5\n        /* \"wwcc-contracts/contracts/wwccPool.sol\":8201:8216  separateBets[j] */\n      dup2\n      mload\n      dup2\n      lt\n      tag_319\n      jumpi\n      tag_320\n      tag_269\n      jump\t// in\n    tag_320:\n    tag_319:\n      0x20\n      mul\n      0x20\n      add\n      add\n      mload\n        /* \"wwcc-contracts/contracts/wwccPool.sol\":8201:8223  separateBets[j].weight */\n      0x00\n      add\n      mload\n        /* \"wwcc-contracts/contracts/wwccPool.sol\":8183:8198  allRewardAmount */\n      dup6\n        /* \"wwcc-contracts/contracts/wwccPool.sol\":8183:8223  allRewardAmount * separateBets[j].weight */\n      tag_321\n      swap2\n      swap1\n      tag_288\n      jump\t// in\n    tag_321:\n        /* \"wwcc-contracts/contracts/wwccPool.sol\":8183:8241  allRewardAmount * separateBets[j].weight /  pickPoolAmount */\n      tag_322\n      swap2\n      swap1\n      tag_290\n      jump\t// in\n    tag_322:\n        /* \"wwcc-contracts/contracts/wwccPool.sol\":8160:8241  uint256 rewardAmount = allRewardAmount * separateBets[j].weight /  pickPoolAmount */\n      swap1\n      pop\n        /* \"wwcc-contracts/contracts/wwccPool.sol\":8613:8625  rewardAmount */\n      dup1\n        /* \"wwcc-contracts/contracts/wwccPool.sol\":8575:8585  voteAmount */\n      0x05\n        /* \"wwcc-contracts/contracts/wwccPool.sol\":8575:8609  voteAmount[separateBets[j].joiner] */\n      0x00\n        /* \"wwcc-contracts/contracts/wwccPool.sol\":8586:8598  separateBets */\n      dup8\n        /* \"wwcc-contracts/contracts/wwccPool.sol\":8599:8600  j */\n      dup7\n        /* \"wwcc-contracts/contracts/wwccPool.sol\":8586:8601  separateBets[j] */\n      dup2\n      mload\n      dup2\n      lt\n      tag_323\n      jumpi\n      tag_324\n      tag_269\n      jump\t// in\n    tag_324:\n    tag_323:\n      0x20\n      mul\n      0x20\n      add\n      add\n      mload\n        /* \"wwcc-contracts/contracts/wwccPool.sol\":8586:8608  separateBets[j].joiner */\n      0x80\n      add\n      mload\n        /* \"wwcc-contracts/contracts/wwccPool.sol\":8575:8609  voteAmount[separateBets[j].joiner] */\n      0xffffffffffffffffffffffffffffffffffffffff\n      and\n      0xffffffffffffffffffffffffffffffffffffffff\n      and\n      dup2\n      mstore\n      0x20\n      add\n      swap1\n      dup2\n      mstore\n      0x20\n      add\n      0x00\n      keccak256\n      0x00\n        /* \"wwcc-contracts/contracts/wwccPool.sol\":8575:8625  voteAmount[separateBets[j].joiner] += rewardAmount */\n      dup3\n      dup3\n      sload\n      tag_325\n      swap2\n      swap1\n      tag_16\n      jump\t// in\n    tag_325:\n      swap3\n      pop\n      pop\n      dup2\n      swap1\n      sstore\n      pop\n        /* \"wwcc-contracts/contracts/wwccPool.sol\":8680:8684  true */\n      0x01\n        /* \"wwcc-contracts/contracts/wwccPool.sol\":8653:8665  separateBets */\n      dup6\n        /* \"wwcc-contracts/contracts/wwccPool.sol\":8666:8667  j */\n      dup5\n        /* \"wwcc-contracts/contracts/wwccPool.sol\":8653:8668  separateBets[j] */\n      dup2\n      mload\n      dup2\n      lt\n      tag_326\n      jumpi\n      tag_327\n      tag_269\n      jump\t// in\n    tag_327:\n    tag_326:\n      0x20\n      mul\n      0x20\n      add\n      add\n      mload\n        /* \"wwcc-contracts/contracts/wwccPool.sol\":8653:8677  separateBets[j].finished */\n      0xc0\n      add\n        /* \"wwcc-contracts/contracts/wwccPool.sol\":8653:8684  separateBets[j].finished = true */\n      swap1\n      iszero\n      iszero\n      swap1\n      dup2\n      iszero\n      iszero\n      dup2\n      mstore\n      pop\n      pop\n        /* \"wwcc-contracts/contracts/wwccPool.sol\":7495:8709  {... */\n      pop\n      pop\n        /* \"wwcc-contracts/contracts/wwccPool.sol\":7463:8709  if(separateBets[j].kind==result){... */\n    tag_299:\n        /* \"wwcc-contracts/contracts/wwccPool.sol\":6491:8731  if(separateBets[j].kind==2){... */\n    tag_296:\n        /* \"wwcc-contracts/contracts/wwccPool.sol\":6431:8751  if(separateBets[j].finished = false){... */\n    tag_270:\n        /* \"wwcc-contracts/contracts/wwccPool.sol\":6389:6393  j ++ */\n      dup1\n      dup1\n      tag_328\n      swap1\n      tag_329\n      jump\t// in\n    tag_328:\n      swap2\n      pop\n      pop\n        /* \"wwcc-contracts/contracts/wwccPool.sol\":6295:8771  for (... */\n      jump(tag_263)\n    tag_264:\n      pop\n        /* \"wwcc-contracts/contracts/wwccPool.sol\":8804:8808  true */\n      0x01\n        /* \"wwcc-contracts/contracts/wwccPool.sol\":8788:8792  pool */\n      dup4\n        /* \"wwcc-contracts/contracts/wwccPool.sol\":8788:8801  pool.finished */\n      0x0120\n      add\n        /* \"wwcc-contracts/contracts/wwccPool.sol\":8788:8808  pool.finished = true */\n      swap1\n      iszero\n      iszero\n      swap1\n      dup2\n      iszero\n      iszero\n      dup2\n      mstore\n      pop\n      pop\n        /* \"wwcc-contracts/contracts/wwccPool.sol\":5831:8943  {... */\n      pop\n      pop\n      pop\n        /* \"wwcc-contracts/contracts/wwccPool.sol\":8958:8962  true */\n      0x01\n        /* \"wwcc-contracts/contracts/wwccPool.sol\":8951:8962  return true */\n      swap1\n      pop\n        /* \"wwcc-contracts/contracts/wwccPool.sol\":5617:8969  function Award(bytes32 poolKey,uint256 homeScore,uint256 visitScore,uint256 result)  external onlyManager  payable returns(bool){... */\n      swap5\n      swap4\n      pop\n      pop\n      pop\n      pop\n      jump\t// out\n        /* \"wwcc-contracts/contracts/wwccPool.sol\":4889:5258  function voteWithdrawal(address joiner,uint256 amount) external onlyManager payable returns (bool){... */\n    tag_59:\n        /* \"wwcc-contracts/contracts/wwccPool.sol\":4982:4986  bool */\n      0x00\n        /* \"wwcc-contracts/contracts/wwccPool.sol\":11391:11396  owner */\n      dup1\n      0x00\n      swap1\n      sload\n      swap1\n      0x0100\n      exp\n      swap1\n      div\n      0xffffffffffffffffffffffffffffffffffffffff\n      and\n        /* \"wwcc-contracts/contracts/wwccPool.sol\":11377:11396  msg.sender == owner */\n      0xffffffffffffffffffffffffffffffffffffffff\n      and\n        /* \"wwcc-contracts/contracts/wwccPool.sol\":11377:11387  msg.sender */\n      caller\n        /* \"wwcc-contracts/contracts/wwccPool.sol\":11377:11396  msg.sender == owner */\n      0xffffffffffffffffffffffffffffffffffffffff\n      and\n      eq\n        /* \"wwcc-contracts/contracts/wwccPool.sol\":11356:11447  require(... */\n      tag_331\n      jumpi\n      mload(0x40)\n      0x08c379a000000000000000000000000000000000000000000000000000000000\n      dup2\n      mstore\n      0x04\n      add\n      tag_332\n      swap1\n      tag_70\n      jump\t// in\n    tag_332:\n      mload(0x40)\n      dup1\n      swap2\n      sub\n      swap1\n      revert\n    tag_331:\n        /* \"wwcc-contracts/contracts/wwccPool.sol\":5022:5028  amount */\n      dup2\n        /* \"wwcc-contracts/contracts/wwccPool.sol\":5000:5010  voteAmount */\n      0x05\n        /* \"wwcc-contracts/contracts/wwccPool.sol\":5000:5018  voteAmount[joiner] */\n      0x00\n        /* \"wwcc-contracts/contracts/wwccPool.sol\":5011:5017  joiner */\n      dup6\n        /* \"wwcc-contracts/contracts/wwccPool.sol\":5000:5018  voteAmount[joiner] */\n      0xffffffffffffffffffffffffffffffffffffffff\n      and\n      0xffffffffffffffffffffffffffffffffffffffff\n      and\n      dup2\n      mstore\n      0x20\n      add\n      swap1\n      dup2\n      mstore\n      0x20\n      add\n      0x00\n      keccak256\n      sload\n        /* \"wwcc-contracts/contracts/wwccPool.sol\":5000:5028  voteAmount[joiner] >= amount */\n      lt\n      iszero\n        /* \"wwcc-contracts/contracts/wwccPool.sol\":5000:5055  voteAmount[joiner] >= amount && voteAmount[joiner] >= 0 */\n      dup1\n      iszero\n      tag_334\n      jumpi\n      pop\n        /* \"wwcc-contracts/contracts/wwccPool.sol\":5054:5055  0 */\n      0x00\n        /* \"wwcc-contracts/contracts/wwccPool.sol\":5032:5042  voteAmount */\n      0x05\n        /* \"wwcc-contracts/contracts/wwccPool.sol\":5032:5050  voteAmount[joiner] */\n      0x00\n        /* \"wwcc-contracts/contracts/wwccPool.sol\":5043:5049  joiner */\n      dup6\n        /* \"wwcc-contracts/contracts/wwccPool.sol\":5032:5050  voteAmount[joiner] */\n      0xffffffffffffffffffffffffffffffffffffffff\n      and\n      0xffffffffffffffffffffffffffffffffffffffff\n      and\n      dup2\n      mstore\n      0x20\n      add\n      swap1\n      dup2\n      mstore\n      0x20\n      add\n      0x00\n      keccak256\n      sload\n        /* \"wwcc-contracts/contracts/wwccPool.sol\":5032:5055  voteAmount[joiner] >= 0 */\n      lt\n      iszero\n        /* \"wwcc-contracts/contracts/wwccPool.sol\":5000:5055  voteAmount[joiner] >= amount && voteAmount[joiner] >= 0 */\n    tag_334:\n        /* \"wwcc-contracts/contracts/wwccPool.sol\":4997:5252  if(voteAmount[joiner] >= amount && voteAmount[joiner] >= 0){... */\n      iszero\n      tag_335\n      jumpi\n        /* \"wwcc-contracts/contracts/wwccPool.sol\":5070:5103  address payable toAddress_address */\n      0x00\n        /* \"wwcc-contracts/contracts/wwccPool.sol\":5114:5120  joiner */\n      dup4\n        /* \"wwcc-contracts/contracts/wwccPool.sol\":5070:5121  address payable toAddress_address = payable(joiner) */\n      swap1\n      pop\n        /* \"wwcc-contracts/contracts/wwccPool.sol\":5135:5152  toAddress_address */\n      dup1\n        /* \"wwcc-contracts/contracts/wwccPool.sol\":5135:5161  toAddress_address.transfer */\n      0xffffffffffffffffffffffffffffffffffffffff\n      and\n        /* \"wwcc-contracts/contracts/wwccPool.sol\":5135:5181  toAddress_address.transfer(voteAmount[joiner]) */\n      0x08fc\n        /* \"wwcc-contracts/contracts/wwccPool.sol\":5162:5172  voteAmount */\n      0x05\n        /* \"wwcc-contracts/contracts/wwccPool.sol\":5162:5180  voteAmount[joiner] */\n      0x00\n        /* \"wwcc-contracts/contracts/wwccPool.sol\":5173:5179  joiner */\n      dup8\n        /* \"wwcc-contracts/contracts/wwccPool.sol\":5162:5180  voteAmount[joiner] */\n      0xffffffffffffffffffffffffffffffffffffffff\n      and\n      0xffffffffffffffffffffffffffffffffffffffff\n      and\n      dup2\n      mstore\n      0x20\n      add\n      swap1\n      dup2\n      mstore\n      0x20\n      add\n      0x00\n      keccak256\n      sload\n        /* \"wwcc-contracts/contracts/wwccPool.sol\":5135:5181  toAddress_address.transfer(voteAmount[joiner]) */\n      swap1\n      dup2\n      iszero\n      mul\n      swap1\n      mload(0x40)\n      0x00\n      mload(0x40)\n      dup1\n      dup4\n      sub\n      dup2\n      dup6\n      dup9\n      dup9\n      call\n      swap4\n      pop\n      pop\n      pop\n      pop\n      iszero\n      dup1\n      iszero\n      tag_337\n      jumpi\n      returndatasize\n      0x00\n      dup1\n      returndatacopy\n      revert(0x00, returndatasize)\n    tag_337:\n      pop\n        /* \"wwcc-contracts/contracts/wwccPool.sol\":5056:5192  {... */\n      pop\n        /* \"wwcc-contracts/contracts/wwccPool.sol\":4997:5252  if(voteAmount[joiner] >= amount && voteAmount[joiner] >= 0){... */\n      jump(tag_338)\n    tag_335:\n        /* \"wwcc-contracts/contracts/wwccPool.sol\":5210:5241  revert(\"not enough voteAmount\") */\n      mload(0x40)\n      0x08c379a000000000000000000000000000000000000000000000000000000000\n      dup2\n      mstore\n      0x04\n      add\n      tag_339\n      swap1\n      tag_163\n      jump\t// in\n    tag_339:\n      mload(0x40)\n      dup1\n      swap2\n      sub\n      swap1\n      revert\n        /* \"wwcc-contracts/contracts/wwccPool.sol\":4997:5252  if(voteAmount[joiner] >= amount && voteAmount[joiner] >= 0){... */\n    tag_338:\n        /* \"wwcc-contracts/contracts/wwccPool.sol\":4889:5258  function voteWithdrawal(address joiner,uint256 amount) external onlyManager payable returns (bool){... */\n      swap3\n      swap2\n      pop\n      pop\n      jump\t// out\n        /* \"wwcc-contracts/contracts/wwccPool.sol\":8974:9507  function getPair(bytes32 poolKey) external view returns (string memory home,string memory visit,string memory rounds,uint256 wPool,uint256 dPool,uint256 lPool,uint256 sPool){... */\n    tag_64:\n        /* \"wwcc-contracts/contracts/wwccPool.sol\":9031:9049  string memory home */\n      0x60\n        /* \"wwcc-contracts/contracts/wwccPool.sol\":9050:9069  string memory visit */\n      dup1\n        /* \"wwcc-contracts/contracts/wwccPool.sol\":9070:9090  string memory rounds */\n      0x60\n        /* \"wwcc-contracts/contracts/wwccPool.sol\":9091:9104  uint256 wPool */\n      0x00\n        /* \"wwcc-contracts/contracts/wwccPool.sol\":9105:9118  uint256 dPool */\n      dup1\n        /* \"wwcc-contracts/contracts/wwccPool.sol\":9119:9132  uint256 lPool */\n      0x00\n        /* \"wwcc-contracts/contracts/wwccPool.sol\":9133:9146  uint256 sPool */\n      dup1\n        /* \"wwcc-contracts/contracts/wwccPool.sol\":9161:9178  contains(poolKey) */\n      tag_341\n        /* \"wwcc-contracts/contracts/wwccPool.sol\":9170:9177  poolKey */\n      dup9\n        /* \"wwcc-contracts/contracts/wwccPool.sol\":9161:9169  contains */\n      tag_73\n        /* \"wwcc-contracts/contracts/wwccPool.sol\":9161:9178  contains(poolKey) */\n      jump\t// in\n    tag_341:\n        /* \"wwcc-contracts/contracts/wwccPool.sol\":9157:9501  if(!contains(poolKey)) { ... */\n      tag_342\n      jumpi\n        /* \"wwcc-contracts/contracts/wwccPool.sol\":9195:9214  revert(\"not exist\") */\n      mload(0x40)\n      0x08c379a000000000000000000000000000000000000000000000000000000000\n      dup2\n      mstore\n      0x04\n      add\n      tag_343\n      swap1\n      tag_344\n      jump\t// in\n    tag_343:\n      mload(0x40)\n      dup1\n      swap2\n      sub\n      swap1\n      revert\n        /* \"wwcc-contracts/contracts/wwccPool.sol\":9157:9501  if(!contains(poolKey)) { ... */\n    tag_342:\n        /* \"wwcc-contracts/contracts/wwccPool.sol\":9251:9258  WcPools */\n      0x06\n        /* \"wwcc-contracts/contracts/wwccPool.sol\":9251:9267  WcPools[poolKey] */\n      0x00\n        /* \"wwcc-contracts/contracts/wwccPool.sol\":9259:9266  poolKey */\n      dup10\n        /* \"wwcc-contracts/contracts/wwccPool.sol\":9251:9267  WcPools[poolKey] */\n      dup2\n      mstore\n      0x20\n      add\n      swap1\n      dup2\n      mstore\n      0x20\n      add\n      0x00\n      keccak256\n        /* \"wwcc-contracts/contracts/wwccPool.sol\":9251:9272  WcPools[poolKey].home */\n      0x00\n      add\n        /* \"wwcc-contracts/contracts/wwccPool.sol\":9286:9293  WcPools */\n      0x06\n        /* \"wwcc-contracts/contracts/wwccPool.sol\":9286:9302  WcPools[poolKey] */\n      0x00\n        /* \"wwcc-contracts/contracts/wwccPool.sol\":9294:9301  poolKey */\n      dup11\n        /* \"wwcc-contracts/contracts/wwccPool.sol\":9286:9302  WcPools[poolKey] */\n      dup2\n      mstore\n      0x20\n      add\n      swap1\n      dup2\n      mstore\n      0x20\n      add\n      0x00\n      keccak256\n        /* \"wwcc-contracts/contracts/wwccPool.sol\":9286:9308  WcPools[poolKey].visit */\n      0x01\n      add\n        /* \"wwcc-contracts/contracts/wwccPool.sol\":9322:9329  WcPools */\n      0x06\n        /* \"wwcc-contracts/contracts/wwccPool.sol\":9322:9338  WcPools[poolKey] */\n      0x00\n        /* \"wwcc-contracts/contracts/wwccPool.sol\":9330:9337  poolKey */\n      dup12\n        /* \"wwcc-contracts/contracts/wwccPool.sol\":9322:9338  WcPools[poolKey] */\n      dup2\n      mstore\n      0x20\n      add\n      swap1\n      dup2\n      mstore\n      0x20\n      add\n      0x00\n      keccak256\n        /* \"wwcc-contracts/contracts/wwccPool.sol\":9322:9345  WcPools[poolKey].rounds */\n      0x02\n      add\n        /* \"wwcc-contracts/contracts/wwccPool.sol\":9359:9366  WcPools */\n      0x06\n        /* \"wwcc-contracts/contracts/wwccPool.sol\":9359:9375  WcPools[poolKey] */\n      0x00\n        /* \"wwcc-contracts/contracts/wwccPool.sol\":9367:9374  poolKey */\n      dup13\n        /* \"wwcc-contracts/contracts/wwccPool.sol\":9359:9375  WcPools[poolKey] */\n      dup2\n      mstore\n      0x20\n      add\n      swap1\n      dup2\n      mstore\n      0x20\n      add\n      0x00\n      keccak256\n        /* \"wwcc-contracts/contracts/wwccPool.sol\":9359:9381  WcPools[poolKey].wPool */\n      0x03\n      add\n      sload\n        /* \"wwcc-contracts/contracts/wwccPool.sol\":9395:9402  WcPools */\n      0x06\n        /* \"wwcc-contracts/contracts/wwccPool.sol\":9395:9411  WcPools[poolKey] */\n      0x00\n        /* \"wwcc-contracts/contracts/wwccPool.sol\":9403:9410  poolKey */\n      dup14\n        /* \"wwcc-contracts/contracts/wwccPool.sol\":9395:9411  WcPools[poolKey] */\n      dup2\n      mstore\n      0x20\n      add\n      swap1\n      dup2\n      mstore\n      0x20\n      add\n      0x00\n      keccak256\n        /* \"wwcc-contracts/contracts/wwccPool.sol\":9395:9417  WcPools[poolKey].dPool */\n      0x04\n      add\n      sload\n        /* \"wwcc-contracts/contracts/wwccPool.sol\":9431:9438  WcPools */\n      0x06\n        /* \"wwcc-contracts/contracts/wwccPool.sol\":9431:9447  WcPools[poolKey] */\n      0x00\n        /* \"wwcc-contracts/contracts/wwccPool.sol\":9439:9446  poolKey */\n      dup15\n        /* \"wwcc-contracts/contracts/wwccPool.sol\":9431:9447  WcPools[poolKey] */\n      dup2\n      mstore\n      0x20\n      add\n      swap1\n      dup2\n      mstore\n      0x20\n      add\n      0x00\n      keccak256\n        /* \"wwcc-contracts/contracts/wwccPool.sol\":9431:9453  WcPools[poolKey].lPool */\n      0x05\n      add\n      sload\n        /* \"wwcc-contracts/contracts/wwccPool.sol\":9467:9474  WcPools */\n      0x06\n        /* \"wwcc-contracts/contracts/wwccPool.sol\":9467:9483  WcPools[poolKey] */\n      0x00\n        /* \"wwcc-contracts/contracts/wwccPool.sol\":9475:9482  poolKey */\n      dup16\n        /* \"wwcc-contracts/contracts/wwccPool.sol\":9467:9483  WcPools[poolKey] */\n      dup2\n      mstore\n      0x20\n      add\n      swap1\n      dup2\n      mstore\n      0x20\n      add\n      0x00\n      keccak256\n        /* \"wwcc-contracts/contracts/wwccPool.sol\":9467:9489  WcPools[poolKey].sPool */\n      0x06\n      add\n      sload\n        /* \"wwcc-contracts/contracts/wwccPool.sol\":9243:9490  return (WcPools[poolKey].home,... */\n      dup7\n      dup1\n      sload\n      tag_346\n      swap1\n      tag_79\n      jump\t// in\n    tag_346:\n      dup1\n      0x1f\n      add\n      0x20\n      dup1\n      swap2\n      div\n      mul\n      0x20\n      add\n      mload(0x40)\n      swap1\n      dup2\n      add\n      0x40\n      mstore\n      dup1\n      swap3\n      swap2\n      swap1\n      dup2\n      dup2\n      mstore\n      0x20\n      add\n      dup3\n      dup1\n      sload\n      tag_347\n      swap1\n      tag_79\n      jump\t// in\n    tag_347:\n      dup1\n      iszero\n      tag_348\n      jumpi\n      dup1\n      0x1f\n      lt\n      tag_349\n      jumpi\n      0x0100\n      dup1\n      dup4\n      sload\n      div\n      mul\n      dup4\n      mstore\n      swap2\n      0x20\n      add\n      swap2\n      jump(tag_348)\n    tag_349:\n      dup3\n      add\n      swap2\n      swap1\n      0x00\n      mstore\n      keccak256(0x00, 0x20)\n      swap1\n    tag_350:\n      dup2\n      sload\n      dup2\n      mstore\n      swap1\n      0x01\n      add\n      swap1\n      0x20\n      add\n      dup1\n      dup4\n      gt\n      tag_350\n      jumpi\n      dup3\n      swap1\n      sub\n      0x1f\n      and\n      dup3\n      add\n      swap2\n    tag_348:\n      pop\n      pop\n      pop\n      pop\n      pop\n      swap7\n      pop\n      dup6\n      dup1\n      sload\n      tag_351\n      swap1\n      tag_79\n      jump\t// in\n    tag_351:\n      dup1\n      0x1f\n      add\n      0x20\n      dup1\n      swap2\n      div\n      mul\n      0x20\n      add\n      mload(0x40)\n      swap1\n      dup2\n      add\n      0x40\n      mstore\n      dup1\n      swap3\n      swap2\n      swap1\n      dup2\n      dup2\n      mstore\n      0x20\n      add\n      dup3\n      dup1\n      sload\n      tag_352\n      swap1\n      tag_79\n      jump\t// in\n    tag_352:\n      dup1\n      iszero\n      tag_353\n      jumpi\n      dup1\n      0x1f\n      lt\n      tag_354\n      jumpi\n      0x0100\n      dup1\n      dup4\n      sload\n      div\n      mul\n      dup4\n      mstore\n      swap2\n      0x20\n      add\n      swap2\n      jump(tag_353)\n    tag_354:\n      dup3\n      add\n      swap2\n      swap1\n      0x00\n      mstore\n      keccak256(0x00, 0x20)\n      swap1\n    tag_355:\n      dup2\n      sload\n      dup2\n      mstore\n      swap1\n      0x01\n      add\n      swap1\n      0x20\n      add\n      dup1\n      dup4\n      gt\n      tag_355\n      jumpi\n      dup3\n      swap1\n      sub\n      0x1f\n      and\n      dup3\n      add\n      swap2\n    tag_353:\n      pop\n      pop\n      pop\n      pop\n      pop\n      swap6\n      pop\n      dup5\n      dup1\n      sload\n      tag_356\n      swap1\n      tag_79\n      jump\t// in\n    tag_356:\n      dup1\n      0x1f\n      add\n      0x20\n      dup1\n      swap2\n      div\n      mul\n      0x20\n      add\n      mload(0x40)\n      swap1\n      dup2\n      add\n      0x40\n      mstore\n      dup1\n      swap3\n      swap2\n      swap1\n      dup2\n      dup2\n      mstore\n      0x20\n      add\n      dup3\n      dup1\n      sload\n      tag_357\n      swap1\n      tag_79\n      jump\t// in\n    tag_357:\n      dup1\n      iszero\n      tag_358\n      jumpi\n      dup1\n      0x1f\n      lt\n      tag_359\n      jumpi\n      0x0100\n      dup1\n      dup4\n      sload\n      div\n      mul\n      dup4\n      mstore\n      swap2\n      0x20\n      add\n      swap2\n      jump(tag_358)\n    tag_359:\n      dup3\n      add\n      swap2\n      swap1\n      0x00\n      mstore\n      keccak256(0x00, 0x20)\n      swap1\n    tag_360:\n      dup2\n      sload\n      dup2\n      mstore\n      swap1\n      0x01\n      add\n      swap1\n      0x20\n      add\n      dup1\n      dup4\n      gt\n      tag_360\n      jumpi\n      dup3\n      swap1\n      sub\n      0x1f\n      and\n      dup3\n      add\n      swap2\n    tag_358:\n      pop\n      pop\n      pop\n      pop\n      pop\n      swap5\n      pop\n      swap7\n      pop\n      swap7\n      pop\n      swap7\n      pop\n      swap7\n      pop\n      swap7\n      pop\n      swap7\n      pop\n      swap7\n      pop\n        /* \"wwcc-contracts/contracts/wwccPool.sol\":8974:9507  function getPair(bytes32 poolKey) external view returns (string memory home,string memory visit,string memory rounds,uint256 wPool,uint256 dPool,uint256 lPool,uint256 sPool){... */\n      swap2\n      swap4\n      swap6\n      swap8\n      swap1\n      swap3\n      swap5\n      swap7\n      pop\n      jump\t// out\n        /* \"wwcc-contracts/contracts/wwccPool.sol\":9512:9625  function contains(bytes32 poolKey) internal view returns (bool) {... */\n    tag_73:\n        /* \"wwcc-contracts/contracts/wwccPool.sol\":9570:9574  bool */\n      0x00\n        /* \"wwcc-contracts/contracts/wwccPool.sol\":9597:9604  WcPools */\n      0x06\n        /* \"wwcc-contracts/contracts/wwccPool.sol\":9597:9613  WcPools[poolKey] */\n      0x00\n        /* \"wwcc-contracts/contracts/wwccPool.sol\":9605:9612  poolKey */\n      dup4\n        /* \"wwcc-contracts/contracts/wwccPool.sol\":9597:9613  WcPools[poolKey] */\n      dup2\n      mstore\n      0x20\n      add\n      swap1\n      dup2\n      mstore\n      0x20\n      add\n      0x00\n      keccak256\n        /* \"wwcc-contracts/contracts/wwccPool.sol\":9597:9618  WcPools[poolKey].used */\n      0x07\n      add\n      0x01\n      swap1\n      sload\n      swap1\n      0x0100\n      exp\n      swap1\n      div\n      0xff\n      and\n        /* \"wwcc-contracts/contracts/wwccPool.sol\":9590:9618  return WcPools[poolKey].used */\n      swap1\n      pop\n        /* \"wwcc-contracts/contracts/wwccPool.sol\":9512:9625  function contains(bytes32 poolKey) internal view returns (bool) {... */\n      swap2\n      swap1\n      pop\n      jump\t// out\n        /* \"wwcc-contracts/contracts/safemath.sol\":62:266  function mul(uint256 a, uint256 b) internal pure returns (uint256) {... */\n    tag_99:\n        /* \"wwcc-contracts/contracts/safemath.sol\":120:127  uint256 */\n      0x00\n        /* \"wwcc-contracts/contracts/safemath.sol\":148:149  0 */\n      dup1\n        /* \"wwcc-contracts/contracts/safemath.sol\":143:144  a */\n      dup4\n        /* \"wwcc-contracts/contracts/safemath.sol\":143:149  a == 0 */\n      eq\n        /* \"wwcc-contracts/contracts/safemath.sol\":139:184  if (a == 0) {... */\n      iszero\n      tag_363\n      jumpi\n        /* \"wwcc-contracts/contracts/safemath.sol\":172:173  0 */\n      0x00\n        /* \"wwcc-contracts/contracts/safemath.sol\":165:173  return 0 */\n      swap1\n      pop\n      jump(tag_362)\n        /* \"wwcc-contracts/contracts/safemath.sol\":139:184  if (a == 0) {... */\n    tag_363:\n        /* \"wwcc-contracts/contracts/safemath.sol\":195:204  uint256 c */\n      0x00\n        /* \"wwcc-contracts/contracts/safemath.sol\":211:212  b */\n      dup3\n        /* \"wwcc-contracts/contracts/safemath.sol\":207:208  a */\n      dup5\n        /* \"wwcc-contracts/contracts/safemath.sol\":207:212  a * b */\n      tag_364\n      swap2\n      swap1\n      tag_288\n      jump\t// in\n    tag_364:\n        /* \"wwcc-contracts/contracts/safemath.sol\":195:212  uint256 c = a * b */\n      swap1\n      pop\n        /* \"wwcc-contracts/contracts/safemath.sol\":239:240  b */\n      dup3\n        /* \"wwcc-contracts/contracts/safemath.sol\":234:235  a */\n      dup5\n        /* \"wwcc-contracts/contracts/safemath.sol\":230:231  c */\n      dup3\n        /* \"wwcc-contracts/contracts/safemath.sol\":230:235  c / a */\n      tag_365\n      swap2\n      swap1\n      tag_290\n      jump\t// in\n    tag_365:\n        /* \"wwcc-contracts/contracts/safemath.sol\":230:240  c / a == b */\n      eq\n        /* \"wwcc-contracts/contracts/safemath.sol\":222:241  require(c / a == b) */\n      tag_366\n      jumpi\n      0x00\n      dup1\n      revert\n    tag_366:\n        /* \"wwcc-contracts/contracts/safemath.sol\":258:259  c */\n      dup1\n        /* \"wwcc-contracts/contracts/safemath.sol\":251:259  return c */\n      swap2\n      pop\n      pop\n        /* \"wwcc-contracts/contracts/safemath.sol\":62:266  function mul(uint256 a, uint256 b) internal pure returns (uint256) {... */\n    tag_362:\n      swap3\n      swap2\n      pop\n      pop\n      jump\t// out\n        /* \"wwcc-contracts/contracts/safemath.sol\":274:417  function div(uint256 a, uint256 b) internal pure returns (uint256) {... */\n    tag_100:\n        /* \"wwcc-contracts/contracts/safemath.sol\":332:339  uint256 */\n      0x00\n        /* \"wwcc-contracts/contracts/safemath.sol\":363:364  0 */\n      dup1\n        /* \"wwcc-contracts/contracts/safemath.sol\":359:360  b */\n      dup3\n        /* \"wwcc-contracts/contracts/safemath.sol\":359:364  b > 0 */\n      gt\n        /* \"wwcc-contracts/contracts/safemath.sol\":351:365  require(b > 0) */\n      tag_368\n      jumpi\n      0x00\n      dup1\n      revert\n    tag_368:\n        /* \"wwcc-contracts/contracts/safemath.sol\":375:384  uint256 c */\n      0x00\n        /* \"wwcc-contracts/contracts/safemath.sol\":391:392  b */\n      dup3\n        /* \"wwcc-contracts/contracts/safemath.sol\":387:388  a */\n      dup5\n        /* \"wwcc-contracts/contracts/safemath.sol\":387:392  a / b */\n      tag_369\n      swap2\n      swap1\n      tag_290\n      jump\t// in\n    tag_369:\n        /* \"wwcc-contracts/contracts/safemath.sol\":375:392  uint256 c = a / b */\n      swap1\n      pop\n        /* \"wwcc-contracts/contracts/safemath.sol\":409:410  c */\n      dup1\n        /* \"wwcc-contracts/contracts/safemath.sol\":402:410  return c */\n      swap2\n      pop\n      pop\n        /* \"wwcc-contracts/contracts/safemath.sol\":274:417  function div(uint256 a, uint256 b) internal pure returns (uint256) {... */\n      swap3\n      swap2\n      pop\n      pop\n      jump\t// out\n        /* \"wwcc-contracts/contracts/wwccPool.sol\":9630:10119  function strConcat(string memory _a,string memory _b) internal pure returns (string memory){... */\n    tag_112:\n        /* \"wwcc-contracts/contracts/wwccPool.sol\":9707:9720  string memory */\n      0x60\n        /* \"wwcc-contracts/contracts/wwccPool.sol\":9735:9751  bytes memory _ba */\n      0x00\n        /* \"wwcc-contracts/contracts/wwccPool.sol\":9760:9762  _a */\n      dup4\n        /* \"wwcc-contracts/contracts/wwccPool.sol\":9735:9763  bytes memory _ba = bytes(_a) */\n      swap1\n      pop\n        /* \"wwcc-contracts/contracts/wwccPool.sol\":9777:9793  bytes memory _bb */\n      0x00\n        /* \"wwcc-contracts/contracts/wwccPool.sol\":9802:9804  _b */\n      dup4\n        /* \"wwcc-contracts/contracts/wwccPool.sol\":9777:9805  bytes memory _bb = bytes(_b) */\n      swap1\n      pop\n        /* \"wwcc-contracts/contracts/wwccPool.sol\":9819:9836  string memory ret */\n      0x00\n        /* \"wwcc-contracts/contracts/wwccPool.sol\":9863:9866  _bb */\n      dup2\n        /* \"wwcc-contracts/contracts/wwccPool.sol\":9863:9873  _bb.length */\n      mload\n        /* \"wwcc-contracts/contracts/wwccPool.sol\":9850:9853  _ba */\n      dup4\n        /* \"wwcc-contracts/contracts/wwccPool.sol\":9850:9860  _ba.length */\n      mload\n        /* \"wwcc-contracts/contracts/wwccPool.sol\":9850:9873  _ba.length + _bb.length */\n      tag_371\n      swap2\n      swap1\n      tag_16\n      jump\t// in\n    tag_371:\n        /* \"wwcc-contracts/contracts/wwccPool.sol\":9839:9874  new string(_ba.length + _bb.length) */\n      0xffffffffffffffff\n      dup2\n      gt\n      iszero\n      tag_372\n      jumpi\n      tag_373\n      tag_374\n      jump\t// in\n    tag_373:\n    tag_372:\n      mload(0x40)\n      swap1\n      dup1\n      dup3\n      mstore\n      dup1\n      0x1f\n      add\n      not(0x1f)\n      and\n      0x20\n      add\n      dup3\n      add\n      0x40\n      mstore\n      dup1\n      iszero\n      tag_375\n      jumpi\n      dup2\n      0x20\n      add\n      0x01\n      dup3\n      mul\n      dup1\n      calldatasize\n      dup4\n      calldatacopy\n      dup1\n      dup3\n      add\n      swap2\n      pop\n      pop\n      swap1\n      pop\n    tag_375:\n      pop\n        /* \"wwcc-contracts/contracts/wwccPool.sol\":9819:9874  string memory ret = new string(_ba.length + _bb.length) */\n      swap1\n      pop\n        /* \"wwcc-contracts/contracts/wwccPool.sol\":9888:9905  bytes memory bret */\n      0x00\n        /* \"wwcc-contracts/contracts/wwccPool.sol\":9914:9917  ret */\n      dup2\n        /* \"wwcc-contracts/contracts/wwccPool.sol\":9888:9918  bytes memory bret = bytes(ret) */\n      swap1\n      pop\n        /* \"wwcc-contracts/contracts/wwccPool.sol\":9932:9938  uint k */\n      0x00\n        /* \"wwcc-contracts/contracts/wwccPool.sol\":9960:9966  uint i */\n      dup1\n        /* \"wwcc-contracts/contracts/wwccPool.sol\":9956:10009  for(uint i = 0;i < _ba.length;i++) bret[k++] = _ba[i] */\n    tag_376:\n        /* \"wwcc-contracts/contracts/wwccPool.sol\":9975:9978  _ba */\n      dup6\n        /* \"wwcc-contracts/contracts/wwccPool.sol\":9975:9985  _ba.length */\n      mload\n        /* \"wwcc-contracts/contracts/wwccPool.sol\":9971:9972  i */\n      dup2\n        /* \"wwcc-contracts/contracts/wwccPool.sol\":9971:9985  i < _ba.length */\n      lt\n        /* \"wwcc-contracts/contracts/wwccPool.sol\":9956:10009  for(uint i = 0;i < _ba.length;i++) bret[k++] = _ba[i] */\n      iszero\n      tag_377\n      jumpi\n        /* \"wwcc-contracts/contracts/wwccPool.sol\":10003:10006  _ba */\n      dup6\n        /* \"wwcc-contracts/contracts/wwccPool.sol\":10007:10008  i */\n      dup2\n        /* \"wwcc-contracts/contracts/wwccPool.sol\":10003:10009  _ba[i] */\n      dup2\n      mload\n      dup2\n      lt\n      tag_379\n      jumpi\n      tag_380\n      tag_269\n      jump\t// in\n    tag_380:\n    tag_379:\n      0x20\n      add\n      add\n      mload\n      0xf8\n      shr\n      0xf8\n      shl\n        /* \"wwcc-contracts/contracts/wwccPool.sol\":9991:9995  bret */\n      dup4\n        /* \"wwcc-contracts/contracts/wwccPool.sol\":9996:9999  k++ */\n      dup4\n      dup1\n      tag_381\n      swap1\n      tag_329\n      jump\t// in\n    tag_381:\n      swap5\n      pop\n        /* \"wwcc-contracts/contracts/wwccPool.sol\":9991:10000  bret[k++] */\n      dup2\n      mload\n      dup2\n      lt\n      tag_382\n      jumpi\n      tag_383\n      tag_269\n      jump\t// in\n    tag_383:\n    tag_382:\n      0x20\n      add\n      add\n        /* \"wwcc-contracts/contracts/wwccPool.sol\":9991:10009  bret[k++] = _ba[i] */\n      swap1\n      not(0xffffffffffffffffffffffffffffffffffffffffffffffffffffffffffffff)\n      and\n      swap1\n      dup2\n      0x00\n      byte\n      swap1\n      mstore8\n      pop\n        /* \"wwcc-contracts/contracts/wwccPool.sol\":9986:9989  i++ */\n      dup1\n      dup1\n      tag_384\n      swap1\n      tag_329\n      jump\t// in\n    tag_384:\n      swap2\n      pop\n      pop\n        /* \"wwcc-contracts/contracts/wwccPool.sol\":9956:10009  for(uint i = 0;i < _ba.length;i++) bret[k++] = _ba[i] */\n      jump(tag_376)\n    tag_377:\n      pop\n        /* \"wwcc-contracts/contracts/wwccPool.sol\":10027:10033  uint i */\n      0x00\n        /* \"wwcc-contracts/contracts/wwccPool.sol\":10023:10076  for(uint i = 0;i < _bb.length;i++) bret[k++] = _bb[i] */\n    tag_385:\n        /* \"wwcc-contracts/contracts/wwccPool.sol\":10042:10045  _bb */\n      dup5\n        /* \"wwcc-contracts/contracts/wwccPool.sol\":10042:10052  _bb.length */\n      mload\n        /* \"wwcc-contracts/contracts/wwccPool.sol\":10038:10039  i */\n      dup2\n        /* \"wwcc-contracts/contracts/wwccPool.sol\":10038:10052  i < _bb.length */\n      lt\n        /* \"wwcc-contracts/contracts/wwccPool.sol\":10023:10076  for(uint i = 0;i < _bb.length;i++) bret[k++] = _bb[i] */\n      iszero\n      tag_386\n      jumpi\n        /* \"wwcc-contracts/contracts/wwccPool.sol\":10070:10073  _bb */\n      dup5\n        /* \"wwcc-contracts/contracts/wwccPool.sol\":10074:10075  i */\n      dup2\n        /* \"wwcc-contracts/contracts/wwccPool.sol\":10070:10076  _bb[i] */\n      dup2\n      mload\n      dup2\n      lt\n      tag_388\n      jumpi\n      tag_389\n      tag_269\n      jump\t// in\n    tag_389:\n    tag_388:\n      0x20\n      add\n      add\n      mload\n      0xf8\n      shr\n      0xf8\n      shl\n        /* \"wwcc-contracts/contracts/wwccPool.sol\":10058:10062  bret */\n      dup4\n        /* \"wwcc-contracts/contracts/wwccPool.sol\":10063:10066  k++ */\n      dup4\n      dup1\n      tag_390\n      swap1\n      tag_329\n      jump\t// in\n    tag_390:\n      swap5\n      pop\n        /* \"wwcc-contracts/contracts/wwccPool.sol\":10058:10067  bret[k++] */\n      dup2\n      mload\n      dup2\n      lt\n      tag_391\n      jumpi\n      tag_392\n      tag_269\n      jump\t// in\n    tag_392:\n    tag_391:\n      0x20\n      add\n      add\n        /* \"wwcc-contracts/contracts/wwccPool.sol\":10058:10076  bret[k++] = _bb[i] */\n      swap1\n      not(0xffffffffffffffffffffffffffffffffffffffffffffffffffffffffffffff)\n      and\n      swap1\n      dup2\n      0x00\n      byte\n      swap1\n      mstore8\n      pop\n        /* \"wwcc-contracts/contracts/wwccPool.sol\":10053:10056  i++ */\n      dup1\n      dup1\n      tag_393\n      swap1\n      tag_329\n      jump\t// in\n    tag_393:\n      swap2\n      pop\n      pop\n        /* \"wwcc-contracts/contracts/wwccPool.sol\":10023:10076  for(uint i = 0;i < _bb.length;i++) bret[k++] = _bb[i] */\n      jump(tag_385)\n    tag_386:\n      pop\n        /* \"wwcc-contracts/contracts/wwccPool.sol\":10104:10107  ret */\n      dup3\n        /* \"wwcc-contracts/contracts/wwccPool.sol\":10090:10108  return string(ret) */\n      swap6\n      pop\n      pop\n      pop\n      pop\n      pop\n      pop\n        /* \"wwcc-contracts/contracts/wwccPool.sol\":9630:10119  function strConcat(string memory _a,string memory _b) internal pure returns (string memory){... */\n      swap3\n      swap2\n      pop\n      pop\n      jump\t// out\n        /* \"wwcc-contracts/contracts/wwccPool.sol\":10258:10387  function uint256ToString(uint256 u) internal pure returns(string memory){... */\n    tag_181:\n        /* \"wwcc-contracts/contracts/wwccPool.sol\":10316:10329  string memory */\n      0x60\n        /* \"wwcc-contracts/contracts/wwccPool.sol\":10351:10380  toString(abi.encodePacked(u)) */\n      tag_395\n        /* \"wwcc-contracts/contracts/wwccPool.sol\":10377:10378  u */\n      dup3\n        /* \"wwcc-contracts/contracts/wwccPool.sol\":10360:10379  abi.encodePacked(u) */\n      add(0x20, mload(0x40))\n      tag_396\n      swap2\n      swap1\n      tag_397\n      jump\t// in\n    tag_396:\n      mload(0x40)\n      0x20\n      dup2\n      dup4\n      sub\n      sub\n      dup2\n      mstore\n      swap1\n      0x40\n      mstore\n        /* \"wwcc-contracts/contracts/wwccPool.sol\":10351:10359  toString */\n      tag_398\n        /* \"wwcc-contracts/contracts/wwccPool.sol\":10351:10380  toString(abi.encodePacked(u)) */\n      jump\t// in\n    tag_395:\n        /* \"wwcc-contracts/contracts/wwccPool.sol\":10344:10380  return toString(abi.encodePacked(u)) */\n      swap1\n      pop\n        /* \"wwcc-contracts/contracts/wwccPool.sol\":10258:10387  function uint256ToString(uint256 u) internal pure returns(string memory){... */\n      swap2\n      swap1\n      pop\n      jump\t// out\n        /* \"wwcc-contracts/contracts/wwccPool.sol\":10392:10522  function bytes32ToString(bytes32 b) internal pure returns(string memory){... */\n    tag_185:\n        /* \"wwcc-contracts/contracts/wwccPool.sol\":10450:10463  string memory */\n      0x60\n        /* \"wwcc-contracts/contracts/wwccPool.sol\":10485:10514  toString(abi.encodePacked(b)) */\n      tag_400\n        /* \"wwcc-contracts/contracts/wwccPool.sol\":10511:10512  b */\n      dup3\n        /* \"wwcc-contracts/contracts/wwccPool.sol\":10494:10513  abi.encodePacked(b) */\n      add(0x20, mload(0x40))\n      tag_401\n      swap2\n      swap1\n      tag_402\n      jump\t// in\n    tag_401:\n      mload(0x40)\n      0x20\n      dup2\n      dup4\n      sub\n      sub\n      dup2\n      mstore\n      swap1\n      0x40\n      mstore\n        /* \"wwcc-contracts/contracts/wwccPool.sol\":10485:10493  toString */\n      tag_398\n        /* \"wwcc-contracts/contracts/wwccPool.sol\":10485:10514  toString(abi.encodePacked(b)) */\n      jump\t// in\n    tag_400:\n        /* \"wwcc-contracts/contracts/wwccPool.sol\":10478:10514  return toString(abi.encodePacked(b)) */\n      swap1\n      pop\n        /* \"wwcc-contracts/contracts/wwccPool.sol\":10392:10522  function bytes32ToString(bytes32 b) internal pure returns(string memory){... */\n      swap2\n      swap1\n      pop\n      jump\t// out\n        /* \"wwcc-contracts/contracts/wwccPool.sol\":10527:11014  function toString(bytes memory data) internal pure returns(string memory){... */\n    tag_398:\n        /* \"wwcc-contracts/contracts/wwccPool.sol\":10586:10599  string memory */\n      0x60\n        /* \"wwcc-contracts/contracts/wwccPool.sol\":10614:10635  bytes memory alphabet */\n      0x00\n        /* \"wwcc-contracts/contracts/wwccPool.sol\":10614:10656  bytes memory alphabet = \"0123456789abcdef\" */\n      mload(0x40)\n      dup1\n      0x40\n      add\n      0x40\n      mstore\n      dup1\n      0x10\n      dup2\n      mstore\n      0x20\n      add\n      0x3031323334353637383961626364656600000000000000000000000000000000\n      dup2\n      mstore\n      pop\n      swap1\n      pop\n        /* \"wwcc-contracts/contracts/wwccPool.sol\":10670:10686  bytes memory str */\n      0x00\n        /* \"wwcc-contracts/contracts/wwccPool.sol\":10717:10718  2 */\n      0x02\n        /* \"wwcc-contracts/contracts/wwccPool.sol\":10703:10707  data */\n      dup5\n        /* \"wwcc-contracts/contracts/wwccPool.sol\":10703:10714  data.length */\n      mload\n        /* \"wwcc-contracts/contracts/wwccPool.sol\":10703:10718  data.length * 2 */\n      tag_404\n      swap2\n      swap1\n      tag_288\n      jump\t// in\n    tag_404:\n        /* \"wwcc-contracts/contracts/wwccPool.sol\":10699:10700  2 */\n      0x02\n        /* \"wwcc-contracts/contracts/wwccPool.sol\":10699:10718  2 + data.length * 2 */\n      tag_405\n      swap2\n      swap1\n      tag_16\n      jump\t// in\n    tag_405:\n        /* \"wwcc-contracts/contracts/wwccPool.sol\":10689:10719  new bytes(2 + data.length * 2) */\n      0xffffffffffffffff\n      dup2\n      gt\n      iszero\n      tag_406\n      jumpi\n      tag_407\n      tag_374\n      jump\t// in\n    tag_407:\n    tag_406:\n      mload(0x40)\n      swap1\n      dup1\n      dup3\n      mstore\n      dup1\n      0x1f\n      add\n      not(0x1f)\n      and\n      0x20\n      add\n      dup3\n      add\n      0x40\n      mstore\n      dup1\n      iszero\n      tag_408\n      jumpi\n      dup2\n      0x20\n      add\n      0x01\n      dup3\n      mul\n      dup1\n      calldatasize\n      dup4\n      calldatacopy\n      dup1\n      dup3\n      add\n      swap2\n      pop\n      pop\n      swap1\n      pop\n    tag_408:\n      pop\n        /* \"wwcc-contracts/contracts/wwccPool.sol\":10670:10719  bytes memory str = new bytes(2 + data.length * 2) */\n      swap1\n      pop\n        /* \"wwcc-contracts/contracts/wwccPool.sol\":10733:10745  str[0] = \"0\" */\n      0x3000000000000000000000000000000000000000000000000000000000000000\n        /* \"wwcc-contracts/contracts/wwccPool.sol\":10733:10736  str */\n      dup2\n        /* \"wwcc-contracts/contracts/wwccPool.sol\":10737:10738  0 */\n      0x00\n        /* \"wwcc-contracts/contracts/wwccPool.sol\":10733:10739  str[0] */\n      dup2\n      mload\n      dup2\n      lt\n      tag_409\n      jumpi\n      tag_410\n      tag_269\n      jump\t// in\n    tag_410:\n    tag_409:\n      0x20\n      add\n      add\n        /* \"wwcc-contracts/contracts/wwccPool.sol\":10733:10745  str[0] = \"0\" */\n      swap1\n      not(0xffffffffffffffffffffffffffffffffffffffffffffffffffffffffffffff)\n      and\n      swap1\n      dup2\n      0x00\n      byte\n      swap1\n      mstore8\n      pop\n        /* \"wwcc-contracts/contracts/wwccPool.sol\":10759:10771  str[1] = \"x\" */\n      0x7800000000000000000000000000000000000000000000000000000000000000\n        /* \"wwcc-contracts/contracts/wwccPool.sol\":10759:10762  str */\n      dup2\n        /* \"wwcc-contracts/contracts/wwccPool.sol\":10763:10764  1 */\n      0x01\n        /* \"wwcc-contracts/contracts/wwccPool.sol\":10759:10765  str[1] */\n      dup2\n      mload\n      dup2\n      lt\n      tag_411\n      jumpi\n      tag_412\n      tag_269\n      jump\t// in\n    tag_412:\n    tag_411:\n      0x20\n      add\n      add\n        /* \"wwcc-contracts/contracts/wwccPool.sol\":10759:10771  str[1] = \"x\" */\n      swap1\n      not(0xffffffffffffffffffffffffffffffffffffffffffffffffffffffffffffff)\n      and\n      swap1\n      dup2\n      0x00\n      byte\n      swap1\n      mstore8\n      pop\n        /* \"wwcc-contracts/contracts/wwccPool.sol\":10789:10795  uint i */\n      0x00\n        /* \"wwcc-contracts/contracts/wwccPool.sol\":10785:10976  for(uint i =0;i < data.length;i++){... */\n    tag_413:\n        /* \"wwcc-contracts/contracts/wwccPool.sol\":10803:10807  data */\n      dup5\n        /* \"wwcc-contracts/contracts/wwccPool.sol\":10803:10814  data.length */\n      mload\n        /* \"wwcc-contracts/contracts/wwccPool.sol\":10799:10800  i */\n      dup2\n        /* \"wwcc-contracts/contracts/wwccPool.sol\":10799:10814  i < data.length */\n      lt\n        /* \"wwcc-contracts/contracts/wwccPool.sol\":10785:10976  for(uint i =0;i < data.length;i++){... */\n      iszero\n      tag_414\n      jumpi\n        /* \"wwcc-contracts/contracts/wwccPool.sol\":10854:10862  alphabet */\n      dup3\n        /* \"wwcc-contracts/contracts/wwccPool.sol\":10885:10886  4 */\n      0x04\n        /* \"wwcc-contracts/contracts/wwccPool.sol\":10874:10878  data */\n      dup7\n        /* \"wwcc-contracts/contracts/wwccPool.sol\":10879:10880  i */\n      dup4\n        /* \"wwcc-contracts/contracts/wwccPool.sol\":10874:10881  data[i] */\n      dup2\n      mload\n      dup2\n      lt\n      tag_416\n      jumpi\n      tag_417\n      tag_269\n      jump\t// in\n    tag_417:\n    tag_416:\n      0x20\n      add\n      add\n      mload\n      0xf8\n      shr\n      0xf8\n      shl\n        /* \"wwcc-contracts/contracts/wwccPool.sol\":10874:10886  data[i] >> 4 */\n      not(0xffffffffffffffffffffffffffffffffffffffffffffffffffffffffffffff)\n      and\n      swap1\n      shr\n        /* \"wwcc-contracts/contracts/wwccPool.sol\":10868:10887  uint8(data[i] >> 4) */\n      0xf8\n      shr\n        /* \"wwcc-contracts/contracts/wwccPool.sol\":10863:10888  uint(uint8(data[i] >> 4)) */\n      0xff\n      and\n        /* \"wwcc-contracts/contracts/wwccPool.sol\":10854:10889  alphabet[uint(uint8(data[i] >> 4))] */\n      dup2\n      mload\n      dup2\n      lt\n      tag_418\n      jumpi\n      tag_419\n      tag_269\n      jump\t// in\n    tag_419:\n    tag_418:\n      0x20\n      add\n      add\n      mload\n      0xf8\n      shr\n      0xf8\n      shl\n        /* \"wwcc-contracts/contracts/wwccPool.sol\":10837:10840  str */\n      dup3\n        /* \"wwcc-contracts/contracts/wwccPool.sol\":10849:10850  2 */\n      0x02\n        /* \"wwcc-contracts/contracts/wwccPool.sol\":10845:10846  i */\n      dup4\n        /* \"wwcc-contracts/contracts/wwccPool.sol\":10845:10850  i * 2 */\n      tag_420\n      swap2\n      swap1\n      tag_288\n      jump\t// in\n    tag_420:\n        /* \"wwcc-contracts/contracts/wwccPool.sol\":10841:10842  2 */\n      0x02\n        /* \"wwcc-contracts/contracts/wwccPool.sol\":10841:10850  2 + i * 2 */\n      tag_421\n      swap2\n      swap1\n      tag_16\n      jump\t// in\n    tag_421:\n        /* \"wwcc-contracts/contracts/wwccPool.sol\":10837:10851  str[2 + i * 2] */\n      dup2\n      mload\n      dup2\n      lt\n      tag_422\n      jumpi\n      tag_423\n      tag_269\n      jump\t// in\n    tag_423:\n    tag_422:\n      0x20\n      add\n      add\n        /* \"wwcc-contracts/contracts/wwccPool.sol\":10837:10889  str[2 + i * 2] = alphabet[uint(uint8(data[i] >> 4))] */\n      swap1\n      not(0xffffffffffffffffffffffffffffffffffffffffffffffffffffffffffffff)\n      and\n      swap1\n      dup2\n      0x00\n      byte\n      swap1\n      mstore8\n      pop\n        /* \"wwcc-contracts/contracts/wwccPool.sol\":10924:10932  alphabet */\n      dup3\n        /* \"wwcc-contracts/contracts/wwccPool.sol\":10954:10958  0x0f */\n      0x0f\n        /* \"wwcc-contracts/contracts/wwccPool.sol\":10944:10958  data[i] & 0x0f */\n      0xf8\n      shl\n        /* \"wwcc-contracts/contracts/wwccPool.sol\":10944:10948  data */\n      dup7\n        /* \"wwcc-contracts/contracts/wwccPool.sol\":10949:10950  i */\n      dup4\n        /* \"wwcc-contracts/contracts/wwccPool.sol\":10944:10951  data[i] */\n      dup2\n      mload\n      dup2\n      lt\n      tag_424\n      jumpi\n      tag_425\n      tag_269\n      jump\t// in\n    tag_425:\n    tag_424:\n      0x20\n      add\n      add\n      mload\n      0xf8\n      shr\n      0xf8\n      shl\n        /* \"wwcc-contracts/contracts/wwccPool.sol\":10944:10958  data[i] & 0x0f */\n      and\n        /* \"wwcc-contracts/contracts/wwccPool.sol\":10938:10959  uint8(data[i] & 0x0f) */\n      0xf8\n      shr\n        /* \"wwcc-contracts/contracts/wwccPool.sol\":10933:10960  uint(uint8(data[i] & 0x0f)) */\n      0xff\n      and\n        /* \"wwcc-contracts/contracts/wwccPool.sol\":10924:10961  alphabet[uint(uint8(data[i] & 0x0f))] */\n      dup2\n      mload\n      dup2\n      lt\n      tag_426\n      jumpi\n      tag_427\n      tag_269\n      jump\t// in\n    tag_427:\n    tag_426:\n      0x20\n      add\n      add\n      mload\n      0xf8\n      shr\n      0xf8\n      shl\n        /* \"wwcc-contracts/contracts/wwccPool.sol\":10907:10910  str */\n      dup3\n        /* \"wwcc-contracts/contracts/wwccPool.sol\":10919:10920  2 */\n      0x02\n        /* \"wwcc-contracts/contracts/wwccPool.sol\":10915:10916  i */\n      dup4\n        /* \"wwcc-contracts/contracts/wwccPool.sol\":10915:10920  i * 2 */\n      tag_428\n      swap2\n      swap1\n      tag_288\n      jump\t// in\n    tag_428:\n        /* \"wwcc-contracts/contracts/wwccPool.sol\":10911:10912  3 */\n      0x03\n        /* \"wwcc-contracts/contracts/wwccPool.sol\":10911:10920  3 + i * 2 */\n      tag_429\n      swap2\n      swap1\n      tag_16\n      jump\t// in\n    tag_429:\n        /* \"wwcc-contracts/contracts/wwccPool.sol\":10907:10921  str[3 + i * 2] */\n      dup2\n      mload\n      dup2\n      lt\n      tag_430\n      jumpi\n      tag_431\n      tag_269\n      jump\t// in\n    tag_431:\n    tag_430:\n      0x20\n      add\n      add\n        /* \"wwcc-contracts/contracts/wwccPool.sol\":10907:10961  str[3 + i * 2] = alphabet[uint(uint8(data[i] & 0x0f))] */\n      swap1\n      not(0xffffffffffffffffffffffffffffffffffffffffffffffffffffffffffffff)\n      and\n      swap1\n      dup2\n      0x00\n      byte\n      swap1\n      mstore8\n      pop\n        /* \"wwcc-contracts/contracts/wwccPool.sol\":10815:10818  i++ */\n      dup1\n      dup1\n      tag_432\n      swap1\n      tag_329\n      jump\t// in\n    tag_432:\n      swap2\n      pop\n      pop\n        /* \"wwcc-contracts/contracts/wwccPool.sol\":10785:10976  for(uint i =0;i < data.length;i++){... */\n      jump(tag_413)\n    tag_414:\n      pop\n        /* \"wwcc-contracts/contracts/wwccPool.sol\":11003:11006  str */\n      dup1\n        /* \"wwcc-contracts/contracts/wwccPool.sol\":10989:11007  return string(str) */\n      swap3\n      pop\n      pop\n      pop\n        /* \"wwcc-contracts/contracts/wwccPool.sol\":10527:11014  function toString(bytes memory data) internal pure returns(string memory){... */\n      swap2\n      swap1\n      pop\n      jump\t// out\n    tag_122:\n      dup3\n      dup1\n      sload\n      tag_433\n      swap1\n      tag_79\n      jump\t// in\n    tag_433:\n      swap1\n      0x00\n      mstore\n      keccak256(0x00, 0x20)\n      swap1\n      0x1f\n      add\n      0x20\n      swap1\n      div\n      dup2\n      add\n      swap3\n      dup3\n      tag_435\n      jumpi\n      0x00\n      dup6\n      sstore\n      jump(tag_434)\n    tag_435:\n      dup3\n      0x1f\n      lt\n      tag_436\n      jumpi\n      dup1\n      mload\n      not(0xff)\n      and\n      dup4\n      dup1\n      add\n      or\n      dup6\n      sstore\n      jump(tag_434)\n    tag_436:\n      dup3\n      dup1\n      add\n      0x01\n      add\n      dup6\n      sstore\n      dup3\n      iszero\n      tag_434\n      jumpi\n      swap2\n      dup3\n      add\n    tag_437:\n      dup3\n      dup2\n      gt\n      iszero\n      tag_438\n      jumpi\n      dup3\n      mload\n      dup3\n      sstore\n      swap2\n      0x20\n      add\n      swap2\n      swap1\n      0x01\n      add\n      swap1\n      jump(tag_437)\n    tag_438:\n    tag_434:\n      pop\n      swap1\n      pop\n      tag_439\n      swap2\n      swap1\n      tag_440\n      jump\t// in\n    tag_439:\n      pop\n      swap1\n      jump\t// out\n    tag_440:\n    tag_441:\n      dup1\n      dup3\n      gt\n      iszero\n      tag_442\n      jumpi\n      0x00\n      dup2\n      0x00\n      swap1\n      sstore\n      pop\n      0x01\n      add\n      jump(tag_441)\n    tag_442:\n      pop\n      swap1\n      jump\t// out\n        /* \"#utility.yul\":7:419   */\n    tag_444:\n        /* \"#utility.yul\":85:90   */\n      0x00\n        /* \"#utility.yul\":110:176   */\n      tag_446\n        /* \"#utility.yul\":126:175   */\n      tag_447\n        /* \"#utility.yul\":168:174   */\n      dup5\n        /* \"#utility.yul\":126:175   */\n      tag_448\n      jump\t// in\n    tag_447:\n        /* \"#utility.yul\":110:176   */\n      tag_449\n      jump\t// in\n    tag_446:\n        /* \"#utility.yul\":101:176   */\n      swap1\n      pop\n        /* \"#utility.yul\":199:205   */\n      dup3\n        /* \"#utility.yul\":192:197   */\n      dup2\n        /* \"#utility.yul\":185:206   */\n      mstore\n        /* \"#utility.yul\":237:241   */\n      0x20\n        /* \"#utility.yul\":230:235   */\n      dup2\n        /* \"#utility.yul\":226:242   */\n      add\n        /* \"#utility.yul\":275:278   */\n      dup5\n        /* \"#utility.yul\":266:272   */\n      dup5\n        /* \"#utility.yul\":261:264   */\n      dup5\n        /* \"#utility.yul\":257:273   */\n      add\n        /* \"#utility.yul\":254:279   */\n      gt\n        /* \"#utility.yul\":251:363   */\n      iszero\n      tag_450\n      jumpi\n        /* \"#utility.yul\":282:361   */\n      tag_451\n      tag_452\n      jump\t// in\n    tag_451:\n        /* \"#utility.yul\":251:363   */\n    tag_450:\n        /* \"#utility.yul\":372:413   */\n      tag_453\n        /* \"#utility.yul\":406:412   */\n      dup5\n        /* \"#utility.yul\":401:404   */\n      dup3\n        /* \"#utility.yul\":396:399   */\n      dup6\n        /* \"#utility.yul\":372:413   */\n      tag_454\n      jump\t// in\n    tag_453:\n        /* \"#utility.yul\":91:419   */\n      pop\n        /* \"#utility.yul\":7:419   */\n      swap4\n      swap3\n      pop\n      pop\n      pop\n      jump\t// out\n        /* \"#utility.yul\":425:564   */\n    tag_455:\n        /* \"#utility.yul\":471:476   */\n      0x00\n        /* \"#utility.yul\":509:515   */\n      dup2\n        /* \"#utility.yul\":496:516   */\n      calldataload\n        /* \"#utility.yul\":487:516   */\n      swap1\n      pop\n        /* \"#utility.yul\":525:558   */\n      tag_457\n        /* \"#utility.yul\":552:557   */\n      dup2\n        /* \"#utility.yul\":525:558   */\n      tag_458\n      jump\t// in\n    tag_457:\n        /* \"#utility.yul\":425:564   */\n      swap3\n      swap2\n      pop\n      pop\n      jump\t// out\n        /* \"#utility.yul\":570:703   */\n    tag_459:\n        /* \"#utility.yul\":613:618   */\n      0x00\n        /* \"#utility.yul\":651:657   */\n      dup2\n        /* \"#utility.yul\":638:658   */\n      calldataload\n        /* \"#utility.yul\":629:658   */\n      swap1\n      pop\n        /* \"#utility.yul\":667:697   */\n      tag_461\n        /* \"#utility.yul\":691:696   */\n      dup2\n        /* \"#utility.yul\":667:697   */\n      tag_462\n      jump\t// in\n    tag_461:\n        /* \"#utility.yul\":570:703   */\n      swap3\n      swap2\n      pop\n      pop\n      jump\t// out\n        /* \"#utility.yul\":709:848   */\n    tag_463:\n        /* \"#utility.yul\":755:760   */\n      0x00\n        /* \"#utility.yul\":793:799   */\n      dup2\n        /* \"#utility.yul\":780:800   */\n      calldataload\n        /* \"#utility.yul\":771:800   */\n      swap1\n      pop\n        /* \"#utility.yul\":809:842   */\n      tag_465\n        /* \"#utility.yul\":836:841   */\n      dup2\n        /* \"#utility.yul\":809:842   */\n      tag_466\n      jump\t// in\n    tag_465:\n        /* \"#utility.yul\":709:848   */\n      swap3\n      swap2\n      pop\n      pop\n      jump\t// out\n        /* \"#utility.yul\":868:1208   */\n    tag_467:\n        /* \"#utility.yul\":924:929   */\n      0x00\n        /* \"#utility.yul\":973:976   */\n      dup3\n        /* \"#utility.yul\":966:970   */\n      0x1f\n        /* \"#utility.yul\":958:964   */\n      dup4\n        /* \"#utility.yul\":954:971   */\n      add\n        /* \"#utility.yul\":950:977   */\n      slt\n        /* \"#utility.yul\":940:1062   */\n      tag_469\n      jumpi\n        /* \"#utility.yul\":981:1060   */\n      tag_470\n      tag_471\n      jump\t// in\n    tag_470:\n        /* \"#utility.yul\":940:1062   */\n    tag_469:\n        /* \"#utility.yul\":1098:1104   */\n      dup2\n        /* \"#utility.yul\":1085:1105   */\n      calldataload\n        /* \"#utility.yul\":1123:1202   */\n      tag_472\n        /* \"#utility.yul\":1198:1201   */\n      dup5\n        /* \"#utility.yul\":1190:1196   */\n      dup3\n        /* \"#utility.yul\":1183:1187   */\n      0x20\n        /* \"#utility.yul\":1175:1181   */\n      dup7\n        /* \"#utility.yul\":1171:1188   */\n      add\n        /* \"#utility.yul\":1123:1202   */\n      tag_444\n      jump\t// in\n    tag_472:\n        /* \"#utility.yul\":1114:1202   */\n      swap2\n      pop\n        /* \"#utility.yul\":930:1208   */\n      pop\n        /* \"#utility.yul\":868:1208   */\n      swap3\n      swap2\n      pop\n      pop\n      jump\t// out\n        /* \"#utility.yul\":1214:1353   */\n    tag_473:\n        /* \"#utility.yul\":1260:1265   */\n      0x00\n        /* \"#utility.yul\":1298:1304   */\n      dup2\n        /* \"#utility.yul\":1285:1305   */\n      calldataload\n        /* \"#utility.yul\":1276:1305   */\n      swap1\n      pop\n        /* \"#utility.yul\":1314:1347   */\n      tag_475\n        /* \"#utility.yul\":1341:1346   */\n      dup2\n        /* \"#utility.yul\":1314:1347   */\n      tag_476\n      jump\t// in\n    tag_475:\n        /* \"#utility.yul\":1214:1353   */\n      swap3\n      swap2\n      pop\n      pop\n      jump\t// out\n        /* \"#utility.yul\":1359:1833   */\n    tag_22:\n        /* \"#utility.yul\":1427:1433   */\n      0x00\n        /* \"#utility.yul\":1435:1441   */\n      dup1\n        /* \"#utility.yul\":1484:1486   */\n      0x40\n        /* \"#utility.yul\":1472:1481   */\n      dup4\n        /* \"#utility.yul\":1463:1470   */\n      dup6\n        /* \"#utility.yul\":1459:1482   */\n      sub\n        /* \"#utility.yul\":1455:1487   */\n      slt\n        /* \"#utility.yul\":1452:1571   */\n      iszero\n      tag_478\n      jumpi\n        /* \"#utility.yul\":1490:1569   */\n      tag_479\n      tag_480\n      jump\t// in\n    tag_479:\n        /* \"#utility.yul\":1452:1571   */\n    tag_478:\n        /* \"#utility.yul\":1610:1611   */\n      0x00\n        /* \"#utility.yul\":1635:1688   */\n      tag_481\n        /* \"#utility.yul\":1680:1687   */\n      dup6\n        /* \"#utility.yul\":1671:1677   */\n      dup3\n        /* \"#utility.yul\":1660:1669   */\n      dup7\n        /* \"#utility.yul\":1656:1678   */\n      add\n        /* \"#utility.yul\":1635:1688   */\n      tag_455\n      jump\t// in\n    tag_481:\n        /* \"#utility.yul\":1625:1688   */\n      swap3\n      pop\n        /* \"#utility.yul\":1581:1698   */\n      pop\n        /* \"#utility.yul\":1737:1739   */\n      0x20\n        /* \"#utility.yul\":1763:1816   */\n      tag_482\n        /* \"#utility.yul\":1808:1815   */\n      dup6\n        /* \"#utility.yul\":1799:1805   */\n      dup3\n        /* \"#utility.yul\":1788:1797   */\n      dup7\n        /* \"#utility.yul\":1784:1806   */\n      add\n        /* \"#utility.yul\":1763:1816   */\n      tag_463\n      jump\t// in\n    tag_482:\n        /* \"#utility.yul\":1753:1816   */\n      swap2\n      pop\n        /* \"#utility.yul\":1708:1826   */\n      pop\n        /* \"#utility.yul\":1359:1833   */\n      swap3\n      pop\n      swap3\n      swap1\n      pop\n      jump\t// out\n        /* \"#utility.yul\":1839:2313   */\n    tag_58:\n        /* \"#utility.yul\":1907:1913   */\n      0x00\n        /* \"#utility.yul\":1915:1921   */\n      dup1\n        /* \"#utility.yul\":1964:1966   */\n      0x40\n        /* \"#utility.yul\":1952:1961   */\n      dup4\n        /* \"#utility.yul\":1943:1950   */\n      dup6\n        /* \"#utility.yul\":1939:1962   */\n      sub\n        /* \"#utility.yul\":1935:1967   */\n      slt\n        /* \"#utility.yul\":1932:2051   */\n      iszero\n      tag_484\n      jumpi\n        /* \"#utility.yul\":1970:2049   */\n      tag_485\n      tag_480\n      jump\t// in\n    tag_485:\n        /* \"#utility.yul\":1932:2051   */\n    tag_484:\n        /* \"#utility.yul\":2090:2091   */\n      0x00\n        /* \"#utility.yul\":2115:2168   */\n      tag_486\n        /* \"#utility.yul\":2160:2167   */\n      dup6\n        /* \"#utility.yul\":2151:2157   */\n      dup3\n        /* \"#utility.yul\":2140:2149   */\n      dup7\n        /* \"#utility.yul\":2136:2158   */\n      add\n        /* \"#utility.yul\":2115:2168   */\n      tag_455\n      jump\t// in\n    tag_486:\n        /* \"#utility.yul\":2105:2168   */\n      swap3\n      pop\n        /* \"#utility.yul\":2061:2178   */\n      pop\n        /* \"#utility.yul\":2217:2219   */\n      0x20\n        /* \"#utility.yul\":2243:2296   */\n      tag_487\n        /* \"#utility.yul\":2288:2295   */\n      dup6\n        /* \"#utility.yul\":2279:2285   */\n      dup3\n        /* \"#utility.yul\":2268:2277   */\n      dup7\n        /* \"#utility.yul\":2264:2286   */\n      add\n        /* \"#utility.yul\":2243:2296   */\n      tag_473\n      jump\t// in\n    tag_487:\n        /* \"#utility.yul\":2233:2296   */\n      swap2\n      pop\n        /* \"#utility.yul\":2188:2306   */\n      pop\n        /* \"#utility.yul\":1839:2313   */\n      swap3\n      pop\n      swap3\n      swap1\n      pop\n      jump\t// out\n        /* \"#utility.yul\":2319:3376   */\n    tag_43:\n        /* \"#utility.yul\":2423:2429   */\n      0x00\n        /* \"#utility.yul\":2431:2437   */\n      dup1\n        /* \"#utility.yul\":2439:2445   */\n      0x00\n        /* \"#utility.yul\":2447:2453   */\n      dup1\n        /* \"#utility.yul\":2455:2461   */\n      0x00\n        /* \"#utility.yul\":2463:2469   */\n      dup1\n        /* \"#utility.yul\":2512:2515   */\n      0xc0\n        /* \"#utility.yul\":2500:2509   */\n      dup8\n        /* \"#utility.yul\":2491:2498   */\n      dup10\n        /* \"#utility.yul\":2487:2510   */\n      sub\n        /* \"#utility.yul\":2483:2516   */\n      slt\n        /* \"#utility.yul\":2480:2600   */\n      iszero\n      tag_489\n      jumpi\n        /* \"#utility.yul\":2519:2598   */\n      tag_490\n      tag_480\n      jump\t// in\n    tag_490:\n        /* \"#utility.yul\":2480:2600   */\n    tag_489:\n        /* \"#utility.yul\":2639:2640   */\n      0x00\n        /* \"#utility.yul\":2664:2717   */\n      tag_491\n        /* \"#utility.yul\":2709:2716   */\n      dup10\n        /* \"#utility.yul\":2700:2706   */\n      dup3\n        /* \"#utility.yul\":2689:2698   */\n      dup11\n        /* \"#utility.yul\":2685:2707   */\n      add\n        /* \"#utility.yul\":2664:2717   */\n      tag_455\n      jump\t// in\n    tag_491:\n        /* \"#utility.yul\":2654:2717   */\n      swap7\n      pop\n        /* \"#utility.yul\":2610:2727   */\n      pop\n        /* \"#utility.yul\":2766:2768   */\n      0x20\n        /* \"#utility.yul\":2792:2845   */\n      tag_492\n        /* \"#utility.yul\":2837:2844   */\n      dup10\n        /* \"#utility.yul\":2828:2834   */\n      dup3\n        /* \"#utility.yul\":2817:2826   */\n      dup11\n        /* \"#utility.yul\":2813:2835   */\n      add\n        /* \"#utility.yul\":2792:2845   */\n      tag_473\n      jump\t// in\n    tag_492:\n        /* \"#utility.yul\":2782:2845   */\n      swap6\n      pop\n        /* \"#utility.yul\":2737:2855   */\n      pop\n        /* \"#utility.yul\":2894:2896   */\n      0x40\n        /* \"#utility.yul\":2920:2973   */\n      tag_493\n        /* \"#utility.yul\":2965:2972   */\n      dup10\n        /* \"#utility.yul\":2956:2962   */\n      dup3\n        /* \"#utility.yul\":2945:2954   */\n      dup11\n        /* \"#utility.yul\":2941:2963   */\n      add\n        /* \"#utility.yul\":2920:2973   */\n      tag_463\n      jump\t// in\n    tag_493:\n        /* \"#utility.yul\":2910:2973   */\n      swap5\n      pop\n        /* \"#utility.yul\":2865:2983   */\n      pop\n        /* \"#utility.yul\":3022:3024   */\n      0x60\n        /* \"#utility.yul\":3048:3101   */\n      tag_494\n        /* \"#utility.yul\":3093:3100   */\n      dup10\n        /* \"#utility.yul\":3084:3090   */\n      dup3\n        /* \"#utility.yul\":3073:3082   */\n      dup11\n        /* \"#utility.yul\":3069:3091   */\n      add\n        /* \"#utility.yul\":3048:3101   */\n      tag_473\n      jump\t// in\n    tag_494:\n        /* \"#utility.yul\":3038:3101   */\n      swap4\n      pop\n        /* \"#utility.yul\":2993:3111   */\n      pop\n        /* \"#utility.yul\":3150:3153   */\n      0x80\n        /* \"#utility.yul\":3177:3230   */\n      tag_495\n        /* \"#utility.yul\":3222:3229   */\n      dup10\n        /* \"#utility.yul\":3213:3219   */\n      dup3\n        /* \"#utility.yul\":3202:3211   */\n      dup11\n        /* \"#utility.yul\":3198:3220   */\n      add\n        /* \"#utility.yul\":3177:3230   */\n      tag_473\n      jump\t// in\n    tag_495:\n        /* \"#utility.yul\":3167:3230   */\n      swap3\n      pop\n        /* \"#utility.yul\":3121:3240   */\n      pop\n        /* \"#utility.yul\":3279:3282   */\n      0xa0\n        /* \"#utility.yul\":3306:3359   */\n      tag_496\n        /* \"#utility.yul\":3351:3358   */\n      dup10\n        /* \"#utility.yul\":3342:3348   */\n      dup3\n        /* \"#utility.yul\":3331:3340   */\n      dup11\n        /* \"#utility.yul\":3327:3349   */\n      add\n        /* \"#utility.yul\":3306:3359   */\n      tag_473\n      jump\t// in\n    tag_496:\n        /* \"#utility.yul\":3296:3359   */\n      swap2\n      pop\n        /* \"#utility.yul\":3250:3369   */\n      pop\n        /* \"#utility.yul\":2319:3376   */\n      swap3\n      swap6\n      pop\n      swap3\n      swap6\n      pop\n      swap3\n      swap6\n      jump\t// out\n        /* \"#utility.yul\":3382:3711   */\n    tag_36:\n        /* \"#utility.yul\":3441:3447   */\n      0x00\n        /* \"#utility.yul\":3490:3492   */\n      0x20\n        /* \"#utility.yul\":3478:3487   */\n      dup3\n        /* \"#utility.yul\":3469:3476   */\n      dup5\n        /* \"#utility.yul\":3465:3488   */\n      sub\n        /* \"#utility.yul\":3461:3493   */\n      slt\n        /* \"#utility.yul\":3458:3577   */\n      iszero\n      tag_498\n      jumpi\n        /* \"#utility.yul\":3496:3575   */\n      tag_499\n      tag_480\n      jump\t// in\n    tag_499:\n        /* \"#utility.yul\":3458:3577   */\n    tag_498:\n        /* \"#utility.yul\":3616:3617   */\n      0x00\n        /* \"#utility.yul\":3641:3694   */\n      tag_500\n        /* \"#utility.yul\":3686:3693   */\n      dup5\n        /* \"#utility.yul\":3677:3683   */\n      dup3\n        /* \"#utility.yul\":3666:3675   */\n      dup6\n        /* \"#utility.yul\":3662:3684   */\n      add\n        /* \"#utility.yul\":3641:3694   */\n      tag_463\n      jump\t// in\n    tag_500:\n        /* \"#utility.yul\":3631:3694   */\n      swap2\n      pop\n        /* \"#utility.yul\":3587:3704   */\n      pop\n        /* \"#utility.yul\":3382:3711   */\n      swap3\n      swap2\n      pop\n      pop\n      jump\t// out\n        /* \"#utility.yul\":3717:4482   */\n    tag_53:\n        /* \"#utility.yul\":3803:3809   */\n      0x00\n        /* \"#utility.yul\":3811:3817   */\n      dup1\n        /* \"#utility.yul\":3819:3825   */\n      0x00\n        /* \"#utility.yul\":3827:3833   */\n      dup1\n        /* \"#utility.yul\":3876:3879   */\n      0x80\n        /* \"#utility.yul\":3864:3873   */\n      dup6\n        /* \"#utility.yul\":3855:3862   */\n      dup8\n        /* \"#utility.yul\":3851:3874   */\n      sub\n        /* \"#utility.yul\":3847:3880   */\n      slt\n        /* \"#utility.yul\":3844:3964   */\n      iszero\n      tag_502\n      jumpi\n        /* \"#utility.yul\":3883:3962   */\n      tag_503\n      tag_480\n      jump\t// in\n    tag_503:\n        /* \"#utility.yul\":3844:3964   */\n    tag_502:\n        /* \"#utility.yul\":4003:4004   */\n      0x00\n        /* \"#utility.yul\":4028:4081   */\n      tag_504\n        /* \"#utility.yul\":4073:4080   */\n      dup8\n        /* \"#utility.yul\":4064:4070   */\n      dup3\n        /* \"#utility.yul\":4053:4062   */\n      dup9\n        /* \"#utility.yul\":4049:4071   */\n      add\n        /* \"#utility.yul\":4028:4081   */\n      tag_463\n      jump\t// in\n    tag_504:\n        /* \"#utility.yul\":4018:4081   */\n      swap5\n      pop\n        /* \"#utility.yul\":3974:4091   */\n      pop\n        /* \"#utility.yul\":4130:4132   */\n      0x20\n        /* \"#utility.yul\":4156:4209   */\n      tag_505\n        /* \"#utility.yul\":4201:4208   */\n      dup8\n        /* \"#utility.yul\":4192:4198   */\n      dup3\n        /* \"#utility.yul\":4181:4190   */\n      dup9\n        /* \"#utility.yul\":4177:4199   */\n      add\n        /* \"#utility.yul\":4156:4209   */\n      tag_473\n      jump\t// in\n    tag_505:\n        /* \"#utility.yul\":4146:4209   */\n      swap4\n      pop\n        /* \"#utility.yul\":4101:4219   */\n      pop\n        /* \"#utility.yul\":4258:4260   */\n      0x40\n        /* \"#utility.yul\":4284:4337   */\n      tag_506\n        /* \"#utility.yul\":4329:4336   */\n      dup8\n        /* \"#utility.yul\":4320:4326   */\n      dup3\n        /* \"#utility.yul\":4309:4318   */\n      dup9\n        /* \"#utility.yul\":4305:4327   */\n      add\n        /* \"#utility.yul\":4284:4337   */\n      tag_473\n      jump\t// in\n    tag_506:\n        /* \"#utility.yul\":4274:4337   */\n      swap3\n      pop\n        /* \"#utility.yul\":4229:4347   */\n      pop\n        /* \"#utility.yul\":4386:4388   */\n      0x60\n        /* \"#utility.yul\":4412:4465   */\n      tag_507\n        /* \"#utility.yul\":4457:4464   */\n      dup8\n        /* \"#utility.yul\":4448:4454   */\n      dup3\n        /* \"#utility.yul\":4437:4446   */\n      dup9\n        /* \"#utility.yul\":4433:4455   */\n      add\n        /* \"#utility.yul\":4412:4465   */\n      tag_473\n      jump\t// in\n    tag_507:\n        /* \"#utility.yul\":4402:4465   */\n      swap2\n      pop\n        /* \"#utility.yul\":4357:4475   */\n      pop\n        /* \"#utility.yul\":3717:4482   */\n      swap3\n      swap6\n      swap2\n      swap5\n      pop\n      swap3\n      pop\n      jump\t// out\n        /* \"#utility.yul\":4488:5787   */\n    tag_29:\n        /* \"#utility.yul\":4601:4607   */\n      0x00\n        /* \"#utility.yul\":4609:4615   */\n      dup1\n        /* \"#utility.yul\":4617:4623   */\n      0x00\n        /* \"#utility.yul\":4625:4631   */\n      dup1\n        /* \"#utility.yul\":4674:4677   */\n      0x80\n        /* \"#utility.yul\":4662:4671   */\n      dup6\n        /* \"#utility.yul\":4653:4660   */\n      dup8\n        /* \"#utility.yul\":4649:4672   */\n      sub\n        /* \"#utility.yul\":4645:4678   */\n      slt\n        /* \"#utility.yul\":4642:4762   */\n      iszero\n      tag_509\n      jumpi\n        /* \"#utility.yul\":4681:4760   */\n      tag_510\n      tag_480\n      jump\t// in\n    tag_510:\n        /* \"#utility.yul\":4642:4762   */\n    tag_509:\n        /* \"#utility.yul\":4829:4830   */\n      0x00\n        /* \"#utility.yul\":4818:4827   */\n      dup6\n        /* \"#utility.yul\":4814:4831   */\n      add\n        /* \"#utility.yul\":4801:4832   */\n      calldataload\n        /* \"#utility.yul\":4859:4877   */\n      0xffffffffffffffff\n        /* \"#utility.yul\":4851:4857   */\n      dup2\n        /* \"#utility.yul\":4848:4878   */\n      gt\n        /* \"#utility.yul\":4845:4962   */\n      iszero\n      tag_511\n      jumpi\n        /* \"#utility.yul\":4881:4960   */\n      tag_512\n      tag_513\n      jump\t// in\n    tag_512:\n        /* \"#utility.yul\":4845:4962   */\n    tag_511:\n        /* \"#utility.yul\":4986:5049   */\n      tag_514\n        /* \"#utility.yul\":5041:5048   */\n      dup8\n        /* \"#utility.yul\":5032:5038   */\n      dup3\n        /* \"#utility.yul\":5021:5030   */\n      dup9\n        /* \"#utility.yul\":5017:5039   */\n      add\n        /* \"#utility.yul\":4986:5049   */\n      tag_467\n      jump\t// in\n    tag_514:\n        /* \"#utility.yul\":4976:5049   */\n      swap5\n      pop\n        /* \"#utility.yul\":4772:5059   */\n      pop\n        /* \"#utility.yul\":5126:5128   */\n      0x20\n        /* \"#utility.yul\":5115:5124   */\n      dup6\n        /* \"#utility.yul\":5111:5129   */\n      add\n        /* \"#utility.yul\":5098:5130   */\n      calldataload\n        /* \"#utility.yul\":5157:5175   */\n      0xffffffffffffffff\n        /* \"#utility.yul\":5149:5155   */\n      dup2\n        /* \"#utility.yul\":5146:5176   */\n      gt\n        /* \"#utility.yul\":5143:5260   */\n      iszero\n      tag_515\n      jumpi\n        /* \"#utility.yul\":5179:5258   */\n      tag_516\n      tag_513\n      jump\t// in\n    tag_516:\n        /* \"#utility.yul\":5143:5260   */\n    tag_515:\n        /* \"#utility.yul\":5284:5347   */\n      tag_517\n        /* \"#utility.yul\":5339:5346   */\n      dup8\n        /* \"#utility.yul\":5330:5336   */\n      dup3\n        /* \"#utility.yul\":5319:5328   */\n      dup9\n        /* \"#utility.yul\":5315:5337   */\n      add\n        /* \"#utility.yul\":5284:5347   */\n      tag_467\n      jump\t// in\n    tag_517:\n        /* \"#utility.yul\":5274:5347   */\n      swap4\n      pop\n        /* \"#utility.yul\":5069:5357   */\n      pop\n        /* \"#utility.yul\":5424:5426   */\n      0x40\n        /* \"#utility.yul\":5413:5422   */\n      dup6\n        /* \"#utility.yul\":5409:5427   */\n      add\n        /* \"#utility.yul\":5396:5428   */\n      calldataload\n        /* \"#utility.yul\":5455:5473   */\n      0xffffffffffffffff\n        /* \"#utility.yul\":5447:5453   */\n      dup2\n        /* \"#utility.yul\":5444:5474   */\n      gt\n        /* \"#utility.yul\":5441:5558   */\n      iszero\n      tag_518\n      jumpi\n        /* \"#utility.yul\":5477:5556   */\n      tag_519\n      tag_513\n      jump\t// in\n    tag_519:\n        /* \"#utility.yul\":5441:5558   */\n    tag_518:\n        /* \"#utility.yul\":5582:5645   */\n      tag_520\n        /* \"#utility.yul\":5637:5644   */\n      dup8\n        /* \"#utility.yul\":5628:5634   */\n      dup3\n        /* \"#utility.yul\":5617:5626   */\n      dup9\n        /* \"#utility.yul\":5613:5635   */\n      add\n        /* \"#utility.yul\":5582:5645   */\n      tag_467\n      jump\t// in\n    tag_520:\n        /* \"#utility.yul\":5572:5645   */\n      swap3\n      pop\n        /* \"#utility.yul\":5367:5655   */\n      pop\n        /* \"#utility.yul\":5694:5696   */\n      0x60\n        /* \"#utility.yul\":5720:5770   */\n      tag_521\n        /* \"#utility.yul\":5762:5769   */\n      dup8\n        /* \"#utility.yul\":5753:5759   */\n      dup3\n        /* \"#utility.yul\":5742:5751   */\n      dup9\n        /* \"#utility.yul\":5738:5760   */\n      add\n        /* \"#utility.yul\":5720:5770   */\n      tag_459\n      jump\t// in\n    tag_521:\n        /* \"#utility.yul\":5710:5770   */\n      swap2\n      pop\n        /* \"#utility.yul\":5665:5780   */\n      pop\n        /* \"#utility.yul\":4488:5787   */\n      swap3\n      swap6\n      swap2\n      swap5\n      pop\n      swap3\n      pop\n      jump\t// out\n        /* \"#utility.yul\":5793:5911   */\n    tag_522:\n        /* \"#utility.yul\":5880:5904   */\n      tag_524\n        /* \"#utility.yul\":5898:5903   */\n      dup2\n        /* \"#utility.yul\":5880:5904   */\n      tag_525\n      jump\t// in\n    tag_524:\n        /* \"#utility.yul\":5875:5878   */\n      dup3\n        /* \"#utility.yul\":5868:5905   */\n      mstore\n        /* \"#utility.yul\":5793:5911   */\n      pop\n      pop\n      jump\t// out\n        /* \"#utility.yul\":5917:6026   */\n    tag_526:\n        /* \"#utility.yul\":5998:6019   */\n      tag_528\n        /* \"#utility.yul\":6013:6018   */\n      dup2\n        /* \"#utility.yul\":5998:6019   */\n      tag_529\n      jump\t// in\n    tag_528:\n        /* \"#utility.yul\":5993:5996   */\n      dup3\n        /* \"#utility.yul\":5986:6020   */\n      mstore\n        /* \"#utility.yul\":5917:6026   */\n      pop\n      pop\n      jump\t// out\n        /* \"#utility.yul\":6032:6150   */\n    tag_530:\n        /* \"#utility.yul\":6119:6143   */\n      tag_532\n        /* \"#utility.yul\":6137:6142   */\n      dup2\n        /* \"#utility.yul\":6119:6143   */\n      tag_533\n      jump\t// in\n    tag_532:\n        /* \"#utility.yul\":6114:6117   */\n      dup3\n        /* \"#utility.yul\":6107:6144   */\n      mstore\n        /* \"#utility.yul\":6032:6150   */\n      pop\n      pop\n      jump\t// out\n        /* \"#utility.yul\":6156:6313   */\n    tag_534:\n        /* \"#utility.yul\":6261:6306   */\n      tag_536\n        /* \"#utility.yul\":6281:6305   */\n      tag_537\n        /* \"#utility.yul\":6299:6304   */\n      dup3\n        /* \"#utility.yul\":6281:6305   */\n      tag_533\n      jump\t// in\n    tag_537:\n        /* \"#utility.yul\":6261:6306   */\n      tag_538\n      jump\t// in\n    tag_536:\n        /* \"#utility.yul\":6256:6259   */\n      dup3\n        /* \"#utility.yul\":6249:6307   */\n      mstore\n        /* \"#utility.yul\":6156:6313   */\n      pop\n      pop\n      jump\t// out\n        /* \"#utility.yul\":6319:6683   */\n    tag_539:\n        /* \"#utility.yul\":6407:6410   */\n      0x00\n        /* \"#utility.yul\":6435:6474   */\n      tag_541\n        /* \"#utility.yul\":6468:6473   */\n      dup3\n        /* \"#utility.yul\":6435:6474   */\n      tag_542\n      jump\t// in\n    tag_541:\n        /* \"#utility.yul\":6490:6561   */\n      tag_543\n        /* \"#utility.yul\":6554:6560   */\n      dup2\n        /* \"#utility.yul\":6549:6552   */\n      dup6\n        /* \"#utility.yul\":6490:6561   */\n      tag_544\n      jump\t// in\n    tag_543:\n        /* \"#utility.yul\":6483:6561   */\n      swap4\n      pop\n        /* \"#utility.yul\":6570:6622   */\n      tag_545\n        /* \"#utility.yul\":6615:6621   */\n      dup2\n        /* \"#utility.yul\":6610:6613   */\n      dup6\n        /* \"#utility.yul\":6603:6607   */\n      0x20\n        /* \"#utility.yul\":6596:6601   */\n      dup7\n        /* \"#utility.yul\":6592:6608   */\n      add\n        /* \"#utility.yul\":6570:6622   */\n      tag_546\n      jump\t// in\n    tag_545:\n        /* \"#utility.yul\":6647:6676   */\n      tag_547\n        /* \"#utility.yul\":6669:6675   */\n      dup2\n        /* \"#utility.yul\":6647:6676   */\n      tag_548\n      jump\t// in\n    tag_547:\n        /* \"#utility.yul\":6642:6645   */\n      dup5\n        /* \"#utility.yul\":6638:6677   */\n      add\n        /* \"#utility.yul\":6631:6677   */\n      swap2\n      pop\n        /* \"#utility.yul\":6411:6683   */\n      pop\n        /* \"#utility.yul\":6319:6683   */\n      swap3\n      swap2\n      pop\n      pop\n      jump\t// out\n        /* \"#utility.yul\":6689:7066   */\n    tag_549:\n        /* \"#utility.yul\":6795:6798   */\n      0x00\n        /* \"#utility.yul\":6823:6862   */\n      tag_551\n        /* \"#utility.yul\":6856:6861   */\n      dup3\n        /* \"#utility.yul\":6823:6862   */\n      tag_542\n      jump\t// in\n    tag_551:\n        /* \"#utility.yul\":6878:6967   */\n      tag_552\n        /* \"#utility.yul\":6960:6966   */\n      dup2\n        /* \"#utility.yul\":6955:6958   */\n      dup6\n        /* \"#utility.yul\":6878:6967   */\n      tag_553\n      jump\t// in\n    tag_552:\n        /* \"#utility.yul\":6871:6967   */\n      swap4\n      pop\n        /* \"#utility.yul\":6976:7028   */\n      tag_554\n        /* \"#utility.yul\":7021:7027   */\n      dup2\n        /* \"#utility.yul\":7016:7019   */\n      dup6\n        /* \"#utility.yul\":7009:7013   */\n      0x20\n        /* \"#utility.yul\":7002:7007   */\n      dup7\n        /* \"#utility.yul\":6998:7014   */\n      add\n        /* \"#utility.yul\":6976:7028   */\n      tag_546\n      jump\t// in\n    tag_554:\n        /* \"#utility.yul\":7053:7059   */\n      dup1\n        /* \"#utility.yul\":7048:7051   */\n      dup5\n        /* \"#utility.yul\":7044:7060   */\n      add\n        /* \"#utility.yul\":7037:7060   */\n      swap2\n      pop\n        /* \"#utility.yul\":6799:7066   */\n      pop\n        /* \"#utility.yul\":6689:7066   */\n      swap3\n      swap2\n      pop\n      pop\n      jump\t// out\n        /* \"#utility.yul\":7072:7438   */\n    tag_555:\n        /* \"#utility.yul\":7214:7217   */\n      0x00\n        /* \"#utility.yul\":7235:7302   */\n      tag_557\n        /* \"#utility.yul\":7299:7301   */\n      0x19\n        /* \"#utility.yul\":7294:7297   */\n      dup4\n        /* \"#utility.yul\":7235:7302   */\n      tag_544\n      jump\t// in\n    tag_557:\n        /* \"#utility.yul\":7228:7302   */\n      swap2\n      pop\n        /* \"#utility.yul\":7311:7404   */\n      tag_558\n        /* \"#utility.yul\":7400:7403   */\n      dup3\n        /* \"#utility.yul\":7311:7404   */\n      tag_559\n      jump\t// in\n    tag_558:\n        /* \"#utility.yul\":7429:7431   */\n      0x20\n        /* \"#utility.yul\":7424:7427   */\n      dup3\n        /* \"#utility.yul\":7420:7432   */\n      add\n        /* \"#utility.yul\":7413:7432   */\n      swap1\n      pop\n        /* \"#utility.yul\":7072:7438   */\n      swap2\n      swap1\n      pop\n      jump\t// out\n        /* \"#utility.yul\":7444:7809   */\n    tag_560:\n        /* \"#utility.yul\":7586:7589   */\n      0x00\n        /* \"#utility.yul\":7607:7673   */\n      tag_562\n        /* \"#utility.yul\":7671:7672   */\n      0x09\n        /* \"#utility.yul\":7666:7669   */\n      dup4\n        /* \"#utility.yul\":7607:7673   */\n      tag_544\n      jump\t// in\n    tag_562:\n        /* \"#utility.yul\":7600:7673   */\n      swap2\n      pop\n        /* \"#utility.yul\":7682:7775   */\n      tag_563\n        /* \"#utility.yul\":7771:7774   */\n      dup3\n        /* \"#utility.yul\":7682:7775   */\n      tag_564\n      jump\t// in\n    tag_563:\n        /* \"#utility.yul\":7800:7802   */\n      0x20\n        /* \"#utility.yul\":7795:7798   */\n      dup3\n        /* \"#utility.yul\":7791:7803   */\n      add\n        /* \"#utility.yul\":7784:7803   */\n      swap1\n      pop\n        /* \"#utility.yul\":7444:7809   */\n      swap2\n      swap1\n      pop\n      jump\t// out\n        /* \"#utility.yul\":7815:8181   */\n    tag_565:\n        /* \"#utility.yul\":7957:7960   */\n      0x00\n        /* \"#utility.yul\":7978:8045   */\n      tag_567\n        /* \"#utility.yul\":8042:8044   */\n      0x0e\n        /* \"#utility.yul\":8037:8040   */\n      dup4\n        /* \"#utility.yul\":7978:8045   */\n      tag_544\n      jump\t// in\n    tag_567:\n        /* \"#utility.yul\":7971:8045   */\n      swap2\n      pop\n        /* \"#utility.yul\":8054:8147   */\n      tag_568\n        /* \"#utility.yul\":8143:8146   */\n      dup3\n        /* \"#utility.yul\":8054:8147   */\n      tag_569\n      jump\t// in\n    tag_568:\n        /* \"#utility.yul\":8172:8174   */\n      0x20\n        /* \"#utility.yul\":8167:8170   */\n      dup3\n        /* \"#utility.yul\":8163:8175   */\n      add\n        /* \"#utility.yul\":8156:8175   */\n      swap1\n      pop\n        /* \"#utility.yul\":7815:8181   */\n      swap2\n      swap1\n      pop\n      jump\t// out\n        /* \"#utility.yul\":8187:8553   */\n    tag_570:\n        /* \"#utility.yul\":8329:8332   */\n      0x00\n        /* \"#utility.yul\":8350:8417   */\n      tag_572\n        /* \"#utility.yul\":8414:8416   */\n      0x0a\n        /* \"#utility.yul\":8409:8412   */\n      dup4\n        /* \"#utility.yul\":8350:8417   */\n      tag_544\n      jump\t// in\n    tag_572:\n        /* \"#utility.yul\":8343:8417   */\n      swap2\n      pop\n        /* \"#utility.yul\":8426:8519   */\n      tag_573\n        /* \"#utility.yul\":8515:8518   */\n      dup3\n        /* \"#utility.yul\":8426:8519   */\n      tag_574\n      jump\t// in\n    tag_573:\n        /* \"#utility.yul\":8544:8546   */\n      0x20\n        /* \"#utility.yul\":8539:8542   */\n      dup3\n        /* \"#utility.yul\":8535:8547   */\n      add\n        /* \"#utility.yul\":8528:8547   */\n      swap1\n      pop\n        /* \"#utility.yul\":8187:8553   */\n      swap2\n      swap1\n      pop\n      jump\t// out\n        /* \"#utility.yul\":8559:8925   */\n    tag_575:\n        /* \"#utility.yul\":8701:8704   */\n      0x00\n        /* \"#utility.yul\":8722:8789   */\n      tag_577\n        /* \"#utility.yul\":8786:8788   */\n      0x15\n        /* \"#utility.yul\":8781:8784   */\n      dup4\n        /* \"#utility.yul\":8722:8789   */\n      tag_544\n      jump\t// in\n    tag_577:\n        /* \"#utility.yul\":8715:8789   */\n      swap2\n      pop\n        /* \"#utility.yul\":8798:8891   */\n      tag_578\n        /* \"#utility.yul\":8887:8890   */\n      dup3\n        /* \"#utility.yul\":8798:8891   */\n      tag_579\n      jump\t// in\n    tag_578:\n        /* \"#utility.yul\":8916:8918   */\n      0x20\n        /* \"#utility.yul\":8911:8914   */\n      dup3\n        /* \"#utility.yul\":8907:8919   */\n      add\n        /* \"#utility.yul\":8900:8919   */\n      swap1\n      pop\n        /* \"#utility.yul\":8559:8925   */\n      swap2\n      swap1\n      pop\n      jump\t// out\n        /* \"#utility.yul\":8931:9297   */\n    tag_580:\n        /* \"#utility.yul\":9073:9076   */\n      0x00\n        /* \"#utility.yul\":9094:9161   */\n      tag_582\n        /* \"#utility.yul\":9158:9160   */\n      0x15\n        /* \"#utility.yul\":9153:9156   */\n      dup4\n        /* \"#utility.yul\":9094:9161   */\n      tag_544\n      jump\t// in\n    tag_582:\n        /* \"#utility.yul\":9087:9161   */\n      swap2\n      pop\n        /* \"#utility.yul\":9170:9263   */\n      tag_583\n        /* \"#utility.yul\":9259:9262   */\n      dup3\n        /* \"#utility.yul\":9170:9263   */\n      tag_584\n      jump\t// in\n    tag_583:\n        /* \"#utility.yul\":9288:9290   */\n      0x20\n        /* \"#utility.yul\":9283:9286   */\n      dup3\n        /* \"#utility.yul\":9279:9291   */\n      add\n        /* \"#utility.yul\":9272:9291   */\n      swap1\n      pop\n        /* \"#utility.yul\":8931:9297   */\n      swap2\n      swap1\n      pop\n      jump\t// out\n        /* \"#utility.yul\":9303:9421   */\n    tag_585:\n        /* \"#utility.yul\":9390:9414   */\n      tag_587\n        /* \"#utility.yul\":9408:9413   */\n      dup2\n        /* \"#utility.yul\":9390:9414   */\n      tag_588\n      jump\t// in\n    tag_587:\n        /* \"#utility.yul\":9385:9388   */\n      dup3\n        /* \"#utility.yul\":9378:9415   */\n      mstore\n        /* \"#utility.yul\":9303:9421   */\n      pop\n      pop\n      jump\t// out\n        /* \"#utility.yul\":9427:9584   */\n    tag_589:\n        /* \"#utility.yul\":9532:9577   */\n      tag_591\n        /* \"#utility.yul\":9552:9576   */\n      tag_592\n        /* \"#utility.yul\":9570:9575   */\n      dup3\n        /* \"#utility.yul\":9552:9576   */\n      tag_588\n      jump\t// in\n    tag_592:\n        /* \"#utility.yul\":9532:9577   */\n      tag_593\n      jump\t// in\n    tag_591:\n        /* \"#utility.yul\":9527:9530   */\n      dup3\n        /* \"#utility.yul\":9520:9578   */\n      mstore\n        /* \"#utility.yul\":9427:9584   */\n      pop\n      pop\n      jump\t// out\n        /* \"#utility.yul\":9590:9846   */\n    tag_402:\n        /* \"#utility.yul\":9702:9705   */\n      0x00\n        /* \"#utility.yul\":9717:9792   */\n      tag_595\n        /* \"#utility.yul\":9788:9791   */\n      dup3\n        /* \"#utility.yul\":9779:9785   */\n      dup5\n        /* \"#utility.yul\":9717:9792   */\n      tag_534\n      jump\t// in\n    tag_595:\n        /* \"#utility.yul\":9817:9819   */\n      0x20\n        /* \"#utility.yul\":9812:9815   */\n      dup3\n        /* \"#utility.yul\":9808:9820   */\n      add\n        /* \"#utility.yul\":9801:9820   */\n      swap2\n      pop\n        /* \"#utility.yul\":9837:9840   */\n      dup2\n        /* \"#utility.yul\":9830:9840   */\n      swap1\n      pop\n        /* \"#utility.yul\":9590:9846   */\n      swap3\n      swap2\n      pop\n      pop\n      jump\t// out\n        /* \"#utility.yul\":9852:10127   */\n    tag_115:\n        /* \"#utility.yul\":9984:9987   */\n      0x00\n        /* \"#utility.yul\":10006:10101   */\n      tag_597\n        /* \"#utility.yul\":10097:10100   */\n      dup3\n        /* \"#utility.yul\":10088:10094   */\n      dup5\n        /* \"#utility.yul\":10006:10101   */\n      tag_549\n      jump\t// in\n    tag_597:\n        /* \"#utility.yul\":9999:10101   */\n      swap2\n      pop\n        /* \"#utility.yul\":10118:10121   */\n      dup2\n        /* \"#utility.yul\":10111:10121   */\n      swap1\n      pop\n        /* \"#utility.yul\":9852:10127   */\n      swap3\n      swap2\n      pop\n      pop\n      jump\t// out\n        /* \"#utility.yul\":10133:10389   */\n    tag_397:\n        /* \"#utility.yul\":10245:10248   */\n      0x00\n        /* \"#utility.yul\":10260:10335   */\n      tag_599\n        /* \"#utility.yul\":10331:10334   */\n      dup3\n        /* \"#utility.yul\":10322:10328   */\n      dup5\n        /* \"#utility.yul\":10260:10335   */\n      tag_589\n      jump\t// in\n    tag_599:\n        /* \"#utility.yul\":10360:10362   */\n      0x20\n        /* \"#utility.yul\":10355:10358   */\n      dup3\n        /* \"#utility.yul\":10351:10363   */\n      add\n        /* \"#utility.yul\":10344:10363   */\n      swap2\n      pop\n        /* \"#utility.yul\":10380:10383   */\n      dup2\n        /* \"#utility.yul\":10373:10383   */\n      swap1\n      pop\n        /* \"#utility.yul\":10133:10389   */\n      swap3\n      swap2\n      pop\n      pop\n      jump\t// out\n        /* \"#utility.yul\":10395:10727   */\n    tag_18:\n        /* \"#utility.yul\":10516:10520   */\n      0x00\n        /* \"#utility.yul\":10554:10556   */\n      0x40\n        /* \"#utility.yul\":10543:10552   */\n      dup3\n        /* \"#utility.yul\":10539:10557   */\n      add\n        /* \"#utility.yul\":10531:10557   */\n      swap1\n      pop\n        /* \"#utility.yul\":10567:10638   */\n      tag_601\n        /* \"#utility.yul\":10635:10636   */\n      0x00\n        /* \"#utility.yul\":10624:10633   */\n      dup4\n        /* \"#utility.yul\":10620:10637   */\n      add\n        /* \"#utility.yul\":10611:10617   */\n      dup6\n        /* \"#utility.yul\":10567:10638   */\n      tag_522\n      jump\t// in\n    tag_601:\n        /* \"#utility.yul\":10648:10720   */\n      tag_602\n        /* \"#utility.yul\":10716:10718   */\n      0x20\n        /* \"#utility.yul\":10705:10714   */\n      dup4\n        /* \"#utility.yul\":10701:10719   */\n      add\n        /* \"#utility.yul\":10692:10698   */\n      dup5\n        /* \"#utility.yul\":10648:10720   */\n      tag_585\n      jump\t// in\n    tag_602:\n        /* \"#utility.yul\":10395:10727   */\n      swap4\n      swap3\n      pop\n      pop\n      pop\n      jump\t// out\n        /* \"#utility.yul\":10733:10943   */\n    tag_25:\n        /* \"#utility.yul\":10820:10824   */\n      0x00\n        /* \"#utility.yul\":10858:10860   */\n      0x20\n        /* \"#utility.yul\":10847:10856   */\n      dup3\n        /* \"#utility.yul\":10843:10861   */\n      add\n        /* \"#utility.yul\":10835:10861   */\n      swap1\n      pop\n        /* \"#utility.yul\":10871:10936   */\n      tag_604\n        /* \"#utility.yul\":10933:10934   */\n      0x00\n        /* \"#utility.yul\":10922:10931   */\n      dup4\n        /* \"#utility.yul\":10918:10935   */\n      add\n        /* \"#utility.yul\":10909:10915   */\n      dup5\n        /* \"#utility.yul\":10871:10936   */\n      tag_526\n      jump\t// in\n    tag_604:\n        /* \"#utility.yul\":10733:10943   */\n      swap3\n      swap2\n      pop\n      pop\n      jump\t// out\n        /* \"#utility.yul\":10949:11171   */\n    tag_32:\n        /* \"#utility.yul\":11042:11046   */\n      0x00\n        /* \"#utility.yul\":11080:11082   */\n      0x20\n        /* \"#utility.yul\":11069:11078   */\n      dup3\n        /* \"#utility.yul\":11065:11083   */\n      add\n        /* \"#utility.yul\":11057:11083   */\n      swap1\n      pop\n        /* \"#utility.yul\":11093:11164   */\n      tag_606\n        /* \"#utility.yul\":11161:11162   */\n      0x00\n        /* \"#utility.yul\":11150:11159   */\n      dup4\n        /* \"#utility.yul\":11146:11163   */\n      add\n        /* \"#utility.yul\":11137:11143   */\n      dup5\n        /* \"#utility.yul\":11093:11164   */\n      tag_530\n      jump\t// in\n    tag_606:\n        /* \"#utility.yul\":10949:11171   */\n      swap3\n      swap2\n      pop\n      pop\n      jump\t// out\n        /* \"#utility.yul\":11177:12336   */\n    tag_66:\n        /* \"#utility.yul\":11498:11502   */\n      0x00\n        /* \"#utility.yul\":11536:11539   */\n      0xe0\n        /* \"#utility.yul\":11525:11534   */\n      dup3\n        /* \"#utility.yul\":11521:11540   */\n      add\n        /* \"#utility.yul\":11513:11540   */\n      swap1\n      pop\n        /* \"#utility.yul\":11586:11595   */\n      dup2\n        /* \"#utility.yul\":11580:11584   */\n      dup2\n        /* \"#utility.yul\":11576:11596   */\n      sub\n        /* \"#utility.yul\":11572:11573   */\n      0x00\n        /* \"#utility.yul\":11561:11570   */\n      dup4\n        /* \"#utility.yul\":11557:11574   */\n      add\n        /* \"#utility.yul\":11550:11597   */\n      mstore\n        /* \"#utility.yul\":11614:11692   */\n      tag_608\n        /* \"#utility.yul\":11687:11691   */\n      dup2\n        /* \"#utility.yul\":11678:11684   */\n      dup11\n        /* \"#utility.yul\":11614:11692   */\n      tag_539\n      jump\t// in\n    tag_608:\n        /* \"#utility.yul\":11606:11692   */\n      swap1\n      pop\n        /* \"#utility.yul\":11739:11748   */\n      dup2\n        /* \"#utility.yul\":11733:11737   */\n      dup2\n        /* \"#utility.yul\":11729:11749   */\n      sub\n        /* \"#utility.yul\":11724:11726   */\n      0x20\n        /* \"#utility.yul\":11713:11722   */\n      dup4\n        /* \"#utility.yul\":11709:11727   */\n      add\n        /* \"#utility.yul\":11702:11750   */\n      mstore\n        /* \"#utility.yul\":11767:11845   */\n      tag_609\n        /* \"#utility.yul\":11840:11844   */\n      dup2\n        /* \"#utility.yul\":11831:11837   */\n      dup10\n        /* \"#utility.yul\":11767:11845   */\n      tag_539\n      jump\t// in\n    tag_609:\n        /* \"#utility.yul\":11759:11845   */\n      swap1\n      pop\n        /* \"#utility.yul\":11892:11901   */\n      dup2\n        /* \"#utility.yul\":11886:11890   */\n      dup2\n        /* \"#utility.yul\":11882:11902   */\n      sub\n        /* \"#utility.yul\":11877:11879   */\n      0x40\n        /* \"#utility.yul\":11866:11875   */\n      dup4\n        /* \"#utility.yul\":11862:11880   */\n      add\n        /* \"#utility.yul\":11855:11903   */\n      mstore\n        /* \"#utility.yul\":11920:11998   */\n      tag_610\n        /* \"#utility.yul\":11993:11997   */\n      dup2\n        /* \"#utility.yul\":11984:11990   */\n      dup9\n        /* \"#utility.yul\":11920:11998   */\n      tag_539\n      jump\t// in\n    tag_610:\n        /* \"#utility.yul\":11912:11998   */\n      swap1\n      pop\n        /* \"#utility.yul\":12008:12080   */\n      tag_611\n        /* \"#utility.yul\":12076:12078   */\n      0x60\n        /* \"#utility.yul\":12065:12074   */\n      dup4\n        /* \"#utility.yul\":12061:12079   */\n      add\n        /* \"#utility.yul\":12052:12058   */\n      dup8\n        /* \"#utility.yul\":12008:12080   */\n      tag_585\n      jump\t// in\n    tag_611:\n        /* \"#utility.yul\":12090:12163   */\n      tag_612\n        /* \"#utility.yul\":12158:12161   */\n      0x80\n        /* \"#utility.yul\":12147:12156   */\n      dup4\n        /* \"#utility.yul\":12143:12162   */\n      add\n        /* \"#utility.yul\":12134:12140   */\n      dup7\n        /* \"#utility.yul\":12090:12163   */\n      tag_585\n      jump\t// in\n    tag_612:\n        /* \"#utility.yul\":12173:12246   */\n      tag_613\n        /* \"#utility.yul\":12241:12244   */\n      0xa0\n        /* \"#utility.yul\":12230:12239   */\n      dup4\n        /* \"#utility.yul\":12226:12245   */\n      add\n        /* \"#utility.yul\":12217:12223   */\n      dup6\n        /* \"#utility.yul\":12173:12246   */\n      tag_585\n      jump\t// in\n    tag_613:\n        /* \"#utility.yul\":12256:12329   */\n      tag_614\n        /* \"#utility.yul\":12324:12327   */\n      0xc0\n        /* \"#utility.yul\":12313:12322   */\n      dup4\n        /* \"#utility.yul\":12309:12328   */\n      add\n        /* \"#utility.yul\":12300:12306   */\n      dup5\n        /* \"#utility.yul\":12256:12329   */\n      tag_585\n      jump\t// in\n    tag_614:\n        /* \"#utility.yul\":11177:12336   */\n      swap9\n      swap8\n      pop\n      pop\n      pop\n      pop\n      pop\n      pop\n      pop\n      pop\n      jump\t// out\n        /* \"#utility.yul\":12342:12761   */\n    tag_70:\n        /* \"#utility.yul\":12508:12512   */\n      0x00\n        /* \"#utility.yul\":12546:12548   */\n      0x20\n        /* \"#utility.yul\":12535:12544   */\n      dup3\n        /* \"#utility.yul\":12531:12549   */\n      add\n        /* \"#utility.yul\":12523:12549   */\n      swap1\n      pop\n        /* \"#utility.yul\":12595:12604   */\n      dup2\n        /* \"#utility.yul\":12589:12593   */\n      dup2\n        /* \"#utility.yul\":12585:12605   */\n      sub\n        /* \"#utility.yul\":12581:12582   */\n      0x00\n        /* \"#utility.yul\":12570:12579   */\n      dup4\n        /* \"#utility.yul\":12566:12583   */\n      add\n        /* \"#utility.yul\":12559:12606   */\n      mstore\n        /* \"#utility.yul\":12623:12754   */\n      tag_616\n        /* \"#utility.yul\":12749:12753   */\n      dup2\n        /* \"#utility.yul\":12623:12754   */\n      tag_555\n      jump\t// in\n    tag_616:\n        /* \"#utility.yul\":12615:12754   */\n      swap1\n      pop\n        /* \"#utility.yul\":12342:12761   */\n      swap2\n      swap1\n      pop\n      jump\t// out\n        /* \"#utility.yul\":12767:13186   */\n    tag_344:\n        /* \"#utility.yul\":12933:12937   */\n      0x00\n        /* \"#utility.yul\":12971:12973   */\n      0x20\n        /* \"#utility.yul\":12960:12969   */\n      dup3\n        /* \"#utility.yul\":12956:12974   */\n      add\n        /* \"#utility.yul\":12948:12974   */\n      swap1\n      pop\n        /* \"#utility.yul\":13020:13029   */\n      dup2\n        /* \"#utility.yul\":13014:13018   */\n      dup2\n        /* \"#utility.yul\":13010:13030   */\n      sub\n        /* \"#utility.yul\":13006:13007   */\n      0x00\n        /* \"#utility.yul\":12995:13004   */\n      dup4\n        /* \"#utility.yul\":12991:13008   */\n      add\n        /* \"#utility.yul\":12984:13031   */\n      mstore\n        /* \"#utility.yul\":13048:13179   */\n      tag_618\n        /* \"#utility.yul\":13174:13178   */\n      dup2\n        /* \"#utility.yul\":13048:13179   */\n      tag_560\n      jump\t// in\n    tag_618:\n        /* \"#utility.yul\":13040:13179   */\n      swap1\n      pop\n        /* \"#utility.yul\":12767:13186   */\n      swap2\n      swap1\n      pop\n      jump\t// out\n        /* \"#utility.yul\":13192:13611   */\n    tag_76:\n        /* \"#utility.yul\":13358:13362   */\n      0x00\n        /* \"#utility.yul\":13396:13398   */\n      0x20\n        /* \"#utility.yul\":13385:13394   */\n      dup3\n        /* \"#utility.yul\":13381:13399   */\n      add\n        /* \"#utility.yul\":13373:13399   */\n      swap1\n      pop\n        /* \"#utility.yul\":13445:13454   */\n      dup2\n        /* \"#utility.yul\":13439:13443   */\n      dup2\n        /* \"#utility.yul\":13435:13455   */\n      sub\n        /* \"#utility.yul\":13431:13432   */\n      0x00\n        /* \"#utility.yul\":13420:13429   */\n      dup4\n        /* \"#utility.yul\":13416:13433   */\n      add\n        /* \"#utility.yul\":13409:13456   */\n      mstore\n        /* \"#utility.yul\":13473:13604   */\n      tag_620\n        /* \"#utility.yul\":13599:13603   */\n      dup2\n        /* \"#utility.yul\":13473:13604   */\n      tag_565\n      jump\t// in\n    tag_620:\n        /* \"#utility.yul\":13465:13604   */\n      swap1\n      pop\n        /* \"#utility.yul\":13192:13611   */\n      swap2\n      swap1\n      pop\n      jump\t// out\n        /* \"#utility.yul\":13617:14036   */\n    tag_119:\n        /* \"#utility.yul\":13783:13787   */\n      0x00\n        /* \"#utility.yul\":13821:13823   */\n      0x20\n        /* \"#utility.yul\":13810:13819   */\n      dup3\n        /* \"#utility.yul\":13806:13824   */\n      add\n        /* \"#utility.yul\":13798:13824   */\n      swap1\n      pop\n        /* \"#utility.yul\":13870:13879   */\n      dup2\n        /* \"#utility.yul\":13864:13868   */\n      dup2\n        /* \"#utility.yul\":13860:13880   */\n      sub\n        /* \"#utility.yul\":13856:13857   */\n      0x00\n        /* \"#utility.yul\":13845:13854   */\n      dup4\n        /* \"#utility.yul\":13841:13858   */\n      add\n        /* \"#utility.yul\":13834:13881   */\n      mstore\n        /* \"#utility.yul\":13898:14029   */\n      tag_622\n        /* \"#utility.yul\":14024:14028   */\n      dup2\n        /* \"#utility.yul\":13898:14029   */\n      tag_570\n      jump\t// in\n    tag_622:\n        /* \"#utility.yul\":13890:14029   */\n      swap1\n      pop\n        /* \"#utility.yul\":13617:14036   */\n      swap2\n      swap1\n      pop\n      jump\t// out\n        /* \"#utility.yul\":14042:14461   */\n    tag_106:\n        /* \"#utility.yul\":14208:14212   */\n      0x00\n        /* \"#utility.yul\":14246:14248   */\n      0x20\n        /* \"#utility.yul\":14235:14244   */\n      dup3\n        /* \"#utility.yul\":14231:14249   */\n      add\n        /* \"#utility.yul\":14223:14249   */\n      swap1\n      pop\n        /* \"#utility.yul\":14295:14304   */\n      dup2\n        /* \"#utility.yul\":14289:14293   */\n      dup2\n        /* \"#utility.yul\":14285:14305   */\n      sub\n        /* \"#utility.yul\":14281:14282   */\n      0x00\n        /* \"#utility.yul\":14270:14279   */\n      dup4\n        /* \"#utility.yul\":14266:14283   */\n      add\n        /* \"#utility.yul\":14259:14306   */\n      mstore\n        /* \"#utility.yul\":14323:14454   */\n      tag_624\n        /* \"#utility.yul\":14449:14453   */\n      dup2\n        /* \"#utility.yul\":14323:14454   */\n      tag_575\n      jump\t// in\n    tag_624:\n        /* \"#utility.yul\":14315:14454   */\n      swap1\n      pop\n        /* \"#utility.yul\":14042:14461   */\n      swap2\n      swap1\n      pop\n      jump\t// out\n        /* \"#utility.yul\":14467:14886   */\n    tag_163:\n        /* \"#utility.yul\":14633:14637   */\n      0x00\n        /* \"#utility.yul\":14671:14673   */\n      0x20\n        /* \"#utility.yul\":14660:14669   */\n      dup3\n        /* \"#utility.yul\":14656:14674   */\n      add\n        /* \"#utility.yul\":14648:14674   */\n      swap1\n      pop\n        /* \"#utility.yul\":14720:14729   */\n      dup2\n        /* \"#utility.yul\":14714:14718   */\n      dup2\n        /* \"#utility.yul\":14710:14730   */\n      sub\n        /* \"#utility.yul\":14706:14707   */\n      0x00\n        /* \"#utility.yul\":14695:14704   */\n      dup4\n        /* \"#utility.yul\":14691:14708   */\n      add\n        /* \"#utility.yul\":14684:14731   */\n      mstore\n        /* \"#utility.yul\":14748:14879   */\n      tag_626\n        /* \"#utility.yul\":14874:14878   */\n      dup2\n        /* \"#utility.yul\":14748:14879   */\n      tag_580\n      jump\t// in\n    tag_626:\n        /* \"#utility.yul\":14740:14879   */\n      swap1\n      pop\n        /* \"#utility.yul\":14467:14886   */\n      swap2\n      swap1\n      pop\n      jump\t// out\n        /* \"#utility.yul\":14892:15114   */\n    tag_39:\n        /* \"#utility.yul\":14985:14989   */\n      0x00\n        /* \"#utility.yul\":15023:15025   */\n      0x20\n        /* \"#utility.yul\":15012:15021   */\n      dup3\n        /* \"#utility.yul\":15008:15026   */\n      add\n        /* \"#utility.yul\":15000:15026   */\n      swap1\n      pop\n        /* \"#utility.yul\":15036:15107   */\n      tag_628\n        /* \"#utility.yul\":15104:15105   */\n      0x00\n        /* \"#utility.yul\":15093:15102   */\n      dup4\n        /* \"#utility.yul\":15089:15106   */\n      add\n        /* \"#utility.yul\":15080:15086   */\n      dup5\n        /* \"#utility.yul\":15036:15107   */\n      tag_585\n      jump\t// in\n    tag_628:\n        /* \"#utility.yul\":14892:15114   */\n      swap3\n      swap2\n      pop\n      pop\n      jump\t// out\n        /* \"#utility.yul\":15120:15249   */\n    tag_449:\n        /* \"#utility.yul\":15154:15160   */\n      0x00\n        /* \"#utility.yul\":15181:15201   */\n      tag_630\n      tag_631\n      jump\t// in\n    tag_630:\n        /* \"#utility.yul\":15171:15201   */\n      swap1\n      pop\n        /* \"#utility.yul\":15210:15243   */\n      tag_632\n        /* \"#utility.yul\":15238:15242   */\n      dup3\n        /* \"#utility.yul\":15230:15236   */\n      dup3\n        /* \"#utility.yul\":15210:15243   */\n      tag_633\n      jump\t// in\n    tag_632:\n        /* \"#utility.yul\":15120:15249   */\n      swap2\n      swap1\n      pop\n      jump\t// out\n        /* \"#utility.yul\":15255:15330   */\n    tag_631:\n        /* \"#utility.yul\":15288:15294   */\n      0x00\n        /* \"#utility.yul\":15321:15323   */\n      0x40\n        /* \"#utility.yul\":15315:15324   */\n      mload\n        /* \"#utility.yul\":15305:15324   */\n      swap1\n      pop\n        /* \"#utility.yul\":15255:15330   */\n      swap1\n      jump\t// out\n        /* \"#utility.yul\":15336:15644   */\n    tag_448:\n        /* \"#utility.yul\":15398:15402   */\n      0x00\n        /* \"#utility.yul\":15488:15506   */\n      0xffffffffffffffff\n        /* \"#utility.yul\":15480:15486   */\n      dup3\n        /* \"#utility.yul\":15477:15507   */\n      gt\n        /* \"#utility.yul\":15474:15530   */\n      iszero\n      tag_636\n      jumpi\n        /* \"#utility.yul\":15510:15528   */\n      tag_637\n      tag_374\n      jump\t// in\n    tag_637:\n        /* \"#utility.yul\":15474:15530   */\n    tag_636:\n        /* \"#utility.yul\":15548:15577   */\n      tag_638\n        /* \"#utility.yul\":15570:15576   */\n      dup3\n        /* \"#utility.yul\":15548:15577   */\n      tag_548\n      jump\t// in\n    tag_638:\n        /* \"#utility.yul\":15540:15577   */\n      swap1\n      pop\n        /* \"#utility.yul\":15632:15636   */\n      0x20\n        /* \"#utility.yul\":15626:15630   */\n      dup2\n        /* \"#utility.yul\":15622:15637   */\n      add\n        /* \"#utility.yul\":15614:15637   */\n      swap1\n      pop\n        /* \"#utility.yul\":15336:15644   */\n      swap2\n      swap1\n      pop\n      jump\t// out\n        /* \"#utility.yul\":15650:15749   */\n    tag_542:\n        /* \"#utility.yul\":15702:15708   */\n      0x00\n        /* \"#utility.yul\":15736:15741   */\n      dup2\n        /* \"#utility.yul\":15730:15742   */\n      mload\n        /* \"#utility.yul\":15720:15742   */\n      swap1\n      pop\n        /* \"#utility.yul\":15650:15749   */\n      swap2\n      swap1\n      pop\n      jump\t// out\n        /* \"#utility.yul\":15755:15924   */\n    tag_544:\n        /* \"#utility.yul\":15839:15850   */\n      0x00\n        /* \"#utility.yul\":15873:15879   */\n      dup3\n        /* \"#utility.yul\":15868:15871   */\n      dup3\n        /* \"#utility.yul\":15861:15880   */\n      mstore\n        /* \"#utility.yul\":15913:15917   */\n      0x20\n        /* \"#utility.yul\":15908:15911   */\n      dup3\n        /* \"#utility.yul\":15904:15918   */\n      add\n        /* \"#utility.yul\":15889:15918   */\n      swap1\n      pop\n        /* \"#utility.yul\":15755:15924   */\n      swap3\n      swap2\n      pop\n      pop\n      jump\t// out\n        /* \"#utility.yul\":15930:16078   */\n    tag_553:\n        /* \"#utility.yul\":16032:16043   */\n      0x00\n        /* \"#utility.yul\":16069:16072   */\n      dup2\n        /* \"#utility.yul\":16054:16072   */\n      swap1\n      pop\n        /* \"#utility.yul\":15930:16078   */\n      swap3\n      swap2\n      pop\n      pop\n      jump\t// out\n        /* \"#utility.yul\":16084:16389   */\n    tag_16:\n        /* \"#utility.yul\":16124:16127   */\n      0x00\n        /* \"#utility.yul\":16143:16163   */\n      tag_643\n        /* \"#utility.yul\":16161:16162   */\n      dup3\n        /* \"#utility.yul\":16143:16163   */\n      tag_588\n      jump\t// in\n    tag_643:\n        /* \"#utility.yul\":16138:16163   */\n      swap2\n      pop\n        /* \"#utility.yul\":16177:16197   */\n      tag_644\n        /* \"#utility.yul\":16195:16196   */\n      dup4\n        /* \"#utility.yul\":16177:16197   */\n      tag_588\n      jump\t// in\n    tag_644:\n        /* \"#utility.yul\":16172:16197   */\n      swap3\n      pop\n        /* \"#utility.yul\":16331:16332   */\n      dup3\n        /* \"#utility.yul\":16263:16329   */\n      0xffffffffffffffffffffffffffffffffffffffffffffffffffffffffffffffff\n        /* \"#utility.yul\":16259:16333   */\n      sub\n        /* \"#utility.yul\":16256:16257   */\n      dup3\n        /* \"#utility.yul\":16253:16334   */\n      gt\n        /* \"#utility.yul\":16250:16357   */\n      iszero\n      tag_645\n      jumpi\n        /* \"#utility.yul\":16337:16355   */\n      tag_646\n      tag_647\n      jump\t// in\n    tag_646:\n        /* \"#utility.yul\":16250:16357   */\n    tag_645:\n        /* \"#utility.yul\":16381:16382   */\n      dup3\n        /* \"#utility.yul\":16378:16379   */\n      dup3\n        /* \"#utility.yul\":16374:16383   */\n      add\n        /* \"#utility.yul\":16367:16383   */\n      swap1\n      pop\n        /* \"#utility.yul\":16084:16389   */\n      swap3\n      swap2\n      pop\n      pop\n      jump\t// out\n        /* \"#utility.yul\":16395:16580   */\n    tag_290:\n        /* \"#utility.yul\":16435:16436   */\n      0x00\n        /* \"#utility.yul\":16452:16472   */\n      tag_649\n        /* \"#utility.yul\":16470:16471   */\n      dup3\n        /* \"#utility.yul\":16452:16472   */\n      tag_588\n      jump\t// in\n    tag_649:\n        /* \"#utility.yul\":16447:16472   */\n      swap2\n      pop\n        /* \"#utility.yul\":16486:16506   */\n      tag_650\n        /* \"#utility.yul\":16504:16505   */\n      dup4\n        /* \"#utility.yul\":16486:16506   */\n      tag_588\n      jump\t// in\n    tag_650:\n        /* \"#utility.yul\":16481:16506   */\n      swap3\n      pop\n        /* \"#utility.yul\":16525:16526   */\n      dup3\n        /* \"#utility.yul\":16515:16550   */\n      tag_651\n      jumpi\n        /* \"#utility.yul\":16530:16548   */\n      tag_652\n      tag_653\n      jump\t// in\n    tag_652:\n        /* \"#utility.yul\":16515:16550   */\n    tag_651:\n        /* \"#utility.yul\":16572:16573   */\n      dup3\n        /* \"#utility.yul\":16569:16570   */\n      dup3\n        /* \"#utility.yul\":16565:16574   */\n      div\n        /* \"#utility.yul\":16560:16574   */\n      swap1\n      pop\n        /* \"#utility.yul\":16395:16580   */\n      swap3\n      swap2\n      pop\n      pop\n      jump\t// out\n        /* \"#utility.yul\":16586:16934   */\n    tag_288:\n        /* \"#utility.yul\":16626:16633   */\n      0x00\n        /* \"#utility.yul\":16649:16669   */\n      tag_655\n        /* \"#utility.yul\":16667:16668   */\n      dup3\n        /* \"#utility.yul\":16649:16669   */\n      tag_588\n      jump\t// in\n    tag_655:\n        /* \"#utility.yul\":16644:16669   */\n      swap2\n      pop\n        /* \"#utility.yul\":16683:16703   */\n      tag_656\n        /* \"#utility.yul\":16701:16702   */\n      dup4\n        /* \"#utility.yul\":16683:16703   */\n      tag_588\n      jump\t// in\n    tag_656:\n        /* \"#utility.yul\":16678:16703   */\n      swap3\n      pop\n        /* \"#utility.yul\":16871:16872   */\n      dup2\n        /* \"#utility.yul\":16803:16869   */\n      0xffffffffffffffffffffffffffffffffffffffffffffffffffffffffffffffff\n        /* \"#utility.yul\":16799:16873   */\n      div\n        /* \"#utility.yul\":16796:16797   */\n      dup4\n        /* \"#utility.yul\":16793:16874   */\n      gt\n        /* \"#utility.yul\":16788:16789   */\n      dup3\n        /* \"#utility.yul\":16781:16790   */\n      iszero\n        /* \"#utility.yul\":16774:16791   */\n      iszero\n        /* \"#utility.yul\":16770:16875   */\n      and\n        /* \"#utility.yul\":16767:16898   */\n      iszero\n      tag_657\n      jumpi\n        /* \"#utility.yul\":16878:16896   */\n      tag_658\n      tag_647\n      jump\t// in\n    tag_658:\n        /* \"#utility.yul\":16767:16898   */\n    tag_657:\n        /* \"#utility.yul\":16926:16927   */\n      dup3\n        /* \"#utility.yul\":16923:16924   */\n      dup3\n        /* \"#utility.yul\":16919:16928   */\n      mul\n        /* \"#utility.yul\":16908:16928   */\n      swap1\n      pop\n        /* \"#utility.yul\":16586:16934   */\n      swap3\n      swap2\n      pop\n      pop\n      jump\t// out\n        /* \"#utility.yul\":16940:17131   */\n    tag_203:\n        /* \"#utility.yul\":16980:16984   */\n      0x00\n        /* \"#utility.yul\":17000:17020   */\n      tag_660\n        /* \"#utility.yul\":17018:17019   */\n      dup3\n        /* \"#utility.yul\":17000:17020   */\n      tag_588\n      jump\t// in\n    tag_660:\n        /* \"#utility.yul\":16995:17020   */\n      swap2\n      pop\n        /* \"#utility.yul\":17034:17054   */\n      tag_661\n        /* \"#utility.yul\":17052:17053   */\n      dup4\n        /* \"#utility.yul\":17034:17054   */\n      tag_588\n      jump\t// in\n    tag_661:\n        /* \"#utility.yul\":17029:17054   */\n      swap3\n      pop\n        /* \"#utility.yul\":17073:17074   */\n      dup3\n        /* \"#utility.yul\":17070:17071   */\n      dup3\n        /* \"#utility.yul\":17067:17075   */\n      lt\n        /* \"#utility.yul\":17064:17098   */\n      iszero\n      tag_662\n      jumpi\n        /* \"#utility.yul\":17078:17096   */\n      tag_663\n      tag_647\n      jump\t// in\n    tag_663:\n        /* \"#utility.yul\":17064:17098   */\n    tag_662:\n        /* \"#utility.yul\":17123:17124   */\n      dup3\n        /* \"#utility.yul\":17120:17121   */\n      dup3\n        /* \"#utility.yul\":17116:17125   */\n      sub\n        /* \"#utility.yul\":17108:17125   */\n      swap1\n      pop\n        /* \"#utility.yul\":16940:17131   */\n      swap3\n      swap2\n      pop\n      pop\n      jump\t// out\n        /* \"#utility.yul\":17137:17233   */\n    tag_525:\n        /* \"#utility.yul\":17174:17181   */\n      0x00\n        /* \"#utility.yul\":17203:17227   */\n      tag_665\n        /* \"#utility.yul\":17221:17226   */\n      dup3\n        /* \"#utility.yul\":17203:17227   */\n      tag_666\n      jump\t// in\n    tag_665:\n        /* \"#utility.yul\":17192:17227   */\n      swap1\n      pop\n        /* \"#utility.yul\":17137:17233   */\n      swap2\n      swap1\n      pop\n      jump\t// out\n        /* \"#utility.yul\":17239:17329   */\n    tag_529:\n        /* \"#utility.yul\":17273:17280   */\n      0x00\n        /* \"#utility.yul\":17316:17321   */\n      dup2\n        /* \"#utility.yul\":17309:17322   */\n      iszero\n        /* \"#utility.yul\":17302:17323   */\n      iszero\n        /* \"#utility.yul\":17291:17323   */\n      swap1\n      pop\n        /* \"#utility.yul\":17239:17329   */\n      swap2\n      swap1\n      pop\n      jump\t// out\n        /* \"#utility.yul\":17335:17412   */\n    tag_533:\n        /* \"#utility.yul\":17372:17379   */\n      0x00\n        /* \"#utility.yul\":17401:17406   */\n      dup2\n        /* \"#utility.yul\":17390:17406   */\n      swap1\n      pop\n        /* \"#utility.yul\":17335:17412   */\n      swap2\n      swap1\n      pop\n      jump\t// out\n        /* \"#utility.yul\":17418:17544   */\n    tag_666:\n        /* \"#utility.yul\":17455:17462   */\n      0x00\n        /* \"#utility.yul\":17495:17537   */\n      0xffffffffffffffffffffffffffffffffffffffff\n        /* \"#utility.yul\":17488:17493   */\n      dup3\n        /* \"#utility.yul\":17484:17538   */\n      and\n        /* \"#utility.yul\":17473:17538   */\n      swap1\n      pop\n        /* \"#utility.yul\":17418:17544   */\n      swap2\n      swap1\n      pop\n      jump\t// out\n        /* \"#utility.yul\":17550:17627   */\n    tag_588:\n        /* \"#utility.yul\":17587:17594   */\n      0x00\n        /* \"#utility.yul\":17616:17621   */\n      dup2\n        /* \"#utility.yul\":17605:17621   */\n      swap1\n      pop\n        /* \"#utility.yul\":17550:17627   */\n      swap2\n      swap1\n      pop\n      jump\t// out\n        /* \"#utility.yul\":17633:17787   */\n    tag_454:\n        /* \"#utility.yul\":17717:17723   */\n      dup3\n        /* \"#utility.yul\":17712:17715   */\n      dup2\n        /* \"#utility.yul\":17707:17710   */\n      dup4\n        /* \"#utility.yul\":17694:17724   */\n      calldatacopy\n        /* \"#utility.yul\":17779:17780   */\n      0x00\n        /* \"#utility.yul\":17770:17776   */\n      dup4\n        /* \"#utility.yul\":17765:17768   */\n      dup4\n        /* \"#utility.yul\":17761:17777   */\n      add\n        /* \"#utility.yul\":17754:17781   */\n      mstore\n        /* \"#utility.yul\":17633:17787   */\n      pop\n      pop\n      pop\n      jump\t// out\n        /* \"#utility.yul\":17793:18100   */\n    tag_546:\n        /* \"#utility.yul\":17861:17862   */\n      0x00\n        /* \"#utility.yul\":17871:17984   */\n    tag_673:\n        /* \"#utility.yul\":17885:17891   */\n      dup4\n        /* \"#utility.yul\":17882:17883   */\n      dup2\n        /* \"#utility.yul\":17879:17892   */\n      lt\n        /* \"#utility.yul\":17871:17984   */\n      iszero\n      tag_675\n      jumpi\n        /* \"#utility.yul\":17970:17971   */\n      dup1\n        /* \"#utility.yul\":17965:17968   */\n      dup3\n        /* \"#utility.yul\":17961:17972   */\n      add\n        /* \"#utility.yul\":17955:17973   */\n      mload\n        /* \"#utility.yul\":17951:17952   */\n      dup2\n        /* \"#utility.yul\":17946:17949   */\n      dup5\n        /* \"#utility.yul\":17942:17953   */\n      add\n        /* \"#utility.yul\":17935:17974   */\n      mstore\n        /* \"#utility.yul\":17907:17909   */\n      0x20\n        /* \"#utility.yul\":17904:17905   */\n      dup2\n        /* \"#utility.yul\":17900:17910   */\n      add\n        /* \"#utility.yul\":17895:17910   */\n      swap1\n      pop\n        /* \"#utility.yul\":17871:17984   */\n      jump(tag_673)\n    tag_675:\n        /* \"#utility.yul\":18002:18008   */\n      dup4\n        /* \"#utility.yul\":17999:18000   */\n      dup2\n        /* \"#utility.yul\":17996:18009   */\n      gt\n        /* \"#utility.yul\":17993:18094   */\n      iszero\n      tag_676\n      jumpi\n        /* \"#utility.yul\":18082:18083   */\n      0x00\n        /* \"#utility.yul\":18073:18079   */\n      dup5\n        /* \"#utility.yul\":18068:18071   */\n      dup5\n        /* \"#utility.yul\":18064:18080   */\n      add\n        /* \"#utility.yul\":18057:18084   */\n      mstore\n        /* \"#utility.yul\":17993:18094   */\n    tag_676:\n        /* \"#utility.yul\":17842:18100   */\n      pop\n        /* \"#utility.yul\":17793:18100   */\n      pop\n      pop\n      pop\n      jump\t// out\n        /* \"#utility.yul\":18106:18426   */\n    tag_79:\n        /* \"#utility.yul\":18150:18156   */\n      0x00\n        /* \"#utility.yul\":18187:18188   */\n      0x02\n        /* \"#utility.yul\":18181:18185   */\n      dup3\n        /* \"#utility.yul\":18177:18189   */\n      div\n        /* \"#utility.yul\":18167:18189   */\n      swap1\n      pop\n        /* \"#utility.yul\":18234:18235   */\n      0x01\n        /* \"#utility.yul\":18228:18232   */\n      dup3\n        /* \"#utility.yul\":18224:18236   */\n      and\n        /* \"#utility.yul\":18255:18273   */\n      dup1\n        /* \"#utility.yul\":18245:18326   */\n      tag_678\n      jumpi\n        /* \"#utility.yul\":18311:18315   */\n      0x7f\n        /* \"#utility.yul\":18303:18309   */\n      dup3\n        /* \"#utility.yul\":18299:18316   */\n      and\n        /* \"#utility.yul\":18289:18316   */\n      swap2\n      pop\n        /* \"#utility.yul\":18245:18326   */\n    tag_678:\n        /* \"#utility.yul\":18373:18375   */\n      0x20\n        /* \"#utility.yul\":18365:18371   */\n      dup3\n        /* \"#utility.yul\":18362:18376   */\n      lt\n        /* \"#utility.yul\":18342:18360   */\n      dup2\n        /* \"#utility.yul\":18339:18377   */\n      eq\n        /* \"#utility.yul\":18336:18420   */\n      iszero\n      tag_679\n      jumpi\n        /* \"#utility.yul\":18392:18410   */\n      tag_680\n      tag_681\n      jump\t// in\n    tag_680:\n        /* \"#utility.yul\":18336:18420   */\n    tag_679:\n        /* \"#utility.yul\":18157:18426   */\n      pop\n        /* \"#utility.yul\":18106:18426   */\n      swap2\n      swap1\n      pop\n      jump\t// out\n        /* \"#utility.yul\":18432:18713   */\n    tag_633:\n        /* \"#utility.yul\":18515:18542   */\n      tag_683\n        /* \"#utility.yul\":18537:18541   */\n      dup3\n        /* \"#utility.yul\":18515:18542   */\n      tag_548\n      jump\t// in\n    tag_683:\n        /* \"#utility.yul\":18507:18513   */\n      dup2\n        /* \"#utility.yul\":18503:18543   */\n      add\n        /* \"#utility.yul\":18645:18651   */\n      dup2\n        /* \"#utility.yul\":18633:18643   */\n      dup2\n        /* \"#utility.yul\":18630:18652   */\n      lt\n        /* \"#utility.yul\":18609:18627   */\n      0xffffffffffffffff\n        /* \"#utility.yul\":18597:18607   */\n      dup3\n        /* \"#utility.yul\":18594:18628   */\n      gt\n        /* \"#utility.yul\":18591:18653   */\n      or\n        /* \"#utility.yul\":18588:18676   */\n      iszero\n      tag_684\n      jumpi\n        /* \"#utility.yul\":18656:18674   */\n      tag_685\n      tag_374\n      jump\t// in\n    tag_685:\n        /* \"#utility.yul\":18588:18676   */\n    tag_684:\n        /* \"#utility.yul\":18696:18706   */\n      dup1\n        /* \"#utility.yul\":18692:18694   */\n      0x40\n        /* \"#utility.yul\":18685:18707   */\n      mstore\n        /* \"#utility.yul\":18475:18713   */\n      pop\n        /* \"#utility.yul\":18432:18713   */\n      pop\n      pop\n      jump\t// out\n        /* \"#utility.yul\":18719:18952   */\n    tag_329:\n        /* \"#utility.yul\":18758:18761   */\n      0x00\n        /* \"#utility.yul\":18781:18805   */\n      tag_687\n        /* \"#utility.yul\":18799:18804   */\n      dup3\n        /* \"#utility.yul\":18781:18805   */\n      tag_588\n      jump\t// in\n    tag_687:\n        /* \"#utility.yul\":18772:18805   */\n      swap2\n      pop\n        /* \"#utility.yul\":18827:18893   */\n      0xffffffffffffffffffffffffffffffffffffffffffffffffffffffffffffffff\n        /* \"#utility.yul\":18820:18825   */\n      dup3\n        /* \"#utility.yul\":18817:18894   */\n      eq\n        /* \"#utility.yul\":18814:18917   */\n      iszero\n      tag_688\n      jumpi\n        /* \"#utility.yul\":18897:18915   */\n      tag_689\n      tag_647\n      jump\t// in\n    tag_689:\n        /* \"#utility.yul\":18814:18917   */\n    tag_688:\n        /* \"#utility.yul\":18944:18945   */\n      0x01\n        /* \"#utility.yul\":18937:18942   */\n      dup3\n        /* \"#utility.yul\":18933:18946   */\n      add\n        /* \"#utility.yul\":18926:18946   */\n      swap1\n      pop\n        /* \"#utility.yul\":18719:18952   */\n      swap2\n      swap1\n      pop\n      jump\t// out\n        /* \"#utility.yul\":18958:19037   */\n    tag_538:\n        /* \"#utility.yul\":18997:19004   */\n      0x00\n        /* \"#utility.yul\":19026:19031   */\n      dup2\n        /* \"#utility.yul\":19015:19031   */\n      swap1\n      pop\n        /* \"#utility.yul\":18958:19037   */\n      swap2\n      swap1\n      pop\n      jump\t// out\n        /* \"#utility.yul\":19043:19122   */\n    tag_593:\n        /* \"#utility.yul\":19082:19089   */\n      0x00\n        /* \"#utility.yul\":19111:19116   */\n      dup2\n        /* \"#utility.yul\":19100:19116   */\n      swap1\n      pop\n        /* \"#utility.yul\":19043:19122   */\n      swap2\n      swap1\n      pop\n      jump\t// out\n        /* \"#utility.yul\":19128:19308   */\n    tag_647:\n        /* \"#utility.yul\":19176:19253   */\n      0x4e487b7100000000000000000000000000000000000000000000000000000000\n        /* \"#utility.yul\":19173:19174   */\n      0x00\n        /* \"#utility.yul\":19166:19254   */\n      mstore\n        /* \"#utility.yul\":19273:19277   */\n      0x11\n        /* \"#utility.yul\":19270:19271   */\n      0x04\n        /* \"#utility.yul\":19263:19278   */\n      mstore\n        /* \"#utility.yul\":19297:19301   */\n      0x24\n        /* \"#utility.yul\":19294:19295   */\n      0x00\n        /* \"#utility.yul\":19287:19302   */\n      revert\n        /* \"#utility.yul\":19314:19494   */\n    tag_653:\n        /* \"#utility.yul\":19362:19439   */\n      0x4e487b7100000000000000000000000000000000000000000000000000000000\n        /* \"#utility.yul\":19359:19360   */\n      0x00\n        /* \"#utility.yul\":19352:19440   */\n      mstore\n        /* \"#utility.yul\":19459:19463   */\n      0x12\n        /* \"#utility.yul\":19456:19457   */\n      0x04\n        /* \"#utility.yul\":19449:19464   */\n      mstore\n        /* \"#utility.yul\":19483:19487   */\n      0x24\n        /* \"#utility.yul\":19480:19481   */\n      0x00\n        /* \"#utility.yul\":19473:19488   */\n      revert\n        /* \"#utility.yul\":19500:19680   */\n    tag_681:\n        /* \"#utility.yul\":19548:19625   */\n      0x4e487b7100000000000000000000000000000000000000000000000000000000\n        /* \"#utility.yul\":19545:19546   */\n      0x00\n        /* \"#utility.yul\":19538:19626   */\n      mstore\n        /* \"#utility.yul\":19645:19649   */\n      0x22\n        /* \"#utility.yul\":19642:19643   */\n      0x04\n        /* \"#utility.yul\":19635:19650   */\n      mstore\n        /* \"#utility.yul\":19669:19673   */\n      0x24\n        /* \"#utility.yul\":19666:19667   */\n      0x00\n        /* \"#utility.yul\":19659:19674   */\n      revert\n        /* \"#utility.yul\":19686:19866   */\n    tag_269:\n        /* \"#utility.yul\":19734:19811   */\n      0x4e487b7100000000000000000000000000000000000000000000000000000000\n        /* \"#utility.yul\":19731:19732   */\n      0x00\n        /* \"#utility.yul\":19724:19812   */\n      mstore\n        /* \"#utility.yul\":19831:19835   */\n      0x32\n        /* \"#utility.yul\":19828:19829   */\n      0x04\n        /* \"#utility.yul\":19821:19836   */\n      mstore\n        /* \"#utility.yul\":19855:19859   */\n      0x24\n        /* \"#utility.yul\":19852:19853   */\n      0x00\n        /* \"#utility.yul\":19845:19860   */\n      revert\n        /* \"#utility.yul\":19872:20052   */\n    tag_374:\n        /* \"#utility.yul\":19920:19997   */\n      0x4e487b7100000000000000000000000000000000000000000000000000000000\n        /* \"#utility.yul\":19917:19918   */\n      0x00\n        /* \"#utility.yul\":19910:19998   */\n      mstore\n        /* \"#utility.yul\":20017:20021   */\n      0x41\n        /* \"#utility.yul\":20014:20015   */\n      0x04\n        /* \"#utility.yul\":20007:20022   */\n      mstore\n        /* \"#utility.yul\":20041:20045   */\n      0x24\n        /* \"#utility.yul\":20038:20039   */\n      0x00\n        /* \"#utility.yul\":20031:20046   */\n      revert\n        /* \"#utility.yul\":20058:20175   */\n    tag_471:\n        /* \"#utility.yul\":20167:20168   */\n      0x00\n        /* \"#utility.yul\":20164:20165   */\n      dup1\n        /* \"#utility.yul\":20157:20169   */\n      revert\n        /* \"#utility.yul\":20181:20298   */\n    tag_452:\n        /* \"#utility.yul\":20290:20291   */\n      0x00\n        /* \"#utility.yul\":20287:20288   */\n      dup1\n        /* \"#utility.yul\":20280:20292   */\n      revert\n        /* \"#utility.yul\":20304:20421   */\n    tag_513:\n        /* \"#utility.yul\":20413:20414   */\n      0x00\n        /* \"#utility.yul\":20410:20411   */\n      dup1\n        /* \"#utility.yul\":20403:20415   */\n      revert\n        /* \"#utility.yul\":20427:20544   */\n    tag_480:\n        /* \"#utility.yul\":20536:20537   */\n      0x00\n        /* \"#utility.yul\":20533:20534   */\n      dup1\n        /* \"#utility.yul\":20526:20538   */\n      revert\n        /* \"#utility.yul\":20550:20652   */\n    tag_548:\n        /* \"#utility.yul\":20591:20597   */\n      0x00\n        /* \"#utility.yul\":20642:20644   */\n      0x1f\n        /* \"#utility.yul\":20638:20645   */\n      not\n        /* \"#utility.yul\":20633:20635   */\n      0x1f\n        /* \"#utility.yul\":20626:20631   */\n      dup4\n        /* \"#utility.yul\":20622:20636   */\n      add\n        /* \"#utility.yul\":20618:20646   */\n      and\n        /* \"#utility.yul\":20608:20646   */\n      swap1\n      pop\n        /* \"#utility.yul\":20550:20652   */\n      swap2\n      swap1\n      pop\n      jump\t// out\n        /* \"#utility.yul\":20658:20833   */\n    tag_559:\n        /* \"#utility.yul\":20798:20825   */\n      0x4f6e6c79206f776e65722063616e2063616c6c20746869732e00000000000000\n        /* \"#utility.yul\":20794:20795   */\n      0x00\n        /* \"#utility.yul\":20786:20792   */\n      dup3\n        /* \"#utility.yul\":20782:20796   */\n      add\n        /* \"#utility.yul\":20775:20826   */\n      mstore\n        /* \"#utility.yul\":20658:20833   */\n      pop\n      jump\t// out\n        /* \"#utility.yul\":20839:20998   */\n    tag_564:\n        /* \"#utility.yul\":20979:20990   */\n      0x6e6f742065786973740000000000000000000000000000000000000000000000\n        /* \"#utility.yul\":20975:20976   */\n      0x00\n        /* \"#utility.yul\":20967:20973   */\n      dup3\n        /* \"#utility.yul\":20963:20977   */\n      add\n        /* \"#utility.yul\":20956:20991   */\n      mstore\n        /* \"#utility.yul\":20839:20998   */\n      pop\n      jump\t// out\n        /* \"#utility.yul\":21004:21168   */\n    tag_569:\n        /* \"#utility.yul\":21144:21160   */\n      0x706f6f6c206e6f74206578697374000000000000000000000000000000000000\n        /* \"#utility.yul\":21140:21141   */\n      0x00\n        /* \"#utility.yul\":21132:21138   */\n      dup3\n        /* \"#utility.yul\":21128:21142   */\n      add\n        /* \"#utility.yul\":21121:21161   */\n      mstore\n        /* \"#utility.yul\":21004:21168   */\n      pop\n      jump\t// out\n        /* \"#utility.yul\":21174:21334   */\n    tag_574:\n        /* \"#utility.yul\":21314:21326   */\n      0x7061697220657869737400000000000000000000000000000000000000000000\n        /* \"#utility.yul\":21310:21311   */\n      0x00\n        /* \"#utility.yul\":21302:21308   */\n      dup3\n        /* \"#utility.yul\":21298:21312   */\n      add\n        /* \"#utility.yul\":21291:21327   */\n      mstore\n        /* \"#utility.yul\":21174:21334   */\n      pop\n      jump\t// out\n        /* \"#utility.yul\":21340:21511   */\n    tag_579:\n        /* \"#utility.yul\":21480:21503   */\n      0x706f6f6c20686173206e6f742066696e69736865640000000000000000000000\n        /* \"#utility.yul\":21476:21477   */\n      0x00\n        /* \"#utility.yul\":21468:21474   */\n      dup3\n        /* \"#utility.yul\":21464:21478   */\n      add\n        /* \"#utility.yul\":21457:21504   */\n      mstore\n        /* \"#utility.yul\":21340:21511   */\n      pop\n      jump\t// out\n        /* \"#utility.yul\":21517:21688   */\n    tag_584:\n        /* \"#utility.yul\":21657:21680   */\n      0x6e6f7420656e6f75676820766f7465416d6f756e740000000000000000000000\n        /* \"#utility.yul\":21653:21654   */\n      0x00\n        /* \"#utility.yul\":21645:21651   */\n      dup3\n        /* \"#utility.yul\":21641:21655   */\n      add\n        /* \"#utility.yul\":21634:21681   */\n      mstore\n        /* \"#utility.yul\":21517:21688   */\n      pop\n      jump\t// out\n        /* \"#utility.yul\":21694:21816   */\n    tag_458:\n        /* \"#utility.yul\":21767:21791   */\n      tag_709\n        /* \"#utility.yul\":21785:21790   */\n      dup2\n        /* \"#utility.yul\":21767:21791   */\n      tag_525\n      jump\t// in\n    tag_709:\n        /* \"#utility.yul\":21760:21765   */\n      dup2\n        /* \"#utility.yul\":21757:21792   */\n      eq\n        /* \"#utility.yul\":21747:21810   */\n      tag_710\n      jumpi\n        /* \"#utility.yul\":21806:21807   */\n      0x00\n        /* \"#utility.yul\":21803:21804   */\n      dup1\n        /* \"#utility.yul\":21796:21808   */\n      revert\n        /* \"#utility.yul\":21747:21810   */\n    tag_710:\n        /* \"#utility.yul\":21694:21816   */\n      pop\n      jump\t// out\n        /* \"#utility.yul\":21822:21938   */\n    tag_462:\n        /* \"#utility.yul\":21892:21913   */\n      tag_712\n        /* \"#utility.yul\":21907:21912   */\n      dup2\n        /* \"#utility.yul\":21892:21913   */\n      tag_529\n      jump\t// in\n    tag_712:\n        /* \"#utility.yul\":21885:21890   */\n      dup2\n        /* \"#utility.yul\":21882:21914   */\n      eq\n        /* \"#utility.yul\":21872:21932   */\n      tag_713\n      jumpi\n        /* \"#utility.yul\":21928:21929   */\n      0x00\n        /* \"#utility.yul\":21925:21926   */\n      dup1\n        /* \"#utility.yul\":21918:21930   */\n      revert\n        /* \"#utility.yul\":21872:21932   */\n    tag_713:\n        /* \"#utility.yul\":21822:21938   */\n      pop\n      jump\t// out\n        /* \"#utility.yul\":21944:22066   */\n    tag_466:\n        /* \"#utility.yul\":22017:22041   */\n      tag_715\n        /* \"#utility.yul\":22035:22040   */\n      dup2\n        /* \"#utility.yul\":22017:22041   */\n      tag_533\n      jump\t// in\n    tag_715:\n        /* \"#utility.yul\":22010:22015   */\n      dup2\n        /* \"#utility.yul\":22007:22042   */\n      eq\n        /* \"#utility.yul\":21997:22060   */\n      tag_716\n      jumpi\n        /* \"#utility.yul\":22056:22057   */\n      0x00\n        /* \"#utility.yul\":22053:22054   */\n      dup1\n        /* \"#utility.yul\":22046:22058   */\n      revert\n        /* \"#utility.yul\":21997:22060   */\n    tag_716:\n        /* \"#utility.yul\":21944:22066   */\n      pop\n      jump\t// out\n        /* \"#utility.yul\":22072:22194   */\n    tag_476:\n        /* \"#utility.yul\":22145:22169   */\n      tag_718\n        /* \"#utility.yul\":22163:22168   */\n      dup2\n        /* \"#utility.yul\":22145:22169   */\n      tag_588\n      jump\t// in\n    tag_718:\n        /* \"#utility.yul\":22138:22143   */\n      dup2\n        /* \"#utility.yul\":22135:22170   */\n      eq\n        /* \"#utility.yul\":22125:22188   */\n      tag_719\n      jumpi\n        /* \"#utility.yul\":22184:22185   */\n      0x00\n        /* \"#utility.yul\":22181:22182   */\n      dup1\n        /* \"#utility.yul\":22174:22186   */\n      revert\n        /* \"#utility.yul\":22125:22188   */\n    tag_719:\n        /* \"#utility.yul\":22072:22194   */\n      pop\n      jump\t// out\n\n    auxdata: 0xa26469706673582212204686d9ce89acafdfc494483966804372f4a1d3515ae4fc06573902b7b0e2fc4564736f6c63430008070033\n}\n",
				"bytecode": {
					"linkReferences": {},
					"object": "60806040523480156200001157600080fd5b5060405162003ab338038062003ab3833981810160405281019062000037919062000095565b806000806101000a81548173ffffffffffffffffffffffffffffffffffffffff021916908373ffffffffffffffffffffffffffffffffffffffff160217905550506200011a565b6000815190506200008f8162000100565b92915050565b600060208284031215620000ae57620000ad620000fb565b5b6000620000be848285016200007e565b91505092915050565b6000620000d482620000db565b9050919050565b600073ffffffffffffffffffffffffffffffffffffffff82169050919050565b600080fd5b6200010b81620000c7565b81146200011757600080fd5b50565b613989806200012a6000396000f3fe60806040526004361061007f5760003560e01c8063742f8a771161004e578063742f8a771461025a57806374fe9bc2146102975780639bd0abf1146102c7578063b8e5303d146102f75761016e565b80630ce4905314610173578063357965ba146101a35780634121855f146101e057806347e4dd271461021d5761016e565b3661016e5760008054906101000a900473ffffffffffffffffffffffffffffffffffffffff1673ffffffffffffffffffffffffffffffffffffffff163373ffffffffffffffffffffffffffffffffffffffff161461016b5734600560003373ffffffffffffffffffffffffffffffffffffffff1673ffffffffffffffffffffffffffffffffffffffff16815260200190815260200160002060008282546101269190613488565b925050819055507f88a5966d370b9919b20f3e2c13ff65706f196a4e32cc2c12bf57088f88525874333460405161015e92919061324d565b60405180910390a161016c565b5b005b600080fd5b61018d60048036038101906101889190612dfe565b61033a565b60405161019a9190613276565b60405180910390f35b3480156101af57600080fd5b506101ca60048036038101906101c59190612f9f565b61076c565b6040516101d79190613291565b60405180910390f35b3480156101ec57600080fd5b5061020760048036038101906102029190612f0b565b610a18565b60405161021491906133f0565b60405180910390f35b34801561022957600080fd5b50610244600480360381019061023f9190612e7e565b610da9565b6040516102519190613276565b60405180910390f35b34801561026657600080fd5b50610281600480360381019061027c9190612f0b565b611580565b60405161028e9190613276565b60405180910390f35b6102b160048036038101906102ac9190612f38565b611912565b6040516102be9190613276565b60405180910390f35b6102e160048036038101906102dc9190612e3e565b612266565b6040516102ee9190613276565b60405180910390f35b34801561030357600080fd5b5061031e60048036038101906103199190612f0b565b61245d565b60405161033197969594939291906132ac565b60405180910390f35b60008060009054906101000a900473ffffffffffffffffffffffffffffffffffffffff1673ffffffffffffffffffffffffffffffffffffffff163373ffffffffffffffffffffffffffffffffffffffff16146103cb576040517f08c379a00000000000000000000000000000000000000000000000000000000081526004016103c290613330565b60405180910390fd5b6103d48261270b565b610413576040517f08c379a000000000000000000000000000000000000000000000000000000000815260040161040a90613370565b60405180910390fd5b6000600660008481526020019081526020016000206040518061014001604052908160008201805461044490613631565b80601f016020809104026020016040519081016040528092919081815260200182805461047090613631565b80156104bd5780601f10610492576101008083540402835291602001916104bd565b820191906000526020600020905b8154815290600101906020018083116104a057829003601f168201915b505050505081526020016001820180546104d690613631565b80601f016020809104026020016040519081016040528092919081815260200182805461050290613631565b801561054f5780601f106105245761010080835404028352916020019161054f565b820191906000526020600020905b81548152906001019060200180831161053257829003601f168201915b5050505050815260200160028201805461056890613631565b80601f016020809104026020016040519081016040528092919081815260200182805461059490613631565b80156105e15780601f106105b6576101008083540402835291602001916105e1565b820191906000526020600020905b8154815290600101906020018083116105c457829003601f168201915b50505050508152602001600382015481526020016004820154815260200160058201548152602001600682015481526020016007820160009054906101000a900460ff161515151581526020016007820160019054906101000a900460ff161515151581526020016007820160029054906101000a900460ff161515151581525050905060006106bf60646106b1600a8560c0015186608001518760a00151886060015161068f9190613488565b6106999190613488565b6106a39190613488565b61273890919063ffffffff16565b61277d90919063ffffffff16565b90506001826101200190151590811515815250156107295760008590508073ffffffffffffffffffffffffffffffffffffffff166108fc839081150290604051600060405180830381858888f19350505050158015610722573d6000803e3d6000fd5b5050610764565b6040517f08c379a000000000000000000000000000000000000000000000000000000000815260040161075b906133b0565b60405180910390fd5b505092915050565b60008060009054906101000a900473ffffffffffffffffffffffffffffffffffffffff1673ffffffffffffffffffffffffffffffffffffffff163373ffffffffffffffffffffffffffffffffffffffff16146107fd576040517f08c379a00000000000000000000000000000000000000000000000000000000081526004016107f490613330565b60405180910390fd5b600061080986866127a5565b9050600061081782866127a5565b905060008160405160200161082c919061321b565b60405160208183030381529060405280519060200120905061084d8161270b565b1561088d576040517f08c379a000000000000000000000000000000000000000000000000000000000815260040161088490613390565b60405180910390fd5b60016006600083815260200190815260200160002060070160016101000a81548160ff021916908315150217905550876006600083815260200190815260200160002060000190805190602001906108e6929190612c97565b5086600660008381526020019081526020016000206001019080519060200190610911929190612c97565b508560066000838152602001908152602001600020600201908051906020019061093c929190612c97565b5060006006600083815260200190815260200160002060030181905550600060066000838152602001908152602001600020600401819055506000600660008381526020019081526020016000206005018190555060006006600083815260200190815260200160002060060181905550846006600083815260200190815260200160002060070160006101000a81548160ff02191690831515021790555060006006600083815260200190815260200160002060070160026101000a81548160ff021916908315150217905550809350505050949350505050565b60008060009054906101000a900473ffffffffffffffffffffffffffffffffffffffff1673ffffffffffffffffffffffffffffffffffffffff163373ffffffffffffffffffffffffffffffffffffffff1614610aa9576040517f08c379a0000000000000000000000000000000000000000000000000000000008152600401610aa090613330565b60405180910390fd5b610ab28261270b565b610af1576040517f08c379a0000000000000000000000000000000000000000000000000000000008152600401610ae890613370565b60405180910390fd5b60006006600084815260200190815260200160002060405180610140016040529081600082018054610b2290613631565b80601f0160208091040260200160405190810160405280929190818152602001828054610b4e90613631565b8015610b9b5780601f10610b7057610100808354040283529160200191610b9b565b820191906000526020600020905b815481529060010190602001808311610b7e57829003601f168201915b50505050508152602001600182018054610bb490613631565b80601f0160208091040260200160405190810160405280929190818152602001828054610be090613631565b8015610c2d5780601f10610c0257610100808354040283529160200191610c2d565b820191906000526020600020905b815481529060010190602001808311610c1057829003601f168201915b50505050508152602001600282018054610c4690613631565b80601f0160208091040260200160405190810160405280929190818152602001828054610c7290613631565b8015610cbf5780601f10610c9457610100808354040283529160200191610cbf565b820191906000526020600020905b815481529060010190602001808311610ca257829003601f168201915b50505050508152602001600382015481526020016004820154815260200160058201548152602001600682015481526020016007820160009054906101000a900460ff161515151581526020016007820160019054906101000a900460ff161515151581526020016007820160029054906101000a900460ff16151515158152505090506000610d9d6064610d8f600a8560c0015186608001518760a001518860600151610d6d9190613488565b610d779190613488565b610d819190613488565b61273890919063ffffffff16565b61277d90919063ffffffff16565b90508092505050919050565b60008060009054906101000a900473ffffffffffffffffffffffffffffffffffffffff1673ffffffffffffffffffffffffffffffffffffffff163373ffffffffffffffffffffffffffffffffffffffff1614610e3a576040517f08c379a0000000000000000000000000000000000000000000000000000000008152600401610e3190613330565b60405180910390fd5b610e438561270b565b610e82576040517f08c379a0000000000000000000000000000000000000000000000000000000008152600401610e7990613370565b60405180910390fd5b85600560008973ffffffffffffffffffffffffffffffffffffffff1673ffffffffffffffffffffffffffffffffffffffff168152602001908152602001600020541015610f04576040517f08c379a0000000000000000000000000000000000000000000000000000000008152600401610efb906133d0565b60405180910390fd5b60006006600087815260200190815260200160002060405180610140016040529081600082018054610f3590613631565b80601f0160208091040260200160405190810160405280929190818152602001828054610f6190613631565b8015610fae5780601f10610f8357610100808354040283529160200191610fae565b820191906000526020600020905b815481529060010190602001808311610f9157829003601f168201915b50505050508152602001600182018054610fc790613631565b80601f0160208091040260200160405190810160405280929190818152602001828054610ff390613631565b80156110405780601f1061101557610100808354040283529160200191611040565b820191906000526020600020905b81548152906001019060200180831161102357829003601f168201915b5050505050815260200160028201805461105990613631565b80601f016020809104026020016040519081016040528092919081815260200182805461108590613631565b80156110d25780601f106110a7576101008083540402835291602001916110d2565b820191906000526020600020905b8154815290600101906020018083116110b557829003601f168201915b50505050508152602001600382015481526020016004820154815260200160058201548152602001600682015481526020016007820160009054906101000a900460ff161515151581526020016007820160019054906101000a900460ff161515151581526020016007820160029054906101000a900460ff161515151581525050905060006111726111648761293b565b61116d8761293b565b6127a5565b905060006111886111828961296c565b836127a5565b905060006040518060e001604052808b81526020018781526020018981526020018881526020018c73ffffffffffffffffffffffffffffffffffffffff16815260200183815260200160001515815250905088600260008b815260200190815260200160002060010181905550600260008a81526020019081526020016000206000018190806001815401808255809150506001900390600052602060002090600702016000909190919091506000820151816000015560208201518160010155604082015181600201556060820151816003015560808201518160040160006101000a81548173ffffffffffffffffffffffffffffffffffffffff021916908373ffffffffffffffffffffffffffffffffffffffff16021790555060a08201518160050190805190602001906112c0929190612c97565b5060c08201518160060160006101000a81548160ff02191690831515021790555050508a600460008d73ffffffffffffffffffffffffffffffffffffffff1673ffffffffffffffffffffffffffffffffffffffff16815260200190815260200160002060010160006101000a81548173ffffffffffffffffffffffffffffffffffffffff021916908373ffffffffffffffffffffffffffffffffffffffff160217905550600260008a81526020019081526020016000206000018190806001815401808255809150506001900390600052602060002090600702016000909190919091506000820151816000015560208201518160010155604082015181600201556060820151816003015560808201518160040160006101000a81548173ffffffffffffffffffffffffffffffffffffffff021916908373ffffffffffffffffffffffffffffffffffffffff16021790555060a082015181600501908051906020019061142f929190612c97565b5060c08201518160060160006101000a81548160ff021916908315150217905550505060028614156114ae57898460c00181815161146d9190613488565b9150818152505089600383604051611485919061321b565b908152602001604051809103902060008282546114a29190613488565b92505081905550611518565b60038614156114d55789846060018181516114c99190613488565b91508181525050611517565b60018614156114fc5789846080018181516114f09190613488565b91508181525050611516565b898460a00181815161150e9190613488565b915081815250505b5b5b89600560008d73ffffffffffffffffffffffffffffffffffffffff1673ffffffffffffffffffffffffffffffffffffffff16815260200190815260200160002060008282546115679190613569565b9250508190555050505050600190509695505050505050565b60008060009054906101000a900473ffffffffffffffffffffffffffffffffffffffff1673ffffffffffffffffffffffffffffffffffffffff163373ffffffffffffffffffffffffffffffffffffffff1614611611576040517f08c379a000000000000000000000000000000000000000000000000000000000815260040161160890613330565b60405180910390fd5b61161a8261270b565b611659576040517f08c379a000000000000000000000000000000000000000000000000000000000815260040161165090613370565b60405180910390fd5b6000600660008481526020019081526020016000206040518061014001604052908160008201805461168a90613631565b80601f01602080910402602001604051908101604052809291908181526020018280546116b690613631565b80156117035780601f106116d857610100808354040283529160200191611703565b820191906000526020600020905b8154815290600101906020018083116116e657829003601f168201915b5050505050815260200160018201805461171c90613631565b80601f016020809104026020016040519081016040528092919081815260200182805461174890613631565b80156117955780601f1061176a57610100808354040283529160200191611795565b820191906000526020600020905b81548152906001019060200180831161177857829003601f168201915b505050505081526020016002820180546117ae90613631565b80601f01602080910402602001604051908101604052809291908181526020018280546117da90613631565b80156118275780601f106117fc57610100808354040283529160200191611827565b820191906000526020600020905b81548152906001019060200180831161180a57829003601f168201915b50505050508152602001600382015481526020016004820154815260200160058201548152602001600682015481526020016007820160009054906101000a900460ff161515151581526020016007820160019054906101000a900460ff161515151581526020016007820160029054906101000a900460ff1615151515815250509050600061190560646118f7600a8560c0015186608001518760a0015188606001516118d59190613488565b6118df9190613488565b6118e99190613488565b61273890919063ffffffff16565b61277d90919063ffffffff16565b9050600192505050919050565b60008060009054906101000a900473ffffffffffffffffffffffffffffffffffffffff1673ffffffffffffffffffffffffffffffffffffffff163373ffffffffffffffffffffffffffffffffffffffff16146119a3576040517f08c379a000000000000000000000000000000000000000000000000000000000815260040161199a90613330565b60405180910390fd5b6119ac8561270b565b6119eb576040517f08c379a00000000000000000000000000000000000000000000000000000000081526004016119e290613370565b60405180910390fd5b60006006600087815260200190815260200160002060405180610140016040529081600082018054611a1c90613631565b80601f0160208091040260200160405190810160405280929190818152602001828054611a4890613631565b8015611a955780601f10611a6a57610100808354040283529160200191611a95565b820191906000526020600020905b815481529060010190602001808311611a7857829003601f168201915b50505050508152602001600182018054611aae90613631565b80601f0160208091040260200160405190810160405280929190818152602001828054611ada90613631565b8015611b275780601f10611afc57610100808354040283529160200191611b27565b820191906000526020600020905b815481529060010190602001808311611b0a57829003601f168201915b50505050508152602001600282018054611b4090613631565b80601f0160208091040260200160405190810160405280929190818152602001828054611b6c90613631565b8015611bb95780601f10611b8e57610100808354040283529160200191611bb9565b820191906000526020600020905b815481529060010190602001808311611b9c57829003601f168201915b50505050508152602001600382015481526020016004820154815260200160058201548152602001600682015481526020016007820160009054906101000a900460ff161515151581526020016007820160019054906101000a900460ff161515151581526020016007820160029054906101000a900460ff1615151515815250509050600060026000888152602001908152602001600020600001805480602002602001604051908101604052809291908181526020016000905b82821015611dd257838290600052602060002090600702016040518060e0016040529081600082015481526020016001820154815260200160028201548152602001600382015481526020016004820160009054906101000a900473ffffffffffffffffffffffffffffffffffffffff1673ffffffffffffffffffffffffffffffffffffffff1673ffffffffffffffffffffffffffffffffffffffff168152602001600582018054611d2690613631565b80601f0160208091040260200160405190810160405280929190818152602001828054611d5290613631565b8015611d9f5780601f10611d7457610100808354040283529160200191611d9f565b820191906000526020600020905b815481529060010190602001808311611d8257829003601f168201915b505050505081526020016006820160009054906101000a900460ff16151515158152505081526020019060010190611c75565b5050505090506000805b60018351611dea9190613569565b8111612244576000838281518110611e0557611e0461377e565b5b602002602001015160c0019015159081151581525015612231576002838281518110611e3457611e3361377e565b5b6020026020010151602001511415611fe357611e716064611e6360558760c0015161273890919063ffffffff16565b61277d90919063ffffffff16565b915087838281518110611e8757611e8661377e565b5b602002602001015160400151148015611ebd575086838281518110611eaf57611eae61377e565b5b602002602001015160600151145b15611fde5760006003848381518110611ed957611ed861377e565b5b602002602001015160a00151604051611ef2919061321b565b9081526020016040518091039020549050600081858481518110611f1957611f1861377e565b5b60200260200101516000015185611f30919061350f565b611f3a91906134de565b90508060056000878681518110611f5457611f5361377e565b5b60200260200101516080015173ffffffffffffffffffffffffffffffffffffffff1673ffffffffffffffffffffffffffffffffffffffff1681526020019081526020016000206000828254611fa99190613488565b925050819055506001858481518110611fc557611fc461377e565b5b602002602001015160c001901515908115158152505050505b612230565b85838281518110611ff757611ff661377e565b5b602002602001015160200151141561222f576120526064612044605587608001518860a00151896060015161202c9190613488565b6120369190613488565b61273890919063ffffffff16565b61277d90919063ffffffff16565b915060008084838151811061206a5761206961377e565b5b60200260200101516020015114156120aa576120a7606461209960558860a0015161273890919063ffffffff16565b61277d90919063ffffffff16565b90505b60018483815181106120bf576120be61377e565b5b60200260200101516020015114156120ff576120fc60646120ee6055886080015161273890919063ffffffff16565b61277d90919063ffffffff16565b90505b60038483815181106121145761211361377e565b5b60200260200101516020015114156121545761215160646121436055886060015161273890919063ffffffff16565b61277d90919063ffffffff16565b90505b60008185848151811061216a5761216961377e565b5b60200260200101516000015185612181919061350f565b61218b91906134de565b905080600560008786815181106121a5576121a461377e565b5b60200260200101516080015173ffffffffffffffffffffffffffffffffffffffff1673ffffffffffffffffffffffffffffffffffffffff16815260200190815260200160002060008282546121fa9190613488565b9250508190555060018584815181106122165761221561377e565b5b602002602001015160c001901515908115158152505050505b5b5b808061223c90613694565b915050611ddc565b5060018361012001901515908115158152505050505060019050949350505050565b60008060009054906101000a900473ffffffffffffffffffffffffffffffffffffffff1673ffffffffffffffffffffffffffffffffffffffff163373ffffffffffffffffffffffffffffffffffffffff16146122f7576040517f08c379a00000000000000000000000000000000000000000000000000000000081526004016122ee90613330565b60405180910390fd5b81600560008573ffffffffffffffffffffffffffffffffffffffff1673ffffffffffffffffffffffffffffffffffffffff168152602001908152602001600020541015801561238657506000600560008573ffffffffffffffffffffffffffffffffffffffff1673ffffffffffffffffffffffffffffffffffffffff1681526020019081526020016000205410155b1561241c5760008390508073ffffffffffffffffffffffffffffffffffffffff166108fc600560008773ffffffffffffffffffffffffffffffffffffffff1673ffffffffffffffffffffffffffffffffffffffff168152602001908152602001600020549081150290604051600060405180830381858888f19350505050158015612415573d6000803e3d6000fd5b5050612457565b6040517f08c379a000000000000000000000000000000000000000000000000000000000815260040161244e906133d0565b60405180910390fd5b92915050565b60608060606000806000806124718861270b565b6124b0576040517f08c379a00000000000000000000000000000000000000000000000000000000081526004016124a790613350565b60405180910390fd5b60066000898152602001908152602001600020600001600660008a8152602001908152602001600020600101600660008b8152602001908152602001600020600201600660008c815260200190815260200160002060030154600660008d815260200190815260200160002060040154600660008e815260200190815260200160002060050154600660008f81526020019081526020016000206006015486805461255a90613631565b80601f016020809104026020016040519081016040528092919081815260200182805461258690613631565b80156125d35780601f106125a8576101008083540402835291602001916125d3565b820191906000526020600020905b8154815290600101906020018083116125b657829003601f168201915b505050505096508580546125e690613631565b80601f016020809104026020016040519081016040528092919081815260200182805461261290613631565b801561265f5780601f106126345761010080835404028352916020019161265f565b820191906000526020600020905b81548152906001019060200180831161264257829003601f168201915b5050505050955084805461267290613631565b80601f016020809104026020016040519081016040528092919081815260200182805461269e90613631565b80156126eb5780601f106126c0576101008083540402835291602001916126eb565b820191906000526020600020905b8154815290600101906020018083116126ce57829003601f168201915b505050505094509650965096509650965096509650919395979092949650565b60006006600083815260200190815260200160002060070160019054906101000a900460ff169050919050565b60008083141561274b5760009050612777565b60008284612759919061350f565b905082848261276891906134de565b1461277257600080fd5b809150505b92915050565b600080821161278b57600080fd5b6000828461279991906134de565b90508091505092915050565b6060600083905060008390506000815183516127c19190613488565b67ffffffffffffffff8111156127da576127d96137ad565b5b6040519080825280601f01601f19166020018201604052801561280c5781602001600182028036833780820191505090505b50905060008190506000805b85518110156128a0578581815181106128345761283361377e565b5b602001015160f81c60f81b83838061284b90613694565b94508151811061285e5761285d61377e565b5b60200101907effffffffffffffffffffffffffffffffffffffffffffffffffffffffffffff1916908160001a905350808061289890613694565b915050612818565b5060005b845181101561292c578481815181106128c0576128bf61377e565b5b602001015160f81c60f81b8383806128d790613694565b9450815181106128ea576128e961377e565b5b60200101907effffffffffffffffffffffffffffffffffffffffffffffffffffffffffffff1916908160001a905350808061292490613694565b9150506128a4565b50829550505050505092915050565b6060612965826040516020016129519190613232565b60405160208183030381529060405261299d565b9050919050565b6060612996826040516020016129829190613200565b60405160208183030381529060405261299d565b9050919050565b606060006040518060400160405280601081526020017f303132333435363738396162636465660000000000000000000000000000000081525090506000600284516129e9919061350f565b60026129f59190613488565b67ffffffffffffffff811115612a0e57612a0d6137ad565b5b6040519080825280601f01601f191660200182016040528015612a405781602001600182028036833780820191505090505b5090507f300000000000000000000000000000000000000000000000000000000000000081600081518110612a7857612a7761377e565b5b60200101907effffffffffffffffffffffffffffffffffffffffffffffffffffffffffffff1916908160001a9053507f780000000000000000000000000000000000000000000000000000000000000081600181518110612adc57612adb61377e565b5b60200101907effffffffffffffffffffffffffffffffffffffffffffffffffffffffffffff1916908160001a90535060005b8451811015612c8c57826004868381518110612b2d57612b2c61377e565b5b602001015160f81c60f81b7effffffffffffffffffffffffffffffffffffffffffffffffffffffffffffff1916901c60f81c60ff1681518110612b7357612b7261377e565b5b602001015160f81c60f81b82600283612b8c919061350f565b6002612b989190613488565b81518110612ba957612ba861377e565b5b60200101907effffffffffffffffffffffffffffffffffffffffffffffffffffffffffffff1916908160001a90535082600f60f81b868381518110612bf157612bf061377e565b5b602001015160f81c60f81b1660f81c60ff1681518110612c1457612c1361377e565b5b602001015160f81c60f81b82600283612c2d919061350f565b6003612c399190613488565b81518110612c4a57612c4961377e565b5b60200101907effffffffffffffffffffffffffffffffffffffffffffffffffffffffffffff1916908160001a9053508080612c8490613694565b915050612b0e565b508092505050919050565b828054612ca390613631565b90600052602060002090601f016020900481019282612cc55760008555612d0c565b82601f10612cde57805160ff1916838001178555612d0c565b82800160010185558215612d0c579182015b82811115612d0b578251825591602001919060010190612cf0565b5b509050612d199190612d1d565b5090565b5b80821115612d36576000816000905550600101612d1e565b5090565b6000612d4d612d4884613430565b61340b565b905082815260208101848484011115612d6957612d686137e1565b5b612d748482856135ef565b509392505050565b600081359050612d8b816138f7565b92915050565b600081359050612da08161390e565b92915050565b600081359050612db581613925565b92915050565b600082601f830112612dd057612dcf6137dc565b5b8135612de0848260208601612d3a565b91505092915050565b600081359050612df88161393c565b92915050565b60008060408385031215612e1557612e146137eb565b5b6000612e2385828601612d7c565b9250506020612e3485828601612da6565b9150509250929050565b60008060408385031215612e5557612e546137eb565b5b6000612e6385828601612d7c565b9250506020612e7485828601612de9565b9150509250929050565b60008060008060008060c08789031215612e9b57612e9a6137eb565b5b6000612ea989828a01612d7c565b9650506020612eba89828a01612de9565b9550506040612ecb89828a01612da6565b9450506060612edc89828a01612de9565b9350506080612eed89828a01612de9565b92505060a0612efe89828a01612de9565b9150509295509295509295565b600060208284031215612f2157612f206137eb565b5b6000612f2f84828501612da6565b91505092915050565b60008060008060808587031215612f5257612f516137eb565b5b6000612f6087828801612da6565b9450506020612f7187828801612de9565b9350506040612f8287828801612de9565b9250506060612f9387828801612de9565b91505092959194509250565b60008060008060808587031215612fb957612fb86137eb565b5b600085013567ffffffffffffffff811115612fd757612fd66137e6565b5b612fe387828801612dbb565b945050602085013567ffffffffffffffff811115613004576130036137e6565b5b61301087828801612dbb565b935050604085013567ffffffffffffffff811115613031576130306137e6565b5b61303d87828801612dbb565b925050606061304e87828801612d91565b91505092959194509250565b6130638161359d565b82525050565b613072816135af565b82525050565b613081816135bb565b82525050565b613098613093826135bb565b6136dd565b82525050565b60006130a982613461565b6130b3818561346c565b93506130c38185602086016135fe565b6130cc816137f0565b840191505092915050565b60006130e282613461565b6130ec818561347d565b93506130fc8185602086016135fe565b80840191505092915050565b600061311560198361346c565b915061312082613801565b602082019050919050565b600061313860098361346c565b91506131438261382a565b602082019050919050565b600061315b600e8361346c565b915061316682613853565b602082019050919050565b600061317e600a8361346c565b91506131898261387c565b602082019050919050565b60006131a160158361346c565b91506131ac826138a5565b602082019050919050565b60006131c460158361346c565b91506131cf826138ce565b602082019050919050565b6131e3816135e5565b82525050565b6131fa6131f5826135e5565b6136e7565b82525050565b600061320c8284613087565b60208201915081905092915050565b600061322782846130d7565b915081905092915050565b600061323e82846131e9565b60208201915081905092915050565b6000604082019050613262600083018561305a565b61326f60208301846131da565b9392505050565b600060208201905061328b6000830184613069565b92915050565b60006020820190506132a66000830184613078565b92915050565b600060e08201905081810360008301526132c6818a61309e565b905081810360208301526132da818961309e565b905081810360408301526132ee818861309e565b90506132fd60608301876131da565b61330a60808301866131da565b61331760a08301856131da565b61332460c08301846131da565b98975050505050505050565b6000602082019050818103600083015261334981613108565b9050919050565b600060208201905081810360008301526133698161312b565b9050919050565b600060208201905081810360008301526133898161314e565b9050919050565b600060208201905081810360008301526133a981613171565b9050919050565b600060208201905081810360008301526133c981613194565b9050919050565b600060208201905081810360008301526133e9816131b7565b9050919050565b600060208201905061340560008301846131da565b92915050565b6000613415613426565b90506134218282613663565b919050565b6000604051905090565b600067ffffffffffffffff82111561344b5761344a6137ad565b5b613454826137f0565b9050602081019050919050565b600081519050919050565b600082825260208201905092915050565b600081905092915050565b6000613493826135e5565b915061349e836135e5565b9250827fffffffffffffffffffffffffffffffffffffffffffffffffffffffffffffffff038211156134d3576134d26136f1565b5b828201905092915050565b60006134e9826135e5565b91506134f4836135e5565b92508261350457613503613720565b5b828204905092915050565b600061351a826135e5565b9150613525836135e5565b9250817fffffffffffffffffffffffffffffffffffffffffffffffffffffffffffffffff048311821515161561355e5761355d6136f1565b5b828202905092915050565b6000613574826135e5565b915061357f836135e5565b925082821015613592576135916136f1565b5b828203905092915050565b60006135a8826135c5565b9050919050565b60008115159050919050565b6000819050919050565b600073ffffffffffffffffffffffffffffffffffffffff82169050919050565b6000819050919050565b82818337600083830152505050565b60005b8381101561361c578082015181840152602081019050613601565b8381111561362b576000848401525b50505050565b6000600282049050600182168061364957607f821691505b6020821081141561365d5761365c61374f565b5b50919050565b61366c826137f0565b810181811067ffffffffffffffff8211171561368b5761368a6137ad565b5b80604052505050565b600061369f826135e5565b91507fffffffffffffffffffffffffffffffffffffffffffffffffffffffffffffffff8214156136d2576136d16136f1565b5b600182019050919050565b6000819050919050565b6000819050919050565b7f4e487b7100000000000000000000000000000000000000000000000000000000600052601160045260246000fd5b7f4e487b7100000000000000000000000000000000000000000000000000000000600052601260045260246000fd5b7f4e487b7100000000000000000000000000000000000000000000000000000000600052602260045260246000fd5b7f4e487b7100000000000000000000000000000000000000000000000000000000600052603260045260246000fd5b7f4e487b7100000000000000000000000000000000000000000000000000000000600052604160045260246000fd5b600080fd5b600080fd5b600080fd5b600080fd5b6000601f19601f8301169050919050565b7f4f6e6c79206f776e65722063616e2063616c6c20746869732e00000000000000600082015250565b7f6e6f742065786973740000000000000000000000000000000000000000000000600082015250565b7f706f6f6c206e6f74206578697374000000000000000000000000000000000000600082015250565b7f7061697220657869737400000000000000000000000000000000000000000000600082015250565b7f706f6f6c20686173206e6f742066696e69736865640000000000000000000000600082015250565b7f6e6f7420656e6f75676820766f7465416d6f756e740000000000000000000000600082015250565b6139008161359d565b811461390b57600080fd5b50565b613917816135af565b811461392257600080fd5b50565b61392e816135bb565b811461393957600080fd5b50565b613945816135e5565b811461395057600080fd5b5056fea26469706673582212204686d9ce89acafdfc494483966804372f4a1d3515ae4fc06573902b7b0e2fc4564736f6c63430008070033",
					"opcodes": "PUSH1 0x80 PUSH1 0x40 MSTORE CALLVALUE DUP1 ISZERO PUSH3 0x11 JUMPI PUSH1 0x0 DUP1 REVERT JUMPDEST POP PUSH1 0x40 MLOAD PUSH3 0x3AB3 CODESIZE SUB DUP1 PUSH3 0x3AB3 DUP4 CODECOPY DUP2 DUP2 ADD PUSH1 0x40 MSTORE DUP2 ADD SWAP1 PUSH3 0x37 SWAP2 SWAP1 PUSH3 0x95 JUMP JUMPDEST DUP1 PUSH1 0x0 DUP1 PUSH2 0x100 EXP DUP2 SLOAD DUP2 PUSH20 0xFFFFFFFFFFFFFFFFFFFFFFFFFFFFFFFFFFFFFFFF MUL NOT AND SWAP1 DUP4 PUSH20 0xFFFFFFFFFFFFFFFFFFFFFFFFFFFFFFFFFFFFFFFF AND MUL OR SWAP1 SSTORE POP POP PUSH3 0x11A JUMP JUMPDEST PUSH1 0x0 DUP2 MLOAD SWAP1 POP PUSH3 0x8F DUP2 PUSH3 0x100 JUMP JUMPDEST SWAP3 SWAP2 POP POP JUMP JUMPDEST PUSH1 0x0 PUSH1 0x20 DUP3 DUP5 SUB SLT ISZERO PUSH3 0xAE JUMPI PUSH3 0xAD PUSH3 0xFB JUMP JUMPDEST JUMPDEST PUSH1 0x0 PUSH3 0xBE DUP5 DUP3 DUP6 ADD PUSH3 0x7E JUMP JUMPDEST SWAP2 POP POP SWAP3 SWAP2 POP POP JUMP JUMPDEST PUSH1 0x0 PUSH3 0xD4 DUP3 PUSH3 0xDB JUMP JUMPDEST SWAP1 POP SWAP2 SWAP1 POP JUMP JUMPDEST PUSH1 0x0 PUSH20 0xFFFFFFFFFFFFFFFFFFFFFFFFFFFFFFFFFFFFFFFF DUP3 AND SWAP1 POP SWAP2 SWAP1 POP JUMP JUMPDEST PUSH1 0x0 DUP1 REVERT JUMPDEST PUSH3 0x10B DUP2 PUSH3 0xC7 JUMP JUMPDEST DUP2 EQ PUSH3 0x117 JUMPI PUSH1 0x0 DUP1 REVERT JUMPDEST POP JUMP JUMPDEST PUSH2 0x3989 DUP1 PUSH3 0x12A PUSH1 0x0 CODECOPY PUSH1 0x0 RETURN INVALID PUSH1 0x80 PUSH1 0x40 MSTORE PUSH1 0x4 CALLDATASIZE LT PUSH2 0x7F JUMPI PUSH1 0x0 CALLDATALOAD PUSH1 0xE0 SHR DUP1 PUSH4 0x742F8A77 GT PUSH2 0x4E JUMPI DUP1 PUSH4 0x742F8A77 EQ PUSH2 0x25A JUMPI DUP1 PUSH4 0x74FE9BC2 EQ PUSH2 0x297 JUMPI DUP1 PUSH4 0x9BD0ABF1 EQ PUSH2 0x2C7 JUMPI DUP1 PUSH4 0xB8E5303D EQ PUSH2 0x2F7 JUMPI PUSH2 0x16E JUMP JUMPDEST DUP1 PUSH4 0xCE49053 EQ PUSH2 0x173 JUMPI DUP1 PUSH4 0x357965BA EQ PUSH2 0x1A3 JUMPI DUP1 PUSH4 0x4121855F EQ PUSH2 0x1E0 JUMPI DUP1 PUSH4 0x47E4DD27 EQ PUSH2 0x21D JUMPI PUSH2 0x16E JUMP JUMPDEST CALLDATASIZE PUSH2 0x16E JUMPI PUSH1 0x0 DUP1 SLOAD SWAP1 PUSH2 0x100 EXP SWAP1 DIV PUSH20 0xFFFFFFFFFFFFFFFFFFFFFFFFFFFFFFFFFFFFFFFF AND PUSH20 0xFFFFFFFFFFFFFFFFFFFFFFFFFFFFFFFFFFFFFFFF AND CALLER PUSH20 0xFFFFFFFFFFFFFFFFFFFFFFFFFFFFFFFFFFFFFFFF AND EQ PUSH2 0x16B JUMPI CALLVALUE PUSH1 0x5 PUSH1 0x0 CALLER PUSH20 0xFFFFFFFFFFFFFFFFFFFFFFFFFFFFFFFFFFFFFFFF AND PUSH20 0xFFFFFFFFFFFFFFFFFFFFFFFFFFFFFFFFFFFFFFFF AND DUP2 MSTORE PUSH1 0x20 ADD SWAP1 DUP2 MSTORE PUSH1 0x20 ADD PUSH1 0x0 KECCAK256 PUSH1 0x0 DUP3 DUP3 SLOAD PUSH2 0x126 SWAP2 SWAP1 PUSH2 0x3488 JUMP JUMPDEST SWAP3 POP POP DUP2 SWAP1 SSTORE POP PUSH32 0x88A5966D370B9919B20F3E2C13FF65706F196A4E32CC2C12BF57088F88525874 CALLER CALLVALUE PUSH1 0x40 MLOAD PUSH2 0x15E SWAP3 SWAP2 SWAP1 PUSH2 0x324D JUMP JUMPDEST PUSH1 0x40 MLOAD DUP1 SWAP2 SUB SWAP1 LOG1 PUSH2 0x16C JUMP JUMPDEST JUMPDEST STOP JUMPDEST PUSH1 0x0 DUP1 REVERT JUMPDEST PUSH2 0x18D PUSH1 0x4 DUP1 CALLDATASIZE SUB DUP2 ADD SWAP1 PUSH2 0x188 SWAP2 SWAP1 PUSH2 0x2DFE JUMP JUMPDEST PUSH2 0x33A JUMP JUMPDEST PUSH1 0x40 MLOAD PUSH2 0x19A SWAP2 SWAP1 PUSH2 0x3276 JUMP JUMPDEST PUSH1 0x40 MLOAD DUP1 SWAP2 SUB SWAP1 RETURN JUMPDEST CALLVALUE DUP1 ISZERO PUSH2 0x1AF JUMPI PUSH1 0x0 DUP1 REVERT JUMPDEST POP PUSH2 0x1CA PUSH1 0x4 DUP1 CALLDATASIZE SUB DUP2 ADD SWAP1 PUSH2 0x1C5 SWAP2 SWAP1 PUSH2 0x2F9F JUMP JUMPDEST PUSH2 0x76C JUMP JUMPDEST PUSH1 0x40 MLOAD PUSH2 0x1D7 SWAP2 SWAP1 PUSH2 0x3291 JUMP JUMPDEST PUSH1 0x40 MLOAD DUP1 SWAP2 SUB SWAP1 RETURN JUMPDEST CALLVALUE DUP1 ISZERO PUSH2 0x1EC JUMPI PUSH1 0x0 DUP1 REVERT JUMPDEST POP PUSH2 0x207 PUSH1 0x4 DUP1 CALLDATASIZE SUB DUP2 ADD SWAP1 PUSH2 0x202 SWAP2 SWAP1 PUSH2 0x2F0B JUMP JUMPDEST PUSH2 0xA18 JUMP JUMPDEST PUSH1 0x40 MLOAD PUSH2 0x214 SWAP2 SWAP1 PUSH2 0x33F0 JUMP JUMPDEST PUSH1 0x40 MLOAD DUP1 SWAP2 SUB SWAP1 RETURN JUMPDEST CALLVALUE DUP1 ISZERO PUSH2 0x229 JUMPI PUSH1 0x0 DUP1 REVERT JUMPDEST POP PUSH2 0x244 PUSH1 0x4 DUP1 CALLDATASIZE SUB DUP2 ADD SWAP1 PUSH2 0x23F SWAP2 SWAP1 PUSH2 0x2E7E JUMP JUMPDEST PUSH2 0xDA9 JUMP JUMPDEST PUSH1 0x40 MLOAD PUSH2 0x251 SWAP2 SWAP1 PUSH2 0x3276 JUMP JUMPDEST PUSH1 0x40 MLOAD DUP1 SWAP2 SUB SWAP1 RETURN JUMPDEST CALLVALUE DUP1 ISZERO PUSH2 0x266 JUMPI PUSH1 0x0 DUP1 REVERT JUMPDEST POP PUSH2 0x281 PUSH1 0x4 DUP1 CALLDATASIZE SUB DUP2 ADD SWAP1 PUSH2 0x27C SWAP2 SWAP1 PUSH2 0x2F0B JUMP JUMPDEST PUSH2 0x1580 JUMP JUMPDEST PUSH1 0x40 MLOAD PUSH2 0x28E SWAP2 SWAP1 PUSH2 0x3276 JUMP JUMPDEST PUSH1 0x40 MLOAD DUP1 SWAP2 SUB SWAP1 RETURN JUMPDEST PUSH2 0x2B1 PUSH1 0x4 DUP1 CALLDATASIZE SUB DUP2 ADD SWAP1 PUSH2 0x2AC SWAP2 SWAP1 PUSH2 0x2F38 JUMP JUMPDEST PUSH2 0x1912 JUMP JUMPDEST PUSH1 0x40 MLOAD PUSH2 0x2BE SWAP2 SWAP1 PUSH2 0x3276 JUMP JUMPDEST PUSH1 0x40 MLOAD DUP1 SWAP2 SUB SWAP1 RETURN JUMPDEST PUSH2 0x2E1 PUSH1 0x4 DUP1 CALLDATASIZE SUB DUP2 ADD SWAP1 PUSH2 0x2DC SWAP2 SWAP1 PUSH2 0x2E3E JUMP JUMPDEST PUSH2 0x2266 JUMP JUMPDEST PUSH1 0x40 MLOAD PUSH2 0x2EE SWAP2 SWAP1 PUSH2 0x3276 JUMP JUMPDEST PUSH1 0x40 MLOAD DUP1 SWAP2 SUB SWAP1 RETURN JUMPDEST CALLVALUE DUP1 ISZERO PUSH2 0x303 JUMPI PUSH1 0x0 DUP1 REVERT JUMPDEST POP PUSH2 0x31E PUSH1 0x4 DUP1 CALLDATASIZE SUB DUP2 ADD SWAP1 PUSH2 0x319 SWAP2 SWAP1 PUSH2 0x2F0B JUMP JUMPDEST PUSH2 0x245D JUMP JUMPDEST PUSH1 0x40 MLOAD PUSH2 0x331 SWAP8 SWAP7 SWAP6 SWAP5 SWAP4 SWAP3 SWAP2 SWAP1 PUSH2 0x32AC JUMP JUMPDEST PUSH1 0x40 MLOAD DUP1 SWAP2 SUB SWAP1 RETURN JUMPDEST PUSH1 0x0 DUP1 PUSH1 0x0 SWAP1 SLOAD SWAP1 PUSH2 0x100 EXP SWAP1 DIV PUSH20 0xFFFFFFFFFFFFFFFFFFFFFFFFFFFFFFFFFFFFFFFF AND PUSH20 0xFFFFFFFFFFFFFFFFFFFFFFFFFFFFFFFFFFFFFFFF AND CALLER PUSH20 0xFFFFFFFFFFFFFFFFFFFFFFFFFFFFFFFFFFFFFFFF AND EQ PUSH2 0x3CB JUMPI PUSH1 0x40 MLOAD PUSH32 0x8C379A000000000000000000000000000000000000000000000000000000000 DUP2 MSTORE PUSH1 0x4 ADD PUSH2 0x3C2 SWAP1 PUSH2 0x3330 JUMP JUMPDEST PUSH1 0x40 MLOAD DUP1 SWAP2 SUB SWAP1 REVERT JUMPDEST PUSH2 0x3D4 DUP3 PUSH2 0x270B JUMP JUMPDEST PUSH2 0x413 JUMPI PUSH1 0x40 MLOAD PUSH32 0x8C379A000000000000000000000000000000000000000000000000000000000 DUP2 MSTORE PUSH1 0x4 ADD PUSH2 0x40A SWAP1 PUSH2 0x3370 JUMP JUMPDEST PUSH1 0x40 MLOAD DUP1 SWAP2 SUB SWAP1 REVERT JUMPDEST PUSH1 0x0 PUSH1 0x6 PUSH1 0x0 DUP5 DUP2 MSTORE PUSH1 0x20 ADD SWAP1 DUP2 MSTORE PUSH1 0x20 ADD PUSH1 0x0 KECCAK256 PUSH1 0x40 MLOAD DUP1 PUSH2 0x140 ADD PUSH1 0x40 MSTORE SWAP1 DUP2 PUSH1 0x0 DUP3 ADD DUP1 SLOAD PUSH2 0x444 SWAP1 PUSH2 0x3631 JUMP JUMPDEST DUP1 PUSH1 0x1F ADD PUSH1 0x20 DUP1 SWAP2 DIV MUL PUSH1 0x20 ADD PUSH1 0x40 MLOAD SWAP1 DUP2 ADD PUSH1 0x40 MSTORE DUP1 SWAP3 SWAP2 SWAP1 DUP2 DUP2 MSTORE PUSH1 0x20 ADD DUP3 DUP1 SLOAD PUSH2 0x470 SWAP1 PUSH2 0x3631 JUMP JUMPDEST DUP1 ISZERO PUSH2 0x4BD JUMPI DUP1 PUSH1 0x1F LT PUSH2 0x492 JUMPI PUSH2 0x100 DUP1 DUP4 SLOAD DIV MUL DUP4 MSTORE SWAP2 PUSH1 0x20 ADD SWAP2 PUSH2 0x4BD JUMP JUMPDEST DUP3 ADD SWAP2 SWAP1 PUSH1 0x0 MSTORE PUSH1 0x20 PUSH1 0x0 KECCAK256 SWAP1 JUMPDEST DUP2 SLOAD DUP2 MSTORE SWAP1 PUSH1 0x1 ADD SWAP1 PUSH1 0x20 ADD DUP1 DUP4 GT PUSH2 0x4A0 JUMPI DUP3 SWAP1 SUB PUSH1 0x1F AND DUP3 ADD SWAP2 JUMPDEST POP POP POP POP POP DUP2 MSTORE PUSH1 0x20 ADD PUSH1 0x1 DUP3 ADD DUP1 SLOAD PUSH2 0x4D6 SWAP1 PUSH2 0x3631 JUMP JUMPDEST DUP1 PUSH1 0x1F ADD PUSH1 0x20 DUP1 SWAP2 DIV MUL PUSH1 0x20 ADD PUSH1 0x40 MLOAD SWAP1 DUP2 ADD PUSH1 0x40 MSTORE DUP1 SWAP3 SWAP2 SWAP1 DUP2 DUP2 MSTORE PUSH1 0x20 ADD DUP3 DUP1 SLOAD PUSH2 0x502 SWAP1 PUSH2 0x3631 JUMP JUMPDEST DUP1 ISZERO PUSH2 0x54F JUMPI DUP1 PUSH1 0x1F LT PUSH2 0x524 JUMPI PUSH2 0x100 DUP1 DUP4 SLOAD DIV MUL DUP4 MSTORE SWAP2 PUSH1 0x20 ADD SWAP2 PUSH2 0x54F JUMP JUMPDEST DUP3 ADD SWAP2 SWAP1 PUSH1 0x0 MSTORE PUSH1 0x20 PUSH1 0x0 KECCAK256 SWAP1 JUMPDEST DUP2 SLOAD DUP2 MSTORE SWAP1 PUSH1 0x1 ADD SWAP1 PUSH1 0x20 ADD DUP1 DUP4 GT PUSH2 0x532 JUMPI DUP3 SWAP1 SUB PUSH1 0x1F AND DUP3 ADD SWAP2 JUMPDEST POP POP POP POP POP DUP2 MSTORE PUSH1 0x20 ADD PUSH1 0x2 DUP3 ADD DUP1 SLOAD PUSH2 0x568 SWAP1 PUSH2 0x3631 JUMP JUMPDEST DUP1 PUSH1 0x1F ADD PUSH1 0x20 DUP1 SWAP2 DIV MUL PUSH1 0x20 ADD PUSH1 0x40 MLOAD SWAP1 DUP2 ADD PUSH1 0x40 MSTORE DUP1 SWAP3 SWAP2 SWAP1 DUP2 DUP2 MSTORE PUSH1 0x20 ADD DUP3 DUP1 SLOAD PUSH2 0x594 SWAP1 PUSH2 0x3631 JUMP JUMPDEST DUP1 ISZERO PUSH2 0x5E1 JUMPI DUP1 PUSH1 0x1F LT PUSH2 0x5B6 JUMPI PUSH2 0x100 DUP1 DUP4 SLOAD DIV MUL DUP4 MSTORE SWAP2 PUSH1 0x20 ADD SWAP2 PUSH2 0x5E1 JUMP JUMPDEST DUP3 ADD SWAP2 SWAP1 PUSH1 0x0 MSTORE PUSH1 0x20 PUSH1 0x0 KECCAK256 SWAP1 JUMPDEST DUP2 SLOAD DUP2 MSTORE SWAP1 PUSH1 0x1 ADD SWAP1 PUSH1 0x20 ADD DUP1 DUP4 GT PUSH2 0x5C4 JUMPI DUP3 SWAP1 SUB PUSH1 0x1F AND DUP3 ADD SWAP2 JUMPDEST POP POP POP POP POP DUP2 MSTORE PUSH1 0x20 ADD PUSH1 0x3 DUP3 ADD SLOAD DUP2 MSTORE PUSH1 0x20 ADD PUSH1 0x4 DUP3 ADD SLOAD DUP2 MSTORE PUSH1 0x20 ADD PUSH1 0x5 DUP3 ADD SLOAD DUP2 MSTORE PUSH1 0x20 ADD PUSH1 0x6 DUP3 ADD SLOAD DUP2 MSTORE PUSH1 0x20 ADD PUSH1 0x7 DUP3 ADD PUSH1 0x0 SWAP1 SLOAD SWAP1 PUSH2 0x100 EXP SWAP1 DIV PUSH1 0xFF AND ISZERO ISZERO ISZERO ISZERO DUP2 MSTORE PUSH1 0x20 ADD PUSH1 0x7 DUP3 ADD PUSH1 0x1 SWAP1 SLOAD SWAP1 PUSH2 0x100 EXP SWAP1 DIV PUSH1 0xFF AND ISZERO ISZERO ISZERO ISZERO DUP2 MSTORE PUSH1 0x20 ADD PUSH1 0x7 DUP3 ADD PUSH1 0x2 SWAP1 SLOAD SWAP1 PUSH2 0x100 EXP SWAP1 DIV PUSH1 0xFF AND ISZERO ISZERO ISZERO ISZERO DUP2 MSTORE POP POP SWAP1 POP PUSH1 0x0 PUSH2 0x6BF PUSH1 0x64 PUSH2 0x6B1 PUSH1 0xA DUP6 PUSH1 0xC0 ADD MLOAD DUP7 PUSH1 0x80 ADD MLOAD DUP8 PUSH1 0xA0 ADD MLOAD DUP9 PUSH1 0x60 ADD MLOAD PUSH2 0x68F SWAP2 SWAP1 PUSH2 0x3488 JUMP JUMPDEST PUSH2 0x699 SWAP2 SWAP1 PUSH2 0x3488 JUMP JUMPDEST PUSH2 0x6A3 SWAP2 SWAP1 PUSH2 0x3488 JUMP JUMPDEST PUSH2 0x2738 SWAP1 SWAP2 SWAP1 PUSH4 0xFFFFFFFF AND JUMP JUMPDEST PUSH2 0x277D SWAP1 SWAP2 SWAP1 PUSH4 0xFFFFFFFF AND JUMP JUMPDEST SWAP1 POP PUSH1 0x1 DUP3 PUSH2 0x120 ADD SWAP1 ISZERO ISZERO SWAP1 DUP2 ISZERO ISZERO DUP2 MSTORE POP ISZERO PUSH2 0x729 JUMPI PUSH1 0x0 DUP6 SWAP1 POP DUP1 PUSH20 0xFFFFFFFFFFFFFFFFFFFFFFFFFFFFFFFFFFFFFFFF AND PUSH2 0x8FC DUP4 SWAP1 DUP2 ISZERO MUL SWAP1 PUSH1 0x40 MLOAD PUSH1 0x0 PUSH1 0x40 MLOAD DUP1 DUP4 SUB DUP2 DUP6 DUP9 DUP9 CALL SWAP4 POP POP POP POP ISZERO DUP1 ISZERO PUSH2 0x722 JUMPI RETURNDATASIZE PUSH1 0x0 DUP1 RETURNDATACOPY RETURNDATASIZE PUSH1 0x0 REVERT JUMPDEST POP POP PUSH2 0x764 JUMP JUMPDEST PUSH1 0x40 MLOAD PUSH32 0x8C379A000000000000000000000000000000000000000000000000000000000 DUP2 MSTORE PUSH1 0x4 ADD PUSH2 0x75B SWAP1 PUSH2 0x33B0 JUMP JUMPDEST PUSH1 0x40 MLOAD DUP1 SWAP2 SUB SWAP1 REVERT JUMPDEST POP POP SWAP3 SWAP2 POP POP JUMP JUMPDEST PUSH1 0x0 DUP1 PUSH1 0x0 SWAP1 SLOAD SWAP1 PUSH2 0x100 EXP SWAP1 DIV PUSH20 0xFFFFFFFFFFFFFFFFFFFFFFFFFFFFFFFFFFFFFFFF AND PUSH20 0xFFFFFFFFFFFFFFFFFFFFFFFFFFFFFFFFFFFFFFFF AND CALLER PUSH20 0xFFFFFFFFFFFFFFFFFFFFFFFFFFFFFFFFFFFFFFFF AND EQ PUSH2 0x7FD JUMPI PUSH1 0x40 MLOAD PUSH32 0x8C379A000000000000000000000000000000000000000000000000000000000 DUP2 MSTORE PUSH1 0x4 ADD PUSH2 0x7F4 SWAP1 PUSH2 0x3330 JUMP JUMPDEST PUSH1 0x40 MLOAD DUP1 SWAP2 SUB SWAP1 REVERT JUMPDEST PUSH1 0x0 PUSH2 0x809 DUP7 DUP7 PUSH2 0x27A5 JUMP JUMPDEST SWAP1 POP PUSH1 0x0 PUSH2 0x817 DUP3 DUP7 PUSH2 0x27A5 JUMP JUMPDEST SWAP1 POP PUSH1 0x0 DUP2 PUSH1 0x40 MLOAD PUSH1 0x20 ADD PUSH2 0x82C SWAP2 SWAP1 PUSH2 0x321B JUMP JUMPDEST PUSH1 0x40 MLOAD PUSH1 0x20 DUP2 DUP4 SUB SUB DUP2 MSTORE SWAP1 PUSH1 0x40 MSTORE DUP1 MLOAD SWAP1 PUSH1 0x20 ADD KECCAK256 SWAP1 POP PUSH2 0x84D DUP2 PUSH2 0x270B JUMP JUMPDEST ISZERO PUSH2 0x88D JUMPI PUSH1 0x40 MLOAD PUSH32 0x8C379A000000000000000000000000000000000000000000000000000000000 DUP2 MSTORE PUSH1 0x4 ADD PUSH2 0x884 SWAP1 PUSH2 0x3390 JUMP JUMPDEST PUSH1 0x40 MLOAD DUP1 SWAP2 SUB SWAP1 REVERT JUMPDEST PUSH1 0x1 PUSH1 0x6 PUSH1 0x0 DUP4 DUP2 MSTORE PUSH1 0x20 ADD SWAP1 DUP2 MSTORE PUSH1 0x20 ADD PUSH1 0x0 KECCAK256 PUSH1 0x7 ADD PUSH1 0x1 PUSH2 0x100 EXP DUP2 SLOAD DUP2 PUSH1 0xFF MUL NOT AND SWAP1 DUP4 ISZERO ISZERO MUL OR SWAP1 SSTORE POP DUP8 PUSH1 0x6 PUSH1 0x0 DUP4 DUP2 MSTORE PUSH1 0x20 ADD SWAP1 DUP2 MSTORE PUSH1 0x20 ADD PUSH1 0x0 KECCAK256 PUSH1 0x0 ADD SWAP1 DUP1 MLOAD SWAP1 PUSH1 0x20 ADD SWAP1 PUSH2 0x8E6 SWAP3 SWAP2 SWAP1 PUSH2 0x2C97 JUMP JUMPDEST POP DUP7 PUSH1 0x6 PUSH1 0x0 DUP4 DUP2 MSTORE PUSH1 0x20 ADD SWAP1 DUP2 MSTORE PUSH1 0x20 ADD PUSH1 0x0 KECCAK256 PUSH1 0x1 ADD SWAP1 DUP1 MLOAD SWAP1 PUSH1 0x20 ADD SWAP1 PUSH2 0x911 SWAP3 SWAP2 SWAP1 PUSH2 0x2C97 JUMP JUMPDEST POP DUP6 PUSH1 0x6 PUSH1 0x0 DUP4 DUP2 MSTORE PUSH1 0x20 ADD SWAP1 DUP2 MSTORE PUSH1 0x20 ADD PUSH1 0x0 KECCAK256 PUSH1 0x2 ADD SWAP1 DUP1 MLOAD SWAP1 PUSH1 0x20 ADD SWAP1 PUSH2 0x93C SWAP3 SWAP2 SWAP1 PUSH2 0x2C97 JUMP JUMPDEST POP PUSH1 0x0 PUSH1 0x6 PUSH1 0x0 DUP4 DUP2 MSTORE PUSH1 0x20 ADD SWAP1 DUP2 MSTORE PUSH1 0x20 ADD PUSH1 0x0 KECCAK256 PUSH1 0x3 ADD DUP2 SWAP1 SSTORE POP PUSH1 0x0 PUSH1 0x6 PUSH1 0x0 DUP4 DUP2 MSTORE PUSH1 0x20 ADD SWAP1 DUP2 MSTORE PUSH1 0x20 ADD PUSH1 0x0 KECCAK256 PUSH1 0x4 ADD DUP2 SWAP1 SSTORE POP PUSH1 0x0 PUSH1 0x6 PUSH1 0x0 DUP4 DUP2 MSTORE PUSH1 0x20 ADD SWAP1 DUP2 MSTORE PUSH1 0x20 ADD PUSH1 0x0 KECCAK256 PUSH1 0x5 ADD DUP2 SWAP1 SSTORE POP PUSH1 0x0 PUSH1 0x6 PUSH1 0x0 DUP4 DUP2 MSTORE PUSH1 0x20 ADD SWAP1 DUP2 MSTORE PUSH1 0x20 ADD PUSH1 0x0 KECCAK256 PUSH1 0x6 ADD DUP2 SWAP1 SSTORE POP DUP5 PUSH1 0x6 PUSH1 0x0 DUP4 DUP2 MSTORE PUSH1 0x20 ADD SWAP1 DUP2 MSTORE PUSH1 0x20 ADD PUSH1 0x0 KECCAK256 PUSH1 0x7 ADD PUSH1 0x0 PUSH2 0x100 EXP DUP2 SLOAD DUP2 PUSH1 0xFF MUL NOT AND SWAP1 DUP4 ISZERO ISZERO MUL OR SWAP1 SSTORE POP PUSH1 0x0 PUSH1 0x6 PUSH1 0x0 DUP4 DUP2 MSTORE PUSH1 0x20 ADD SWAP1 DUP2 MSTORE PUSH1 0x20 ADD PUSH1 0x0 KECCAK256 PUSH1 0x7 ADD PUSH1 0x2 PUSH2 0x100 EXP DUP2 SLOAD DUP2 PUSH1 0xFF MUL NOT AND SWAP1 DUP4 ISZERO ISZERO MUL OR SWAP1 SSTORE POP DUP1 SWAP4 POP POP POP POP SWAP5 SWAP4 POP POP POP POP JUMP JUMPDEST PUSH1 0x0 DUP1 PUSH1 0x0 SWAP1 SLOAD SWAP1 PUSH2 0x100 EXP SWAP1 DIV PUSH20 0xFFFFFFFFFFFFFFFFFFFFFFFFFFFFFFFFFFFFFFFF AND PUSH20 0xFFFFFFFFFFFFFFFFFFFFFFFFFFFFFFFFFFFFFFFF AND CALLER PUSH20 0xFFFFFFFFFFFFFFFFFFFFFFFFFFFFFFFFFFFFFFFF AND EQ PUSH2 0xAA9 JUMPI PUSH1 0x40 MLOAD PUSH32 0x8C379A000000000000000000000000000000000000000000000000000000000 DUP2 MSTORE PUSH1 0x4 ADD PUSH2 0xAA0 SWAP1 PUSH2 0x3330 JUMP JUMPDEST PUSH1 0x40 MLOAD DUP1 SWAP2 SUB SWAP1 REVERT JUMPDEST PUSH2 0xAB2 DUP3 PUSH2 0x270B JUMP JUMPDEST PUSH2 0xAF1 JUMPI PUSH1 0x40 MLOAD PUSH32 0x8C379A000000000000000000000000000000000000000000000000000000000 DUP2 MSTORE PUSH1 0x4 ADD PUSH2 0xAE8 SWAP1 PUSH2 0x3370 JUMP JUMPDEST PUSH1 0x40 MLOAD DUP1 SWAP2 SUB SWAP1 REVERT JUMPDEST PUSH1 0x0 PUSH1 0x6 PUSH1 0x0 DUP5 DUP2 MSTORE PUSH1 0x20 ADD SWAP1 DUP2 MSTORE PUSH1 0x20 ADD PUSH1 0x0 KECCAK256 PUSH1 0x40 MLOAD DUP1 PUSH2 0x140 ADD PUSH1 0x40 MSTORE SWAP1 DUP2 PUSH1 0x0 DUP3 ADD DUP1 SLOAD PUSH2 0xB22 SWAP1 PUSH2 0x3631 JUMP JUMPDEST DUP1 PUSH1 0x1F ADD PUSH1 0x20 DUP1 SWAP2 DIV MUL PUSH1 0x20 ADD PUSH1 0x40 MLOAD SWAP1 DUP2 ADD PUSH1 0x40 MSTORE DUP1 SWAP3 SWAP2 SWAP1 DUP2 DUP2 MSTORE PUSH1 0x20 ADD DUP3 DUP1 SLOAD PUSH2 0xB4E SWAP1 PUSH2 0x3631 JUMP JUMPDEST DUP1 ISZERO PUSH2 0xB9B JUMPI DUP1 PUSH1 0x1F LT PUSH2 0xB70 JUMPI PUSH2 0x100 DUP1 DUP4 SLOAD DIV MUL DUP4 MSTORE SWAP2 PUSH1 0x20 ADD SWAP2 PUSH2 0xB9B JUMP JUMPDEST DUP3 ADD SWAP2 SWAP1 PUSH1 0x0 MSTORE PUSH1 0x20 PUSH1 0x0 KECCAK256 SWAP1 JUMPDEST DUP2 SLOAD DUP2 MSTORE SWAP1 PUSH1 0x1 ADD SWAP1 PUSH1 0x20 ADD DUP1 DUP4 GT PUSH2 0xB7E JUMPI DUP3 SWAP1 SUB PUSH1 0x1F AND DUP3 ADD SWAP2 JUMPDEST POP POP POP POP POP DUP2 MSTORE PUSH1 0x20 ADD PUSH1 0x1 DUP3 ADD DUP1 SLOAD PUSH2 0xBB4 SWAP1 PUSH2 0x3631 JUMP JUMPDEST DUP1 PUSH1 0x1F ADD PUSH1 0x20 DUP1 SWAP2 DIV MUL PUSH1 0x20 ADD PUSH1 0x40 MLOAD SWAP1 DUP2 ADD PUSH1 0x40 MSTORE DUP1 SWAP3 SWAP2 SWAP1 DUP2 DUP2 MSTORE PUSH1 0x20 ADD DUP3 DUP1 SLOAD PUSH2 0xBE0 SWAP1 PUSH2 0x3631 JUMP JUMPDEST DUP1 ISZERO PUSH2 0xC2D JUMPI DUP1 PUSH1 0x1F LT PUSH2 0xC02 JUMPI PUSH2 0x100 DUP1 DUP4 SLOAD DIV MUL DUP4 MSTORE SWAP2 PUSH1 0x20 ADD SWAP2 PUSH2 0xC2D JUMP JUMPDEST DUP3 ADD SWAP2 SWAP1 PUSH1 0x0 MSTORE PUSH1 0x20 PUSH1 0x0 KECCAK256 SWAP1 JUMPDEST DUP2 SLOAD DUP2 MSTORE SWAP1 PUSH1 0x1 ADD SWAP1 PUSH1 0x20 ADD DUP1 DUP4 GT PUSH2 0xC10 JUMPI DUP3 SWAP1 SUB PUSH1 0x1F AND DUP3 ADD SWAP2 JUMPDEST POP POP POP POP POP DUP2 MSTORE PUSH1 0x20 ADD PUSH1 0x2 DUP3 ADD DUP1 SLOAD PUSH2 0xC46 SWAP1 PUSH2 0x3631 JUMP JUMPDEST DUP1 PUSH1 0x1F ADD PUSH1 0x20 DUP1 SWAP2 DIV MUL PUSH1 0x20 ADD PUSH1 0x40 MLOAD SWAP1 DUP2 ADD PUSH1 0x40 MSTORE DUP1 SWAP3 SWAP2 SWAP1 DUP2 DUP2 MSTORE PUSH1 0x20 ADD DUP3 DUP1 SLOAD PUSH2 0xC72 SWAP1 PUSH2 0x3631 JUMP JUMPDEST DUP1 ISZERO PUSH2 0xCBF JUMPI DUP1 PUSH1 0x1F LT PUSH2 0xC94 JUMPI PUSH2 0x100 DUP1 DUP4 SLOAD DIV MUL DUP4 MSTORE SWAP2 PUSH1 0x20 ADD SWAP2 PUSH2 0xCBF JUMP JUMPDEST DUP3 ADD SWAP2 SWAP1 PUSH1 0x0 MSTORE PUSH1 0x20 PUSH1 0x0 KECCAK256 SWAP1 JUMPDEST DUP2 SLOAD DUP2 MSTORE SWAP1 PUSH1 0x1 ADD SWAP1 PUSH1 0x20 ADD DUP1 DUP4 GT PUSH2 0xCA2 JUMPI DUP3 SWAP1 SUB PUSH1 0x1F AND DUP3 ADD SWAP2 JUMPDEST POP POP POP POP POP DUP2 MSTORE PUSH1 0x20 ADD PUSH1 0x3 DUP3 ADD SLOAD DUP2 MSTORE PUSH1 0x20 ADD PUSH1 0x4 DUP3 ADD SLOAD DUP2 MSTORE PUSH1 0x20 ADD PUSH1 0x5 DUP3 ADD SLOAD DUP2 MSTORE PUSH1 0x20 ADD PUSH1 0x6 DUP3 ADD SLOAD DUP2 MSTORE PUSH1 0x20 ADD PUSH1 0x7 DUP3 ADD PUSH1 0x0 SWAP1 SLOAD SWAP1 PUSH2 0x100 EXP SWAP1 DIV PUSH1 0xFF AND ISZERO ISZERO ISZERO ISZERO DUP2 MSTORE PUSH1 0x20 ADD PUSH1 0x7 DUP3 ADD PUSH1 0x1 SWAP1 SLOAD SWAP1 PUSH2 0x100 EXP SWAP1 DIV PUSH1 0xFF AND ISZERO ISZERO ISZERO ISZERO DUP2 MSTORE PUSH1 0x20 ADD PUSH1 0x7 DUP3 ADD PUSH1 0x2 SWAP1 SLOAD SWAP1 PUSH2 0x100 EXP SWAP1 DIV PUSH1 0xFF AND ISZERO ISZERO ISZERO ISZERO DUP2 MSTORE POP POP SWAP1 POP PUSH1 0x0 PUSH2 0xD9D PUSH1 0x64 PUSH2 0xD8F PUSH1 0xA DUP6 PUSH1 0xC0 ADD MLOAD DUP7 PUSH1 0x80 ADD MLOAD DUP8 PUSH1 0xA0 ADD MLOAD DUP9 PUSH1 0x60 ADD MLOAD PUSH2 0xD6D SWAP2 SWAP1 PUSH2 0x3488 JUMP JUMPDEST PUSH2 0xD77 SWAP2 SWAP1 PUSH2 0x3488 JUMP JUMPDEST PUSH2 0xD81 SWAP2 SWAP1 PUSH2 0x3488 JUMP JUMPDEST PUSH2 0x2738 SWAP1 SWAP2 SWAP1 PUSH4 0xFFFFFFFF AND JUMP JUMPDEST PUSH2 0x277D SWAP1 SWAP2 SWAP1 PUSH4 0xFFFFFFFF AND JUMP JUMPDEST SWAP1 POP DUP1 SWAP3 POP POP POP SWAP2 SWAP1 POP JUMP JUMPDEST PUSH1 0x0 DUP1 PUSH1 0x0 SWAP1 SLOAD SWAP1 PUSH2 0x100 EXP SWAP1 DIV PUSH20 0xFFFFFFFFFFFFFFFFFFFFFFFFFFFFFFFFFFFFFFFF AND PUSH20 0xFFFFFFFFFFFFFFFFFFFFFFFFFFFFFFFFFFFFFFFF AND CALLER PUSH20 0xFFFFFFFFFFFFFFFFFFFFFFFFFFFFFFFFFFFFFFFF AND EQ PUSH2 0xE3A JUMPI PUSH1 0x40 MLOAD PUSH32 0x8C379A000000000000000000000000000000000000000000000000000000000 DUP2 MSTORE PUSH1 0x4 ADD PUSH2 0xE31 SWAP1 PUSH2 0x3330 JUMP JUMPDEST PUSH1 0x40 MLOAD DUP1 SWAP2 SUB SWAP1 REVERT JUMPDEST PUSH2 0xE43 DUP6 PUSH2 0x270B JUMP JUMPDEST PUSH2 0xE82 JUMPI PUSH1 0x40 MLOAD PUSH32 0x8C379A000000000000000000000000000000000000000000000000000000000 DUP2 MSTORE PUSH1 0x4 ADD PUSH2 0xE79 SWAP1 PUSH2 0x3370 JUMP JUMPDEST PUSH1 0x40 MLOAD DUP1 SWAP2 SUB SWAP1 REVERT JUMPDEST DUP6 PUSH1 0x5 PUSH1 0x0 DUP10 PUSH20 0xFFFFFFFFFFFFFFFFFFFFFFFFFFFFFFFFFFFFFFFF AND PUSH20 0xFFFFFFFFFFFFFFFFFFFFFFFFFFFFFFFFFFFFFFFF AND DUP2 MSTORE PUSH1 0x20 ADD SWAP1 DUP2 MSTORE PUSH1 0x20 ADD PUSH1 0x0 KECCAK256 SLOAD LT ISZERO PUSH2 0xF04 JUMPI PUSH1 0x40 MLOAD PUSH32 0x8C379A000000000000000000000000000000000000000000000000000000000 DUP2 MSTORE PUSH1 0x4 ADD PUSH2 0xEFB SWAP1 PUSH2 0x33D0 JUMP JUMPDEST PUSH1 0x40 MLOAD DUP1 SWAP2 SUB SWAP1 REVERT JUMPDEST PUSH1 0x0 PUSH1 0x6 PUSH1 0x0 DUP8 DUP2 MSTORE PUSH1 0x20 ADD SWAP1 DUP2 MSTORE PUSH1 0x20 ADD PUSH1 0x0 KECCAK256 PUSH1 0x40 MLOAD DUP1 PUSH2 0x140 ADD PUSH1 0x40 MSTORE SWAP1 DUP2 PUSH1 0x0 DUP3 ADD DUP1 SLOAD PUSH2 0xF35 SWAP1 PUSH2 0x3631 JUMP JUMPDEST DUP1 PUSH1 0x1F ADD PUSH1 0x20 DUP1 SWAP2 DIV MUL PUSH1 0x20 ADD PUSH1 0x40 MLOAD SWAP1 DUP2 ADD PUSH1 0x40 MSTORE DUP1 SWAP3 SWAP2 SWAP1 DUP2 DUP2 MSTORE PUSH1 0x20 ADD DUP3 DUP1 SLOAD PUSH2 0xF61 SWAP1 PUSH2 0x3631 JUMP JUMPDEST DUP1 ISZERO PUSH2 0xFAE JUMPI DUP1 PUSH1 0x1F LT PUSH2 0xF83 JUMPI PUSH2 0x100 DUP1 DUP4 SLOAD DIV MUL DUP4 MSTORE SWAP2 PUSH1 0x20 ADD SWAP2 PUSH2 0xFAE JUMP JUMPDEST DUP3 ADD SWAP2 SWAP1 PUSH1 0x0 MSTORE PUSH1 0x20 PUSH1 0x0 KECCAK256 SWAP1 JUMPDEST DUP2 SLOAD DUP2 MSTORE SWAP1 PUSH1 0x1 ADD SWAP1 PUSH1 0x20 ADD DUP1 DUP4 GT PUSH2 0xF91 JUMPI DUP3 SWAP1 SUB PUSH1 0x1F AND DUP3 ADD SWAP2 JUMPDEST POP POP POP POP POP DUP2 MSTORE PUSH1 0x20 ADD PUSH1 0x1 DUP3 ADD DUP1 SLOAD PUSH2 0xFC7 SWAP1 PUSH2 0x3631 JUMP JUMPDEST DUP1 PUSH1 0x1F ADD PUSH1 0x20 DUP1 SWAP2 DIV MUL PUSH1 0x20 ADD PUSH1 0x40 MLOAD SWAP1 DUP2 ADD PUSH1 0x40 MSTORE DUP1 SWAP3 SWAP2 SWAP1 DUP2 DUP2 MSTORE PUSH1 0x20 ADD DUP3 DUP1 SLOAD PUSH2 0xFF3 SWAP1 PUSH2 0x3631 JUMP JUMPDEST DUP1 ISZERO PUSH2 0x1040 JUMPI DUP1 PUSH1 0x1F LT PUSH2 0x1015 JUMPI PUSH2 0x100 DUP1 DUP4 SLOAD DIV MUL DUP4 MSTORE SWAP2 PUSH1 0x20 ADD SWAP2 PUSH2 0x1040 JUMP JUMPDEST DUP3 ADD SWAP2 SWAP1 PUSH1 0x0 MSTORE PUSH1 0x20 PUSH1 0x0 KECCAK256 SWAP1 JUMPDEST DUP2 SLOAD DUP2 MSTORE SWAP1 PUSH1 0x1 ADD SWAP1 PUSH1 0x20 ADD DUP1 DUP4 GT PUSH2 0x1023 JUMPI DUP3 SWAP1 SUB PUSH1 0x1F AND DUP3 ADD SWAP2 JUMPDEST POP POP POP POP POP DUP2 MSTORE PUSH1 0x20 ADD PUSH1 0x2 DUP3 ADD DUP1 SLOAD PUSH2 0x1059 SWAP1 PUSH2 0x3631 JUMP JUMPDEST DUP1 PUSH1 0x1F ADD PUSH1 0x20 DUP1 SWAP2 DIV MUL PUSH1 0x20 ADD PUSH1 0x40 MLOAD SWAP1 DUP2 ADD PUSH1 0x40 MSTORE DUP1 SWAP3 SWAP2 SWAP1 DUP2 DUP2 MSTORE PUSH1 0x20 ADD DUP3 DUP1 SLOAD PUSH2 0x1085 SWAP1 PUSH2 0x3631 JUMP JUMPDEST DUP1 ISZERO PUSH2 0x10D2 JUMPI DUP1 PUSH1 0x1F LT PUSH2 0x10A7 JUMPI PUSH2 0x100 DUP1 DUP4 SLOAD DIV MUL DUP4 MSTORE SWAP2 PUSH1 0x20 ADD SWAP2 PUSH2 0x10D2 JUMP JUMPDEST DUP3 ADD SWAP2 SWAP1 PUSH1 0x0 MSTORE PUSH1 0x20 PUSH1 0x0 KECCAK256 SWAP1 JUMPDEST DUP2 SLOAD DUP2 MSTORE SWAP1 PUSH1 0x1 ADD SWAP1 PUSH1 0x20 ADD DUP1 DUP4 GT PUSH2 0x10B5 JUMPI DUP3 SWAP1 SUB PUSH1 0x1F AND DUP3 ADD SWAP2 JUMPDEST POP POP POP POP POP DUP2 MSTORE PUSH1 0x20 ADD PUSH1 0x3 DUP3 ADD SLOAD DUP2 MSTORE PUSH1 0x20 ADD PUSH1 0x4 DUP3 ADD SLOAD DUP2 MSTORE PUSH1 0x20 ADD PUSH1 0x5 DUP3 ADD SLOAD DUP2 MSTORE PUSH1 0x20 ADD PUSH1 0x6 DUP3 ADD SLOAD DUP2 MSTORE PUSH1 0x20 ADD PUSH1 0x7 DUP3 ADD PUSH1 0x0 SWAP1 SLOAD SWAP1 PUSH2 0x100 EXP SWAP1 DIV PUSH1 0xFF AND ISZERO ISZERO ISZERO ISZERO DUP2 MSTORE PUSH1 0x20 ADD PUSH1 0x7 DUP3 ADD PUSH1 0x1 SWAP1 SLOAD SWAP1 PUSH2 0x100 EXP SWAP1 DIV PUSH1 0xFF AND ISZERO ISZERO ISZERO ISZERO DUP2 MSTORE PUSH1 0x20 ADD PUSH1 0x7 DUP3 ADD PUSH1 0x2 SWAP1 SLOAD SWAP1 PUSH2 0x100 EXP SWAP1 DIV PUSH1 0xFF AND ISZERO ISZERO ISZERO ISZERO DUP2 MSTORE POP POP SWAP1 POP PUSH1 0x0 PUSH2 0x1172 PUSH2 0x1164 DUP8 PUSH2 0x293B JUMP JUMPDEST PUSH2 0x116D DUP8 PUSH2 0x293B JUMP JUMPDEST PUSH2 0x27A5 JUMP JUMPDEST SWAP1 POP PUSH1 0x0 PUSH2 0x1188 PUSH2 0x1182 DUP10 PUSH2 0x296C JUMP JUMPDEST DUP4 PUSH2 0x27A5 JUMP JUMPDEST SWAP1 POP PUSH1 0x0 PUSH1 0x40 MLOAD DUP1 PUSH1 0xE0 ADD PUSH1 0x40 MSTORE DUP1 DUP12 DUP2 MSTORE PUSH1 0x20 ADD DUP8 DUP2 MSTORE PUSH1 0x20 ADD DUP10 DUP2 MSTORE PUSH1 0x20 ADD DUP9 DUP2 MSTORE PUSH1 0x20 ADD DUP13 PUSH20 0xFFFFFFFFFFFFFFFFFFFFFFFFFFFFFFFFFFFFFFFF AND DUP2 MSTORE PUSH1 0x20 ADD DUP4 DUP2 MSTORE PUSH1 0x20 ADD PUSH1 0x0 ISZERO ISZERO DUP2 MSTORE POP SWAP1 POP DUP9 PUSH1 0x2 PUSH1 0x0 DUP12 DUP2 MSTORE PUSH1 0x20 ADD SWAP1 DUP2 MSTORE PUSH1 0x20 ADD PUSH1 0x0 KECCAK256 PUSH1 0x1 ADD DUP2 SWAP1 SSTORE POP PUSH1 0x2 PUSH1 0x0 DUP11 DUP2 MSTORE PUSH1 0x20 ADD SWAP1 DUP2 MSTORE PUSH1 0x20 ADD PUSH1 0x0 KECCAK256 PUSH1 0x0 ADD DUP2 SWAP1 DUP1 PUSH1 0x1 DUP2 SLOAD ADD DUP1 DUP3 SSTORE DUP1 SWAP2 POP POP PUSH1 0x1 SWAP1 SUB SWAP1 PUSH1 0x0 MSTORE PUSH1 0x20 PUSH1 0x0 KECCAK256 SWAP1 PUSH1 0x7 MUL ADD PUSH1 0x0 SWAP1 SWAP2 SWAP1 SWAP2 SWAP1 SWAP2 POP PUSH1 0x0 DUP3 ADD MLOAD DUP2 PUSH1 0x0 ADD SSTORE PUSH1 0x20 DUP3 ADD MLOAD DUP2 PUSH1 0x1 ADD SSTORE PUSH1 0x40 DUP3 ADD MLOAD DUP2 PUSH1 0x2 ADD SSTORE PUSH1 0x60 DUP3 ADD MLOAD DUP2 PUSH1 0x3 ADD SSTORE PUSH1 0x80 DUP3 ADD MLOAD DUP2 PUSH1 0x4 ADD PUSH1 0x0 PUSH2 0x100 EXP DUP2 SLOAD DUP2 PUSH20 0xFFFFFFFFFFFFFFFFFFFFFFFFFFFFFFFFFFFFFFFF MUL NOT AND SWAP1 DUP4 PUSH20 0xFFFFFFFFFFFFFFFFFFFFFFFFFFFFFFFFFFFFFFFF AND MUL OR SWAP1 SSTORE POP PUSH1 0xA0 DUP3 ADD MLOAD DUP2 PUSH1 0x5 ADD SWAP1 DUP1 MLOAD SWAP1 PUSH1 0x20 ADD SWAP1 PUSH2 0x12C0 SWAP3 SWAP2 SWAP1 PUSH2 0x2C97 JUMP JUMPDEST POP PUSH1 0xC0 DUP3 ADD MLOAD DUP2 PUSH1 0x6 ADD PUSH1 0x0 PUSH2 0x100 EXP DUP2 SLOAD DUP2 PUSH1 0xFF MUL NOT AND SWAP1 DUP4 ISZERO ISZERO MUL OR SWAP1 SSTORE POP POP POP DUP11 PUSH1 0x4 PUSH1 0x0 DUP14 PUSH20 0xFFFFFFFFFFFFFFFFFFFFFFFFFFFFFFFFFFFFFFFF AND PUSH20 0xFFFFFFFFFFFFFFFFFFFFFFFFFFFFFFFFFFFFFFFF AND DUP2 MSTORE PUSH1 0x20 ADD SWAP1 DUP2 MSTORE PUSH1 0x20 ADD PUSH1 0x0 KECCAK256 PUSH1 0x1 ADD PUSH1 0x0 PUSH2 0x100 EXP DUP2 SLOAD DUP2 PUSH20 0xFFFFFFFFFFFFFFFFFFFFFFFFFFFFFFFFFFFFFFFF MUL NOT AND SWAP1 DUP4 PUSH20 0xFFFFFFFFFFFFFFFFFFFFFFFFFFFFFFFFFFFFFFFF AND MUL OR SWAP1 SSTORE POP PUSH1 0x2 PUSH1 0x0 DUP11 DUP2 MSTORE PUSH1 0x20 ADD SWAP1 DUP2 MSTORE PUSH1 0x20 ADD PUSH1 0x0 KECCAK256 PUSH1 0x0 ADD DUP2 SWAP1 DUP1 PUSH1 0x1 DUP2 SLOAD ADD DUP1 DUP3 SSTORE DUP1 SWAP2 POP POP PUSH1 0x1 SWAP1 SUB SWAP1 PUSH1 0x0 MSTORE PUSH1 0x20 PUSH1 0x0 KECCAK256 SWAP1 PUSH1 0x7 MUL ADD PUSH1 0x0 SWAP1 SWAP2 SWAP1 SWAP2 SWAP1 SWAP2 POP PUSH1 0x0 DUP3 ADD MLOAD DUP2 PUSH1 0x0 ADD SSTORE PUSH1 0x20 DUP3 ADD MLOAD DUP2 PUSH1 0x1 ADD SSTORE PUSH1 0x40 DUP3 ADD MLOAD DUP2 PUSH1 0x2 ADD SSTORE PUSH1 0x60 DUP3 ADD MLOAD DUP2 PUSH1 0x3 ADD SSTORE PUSH1 0x80 DUP3 ADD MLOAD DUP2 PUSH1 0x4 ADD PUSH1 0x0 PUSH2 0x100 EXP DUP2 SLOAD DUP2 PUSH20 0xFFFFFFFFFFFFFFFFFFFFFFFFFFFFFFFFFFFFFFFF MUL NOT AND SWAP1 DUP4 PUSH20 0xFFFFFFFFFFFFFFFFFFFFFFFFFFFFFFFFFFFFFFFF AND MUL OR SWAP1 SSTORE POP PUSH1 0xA0 DUP3 ADD MLOAD DUP2 PUSH1 0x5 ADD SWAP1 DUP1 MLOAD SWAP1 PUSH1 0x20 ADD SWAP1 PUSH2 0x142F SWAP3 SWAP2 SWAP1 PUSH2 0x2C97 JUMP JUMPDEST POP PUSH1 0xC0 DUP3 ADD MLOAD DUP2 PUSH1 0x6 ADD PUSH1 0x0 PUSH2 0x100 EXP DUP2 SLOAD DUP2 PUSH1 0xFF MUL NOT AND SWAP1 DUP4 ISZERO ISZERO MUL OR SWAP1 SSTORE POP POP POP PUSH1 0x2 DUP7 EQ ISZERO PUSH2 0x14AE JUMPI DUP10 DUP5 PUSH1 0xC0 ADD DUP2 DUP2 MLOAD PUSH2 0x146D SWAP2 SWAP1 PUSH2 0x3488 JUMP JUMPDEST SWAP2 POP DUP2 DUP2 MSTORE POP POP DUP10 PUSH1 0x3 DUP4 PUSH1 0x40 MLOAD PUSH2 0x1485 SWAP2 SWAP1 PUSH2 0x321B JUMP JUMPDEST SWAP1 DUP2 MSTORE PUSH1 0x20 ADD PUSH1 0x40 MLOAD DUP1 SWAP2 SUB SWAP1 KECCAK256 PUSH1 0x0 DUP3 DUP3 SLOAD PUSH2 0x14A2 SWAP2 SWAP1 PUSH2 0x3488 JUMP JUMPDEST SWAP3 POP POP DUP2 SWAP1 SSTORE POP PUSH2 0x1518 JUMP JUMPDEST PUSH1 0x3 DUP7 EQ ISZERO PUSH2 0x14D5 JUMPI DUP10 DUP5 PUSH1 0x60 ADD DUP2 DUP2 MLOAD PUSH2 0x14C9 SWAP2 SWAP1 PUSH2 0x3488 JUMP JUMPDEST SWAP2 POP DUP2 DUP2 MSTORE POP POP PUSH2 0x1517 JUMP JUMPDEST PUSH1 0x1 DUP7 EQ ISZERO PUSH2 0x14FC JUMPI DUP10 DUP5 PUSH1 0x80 ADD DUP2 DUP2 MLOAD PUSH2 0x14F0 SWAP2 SWAP1 PUSH2 0x3488 JUMP JUMPDEST SWAP2 POP DUP2 DUP2 MSTORE POP POP PUSH2 0x1516 JUMP JUMPDEST DUP10 DUP5 PUSH1 0xA0 ADD DUP2 DUP2 MLOAD PUSH2 0x150E SWAP2 SWAP1 PUSH2 0x3488 JUMP JUMPDEST SWAP2 POP DUP2 DUP2 MSTORE POP POP JUMPDEST JUMPDEST JUMPDEST DUP10 PUSH1 0x5 PUSH1 0x0 DUP14 PUSH20 0xFFFFFFFFFFFFFFFFFFFFFFFFFFFFFFFFFFFFFFFF AND PUSH20 0xFFFFFFFFFFFFFFFFFFFFFFFFFFFFFFFFFFFFFFFF AND DUP2 MSTORE PUSH1 0x20 ADD SWAP1 DUP2 MSTORE PUSH1 0x20 ADD PUSH1 0x0 KECCAK256 PUSH1 0x0 DUP3 DUP3 SLOAD PUSH2 0x1567 SWAP2 SWAP1 PUSH2 0x3569 JUMP JUMPDEST SWAP3 POP POP DUP2 SWAP1 SSTORE POP POP POP POP POP PUSH1 0x1 SWAP1 POP SWAP7 SWAP6 POP POP POP POP POP POP JUMP JUMPDEST PUSH1 0x0 DUP1 PUSH1 0x0 SWAP1 SLOAD SWAP1 PUSH2 0x100 EXP SWAP1 DIV PUSH20 0xFFFFFFFFFFFFFFFFFFFFFFFFFFFFFFFFFFFFFFFF AND PUSH20 0xFFFFFFFFFFFFFFFFFFFFFFFFFFFFFFFFFFFFFFFF AND CALLER PUSH20 0xFFFFFFFFFFFFFFFFFFFFFFFFFFFFFFFFFFFFFFFF AND EQ PUSH2 0x1611 JUMPI PUSH1 0x40 MLOAD PUSH32 0x8C379A000000000000000000000000000000000000000000000000000000000 DUP2 MSTORE PUSH1 0x4 ADD PUSH2 0x1608 SWAP1 PUSH2 0x3330 JUMP JUMPDEST PUSH1 0x40 MLOAD DUP1 SWAP2 SUB SWAP1 REVERT JUMPDEST PUSH2 0x161A DUP3 PUSH2 0x270B JUMP JUMPDEST PUSH2 0x1659 JUMPI PUSH1 0x40 MLOAD PUSH32 0x8C379A000000000000000000000000000000000000000000000000000000000 DUP2 MSTORE PUSH1 0x4 ADD PUSH2 0x1650 SWAP1 PUSH2 0x3370 JUMP JUMPDEST PUSH1 0x40 MLOAD DUP1 SWAP2 SUB SWAP1 REVERT JUMPDEST PUSH1 0x0 PUSH1 0x6 PUSH1 0x0 DUP5 DUP2 MSTORE PUSH1 0x20 ADD SWAP1 DUP2 MSTORE PUSH1 0x20 ADD PUSH1 0x0 KECCAK256 PUSH1 0x40 MLOAD DUP1 PUSH2 0x140 ADD PUSH1 0x40 MSTORE SWAP1 DUP2 PUSH1 0x0 DUP3 ADD DUP1 SLOAD PUSH2 0x168A SWAP1 PUSH2 0x3631 JUMP JUMPDEST DUP1 PUSH1 0x1F ADD PUSH1 0x20 DUP1 SWAP2 DIV MUL PUSH1 0x20 ADD PUSH1 0x40 MLOAD SWAP1 DUP2 ADD PUSH1 0x40 MSTORE DUP1 SWAP3 SWAP2 SWAP1 DUP2 DUP2 MSTORE PUSH1 0x20 ADD DUP3 DUP1 SLOAD PUSH2 0x16B6 SWAP1 PUSH2 0x3631 JUMP JUMPDEST DUP1 ISZERO PUSH2 0x1703 JUMPI DUP1 PUSH1 0x1F LT PUSH2 0x16D8 JUMPI PUSH2 0x100 DUP1 DUP4 SLOAD DIV MUL DUP4 MSTORE SWAP2 PUSH1 0x20 ADD SWAP2 PUSH2 0x1703 JUMP JUMPDEST DUP3 ADD SWAP2 SWAP1 PUSH1 0x0 MSTORE PUSH1 0x20 PUSH1 0x0 KECCAK256 SWAP1 JUMPDEST DUP2 SLOAD DUP2 MSTORE SWAP1 PUSH1 0x1 ADD SWAP1 PUSH1 0x20 ADD DUP1 DUP4 GT PUSH2 0x16E6 JUMPI DUP3 SWAP1 SUB PUSH1 0x1F AND DUP3 ADD SWAP2 JUMPDEST POP POP POP POP POP DUP2 MSTORE PUSH1 0x20 ADD PUSH1 0x1 DUP3 ADD DUP1 SLOAD PUSH2 0x171C SWAP1 PUSH2 0x3631 JUMP JUMPDEST DUP1 PUSH1 0x1F ADD PUSH1 0x20 DUP1 SWAP2 DIV MUL PUSH1 0x20 ADD PUSH1 0x40 MLOAD SWAP1 DUP2 ADD PUSH1 0x40 MSTORE DUP1 SWAP3 SWAP2 SWAP1 DUP2 DUP2 MSTORE PUSH1 0x20 ADD DUP3 DUP1 SLOAD PUSH2 0x1748 SWAP1 PUSH2 0x3631 JUMP JUMPDEST DUP1 ISZERO PUSH2 0x1795 JUMPI DUP1 PUSH1 0x1F LT PUSH2 0x176A JUMPI PUSH2 0x100 DUP1 DUP4 SLOAD DIV MUL DUP4 MSTORE SWAP2 PUSH1 0x20 ADD SWAP2 PUSH2 0x1795 JUMP JUMPDEST DUP3 ADD SWAP2 SWAP1 PUSH1 0x0 MSTORE PUSH1 0x20 PUSH1 0x0 KECCAK256 SWAP1 JUMPDEST DUP2 SLOAD DUP2 MSTORE SWAP1 PUSH1 0x1 ADD SWAP1 PUSH1 0x20 ADD DUP1 DUP4 GT PUSH2 0x1778 JUMPI DUP3 SWAP1 SUB PUSH1 0x1F AND DUP3 ADD SWAP2 JUMPDEST POP POP POP POP POP DUP2 MSTORE PUSH1 0x20 ADD PUSH1 0x2 DUP3 ADD DUP1 SLOAD PUSH2 0x17AE SWAP1 PUSH2 0x3631 JUMP JUMPDEST DUP1 PUSH1 0x1F ADD PUSH1 0x20 DUP1 SWAP2 DIV MUL PUSH1 0x20 ADD PUSH1 0x40 MLOAD SWAP1 DUP2 ADD PUSH1 0x40 MSTORE DUP1 SWAP3 SWAP2 SWAP1 DUP2 DUP2 MSTORE PUSH1 0x20 ADD DUP3 DUP1 SLOAD PUSH2 0x17DA SWAP1 PUSH2 0x3631 JUMP JUMPDEST DUP1 ISZERO PUSH2 0x1827 JUMPI DUP1 PUSH1 0x1F LT PUSH2 0x17FC JUMPI PUSH2 0x100 DUP1 DUP4 SLOAD DIV MUL DUP4 MSTORE SWAP2 PUSH1 0x20 ADD SWAP2 PUSH2 0x1827 JUMP JUMPDEST DUP3 ADD SWAP2 SWAP1 PUSH1 0x0 MSTORE PUSH1 0x20 PUSH1 0x0 KECCAK256 SWAP1 JUMPDEST DUP2 SLOAD DUP2 MSTORE SWAP1 PUSH1 0x1 ADD SWAP1 PUSH1 0x20 ADD DUP1 DUP4 GT PUSH2 0x180A JUMPI DUP3 SWAP1 SUB PUSH1 0x1F AND DUP3 ADD SWAP2 JUMPDEST POP POP POP POP POP DUP2 MSTORE PUSH1 0x20 ADD PUSH1 0x3 DUP3 ADD SLOAD DUP2 MSTORE PUSH1 0x20 ADD PUSH1 0x4 DUP3 ADD SLOAD DUP2 MSTORE PUSH1 0x20 ADD PUSH1 0x5 DUP3 ADD SLOAD DUP2 MSTORE PUSH1 0x20 ADD PUSH1 0x6 DUP3 ADD SLOAD DUP2 MSTORE PUSH1 0x20 ADD PUSH1 0x7 DUP3 ADD PUSH1 0x0 SWAP1 SLOAD SWAP1 PUSH2 0x100 EXP SWAP1 DIV PUSH1 0xFF AND ISZERO ISZERO ISZERO ISZERO DUP2 MSTORE PUSH1 0x20 ADD PUSH1 0x7 DUP3 ADD PUSH1 0x1 SWAP1 SLOAD SWAP1 PUSH2 0x100 EXP SWAP1 DIV PUSH1 0xFF AND ISZERO ISZERO ISZERO ISZERO DUP2 MSTORE PUSH1 0x20 ADD PUSH1 0x7 DUP3 ADD PUSH1 0x2 SWAP1 SLOAD SWAP1 PUSH2 0x100 EXP SWAP1 DIV PUSH1 0xFF AND ISZERO ISZERO ISZERO ISZERO DUP2 MSTORE POP POP SWAP1 POP PUSH1 0x0 PUSH2 0x1905 PUSH1 0x64 PUSH2 0x18F7 PUSH1 0xA DUP6 PUSH1 0xC0 ADD MLOAD DUP7 PUSH1 0x80 ADD MLOAD DUP8 PUSH1 0xA0 ADD MLOAD DUP9 PUSH1 0x60 ADD MLOAD PUSH2 0x18D5 SWAP2 SWAP1 PUSH2 0x3488 JUMP JUMPDEST PUSH2 0x18DF SWAP2 SWAP1 PUSH2 0x3488 JUMP JUMPDEST PUSH2 0x18E9 SWAP2 SWAP1 PUSH2 0x3488 JUMP JUMPDEST PUSH2 0x2738 SWAP1 SWAP2 SWAP1 PUSH4 0xFFFFFFFF AND JUMP JUMPDEST PUSH2 0x277D SWAP1 SWAP2 SWAP1 PUSH4 0xFFFFFFFF AND JUMP JUMPDEST SWAP1 POP PUSH1 0x1 SWAP3 POP POP POP SWAP2 SWAP1 POP JUMP JUMPDEST PUSH1 0x0 DUP1 PUSH1 0x0 SWAP1 SLOAD SWAP1 PUSH2 0x100 EXP SWAP1 DIV PUSH20 0xFFFFFFFFFFFFFFFFFFFFFFFFFFFFFFFFFFFFFFFF AND PUSH20 0xFFFFFFFFFFFFFFFFFFFFFFFFFFFFFFFFFFFFFFFF AND CALLER PUSH20 0xFFFFFFFFFFFFFFFFFFFFFFFFFFFFFFFFFFFFFFFF AND EQ PUSH2 0x19A3 JUMPI PUSH1 0x40 MLOAD PUSH32 0x8C379A000000000000000000000000000000000000000000000000000000000 DUP2 MSTORE PUSH1 0x4 ADD PUSH2 0x199A SWAP1 PUSH2 0x3330 JUMP JUMPDEST PUSH1 0x40 MLOAD DUP1 SWAP2 SUB SWAP1 REVERT JUMPDEST PUSH2 0x19AC DUP6 PUSH2 0x270B JUMP JUMPDEST PUSH2 0x19EB JUMPI PUSH1 0x40 MLOAD PUSH32 0x8C379A000000000000000000000000000000000000000000000000000000000 DUP2 MSTORE PUSH1 0x4 ADD PUSH2 0x19E2 SWAP1 PUSH2 0x3370 JUMP JUMPDEST PUSH1 0x40 MLOAD DUP1 SWAP2 SUB SWAP1 REVERT JUMPDEST PUSH1 0x0 PUSH1 0x6 PUSH1 0x0 DUP8 DUP2 MSTORE PUSH1 0x20 ADD SWAP1 DUP2 MSTORE PUSH1 0x20 ADD PUSH1 0x0 KECCAK256 PUSH1 0x40 MLOAD DUP1 PUSH2 0x140 ADD PUSH1 0x40 MSTORE SWAP1 DUP2 PUSH1 0x0 DUP3 ADD DUP1 SLOAD PUSH2 0x1A1C SWAP1 PUSH2 0x3631 JUMP JUMPDEST DUP1 PUSH1 0x1F ADD PUSH1 0x20 DUP1 SWAP2 DIV MUL PUSH1 0x20 ADD PUSH1 0x40 MLOAD SWAP1 DUP2 ADD PUSH1 0x40 MSTORE DUP1 SWAP3 SWAP2 SWAP1 DUP2 DUP2 MSTORE PUSH1 0x20 ADD DUP3 DUP1 SLOAD PUSH2 0x1A48 SWAP1 PUSH2 0x3631 JUMP JUMPDEST DUP1 ISZERO PUSH2 0x1A95 JUMPI DUP1 PUSH1 0x1F LT PUSH2 0x1A6A JUMPI PUSH2 0x100 DUP1 DUP4 SLOAD DIV MUL DUP4 MSTORE SWAP2 PUSH1 0x20 ADD SWAP2 PUSH2 0x1A95 JUMP JUMPDEST DUP3 ADD SWAP2 SWAP1 PUSH1 0x0 MSTORE PUSH1 0x20 PUSH1 0x0 KECCAK256 SWAP1 JUMPDEST DUP2 SLOAD DUP2 MSTORE SWAP1 PUSH1 0x1 ADD SWAP1 PUSH1 0x20 ADD DUP1 DUP4 GT PUSH2 0x1A78 JUMPI DUP3 SWAP1 SUB PUSH1 0x1F AND DUP3 ADD SWAP2 JUMPDEST POP POP POP POP POP DUP2 MSTORE PUSH1 0x20 ADD PUSH1 0x1 DUP3 ADD DUP1 SLOAD PUSH2 0x1AAE SWAP1 PUSH2 0x3631 JUMP JUMPDEST DUP1 PUSH1 0x1F ADD PUSH1 0x20 DUP1 SWAP2 DIV MUL PUSH1 0x20 ADD PUSH1 0x40 MLOAD SWAP1 DUP2 ADD PUSH1 0x40 MSTORE DUP1 SWAP3 SWAP2 SWAP1 DUP2 DUP2 MSTORE PUSH1 0x20 ADD DUP3 DUP1 SLOAD PUSH2 0x1ADA SWAP1 PUSH2 0x3631 JUMP JUMPDEST DUP1 ISZERO PUSH2 0x1B27 JUMPI DUP1 PUSH1 0x1F LT PUSH2 0x1AFC JUMPI PUSH2 0x100 DUP1 DUP4 SLOAD DIV MUL DUP4 MSTORE SWAP2 PUSH1 0x20 ADD SWAP2 PUSH2 0x1B27 JUMP JUMPDEST DUP3 ADD SWAP2 SWAP1 PUSH1 0x0 MSTORE PUSH1 0x20 PUSH1 0x0 KECCAK256 SWAP1 JUMPDEST DUP2 SLOAD DUP2 MSTORE SWAP1 PUSH1 0x1 ADD SWAP1 PUSH1 0x20 ADD DUP1 DUP4 GT PUSH2 0x1B0A JUMPI DUP3 SWAP1 SUB PUSH1 0x1F AND DUP3 ADD SWAP2 JUMPDEST POP POP POP POP POP DUP2 MSTORE PUSH1 0x20 ADD PUSH1 0x2 DUP3 ADD DUP1 SLOAD PUSH2 0x1B40 SWAP1 PUSH2 0x3631 JUMP JUMPDEST DUP1 PUSH1 0x1F ADD PUSH1 0x20 DUP1 SWAP2 DIV MUL PUSH1 0x20 ADD PUSH1 0x40 MLOAD SWAP1 DUP2 ADD PUSH1 0x40 MSTORE DUP1 SWAP3 SWAP2 SWAP1 DUP2 DUP2 MSTORE PUSH1 0x20 ADD DUP3 DUP1 SLOAD PUSH2 0x1B6C SWAP1 PUSH2 0x3631 JUMP JUMPDEST DUP1 ISZERO PUSH2 0x1BB9 JUMPI DUP1 PUSH1 0x1F LT PUSH2 0x1B8E JUMPI PUSH2 0x100 DUP1 DUP4 SLOAD DIV MUL DUP4 MSTORE SWAP2 PUSH1 0x20 ADD SWAP2 PUSH2 0x1BB9 JUMP JUMPDEST DUP3 ADD SWAP2 SWAP1 PUSH1 0x0 MSTORE PUSH1 0x20 PUSH1 0x0 KECCAK256 SWAP1 JUMPDEST DUP2 SLOAD DUP2 MSTORE SWAP1 PUSH1 0x1 ADD SWAP1 PUSH1 0x20 ADD DUP1 DUP4 GT PUSH2 0x1B9C JUMPI DUP3 SWAP1 SUB PUSH1 0x1F AND DUP3 ADD SWAP2 JUMPDEST POP POP POP POP POP DUP2 MSTORE PUSH1 0x20 ADD PUSH1 0x3 DUP3 ADD SLOAD DUP2 MSTORE PUSH1 0x20 ADD PUSH1 0x4 DUP3 ADD SLOAD DUP2 MSTORE PUSH1 0x20 ADD PUSH1 0x5 DUP3 ADD SLOAD DUP2 MSTORE PUSH1 0x20 ADD PUSH1 0x6 DUP3 ADD SLOAD DUP2 MSTORE PUSH1 0x20 ADD PUSH1 0x7 DUP3 ADD PUSH1 0x0 SWAP1 SLOAD SWAP1 PUSH2 0x100 EXP SWAP1 DIV PUSH1 0xFF AND ISZERO ISZERO ISZERO ISZERO DUP2 MSTORE PUSH1 0x20 ADD PUSH1 0x7 DUP3 ADD PUSH1 0x1 SWAP1 SLOAD SWAP1 PUSH2 0x100 EXP SWAP1 DIV PUSH1 0xFF AND ISZERO ISZERO ISZERO ISZERO DUP2 MSTORE PUSH1 0x20 ADD PUSH1 0x7 DUP3 ADD PUSH1 0x2 SWAP1 SLOAD SWAP1 PUSH2 0x100 EXP SWAP1 DIV PUSH1 0xFF AND ISZERO ISZERO ISZERO ISZERO DUP2 MSTORE POP POP SWAP1 POP PUSH1 0x0 PUSH1 0x2 PUSH1 0x0 DUP9 DUP2 MSTORE PUSH1 0x20 ADD SWAP1 DUP2 MSTORE PUSH1 0x20 ADD PUSH1 0x0 KECCAK256 PUSH1 0x0 ADD DUP1 SLOAD DUP1 PUSH1 0x20 MUL PUSH1 0x20 ADD PUSH1 0x40 MLOAD SWAP1 DUP2 ADD PUSH1 0x40 MSTORE DUP1 SWAP3 SWAP2 SWAP1 DUP2 DUP2 MSTORE PUSH1 0x20 ADD PUSH1 0x0 SWAP1 JUMPDEST DUP3 DUP3 LT ISZERO PUSH2 0x1DD2 JUMPI DUP4 DUP3 SWAP1 PUSH1 0x0 MSTORE PUSH1 0x20 PUSH1 0x0 KECCAK256 SWAP1 PUSH1 0x7 MUL ADD PUSH1 0x40 MLOAD DUP1 PUSH1 0xE0 ADD PUSH1 0x40 MSTORE SWAP1 DUP2 PUSH1 0x0 DUP3 ADD SLOAD DUP2 MSTORE PUSH1 0x20 ADD PUSH1 0x1 DUP3 ADD SLOAD DUP2 MSTORE PUSH1 0x20 ADD PUSH1 0x2 DUP3 ADD SLOAD DUP2 MSTORE PUSH1 0x20 ADD PUSH1 0x3 DUP3 ADD SLOAD DUP2 MSTORE PUSH1 0x20 ADD PUSH1 0x4 DUP3 ADD PUSH1 0x0 SWAP1 SLOAD SWAP1 PUSH2 0x100 EXP SWAP1 DIV PUSH20 0xFFFFFFFFFFFFFFFFFFFFFFFFFFFFFFFFFFFFFFFF AND PUSH20 0xFFFFFFFFFFFFFFFFFFFFFFFFFFFFFFFFFFFFFFFF AND PUSH20 0xFFFFFFFFFFFFFFFFFFFFFFFFFFFFFFFFFFFFFFFF AND DUP2 MSTORE PUSH1 0x20 ADD PUSH1 0x5 DUP3 ADD DUP1 SLOAD PUSH2 0x1D26 SWAP1 PUSH2 0x3631 JUMP JUMPDEST DUP1 PUSH1 0x1F ADD PUSH1 0x20 DUP1 SWAP2 DIV MUL PUSH1 0x20 ADD PUSH1 0x40 MLOAD SWAP1 DUP2 ADD PUSH1 0x40 MSTORE DUP1 SWAP3 SWAP2 SWAP1 DUP2 DUP2 MSTORE PUSH1 0x20 ADD DUP3 DUP1 SLOAD PUSH2 0x1D52 SWAP1 PUSH2 0x3631 JUMP JUMPDEST DUP1 ISZERO PUSH2 0x1D9F JUMPI DUP1 PUSH1 0x1F LT PUSH2 0x1D74 JUMPI PUSH2 0x100 DUP1 DUP4 SLOAD DIV MUL DUP4 MSTORE SWAP2 PUSH1 0x20 ADD SWAP2 PUSH2 0x1D9F JUMP JUMPDEST DUP3 ADD SWAP2 SWAP1 PUSH1 0x0 MSTORE PUSH1 0x20 PUSH1 0x0 KECCAK256 SWAP1 JUMPDEST DUP2 SLOAD DUP2 MSTORE SWAP1 PUSH1 0x1 ADD SWAP1 PUSH1 0x20 ADD DUP1 DUP4 GT PUSH2 0x1D82 JUMPI DUP3 SWAP1 SUB PUSH1 0x1F AND DUP3 ADD SWAP2 JUMPDEST POP POP POP POP POP DUP2 MSTORE PUSH1 0x20 ADD PUSH1 0x6 DUP3 ADD PUSH1 0x0 SWAP1 SLOAD SWAP1 PUSH2 0x100 EXP SWAP1 DIV PUSH1 0xFF AND ISZERO ISZERO ISZERO ISZERO DUP2 MSTORE POP POP DUP2 MSTORE PUSH1 0x20 ADD SWAP1 PUSH1 0x1 ADD SWAP1 PUSH2 0x1C75 JUMP JUMPDEST POP POP POP POP SWAP1 POP PUSH1 0x0 DUP1 JUMPDEST PUSH1 0x1 DUP4 MLOAD PUSH2 0x1DEA SWAP2 SWAP1 PUSH2 0x3569 JUMP JUMPDEST DUP2 GT PUSH2 0x2244 JUMPI PUSH1 0x0 DUP4 DUP3 DUP2 MLOAD DUP2 LT PUSH2 0x1E05 JUMPI PUSH2 0x1E04 PUSH2 0x377E JUMP JUMPDEST JUMPDEST PUSH1 0x20 MUL PUSH1 0x20 ADD ADD MLOAD PUSH1 0xC0 ADD SWAP1 ISZERO ISZERO SWAP1 DUP2 ISZERO ISZERO DUP2 MSTORE POP ISZERO PUSH2 0x2231 JUMPI PUSH1 0x2 DUP4 DUP3 DUP2 MLOAD DUP2 LT PUSH2 0x1E34 JUMPI PUSH2 0x1E33 PUSH2 0x377E JUMP JUMPDEST JUMPDEST PUSH1 0x20 MUL PUSH1 0x20 ADD ADD MLOAD PUSH1 0x20 ADD MLOAD EQ ISZERO PUSH2 0x1FE3 JUMPI PUSH2 0x1E71 PUSH1 0x64 PUSH2 0x1E63 PUSH1 0x55 DUP8 PUSH1 0xC0 ADD MLOAD PUSH2 0x2738 SWAP1 SWAP2 SWAP1 PUSH4 0xFFFFFFFF AND JUMP JUMPDEST PUSH2 0x277D SWAP1 SWAP2 SWAP1 PUSH4 0xFFFFFFFF AND JUMP JUMPDEST SWAP2 POP DUP8 DUP4 DUP3 DUP2 MLOAD DUP2 LT PUSH2 0x1E87 JUMPI PUSH2 0x1E86 PUSH2 0x377E JUMP JUMPDEST JUMPDEST PUSH1 0x20 MUL PUSH1 0x20 ADD ADD MLOAD PUSH1 0x40 ADD MLOAD EQ DUP1 ISZERO PUSH2 0x1EBD JUMPI POP DUP7 DUP4 DUP3 DUP2 MLOAD DUP2 LT PUSH2 0x1EAF JUMPI PUSH2 0x1EAE PUSH2 0x377E JUMP JUMPDEST JUMPDEST PUSH1 0x20 MUL PUSH1 0x20 ADD ADD MLOAD PUSH1 0x60 ADD MLOAD EQ JUMPDEST ISZERO PUSH2 0x1FDE JUMPI PUSH1 0x0 PUSH1 0x3 DUP5 DUP4 DUP2 MLOAD DUP2 LT PUSH2 0x1ED9 JUMPI PUSH2 0x1ED8 PUSH2 0x377E JUMP JUMPDEST JUMPDEST PUSH1 0x20 MUL PUSH1 0x20 ADD ADD MLOAD PUSH1 0xA0 ADD MLOAD PUSH1 0x40 MLOAD PUSH2 0x1EF2 SWAP2 SWAP1 PUSH2 0x321B JUMP JUMPDEST SWAP1 DUP2 MSTORE PUSH1 0x20 ADD PUSH1 0x40 MLOAD DUP1 SWAP2 SUB SWAP1 KECCAK256 SLOAD SWAP1 POP PUSH1 0x0 DUP2 DUP6 DUP5 DUP2 MLOAD DUP2 LT PUSH2 0x1F19 JUMPI PUSH2 0x1F18 PUSH2 0x377E JUMP JUMPDEST JUMPDEST PUSH1 0x20 MUL PUSH1 0x20 ADD ADD MLOAD PUSH1 0x0 ADD MLOAD DUP6 PUSH2 0x1F30 SWAP2 SWAP1 PUSH2 0x350F JUMP JUMPDEST PUSH2 0x1F3A SWAP2 SWAP1 PUSH2 0x34DE JUMP JUMPDEST SWAP1 POP DUP1 PUSH1 0x5 PUSH1 0x0 DUP8 DUP7 DUP2 MLOAD DUP2 LT PUSH2 0x1F54 JUMPI PUSH2 0x1F53 PUSH2 0x377E JUMP JUMPDEST JUMPDEST PUSH1 0x20 MUL PUSH1 0x20 ADD ADD MLOAD PUSH1 0x80 ADD MLOAD PUSH20 0xFFFFFFFFFFFFFFFFFFFFFFFFFFFFFFFFFFFFFFFF AND PUSH20 0xFFFFFFFFFFFFFFFFFFFFFFFFFFFFFFFFFFFFFFFF AND DUP2 MSTORE PUSH1 0x20 ADD SWAP1 DUP2 MSTORE PUSH1 0x20 ADD PUSH1 0x0 KECCAK256 PUSH1 0x0 DUP3 DUP3 SLOAD PUSH2 0x1FA9 SWAP2 SWAP1 PUSH2 0x3488 JUMP JUMPDEST SWAP3 POP POP DUP2 SWAP1 SSTORE POP PUSH1 0x1 DUP6 DUP5 DUP2 MLOAD DUP2 LT PUSH2 0x1FC5 JUMPI PUSH2 0x1FC4 PUSH2 0x377E JUMP JUMPDEST JUMPDEST PUSH1 0x20 MUL PUSH1 0x20 ADD ADD MLOAD PUSH1 0xC0 ADD SWAP1 ISZERO ISZERO SWAP1 DUP2 ISZERO ISZERO DUP2 MSTORE POP POP POP POP JUMPDEST PUSH2 0x2230 JUMP JUMPDEST DUP6 DUP4 DUP3 DUP2 MLOAD DUP2 LT PUSH2 0x1FF7 JUMPI PUSH2 0x1FF6 PUSH2 0x377E JUMP JUMPDEST JUMPDEST PUSH1 0x20 MUL PUSH1 0x20 ADD ADD MLOAD PUSH1 0x20 ADD MLOAD EQ ISZERO PUSH2 0x222F JUMPI PUSH2 0x2052 PUSH1 0x64 PUSH2 0x2044 PUSH1 0x55 DUP8 PUSH1 0x80 ADD MLOAD DUP9 PUSH1 0xA0 ADD MLOAD DUP10 PUSH1 0x60 ADD MLOAD PUSH2 0x202C SWAP2 SWAP1 PUSH2 0x3488 JUMP JUMPDEST PUSH2 0x2036 SWAP2 SWAP1 PUSH2 0x3488 JUMP JUMPDEST PUSH2 0x2738 SWAP1 SWAP2 SWAP1 PUSH4 0xFFFFFFFF AND JUMP JUMPDEST PUSH2 0x277D SWAP1 SWAP2 SWAP1 PUSH4 0xFFFFFFFF AND JUMP JUMPDEST SWAP2 POP PUSH1 0x0 DUP1 DUP5 DUP4 DUP2 MLOAD DUP2 LT PUSH2 0x206A JUMPI PUSH2 0x2069 PUSH2 0x377E JUMP JUMPDEST JUMPDEST PUSH1 0x20 MUL PUSH1 0x20 ADD ADD MLOAD PUSH1 0x20 ADD MLOAD EQ ISZERO PUSH2 0x20AA JUMPI PUSH2 0x20A7 PUSH1 0x64 PUSH2 0x2099 PUSH1 0x55 DUP9 PUSH1 0xA0 ADD MLOAD PUSH2 0x2738 SWAP1 SWAP2 SWAP1 PUSH4 0xFFFFFFFF AND JUMP JUMPDEST PUSH2 0x277D SWAP1 SWAP2 SWAP1 PUSH4 0xFFFFFFFF AND JUMP JUMPDEST SWAP1 POP JUMPDEST PUSH1 0x1 DUP5 DUP4 DUP2 MLOAD DUP2 LT PUSH2 0x20BF JUMPI PUSH2 0x20BE PUSH2 0x377E JUMP JUMPDEST JUMPDEST PUSH1 0x20 MUL PUSH1 0x20 ADD ADD MLOAD PUSH1 0x20 ADD MLOAD EQ ISZERO PUSH2 0x20FF JUMPI PUSH2 0x20FC PUSH1 0x64 PUSH2 0x20EE PUSH1 0x55 DUP9 PUSH1 0x80 ADD MLOAD PUSH2 0x2738 SWAP1 SWAP2 SWAP1 PUSH4 0xFFFFFFFF AND JUMP JUMPDEST PUSH2 0x277D SWAP1 SWAP2 SWAP1 PUSH4 0xFFFFFFFF AND JUMP JUMPDEST SWAP1 POP JUMPDEST PUSH1 0x3 DUP5 DUP4 DUP2 MLOAD DUP2 LT PUSH2 0x2114 JUMPI PUSH2 0x2113 PUSH2 0x377E JUMP JUMPDEST JUMPDEST PUSH1 0x20 MUL PUSH1 0x20 ADD ADD MLOAD PUSH1 0x20 ADD MLOAD EQ ISZERO PUSH2 0x2154 JUMPI PUSH2 0x2151 PUSH1 0x64 PUSH2 0x2143 PUSH1 0x55 DUP9 PUSH1 0x60 ADD MLOAD PUSH2 0x2738 SWAP1 SWAP2 SWAP1 PUSH4 0xFFFFFFFF AND JUMP JUMPDEST PUSH2 0x277D SWAP1 SWAP2 SWAP1 PUSH4 0xFFFFFFFF AND JUMP JUMPDEST SWAP1 POP JUMPDEST PUSH1 0x0 DUP2 DUP6 DUP5 DUP2 MLOAD DUP2 LT PUSH2 0x216A JUMPI PUSH2 0x2169 PUSH2 0x377E JUMP JUMPDEST JUMPDEST PUSH1 0x20 MUL PUSH1 0x20 ADD ADD MLOAD PUSH1 0x0 ADD MLOAD DUP6 PUSH2 0x2181 SWAP2 SWAP1 PUSH2 0x350F JUMP JUMPDEST PUSH2 0x218B SWAP2 SWAP1 PUSH2 0x34DE JUMP JUMPDEST SWAP1 POP DUP1 PUSH1 0x5 PUSH1 0x0 DUP8 DUP7 DUP2 MLOAD DUP2 LT PUSH2 0x21A5 JUMPI PUSH2 0x21A4 PUSH2 0x377E JUMP JUMPDEST JUMPDEST PUSH1 0x20 MUL PUSH1 0x20 ADD ADD MLOAD PUSH1 0x80 ADD MLOAD PUSH20 0xFFFFFFFFFFFFFFFFFFFFFFFFFFFFFFFFFFFFFFFF AND PUSH20 0xFFFFFFFFFFFFFFFFFFFFFFFFFFFFFFFFFFFFFFFF AND DUP2 MSTORE PUSH1 0x20 ADD SWAP1 DUP2 MSTORE PUSH1 0x20 ADD PUSH1 0x0 KECCAK256 PUSH1 0x0 DUP3 DUP3 SLOAD PUSH2 0x21FA SWAP2 SWAP1 PUSH2 0x3488 JUMP JUMPDEST SWAP3 POP POP DUP2 SWAP1 SSTORE POP PUSH1 0x1 DUP6 DUP5 DUP2 MLOAD DUP2 LT PUSH2 0x2216 JUMPI PUSH2 0x2215 PUSH2 0x377E JUMP JUMPDEST JUMPDEST PUSH1 0x20 MUL PUSH1 0x20 ADD ADD MLOAD PUSH1 0xC0 ADD SWAP1 ISZERO ISZERO SWAP1 DUP2 ISZERO ISZERO DUP2 MSTORE POP POP POP POP JUMPDEST JUMPDEST JUMPDEST DUP1 DUP1 PUSH2 0x223C SWAP1 PUSH2 0x3694 JUMP JUMPDEST SWAP2 POP POP PUSH2 0x1DDC JUMP JUMPDEST POP PUSH1 0x1 DUP4 PUSH2 0x120 ADD SWAP1 ISZERO ISZERO SWAP1 DUP2 ISZERO ISZERO DUP2 MSTORE POP POP POP POP POP PUSH1 0x1 SWAP1 POP SWAP5 SWAP4 POP POP POP POP JUMP JUMPDEST PUSH1 0x0 DUP1 PUSH1 0x0 SWAP1 SLOAD SWAP1 PUSH2 0x100 EXP SWAP1 DIV PUSH20 0xFFFFFFFFFFFFFFFFFFFFFFFFFFFFFFFFFFFFFFFF AND PUSH20 0xFFFFFFFFFFFFFFFFFFFFFFFFFFFFFFFFFFFFFFFF AND CALLER PUSH20 0xFFFFFFFFFFFFFFFFFFFFFFFFFFFFFFFFFFFFFFFF AND EQ PUSH2 0x22F7 JUMPI PUSH1 0x40 MLOAD PUSH32 0x8C379A000000000000000000000000000000000000000000000000000000000 DUP2 MSTORE PUSH1 0x4 ADD PUSH2 0x22EE SWAP1 PUSH2 0x3330 JUMP JUMPDEST PUSH1 0x40 MLOAD DUP1 SWAP2 SUB SWAP1 REVERT JUMPDEST DUP2 PUSH1 0x5 PUSH1 0x0 DUP6 PUSH20 0xFFFFFFFFFFFFFFFFFFFFFFFFFFFFFFFFFFFFFFFF AND PUSH20 0xFFFFFFFFFFFFFFFFFFFFFFFFFFFFFFFFFFFFFFFF AND DUP2 MSTORE PUSH1 0x20 ADD SWAP1 DUP2 MSTORE PUSH1 0x20 ADD PUSH1 0x0 KECCAK256 SLOAD LT ISZERO DUP1 ISZERO PUSH2 0x2386 JUMPI POP PUSH1 0x0 PUSH1 0x5 PUSH1 0x0 DUP6 PUSH20 0xFFFFFFFFFFFFFFFFFFFFFFFFFFFFFFFFFFFFFFFF AND PUSH20 0xFFFFFFFFFFFFFFFFFFFFFFFFFFFFFFFFFFFFFFFF AND DUP2 MSTORE PUSH1 0x20 ADD SWAP1 DUP2 MSTORE PUSH1 0x20 ADD PUSH1 0x0 KECCAK256 SLOAD LT ISZERO JUMPDEST ISZERO PUSH2 0x241C JUMPI PUSH1 0x0 DUP4 SWAP1 POP DUP1 PUSH20 0xFFFFFFFFFFFFFFFFFFFFFFFFFFFFFFFFFFFFFFFF AND PUSH2 0x8FC PUSH1 0x5 PUSH1 0x0 DUP8 PUSH20 0xFFFFFFFFFFFFFFFFFFFFFFFFFFFFFFFFFFFFFFFF AND PUSH20 0xFFFFFFFFFFFFFFFFFFFFFFFFFFFFFFFFFFFFFFFF AND DUP2 MSTORE PUSH1 0x20 ADD SWAP1 DUP2 MSTORE PUSH1 0x20 ADD PUSH1 0x0 KECCAK256 SLOAD SWAP1 DUP2 ISZERO MUL SWAP1 PUSH1 0x40 MLOAD PUSH1 0x0 PUSH1 0x40 MLOAD DUP1 DUP4 SUB DUP2 DUP6 DUP9 DUP9 CALL SWAP4 POP POP POP POP ISZERO DUP1 ISZERO PUSH2 0x2415 JUMPI RETURNDATASIZE PUSH1 0x0 DUP1 RETURNDATACOPY RETURNDATASIZE PUSH1 0x0 REVERT JUMPDEST POP POP PUSH2 0x2457 JUMP JUMPDEST PUSH1 0x40 MLOAD PUSH32 0x8C379A000000000000000000000000000000000000000000000000000000000 DUP2 MSTORE PUSH1 0x4 ADD PUSH2 0x244E SWAP1 PUSH2 0x33D0 JUMP JUMPDEST PUSH1 0x40 MLOAD DUP1 SWAP2 SUB SWAP1 REVERT JUMPDEST SWAP3 SWAP2 POP POP JUMP JUMPDEST PUSH1 0x60 DUP1 PUSH1 0x60 PUSH1 0x0 DUP1 PUSH1 0x0 DUP1 PUSH2 0x2471 DUP9 PUSH2 0x270B JUMP JUMPDEST PUSH2 0x24B0 JUMPI PUSH1 0x40 MLOAD PUSH32 0x8C379A000000000000000000000000000000000000000000000000000000000 DUP2 MSTORE PUSH1 0x4 ADD PUSH2 0x24A7 SWAP1 PUSH2 0x3350 JUMP JUMPDEST PUSH1 0x40 MLOAD DUP1 SWAP2 SUB SWAP1 REVERT JUMPDEST PUSH1 0x6 PUSH1 0x0 DUP10 DUP2 MSTORE PUSH1 0x20 ADD SWAP1 DUP2 MSTORE PUSH1 0x20 ADD PUSH1 0x0 KECCAK256 PUSH1 0x0 ADD PUSH1 0x6 PUSH1 0x0 DUP11 DUP2 MSTORE PUSH1 0x20 ADD SWAP1 DUP2 MSTORE PUSH1 0x20 ADD PUSH1 0x0 KECCAK256 PUSH1 0x1 ADD PUSH1 0x6 PUSH1 0x0 DUP12 DUP2 MSTORE PUSH1 0x20 ADD SWAP1 DUP2 MSTORE PUSH1 0x20 ADD PUSH1 0x0 KECCAK256 PUSH1 0x2 ADD PUSH1 0x6 PUSH1 0x0 DUP13 DUP2 MSTORE PUSH1 0x20 ADD SWAP1 DUP2 MSTORE PUSH1 0x20 ADD PUSH1 0x0 KECCAK256 PUSH1 0x3 ADD SLOAD PUSH1 0x6 PUSH1 0x0 DUP14 DUP2 MSTORE PUSH1 0x20 ADD SWAP1 DUP2 MSTORE PUSH1 0x20 ADD PUSH1 0x0 KECCAK256 PUSH1 0x4 ADD SLOAD PUSH1 0x6 PUSH1 0x0 DUP15 DUP2 MSTORE PUSH1 0x20 ADD SWAP1 DUP2 MSTORE PUSH1 0x20 ADD PUSH1 0x0 KECCAK256 PUSH1 0x5 ADD SLOAD PUSH1 0x6 PUSH1 0x0 DUP16 DUP2 MSTORE PUSH1 0x20 ADD SWAP1 DUP2 MSTORE PUSH1 0x20 ADD PUSH1 0x0 KECCAK256 PUSH1 0x6 ADD SLOAD DUP7 DUP1 SLOAD PUSH2 0x255A SWAP1 PUSH2 0x3631 JUMP JUMPDEST DUP1 PUSH1 0x1F ADD PUSH1 0x20 DUP1 SWAP2 DIV MUL PUSH1 0x20 ADD PUSH1 0x40 MLOAD SWAP1 DUP2 ADD PUSH1 0x40 MSTORE DUP1 SWAP3 SWAP2 SWAP1 DUP2 DUP2 MSTORE PUSH1 0x20 ADD DUP3 DUP1 SLOAD PUSH2 0x2586 SWAP1 PUSH2 0x3631 JUMP JUMPDEST DUP1 ISZERO PUSH2 0x25D3 JUMPI DUP1 PUSH1 0x1F LT PUSH2 0x25A8 JUMPI PUSH2 0x100 DUP1 DUP4 SLOAD DIV MUL DUP4 MSTORE SWAP2 PUSH1 0x20 ADD SWAP2 PUSH2 0x25D3 JUMP JUMPDEST DUP3 ADD SWAP2 SWAP1 PUSH1 0x0 MSTORE PUSH1 0x20 PUSH1 0x0 KECCAK256 SWAP1 JUMPDEST DUP2 SLOAD DUP2 MSTORE SWAP1 PUSH1 0x1 ADD SWAP1 PUSH1 0x20 ADD DUP1 DUP4 GT PUSH2 0x25B6 JUMPI DUP3 SWAP1 SUB PUSH1 0x1F AND DUP3 ADD SWAP2 JUMPDEST POP POP POP POP POP SWAP7 POP DUP6 DUP1 SLOAD PUSH2 0x25E6 SWAP1 PUSH2 0x3631 JUMP JUMPDEST DUP1 PUSH1 0x1F ADD PUSH1 0x20 DUP1 SWAP2 DIV MUL PUSH1 0x20 ADD PUSH1 0x40 MLOAD SWAP1 DUP2 ADD PUSH1 0x40 MSTORE DUP1 SWAP3 SWAP2 SWAP1 DUP2 DUP2 MSTORE PUSH1 0x20 ADD DUP3 DUP1 SLOAD PUSH2 0x2612 SWAP1 PUSH2 0x3631 JUMP JUMPDEST DUP1 ISZERO PUSH2 0x265F JUMPI DUP1 PUSH1 0x1F LT PUSH2 0x2634 JUMPI PUSH2 0x100 DUP1 DUP4 SLOAD DIV MUL DUP4 MSTORE SWAP2 PUSH1 0x20 ADD SWAP2 PUSH2 0x265F JUMP JUMPDEST DUP3 ADD SWAP2 SWAP1 PUSH1 0x0 MSTORE PUSH1 0x20 PUSH1 0x0 KECCAK256 SWAP1 JUMPDEST DUP2 SLOAD DUP2 MSTORE SWAP1 PUSH1 0x1 ADD SWAP1 PUSH1 0x20 ADD DUP1 DUP4 GT PUSH2 0x2642 JUMPI DUP3 SWAP1 SUB PUSH1 0x1F AND DUP3 ADD SWAP2 JUMPDEST POP POP POP POP POP SWAP6 POP DUP5 DUP1 SLOAD PUSH2 0x2672 SWAP1 PUSH2 0x3631 JUMP JUMPDEST DUP1 PUSH1 0x1F ADD PUSH1 0x20 DUP1 SWAP2 DIV MUL PUSH1 0x20 ADD PUSH1 0x40 MLOAD SWAP1 DUP2 ADD PUSH1 0x40 MSTORE DUP1 SWAP3 SWAP2 SWAP1 DUP2 DUP2 MSTORE PUSH1 0x20 ADD DUP3 DUP1 SLOAD PUSH2 0x269E SWAP1 PUSH2 0x3631 JUMP JUMPDEST DUP1 ISZERO PUSH2 0x26EB JUMPI DUP1 PUSH1 0x1F LT PUSH2 0x26C0 JUMPI PUSH2 0x100 DUP1 DUP4 SLOAD DIV MUL DUP4 MSTORE SWAP2 PUSH1 0x20 ADD SWAP2 PUSH2 0x26EB JUMP JUMPDEST DUP3 ADD SWAP2 SWAP1 PUSH1 0x0 MSTORE PUSH1 0x20 PUSH1 0x0 KECCAK256 SWAP1 JUMPDEST DUP2 SLOAD DUP2 MSTORE SWAP1 PUSH1 0x1 ADD SWAP1 PUSH1 0x20 ADD DUP1 DUP4 GT PUSH2 0x26CE JUMPI DUP3 SWAP1 SUB PUSH1 0x1F AND DUP3 ADD SWAP2 JUMPDEST POP POP POP POP POP SWAP5 POP SWAP7 POP SWAP7 POP SWAP7 POP SWAP7 POP SWAP7 POP SWAP7 POP SWAP7 POP SWAP2 SWAP4 SWAP6 SWAP8 SWAP1 SWAP3 SWAP5 SWAP7 POP JUMP JUMPDEST PUSH1 0x0 PUSH1 0x6 PUSH1 0x0 DUP4 DUP2 MSTORE PUSH1 0x20 ADD SWAP1 DUP2 MSTORE PUSH1 0x20 ADD PUSH1 0x0 KECCAK256 PUSH1 0x7 ADD PUSH1 0x1 SWAP1 SLOAD SWAP1 PUSH2 0x100 EXP SWAP1 DIV PUSH1 0xFF AND SWAP1 POP SWAP2 SWAP1 POP JUMP JUMPDEST PUSH1 0x0 DUP1 DUP4 EQ ISZERO PUSH2 0x274B JUMPI PUSH1 0x0 SWAP1 POP PUSH2 0x2777 JUMP JUMPDEST PUSH1 0x0 DUP3 DUP5 PUSH2 0x2759 SWAP2 SWAP1 PUSH2 0x350F JUMP JUMPDEST SWAP1 POP DUP3 DUP5 DUP3 PUSH2 0x2768 SWAP2 SWAP1 PUSH2 0x34DE JUMP JUMPDEST EQ PUSH2 0x2772 JUMPI PUSH1 0x0 DUP1 REVERT JUMPDEST DUP1 SWAP2 POP POP JUMPDEST SWAP3 SWAP2 POP POP JUMP JUMPDEST PUSH1 0x0 DUP1 DUP3 GT PUSH2 0x278B JUMPI PUSH1 0x0 DUP1 REVERT JUMPDEST PUSH1 0x0 DUP3 DUP5 PUSH2 0x2799 SWAP2 SWAP1 PUSH2 0x34DE JUMP JUMPDEST SWAP1 POP DUP1 SWAP2 POP POP SWAP3 SWAP2 POP POP JUMP JUMPDEST PUSH1 0x60 PUSH1 0x0 DUP4 SWAP1 POP PUSH1 0x0 DUP4 SWAP1 POP PUSH1 0x0 DUP2 MLOAD DUP4 MLOAD PUSH2 0x27C1 SWAP2 SWAP1 PUSH2 0x3488 JUMP JUMPDEST PUSH8 0xFFFFFFFFFFFFFFFF DUP2 GT ISZERO PUSH2 0x27DA JUMPI PUSH2 0x27D9 PUSH2 0x37AD JUMP JUMPDEST JUMPDEST PUSH1 0x40 MLOAD SWAP1 DUP1 DUP3 MSTORE DUP1 PUSH1 0x1F ADD PUSH1 0x1F NOT AND PUSH1 0x20 ADD DUP3 ADD PUSH1 0x40 MSTORE DUP1 ISZERO PUSH2 0x280C JUMPI DUP2 PUSH1 0x20 ADD PUSH1 0x1 DUP3 MUL DUP1 CALLDATASIZE DUP4 CALLDATACOPY DUP1 DUP3 ADD SWAP2 POP POP SWAP1 POP JUMPDEST POP SWAP1 POP PUSH1 0x0 DUP2 SWAP1 POP PUSH1 0x0 DUP1 JUMPDEST DUP6 MLOAD DUP2 LT ISZERO PUSH2 0x28A0 JUMPI DUP6 DUP2 DUP2 MLOAD DUP2 LT PUSH2 0x2834 JUMPI PUSH2 0x2833 PUSH2 0x377E JUMP JUMPDEST JUMPDEST PUSH1 0x20 ADD ADD MLOAD PUSH1 0xF8 SHR PUSH1 0xF8 SHL DUP4 DUP4 DUP1 PUSH2 0x284B SWAP1 PUSH2 0x3694 JUMP JUMPDEST SWAP5 POP DUP2 MLOAD DUP2 LT PUSH2 0x285E JUMPI PUSH2 0x285D PUSH2 0x377E JUMP JUMPDEST JUMPDEST PUSH1 0x20 ADD ADD SWAP1 PUSH31 0xFFFFFFFFFFFFFFFFFFFFFFFFFFFFFFFFFFFFFFFFFFFFFFFFFFFFFFFFFFFFFF NOT AND SWAP1 DUP2 PUSH1 0x0 BYTE SWAP1 MSTORE8 POP DUP1 DUP1 PUSH2 0x2898 SWAP1 PUSH2 0x3694 JUMP JUMPDEST SWAP2 POP POP PUSH2 0x2818 JUMP JUMPDEST POP PUSH1 0x0 JUMPDEST DUP5 MLOAD DUP2 LT ISZERO PUSH2 0x292C JUMPI DUP5 DUP2 DUP2 MLOAD DUP2 LT PUSH2 0x28C0 JUMPI PUSH2 0x28BF PUSH2 0x377E JUMP JUMPDEST JUMPDEST PUSH1 0x20 ADD ADD MLOAD PUSH1 0xF8 SHR PUSH1 0xF8 SHL DUP4 DUP4 DUP1 PUSH2 0x28D7 SWAP1 PUSH2 0x3694 JUMP JUMPDEST SWAP5 POP DUP2 MLOAD DUP2 LT PUSH2 0x28EA JUMPI PUSH2 0x28E9 PUSH2 0x377E JUMP JUMPDEST JUMPDEST PUSH1 0x20 ADD ADD SWAP1 PUSH31 0xFFFFFFFFFFFFFFFFFFFFFFFFFFFFFFFFFFFFFFFFFFFFFFFFFFFFFFFFFFFFFF NOT AND SWAP1 DUP2 PUSH1 0x0 BYTE SWAP1 MSTORE8 POP DUP1 DUP1 PUSH2 0x2924 SWAP1 PUSH2 0x3694 JUMP JUMPDEST SWAP2 POP POP PUSH2 0x28A4 JUMP JUMPDEST POP DUP3 SWAP6 POP POP POP POP POP POP SWAP3 SWAP2 POP POP JUMP JUMPDEST PUSH1 0x60 PUSH2 0x2965 DUP3 PUSH1 0x40 MLOAD PUSH1 0x20 ADD PUSH2 0x2951 SWAP2 SWAP1 PUSH2 0x3232 JUMP JUMPDEST PUSH1 0x40 MLOAD PUSH1 0x20 DUP2 DUP4 SUB SUB DUP2 MSTORE SWAP1 PUSH1 0x40 MSTORE PUSH2 0x299D JUMP JUMPDEST SWAP1 POP SWAP2 SWAP1 POP JUMP JUMPDEST PUSH1 0x60 PUSH2 0x2996 DUP3 PUSH1 0x40 MLOAD PUSH1 0x20 ADD PUSH2 0x2982 SWAP2 SWAP1 PUSH2 0x3200 JUMP JUMPDEST PUSH1 0x40 MLOAD PUSH1 0x20 DUP2 DUP4 SUB SUB DUP2 MSTORE SWAP1 PUSH1 0x40 MSTORE PUSH2 0x299D JUMP JUMPDEST SWAP1 POP SWAP2 SWAP1 POP JUMP JUMPDEST PUSH1 0x60 PUSH1 0x0 PUSH1 0x40 MLOAD DUP1 PUSH1 0x40 ADD PUSH1 0x40 MSTORE DUP1 PUSH1 0x10 DUP2 MSTORE PUSH1 0x20 ADD PUSH32 0x3031323334353637383961626364656600000000000000000000000000000000 DUP2 MSTORE POP SWAP1 POP PUSH1 0x0 PUSH1 0x2 DUP5 MLOAD PUSH2 0x29E9 SWAP2 SWAP1 PUSH2 0x350F JUMP JUMPDEST PUSH1 0x2 PUSH2 0x29F5 SWAP2 SWAP1 PUSH2 0x3488 JUMP JUMPDEST PUSH8 0xFFFFFFFFFFFFFFFF DUP2 GT ISZERO PUSH2 0x2A0E JUMPI PUSH2 0x2A0D PUSH2 0x37AD JUMP JUMPDEST JUMPDEST PUSH1 0x40 MLOAD SWAP1 DUP1 DUP3 MSTORE DUP1 PUSH1 0x1F ADD PUSH1 0x1F NOT AND PUSH1 0x20 ADD DUP3 ADD PUSH1 0x40 MSTORE DUP1 ISZERO PUSH2 0x2A40 JUMPI DUP2 PUSH1 0x20 ADD PUSH1 0x1 DUP3 MUL DUP1 CALLDATASIZE DUP4 CALLDATACOPY DUP1 DUP3 ADD SWAP2 POP POP SWAP1 POP JUMPDEST POP SWAP1 POP PUSH32 0x3000000000000000000000000000000000000000000000000000000000000000 DUP2 PUSH1 0x0 DUP2 MLOAD DUP2 LT PUSH2 0x2A78 JUMPI PUSH2 0x2A77 PUSH2 0x377E JUMP JUMPDEST JUMPDEST PUSH1 0x20 ADD ADD SWAP1 PUSH31 0xFFFFFFFFFFFFFFFFFFFFFFFFFFFFFFFFFFFFFFFFFFFFFFFFFFFFFFFFFFFFFF NOT AND SWAP1 DUP2 PUSH1 0x0 BYTE SWAP1 MSTORE8 POP PUSH32 0x7800000000000000000000000000000000000000000000000000000000000000 DUP2 PUSH1 0x1 DUP2 MLOAD DUP2 LT PUSH2 0x2ADC JUMPI PUSH2 0x2ADB PUSH2 0x377E JUMP JUMPDEST JUMPDEST PUSH1 0x20 ADD ADD SWAP1 PUSH31 0xFFFFFFFFFFFFFFFFFFFFFFFFFFFFFFFFFFFFFFFFFFFFFFFFFFFFFFFFFFFFFF NOT AND SWAP1 DUP2 PUSH1 0x0 BYTE SWAP1 MSTORE8 POP PUSH1 0x0 JUMPDEST DUP5 MLOAD DUP2 LT ISZERO PUSH2 0x2C8C JUMPI DUP3 PUSH1 0x4 DUP7 DUP4 DUP2 MLOAD DUP2 LT PUSH2 0x2B2D JUMPI PUSH2 0x2B2C PUSH2 0x377E JUMP JUMPDEST JUMPDEST PUSH1 0x20 ADD ADD MLOAD PUSH1 0xF8 SHR PUSH1 0xF8 SHL PUSH31 0xFFFFFFFFFFFFFFFFFFFFFFFFFFFFFFFFFFFFFFFFFFFFFFFFFFFFFFFFFFFFFF NOT AND SWAP1 SHR PUSH1 0xF8 SHR PUSH1 0xFF AND DUP2 MLOAD DUP2 LT PUSH2 0x2B73 JUMPI PUSH2 0x2B72 PUSH2 0x377E JUMP JUMPDEST JUMPDEST PUSH1 0x20 ADD ADD MLOAD PUSH1 0xF8 SHR PUSH1 0xF8 SHL DUP3 PUSH1 0x2 DUP4 PUSH2 0x2B8C SWAP2 SWAP1 PUSH2 0x350F JUMP JUMPDEST PUSH1 0x2 PUSH2 0x2B98 SWAP2 SWAP1 PUSH2 0x3488 JUMP JUMPDEST DUP2 MLOAD DUP2 LT PUSH2 0x2BA9 JUMPI PUSH2 0x2BA8 PUSH2 0x377E JUMP JUMPDEST JUMPDEST PUSH1 0x20 ADD ADD SWAP1 PUSH31 0xFFFFFFFFFFFFFFFFFFFFFFFFFFFFFFFFFFFFFFFFFFFFFFFFFFFFFFFFFFFFFF NOT AND SWAP1 DUP2 PUSH1 0x0 BYTE SWAP1 MSTORE8 POP DUP3 PUSH1 0xF PUSH1 0xF8 SHL DUP7 DUP4 DUP2 MLOAD DUP2 LT PUSH2 0x2BF1 JUMPI PUSH2 0x2BF0 PUSH2 0x377E JUMP JUMPDEST JUMPDEST PUSH1 0x20 ADD ADD MLOAD PUSH1 0xF8 SHR PUSH1 0xF8 SHL AND PUSH1 0xF8 SHR PUSH1 0xFF AND DUP2 MLOAD DUP2 LT PUSH2 0x2C14 JUMPI PUSH2 0x2C13 PUSH2 0x377E JUMP JUMPDEST JUMPDEST PUSH1 0x20 ADD ADD MLOAD PUSH1 0xF8 SHR PUSH1 0xF8 SHL DUP3 PUSH1 0x2 DUP4 PUSH2 0x2C2D SWAP2 SWAP1 PUSH2 0x350F JUMP JUMPDEST PUSH1 0x3 PUSH2 0x2C39 SWAP2 SWAP1 PUSH2 0x3488 JUMP JUMPDEST DUP2 MLOAD DUP2 LT PUSH2 0x2C4A JUMPI PUSH2 0x2C49 PUSH2 0x377E JUMP JUMPDEST JUMPDEST PUSH1 0x20 ADD ADD SWAP1 PUSH31 0xFFFFFFFFFFFFFFFFFFFFFFFFFFFFFFFFFFFFFFFFFFFFFFFFFFFFFFFFFFFFFF NOT AND SWAP1 DUP2 PUSH1 0x0 BYTE SWAP1 MSTORE8 POP DUP1 DUP1 PUSH2 0x2C84 SWAP1 PUSH2 0x3694 JUMP JUMPDEST SWAP2 POP POP PUSH2 0x2B0E JUMP JUMPDEST POP DUP1 SWAP3 POP POP POP SWAP2 SWAP1 POP JUMP JUMPDEST DUP3 DUP1 SLOAD PUSH2 0x2CA3 SWAP1 PUSH2 0x3631 JUMP JUMPDEST SWAP1 PUSH1 0x0 MSTORE PUSH1 0x20 PUSH1 0x0 KECCAK256 SWAP1 PUSH1 0x1F ADD PUSH1 0x20 SWAP1 DIV DUP2 ADD SWAP3 DUP3 PUSH2 0x2CC5 JUMPI PUSH1 0x0 DUP6 SSTORE PUSH2 0x2D0C JUMP JUMPDEST DUP3 PUSH1 0x1F LT PUSH2 0x2CDE JUMPI DUP1 MLOAD PUSH1 0xFF NOT AND DUP4 DUP1 ADD OR DUP6 SSTORE PUSH2 0x2D0C JUMP JUMPDEST DUP3 DUP1 ADD PUSH1 0x1 ADD DUP6 SSTORE DUP3 ISZERO PUSH2 0x2D0C JUMPI SWAP2 DUP3 ADD JUMPDEST DUP3 DUP2 GT ISZERO PUSH2 0x2D0B JUMPI DUP3 MLOAD DUP3 SSTORE SWAP2 PUSH1 0x20 ADD SWAP2 SWAP1 PUSH1 0x1 ADD SWAP1 PUSH2 0x2CF0 JUMP JUMPDEST JUMPDEST POP SWAP1 POP PUSH2 0x2D19 SWAP2 SWAP1 PUSH2 0x2D1D JUMP JUMPDEST POP SWAP1 JUMP JUMPDEST JUMPDEST DUP1 DUP3 GT ISZERO PUSH2 0x2D36 JUMPI PUSH1 0x0 DUP2 PUSH1 0x0 SWAP1 SSTORE POP PUSH1 0x1 ADD PUSH2 0x2D1E JUMP JUMPDEST POP SWAP1 JUMP JUMPDEST PUSH1 0x0 PUSH2 0x2D4D PUSH2 0x2D48 DUP5 PUSH2 0x3430 JUMP JUMPDEST PUSH2 0x340B JUMP JUMPDEST SWAP1 POP DUP3 DUP2 MSTORE PUSH1 0x20 DUP2 ADD DUP5 DUP5 DUP5 ADD GT ISZERO PUSH2 0x2D69 JUMPI PUSH2 0x2D68 PUSH2 0x37E1 JUMP JUMPDEST JUMPDEST PUSH2 0x2D74 DUP5 DUP3 DUP6 PUSH2 0x35EF JUMP JUMPDEST POP SWAP4 SWAP3 POP POP POP JUMP JUMPDEST PUSH1 0x0 DUP2 CALLDATALOAD SWAP1 POP PUSH2 0x2D8B DUP2 PUSH2 0x38F7 JUMP JUMPDEST SWAP3 SWAP2 POP POP JUMP JUMPDEST PUSH1 0x0 DUP2 CALLDATALOAD SWAP1 POP PUSH2 0x2DA0 DUP2 PUSH2 0x390E JUMP JUMPDEST SWAP3 SWAP2 POP POP JUMP JUMPDEST PUSH1 0x0 DUP2 CALLDATALOAD SWAP1 POP PUSH2 0x2DB5 DUP2 PUSH2 0x3925 JUMP JUMPDEST SWAP3 SWAP2 POP POP JUMP JUMPDEST PUSH1 0x0 DUP3 PUSH1 0x1F DUP4 ADD SLT PUSH2 0x2DD0 JUMPI PUSH2 0x2DCF PUSH2 0x37DC JUMP JUMPDEST JUMPDEST DUP2 CALLDATALOAD PUSH2 0x2DE0 DUP5 DUP3 PUSH1 0x20 DUP7 ADD PUSH2 0x2D3A JUMP JUMPDEST SWAP2 POP POP SWAP3 SWAP2 POP POP JUMP JUMPDEST PUSH1 0x0 DUP2 CALLDATALOAD SWAP1 POP PUSH2 0x2DF8 DUP2 PUSH2 0x393C JUMP JUMPDEST SWAP3 SWAP2 POP POP JUMP JUMPDEST PUSH1 0x0 DUP1 PUSH1 0x40 DUP4 DUP6 SUB SLT ISZERO PUSH2 0x2E15 JUMPI PUSH2 0x2E14 PUSH2 0x37EB JUMP JUMPDEST JUMPDEST PUSH1 0x0 PUSH2 0x2E23 DUP6 DUP3 DUP7 ADD PUSH2 0x2D7C JUMP JUMPDEST SWAP3 POP POP PUSH1 0x20 PUSH2 0x2E34 DUP6 DUP3 DUP7 ADD PUSH2 0x2DA6 JUMP JUMPDEST SWAP2 POP POP SWAP3 POP SWAP3 SWAP1 POP JUMP JUMPDEST PUSH1 0x0 DUP1 PUSH1 0x40 DUP4 DUP6 SUB SLT ISZERO PUSH2 0x2E55 JUMPI PUSH2 0x2E54 PUSH2 0x37EB JUMP JUMPDEST JUMPDEST PUSH1 0x0 PUSH2 0x2E63 DUP6 DUP3 DUP7 ADD PUSH2 0x2D7C JUMP JUMPDEST SWAP3 POP POP PUSH1 0x20 PUSH2 0x2E74 DUP6 DUP3 DUP7 ADD PUSH2 0x2DE9 JUMP JUMPDEST SWAP2 POP POP SWAP3 POP SWAP3 SWAP1 POP JUMP JUMPDEST PUSH1 0x0 DUP1 PUSH1 0x0 DUP1 PUSH1 0x0 DUP1 PUSH1 0xC0 DUP8 DUP10 SUB SLT ISZERO PUSH2 0x2E9B JUMPI PUSH2 0x2E9A PUSH2 0x37EB JUMP JUMPDEST JUMPDEST PUSH1 0x0 PUSH2 0x2EA9 DUP10 DUP3 DUP11 ADD PUSH2 0x2D7C JUMP JUMPDEST SWAP7 POP POP PUSH1 0x20 PUSH2 0x2EBA DUP10 DUP3 DUP11 ADD PUSH2 0x2DE9 JUMP JUMPDEST SWAP6 POP POP PUSH1 0x40 PUSH2 0x2ECB DUP10 DUP3 DUP11 ADD PUSH2 0x2DA6 JUMP JUMPDEST SWAP5 POP POP PUSH1 0x60 PUSH2 0x2EDC DUP10 DUP3 DUP11 ADD PUSH2 0x2DE9 JUMP JUMPDEST SWAP4 POP POP PUSH1 0x80 PUSH2 0x2EED DUP10 DUP3 DUP11 ADD PUSH2 0x2DE9 JUMP JUMPDEST SWAP3 POP POP PUSH1 0xA0 PUSH2 0x2EFE DUP10 DUP3 DUP11 ADD PUSH2 0x2DE9 JUMP JUMPDEST SWAP2 POP POP SWAP3 SWAP6 POP SWAP3 SWAP6 POP SWAP3 SWAP6 JUMP JUMPDEST PUSH1 0x0 PUSH1 0x20 DUP3 DUP5 SUB SLT ISZERO PUSH2 0x2F21 JUMPI PUSH2 0x2F20 PUSH2 0x37EB JUMP JUMPDEST JUMPDEST PUSH1 0x0 PUSH2 0x2F2F DUP5 DUP3 DUP6 ADD PUSH2 0x2DA6 JUMP JUMPDEST SWAP2 POP POP SWAP3 SWAP2 POP POP JUMP JUMPDEST PUSH1 0x0 DUP1 PUSH1 0x0 DUP1 PUSH1 0x80 DUP6 DUP8 SUB SLT ISZERO PUSH2 0x2F52 JUMPI PUSH2 0x2F51 PUSH2 0x37EB JUMP JUMPDEST JUMPDEST PUSH1 0x0 PUSH2 0x2F60 DUP8 DUP3 DUP9 ADD PUSH2 0x2DA6 JUMP JUMPDEST SWAP5 POP POP PUSH1 0x20 PUSH2 0x2F71 DUP8 DUP3 DUP9 ADD PUSH2 0x2DE9 JUMP JUMPDEST SWAP4 POP POP PUSH1 0x40 PUSH2 0x2F82 DUP8 DUP3 DUP9 ADD PUSH2 0x2DE9 JUMP JUMPDEST SWAP3 POP POP PUSH1 0x60 PUSH2 0x2F93 DUP8 DUP3 DUP9 ADD PUSH2 0x2DE9 JUMP JUMPDEST SWAP2 POP POP SWAP3 SWAP6 SWAP2 SWAP5 POP SWAP3 POP JUMP JUMPDEST PUSH1 0x0 DUP1 PUSH1 0x0 DUP1 PUSH1 0x80 DUP6 DUP8 SUB SLT ISZERO PUSH2 0x2FB9 JUMPI PUSH2 0x2FB8 PUSH2 0x37EB JUMP JUMPDEST JUMPDEST PUSH1 0x0 DUP6 ADD CALLDATALOAD PUSH8 0xFFFFFFFFFFFFFFFF DUP2 GT ISZERO PUSH2 0x2FD7 JUMPI PUSH2 0x2FD6 PUSH2 0x37E6 JUMP JUMPDEST JUMPDEST PUSH2 0x2FE3 DUP8 DUP3 DUP9 ADD PUSH2 0x2DBB JUMP JUMPDEST SWAP5 POP POP PUSH1 0x20 DUP6 ADD CALLDATALOAD PUSH8 0xFFFFFFFFFFFFFFFF DUP2 GT ISZERO PUSH2 0x3004 JUMPI PUSH2 0x3003 PUSH2 0x37E6 JUMP JUMPDEST JUMPDEST PUSH2 0x3010 DUP8 DUP3 DUP9 ADD PUSH2 0x2DBB JUMP JUMPDEST SWAP4 POP POP PUSH1 0x40 DUP6 ADD CALLDATALOAD PUSH8 0xFFFFFFFFFFFFFFFF DUP2 GT ISZERO PUSH2 0x3031 JUMPI PUSH2 0x3030 PUSH2 0x37E6 JUMP JUMPDEST JUMPDEST PUSH2 0x303D DUP8 DUP3 DUP9 ADD PUSH2 0x2DBB JUMP JUMPDEST SWAP3 POP POP PUSH1 0x60 PUSH2 0x304E DUP8 DUP3 DUP9 ADD PUSH2 0x2D91 JUMP JUMPDEST SWAP2 POP POP SWAP3 SWAP6 SWAP2 SWAP5 POP SWAP3 POP JUMP JUMPDEST PUSH2 0x3063 DUP2 PUSH2 0x359D JUMP JUMPDEST DUP3 MSTORE POP POP JUMP JUMPDEST PUSH2 0x3072 DUP2 PUSH2 0x35AF JUMP JUMPDEST DUP3 MSTORE POP POP JUMP JUMPDEST PUSH2 0x3081 DUP2 PUSH2 0x35BB JUMP JUMPDEST DUP3 MSTORE POP POP JUMP JUMPDEST PUSH2 0x3098 PUSH2 0x3093 DUP3 PUSH2 0x35BB JUMP JUMPDEST PUSH2 0x36DD JUMP JUMPDEST DUP3 MSTORE POP POP JUMP JUMPDEST PUSH1 0x0 PUSH2 0x30A9 DUP3 PUSH2 0x3461 JUMP JUMPDEST PUSH2 0x30B3 DUP2 DUP6 PUSH2 0x346C JUMP JUMPDEST SWAP4 POP PUSH2 0x30C3 DUP2 DUP6 PUSH1 0x20 DUP7 ADD PUSH2 0x35FE JUMP JUMPDEST PUSH2 0x30CC DUP2 PUSH2 0x37F0 JUMP JUMPDEST DUP5 ADD SWAP2 POP POP SWAP3 SWAP2 POP POP JUMP JUMPDEST PUSH1 0x0 PUSH2 0x30E2 DUP3 PUSH2 0x3461 JUMP JUMPDEST PUSH2 0x30EC DUP2 DUP6 PUSH2 0x347D JUMP JUMPDEST SWAP4 POP PUSH2 0x30FC DUP2 DUP6 PUSH1 0x20 DUP7 ADD PUSH2 0x35FE JUMP JUMPDEST DUP1 DUP5 ADD SWAP2 POP POP SWAP3 SWAP2 POP POP JUMP JUMPDEST PUSH1 0x0 PUSH2 0x3115 PUSH1 0x19 DUP4 PUSH2 0x346C JUMP JUMPDEST SWAP2 POP PUSH2 0x3120 DUP3 PUSH2 0x3801 JUMP JUMPDEST PUSH1 0x20 DUP3 ADD SWAP1 POP SWAP2 SWAP1 POP JUMP JUMPDEST PUSH1 0x0 PUSH2 0x3138 PUSH1 0x9 DUP4 PUSH2 0x346C JUMP JUMPDEST SWAP2 POP PUSH2 0x3143 DUP3 PUSH2 0x382A JUMP JUMPDEST PUSH1 0x20 DUP3 ADD SWAP1 POP SWAP2 SWAP1 POP JUMP JUMPDEST PUSH1 0x0 PUSH2 0x315B PUSH1 0xE DUP4 PUSH2 0x346C JUMP JUMPDEST SWAP2 POP PUSH2 0x3166 DUP3 PUSH2 0x3853 JUMP JUMPDEST PUSH1 0x20 DUP3 ADD SWAP1 POP SWAP2 SWAP1 POP JUMP JUMPDEST PUSH1 0x0 PUSH2 0x317E PUSH1 0xA DUP4 PUSH2 0x346C JUMP JUMPDEST SWAP2 POP PUSH2 0x3189 DUP3 PUSH2 0x387C JUMP JUMPDEST PUSH1 0x20 DUP3 ADD SWAP1 POP SWAP2 SWAP1 POP JUMP JUMPDEST PUSH1 0x0 PUSH2 0x31A1 PUSH1 0x15 DUP4 PUSH2 0x346C JUMP JUMPDEST SWAP2 POP PUSH2 0x31AC DUP3 PUSH2 0x38A5 JUMP JUMPDEST PUSH1 0x20 DUP3 ADD SWAP1 POP SWAP2 SWAP1 POP JUMP JUMPDEST PUSH1 0x0 PUSH2 0x31C4 PUSH1 0x15 DUP4 PUSH2 0x346C JUMP JUMPDEST SWAP2 POP PUSH2 0x31CF DUP3 PUSH2 0x38CE JUMP JUMPDEST PUSH1 0x20 DUP3 ADD SWAP1 POP SWAP2 SWAP1 POP JUMP JUMPDEST PUSH2 0x31E3 DUP2 PUSH2 0x35E5 JUMP JUMPDEST DUP3 MSTORE POP POP JUMP JUMPDEST PUSH2 0x31FA PUSH2 0x31F5 DUP3 PUSH2 0x35E5 JUMP JUMPDEST PUSH2 0x36E7 JUMP JUMPDEST DUP3 MSTORE POP POP JUMP JUMPDEST PUSH1 0x0 PUSH2 0x320C DUP3 DUP5 PUSH2 0x3087 JUMP JUMPDEST PUSH1 0x20 DUP3 ADD SWAP2 POP DUP2 SWAP1 POP SWAP3 SWAP2 POP POP JUMP JUMPDEST PUSH1 0x0 PUSH2 0x3227 DUP3 DUP5 PUSH2 0x30D7 JUMP JUMPDEST SWAP2 POP DUP2 SWAP1 POP SWAP3 SWAP2 POP POP JUMP JUMPDEST PUSH1 0x0 PUSH2 0x323E DUP3 DUP5 PUSH2 0x31E9 JUMP JUMPDEST PUSH1 0x20 DUP3 ADD SWAP2 POP DUP2 SWAP1 POP SWAP3 SWAP2 POP POP JUMP JUMPDEST PUSH1 0x0 PUSH1 0x40 DUP3 ADD SWAP1 POP PUSH2 0x3262 PUSH1 0x0 DUP4 ADD DUP6 PUSH2 0x305A JUMP JUMPDEST PUSH2 0x326F PUSH1 0x20 DUP4 ADD DUP5 PUSH2 0x31DA JUMP JUMPDEST SWAP4 SWAP3 POP POP POP JUMP JUMPDEST PUSH1 0x0 PUSH1 0x20 DUP3 ADD SWAP1 POP PUSH2 0x328B PUSH1 0x0 DUP4 ADD DUP5 PUSH2 0x3069 JUMP JUMPDEST SWAP3 SWAP2 POP POP JUMP JUMPDEST PUSH1 0x0 PUSH1 0x20 DUP3 ADD SWAP1 POP PUSH2 0x32A6 PUSH1 0x0 DUP4 ADD DUP5 PUSH2 0x3078 JUMP JUMPDEST SWAP3 SWAP2 POP POP JUMP JUMPDEST PUSH1 0x0 PUSH1 0xE0 DUP3 ADD SWAP1 POP DUP2 DUP2 SUB PUSH1 0x0 DUP4 ADD MSTORE PUSH2 0x32C6 DUP2 DUP11 PUSH2 0x309E JUMP JUMPDEST SWAP1 POP DUP2 DUP2 SUB PUSH1 0x20 DUP4 ADD MSTORE PUSH2 0x32DA DUP2 DUP10 PUSH2 0x309E JUMP JUMPDEST SWAP1 POP DUP2 DUP2 SUB PUSH1 0x40 DUP4 ADD MSTORE PUSH2 0x32EE DUP2 DUP9 PUSH2 0x309E JUMP JUMPDEST SWAP1 POP PUSH2 0x32FD PUSH1 0x60 DUP4 ADD DUP8 PUSH2 0x31DA JUMP JUMPDEST PUSH2 0x330A PUSH1 0x80 DUP4 ADD DUP7 PUSH2 0x31DA JUMP JUMPDEST PUSH2 0x3317 PUSH1 0xA0 DUP4 ADD DUP6 PUSH2 0x31DA JUMP JUMPDEST PUSH2 0x3324 PUSH1 0xC0 DUP4 ADD DUP5 PUSH2 0x31DA JUMP JUMPDEST SWAP9 SWAP8 POP POP POP POP POP POP POP POP JUMP JUMPDEST PUSH1 0x0 PUSH1 0x20 DUP3 ADD SWAP1 POP DUP2 DUP2 SUB PUSH1 0x0 DUP4 ADD MSTORE PUSH2 0x3349 DUP2 PUSH2 0x3108 JUMP JUMPDEST SWAP1 POP SWAP2 SWAP1 POP JUMP JUMPDEST PUSH1 0x0 PUSH1 0x20 DUP3 ADD SWAP1 POP DUP2 DUP2 SUB PUSH1 0x0 DUP4 ADD MSTORE PUSH2 0x3369 DUP2 PUSH2 0x312B JUMP JUMPDEST SWAP1 POP SWAP2 SWAP1 POP JUMP JUMPDEST PUSH1 0x0 PUSH1 0x20 DUP3 ADD SWAP1 POP DUP2 DUP2 SUB PUSH1 0x0 DUP4 ADD MSTORE PUSH2 0x3389 DUP2 PUSH2 0x314E JUMP JUMPDEST SWAP1 POP SWAP2 SWAP1 POP JUMP JUMPDEST PUSH1 0x0 PUSH1 0x20 DUP3 ADD SWAP1 POP DUP2 DUP2 SUB PUSH1 0x0 DUP4 ADD MSTORE PUSH2 0x33A9 DUP2 PUSH2 0x3171 JUMP JUMPDEST SWAP1 POP SWAP2 SWAP1 POP JUMP JUMPDEST PUSH1 0x0 PUSH1 0x20 DUP3 ADD SWAP1 POP DUP2 DUP2 SUB PUSH1 0x0 DUP4 ADD MSTORE PUSH2 0x33C9 DUP2 PUSH2 0x3194 JUMP JUMPDEST SWAP1 POP SWAP2 SWAP1 POP JUMP JUMPDEST PUSH1 0x0 PUSH1 0x20 DUP3 ADD SWAP1 POP DUP2 DUP2 SUB PUSH1 0x0 DUP4 ADD MSTORE PUSH2 0x33E9 DUP2 PUSH2 0x31B7 JUMP JUMPDEST SWAP1 POP SWAP2 SWAP1 POP JUMP JUMPDEST PUSH1 0x0 PUSH1 0x20 DUP3 ADD SWAP1 POP PUSH2 0x3405 PUSH1 0x0 DUP4 ADD DUP5 PUSH2 0x31DA JUMP JUMPDEST SWAP3 SWAP2 POP POP JUMP JUMPDEST PUSH1 0x0 PUSH2 0x3415 PUSH2 0x3426 JUMP JUMPDEST SWAP1 POP PUSH2 0x3421 DUP3 DUP3 PUSH2 0x3663 JUMP JUMPDEST SWAP2 SWAP1 POP JUMP JUMPDEST PUSH1 0x0 PUSH1 0x40 MLOAD SWAP1 POP SWAP1 JUMP JUMPDEST PUSH1 0x0 PUSH8 0xFFFFFFFFFFFFFFFF DUP3 GT ISZERO PUSH2 0x344B JUMPI PUSH2 0x344A PUSH2 0x37AD JUMP JUMPDEST JUMPDEST PUSH2 0x3454 DUP3 PUSH2 0x37F0 JUMP JUMPDEST SWAP1 POP PUSH1 0x20 DUP2 ADD SWAP1 POP SWAP2 SWAP1 POP JUMP JUMPDEST PUSH1 0x0 DUP2 MLOAD SWAP1 POP SWAP2 SWAP1 POP JUMP JUMPDEST PUSH1 0x0 DUP3 DUP3 MSTORE PUSH1 0x20 DUP3 ADD SWAP1 POP SWAP3 SWAP2 POP POP JUMP JUMPDEST PUSH1 0x0 DUP2 SWAP1 POP SWAP3 SWAP2 POP POP JUMP JUMPDEST PUSH1 0x0 PUSH2 0x3493 DUP3 PUSH2 0x35E5 JUMP JUMPDEST SWAP2 POP PUSH2 0x349E DUP4 PUSH2 0x35E5 JUMP JUMPDEST SWAP3 POP DUP3 PUSH32 0xFFFFFFFFFFFFFFFFFFFFFFFFFFFFFFFFFFFFFFFFFFFFFFFFFFFFFFFFFFFFFFFF SUB DUP3 GT ISZERO PUSH2 0x34D3 JUMPI PUSH2 0x34D2 PUSH2 0x36F1 JUMP JUMPDEST JUMPDEST DUP3 DUP3 ADD SWAP1 POP SWAP3 SWAP2 POP POP JUMP JUMPDEST PUSH1 0x0 PUSH2 0x34E9 DUP3 PUSH2 0x35E5 JUMP JUMPDEST SWAP2 POP PUSH2 0x34F4 DUP4 PUSH2 0x35E5 JUMP JUMPDEST SWAP3 POP DUP3 PUSH2 0x3504 JUMPI PUSH2 0x3503 PUSH2 0x3720 JUMP JUMPDEST JUMPDEST DUP3 DUP3 DIV SWAP1 POP SWAP3 SWAP2 POP POP JUMP JUMPDEST PUSH1 0x0 PUSH2 0x351A DUP3 PUSH2 0x35E5 JUMP JUMPDEST SWAP2 POP PUSH2 0x3525 DUP4 PUSH2 0x35E5 JUMP JUMPDEST SWAP3 POP DUP2 PUSH32 0xFFFFFFFFFFFFFFFFFFFFFFFFFFFFFFFFFFFFFFFFFFFFFFFFFFFFFFFFFFFFFFFF DIV DUP4 GT DUP3 ISZERO ISZERO AND ISZERO PUSH2 0x355E JUMPI PUSH2 0x355D PUSH2 0x36F1 JUMP JUMPDEST JUMPDEST DUP3 DUP3 MUL SWAP1 POP SWAP3 SWAP2 POP POP JUMP JUMPDEST PUSH1 0x0 PUSH2 0x3574 DUP3 PUSH2 0x35E5 JUMP JUMPDEST SWAP2 POP PUSH2 0x357F DUP4 PUSH2 0x35E5 JUMP JUMPDEST SWAP3 POP DUP3 DUP3 LT ISZERO PUSH2 0x3592 JUMPI PUSH2 0x3591 PUSH2 0x36F1 JUMP JUMPDEST JUMPDEST DUP3 DUP3 SUB SWAP1 POP SWAP3 SWAP2 POP POP JUMP JUMPDEST PUSH1 0x0 PUSH2 0x35A8 DUP3 PUSH2 0x35C5 JUMP JUMPDEST SWAP1 POP SWAP2 SWAP1 POP JUMP JUMPDEST PUSH1 0x0 DUP2 ISZERO ISZERO SWAP1 POP SWAP2 SWAP1 POP JUMP JUMPDEST PUSH1 0x0 DUP2 SWAP1 POP SWAP2 SWAP1 POP JUMP JUMPDEST PUSH1 0x0 PUSH20 0xFFFFFFFFFFFFFFFFFFFFFFFFFFFFFFFFFFFFFFFF DUP3 AND SWAP1 POP SWAP2 SWAP1 POP JUMP JUMPDEST PUSH1 0x0 DUP2 SWAP1 POP SWAP2 SWAP1 POP JUMP JUMPDEST DUP3 DUP2 DUP4 CALLDATACOPY PUSH1 0x0 DUP4 DUP4 ADD MSTORE POP POP POP JUMP JUMPDEST PUSH1 0x0 JUMPDEST DUP4 DUP2 LT ISZERO PUSH2 0x361C JUMPI DUP1 DUP3 ADD MLOAD DUP2 DUP5 ADD MSTORE PUSH1 0x20 DUP2 ADD SWAP1 POP PUSH2 0x3601 JUMP JUMPDEST DUP4 DUP2 GT ISZERO PUSH2 0x362B JUMPI PUSH1 0x0 DUP5 DUP5 ADD MSTORE JUMPDEST POP POP POP POP JUMP JUMPDEST PUSH1 0x0 PUSH1 0x2 DUP3 DIV SWAP1 POP PUSH1 0x1 DUP3 AND DUP1 PUSH2 0x3649 JUMPI PUSH1 0x7F DUP3 AND SWAP2 POP JUMPDEST PUSH1 0x20 DUP3 LT DUP2 EQ ISZERO PUSH2 0x365D JUMPI PUSH2 0x365C PUSH2 0x374F JUMP JUMPDEST JUMPDEST POP SWAP2 SWAP1 POP JUMP JUMPDEST PUSH2 0x366C DUP3 PUSH2 0x37F0 JUMP JUMPDEST DUP2 ADD DUP2 DUP2 LT PUSH8 0xFFFFFFFFFFFFFFFF DUP3 GT OR ISZERO PUSH2 0x368B JUMPI PUSH2 0x368A PUSH2 0x37AD JUMP JUMPDEST JUMPDEST DUP1 PUSH1 0x40 MSTORE POP POP POP JUMP JUMPDEST PUSH1 0x0 PUSH2 0x369F DUP3 PUSH2 0x35E5 JUMP JUMPDEST SWAP2 POP PUSH32 0xFFFFFFFFFFFFFFFFFFFFFFFFFFFFFFFFFFFFFFFFFFFFFFFFFFFFFFFFFFFFFFFF DUP3 EQ ISZERO PUSH2 0x36D2 JUMPI PUSH2 0x36D1 PUSH2 0x36F1 JUMP JUMPDEST JUMPDEST PUSH1 0x1 DUP3 ADD SWAP1 POP SWAP2 SWAP1 POP JUMP JUMPDEST PUSH1 0x0 DUP2 SWAP1 POP SWAP2 SWAP1 POP JUMP JUMPDEST PUSH1 0x0 DUP2 SWAP1 POP SWAP2 SWAP1 POP JUMP JUMPDEST PUSH32 0x4E487B7100000000000000000000000000000000000000000000000000000000 PUSH1 0x0 MSTORE PUSH1 0x11 PUSH1 0x4 MSTORE PUSH1 0x24 PUSH1 0x0 REVERT JUMPDEST PUSH32 0x4E487B7100000000000000000000000000000000000000000000000000000000 PUSH1 0x0 MSTORE PUSH1 0x12 PUSH1 0x4 MSTORE PUSH1 0x24 PUSH1 0x0 REVERT JUMPDEST PUSH32 0x4E487B7100000000000000000000000000000000000000000000000000000000 PUSH1 0x0 MSTORE PUSH1 0x22 PUSH1 0x4 MSTORE PUSH1 0x24 PUSH1 0x0 REVERT JUMPDEST PUSH32 0x4E487B7100000000000000000000000000000000000000000000000000000000 PUSH1 0x0 MSTORE PUSH1 0x32 PUSH1 0x4 MSTORE PUSH1 0x24 PUSH1 0x0 REVERT JUMPDEST PUSH32 0x4E487B7100000000000000000000000000000000000000000000000000000000 PUSH1 0x0 MSTORE PUSH1 0x41 PUSH1 0x4 MSTORE PUSH1 0x24 PUSH1 0x0 REVERT JUMPDEST PUSH1 0x0 DUP1 REVERT JUMPDEST PUSH1 0x0 DUP1 REVERT JUMPDEST PUSH1 0x0 DUP1 REVERT JUMPDEST PUSH1 0x0 DUP1 REVERT JUMPDEST PUSH1 0x0 PUSH1 0x1F NOT PUSH1 0x1F DUP4 ADD AND SWAP1 POP SWAP2 SWAP1 POP JUMP JUMPDEST PUSH32 0x4F6E6C79206F776E65722063616E2063616C6C20746869732E00000000000000 PUSH1 0x0 DUP3 ADD MSTORE POP JUMP JUMPDEST PUSH32 0x6E6F742065786973740000000000000000000000000000000000000000000000 PUSH1 0x0 DUP3 ADD MSTORE POP JUMP JUMPDEST PUSH32 0x706F6F6C206E6F74206578697374000000000000000000000000000000000000 PUSH1 0x0 DUP3 ADD MSTORE POP JUMP JUMPDEST PUSH32 0x7061697220657869737400000000000000000000000000000000000000000000 PUSH1 0x0 DUP3 ADD MSTORE POP JUMP JUMPDEST PUSH32 0x706F6F6C20686173206E6F742066696E69736865640000000000000000000000 PUSH1 0x0 DUP3 ADD MSTORE POP JUMP JUMPDEST PUSH32 0x6E6F7420656E6F75676820766F7465416D6F756E740000000000000000000000 PUSH1 0x0 DUP3 ADD MSTORE POP JUMP JUMPDEST PUSH2 0x3900 DUP2 PUSH2 0x359D JUMP JUMPDEST DUP2 EQ PUSH2 0x390B JUMPI PUSH1 0x0 DUP1 REVERT JUMPDEST POP JUMP JUMPDEST PUSH2 0x3917 DUP2 PUSH2 0x35AF JUMP JUMPDEST DUP2 EQ PUSH2 0x3922 JUMPI PUSH1 0x0 DUP1 REVERT JUMPDEST POP JUMP JUMPDEST PUSH2 0x392E DUP2 PUSH2 0x35BB JUMP JUMPDEST DUP2 EQ PUSH2 0x3939 JUMPI PUSH1 0x0 DUP1 REVERT JUMPDEST POP JUMP JUMPDEST PUSH2 0x3945 DUP2 PUSH2 0x35E5 JUMP JUMPDEST DUP2 EQ PUSH2 0x3950 JUMPI PUSH1 0x0 DUP1 REVERT JUMPDEST POP JUMP INVALID LOG2 PUSH5 0x6970667358 0x22 SLT KECCAK256 CHAINID DUP7 0xD9 0xCE DUP10 0xAC 0xAF 0xDF 0xC4 SWAP5 BASEFEE CODECOPY PUSH7 0x804372F4A1D351 GAS 0xE4 0xFC MOD JUMPI CODECOPY MUL 0xB7 0xB0 0xE2 0xFC GASLIMIT PUSH5 0x736F6C6343 STOP ADDMOD SMOD STOP CALLER "
				},
				"gasEstimates": {
					"creation": {
						"codeDepositCost": "2945800",
						"executionCost": "infinite",
						"totalCost": "infinite"
					},
					"external": {
						"Award(bytes32,uint256,uint256,uint256)": "infinite",
						"CheckExpect(bytes32)": "infinite",
						"Picking(address,uint256,bytes32,uint256,uint256,uint256)": "infinite",
						"Set_Basal(bytes32)": "infinite",
						"Set_Pool(string,string,string,bool)": "infinite",
						"Withdrawal(address,bytes32)": "infinite",
						"getPair(bytes32)": "infinite",
						"voteWithdrawal(address,uint256)": "infinite"
					},
					"internal": {
						"addressToString(address)": "infinite",
						"bytes32ToString(bytes32)": "infinite",
						"contains(bytes32)": "2304",
						"strConcat(string memory,string memory)": "infinite",
						"stringCompare(string memory,string memory)": "infinite",
						"toString(bytes memory)": "infinite",
						"uint256ToString(uint256)": "infinite"
					}
				},
				"methodIdentifiers": {
					"Award(bytes32,uint256,uint256,uint256)": "74fe9bc2",
					"CheckExpect(bytes32)": "4121855f",
					"Picking(address,uint256,bytes32,uint256,uint256,uint256)": "47e4dd27",
					"Set_Basal(bytes32)": "742f8a77",
					"Set_Pool(string,string,string,bool)": "357965ba",
					"Withdrawal(address,bytes32)": "0ce49053",
					"getPair(bytes32)": "b8e5303d",
					"voteWithdrawal(address,uint256)": "9bd0abf1"
				}
			},
			"storageLayout": {
				"storage": [
					{
						"astId": 185,
						"contract": "wwcc-contracts/contracts/wwccPool.sol:WCPOOL",
						"label": "owner",
						"offset": 0,
						"slot": "0",
						"type": "t_address"
					},
					{
						"astId": 189,
						"contract": "wwcc-contracts/contracts/wwccPool.sol:WCPOOL",
						"label": "scorePools",
						"offset": 0,
						"slot": "1",
						"type": "t_mapping(t_string_memory_ptr,t_uint256)"
					},
					{
						"astId": 194,
						"contract": "wwcc-contracts/contracts/wwccPool.sol:WCPOOL",
						"label": "allScorePoolInfo",
						"offset": 0,
						"slot": "2",
						"type": "t_mapping(t_bytes32,t_struct(AllScorePool)158_storage)"
					},
					{
						"astId": 198,
						"contract": "wwcc-contracts/contracts/wwccPool.sol:WCPOOL",
						"label": "singleScorePool",
						"offset": 0,
						"slot": "3",
						"type": "t_mapping(t_string_memory_ptr,t_uint256)"
					},
					{
						"astId": 203,
						"contract": "wwcc-contracts/contracts/wwccPool.sol:WCPOOL",
						"label": "joinerAllPicking",
						"offset": 0,
						"slot": "4",
						"type": "t_mapping(t_address,t_struct(JoinerAllPicking)165_storage)"
					},
					{
						"astId": 207,
						"contract": "wwcc-contracts/contracts/wwccPool.sol:WCPOOL",
						"label": "voteAmount",
						"offset": 0,
						"slot": "5",
						"type": "t_mapping(t_address,t_uint256)"
					},
					{
						"astId": 212,
						"contract": "wwcc-contracts/contracts/wwccPool.sol:WCPOOL",
						"label": "WcPools",
						"offset": 0,
						"slot": "6",
						"type": "t_mapping(t_bytes32,t_struct(WcPool)151_storage)"
					}
				],
				"types": {
					"t_address": {
						"encoding": "inplace",
						"label": "address",
						"numberOfBytes": "20"
					},
					"t_array(t_struct(JoinerPicking)180_storage)dyn_storage": {
						"base": "t_struct(JoinerPicking)180_storage",
						"encoding": "dynamic_array",
						"label": "struct WCPOOL.JoinerPicking[]",
						"numberOfBytes": "32"
					},
					"t_bool": {
						"encoding": "inplace",
						"label": "bool",
						"numberOfBytes": "1"
					},
					"t_bytes32": {
						"encoding": "inplace",
						"label": "bytes32",
						"numberOfBytes": "32"
					},
					"t_mapping(t_address,t_struct(JoinerAllPicking)165_storage)": {
						"encoding": "mapping",
						"key": "t_address",
						"label": "mapping(address => struct WCPOOL.JoinerAllPicking)",
						"numberOfBytes": "32",
						"value": "t_struct(JoinerAllPicking)165_storage"
					},
					"t_mapping(t_address,t_uint256)": {
						"encoding": "mapping",
						"key": "t_address",
						"label": "mapping(address => uint256)",
						"numberOfBytes": "32",
						"value": "t_uint256"
					},
					"t_mapping(t_bytes32,t_struct(AllScorePool)158_storage)": {
						"encoding": "mapping",
						"key": "t_bytes32",
						"label": "mapping(bytes32 => struct WCPOOL.AllScorePool)",
						"numberOfBytes": "32",
						"value": "t_struct(AllScorePool)158_storage"
					},
					"t_mapping(t_bytes32,t_struct(WcPool)151_storage)": {
						"encoding": "mapping",
						"key": "t_bytes32",
						"label": "mapping(bytes32 => struct WCPOOL.WcPool)",
						"numberOfBytes": "32",
						"value": "t_struct(WcPool)151_storage"
					},
					"t_mapping(t_string_memory_ptr,t_uint256)": {
						"encoding": "mapping",
						"key": "t_string_memory_ptr",
						"label": "mapping(string => uint256)",
						"numberOfBytes": "32",
						"value": "t_uint256"
					},
					"t_string_memory_ptr": {
						"encoding": "bytes",
						"label": "string",
						"numberOfBytes": "32"
					},
					"t_string_storage": {
						"encoding": "bytes",
						"label": "string",
						"numberOfBytes": "32"
					},
					"t_struct(AllScorePool)158_storage": {
						"encoding": "inplace",
						"label": "struct WCPOOL.AllScorePool",
						"members": [
							{
								"astId": 155,
								"contract": "wwcc-contracts/contracts/wwccPool.sol:WCPOOL",
								"label": "separateBet",
								"offset": 0,
								"slot": "0",
								"type": "t_array(t_struct(JoinerPicking)180_storage)dyn_storage"
							},
							{
								"astId": 157,
								"contract": "wwcc-contracts/contracts/wwccPool.sol:WCPOOL",
								"label": "poolKey",
								"offset": 0,
								"slot": "1",
								"type": "t_bytes32"
							}
						],
						"numberOfBytes": "64"
					},
					"t_struct(JoinerAllPicking)165_storage": {
						"encoding": "inplace",
						"label": "struct WCPOOL.JoinerAllPicking",
						"members": [
							{
								"astId": 162,
								"contract": "wwcc-contracts/contracts/wwccPool.sol:WCPOOL",
								"label": "separateBet",
								"offset": 0,
								"slot": "0",
								"type": "t_array(t_struct(JoinerPicking)180_storage)dyn_storage"
							},
							{
								"astId": 164,
								"contract": "wwcc-contracts/contracts/wwccPool.sol:WCPOOL",
								"label": "joiner",
								"offset": 0,
								"slot": "1",
								"type": "t_address"
							}
						],
						"numberOfBytes": "64"
					},
					"t_struct(JoinerPicking)180_storage": {
						"encoding": "inplace",
						"label": "struct WCPOOL.JoinerPicking",
						"members": [
							{
								"astId": 167,
								"contract": "wwcc-contracts/contracts/wwccPool.sol:WCPOOL",
								"label": "weight",
								"offset": 0,
								"slot": "0",
								"type": "t_uint256"
							},
							{
								"astId": 169,
								"contract": "wwcc-contracts/contracts/wwccPool.sol:WCPOOL",
								"label": "kind",
								"offset": 0,
								"slot": "1",
								"type": "t_uint256"
							},
							{
								"astId": 171,
								"contract": "wwcc-contracts/contracts/wwccPool.sol:WCPOOL",
								"label": "homeScore",
								"offset": 0,
								"slot": "2",
								"type": "t_uint256"
							},
							{
								"astId": 173,
								"contract": "wwcc-contracts/contracts/wwccPool.sol:WCPOOL",
								"label": "visitScore",
								"offset": 0,
								"slot": "3",
								"type": "t_uint256"
							},
							{
								"astId": 175,
								"contract": "wwcc-contracts/contracts/wwccPool.sol:WCPOOL",
								"label": "joiner",
								"offset": 0,
								"slot": "4",
								"type": "t_address"
							},
							{
								"astId": 177,
								"contract": "wwcc-contracts/contracts/wwccPool.sol:WCPOOL",
								"label": "pickingKey",
								"offset": 0,
								"slot": "5",
								"type": "t_string_storage"
							},
							{
								"astId": 179,
								"contract": "wwcc-contracts/contracts/wwccPool.sol:WCPOOL",
								"label": "finished",
								"offset": 0,
								"slot": "6",
								"type": "t_bool"
							}
						],
						"numberOfBytes": "224"
					},
					"t_struct(WcPool)151_storage": {
						"encoding": "inplace",
						"label": "struct WCPOOL.WcPool",
						"members": [
							{
								"astId": 132,
								"contract": "wwcc-contracts/contracts/wwccPool.sol:WCPOOL",
								"label": "home",
								"offset": 0,
								"slot": "0",
								"type": "t_string_storage"
							},
							{
								"astId": 134,
								"contract": "wwcc-contracts/contracts/wwccPool.sol:WCPOOL",
								"label": "visit",
								"offset": 0,
								"slot": "1",
								"type": "t_string_storage"
							},
							{
								"astId": 136,
								"contract": "wwcc-contracts/contracts/wwccPool.sol:WCPOOL",
								"label": "rounds",
								"offset": 0,
								"slot": "2",
								"type": "t_string_storage"
							},
							{
								"astId": 138,
								"contract": "wwcc-contracts/contracts/wwccPool.sol:WCPOOL",
								"label": "wPool",
								"offset": 0,
								"slot": "3",
								"type": "t_uint256"
							},
							{
								"astId": 140,
								"contract": "wwcc-contracts/contracts/wwccPool.sol:WCPOOL",
								"label": "dPool",
								"offset": 0,
								"slot": "4",
								"type": "t_uint256"
							},
							{
								"astId": 142,
								"contract": "wwcc-contracts/contracts/wwccPool.sol:WCPOOL",
								"label": "lPool",
								"offset": 0,
								"slot": "5",
								"type": "t_uint256"
							},
							{
								"astId": 144,
								"contract": "wwcc-contracts/contracts/wwccPool.sol:WCPOOL",
								"label": "sPool",
								"offset": 0,
								"slot": "6",
								"type": "t_uint256"
							},
							{
								"astId": 146,
								"contract": "wwcc-contracts/contracts/wwccPool.sol:WCPOOL",
								"label": "decided",
								"offset": 0,
								"slot": "7",
								"type": "t_bool"
							},
							{
								"astId": 148,
								"contract": "wwcc-contracts/contracts/wwccPool.sol:WCPOOL",
								"label": "used",
								"offset": 1,
								"slot": "7",
								"type": "t_bool"
							},
							{
								"astId": 150,
								"contract": "wwcc-contracts/contracts/wwccPool.sol:WCPOOL",
								"label": "finished",
								"offset": 2,
								"slot": "7",
								"type": "t_bool"
							}
						],
						"numberOfBytes": "256"
					},
					"t_uint256": {
						"encoding": "inplace",
						"label": "uint256",
						"numberOfBytes": "32"
					}
				}
			},
			"userdoc": {
				"kind": "user",
				"methods": {},
				"version": 1
			}
		}
	}
}