{
	"wwcc-contracts/contracts/wwccPool.sol": {
		"WCPOOL": {
			"abi": [
				{
					"inputs": [
						{
							"internalType": "address",
							"name": "holder",
							"type": "address"
						}
					],
					"stateMutability": "nonpayable",
					"type": "constructor"
				},
				{
					"anonymous": false,
					"inputs": [
						{
							"indexed": false,
							"internalType": "address",
							"name": "owner",
							"type": "address"
						},
						{
							"indexed": false,
							"internalType": "address",
							"name": "spender",
							"type": "address"
						},
						{
							"indexed": false,
							"internalType": "uint256",
							"name": "value",
							"type": "uint256"
						}
					],
					"name": "Approval",
					"type": "event"
				},
				{
					"anonymous": false,
					"inputs": [
						{
							"indexed": false,
							"internalType": "address",
							"name": "owner",
							"type": "address"
						},
						{
							"indexed": false,
							"internalType": "address",
							"name": "spender",
							"type": "address"
						},
						{
							"indexed": false,
							"internalType": "uint256",
							"name": "value",
							"type": "uint256"
						}
					],
					"name": "Transfer",
					"type": "event"
				},
				{
					"inputs": [
						{
							"internalType": "bytes32",
							"name": "poolKey",
							"type": "bytes32"
						},
						{
							"internalType": "uint256",
							"name": "homeScore",
							"type": "uint256"
						},
						{
							"internalType": "uint256",
							"name": "visitScore",
							"type": "uint256"
						},
						{
							"internalType": "uint256",
							"name": "result",
							"type": "uint256"
						}
					],
					"name": "Award",
					"outputs": [
						{
							"internalType": "bool",
							"name": "",
							"type": "bool"
						}
					],
					"stateMutability": "payable",
					"type": "function"
				},
				{
					"inputs": [
						{
							"internalType": "address",
							"name": "joiner",
							"type": "address"
						},
						{
							"internalType": "uint256",
							"name": "weight",
							"type": "uint256"
						},
						{
							"internalType": "bytes32",
							"name": "poolKey",
							"type": "bytes32"
						},
						{
							"internalType": "uint256",
							"name": "homeScore",
							"type": "uint256"
						},
						{
							"internalType": "uint256",
							"name": "visitScore",
							"type": "uint256"
						},
						{
							"internalType": "uint256",
							"name": "kind",
							"type": "uint256"
						}
					],
					"name": "Picking",
					"outputs": [
						{
							"internalType": "bool",
							"name": "",
							"type": "bool"
						}
					],
					"stateMutability": "nonpayable",
					"type": "function"
				},
				{
					"inputs": [
						{
							"internalType": "string",
							"name": "home",
							"type": "string"
						},
						{
							"internalType": "string",
							"name": "visit",
							"type": "string"
						},
						{
							"internalType": "string",
							"name": "rounds",
							"type": "string"
						},
						{
							"internalType": "bool",
							"name": "decided",
							"type": "bool"
						}
					],
					"name": "Set_Pool",
					"outputs": [
						{
							"internalType": "bytes32",
							"name": "",
							"type": "bytes32"
						}
					],
					"stateMutability": "nonpayable",
					"type": "function"
				},
				{
					"inputs": [
						{
							"internalType": "bytes32",
							"name": "poolKey",
							"type": "bytes32"
						}
					],
					"name": "getPair",
					"outputs": [
						{
							"internalType": "string",
							"name": "home",
							"type": "string"
						},
						{
							"internalType": "string",
							"name": "visit",
							"type": "string"
						},
						{
							"internalType": "string",
							"name": "rounds",
							"type": "string"
						},
						{
							"internalType": "uint256",
							"name": "wPool",
							"type": "uint256"
						},
						{
							"internalType": "uint256",
							"name": "dPool",
							"type": "uint256"
						},
						{
							"internalType": "uint256",
							"name": "lPool",
							"type": "uint256"
						},
						{
							"internalType": "uint256",
							"name": "sPool",
							"type": "uint256"
						}
					],
					"stateMutability": "view",
					"type": "function"
				}
			],
			"devdoc": {
				"kind": "dev",
				"methods": {},
				"version": 1
			},
			"evm": {
				"assembly": "    /* \"wwcc-contracts/contracts/wwccPool.sol\":96:9007  contract WCPOOL {... */\n  mstore(0x40, 0x80)\n    /* \"wwcc-contracts/contracts/wwccPool.sol\":1388:1580  constructor(... */\n  callvalue\n  dup1\n  iszero\n  tag_1\n  jumpi\n  0x00\n  dup1\n  revert\ntag_1:\n  pop\n  mload(0x40)\n  sub(codesize, bytecodeSize)\n  dup1\n  bytecodeSize\n  dup4\n  codecopy\n  dup2\n  dup2\n  add\n  0x40\n  mstore\n  dup2\n  add\n  swap1\n  tag_2\n  swap2\n  swap1\n  tag_3\n  jump\t// in\ntag_2:\n    /* \"wwcc-contracts/contracts/wwccPool.sol\":1497:1503  holder */\n  dup1\n    /* \"wwcc-contracts/contracts/wwccPool.sol\":1489:1494  owner */\n  0x00\n  dup1\n    /* \"wwcc-contracts/contracts/wwccPool.sol\":1489:1503  owner = holder */\n  0x0100\n  exp\n  dup2\n  sload\n  dup2\n  0xffffffffffffffffffffffffffffffffffffffff\n  mul\n  not\n  and\n  swap1\n  dup4\n  0xffffffffffffffffffffffffffffffffffffffff\n  and\n  mul\n  or\n  swap1\n  sstore\n  pop\n    /* \"wwcc-contracts/contracts/wwccPool.sol\":1388:1580  constructor(... */\n  pop\n    /* \"wwcc-contracts/contracts/wwccPool.sol\":96:9007  contract WCPOOL {... */\n  jump(tag_6)\n    /* \"#utility.yul\":7:150   */\ntag_8:\n    /* \"#utility.yul\":64:69   */\n  0x00\n    /* \"#utility.yul\":95:101   */\n  dup2\n    /* \"#utility.yul\":89:102   */\n  mload\n    /* \"#utility.yul\":80:102   */\n  swap1\n  pop\n    /* \"#utility.yul\":111:144   */\n  tag_10\n    /* \"#utility.yul\":138:143   */\n  dup2\n    /* \"#utility.yul\":111:144   */\n  tag_11\n  jump\t// in\ntag_10:\n    /* \"#utility.yul\":7:150   */\n  swap3\n  swap2\n  pop\n  pop\n  jump\t// out\n    /* \"#utility.yul\":156:507   */\ntag_3:\n    /* \"#utility.yul\":226:232   */\n  0x00\n    /* \"#utility.yul\":275:277   */\n  0x20\n    /* \"#utility.yul\":263:272   */\n  dup3\n    /* \"#utility.yul\":254:261   */\n  dup5\n    /* \"#utility.yul\":250:273   */\n  sub\n    /* \"#utility.yul\":246:278   */\n  slt\n    /* \"#utility.yul\":243:362   */\n  iszero\n  tag_13\n  jumpi\n    /* \"#utility.yul\":281:360   */\n  tag_14\n  tag_15\n  jump\t// in\ntag_14:\n    /* \"#utility.yul\":243:362   */\ntag_13:\n    /* \"#utility.yul\":401:402   */\n  0x00\n    /* \"#utility.yul\":426:490   */\n  tag_16\n    /* \"#utility.yul\":482:489   */\n  dup5\n    /* \"#utility.yul\":473:479   */\n  dup3\n    /* \"#utility.yul\":462:471   */\n  dup6\n    /* \"#utility.yul\":458:480   */\n  add\n    /* \"#utility.yul\":426:490   */\n  tag_8\n  jump\t// in\ntag_16:\n    /* \"#utility.yul\":416:490   */\n  swap2\n  pop\n    /* \"#utility.yul\":372:500   */\n  pop\n    /* \"#utility.yul\":156:507   */\n  swap3\n  swap2\n  pop\n  pop\n  jump\t// out\n    /* \"#utility.yul\":594:690   */\ntag_19:\n    /* \"#utility.yul\":631:638   */\n  0x00\n    /* \"#utility.yul\":660:684   */\n  tag_21\n    /* \"#utility.yul\":678:683   */\n  dup3\n    /* \"#utility.yul\":660:684   */\n  tag_22\n  jump\t// in\ntag_21:\n    /* \"#utility.yul\":649:684   */\n  swap1\n  pop\n    /* \"#utility.yul\":594:690   */\n  swap2\n  swap1\n  pop\n  jump\t// out\n    /* \"#utility.yul\":696:822   */\ntag_22:\n    /* \"#utility.yul\":733:740   */\n  0x00\n    /* \"#utility.yul\":773:815   */\n  0xffffffffffffffffffffffffffffffffffffffff\n    /* \"#utility.yul\":766:771   */\n  dup3\n    /* \"#utility.yul\":762:816   */\n  and\n    /* \"#utility.yul\":751:816   */\n  swap1\n  pop\n    /* \"#utility.yul\":696:822   */\n  swap2\n  swap1\n  pop\n  jump\t// out\n    /* \"#utility.yul\":951:1068   */\ntag_15:\n    /* \"#utility.yul\":1060:1061   */\n  0x00\n    /* \"#utility.yul\":1057:1058   */\n  dup1\n    /* \"#utility.yul\":1050:1062   */\n  revert\n    /* \"#utility.yul\":1074:1196   */\ntag_11:\n    /* \"#utility.yul\":1147:1171   */\n  tag_28\n    /* \"#utility.yul\":1165:1170   */\n  dup2\n    /* \"#utility.yul\":1147:1171   */\n  tag_19\n  jump\t// in\ntag_28:\n    /* \"#utility.yul\":1140:1145   */\n  dup2\n    /* \"#utility.yul\":1137:1172   */\n  eq\n    /* \"#utility.yul\":1127:1190   */\n  tag_29\n  jumpi\n    /* \"#utility.yul\":1186:1187   */\n  0x00\n    /* \"#utility.yul\":1183:1184   */\n  dup1\n    /* \"#utility.yul\":1176:1188   */\n  revert\n    /* \"#utility.yul\":1127:1190   */\ntag_29:\n    /* \"#utility.yul\":1074:1196   */\n  pop\n  jump\t// out\n    /* \"wwcc-contracts/contracts/wwccPool.sol\":96:9007  contract WCPOOL {... */\ntag_6:\n  dataSize(sub_0)\n  dup1\n  dataOffset(sub_0)\n  0x00\n  codecopy\n  0x00\n  return\nstop\n\nsub_0: assembly {\n        /* \"wwcc-contracts/contracts/wwccPool.sol\":96:9007  contract WCPOOL {... */\n      mstore(0x40, 0x80)\n      jumpi(tag_1, lt(calldatasize, 0x04))\n      shr(0xe0, calldataload(0x00))\n      dup1\n      0x357965ba\n      eq\n      tag_2\n      jumpi\n      dup1\n      0x47e4dd27\n      eq\n      tag_3\n      jumpi\n      dup1\n      0x74fe9bc2\n      eq\n      tag_4\n      jumpi\n      dup1\n      0xb8e5303d\n      eq\n      tag_5\n      jumpi\n    tag_1:\n      0x00\n      dup1\n      revert\n        /* \"wwcc-contracts/contracts/wwccPool.sol\":1585:2389  function Set_Pool(... */\n    tag_2:\n      callvalue\n      dup1\n      iszero\n      tag_6\n      jumpi\n      0x00\n      dup1\n      revert\n    tag_6:\n      pop\n      tag_7\n      0x04\n      dup1\n      calldatasize\n      sub\n      dup2\n      add\n      swap1\n      tag_8\n      swap2\n      swap1\n      tag_9\n      jump\t// in\n    tag_8:\n      tag_10\n      jump\t// in\n    tag_7:\n      mload(0x40)\n      tag_11\n      swap2\n      swap1\n      tag_12\n      jump\t// in\n    tag_11:\n      mload(0x40)\n      dup1\n      swap2\n      sub\n      swap1\n      return\n        /* \"wwcc-contracts/contracts/wwccPool.sol\":2394:3587  function Picking(address joiner,uint256 weight,bytes32 poolKey,uint256 homeScore,uint256 visitScore,uint256 kind) external onlyManager returns(bool){... */\n    tag_3:\n      callvalue\n      dup1\n      iszero\n      tag_13\n      jumpi\n      0x00\n      dup1\n      revert\n    tag_13:\n      pop\n      tag_14\n      0x04\n      dup1\n      calldatasize\n      sub\n      dup2\n      add\n      swap1\n      tag_15\n      swap2\n      swap1\n      tag_16\n      jump\t// in\n    tag_15:\n      tag_17\n      jump\t// in\n    tag_14:\n      mload(0x40)\n      tag_18\n      swap2\n      swap1\n      tag_19\n      jump\t// in\n    tag_18:\n      mload(0x40)\n      dup1\n      swap2\n      sub\n      swap1\n      return\n        /* \"wwcc-contracts/contracts/wwccPool.sol\":3592:6509  function Award(bytes32 poolKey,uint256 homeScore,uint256 visitScore,uint256 result)  external onlyManager  payable returns(bool){... */\n    tag_4:\n      tag_20\n      0x04\n      dup1\n      calldatasize\n      sub\n      dup2\n      add\n      swap1\n      tag_21\n      swap2\n      swap1\n      tag_22\n      jump\t// in\n    tag_21:\n      tag_23\n      jump\t// in\n    tag_20:\n      mload(0x40)\n      tag_24\n      swap2\n      swap1\n      tag_19\n      jump\t// in\n    tag_24:\n      mload(0x40)\n      dup1\n      swap2\n      sub\n      swap1\n      return\n        /* \"wwcc-contracts/contracts/wwccPool.sol\":6514:7047  function getPair(bytes32 poolKey) external view returns (string memory home,string memory visit,string memory rounds,uint256 wPool,uint256 dPool,uint256 lPool,uint256 sPool){... */\n    tag_5:\n      callvalue\n      dup1\n      iszero\n      tag_25\n      jumpi\n      0x00\n      dup1\n      revert\n    tag_25:\n      pop\n      tag_26\n      0x04\n      dup1\n      calldatasize\n      sub\n      dup2\n      add\n      swap1\n      tag_27\n      swap2\n      swap1\n      tag_28\n      jump\t// in\n    tag_27:\n      tag_29\n      jump\t// in\n    tag_26:\n      mload(0x40)\n      tag_30\n      swap8\n      swap7\n      swap6\n      swap5\n      swap4\n      swap3\n      swap2\n      swap1\n      tag_31\n      jump\t// in\n    tag_30:\n      mload(0x40)\n      dup1\n      swap2\n      sub\n      swap1\n      return\n        /* \"wwcc-contracts/contracts/wwccPool.sol\":1585:2389  function Set_Pool(... */\n    tag_10:\n        /* \"wwcc-contracts/contracts/wwccPool.sol\":1732:1739  bytes32 */\n      0x00\n        /* \"wwcc-contracts/contracts/wwccPool.sol\":8931:8936  owner */\n      dup1\n      0x00\n      swap1\n      sload\n      swap1\n      0x0100\n      exp\n      swap1\n      div\n      0xffffffffffffffffffffffffffffffffffffffff\n      and\n        /* \"wwcc-contracts/contracts/wwccPool.sol\":8917:8936  msg.sender == owner */\n      0xffffffffffffffffffffffffffffffffffffffff\n      and\n        /* \"wwcc-contracts/contracts/wwccPool.sol\":8917:8927  msg.sender */\n      caller\n        /* \"wwcc-contracts/contracts/wwccPool.sol\":8917:8936  msg.sender == owner */\n      0xffffffffffffffffffffffffffffffffffffffff\n      and\n      eq\n        /* \"wwcc-contracts/contracts/wwccPool.sol\":8896:8987  require(... */\n      tag_33\n      jumpi\n      mload(0x40)\n      0x08c379a000000000000000000000000000000000000000000000000000000000\n      dup2\n      mstore\n      0x04\n      add\n      tag_34\n      swap1\n      tag_35\n      jump\t// in\n    tag_34:\n      mload(0x40)\n      dup1\n      swap2\n      sub\n      swap1\n      revert\n    tag_33:\n        /* \"wwcc-contracts/contracts/wwccPool.sol\":1750:1766  string memory s1 */\n      0x00\n        /* \"wwcc-contracts/contracts/wwccPool.sol\":1769:1790  strConcat(home,visit) */\n      tag_37\n        /* \"wwcc-contracts/contracts/wwccPool.sol\":1779:1783  home */\n      dup7\n        /* \"wwcc-contracts/contracts/wwccPool.sol\":1784:1789  visit */\n      dup7\n        /* \"wwcc-contracts/contracts/wwccPool.sol\":1769:1778  strConcat */\n      tag_38\n        /* \"wwcc-contracts/contracts/wwccPool.sol\":1769:1790  strConcat(home,visit) */\n      jump\t// in\n    tag_37:\n        /* \"wwcc-contracts/contracts/wwccPool.sol\":1750:1790  string memory s1 = strConcat(home,visit) */\n      swap1\n      pop\n        /* \"wwcc-contracts/contracts/wwccPool.sol\":1799:1815  string memory s2 */\n      0x00\n        /* \"wwcc-contracts/contracts/wwccPool.sol\":1818:1838  strConcat(s1,rounds) */\n      tag_39\n        /* \"wwcc-contracts/contracts/wwccPool.sol\":1828:1830  s1 */\n      dup3\n        /* \"wwcc-contracts/contracts/wwccPool.sol\":1831:1837  rounds */\n      dup7\n        /* \"wwcc-contracts/contracts/wwccPool.sol\":1818:1827  strConcat */\n      tag_38\n        /* \"wwcc-contracts/contracts/wwccPool.sol\":1818:1838  strConcat(s1,rounds) */\n      jump\t// in\n    tag_39:\n        /* \"wwcc-contracts/contracts/wwccPool.sol\":1799:1838  string memory s2 = strConcat(s1,rounds) */\n      swap1\n      pop\n        /* \"wwcc-contracts/contracts/wwccPool.sol\":1847:1862  bytes32 poolKey */\n      0x00\n        /* \"wwcc-contracts/contracts/wwccPool.sol\":1892:1894  s2 */\n      dup2\n        /* \"wwcc-contracts/contracts/wwccPool.sol\":1875:1895  abi.encodePacked(s2) */\n      add(0x20, mload(0x40))\n      tag_40\n      swap2\n      swap1\n      tag_41\n      jump\t// in\n    tag_40:\n      mload(0x40)\n      0x20\n      dup2\n      dup4\n      sub\n      sub\n      dup2\n      mstore\n      swap1\n      0x40\n      mstore\n        /* \"wwcc-contracts/contracts/wwccPool.sol\":1865:1896  keccak256(abi.encodePacked(s2)) */\n      dup1\n      mload\n      swap1\n      0x20\n      add\n      keccak256\n        /* \"wwcc-contracts/contracts/wwccPool.sol\":1847:1896  bytes32 poolKey = keccak256(abi.encodePacked(s2)) */\n      swap1\n      pop\n        /* \"wwcc-contracts/contracts/wwccPool.sol\":1908:1925  contains(poolKey) */\n      tag_42\n        /* \"wwcc-contracts/contracts/wwccPool.sol\":1917:1924  poolKey */\n      dup2\n        /* \"wwcc-contracts/contracts/wwccPool.sol\":1908:1916  contains */\n      tag_43\n        /* \"wwcc-contracts/contracts/wwccPool.sol\":1908:1925  contains(poolKey) */\n      jump\t// in\n    tag_42:\n        /* \"wwcc-contracts/contracts/wwccPool.sol\":1905:2360  if(contains(poolKey)) { ... */\n      iszero\n      tag_44\n      jumpi\n        /* \"wwcc-contracts/contracts/wwccPool.sol\":1942:1962  revert(\"pair exist\") */\n      mload(0x40)\n      0x08c379a000000000000000000000000000000000000000000000000000000000\n      dup2\n      mstore\n      0x04\n      add\n      tag_45\n      swap1\n      tag_46\n      jump\t// in\n    tag_45:\n      mload(0x40)\n      dup1\n      swap2\n      sub\n      swap1\n      revert\n        /* \"wwcc-contracts/contracts/wwccPool.sol\":1905:2360  if(contains(poolKey)) { ... */\n    tag_44:\n        /* \"wwcc-contracts/contracts/wwccPool.sol\":2013:2017  true */\n      0x01\n        /* \"wwcc-contracts/contracts/wwccPool.sol\":1989:1996  WcPools */\n      0x05\n        /* \"wwcc-contracts/contracts/wwccPool.sol\":1989:2005  WcPools[poolKey] */\n      0x00\n        /* \"wwcc-contracts/contracts/wwccPool.sol\":1997:2004  poolKey */\n      dup4\n        /* \"wwcc-contracts/contracts/wwccPool.sol\":1989:2005  WcPools[poolKey] */\n      dup2\n      mstore\n      0x20\n      add\n      swap1\n      dup2\n      mstore\n      0x20\n      add\n      0x00\n      keccak256\n        /* \"wwcc-contracts/contracts/wwccPool.sol\":1989:2010  WcPools[poolKey].used */\n      0x07\n      add\n      0x01\n        /* \"wwcc-contracts/contracts/wwccPool.sol\":1989:2017  WcPools[poolKey].used = true */\n      0x0100\n      exp\n      dup2\n      sload\n      dup2\n      0xff\n      mul\n      not\n      and\n      swap1\n      dup4\n      iszero\n      iszero\n      mul\n      or\n      swap1\n      sstore\n      pop\n        /* \"wwcc-contracts/contracts/wwccPool.sol\":2054:2058  home */\n      dup8\n        /* \"wwcc-contracts/contracts/wwccPool.sol\":2030:2037  WcPools */\n      0x05\n        /* \"wwcc-contracts/contracts/wwccPool.sol\":2030:2046  WcPools[poolKey] */\n      0x00\n        /* \"wwcc-contracts/contracts/wwccPool.sol\":2038:2045  poolKey */\n      dup4\n        /* \"wwcc-contracts/contracts/wwccPool.sol\":2030:2046  WcPools[poolKey] */\n      dup2\n      mstore\n      0x20\n      add\n      swap1\n      dup2\n      mstore\n      0x20\n      add\n      0x00\n      keccak256\n        /* \"wwcc-contracts/contracts/wwccPool.sol\":2030:2051  WcPools[poolKey].home */\n      0x00\n      add\n        /* \"wwcc-contracts/contracts/wwccPool.sol\":2030:2058  WcPools[poolKey].home = home */\n      swap1\n      dup1\n      mload\n      swap1\n      0x20\n      add\n      swap1\n      tag_48\n      swap3\n      swap2\n      swap1\n      tag_49\n      jump\t// in\n    tag_48:\n      pop\n        /* \"wwcc-contracts/contracts/wwccPool.sol\":2096:2101  visit */\n      dup7\n        /* \"wwcc-contracts/contracts/wwccPool.sol\":2071:2078  WcPools */\n      0x05\n        /* \"wwcc-contracts/contracts/wwccPool.sol\":2071:2087  WcPools[poolKey] */\n      0x00\n        /* \"wwcc-contracts/contracts/wwccPool.sol\":2079:2086  poolKey */\n      dup4\n        /* \"wwcc-contracts/contracts/wwccPool.sol\":2071:2087  WcPools[poolKey] */\n      dup2\n      mstore\n      0x20\n      add\n      swap1\n      dup2\n      mstore\n      0x20\n      add\n      0x00\n      keccak256\n        /* \"wwcc-contracts/contracts/wwccPool.sol\":2071:2093  WcPools[poolKey].visit */\n      0x01\n      add\n        /* \"wwcc-contracts/contracts/wwccPool.sol\":2071:2101  WcPools[poolKey].visit = visit */\n      swap1\n      dup1\n      mload\n      swap1\n      0x20\n      add\n      swap1\n      tag_50\n      swap3\n      swap2\n      swap1\n      tag_49\n      jump\t// in\n    tag_50:\n      pop\n        /* \"wwcc-contracts/contracts/wwccPool.sol\":2140:2146  rounds */\n      dup6\n        /* \"wwcc-contracts/contracts/wwccPool.sol\":2114:2121  WcPools */\n      0x05\n        /* \"wwcc-contracts/contracts/wwccPool.sol\":2114:2130  WcPools[poolKey] */\n      0x00\n        /* \"wwcc-contracts/contracts/wwccPool.sol\":2122:2129  poolKey */\n      dup4\n        /* \"wwcc-contracts/contracts/wwccPool.sol\":2114:2130  WcPools[poolKey] */\n      dup2\n      mstore\n      0x20\n      add\n      swap1\n      dup2\n      mstore\n      0x20\n      add\n      0x00\n      keccak256\n        /* \"wwcc-contracts/contracts/wwccPool.sol\":2114:2137  WcPools[poolKey].rounds */\n      0x02\n      add\n        /* \"wwcc-contracts/contracts/wwccPool.sol\":2114:2146  WcPools[poolKey].rounds = rounds */\n      swap1\n      dup1\n      mload\n      swap1\n      0x20\n      add\n      swap1\n      tag_51\n      swap3\n      swap2\n      swap1\n      tag_49\n      jump\t// in\n    tag_51:\n      pop\n        /* \"wwcc-contracts/contracts/wwccPool.sol\":2184:2185  0 */\n      0x00\n        /* \"wwcc-contracts/contracts/wwccPool.sol\":2159:2166  WcPools */\n      0x05\n        /* \"wwcc-contracts/contracts/wwccPool.sol\":2159:2175  WcPools[poolKey] */\n      0x00\n        /* \"wwcc-contracts/contracts/wwccPool.sol\":2167:2174  poolKey */\n      dup4\n        /* \"wwcc-contracts/contracts/wwccPool.sol\":2159:2175  WcPools[poolKey] */\n      dup2\n      mstore\n      0x20\n      add\n      swap1\n      dup2\n      mstore\n      0x20\n      add\n      0x00\n      keccak256\n        /* \"wwcc-contracts/contracts/wwccPool.sol\":2159:2181  WcPools[poolKey].wPool */\n      0x03\n      add\n        /* \"wwcc-contracts/contracts/wwccPool.sol\":2159:2185  WcPools[poolKey].wPool = 0 */\n      dup2\n      swap1\n      sstore\n      pop\n        /* \"wwcc-contracts/contracts/wwccPool.sol\":2223:2224  0 */\n      0x00\n        /* \"wwcc-contracts/contracts/wwccPool.sol\":2198:2205  WcPools */\n      0x05\n        /* \"wwcc-contracts/contracts/wwccPool.sol\":2198:2214  WcPools[poolKey] */\n      0x00\n        /* \"wwcc-contracts/contracts/wwccPool.sol\":2206:2213  poolKey */\n      dup4\n        /* \"wwcc-contracts/contracts/wwccPool.sol\":2198:2214  WcPools[poolKey] */\n      dup2\n      mstore\n      0x20\n      add\n      swap1\n      dup2\n      mstore\n      0x20\n      add\n      0x00\n      keccak256\n        /* \"wwcc-contracts/contracts/wwccPool.sol\":2198:2220  WcPools[poolKey].dPool */\n      0x04\n      add\n        /* \"wwcc-contracts/contracts/wwccPool.sol\":2198:2224  WcPools[poolKey].dPool = 0 */\n      dup2\n      swap1\n      sstore\n      pop\n        /* \"wwcc-contracts/contracts/wwccPool.sol\":2262:2263  0 */\n      0x00\n        /* \"wwcc-contracts/contracts/wwccPool.sol\":2237:2244  WcPools */\n      0x05\n        /* \"wwcc-contracts/contracts/wwccPool.sol\":2237:2253  WcPools[poolKey] */\n      0x00\n        /* \"wwcc-contracts/contracts/wwccPool.sol\":2245:2252  poolKey */\n      dup4\n        /* \"wwcc-contracts/contracts/wwccPool.sol\":2237:2253  WcPools[poolKey] */\n      dup2\n      mstore\n      0x20\n      add\n      swap1\n      dup2\n      mstore\n      0x20\n      add\n      0x00\n      keccak256\n        /* \"wwcc-contracts/contracts/wwccPool.sol\":2237:2259  WcPools[poolKey].lPool */\n      0x05\n      add\n        /* \"wwcc-contracts/contracts/wwccPool.sol\":2237:2263  WcPools[poolKey].lPool = 0 */\n      dup2\n      swap1\n      sstore\n      pop\n        /* \"wwcc-contracts/contracts/wwccPool.sol\":2301:2302  0 */\n      0x00\n        /* \"wwcc-contracts/contracts/wwccPool.sol\":2276:2283  WcPools */\n      0x05\n        /* \"wwcc-contracts/contracts/wwccPool.sol\":2276:2292  WcPools[poolKey] */\n      0x00\n        /* \"wwcc-contracts/contracts/wwccPool.sol\":2284:2291  poolKey */\n      dup4\n        /* \"wwcc-contracts/contracts/wwccPool.sol\":2276:2292  WcPools[poolKey] */\n      dup2\n      mstore\n      0x20\n      add\n      swap1\n      dup2\n      mstore\n      0x20\n      add\n      0x00\n      keccak256\n        /* \"wwcc-contracts/contracts/wwccPool.sol\":2276:2298  WcPools[poolKey].sPool */\n      0x06\n      add\n        /* \"wwcc-contracts/contracts/wwccPool.sol\":2276:2302  WcPools[poolKey].sPool = 0 */\n      dup2\n      swap1\n      sstore\n      pop\n        /* \"wwcc-contracts/contracts/wwccPool.sol\":2342:2349  decided */\n      dup5\n        /* \"wwcc-contracts/contracts/wwccPool.sol\":2315:2322  WcPools */\n      0x05\n        /* \"wwcc-contracts/contracts/wwccPool.sol\":2315:2331  WcPools[poolKey] */\n      0x00\n        /* \"wwcc-contracts/contracts/wwccPool.sol\":2323:2330  poolKey */\n      dup4\n        /* \"wwcc-contracts/contracts/wwccPool.sol\":2315:2331  WcPools[poolKey] */\n      dup2\n      mstore\n      0x20\n      add\n      swap1\n      dup2\n      mstore\n      0x20\n      add\n      0x00\n      keccak256\n        /* \"wwcc-contracts/contracts/wwccPool.sol\":2315:2339  WcPools[poolKey].decided */\n      0x07\n      add\n      0x00\n        /* \"wwcc-contracts/contracts/wwccPool.sol\":2315:2349  WcPools[poolKey].decided = decided */\n      0x0100\n      exp\n      dup2\n      sload\n      dup2\n      0xff\n      mul\n      not\n      and\n      swap1\n      dup4\n      iszero\n      iszero\n      mul\n      or\n      swap1\n      sstore\n      pop\n        /* \"wwcc-contracts/contracts/wwccPool.sol\":2375:2382  poolKey */\n      dup1\n        /* \"wwcc-contracts/contracts/wwccPool.sol\":2368:2382  return poolKey */\n      swap4\n      pop\n      pop\n      pop\n      pop\n        /* \"wwcc-contracts/contracts/wwccPool.sol\":1585:2389  function Set_Pool(... */\n      swap5\n      swap4\n      pop\n      pop\n      pop\n      pop\n      jump\t// out\n        /* \"wwcc-contracts/contracts/wwccPool.sol\":2394:3587  function Picking(address joiner,uint256 weight,bytes32 poolKey,uint256 homeScore,uint256 visitScore,uint256 kind) external onlyManager returns(bool){... */\n    tag_17:\n        /* \"wwcc-contracts/contracts/wwccPool.sol\":2537:2541  bool */\n      0x00\n        /* \"wwcc-contracts/contracts/wwccPool.sol\":8931:8936  owner */\n      dup1\n      0x00\n      swap1\n      sload\n      swap1\n      0x0100\n      exp\n      swap1\n      div\n      0xffffffffffffffffffffffffffffffffffffffff\n      and\n        /* \"wwcc-contracts/contracts/wwccPool.sol\":8917:8936  msg.sender == owner */\n      0xffffffffffffffffffffffffffffffffffffffff\n      and\n        /* \"wwcc-contracts/contracts/wwccPool.sol\":8917:8927  msg.sender */\n      caller\n        /* \"wwcc-contracts/contracts/wwccPool.sol\":8917:8936  msg.sender == owner */\n      0xffffffffffffffffffffffffffffffffffffffff\n      and\n      eq\n        /* \"wwcc-contracts/contracts/wwccPool.sol\":8896:8987  require(... */\n      tag_53\n      jumpi\n      mload(0x40)\n      0x08c379a000000000000000000000000000000000000000000000000000000000\n      dup2\n      mstore\n      0x04\n      add\n      tag_54\n      swap1\n      tag_35\n      jump\t// in\n    tag_54:\n      mload(0x40)\n      dup1\n      swap2\n      sub\n      swap1\n      revert\n    tag_53:\n        /* \"wwcc-contracts/contracts/wwccPool.sol\":2556:2573  contains(poolKey) */\n      tag_56\n        /* \"wwcc-contracts/contracts/wwccPool.sol\":2565:2572  poolKey */\n      dup6\n        /* \"wwcc-contracts/contracts/wwccPool.sol\":2556:2564  contains */\n      tag_43\n        /* \"wwcc-contracts/contracts/wwccPool.sol\":2556:2573  contains(poolKey) */\n      jump\t// in\n    tag_56:\n        /* \"wwcc-contracts/contracts/wwccPool.sol\":2552:3561  if(!contains(poolKey)) { ... */\n      tag_57\n      jumpi\n        /* \"wwcc-contracts/contracts/wwccPool.sol\":2590:2614  revert(\"pool not exist\") */\n      mload(0x40)\n      0x08c379a000000000000000000000000000000000000000000000000000000000\n      dup2\n      mstore\n      0x04\n      add\n      tag_58\n      swap1\n      tag_59\n      jump\t// in\n    tag_58:\n      mload(0x40)\n      dup1\n      swap2\n      sub\n      swap1\n      revert\n        /* \"wwcc-contracts/contracts/wwccPool.sol\":2552:3561  if(!contains(poolKey)) { ... */\n    tag_57:\n        /* \"wwcc-contracts/contracts/wwccPool.sol\":2641:2659  WcPool memory pool */\n      0x00\n        /* \"wwcc-contracts/contracts/wwccPool.sol\":2662:2669  WcPools */\n      0x05\n        /* \"wwcc-contracts/contracts/wwccPool.sol\":2662:2678  WcPools[poolKey] */\n      0x00\n        /* \"wwcc-contracts/contracts/wwccPool.sol\":2670:2677  poolKey */\n      dup8\n        /* \"wwcc-contracts/contracts/wwccPool.sol\":2662:2678  WcPools[poolKey] */\n      dup2\n      mstore\n      0x20\n      add\n      swap1\n      dup2\n      mstore\n      0x20\n      add\n      0x00\n      keccak256\n        /* \"wwcc-contracts/contracts/wwccPool.sol\":2641:2678  WcPool memory pool = WcPools[poolKey] */\n      mload(0x40)\n      dup1\n      0x0120\n      add\n      0x40\n      mstore\n      swap1\n      dup2\n      0x00\n      dup3\n      add\n      dup1\n      sload\n      tag_61\n      swap1\n      tag_62\n      jump\t// in\n    tag_61:\n      dup1\n      0x1f\n      add\n      0x20\n      dup1\n      swap2\n      div\n      mul\n      0x20\n      add\n      mload(0x40)\n      swap1\n      dup2\n      add\n      0x40\n      mstore\n      dup1\n      swap3\n      swap2\n      swap1\n      dup2\n      dup2\n      mstore\n      0x20\n      add\n      dup3\n      dup1\n      sload\n      tag_63\n      swap1\n      tag_62\n      jump\t// in\n    tag_63:\n      dup1\n      iszero\n      tag_64\n      jumpi\n      dup1\n      0x1f\n      lt\n      tag_65\n      jumpi\n      0x0100\n      dup1\n      dup4\n      sload\n      div\n      mul\n      dup4\n      mstore\n      swap2\n      0x20\n      add\n      swap2\n      jump(tag_64)\n    tag_65:\n      dup3\n      add\n      swap2\n      swap1\n      0x00\n      mstore\n      keccak256(0x00, 0x20)\n      swap1\n    tag_66:\n      dup2\n      sload\n      dup2\n      mstore\n      swap1\n      0x01\n      add\n      swap1\n      0x20\n      add\n      dup1\n      dup4\n      gt\n      tag_66\n      jumpi\n      dup3\n      swap1\n      sub\n      0x1f\n      and\n      dup3\n      add\n      swap2\n    tag_64:\n      pop\n      pop\n      pop\n      pop\n      pop\n      dup2\n      mstore\n      0x20\n      add\n      0x01\n      dup3\n      add\n      dup1\n      sload\n      tag_67\n      swap1\n      tag_62\n      jump\t// in\n    tag_67:\n      dup1\n      0x1f\n      add\n      0x20\n      dup1\n      swap2\n      div\n      mul\n      0x20\n      add\n      mload(0x40)\n      swap1\n      dup2\n      add\n      0x40\n      mstore\n      dup1\n      swap3\n      swap2\n      swap1\n      dup2\n      dup2\n      mstore\n      0x20\n      add\n      dup3\n      dup1\n      sload\n      tag_68\n      swap1\n      tag_62\n      jump\t// in\n    tag_68:\n      dup1\n      iszero\n      tag_69\n      jumpi\n      dup1\n      0x1f\n      lt\n      tag_70\n      jumpi\n      0x0100\n      dup1\n      dup4\n      sload\n      div\n      mul\n      dup4\n      mstore\n      swap2\n      0x20\n      add\n      swap2\n      jump(tag_69)\n    tag_70:\n      dup3\n      add\n      swap2\n      swap1\n      0x00\n      mstore\n      keccak256(0x00, 0x20)\n      swap1\n    tag_71:\n      dup2\n      sload\n      dup2\n      mstore\n      swap1\n      0x01\n      add\n      swap1\n      0x20\n      add\n      dup1\n      dup4\n      gt\n      tag_71\n      jumpi\n      dup3\n      swap1\n      sub\n      0x1f\n      and\n      dup3\n      add\n      swap2\n    tag_69:\n      pop\n      pop\n      pop\n      pop\n      pop\n      dup2\n      mstore\n      0x20\n      add\n      0x02\n      dup3\n      add\n      dup1\n      sload\n      tag_72\n      swap1\n      tag_62\n      jump\t// in\n    tag_72:\n      dup1\n      0x1f\n      add\n      0x20\n      dup1\n      swap2\n      div\n      mul\n      0x20\n      add\n      mload(0x40)\n      swap1\n      dup2\n      add\n      0x40\n      mstore\n      dup1\n      swap3\n      swap2\n      swap1\n      dup2\n      dup2\n      mstore\n      0x20\n      add\n      dup3\n      dup1\n      sload\n      tag_73\n      swap1\n      tag_62\n      jump\t// in\n    tag_73:\n      dup1\n      iszero\n      tag_74\n      jumpi\n      dup1\n      0x1f\n      lt\n      tag_75\n      jumpi\n      0x0100\n      dup1\n      dup4\n      sload\n      div\n      mul\n      dup4\n      mstore\n      swap2\n      0x20\n      add\n      swap2\n      jump(tag_74)\n    tag_75:\n      dup3\n      add\n      swap2\n      swap1\n      0x00\n      mstore\n      keccak256(0x00, 0x20)\n      swap1\n    tag_76:\n      dup2\n      sload\n      dup2\n      mstore\n      swap1\n      0x01\n      add\n      swap1\n      0x20\n      add\n      dup1\n      dup4\n      gt\n      tag_76\n      jumpi\n      dup3\n      swap1\n      sub\n      0x1f\n      and\n      dup3\n      add\n      swap2\n    tag_74:\n      pop\n      pop\n      pop\n      pop\n      pop\n      dup2\n      mstore\n      0x20\n      add\n      0x03\n      dup3\n      add\n      sload\n      dup2\n      mstore\n      0x20\n      add\n      0x04\n      dup3\n      add\n      sload\n      dup2\n      mstore\n      0x20\n      add\n      0x05\n      dup3\n      add\n      sload\n      dup2\n      mstore\n      0x20\n      add\n      0x06\n      dup3\n      add\n      sload\n      dup2\n      mstore\n      0x20\n      add\n      0x07\n      dup3\n      add\n      0x00\n      swap1\n      sload\n      swap1\n      0x0100\n      exp\n      swap1\n      div\n      0xff\n      and\n      iszero\n      iszero\n      iszero\n      iszero\n      dup2\n      mstore\n      0x20\n      add\n      0x07\n      dup3\n      add\n      0x01\n      swap1\n      sload\n      swap1\n      0x0100\n      exp\n      swap1\n      div\n      0xff\n      and\n      iszero\n      iszero\n      iszero\n      iszero\n      dup2\n      mstore\n      pop\n      pop\n      swap1\n      pop\n        /* \"wwcc-contracts/contracts/wwccPool.sol\":2691:2708  string  memory si */\n      0x00\n        /* \"wwcc-contracts/contracts/wwccPool.sol\":2711:2776  strConcat(uint256ToString(homeScore),uint256ToString(visitScore)) */\n      tag_77\n        /* \"wwcc-contracts/contracts/wwccPool.sol\":2721:2747  uint256ToString(homeScore) */\n      tag_78\n        /* \"wwcc-contracts/contracts/wwccPool.sol\":2737:2746  homeScore */\n      dup8\n        /* \"wwcc-contracts/contracts/wwccPool.sol\":2721:2736  uint256ToString */\n      tag_79\n        /* \"wwcc-contracts/contracts/wwccPool.sol\":2721:2747  uint256ToString(homeScore) */\n      jump\t// in\n    tag_78:\n        /* \"wwcc-contracts/contracts/wwccPool.sol\":2748:2775  uint256ToString(visitScore) */\n      tag_80\n        /* \"wwcc-contracts/contracts/wwccPool.sol\":2764:2774  visitScore */\n      dup8\n        /* \"wwcc-contracts/contracts/wwccPool.sol\":2748:2763  uint256ToString */\n      tag_79\n        /* \"wwcc-contracts/contracts/wwccPool.sol\":2748:2775  uint256ToString(visitScore) */\n      jump\t// in\n    tag_80:\n        /* \"wwcc-contracts/contracts/wwccPool.sol\":2711:2720  strConcat */\n      tag_38\n        /* \"wwcc-contracts/contracts/wwccPool.sol\":2711:2776  strConcat(uint256ToString(homeScore),uint256ToString(visitScore)) */\n      jump\t// in\n    tag_77:\n        /* \"wwcc-contracts/contracts/wwccPool.sol\":2691:2776  string  memory si = strConcat(uint256ToString(homeScore),uint256ToString(visitScore)) */\n      swap1\n      pop\n        /* \"wwcc-contracts/contracts/wwccPool.sol\":2789:2814  string  memory pickingKey */\n      0x00\n        /* \"wwcc-contracts/contracts/wwccPool.sol\":2817:2855  strConcat(bytes32ToString(poolKey),si) */\n      tag_81\n        /* \"wwcc-contracts/contracts/wwccPool.sol\":2827:2851  bytes32ToString(poolKey) */\n      tag_82\n        /* \"wwcc-contracts/contracts/wwccPool.sol\":2843:2850  poolKey */\n      dup10\n        /* \"wwcc-contracts/contracts/wwccPool.sol\":2827:2842  bytes32ToString */\n      tag_83\n        /* \"wwcc-contracts/contracts/wwccPool.sol\":2827:2851  bytes32ToString(poolKey) */\n      jump\t// in\n    tag_82:\n        /* \"wwcc-contracts/contracts/wwccPool.sol\":2852:2854  si */\n      dup4\n        /* \"wwcc-contracts/contracts/wwccPool.sol\":2817:2826  strConcat */\n      tag_38\n        /* \"wwcc-contracts/contracts/wwccPool.sol\":2817:2855  strConcat(bytes32ToString(poolKey),si) */\n      jump\t// in\n    tag_81:\n        /* \"wwcc-contracts/contracts/wwccPool.sol\":2789:2855  string  memory pickingKey = strConcat(bytes32ToString(poolKey),si) */\n      swap1\n      pop\n        /* \"wwcc-contracts/contracts/wwccPool.sol\":2868:2891  JoinerPicking memory jp */\n      0x00\n        /* \"wwcc-contracts/contracts/wwccPool.sol\":2894:2965  JoinerPicking(weight,kind,homeScore,visitScore,joiner,pickingKey,false) */\n      mload(0x40)\n      dup1\n      0xe0\n      add\n      0x40\n      mstore\n      dup1\n        /* \"wwcc-contracts/contracts/wwccPool.sol\":2908:2914  weight */\n      dup12\n        /* \"wwcc-contracts/contracts/wwccPool.sol\":2894:2965  JoinerPicking(weight,kind,homeScore,visitScore,joiner,pickingKey,false) */\n      dup2\n      mstore\n      0x20\n      add\n        /* \"wwcc-contracts/contracts/wwccPool.sol\":2915:2919  kind */\n      dup8\n        /* \"wwcc-contracts/contracts/wwccPool.sol\":2894:2965  JoinerPicking(weight,kind,homeScore,visitScore,joiner,pickingKey,false) */\n      dup2\n      mstore\n      0x20\n      add\n        /* \"wwcc-contracts/contracts/wwccPool.sol\":2920:2929  homeScore */\n      dup10\n        /* \"wwcc-contracts/contracts/wwccPool.sol\":2894:2965  JoinerPicking(weight,kind,homeScore,visitScore,joiner,pickingKey,false) */\n      dup2\n      mstore\n      0x20\n      add\n        /* \"wwcc-contracts/contracts/wwccPool.sol\":2930:2940  visitScore */\n      dup9\n        /* \"wwcc-contracts/contracts/wwccPool.sol\":2894:2965  JoinerPicking(weight,kind,homeScore,visitScore,joiner,pickingKey,false) */\n      dup2\n      mstore\n      0x20\n      add\n        /* \"wwcc-contracts/contracts/wwccPool.sol\":2941:2947  joiner */\n      dup13\n        /* \"wwcc-contracts/contracts/wwccPool.sol\":2894:2965  JoinerPicking(weight,kind,homeScore,visitScore,joiner,pickingKey,false) */\n      0xffffffffffffffffffffffffffffffffffffffff\n      and\n      dup2\n      mstore\n      0x20\n      add\n        /* \"wwcc-contracts/contracts/wwccPool.sol\":2948:2958  pickingKey */\n      dup4\n        /* \"wwcc-contracts/contracts/wwccPool.sol\":2894:2965  JoinerPicking(weight,kind,homeScore,visitScore,joiner,pickingKey,false) */\n      dup2\n      mstore\n      0x20\n      add\n        /* \"wwcc-contracts/contracts/wwccPool.sol\":2959:2964  false */\n      0x00\n        /* \"wwcc-contracts/contracts/wwccPool.sol\":2894:2965  JoinerPicking(weight,kind,homeScore,visitScore,joiner,pickingKey,false) */\n      iszero\n      iszero\n      dup2\n      mstore\n      pop\n        /* \"wwcc-contracts/contracts/wwccPool.sol\":2868:2965  JoinerPicking memory jp = JoinerPicking(weight,kind,homeScore,visitScore,joiner,pickingKey,false) */\n      swap1\n      pop\n        /* \"wwcc-contracts/contracts/wwccPool.sol\":3014:3021  poolKey */\n      dup9\n        /* \"wwcc-contracts/contracts/wwccPool.sol\":2978:2994  allScorePoolInfo */\n      0x02\n        /* \"wwcc-contracts/contracts/wwccPool.sol\":2978:3003  allScorePoolInfo[poolKey] */\n      0x00\n        /* \"wwcc-contracts/contracts/wwccPool.sol\":2995:3002  poolKey */\n      dup12\n        /* \"wwcc-contracts/contracts/wwccPool.sol\":2978:3003  allScorePoolInfo[poolKey] */\n      dup2\n      mstore\n      0x20\n      add\n      swap1\n      dup2\n      mstore\n      0x20\n      add\n      0x00\n      keccak256\n        /* \"wwcc-contracts/contracts/wwccPool.sol\":2978:3011  allScorePoolInfo[poolKey].poolKey */\n      0x01\n      add\n        /* \"wwcc-contracts/contracts/wwccPool.sol\":2978:3021  allScorePoolInfo[poolKey].poolKey = poolKey */\n      dup2\n      swap1\n      sstore\n      pop\n        /* \"wwcc-contracts/contracts/wwccPool.sol\":3034:3050  allScorePoolInfo */\n      0x02\n        /* \"wwcc-contracts/contracts/wwccPool.sol\":3034:3059  allScorePoolInfo[poolKey] */\n      0x00\n        /* \"wwcc-contracts/contracts/wwccPool.sol\":3051:3058  poolKey */\n      dup11\n        /* \"wwcc-contracts/contracts/wwccPool.sol\":3034:3059  allScorePoolInfo[poolKey] */\n      dup2\n      mstore\n      0x20\n      add\n      swap1\n      dup2\n      mstore\n      0x20\n      add\n      0x00\n      keccak256\n        /* \"wwcc-contracts/contracts/wwccPool.sol\":3034:3071  allScorePoolInfo[poolKey].separateBet */\n      0x00\n      add\n        /* \"wwcc-contracts/contracts/wwccPool.sol\":3077:3079  jp */\n      dup2\n        /* \"wwcc-contracts/contracts/wwccPool.sol\":3034:3080  allScorePoolInfo[poolKey].separateBet.push(jp) */\n      swap1\n      dup1\n      0x01\n      dup2\n      sload\n      add\n      dup1\n      dup3\n      sstore\n      dup1\n      swap2\n      pop\n      pop\n      0x01\n      swap1\n      sub\n      swap1\n      0x00\n      mstore\n      keccak256(0x00, 0x20)\n      swap1\n      0x07\n      mul\n      add\n      0x00\n      swap1\n      swap2\n      swap1\n      swap2\n      swap1\n      swap2\n      pop\n      0x00\n      dup3\n      add\n      mload\n      dup2\n      0x00\n      add\n      sstore\n      0x20\n      dup3\n      add\n      mload\n      dup2\n      0x01\n      add\n      sstore\n      0x40\n      dup3\n      add\n      mload\n      dup2\n      0x02\n      add\n      sstore\n      0x60\n      dup3\n      add\n      mload\n      dup2\n      0x03\n      add\n      sstore\n      0x80\n      dup3\n      add\n      mload\n      dup2\n      0x04\n      add\n      exp(0x0100, 0x00)\n      dup2\n      sload\n      dup2\n      0xffffffffffffffffffffffffffffffffffffffff\n      mul\n      not\n      and\n      swap1\n      dup4\n      0xffffffffffffffffffffffffffffffffffffffff\n      and\n      mul\n      or\n      swap1\n      sstore\n      pop\n      0xa0\n      dup3\n      add\n      mload\n      dup2\n      0x05\n      add\n      swap1\n      dup1\n      mload\n      swap1\n      0x20\n      add\n      swap1\n      tag_85\n      swap3\n      swap2\n      swap1\n      tag_49\n      jump\t// in\n    tag_85:\n      pop\n      0xc0\n      dup3\n      add\n      mload\n      dup2\n      0x06\n      add\n      exp(0x0100, 0x00)\n      dup2\n      sload\n      dup2\n      0xff\n      mul\n      not\n      and\n      swap1\n      dup4\n      iszero\n      iszero\n      mul\n      or\n      swap1\n      sstore\n      pop\n      pop\n      pop\n        /* \"wwcc-contracts/contracts/wwccPool.sol\":3128:3134  joiner */\n      dup11\n        /* \"wwcc-contracts/contracts/wwccPool.sol\":3094:3110  joinerAllPicking */\n      0x04\n        /* \"wwcc-contracts/contracts/wwccPool.sol\":3094:3118  joinerAllPicking[joiner] */\n      0x00\n        /* \"wwcc-contracts/contracts/wwccPool.sol\":3111:3117  joiner */\n      dup14\n        /* \"wwcc-contracts/contracts/wwccPool.sol\":3094:3118  joinerAllPicking[joiner] */\n      0xffffffffffffffffffffffffffffffffffffffff\n      and\n      0xffffffffffffffffffffffffffffffffffffffff\n      and\n      dup2\n      mstore\n      0x20\n      add\n      swap1\n      dup2\n      mstore\n      0x20\n      add\n      0x00\n      keccak256\n        /* \"wwcc-contracts/contracts/wwccPool.sol\":3094:3125  joinerAllPicking[joiner].joiner */\n      0x01\n      add\n      0x00\n        /* \"wwcc-contracts/contracts/wwccPool.sol\":3094:3134  joinerAllPicking[joiner].joiner = joiner */\n      0x0100\n      exp\n      dup2\n      sload\n      dup2\n      0xffffffffffffffffffffffffffffffffffffffff\n      mul\n      not\n      and\n      swap1\n      dup4\n      0xffffffffffffffffffffffffffffffffffffffff\n      and\n      mul\n      or\n      swap1\n      sstore\n      pop\n        /* \"wwcc-contracts/contracts/wwccPool.sol\":3147:3163  allScorePoolInfo */\n      0x02\n        /* \"wwcc-contracts/contracts/wwccPool.sol\":3147:3172  allScorePoolInfo[poolKey] */\n      0x00\n        /* \"wwcc-contracts/contracts/wwccPool.sol\":3164:3171  poolKey */\n      dup11\n        /* \"wwcc-contracts/contracts/wwccPool.sol\":3147:3172  allScorePoolInfo[poolKey] */\n      dup2\n      mstore\n      0x20\n      add\n      swap1\n      dup2\n      mstore\n      0x20\n      add\n      0x00\n      keccak256\n        /* \"wwcc-contracts/contracts/wwccPool.sol\":3147:3184  allScorePoolInfo[poolKey].separateBet */\n      0x00\n      add\n        /* \"wwcc-contracts/contracts/wwccPool.sol\":3190:3192  jp */\n      dup2\n        /* \"wwcc-contracts/contracts/wwccPool.sol\":3147:3193  allScorePoolInfo[poolKey].separateBet.push(jp) */\n      swap1\n      dup1\n      0x01\n      dup2\n      sload\n      add\n      dup1\n      dup3\n      sstore\n      dup1\n      swap2\n      pop\n      pop\n      0x01\n      swap1\n      sub\n      swap1\n      0x00\n      mstore\n      keccak256(0x00, 0x20)\n      swap1\n      0x07\n      mul\n      add\n      0x00\n      swap1\n      swap2\n      swap1\n      swap2\n      swap1\n      swap2\n      pop\n      0x00\n      dup3\n      add\n      mload\n      dup2\n      0x00\n      add\n      sstore\n      0x20\n      dup3\n      add\n      mload\n      dup2\n      0x01\n      add\n      sstore\n      0x40\n      dup3\n      add\n      mload\n      dup2\n      0x02\n      add\n      sstore\n      0x60\n      dup3\n      add\n      mload\n      dup2\n      0x03\n      add\n      sstore\n      0x80\n      dup3\n      add\n      mload\n      dup2\n      0x04\n      add\n      exp(0x0100, 0x00)\n      dup2\n      sload\n      dup2\n      0xffffffffffffffffffffffffffffffffffffffff\n      mul\n      not\n      and\n      swap1\n      dup4\n      0xffffffffffffffffffffffffffffffffffffffff\n      and\n      mul\n      or\n      swap1\n      sstore\n      pop\n      0xa0\n      dup3\n      add\n      mload\n      dup2\n      0x05\n      add\n      swap1\n      dup1\n      mload\n      swap1\n      0x20\n      add\n      swap1\n      tag_87\n      swap3\n      swap2\n      swap1\n      tag_49\n      jump\t// in\n    tag_87:\n      pop\n      0xc0\n      dup3\n      add\n      mload\n      dup2\n      0x06\n      add\n      exp(0x0100, 0x00)\n      dup2\n      sload\n      dup2\n      0xff\n      mul\n      not\n      and\n      swap1\n      dup4\n      iszero\n      iszero\n      mul\n      or\n      swap1\n      sstore\n      pop\n      pop\n      pop\n        /* \"wwcc-contracts/contracts/wwccPool.sol\":3220:3221  2 */\n      0x02\n        /* \"wwcc-contracts/contracts/wwccPool.sol\":3212:3216  kind */\n      dup7\n        /* \"wwcc-contracts/contracts/wwccPool.sol\":3212:3221  kind == 2 */\n      eq\n        /* \"wwcc-contracts/contracts/wwccPool.sol\":3208:3540  if (kind == 2){... */\n      iszero\n      tag_88\n      jumpi\n        /* \"wwcc-contracts/contracts/wwccPool.sol\":3252:3258  weight */\n      dup10\n        /* \"wwcc-contracts/contracts/wwccPool.sol\":3238:3242  pool */\n      dup5\n        /* \"wwcc-contracts/contracts/wwccPool.sol\":3238:3248  pool.sPool */\n      0xc0\n      add\n        /* \"wwcc-contracts/contracts/wwccPool.sol\":3238:3258  pool.sPool += weight */\n      dup2\n      dup2\n      mload\n      tag_89\n      swap2\n      swap1\n      tag_90\n      jump\t// in\n    tag_89:\n      swap2\n      pop\n      dup2\n      dup2\n      mstore\n      pop\n      pop\n        /* \"wwcc-contracts/contracts/wwccPool.sol\":3305:3311  weight */\n      dup10\n        /* \"wwcc-contracts/contracts/wwccPool.sol\":3274:3289  singleScorePool */\n      0x03\n        /* \"wwcc-contracts/contracts/wwccPool.sol\":3290:3300  pickingKey */\n      dup4\n        /* \"wwcc-contracts/contracts/wwccPool.sol\":3274:3301  singleScorePool[pickingKey] */\n      mload(0x40)\n      tag_91\n      swap2\n      swap1\n      tag_41\n      jump\t// in\n    tag_91:\n      swap1\n      dup2\n      mstore\n      0x20\n      add\n      mload(0x40)\n      dup1\n      swap2\n      sub\n      swap1\n      keccak256\n      0x00\n        /* \"wwcc-contracts/contracts/wwccPool.sol\":3274:3311  singleScorePool[pickingKey] += weight */\n      dup3\n      dup3\n      sload\n      tag_92\n      swap2\n      swap1\n      tag_90\n      jump\t// in\n    tag_92:\n      swap3\n      pop\n      pop\n      dup2\n      swap1\n      sstore\n      pop\n        /* \"wwcc-contracts/contracts/wwccPool.sol\":3208:3540  if (kind == 2){... */\n      jump(tag_93)\n    tag_88:\n        /* \"wwcc-contracts/contracts/wwccPool.sol\":3355:3356  3 */\n      0x03\n        /* \"wwcc-contracts/contracts/wwccPool.sol\":3347:3351  kind */\n      dup7\n        /* \"wwcc-contracts/contracts/wwccPool.sol\":3347:3356  kind == 3 */\n      eq\n        /* \"wwcc-contracts/contracts/wwccPool.sol\":3344:3540  if(kind == 3){... */\n      iszero\n      tag_94\n      jumpi\n        /* \"wwcc-contracts/contracts/wwccPool.sol\":3389:3395  weight */\n      dup10\n        /* \"wwcc-contracts/contracts/wwccPool.sol\":3375:3379  pool */\n      dup5\n        /* \"wwcc-contracts/contracts/wwccPool.sol\":3375:3385  pool.wPool */\n      0x60\n      add\n        /* \"wwcc-contracts/contracts/wwccPool.sol\":3375:3395  pool.wPool += weight */\n      dup2\n      dup2\n      mload\n      tag_95\n      swap2\n      swap1\n      tag_90\n      jump\t// in\n    tag_95:\n      swap2\n      pop\n      dup2\n      dup2\n      mstore\n      pop\n      pop\n        /* \"wwcc-contracts/contracts/wwccPool.sol\":3344:3540  if(kind == 3){... */\n      jump(tag_96)\n    tag_94:\n        /* \"wwcc-contracts/contracts/wwccPool.sol\":3427:3428  1 */\n      0x01\n        /* \"wwcc-contracts/contracts/wwccPool.sol\":3419:3423  kind */\n      dup7\n        /* \"wwcc-contracts/contracts/wwccPool.sol\":3419:3428  kind == 1 */\n      eq\n        /* \"wwcc-contracts/contracts/wwccPool.sol\":3415:3540  if (kind == 1){... */\n      iszero\n      tag_97\n      jumpi\n        /* \"wwcc-contracts/contracts/wwccPool.sol\":3461:3467  weight */\n      dup10\n        /* \"wwcc-contracts/contracts/wwccPool.sol\":3447:3451  pool */\n      dup5\n        /* \"wwcc-contracts/contracts/wwccPool.sol\":3447:3457  pool.dPool */\n      0x80\n      add\n        /* \"wwcc-contracts/contracts/wwccPool.sol\":3447:3467  pool.dPool += weight */\n      dup2\n      dup2\n      mload\n      tag_98\n      swap2\n      swap1\n      tag_90\n      jump\t// in\n    tag_98:\n      swap2\n      pop\n      dup2\n      dup2\n      mstore\n      pop\n      pop\n        /* \"wwcc-contracts/contracts/wwccPool.sol\":3415:3540  if (kind == 1){... */\n      jump(tag_99)\n    tag_97:\n        /* \"wwcc-contracts/contracts/wwccPool.sol\":3519:3525  weight */\n      dup10\n        /* \"wwcc-contracts/contracts/wwccPool.sol\":3505:3509  pool */\n      dup5\n        /* \"wwcc-contracts/contracts/wwccPool.sol\":3505:3515  pool.lPool */\n      0xa0\n      add\n        /* \"wwcc-contracts/contracts/wwccPool.sol\":3505:3525  pool.lPool += weight */\n      dup2\n      dup2\n      mload\n      tag_100\n      swap2\n      swap1\n      tag_90\n      jump\t// in\n    tag_100:\n      swap2\n      pop\n      dup2\n      dup2\n      mstore\n      pop\n      pop\n        /* \"wwcc-contracts/contracts/wwccPool.sol\":3415:3540  if (kind == 1){... */\n    tag_99:\n        /* \"wwcc-contracts/contracts/wwccPool.sol\":3344:3540  if(kind == 3){... */\n    tag_96:\n        /* \"wwcc-contracts/contracts/wwccPool.sol\":3208:3540  if (kind == 2){... */\n    tag_93:\n        /* \"wwcc-contracts/contracts/wwccPool.sol\":2628:3561  {... */\n      pop\n      pop\n      pop\n      pop\n        /* \"wwcc-contracts/contracts/wwccPool.sol\":3576:3580  true */\n      0x01\n        /* \"wwcc-contracts/contracts/wwccPool.sol\":3569:3580  return true */\n      swap1\n      pop\n        /* \"wwcc-contracts/contracts/wwccPool.sol\":2394:3587  function Picking(address joiner,uint256 weight,bytes32 poolKey,uint256 homeScore,uint256 visitScore,uint256 kind) external onlyManager returns(bool){... */\n      swap7\n      swap6\n      pop\n      pop\n      pop\n      pop\n      pop\n      pop\n      jump\t// out\n        /* \"wwcc-contracts/contracts/wwccPool.sol\":3592:6509  function Award(bytes32 poolKey,uint256 homeScore,uint256 visitScore,uint256 result)  external onlyManager  payable returns(bool){... */\n    tag_23:\n        /* \"wwcc-contracts/contracts/wwccPool.sol\":3715:3719  bool */\n      0x00\n        /* \"wwcc-contracts/contracts/wwccPool.sol\":8931:8936  owner */\n      dup1\n      0x00\n      swap1\n      sload\n      swap1\n      0x0100\n      exp\n      swap1\n      div\n      0xffffffffffffffffffffffffffffffffffffffff\n      and\n        /* \"wwcc-contracts/contracts/wwccPool.sol\":8917:8936  msg.sender == owner */\n      0xffffffffffffffffffffffffffffffffffffffff\n      and\n        /* \"wwcc-contracts/contracts/wwccPool.sol\":8917:8927  msg.sender */\n      caller\n        /* \"wwcc-contracts/contracts/wwccPool.sol\":8917:8936  msg.sender == owner */\n      0xffffffffffffffffffffffffffffffffffffffff\n      and\n      eq\n        /* \"wwcc-contracts/contracts/wwccPool.sol\":8896:8987  require(... */\n      tag_102\n      jumpi\n      mload(0x40)\n      0x08c379a000000000000000000000000000000000000000000000000000000000\n      dup2\n      mstore\n      0x04\n      add\n      tag_103\n      swap1\n      tag_35\n      jump\t// in\n    tag_103:\n      mload(0x40)\n      dup1\n      swap2\n      sub\n      swap1\n      revert\n    tag_102:\n        /* \"wwcc-contracts/contracts/wwccPool.sol\":3734:3751  contains(poolKey) */\n      tag_105\n        /* \"wwcc-contracts/contracts/wwccPool.sol\":3743:3750  poolKey */\n      dup6\n        /* \"wwcc-contracts/contracts/wwccPool.sol\":3734:3742  contains */\n      tag_43\n        /* \"wwcc-contracts/contracts/wwccPool.sol\":3734:3751  contains(poolKey) */\n      jump\t// in\n    tag_105:\n        /* \"wwcc-contracts/contracts/wwccPool.sol\":3730:6483  if(!contains(poolKey)) { ... */\n      tag_106\n      jumpi\n        /* \"wwcc-contracts/contracts/wwccPool.sol\":3768:3792  revert(\"pool not exist\") */\n      mload(0x40)\n      0x08c379a000000000000000000000000000000000000000000000000000000000\n      dup2\n      mstore\n      0x04\n      add\n      tag_107\n      swap1\n      tag_59\n      jump\t// in\n    tag_107:\n      mload(0x40)\n      dup1\n      swap2\n      sub\n      swap1\n      revert\n        /* \"wwcc-contracts/contracts/wwccPool.sol\":3730:6483  if(!contains(poolKey)) { ... */\n    tag_106:\n        /* \"wwcc-contracts/contracts/wwccPool.sol\":3819:3837  WcPool memory pool */\n      0x00\n        /* \"wwcc-contracts/contracts/wwccPool.sol\":3840:3847  WcPools */\n      0x05\n        /* \"wwcc-contracts/contracts/wwccPool.sol\":3840:3856  WcPools[poolKey] */\n      0x00\n        /* \"wwcc-contracts/contracts/wwccPool.sol\":3848:3855  poolKey */\n      dup8\n        /* \"wwcc-contracts/contracts/wwccPool.sol\":3840:3856  WcPools[poolKey] */\n      dup2\n      mstore\n      0x20\n      add\n      swap1\n      dup2\n      mstore\n      0x20\n      add\n      0x00\n      keccak256\n        /* \"wwcc-contracts/contracts/wwccPool.sol\":3819:3856  WcPool memory pool = WcPools[poolKey] */\n      mload(0x40)\n      dup1\n      0x0120\n      add\n      0x40\n      mstore\n      swap1\n      dup2\n      0x00\n      dup3\n      add\n      dup1\n      sload\n      tag_109\n      swap1\n      tag_62\n      jump\t// in\n    tag_109:\n      dup1\n      0x1f\n      add\n      0x20\n      dup1\n      swap2\n      div\n      mul\n      0x20\n      add\n      mload(0x40)\n      swap1\n      dup2\n      add\n      0x40\n      mstore\n      dup1\n      swap3\n      swap2\n      swap1\n      dup2\n      dup2\n      mstore\n      0x20\n      add\n      dup3\n      dup1\n      sload\n      tag_110\n      swap1\n      tag_62\n      jump\t// in\n    tag_110:\n      dup1\n      iszero\n      tag_111\n      jumpi\n      dup1\n      0x1f\n      lt\n      tag_112\n      jumpi\n      0x0100\n      dup1\n      dup4\n      sload\n      div\n      mul\n      dup4\n      mstore\n      swap2\n      0x20\n      add\n      swap2\n      jump(tag_111)\n    tag_112:\n      dup3\n      add\n      swap2\n      swap1\n      0x00\n      mstore\n      keccak256(0x00, 0x20)\n      swap1\n    tag_113:\n      dup2\n      sload\n      dup2\n      mstore\n      swap1\n      0x01\n      add\n      swap1\n      0x20\n      add\n      dup1\n      dup4\n      gt\n      tag_113\n      jumpi\n      dup3\n      swap1\n      sub\n      0x1f\n      and\n      dup3\n      add\n      swap2\n    tag_111:\n      pop\n      pop\n      pop\n      pop\n      pop\n      dup2\n      mstore\n      0x20\n      add\n      0x01\n      dup3\n      add\n      dup1\n      sload\n      tag_114\n      swap1\n      tag_62\n      jump\t// in\n    tag_114:\n      dup1\n      0x1f\n      add\n      0x20\n      dup1\n      swap2\n      div\n      mul\n      0x20\n      add\n      mload(0x40)\n      swap1\n      dup2\n      add\n      0x40\n      mstore\n      dup1\n      swap3\n      swap2\n      swap1\n      dup2\n      dup2\n      mstore\n      0x20\n      add\n      dup3\n      dup1\n      sload\n      tag_115\n      swap1\n      tag_62\n      jump\t// in\n    tag_115:\n      dup1\n      iszero\n      tag_116\n      jumpi\n      dup1\n      0x1f\n      lt\n      tag_117\n      jumpi\n      0x0100\n      dup1\n      dup4\n      sload\n      div\n      mul\n      dup4\n      mstore\n      swap2\n      0x20\n      add\n      swap2\n      jump(tag_116)\n    tag_117:\n      dup3\n      add\n      swap2\n      swap1\n      0x00\n      mstore\n      keccak256(0x00, 0x20)\n      swap1\n    tag_118:\n      dup2\n      sload\n      dup2\n      mstore\n      swap1\n      0x01\n      add\n      swap1\n      0x20\n      add\n      dup1\n      dup4\n      gt\n      tag_118\n      jumpi\n      dup3\n      swap1\n      sub\n      0x1f\n      and\n      dup3\n      add\n      swap2\n    tag_116:\n      pop\n      pop\n      pop\n      pop\n      pop\n      dup2\n      mstore\n      0x20\n      add\n      0x02\n      dup3\n      add\n      dup1\n      sload\n      tag_119\n      swap1\n      tag_62\n      jump\t// in\n    tag_119:\n      dup1\n      0x1f\n      add\n      0x20\n      dup1\n      swap2\n      div\n      mul\n      0x20\n      add\n      mload(0x40)\n      swap1\n      dup2\n      add\n      0x40\n      mstore\n      dup1\n      swap3\n      swap2\n      swap1\n      dup2\n      dup2\n      mstore\n      0x20\n      add\n      dup3\n      dup1\n      sload\n      tag_120\n      swap1\n      tag_62\n      jump\t// in\n    tag_120:\n      dup1\n      iszero\n      tag_121\n      jumpi\n      dup1\n      0x1f\n      lt\n      tag_122\n      jumpi\n      0x0100\n      dup1\n      dup4\n      sload\n      div\n      mul\n      dup4\n      mstore\n      swap2\n      0x20\n      add\n      swap2\n      jump(tag_121)\n    tag_122:\n      dup3\n      add\n      swap2\n      swap1\n      0x00\n      mstore\n      keccak256(0x00, 0x20)\n      swap1\n    tag_123:\n      dup2\n      sload\n      dup2\n      mstore\n      swap1\n      0x01\n      add\n      swap1\n      0x20\n      add\n      dup1\n      dup4\n      gt\n      tag_123\n      jumpi\n      dup3\n      swap1\n      sub\n      0x1f\n      and\n      dup3\n      add\n      swap2\n    tag_121:\n      pop\n      pop\n      pop\n      pop\n      pop\n      dup2\n      mstore\n      0x20\n      add\n      0x03\n      dup3\n      add\n      sload\n      dup2\n      mstore\n      0x20\n      add\n      0x04\n      dup3\n      add\n      sload\n      dup2\n      mstore\n      0x20\n      add\n      0x05\n      dup3\n      add\n      sload\n      dup2\n      mstore\n      0x20\n      add\n      0x06\n      dup3\n      add\n      sload\n      dup2\n      mstore\n      0x20\n      add\n      0x07\n      dup3\n      add\n      0x00\n      swap1\n      sload\n      swap1\n      0x0100\n      exp\n      swap1\n      div\n      0xff\n      and\n      iszero\n      iszero\n      iszero\n      iszero\n      dup2\n      mstore\n      0x20\n      add\n      0x07\n      dup3\n      add\n      0x01\n      swap1\n      sload\n      swap1\n      0x0100\n      exp\n      swap1\n      div\n      0xff\n      and\n      iszero\n      iszero\n      iszero\n      iszero\n      dup2\n      mstore\n      pop\n      pop\n      swap1\n      pop\n        /* \"wwcc-contracts/contracts/wwccPool.sol\":3869:3904  JoinerPicking[] memory separateBets */\n      0x00\n        /* \"wwcc-contracts/contracts/wwccPool.sol\":3907:3923  allScorePoolInfo */\n      0x02\n        /* \"wwcc-contracts/contracts/wwccPool.sol\":3907:3932  allScorePoolInfo[poolKey] */\n      0x00\n        /* \"wwcc-contracts/contracts/wwccPool.sol\":3924:3931  poolKey */\n      dup9\n        /* \"wwcc-contracts/contracts/wwccPool.sol\":3907:3932  allScorePoolInfo[poolKey] */\n      dup2\n      mstore\n      0x20\n      add\n      swap1\n      dup2\n      mstore\n      0x20\n      add\n      0x00\n      keccak256\n        /* \"wwcc-contracts/contracts/wwccPool.sol\":3907:3944  allScorePoolInfo[poolKey].separateBet */\n      0x00\n      add\n        /* \"wwcc-contracts/contracts/wwccPool.sol\":3869:3944  JoinerPicking[] memory separateBets = allScorePoolInfo[poolKey].separateBet */\n      dup1\n      sload\n      dup1\n      0x20\n      mul\n      0x20\n      add\n      mload(0x40)\n      swap1\n      dup2\n      add\n      0x40\n      mstore\n      dup1\n      swap3\n      swap2\n      swap1\n      dup2\n      dup2\n      mstore\n      0x20\n      add\n      0x00\n      swap1\n    tag_124:\n      dup3\n      dup3\n      lt\n      iszero\n      tag_125\n      jumpi\n      dup4\n      dup3\n      swap1\n      0x00\n      mstore\n      keccak256(0x00, 0x20)\n      swap1\n      0x07\n      mul\n      add\n      mload(0x40)\n      dup1\n      0xe0\n      add\n      0x40\n      mstore\n      swap1\n      dup2\n      0x00\n      dup3\n      add\n      sload\n      dup2\n      mstore\n      0x20\n      add\n      0x01\n      dup3\n      add\n      sload\n      dup2\n      mstore\n      0x20\n      add\n      0x02\n      dup3\n      add\n      sload\n      dup2\n      mstore\n      0x20\n      add\n      0x03\n      dup3\n      add\n      sload\n      dup2\n      mstore\n      0x20\n      add\n      0x04\n      dup3\n      add\n      0x00\n      swap1\n      sload\n      swap1\n      0x0100\n      exp\n      swap1\n      div\n      0xffffffffffffffffffffffffffffffffffffffff\n      and\n      0xffffffffffffffffffffffffffffffffffffffff\n      and\n      0xffffffffffffffffffffffffffffffffffffffff\n      and\n      dup2\n      mstore\n      0x20\n      add\n      0x05\n      dup3\n      add\n      dup1\n      sload\n      tag_127\n      swap1\n      tag_62\n      jump\t// in\n    tag_127:\n      dup1\n      0x1f\n      add\n      0x20\n      dup1\n      swap2\n      div\n      mul\n      0x20\n      add\n      mload(0x40)\n      swap1\n      dup2\n      add\n      0x40\n      mstore\n      dup1\n      swap3\n      swap2\n      swap1\n      dup2\n      dup2\n      mstore\n      0x20\n      add\n      dup3\n      dup1\n      sload\n      tag_128\n      swap1\n      tag_62\n      jump\t// in\n    tag_128:\n      dup1\n      iszero\n      tag_129\n      jumpi\n      dup1\n      0x1f\n      lt\n      tag_130\n      jumpi\n      0x0100\n      dup1\n      dup4\n      sload\n      div\n      mul\n      dup4\n      mstore\n      swap2\n      0x20\n      add\n      swap2\n      jump(tag_129)\n    tag_130:\n      dup3\n      add\n      swap2\n      swap1\n      0x00\n      mstore\n      keccak256(0x00, 0x20)\n      swap1\n    tag_131:\n      dup2\n      sload\n      dup2\n      mstore\n      swap1\n      0x01\n      add\n      swap1\n      0x20\n      add\n      dup1\n      dup4\n      gt\n      tag_131\n      jumpi\n      dup3\n      swap1\n      sub\n      0x1f\n      and\n      dup3\n      add\n      swap2\n    tag_129:\n      pop\n      pop\n      pop\n      pop\n      pop\n      dup2\n      mstore\n      0x20\n      add\n      0x06\n      dup3\n      add\n      0x00\n      swap1\n      sload\n      swap1\n      0x0100\n      exp\n      swap1\n      div\n      0xff\n      and\n      iszero\n      iszero\n      iszero\n      iszero\n      dup2\n      mstore\n      pop\n      pop\n      dup2\n      mstore\n      0x20\n      add\n      swap1\n      0x01\n      add\n      swap1\n      jump(tag_124)\n    tag_125:\n      pop\n      pop\n      pop\n      pop\n      swap1\n      pop\n        /* \"wwcc-contracts/contracts/wwccPool.sol\":3957:3980  uint256 allRewardAmount */\n      0x00\n        /* \"wwcc-contracts/contracts/wwccPool.sol\":4131:4143  uint256 wdls */\n      dup1\n        /* \"wwcc-contracts/contracts/wwccPool.sol\":4178:4182  pool */\n      dup4\n        /* \"wwcc-contracts/contracts/wwccPool.sol\":4178:4188  pool.dPool */\n      0x80\n      add\n      mload\n        /* \"wwcc-contracts/contracts/wwccPool.sol\":4167:4171  pool */\n      dup5\n        /* \"wwcc-contracts/contracts/wwccPool.sol\":4167:4177  pool.lPool */\n      0xa0\n      add\n      mload\n        /* \"wwcc-contracts/contracts/wwccPool.sol\":4156:4160  pool */\n      dup6\n        /* \"wwcc-contracts/contracts/wwccPool.sol\":4156:4166  pool.wPool */\n      0x60\n      add\n      mload\n        /* \"wwcc-contracts/contracts/wwccPool.sol\":4145:4149  pool */\n      dup7\n        /* \"wwcc-contracts/contracts/wwccPool.sol\":4145:4155  pool.sPool */\n      0xc0\n      add\n      mload\n        /* \"wwcc-contracts/contracts/wwccPool.sol\":4145:4166  pool.sPool+pool.wPool */\n      tag_132\n      swap2\n      swap1\n      tag_90\n      jump\t// in\n    tag_132:\n        /* \"wwcc-contracts/contracts/wwccPool.sol\":4145:4177  pool.sPool+pool.wPool+pool.lPool */\n      tag_133\n      swap2\n      swap1\n      tag_90\n      jump\t// in\n    tag_133:\n        /* \"wwcc-contracts/contracts/wwccPool.sol\":4145:4188  pool.sPool+pool.wPool+pool.lPool+pool.dPool */\n      tag_134\n      swap2\n      swap1\n      tag_90\n      jump\t// in\n    tag_134:\n        /* \"wwcc-contracts/contracts/wwccPool.sol\":4131:4188  uint256 wdls =pool.sPool+pool.wPool+pool.lPool+pool.dPool */\n      swap1\n      pop\n        /* \"wwcc-contracts/contracts/wwccPool.sol\":4201:4222  uint256 serviceAmount */\n      0x00\n        /* \"wwcc-contracts/contracts/wwccPool.sol\":4225:4246  wdls.mul(15).div(100) */\n      tag_135\n        /* \"wwcc-contracts/contracts/wwccPool.sol\":4242:4245  100 */\n      0x64\n        /* \"wwcc-contracts/contracts/wwccPool.sol\":4225:4237  wdls.mul(15) */\n      tag_136\n        /* \"wwcc-contracts/contracts/wwccPool.sol\":4234:4236  15 */\n      0x0f\n        /* \"wwcc-contracts/contracts/wwccPool.sol\":4225:4229  wdls */\n      dup6\n        /* \"wwcc-contracts/contracts/wwccPool.sol\":4225:4233  wdls.mul */\n      tag_137\n      swap1\n        /* \"wwcc-contracts/contracts/wwccPool.sol\":4225:4237  wdls.mul(15) */\n      swap2\n      swap1\n      0xffffffff\n      and\n      jump\t// in\n    tag_136:\n        /* \"wwcc-contracts/contracts/wwccPool.sol\":4225:4241  wdls.mul(15).div */\n      tag_138\n      swap1\n        /* \"wwcc-contracts/contracts/wwccPool.sol\":4225:4246  wdls.mul(15).div(100) */\n      swap2\n      swap1\n      0xffffffff\n      and\n      jump\t// in\n    tag_135:\n        /* \"wwcc-contracts/contracts/wwccPool.sol\":4201:4246  uint256 serviceAmount = wdls.mul(15).div(100) */\n      swap1\n      pop\n        /* \"wwcc-contracts/contracts/wwccPool.sol\":4286:4292  uint j */\n      0x00\n        /* \"wwcc-contracts/contracts/wwccPool.sol\":4264:6355  for (... */\n    tag_139:\n        /* \"wwcc-contracts/contracts/wwccPool.sol\":4339:4340  1 */\n      0x01\n        /* \"wwcc-contracts/contracts/wwccPool.sol\":4319:4331  separateBets */\n      dup6\n        /* \"wwcc-contracts/contracts/wwccPool.sol\":4319:4338  separateBets.length */\n      mload\n        /* \"wwcc-contracts/contracts/wwccPool.sol\":4319:4340  separateBets.length-1 */\n      tag_142\n      swap2\n      swap1\n      tag_143\n      jump\t// in\n    tag_142:\n        /* \"wwcc-contracts/contracts/wwccPool.sol\":4314:4315  j */\n      dup2\n        /* \"wwcc-contracts/contracts/wwccPool.sol\":4314:4340  j <= separateBets.length-1 */\n      gt\n        /* \"wwcc-contracts/contracts/wwccPool.sol\":4264:6355  for (... */\n      tag_140\n      jumpi\n        /* \"wwcc-contracts/contracts/wwccPool.sol\":4430:4435  false */\n      0x00\n        /* \"wwcc-contracts/contracts/wwccPool.sol\":4403:4415  separateBets */\n      dup6\n        /* \"wwcc-contracts/contracts/wwccPool.sol\":4416:4417  j */\n      dup3\n        /* \"wwcc-contracts/contracts/wwccPool.sol\":4403:4418  separateBets[j] */\n      dup2\n      mload\n      dup2\n      lt\n      tag_144\n      jumpi\n      tag_145\n      tag_146\n      jump\t// in\n    tag_145:\n    tag_144:\n      0x20\n      mul\n      0x20\n      add\n      add\n      mload\n        /* \"wwcc-contracts/contracts/wwccPool.sol\":4403:4427  separateBets[j].finished */\n      0xc0\n      add\n        /* \"wwcc-contracts/contracts/wwccPool.sol\":4403:4435  separateBets[j].finished = false */\n      swap1\n      iszero\n      iszero\n      swap1\n      dup2\n      iszero\n      iszero\n      dup2\n      mstore\n      pop\n        /* \"wwcc-contracts/contracts/wwccPool.sol\":4400:6335  if(separateBets[j].finished = false){... */\n      iszero\n      tag_147\n      jumpi\n        /* \"wwcc-contracts/contracts/wwccPool.sol\":4485:4486  2 */\n      0x02\n        /* \"wwcc-contracts/contracts/wwccPool.sol\":4463:4475  separateBets */\n      dup6\n        /* \"wwcc-contracts/contracts/wwccPool.sol\":4476:4477  j */\n      dup3\n        /* \"wwcc-contracts/contracts/wwccPool.sol\":4463:4478  separateBets[j] */\n      dup2\n      mload\n      dup2\n      lt\n      tag_148\n      jumpi\n      tag_149\n      tag_146\n      jump\t// in\n    tag_149:\n    tag_148:\n      0x20\n      mul\n      0x20\n      add\n      add\n      mload\n        /* \"wwcc-contracts/contracts/wwccPool.sol\":4463:4483  separateBets[j].kind */\n      0x20\n      add\n      mload\n        /* \"wwcc-contracts/contracts/wwccPool.sol\":4463:4486  separateBets[j].kind==2 */\n      eq\n        /* \"wwcc-contracts/contracts/wwccPool.sol\":4460:6315  if(separateBets[j].kind==2){... */\n      iszero\n      tag_150\n      jumpi\n        /* \"wwcc-contracts/contracts/wwccPool.sol\":4533:4560  pool.sPool.mul(85).div(100) */\n      tag_151\n        /* \"wwcc-contracts/contracts/wwccPool.sol\":4556:4559  100 */\n      0x64\n        /* \"wwcc-contracts/contracts/wwccPool.sol\":4533:4551  pool.sPool.mul(85) */\n      tag_152\n        /* \"wwcc-contracts/contracts/wwccPool.sol\":4548:4550  85 */\n      0x55\n        /* \"wwcc-contracts/contracts/wwccPool.sol\":4533:4537  pool */\n      dup10\n        /* \"wwcc-contracts/contracts/wwccPool.sol\":4533:4543  pool.sPool */\n      0xc0\n      add\n      mload\n        /* \"wwcc-contracts/contracts/wwccPool.sol\":4533:4547  pool.sPool.mul */\n      tag_137\n      swap1\n        /* \"wwcc-contracts/contracts/wwccPool.sol\":4533:4551  pool.sPool.mul(85) */\n      swap2\n      swap1\n      0xffffffff\n      and\n      jump\t// in\n    tag_152:\n        /* \"wwcc-contracts/contracts/wwccPool.sol\":4533:4555  pool.sPool.mul(85).div */\n      tag_138\n      swap1\n        /* \"wwcc-contracts/contracts/wwccPool.sol\":4533:4560  pool.sPool.mul(85).div(100) */\n      swap2\n      swap1\n      0xffffffff\n      and\n      jump\t// in\n    tag_151:\n        /* \"wwcc-contracts/contracts/wwccPool.sol\":4515:4560  allRewardAmount = pool.sPool.mul(85).div(100) */\n      swap4\n      pop\n        /* \"wwcc-contracts/contracts/wwccPool.sol\":4615:4624  homeScore */\n      dup10\n        /* \"wwcc-contracts/contracts/wwccPool.sol\":4588:4600  separateBets */\n      dup6\n        /* \"wwcc-contracts/contracts/wwccPool.sol\":4601:4602  j */\n      dup3\n        /* \"wwcc-contracts/contracts/wwccPool.sol\":4588:4603  separateBets[j] */\n      dup2\n      mload\n      dup2\n      lt\n      tag_153\n      jumpi\n      tag_154\n      tag_146\n      jump\t// in\n    tag_154:\n    tag_153:\n      0x20\n      mul\n      0x20\n      add\n      add\n      mload\n        /* \"wwcc-contracts/contracts/wwccPool.sol\":4588:4613  separateBets[j].homeScore */\n      0x40\n      add\n      mload\n        /* \"wwcc-contracts/contracts/wwccPool.sol\":4588:4624  separateBets[j].homeScore==homeScore */\n      eq\n        /* \"wwcc-contracts/contracts/wwccPool.sol\":4588:4666  separateBets[j].homeScore==homeScore && separateBets[j].visitScore==visitScore */\n      dup1\n      iszero\n      tag_155\n      jumpi\n      pop\n        /* \"wwcc-contracts/contracts/wwccPool.sol\":4656:4666  visitScore */\n      dup9\n        /* \"wwcc-contracts/contracts/wwccPool.sol\":4628:4640  separateBets */\n      dup6\n        /* \"wwcc-contracts/contracts/wwccPool.sol\":4641:4642  j */\n      dup3\n        /* \"wwcc-contracts/contracts/wwccPool.sol\":4628:4643  separateBets[j] */\n      dup2\n      mload\n      dup2\n      lt\n      tag_156\n      jumpi\n      tag_157\n      tag_146\n      jump\t// in\n    tag_157:\n    tag_156:\n      0x20\n      mul\n      0x20\n      add\n      add\n      mload\n        /* \"wwcc-contracts/contracts/wwccPool.sol\":4628:4654  separateBets[j].visitScore */\n      0x60\n      add\n      mload\n        /* \"wwcc-contracts/contracts/wwccPool.sol\":4628:4666  separateBets[j].visitScore==visitScore */\n      eq\n        /* \"wwcc-contracts/contracts/wwccPool.sol\":4588:4666  separateBets[j].homeScore==homeScore && separateBets[j].visitScore==visitScore */\n    tag_155:\n        /* \"wwcc-contracts/contracts/wwccPool.sol\":4584:5189  if (separateBets[j].homeScore==homeScore && separateBets[j].visitScore==visitScore){... */\n      iszero\n      tag_158\n      jumpi\n        /* \"wwcc-contracts/contracts/wwccPool.sol\":4695:4724  uint256 singleScorePoolAmount */\n      0x00\n        /* \"wwcc-contracts/contracts/wwccPool.sol\":4727:4742  singleScorePool */\n      0x03\n        /* \"wwcc-contracts/contracts/wwccPool.sol\":4743:4755  separateBets */\n      dup7\n        /* \"wwcc-contracts/contracts/wwccPool.sol\":4756:4757  j */\n      dup4\n        /* \"wwcc-contracts/contracts/wwccPool.sol\":4743:4758  separateBets[j] */\n      dup2\n      mload\n      dup2\n      lt\n      tag_159\n      jumpi\n      tag_160\n      tag_146\n      jump\t// in\n    tag_160:\n    tag_159:\n      0x20\n      mul\n      0x20\n      add\n      add\n      mload\n        /* \"wwcc-contracts/contracts/wwccPool.sol\":4743:4769  separateBets[j].pickingKey */\n      0xa0\n      add\n      mload\n        /* \"wwcc-contracts/contracts/wwccPool.sol\":4727:4770  singleScorePool[separateBets[j].pickingKey] */\n      mload(0x40)\n      tag_161\n      swap2\n      swap1\n      tag_41\n      jump\t// in\n    tag_161:\n      swap1\n      dup2\n      mstore\n      0x20\n      add\n      mload(0x40)\n      dup1\n      swap2\n      sub\n      swap1\n      keccak256\n      sload\n        /* \"wwcc-contracts/contracts/wwccPool.sol\":4695:4770  uint256 singleScorePoolAmount = singleScorePool[separateBets[j].pickingKey] */\n      swap1\n      pop\n        /* \"wwcc-contracts/contracts/wwccPool.sol\":4798:4818  uint256 rewardAmount */\n      0x00\n        /* \"wwcc-contracts/contracts/wwccPool.sol\":4865:4886  singleScorePoolAmount */\n      dup2\n        /* \"wwcc-contracts/contracts/wwccPool.sol\":4839:4851  separateBets */\n      dup8\n        /* \"wwcc-contracts/contracts/wwccPool.sol\":4852:4853  j */\n      dup5\n        /* \"wwcc-contracts/contracts/wwccPool.sol\":4839:4854  separateBets[j] */\n      dup2\n      mload\n      dup2\n      lt\n      tag_162\n      jumpi\n      tag_163\n      tag_146\n      jump\t// in\n    tag_163:\n    tag_162:\n      0x20\n      mul\n      0x20\n      add\n      add\n      mload\n        /* \"wwcc-contracts/contracts/wwccPool.sol\":4839:4861  separateBets[j].weight */\n      0x00\n      add\n      mload\n        /* \"wwcc-contracts/contracts/wwccPool.sol\":4821:4836  allRewardAmount */\n      dup8\n        /* \"wwcc-contracts/contracts/wwccPool.sol\":4821:4861  allRewardAmount * separateBets[j].weight */\n      tag_164\n      swap2\n      swap1\n      tag_165\n      jump\t// in\n    tag_164:\n        /* \"wwcc-contracts/contracts/wwccPool.sol\":4821:4886  allRewardAmount * separateBets[j].weight /  singleScorePoolAmount */\n      tag_166\n      swap2\n      swap1\n      tag_167\n      jump\t// in\n    tag_166:\n        /* \"wwcc-contracts/contracts/wwccPool.sol\":4798:4886  uint256 rewardAmount = allRewardAmount * separateBets[j].weight /  singleScorePoolAmount */\n      swap1\n      pop\n        /* \"wwcc-contracts/contracts/wwccPool.sol\":4949:4979  address payable joiner_address */\n      0x00\n        /* \"wwcc-contracts/contracts/wwccPool.sol\":4990:5002  separateBets */\n      dup8\n        /* \"wwcc-contracts/contracts/wwccPool.sol\":5003:5004  j */\n      dup5\n        /* \"wwcc-contracts/contracts/wwccPool.sol\":4990:5005  separateBets[j] */\n      dup2\n      mload\n      dup2\n      lt\n      tag_168\n      jumpi\n      tag_169\n      tag_146\n      jump\t// in\n    tag_169:\n    tag_168:\n      0x20\n      mul\n      0x20\n      add\n      add\n      mload\n        /* \"wwcc-contracts/contracts/wwccPool.sol\":4990:5012  separateBets[j].joiner */\n      0x80\n      add\n      mload\n        /* \"wwcc-contracts/contracts/wwccPool.sol\":4949:5013  address payable joiner_address = payable(separateBets[j].joiner) */\n      swap1\n      pop\n        /* \"wwcc-contracts/contracts/wwccPool.sol\":5041:5055  joiner_address */\n      dup1\n        /* \"wwcc-contracts/contracts/wwccPool.sol\":5041:5064  joiner_address.transfer */\n      0xffffffffffffffffffffffffffffffffffffffff\n      and\n        /* \"wwcc-contracts/contracts/wwccPool.sol\":5041:5078  joiner_address.transfer(rewardAmount) */\n      0x08fc\n        /* \"wwcc-contracts/contracts/wwccPool.sol\":5065:5077  rewardAmount */\n      dup4\n        /* \"wwcc-contracts/contracts/wwccPool.sol\":5041:5078  joiner_address.transfer(rewardAmount) */\n      swap1\n      dup2\n      iszero\n      mul\n      swap1\n      mload(0x40)\n      0x00\n      mload(0x40)\n      dup1\n      dup4\n      sub\n      dup2\n      dup6\n      dup9\n      dup9\n      call\n      swap4\n      pop\n      pop\n      pop\n      pop\n      iszero\n      dup1\n      iszero\n      tag_171\n      jumpi\n      returndatasize\n      0x00\n      dup1\n      returndatacopy\n      revert(0x00, returndatasize)\n    tag_171:\n      pop\n        /* \"wwcc-contracts/contracts/wwccPool.sol\":5133:5137  true */\n      0x01\n        /* \"wwcc-contracts/contracts/wwccPool.sol\":5106:5118  separateBets */\n      dup9\n        /* \"wwcc-contracts/contracts/wwccPool.sol\":5119:5120  j */\n      dup6\n        /* \"wwcc-contracts/contracts/wwccPool.sol\":5106:5121  separateBets[j] */\n      dup2\n      mload\n      dup2\n      lt\n      tag_172\n      jumpi\n      tag_173\n      tag_146\n      jump\t// in\n    tag_173:\n    tag_172:\n      0x20\n      mul\n      0x20\n      add\n      add\n      mload\n        /* \"wwcc-contracts/contracts/wwccPool.sol\":5106:5130  separateBets[j].finished */\n      0xc0\n      add\n        /* \"wwcc-contracts/contracts/wwccPool.sol\":5106:5137  separateBets[j].finished = true */\n      swap1\n      iszero\n      iszero\n      swap1\n      dup2\n      iszero\n      iszero\n      dup2\n      mstore\n      pop\n      pop\n        /* \"wwcc-contracts/contracts/wwccPool.sol\":4667:5189  {... */\n      pop\n      pop\n      pop\n        /* \"wwcc-contracts/contracts/wwccPool.sol\":4584:5189  if (separateBets[j].homeScore==homeScore && separateBets[j].visitScore==visitScore){... */\n    tag_158:\n        /* \"wwcc-contracts/contracts/wwccPool.sol\":4460:6315  if(separateBets[j].kind==2){... */\n      jump(tag_174)\n    tag_150:\n        /* \"wwcc-contracts/contracts/wwccPool.sol\":5264:5270  result */\n      dup8\n        /* \"wwcc-contracts/contracts/wwccPool.sol\":5242:5254  separateBets */\n      dup6\n        /* \"wwcc-contracts/contracts/wwccPool.sol\":5255:5256  j */\n      dup3\n        /* \"wwcc-contracts/contracts/wwccPool.sol\":5242:5257  separateBets[j] */\n      dup2\n      mload\n      dup2\n      lt\n      tag_175\n      jumpi\n      tag_176\n      tag_146\n      jump\t// in\n    tag_176:\n    tag_175:\n      0x20\n      mul\n      0x20\n      add\n      add\n      mload\n        /* \"wwcc-contracts/contracts/wwccPool.sol\":5242:5262  separateBets[j].kind */\n      0x20\n      add\n      mload\n        /* \"wwcc-contracts/contracts/wwccPool.sol\":5242:5270  separateBets[j].kind==result */\n      eq\n        /* \"wwcc-contracts/contracts/wwccPool.sol\":5239:6293  if(separateBets[j].kind==result){... */\n      iszero\n      tag_177\n      jumpi\n        /* \"wwcc-contracts/contracts/wwccPool.sol\":5317:5368  (pool.wPool+pool.lPool+pool.dPool).mul(85).div(100) */\n      tag_178\n        /* \"wwcc-contracts/contracts/wwccPool.sol\":5364:5367  100 */\n      0x64\n        /* \"wwcc-contracts/contracts/wwccPool.sol\":5317:5359  (pool.wPool+pool.lPool+pool.dPool).mul(85) */\n      tag_179\n        /* \"wwcc-contracts/contracts/wwccPool.sol\":5356:5358  85 */\n      0x55\n        /* \"wwcc-contracts/contracts/wwccPool.sol\":5340:5344  pool */\n      dup10\n        /* \"wwcc-contracts/contracts/wwccPool.sol\":5340:5350  pool.dPool */\n      0x80\n      add\n      mload\n        /* \"wwcc-contracts/contracts/wwccPool.sol\":5329:5333  pool */\n      dup11\n        /* \"wwcc-contracts/contracts/wwccPool.sol\":5329:5339  pool.lPool */\n      0xa0\n      add\n      mload\n        /* \"wwcc-contracts/contracts/wwccPool.sol\":5318:5322  pool */\n      dup12\n        /* \"wwcc-contracts/contracts/wwccPool.sol\":5318:5328  pool.wPool */\n      0x60\n      add\n      mload\n        /* \"wwcc-contracts/contracts/wwccPool.sol\":5318:5339  pool.wPool+pool.lPool */\n      tag_180\n      swap2\n      swap1\n      tag_90\n      jump\t// in\n    tag_180:\n        /* \"wwcc-contracts/contracts/wwccPool.sol\":5318:5350  pool.wPool+pool.lPool+pool.dPool */\n      tag_181\n      swap2\n      swap1\n      tag_90\n      jump\t// in\n    tag_181:\n        /* \"wwcc-contracts/contracts/wwccPool.sol\":5317:5355  (pool.wPool+pool.lPool+pool.dPool).mul */\n      tag_137\n      swap1\n        /* \"wwcc-contracts/contracts/wwccPool.sol\":5317:5359  (pool.wPool+pool.lPool+pool.dPool).mul(85) */\n      swap2\n      swap1\n      0xffffffff\n      and\n      jump\t// in\n    tag_179:\n        /* \"wwcc-contracts/contracts/wwccPool.sol\":5317:5363  (pool.wPool+pool.lPool+pool.dPool).mul(85).div */\n      tag_138\n      swap1\n        /* \"wwcc-contracts/contracts/wwccPool.sol\":5317:5368  (pool.wPool+pool.lPool+pool.dPool).mul(85).div(100) */\n      swap2\n      swap1\n      0xffffffff\n      and\n      jump\t// in\n    tag_178:\n        /* \"wwcc-contracts/contracts/wwccPool.sol\":5299:5368  allRewardAmount = (pool.wPool+pool.lPool+pool.dPool).mul(85).div(100) */\n      swap4\n      pop\n        /* \"wwcc-contracts/contracts/wwccPool.sol\":5396:5418  uint256 pickPoolAmount */\n      0x00\n        /* \"wwcc-contracts/contracts/wwccPool.sol\":5478:5479  0 */\n      dup1\n        /* \"wwcc-contracts/contracts/wwccPool.sol\":5454:5466  separateBets */\n      dup7\n        /* \"wwcc-contracts/contracts/wwccPool.sol\":5467:5468  j */\n      dup4\n        /* \"wwcc-contracts/contracts/wwccPool.sol\":5454:5469  separateBets[j] */\n      dup2\n      mload\n      dup2\n      lt\n      tag_182\n      jumpi\n      tag_183\n      tag_146\n      jump\t// in\n    tag_183:\n    tag_182:\n      0x20\n      mul\n      0x20\n      add\n      add\n      mload\n        /* \"wwcc-contracts/contracts/wwccPool.sol\":5454:5474  separateBets[j].kind */\n      0x20\n      add\n      mload\n        /* \"wwcc-contracts/contracts/wwccPool.sol\":5454:5479  separateBets[j].kind == 0 */\n      eq\n        /* \"wwcc-contracts/contracts/wwccPool.sol\":5450:5585  if (separateBets[j].kind == 0){... */\n      iszero\n      tag_184\n      jumpi\n        /* \"wwcc-contracts/contracts/wwccPool.sol\":5529:5556  pool.lPool.mul(85).div(100) */\n      tag_185\n        /* \"wwcc-contracts/contracts/wwccPool.sol\":5552:5555  100 */\n      0x64\n        /* \"wwcc-contracts/contracts/wwccPool.sol\":5529:5547  pool.lPool.mul(85) */\n      tag_186\n        /* \"wwcc-contracts/contracts/wwccPool.sol\":5544:5546  85 */\n      0x55\n        /* \"wwcc-contracts/contracts/wwccPool.sol\":5529:5533  pool */\n      dup11\n        /* \"wwcc-contracts/contracts/wwccPool.sol\":5529:5539  pool.lPool */\n      0xa0\n      add\n      mload\n        /* \"wwcc-contracts/contracts/wwccPool.sol\":5529:5543  pool.lPool.mul */\n      tag_137\n      swap1\n        /* \"wwcc-contracts/contracts/wwccPool.sol\":5529:5547  pool.lPool.mul(85) */\n      swap2\n      swap1\n      0xffffffff\n      and\n      jump\t// in\n    tag_186:\n        /* \"wwcc-contracts/contracts/wwccPool.sol\":5529:5551  pool.lPool.mul(85).div */\n      tag_138\n      swap1\n        /* \"wwcc-contracts/contracts/wwccPool.sol\":5529:5556  pool.lPool.mul(85).div(100) */\n      swap2\n      swap1\n      0xffffffff\n      and\n      jump\t// in\n    tag_185:\n        /* \"wwcc-contracts/contracts/wwccPool.sol\":5512:5556  pickPoolAmount = pool.lPool.mul(85).div(100) */\n      swap1\n      pop\n        /* \"wwcc-contracts/contracts/wwccPool.sol\":5450:5585  if (separateBets[j].kind == 0){... */\n    tag_184:\n        /* \"wwcc-contracts/contracts/wwccPool.sol\":5640:5641  1 */\n      0x01\n        /* \"wwcc-contracts/contracts/wwccPool.sol\":5616:5628  separateBets */\n      dup7\n        /* \"wwcc-contracts/contracts/wwccPool.sol\":5629:5630  j */\n      dup4\n        /* \"wwcc-contracts/contracts/wwccPool.sol\":5616:5631  separateBets[j] */\n      dup2\n      mload\n      dup2\n      lt\n      tag_187\n      jumpi\n      tag_188\n      tag_146\n      jump\t// in\n    tag_188:\n    tag_187:\n      0x20\n      mul\n      0x20\n      add\n      add\n      mload\n        /* \"wwcc-contracts/contracts/wwccPool.sol\":5616:5636  separateBets[j].kind */\n      0x20\n      add\n      mload\n        /* \"wwcc-contracts/contracts/wwccPool.sol\":5616:5641  separateBets[j].kind == 1 */\n      eq\n        /* \"wwcc-contracts/contracts/wwccPool.sol\":5612:5747  if (separateBets[j].kind == 1){... */\n      iszero\n      tag_189\n      jumpi\n        /* \"wwcc-contracts/contracts/wwccPool.sol\":5691:5718  pool.dPool.mul(85).div(100) */\n      tag_190\n        /* \"wwcc-contracts/contracts/wwccPool.sol\":5714:5717  100 */\n      0x64\n        /* \"wwcc-contracts/contracts/wwccPool.sol\":5691:5709  pool.dPool.mul(85) */\n      tag_191\n        /* \"wwcc-contracts/contracts/wwccPool.sol\":5706:5708  85 */\n      0x55\n        /* \"wwcc-contracts/contracts/wwccPool.sol\":5691:5695  pool */\n      dup11\n        /* \"wwcc-contracts/contracts/wwccPool.sol\":5691:5701  pool.dPool */\n      0x80\n      add\n      mload\n        /* \"wwcc-contracts/contracts/wwccPool.sol\":5691:5705  pool.dPool.mul */\n      tag_137\n      swap1\n        /* \"wwcc-contracts/contracts/wwccPool.sol\":5691:5709  pool.dPool.mul(85) */\n      swap2\n      swap1\n      0xffffffff\n      and\n      jump\t// in\n    tag_191:\n        /* \"wwcc-contracts/contracts/wwccPool.sol\":5691:5713  pool.dPool.mul(85).div */\n      tag_138\n      swap1\n        /* \"wwcc-contracts/contracts/wwccPool.sol\":5691:5718  pool.dPool.mul(85).div(100) */\n      swap2\n      swap1\n      0xffffffff\n      and\n      jump\t// in\n    tag_190:\n        /* \"wwcc-contracts/contracts/wwccPool.sol\":5674:5718  pickPoolAmount = pool.dPool.mul(85).div(100) */\n      swap1\n      pop\n        /* \"wwcc-contracts/contracts/wwccPool.sol\":5612:5747  if (separateBets[j].kind == 1){... */\n    tag_189:\n        /* \"wwcc-contracts/contracts/wwccPool.sol\":5802:5803  3 */\n      0x03\n        /* \"wwcc-contracts/contracts/wwccPool.sol\":5778:5790  separateBets */\n      dup7\n        /* \"wwcc-contracts/contracts/wwccPool.sol\":5791:5792  j */\n      dup4\n        /* \"wwcc-contracts/contracts/wwccPool.sol\":5778:5793  separateBets[j] */\n      dup2\n      mload\n      dup2\n      lt\n      tag_192\n      jumpi\n      tag_193\n      tag_146\n      jump\t// in\n    tag_193:\n    tag_192:\n      0x20\n      mul\n      0x20\n      add\n      add\n      mload\n        /* \"wwcc-contracts/contracts/wwccPool.sol\":5778:5798  separateBets[j].kind */\n      0x20\n      add\n      mload\n        /* \"wwcc-contracts/contracts/wwccPool.sol\":5778:5803  separateBets[j].kind == 3 */\n      eq\n        /* \"wwcc-contracts/contracts/wwccPool.sol\":5774:5909  if (separateBets[j].kind == 3){... */\n      iszero\n      tag_194\n      jumpi\n        /* \"wwcc-contracts/contracts/wwccPool.sol\":5853:5880  pool.wPool.mul(85).div(100) */\n      tag_195\n        /* \"wwcc-contracts/contracts/wwccPool.sol\":5876:5879  100 */\n      0x64\n        /* \"wwcc-contracts/contracts/wwccPool.sol\":5853:5871  pool.wPool.mul(85) */\n      tag_196\n        /* \"wwcc-contracts/contracts/wwccPool.sol\":5868:5870  85 */\n      0x55\n        /* \"wwcc-contracts/contracts/wwccPool.sol\":5853:5857  pool */\n      dup11\n        /* \"wwcc-contracts/contracts/wwccPool.sol\":5853:5863  pool.wPool */\n      0x60\n      add\n      mload\n        /* \"wwcc-contracts/contracts/wwccPool.sol\":5853:5867  pool.wPool.mul */\n      tag_137\n      swap1\n        /* \"wwcc-contracts/contracts/wwccPool.sol\":5853:5871  pool.wPool.mul(85) */\n      swap2\n      swap1\n      0xffffffff\n      and\n      jump\t// in\n    tag_196:\n        /* \"wwcc-contracts/contracts/wwccPool.sol\":5853:5875  pool.wPool.mul(85).div */\n      tag_138\n      swap1\n        /* \"wwcc-contracts/contracts/wwccPool.sol\":5853:5880  pool.wPool.mul(85).div(100) */\n      swap2\n      swap1\n      0xffffffff\n      and\n      jump\t// in\n    tag_195:\n        /* \"wwcc-contracts/contracts/wwccPool.sol\":5836:5880  pickPoolAmount = pool.wPool.mul(85).div(100) */\n      swap1\n      pop\n        /* \"wwcc-contracts/contracts/wwccPool.sol\":5774:5909  if (separateBets[j].kind == 3){... */\n    tag_194:\n        /* \"wwcc-contracts/contracts/wwccPool.sol\":5936:5956  uint256 rewardAmount */\n      0x00\n        /* \"wwcc-contracts/contracts/wwccPool.sol\":6003:6017  pickPoolAmount */\n      dup2\n        /* \"wwcc-contracts/contracts/wwccPool.sol\":5977:5989  separateBets */\n      dup8\n        /* \"wwcc-contracts/contracts/wwccPool.sol\":5990:5991  j */\n      dup5\n        /* \"wwcc-contracts/contracts/wwccPool.sol\":5977:5992  separateBets[j] */\n      dup2\n      mload\n      dup2\n      lt\n      tag_197\n      jumpi\n      tag_198\n      tag_146\n      jump\t// in\n    tag_198:\n    tag_197:\n      0x20\n      mul\n      0x20\n      add\n      add\n      mload\n        /* \"wwcc-contracts/contracts/wwccPool.sol\":5977:5999  separateBets[j].weight */\n      0x00\n      add\n      mload\n        /* \"wwcc-contracts/contracts/wwccPool.sol\":5959:5974  allRewardAmount */\n      dup8\n        /* \"wwcc-contracts/contracts/wwccPool.sol\":5959:5999  allRewardAmount * separateBets[j].weight */\n      tag_199\n      swap2\n      swap1\n      tag_165\n      jump\t// in\n    tag_199:\n        /* \"wwcc-contracts/contracts/wwccPool.sol\":5959:6017  allRewardAmount * separateBets[j].weight /  pickPoolAmount */\n      tag_200\n      swap2\n      swap1\n      tag_167\n      jump\t// in\n    tag_200:\n        /* \"wwcc-contracts/contracts/wwccPool.sol\":5936:6017  uint256 rewardAmount = allRewardAmount * separateBets[j].weight /  pickPoolAmount */\n      swap1\n      pop\n        /* \"wwcc-contracts/contracts/wwccPool.sol\":6080:6110  address payable joiner_address */\n      0x00\n        /* \"wwcc-contracts/contracts/wwccPool.sol\":6121:6133  separateBets */\n      dup8\n        /* \"wwcc-contracts/contracts/wwccPool.sol\":6134:6135  j */\n      dup5\n        /* \"wwcc-contracts/contracts/wwccPool.sol\":6121:6136  separateBets[j] */\n      dup2\n      mload\n      dup2\n      lt\n      tag_201\n      jumpi\n      tag_202\n      tag_146\n      jump\t// in\n    tag_202:\n    tag_201:\n      0x20\n      mul\n      0x20\n      add\n      add\n      mload\n        /* \"wwcc-contracts/contracts/wwccPool.sol\":6121:6143  separateBets[j].joiner */\n      0x80\n      add\n      mload\n        /* \"wwcc-contracts/contracts/wwccPool.sol\":6080:6144  address payable joiner_address = payable(separateBets[j].joiner) */\n      swap1\n      pop\n        /* \"wwcc-contracts/contracts/wwccPool.sol\":6172:6186  joiner_address */\n      dup1\n        /* \"wwcc-contracts/contracts/wwccPool.sol\":6172:6195  joiner_address.transfer */\n      0xffffffffffffffffffffffffffffffffffffffff\n      and\n        /* \"wwcc-contracts/contracts/wwccPool.sol\":6172:6209  joiner_address.transfer(rewardAmount) */\n      0x08fc\n        /* \"wwcc-contracts/contracts/wwccPool.sol\":6196:6208  rewardAmount */\n      dup4\n        /* \"wwcc-contracts/contracts/wwccPool.sol\":6172:6209  joiner_address.transfer(rewardAmount) */\n      swap1\n      dup2\n      iszero\n      mul\n      swap1\n      mload(0x40)\n      0x00\n      mload(0x40)\n      dup1\n      dup4\n      sub\n      dup2\n      dup6\n      dup9\n      dup9\n      call\n      swap4\n      pop\n      pop\n      pop\n      pop\n      iszero\n      dup1\n      iszero\n      tag_204\n      jumpi\n      returndatasize\n      0x00\n      dup1\n      returndatacopy\n      revert(0x00, returndatasize)\n    tag_204:\n      pop\n        /* \"wwcc-contracts/contracts/wwccPool.sol\":6264:6268  true */\n      0x01\n        /* \"wwcc-contracts/contracts/wwccPool.sol\":6237:6249  separateBets */\n      dup9\n        /* \"wwcc-contracts/contracts/wwccPool.sol\":6250:6251  j */\n      dup6\n        /* \"wwcc-contracts/contracts/wwccPool.sol\":6237:6252  separateBets[j] */\n      dup2\n      mload\n      dup2\n      lt\n      tag_205\n      jumpi\n      tag_206\n      tag_146\n      jump\t// in\n    tag_206:\n    tag_205:\n      0x20\n      mul\n      0x20\n      add\n      add\n      mload\n        /* \"wwcc-contracts/contracts/wwccPool.sol\":6237:6261  separateBets[j].finished */\n      0xc0\n      add\n        /* \"wwcc-contracts/contracts/wwccPool.sol\":6237:6268  separateBets[j].finished = true */\n      swap1\n      iszero\n      iszero\n      swap1\n      dup2\n      iszero\n      iszero\n      dup2\n      mstore\n      pop\n      pop\n        /* \"wwcc-contracts/contracts/wwccPool.sol\":5271:6293  {... */\n      pop\n      pop\n      pop\n        /* \"wwcc-contracts/contracts/wwccPool.sol\":5239:6293  if(separateBets[j].kind==result){... */\n    tag_177:\n        /* \"wwcc-contracts/contracts/wwccPool.sol\":4460:6315  if(separateBets[j].kind==2){... */\n    tag_174:\n        /* \"wwcc-contracts/contracts/wwccPool.sol\":4400:6335  if(separateBets[j].finished = false){... */\n    tag_147:\n        /* \"wwcc-contracts/contracts/wwccPool.sol\":4358:4362  j ++ */\n      dup1\n      dup1\n      tag_207\n      swap1\n      tag_208\n      jump\t// in\n    tag_207:\n      swap2\n      pop\n      pop\n        /* \"wwcc-contracts/contracts/wwccPool.sol\":4264:6355  for (... */\n      jump(tag_139)\n    tag_140:\n      pop\n        /* \"wwcc-contracts/contracts/wwccPool.sol\":6372:6401  address payable owner_address */\n      0x00\n        /* \"wwcc-contracts/contracts/wwccPool.sol\":6412:6417  owner */\n      dup1\n      0x00\n      swap1\n      sload\n      swap1\n      0x0100\n      exp\n      swap1\n      div\n      0xffffffffffffffffffffffffffffffffffffffff\n      and\n        /* \"wwcc-contracts/contracts/wwccPool.sol\":6372:6418  address payable owner_address = payable(owner) */\n      swap1\n      pop\n        /* \"wwcc-contracts/contracts/wwccPool.sol\":6436:6449  owner_address */\n      dup1\n        /* \"wwcc-contracts/contracts/wwccPool.sol\":6436:6458  owner_address.transfer */\n      0xffffffffffffffffffffffffffffffffffffffff\n      and\n        /* \"wwcc-contracts/contracts/wwccPool.sol\":6436:6473  owner_address.transfer(serviceAmount) */\n      0x08fc\n        /* \"wwcc-contracts/contracts/wwccPool.sol\":6459:6472  serviceAmount */\n      dup4\n        /* \"wwcc-contracts/contracts/wwccPool.sol\":6436:6473  owner_address.transfer(serviceAmount) */\n      swap1\n      dup2\n      iszero\n      mul\n      swap1\n      mload(0x40)\n      0x00\n      mload(0x40)\n      dup1\n      dup4\n      sub\n      dup2\n      dup6\n      dup9\n      dup9\n      call\n      swap4\n      pop\n      pop\n      pop\n      pop\n      iszero\n      dup1\n      iszero\n      tag_210\n      jumpi\n      returndatasize\n      0x00\n      dup1\n      returndatacopy\n      revert(0x00, returndatasize)\n    tag_210:\n      pop\n        /* \"wwcc-contracts/contracts/wwccPool.sol\":3806:6483  {... */\n      pop\n      pop\n      pop\n      pop\n      pop\n      pop\n        /* \"wwcc-contracts/contracts/wwccPool.sol\":6498:6502  true */\n      0x01\n        /* \"wwcc-contracts/contracts/wwccPool.sol\":6491:6502  return true */\n      swap1\n      pop\n        /* \"wwcc-contracts/contracts/wwccPool.sol\":3592:6509  function Award(bytes32 poolKey,uint256 homeScore,uint256 visitScore,uint256 result)  external onlyManager  payable returns(bool){... */\n      swap5\n      swap4\n      pop\n      pop\n      pop\n      pop\n      jump\t// out\n        /* \"wwcc-contracts/contracts/wwccPool.sol\":6514:7047  function getPair(bytes32 poolKey) external view returns (string memory home,string memory visit,string memory rounds,uint256 wPool,uint256 dPool,uint256 lPool,uint256 sPool){... */\n    tag_29:\n        /* \"wwcc-contracts/contracts/wwccPool.sol\":6571:6589  string memory home */\n      0x60\n        /* \"wwcc-contracts/contracts/wwccPool.sol\":6590:6609  string memory visit */\n      dup1\n        /* \"wwcc-contracts/contracts/wwccPool.sol\":6610:6630  string memory rounds */\n      0x60\n        /* \"wwcc-contracts/contracts/wwccPool.sol\":6631:6644  uint256 wPool */\n      0x00\n        /* \"wwcc-contracts/contracts/wwccPool.sol\":6645:6658  uint256 dPool */\n      dup1\n        /* \"wwcc-contracts/contracts/wwccPool.sol\":6659:6672  uint256 lPool */\n      0x00\n        /* \"wwcc-contracts/contracts/wwccPool.sol\":6673:6686  uint256 sPool */\n      dup1\n        /* \"wwcc-contracts/contracts/wwccPool.sol\":6701:6718  contains(poolKey) */\n      tag_212\n        /* \"wwcc-contracts/contracts/wwccPool.sol\":6710:6717  poolKey */\n      dup9\n        /* \"wwcc-contracts/contracts/wwccPool.sol\":6701:6709  contains */\n      tag_43\n        /* \"wwcc-contracts/contracts/wwccPool.sol\":6701:6718  contains(poolKey) */\n      jump\t// in\n    tag_212:\n        /* \"wwcc-contracts/contracts/wwccPool.sol\":6697:7041  if(!contains(poolKey)) { ... */\n      tag_213\n      jumpi\n        /* \"wwcc-contracts/contracts/wwccPool.sol\":6735:6754  revert(\"not exist\") */\n      mload(0x40)\n      0x08c379a000000000000000000000000000000000000000000000000000000000\n      dup2\n      mstore\n      0x04\n      add\n      tag_214\n      swap1\n      tag_215\n      jump\t// in\n    tag_214:\n      mload(0x40)\n      dup1\n      swap2\n      sub\n      swap1\n      revert\n        /* \"wwcc-contracts/contracts/wwccPool.sol\":6697:7041  if(!contains(poolKey)) { ... */\n    tag_213:\n        /* \"wwcc-contracts/contracts/wwccPool.sol\":6791:6798  WcPools */\n      0x05\n        /* \"wwcc-contracts/contracts/wwccPool.sol\":6791:6807  WcPools[poolKey] */\n      0x00\n        /* \"wwcc-contracts/contracts/wwccPool.sol\":6799:6806  poolKey */\n      dup10\n        /* \"wwcc-contracts/contracts/wwccPool.sol\":6791:6807  WcPools[poolKey] */\n      dup2\n      mstore\n      0x20\n      add\n      swap1\n      dup2\n      mstore\n      0x20\n      add\n      0x00\n      keccak256\n        /* \"wwcc-contracts/contracts/wwccPool.sol\":6791:6812  WcPools[poolKey].home */\n      0x00\n      add\n        /* \"wwcc-contracts/contracts/wwccPool.sol\":6826:6833  WcPools */\n      0x05\n        /* \"wwcc-contracts/contracts/wwccPool.sol\":6826:6842  WcPools[poolKey] */\n      0x00\n        /* \"wwcc-contracts/contracts/wwccPool.sol\":6834:6841  poolKey */\n      dup11\n        /* \"wwcc-contracts/contracts/wwccPool.sol\":6826:6842  WcPools[poolKey] */\n      dup2\n      mstore\n      0x20\n      add\n      swap1\n      dup2\n      mstore\n      0x20\n      add\n      0x00\n      keccak256\n        /* \"wwcc-contracts/contracts/wwccPool.sol\":6826:6848  WcPools[poolKey].visit */\n      0x01\n      add\n        /* \"wwcc-contracts/contracts/wwccPool.sol\":6862:6869  WcPools */\n      0x05\n        /* \"wwcc-contracts/contracts/wwccPool.sol\":6862:6878  WcPools[poolKey] */\n      0x00\n        /* \"wwcc-contracts/contracts/wwccPool.sol\":6870:6877  poolKey */\n      dup12\n        /* \"wwcc-contracts/contracts/wwccPool.sol\":6862:6878  WcPools[poolKey] */\n      dup2\n      mstore\n      0x20\n      add\n      swap1\n      dup2\n      mstore\n      0x20\n      add\n      0x00\n      keccak256\n        /* \"wwcc-contracts/contracts/wwccPool.sol\":6862:6885  WcPools[poolKey].rounds */\n      0x02\n      add\n        /* \"wwcc-contracts/contracts/wwccPool.sol\":6899:6906  WcPools */\n      0x05\n        /* \"wwcc-contracts/contracts/wwccPool.sol\":6899:6915  WcPools[poolKey] */\n      0x00\n        /* \"wwcc-contracts/contracts/wwccPool.sol\":6907:6914  poolKey */\n      dup13\n        /* \"wwcc-contracts/contracts/wwccPool.sol\":6899:6915  WcPools[poolKey] */\n      dup2\n      mstore\n      0x20\n      add\n      swap1\n      dup2\n      mstore\n      0x20\n      add\n      0x00\n      keccak256\n        /* \"wwcc-contracts/contracts/wwccPool.sol\":6899:6921  WcPools[poolKey].wPool */\n      0x03\n      add\n      sload\n        /* \"wwcc-contracts/contracts/wwccPool.sol\":6935:6942  WcPools */\n      0x05\n        /* \"wwcc-contracts/contracts/wwccPool.sol\":6935:6951  WcPools[poolKey] */\n      0x00\n        /* \"wwcc-contracts/contracts/wwccPool.sol\":6943:6950  poolKey */\n      dup14\n        /* \"wwcc-contracts/contracts/wwccPool.sol\":6935:6951  WcPools[poolKey] */\n      dup2\n      mstore\n      0x20\n      add\n      swap1\n      dup2\n      mstore\n      0x20\n      add\n      0x00\n      keccak256\n        /* \"wwcc-contracts/contracts/wwccPool.sol\":6935:6957  WcPools[poolKey].dPool */\n      0x04\n      add\n      sload\n        /* \"wwcc-contracts/contracts/wwccPool.sol\":6971:6978  WcPools */\n      0x05\n        /* \"wwcc-contracts/contracts/wwccPool.sol\":6971:6987  WcPools[poolKey] */\n      0x00\n        /* \"wwcc-contracts/contracts/wwccPool.sol\":6979:6986  poolKey */\n      dup15\n        /* \"wwcc-contracts/contracts/wwccPool.sol\":6971:6987  WcPools[poolKey] */\n      dup2\n      mstore\n      0x20\n      add\n      swap1\n      dup2\n      mstore\n      0x20\n      add\n      0x00\n      keccak256\n        /* \"wwcc-contracts/contracts/wwccPool.sol\":6971:6993  WcPools[poolKey].lPool */\n      0x05\n      add\n      sload\n        /* \"wwcc-contracts/contracts/wwccPool.sol\":7007:7014  WcPools */\n      0x05\n        /* \"wwcc-contracts/contracts/wwccPool.sol\":7007:7023  WcPools[poolKey] */\n      0x00\n        /* \"wwcc-contracts/contracts/wwccPool.sol\":7015:7022  poolKey */\n      dup16\n        /* \"wwcc-contracts/contracts/wwccPool.sol\":7007:7023  WcPools[poolKey] */\n      dup2\n      mstore\n      0x20\n      add\n      swap1\n      dup2\n      mstore\n      0x20\n      add\n      0x00\n      keccak256\n        /* \"wwcc-contracts/contracts/wwccPool.sol\":7007:7029  WcPools[poolKey].sPool */\n      0x06\n      add\n      sload\n        /* \"wwcc-contracts/contracts/wwccPool.sol\":6783:7030  return (WcPools[poolKey].home,... */\n      dup7\n      dup1\n      sload\n      tag_217\n      swap1\n      tag_62\n      jump\t// in\n    tag_217:\n      dup1\n      0x1f\n      add\n      0x20\n      dup1\n      swap2\n      div\n      mul\n      0x20\n      add\n      mload(0x40)\n      swap1\n      dup2\n      add\n      0x40\n      mstore\n      dup1\n      swap3\n      swap2\n      swap1\n      dup2\n      dup2\n      mstore\n      0x20\n      add\n      dup3\n      dup1\n      sload\n      tag_218\n      swap1\n      tag_62\n      jump\t// in\n    tag_218:\n      dup1\n      iszero\n      tag_219\n      jumpi\n      dup1\n      0x1f\n      lt\n      tag_220\n      jumpi\n      0x0100\n      dup1\n      dup4\n      sload\n      div\n      mul\n      dup4\n      mstore\n      swap2\n      0x20\n      add\n      swap2\n      jump(tag_219)\n    tag_220:\n      dup3\n      add\n      swap2\n      swap1\n      0x00\n      mstore\n      keccak256(0x00, 0x20)\n      swap1\n    tag_221:\n      dup2\n      sload\n      dup2\n      mstore\n      swap1\n      0x01\n      add\n      swap1\n      0x20\n      add\n      dup1\n      dup4\n      gt\n      tag_221\n      jumpi\n      dup3\n      swap1\n      sub\n      0x1f\n      and\n      dup3\n      add\n      swap2\n    tag_219:\n      pop\n      pop\n      pop\n      pop\n      pop\n      swap7\n      pop\n      dup6\n      dup1\n      sload\n      tag_222\n      swap1\n      tag_62\n      jump\t// in\n    tag_222:\n      dup1\n      0x1f\n      add\n      0x20\n      dup1\n      swap2\n      div\n      mul\n      0x20\n      add\n      mload(0x40)\n      swap1\n      dup2\n      add\n      0x40\n      mstore\n      dup1\n      swap3\n      swap2\n      swap1\n      dup2\n      dup2\n      mstore\n      0x20\n      add\n      dup3\n      dup1\n      sload\n      tag_223\n      swap1\n      tag_62\n      jump\t// in\n    tag_223:\n      dup1\n      iszero\n      tag_224\n      jumpi\n      dup1\n      0x1f\n      lt\n      tag_225\n      jumpi\n      0x0100\n      dup1\n      dup4\n      sload\n      div\n      mul\n      dup4\n      mstore\n      swap2\n      0x20\n      add\n      swap2\n      jump(tag_224)\n    tag_225:\n      dup3\n      add\n      swap2\n      swap1\n      0x00\n      mstore\n      keccak256(0x00, 0x20)\n      swap1\n    tag_226:\n      dup2\n      sload\n      dup2\n      mstore\n      swap1\n      0x01\n      add\n      swap1\n      0x20\n      add\n      dup1\n      dup4\n      gt\n      tag_226\n      jumpi\n      dup3\n      swap1\n      sub\n      0x1f\n      and\n      dup3\n      add\n      swap2\n    tag_224:\n      pop\n      pop\n      pop\n      pop\n      pop\n      swap6\n      pop\n      dup5\n      dup1\n      sload\n      tag_227\n      swap1\n      tag_62\n      jump\t// in\n    tag_227:\n      dup1\n      0x1f\n      add\n      0x20\n      dup1\n      swap2\n      div\n      mul\n      0x20\n      add\n      mload(0x40)\n      swap1\n      dup2\n      add\n      0x40\n      mstore\n      dup1\n      swap3\n      swap2\n      swap1\n      dup2\n      dup2\n      mstore\n      0x20\n      add\n      dup3\n      dup1\n      sload\n      tag_228\n      swap1\n      tag_62\n      jump\t// in\n    tag_228:\n      dup1\n      iszero\n      tag_229\n      jumpi\n      dup1\n      0x1f\n      lt\n      tag_230\n      jumpi\n      0x0100\n      dup1\n      dup4\n      sload\n      div\n      mul\n      dup4\n      mstore\n      swap2\n      0x20\n      add\n      swap2\n      jump(tag_229)\n    tag_230:\n      dup3\n      add\n      swap2\n      swap1\n      0x00\n      mstore\n      keccak256(0x00, 0x20)\n      swap1\n    tag_231:\n      dup2\n      sload\n      dup2\n      mstore\n      swap1\n      0x01\n      add\n      swap1\n      0x20\n      add\n      dup1\n      dup4\n      gt\n      tag_231\n      jumpi\n      dup3\n      swap1\n      sub\n      0x1f\n      and\n      dup3\n      add\n      swap2\n    tag_229:\n      pop\n      pop\n      pop\n      pop\n      pop\n      swap5\n      pop\n      swap7\n      pop\n      swap7\n      pop\n      swap7\n      pop\n      swap7\n      pop\n      swap7\n      pop\n      swap7\n      pop\n      swap7\n      pop\n        /* \"wwcc-contracts/contracts/wwccPool.sol\":6514:7047  function getPair(bytes32 poolKey) external view returns (string memory home,string memory visit,string memory rounds,uint256 wPool,uint256 dPool,uint256 lPool,uint256 sPool){... */\n      swap2\n      swap4\n      swap6\n      swap8\n      swap1\n      swap3\n      swap5\n      swap7\n      pop\n      jump\t// out\n        /* \"wwcc-contracts/contracts/wwccPool.sol\":7170:7659  function strConcat(string memory _a,string memory _b) internal pure returns (string memory){... */\n    tag_38:\n        /* \"wwcc-contracts/contracts/wwccPool.sol\":7247:7260  string memory */\n      0x60\n        /* \"wwcc-contracts/contracts/wwccPool.sol\":7275:7291  bytes memory _ba */\n      0x00\n        /* \"wwcc-contracts/contracts/wwccPool.sol\":7300:7302  _a */\n      dup4\n        /* \"wwcc-contracts/contracts/wwccPool.sol\":7275:7303  bytes memory _ba = bytes(_a) */\n      swap1\n      pop\n        /* \"wwcc-contracts/contracts/wwccPool.sol\":7317:7333  bytes memory _bb */\n      0x00\n        /* \"wwcc-contracts/contracts/wwccPool.sol\":7342:7344  _b */\n      dup4\n        /* \"wwcc-contracts/contracts/wwccPool.sol\":7317:7345  bytes memory _bb = bytes(_b) */\n      swap1\n      pop\n        /* \"wwcc-contracts/contracts/wwccPool.sol\":7359:7376  string memory ret */\n      0x00\n        /* \"wwcc-contracts/contracts/wwccPool.sol\":7403:7406  _bb */\n      dup2\n        /* \"wwcc-contracts/contracts/wwccPool.sol\":7403:7413  _bb.length */\n      mload\n        /* \"wwcc-contracts/contracts/wwccPool.sol\":7390:7393  _ba */\n      dup4\n        /* \"wwcc-contracts/contracts/wwccPool.sol\":7390:7400  _ba.length */\n      mload\n        /* \"wwcc-contracts/contracts/wwccPool.sol\":7390:7413  _ba.length + _bb.length */\n      tag_233\n      swap2\n      swap1\n      tag_90\n      jump\t// in\n    tag_233:\n        /* \"wwcc-contracts/contracts/wwccPool.sol\":7379:7414  new string(_ba.length + _bb.length) */\n      0xffffffffffffffff\n      dup2\n      gt\n      iszero\n      tag_234\n      jumpi\n      tag_235\n      tag_236\n      jump\t// in\n    tag_235:\n    tag_234:\n      mload(0x40)\n      swap1\n      dup1\n      dup3\n      mstore\n      dup1\n      0x1f\n      add\n      not(0x1f)\n      and\n      0x20\n      add\n      dup3\n      add\n      0x40\n      mstore\n      dup1\n      iszero\n      tag_237\n      jumpi\n      dup2\n      0x20\n      add\n      0x01\n      dup3\n      mul\n      dup1\n      calldatasize\n      dup4\n      calldatacopy\n      dup1\n      dup3\n      add\n      swap2\n      pop\n      pop\n      swap1\n      pop\n    tag_237:\n      pop\n        /* \"wwcc-contracts/contracts/wwccPool.sol\":7359:7414  string memory ret = new string(_ba.length + _bb.length) */\n      swap1\n      pop\n        /* \"wwcc-contracts/contracts/wwccPool.sol\":7428:7445  bytes memory bret */\n      0x00\n        /* \"wwcc-contracts/contracts/wwccPool.sol\":7454:7457  ret */\n      dup2\n        /* \"wwcc-contracts/contracts/wwccPool.sol\":7428:7458  bytes memory bret = bytes(ret) */\n      swap1\n      pop\n        /* \"wwcc-contracts/contracts/wwccPool.sol\":7472:7478  uint k */\n      0x00\n        /* \"wwcc-contracts/contracts/wwccPool.sol\":7500:7506  uint i */\n      dup1\n        /* \"wwcc-contracts/contracts/wwccPool.sol\":7496:7549  for(uint i = 0;i < _ba.length;i++) bret[k++] = _ba[i] */\n    tag_238:\n        /* \"wwcc-contracts/contracts/wwccPool.sol\":7515:7518  _ba */\n      dup6\n        /* \"wwcc-contracts/contracts/wwccPool.sol\":7515:7525  _ba.length */\n      mload\n        /* \"wwcc-contracts/contracts/wwccPool.sol\":7511:7512  i */\n      dup2\n        /* \"wwcc-contracts/contracts/wwccPool.sol\":7511:7525  i < _ba.length */\n      lt\n        /* \"wwcc-contracts/contracts/wwccPool.sol\":7496:7549  for(uint i = 0;i < _ba.length;i++) bret[k++] = _ba[i] */\n      iszero\n      tag_239\n      jumpi\n        /* \"wwcc-contracts/contracts/wwccPool.sol\":7543:7546  _ba */\n      dup6\n        /* \"wwcc-contracts/contracts/wwccPool.sol\":7547:7548  i */\n      dup2\n        /* \"wwcc-contracts/contracts/wwccPool.sol\":7543:7549  _ba[i] */\n      dup2\n      mload\n      dup2\n      lt\n      tag_241\n      jumpi\n      tag_242\n      tag_146\n      jump\t// in\n    tag_242:\n    tag_241:\n      0x20\n      add\n      add\n      mload\n      0xf8\n      shr\n      0xf8\n      shl\n        /* \"wwcc-contracts/contracts/wwccPool.sol\":7531:7535  bret */\n      dup4\n        /* \"wwcc-contracts/contracts/wwccPool.sol\":7536:7539  k++ */\n      dup4\n      dup1\n      tag_243\n      swap1\n      tag_208\n      jump\t// in\n    tag_243:\n      swap5\n      pop\n        /* \"wwcc-contracts/contracts/wwccPool.sol\":7531:7540  bret[k++] */\n      dup2\n      mload\n      dup2\n      lt\n      tag_244\n      jumpi\n      tag_245\n      tag_146\n      jump\t// in\n    tag_245:\n    tag_244:\n      0x20\n      add\n      add\n        /* \"wwcc-contracts/contracts/wwccPool.sol\":7531:7549  bret[k++] = _ba[i] */\n      swap1\n      not(0xffffffffffffffffffffffffffffffffffffffffffffffffffffffffffffff)\n      and\n      swap1\n      dup2\n      0x00\n      byte\n      swap1\n      mstore8\n      pop\n        /* \"wwcc-contracts/contracts/wwccPool.sol\":7526:7529  i++ */\n      dup1\n      dup1\n      tag_246\n      swap1\n      tag_208\n      jump\t// in\n    tag_246:\n      swap2\n      pop\n      pop\n        /* \"wwcc-contracts/contracts/wwccPool.sol\":7496:7549  for(uint i = 0;i < _ba.length;i++) bret[k++] = _ba[i] */\n      jump(tag_238)\n    tag_239:\n      pop\n        /* \"wwcc-contracts/contracts/wwccPool.sol\":7567:7573  uint i */\n      0x00\n        /* \"wwcc-contracts/contracts/wwccPool.sol\":7563:7616  for(uint i = 0;i < _bb.length;i++) bret[k++] = _bb[i] */\n    tag_247:\n        /* \"wwcc-contracts/contracts/wwccPool.sol\":7582:7585  _bb */\n      dup5\n        /* \"wwcc-contracts/contracts/wwccPool.sol\":7582:7592  _bb.length */\n      mload\n        /* \"wwcc-contracts/contracts/wwccPool.sol\":7578:7579  i */\n      dup2\n        /* \"wwcc-contracts/contracts/wwccPool.sol\":7578:7592  i < _bb.length */\n      lt\n        /* \"wwcc-contracts/contracts/wwccPool.sol\":7563:7616  for(uint i = 0;i < _bb.length;i++) bret[k++] = _bb[i] */\n      iszero\n      tag_248\n      jumpi\n        /* \"wwcc-contracts/contracts/wwccPool.sol\":7610:7613  _bb */\n      dup5\n        /* \"wwcc-contracts/contracts/wwccPool.sol\":7614:7615  i */\n      dup2\n        /* \"wwcc-contracts/contracts/wwccPool.sol\":7610:7616  _bb[i] */\n      dup2\n      mload\n      dup2\n      lt\n      tag_250\n      jumpi\n      tag_251\n      tag_146\n      jump\t// in\n    tag_251:\n    tag_250:\n      0x20\n      add\n      add\n      mload\n      0xf8\n      shr\n      0xf8\n      shl\n        /* \"wwcc-contracts/contracts/wwccPool.sol\":7598:7602  bret */\n      dup4\n        /* \"wwcc-contracts/contracts/wwccPool.sol\":7603:7606  k++ */\n      dup4\n      dup1\n      tag_252\n      swap1\n      tag_208\n      jump\t// in\n    tag_252:\n      swap5\n      pop\n        /* \"wwcc-contracts/contracts/wwccPool.sol\":7598:7607  bret[k++] */\n      dup2\n      mload\n      dup2\n      lt\n      tag_253\n      jumpi\n      tag_254\n      tag_146\n      jump\t// in\n    tag_254:\n    tag_253:\n      0x20\n      add\n      add\n        /* \"wwcc-contracts/contracts/wwccPool.sol\":7598:7616  bret[k++] = _bb[i] */\n      swap1\n      not(0xffffffffffffffffffffffffffffffffffffffffffffffffffffffffffffff)\n      and\n      swap1\n      dup2\n      0x00\n      byte\n      swap1\n      mstore8\n      pop\n        /* \"wwcc-contracts/contracts/wwccPool.sol\":7593:7596  i++ */\n      dup1\n      dup1\n      tag_255\n      swap1\n      tag_208\n      jump\t// in\n    tag_255:\n      swap2\n      pop\n      pop\n        /* \"wwcc-contracts/contracts/wwccPool.sol\":7563:7616  for(uint i = 0;i < _bb.length;i++) bret[k++] = _bb[i] */\n      jump(tag_247)\n    tag_248:\n      pop\n        /* \"wwcc-contracts/contracts/wwccPool.sol\":7644:7647  ret */\n      dup3\n        /* \"wwcc-contracts/contracts/wwccPool.sol\":7630:7648  return string(ret) */\n      swap6\n      pop\n      pop\n      pop\n      pop\n      pop\n      pop\n        /* \"wwcc-contracts/contracts/wwccPool.sol\":7170:7659  function strConcat(string memory _a,string memory _b) internal pure returns (string memory){... */\n      swap3\n      swap2\n      pop\n      pop\n      jump\t// out\n        /* \"wwcc-contracts/contracts/wwccPool.sol\":7052:7165  function contains(bytes32 poolKey) internal view returns (bool) {... */\n    tag_43:\n        /* \"wwcc-contracts/contracts/wwccPool.sol\":7110:7114  bool */\n      0x00\n        /* \"wwcc-contracts/contracts/wwccPool.sol\":7137:7144  WcPools */\n      0x05\n        /* \"wwcc-contracts/contracts/wwccPool.sol\":7137:7153  WcPools[poolKey] */\n      0x00\n        /* \"wwcc-contracts/contracts/wwccPool.sol\":7145:7152  poolKey */\n      dup4\n        /* \"wwcc-contracts/contracts/wwccPool.sol\":7137:7153  WcPools[poolKey] */\n      dup2\n      mstore\n      0x20\n      add\n      swap1\n      dup2\n      mstore\n      0x20\n      add\n      0x00\n      keccak256\n        /* \"wwcc-contracts/contracts/wwccPool.sol\":7137:7158  WcPools[poolKey].used */\n      0x07\n      add\n      0x01\n      swap1\n      sload\n      swap1\n      0x0100\n      exp\n      swap1\n      div\n      0xff\n      and\n        /* \"wwcc-contracts/contracts/wwccPool.sol\":7130:7158  return WcPools[poolKey].used */\n      swap1\n      pop\n        /* \"wwcc-contracts/contracts/wwccPool.sol\":7052:7165  function contains(bytes32 poolKey) internal view returns (bool) {... */\n      swap2\n      swap1\n      pop\n      jump\t// out\n        /* \"wwcc-contracts/contracts/wwccPool.sol\":7798:7927  function uint256ToString(uint256 u) internal pure returns(string memory){... */\n    tag_79:\n        /* \"wwcc-contracts/contracts/wwccPool.sol\":7856:7869  string memory */\n      0x60\n        /* \"wwcc-contracts/contracts/wwccPool.sol\":7891:7920  toString(abi.encodePacked(u)) */\n      tag_258\n        /* \"wwcc-contracts/contracts/wwccPool.sol\":7917:7918  u */\n      dup3\n        /* \"wwcc-contracts/contracts/wwccPool.sol\":7900:7919  abi.encodePacked(u) */\n      add(0x20, mload(0x40))\n      tag_259\n      swap2\n      swap1\n      tag_260\n      jump\t// in\n    tag_259:\n      mload(0x40)\n      0x20\n      dup2\n      dup4\n      sub\n      sub\n      dup2\n      mstore\n      swap1\n      0x40\n      mstore\n        /* \"wwcc-contracts/contracts/wwccPool.sol\":7891:7899  toString */\n      tag_261\n        /* \"wwcc-contracts/contracts/wwccPool.sol\":7891:7920  toString(abi.encodePacked(u)) */\n      jump\t// in\n    tag_258:\n        /* \"wwcc-contracts/contracts/wwccPool.sol\":7884:7920  return toString(abi.encodePacked(u)) */\n      swap1\n      pop\n        /* \"wwcc-contracts/contracts/wwccPool.sol\":7798:7927  function uint256ToString(uint256 u) internal pure returns(string memory){... */\n      swap2\n      swap1\n      pop\n      jump\t// out\n        /* \"wwcc-contracts/contracts/wwccPool.sol\":7932:8062  function bytes32ToString(bytes32 b) internal pure returns(string memory){... */\n    tag_83:\n        /* \"wwcc-contracts/contracts/wwccPool.sol\":7990:8003  string memory */\n      0x60\n        /* \"wwcc-contracts/contracts/wwccPool.sol\":8025:8054  toString(abi.encodePacked(b)) */\n      tag_263\n        /* \"wwcc-contracts/contracts/wwccPool.sol\":8051:8052  b */\n      dup3\n        /* \"wwcc-contracts/contracts/wwccPool.sol\":8034:8053  abi.encodePacked(b) */\n      add(0x20, mload(0x40))\n      tag_264\n      swap2\n      swap1\n      tag_265\n      jump\t// in\n    tag_264:\n      mload(0x40)\n      0x20\n      dup2\n      dup4\n      sub\n      sub\n      dup2\n      mstore\n      swap1\n      0x40\n      mstore\n        /* \"wwcc-contracts/contracts/wwccPool.sol\":8025:8033  toString */\n      tag_261\n        /* \"wwcc-contracts/contracts/wwccPool.sol\":8025:8054  toString(abi.encodePacked(b)) */\n      jump\t// in\n    tag_263:\n        /* \"wwcc-contracts/contracts/wwccPool.sol\":8018:8054  return toString(abi.encodePacked(b)) */\n      swap1\n      pop\n        /* \"wwcc-contracts/contracts/wwccPool.sol\":7932:8062  function bytes32ToString(bytes32 b) internal pure returns(string memory){... */\n      swap2\n      swap1\n      pop\n      jump\t// out\n        /* \"wwcc-contracts/contracts/safemath.sol\":62:266  function mul(uint256 a, uint256 b) internal pure returns (uint256) {... */\n    tag_137:\n        /* \"wwcc-contracts/contracts/safemath.sol\":120:127  uint256 */\n      0x00\n        /* \"wwcc-contracts/contracts/safemath.sol\":148:149  0 */\n      dup1\n        /* \"wwcc-contracts/contracts/safemath.sol\":143:144  a */\n      dup4\n        /* \"wwcc-contracts/contracts/safemath.sol\":143:149  a == 0 */\n      eq\n        /* \"wwcc-contracts/contracts/safemath.sol\":139:184  if (a == 0) {... */\n      iszero\n      tag_267\n      jumpi\n        /* \"wwcc-contracts/contracts/safemath.sol\":172:173  0 */\n      0x00\n        /* \"wwcc-contracts/contracts/safemath.sol\":165:173  return 0 */\n      swap1\n      pop\n      jump(tag_266)\n        /* \"wwcc-contracts/contracts/safemath.sol\":139:184  if (a == 0) {... */\n    tag_267:\n        /* \"wwcc-contracts/contracts/safemath.sol\":195:204  uint256 c */\n      0x00\n        /* \"wwcc-contracts/contracts/safemath.sol\":211:212  b */\n      dup3\n        /* \"wwcc-contracts/contracts/safemath.sol\":207:208  a */\n      dup5\n        /* \"wwcc-contracts/contracts/safemath.sol\":207:212  a * b */\n      tag_268\n      swap2\n      swap1\n      tag_165\n      jump\t// in\n    tag_268:\n        /* \"wwcc-contracts/contracts/safemath.sol\":195:212  uint256 c = a * b */\n      swap1\n      pop\n        /* \"wwcc-contracts/contracts/safemath.sol\":239:240  b */\n      dup3\n        /* \"wwcc-contracts/contracts/safemath.sol\":234:235  a */\n      dup5\n        /* \"wwcc-contracts/contracts/safemath.sol\":230:231  c */\n      dup3\n        /* \"wwcc-contracts/contracts/safemath.sol\":230:235  c / a */\n      tag_269\n      swap2\n      swap1\n      tag_167\n      jump\t// in\n    tag_269:\n        /* \"wwcc-contracts/contracts/safemath.sol\":230:240  c / a == b */\n      eq\n        /* \"wwcc-contracts/contracts/safemath.sol\":222:241  require(c / a == b) */\n      tag_270\n      jumpi\n      0x00\n      dup1\n      revert\n    tag_270:\n        /* \"wwcc-contracts/contracts/safemath.sol\":258:259  c */\n      dup1\n        /* \"wwcc-contracts/contracts/safemath.sol\":251:259  return c */\n      swap2\n      pop\n      pop\n        /* \"wwcc-contracts/contracts/safemath.sol\":62:266  function mul(uint256 a, uint256 b) internal pure returns (uint256) {... */\n    tag_266:\n      swap3\n      swap2\n      pop\n      pop\n      jump\t// out\n        /* \"wwcc-contracts/contracts/safemath.sol\":274:417  function div(uint256 a, uint256 b) internal pure returns (uint256) {... */\n    tag_138:\n        /* \"wwcc-contracts/contracts/safemath.sol\":332:339  uint256 */\n      0x00\n        /* \"wwcc-contracts/contracts/safemath.sol\":363:364  0 */\n      dup1\n        /* \"wwcc-contracts/contracts/safemath.sol\":359:360  b */\n      dup3\n        /* \"wwcc-contracts/contracts/safemath.sol\":359:364  b > 0 */\n      gt\n        /* \"wwcc-contracts/contracts/safemath.sol\":351:365  require(b > 0) */\n      tag_272\n      jumpi\n      0x00\n      dup1\n      revert\n    tag_272:\n        /* \"wwcc-contracts/contracts/safemath.sol\":375:384  uint256 c */\n      0x00\n        /* \"wwcc-contracts/contracts/safemath.sol\":391:392  b */\n      dup3\n        /* \"wwcc-contracts/contracts/safemath.sol\":387:388  a */\n      dup5\n        /* \"wwcc-contracts/contracts/safemath.sol\":387:392  a / b */\n      tag_273\n      swap2\n      swap1\n      tag_167\n      jump\t// in\n    tag_273:\n        /* \"wwcc-contracts/contracts/safemath.sol\":375:392  uint256 c = a / b */\n      swap1\n      pop\n        /* \"wwcc-contracts/contracts/safemath.sol\":409:410  c */\n      dup1\n        /* \"wwcc-contracts/contracts/safemath.sol\":402:410  return c */\n      swap2\n      pop\n      pop\n        /* \"wwcc-contracts/contracts/safemath.sol\":274:417  function div(uint256 a, uint256 b) internal pure returns (uint256) {... */\n      swap3\n      swap2\n      pop\n      pop\n      jump\t// out\n        /* \"wwcc-contracts/contracts/wwccPool.sol\":8067:8554  function toString(bytes memory data) internal pure returns(string memory){... */\n    tag_261:\n        /* \"wwcc-contracts/contracts/wwccPool.sol\":8126:8139  string memory */\n      0x60\n        /* \"wwcc-contracts/contracts/wwccPool.sol\":8154:8175  bytes memory alphabet */\n      0x00\n        /* \"wwcc-contracts/contracts/wwccPool.sol\":8154:8196  bytes memory alphabet = \"0123456789abcdef\" */\n      mload(0x40)\n      dup1\n      0x40\n      add\n      0x40\n      mstore\n      dup1\n      0x10\n      dup2\n      mstore\n      0x20\n      add\n      0x3031323334353637383961626364656600000000000000000000000000000000\n      dup2\n      mstore\n      pop\n      swap1\n      pop\n        /* \"wwcc-contracts/contracts/wwccPool.sol\":8210:8226  bytes memory str */\n      0x00\n        /* \"wwcc-contracts/contracts/wwccPool.sol\":8257:8258  2 */\n      0x02\n        /* \"wwcc-contracts/contracts/wwccPool.sol\":8243:8247  data */\n      dup5\n        /* \"wwcc-contracts/contracts/wwccPool.sol\":8243:8254  data.length */\n      mload\n        /* \"wwcc-contracts/contracts/wwccPool.sol\":8243:8258  data.length * 2 */\n      tag_275\n      swap2\n      swap1\n      tag_165\n      jump\t// in\n    tag_275:\n        /* \"wwcc-contracts/contracts/wwccPool.sol\":8239:8240  2 */\n      0x02\n        /* \"wwcc-contracts/contracts/wwccPool.sol\":8239:8258  2 + data.length * 2 */\n      tag_276\n      swap2\n      swap1\n      tag_90\n      jump\t// in\n    tag_276:\n        /* \"wwcc-contracts/contracts/wwccPool.sol\":8229:8259  new bytes(2 + data.length * 2) */\n      0xffffffffffffffff\n      dup2\n      gt\n      iszero\n      tag_277\n      jumpi\n      tag_278\n      tag_236\n      jump\t// in\n    tag_278:\n    tag_277:\n      mload(0x40)\n      swap1\n      dup1\n      dup3\n      mstore\n      dup1\n      0x1f\n      add\n      not(0x1f)\n      and\n      0x20\n      add\n      dup3\n      add\n      0x40\n      mstore\n      dup1\n      iszero\n      tag_279\n      jumpi\n      dup2\n      0x20\n      add\n      0x01\n      dup3\n      mul\n      dup1\n      calldatasize\n      dup4\n      calldatacopy\n      dup1\n      dup3\n      add\n      swap2\n      pop\n      pop\n      swap1\n      pop\n    tag_279:\n      pop\n        /* \"wwcc-contracts/contracts/wwccPool.sol\":8210:8259  bytes memory str = new bytes(2 + data.length * 2) */\n      swap1\n      pop\n        /* \"wwcc-contracts/contracts/wwccPool.sol\":8273:8285  str[0] = \"0\" */\n      0x3000000000000000000000000000000000000000000000000000000000000000\n        /* \"wwcc-contracts/contracts/wwccPool.sol\":8273:8276  str */\n      dup2\n        /* \"wwcc-contracts/contracts/wwccPool.sol\":8277:8278  0 */\n      0x00\n        /* \"wwcc-contracts/contracts/wwccPool.sol\":8273:8279  str[0] */\n      dup2\n      mload\n      dup2\n      lt\n      tag_280\n      jumpi\n      tag_281\n      tag_146\n      jump\t// in\n    tag_281:\n    tag_280:\n      0x20\n      add\n      add\n        /* \"wwcc-contracts/contracts/wwccPool.sol\":8273:8285  str[0] = \"0\" */\n      swap1\n      not(0xffffffffffffffffffffffffffffffffffffffffffffffffffffffffffffff)\n      and\n      swap1\n      dup2\n      0x00\n      byte\n      swap1\n      mstore8\n      pop\n        /* \"wwcc-contracts/contracts/wwccPool.sol\":8299:8311  str[1] = \"x\" */\n      0x7800000000000000000000000000000000000000000000000000000000000000\n        /* \"wwcc-contracts/contracts/wwccPool.sol\":8299:8302  str */\n      dup2\n        /* \"wwcc-contracts/contracts/wwccPool.sol\":8303:8304  1 */\n      0x01\n        /* \"wwcc-contracts/contracts/wwccPool.sol\":8299:8305  str[1] */\n      dup2\n      mload\n      dup2\n      lt\n      tag_282\n      jumpi\n      tag_283\n      tag_146\n      jump\t// in\n    tag_283:\n    tag_282:\n      0x20\n      add\n      add\n        /* \"wwcc-contracts/contracts/wwccPool.sol\":8299:8311  str[1] = \"x\" */\n      swap1\n      not(0xffffffffffffffffffffffffffffffffffffffffffffffffffffffffffffff)\n      and\n      swap1\n      dup2\n      0x00\n      byte\n      swap1\n      mstore8\n      pop\n        /* \"wwcc-contracts/contracts/wwccPool.sol\":8329:8335  uint i */\n      0x00\n        /* \"wwcc-contracts/contracts/wwccPool.sol\":8325:8516  for(uint i =0;i < data.length;i++){... */\n    tag_284:\n        /* \"wwcc-contracts/contracts/wwccPool.sol\":8343:8347  data */\n      dup5\n        /* \"wwcc-contracts/contracts/wwccPool.sol\":8343:8354  data.length */\n      mload\n        /* \"wwcc-contracts/contracts/wwccPool.sol\":8339:8340  i */\n      dup2\n        /* \"wwcc-contracts/contracts/wwccPool.sol\":8339:8354  i < data.length */\n      lt\n        /* \"wwcc-contracts/contracts/wwccPool.sol\":8325:8516  for(uint i =0;i < data.length;i++){... */\n      iszero\n      tag_285\n      jumpi\n        /* \"wwcc-contracts/contracts/wwccPool.sol\":8394:8402  alphabet */\n      dup3\n        /* \"wwcc-contracts/contracts/wwccPool.sol\":8425:8426  4 */\n      0x04\n        /* \"wwcc-contracts/contracts/wwccPool.sol\":8414:8418  data */\n      dup7\n        /* \"wwcc-contracts/contracts/wwccPool.sol\":8419:8420  i */\n      dup4\n        /* \"wwcc-contracts/contracts/wwccPool.sol\":8414:8421  data[i] */\n      dup2\n      mload\n      dup2\n      lt\n      tag_287\n      jumpi\n      tag_288\n      tag_146\n      jump\t// in\n    tag_288:\n    tag_287:\n      0x20\n      add\n      add\n      mload\n      0xf8\n      shr\n      0xf8\n      shl\n        /* \"wwcc-contracts/contracts/wwccPool.sol\":8414:8426  data[i] >> 4 */\n      not(0xffffffffffffffffffffffffffffffffffffffffffffffffffffffffffffff)\n      and\n      swap1\n      shr\n        /* \"wwcc-contracts/contracts/wwccPool.sol\":8408:8427  uint8(data[i] >> 4) */\n      0xf8\n      shr\n        /* \"wwcc-contracts/contracts/wwccPool.sol\":8403:8428  uint(uint8(data[i] >> 4)) */\n      0xff\n      and\n        /* \"wwcc-contracts/contracts/wwccPool.sol\":8394:8429  alphabet[uint(uint8(data[i] >> 4))] */\n      dup2\n      mload\n      dup2\n      lt\n      tag_289\n      jumpi\n      tag_290\n      tag_146\n      jump\t// in\n    tag_290:\n    tag_289:\n      0x20\n      add\n      add\n      mload\n      0xf8\n      shr\n      0xf8\n      shl\n        /* \"wwcc-contracts/contracts/wwccPool.sol\":8377:8380  str */\n      dup3\n        /* \"wwcc-contracts/contracts/wwccPool.sol\":8389:8390  2 */\n      0x02\n        /* \"wwcc-contracts/contracts/wwccPool.sol\":8385:8386  i */\n      dup4\n        /* \"wwcc-contracts/contracts/wwccPool.sol\":8385:8390  i * 2 */\n      tag_291\n      swap2\n      swap1\n      tag_165\n      jump\t// in\n    tag_291:\n        /* \"wwcc-contracts/contracts/wwccPool.sol\":8381:8382  2 */\n      0x02\n        /* \"wwcc-contracts/contracts/wwccPool.sol\":8381:8390  2 + i * 2 */\n      tag_292\n      swap2\n      swap1\n      tag_90\n      jump\t// in\n    tag_292:\n        /* \"wwcc-contracts/contracts/wwccPool.sol\":8377:8391  str[2 + i * 2] */\n      dup2\n      mload\n      dup2\n      lt\n      tag_293\n      jumpi\n      tag_294\n      tag_146\n      jump\t// in\n    tag_294:\n    tag_293:\n      0x20\n      add\n      add\n        /* \"wwcc-contracts/contracts/wwccPool.sol\":8377:8429  str[2 + i * 2] = alphabet[uint(uint8(data[i] >> 4))] */\n      swap1\n      not(0xffffffffffffffffffffffffffffffffffffffffffffffffffffffffffffff)\n      and\n      swap1\n      dup2\n      0x00\n      byte\n      swap1\n      mstore8\n      pop\n        /* \"wwcc-contracts/contracts/wwccPool.sol\":8464:8472  alphabet */\n      dup3\n        /* \"wwcc-contracts/contracts/wwccPool.sol\":8494:8498  0x0f */\n      0x0f\n        /* \"wwcc-contracts/contracts/wwccPool.sol\":8484:8498  data[i] & 0x0f */\n      0xf8\n      shl\n        /* \"wwcc-contracts/contracts/wwccPool.sol\":8484:8488  data */\n      dup7\n        /* \"wwcc-contracts/contracts/wwccPool.sol\":8489:8490  i */\n      dup4\n        /* \"wwcc-contracts/contracts/wwccPool.sol\":8484:8491  data[i] */\n      dup2\n      mload\n      dup2\n      lt\n      tag_295\n      jumpi\n      tag_296\n      tag_146\n      jump\t// in\n    tag_296:\n    tag_295:\n      0x20\n      add\n      add\n      mload\n      0xf8\n      shr\n      0xf8\n      shl\n        /* \"wwcc-contracts/contracts/wwccPool.sol\":8484:8498  data[i] & 0x0f */\n      and\n        /* \"wwcc-contracts/contracts/wwccPool.sol\":8478:8499  uint8(data[i] & 0x0f) */\n      0xf8\n      shr\n        /* \"wwcc-contracts/contracts/wwccPool.sol\":8473:8500  uint(uint8(data[i] & 0x0f)) */\n      0xff\n      and\n        /* \"wwcc-contracts/contracts/wwccPool.sol\":8464:8501  alphabet[uint(uint8(data[i] & 0x0f))] */\n      dup2\n      mload\n      dup2\n      lt\n      tag_297\n      jumpi\n      tag_298\n      tag_146\n      jump\t// in\n    tag_298:\n    tag_297:\n      0x20\n      add\n      add\n      mload\n      0xf8\n      shr\n      0xf8\n      shl\n        /* \"wwcc-contracts/contracts/wwccPool.sol\":8447:8450  str */\n      dup3\n        /* \"wwcc-contracts/contracts/wwccPool.sol\":8459:8460  2 */\n      0x02\n        /* \"wwcc-contracts/contracts/wwccPool.sol\":8455:8456  i */\n      dup4\n        /* \"wwcc-contracts/contracts/wwccPool.sol\":8455:8460  i * 2 */\n      tag_299\n      swap2\n      swap1\n      tag_165\n      jump\t// in\n    tag_299:\n        /* \"wwcc-contracts/contracts/wwccPool.sol\":8451:8452  3 */\n      0x03\n        /* \"wwcc-contracts/contracts/wwccPool.sol\":8451:8460  3 + i * 2 */\n      tag_300\n      swap2\n      swap1\n      tag_90\n      jump\t// in\n    tag_300:\n        /* \"wwcc-contracts/contracts/wwccPool.sol\":8447:8461  str[3 + i * 2] */\n      dup2\n      mload\n      dup2\n      lt\n      tag_301\n      jumpi\n      tag_302\n      tag_146\n      jump\t// in\n    tag_302:\n    tag_301:\n      0x20\n      add\n      add\n        /* \"wwcc-contracts/contracts/wwccPool.sol\":8447:8501  str[3 + i * 2] = alphabet[uint(uint8(data[i] & 0x0f))] */\n      swap1\n      not(0xffffffffffffffffffffffffffffffffffffffffffffffffffffffffffffff)\n      and\n      swap1\n      dup2\n      0x00\n      byte\n      swap1\n      mstore8\n      pop\n        /* \"wwcc-contracts/contracts/wwccPool.sol\":8355:8358  i++ */\n      dup1\n      dup1\n      tag_303\n      swap1\n      tag_208\n      jump\t// in\n    tag_303:\n      swap2\n      pop\n      pop\n        /* \"wwcc-contracts/contracts/wwccPool.sol\":8325:8516  for(uint i =0;i < data.length;i++){... */\n      jump(tag_284)\n    tag_285:\n      pop\n        /* \"wwcc-contracts/contracts/wwccPool.sol\":8543:8546  str */\n      dup1\n        /* \"wwcc-contracts/contracts/wwccPool.sol\":8529:8547  return string(str) */\n      swap3\n      pop\n      pop\n      pop\n        /* \"wwcc-contracts/contracts/wwccPool.sol\":8067:8554  function toString(bytes memory data) internal pure returns(string memory){... */\n      swap2\n      swap1\n      pop\n      jump\t// out\n    tag_49:\n      dup3\n      dup1\n      sload\n      tag_304\n      swap1\n      tag_62\n      jump\t// in\n    tag_304:\n      swap1\n      0x00\n      mstore\n      keccak256(0x00, 0x20)\n      swap1\n      0x1f\n      add\n      0x20\n      swap1\n      div\n      dup2\n      add\n      swap3\n      dup3\n      tag_306\n      jumpi\n      0x00\n      dup6\n      sstore\n      jump(tag_305)\n    tag_306:\n      dup3\n      0x1f\n      lt\n      tag_307\n      jumpi\n      dup1\n      mload\n      not(0xff)\n      and\n      dup4\n      dup1\n      add\n      or\n      dup6\n      sstore\n      jump(tag_305)\n    tag_307:\n      dup3\n      dup1\n      add\n      0x01\n      add\n      dup6\n      sstore\n      dup3\n      iszero\n      tag_305\n      jumpi\n      swap2\n      dup3\n      add\n    tag_308:\n      dup3\n      dup2\n      gt\n      iszero\n      tag_309\n      jumpi\n      dup3\n      mload\n      dup3\n      sstore\n      swap2\n      0x20\n      add\n      swap2\n      swap1\n      0x01\n      add\n      swap1\n      jump(tag_308)\n    tag_309:\n    tag_305:\n      pop\n      swap1\n      pop\n      tag_310\n      swap2\n      swap1\n      tag_311\n      jump\t// in\n    tag_310:\n      pop\n      swap1\n      jump\t// out\n    tag_311:\n    tag_312:\n      dup1\n      dup3\n      gt\n      iszero\n      tag_313\n      jumpi\n      0x00\n      dup2\n      0x00\n      swap1\n      sstore\n      pop\n      0x01\n      add\n      jump(tag_312)\n    tag_313:\n      pop\n      swap1\n      jump\t// out\n        /* \"#utility.yul\":7:419   */\n    tag_315:\n        /* \"#utility.yul\":85:90   */\n      0x00\n        /* \"#utility.yul\":110:176   */\n      tag_317\n        /* \"#utility.yul\":126:175   */\n      tag_318\n        /* \"#utility.yul\":168:174   */\n      dup5\n        /* \"#utility.yul\":126:175   */\n      tag_319\n      jump\t// in\n    tag_318:\n        /* \"#utility.yul\":110:176   */\n      tag_320\n      jump\t// in\n    tag_317:\n        /* \"#utility.yul\":101:176   */\n      swap1\n      pop\n        /* \"#utility.yul\":199:205   */\n      dup3\n        /* \"#utility.yul\":192:197   */\n      dup2\n        /* \"#utility.yul\":185:206   */\n      mstore\n        /* \"#utility.yul\":237:241   */\n      0x20\n        /* \"#utility.yul\":230:235   */\n      dup2\n        /* \"#utility.yul\":226:242   */\n      add\n        /* \"#utility.yul\":275:278   */\n      dup5\n        /* \"#utility.yul\":266:272   */\n      dup5\n        /* \"#utility.yul\":261:264   */\n      dup5\n        /* \"#utility.yul\":257:273   */\n      add\n        /* \"#utility.yul\":254:279   */\n      gt\n        /* \"#utility.yul\":251:363   */\n      iszero\n      tag_321\n      jumpi\n        /* \"#utility.yul\":282:361   */\n      tag_322\n      tag_323\n      jump\t// in\n    tag_322:\n        /* \"#utility.yul\":251:363   */\n    tag_321:\n        /* \"#utility.yul\":372:413   */\n      tag_324\n        /* \"#utility.yul\":406:412   */\n      dup5\n        /* \"#utility.yul\":401:404   */\n      dup3\n        /* \"#utility.yul\":396:399   */\n      dup6\n        /* \"#utility.yul\":372:413   */\n      tag_325\n      jump\t// in\n    tag_324:\n        /* \"#utility.yul\":91:419   */\n      pop\n        /* \"#utility.yul\":7:419   */\n      swap4\n      swap3\n      pop\n      pop\n      pop\n      jump\t// out\n        /* \"#utility.yul\":425:564   */\n    tag_326:\n        /* \"#utility.yul\":471:476   */\n      0x00\n        /* \"#utility.yul\":509:515   */\n      dup2\n        /* \"#utility.yul\":496:516   */\n      calldataload\n        /* \"#utility.yul\":487:516   */\n      swap1\n      pop\n        /* \"#utility.yul\":525:558   */\n      tag_328\n        /* \"#utility.yul\":552:557   */\n      dup2\n        /* \"#utility.yul\":525:558   */\n      tag_329\n      jump\t// in\n    tag_328:\n        /* \"#utility.yul\":425:564   */\n      swap3\n      swap2\n      pop\n      pop\n      jump\t// out\n        /* \"#utility.yul\":570:703   */\n    tag_330:\n        /* \"#utility.yul\":613:618   */\n      0x00\n        /* \"#utility.yul\":651:657   */\n      dup2\n        /* \"#utility.yul\":638:658   */\n      calldataload\n        /* \"#utility.yul\":629:658   */\n      swap1\n      pop\n        /* \"#utility.yul\":667:697   */\n      tag_332\n        /* \"#utility.yul\":691:696   */\n      dup2\n        /* \"#utility.yul\":667:697   */\n      tag_333\n      jump\t// in\n    tag_332:\n        /* \"#utility.yul\":570:703   */\n      swap3\n      swap2\n      pop\n      pop\n      jump\t// out\n        /* \"#utility.yul\":709:848   */\n    tag_334:\n        /* \"#utility.yul\":755:760   */\n      0x00\n        /* \"#utility.yul\":793:799   */\n      dup2\n        /* \"#utility.yul\":780:800   */\n      calldataload\n        /* \"#utility.yul\":771:800   */\n      swap1\n      pop\n        /* \"#utility.yul\":809:842   */\n      tag_336\n        /* \"#utility.yul\":836:841   */\n      dup2\n        /* \"#utility.yul\":809:842   */\n      tag_337\n      jump\t// in\n    tag_336:\n        /* \"#utility.yul\":709:848   */\n      swap3\n      swap2\n      pop\n      pop\n      jump\t// out\n        /* \"#utility.yul\":868:1208   */\n    tag_338:\n        /* \"#utility.yul\":924:929   */\n      0x00\n        /* \"#utility.yul\":973:976   */\n      dup3\n        /* \"#utility.yul\":966:970   */\n      0x1f\n        /* \"#utility.yul\":958:964   */\n      dup4\n        /* \"#utility.yul\":954:971   */\n      add\n        /* \"#utility.yul\":950:977   */\n      slt\n        /* \"#utility.yul\":940:1062   */\n      tag_340\n      jumpi\n        /* \"#utility.yul\":981:1060   */\n      tag_341\n      tag_342\n      jump\t// in\n    tag_341:\n        /* \"#utility.yul\":940:1062   */\n    tag_340:\n        /* \"#utility.yul\":1098:1104   */\n      dup2\n        /* \"#utility.yul\":1085:1105   */\n      calldataload\n        /* \"#utility.yul\":1123:1202   */\n      tag_343\n        /* \"#utility.yul\":1198:1201   */\n      dup5\n        /* \"#utility.yul\":1190:1196   */\n      dup3\n        /* \"#utility.yul\":1183:1187   */\n      0x20\n        /* \"#utility.yul\":1175:1181   */\n      dup7\n        /* \"#utility.yul\":1171:1188   */\n      add\n        /* \"#utility.yul\":1123:1202   */\n      tag_315\n      jump\t// in\n    tag_343:\n        /* \"#utility.yul\":1114:1202   */\n      swap2\n      pop\n        /* \"#utility.yul\":930:1208   */\n      pop\n        /* \"#utility.yul\":868:1208   */\n      swap3\n      swap2\n      pop\n      pop\n      jump\t// out\n        /* \"#utility.yul\":1214:1353   */\n    tag_344:\n        /* \"#utility.yul\":1260:1265   */\n      0x00\n        /* \"#utility.yul\":1298:1304   */\n      dup2\n        /* \"#utility.yul\":1285:1305   */\n      calldataload\n        /* \"#utility.yul\":1276:1305   */\n      swap1\n      pop\n        /* \"#utility.yul\":1314:1347   */\n      tag_346\n        /* \"#utility.yul\":1341:1346   */\n      dup2\n        /* \"#utility.yul\":1314:1347   */\n      tag_347\n      jump\t// in\n    tag_346:\n        /* \"#utility.yul\":1214:1353   */\n      swap3\n      swap2\n      pop\n      pop\n      jump\t// out\n        /* \"#utility.yul\":1359:2416   */\n    tag_16:\n        /* \"#utility.yul\":1463:1469   */\n      0x00\n        /* \"#utility.yul\":1471:1477   */\n      dup1\n        /* \"#utility.yul\":1479:1485   */\n      0x00\n        /* \"#utility.yul\":1487:1493   */\n      dup1\n        /* \"#utility.yul\":1495:1501   */\n      0x00\n        /* \"#utility.yul\":1503:1509   */\n      dup1\n        /* \"#utility.yul\":1552:1555   */\n      0xc0\n        /* \"#utility.yul\":1540:1549   */\n      dup8\n        /* \"#utility.yul\":1531:1538   */\n      dup10\n        /* \"#utility.yul\":1527:1550   */\n      sub\n        /* \"#utility.yul\":1523:1556   */\n      slt\n        /* \"#utility.yul\":1520:1640   */\n      iszero\n      tag_349\n      jumpi\n        /* \"#utility.yul\":1559:1638   */\n      tag_350\n      tag_351\n      jump\t// in\n    tag_350:\n        /* \"#utility.yul\":1520:1640   */\n    tag_349:\n        /* \"#utility.yul\":1679:1680   */\n      0x00\n        /* \"#utility.yul\":1704:1757   */\n      tag_352\n        /* \"#utility.yul\":1749:1756   */\n      dup10\n        /* \"#utility.yul\":1740:1746   */\n      dup3\n        /* \"#utility.yul\":1729:1738   */\n      dup11\n        /* \"#utility.yul\":1725:1747   */\n      add\n        /* \"#utility.yul\":1704:1757   */\n      tag_326\n      jump\t// in\n    tag_352:\n        /* \"#utility.yul\":1694:1757   */\n      swap7\n      pop\n        /* \"#utility.yul\":1650:1767   */\n      pop\n        /* \"#utility.yul\":1806:1808   */\n      0x20\n        /* \"#utility.yul\":1832:1885   */\n      tag_353\n        /* \"#utility.yul\":1877:1884   */\n      dup10\n        /* \"#utility.yul\":1868:1874   */\n      dup3\n        /* \"#utility.yul\":1857:1866   */\n      dup11\n        /* \"#utility.yul\":1853:1875   */\n      add\n        /* \"#utility.yul\":1832:1885   */\n      tag_344\n      jump\t// in\n    tag_353:\n        /* \"#utility.yul\":1822:1885   */\n      swap6\n      pop\n        /* \"#utility.yul\":1777:1895   */\n      pop\n        /* \"#utility.yul\":1934:1936   */\n      0x40\n        /* \"#utility.yul\":1960:2013   */\n      tag_354\n        /* \"#utility.yul\":2005:2012   */\n      dup10\n        /* \"#utility.yul\":1996:2002   */\n      dup3\n        /* \"#utility.yul\":1985:1994   */\n      dup11\n        /* \"#utility.yul\":1981:2003   */\n      add\n        /* \"#utility.yul\":1960:2013   */\n      tag_334\n      jump\t// in\n    tag_354:\n        /* \"#utility.yul\":1950:2013   */\n      swap5\n      pop\n        /* \"#utility.yul\":1905:2023   */\n      pop\n        /* \"#utility.yul\":2062:2064   */\n      0x60\n        /* \"#utility.yul\":2088:2141   */\n      tag_355\n        /* \"#utility.yul\":2133:2140   */\n      dup10\n        /* \"#utility.yul\":2124:2130   */\n      dup3\n        /* \"#utility.yul\":2113:2122   */\n      dup11\n        /* \"#utility.yul\":2109:2131   */\n      add\n        /* \"#utility.yul\":2088:2141   */\n      tag_344\n      jump\t// in\n    tag_355:\n        /* \"#utility.yul\":2078:2141   */\n      swap4\n      pop\n        /* \"#utility.yul\":2033:2151   */\n      pop\n        /* \"#utility.yul\":2190:2193   */\n      0x80\n        /* \"#utility.yul\":2217:2270   */\n      tag_356\n        /* \"#utility.yul\":2262:2269   */\n      dup10\n        /* \"#utility.yul\":2253:2259   */\n      dup3\n        /* \"#utility.yul\":2242:2251   */\n      dup11\n        /* \"#utility.yul\":2238:2260   */\n      add\n        /* \"#utility.yul\":2217:2270   */\n      tag_344\n      jump\t// in\n    tag_356:\n        /* \"#utility.yul\":2207:2270   */\n      swap3\n      pop\n        /* \"#utility.yul\":2161:2280   */\n      pop\n        /* \"#utility.yul\":2319:2322   */\n      0xa0\n        /* \"#utility.yul\":2346:2399   */\n      tag_357\n        /* \"#utility.yul\":2391:2398   */\n      dup10\n        /* \"#utility.yul\":2382:2388   */\n      dup3\n        /* \"#utility.yul\":2371:2380   */\n      dup11\n        /* \"#utility.yul\":2367:2389   */\n      add\n        /* \"#utility.yul\":2346:2399   */\n      tag_344\n      jump\t// in\n    tag_357:\n        /* \"#utility.yul\":2336:2399   */\n      swap2\n      pop\n        /* \"#utility.yul\":2290:2409   */\n      pop\n        /* \"#utility.yul\":1359:2416   */\n      swap3\n      swap6\n      pop\n      swap3\n      swap6\n      pop\n      swap3\n      swap6\n      jump\t// out\n        /* \"#utility.yul\":2422:2751   */\n    tag_28:\n        /* \"#utility.yul\":2481:2487   */\n      0x00\n        /* \"#utility.yul\":2530:2532   */\n      0x20\n        /* \"#utility.yul\":2518:2527   */\n      dup3\n        /* \"#utility.yul\":2509:2516   */\n      dup5\n        /* \"#utility.yul\":2505:2528   */\n      sub\n        /* \"#utility.yul\":2501:2533   */\n      slt\n        /* \"#utility.yul\":2498:2617   */\n      iszero\n      tag_359\n      jumpi\n        /* \"#utility.yul\":2536:2615   */\n      tag_360\n      tag_351\n      jump\t// in\n    tag_360:\n        /* \"#utility.yul\":2498:2617   */\n    tag_359:\n        /* \"#utility.yul\":2656:2657   */\n      0x00\n        /* \"#utility.yul\":2681:2734   */\n      tag_361\n        /* \"#utility.yul\":2726:2733   */\n      dup5\n        /* \"#utility.yul\":2717:2723   */\n      dup3\n        /* \"#utility.yul\":2706:2715   */\n      dup6\n        /* \"#utility.yul\":2702:2724   */\n      add\n        /* \"#utility.yul\":2681:2734   */\n      tag_334\n      jump\t// in\n    tag_361:\n        /* \"#utility.yul\":2671:2734   */\n      swap2\n      pop\n        /* \"#utility.yul\":2627:2744   */\n      pop\n        /* \"#utility.yul\":2422:2751   */\n      swap3\n      swap2\n      pop\n      pop\n      jump\t// out\n        /* \"#utility.yul\":2757:3522   */\n    tag_22:\n        /* \"#utility.yul\":2843:2849   */\n      0x00\n        /* \"#utility.yul\":2851:2857   */\n      dup1\n        /* \"#utility.yul\":2859:2865   */\n      0x00\n        /* \"#utility.yul\":2867:2873   */\n      dup1\n        /* \"#utility.yul\":2916:2919   */\n      0x80\n        /* \"#utility.yul\":2904:2913   */\n      dup6\n        /* \"#utility.yul\":2895:2902   */\n      dup8\n        /* \"#utility.yul\":2891:2914   */\n      sub\n        /* \"#utility.yul\":2887:2920   */\n      slt\n        /* \"#utility.yul\":2884:3004   */\n      iszero\n      tag_363\n      jumpi\n        /* \"#utility.yul\":2923:3002   */\n      tag_364\n      tag_351\n      jump\t// in\n    tag_364:\n        /* \"#utility.yul\":2884:3004   */\n    tag_363:\n        /* \"#utility.yul\":3043:3044   */\n      0x00\n        /* \"#utility.yul\":3068:3121   */\n      tag_365\n        /* \"#utility.yul\":3113:3120   */\n      dup8\n        /* \"#utility.yul\":3104:3110   */\n      dup3\n        /* \"#utility.yul\":3093:3102   */\n      dup9\n        /* \"#utility.yul\":3089:3111   */\n      add\n        /* \"#utility.yul\":3068:3121   */\n      tag_334\n      jump\t// in\n    tag_365:\n        /* \"#utility.yul\":3058:3121   */\n      swap5\n      pop\n        /* \"#utility.yul\":3014:3131   */\n      pop\n        /* \"#utility.yul\":3170:3172   */\n      0x20\n        /* \"#utility.yul\":3196:3249   */\n      tag_366\n        /* \"#utility.yul\":3241:3248   */\n      dup8\n        /* \"#utility.yul\":3232:3238   */\n      dup3\n        /* \"#utility.yul\":3221:3230   */\n      dup9\n        /* \"#utility.yul\":3217:3239   */\n      add\n        /* \"#utility.yul\":3196:3249   */\n      tag_344\n      jump\t// in\n    tag_366:\n        /* \"#utility.yul\":3186:3249   */\n      swap4\n      pop\n        /* \"#utility.yul\":3141:3259   */\n      pop\n        /* \"#utility.yul\":3298:3300   */\n      0x40\n        /* \"#utility.yul\":3324:3377   */\n      tag_367\n        /* \"#utility.yul\":3369:3376   */\n      dup8\n        /* \"#utility.yul\":3360:3366   */\n      dup3\n        /* \"#utility.yul\":3349:3358   */\n      dup9\n        /* \"#utility.yul\":3345:3367   */\n      add\n        /* \"#utility.yul\":3324:3377   */\n      tag_344\n      jump\t// in\n    tag_367:\n        /* \"#utility.yul\":3314:3377   */\n      swap3\n      pop\n        /* \"#utility.yul\":3269:3387   */\n      pop\n        /* \"#utility.yul\":3426:3428   */\n      0x60\n        /* \"#utility.yul\":3452:3505   */\n      tag_368\n        /* \"#utility.yul\":3497:3504   */\n      dup8\n        /* \"#utility.yul\":3488:3494   */\n      dup3\n        /* \"#utility.yul\":3477:3486   */\n      dup9\n        /* \"#utility.yul\":3473:3495   */\n      add\n        /* \"#utility.yul\":3452:3505   */\n      tag_344\n      jump\t// in\n    tag_368:\n        /* \"#utility.yul\":3442:3505   */\n      swap2\n      pop\n        /* \"#utility.yul\":3397:3515   */\n      pop\n        /* \"#utility.yul\":2757:3522   */\n      swap3\n      swap6\n      swap2\n      swap5\n      pop\n      swap3\n      pop\n      jump\t// out\n        /* \"#utility.yul\":3528:4827   */\n    tag_9:\n        /* \"#utility.yul\":3641:3647   */\n      0x00\n        /* \"#utility.yul\":3649:3655   */\n      dup1\n        /* \"#utility.yul\":3657:3663   */\n      0x00\n        /* \"#utility.yul\":3665:3671   */\n      dup1\n        /* \"#utility.yul\":3714:3717   */\n      0x80\n        /* \"#utility.yul\":3702:3711   */\n      dup6\n        /* \"#utility.yul\":3693:3700   */\n      dup8\n        /* \"#utility.yul\":3689:3712   */\n      sub\n        /* \"#utility.yul\":3685:3718   */\n      slt\n        /* \"#utility.yul\":3682:3802   */\n      iszero\n      tag_370\n      jumpi\n        /* \"#utility.yul\":3721:3800   */\n      tag_371\n      tag_351\n      jump\t// in\n    tag_371:\n        /* \"#utility.yul\":3682:3802   */\n    tag_370:\n        /* \"#utility.yul\":3869:3870   */\n      0x00\n        /* \"#utility.yul\":3858:3867   */\n      dup6\n        /* \"#utility.yul\":3854:3871   */\n      add\n        /* \"#utility.yul\":3841:3872   */\n      calldataload\n        /* \"#utility.yul\":3899:3917   */\n      0xffffffffffffffff\n        /* \"#utility.yul\":3891:3897   */\n      dup2\n        /* \"#utility.yul\":3888:3918   */\n      gt\n        /* \"#utility.yul\":3885:4002   */\n      iszero\n      tag_372\n      jumpi\n        /* \"#utility.yul\":3921:4000   */\n      tag_373\n      tag_374\n      jump\t// in\n    tag_373:\n        /* \"#utility.yul\":3885:4002   */\n    tag_372:\n        /* \"#utility.yul\":4026:4089   */\n      tag_375\n        /* \"#utility.yul\":4081:4088   */\n      dup8\n        /* \"#utility.yul\":4072:4078   */\n      dup3\n        /* \"#utility.yul\":4061:4070   */\n      dup9\n        /* \"#utility.yul\":4057:4079   */\n      add\n        /* \"#utility.yul\":4026:4089   */\n      tag_338\n      jump\t// in\n    tag_375:\n        /* \"#utility.yul\":4016:4089   */\n      swap5\n      pop\n        /* \"#utility.yul\":3812:4099   */\n      pop\n        /* \"#utility.yul\":4166:4168   */\n      0x20\n        /* \"#utility.yul\":4155:4164   */\n      dup6\n        /* \"#utility.yul\":4151:4169   */\n      add\n        /* \"#utility.yul\":4138:4170   */\n      calldataload\n        /* \"#utility.yul\":4197:4215   */\n      0xffffffffffffffff\n        /* \"#utility.yul\":4189:4195   */\n      dup2\n        /* \"#utility.yul\":4186:4216   */\n      gt\n        /* \"#utility.yul\":4183:4300   */\n      iszero\n      tag_376\n      jumpi\n        /* \"#utility.yul\":4219:4298   */\n      tag_377\n      tag_374\n      jump\t// in\n    tag_377:\n        /* \"#utility.yul\":4183:4300   */\n    tag_376:\n        /* \"#utility.yul\":4324:4387   */\n      tag_378\n        /* \"#utility.yul\":4379:4386   */\n      dup8\n        /* \"#utility.yul\":4370:4376   */\n      dup3\n        /* \"#utility.yul\":4359:4368   */\n      dup9\n        /* \"#utility.yul\":4355:4377   */\n      add\n        /* \"#utility.yul\":4324:4387   */\n      tag_338\n      jump\t// in\n    tag_378:\n        /* \"#utility.yul\":4314:4387   */\n      swap4\n      pop\n        /* \"#utility.yul\":4109:4397   */\n      pop\n        /* \"#utility.yul\":4464:4466   */\n      0x40\n        /* \"#utility.yul\":4453:4462   */\n      dup6\n        /* \"#utility.yul\":4449:4467   */\n      add\n        /* \"#utility.yul\":4436:4468   */\n      calldataload\n        /* \"#utility.yul\":4495:4513   */\n      0xffffffffffffffff\n        /* \"#utility.yul\":4487:4493   */\n      dup2\n        /* \"#utility.yul\":4484:4514   */\n      gt\n        /* \"#utility.yul\":4481:4598   */\n      iszero\n      tag_379\n      jumpi\n        /* \"#utility.yul\":4517:4596   */\n      tag_380\n      tag_374\n      jump\t// in\n    tag_380:\n        /* \"#utility.yul\":4481:4598   */\n    tag_379:\n        /* \"#utility.yul\":4622:4685   */\n      tag_381\n        /* \"#utility.yul\":4677:4684   */\n      dup8\n        /* \"#utility.yul\":4668:4674   */\n      dup3\n        /* \"#utility.yul\":4657:4666   */\n      dup9\n        /* \"#utility.yul\":4653:4675   */\n      add\n        /* \"#utility.yul\":4622:4685   */\n      tag_338\n      jump\t// in\n    tag_381:\n        /* \"#utility.yul\":4612:4685   */\n      swap3\n      pop\n        /* \"#utility.yul\":4407:4695   */\n      pop\n        /* \"#utility.yul\":4734:4736   */\n      0x60\n        /* \"#utility.yul\":4760:4810   */\n      tag_382\n        /* \"#utility.yul\":4802:4809   */\n      dup8\n        /* \"#utility.yul\":4793:4799   */\n      dup3\n        /* \"#utility.yul\":4782:4791   */\n      dup9\n        /* \"#utility.yul\":4778:4800   */\n      add\n        /* \"#utility.yul\":4760:4810   */\n      tag_330\n      jump\t// in\n    tag_382:\n        /* \"#utility.yul\":4750:4810   */\n      swap2\n      pop\n        /* \"#utility.yul\":4705:4820   */\n      pop\n        /* \"#utility.yul\":3528:4827   */\n      swap3\n      swap6\n      swap2\n      swap5\n      pop\n      swap3\n      pop\n      jump\t// out\n        /* \"#utility.yul\":4833:4942   */\n    tag_383:\n        /* \"#utility.yul\":4914:4935   */\n      tag_385\n        /* \"#utility.yul\":4929:4934   */\n      dup2\n        /* \"#utility.yul\":4914:4935   */\n      tag_386\n      jump\t// in\n    tag_385:\n        /* \"#utility.yul\":4909:4912   */\n      dup3\n        /* \"#utility.yul\":4902:4936   */\n      mstore\n        /* \"#utility.yul\":4833:4942   */\n      pop\n      pop\n      jump\t// out\n        /* \"#utility.yul\":4948:5066   */\n    tag_387:\n        /* \"#utility.yul\":5035:5059   */\n      tag_389\n        /* \"#utility.yul\":5053:5058   */\n      dup2\n        /* \"#utility.yul\":5035:5059   */\n      tag_390\n      jump\t// in\n    tag_389:\n        /* \"#utility.yul\":5030:5033   */\n      dup3\n        /* \"#utility.yul\":5023:5060   */\n      mstore\n        /* \"#utility.yul\":4948:5066   */\n      pop\n      pop\n      jump\t// out\n        /* \"#utility.yul\":5072:5229   */\n    tag_391:\n        /* \"#utility.yul\":5177:5222   */\n      tag_393\n        /* \"#utility.yul\":5197:5221   */\n      tag_394\n        /* \"#utility.yul\":5215:5220   */\n      dup3\n        /* \"#utility.yul\":5197:5221   */\n      tag_390\n      jump\t// in\n    tag_394:\n        /* \"#utility.yul\":5177:5222   */\n      tag_395\n      jump\t// in\n    tag_393:\n        /* \"#utility.yul\":5172:5175   */\n      dup3\n        /* \"#utility.yul\":5165:5223   */\n      mstore\n        /* \"#utility.yul\":5072:5229   */\n      pop\n      pop\n      jump\t// out\n        /* \"#utility.yul\":5235:5599   */\n    tag_396:\n        /* \"#utility.yul\":5323:5326   */\n      0x00\n        /* \"#utility.yul\":5351:5390   */\n      tag_398\n        /* \"#utility.yul\":5384:5389   */\n      dup3\n        /* \"#utility.yul\":5351:5390   */\n      tag_399\n      jump\t// in\n    tag_398:\n        /* \"#utility.yul\":5406:5477   */\n      tag_400\n        /* \"#utility.yul\":5470:5476   */\n      dup2\n        /* \"#utility.yul\":5465:5468   */\n      dup6\n        /* \"#utility.yul\":5406:5477   */\n      tag_401\n      jump\t// in\n    tag_400:\n        /* \"#utility.yul\":5399:5477   */\n      swap4\n      pop\n        /* \"#utility.yul\":5486:5538   */\n      tag_402\n        /* \"#utility.yul\":5531:5537   */\n      dup2\n        /* \"#utility.yul\":5526:5529   */\n      dup6\n        /* \"#utility.yul\":5519:5523   */\n      0x20\n        /* \"#utility.yul\":5512:5517   */\n      dup7\n        /* \"#utility.yul\":5508:5524   */\n      add\n        /* \"#utility.yul\":5486:5538   */\n      tag_403\n      jump\t// in\n    tag_402:\n        /* \"#utility.yul\":5563:5592   */\n      tag_404\n        /* \"#utility.yul\":5585:5591   */\n      dup2\n        /* \"#utility.yul\":5563:5592   */\n      tag_405\n      jump\t// in\n    tag_404:\n        /* \"#utility.yul\":5558:5561   */\n      dup5\n        /* \"#utility.yul\":5554:5593   */\n      add\n        /* \"#utility.yul\":5547:5593   */\n      swap2\n      pop\n        /* \"#utility.yul\":5327:5599   */\n      pop\n        /* \"#utility.yul\":5235:5599   */\n      swap3\n      swap2\n      pop\n      pop\n      jump\t// out\n        /* \"#utility.yul\":5605:5982   */\n    tag_406:\n        /* \"#utility.yul\":5711:5714   */\n      0x00\n        /* \"#utility.yul\":5739:5778   */\n      tag_408\n        /* \"#utility.yul\":5772:5777   */\n      dup3\n        /* \"#utility.yul\":5739:5778   */\n      tag_399\n      jump\t// in\n    tag_408:\n        /* \"#utility.yul\":5794:5883   */\n      tag_409\n        /* \"#utility.yul\":5876:5882   */\n      dup2\n        /* \"#utility.yul\":5871:5874   */\n      dup6\n        /* \"#utility.yul\":5794:5883   */\n      tag_410\n      jump\t// in\n    tag_409:\n        /* \"#utility.yul\":5787:5883   */\n      swap4\n      pop\n        /* \"#utility.yul\":5892:5944   */\n      tag_411\n        /* \"#utility.yul\":5937:5943   */\n      dup2\n        /* \"#utility.yul\":5932:5935   */\n      dup6\n        /* \"#utility.yul\":5925:5929   */\n      0x20\n        /* \"#utility.yul\":5918:5923   */\n      dup7\n        /* \"#utility.yul\":5914:5930   */\n      add\n        /* \"#utility.yul\":5892:5944   */\n      tag_403\n      jump\t// in\n    tag_411:\n        /* \"#utility.yul\":5969:5975   */\n      dup1\n        /* \"#utility.yul\":5964:5967   */\n      dup5\n        /* \"#utility.yul\":5960:5976   */\n      add\n        /* \"#utility.yul\":5953:5976   */\n      swap2\n      pop\n        /* \"#utility.yul\":5715:5982   */\n      pop\n        /* \"#utility.yul\":5605:5982   */\n      swap3\n      swap2\n      pop\n      pop\n      jump\t// out\n        /* \"#utility.yul\":5988:6354   */\n    tag_412:\n        /* \"#utility.yul\":6130:6133   */\n      0x00\n        /* \"#utility.yul\":6151:6218   */\n      tag_414\n        /* \"#utility.yul\":6215:6217   */\n      0x19\n        /* \"#utility.yul\":6210:6213   */\n      dup4\n        /* \"#utility.yul\":6151:6218   */\n      tag_401\n      jump\t// in\n    tag_414:\n        /* \"#utility.yul\":6144:6218   */\n      swap2\n      pop\n        /* \"#utility.yul\":6227:6320   */\n      tag_415\n        /* \"#utility.yul\":6316:6319   */\n      dup3\n        /* \"#utility.yul\":6227:6320   */\n      tag_416\n      jump\t// in\n    tag_415:\n        /* \"#utility.yul\":6345:6347   */\n      0x20\n        /* \"#utility.yul\":6340:6343   */\n      dup3\n        /* \"#utility.yul\":6336:6348   */\n      add\n        /* \"#utility.yul\":6329:6348   */\n      swap1\n      pop\n        /* \"#utility.yul\":5988:6354   */\n      swap2\n      swap1\n      pop\n      jump\t// out\n        /* \"#utility.yul\":6360:6725   */\n    tag_417:\n        /* \"#utility.yul\":6502:6505   */\n      0x00\n        /* \"#utility.yul\":6523:6589   */\n      tag_419\n        /* \"#utility.yul\":6587:6588   */\n      0x09\n        /* \"#utility.yul\":6582:6585   */\n      dup4\n        /* \"#utility.yul\":6523:6589   */\n      tag_401\n      jump\t// in\n    tag_419:\n        /* \"#utility.yul\":6516:6589   */\n      swap2\n      pop\n        /* \"#utility.yul\":6598:6691   */\n      tag_420\n        /* \"#utility.yul\":6687:6690   */\n      dup3\n        /* \"#utility.yul\":6598:6691   */\n      tag_421\n      jump\t// in\n    tag_420:\n        /* \"#utility.yul\":6716:6718   */\n      0x20\n        /* \"#utility.yul\":6711:6714   */\n      dup3\n        /* \"#utility.yul\":6707:6719   */\n      add\n        /* \"#utility.yul\":6700:6719   */\n      swap1\n      pop\n        /* \"#utility.yul\":6360:6725   */\n      swap2\n      swap1\n      pop\n      jump\t// out\n        /* \"#utility.yul\":6731:7097   */\n    tag_422:\n        /* \"#utility.yul\":6873:6876   */\n      0x00\n        /* \"#utility.yul\":6894:6961   */\n      tag_424\n        /* \"#utility.yul\":6958:6960   */\n      0x0e\n        /* \"#utility.yul\":6953:6956   */\n      dup4\n        /* \"#utility.yul\":6894:6961   */\n      tag_401\n      jump\t// in\n    tag_424:\n        /* \"#utility.yul\":6887:6961   */\n      swap2\n      pop\n        /* \"#utility.yul\":6970:7063   */\n      tag_425\n        /* \"#utility.yul\":7059:7062   */\n      dup3\n        /* \"#utility.yul\":6970:7063   */\n      tag_426\n      jump\t// in\n    tag_425:\n        /* \"#utility.yul\":7088:7090   */\n      0x20\n        /* \"#utility.yul\":7083:7086   */\n      dup3\n        /* \"#utility.yul\":7079:7091   */\n      add\n        /* \"#utility.yul\":7072:7091   */\n      swap1\n      pop\n        /* \"#utility.yul\":6731:7097   */\n      swap2\n      swap1\n      pop\n      jump\t// out\n        /* \"#utility.yul\":7103:7469   */\n    tag_427:\n        /* \"#utility.yul\":7245:7248   */\n      0x00\n        /* \"#utility.yul\":7266:7333   */\n      tag_429\n        /* \"#utility.yul\":7330:7332   */\n      0x0a\n        /* \"#utility.yul\":7325:7328   */\n      dup4\n        /* \"#utility.yul\":7266:7333   */\n      tag_401\n      jump\t// in\n    tag_429:\n        /* \"#utility.yul\":7259:7333   */\n      swap2\n      pop\n        /* \"#utility.yul\":7342:7435   */\n      tag_430\n        /* \"#utility.yul\":7431:7434   */\n      dup3\n        /* \"#utility.yul\":7342:7435   */\n      tag_431\n      jump\t// in\n    tag_430:\n        /* \"#utility.yul\":7460:7462   */\n      0x20\n        /* \"#utility.yul\":7455:7458   */\n      dup3\n        /* \"#utility.yul\":7451:7463   */\n      add\n        /* \"#utility.yul\":7444:7463   */\n      swap1\n      pop\n        /* \"#utility.yul\":7103:7469   */\n      swap2\n      swap1\n      pop\n      jump\t// out\n        /* \"#utility.yul\":7475:7593   */\n    tag_432:\n        /* \"#utility.yul\":7562:7586   */\n      tag_434\n        /* \"#utility.yul\":7580:7585   */\n      dup2\n        /* \"#utility.yul\":7562:7586   */\n      tag_435\n      jump\t// in\n    tag_434:\n        /* \"#utility.yul\":7557:7560   */\n      dup3\n        /* \"#utility.yul\":7550:7587   */\n      mstore\n        /* \"#utility.yul\":7475:7593   */\n      pop\n      pop\n      jump\t// out\n        /* \"#utility.yul\":7599:7756   */\n    tag_436:\n        /* \"#utility.yul\":7704:7749   */\n      tag_438\n        /* \"#utility.yul\":7724:7748   */\n      tag_439\n        /* \"#utility.yul\":7742:7747   */\n      dup3\n        /* \"#utility.yul\":7724:7748   */\n      tag_435\n      jump\t// in\n    tag_439:\n        /* \"#utility.yul\":7704:7749   */\n      tag_440\n      jump\t// in\n    tag_438:\n        /* \"#utility.yul\":7699:7702   */\n      dup3\n        /* \"#utility.yul\":7692:7750   */\n      mstore\n        /* \"#utility.yul\":7599:7756   */\n      pop\n      pop\n      jump\t// out\n        /* \"#utility.yul\":7762:8018   */\n    tag_265:\n        /* \"#utility.yul\":7874:7877   */\n      0x00\n        /* \"#utility.yul\":7889:7964   */\n      tag_442\n        /* \"#utility.yul\":7960:7963   */\n      dup3\n        /* \"#utility.yul\":7951:7957   */\n      dup5\n        /* \"#utility.yul\":7889:7964   */\n      tag_391\n      jump\t// in\n    tag_442:\n        /* \"#utility.yul\":7989:7991   */\n      0x20\n        /* \"#utility.yul\":7984:7987   */\n      dup3\n        /* \"#utility.yul\":7980:7992   */\n      add\n        /* \"#utility.yul\":7973:7992   */\n      swap2\n      pop\n        /* \"#utility.yul\":8009:8012   */\n      dup2\n        /* \"#utility.yul\":8002:8012   */\n      swap1\n      pop\n        /* \"#utility.yul\":7762:8018   */\n      swap3\n      swap2\n      pop\n      pop\n      jump\t// out\n        /* \"#utility.yul\":8024:8299   */\n    tag_41:\n        /* \"#utility.yul\":8156:8159   */\n      0x00\n        /* \"#utility.yul\":8178:8273   */\n      tag_444\n        /* \"#utility.yul\":8269:8272   */\n      dup3\n        /* \"#utility.yul\":8260:8266   */\n      dup5\n        /* \"#utility.yul\":8178:8273   */\n      tag_406\n      jump\t// in\n    tag_444:\n        /* \"#utility.yul\":8171:8273   */\n      swap2\n      pop\n        /* \"#utility.yul\":8290:8293   */\n      dup2\n        /* \"#utility.yul\":8283:8293   */\n      swap1\n      pop\n        /* \"#utility.yul\":8024:8299   */\n      swap3\n      swap2\n      pop\n      pop\n      jump\t// out\n        /* \"#utility.yul\":8305:8561   */\n    tag_260:\n        /* \"#utility.yul\":8417:8420   */\n      0x00\n        /* \"#utility.yul\":8432:8507   */\n      tag_446\n        /* \"#utility.yul\":8503:8506   */\n      dup3\n        /* \"#utility.yul\":8494:8500   */\n      dup5\n        /* \"#utility.yul\":8432:8507   */\n      tag_436\n      jump\t// in\n    tag_446:\n        /* \"#utility.yul\":8532:8534   */\n      0x20\n        /* \"#utility.yul\":8527:8530   */\n      dup3\n        /* \"#utility.yul\":8523:8535   */\n      add\n        /* \"#utility.yul\":8516:8535   */\n      swap2\n      pop\n        /* \"#utility.yul\":8552:8555   */\n      dup2\n        /* \"#utility.yul\":8545:8555   */\n      swap1\n      pop\n        /* \"#utility.yul\":8305:8561   */\n      swap3\n      swap2\n      pop\n      pop\n      jump\t// out\n        /* \"#utility.yul\":8567:8777   */\n    tag_19:\n        /* \"#utility.yul\":8654:8658   */\n      0x00\n        /* \"#utility.yul\":8692:8694   */\n      0x20\n        /* \"#utility.yul\":8681:8690   */\n      dup3\n        /* \"#utility.yul\":8677:8695   */\n      add\n        /* \"#utility.yul\":8669:8695   */\n      swap1\n      pop\n        /* \"#utility.yul\":8705:8770   */\n      tag_448\n        /* \"#utility.yul\":8767:8768   */\n      0x00\n        /* \"#utility.yul\":8756:8765   */\n      dup4\n        /* \"#utility.yul\":8752:8769   */\n      add\n        /* \"#utility.yul\":8743:8749   */\n      dup5\n        /* \"#utility.yul\":8705:8770   */\n      tag_383\n      jump\t// in\n    tag_448:\n        /* \"#utility.yul\":8567:8777   */\n      swap3\n      swap2\n      pop\n      pop\n      jump\t// out\n        /* \"#utility.yul\":8783:9005   */\n    tag_12:\n        /* \"#utility.yul\":8876:8880   */\n      0x00\n        /* \"#utility.yul\":8914:8916   */\n      0x20\n        /* \"#utility.yul\":8903:8912   */\n      dup3\n        /* \"#utility.yul\":8899:8917   */\n      add\n        /* \"#utility.yul\":8891:8917   */\n      swap1\n      pop\n        /* \"#utility.yul\":8927:8998   */\n      tag_450\n        /* \"#utility.yul\":8995:8996   */\n      0x00\n        /* \"#utility.yul\":8984:8993   */\n      dup4\n        /* \"#utility.yul\":8980:8997   */\n      add\n        /* \"#utility.yul\":8971:8977   */\n      dup5\n        /* \"#utility.yul\":8927:8998   */\n      tag_387\n      jump\t// in\n    tag_450:\n        /* \"#utility.yul\":8783:9005   */\n      swap3\n      swap2\n      pop\n      pop\n      jump\t// out\n        /* \"#utility.yul\":9011:10170   */\n    tag_31:\n        /* \"#utility.yul\":9332:9336   */\n      0x00\n        /* \"#utility.yul\":9370:9373   */\n      0xe0\n        /* \"#utility.yul\":9359:9368   */\n      dup3\n        /* \"#utility.yul\":9355:9374   */\n      add\n        /* \"#utility.yul\":9347:9374   */\n      swap1\n      pop\n        /* \"#utility.yul\":9420:9429   */\n      dup2\n        /* \"#utility.yul\":9414:9418   */\n      dup2\n        /* \"#utility.yul\":9410:9430   */\n      sub\n        /* \"#utility.yul\":9406:9407   */\n      0x00\n        /* \"#utility.yul\":9395:9404   */\n      dup4\n        /* \"#utility.yul\":9391:9408   */\n      add\n        /* \"#utility.yul\":9384:9431   */\n      mstore\n        /* \"#utility.yul\":9448:9526   */\n      tag_452\n        /* \"#utility.yul\":9521:9525   */\n      dup2\n        /* \"#utility.yul\":9512:9518   */\n      dup11\n        /* \"#utility.yul\":9448:9526   */\n      tag_396\n      jump\t// in\n    tag_452:\n        /* \"#utility.yul\":9440:9526   */\n      swap1\n      pop\n        /* \"#utility.yul\":9573:9582   */\n      dup2\n        /* \"#utility.yul\":9567:9571   */\n      dup2\n        /* \"#utility.yul\":9563:9583   */\n      sub\n        /* \"#utility.yul\":9558:9560   */\n      0x20\n        /* \"#utility.yul\":9547:9556   */\n      dup4\n        /* \"#utility.yul\":9543:9561   */\n      add\n        /* \"#utility.yul\":9536:9584   */\n      mstore\n        /* \"#utility.yul\":9601:9679   */\n      tag_453\n        /* \"#utility.yul\":9674:9678   */\n      dup2\n        /* \"#utility.yul\":9665:9671   */\n      dup10\n        /* \"#utility.yul\":9601:9679   */\n      tag_396\n      jump\t// in\n    tag_453:\n        /* \"#utility.yul\":9593:9679   */\n      swap1\n      pop\n        /* \"#utility.yul\":9726:9735   */\n      dup2\n        /* \"#utility.yul\":9720:9724   */\n      dup2\n        /* \"#utility.yul\":9716:9736   */\n      sub\n        /* \"#utility.yul\":9711:9713   */\n      0x40\n        /* \"#utility.yul\":9700:9709   */\n      dup4\n        /* \"#utility.yul\":9696:9714   */\n      add\n        /* \"#utility.yul\":9689:9737   */\n      mstore\n        /* \"#utility.yul\":9754:9832   */\n      tag_454\n        /* \"#utility.yul\":9827:9831   */\n      dup2\n        /* \"#utility.yul\":9818:9824   */\n      dup9\n        /* \"#utility.yul\":9754:9832   */\n      tag_396\n      jump\t// in\n    tag_454:\n        /* \"#utility.yul\":9746:9832   */\n      swap1\n      pop\n        /* \"#utility.yul\":9842:9914   */\n      tag_455\n        /* \"#utility.yul\":9910:9912   */\n      0x60\n        /* \"#utility.yul\":9899:9908   */\n      dup4\n        /* \"#utility.yul\":9895:9913   */\n      add\n        /* \"#utility.yul\":9886:9892   */\n      dup8\n        /* \"#utility.yul\":9842:9914   */\n      tag_432\n      jump\t// in\n    tag_455:\n        /* \"#utility.yul\":9924:9997   */\n      tag_456\n        /* \"#utility.yul\":9992:9995   */\n      0x80\n        /* \"#utility.yul\":9981:9990   */\n      dup4\n        /* \"#utility.yul\":9977:9996   */\n      add\n        /* \"#utility.yul\":9968:9974   */\n      dup7\n        /* \"#utility.yul\":9924:9997   */\n      tag_432\n      jump\t// in\n    tag_456:\n        /* \"#utility.yul\":10007:10080   */\n      tag_457\n        /* \"#utility.yul\":10075:10078   */\n      0xa0\n        /* \"#utility.yul\":10064:10073   */\n      dup4\n        /* \"#utility.yul\":10060:10079   */\n      add\n        /* \"#utility.yul\":10051:10057   */\n      dup6\n        /* \"#utility.yul\":10007:10080   */\n      tag_432\n      jump\t// in\n    tag_457:\n        /* \"#utility.yul\":10090:10163   */\n      tag_458\n        /* \"#utility.yul\":10158:10161   */\n      0xc0\n        /* \"#utility.yul\":10147:10156   */\n      dup4\n        /* \"#utility.yul\":10143:10162   */\n      add\n        /* \"#utility.yul\":10134:10140   */\n      dup5\n        /* \"#utility.yul\":10090:10163   */\n      tag_432\n      jump\t// in\n    tag_458:\n        /* \"#utility.yul\":9011:10170   */\n      swap9\n      swap8\n      pop\n      pop\n      pop\n      pop\n      pop\n      pop\n      pop\n      pop\n      jump\t// out\n        /* \"#utility.yul\":10176:10595   */\n    tag_35:\n        /* \"#utility.yul\":10342:10346   */\n      0x00\n        /* \"#utility.yul\":10380:10382   */\n      0x20\n        /* \"#utility.yul\":10369:10378   */\n      dup3\n        /* \"#utility.yul\":10365:10383   */\n      add\n        /* \"#utility.yul\":10357:10383   */\n      swap1\n      pop\n        /* \"#utility.yul\":10429:10438   */\n      dup2\n        /* \"#utility.yul\":10423:10427   */\n      dup2\n        /* \"#utility.yul\":10419:10439   */\n      sub\n        /* \"#utility.yul\":10415:10416   */\n      0x00\n        /* \"#utility.yul\":10404:10413   */\n      dup4\n        /* \"#utility.yul\":10400:10417   */\n      add\n        /* \"#utility.yul\":10393:10440   */\n      mstore\n        /* \"#utility.yul\":10457:10588   */\n      tag_460\n        /* \"#utility.yul\":10583:10587   */\n      dup2\n        /* \"#utility.yul\":10457:10588   */\n      tag_412\n      jump\t// in\n    tag_460:\n        /* \"#utility.yul\":10449:10588   */\n      swap1\n      pop\n        /* \"#utility.yul\":10176:10595   */\n      swap2\n      swap1\n      pop\n      jump\t// out\n        /* \"#utility.yul\":10601:11020   */\n    tag_215:\n        /* \"#utility.yul\":10767:10771   */\n      0x00\n        /* \"#utility.yul\":10805:10807   */\n      0x20\n        /* \"#utility.yul\":10794:10803   */\n      dup3\n        /* \"#utility.yul\":10790:10808   */\n      add\n        /* \"#utility.yul\":10782:10808   */\n      swap1\n      pop\n        /* \"#utility.yul\":10854:10863   */\n      dup2\n        /* \"#utility.yul\":10848:10852   */\n      dup2\n        /* \"#utility.yul\":10844:10864   */\n      sub\n        /* \"#utility.yul\":10840:10841   */\n      0x00\n        /* \"#utility.yul\":10829:10838   */\n      dup4\n        /* \"#utility.yul\":10825:10842   */\n      add\n        /* \"#utility.yul\":10818:10865   */\n      mstore\n        /* \"#utility.yul\":10882:11013   */\n      tag_462\n        /* \"#utility.yul\":11008:11012   */\n      dup2\n        /* \"#utility.yul\":10882:11013   */\n      tag_417\n      jump\t// in\n    tag_462:\n        /* \"#utility.yul\":10874:11013   */\n      swap1\n      pop\n        /* \"#utility.yul\":10601:11020   */\n      swap2\n      swap1\n      pop\n      jump\t// out\n        /* \"#utility.yul\":11026:11445   */\n    tag_59:\n        /* \"#utility.yul\":11192:11196   */\n      0x00\n        /* \"#utility.yul\":11230:11232   */\n      0x20\n        /* \"#utility.yul\":11219:11228   */\n      dup3\n        /* \"#utility.yul\":11215:11233   */\n      add\n        /* \"#utility.yul\":11207:11233   */\n      swap1\n      pop\n        /* \"#utility.yul\":11279:11288   */\n      dup2\n        /* \"#utility.yul\":11273:11277   */\n      dup2\n        /* \"#utility.yul\":11269:11289   */\n      sub\n        /* \"#utility.yul\":11265:11266   */\n      0x00\n        /* \"#utility.yul\":11254:11263   */\n      dup4\n        /* \"#utility.yul\":11250:11267   */\n      add\n        /* \"#utility.yul\":11243:11290   */\n      mstore\n        /* \"#utility.yul\":11307:11438   */\n      tag_464\n        /* \"#utility.yul\":11433:11437   */\n      dup2\n        /* \"#utility.yul\":11307:11438   */\n      tag_422\n      jump\t// in\n    tag_464:\n        /* \"#utility.yul\":11299:11438   */\n      swap1\n      pop\n        /* \"#utility.yul\":11026:11445   */\n      swap2\n      swap1\n      pop\n      jump\t// out\n        /* \"#utility.yul\":11451:11870   */\n    tag_46:\n        /* \"#utility.yul\":11617:11621   */\n      0x00\n        /* \"#utility.yul\":11655:11657   */\n      0x20\n        /* \"#utility.yul\":11644:11653   */\n      dup3\n        /* \"#utility.yul\":11640:11658   */\n      add\n        /* \"#utility.yul\":11632:11658   */\n      swap1\n      pop\n        /* \"#utility.yul\":11704:11713   */\n      dup2\n        /* \"#utility.yul\":11698:11702   */\n      dup2\n        /* \"#utility.yul\":11694:11714   */\n      sub\n        /* \"#utility.yul\":11690:11691   */\n      0x00\n        /* \"#utility.yul\":11679:11688   */\n      dup4\n        /* \"#utility.yul\":11675:11692   */\n      add\n        /* \"#utility.yul\":11668:11715   */\n      mstore\n        /* \"#utility.yul\":11732:11863   */\n      tag_466\n        /* \"#utility.yul\":11858:11862   */\n      dup2\n        /* \"#utility.yul\":11732:11863   */\n      tag_427\n      jump\t// in\n    tag_466:\n        /* \"#utility.yul\":11724:11863   */\n      swap1\n      pop\n        /* \"#utility.yul\":11451:11870   */\n      swap2\n      swap1\n      pop\n      jump\t// out\n        /* \"#utility.yul\":11876:12005   */\n    tag_320:\n        /* \"#utility.yul\":11910:11916   */\n      0x00\n        /* \"#utility.yul\":11937:11957   */\n      tag_468\n      tag_469\n      jump\t// in\n    tag_468:\n        /* \"#utility.yul\":11927:11957   */\n      swap1\n      pop\n        /* \"#utility.yul\":11966:11999   */\n      tag_470\n        /* \"#utility.yul\":11994:11998   */\n      dup3\n        /* \"#utility.yul\":11986:11992   */\n      dup3\n        /* \"#utility.yul\":11966:11999   */\n      tag_471\n      jump\t// in\n    tag_470:\n        /* \"#utility.yul\":11876:12005   */\n      swap2\n      swap1\n      pop\n      jump\t// out\n        /* \"#utility.yul\":12011:12086   */\n    tag_469:\n        /* \"#utility.yul\":12044:12050   */\n      0x00\n        /* \"#utility.yul\":12077:12079   */\n      0x40\n        /* \"#utility.yul\":12071:12080   */\n      mload\n        /* \"#utility.yul\":12061:12080   */\n      swap1\n      pop\n        /* \"#utility.yul\":12011:12086   */\n      swap1\n      jump\t// out\n        /* \"#utility.yul\":12092:12400   */\n    tag_319:\n        /* \"#utility.yul\":12154:12158   */\n      0x00\n        /* \"#utility.yul\":12244:12262   */\n      0xffffffffffffffff\n        /* \"#utility.yul\":12236:12242   */\n      dup3\n        /* \"#utility.yul\":12233:12263   */\n      gt\n        /* \"#utility.yul\":12230:12286   */\n      iszero\n      tag_474\n      jumpi\n        /* \"#utility.yul\":12266:12284   */\n      tag_475\n      tag_236\n      jump\t// in\n    tag_475:\n        /* \"#utility.yul\":12230:12286   */\n    tag_474:\n        /* \"#utility.yul\":12304:12333   */\n      tag_476\n        /* \"#utility.yul\":12326:12332   */\n      dup3\n        /* \"#utility.yul\":12304:12333   */\n      tag_405\n      jump\t// in\n    tag_476:\n        /* \"#utility.yul\":12296:12333   */\n      swap1\n      pop\n        /* \"#utility.yul\":12388:12392   */\n      0x20\n        /* \"#utility.yul\":12382:12386   */\n      dup2\n        /* \"#utility.yul\":12378:12393   */\n      add\n        /* \"#utility.yul\":12370:12393   */\n      swap1\n      pop\n        /* \"#utility.yul\":12092:12400   */\n      swap2\n      swap1\n      pop\n      jump\t// out\n        /* \"#utility.yul\":12406:12505   */\n    tag_399:\n        /* \"#utility.yul\":12458:12464   */\n      0x00\n        /* \"#utility.yul\":12492:12497   */\n      dup2\n        /* \"#utility.yul\":12486:12498   */\n      mload\n        /* \"#utility.yul\":12476:12498   */\n      swap1\n      pop\n        /* \"#utility.yul\":12406:12505   */\n      swap2\n      swap1\n      pop\n      jump\t// out\n        /* \"#utility.yul\":12511:12680   */\n    tag_401:\n        /* \"#utility.yul\":12595:12606   */\n      0x00\n        /* \"#utility.yul\":12629:12635   */\n      dup3\n        /* \"#utility.yul\":12624:12627   */\n      dup3\n        /* \"#utility.yul\":12617:12636   */\n      mstore\n        /* \"#utility.yul\":12669:12673   */\n      0x20\n        /* \"#utility.yul\":12664:12667   */\n      dup3\n        /* \"#utility.yul\":12660:12674   */\n      add\n        /* \"#utility.yul\":12645:12674   */\n      swap1\n      pop\n        /* \"#utility.yul\":12511:12680   */\n      swap3\n      swap2\n      pop\n      pop\n      jump\t// out\n        /* \"#utility.yul\":12686:12834   */\n    tag_410:\n        /* \"#utility.yul\":12788:12799   */\n      0x00\n        /* \"#utility.yul\":12825:12828   */\n      dup2\n        /* \"#utility.yul\":12810:12828   */\n      swap1\n      pop\n        /* \"#utility.yul\":12686:12834   */\n      swap3\n      swap2\n      pop\n      pop\n      jump\t// out\n        /* \"#utility.yul\":12840:13145   */\n    tag_90:\n        /* \"#utility.yul\":12880:12883   */\n      0x00\n        /* \"#utility.yul\":12899:12919   */\n      tag_481\n        /* \"#utility.yul\":12917:12918   */\n      dup3\n        /* \"#utility.yul\":12899:12919   */\n      tag_435\n      jump\t// in\n    tag_481:\n        /* \"#utility.yul\":12894:12919   */\n      swap2\n      pop\n        /* \"#utility.yul\":12933:12953   */\n      tag_482\n        /* \"#utility.yul\":12951:12952   */\n      dup4\n        /* \"#utility.yul\":12933:12953   */\n      tag_435\n      jump\t// in\n    tag_482:\n        /* \"#utility.yul\":12928:12953   */\n      swap3\n      pop\n        /* \"#utility.yul\":13087:13088   */\n      dup3\n        /* \"#utility.yul\":13019:13085   */\n      0xffffffffffffffffffffffffffffffffffffffffffffffffffffffffffffffff\n        /* \"#utility.yul\":13015:13089   */\n      sub\n        /* \"#utility.yul\":13012:13013   */\n      dup3\n        /* \"#utility.yul\":13009:13090   */\n      gt\n        /* \"#utility.yul\":13006:13113   */\n      iszero\n      tag_483\n      jumpi\n        /* \"#utility.yul\":13093:13111   */\n      tag_484\n      tag_485\n      jump\t// in\n    tag_484:\n        /* \"#utility.yul\":13006:13113   */\n    tag_483:\n        /* \"#utility.yul\":13137:13138   */\n      dup3\n        /* \"#utility.yul\":13134:13135   */\n      dup3\n        /* \"#utility.yul\":13130:13139   */\n      add\n        /* \"#utility.yul\":13123:13139   */\n      swap1\n      pop\n        /* \"#utility.yul\":12840:13145   */\n      swap3\n      swap2\n      pop\n      pop\n      jump\t// out\n        /* \"#utility.yul\":13151:13336   */\n    tag_167:\n        /* \"#utility.yul\":13191:13192   */\n      0x00\n        /* \"#utility.yul\":13208:13228   */\n      tag_487\n        /* \"#utility.yul\":13226:13227   */\n      dup3\n        /* \"#utility.yul\":13208:13228   */\n      tag_435\n      jump\t// in\n    tag_487:\n        /* \"#utility.yul\":13203:13228   */\n      swap2\n      pop\n        /* \"#utility.yul\":13242:13262   */\n      tag_488\n        /* \"#utility.yul\":13260:13261   */\n      dup4\n        /* \"#utility.yul\":13242:13262   */\n      tag_435\n      jump\t// in\n    tag_488:\n        /* \"#utility.yul\":13237:13262   */\n      swap3\n      pop\n        /* \"#utility.yul\":13281:13282   */\n      dup3\n        /* \"#utility.yul\":13271:13306   */\n      tag_489\n      jumpi\n        /* \"#utility.yul\":13286:13304   */\n      tag_490\n      tag_491\n      jump\t// in\n    tag_490:\n        /* \"#utility.yul\":13271:13306   */\n    tag_489:\n        /* \"#utility.yul\":13328:13329   */\n      dup3\n        /* \"#utility.yul\":13325:13326   */\n      dup3\n        /* \"#utility.yul\":13321:13330   */\n      div\n        /* \"#utility.yul\":13316:13330   */\n      swap1\n      pop\n        /* \"#utility.yul\":13151:13336   */\n      swap3\n      swap2\n      pop\n      pop\n      jump\t// out\n        /* \"#utility.yul\":13342:13690   */\n    tag_165:\n        /* \"#utility.yul\":13382:13389   */\n      0x00\n        /* \"#utility.yul\":13405:13425   */\n      tag_493\n        /* \"#utility.yul\":13423:13424   */\n      dup3\n        /* \"#utility.yul\":13405:13425   */\n      tag_435\n      jump\t// in\n    tag_493:\n        /* \"#utility.yul\":13400:13425   */\n      swap2\n      pop\n        /* \"#utility.yul\":13439:13459   */\n      tag_494\n        /* \"#utility.yul\":13457:13458   */\n      dup4\n        /* \"#utility.yul\":13439:13459   */\n      tag_435\n      jump\t// in\n    tag_494:\n        /* \"#utility.yul\":13434:13459   */\n      swap3\n      pop\n        /* \"#utility.yul\":13627:13628   */\n      dup2\n        /* \"#utility.yul\":13559:13625   */\n      0xffffffffffffffffffffffffffffffffffffffffffffffffffffffffffffffff\n        /* \"#utility.yul\":13555:13629   */\n      div\n        /* \"#utility.yul\":13552:13553   */\n      dup4\n        /* \"#utility.yul\":13549:13630   */\n      gt\n        /* \"#utility.yul\":13544:13545   */\n      dup3\n        /* \"#utility.yul\":13537:13546   */\n      iszero\n        /* \"#utility.yul\":13530:13547   */\n      iszero\n        /* \"#utility.yul\":13526:13631   */\n      and\n        /* \"#utility.yul\":13523:13654   */\n      iszero\n      tag_495\n      jumpi\n        /* \"#utility.yul\":13634:13652   */\n      tag_496\n      tag_485\n      jump\t// in\n    tag_496:\n        /* \"#utility.yul\":13523:13654   */\n    tag_495:\n        /* \"#utility.yul\":13682:13683   */\n      dup3\n        /* \"#utility.yul\":13679:13680   */\n      dup3\n        /* \"#utility.yul\":13675:13684   */\n      mul\n        /* \"#utility.yul\":13664:13684   */\n      swap1\n      pop\n        /* \"#utility.yul\":13342:13690   */\n      swap3\n      swap2\n      pop\n      pop\n      jump\t// out\n        /* \"#utility.yul\":13696:13887   */\n    tag_143:\n        /* \"#utility.yul\":13736:13740   */\n      0x00\n        /* \"#utility.yul\":13756:13776   */\n      tag_498\n        /* \"#utility.yul\":13774:13775   */\n      dup3\n        /* \"#utility.yul\":13756:13776   */\n      tag_435\n      jump\t// in\n    tag_498:\n        /* \"#utility.yul\":13751:13776   */\n      swap2\n      pop\n        /* \"#utility.yul\":13790:13810   */\n      tag_499\n        /* \"#utility.yul\":13808:13809   */\n      dup4\n        /* \"#utility.yul\":13790:13810   */\n      tag_435\n      jump\t// in\n    tag_499:\n        /* \"#utility.yul\":13785:13810   */\n      swap3\n      pop\n        /* \"#utility.yul\":13829:13830   */\n      dup3\n        /* \"#utility.yul\":13826:13827   */\n      dup3\n        /* \"#utility.yul\":13823:13831   */\n      lt\n        /* \"#utility.yul\":13820:13854   */\n      iszero\n      tag_500\n      jumpi\n        /* \"#utility.yul\":13834:13852   */\n      tag_501\n      tag_485\n      jump\t// in\n    tag_501:\n        /* \"#utility.yul\":13820:13854   */\n    tag_500:\n        /* \"#utility.yul\":13879:13880   */\n      dup3\n        /* \"#utility.yul\":13876:13877   */\n      dup3\n        /* \"#utility.yul\":13872:13881   */\n      sub\n        /* \"#utility.yul\":13864:13881   */\n      swap1\n      pop\n        /* \"#utility.yul\":13696:13887   */\n      swap3\n      swap2\n      pop\n      pop\n      jump\t// out\n        /* \"#utility.yul\":13893:13989   */\n    tag_502:\n        /* \"#utility.yul\":13930:13937   */\n      0x00\n        /* \"#utility.yul\":13959:13983   */\n      tag_504\n        /* \"#utility.yul\":13977:13982   */\n      dup3\n        /* \"#utility.yul\":13959:13983   */\n      tag_505\n      jump\t// in\n    tag_504:\n        /* \"#utility.yul\":13948:13983   */\n      swap1\n      pop\n        /* \"#utility.yul\":13893:13989   */\n      swap2\n      swap1\n      pop\n      jump\t// out\n        /* \"#utility.yul\":13995:14085   */\n    tag_386:\n        /* \"#utility.yul\":14029:14036   */\n      0x00\n        /* \"#utility.yul\":14072:14077   */\n      dup2\n        /* \"#utility.yul\":14065:14078   */\n      iszero\n        /* \"#utility.yul\":14058:14079   */\n      iszero\n        /* \"#utility.yul\":14047:14079   */\n      swap1\n      pop\n        /* \"#utility.yul\":13995:14085   */\n      swap2\n      swap1\n      pop\n      jump\t// out\n        /* \"#utility.yul\":14091:14168   */\n    tag_390:\n        /* \"#utility.yul\":14128:14135   */\n      0x00\n        /* \"#utility.yul\":14157:14162   */\n      dup2\n        /* \"#utility.yul\":14146:14162   */\n      swap1\n      pop\n        /* \"#utility.yul\":14091:14168   */\n      swap2\n      swap1\n      pop\n      jump\t// out\n        /* \"#utility.yul\":14174:14300   */\n    tag_505:\n        /* \"#utility.yul\":14211:14218   */\n      0x00\n        /* \"#utility.yul\":14251:14293   */\n      0xffffffffffffffffffffffffffffffffffffffff\n        /* \"#utility.yul\":14244:14249   */\n      dup3\n        /* \"#utility.yul\":14240:14294   */\n      and\n        /* \"#utility.yul\":14229:14294   */\n      swap1\n      pop\n        /* \"#utility.yul\":14174:14300   */\n      swap2\n      swap1\n      pop\n      jump\t// out\n        /* \"#utility.yul\":14306:14383   */\n    tag_435:\n        /* \"#utility.yul\":14343:14350   */\n      0x00\n        /* \"#utility.yul\":14372:14377   */\n      dup2\n        /* \"#utility.yul\":14361:14377   */\n      swap1\n      pop\n        /* \"#utility.yul\":14306:14383   */\n      swap2\n      swap1\n      pop\n      jump\t// out\n        /* \"#utility.yul\":14389:14543   */\n    tag_325:\n        /* \"#utility.yul\":14473:14479   */\n      dup3\n        /* \"#utility.yul\":14468:14471   */\n      dup2\n        /* \"#utility.yul\":14463:14466   */\n      dup4\n        /* \"#utility.yul\":14450:14480   */\n      calldatacopy\n        /* \"#utility.yul\":14535:14536   */\n      0x00\n        /* \"#utility.yul\":14526:14532   */\n      dup4\n        /* \"#utility.yul\":14521:14524   */\n      dup4\n        /* \"#utility.yul\":14517:14533   */\n      add\n        /* \"#utility.yul\":14510:14537   */\n      mstore\n        /* \"#utility.yul\":14389:14543   */\n      pop\n      pop\n      pop\n      jump\t// out\n        /* \"#utility.yul\":14549:14856   */\n    tag_403:\n        /* \"#utility.yul\":14617:14618   */\n      0x00\n        /* \"#utility.yul\":14627:14740   */\n    tag_512:\n        /* \"#utility.yul\":14641:14647   */\n      dup4\n        /* \"#utility.yul\":14638:14639   */\n      dup2\n        /* \"#utility.yul\":14635:14648   */\n      lt\n        /* \"#utility.yul\":14627:14740   */\n      iszero\n      tag_514\n      jumpi\n        /* \"#utility.yul\":14726:14727   */\n      dup1\n        /* \"#utility.yul\":14721:14724   */\n      dup3\n        /* \"#utility.yul\":14717:14728   */\n      add\n        /* \"#utility.yul\":14711:14729   */\n      mload\n        /* \"#utility.yul\":14707:14708   */\n      dup2\n        /* \"#utility.yul\":14702:14705   */\n      dup5\n        /* \"#utility.yul\":14698:14709   */\n      add\n        /* \"#utility.yul\":14691:14730   */\n      mstore\n        /* \"#utility.yul\":14663:14665   */\n      0x20\n        /* \"#utility.yul\":14660:14661   */\n      dup2\n        /* \"#utility.yul\":14656:14666   */\n      add\n        /* \"#utility.yul\":14651:14666   */\n      swap1\n      pop\n        /* \"#utility.yul\":14627:14740   */\n      jump(tag_512)\n    tag_514:\n        /* \"#utility.yul\":14758:14764   */\n      dup4\n        /* \"#utility.yul\":14755:14756   */\n      dup2\n        /* \"#utility.yul\":14752:14765   */\n      gt\n        /* \"#utility.yul\":14749:14850   */\n      iszero\n      tag_515\n      jumpi\n        /* \"#utility.yul\":14838:14839   */\n      0x00\n        /* \"#utility.yul\":14829:14835   */\n      dup5\n        /* \"#utility.yul\":14824:14827   */\n      dup5\n        /* \"#utility.yul\":14820:14836   */\n      add\n        /* \"#utility.yul\":14813:14840   */\n      mstore\n        /* \"#utility.yul\":14749:14850   */\n    tag_515:\n        /* \"#utility.yul\":14598:14856   */\n      pop\n        /* \"#utility.yul\":14549:14856   */\n      pop\n      pop\n      pop\n      jump\t// out\n        /* \"#utility.yul\":14862:15182   */\n    tag_62:\n        /* \"#utility.yul\":14906:14912   */\n      0x00\n        /* \"#utility.yul\":14943:14944   */\n      0x02\n        /* \"#utility.yul\":14937:14941   */\n      dup3\n        /* \"#utility.yul\":14933:14945   */\n      div\n        /* \"#utility.yul\":14923:14945   */\n      swap1\n      pop\n        /* \"#utility.yul\":14990:14991   */\n      0x01\n        /* \"#utility.yul\":14984:14988   */\n      dup3\n        /* \"#utility.yul\":14980:14992   */\n      and\n        /* \"#utility.yul\":15011:15029   */\n      dup1\n        /* \"#utility.yul\":15001:15082   */\n      tag_517\n      jumpi\n        /* \"#utility.yul\":15067:15071   */\n      0x7f\n        /* \"#utility.yul\":15059:15065   */\n      dup3\n        /* \"#utility.yul\":15055:15072   */\n      and\n        /* \"#utility.yul\":15045:15072   */\n      swap2\n      pop\n        /* \"#utility.yul\":15001:15082   */\n    tag_517:\n        /* \"#utility.yul\":15129:15131   */\n      0x20\n        /* \"#utility.yul\":15121:15127   */\n      dup3\n        /* \"#utility.yul\":15118:15132   */\n      lt\n        /* \"#utility.yul\":15098:15116   */\n      dup2\n        /* \"#utility.yul\":15095:15133   */\n      eq\n        /* \"#utility.yul\":15092:15176   */\n      iszero\n      tag_518\n      jumpi\n        /* \"#utility.yul\":15148:15166   */\n      tag_519\n      tag_520\n      jump\t// in\n    tag_519:\n        /* \"#utility.yul\":15092:15176   */\n    tag_518:\n        /* \"#utility.yul\":14913:15182   */\n      pop\n        /* \"#utility.yul\":14862:15182   */\n      swap2\n      swap1\n      pop\n      jump\t// out\n        /* \"#utility.yul\":15188:15469   */\n    tag_471:\n        /* \"#utility.yul\":15271:15298   */\n      tag_522\n        /* \"#utility.yul\":15293:15297   */\n      dup3\n        /* \"#utility.yul\":15271:15298   */\n      tag_405\n      jump\t// in\n    tag_522:\n        /* \"#utility.yul\":15263:15269   */\n      dup2\n        /* \"#utility.yul\":15259:15299   */\n      add\n        /* \"#utility.yul\":15401:15407   */\n      dup2\n        /* \"#utility.yul\":15389:15399   */\n      dup2\n        /* \"#utility.yul\":15386:15408   */\n      lt\n        /* \"#utility.yul\":15365:15383   */\n      0xffffffffffffffff\n        /* \"#utility.yul\":15353:15363   */\n      dup3\n        /* \"#utility.yul\":15350:15384   */\n      gt\n        /* \"#utility.yul\":15347:15409   */\n      or\n        /* \"#utility.yul\":15344:15432   */\n      iszero\n      tag_523\n      jumpi\n        /* \"#utility.yul\":15412:15430   */\n      tag_524\n      tag_236\n      jump\t// in\n    tag_524:\n        /* \"#utility.yul\":15344:15432   */\n    tag_523:\n        /* \"#utility.yul\":15452:15462   */\n      dup1\n        /* \"#utility.yul\":15448:15450   */\n      0x40\n        /* \"#utility.yul\":15441:15463   */\n      mstore\n        /* \"#utility.yul\":15231:15469   */\n      pop\n        /* \"#utility.yul\":15188:15469   */\n      pop\n      pop\n      jump\t// out\n        /* \"#utility.yul\":15475:15708   */\n    tag_208:\n        /* \"#utility.yul\":15514:15517   */\n      0x00\n        /* \"#utility.yul\":15537:15561   */\n      tag_526\n        /* \"#utility.yul\":15555:15560   */\n      dup3\n        /* \"#utility.yul\":15537:15561   */\n      tag_435\n      jump\t// in\n    tag_526:\n        /* \"#utility.yul\":15528:15561   */\n      swap2\n      pop\n        /* \"#utility.yul\":15583:15649   */\n      0xffffffffffffffffffffffffffffffffffffffffffffffffffffffffffffffff\n        /* \"#utility.yul\":15576:15581   */\n      dup3\n        /* \"#utility.yul\":15573:15650   */\n      eq\n        /* \"#utility.yul\":15570:15673   */\n      iszero\n      tag_527\n      jumpi\n        /* \"#utility.yul\":15653:15671   */\n      tag_528\n      tag_485\n      jump\t// in\n    tag_528:\n        /* \"#utility.yul\":15570:15673   */\n    tag_527:\n        /* \"#utility.yul\":15700:15701   */\n      0x01\n        /* \"#utility.yul\":15693:15698   */\n      dup3\n        /* \"#utility.yul\":15689:15702   */\n      add\n        /* \"#utility.yul\":15682:15702   */\n      swap1\n      pop\n        /* \"#utility.yul\":15475:15708   */\n      swap2\n      swap1\n      pop\n      jump\t// out\n        /* \"#utility.yul\":15714:15793   */\n    tag_395:\n        /* \"#utility.yul\":15753:15760   */\n      0x00\n        /* \"#utility.yul\":15782:15787   */\n      dup2\n        /* \"#utility.yul\":15771:15787   */\n      swap1\n      pop\n        /* \"#utility.yul\":15714:15793   */\n      swap2\n      swap1\n      pop\n      jump\t// out\n        /* \"#utility.yul\":15799:15878   */\n    tag_440:\n        /* \"#utility.yul\":15838:15845   */\n      0x00\n        /* \"#utility.yul\":15867:15872   */\n      dup2\n        /* \"#utility.yul\":15856:15872   */\n      swap1\n      pop\n        /* \"#utility.yul\":15799:15878   */\n      swap2\n      swap1\n      pop\n      jump\t// out\n        /* \"#utility.yul\":15884:16064   */\n    tag_485:\n        /* \"#utility.yul\":15932:16009   */\n      0x4e487b7100000000000000000000000000000000000000000000000000000000\n        /* \"#utility.yul\":15929:15930   */\n      0x00\n        /* \"#utility.yul\":15922:16010   */\n      mstore\n        /* \"#utility.yul\":16029:16033   */\n      0x11\n        /* \"#utility.yul\":16026:16027   */\n      0x04\n        /* \"#utility.yul\":16019:16034   */\n      mstore\n        /* \"#utility.yul\":16053:16057   */\n      0x24\n        /* \"#utility.yul\":16050:16051   */\n      0x00\n        /* \"#utility.yul\":16043:16058   */\n      revert\n        /* \"#utility.yul\":16070:16250   */\n    tag_491:\n        /* \"#utility.yul\":16118:16195   */\n      0x4e487b7100000000000000000000000000000000000000000000000000000000\n        /* \"#utility.yul\":16115:16116   */\n      0x00\n        /* \"#utility.yul\":16108:16196   */\n      mstore\n        /* \"#utility.yul\":16215:16219   */\n      0x12\n        /* \"#utility.yul\":16212:16213   */\n      0x04\n        /* \"#utility.yul\":16205:16220   */\n      mstore\n        /* \"#utility.yul\":16239:16243   */\n      0x24\n        /* \"#utility.yul\":16236:16237   */\n      0x00\n        /* \"#utility.yul\":16229:16244   */\n      revert\n        /* \"#utility.yul\":16256:16436   */\n    tag_520:\n        /* \"#utility.yul\":16304:16381   */\n      0x4e487b7100000000000000000000000000000000000000000000000000000000\n        /* \"#utility.yul\":16301:16302   */\n      0x00\n        /* \"#utility.yul\":16294:16382   */\n      mstore\n        /* \"#utility.yul\":16401:16405   */\n      0x22\n        /* \"#utility.yul\":16398:16399   */\n      0x04\n        /* \"#utility.yul\":16391:16406   */\n      mstore\n        /* \"#utility.yul\":16425:16429   */\n      0x24\n        /* \"#utility.yul\":16422:16423   */\n      0x00\n        /* \"#utility.yul\":16415:16430   */\n      revert\n        /* \"#utility.yul\":16442:16622   */\n    tag_146:\n        /* \"#utility.yul\":16490:16567   */\n      0x4e487b7100000000000000000000000000000000000000000000000000000000\n        /* \"#utility.yul\":16487:16488   */\n      0x00\n        /* \"#utility.yul\":16480:16568   */\n      mstore\n        /* \"#utility.yul\":16587:16591   */\n      0x32\n        /* \"#utility.yul\":16584:16585   */\n      0x04\n        /* \"#utility.yul\":16577:16592   */\n      mstore\n        /* \"#utility.yul\":16611:16615   */\n      0x24\n        /* \"#utility.yul\":16608:16609   */\n      0x00\n        /* \"#utility.yul\":16601:16616   */\n      revert\n        /* \"#utility.yul\":16628:16808   */\n    tag_236:\n        /* \"#utility.yul\":16676:16753   */\n      0x4e487b7100000000000000000000000000000000000000000000000000000000\n        /* \"#utility.yul\":16673:16674   */\n      0x00\n        /* \"#utility.yul\":16666:16754   */\n      mstore\n        /* \"#utility.yul\":16773:16777   */\n      0x41\n        /* \"#utility.yul\":16770:16771   */\n      0x04\n        /* \"#utility.yul\":16763:16778   */\n      mstore\n        /* \"#utility.yul\":16797:16801   */\n      0x24\n        /* \"#utility.yul\":16794:16795   */\n      0x00\n        /* \"#utility.yul\":16787:16802   */\n      revert\n        /* \"#utility.yul\":16814:16931   */\n    tag_342:\n        /* \"#utility.yul\":16923:16924   */\n      0x00\n        /* \"#utility.yul\":16920:16921   */\n      dup1\n        /* \"#utility.yul\":16913:16925   */\n      revert\n        /* \"#utility.yul\":16937:17054   */\n    tag_323:\n        /* \"#utility.yul\":17046:17047   */\n      0x00\n        /* \"#utility.yul\":17043:17044   */\n      dup1\n        /* \"#utility.yul\":17036:17048   */\n      revert\n        /* \"#utility.yul\":17060:17177   */\n    tag_374:\n        /* \"#utility.yul\":17169:17170   */\n      0x00\n        /* \"#utility.yul\":17166:17167   */\n      dup1\n        /* \"#utility.yul\":17159:17171   */\n      revert\n        /* \"#utility.yul\":17183:17300   */\n    tag_351:\n        /* \"#utility.yul\":17292:17293   */\n      0x00\n        /* \"#utility.yul\":17289:17290   */\n      dup1\n        /* \"#utility.yul\":17282:17294   */\n      revert\n        /* \"#utility.yul\":17306:17408   */\n    tag_405:\n        /* \"#utility.yul\":17347:17353   */\n      0x00\n        /* \"#utility.yul\":17398:17400   */\n      0x1f\n        /* \"#utility.yul\":17394:17401   */\n      not\n        /* \"#utility.yul\":17389:17391   */\n      0x1f\n        /* \"#utility.yul\":17382:17387   */\n      dup4\n        /* \"#utility.yul\":17378:17392   */\n      add\n        /* \"#utility.yul\":17374:17402   */\n      and\n        /* \"#utility.yul\":17364:17402   */\n      swap1\n      pop\n        /* \"#utility.yul\":17306:17408   */\n      swap2\n      swap1\n      pop\n      jump\t// out\n        /* \"#utility.yul\":17414:17589   */\n    tag_416:\n        /* \"#utility.yul\":17554:17581   */\n      0x4f6e6c79206f776e65722063616e2063616c6c20746869732e00000000000000\n        /* \"#utility.yul\":17550:17551   */\n      0x00\n        /* \"#utility.yul\":17542:17548   */\n      dup3\n        /* \"#utility.yul\":17538:17552   */\n      add\n        /* \"#utility.yul\":17531:17582   */\n      mstore\n        /* \"#utility.yul\":17414:17589   */\n      pop\n      jump\t// out\n        /* \"#utility.yul\":17595:17754   */\n    tag_421:\n        /* \"#utility.yul\":17735:17746   */\n      0x6e6f742065786973740000000000000000000000000000000000000000000000\n        /* \"#utility.yul\":17731:17732   */\n      0x00\n        /* \"#utility.yul\":17723:17729   */\n      dup3\n        /* \"#utility.yul\":17719:17733   */\n      add\n        /* \"#utility.yul\":17712:17747   */\n      mstore\n        /* \"#utility.yul\":17595:17754   */\n      pop\n      jump\t// out\n        /* \"#utility.yul\":17760:17924   */\n    tag_426:\n        /* \"#utility.yul\":17900:17916   */\n      0x706f6f6c206e6f74206578697374000000000000000000000000000000000000\n        /* \"#utility.yul\":17896:17897   */\n      0x00\n        /* \"#utility.yul\":17888:17894   */\n      dup3\n        /* \"#utility.yul\":17884:17898   */\n      add\n        /* \"#utility.yul\":17877:17917   */\n      mstore\n        /* \"#utility.yul\":17760:17924   */\n      pop\n      jump\t// out\n        /* \"#utility.yul\":17930:18090   */\n    tag_431:\n        /* \"#utility.yul\":18070:18082   */\n      0x7061697220657869737400000000000000000000000000000000000000000000\n        /* \"#utility.yul\":18066:18067   */\n      0x00\n        /* \"#utility.yul\":18058:18064   */\n      dup3\n        /* \"#utility.yul\":18054:18068   */\n      add\n        /* \"#utility.yul\":18047:18083   */\n      mstore\n        /* \"#utility.yul\":17930:18090   */\n      pop\n      jump\t// out\n        /* \"#utility.yul\":18096:18218   */\n    tag_329:\n        /* \"#utility.yul\":18169:18193   */\n      tag_546\n        /* \"#utility.yul\":18187:18192   */\n      dup2\n        /* \"#utility.yul\":18169:18193   */\n      tag_502\n      jump\t// in\n    tag_546:\n        /* \"#utility.yul\":18162:18167   */\n      dup2\n        /* \"#utility.yul\":18159:18194   */\n      eq\n        /* \"#utility.yul\":18149:18212   */\n      tag_547\n      jumpi\n        /* \"#utility.yul\":18208:18209   */\n      0x00\n        /* \"#utility.yul\":18205:18206   */\n      dup1\n        /* \"#utility.yul\":18198:18210   */\n      revert\n        /* \"#utility.yul\":18149:18212   */\n    tag_547:\n        /* \"#utility.yul\":18096:18218   */\n      pop\n      jump\t// out\n        /* \"#utility.yul\":18224:18340   */\n    tag_333:\n        /* \"#utility.yul\":18294:18315   */\n      tag_549\n        /* \"#utility.yul\":18309:18314   */\n      dup2\n        /* \"#utility.yul\":18294:18315   */\n      tag_386\n      jump\t// in\n    tag_549:\n        /* \"#utility.yul\":18287:18292   */\n      dup2\n        /* \"#utility.yul\":18284:18316   */\n      eq\n        /* \"#utility.yul\":18274:18334   */\n      tag_550\n      jumpi\n        /* \"#utility.yul\":18330:18331   */\n      0x00\n        /* \"#utility.yul\":18327:18328   */\n      dup1\n        /* \"#utility.yul\":18320:18332   */\n      revert\n        /* \"#utility.yul\":18274:18334   */\n    tag_550:\n        /* \"#utility.yul\":18224:18340   */\n      pop\n      jump\t// out\n        /* \"#utility.yul\":18346:18468   */\n    tag_337:\n        /* \"#utility.yul\":18419:18443   */\n      tag_552\n        /* \"#utility.yul\":18437:18442   */\n      dup2\n        /* \"#utility.yul\":18419:18443   */\n      tag_390\n      jump\t// in\n    tag_552:\n        /* \"#utility.yul\":18412:18417   */\n      dup2\n        /* \"#utility.yul\":18409:18444   */\n      eq\n        /* \"#utility.yul\":18399:18462   */\n      tag_553\n      jumpi\n        /* \"#utility.yul\":18458:18459   */\n      0x00\n        /* \"#utility.yul\":18455:18456   */\n      dup1\n        /* \"#utility.yul\":18448:18460   */\n      revert\n        /* \"#utility.yul\":18399:18462   */\n    tag_553:\n        /* \"#utility.yul\":18346:18468   */\n      pop\n      jump\t// out\n        /* \"#utility.yul\":18474:18596   */\n    tag_347:\n        /* \"#utility.yul\":18547:18571   */\n      tag_555\n        /* \"#utility.yul\":18565:18570   */\n      dup2\n        /* \"#utility.yul\":18547:18571   */\n      tag_435\n      jump\t// in\n    tag_555:\n        /* \"#utility.yul\":18540:18545   */\n      dup2\n        /* \"#utility.yul\":18537:18572   */\n      eq\n        /* \"#utility.yul\":18527:18590   */\n      tag_556\n      jumpi\n        /* \"#utility.yul\":18586:18587   */\n      0x00\n        /* \"#utility.yul\":18583:18584   */\n      dup1\n        /* \"#utility.yul\":18576:18588   */\n      revert\n        /* \"#utility.yul\":18527:18590   */\n    tag_556:\n        /* \"#utility.yul\":18474:18596   */\n      pop\n      jump\t// out\n\n    auxdata: 0xa2646970667358221220220ea410aeb7c7dcd0c7c986f95383e0487b04a5c1eb0b64bf6e4a00f4bab7f464736f6c63430008070033\n}\n",
				"bytecode": {
					"linkReferences": {},
					"object": "60806040523480156200001157600080fd5b506040516200292338038062002923833981810160405281019062000037919062000095565b806000806101000a81548173ffffffffffffffffffffffffffffffffffffffff021916908373ffffffffffffffffffffffffffffffffffffffff160217905550506200011a565b6000815190506200008f8162000100565b92915050565b600060208284031215620000ae57620000ad620000fb565b5b6000620000be848285016200007e565b91505092915050565b6000620000d482620000db565b9050919050565b600073ffffffffffffffffffffffffffffffffffffffff82169050919050565b600080fd5b6200010b81620000c7565b81146200011757600080fd5b50565b6127f9806200012a6000396000f3fe60806040526004361061003f5760003560e01c8063357965ba1461004457806347e4dd271461008157806374fe9bc2146100be578063b8e5303d146100ee575b600080fd5b34801561005057600080fd5b5061006b60048036038101906100669190611f3a565b610131565b60405161007891906121ae565b60405180910390f35b34801561008d57600080fd5b506100a860048036038101906100a39190611e19565b6103ae565b6040516100b59190612193565b60405180910390f35b6100d860048036038101906100d39190611ed3565b610a92565b6040516100e59190612193565b60405180910390f35b3480156100fa57600080fd5b5061011560048036038101906101109190611ea6565b611478565b60405161012897969594939291906121c9565b60405180910390f35b60008060009054906101000a900473ffffffffffffffffffffffffffffffffffffffff1673ffffffffffffffffffffffffffffffffffffffff163373ffffffffffffffffffffffffffffffffffffffff16146101c2576040517f08c379a00000000000000000000000000000000000000000000000000000000081526004016101b99061224d565b60405180910390fd5b60006101ce8686611726565b905060006101dc8286611726565b90506000816040516020016101f19190612161565b604051602081830303815290604052805190602001209050610212816118bc565b15610252576040517f08c379a0000000000000000000000000000000000000000000000000000000008152600401610249906122ad565b60405180910390fd5b60016005600083815260200190815260200160002060070160016101000a81548160ff021916908315150217905550876005600083815260200190815260200160002060000190805190602001906102ab929190611cb2565b50866005600083815260200190815260200160002060010190805190602001906102d6929190611cb2565b5085600560008381526020019081526020016000206002019080519060200190610301929190611cb2565b5060006005600083815260200190815260200160002060030181905550600060056000838152602001908152602001600020600401819055506000600560008381526020019081526020016000206005018190555060006005600083815260200190815260200160002060060181905550846005600083815260200190815260200160002060070160006101000a81548160ff021916908315150217905550809350505050949350505050565b60008060009054906101000a900473ffffffffffffffffffffffffffffffffffffffff1673ffffffffffffffffffffffffffffffffffffffff163373ffffffffffffffffffffffffffffffffffffffff161461043f576040517f08c379a00000000000000000000000000000000000000000000000000000000081526004016104369061224d565b60405180910390fd5b610448856118bc565b610487576040517f08c379a000000000000000000000000000000000000000000000000000000000815260040161047e9061228d565b60405180910390fd5b600060056000878152602001908152602001600020604051806101200160405290816000820180546104b8906124f3565b80601f01602080910402602001604051908101604052809291908181526020018280546104e4906124f3565b80156105315780601f1061050657610100808354040283529160200191610531565b820191906000526020600020905b81548152906001019060200180831161051457829003601f168201915b5050505050815260200160018201805461054a906124f3565b80601f0160208091040260200160405190810160405280929190818152602001828054610576906124f3565b80156105c35780601f10610598576101008083540402835291602001916105c3565b820191906000526020600020905b8154815290600101906020018083116105a657829003601f168201915b505050505081526020016002820180546105dc906124f3565b80601f0160208091040260200160405190810160405280929190818152602001828054610608906124f3565b80156106555780601f1061062a57610100808354040283529160200191610655565b820191906000526020600020905b81548152906001019060200180831161063857829003601f168201915b50505050508152602001600382015481526020016004820154815260200160058201548152602001600682015481526020016007820160009054906101000a900460ff161515151581526020016007820160019054906101000a900460ff161515151581525050905060006106da6106cc876118e9565b6106d5876118e9565b611726565b905060006106f06106ea8961191a565b83611726565b905060006040518060e001604052808b81526020018781526020018981526020018881526020018c73ffffffffffffffffffffffffffffffffffffffff16815260200183815260200160001515815250905088600260008b815260200190815260200160002060010181905550600260008a81526020019081526020016000206000018190806001815401808255809150506001900390600052602060002090600702016000909190919091506000820151816000015560208201518160010155604082015181600201556060820151816003015560808201518160040160006101000a81548173ffffffffffffffffffffffffffffffffffffffff021916908373ffffffffffffffffffffffffffffffffffffffff16021790555060a0820151816005019080519060200190610828929190611cb2565b5060c08201518160060160006101000a81548160ff02191690831515021790555050508a600460008d73ffffffffffffffffffffffffffffffffffffffff1673ffffffffffffffffffffffffffffffffffffffff16815260200190815260200160002060010160006101000a81548173ffffffffffffffffffffffffffffffffffffffff021916908373ffffffffffffffffffffffffffffffffffffffff160217905550600260008a81526020019081526020016000206000018190806001815401808255809150506001900390600052602060002090600702016000909190919091506000820151816000015560208201518160010155604082015181600201556060820151816003015560808201518160040160006101000a81548173ffffffffffffffffffffffffffffffffffffffff021916908373ffffffffffffffffffffffffffffffffffffffff16021790555060a0820151816005019080519060200190610997929190611cb2565b5060c08201518160060160006101000a81548160ff02191690831515021790555050506002861415610a1657898460c0018181516109d5919061234a565b91508181525050896003836040516109ed9190612161565b90815260200160405180910390206000828254610a0a919061234a565b92505081905550610a80565b6003861415610a3d578984606001818151610a31919061234a565b91508181525050610a7f565b6001861415610a64578984608001818151610a58919061234a565b91508181525050610a7e565b898460a001818151610a76919061234a565b915081815250505b5b5b50505050600190509695505050505050565b60008060009054906101000a900473ffffffffffffffffffffffffffffffffffffffff1673ffffffffffffffffffffffffffffffffffffffff163373ffffffffffffffffffffffffffffffffffffffff1614610b23576040517f08c379a0000000000000000000000000000000000000000000000000000000008152600401610b1a9061224d565b60405180910390fd5b610b2c856118bc565b610b6b576040517f08c379a0000000000000000000000000000000000000000000000000000000008152600401610b629061228d565b60405180910390fd5b60006005600087815260200190815260200160002060405180610120016040529081600082018054610b9c906124f3565b80601f0160208091040260200160405190810160405280929190818152602001828054610bc8906124f3565b8015610c155780601f10610bea57610100808354040283529160200191610c15565b820191906000526020600020905b815481529060010190602001808311610bf857829003601f168201915b50505050508152602001600182018054610c2e906124f3565b80601f0160208091040260200160405190810160405280929190818152602001828054610c5a906124f3565b8015610ca75780601f10610c7c57610100808354040283529160200191610ca7565b820191906000526020600020905b815481529060010190602001808311610c8a57829003601f168201915b50505050508152602001600282018054610cc0906124f3565b80601f0160208091040260200160405190810160405280929190818152602001828054610cec906124f3565b8015610d395780601f10610d0e57610100808354040283529160200191610d39565b820191906000526020600020905b815481529060010190602001808311610d1c57829003601f168201915b50505050508152602001600382015481526020016004820154815260200160058201548152602001600682015481526020016007820160009054906101000a900460ff161515151581526020016007820160019054906101000a900460ff1615151515815250509050600060026000888152602001908152602001600020600001805480602002602001604051908101604052809291908181526020016000905b82821015610f3757838290600052602060002090600702016040518060e0016040529081600082015481526020016001820154815260200160028201548152602001600382015481526020016004820160009054906101000a900473ffffffffffffffffffffffffffffffffffffffff1673ffffffffffffffffffffffffffffffffffffffff1673ffffffffffffffffffffffffffffffffffffffff168152602001600582018054610e8b906124f3565b80601f0160208091040260200160405190810160405280929190818152602001828054610eb7906124f3565b8015610f045780601f10610ed957610100808354040283529160200191610f04565b820191906000526020600020905b815481529060010190602001808311610ee757829003601f168201915b505050505081526020016006820160009054906101000a900460ff16151515158152505081526020019060010190610dda565b50505050905060008083608001518460a0015185606001518660c00151610f5e919061234a565b610f68919061234a565b610f72919061234a565b90506000610f9d6064610f8f600f8561194b90919063ffffffff16565b61199090919063ffffffff16565b905060005b60018551610fb0919061242b565b81116113f8576000858281518110610fcb57610fca612640565b5b602002602001015160c00190151590811515815250156113e5576002858281518110610ffa57610ff9612640565b5b60200260200101516020015114156111a057611037606461102960558960c0015161194b90919063ffffffff16565b61199090919063ffffffff16565b93508985828151811061104d5761104c612640565b5b60200260200101516040015114801561108357508885828151811061107557611074612640565b5b602002602001015160600151145b1561119b576000600386838151811061109f5761109e612640565b5b602002602001015160a001516040516110b89190612161565b90815260200160405180910390205490506000818784815181106110df576110de612640565b5b602002602001015160000151876110f691906123d1565b61110091906123a0565b9050600087848151811061111757611116612640565b5b60200260200101516080015190508073ffffffffffffffffffffffffffffffffffffffff166108fc839081150290604051600060405180830381858888f1935050505015801561116b573d6000803e3d6000fd5b50600188858151811061118157611180612640565b5b602002602001015160c00190151590811515815250505050505b6113e4565b878582815181106111b4576111b3612640565b5b60200260200101516020015114156113e35761120f6064611201605589608001518a60a001518b606001516111e9919061234a565b6111f3919061234a565b61194b90919063ffffffff16565b61199090919063ffffffff16565b935060008086838151811061122757611226612640565b5b602002602001015160200151141561126757611264606461125660558a60a0015161194b90919063ffffffff16565b61199090919063ffffffff16565b90505b600186838151811061127c5761127b612640565b5b60200260200101516020015114156112bc576112b960646112ab60558a6080015161194b90919063ffffffff16565b61199090919063ffffffff16565b90505b60038683815181106112d1576112d0612640565b5b60200260200101516020015114156113115761130e606461130060558a6060015161194b90919063ffffffff16565b61199090919063ffffffff16565b90505b60008187848151811061132757611326612640565b5b6020026020010151600001518761133e91906123d1565b61134891906123a0565b9050600087848151811061135f5761135e612640565b5b60200260200101516080015190508073ffffffffffffffffffffffffffffffffffffffff166108fc839081150290604051600060405180830381858888f193505050501580156113b3573d6000803e3d6000fd5b5060018885815181106113c9576113c8612640565b5b602002602001015160c00190151590811515815250505050505b5b5b80806113f090612556565b915050610fa2565b5060008060009054906101000a900473ffffffffffffffffffffffffffffffffffffffff1690508073ffffffffffffffffffffffffffffffffffffffff166108fc839081150290604051600060405180830381858888f19350505050158015611465573d6000803e3d6000fd5b5050505050505060019050949350505050565b606080606060008060008061148c886118bc565b6114cb576040517f08c379a00000000000000000000000000000000000000000000000000000000081526004016114c29061226d565b60405180910390fd5b60056000898152602001908152602001600020600001600560008a8152602001908152602001600020600101600560008b8152602001908152602001600020600201600560008c815260200190815260200160002060030154600560008d815260200190815260200160002060040154600560008e815260200190815260200160002060050154600560008f815260200190815260200160002060060154868054611575906124f3565b80601f01602080910402602001604051908101604052809291908181526020018280546115a1906124f3565b80156115ee5780601f106115c3576101008083540402835291602001916115ee565b820191906000526020600020905b8154815290600101906020018083116115d157829003601f168201915b50505050509650858054611601906124f3565b80601f016020809104026020016040519081016040528092919081815260200182805461162d906124f3565b801561167a5780601f1061164f5761010080835404028352916020019161167a565b820191906000526020600020905b81548152906001019060200180831161165d57829003601f168201915b5050505050955084805461168d906124f3565b80601f01602080910402602001604051908101604052809291908181526020018280546116b9906124f3565b80156117065780601f106116db57610100808354040283529160200191611706565b820191906000526020600020905b8154815290600101906020018083116116e957829003601f168201915b505050505094509650965096509650965096509650919395979092949650565b606060008390506000839050600081518351611742919061234a565b67ffffffffffffffff81111561175b5761175a61266f565b5b6040519080825280601f01601f19166020018201604052801561178d5781602001600182028036833780820191505090505b50905060008190506000805b8551811015611821578581815181106117b5576117b4612640565b5b602001015160f81c60f81b8383806117cc90612556565b9450815181106117df576117de612640565b5b60200101907effffffffffffffffffffffffffffffffffffffffffffffffffffffffffffff1916908160001a905350808061181990612556565b915050611799565b5060005b84518110156118ad5784818151811061184157611840612640565b5b602001015160f81c60f81b83838061185890612556565b94508151811061186b5761186a612640565b5b60200101907effffffffffffffffffffffffffffffffffffffffffffffffffffffffffffff1916908160001a90535080806118a590612556565b915050611825565b50829550505050505092915050565b60006005600083815260200190815260200160002060070160019054906101000a900460ff169050919050565b6060611913826040516020016118ff9190612178565b6040516020818303038152906040526119b8565b9050919050565b6060611944826040516020016119309190612146565b6040516020818303038152906040526119b8565b9050919050565b60008083141561195e576000905061198a565b6000828461196c91906123d1565b905082848261197b91906123a0565b1461198557600080fd5b809150505b92915050565b600080821161199e57600080fd5b600082846119ac91906123a0565b90508091505092915050565b606060006040518060400160405280601081526020017f30313233343536373839616263646566000000000000000000000000000000008152509050600060028451611a0491906123d1565b6002611a10919061234a565b67ffffffffffffffff811115611a2957611a2861266f565b5b6040519080825280601f01601f191660200182016040528015611a5b5781602001600182028036833780820191505090505b5090507f300000000000000000000000000000000000000000000000000000000000000081600081518110611a9357611a92612640565b5b60200101907effffffffffffffffffffffffffffffffffffffffffffffffffffffffffffff1916908160001a9053507f780000000000000000000000000000000000000000000000000000000000000081600181518110611af757611af6612640565b5b60200101907effffffffffffffffffffffffffffffffffffffffffffffffffffffffffffff1916908160001a90535060005b8451811015611ca757826004868381518110611b4857611b47612640565b5b602001015160f81c60f81b7effffffffffffffffffffffffffffffffffffffffffffffffffffffffffffff1916901c60f81c60ff1681518110611b8e57611b8d612640565b5b602001015160f81c60f81b82600283611ba791906123d1565b6002611bb3919061234a565b81518110611bc457611bc3612640565b5b60200101907effffffffffffffffffffffffffffffffffffffffffffffffffffffffffffff1916908160001a90535082600f60f81b868381518110611c0c57611c0b612640565b5b602001015160f81c60f81b1660f81c60ff1681518110611c2f57611c2e612640565b5b602001015160f81c60f81b82600283611c4891906123d1565b6003611c54919061234a565b81518110611c6557611c64612640565b5b60200101907effffffffffffffffffffffffffffffffffffffffffffffffffffffffffffff1916908160001a9053508080611c9f90612556565b915050611b29565b508092505050919050565b828054611cbe906124f3565b90600052602060002090601f016020900481019282611ce05760008555611d27565b82601f10611cf957805160ff1916838001178555611d27565b82800160010185558215611d27579182015b82811115611d26578251825591602001919060010190611d0b565b5b509050611d349190611d38565b5090565b5b80821115611d51576000816000905550600101611d39565b5090565b6000611d68611d63846122f2565b6122cd565b905082815260208101848484011115611d8457611d836126a3565b5b611d8f8482856124b1565b509392505050565b600081359050611da681612767565b92915050565b600081359050611dbb8161277e565b92915050565b600081359050611dd081612795565b92915050565b600082601f830112611deb57611dea61269e565b5b8135611dfb848260208601611d55565b91505092915050565b600081359050611e13816127ac565b92915050565b60008060008060008060c08789031215611e3657611e356126ad565b5b6000611e4489828a01611d97565b9650506020611e5589828a01611e04565b9550506040611e6689828a01611dc1565b9450506060611e7789828a01611e04565b9350506080611e8889828a01611e04565b92505060a0611e9989828a01611e04565b9150509295509295509295565b600060208284031215611ebc57611ebb6126ad565b5b6000611eca84828501611dc1565b91505092915050565b60008060008060808587031215611eed57611eec6126ad565b5b6000611efb87828801611dc1565b9450506020611f0c87828801611e04565b9350506040611f1d87828801611e04565b9250506060611f2e87828801611e04565b91505092959194509250565b60008060008060808587031215611f5457611f536126ad565b5b600085013567ffffffffffffffff811115611f7257611f716126a8565b5b611f7e87828801611dd6565b945050602085013567ffffffffffffffff811115611f9f57611f9e6126a8565b5b611fab87828801611dd6565b935050604085013567ffffffffffffffff811115611fcc57611fcb6126a8565b5b611fd887828801611dd6565b9250506060611fe987828801611dac565b91505092959194509250565b611ffe81612471565b82525050565b61200d8161247d565b82525050565b61202461201f8261247d565b61259f565b82525050565b600061203582612323565b61203f818561232e565b935061204f8185602086016124c0565b612058816126b2565b840191505092915050565b600061206e82612323565b612078818561233f565b93506120888185602086016124c0565b80840191505092915050565b60006120a160198361232e565b91506120ac826126c3565b602082019050919050565b60006120c460098361232e565b91506120cf826126ec565b602082019050919050565b60006120e7600e8361232e565b91506120f282612715565b602082019050919050565b600061210a600a8361232e565b91506121158261273e565b602082019050919050565b612129816124a7565b82525050565b61214061213b826124a7565b6125a9565b82525050565b60006121528284612013565b60208201915081905092915050565b600061216d8284612063565b915081905092915050565b6000612184828461212f565b60208201915081905092915050565b60006020820190506121a86000830184611ff5565b92915050565b60006020820190506121c36000830184612004565b92915050565b600060e08201905081810360008301526121e3818a61202a565b905081810360208301526121f7818961202a565b9050818103604083015261220b818861202a565b905061221a6060830187612120565b6122276080830186612120565b61223460a0830185612120565b61224160c0830184612120565b98975050505050505050565b6000602082019050818103600083015261226681612094565b9050919050565b60006020820190508181036000830152612286816120b7565b9050919050565b600060208201905081810360008301526122a6816120da565b9050919050565b600060208201905081810360008301526122c6816120fd565b9050919050565b60006122d76122e8565b90506122e38282612525565b919050565b6000604051905090565b600067ffffffffffffffff82111561230d5761230c61266f565b5b612316826126b2565b9050602081019050919050565b600081519050919050565b600082825260208201905092915050565b600081905092915050565b6000612355826124a7565b9150612360836124a7565b9250827fffffffffffffffffffffffffffffffffffffffffffffffffffffffffffffffff03821115612395576123946125b3565b5b828201905092915050565b60006123ab826124a7565b91506123b6836124a7565b9250826123c6576123c56125e2565b5b828204905092915050565b60006123dc826124a7565b91506123e7836124a7565b9250817fffffffffffffffffffffffffffffffffffffffffffffffffffffffffffffffff04831182151516156124205761241f6125b3565b5b828202905092915050565b6000612436826124a7565b9150612441836124a7565b925082821015612454576124536125b3565b5b828203905092915050565b600061246a82612487565b9050919050565b60008115159050919050565b6000819050919050565b600073ffffffffffffffffffffffffffffffffffffffff82169050919050565b6000819050919050565b82818337600083830152505050565b60005b838110156124de5780820151818401526020810190506124c3565b838111156124ed576000848401525b50505050565b6000600282049050600182168061250b57607f821691505b6020821081141561251f5761251e612611565b5b50919050565b61252e826126b2565b810181811067ffffffffffffffff8211171561254d5761254c61266f565b5b80604052505050565b6000612561826124a7565b91507fffffffffffffffffffffffffffffffffffffffffffffffffffffffffffffffff821415612594576125936125b3565b5b600182019050919050565b6000819050919050565b6000819050919050565b7f4e487b7100000000000000000000000000000000000000000000000000000000600052601160045260246000fd5b7f4e487b7100000000000000000000000000000000000000000000000000000000600052601260045260246000fd5b7f4e487b7100000000000000000000000000000000000000000000000000000000600052602260045260246000fd5b7f4e487b7100000000000000000000000000000000000000000000000000000000600052603260045260246000fd5b7f4e487b7100000000000000000000000000000000000000000000000000000000600052604160045260246000fd5b600080fd5b600080fd5b600080fd5b600080fd5b6000601f19601f8301169050919050565b7f4f6e6c79206f776e65722063616e2063616c6c20746869732e00000000000000600082015250565b7f6e6f742065786973740000000000000000000000000000000000000000000000600082015250565b7f706f6f6c206e6f74206578697374000000000000000000000000000000000000600082015250565b7f7061697220657869737400000000000000000000000000000000000000000000600082015250565b6127708161245f565b811461277b57600080fd5b50565b61278781612471565b811461279257600080fd5b50565b61279e8161247d565b81146127a957600080fd5b50565b6127b5816124a7565b81146127c057600080fd5b5056fea2646970667358221220220ea410aeb7c7dcd0c7c986f95383e0487b04a5c1eb0b64bf6e4a00f4bab7f464736f6c63430008070033",
					"opcodes": "PUSH1 0x80 PUSH1 0x40 MSTORE CALLVALUE DUP1 ISZERO PUSH3 0x11 JUMPI PUSH1 0x0 DUP1 REVERT JUMPDEST POP PUSH1 0x40 MLOAD PUSH3 0x2923 CODESIZE SUB DUP1 PUSH3 0x2923 DUP4 CODECOPY DUP2 DUP2 ADD PUSH1 0x40 MSTORE DUP2 ADD SWAP1 PUSH3 0x37 SWAP2 SWAP1 PUSH3 0x95 JUMP JUMPDEST DUP1 PUSH1 0x0 DUP1 PUSH2 0x100 EXP DUP2 SLOAD DUP2 PUSH20 0xFFFFFFFFFFFFFFFFFFFFFFFFFFFFFFFFFFFFFFFF MUL NOT AND SWAP1 DUP4 PUSH20 0xFFFFFFFFFFFFFFFFFFFFFFFFFFFFFFFFFFFFFFFF AND MUL OR SWAP1 SSTORE POP POP PUSH3 0x11A JUMP JUMPDEST PUSH1 0x0 DUP2 MLOAD SWAP1 POP PUSH3 0x8F DUP2 PUSH3 0x100 JUMP JUMPDEST SWAP3 SWAP2 POP POP JUMP JUMPDEST PUSH1 0x0 PUSH1 0x20 DUP3 DUP5 SUB SLT ISZERO PUSH3 0xAE JUMPI PUSH3 0xAD PUSH3 0xFB JUMP JUMPDEST JUMPDEST PUSH1 0x0 PUSH3 0xBE DUP5 DUP3 DUP6 ADD PUSH3 0x7E JUMP JUMPDEST SWAP2 POP POP SWAP3 SWAP2 POP POP JUMP JUMPDEST PUSH1 0x0 PUSH3 0xD4 DUP3 PUSH3 0xDB JUMP JUMPDEST SWAP1 POP SWAP2 SWAP1 POP JUMP JUMPDEST PUSH1 0x0 PUSH20 0xFFFFFFFFFFFFFFFFFFFFFFFFFFFFFFFFFFFFFFFF DUP3 AND SWAP1 POP SWAP2 SWAP1 POP JUMP JUMPDEST PUSH1 0x0 DUP1 REVERT JUMPDEST PUSH3 0x10B DUP2 PUSH3 0xC7 JUMP JUMPDEST DUP2 EQ PUSH3 0x117 JUMPI PUSH1 0x0 DUP1 REVERT JUMPDEST POP JUMP JUMPDEST PUSH2 0x27F9 DUP1 PUSH3 0x12A PUSH1 0x0 CODECOPY PUSH1 0x0 RETURN INVALID PUSH1 0x80 PUSH1 0x40 MSTORE PUSH1 0x4 CALLDATASIZE LT PUSH2 0x3F JUMPI PUSH1 0x0 CALLDATALOAD PUSH1 0xE0 SHR DUP1 PUSH4 0x357965BA EQ PUSH2 0x44 JUMPI DUP1 PUSH4 0x47E4DD27 EQ PUSH2 0x81 JUMPI DUP1 PUSH4 0x74FE9BC2 EQ PUSH2 0xBE JUMPI DUP1 PUSH4 0xB8E5303D EQ PUSH2 0xEE JUMPI JUMPDEST PUSH1 0x0 DUP1 REVERT JUMPDEST CALLVALUE DUP1 ISZERO PUSH2 0x50 JUMPI PUSH1 0x0 DUP1 REVERT JUMPDEST POP PUSH2 0x6B PUSH1 0x4 DUP1 CALLDATASIZE SUB DUP2 ADD SWAP1 PUSH2 0x66 SWAP2 SWAP1 PUSH2 0x1F3A JUMP JUMPDEST PUSH2 0x131 JUMP JUMPDEST PUSH1 0x40 MLOAD PUSH2 0x78 SWAP2 SWAP1 PUSH2 0x21AE JUMP JUMPDEST PUSH1 0x40 MLOAD DUP1 SWAP2 SUB SWAP1 RETURN JUMPDEST CALLVALUE DUP1 ISZERO PUSH2 0x8D JUMPI PUSH1 0x0 DUP1 REVERT JUMPDEST POP PUSH2 0xA8 PUSH1 0x4 DUP1 CALLDATASIZE SUB DUP2 ADD SWAP1 PUSH2 0xA3 SWAP2 SWAP1 PUSH2 0x1E19 JUMP JUMPDEST PUSH2 0x3AE JUMP JUMPDEST PUSH1 0x40 MLOAD PUSH2 0xB5 SWAP2 SWAP1 PUSH2 0x2193 JUMP JUMPDEST PUSH1 0x40 MLOAD DUP1 SWAP2 SUB SWAP1 RETURN JUMPDEST PUSH2 0xD8 PUSH1 0x4 DUP1 CALLDATASIZE SUB DUP2 ADD SWAP1 PUSH2 0xD3 SWAP2 SWAP1 PUSH2 0x1ED3 JUMP JUMPDEST PUSH2 0xA92 JUMP JUMPDEST PUSH1 0x40 MLOAD PUSH2 0xE5 SWAP2 SWAP1 PUSH2 0x2193 JUMP JUMPDEST PUSH1 0x40 MLOAD DUP1 SWAP2 SUB SWAP1 RETURN JUMPDEST CALLVALUE DUP1 ISZERO PUSH2 0xFA JUMPI PUSH1 0x0 DUP1 REVERT JUMPDEST POP PUSH2 0x115 PUSH1 0x4 DUP1 CALLDATASIZE SUB DUP2 ADD SWAP1 PUSH2 0x110 SWAP2 SWAP1 PUSH2 0x1EA6 JUMP JUMPDEST PUSH2 0x1478 JUMP JUMPDEST PUSH1 0x40 MLOAD PUSH2 0x128 SWAP8 SWAP7 SWAP6 SWAP5 SWAP4 SWAP3 SWAP2 SWAP1 PUSH2 0x21C9 JUMP JUMPDEST PUSH1 0x40 MLOAD DUP1 SWAP2 SUB SWAP1 RETURN JUMPDEST PUSH1 0x0 DUP1 PUSH1 0x0 SWAP1 SLOAD SWAP1 PUSH2 0x100 EXP SWAP1 DIV PUSH20 0xFFFFFFFFFFFFFFFFFFFFFFFFFFFFFFFFFFFFFFFF AND PUSH20 0xFFFFFFFFFFFFFFFFFFFFFFFFFFFFFFFFFFFFFFFF AND CALLER PUSH20 0xFFFFFFFFFFFFFFFFFFFFFFFFFFFFFFFFFFFFFFFF AND EQ PUSH2 0x1C2 JUMPI PUSH1 0x40 MLOAD PUSH32 0x8C379A000000000000000000000000000000000000000000000000000000000 DUP2 MSTORE PUSH1 0x4 ADD PUSH2 0x1B9 SWAP1 PUSH2 0x224D JUMP JUMPDEST PUSH1 0x40 MLOAD DUP1 SWAP2 SUB SWAP1 REVERT JUMPDEST PUSH1 0x0 PUSH2 0x1CE DUP7 DUP7 PUSH2 0x1726 JUMP JUMPDEST SWAP1 POP PUSH1 0x0 PUSH2 0x1DC DUP3 DUP7 PUSH2 0x1726 JUMP JUMPDEST SWAP1 POP PUSH1 0x0 DUP2 PUSH1 0x40 MLOAD PUSH1 0x20 ADD PUSH2 0x1F1 SWAP2 SWAP1 PUSH2 0x2161 JUMP JUMPDEST PUSH1 0x40 MLOAD PUSH1 0x20 DUP2 DUP4 SUB SUB DUP2 MSTORE SWAP1 PUSH1 0x40 MSTORE DUP1 MLOAD SWAP1 PUSH1 0x20 ADD KECCAK256 SWAP1 POP PUSH2 0x212 DUP2 PUSH2 0x18BC JUMP JUMPDEST ISZERO PUSH2 0x252 JUMPI PUSH1 0x40 MLOAD PUSH32 0x8C379A000000000000000000000000000000000000000000000000000000000 DUP2 MSTORE PUSH1 0x4 ADD PUSH2 0x249 SWAP1 PUSH2 0x22AD JUMP JUMPDEST PUSH1 0x40 MLOAD DUP1 SWAP2 SUB SWAP1 REVERT JUMPDEST PUSH1 0x1 PUSH1 0x5 PUSH1 0x0 DUP4 DUP2 MSTORE PUSH1 0x20 ADD SWAP1 DUP2 MSTORE PUSH1 0x20 ADD PUSH1 0x0 KECCAK256 PUSH1 0x7 ADD PUSH1 0x1 PUSH2 0x100 EXP DUP2 SLOAD DUP2 PUSH1 0xFF MUL NOT AND SWAP1 DUP4 ISZERO ISZERO MUL OR SWAP1 SSTORE POP DUP8 PUSH1 0x5 PUSH1 0x0 DUP4 DUP2 MSTORE PUSH1 0x20 ADD SWAP1 DUP2 MSTORE PUSH1 0x20 ADD PUSH1 0x0 KECCAK256 PUSH1 0x0 ADD SWAP1 DUP1 MLOAD SWAP1 PUSH1 0x20 ADD SWAP1 PUSH2 0x2AB SWAP3 SWAP2 SWAP1 PUSH2 0x1CB2 JUMP JUMPDEST POP DUP7 PUSH1 0x5 PUSH1 0x0 DUP4 DUP2 MSTORE PUSH1 0x20 ADD SWAP1 DUP2 MSTORE PUSH1 0x20 ADD PUSH1 0x0 KECCAK256 PUSH1 0x1 ADD SWAP1 DUP1 MLOAD SWAP1 PUSH1 0x20 ADD SWAP1 PUSH2 0x2D6 SWAP3 SWAP2 SWAP1 PUSH2 0x1CB2 JUMP JUMPDEST POP DUP6 PUSH1 0x5 PUSH1 0x0 DUP4 DUP2 MSTORE PUSH1 0x20 ADD SWAP1 DUP2 MSTORE PUSH1 0x20 ADD PUSH1 0x0 KECCAK256 PUSH1 0x2 ADD SWAP1 DUP1 MLOAD SWAP1 PUSH1 0x20 ADD SWAP1 PUSH2 0x301 SWAP3 SWAP2 SWAP1 PUSH2 0x1CB2 JUMP JUMPDEST POP PUSH1 0x0 PUSH1 0x5 PUSH1 0x0 DUP4 DUP2 MSTORE PUSH1 0x20 ADD SWAP1 DUP2 MSTORE PUSH1 0x20 ADD PUSH1 0x0 KECCAK256 PUSH1 0x3 ADD DUP2 SWAP1 SSTORE POP PUSH1 0x0 PUSH1 0x5 PUSH1 0x0 DUP4 DUP2 MSTORE PUSH1 0x20 ADD SWAP1 DUP2 MSTORE PUSH1 0x20 ADD PUSH1 0x0 KECCAK256 PUSH1 0x4 ADD DUP2 SWAP1 SSTORE POP PUSH1 0x0 PUSH1 0x5 PUSH1 0x0 DUP4 DUP2 MSTORE PUSH1 0x20 ADD SWAP1 DUP2 MSTORE PUSH1 0x20 ADD PUSH1 0x0 KECCAK256 PUSH1 0x5 ADD DUP2 SWAP1 SSTORE POP PUSH1 0x0 PUSH1 0x5 PUSH1 0x0 DUP4 DUP2 MSTORE PUSH1 0x20 ADD SWAP1 DUP2 MSTORE PUSH1 0x20 ADD PUSH1 0x0 KECCAK256 PUSH1 0x6 ADD DUP2 SWAP1 SSTORE POP DUP5 PUSH1 0x5 PUSH1 0x0 DUP4 DUP2 MSTORE PUSH1 0x20 ADD SWAP1 DUP2 MSTORE PUSH1 0x20 ADD PUSH1 0x0 KECCAK256 PUSH1 0x7 ADD PUSH1 0x0 PUSH2 0x100 EXP DUP2 SLOAD DUP2 PUSH1 0xFF MUL NOT AND SWAP1 DUP4 ISZERO ISZERO MUL OR SWAP1 SSTORE POP DUP1 SWAP4 POP POP POP POP SWAP5 SWAP4 POP POP POP POP JUMP JUMPDEST PUSH1 0x0 DUP1 PUSH1 0x0 SWAP1 SLOAD SWAP1 PUSH2 0x100 EXP SWAP1 DIV PUSH20 0xFFFFFFFFFFFFFFFFFFFFFFFFFFFFFFFFFFFFFFFF AND PUSH20 0xFFFFFFFFFFFFFFFFFFFFFFFFFFFFFFFFFFFFFFFF AND CALLER PUSH20 0xFFFFFFFFFFFFFFFFFFFFFFFFFFFFFFFFFFFFFFFF AND EQ PUSH2 0x43F JUMPI PUSH1 0x40 MLOAD PUSH32 0x8C379A000000000000000000000000000000000000000000000000000000000 DUP2 MSTORE PUSH1 0x4 ADD PUSH2 0x436 SWAP1 PUSH2 0x224D JUMP JUMPDEST PUSH1 0x40 MLOAD DUP1 SWAP2 SUB SWAP1 REVERT JUMPDEST PUSH2 0x448 DUP6 PUSH2 0x18BC JUMP JUMPDEST PUSH2 0x487 JUMPI PUSH1 0x40 MLOAD PUSH32 0x8C379A000000000000000000000000000000000000000000000000000000000 DUP2 MSTORE PUSH1 0x4 ADD PUSH2 0x47E SWAP1 PUSH2 0x228D JUMP JUMPDEST PUSH1 0x40 MLOAD DUP1 SWAP2 SUB SWAP1 REVERT JUMPDEST PUSH1 0x0 PUSH1 0x5 PUSH1 0x0 DUP8 DUP2 MSTORE PUSH1 0x20 ADD SWAP1 DUP2 MSTORE PUSH1 0x20 ADD PUSH1 0x0 KECCAK256 PUSH1 0x40 MLOAD DUP1 PUSH2 0x120 ADD PUSH1 0x40 MSTORE SWAP1 DUP2 PUSH1 0x0 DUP3 ADD DUP1 SLOAD PUSH2 0x4B8 SWAP1 PUSH2 0x24F3 JUMP JUMPDEST DUP1 PUSH1 0x1F ADD PUSH1 0x20 DUP1 SWAP2 DIV MUL PUSH1 0x20 ADD PUSH1 0x40 MLOAD SWAP1 DUP2 ADD PUSH1 0x40 MSTORE DUP1 SWAP3 SWAP2 SWAP1 DUP2 DUP2 MSTORE PUSH1 0x20 ADD DUP3 DUP1 SLOAD PUSH2 0x4E4 SWAP1 PUSH2 0x24F3 JUMP JUMPDEST DUP1 ISZERO PUSH2 0x531 JUMPI DUP1 PUSH1 0x1F LT PUSH2 0x506 JUMPI PUSH2 0x100 DUP1 DUP4 SLOAD DIV MUL DUP4 MSTORE SWAP2 PUSH1 0x20 ADD SWAP2 PUSH2 0x531 JUMP JUMPDEST DUP3 ADD SWAP2 SWAP1 PUSH1 0x0 MSTORE PUSH1 0x20 PUSH1 0x0 KECCAK256 SWAP1 JUMPDEST DUP2 SLOAD DUP2 MSTORE SWAP1 PUSH1 0x1 ADD SWAP1 PUSH1 0x20 ADD DUP1 DUP4 GT PUSH2 0x514 JUMPI DUP3 SWAP1 SUB PUSH1 0x1F AND DUP3 ADD SWAP2 JUMPDEST POP POP POP POP POP DUP2 MSTORE PUSH1 0x20 ADD PUSH1 0x1 DUP3 ADD DUP1 SLOAD PUSH2 0x54A SWAP1 PUSH2 0x24F3 JUMP JUMPDEST DUP1 PUSH1 0x1F ADD PUSH1 0x20 DUP1 SWAP2 DIV MUL PUSH1 0x20 ADD PUSH1 0x40 MLOAD SWAP1 DUP2 ADD PUSH1 0x40 MSTORE DUP1 SWAP3 SWAP2 SWAP1 DUP2 DUP2 MSTORE PUSH1 0x20 ADD DUP3 DUP1 SLOAD PUSH2 0x576 SWAP1 PUSH2 0x24F3 JUMP JUMPDEST DUP1 ISZERO PUSH2 0x5C3 JUMPI DUP1 PUSH1 0x1F LT PUSH2 0x598 JUMPI PUSH2 0x100 DUP1 DUP4 SLOAD DIV MUL DUP4 MSTORE SWAP2 PUSH1 0x20 ADD SWAP2 PUSH2 0x5C3 JUMP JUMPDEST DUP3 ADD SWAP2 SWAP1 PUSH1 0x0 MSTORE PUSH1 0x20 PUSH1 0x0 KECCAK256 SWAP1 JUMPDEST DUP2 SLOAD DUP2 MSTORE SWAP1 PUSH1 0x1 ADD SWAP1 PUSH1 0x20 ADD DUP1 DUP4 GT PUSH2 0x5A6 JUMPI DUP3 SWAP1 SUB PUSH1 0x1F AND DUP3 ADD SWAP2 JUMPDEST POP POP POP POP POP DUP2 MSTORE PUSH1 0x20 ADD PUSH1 0x2 DUP3 ADD DUP1 SLOAD PUSH2 0x5DC SWAP1 PUSH2 0x24F3 JUMP JUMPDEST DUP1 PUSH1 0x1F ADD PUSH1 0x20 DUP1 SWAP2 DIV MUL PUSH1 0x20 ADD PUSH1 0x40 MLOAD SWAP1 DUP2 ADD PUSH1 0x40 MSTORE DUP1 SWAP3 SWAP2 SWAP1 DUP2 DUP2 MSTORE PUSH1 0x20 ADD DUP3 DUP1 SLOAD PUSH2 0x608 SWAP1 PUSH2 0x24F3 JUMP JUMPDEST DUP1 ISZERO PUSH2 0x655 JUMPI DUP1 PUSH1 0x1F LT PUSH2 0x62A JUMPI PUSH2 0x100 DUP1 DUP4 SLOAD DIV MUL DUP4 MSTORE SWAP2 PUSH1 0x20 ADD SWAP2 PUSH2 0x655 JUMP JUMPDEST DUP3 ADD SWAP2 SWAP1 PUSH1 0x0 MSTORE PUSH1 0x20 PUSH1 0x0 KECCAK256 SWAP1 JUMPDEST DUP2 SLOAD DUP2 MSTORE SWAP1 PUSH1 0x1 ADD SWAP1 PUSH1 0x20 ADD DUP1 DUP4 GT PUSH2 0x638 JUMPI DUP3 SWAP1 SUB PUSH1 0x1F AND DUP3 ADD SWAP2 JUMPDEST POP POP POP POP POP DUP2 MSTORE PUSH1 0x20 ADD PUSH1 0x3 DUP3 ADD SLOAD DUP2 MSTORE PUSH1 0x20 ADD PUSH1 0x4 DUP3 ADD SLOAD DUP2 MSTORE PUSH1 0x20 ADD PUSH1 0x5 DUP3 ADD SLOAD DUP2 MSTORE PUSH1 0x20 ADD PUSH1 0x6 DUP3 ADD SLOAD DUP2 MSTORE PUSH1 0x20 ADD PUSH1 0x7 DUP3 ADD PUSH1 0x0 SWAP1 SLOAD SWAP1 PUSH2 0x100 EXP SWAP1 DIV PUSH1 0xFF AND ISZERO ISZERO ISZERO ISZERO DUP2 MSTORE PUSH1 0x20 ADD PUSH1 0x7 DUP3 ADD PUSH1 0x1 SWAP1 SLOAD SWAP1 PUSH2 0x100 EXP SWAP1 DIV PUSH1 0xFF AND ISZERO ISZERO ISZERO ISZERO DUP2 MSTORE POP POP SWAP1 POP PUSH1 0x0 PUSH2 0x6DA PUSH2 0x6CC DUP8 PUSH2 0x18E9 JUMP JUMPDEST PUSH2 0x6D5 DUP8 PUSH2 0x18E9 JUMP JUMPDEST PUSH2 0x1726 JUMP JUMPDEST SWAP1 POP PUSH1 0x0 PUSH2 0x6F0 PUSH2 0x6EA DUP10 PUSH2 0x191A JUMP JUMPDEST DUP4 PUSH2 0x1726 JUMP JUMPDEST SWAP1 POP PUSH1 0x0 PUSH1 0x40 MLOAD DUP1 PUSH1 0xE0 ADD PUSH1 0x40 MSTORE DUP1 DUP12 DUP2 MSTORE PUSH1 0x20 ADD DUP8 DUP2 MSTORE PUSH1 0x20 ADD DUP10 DUP2 MSTORE PUSH1 0x20 ADD DUP9 DUP2 MSTORE PUSH1 0x20 ADD DUP13 PUSH20 0xFFFFFFFFFFFFFFFFFFFFFFFFFFFFFFFFFFFFFFFF AND DUP2 MSTORE PUSH1 0x20 ADD DUP4 DUP2 MSTORE PUSH1 0x20 ADD PUSH1 0x0 ISZERO ISZERO DUP2 MSTORE POP SWAP1 POP DUP9 PUSH1 0x2 PUSH1 0x0 DUP12 DUP2 MSTORE PUSH1 0x20 ADD SWAP1 DUP2 MSTORE PUSH1 0x20 ADD PUSH1 0x0 KECCAK256 PUSH1 0x1 ADD DUP2 SWAP1 SSTORE POP PUSH1 0x2 PUSH1 0x0 DUP11 DUP2 MSTORE PUSH1 0x20 ADD SWAP1 DUP2 MSTORE PUSH1 0x20 ADD PUSH1 0x0 KECCAK256 PUSH1 0x0 ADD DUP2 SWAP1 DUP1 PUSH1 0x1 DUP2 SLOAD ADD DUP1 DUP3 SSTORE DUP1 SWAP2 POP POP PUSH1 0x1 SWAP1 SUB SWAP1 PUSH1 0x0 MSTORE PUSH1 0x20 PUSH1 0x0 KECCAK256 SWAP1 PUSH1 0x7 MUL ADD PUSH1 0x0 SWAP1 SWAP2 SWAP1 SWAP2 SWAP1 SWAP2 POP PUSH1 0x0 DUP3 ADD MLOAD DUP2 PUSH1 0x0 ADD SSTORE PUSH1 0x20 DUP3 ADD MLOAD DUP2 PUSH1 0x1 ADD SSTORE PUSH1 0x40 DUP3 ADD MLOAD DUP2 PUSH1 0x2 ADD SSTORE PUSH1 0x60 DUP3 ADD MLOAD DUP2 PUSH1 0x3 ADD SSTORE PUSH1 0x80 DUP3 ADD MLOAD DUP2 PUSH1 0x4 ADD PUSH1 0x0 PUSH2 0x100 EXP DUP2 SLOAD DUP2 PUSH20 0xFFFFFFFFFFFFFFFFFFFFFFFFFFFFFFFFFFFFFFFF MUL NOT AND SWAP1 DUP4 PUSH20 0xFFFFFFFFFFFFFFFFFFFFFFFFFFFFFFFFFFFFFFFF AND MUL OR SWAP1 SSTORE POP PUSH1 0xA0 DUP3 ADD MLOAD DUP2 PUSH1 0x5 ADD SWAP1 DUP1 MLOAD SWAP1 PUSH1 0x20 ADD SWAP1 PUSH2 0x828 SWAP3 SWAP2 SWAP1 PUSH2 0x1CB2 JUMP JUMPDEST POP PUSH1 0xC0 DUP3 ADD MLOAD DUP2 PUSH1 0x6 ADD PUSH1 0x0 PUSH2 0x100 EXP DUP2 SLOAD DUP2 PUSH1 0xFF MUL NOT AND SWAP1 DUP4 ISZERO ISZERO MUL OR SWAP1 SSTORE POP POP POP DUP11 PUSH1 0x4 PUSH1 0x0 DUP14 PUSH20 0xFFFFFFFFFFFFFFFFFFFFFFFFFFFFFFFFFFFFFFFF AND PUSH20 0xFFFFFFFFFFFFFFFFFFFFFFFFFFFFFFFFFFFFFFFF AND DUP2 MSTORE PUSH1 0x20 ADD SWAP1 DUP2 MSTORE PUSH1 0x20 ADD PUSH1 0x0 KECCAK256 PUSH1 0x1 ADD PUSH1 0x0 PUSH2 0x100 EXP DUP2 SLOAD DUP2 PUSH20 0xFFFFFFFFFFFFFFFFFFFFFFFFFFFFFFFFFFFFFFFF MUL NOT AND SWAP1 DUP4 PUSH20 0xFFFFFFFFFFFFFFFFFFFFFFFFFFFFFFFFFFFFFFFF AND MUL OR SWAP1 SSTORE POP PUSH1 0x2 PUSH1 0x0 DUP11 DUP2 MSTORE PUSH1 0x20 ADD SWAP1 DUP2 MSTORE PUSH1 0x20 ADD PUSH1 0x0 KECCAK256 PUSH1 0x0 ADD DUP2 SWAP1 DUP1 PUSH1 0x1 DUP2 SLOAD ADD DUP1 DUP3 SSTORE DUP1 SWAP2 POP POP PUSH1 0x1 SWAP1 SUB SWAP1 PUSH1 0x0 MSTORE PUSH1 0x20 PUSH1 0x0 KECCAK256 SWAP1 PUSH1 0x7 MUL ADD PUSH1 0x0 SWAP1 SWAP2 SWAP1 SWAP2 SWAP1 SWAP2 POP PUSH1 0x0 DUP3 ADD MLOAD DUP2 PUSH1 0x0 ADD SSTORE PUSH1 0x20 DUP3 ADD MLOAD DUP2 PUSH1 0x1 ADD SSTORE PUSH1 0x40 DUP3 ADD MLOAD DUP2 PUSH1 0x2 ADD SSTORE PUSH1 0x60 DUP3 ADD MLOAD DUP2 PUSH1 0x3 ADD SSTORE PUSH1 0x80 DUP3 ADD MLOAD DUP2 PUSH1 0x4 ADD PUSH1 0x0 PUSH2 0x100 EXP DUP2 SLOAD DUP2 PUSH20 0xFFFFFFFFFFFFFFFFFFFFFFFFFFFFFFFFFFFFFFFF MUL NOT AND SWAP1 DUP4 PUSH20 0xFFFFFFFFFFFFFFFFFFFFFFFFFFFFFFFFFFFFFFFF AND MUL OR SWAP1 SSTORE POP PUSH1 0xA0 DUP3 ADD MLOAD DUP2 PUSH1 0x5 ADD SWAP1 DUP1 MLOAD SWAP1 PUSH1 0x20 ADD SWAP1 PUSH2 0x997 SWAP3 SWAP2 SWAP1 PUSH2 0x1CB2 JUMP JUMPDEST POP PUSH1 0xC0 DUP3 ADD MLOAD DUP2 PUSH1 0x6 ADD PUSH1 0x0 PUSH2 0x100 EXP DUP2 SLOAD DUP2 PUSH1 0xFF MUL NOT AND SWAP1 DUP4 ISZERO ISZERO MUL OR SWAP1 SSTORE POP POP POP PUSH1 0x2 DUP7 EQ ISZERO PUSH2 0xA16 JUMPI DUP10 DUP5 PUSH1 0xC0 ADD DUP2 DUP2 MLOAD PUSH2 0x9D5 SWAP2 SWAP1 PUSH2 0x234A JUMP JUMPDEST SWAP2 POP DUP2 DUP2 MSTORE POP POP DUP10 PUSH1 0x3 DUP4 PUSH1 0x40 MLOAD PUSH2 0x9ED SWAP2 SWAP1 PUSH2 0x2161 JUMP JUMPDEST SWAP1 DUP2 MSTORE PUSH1 0x20 ADD PUSH1 0x40 MLOAD DUP1 SWAP2 SUB SWAP1 KECCAK256 PUSH1 0x0 DUP3 DUP3 SLOAD PUSH2 0xA0A SWAP2 SWAP1 PUSH2 0x234A JUMP JUMPDEST SWAP3 POP POP DUP2 SWAP1 SSTORE POP PUSH2 0xA80 JUMP JUMPDEST PUSH1 0x3 DUP7 EQ ISZERO PUSH2 0xA3D JUMPI DUP10 DUP5 PUSH1 0x60 ADD DUP2 DUP2 MLOAD PUSH2 0xA31 SWAP2 SWAP1 PUSH2 0x234A JUMP JUMPDEST SWAP2 POP DUP2 DUP2 MSTORE POP POP PUSH2 0xA7F JUMP JUMPDEST PUSH1 0x1 DUP7 EQ ISZERO PUSH2 0xA64 JUMPI DUP10 DUP5 PUSH1 0x80 ADD DUP2 DUP2 MLOAD PUSH2 0xA58 SWAP2 SWAP1 PUSH2 0x234A JUMP JUMPDEST SWAP2 POP DUP2 DUP2 MSTORE POP POP PUSH2 0xA7E JUMP JUMPDEST DUP10 DUP5 PUSH1 0xA0 ADD DUP2 DUP2 MLOAD PUSH2 0xA76 SWAP2 SWAP1 PUSH2 0x234A JUMP JUMPDEST SWAP2 POP DUP2 DUP2 MSTORE POP POP JUMPDEST JUMPDEST JUMPDEST POP POP POP POP PUSH1 0x1 SWAP1 POP SWAP7 SWAP6 POP POP POP POP POP POP JUMP JUMPDEST PUSH1 0x0 DUP1 PUSH1 0x0 SWAP1 SLOAD SWAP1 PUSH2 0x100 EXP SWAP1 DIV PUSH20 0xFFFFFFFFFFFFFFFFFFFFFFFFFFFFFFFFFFFFFFFF AND PUSH20 0xFFFFFFFFFFFFFFFFFFFFFFFFFFFFFFFFFFFFFFFF AND CALLER PUSH20 0xFFFFFFFFFFFFFFFFFFFFFFFFFFFFFFFFFFFFFFFF AND EQ PUSH2 0xB23 JUMPI PUSH1 0x40 MLOAD PUSH32 0x8C379A000000000000000000000000000000000000000000000000000000000 DUP2 MSTORE PUSH1 0x4 ADD PUSH2 0xB1A SWAP1 PUSH2 0x224D JUMP JUMPDEST PUSH1 0x40 MLOAD DUP1 SWAP2 SUB SWAP1 REVERT JUMPDEST PUSH2 0xB2C DUP6 PUSH2 0x18BC JUMP JUMPDEST PUSH2 0xB6B JUMPI PUSH1 0x40 MLOAD PUSH32 0x8C379A000000000000000000000000000000000000000000000000000000000 DUP2 MSTORE PUSH1 0x4 ADD PUSH2 0xB62 SWAP1 PUSH2 0x228D JUMP JUMPDEST PUSH1 0x40 MLOAD DUP1 SWAP2 SUB SWAP1 REVERT JUMPDEST PUSH1 0x0 PUSH1 0x5 PUSH1 0x0 DUP8 DUP2 MSTORE PUSH1 0x20 ADD SWAP1 DUP2 MSTORE PUSH1 0x20 ADD PUSH1 0x0 KECCAK256 PUSH1 0x40 MLOAD DUP1 PUSH2 0x120 ADD PUSH1 0x40 MSTORE SWAP1 DUP2 PUSH1 0x0 DUP3 ADD DUP1 SLOAD PUSH2 0xB9C SWAP1 PUSH2 0x24F3 JUMP JUMPDEST DUP1 PUSH1 0x1F ADD PUSH1 0x20 DUP1 SWAP2 DIV MUL PUSH1 0x20 ADD PUSH1 0x40 MLOAD SWAP1 DUP2 ADD PUSH1 0x40 MSTORE DUP1 SWAP3 SWAP2 SWAP1 DUP2 DUP2 MSTORE PUSH1 0x20 ADD DUP3 DUP1 SLOAD PUSH2 0xBC8 SWAP1 PUSH2 0x24F3 JUMP JUMPDEST DUP1 ISZERO PUSH2 0xC15 JUMPI DUP1 PUSH1 0x1F LT PUSH2 0xBEA JUMPI PUSH2 0x100 DUP1 DUP4 SLOAD DIV MUL DUP4 MSTORE SWAP2 PUSH1 0x20 ADD SWAP2 PUSH2 0xC15 JUMP JUMPDEST DUP3 ADD SWAP2 SWAP1 PUSH1 0x0 MSTORE PUSH1 0x20 PUSH1 0x0 KECCAK256 SWAP1 JUMPDEST DUP2 SLOAD DUP2 MSTORE SWAP1 PUSH1 0x1 ADD SWAP1 PUSH1 0x20 ADD DUP1 DUP4 GT PUSH2 0xBF8 JUMPI DUP3 SWAP1 SUB PUSH1 0x1F AND DUP3 ADD SWAP2 JUMPDEST POP POP POP POP POP DUP2 MSTORE PUSH1 0x20 ADD PUSH1 0x1 DUP3 ADD DUP1 SLOAD PUSH2 0xC2E SWAP1 PUSH2 0x24F3 JUMP JUMPDEST DUP1 PUSH1 0x1F ADD PUSH1 0x20 DUP1 SWAP2 DIV MUL PUSH1 0x20 ADD PUSH1 0x40 MLOAD SWAP1 DUP2 ADD PUSH1 0x40 MSTORE DUP1 SWAP3 SWAP2 SWAP1 DUP2 DUP2 MSTORE PUSH1 0x20 ADD DUP3 DUP1 SLOAD PUSH2 0xC5A SWAP1 PUSH2 0x24F3 JUMP JUMPDEST DUP1 ISZERO PUSH2 0xCA7 JUMPI DUP1 PUSH1 0x1F LT PUSH2 0xC7C JUMPI PUSH2 0x100 DUP1 DUP4 SLOAD DIV MUL DUP4 MSTORE SWAP2 PUSH1 0x20 ADD SWAP2 PUSH2 0xCA7 JUMP JUMPDEST DUP3 ADD SWAP2 SWAP1 PUSH1 0x0 MSTORE PUSH1 0x20 PUSH1 0x0 KECCAK256 SWAP1 JUMPDEST DUP2 SLOAD DUP2 MSTORE SWAP1 PUSH1 0x1 ADD SWAP1 PUSH1 0x20 ADD DUP1 DUP4 GT PUSH2 0xC8A JUMPI DUP3 SWAP1 SUB PUSH1 0x1F AND DUP3 ADD SWAP2 JUMPDEST POP POP POP POP POP DUP2 MSTORE PUSH1 0x20 ADD PUSH1 0x2 DUP3 ADD DUP1 SLOAD PUSH2 0xCC0 SWAP1 PUSH2 0x24F3 JUMP JUMPDEST DUP1 PUSH1 0x1F ADD PUSH1 0x20 DUP1 SWAP2 DIV MUL PUSH1 0x20 ADD PUSH1 0x40 MLOAD SWAP1 DUP2 ADD PUSH1 0x40 MSTORE DUP1 SWAP3 SWAP2 SWAP1 DUP2 DUP2 MSTORE PUSH1 0x20 ADD DUP3 DUP1 SLOAD PUSH2 0xCEC SWAP1 PUSH2 0x24F3 JUMP JUMPDEST DUP1 ISZERO PUSH2 0xD39 JUMPI DUP1 PUSH1 0x1F LT PUSH2 0xD0E JUMPI PUSH2 0x100 DUP1 DUP4 SLOAD DIV MUL DUP4 MSTORE SWAP2 PUSH1 0x20 ADD SWAP2 PUSH2 0xD39 JUMP JUMPDEST DUP3 ADD SWAP2 SWAP1 PUSH1 0x0 MSTORE PUSH1 0x20 PUSH1 0x0 KECCAK256 SWAP1 JUMPDEST DUP2 SLOAD DUP2 MSTORE SWAP1 PUSH1 0x1 ADD SWAP1 PUSH1 0x20 ADD DUP1 DUP4 GT PUSH2 0xD1C JUMPI DUP3 SWAP1 SUB PUSH1 0x1F AND DUP3 ADD SWAP2 JUMPDEST POP POP POP POP POP DUP2 MSTORE PUSH1 0x20 ADD PUSH1 0x3 DUP3 ADD SLOAD DUP2 MSTORE PUSH1 0x20 ADD PUSH1 0x4 DUP3 ADD SLOAD DUP2 MSTORE PUSH1 0x20 ADD PUSH1 0x5 DUP3 ADD SLOAD DUP2 MSTORE PUSH1 0x20 ADD PUSH1 0x6 DUP3 ADD SLOAD DUP2 MSTORE PUSH1 0x20 ADD PUSH1 0x7 DUP3 ADD PUSH1 0x0 SWAP1 SLOAD SWAP1 PUSH2 0x100 EXP SWAP1 DIV PUSH1 0xFF AND ISZERO ISZERO ISZERO ISZERO DUP2 MSTORE PUSH1 0x20 ADD PUSH1 0x7 DUP3 ADD PUSH1 0x1 SWAP1 SLOAD SWAP1 PUSH2 0x100 EXP SWAP1 DIV PUSH1 0xFF AND ISZERO ISZERO ISZERO ISZERO DUP2 MSTORE POP POP SWAP1 POP PUSH1 0x0 PUSH1 0x2 PUSH1 0x0 DUP9 DUP2 MSTORE PUSH1 0x20 ADD SWAP1 DUP2 MSTORE PUSH1 0x20 ADD PUSH1 0x0 KECCAK256 PUSH1 0x0 ADD DUP1 SLOAD DUP1 PUSH1 0x20 MUL PUSH1 0x20 ADD PUSH1 0x40 MLOAD SWAP1 DUP2 ADD PUSH1 0x40 MSTORE DUP1 SWAP3 SWAP2 SWAP1 DUP2 DUP2 MSTORE PUSH1 0x20 ADD PUSH1 0x0 SWAP1 JUMPDEST DUP3 DUP3 LT ISZERO PUSH2 0xF37 JUMPI DUP4 DUP3 SWAP1 PUSH1 0x0 MSTORE PUSH1 0x20 PUSH1 0x0 KECCAK256 SWAP1 PUSH1 0x7 MUL ADD PUSH1 0x40 MLOAD DUP1 PUSH1 0xE0 ADD PUSH1 0x40 MSTORE SWAP1 DUP2 PUSH1 0x0 DUP3 ADD SLOAD DUP2 MSTORE PUSH1 0x20 ADD PUSH1 0x1 DUP3 ADD SLOAD DUP2 MSTORE PUSH1 0x20 ADD PUSH1 0x2 DUP3 ADD SLOAD DUP2 MSTORE PUSH1 0x20 ADD PUSH1 0x3 DUP3 ADD SLOAD DUP2 MSTORE PUSH1 0x20 ADD PUSH1 0x4 DUP3 ADD PUSH1 0x0 SWAP1 SLOAD SWAP1 PUSH2 0x100 EXP SWAP1 DIV PUSH20 0xFFFFFFFFFFFFFFFFFFFFFFFFFFFFFFFFFFFFFFFF AND PUSH20 0xFFFFFFFFFFFFFFFFFFFFFFFFFFFFFFFFFFFFFFFF AND PUSH20 0xFFFFFFFFFFFFFFFFFFFFFFFFFFFFFFFFFFFFFFFF AND DUP2 MSTORE PUSH1 0x20 ADD PUSH1 0x5 DUP3 ADD DUP1 SLOAD PUSH2 0xE8B SWAP1 PUSH2 0x24F3 JUMP JUMPDEST DUP1 PUSH1 0x1F ADD PUSH1 0x20 DUP1 SWAP2 DIV MUL PUSH1 0x20 ADD PUSH1 0x40 MLOAD SWAP1 DUP2 ADD PUSH1 0x40 MSTORE DUP1 SWAP3 SWAP2 SWAP1 DUP2 DUP2 MSTORE PUSH1 0x20 ADD DUP3 DUP1 SLOAD PUSH2 0xEB7 SWAP1 PUSH2 0x24F3 JUMP JUMPDEST DUP1 ISZERO PUSH2 0xF04 JUMPI DUP1 PUSH1 0x1F LT PUSH2 0xED9 JUMPI PUSH2 0x100 DUP1 DUP4 SLOAD DIV MUL DUP4 MSTORE SWAP2 PUSH1 0x20 ADD SWAP2 PUSH2 0xF04 JUMP JUMPDEST DUP3 ADD SWAP2 SWAP1 PUSH1 0x0 MSTORE PUSH1 0x20 PUSH1 0x0 KECCAK256 SWAP1 JUMPDEST DUP2 SLOAD DUP2 MSTORE SWAP1 PUSH1 0x1 ADD SWAP1 PUSH1 0x20 ADD DUP1 DUP4 GT PUSH2 0xEE7 JUMPI DUP3 SWAP1 SUB PUSH1 0x1F AND DUP3 ADD SWAP2 JUMPDEST POP POP POP POP POP DUP2 MSTORE PUSH1 0x20 ADD PUSH1 0x6 DUP3 ADD PUSH1 0x0 SWAP1 SLOAD SWAP1 PUSH2 0x100 EXP SWAP1 DIV PUSH1 0xFF AND ISZERO ISZERO ISZERO ISZERO DUP2 MSTORE POP POP DUP2 MSTORE PUSH1 0x20 ADD SWAP1 PUSH1 0x1 ADD SWAP1 PUSH2 0xDDA JUMP JUMPDEST POP POP POP POP SWAP1 POP PUSH1 0x0 DUP1 DUP4 PUSH1 0x80 ADD MLOAD DUP5 PUSH1 0xA0 ADD MLOAD DUP6 PUSH1 0x60 ADD MLOAD DUP7 PUSH1 0xC0 ADD MLOAD PUSH2 0xF5E SWAP2 SWAP1 PUSH2 0x234A JUMP JUMPDEST PUSH2 0xF68 SWAP2 SWAP1 PUSH2 0x234A JUMP JUMPDEST PUSH2 0xF72 SWAP2 SWAP1 PUSH2 0x234A JUMP JUMPDEST SWAP1 POP PUSH1 0x0 PUSH2 0xF9D PUSH1 0x64 PUSH2 0xF8F PUSH1 0xF DUP6 PUSH2 0x194B SWAP1 SWAP2 SWAP1 PUSH4 0xFFFFFFFF AND JUMP JUMPDEST PUSH2 0x1990 SWAP1 SWAP2 SWAP1 PUSH4 0xFFFFFFFF AND JUMP JUMPDEST SWAP1 POP PUSH1 0x0 JUMPDEST PUSH1 0x1 DUP6 MLOAD PUSH2 0xFB0 SWAP2 SWAP1 PUSH2 0x242B JUMP JUMPDEST DUP2 GT PUSH2 0x13F8 JUMPI PUSH1 0x0 DUP6 DUP3 DUP2 MLOAD DUP2 LT PUSH2 0xFCB JUMPI PUSH2 0xFCA PUSH2 0x2640 JUMP JUMPDEST JUMPDEST PUSH1 0x20 MUL PUSH1 0x20 ADD ADD MLOAD PUSH1 0xC0 ADD SWAP1 ISZERO ISZERO SWAP1 DUP2 ISZERO ISZERO DUP2 MSTORE POP ISZERO PUSH2 0x13E5 JUMPI PUSH1 0x2 DUP6 DUP3 DUP2 MLOAD DUP2 LT PUSH2 0xFFA JUMPI PUSH2 0xFF9 PUSH2 0x2640 JUMP JUMPDEST JUMPDEST PUSH1 0x20 MUL PUSH1 0x20 ADD ADD MLOAD PUSH1 0x20 ADD MLOAD EQ ISZERO PUSH2 0x11A0 JUMPI PUSH2 0x1037 PUSH1 0x64 PUSH2 0x1029 PUSH1 0x55 DUP10 PUSH1 0xC0 ADD MLOAD PUSH2 0x194B SWAP1 SWAP2 SWAP1 PUSH4 0xFFFFFFFF AND JUMP JUMPDEST PUSH2 0x1990 SWAP1 SWAP2 SWAP1 PUSH4 0xFFFFFFFF AND JUMP JUMPDEST SWAP4 POP DUP10 DUP6 DUP3 DUP2 MLOAD DUP2 LT PUSH2 0x104D JUMPI PUSH2 0x104C PUSH2 0x2640 JUMP JUMPDEST JUMPDEST PUSH1 0x20 MUL PUSH1 0x20 ADD ADD MLOAD PUSH1 0x40 ADD MLOAD EQ DUP1 ISZERO PUSH2 0x1083 JUMPI POP DUP9 DUP6 DUP3 DUP2 MLOAD DUP2 LT PUSH2 0x1075 JUMPI PUSH2 0x1074 PUSH2 0x2640 JUMP JUMPDEST JUMPDEST PUSH1 0x20 MUL PUSH1 0x20 ADD ADD MLOAD PUSH1 0x60 ADD MLOAD EQ JUMPDEST ISZERO PUSH2 0x119B JUMPI PUSH1 0x0 PUSH1 0x3 DUP7 DUP4 DUP2 MLOAD DUP2 LT PUSH2 0x109F JUMPI PUSH2 0x109E PUSH2 0x2640 JUMP JUMPDEST JUMPDEST PUSH1 0x20 MUL PUSH1 0x20 ADD ADD MLOAD PUSH1 0xA0 ADD MLOAD PUSH1 0x40 MLOAD PUSH2 0x10B8 SWAP2 SWAP1 PUSH2 0x2161 JUMP JUMPDEST SWAP1 DUP2 MSTORE PUSH1 0x20 ADD PUSH1 0x40 MLOAD DUP1 SWAP2 SUB SWAP1 KECCAK256 SLOAD SWAP1 POP PUSH1 0x0 DUP2 DUP8 DUP5 DUP2 MLOAD DUP2 LT PUSH2 0x10DF JUMPI PUSH2 0x10DE PUSH2 0x2640 JUMP JUMPDEST JUMPDEST PUSH1 0x20 MUL PUSH1 0x20 ADD ADD MLOAD PUSH1 0x0 ADD MLOAD DUP8 PUSH2 0x10F6 SWAP2 SWAP1 PUSH2 0x23D1 JUMP JUMPDEST PUSH2 0x1100 SWAP2 SWAP1 PUSH2 0x23A0 JUMP JUMPDEST SWAP1 POP PUSH1 0x0 DUP8 DUP5 DUP2 MLOAD DUP2 LT PUSH2 0x1117 JUMPI PUSH2 0x1116 PUSH2 0x2640 JUMP JUMPDEST JUMPDEST PUSH1 0x20 MUL PUSH1 0x20 ADD ADD MLOAD PUSH1 0x80 ADD MLOAD SWAP1 POP DUP1 PUSH20 0xFFFFFFFFFFFFFFFFFFFFFFFFFFFFFFFFFFFFFFFF AND PUSH2 0x8FC DUP4 SWAP1 DUP2 ISZERO MUL SWAP1 PUSH1 0x40 MLOAD PUSH1 0x0 PUSH1 0x40 MLOAD DUP1 DUP4 SUB DUP2 DUP6 DUP9 DUP9 CALL SWAP4 POP POP POP POP ISZERO DUP1 ISZERO PUSH2 0x116B JUMPI RETURNDATASIZE PUSH1 0x0 DUP1 RETURNDATACOPY RETURNDATASIZE PUSH1 0x0 REVERT JUMPDEST POP PUSH1 0x1 DUP9 DUP6 DUP2 MLOAD DUP2 LT PUSH2 0x1181 JUMPI PUSH2 0x1180 PUSH2 0x2640 JUMP JUMPDEST JUMPDEST PUSH1 0x20 MUL PUSH1 0x20 ADD ADD MLOAD PUSH1 0xC0 ADD SWAP1 ISZERO ISZERO SWAP1 DUP2 ISZERO ISZERO DUP2 MSTORE POP POP POP POP POP JUMPDEST PUSH2 0x13E4 JUMP JUMPDEST DUP8 DUP6 DUP3 DUP2 MLOAD DUP2 LT PUSH2 0x11B4 JUMPI PUSH2 0x11B3 PUSH2 0x2640 JUMP JUMPDEST JUMPDEST PUSH1 0x20 MUL PUSH1 0x20 ADD ADD MLOAD PUSH1 0x20 ADD MLOAD EQ ISZERO PUSH2 0x13E3 JUMPI PUSH2 0x120F PUSH1 0x64 PUSH2 0x1201 PUSH1 0x55 DUP10 PUSH1 0x80 ADD MLOAD DUP11 PUSH1 0xA0 ADD MLOAD DUP12 PUSH1 0x60 ADD MLOAD PUSH2 0x11E9 SWAP2 SWAP1 PUSH2 0x234A JUMP JUMPDEST PUSH2 0x11F3 SWAP2 SWAP1 PUSH2 0x234A JUMP JUMPDEST PUSH2 0x194B SWAP1 SWAP2 SWAP1 PUSH4 0xFFFFFFFF AND JUMP JUMPDEST PUSH2 0x1990 SWAP1 SWAP2 SWAP1 PUSH4 0xFFFFFFFF AND JUMP JUMPDEST SWAP4 POP PUSH1 0x0 DUP1 DUP7 DUP4 DUP2 MLOAD DUP2 LT PUSH2 0x1227 JUMPI PUSH2 0x1226 PUSH2 0x2640 JUMP JUMPDEST JUMPDEST PUSH1 0x20 MUL PUSH1 0x20 ADD ADD MLOAD PUSH1 0x20 ADD MLOAD EQ ISZERO PUSH2 0x1267 JUMPI PUSH2 0x1264 PUSH1 0x64 PUSH2 0x1256 PUSH1 0x55 DUP11 PUSH1 0xA0 ADD MLOAD PUSH2 0x194B SWAP1 SWAP2 SWAP1 PUSH4 0xFFFFFFFF AND JUMP JUMPDEST PUSH2 0x1990 SWAP1 SWAP2 SWAP1 PUSH4 0xFFFFFFFF AND JUMP JUMPDEST SWAP1 POP JUMPDEST PUSH1 0x1 DUP7 DUP4 DUP2 MLOAD DUP2 LT PUSH2 0x127C JUMPI PUSH2 0x127B PUSH2 0x2640 JUMP JUMPDEST JUMPDEST PUSH1 0x20 MUL PUSH1 0x20 ADD ADD MLOAD PUSH1 0x20 ADD MLOAD EQ ISZERO PUSH2 0x12BC JUMPI PUSH2 0x12B9 PUSH1 0x64 PUSH2 0x12AB PUSH1 0x55 DUP11 PUSH1 0x80 ADD MLOAD PUSH2 0x194B SWAP1 SWAP2 SWAP1 PUSH4 0xFFFFFFFF AND JUMP JUMPDEST PUSH2 0x1990 SWAP1 SWAP2 SWAP1 PUSH4 0xFFFFFFFF AND JUMP JUMPDEST SWAP1 POP JUMPDEST PUSH1 0x3 DUP7 DUP4 DUP2 MLOAD DUP2 LT PUSH2 0x12D1 JUMPI PUSH2 0x12D0 PUSH2 0x2640 JUMP JUMPDEST JUMPDEST PUSH1 0x20 MUL PUSH1 0x20 ADD ADD MLOAD PUSH1 0x20 ADD MLOAD EQ ISZERO PUSH2 0x1311 JUMPI PUSH2 0x130E PUSH1 0x64 PUSH2 0x1300 PUSH1 0x55 DUP11 PUSH1 0x60 ADD MLOAD PUSH2 0x194B SWAP1 SWAP2 SWAP1 PUSH4 0xFFFFFFFF AND JUMP JUMPDEST PUSH2 0x1990 SWAP1 SWAP2 SWAP1 PUSH4 0xFFFFFFFF AND JUMP JUMPDEST SWAP1 POP JUMPDEST PUSH1 0x0 DUP2 DUP8 DUP5 DUP2 MLOAD DUP2 LT PUSH2 0x1327 JUMPI PUSH2 0x1326 PUSH2 0x2640 JUMP JUMPDEST JUMPDEST PUSH1 0x20 MUL PUSH1 0x20 ADD ADD MLOAD PUSH1 0x0 ADD MLOAD DUP8 PUSH2 0x133E SWAP2 SWAP1 PUSH2 0x23D1 JUMP JUMPDEST PUSH2 0x1348 SWAP2 SWAP1 PUSH2 0x23A0 JUMP JUMPDEST SWAP1 POP PUSH1 0x0 DUP8 DUP5 DUP2 MLOAD DUP2 LT PUSH2 0x135F JUMPI PUSH2 0x135E PUSH2 0x2640 JUMP JUMPDEST JUMPDEST PUSH1 0x20 MUL PUSH1 0x20 ADD ADD MLOAD PUSH1 0x80 ADD MLOAD SWAP1 POP DUP1 PUSH20 0xFFFFFFFFFFFFFFFFFFFFFFFFFFFFFFFFFFFFFFFF AND PUSH2 0x8FC DUP4 SWAP1 DUP2 ISZERO MUL SWAP1 PUSH1 0x40 MLOAD PUSH1 0x0 PUSH1 0x40 MLOAD DUP1 DUP4 SUB DUP2 DUP6 DUP9 DUP9 CALL SWAP4 POP POP POP POP ISZERO DUP1 ISZERO PUSH2 0x13B3 JUMPI RETURNDATASIZE PUSH1 0x0 DUP1 RETURNDATACOPY RETURNDATASIZE PUSH1 0x0 REVERT JUMPDEST POP PUSH1 0x1 DUP9 DUP6 DUP2 MLOAD DUP2 LT PUSH2 0x13C9 JUMPI PUSH2 0x13C8 PUSH2 0x2640 JUMP JUMPDEST JUMPDEST PUSH1 0x20 MUL PUSH1 0x20 ADD ADD MLOAD PUSH1 0xC0 ADD SWAP1 ISZERO ISZERO SWAP1 DUP2 ISZERO ISZERO DUP2 MSTORE POP POP POP POP POP JUMPDEST JUMPDEST JUMPDEST DUP1 DUP1 PUSH2 0x13F0 SWAP1 PUSH2 0x2556 JUMP JUMPDEST SWAP2 POP POP PUSH2 0xFA2 JUMP JUMPDEST POP PUSH1 0x0 DUP1 PUSH1 0x0 SWAP1 SLOAD SWAP1 PUSH2 0x100 EXP SWAP1 DIV PUSH20 0xFFFFFFFFFFFFFFFFFFFFFFFFFFFFFFFFFFFFFFFF AND SWAP1 POP DUP1 PUSH20 0xFFFFFFFFFFFFFFFFFFFFFFFFFFFFFFFFFFFFFFFF AND PUSH2 0x8FC DUP4 SWAP1 DUP2 ISZERO MUL SWAP1 PUSH1 0x40 MLOAD PUSH1 0x0 PUSH1 0x40 MLOAD DUP1 DUP4 SUB DUP2 DUP6 DUP9 DUP9 CALL SWAP4 POP POP POP POP ISZERO DUP1 ISZERO PUSH2 0x1465 JUMPI RETURNDATASIZE PUSH1 0x0 DUP1 RETURNDATACOPY RETURNDATASIZE PUSH1 0x0 REVERT JUMPDEST POP POP POP POP POP POP POP PUSH1 0x1 SWAP1 POP SWAP5 SWAP4 POP POP POP POP JUMP JUMPDEST PUSH1 0x60 DUP1 PUSH1 0x60 PUSH1 0x0 DUP1 PUSH1 0x0 DUP1 PUSH2 0x148C DUP9 PUSH2 0x18BC JUMP JUMPDEST PUSH2 0x14CB JUMPI PUSH1 0x40 MLOAD PUSH32 0x8C379A000000000000000000000000000000000000000000000000000000000 DUP2 MSTORE PUSH1 0x4 ADD PUSH2 0x14C2 SWAP1 PUSH2 0x226D JUMP JUMPDEST PUSH1 0x40 MLOAD DUP1 SWAP2 SUB SWAP1 REVERT JUMPDEST PUSH1 0x5 PUSH1 0x0 DUP10 DUP2 MSTORE PUSH1 0x20 ADD SWAP1 DUP2 MSTORE PUSH1 0x20 ADD PUSH1 0x0 KECCAK256 PUSH1 0x0 ADD PUSH1 0x5 PUSH1 0x0 DUP11 DUP2 MSTORE PUSH1 0x20 ADD SWAP1 DUP2 MSTORE PUSH1 0x20 ADD PUSH1 0x0 KECCAK256 PUSH1 0x1 ADD PUSH1 0x5 PUSH1 0x0 DUP12 DUP2 MSTORE PUSH1 0x20 ADD SWAP1 DUP2 MSTORE PUSH1 0x20 ADD PUSH1 0x0 KECCAK256 PUSH1 0x2 ADD PUSH1 0x5 PUSH1 0x0 DUP13 DUP2 MSTORE PUSH1 0x20 ADD SWAP1 DUP2 MSTORE PUSH1 0x20 ADD PUSH1 0x0 KECCAK256 PUSH1 0x3 ADD SLOAD PUSH1 0x5 PUSH1 0x0 DUP14 DUP2 MSTORE PUSH1 0x20 ADD SWAP1 DUP2 MSTORE PUSH1 0x20 ADD PUSH1 0x0 KECCAK256 PUSH1 0x4 ADD SLOAD PUSH1 0x5 PUSH1 0x0 DUP15 DUP2 MSTORE PUSH1 0x20 ADD SWAP1 DUP2 MSTORE PUSH1 0x20 ADD PUSH1 0x0 KECCAK256 PUSH1 0x5 ADD SLOAD PUSH1 0x5 PUSH1 0x0 DUP16 DUP2 MSTORE PUSH1 0x20 ADD SWAP1 DUP2 MSTORE PUSH1 0x20 ADD PUSH1 0x0 KECCAK256 PUSH1 0x6 ADD SLOAD DUP7 DUP1 SLOAD PUSH2 0x1575 SWAP1 PUSH2 0x24F3 JUMP JUMPDEST DUP1 PUSH1 0x1F ADD PUSH1 0x20 DUP1 SWAP2 DIV MUL PUSH1 0x20 ADD PUSH1 0x40 MLOAD SWAP1 DUP2 ADD PUSH1 0x40 MSTORE DUP1 SWAP3 SWAP2 SWAP1 DUP2 DUP2 MSTORE PUSH1 0x20 ADD DUP3 DUP1 SLOAD PUSH2 0x15A1 SWAP1 PUSH2 0x24F3 JUMP JUMPDEST DUP1 ISZERO PUSH2 0x15EE JUMPI DUP1 PUSH1 0x1F LT PUSH2 0x15C3 JUMPI PUSH2 0x100 DUP1 DUP4 SLOAD DIV MUL DUP4 MSTORE SWAP2 PUSH1 0x20 ADD SWAP2 PUSH2 0x15EE JUMP JUMPDEST DUP3 ADD SWAP2 SWAP1 PUSH1 0x0 MSTORE PUSH1 0x20 PUSH1 0x0 KECCAK256 SWAP1 JUMPDEST DUP2 SLOAD DUP2 MSTORE SWAP1 PUSH1 0x1 ADD SWAP1 PUSH1 0x20 ADD DUP1 DUP4 GT PUSH2 0x15D1 JUMPI DUP3 SWAP1 SUB PUSH1 0x1F AND DUP3 ADD SWAP2 JUMPDEST POP POP POP POP POP SWAP7 POP DUP6 DUP1 SLOAD PUSH2 0x1601 SWAP1 PUSH2 0x24F3 JUMP JUMPDEST DUP1 PUSH1 0x1F ADD PUSH1 0x20 DUP1 SWAP2 DIV MUL PUSH1 0x20 ADD PUSH1 0x40 MLOAD SWAP1 DUP2 ADD PUSH1 0x40 MSTORE DUP1 SWAP3 SWAP2 SWAP1 DUP2 DUP2 MSTORE PUSH1 0x20 ADD DUP3 DUP1 SLOAD PUSH2 0x162D SWAP1 PUSH2 0x24F3 JUMP JUMPDEST DUP1 ISZERO PUSH2 0x167A JUMPI DUP1 PUSH1 0x1F LT PUSH2 0x164F JUMPI PUSH2 0x100 DUP1 DUP4 SLOAD DIV MUL DUP4 MSTORE SWAP2 PUSH1 0x20 ADD SWAP2 PUSH2 0x167A JUMP JUMPDEST DUP3 ADD SWAP2 SWAP1 PUSH1 0x0 MSTORE PUSH1 0x20 PUSH1 0x0 KECCAK256 SWAP1 JUMPDEST DUP2 SLOAD DUP2 MSTORE SWAP1 PUSH1 0x1 ADD SWAP1 PUSH1 0x20 ADD DUP1 DUP4 GT PUSH2 0x165D JUMPI DUP3 SWAP1 SUB PUSH1 0x1F AND DUP3 ADD SWAP2 JUMPDEST POP POP POP POP POP SWAP6 POP DUP5 DUP1 SLOAD PUSH2 0x168D SWAP1 PUSH2 0x24F3 JUMP JUMPDEST DUP1 PUSH1 0x1F ADD PUSH1 0x20 DUP1 SWAP2 DIV MUL PUSH1 0x20 ADD PUSH1 0x40 MLOAD SWAP1 DUP2 ADD PUSH1 0x40 MSTORE DUP1 SWAP3 SWAP2 SWAP1 DUP2 DUP2 MSTORE PUSH1 0x20 ADD DUP3 DUP1 SLOAD PUSH2 0x16B9 SWAP1 PUSH2 0x24F3 JUMP JUMPDEST DUP1 ISZERO PUSH2 0x1706 JUMPI DUP1 PUSH1 0x1F LT PUSH2 0x16DB JUMPI PUSH2 0x100 DUP1 DUP4 SLOAD DIV MUL DUP4 MSTORE SWAP2 PUSH1 0x20 ADD SWAP2 PUSH2 0x1706 JUMP JUMPDEST DUP3 ADD SWAP2 SWAP1 PUSH1 0x0 MSTORE PUSH1 0x20 PUSH1 0x0 KECCAK256 SWAP1 JUMPDEST DUP2 SLOAD DUP2 MSTORE SWAP1 PUSH1 0x1 ADD SWAP1 PUSH1 0x20 ADD DUP1 DUP4 GT PUSH2 0x16E9 JUMPI DUP3 SWAP1 SUB PUSH1 0x1F AND DUP3 ADD SWAP2 JUMPDEST POP POP POP POP POP SWAP5 POP SWAP7 POP SWAP7 POP SWAP7 POP SWAP7 POP SWAP7 POP SWAP7 POP SWAP7 POP SWAP2 SWAP4 SWAP6 SWAP8 SWAP1 SWAP3 SWAP5 SWAP7 POP JUMP JUMPDEST PUSH1 0x60 PUSH1 0x0 DUP4 SWAP1 POP PUSH1 0x0 DUP4 SWAP1 POP PUSH1 0x0 DUP2 MLOAD DUP4 MLOAD PUSH2 0x1742 SWAP2 SWAP1 PUSH2 0x234A JUMP JUMPDEST PUSH8 0xFFFFFFFFFFFFFFFF DUP2 GT ISZERO PUSH2 0x175B JUMPI PUSH2 0x175A PUSH2 0x266F JUMP JUMPDEST JUMPDEST PUSH1 0x40 MLOAD SWAP1 DUP1 DUP3 MSTORE DUP1 PUSH1 0x1F ADD PUSH1 0x1F NOT AND PUSH1 0x20 ADD DUP3 ADD PUSH1 0x40 MSTORE DUP1 ISZERO PUSH2 0x178D JUMPI DUP2 PUSH1 0x20 ADD PUSH1 0x1 DUP3 MUL DUP1 CALLDATASIZE DUP4 CALLDATACOPY DUP1 DUP3 ADD SWAP2 POP POP SWAP1 POP JUMPDEST POP SWAP1 POP PUSH1 0x0 DUP2 SWAP1 POP PUSH1 0x0 DUP1 JUMPDEST DUP6 MLOAD DUP2 LT ISZERO PUSH2 0x1821 JUMPI DUP6 DUP2 DUP2 MLOAD DUP2 LT PUSH2 0x17B5 JUMPI PUSH2 0x17B4 PUSH2 0x2640 JUMP JUMPDEST JUMPDEST PUSH1 0x20 ADD ADD MLOAD PUSH1 0xF8 SHR PUSH1 0xF8 SHL DUP4 DUP4 DUP1 PUSH2 0x17CC SWAP1 PUSH2 0x2556 JUMP JUMPDEST SWAP5 POP DUP2 MLOAD DUP2 LT PUSH2 0x17DF JUMPI PUSH2 0x17DE PUSH2 0x2640 JUMP JUMPDEST JUMPDEST PUSH1 0x20 ADD ADD SWAP1 PUSH31 0xFFFFFFFFFFFFFFFFFFFFFFFFFFFFFFFFFFFFFFFFFFFFFFFFFFFFFFFFFFFFFF NOT AND SWAP1 DUP2 PUSH1 0x0 BYTE SWAP1 MSTORE8 POP DUP1 DUP1 PUSH2 0x1819 SWAP1 PUSH2 0x2556 JUMP JUMPDEST SWAP2 POP POP PUSH2 0x1799 JUMP JUMPDEST POP PUSH1 0x0 JUMPDEST DUP5 MLOAD DUP2 LT ISZERO PUSH2 0x18AD JUMPI DUP5 DUP2 DUP2 MLOAD DUP2 LT PUSH2 0x1841 JUMPI PUSH2 0x1840 PUSH2 0x2640 JUMP JUMPDEST JUMPDEST PUSH1 0x20 ADD ADD MLOAD PUSH1 0xF8 SHR PUSH1 0xF8 SHL DUP4 DUP4 DUP1 PUSH2 0x1858 SWAP1 PUSH2 0x2556 JUMP JUMPDEST SWAP5 POP DUP2 MLOAD DUP2 LT PUSH2 0x186B JUMPI PUSH2 0x186A PUSH2 0x2640 JUMP JUMPDEST JUMPDEST PUSH1 0x20 ADD ADD SWAP1 PUSH31 0xFFFFFFFFFFFFFFFFFFFFFFFFFFFFFFFFFFFFFFFFFFFFFFFFFFFFFFFFFFFFFF NOT AND SWAP1 DUP2 PUSH1 0x0 BYTE SWAP1 MSTORE8 POP DUP1 DUP1 PUSH2 0x18A5 SWAP1 PUSH2 0x2556 JUMP JUMPDEST SWAP2 POP POP PUSH2 0x1825 JUMP JUMPDEST POP DUP3 SWAP6 POP POP POP POP POP POP SWAP3 SWAP2 POP POP JUMP JUMPDEST PUSH1 0x0 PUSH1 0x5 PUSH1 0x0 DUP4 DUP2 MSTORE PUSH1 0x20 ADD SWAP1 DUP2 MSTORE PUSH1 0x20 ADD PUSH1 0x0 KECCAK256 PUSH1 0x7 ADD PUSH1 0x1 SWAP1 SLOAD SWAP1 PUSH2 0x100 EXP SWAP1 DIV PUSH1 0xFF AND SWAP1 POP SWAP2 SWAP1 POP JUMP JUMPDEST PUSH1 0x60 PUSH2 0x1913 DUP3 PUSH1 0x40 MLOAD PUSH1 0x20 ADD PUSH2 0x18FF SWAP2 SWAP1 PUSH2 0x2178 JUMP JUMPDEST PUSH1 0x40 MLOAD PUSH1 0x20 DUP2 DUP4 SUB SUB DUP2 MSTORE SWAP1 PUSH1 0x40 MSTORE PUSH2 0x19B8 JUMP JUMPDEST SWAP1 POP SWAP2 SWAP1 POP JUMP JUMPDEST PUSH1 0x60 PUSH2 0x1944 DUP3 PUSH1 0x40 MLOAD PUSH1 0x20 ADD PUSH2 0x1930 SWAP2 SWAP1 PUSH2 0x2146 JUMP JUMPDEST PUSH1 0x40 MLOAD PUSH1 0x20 DUP2 DUP4 SUB SUB DUP2 MSTORE SWAP1 PUSH1 0x40 MSTORE PUSH2 0x19B8 JUMP JUMPDEST SWAP1 POP SWAP2 SWAP1 POP JUMP JUMPDEST PUSH1 0x0 DUP1 DUP4 EQ ISZERO PUSH2 0x195E JUMPI PUSH1 0x0 SWAP1 POP PUSH2 0x198A JUMP JUMPDEST PUSH1 0x0 DUP3 DUP5 PUSH2 0x196C SWAP2 SWAP1 PUSH2 0x23D1 JUMP JUMPDEST SWAP1 POP DUP3 DUP5 DUP3 PUSH2 0x197B SWAP2 SWAP1 PUSH2 0x23A0 JUMP JUMPDEST EQ PUSH2 0x1985 JUMPI PUSH1 0x0 DUP1 REVERT JUMPDEST DUP1 SWAP2 POP POP JUMPDEST SWAP3 SWAP2 POP POP JUMP JUMPDEST PUSH1 0x0 DUP1 DUP3 GT PUSH2 0x199E JUMPI PUSH1 0x0 DUP1 REVERT JUMPDEST PUSH1 0x0 DUP3 DUP5 PUSH2 0x19AC SWAP2 SWAP1 PUSH2 0x23A0 JUMP JUMPDEST SWAP1 POP DUP1 SWAP2 POP POP SWAP3 SWAP2 POP POP JUMP JUMPDEST PUSH1 0x60 PUSH1 0x0 PUSH1 0x40 MLOAD DUP1 PUSH1 0x40 ADD PUSH1 0x40 MSTORE DUP1 PUSH1 0x10 DUP2 MSTORE PUSH1 0x20 ADD PUSH32 0x3031323334353637383961626364656600000000000000000000000000000000 DUP2 MSTORE POP SWAP1 POP PUSH1 0x0 PUSH1 0x2 DUP5 MLOAD PUSH2 0x1A04 SWAP2 SWAP1 PUSH2 0x23D1 JUMP JUMPDEST PUSH1 0x2 PUSH2 0x1A10 SWAP2 SWAP1 PUSH2 0x234A JUMP JUMPDEST PUSH8 0xFFFFFFFFFFFFFFFF DUP2 GT ISZERO PUSH2 0x1A29 JUMPI PUSH2 0x1A28 PUSH2 0x266F JUMP JUMPDEST JUMPDEST PUSH1 0x40 MLOAD SWAP1 DUP1 DUP3 MSTORE DUP1 PUSH1 0x1F ADD PUSH1 0x1F NOT AND PUSH1 0x20 ADD DUP3 ADD PUSH1 0x40 MSTORE DUP1 ISZERO PUSH2 0x1A5B JUMPI DUP2 PUSH1 0x20 ADD PUSH1 0x1 DUP3 MUL DUP1 CALLDATASIZE DUP4 CALLDATACOPY DUP1 DUP3 ADD SWAP2 POP POP SWAP1 POP JUMPDEST POP SWAP1 POP PUSH32 0x3000000000000000000000000000000000000000000000000000000000000000 DUP2 PUSH1 0x0 DUP2 MLOAD DUP2 LT PUSH2 0x1A93 JUMPI PUSH2 0x1A92 PUSH2 0x2640 JUMP JUMPDEST JUMPDEST PUSH1 0x20 ADD ADD SWAP1 PUSH31 0xFFFFFFFFFFFFFFFFFFFFFFFFFFFFFFFFFFFFFFFFFFFFFFFFFFFFFFFFFFFFFF NOT AND SWAP1 DUP2 PUSH1 0x0 BYTE SWAP1 MSTORE8 POP PUSH32 0x7800000000000000000000000000000000000000000000000000000000000000 DUP2 PUSH1 0x1 DUP2 MLOAD DUP2 LT PUSH2 0x1AF7 JUMPI PUSH2 0x1AF6 PUSH2 0x2640 JUMP JUMPDEST JUMPDEST PUSH1 0x20 ADD ADD SWAP1 PUSH31 0xFFFFFFFFFFFFFFFFFFFFFFFFFFFFFFFFFFFFFFFFFFFFFFFFFFFFFFFFFFFFFF NOT AND SWAP1 DUP2 PUSH1 0x0 BYTE SWAP1 MSTORE8 POP PUSH1 0x0 JUMPDEST DUP5 MLOAD DUP2 LT ISZERO PUSH2 0x1CA7 JUMPI DUP3 PUSH1 0x4 DUP7 DUP4 DUP2 MLOAD DUP2 LT PUSH2 0x1B48 JUMPI PUSH2 0x1B47 PUSH2 0x2640 JUMP JUMPDEST JUMPDEST PUSH1 0x20 ADD ADD MLOAD PUSH1 0xF8 SHR PUSH1 0xF8 SHL PUSH31 0xFFFFFFFFFFFFFFFFFFFFFFFFFFFFFFFFFFFFFFFFFFFFFFFFFFFFFFFFFFFFFF NOT AND SWAP1 SHR PUSH1 0xF8 SHR PUSH1 0xFF AND DUP2 MLOAD DUP2 LT PUSH2 0x1B8E JUMPI PUSH2 0x1B8D PUSH2 0x2640 JUMP JUMPDEST JUMPDEST PUSH1 0x20 ADD ADD MLOAD PUSH1 0xF8 SHR PUSH1 0xF8 SHL DUP3 PUSH1 0x2 DUP4 PUSH2 0x1BA7 SWAP2 SWAP1 PUSH2 0x23D1 JUMP JUMPDEST PUSH1 0x2 PUSH2 0x1BB3 SWAP2 SWAP1 PUSH2 0x234A JUMP JUMPDEST DUP2 MLOAD DUP2 LT PUSH2 0x1BC4 JUMPI PUSH2 0x1BC3 PUSH2 0x2640 JUMP JUMPDEST JUMPDEST PUSH1 0x20 ADD ADD SWAP1 PUSH31 0xFFFFFFFFFFFFFFFFFFFFFFFFFFFFFFFFFFFFFFFFFFFFFFFFFFFFFFFFFFFFFF NOT AND SWAP1 DUP2 PUSH1 0x0 BYTE SWAP1 MSTORE8 POP DUP3 PUSH1 0xF PUSH1 0xF8 SHL DUP7 DUP4 DUP2 MLOAD DUP2 LT PUSH2 0x1C0C JUMPI PUSH2 0x1C0B PUSH2 0x2640 JUMP JUMPDEST JUMPDEST PUSH1 0x20 ADD ADD MLOAD PUSH1 0xF8 SHR PUSH1 0xF8 SHL AND PUSH1 0xF8 SHR PUSH1 0xFF AND DUP2 MLOAD DUP2 LT PUSH2 0x1C2F JUMPI PUSH2 0x1C2E PUSH2 0x2640 JUMP JUMPDEST JUMPDEST PUSH1 0x20 ADD ADD MLOAD PUSH1 0xF8 SHR PUSH1 0xF8 SHL DUP3 PUSH1 0x2 DUP4 PUSH2 0x1C48 SWAP2 SWAP1 PUSH2 0x23D1 JUMP JUMPDEST PUSH1 0x3 PUSH2 0x1C54 SWAP2 SWAP1 PUSH2 0x234A JUMP JUMPDEST DUP2 MLOAD DUP2 LT PUSH2 0x1C65 JUMPI PUSH2 0x1C64 PUSH2 0x2640 JUMP JUMPDEST JUMPDEST PUSH1 0x20 ADD ADD SWAP1 PUSH31 0xFFFFFFFFFFFFFFFFFFFFFFFFFFFFFFFFFFFFFFFFFFFFFFFFFFFFFFFFFFFFFF NOT AND SWAP1 DUP2 PUSH1 0x0 BYTE SWAP1 MSTORE8 POP DUP1 DUP1 PUSH2 0x1C9F SWAP1 PUSH2 0x2556 JUMP JUMPDEST SWAP2 POP POP PUSH2 0x1B29 JUMP JUMPDEST POP DUP1 SWAP3 POP POP POP SWAP2 SWAP1 POP JUMP JUMPDEST DUP3 DUP1 SLOAD PUSH2 0x1CBE SWAP1 PUSH2 0x24F3 JUMP JUMPDEST SWAP1 PUSH1 0x0 MSTORE PUSH1 0x20 PUSH1 0x0 KECCAK256 SWAP1 PUSH1 0x1F ADD PUSH1 0x20 SWAP1 DIV DUP2 ADD SWAP3 DUP3 PUSH2 0x1CE0 JUMPI PUSH1 0x0 DUP6 SSTORE PUSH2 0x1D27 JUMP JUMPDEST DUP3 PUSH1 0x1F LT PUSH2 0x1CF9 JUMPI DUP1 MLOAD PUSH1 0xFF NOT AND DUP4 DUP1 ADD OR DUP6 SSTORE PUSH2 0x1D27 JUMP JUMPDEST DUP3 DUP1 ADD PUSH1 0x1 ADD DUP6 SSTORE DUP3 ISZERO PUSH2 0x1D27 JUMPI SWAP2 DUP3 ADD JUMPDEST DUP3 DUP2 GT ISZERO PUSH2 0x1D26 JUMPI DUP3 MLOAD DUP3 SSTORE SWAP2 PUSH1 0x20 ADD SWAP2 SWAP1 PUSH1 0x1 ADD SWAP1 PUSH2 0x1D0B JUMP JUMPDEST JUMPDEST POP SWAP1 POP PUSH2 0x1D34 SWAP2 SWAP1 PUSH2 0x1D38 JUMP JUMPDEST POP SWAP1 JUMP JUMPDEST JUMPDEST DUP1 DUP3 GT ISZERO PUSH2 0x1D51 JUMPI PUSH1 0x0 DUP2 PUSH1 0x0 SWAP1 SSTORE POP PUSH1 0x1 ADD PUSH2 0x1D39 JUMP JUMPDEST POP SWAP1 JUMP JUMPDEST PUSH1 0x0 PUSH2 0x1D68 PUSH2 0x1D63 DUP5 PUSH2 0x22F2 JUMP JUMPDEST PUSH2 0x22CD JUMP JUMPDEST SWAP1 POP DUP3 DUP2 MSTORE PUSH1 0x20 DUP2 ADD DUP5 DUP5 DUP5 ADD GT ISZERO PUSH2 0x1D84 JUMPI PUSH2 0x1D83 PUSH2 0x26A3 JUMP JUMPDEST JUMPDEST PUSH2 0x1D8F DUP5 DUP3 DUP6 PUSH2 0x24B1 JUMP JUMPDEST POP SWAP4 SWAP3 POP POP POP JUMP JUMPDEST PUSH1 0x0 DUP2 CALLDATALOAD SWAP1 POP PUSH2 0x1DA6 DUP2 PUSH2 0x2767 JUMP JUMPDEST SWAP3 SWAP2 POP POP JUMP JUMPDEST PUSH1 0x0 DUP2 CALLDATALOAD SWAP1 POP PUSH2 0x1DBB DUP2 PUSH2 0x277E JUMP JUMPDEST SWAP3 SWAP2 POP POP JUMP JUMPDEST PUSH1 0x0 DUP2 CALLDATALOAD SWAP1 POP PUSH2 0x1DD0 DUP2 PUSH2 0x2795 JUMP JUMPDEST SWAP3 SWAP2 POP POP JUMP JUMPDEST PUSH1 0x0 DUP3 PUSH1 0x1F DUP4 ADD SLT PUSH2 0x1DEB JUMPI PUSH2 0x1DEA PUSH2 0x269E JUMP JUMPDEST JUMPDEST DUP2 CALLDATALOAD PUSH2 0x1DFB DUP5 DUP3 PUSH1 0x20 DUP7 ADD PUSH2 0x1D55 JUMP JUMPDEST SWAP2 POP POP SWAP3 SWAP2 POP POP JUMP JUMPDEST PUSH1 0x0 DUP2 CALLDATALOAD SWAP1 POP PUSH2 0x1E13 DUP2 PUSH2 0x27AC JUMP JUMPDEST SWAP3 SWAP2 POP POP JUMP JUMPDEST PUSH1 0x0 DUP1 PUSH1 0x0 DUP1 PUSH1 0x0 DUP1 PUSH1 0xC0 DUP8 DUP10 SUB SLT ISZERO PUSH2 0x1E36 JUMPI PUSH2 0x1E35 PUSH2 0x26AD JUMP JUMPDEST JUMPDEST PUSH1 0x0 PUSH2 0x1E44 DUP10 DUP3 DUP11 ADD PUSH2 0x1D97 JUMP JUMPDEST SWAP7 POP POP PUSH1 0x20 PUSH2 0x1E55 DUP10 DUP3 DUP11 ADD PUSH2 0x1E04 JUMP JUMPDEST SWAP6 POP POP PUSH1 0x40 PUSH2 0x1E66 DUP10 DUP3 DUP11 ADD PUSH2 0x1DC1 JUMP JUMPDEST SWAP5 POP POP PUSH1 0x60 PUSH2 0x1E77 DUP10 DUP3 DUP11 ADD PUSH2 0x1E04 JUMP JUMPDEST SWAP4 POP POP PUSH1 0x80 PUSH2 0x1E88 DUP10 DUP3 DUP11 ADD PUSH2 0x1E04 JUMP JUMPDEST SWAP3 POP POP PUSH1 0xA0 PUSH2 0x1E99 DUP10 DUP3 DUP11 ADD PUSH2 0x1E04 JUMP JUMPDEST SWAP2 POP POP SWAP3 SWAP6 POP SWAP3 SWAP6 POP SWAP3 SWAP6 JUMP JUMPDEST PUSH1 0x0 PUSH1 0x20 DUP3 DUP5 SUB SLT ISZERO PUSH2 0x1EBC JUMPI PUSH2 0x1EBB PUSH2 0x26AD JUMP JUMPDEST JUMPDEST PUSH1 0x0 PUSH2 0x1ECA DUP5 DUP3 DUP6 ADD PUSH2 0x1DC1 JUMP JUMPDEST SWAP2 POP POP SWAP3 SWAP2 POP POP JUMP JUMPDEST PUSH1 0x0 DUP1 PUSH1 0x0 DUP1 PUSH1 0x80 DUP6 DUP8 SUB SLT ISZERO PUSH2 0x1EED JUMPI PUSH2 0x1EEC PUSH2 0x26AD JUMP JUMPDEST JUMPDEST PUSH1 0x0 PUSH2 0x1EFB DUP8 DUP3 DUP9 ADD PUSH2 0x1DC1 JUMP JUMPDEST SWAP5 POP POP PUSH1 0x20 PUSH2 0x1F0C DUP8 DUP3 DUP9 ADD PUSH2 0x1E04 JUMP JUMPDEST SWAP4 POP POP PUSH1 0x40 PUSH2 0x1F1D DUP8 DUP3 DUP9 ADD PUSH2 0x1E04 JUMP JUMPDEST SWAP3 POP POP PUSH1 0x60 PUSH2 0x1F2E DUP8 DUP3 DUP9 ADD PUSH2 0x1E04 JUMP JUMPDEST SWAP2 POP POP SWAP3 SWAP6 SWAP2 SWAP5 POP SWAP3 POP JUMP JUMPDEST PUSH1 0x0 DUP1 PUSH1 0x0 DUP1 PUSH1 0x80 DUP6 DUP8 SUB SLT ISZERO PUSH2 0x1F54 JUMPI PUSH2 0x1F53 PUSH2 0x26AD JUMP JUMPDEST JUMPDEST PUSH1 0x0 DUP6 ADD CALLDATALOAD PUSH8 0xFFFFFFFFFFFFFFFF DUP2 GT ISZERO PUSH2 0x1F72 JUMPI PUSH2 0x1F71 PUSH2 0x26A8 JUMP JUMPDEST JUMPDEST PUSH2 0x1F7E DUP8 DUP3 DUP9 ADD PUSH2 0x1DD6 JUMP JUMPDEST SWAP5 POP POP PUSH1 0x20 DUP6 ADD CALLDATALOAD PUSH8 0xFFFFFFFFFFFFFFFF DUP2 GT ISZERO PUSH2 0x1F9F JUMPI PUSH2 0x1F9E PUSH2 0x26A8 JUMP JUMPDEST JUMPDEST PUSH2 0x1FAB DUP8 DUP3 DUP9 ADD PUSH2 0x1DD6 JUMP JUMPDEST SWAP4 POP POP PUSH1 0x40 DUP6 ADD CALLDATALOAD PUSH8 0xFFFFFFFFFFFFFFFF DUP2 GT ISZERO PUSH2 0x1FCC JUMPI PUSH2 0x1FCB PUSH2 0x26A8 JUMP JUMPDEST JUMPDEST PUSH2 0x1FD8 DUP8 DUP3 DUP9 ADD PUSH2 0x1DD6 JUMP JUMPDEST SWAP3 POP POP PUSH1 0x60 PUSH2 0x1FE9 DUP8 DUP3 DUP9 ADD PUSH2 0x1DAC JUMP JUMPDEST SWAP2 POP POP SWAP3 SWAP6 SWAP2 SWAP5 POP SWAP3 POP JUMP JUMPDEST PUSH2 0x1FFE DUP2 PUSH2 0x2471 JUMP JUMPDEST DUP3 MSTORE POP POP JUMP JUMPDEST PUSH2 0x200D DUP2 PUSH2 0x247D JUMP JUMPDEST DUP3 MSTORE POP POP JUMP JUMPDEST PUSH2 0x2024 PUSH2 0x201F DUP3 PUSH2 0x247D JUMP JUMPDEST PUSH2 0x259F JUMP JUMPDEST DUP3 MSTORE POP POP JUMP JUMPDEST PUSH1 0x0 PUSH2 0x2035 DUP3 PUSH2 0x2323 JUMP JUMPDEST PUSH2 0x203F DUP2 DUP6 PUSH2 0x232E JUMP JUMPDEST SWAP4 POP PUSH2 0x204F DUP2 DUP6 PUSH1 0x20 DUP7 ADD PUSH2 0x24C0 JUMP JUMPDEST PUSH2 0x2058 DUP2 PUSH2 0x26B2 JUMP JUMPDEST DUP5 ADD SWAP2 POP POP SWAP3 SWAP2 POP POP JUMP JUMPDEST PUSH1 0x0 PUSH2 0x206E DUP3 PUSH2 0x2323 JUMP JUMPDEST PUSH2 0x2078 DUP2 DUP6 PUSH2 0x233F JUMP JUMPDEST SWAP4 POP PUSH2 0x2088 DUP2 DUP6 PUSH1 0x20 DUP7 ADD PUSH2 0x24C0 JUMP JUMPDEST DUP1 DUP5 ADD SWAP2 POP POP SWAP3 SWAP2 POP POP JUMP JUMPDEST PUSH1 0x0 PUSH2 0x20A1 PUSH1 0x19 DUP4 PUSH2 0x232E JUMP JUMPDEST SWAP2 POP PUSH2 0x20AC DUP3 PUSH2 0x26C3 JUMP JUMPDEST PUSH1 0x20 DUP3 ADD SWAP1 POP SWAP2 SWAP1 POP JUMP JUMPDEST PUSH1 0x0 PUSH2 0x20C4 PUSH1 0x9 DUP4 PUSH2 0x232E JUMP JUMPDEST SWAP2 POP PUSH2 0x20CF DUP3 PUSH2 0x26EC JUMP JUMPDEST PUSH1 0x20 DUP3 ADD SWAP1 POP SWAP2 SWAP1 POP JUMP JUMPDEST PUSH1 0x0 PUSH2 0x20E7 PUSH1 0xE DUP4 PUSH2 0x232E JUMP JUMPDEST SWAP2 POP PUSH2 0x20F2 DUP3 PUSH2 0x2715 JUMP JUMPDEST PUSH1 0x20 DUP3 ADD SWAP1 POP SWAP2 SWAP1 POP JUMP JUMPDEST PUSH1 0x0 PUSH2 0x210A PUSH1 0xA DUP4 PUSH2 0x232E JUMP JUMPDEST SWAP2 POP PUSH2 0x2115 DUP3 PUSH2 0x273E JUMP JUMPDEST PUSH1 0x20 DUP3 ADD SWAP1 POP SWAP2 SWAP1 POP JUMP JUMPDEST PUSH2 0x2129 DUP2 PUSH2 0x24A7 JUMP JUMPDEST DUP3 MSTORE POP POP JUMP JUMPDEST PUSH2 0x2140 PUSH2 0x213B DUP3 PUSH2 0x24A7 JUMP JUMPDEST PUSH2 0x25A9 JUMP JUMPDEST DUP3 MSTORE POP POP JUMP JUMPDEST PUSH1 0x0 PUSH2 0x2152 DUP3 DUP5 PUSH2 0x2013 JUMP JUMPDEST PUSH1 0x20 DUP3 ADD SWAP2 POP DUP2 SWAP1 POP SWAP3 SWAP2 POP POP JUMP JUMPDEST PUSH1 0x0 PUSH2 0x216D DUP3 DUP5 PUSH2 0x2063 JUMP JUMPDEST SWAP2 POP DUP2 SWAP1 POP SWAP3 SWAP2 POP POP JUMP JUMPDEST PUSH1 0x0 PUSH2 0x2184 DUP3 DUP5 PUSH2 0x212F JUMP JUMPDEST PUSH1 0x20 DUP3 ADD SWAP2 POP DUP2 SWAP1 POP SWAP3 SWAP2 POP POP JUMP JUMPDEST PUSH1 0x0 PUSH1 0x20 DUP3 ADD SWAP1 POP PUSH2 0x21A8 PUSH1 0x0 DUP4 ADD DUP5 PUSH2 0x1FF5 JUMP JUMPDEST SWAP3 SWAP2 POP POP JUMP JUMPDEST PUSH1 0x0 PUSH1 0x20 DUP3 ADD SWAP1 POP PUSH2 0x21C3 PUSH1 0x0 DUP4 ADD DUP5 PUSH2 0x2004 JUMP JUMPDEST SWAP3 SWAP2 POP POP JUMP JUMPDEST PUSH1 0x0 PUSH1 0xE0 DUP3 ADD SWAP1 POP DUP2 DUP2 SUB PUSH1 0x0 DUP4 ADD MSTORE PUSH2 0x21E3 DUP2 DUP11 PUSH2 0x202A JUMP JUMPDEST SWAP1 POP DUP2 DUP2 SUB PUSH1 0x20 DUP4 ADD MSTORE PUSH2 0x21F7 DUP2 DUP10 PUSH2 0x202A JUMP JUMPDEST SWAP1 POP DUP2 DUP2 SUB PUSH1 0x40 DUP4 ADD MSTORE PUSH2 0x220B DUP2 DUP9 PUSH2 0x202A JUMP JUMPDEST SWAP1 POP PUSH2 0x221A PUSH1 0x60 DUP4 ADD DUP8 PUSH2 0x2120 JUMP JUMPDEST PUSH2 0x2227 PUSH1 0x80 DUP4 ADD DUP7 PUSH2 0x2120 JUMP JUMPDEST PUSH2 0x2234 PUSH1 0xA0 DUP4 ADD DUP6 PUSH2 0x2120 JUMP JUMPDEST PUSH2 0x2241 PUSH1 0xC0 DUP4 ADD DUP5 PUSH2 0x2120 JUMP JUMPDEST SWAP9 SWAP8 POP POP POP POP POP POP POP POP JUMP JUMPDEST PUSH1 0x0 PUSH1 0x20 DUP3 ADD SWAP1 POP DUP2 DUP2 SUB PUSH1 0x0 DUP4 ADD MSTORE PUSH2 0x2266 DUP2 PUSH2 0x2094 JUMP JUMPDEST SWAP1 POP SWAP2 SWAP1 POP JUMP JUMPDEST PUSH1 0x0 PUSH1 0x20 DUP3 ADD SWAP1 POP DUP2 DUP2 SUB PUSH1 0x0 DUP4 ADD MSTORE PUSH2 0x2286 DUP2 PUSH2 0x20B7 JUMP JUMPDEST SWAP1 POP SWAP2 SWAP1 POP JUMP JUMPDEST PUSH1 0x0 PUSH1 0x20 DUP3 ADD SWAP1 POP DUP2 DUP2 SUB PUSH1 0x0 DUP4 ADD MSTORE PUSH2 0x22A6 DUP2 PUSH2 0x20DA JUMP JUMPDEST SWAP1 POP SWAP2 SWAP1 POP JUMP JUMPDEST PUSH1 0x0 PUSH1 0x20 DUP3 ADD SWAP1 POP DUP2 DUP2 SUB PUSH1 0x0 DUP4 ADD MSTORE PUSH2 0x22C6 DUP2 PUSH2 0x20FD JUMP JUMPDEST SWAP1 POP SWAP2 SWAP1 POP JUMP JUMPDEST PUSH1 0x0 PUSH2 0x22D7 PUSH2 0x22E8 JUMP JUMPDEST SWAP1 POP PUSH2 0x22E3 DUP3 DUP3 PUSH2 0x2525 JUMP JUMPDEST SWAP2 SWAP1 POP JUMP JUMPDEST PUSH1 0x0 PUSH1 0x40 MLOAD SWAP1 POP SWAP1 JUMP JUMPDEST PUSH1 0x0 PUSH8 0xFFFFFFFFFFFFFFFF DUP3 GT ISZERO PUSH2 0x230D JUMPI PUSH2 0x230C PUSH2 0x266F JUMP JUMPDEST JUMPDEST PUSH2 0x2316 DUP3 PUSH2 0x26B2 JUMP JUMPDEST SWAP1 POP PUSH1 0x20 DUP2 ADD SWAP1 POP SWAP2 SWAP1 POP JUMP JUMPDEST PUSH1 0x0 DUP2 MLOAD SWAP1 POP SWAP2 SWAP1 POP JUMP JUMPDEST PUSH1 0x0 DUP3 DUP3 MSTORE PUSH1 0x20 DUP3 ADD SWAP1 POP SWAP3 SWAP2 POP POP JUMP JUMPDEST PUSH1 0x0 DUP2 SWAP1 POP SWAP3 SWAP2 POP POP JUMP JUMPDEST PUSH1 0x0 PUSH2 0x2355 DUP3 PUSH2 0x24A7 JUMP JUMPDEST SWAP2 POP PUSH2 0x2360 DUP4 PUSH2 0x24A7 JUMP JUMPDEST SWAP3 POP DUP3 PUSH32 0xFFFFFFFFFFFFFFFFFFFFFFFFFFFFFFFFFFFFFFFFFFFFFFFFFFFFFFFFFFFFFFFF SUB DUP3 GT ISZERO PUSH2 0x2395 JUMPI PUSH2 0x2394 PUSH2 0x25B3 JUMP JUMPDEST JUMPDEST DUP3 DUP3 ADD SWAP1 POP SWAP3 SWAP2 POP POP JUMP JUMPDEST PUSH1 0x0 PUSH2 0x23AB DUP3 PUSH2 0x24A7 JUMP JUMPDEST SWAP2 POP PUSH2 0x23B6 DUP4 PUSH2 0x24A7 JUMP JUMPDEST SWAP3 POP DUP3 PUSH2 0x23C6 JUMPI PUSH2 0x23C5 PUSH2 0x25E2 JUMP JUMPDEST JUMPDEST DUP3 DUP3 DIV SWAP1 POP SWAP3 SWAP2 POP POP JUMP JUMPDEST PUSH1 0x0 PUSH2 0x23DC DUP3 PUSH2 0x24A7 JUMP JUMPDEST SWAP2 POP PUSH2 0x23E7 DUP4 PUSH2 0x24A7 JUMP JUMPDEST SWAP3 POP DUP2 PUSH32 0xFFFFFFFFFFFFFFFFFFFFFFFFFFFFFFFFFFFFFFFFFFFFFFFFFFFFFFFFFFFFFFFF DIV DUP4 GT DUP3 ISZERO ISZERO AND ISZERO PUSH2 0x2420 JUMPI PUSH2 0x241F PUSH2 0x25B3 JUMP JUMPDEST JUMPDEST DUP3 DUP3 MUL SWAP1 POP SWAP3 SWAP2 POP POP JUMP JUMPDEST PUSH1 0x0 PUSH2 0x2436 DUP3 PUSH2 0x24A7 JUMP JUMPDEST SWAP2 POP PUSH2 0x2441 DUP4 PUSH2 0x24A7 JUMP JUMPDEST SWAP3 POP DUP3 DUP3 LT ISZERO PUSH2 0x2454 JUMPI PUSH2 0x2453 PUSH2 0x25B3 JUMP JUMPDEST JUMPDEST DUP3 DUP3 SUB SWAP1 POP SWAP3 SWAP2 POP POP JUMP JUMPDEST PUSH1 0x0 PUSH2 0x246A DUP3 PUSH2 0x2487 JUMP JUMPDEST SWAP1 POP SWAP2 SWAP1 POP JUMP JUMPDEST PUSH1 0x0 DUP2 ISZERO ISZERO SWAP1 POP SWAP2 SWAP1 POP JUMP JUMPDEST PUSH1 0x0 DUP2 SWAP1 POP SWAP2 SWAP1 POP JUMP JUMPDEST PUSH1 0x0 PUSH20 0xFFFFFFFFFFFFFFFFFFFFFFFFFFFFFFFFFFFFFFFF DUP3 AND SWAP1 POP SWAP2 SWAP1 POP JUMP JUMPDEST PUSH1 0x0 DUP2 SWAP1 POP SWAP2 SWAP1 POP JUMP JUMPDEST DUP3 DUP2 DUP4 CALLDATACOPY PUSH1 0x0 DUP4 DUP4 ADD MSTORE POP POP POP JUMP JUMPDEST PUSH1 0x0 JUMPDEST DUP4 DUP2 LT ISZERO PUSH2 0x24DE JUMPI DUP1 DUP3 ADD MLOAD DUP2 DUP5 ADD MSTORE PUSH1 0x20 DUP2 ADD SWAP1 POP PUSH2 0x24C3 JUMP JUMPDEST DUP4 DUP2 GT ISZERO PUSH2 0x24ED JUMPI PUSH1 0x0 DUP5 DUP5 ADD MSTORE JUMPDEST POP POP POP POP JUMP JUMPDEST PUSH1 0x0 PUSH1 0x2 DUP3 DIV SWAP1 POP PUSH1 0x1 DUP3 AND DUP1 PUSH2 0x250B JUMPI PUSH1 0x7F DUP3 AND SWAP2 POP JUMPDEST PUSH1 0x20 DUP3 LT DUP2 EQ ISZERO PUSH2 0x251F JUMPI PUSH2 0x251E PUSH2 0x2611 JUMP JUMPDEST JUMPDEST POP SWAP2 SWAP1 POP JUMP JUMPDEST PUSH2 0x252E DUP3 PUSH2 0x26B2 JUMP JUMPDEST DUP2 ADD DUP2 DUP2 LT PUSH8 0xFFFFFFFFFFFFFFFF DUP3 GT OR ISZERO PUSH2 0x254D JUMPI PUSH2 0x254C PUSH2 0x266F JUMP JUMPDEST JUMPDEST DUP1 PUSH1 0x40 MSTORE POP POP POP JUMP JUMPDEST PUSH1 0x0 PUSH2 0x2561 DUP3 PUSH2 0x24A7 JUMP JUMPDEST SWAP2 POP PUSH32 0xFFFFFFFFFFFFFFFFFFFFFFFFFFFFFFFFFFFFFFFFFFFFFFFFFFFFFFFFFFFFFFFF DUP3 EQ ISZERO PUSH2 0x2594 JUMPI PUSH2 0x2593 PUSH2 0x25B3 JUMP JUMPDEST JUMPDEST PUSH1 0x1 DUP3 ADD SWAP1 POP SWAP2 SWAP1 POP JUMP JUMPDEST PUSH1 0x0 DUP2 SWAP1 POP SWAP2 SWAP1 POP JUMP JUMPDEST PUSH1 0x0 DUP2 SWAP1 POP SWAP2 SWAP1 POP JUMP JUMPDEST PUSH32 0x4E487B7100000000000000000000000000000000000000000000000000000000 PUSH1 0x0 MSTORE PUSH1 0x11 PUSH1 0x4 MSTORE PUSH1 0x24 PUSH1 0x0 REVERT JUMPDEST PUSH32 0x4E487B7100000000000000000000000000000000000000000000000000000000 PUSH1 0x0 MSTORE PUSH1 0x12 PUSH1 0x4 MSTORE PUSH1 0x24 PUSH1 0x0 REVERT JUMPDEST PUSH32 0x4E487B7100000000000000000000000000000000000000000000000000000000 PUSH1 0x0 MSTORE PUSH1 0x22 PUSH1 0x4 MSTORE PUSH1 0x24 PUSH1 0x0 REVERT JUMPDEST PUSH32 0x4E487B7100000000000000000000000000000000000000000000000000000000 PUSH1 0x0 MSTORE PUSH1 0x32 PUSH1 0x4 MSTORE PUSH1 0x24 PUSH1 0x0 REVERT JUMPDEST PUSH32 0x4E487B7100000000000000000000000000000000000000000000000000000000 PUSH1 0x0 MSTORE PUSH1 0x41 PUSH1 0x4 MSTORE PUSH1 0x24 PUSH1 0x0 REVERT JUMPDEST PUSH1 0x0 DUP1 REVERT JUMPDEST PUSH1 0x0 DUP1 REVERT JUMPDEST PUSH1 0x0 DUP1 REVERT JUMPDEST PUSH1 0x0 DUP1 REVERT JUMPDEST PUSH1 0x0 PUSH1 0x1F NOT PUSH1 0x1F DUP4 ADD AND SWAP1 POP SWAP2 SWAP1 POP JUMP JUMPDEST PUSH32 0x4F6E6C79206F776E65722063616E2063616C6C20746869732E00000000000000 PUSH1 0x0 DUP3 ADD MSTORE POP JUMP JUMPDEST PUSH32 0x6E6F742065786973740000000000000000000000000000000000000000000000 PUSH1 0x0 DUP3 ADD MSTORE POP JUMP JUMPDEST PUSH32 0x706F6F6C206E6F74206578697374000000000000000000000000000000000000 PUSH1 0x0 DUP3 ADD MSTORE POP JUMP JUMPDEST PUSH32 0x7061697220657869737400000000000000000000000000000000000000000000 PUSH1 0x0 DUP3 ADD MSTORE POP JUMP JUMPDEST PUSH2 0x2770 DUP2 PUSH2 0x245F JUMP JUMPDEST DUP2 EQ PUSH2 0x277B JUMPI PUSH1 0x0 DUP1 REVERT JUMPDEST POP JUMP JUMPDEST PUSH2 0x2787 DUP2 PUSH2 0x2471 JUMP JUMPDEST DUP2 EQ PUSH2 0x2792 JUMPI PUSH1 0x0 DUP1 REVERT JUMPDEST POP JUMP JUMPDEST PUSH2 0x279E DUP2 PUSH2 0x247D JUMP JUMPDEST DUP2 EQ PUSH2 0x27A9 JUMPI PUSH1 0x0 DUP1 REVERT JUMPDEST POP JUMP JUMPDEST PUSH2 0x27B5 DUP2 PUSH2 0x24A7 JUMP JUMPDEST DUP2 EQ PUSH2 0x27C0 JUMPI PUSH1 0x0 DUP1 REVERT JUMPDEST POP JUMP INVALID LOG2 PUSH5 0x6970667358 0x22 SLT KECCAK256 0x22 0xE LOG4 LT 0xAE 0xB7 0xC7 0xDC 0xD0 0xC7 0xC9 DUP7 0xF9 MSTORE8 DUP4 0xE0 BASEFEE PUSH28 0x4A5C1EB0B64BF6E4A00F4BAB7F464736F6C63430008070033000000 "
				},
				"gasEstimates": {
					"creation": {
						"codeDepositCost": "2046600",
						"executionCost": "infinite",
						"totalCost": "infinite"
					},
					"external": {
						"Award(bytes32,uint256,uint256,uint256)": "infinite",
						"Picking(address,uint256,bytes32,uint256,uint256,uint256)": "infinite",
						"Set_Pool(string,string,string,bool)": "infinite",
						"getPair(bytes32)": "infinite"
					},
					"internal": {
						"addressToString(address)": "infinite",
						"bytes32ToString(bytes32)": "infinite",
						"contains(bytes32)": "2304",
						"strConcat(string memory,string memory)": "infinite",
						"stringCompare(string memory,string memory)": "infinite",
						"toString(bytes memory)": "infinite",
						"uint256ToString(uint256)": "infinite"
					}
				},
				"methodIdentifiers": {
					"Award(bytes32,uint256,uint256,uint256)": "74fe9bc2",
					"Picking(address,uint256,bytes32,uint256,uint256,uint256)": "47e4dd27",
					"Set_Pool(string,string,string,bool)": "357965ba",
					"getPair(bytes32)": "b8e5303d"
				}
			},
			"storageLayout": {
				"storage": [
					{
						"astId": 183,
						"contract": "wwcc-contracts/contracts/wwccPool.sol:WCPOOL",
						"label": "owner",
						"offset": 0,
						"slot": "0",
						"type": "t_address"
					},
					{
						"astId": 187,
						"contract": "wwcc-contracts/contracts/wwccPool.sol:WCPOOL",
						"label": "scorePools",
						"offset": 0,
						"slot": "1",
						"type": "t_mapping(t_string_memory_ptr,t_uint256)"
					},
					{
						"astId": 192,
						"contract": "wwcc-contracts/contracts/wwccPool.sol:WCPOOL",
						"label": "allScorePoolInfo",
						"offset": 0,
						"slot": "2",
						"type": "t_mapping(t_bytes32,t_struct(AllScorePool)156_storage)"
					},
					{
						"astId": 196,
						"contract": "wwcc-contracts/contracts/wwccPool.sol:WCPOOL",
						"label": "singleScorePool",
						"offset": 0,
						"slot": "3",
						"type": "t_mapping(t_string_memory_ptr,t_uint256)"
					},
					{
						"astId": 201,
						"contract": "wwcc-contracts/contracts/wwccPool.sol:WCPOOL",
						"label": "joinerAllPicking",
						"offset": 0,
						"slot": "4",
						"type": "t_mapping(t_address,t_struct(JoinerAllPicking)163_storage)"
					},
					{
						"astId": 206,
						"contract": "wwcc-contracts/contracts/wwccPool.sol:WCPOOL",
						"label": "WcPools",
						"offset": 0,
						"slot": "5",
						"type": "t_mapping(t_bytes32,t_struct(WcPool)149_storage)"
					}
				],
				"types": {
					"t_address": {
						"encoding": "inplace",
						"label": "address",
						"numberOfBytes": "20"
					},
					"t_array(t_struct(JoinerPicking)178_storage)dyn_storage": {
						"base": "t_struct(JoinerPicking)178_storage",
						"encoding": "dynamic_array",
						"label": "struct WCPOOL.JoinerPicking[]",
						"numberOfBytes": "32"
					},
					"t_bool": {
						"encoding": "inplace",
						"label": "bool",
						"numberOfBytes": "1"
					},
					"t_bytes32": {
						"encoding": "inplace",
						"label": "bytes32",
						"numberOfBytes": "32"
					},
					"t_mapping(t_address,t_struct(JoinerAllPicking)163_storage)": {
						"encoding": "mapping",
						"key": "t_address",
						"label": "mapping(address => struct WCPOOL.JoinerAllPicking)",
						"numberOfBytes": "32",
						"value": "t_struct(JoinerAllPicking)163_storage"
					},
					"t_mapping(t_bytes32,t_struct(AllScorePool)156_storage)": {
						"encoding": "mapping",
						"key": "t_bytes32",
						"label": "mapping(bytes32 => struct WCPOOL.AllScorePool)",
						"numberOfBytes": "32",
						"value": "t_struct(AllScorePool)156_storage"
					},
					"t_mapping(t_bytes32,t_struct(WcPool)149_storage)": {
						"encoding": "mapping",
						"key": "t_bytes32",
						"label": "mapping(bytes32 => struct WCPOOL.WcPool)",
						"numberOfBytes": "32",
						"value": "t_struct(WcPool)149_storage"
					},
					"t_mapping(t_string_memory_ptr,t_uint256)": {
						"encoding": "mapping",
						"key": "t_string_memory_ptr",
						"label": "mapping(string => uint256)",
						"numberOfBytes": "32",
						"value": "t_uint256"
					},
					"t_string_memory_ptr": {
						"encoding": "bytes",
						"label": "string",
						"numberOfBytes": "32"
					},
					"t_string_storage": {
						"encoding": "bytes",
						"label": "string",
						"numberOfBytes": "32"
					},
					"t_struct(AllScorePool)156_storage": {
						"encoding": "inplace",
						"label": "struct WCPOOL.AllScorePool",
						"members": [
							{
								"astId": 153,
								"contract": "wwcc-contracts/contracts/wwccPool.sol:WCPOOL",
								"label": "separateBet",
								"offset": 0,
								"slot": "0",
								"type": "t_array(t_struct(JoinerPicking)178_storage)dyn_storage"
							},
							{
								"astId": 155,
								"contract": "wwcc-contracts/contracts/wwccPool.sol:WCPOOL",
								"label": "poolKey",
								"offset": 0,
								"slot": "1",
								"type": "t_bytes32"
							}
						],
						"numberOfBytes": "64"
					},
					"t_struct(JoinerAllPicking)163_storage": {
						"encoding": "inplace",
						"label": "struct WCPOOL.JoinerAllPicking",
						"members": [
							{
								"astId": 160,
								"contract": "wwcc-contracts/contracts/wwccPool.sol:WCPOOL",
								"label": "separateBet",
								"offset": 0,
								"slot": "0",
								"type": "t_array(t_struct(JoinerPicking)178_storage)dyn_storage"
							},
							{
								"astId": 162,
								"contract": "wwcc-contracts/contracts/wwccPool.sol:WCPOOL",
								"label": "joiner",
								"offset": 0,
								"slot": "1",
								"type": "t_address"
							}
						],
						"numberOfBytes": "64"
					},
					"t_struct(JoinerPicking)178_storage": {
						"encoding": "inplace",
						"label": "struct WCPOOL.JoinerPicking",
						"members": [
							{
								"astId": 165,
								"contract": "wwcc-contracts/contracts/wwccPool.sol:WCPOOL",
								"label": "weight",
								"offset": 0,
								"slot": "0",
								"type": "t_uint256"
							},
							{
								"astId": 167,
								"contract": "wwcc-contracts/contracts/wwccPool.sol:WCPOOL",
								"label": "kind",
								"offset": 0,
								"slot": "1",
								"type": "t_uint256"
							},
							{
								"astId": 169,
								"contract": "wwcc-contracts/contracts/wwccPool.sol:WCPOOL",
								"label": "homeScore",
								"offset": 0,
								"slot": "2",
								"type": "t_uint256"
							},
							{
								"astId": 171,
								"contract": "wwcc-contracts/contracts/wwccPool.sol:WCPOOL",
								"label": "visitScore",
								"offset": 0,
								"slot": "3",
								"type": "t_uint256"
							},
							{
								"astId": 173,
								"contract": "wwcc-contracts/contracts/wwccPool.sol:WCPOOL",
								"label": "joiner",
								"offset": 0,
								"slot": "4",
								"type": "t_address"
							},
							{
								"astId": 175,
								"contract": "wwcc-contracts/contracts/wwccPool.sol:WCPOOL",
								"label": "pickingKey",
								"offset": 0,
								"slot": "5",
								"type": "t_string_storage"
							},
							{
								"astId": 177,
								"contract": "wwcc-contracts/contracts/wwccPool.sol:WCPOOL",
								"label": "finished",
								"offset": 0,
								"slot": "6",
								"type": "t_bool"
							}
						],
						"numberOfBytes": "224"
					},
					"t_struct(WcPool)149_storage": {
						"encoding": "inplace",
						"label": "struct WCPOOL.WcPool",
						"members": [
							{
								"astId": 132,
								"contract": "wwcc-contracts/contracts/wwccPool.sol:WCPOOL",
								"label": "home",
								"offset": 0,
								"slot": "0",
								"type": "t_string_storage"
							},
							{
								"astId": 134,
								"contract": "wwcc-contracts/contracts/wwccPool.sol:WCPOOL",
								"label": "visit",
								"offset": 0,
								"slot": "1",
								"type": "t_string_storage"
							},
							{
								"astId": 136,
								"contract": "wwcc-contracts/contracts/wwccPool.sol:WCPOOL",
								"label": "rounds",
								"offset": 0,
								"slot": "2",
								"type": "t_string_storage"
							},
							{
								"astId": 138,
								"contract": "wwcc-contracts/contracts/wwccPool.sol:WCPOOL",
								"label": "wPool",
								"offset": 0,
								"slot": "3",
								"type": "t_uint256"
							},
							{
								"astId": 140,
								"contract": "wwcc-contracts/contracts/wwccPool.sol:WCPOOL",
								"label": "dPool",
								"offset": 0,
								"slot": "4",
								"type": "t_uint256"
							},
							{
								"astId": 142,
								"contract": "wwcc-contracts/contracts/wwccPool.sol:WCPOOL",
								"label": "lPool",
								"offset": 0,
								"slot": "5",
								"type": "t_uint256"
							},
							{
								"astId": 144,
								"contract": "wwcc-contracts/contracts/wwccPool.sol:WCPOOL",
								"label": "sPool",
								"offset": 0,
								"slot": "6",
								"type": "t_uint256"
							},
							{
								"astId": 146,
								"contract": "wwcc-contracts/contracts/wwccPool.sol:WCPOOL",
								"label": "decided",
								"offset": 0,
								"slot": "7",
								"type": "t_bool"
							},
							{
								"astId": 148,
								"contract": "wwcc-contracts/contracts/wwccPool.sol:WCPOOL",
								"label": "used",
								"offset": 1,
								"slot": "7",
								"type": "t_bool"
							}
						],
						"numberOfBytes": "256"
					},
					"t_uint256": {
						"encoding": "inplace",
						"label": "uint256",
						"numberOfBytes": "32"
					}
				}
			},
			"userdoc": {
				"kind": "user",
				"methods": {},
				"version": 1
			}
		}
	}
}