{
	"wwcc-contracts/contracts/nftswaptest.sol": {
		"NFTSWAP": {
			"abi": [
				{
					"inputs": [
						{
							"internalType": "address",
							"name": "holder",
							"type": "address"
						}
					],
					"stateMutability": "nonpayable",
					"type": "constructor"
				},
				{
					"anonymous": false,
					"inputs": [
						{
							"indexed": false,
							"internalType": "address",
							"name": "owner",
							"type": "address"
						},
						{
							"indexed": false,
							"internalType": "address",
							"name": "spender",
							"type": "address"
						},
						{
							"indexed": false,
							"internalType": "uint256",
							"name": "value",
							"type": "uint256"
						}
					],
					"name": "Approval",
					"type": "event"
				},
				{
					"anonymous": false,
					"inputs": [
						{
							"indexed": false,
							"internalType": "address",
							"name": "owner",
							"type": "address"
						},
						{
							"indexed": false,
							"internalType": "address",
							"name": "spender",
							"type": "address"
						},
						{
							"indexed": false,
							"internalType": "uint256",
							"name": "value",
							"type": "uint256"
						}
					],
					"name": "Transfer",
					"type": "event"
				},
				{
					"inputs": [
						{
							"internalType": "bytes32",
							"name": "pairKey",
							"type": "bytes32"
						}
					],
					"name": "getPair",
					"outputs": [
						{
							"internalType": "address",
							"name": "token1",
							"type": "address"
						},
						{
							"internalType": "address",
							"name": "token2",
							"type": "address"
						},
						{
							"internalType": "uint256",
							"name": "token1Pool",
							"type": "uint256"
						},
						{
							"internalType": "uint256",
							"name": "token2Pool",
							"type": "uint256"
						}
					],
					"stateMutability": "view",
					"type": "function"
				},
				{
					"inputs": [
						{
							"internalType": "address",
							"name": "token1",
							"type": "address"
						},
						{
							"internalType": "address",
							"name": "token2",
							"type": "address"
						}
					],
					"name": "set_Pair",
					"outputs": [
						{
							"internalType": "bytes32",
							"name": "",
							"type": "bytes32"
						}
					],
					"stateMutability": "nonpayable",
					"type": "function"
				}
			],
			"devdoc": {
				"kind": "dev",
				"methods": {},
				"version": 1
			},
			"evm": {
				"assembly": "    /* \"wwcc-contracts/contracts/nftswaptest.sol\":72:3679  contract NFTSWAP {... */\n  mstore(0x40, 0x80)\n    /* \"wwcc-contracts/contracts/nftswaptest.sol\":591:749  constructor(... */\n  callvalue\n  dup1\n  iszero\n  tag_1\n  jumpi\n  0x00\n  dup1\n  revert\ntag_1:\n  pop\n  mload(0x40)\n  sub(codesize, bytecodeSize)\n  dup1\n  bytecodeSize\n  dup4\n  codecopy\n  dup2\n  dup2\n  add\n  0x40\n  mstore\n  dup2\n  add\n  swap1\n  tag_2\n  swap2\n  swap1\n  tag_3\n  jump\t// in\ntag_2:\n    /* \"wwcc-contracts/contracts/nftswaptest.sol\":653:654  0 */\n  0x00\n    /* \"wwcc-contracts/contracts/nftswaptest.sol\":645:650  index */\n  dup1\n    /* \"wwcc-contracts/contracts/nftswaptest.sol\":645:654  index = 0 */\n  dup2\n  swap1\n  sstore\n  pop\n    /* \"wwcc-contracts/contracts/nftswaptest.sol\":736:742  holder */\n  dup1\n    /* \"wwcc-contracts/contracts/nftswaptest.sol\":728:733  owner */\n  0x01\n  0x00\n    /* \"wwcc-contracts/contracts/nftswaptest.sol\":728:742  owner = holder */\n  0x0100\n  exp\n  dup2\n  sload\n  dup2\n  0xffffffffffffffffffffffffffffffffffffffff\n  mul\n  not\n  and\n  swap1\n  dup4\n  0xffffffffffffffffffffffffffffffffffffffff\n  and\n  mul\n  or\n  swap1\n  sstore\n  pop\n    /* \"wwcc-contracts/contracts/nftswaptest.sol\":591:749  constructor(... */\n  pop\n    /* \"wwcc-contracts/contracts/nftswaptest.sol\":72:3679  contract NFTSWAP {... */\n  jump(tag_6)\n    /* \"#utility.yul\":7:150   */\ntag_8:\n    /* \"#utility.yul\":64:69   */\n  0x00\n    /* \"#utility.yul\":95:101   */\n  dup2\n    /* \"#utility.yul\":89:102   */\n  mload\n    /* \"#utility.yul\":80:102   */\n  swap1\n  pop\n    /* \"#utility.yul\":111:144   */\n  tag_10\n    /* \"#utility.yul\":138:143   */\n  dup2\n    /* \"#utility.yul\":111:144   */\n  tag_11\n  jump\t// in\ntag_10:\n    /* \"#utility.yul\":7:150   */\n  swap3\n  swap2\n  pop\n  pop\n  jump\t// out\n    /* \"#utility.yul\":156:507   */\ntag_3:\n    /* \"#utility.yul\":226:232   */\n  0x00\n    /* \"#utility.yul\":275:277   */\n  0x20\n    /* \"#utility.yul\":263:272   */\n  dup3\n    /* \"#utility.yul\":254:261   */\n  dup5\n    /* \"#utility.yul\":250:273   */\n  sub\n    /* \"#utility.yul\":246:278   */\n  slt\n    /* \"#utility.yul\":243:362   */\n  iszero\n  tag_13\n  jumpi\n    /* \"#utility.yul\":281:360   */\n  tag_14\n  tag_15\n  jump\t// in\ntag_14:\n    /* \"#utility.yul\":243:362   */\ntag_13:\n    /* \"#utility.yul\":401:402   */\n  0x00\n    /* \"#utility.yul\":426:490   */\n  tag_16\n    /* \"#utility.yul\":482:489   */\n  dup5\n    /* \"#utility.yul\":473:479   */\n  dup3\n    /* \"#utility.yul\":462:471   */\n  dup6\n    /* \"#utility.yul\":458:480   */\n  add\n    /* \"#utility.yul\":426:490   */\n  tag_8\n  jump\t// in\ntag_16:\n    /* \"#utility.yul\":416:490   */\n  swap2\n  pop\n    /* \"#utility.yul\":372:500   */\n  pop\n    /* \"#utility.yul\":156:507   */\n  swap3\n  swap2\n  pop\n  pop\n  jump\t// out\n    /* \"#utility.yul\":594:690   */\ntag_19:\n    /* \"#utility.yul\":631:638   */\n  0x00\n    /* \"#utility.yul\":660:684   */\n  tag_21\n    /* \"#utility.yul\":678:683   */\n  dup3\n    /* \"#utility.yul\":660:684   */\n  tag_22\n  jump\t// in\ntag_21:\n    /* \"#utility.yul\":649:684   */\n  swap1\n  pop\n    /* \"#utility.yul\":594:690   */\n  swap2\n  swap1\n  pop\n  jump\t// out\n    /* \"#utility.yul\":696:822   */\ntag_22:\n    /* \"#utility.yul\":733:740   */\n  0x00\n    /* \"#utility.yul\":773:815   */\n  0xffffffffffffffffffffffffffffffffffffffff\n    /* \"#utility.yul\":766:771   */\n  dup3\n    /* \"#utility.yul\":762:816   */\n  and\n    /* \"#utility.yul\":751:816   */\n  swap1\n  pop\n    /* \"#utility.yul\":696:822   */\n  swap2\n  swap1\n  pop\n  jump\t// out\n    /* \"#utility.yul\":951:1068   */\ntag_15:\n    /* \"#utility.yul\":1060:1061   */\n  0x00\n    /* \"#utility.yul\":1057:1058   */\n  dup1\n    /* \"#utility.yul\":1050:1062   */\n  revert\n    /* \"#utility.yul\":1074:1196   */\ntag_11:\n    /* \"#utility.yul\":1147:1171   */\n  tag_28\n    /* \"#utility.yul\":1165:1170   */\n  dup2\n    /* \"#utility.yul\":1147:1171   */\n  tag_19\n  jump\t// in\ntag_28:\n    /* \"#utility.yul\":1140:1145   */\n  dup2\n    /* \"#utility.yul\":1137:1172   */\n  eq\n    /* \"#utility.yul\":1127:1190   */\n  tag_29\n  jumpi\n    /* \"#utility.yul\":1186:1187   */\n  0x00\n    /* \"#utility.yul\":1183:1184   */\n  dup1\n    /* \"#utility.yul\":1176:1188   */\n  revert\n    /* \"#utility.yul\":1127:1190   */\ntag_29:\n    /* \"#utility.yul\":1074:1196   */\n  pop\n  jump\t// out\n    /* \"wwcc-contracts/contracts/nftswaptest.sol\":72:3679  contract NFTSWAP {... */\ntag_6:\n  dataSize(sub_0)\n  dup1\n  dataOffset(sub_0)\n  0x00\n  codecopy\n  0x00\n  return\nstop\n\nsub_0: assembly {\n        /* \"wwcc-contracts/contracts/nftswaptest.sol\":72:3679  contract NFTSWAP {... */\n      mstore(0x40, 0x80)\n      callvalue\n      dup1\n      iszero\n      tag_1\n      jumpi\n      0x00\n      dup1\n      revert\n    tag_1:\n      pop\n      jumpi(tag_2, lt(calldatasize, 0x04))\n      shr(0xe0, calldataload(0x00))\n      dup1\n      0xb8e5303d\n      eq\n      tag_3\n      jumpi\n      dup1\n      0xd8aedd86\n      eq\n      tag_4\n      jumpi\n    tag_2:\n      0x00\n      dup1\n      revert\n        /* \"wwcc-contracts/contracts/nftswaptest.sol\":1557:1895  function getPair(bytes32 pairKey) external view returns (address token1,address token2,uint256 token1Pool,uint256 token2Pool){... */\n    tag_3:\n      tag_5\n      0x04\n      dup1\n      calldatasize\n      sub\n      dup2\n      add\n      swap1\n      tag_6\n      swap2\n      swap1\n      tag_7\n      jump\t// in\n    tag_6:\n      tag_8\n      jump\t// in\n    tag_5:\n      mload(0x40)\n      tag_9\n      swap5\n      swap4\n      swap3\n      swap2\n      swap1\n      tag_10\n      jump\t// in\n    tag_9:\n      mload(0x40)\n      dup1\n      swap2\n      sub\n      swap1\n      return\n        /* \"wwcc-contracts/contracts/nftswaptest.sol\":754:1552  function set_Pair(... */\n    tag_4:\n      tag_11\n      0x04\n      dup1\n      calldatasize\n      sub\n      dup2\n      add\n      swap1\n      tag_12\n      swap2\n      swap1\n      tag_13\n      jump\t// in\n    tag_12:\n      tag_14\n      jump\t// in\n    tag_11:\n      mload(0x40)\n      tag_15\n      swap2\n      swap1\n      tag_16\n      jump\t// in\n    tag_15:\n      mload(0x40)\n      dup1\n      swap2\n      sub\n      swap1\n      return\n        /* \"wwcc-contracts/contracts/nftswaptest.sol\":1557:1895  function getPair(bytes32 pairKey) external view returns (address token1,address token2,uint256 token1Pool,uint256 token2Pool){... */\n    tag_8:\n        /* \"wwcc-contracts/contracts/nftswaptest.sol\":1614:1628  address token1 */\n      0x00\n        /* \"wwcc-contracts/contracts/nftswaptest.sol\":1629:1643  address token2 */\n      dup1\n        /* \"wwcc-contracts/contracts/nftswaptest.sol\":1644:1662  uint256 token1Pool */\n      0x00\n        /* \"wwcc-contracts/contracts/nftswaptest.sol\":1663:1681  uint256 token2Pool */\n      dup1\n        /* \"wwcc-contracts/contracts/nftswaptest.sol\":1696:1713  contains(pairKey) */\n      tag_18\n        /* \"wwcc-contracts/contracts/nftswaptest.sol\":1705:1712  pairKey */\n      dup6\n        /* \"wwcc-contracts/contracts/nftswaptest.sol\":1696:1704  contains */\n      tag_19\n        /* \"wwcc-contracts/contracts/nftswaptest.sol\":1696:1713  contains(pairKey) */\n      jump\t// in\n    tag_18:\n        /* \"wwcc-contracts/contracts/nftswaptest.sol\":1692:1889  if(!contains(pairKey)) { ... */\n      tag_20\n      jumpi\n        /* \"wwcc-contracts/contracts/nftswaptest.sol\":1730:1749  revert(\"not exist\") */\n      mload(0x40)\n      0x08c379a000000000000000000000000000000000000000000000000000000000\n      dup2\n      mstore\n      0x04\n      add\n      tag_21\n      swap1\n      tag_22\n      jump\t// in\n    tag_21:\n      mload(0x40)\n      dup1\n      swap2\n      sub\n      swap1\n      revert\n        /* \"wwcc-contracts/contracts/nftswaptest.sol\":1692:1889  if(!contains(pairKey)) { ... */\n    tag_20:\n        /* \"wwcc-contracts/contracts/nftswaptest.sol\":1786:1790  pair */\n      0x02\n        /* \"wwcc-contracts/contracts/nftswaptest.sol\":1786:1799  pair[pairKey] */\n      0x00\n        /* \"wwcc-contracts/contracts/nftswaptest.sol\":1791:1798  pairKey */\n      dup7\n        /* \"wwcc-contracts/contracts/nftswaptest.sol\":1786:1799  pair[pairKey] */\n      dup2\n      mstore\n      0x20\n      add\n      swap1\n      dup2\n      mstore\n      0x20\n      add\n      0x00\n      keccak256\n        /* \"wwcc-contracts/contracts/nftswaptest.sol\":1786:1806  pair[pairKey].token1 */\n      0x00\n      add\n      0x00\n      swap1\n      sload\n      swap1\n      0x0100\n      exp\n      swap1\n      div\n      0xffffffffffffffffffffffffffffffffffffffff\n      and\n        /* \"wwcc-contracts/contracts/nftswaptest.sol\":1807:1811  pair */\n      0x02\n        /* \"wwcc-contracts/contracts/nftswaptest.sol\":1807:1820  pair[pairKey] */\n      0x00\n        /* \"wwcc-contracts/contracts/nftswaptest.sol\":1812:1819  pairKey */\n      dup8\n        /* \"wwcc-contracts/contracts/nftswaptest.sol\":1807:1820  pair[pairKey] */\n      dup2\n      mstore\n      0x20\n      add\n      swap1\n      dup2\n      mstore\n      0x20\n      add\n      0x00\n      keccak256\n        /* \"wwcc-contracts/contracts/nftswaptest.sol\":1807:1827  pair[pairKey].token2 */\n      0x01\n      add\n      0x00\n      swap1\n      sload\n      swap1\n      0x0100\n      exp\n      swap1\n      div\n      0xffffffffffffffffffffffffffffffffffffffff\n      and\n        /* \"wwcc-contracts/contracts/nftswaptest.sol\":1828:1832  pair */\n      0x02\n        /* \"wwcc-contracts/contracts/nftswaptest.sol\":1828:1841  pair[pairKey] */\n      0x00\n        /* \"wwcc-contracts/contracts/nftswaptest.sol\":1833:1840  pairKey */\n      dup9\n        /* \"wwcc-contracts/contracts/nftswaptest.sol\":1828:1841  pair[pairKey] */\n      dup2\n      mstore\n      0x20\n      add\n      swap1\n      dup2\n      mstore\n      0x20\n      add\n      0x00\n      keccak256\n        /* \"wwcc-contracts/contracts/nftswaptest.sol\":1828:1852  pair[pairKey].token1Pool */\n      0x02\n      add\n      sload\n        /* \"wwcc-contracts/contracts/nftswaptest.sol\":1853:1857  pair */\n      0x02\n        /* \"wwcc-contracts/contracts/nftswaptest.sol\":1853:1866  pair[pairKey] */\n      0x00\n        /* \"wwcc-contracts/contracts/nftswaptest.sol\":1858:1865  pairKey */\n      dup10\n        /* \"wwcc-contracts/contracts/nftswaptest.sol\":1853:1866  pair[pairKey] */\n      dup2\n      mstore\n      0x20\n      add\n      swap1\n      dup2\n      mstore\n      0x20\n      add\n      0x00\n      keccak256\n        /* \"wwcc-contracts/contracts/nftswaptest.sol\":1853:1877  pair[pairKey].token2Pool */\n      0x03\n      add\n      sload\n        /* \"wwcc-contracts/contracts/nftswaptest.sol\":1778:1878  return (pair[pairKey].token1,pair[pairKey].token2,pair[pairKey].token1Pool,pair[pairKey].token2Pool) */\n      swap4\n      pop\n      swap4\n      pop\n      swap4\n      pop\n      swap4\n      pop\n        /* \"wwcc-contracts/contracts/nftswaptest.sol\":1557:1895  function getPair(bytes32 pairKey) external view returns (address token1,address token2,uint256 token1Pool,uint256 token2Pool){... */\n      swap2\n      swap4\n      pop\n      swap2\n      swap4\n      jump\t// out\n        /* \"wwcc-contracts/contracts/nftswaptest.sol\":754:1552  function set_Pair(... */\n    tag_14:\n        /* \"wwcc-contracts/contracts/nftswaptest.sol\":837:844  bytes32 */\n      0x00\n        /* \"wwcc-contracts/contracts/nftswaptest.sol\":855:876  string memory sToken1 */\n      dup1\n        /* \"wwcc-contracts/contracts/nftswaptest.sol\":879:902  addressToString(token1) */\n      tag_25\n        /* \"wwcc-contracts/contracts/nftswaptest.sol\":895:901  token1 */\n      dup5\n        /* \"wwcc-contracts/contracts/nftswaptest.sol\":879:894  addressToString */\n      tag_26\n        /* \"wwcc-contracts/contracts/nftswaptest.sol\":879:902  addressToString(token1) */\n      jump\t// in\n    tag_25:\n        /* \"wwcc-contracts/contracts/nftswaptest.sol\":855:902  string memory sToken1 = addressToString(token1) */\n      swap1\n      pop\n        /* \"wwcc-contracts/contracts/nftswaptest.sol\":911:932  string memory sToken2 */\n      0x00\n        /* \"wwcc-contracts/contracts/nftswaptest.sol\":935:958  addressToString(token2) */\n      tag_27\n        /* \"wwcc-contracts/contracts/nftswaptest.sol\":951:957  token2 */\n      dup5\n        /* \"wwcc-contracts/contracts/nftswaptest.sol\":935:950  addressToString */\n      tag_26\n        /* \"wwcc-contracts/contracts/nftswaptest.sol\":935:958  addressToString(token2) */\n      jump\t// in\n    tag_27:\n        /* \"wwcc-contracts/contracts/nftswaptest.sol\":911:958  string memory sToken2 = addressToString(token2) */\n      swap1\n      pop\n        /* \"wwcc-contracts/contracts/nftswaptest.sol\":967:982  string memory s */\n      0x00\n        /* \"wwcc-contracts/contracts/nftswaptest.sol\":985:1011  strConcat(sToken1,sToken2) */\n      tag_28\n        /* \"wwcc-contracts/contracts/nftswaptest.sol\":995:1002  sToken1 */\n      dup4\n        /* \"wwcc-contracts/contracts/nftswaptest.sol\":1003:1010  sToken2 */\n      dup4\n        /* \"wwcc-contracts/contracts/nftswaptest.sol\":985:994  strConcat */\n      tag_29\n        /* \"wwcc-contracts/contracts/nftswaptest.sol\":985:1011  strConcat(sToken1,sToken2) */\n      jump\t// in\n    tag_28:\n        /* \"wwcc-contracts/contracts/nftswaptest.sol\":967:1011  string memory s = strConcat(sToken1,sToken2) */\n      swap1\n      pop\n        /* \"wwcc-contracts/contracts/nftswaptest.sol\":1020:1035  bytes32 pairKey */\n      0x00\n        /* \"wwcc-contracts/contracts/nftswaptest.sol\":1065:1066  s */\n      dup2\n        /* \"wwcc-contracts/contracts/nftswaptest.sol\":1048:1067  abi.encodePacked(s) */\n      add(0x20, mload(0x40))\n      tag_30\n      swap2\n      swap1\n      tag_31\n      jump\t// in\n    tag_30:\n      mload(0x40)\n      0x20\n      dup2\n      dup4\n      sub\n      sub\n      dup2\n      mstore\n      swap1\n      0x40\n      mstore\n        /* \"wwcc-contracts/contracts/nftswaptest.sol\":1038:1068  keccak256(abi.encodePacked(s)) */\n      dup1\n      mload\n      swap1\n      0x20\n      add\n      keccak256\n        /* \"wwcc-contracts/contracts/nftswaptest.sol\":1020:1068  bytes32 pairKey = keccak256(abi.encodePacked(s)) */\n      swap1\n      pop\n        /* \"wwcc-contracts/contracts/nftswaptest.sol\":1080:1097  contains(pairKey) */\n      tag_32\n        /* \"wwcc-contracts/contracts/nftswaptest.sol\":1089:1096  pairKey */\n      dup2\n        /* \"wwcc-contracts/contracts/nftswaptest.sol\":1080:1088  contains */\n      tag_19\n        /* \"wwcc-contracts/contracts/nftswaptest.sol\":1080:1097  contains(pairKey) */\n      jump\t// in\n    tag_32:\n        /* \"wwcc-contracts/contracts/nftswaptest.sol\":1077:1523  if(contains(pairKey)) { ... */\n      iszero\n      tag_33\n      jumpi\n        /* \"wwcc-contracts/contracts/nftswaptest.sol\":1114:1134  revert(\"pair exist\") */\n      mload(0x40)\n      0x08c379a000000000000000000000000000000000000000000000000000000000\n      dup2\n      mstore\n      0x04\n      add\n      tag_34\n      swap1\n      tag_35\n      jump\t// in\n    tag_34:\n      mload(0x40)\n      dup1\n      swap2\n      sub\n      swap1\n      revert\n        /* \"wwcc-contracts/contracts/nftswaptest.sol\":1077:1523  if(contains(pairKey)) { ... */\n    tag_33:\n        /* \"wwcc-contracts/contracts/nftswaptest.sol\":1165:1195  stringCompare(sToken1,sToken2) */\n      tag_37\n        /* \"wwcc-contracts/contracts/nftswaptest.sol\":1179:1186  sToken1 */\n      dup5\n        /* \"wwcc-contracts/contracts/nftswaptest.sol\":1187:1194  sToken2 */\n      dup5\n        /* \"wwcc-contracts/contracts/nftswaptest.sol\":1165:1178  stringCompare */\n      tag_38\n        /* \"wwcc-contracts/contracts/nftswaptest.sol\":1165:1195  stringCompare(sToken1,sToken2) */\n      jump\t// in\n    tag_37:\n        /* \"wwcc-contracts/contracts/nftswaptest.sol\":1161:1247  if (stringCompare(sToken1,sToken2)){... */\n      iszero\n      tag_39\n      jumpi\n        /* \"wwcc-contracts/contracts/nftswaptest.sol\":1213:1233  revert(\"same token\") */\n      mload(0x40)\n      0x08c379a000000000000000000000000000000000000000000000000000000000\n      dup2\n      mstore\n      0x04\n      add\n      tag_40\n      swap1\n      tag_41\n      jump\t// in\n    tag_40:\n      mload(0x40)\n      dup1\n      swap2\n      sub\n      swap1\n      revert\n        /* \"wwcc-contracts/contracts/nftswaptest.sol\":1161:1247  if (stringCompare(sToken1,sToken2)){... */\n    tag_39:\n        /* \"wwcc-contracts/contracts/nftswaptest.sol\":1280:1284  true */\n      0x01\n        /* \"wwcc-contracts/contracts/nftswaptest.sol\":1259:1263  pair */\n      0x02\n        /* \"wwcc-contracts/contracts/nftswaptest.sol\":1259:1272  pair[pairKey] */\n      0x00\n        /* \"wwcc-contracts/contracts/nftswaptest.sol\":1264:1271  pairKey */\n      dup4\n        /* \"wwcc-contracts/contracts/nftswaptest.sol\":1259:1272  pair[pairKey] */\n      dup2\n      mstore\n      0x20\n      add\n      swap1\n      dup2\n      mstore\n      0x20\n      add\n      0x00\n      keccak256\n        /* \"wwcc-contracts/contracts/nftswaptest.sol\":1259:1277  pair[pairKey].used */\n      0x04\n      add\n      0x00\n        /* \"wwcc-contracts/contracts/nftswaptest.sol\":1259:1284  pair[pairKey].used = true */\n      0x0100\n      exp\n      dup2\n      sload\n      dup2\n      0xff\n      mul\n      not\n      and\n      swap1\n      dup4\n      iszero\n      iszero\n      mul\n      or\n      swap1\n      sstore\n      pop\n        /* \"wwcc-contracts/contracts/nftswaptest.sol\":1320:1326  token1 */\n      dup7\n        /* \"wwcc-contracts/contracts/nftswaptest.sol\":1297:1301  pair */\n      0x02\n        /* \"wwcc-contracts/contracts/nftswaptest.sol\":1297:1310  pair[pairKey] */\n      0x00\n        /* \"wwcc-contracts/contracts/nftswaptest.sol\":1302:1309  pairKey */\n      dup4\n        /* \"wwcc-contracts/contracts/nftswaptest.sol\":1297:1310  pair[pairKey] */\n      dup2\n      mstore\n      0x20\n      add\n      swap1\n      dup2\n      mstore\n      0x20\n      add\n      0x00\n      keccak256\n        /* \"wwcc-contracts/contracts/nftswaptest.sol\":1297:1317  pair[pairKey].token1 */\n      0x00\n      add\n      0x00\n        /* \"wwcc-contracts/contracts/nftswaptest.sol\":1297:1326  pair[pairKey].token1 = token1 */\n      0x0100\n      exp\n      dup2\n      sload\n      dup2\n      0xffffffffffffffffffffffffffffffffffffffff\n      mul\n      not\n      and\n      swap1\n      dup4\n      0xffffffffffffffffffffffffffffffffffffffff\n      and\n      mul\n      or\n      swap1\n      sstore\n      pop\n        /* \"wwcc-contracts/contracts/nftswaptest.sol\":1362:1368  token2 */\n      dup6\n        /* \"wwcc-contracts/contracts/nftswaptest.sol\":1339:1343  pair */\n      0x02\n        /* \"wwcc-contracts/contracts/nftswaptest.sol\":1339:1352  pair[pairKey] */\n      0x00\n        /* \"wwcc-contracts/contracts/nftswaptest.sol\":1344:1351  pairKey */\n      dup4\n        /* \"wwcc-contracts/contracts/nftswaptest.sol\":1339:1352  pair[pairKey] */\n      dup2\n      mstore\n      0x20\n      add\n      swap1\n      dup2\n      mstore\n      0x20\n      add\n      0x00\n      keccak256\n        /* \"wwcc-contracts/contracts/nftswaptest.sol\":1339:1359  pair[pairKey].token2 */\n      0x01\n      add\n      0x00\n        /* \"wwcc-contracts/contracts/nftswaptest.sol\":1339:1368  pair[pairKey].token2 = token2 */\n      0x0100\n      exp\n      dup2\n      sload\n      dup2\n      0xffffffffffffffffffffffffffffffffffffffff\n      mul\n      not\n      and\n      swap1\n      dup4\n      0xffffffffffffffffffffffffffffffffffffffff\n      and\n      mul\n      or\n      swap1\n      sstore\n      pop\n        /* \"wwcc-contracts/contracts/nftswaptest.sol\":1408:1409  0 */\n      0x00\n        /* \"wwcc-contracts/contracts/nftswaptest.sol\":1381:1385  pair */\n      0x02\n        /* \"wwcc-contracts/contracts/nftswaptest.sol\":1381:1394  pair[pairKey] */\n      0x00\n        /* \"wwcc-contracts/contracts/nftswaptest.sol\":1386:1393  pairKey */\n      dup4\n        /* \"wwcc-contracts/contracts/nftswaptest.sol\":1381:1394  pair[pairKey] */\n      dup2\n      mstore\n      0x20\n      add\n      swap1\n      dup2\n      mstore\n      0x20\n      add\n      0x00\n      keccak256\n        /* \"wwcc-contracts/contracts/nftswaptest.sol\":1381:1405  pair[pairKey].token1Pool */\n      0x02\n      add\n        /* \"wwcc-contracts/contracts/nftswaptest.sol\":1381:1409  pair[pairKey].token1Pool = 0 */\n      dup2\n      swap1\n      sstore\n      pop\n        /* \"wwcc-contracts/contracts/nftswaptest.sol\":1449:1450  0 */\n      0x00\n        /* \"wwcc-contracts/contracts/nftswaptest.sol\":1422:1426  pair */\n      0x02\n        /* \"wwcc-contracts/contracts/nftswaptest.sol\":1422:1435  pair[pairKey] */\n      0x00\n        /* \"wwcc-contracts/contracts/nftswaptest.sol\":1427:1434  pairKey */\n      dup4\n        /* \"wwcc-contracts/contracts/nftswaptest.sol\":1422:1435  pair[pairKey] */\n      dup2\n      mstore\n      0x20\n      add\n      swap1\n      dup2\n      mstore\n      0x20\n      add\n      0x00\n      keccak256\n        /* \"wwcc-contracts/contracts/nftswaptest.sol\":1422:1446  pair[pairKey].token2Pool */\n      0x03\n      add\n        /* \"wwcc-contracts/contracts/nftswaptest.sol\":1422:1450  pair[pairKey].token2Pool = 0 */\n      dup2\n      swap1\n      sstore\n      pop\n        /* \"wwcc-contracts/contracts/nftswaptest.sol\":1484:1491  pairKey */\n      dup1\n        /* \"wwcc-contracts/contracts/nftswaptest.sol\":1463:1474  pairKeyList */\n      0x03\n        /* \"wwcc-contracts/contracts/nftswaptest.sol\":1463:1481  pairKeyList[index] */\n      0x00\n        /* \"wwcc-contracts/contracts/nftswaptest.sol\":1475:1480  index */\n      dup1\n      sload\n        /* \"wwcc-contracts/contracts/nftswaptest.sol\":1463:1481  pairKeyList[index] */\n      dup2\n      mstore\n      0x20\n      add\n      swap1\n      dup2\n      mstore\n      0x20\n      add\n      0x00\n      keccak256\n        /* \"wwcc-contracts/contracts/nftswaptest.sol\":1463:1491  pairKeyList[index] = pairKey */\n      dup2\n      swap1\n      sstore\n      pop\n        /* \"wwcc-contracts/contracts/nftswaptest.sol\":1504:1509  index */\n      0x00\n      dup1\n        /* \"wwcc-contracts/contracts/nftswaptest.sol\":1504:1512  index ++ */\n      dup2\n      sload\n      dup1\n      swap3\n      swap2\n      swap1\n      tag_42\n      swap1\n      tag_43\n      jump\t// in\n    tag_42:\n      swap2\n      swap1\n      pop\n      sstore\n      pop\n        /* \"wwcc-contracts/contracts/nftswaptest.sol\":1538:1545  pairKey */\n      dup1\n        /* \"wwcc-contracts/contracts/nftswaptest.sol\":1531:1545  return pairKey */\n      swap5\n      pop\n      pop\n      pop\n      pop\n      pop\n        /* \"wwcc-contracts/contracts/nftswaptest.sol\":754:1552  function set_Pair(... */\n      swap3\n      swap2\n      pop\n      pop\n      jump\t// out\n        /* \"wwcc-contracts/contracts/nftswaptest.sol\":1900:2010  function contains(bytes32 pairKey) internal view returns (bool) {... */\n    tag_19:\n        /* \"wwcc-contracts/contracts/nftswaptest.sol\":1958:1962  bool */\n      0x00\n        /* \"wwcc-contracts/contracts/nftswaptest.sol\":1985:1989  pair */\n      0x02\n        /* \"wwcc-contracts/contracts/nftswaptest.sol\":1985:1998  pair[pairKey] */\n      0x00\n        /* \"wwcc-contracts/contracts/nftswaptest.sol\":1990:1997  pairKey */\n      dup4\n        /* \"wwcc-contracts/contracts/nftswaptest.sol\":1985:1998  pair[pairKey] */\n      dup2\n      mstore\n      0x20\n      add\n      swap1\n      dup2\n      mstore\n      0x20\n      add\n      0x00\n      keccak256\n        /* \"wwcc-contracts/contracts/nftswaptest.sol\":1985:2003  pair[pairKey].used */\n      0x04\n      add\n      0x00\n      swap1\n      sload\n      swap1\n      0x0100\n      exp\n      swap1\n      div\n      0xff\n      and\n        /* \"wwcc-contracts/contracts/nftswaptest.sol\":1978:2003  return pair[pairKey].used */\n      swap1\n      pop\n        /* \"wwcc-contracts/contracts/nftswaptest.sol\":1900:2010  function contains(bytes32 pairKey) internal view returns (bool) {... */\n      swap2\n      swap1\n      pop\n      jump\t// out\n        /* \"wwcc-contracts/contracts/nftswaptest.sol\":2509:2638  function addressToString(address a) internal pure returns(string memory){... */\n    tag_26:\n        /* \"wwcc-contracts/contracts/nftswaptest.sol\":2567:2580  string memory */\n      0x60\n        /* \"wwcc-contracts/contracts/nftswaptest.sol\":2602:2631  toString(abi.encodePacked(a)) */\n      tag_46\n        /* \"wwcc-contracts/contracts/nftswaptest.sol\":2628:2629  a */\n      dup3\n        /* \"wwcc-contracts/contracts/nftswaptest.sol\":2611:2630  abi.encodePacked(a) */\n      add(0x20, mload(0x40))\n      tag_47\n      swap2\n      swap1\n      tag_48\n      jump\t// in\n    tag_47:\n      mload(0x40)\n      0x20\n      dup2\n      dup4\n      sub\n      sub\n      dup2\n      mstore\n      swap1\n      0x40\n      mstore\n        /* \"wwcc-contracts/contracts/nftswaptest.sol\":2602:2610  toString */\n      tag_49\n        /* \"wwcc-contracts/contracts/nftswaptest.sol\":2602:2631  toString(abi.encodePacked(a)) */\n      jump\t// in\n    tag_46:\n        /* \"wwcc-contracts/contracts/nftswaptest.sol\":2595:2631  return toString(abi.encodePacked(a)) */\n      swap1\n      pop\n        /* \"wwcc-contracts/contracts/nftswaptest.sol\":2509:2638  function addressToString(address a) internal pure returns(string memory){... */\n      swap2\n      swap1\n      pop\n      jump\t// out\n        /* \"wwcc-contracts/contracts/nftswaptest.sol\":2015:2504  function strConcat(string memory _a,string memory _b) internal pure returns (string memory){... */\n    tag_29:\n        /* \"wwcc-contracts/contracts/nftswaptest.sol\":2092:2105  string memory */\n      0x60\n        /* \"wwcc-contracts/contracts/nftswaptest.sol\":2120:2136  bytes memory _ba */\n      0x00\n        /* \"wwcc-contracts/contracts/nftswaptest.sol\":2145:2147  _a */\n      dup4\n        /* \"wwcc-contracts/contracts/nftswaptest.sol\":2120:2148  bytes memory _ba = bytes(_a) */\n      swap1\n      pop\n        /* \"wwcc-contracts/contracts/nftswaptest.sol\":2162:2178  bytes memory _bb */\n      0x00\n        /* \"wwcc-contracts/contracts/nftswaptest.sol\":2187:2189  _b */\n      dup4\n        /* \"wwcc-contracts/contracts/nftswaptest.sol\":2162:2190  bytes memory _bb = bytes(_b) */\n      swap1\n      pop\n        /* \"wwcc-contracts/contracts/nftswaptest.sol\":2204:2221  string memory ret */\n      0x00\n        /* \"wwcc-contracts/contracts/nftswaptest.sol\":2248:2251  _bb */\n      dup2\n        /* \"wwcc-contracts/contracts/nftswaptest.sol\":2248:2258  _bb.length */\n      mload\n        /* \"wwcc-contracts/contracts/nftswaptest.sol\":2235:2238  _ba */\n      dup4\n        /* \"wwcc-contracts/contracts/nftswaptest.sol\":2235:2245  _ba.length */\n      mload\n        /* \"wwcc-contracts/contracts/nftswaptest.sol\":2235:2258  _ba.length + _bb.length */\n      tag_51\n      swap2\n      swap1\n      tag_52\n      jump\t// in\n    tag_51:\n        /* \"wwcc-contracts/contracts/nftswaptest.sol\":2224:2259  new string(_ba.length + _bb.length) */\n      0xffffffffffffffff\n      dup2\n      gt\n      iszero\n      tag_53\n      jumpi\n      tag_54\n      tag_55\n      jump\t// in\n    tag_54:\n    tag_53:\n      mload(0x40)\n      swap1\n      dup1\n      dup3\n      mstore\n      dup1\n      0x1f\n      add\n      not(0x1f)\n      and\n      0x20\n      add\n      dup3\n      add\n      0x40\n      mstore\n      dup1\n      iszero\n      tag_56\n      jumpi\n      dup2\n      0x20\n      add\n      0x01\n      dup3\n      mul\n      dup1\n      calldatasize\n      dup4\n      calldatacopy\n      dup1\n      dup3\n      add\n      swap2\n      pop\n      pop\n      swap1\n      pop\n    tag_56:\n      pop\n        /* \"wwcc-contracts/contracts/nftswaptest.sol\":2204:2259  string memory ret = new string(_ba.length + _bb.length) */\n      swap1\n      pop\n        /* \"wwcc-contracts/contracts/nftswaptest.sol\":2273:2290  bytes memory bret */\n      0x00\n        /* \"wwcc-contracts/contracts/nftswaptest.sol\":2299:2302  ret */\n      dup2\n        /* \"wwcc-contracts/contracts/nftswaptest.sol\":2273:2303  bytes memory bret = bytes(ret) */\n      swap1\n      pop\n        /* \"wwcc-contracts/contracts/nftswaptest.sol\":2317:2323  uint k */\n      0x00\n        /* \"wwcc-contracts/contracts/nftswaptest.sol\":2345:2351  uint i */\n      dup1\n        /* \"wwcc-contracts/contracts/nftswaptest.sol\":2341:2394  for(uint i = 0;i < _ba.length;i++) bret[k++] = _ba[i] */\n    tag_57:\n        /* \"wwcc-contracts/contracts/nftswaptest.sol\":2360:2363  _ba */\n      dup6\n        /* \"wwcc-contracts/contracts/nftswaptest.sol\":2360:2370  _ba.length */\n      mload\n        /* \"wwcc-contracts/contracts/nftswaptest.sol\":2356:2357  i */\n      dup2\n        /* \"wwcc-contracts/contracts/nftswaptest.sol\":2356:2370  i < _ba.length */\n      lt\n        /* \"wwcc-contracts/contracts/nftswaptest.sol\":2341:2394  for(uint i = 0;i < _ba.length;i++) bret[k++] = _ba[i] */\n      iszero\n      tag_58\n      jumpi\n        /* \"wwcc-contracts/contracts/nftswaptest.sol\":2388:2391  _ba */\n      dup6\n        /* \"wwcc-contracts/contracts/nftswaptest.sol\":2392:2393  i */\n      dup2\n        /* \"wwcc-contracts/contracts/nftswaptest.sol\":2388:2394  _ba[i] */\n      dup2\n      mload\n      dup2\n      lt\n      tag_60\n      jumpi\n      tag_61\n      tag_62\n      jump\t// in\n    tag_61:\n    tag_60:\n      0x20\n      add\n      add\n      mload\n      0xf8\n      shr\n      0xf8\n      shl\n        /* \"wwcc-contracts/contracts/nftswaptest.sol\":2376:2380  bret */\n      dup4\n        /* \"wwcc-contracts/contracts/nftswaptest.sol\":2381:2384  k++ */\n      dup4\n      dup1\n      tag_63\n      swap1\n      tag_43\n      jump\t// in\n    tag_63:\n      swap5\n      pop\n        /* \"wwcc-contracts/contracts/nftswaptest.sol\":2376:2385  bret[k++] */\n      dup2\n      mload\n      dup2\n      lt\n      tag_64\n      jumpi\n      tag_65\n      tag_62\n      jump\t// in\n    tag_65:\n    tag_64:\n      0x20\n      add\n      add\n        /* \"wwcc-contracts/contracts/nftswaptest.sol\":2376:2394  bret[k++] = _ba[i] */\n      swap1\n      not(0xffffffffffffffffffffffffffffffffffffffffffffffffffffffffffffff)\n      and\n      swap1\n      dup2\n      0x00\n      byte\n      swap1\n      mstore8\n      pop\n        /* \"wwcc-contracts/contracts/nftswaptest.sol\":2371:2374  i++ */\n      dup1\n      dup1\n      tag_66\n      swap1\n      tag_43\n      jump\t// in\n    tag_66:\n      swap2\n      pop\n      pop\n        /* \"wwcc-contracts/contracts/nftswaptest.sol\":2341:2394  for(uint i = 0;i < _ba.length;i++) bret[k++] = _ba[i] */\n      jump(tag_57)\n    tag_58:\n      pop\n        /* \"wwcc-contracts/contracts/nftswaptest.sol\":2412:2418  uint i */\n      0x00\n        /* \"wwcc-contracts/contracts/nftswaptest.sol\":2408:2461  for(uint i = 0;i < _bb.length;i++) bret[k++] = _bb[i] */\n    tag_67:\n        /* \"wwcc-contracts/contracts/nftswaptest.sol\":2427:2430  _bb */\n      dup5\n        /* \"wwcc-contracts/contracts/nftswaptest.sol\":2427:2437  _bb.length */\n      mload\n        /* \"wwcc-contracts/contracts/nftswaptest.sol\":2423:2424  i */\n      dup2\n        /* \"wwcc-contracts/contracts/nftswaptest.sol\":2423:2437  i < _bb.length */\n      lt\n        /* \"wwcc-contracts/contracts/nftswaptest.sol\":2408:2461  for(uint i = 0;i < _bb.length;i++) bret[k++] = _bb[i] */\n      iszero\n      tag_68\n      jumpi\n        /* \"wwcc-contracts/contracts/nftswaptest.sol\":2455:2458  _bb */\n      dup5\n        /* \"wwcc-contracts/contracts/nftswaptest.sol\":2459:2460  i */\n      dup2\n        /* \"wwcc-contracts/contracts/nftswaptest.sol\":2455:2461  _bb[i] */\n      dup2\n      mload\n      dup2\n      lt\n      tag_70\n      jumpi\n      tag_71\n      tag_62\n      jump\t// in\n    tag_71:\n    tag_70:\n      0x20\n      add\n      add\n      mload\n      0xf8\n      shr\n      0xf8\n      shl\n        /* \"wwcc-contracts/contracts/nftswaptest.sol\":2443:2447  bret */\n      dup4\n        /* \"wwcc-contracts/contracts/nftswaptest.sol\":2448:2451  k++ */\n      dup4\n      dup1\n      tag_72\n      swap1\n      tag_43\n      jump\t// in\n    tag_72:\n      swap5\n      pop\n        /* \"wwcc-contracts/contracts/nftswaptest.sol\":2443:2452  bret[k++] */\n      dup2\n      mload\n      dup2\n      lt\n      tag_73\n      jumpi\n      tag_74\n      tag_62\n      jump\t// in\n    tag_74:\n    tag_73:\n      0x20\n      add\n      add\n        /* \"wwcc-contracts/contracts/nftswaptest.sol\":2443:2461  bret[k++] = _bb[i] */\n      swap1\n      not(0xffffffffffffffffffffffffffffffffffffffffffffffffffffffffffffff)\n      and\n      swap1\n      dup2\n      0x00\n      byte\n      swap1\n      mstore8\n      pop\n        /* \"wwcc-contracts/contracts/nftswaptest.sol\":2438:2441  i++ */\n      dup1\n      dup1\n      tag_75\n      swap1\n      tag_43\n      jump\t// in\n    tag_75:\n      swap2\n      pop\n      pop\n        /* \"wwcc-contracts/contracts/nftswaptest.sol\":2408:2461  for(uint i = 0;i < _bb.length;i++) bret[k++] = _bb[i] */\n      jump(tag_67)\n    tag_68:\n      pop\n        /* \"wwcc-contracts/contracts/nftswaptest.sol\":2489:2492  ret */\n      dup3\n        /* \"wwcc-contracts/contracts/nftswaptest.sol\":2475:2493  return string(ret) */\n      swap6\n      pop\n      pop\n      pop\n      pop\n      pop\n      pop\n        /* \"wwcc-contracts/contracts/nftswaptest.sol\":2015:2504  function strConcat(string memory _a,string memory _b) internal pure returns (string memory){... */\n      swap3\n      swap2\n      pop\n      pop\n      jump\t// out\n        /* \"wwcc-contracts/contracts/nftswaptest.sol\":3404:3677  function stringCompare(string memory a, string memory b) internal returns(bool){... */\n    tag_38:\n        /* \"wwcc-contracts/contracts/nftswaptest.sol\":3478:3482  bool */\n      0x00\n        /* \"wwcc-contracts/contracts/nftswaptest.sol\":3522:3523  b */\n      dup2\n        /* \"wwcc-contracts/contracts/nftswaptest.sol\":3516:3531  bytes(b).length */\n      mload\n        /* \"wwcc-contracts/contracts/nftswaptest.sol\":3503:3504  a */\n      dup4\n        /* \"wwcc-contracts/contracts/nftswaptest.sol\":3497:3512  bytes(a).length */\n      mload\n        /* \"wwcc-contracts/contracts/nftswaptest.sol\":3497:3531  bytes(a).length != bytes(b).length */\n      eq\n        /* \"wwcc-contracts/contracts/nftswaptest.sol\":3493:3671  if (bytes(a).length != bytes(b).length){... */\n      tag_77\n      jumpi\n        /* \"wwcc-contracts/contracts/nftswaptest.sol\":3553:3558  false */\n      0x00\n        /* \"wwcc-contracts/contracts/nftswaptest.sol\":3546:3558  return false */\n      swap1\n      pop\n      jump(tag_76)\n        /* \"wwcc-contracts/contracts/nftswaptest.sol\":3493:3671  if (bytes(a).length != bytes(b).length){... */\n    tag_77:\n        /* \"wwcc-contracts/contracts/nftswaptest.sol\":3657:3658  b */\n      dup2\n        /* \"wwcc-contracts/contracts/nftswaptest.sol\":3640:3659  abi.encodePacked(b) */\n      add(0x20, mload(0x40))\n      tag_79\n      swap2\n      swap1\n      tag_31\n      jump\t// in\n    tag_79:\n      mload(0x40)\n      0x20\n      dup2\n      dup4\n      sub\n      sub\n      dup2\n      mstore\n      swap1\n      0x40\n      mstore\n        /* \"wwcc-contracts/contracts/nftswaptest.sol\":3630:3660  keccak256(abi.encodePacked(b)) */\n      dup1\n      mload\n      swap1\n      0x20\n      add\n      keccak256\n        /* \"wwcc-contracts/contracts/nftswaptest.sol\":3623:3624  a */\n      dup4\n        /* \"wwcc-contracts/contracts/nftswaptest.sol\":3606:3625  abi.encodePacked(a) */\n      add(0x20, mload(0x40))\n      tag_80\n      swap2\n      swap1\n      tag_31\n      jump\t// in\n    tag_80:\n      mload(0x40)\n      0x20\n      dup2\n      dup4\n      sub\n      sub\n      dup2\n      mstore\n      swap1\n      0x40\n      mstore\n        /* \"wwcc-contracts/contracts/nftswaptest.sol\":3596:3626  keccak256(abi.encodePacked(a)) */\n      dup1\n      mload\n      swap1\n      0x20\n      add\n      keccak256\n        /* \"wwcc-contracts/contracts/nftswaptest.sol\":3596:3660  keccak256(abi.encodePacked(a)) == keccak256(abi.encodePacked(b)) */\n      eq\n        /* \"wwcc-contracts/contracts/nftswaptest.sol\":3589:3660  return keccak256(abi.encodePacked(a)) == keccak256(abi.encodePacked(b)) */\n      swap1\n      pop\n        /* \"wwcc-contracts/contracts/nftswaptest.sol\":3404:3677  function stringCompare(string memory a, string memory b) internal returns(bool){... */\n    tag_76:\n      swap3\n      swap2\n      pop\n      pop\n      jump\t// out\n        /* \"wwcc-contracts/contracts/nftswaptest.sol\":2912:3399  function toString(bytes memory data) internal pure returns(string memory){... */\n    tag_49:\n        /* \"wwcc-contracts/contracts/nftswaptest.sol\":2971:2984  string memory */\n      0x60\n        /* \"wwcc-contracts/contracts/nftswaptest.sol\":2999:3020  bytes memory alphabet */\n      0x00\n        /* \"wwcc-contracts/contracts/nftswaptest.sol\":2999:3041  bytes memory alphabet = \"0123456789abcdef\" */\n      mload(0x40)\n      dup1\n      0x40\n      add\n      0x40\n      mstore\n      dup1\n      0x10\n      dup2\n      mstore\n      0x20\n      add\n      0x3031323334353637383961626364656600000000000000000000000000000000\n      dup2\n      mstore\n      pop\n      swap1\n      pop\n        /* \"wwcc-contracts/contracts/nftswaptest.sol\":3055:3071  bytes memory str */\n      0x00\n        /* \"wwcc-contracts/contracts/nftswaptest.sol\":3102:3103  2 */\n      0x02\n        /* \"wwcc-contracts/contracts/nftswaptest.sol\":3088:3092  data */\n      dup5\n        /* \"wwcc-contracts/contracts/nftswaptest.sol\":3088:3099  data.length */\n      mload\n        /* \"wwcc-contracts/contracts/nftswaptest.sol\":3088:3103  data.length * 2 */\n      tag_82\n      swap2\n      swap1\n      tag_83\n      jump\t// in\n    tag_82:\n        /* \"wwcc-contracts/contracts/nftswaptest.sol\":3084:3085  2 */\n      0x02\n        /* \"wwcc-contracts/contracts/nftswaptest.sol\":3084:3103  2 + data.length * 2 */\n      tag_84\n      swap2\n      swap1\n      tag_52\n      jump\t// in\n    tag_84:\n        /* \"wwcc-contracts/contracts/nftswaptest.sol\":3074:3104  new bytes(2 + data.length * 2) */\n      0xffffffffffffffff\n      dup2\n      gt\n      iszero\n      tag_85\n      jumpi\n      tag_86\n      tag_55\n      jump\t// in\n    tag_86:\n    tag_85:\n      mload(0x40)\n      swap1\n      dup1\n      dup3\n      mstore\n      dup1\n      0x1f\n      add\n      not(0x1f)\n      and\n      0x20\n      add\n      dup3\n      add\n      0x40\n      mstore\n      dup1\n      iszero\n      tag_87\n      jumpi\n      dup2\n      0x20\n      add\n      0x01\n      dup3\n      mul\n      dup1\n      calldatasize\n      dup4\n      calldatacopy\n      dup1\n      dup3\n      add\n      swap2\n      pop\n      pop\n      swap1\n      pop\n    tag_87:\n      pop\n        /* \"wwcc-contracts/contracts/nftswaptest.sol\":3055:3104  bytes memory str = new bytes(2 + data.length * 2) */\n      swap1\n      pop\n        /* \"wwcc-contracts/contracts/nftswaptest.sol\":3118:3130  str[0] = \"0\" */\n      0x3000000000000000000000000000000000000000000000000000000000000000\n        /* \"wwcc-contracts/contracts/nftswaptest.sol\":3118:3121  str */\n      dup2\n        /* \"wwcc-contracts/contracts/nftswaptest.sol\":3122:3123  0 */\n      0x00\n        /* \"wwcc-contracts/contracts/nftswaptest.sol\":3118:3124  str[0] */\n      dup2\n      mload\n      dup2\n      lt\n      tag_88\n      jumpi\n      tag_89\n      tag_62\n      jump\t// in\n    tag_89:\n    tag_88:\n      0x20\n      add\n      add\n        /* \"wwcc-contracts/contracts/nftswaptest.sol\":3118:3130  str[0] = \"0\" */\n      swap1\n      not(0xffffffffffffffffffffffffffffffffffffffffffffffffffffffffffffff)\n      and\n      swap1\n      dup2\n      0x00\n      byte\n      swap1\n      mstore8\n      pop\n        /* \"wwcc-contracts/contracts/nftswaptest.sol\":3144:3156  str[1] = \"x\" */\n      0x7800000000000000000000000000000000000000000000000000000000000000\n        /* \"wwcc-contracts/contracts/nftswaptest.sol\":3144:3147  str */\n      dup2\n        /* \"wwcc-contracts/contracts/nftswaptest.sol\":3148:3149  1 */\n      0x01\n        /* \"wwcc-contracts/contracts/nftswaptest.sol\":3144:3150  str[1] */\n      dup2\n      mload\n      dup2\n      lt\n      tag_90\n      jumpi\n      tag_91\n      tag_62\n      jump\t// in\n    tag_91:\n    tag_90:\n      0x20\n      add\n      add\n        /* \"wwcc-contracts/contracts/nftswaptest.sol\":3144:3156  str[1] = \"x\" */\n      swap1\n      not(0xffffffffffffffffffffffffffffffffffffffffffffffffffffffffffffff)\n      and\n      swap1\n      dup2\n      0x00\n      byte\n      swap1\n      mstore8\n      pop\n        /* \"wwcc-contracts/contracts/nftswaptest.sol\":3174:3180  uint i */\n      0x00\n        /* \"wwcc-contracts/contracts/nftswaptest.sol\":3170:3361  for(uint i =0;i < data.length;i++){... */\n    tag_92:\n        /* \"wwcc-contracts/contracts/nftswaptest.sol\":3188:3192  data */\n      dup5\n        /* \"wwcc-contracts/contracts/nftswaptest.sol\":3188:3199  data.length */\n      mload\n        /* \"wwcc-contracts/contracts/nftswaptest.sol\":3184:3185  i */\n      dup2\n        /* \"wwcc-contracts/contracts/nftswaptest.sol\":3184:3199  i < data.length */\n      lt\n        /* \"wwcc-contracts/contracts/nftswaptest.sol\":3170:3361  for(uint i =0;i < data.length;i++){... */\n      iszero\n      tag_93\n      jumpi\n        /* \"wwcc-contracts/contracts/nftswaptest.sol\":3239:3247  alphabet */\n      dup3\n        /* \"wwcc-contracts/contracts/nftswaptest.sol\":3270:3271  4 */\n      0x04\n        /* \"wwcc-contracts/contracts/nftswaptest.sol\":3259:3263  data */\n      dup7\n        /* \"wwcc-contracts/contracts/nftswaptest.sol\":3264:3265  i */\n      dup4\n        /* \"wwcc-contracts/contracts/nftswaptest.sol\":3259:3266  data[i] */\n      dup2\n      mload\n      dup2\n      lt\n      tag_95\n      jumpi\n      tag_96\n      tag_62\n      jump\t// in\n    tag_96:\n    tag_95:\n      0x20\n      add\n      add\n      mload\n      0xf8\n      shr\n      0xf8\n      shl\n        /* \"wwcc-contracts/contracts/nftswaptest.sol\":3259:3271  data[i] >> 4 */\n      not(0xffffffffffffffffffffffffffffffffffffffffffffffffffffffffffffff)\n      and\n      swap1\n      shr\n        /* \"wwcc-contracts/contracts/nftswaptest.sol\":3253:3272  uint8(data[i] >> 4) */\n      0xf8\n      shr\n        /* \"wwcc-contracts/contracts/nftswaptest.sol\":3248:3273  uint(uint8(data[i] >> 4)) */\n      0xff\n      and\n        /* \"wwcc-contracts/contracts/nftswaptest.sol\":3239:3274  alphabet[uint(uint8(data[i] >> 4))] */\n      dup2\n      mload\n      dup2\n      lt\n      tag_97\n      jumpi\n      tag_98\n      tag_62\n      jump\t// in\n    tag_98:\n    tag_97:\n      0x20\n      add\n      add\n      mload\n      0xf8\n      shr\n      0xf8\n      shl\n        /* \"wwcc-contracts/contracts/nftswaptest.sol\":3222:3225  str */\n      dup3\n        /* \"wwcc-contracts/contracts/nftswaptest.sol\":3234:3235  2 */\n      0x02\n        /* \"wwcc-contracts/contracts/nftswaptest.sol\":3230:3231  i */\n      dup4\n        /* \"wwcc-contracts/contracts/nftswaptest.sol\":3230:3235  i * 2 */\n      tag_99\n      swap2\n      swap1\n      tag_83\n      jump\t// in\n    tag_99:\n        /* \"wwcc-contracts/contracts/nftswaptest.sol\":3226:3227  2 */\n      0x02\n        /* \"wwcc-contracts/contracts/nftswaptest.sol\":3226:3235  2 + i * 2 */\n      tag_100\n      swap2\n      swap1\n      tag_52\n      jump\t// in\n    tag_100:\n        /* \"wwcc-contracts/contracts/nftswaptest.sol\":3222:3236  str[2 + i * 2] */\n      dup2\n      mload\n      dup2\n      lt\n      tag_101\n      jumpi\n      tag_102\n      tag_62\n      jump\t// in\n    tag_102:\n    tag_101:\n      0x20\n      add\n      add\n        /* \"wwcc-contracts/contracts/nftswaptest.sol\":3222:3274  str[2 + i * 2] = alphabet[uint(uint8(data[i] >> 4))] */\n      swap1\n      not(0xffffffffffffffffffffffffffffffffffffffffffffffffffffffffffffff)\n      and\n      swap1\n      dup2\n      0x00\n      byte\n      swap1\n      mstore8\n      pop\n        /* \"wwcc-contracts/contracts/nftswaptest.sol\":3309:3317  alphabet */\n      dup3\n        /* \"wwcc-contracts/contracts/nftswaptest.sol\":3339:3343  0x0f */\n      0x0f\n        /* \"wwcc-contracts/contracts/nftswaptest.sol\":3329:3343  data[i] & 0x0f */\n      0xf8\n      shl\n        /* \"wwcc-contracts/contracts/nftswaptest.sol\":3329:3333  data */\n      dup7\n        /* \"wwcc-contracts/contracts/nftswaptest.sol\":3334:3335  i */\n      dup4\n        /* \"wwcc-contracts/contracts/nftswaptest.sol\":3329:3336  data[i] */\n      dup2\n      mload\n      dup2\n      lt\n      tag_103\n      jumpi\n      tag_104\n      tag_62\n      jump\t// in\n    tag_104:\n    tag_103:\n      0x20\n      add\n      add\n      mload\n      0xf8\n      shr\n      0xf8\n      shl\n        /* \"wwcc-contracts/contracts/nftswaptest.sol\":3329:3343  data[i] & 0x0f */\n      and\n        /* \"wwcc-contracts/contracts/nftswaptest.sol\":3323:3344  uint8(data[i] & 0x0f) */\n      0xf8\n      shr\n        /* \"wwcc-contracts/contracts/nftswaptest.sol\":3318:3345  uint(uint8(data[i] & 0x0f)) */\n      0xff\n      and\n        /* \"wwcc-contracts/contracts/nftswaptest.sol\":3309:3346  alphabet[uint(uint8(data[i] & 0x0f))] */\n      dup2\n      mload\n      dup2\n      lt\n      tag_105\n      jumpi\n      tag_106\n      tag_62\n      jump\t// in\n    tag_106:\n    tag_105:\n      0x20\n      add\n      add\n      mload\n      0xf8\n      shr\n      0xf8\n      shl\n        /* \"wwcc-contracts/contracts/nftswaptest.sol\":3292:3295  str */\n      dup3\n        /* \"wwcc-contracts/contracts/nftswaptest.sol\":3304:3305  2 */\n      0x02\n        /* \"wwcc-contracts/contracts/nftswaptest.sol\":3300:3301  i */\n      dup4\n        /* \"wwcc-contracts/contracts/nftswaptest.sol\":3300:3305  i * 2 */\n      tag_107\n      swap2\n      swap1\n      tag_83\n      jump\t// in\n    tag_107:\n        /* \"wwcc-contracts/contracts/nftswaptest.sol\":3296:3297  3 */\n      0x03\n        /* \"wwcc-contracts/contracts/nftswaptest.sol\":3296:3305  3 + i * 2 */\n      tag_108\n      swap2\n      swap1\n      tag_52\n      jump\t// in\n    tag_108:\n        /* \"wwcc-contracts/contracts/nftswaptest.sol\":3292:3306  str[3 + i * 2] */\n      dup2\n      mload\n      dup2\n      lt\n      tag_109\n      jumpi\n      tag_110\n      tag_62\n      jump\t// in\n    tag_110:\n    tag_109:\n      0x20\n      add\n      add\n        /* \"wwcc-contracts/contracts/nftswaptest.sol\":3292:3346  str[3 + i * 2] = alphabet[uint(uint8(data[i] & 0x0f))] */\n      swap1\n      not(0xffffffffffffffffffffffffffffffffffffffffffffffffffffffffffffff)\n      and\n      swap1\n      dup2\n      0x00\n      byte\n      swap1\n      mstore8\n      pop\n        /* \"wwcc-contracts/contracts/nftswaptest.sol\":3200:3203  i++ */\n      dup1\n      dup1\n      tag_111\n      swap1\n      tag_43\n      jump\t// in\n    tag_111:\n      swap2\n      pop\n      pop\n        /* \"wwcc-contracts/contracts/nftswaptest.sol\":3170:3361  for(uint i =0;i < data.length;i++){... */\n      jump(tag_92)\n    tag_93:\n      pop\n        /* \"wwcc-contracts/contracts/nftswaptest.sol\":3388:3391  str */\n      dup1\n        /* \"wwcc-contracts/contracts/nftswaptest.sol\":3374:3392  return string(str) */\n      swap3\n      pop\n      pop\n      pop\n        /* \"wwcc-contracts/contracts/nftswaptest.sol\":2912:3399  function toString(bytes memory data) internal pure returns(string memory){... */\n      swap2\n      swap1\n      pop\n      jump\t// out\n        /* \"#utility.yul\":7:146   */\n    tag_113:\n        /* \"#utility.yul\":53:58   */\n      0x00\n        /* \"#utility.yul\":91:97   */\n      dup2\n        /* \"#utility.yul\":78:98   */\n      calldataload\n        /* \"#utility.yul\":69:98   */\n      swap1\n      pop\n        /* \"#utility.yul\":107:140   */\n      tag_115\n        /* \"#utility.yul\":134:139   */\n      dup2\n        /* \"#utility.yul\":107:140   */\n      tag_116\n      jump\t// in\n    tag_115:\n        /* \"#utility.yul\":7:146   */\n      swap3\n      swap2\n      pop\n      pop\n      jump\t// out\n        /* \"#utility.yul\":152:291   */\n    tag_117:\n        /* \"#utility.yul\":198:203   */\n      0x00\n        /* \"#utility.yul\":236:242   */\n      dup2\n        /* \"#utility.yul\":223:243   */\n      calldataload\n        /* \"#utility.yul\":214:243   */\n      swap1\n      pop\n        /* \"#utility.yul\":252:285   */\n      tag_119\n        /* \"#utility.yul\":279:284   */\n      dup2\n        /* \"#utility.yul\":252:285   */\n      tag_120\n      jump\t// in\n    tag_119:\n        /* \"#utility.yul\":152:291   */\n      swap3\n      swap2\n      pop\n      pop\n      jump\t// out\n        /* \"#utility.yul\":297:771   */\n    tag_13:\n        /* \"#utility.yul\":365:371   */\n      0x00\n        /* \"#utility.yul\":373:379   */\n      dup1\n        /* \"#utility.yul\":422:424   */\n      0x40\n        /* \"#utility.yul\":410:419   */\n      dup4\n        /* \"#utility.yul\":401:408   */\n      dup6\n        /* \"#utility.yul\":397:420   */\n      sub\n        /* \"#utility.yul\":393:425   */\n      slt\n        /* \"#utility.yul\":390:509   */\n      iszero\n      tag_122\n      jumpi\n        /* \"#utility.yul\":428:507   */\n      tag_123\n      tag_124\n      jump\t// in\n    tag_123:\n        /* \"#utility.yul\":390:509   */\n    tag_122:\n        /* \"#utility.yul\":548:549   */\n      0x00\n        /* \"#utility.yul\":573:626   */\n      tag_125\n        /* \"#utility.yul\":618:625   */\n      dup6\n        /* \"#utility.yul\":609:615   */\n      dup3\n        /* \"#utility.yul\":598:607   */\n      dup7\n        /* \"#utility.yul\":594:616   */\n      add\n        /* \"#utility.yul\":573:626   */\n      tag_113\n      jump\t// in\n    tag_125:\n        /* \"#utility.yul\":563:626   */\n      swap3\n      pop\n        /* \"#utility.yul\":519:636   */\n      pop\n        /* \"#utility.yul\":675:677   */\n      0x20\n        /* \"#utility.yul\":701:754   */\n      tag_126\n        /* \"#utility.yul\":746:753   */\n      dup6\n        /* \"#utility.yul\":737:743   */\n      dup3\n        /* \"#utility.yul\":726:735   */\n      dup7\n        /* \"#utility.yul\":722:744   */\n      add\n        /* \"#utility.yul\":701:754   */\n      tag_113\n      jump\t// in\n    tag_126:\n        /* \"#utility.yul\":691:754   */\n      swap2\n      pop\n        /* \"#utility.yul\":646:764   */\n      pop\n        /* \"#utility.yul\":297:771   */\n      swap3\n      pop\n      swap3\n      swap1\n      pop\n      jump\t// out\n        /* \"#utility.yul\":777:1106   */\n    tag_7:\n        /* \"#utility.yul\":836:842   */\n      0x00\n        /* \"#utility.yul\":885:887   */\n      0x20\n        /* \"#utility.yul\":873:882   */\n      dup3\n        /* \"#utility.yul\":864:871   */\n      dup5\n        /* \"#utility.yul\":860:883   */\n      sub\n        /* \"#utility.yul\":856:888   */\n      slt\n        /* \"#utility.yul\":853:972   */\n      iszero\n      tag_128\n      jumpi\n        /* \"#utility.yul\":891:970   */\n      tag_129\n      tag_124\n      jump\t// in\n    tag_129:\n        /* \"#utility.yul\":853:972   */\n    tag_128:\n        /* \"#utility.yul\":1011:1012   */\n      0x00\n        /* \"#utility.yul\":1036:1089   */\n      tag_130\n        /* \"#utility.yul\":1081:1088   */\n      dup5\n        /* \"#utility.yul\":1072:1078   */\n      dup3\n        /* \"#utility.yul\":1061:1070   */\n      dup6\n        /* \"#utility.yul\":1057:1079   */\n      add\n        /* \"#utility.yul\":1036:1089   */\n      tag_117\n      jump\t// in\n    tag_130:\n        /* \"#utility.yul\":1026:1089   */\n      swap2\n      pop\n        /* \"#utility.yul\":982:1099   */\n      pop\n        /* \"#utility.yul\":777:1106   */\n      swap3\n      swap2\n      pop\n      pop\n      jump\t// out\n        /* \"#utility.yul\":1112:1230   */\n    tag_131:\n        /* \"#utility.yul\":1199:1223   */\n      tag_133\n        /* \"#utility.yul\":1217:1222   */\n      dup2\n        /* \"#utility.yul\":1199:1223   */\n      tag_134\n      jump\t// in\n    tag_133:\n        /* \"#utility.yul\":1194:1197   */\n      dup3\n        /* \"#utility.yul\":1187:1224   */\n      mstore\n        /* \"#utility.yul\":1112:1230   */\n      pop\n      pop\n      jump\t// out\n        /* \"#utility.yul\":1236:1393   */\n    tag_135:\n        /* \"#utility.yul\":1341:1386   */\n      tag_137\n        /* \"#utility.yul\":1361:1385   */\n      tag_138\n        /* \"#utility.yul\":1379:1384   */\n      dup3\n        /* \"#utility.yul\":1361:1385   */\n      tag_134\n      jump\t// in\n    tag_138:\n        /* \"#utility.yul\":1341:1386   */\n      tag_139\n      jump\t// in\n    tag_137:\n        /* \"#utility.yul\":1336:1339   */\n      dup3\n        /* \"#utility.yul\":1329:1387   */\n      mstore\n        /* \"#utility.yul\":1236:1393   */\n      pop\n      pop\n      jump\t// out\n        /* \"#utility.yul\":1399:1517   */\n    tag_140:\n        /* \"#utility.yul\":1486:1510   */\n      tag_142\n        /* \"#utility.yul\":1504:1509   */\n      dup2\n        /* \"#utility.yul\":1486:1510   */\n      tag_143\n      jump\t// in\n    tag_142:\n        /* \"#utility.yul\":1481:1484   */\n      dup3\n        /* \"#utility.yul\":1474:1511   */\n      mstore\n        /* \"#utility.yul\":1399:1517   */\n      pop\n      pop\n      jump\t// out\n        /* \"#utility.yul\":1523:1900   */\n    tag_144:\n        /* \"#utility.yul\":1629:1632   */\n      0x00\n        /* \"#utility.yul\":1657:1696   */\n      tag_146\n        /* \"#utility.yul\":1690:1695   */\n      dup3\n        /* \"#utility.yul\":1657:1696   */\n      tag_147\n      jump\t// in\n    tag_146:\n        /* \"#utility.yul\":1712:1801   */\n      tag_148\n        /* \"#utility.yul\":1794:1800   */\n      dup2\n        /* \"#utility.yul\":1789:1792   */\n      dup6\n        /* \"#utility.yul\":1712:1801   */\n      tag_149\n      jump\t// in\n    tag_148:\n        /* \"#utility.yul\":1705:1801   */\n      swap4\n      pop\n        /* \"#utility.yul\":1810:1862   */\n      tag_150\n        /* \"#utility.yul\":1855:1861   */\n      dup2\n        /* \"#utility.yul\":1850:1853   */\n      dup6\n        /* \"#utility.yul\":1843:1847   */\n      0x20\n        /* \"#utility.yul\":1836:1841   */\n      dup7\n        /* \"#utility.yul\":1832:1848   */\n      add\n        /* \"#utility.yul\":1810:1862   */\n      tag_151\n      jump\t// in\n    tag_150:\n        /* \"#utility.yul\":1887:1893   */\n      dup1\n        /* \"#utility.yul\":1882:1885   */\n      dup5\n        /* \"#utility.yul\":1878:1894   */\n      add\n        /* \"#utility.yul\":1871:1894   */\n      swap2\n      pop\n        /* \"#utility.yul\":1633:1900   */\n      pop\n        /* \"#utility.yul\":1523:1900   */\n      swap3\n      swap2\n      pop\n      pop\n      jump\t// out\n        /* \"#utility.yul\":1906:2271   */\n    tag_152:\n        /* \"#utility.yul\":2048:2051   */\n      0x00\n        /* \"#utility.yul\":2069:2135   */\n      tag_154\n        /* \"#utility.yul\":2133:2134   */\n      0x09\n        /* \"#utility.yul\":2128:2131   */\n      dup4\n        /* \"#utility.yul\":2069:2135   */\n      tag_155\n      jump\t// in\n    tag_154:\n        /* \"#utility.yul\":2062:2135   */\n      swap2\n      pop\n        /* \"#utility.yul\":2144:2237   */\n      tag_156\n        /* \"#utility.yul\":2233:2236   */\n      dup3\n        /* \"#utility.yul\":2144:2237   */\n      tag_157\n      jump\t// in\n    tag_156:\n        /* \"#utility.yul\":2262:2264   */\n      0x20\n        /* \"#utility.yul\":2257:2260   */\n      dup3\n        /* \"#utility.yul\":2253:2265   */\n      add\n        /* \"#utility.yul\":2246:2265   */\n      swap1\n      pop\n        /* \"#utility.yul\":1906:2271   */\n      swap2\n      swap1\n      pop\n      jump\t// out\n        /* \"#utility.yul\":2277:2643   */\n    tag_158:\n        /* \"#utility.yul\":2419:2422   */\n      0x00\n        /* \"#utility.yul\":2440:2507   */\n      tag_160\n        /* \"#utility.yul\":2504:2506   */\n      0x0a\n        /* \"#utility.yul\":2499:2502   */\n      dup4\n        /* \"#utility.yul\":2440:2507   */\n      tag_155\n      jump\t// in\n    tag_160:\n        /* \"#utility.yul\":2433:2507   */\n      swap2\n      pop\n        /* \"#utility.yul\":2516:2609   */\n      tag_161\n        /* \"#utility.yul\":2605:2608   */\n      dup3\n        /* \"#utility.yul\":2516:2609   */\n      tag_162\n      jump\t// in\n    tag_161:\n        /* \"#utility.yul\":2634:2636   */\n      0x20\n        /* \"#utility.yul\":2629:2632   */\n      dup3\n        /* \"#utility.yul\":2625:2637   */\n      add\n        /* \"#utility.yul\":2618:2637   */\n      swap1\n      pop\n        /* \"#utility.yul\":2277:2643   */\n      swap2\n      swap1\n      pop\n      jump\t// out\n        /* \"#utility.yul\":2649:3015   */\n    tag_163:\n        /* \"#utility.yul\":2791:2794   */\n      0x00\n        /* \"#utility.yul\":2812:2879   */\n      tag_165\n        /* \"#utility.yul\":2876:2878   */\n      0x0a\n        /* \"#utility.yul\":2871:2874   */\n      dup4\n        /* \"#utility.yul\":2812:2879   */\n      tag_155\n      jump\t// in\n    tag_165:\n        /* \"#utility.yul\":2805:2879   */\n      swap2\n      pop\n        /* \"#utility.yul\":2888:2981   */\n      tag_166\n        /* \"#utility.yul\":2977:2980   */\n      dup3\n        /* \"#utility.yul\":2888:2981   */\n      tag_167\n      jump\t// in\n    tag_166:\n        /* \"#utility.yul\":3006:3008   */\n      0x20\n        /* \"#utility.yul\":3001:3004   */\n      dup3\n        /* \"#utility.yul\":2997:3009   */\n      add\n        /* \"#utility.yul\":2990:3009   */\n      swap1\n      pop\n        /* \"#utility.yul\":2649:3015   */\n      swap2\n      swap1\n      pop\n      jump\t// out\n        /* \"#utility.yul\":3021:3139   */\n    tag_168:\n        /* \"#utility.yul\":3108:3132   */\n      tag_170\n        /* \"#utility.yul\":3126:3131   */\n      dup2\n        /* \"#utility.yul\":3108:3132   */\n      tag_171\n      jump\t// in\n    tag_170:\n        /* \"#utility.yul\":3103:3106   */\n      dup3\n        /* \"#utility.yul\":3096:3133   */\n      mstore\n        /* \"#utility.yul\":3021:3139   */\n      pop\n      pop\n      jump\t// out\n        /* \"#utility.yul\":3145:3401   */\n    tag_48:\n        /* \"#utility.yul\":3257:3260   */\n      0x00\n        /* \"#utility.yul\":3272:3347   */\n      tag_173\n        /* \"#utility.yul\":3343:3346   */\n      dup3\n        /* \"#utility.yul\":3334:3340   */\n      dup5\n        /* \"#utility.yul\":3272:3347   */\n      tag_135\n      jump\t// in\n    tag_173:\n        /* \"#utility.yul\":3372:3374   */\n      0x14\n        /* \"#utility.yul\":3367:3370   */\n      dup3\n        /* \"#utility.yul\":3363:3375   */\n      add\n        /* \"#utility.yul\":3356:3375   */\n      swap2\n      pop\n        /* \"#utility.yul\":3392:3395   */\n      dup2\n        /* \"#utility.yul\":3385:3395   */\n      swap1\n      pop\n        /* \"#utility.yul\":3145:3401   */\n      swap3\n      swap2\n      pop\n      pop\n      jump\t// out\n        /* \"#utility.yul\":3407:3682   */\n    tag_31:\n        /* \"#utility.yul\":3539:3542   */\n      0x00\n        /* \"#utility.yul\":3561:3656   */\n      tag_175\n        /* \"#utility.yul\":3652:3655   */\n      dup3\n        /* \"#utility.yul\":3643:3649   */\n      dup5\n        /* \"#utility.yul\":3561:3656   */\n      tag_144\n      jump\t// in\n    tag_175:\n        /* \"#utility.yul\":3554:3656   */\n      swap2\n      pop\n        /* \"#utility.yul\":3673:3676   */\n      dup2\n        /* \"#utility.yul\":3666:3676   */\n      swap1\n      pop\n        /* \"#utility.yul\":3407:3682   */\n      swap3\n      swap2\n      pop\n      pop\n      jump\t// out\n        /* \"#utility.yul\":3688:4241   */\n    tag_10:\n        /* \"#utility.yul\":3865:3869   */\n      0x00\n        /* \"#utility.yul\":3903:3906   */\n      0x80\n        /* \"#utility.yul\":3892:3901   */\n      dup3\n        /* \"#utility.yul\":3888:3907   */\n      add\n        /* \"#utility.yul\":3880:3907   */\n      swap1\n      pop\n        /* \"#utility.yul\":3917:3988   */\n      tag_177\n        /* \"#utility.yul\":3985:3986   */\n      0x00\n        /* \"#utility.yul\":3974:3983   */\n      dup4\n        /* \"#utility.yul\":3970:3987   */\n      add\n        /* \"#utility.yul\":3961:3967   */\n      dup8\n        /* \"#utility.yul\":3917:3988   */\n      tag_131\n      jump\t// in\n    tag_177:\n        /* \"#utility.yul\":3998:4070   */\n      tag_178\n        /* \"#utility.yul\":4066:4068   */\n      0x20\n        /* \"#utility.yul\":4055:4064   */\n      dup4\n        /* \"#utility.yul\":4051:4069   */\n      add\n        /* \"#utility.yul\":4042:4048   */\n      dup7\n        /* \"#utility.yul\":3998:4070   */\n      tag_131\n      jump\t// in\n    tag_178:\n        /* \"#utility.yul\":4080:4152   */\n      tag_179\n        /* \"#utility.yul\":4148:4150   */\n      0x40\n        /* \"#utility.yul\":4137:4146   */\n      dup4\n        /* \"#utility.yul\":4133:4151   */\n      add\n        /* \"#utility.yul\":4124:4130   */\n      dup6\n        /* \"#utility.yul\":4080:4152   */\n      tag_168\n      jump\t// in\n    tag_179:\n        /* \"#utility.yul\":4162:4234   */\n      tag_180\n        /* \"#utility.yul\":4230:4232   */\n      0x60\n        /* \"#utility.yul\":4219:4228   */\n      dup4\n        /* \"#utility.yul\":4215:4233   */\n      add\n        /* \"#utility.yul\":4206:4212   */\n      dup5\n        /* \"#utility.yul\":4162:4234   */\n      tag_168\n      jump\t// in\n    tag_180:\n        /* \"#utility.yul\":3688:4241   */\n      swap6\n      swap5\n      pop\n      pop\n      pop\n      pop\n      pop\n      jump\t// out\n        /* \"#utility.yul\":4247:4469   */\n    tag_16:\n        /* \"#utility.yul\":4340:4344   */\n      0x00\n        /* \"#utility.yul\":4378:4380   */\n      0x20\n        /* \"#utility.yul\":4367:4376   */\n      dup3\n        /* \"#utility.yul\":4363:4381   */\n      add\n        /* \"#utility.yul\":4355:4381   */\n      swap1\n      pop\n        /* \"#utility.yul\":4391:4462   */\n      tag_182\n        /* \"#utility.yul\":4459:4460   */\n      0x00\n        /* \"#utility.yul\":4448:4457   */\n      dup4\n        /* \"#utility.yul\":4444:4461   */\n      add\n        /* \"#utility.yul\":4435:4441   */\n      dup5\n        /* \"#utility.yul\":4391:4462   */\n      tag_140\n      jump\t// in\n    tag_182:\n        /* \"#utility.yul\":4247:4469   */\n      swap3\n      swap2\n      pop\n      pop\n      jump\t// out\n        /* \"#utility.yul\":4475:4894   */\n    tag_22:\n        /* \"#utility.yul\":4641:4645   */\n      0x00\n        /* \"#utility.yul\":4679:4681   */\n      0x20\n        /* \"#utility.yul\":4668:4677   */\n      dup3\n        /* \"#utility.yul\":4664:4682   */\n      add\n        /* \"#utility.yul\":4656:4682   */\n      swap1\n      pop\n        /* \"#utility.yul\":4728:4737   */\n      dup2\n        /* \"#utility.yul\":4722:4726   */\n      dup2\n        /* \"#utility.yul\":4718:4738   */\n      sub\n        /* \"#utility.yul\":4714:4715   */\n      0x00\n        /* \"#utility.yul\":4703:4712   */\n      dup4\n        /* \"#utility.yul\":4699:4716   */\n      add\n        /* \"#utility.yul\":4692:4739   */\n      mstore\n        /* \"#utility.yul\":4756:4887   */\n      tag_184\n        /* \"#utility.yul\":4882:4886   */\n      dup2\n        /* \"#utility.yul\":4756:4887   */\n      tag_152\n      jump\t// in\n    tag_184:\n        /* \"#utility.yul\":4748:4887   */\n      swap1\n      pop\n        /* \"#utility.yul\":4475:4894   */\n      swap2\n      swap1\n      pop\n      jump\t// out\n        /* \"#utility.yul\":4900:5319   */\n    tag_41:\n        /* \"#utility.yul\":5066:5070   */\n      0x00\n        /* \"#utility.yul\":5104:5106   */\n      0x20\n        /* \"#utility.yul\":5093:5102   */\n      dup3\n        /* \"#utility.yul\":5089:5107   */\n      add\n        /* \"#utility.yul\":5081:5107   */\n      swap1\n      pop\n        /* \"#utility.yul\":5153:5162   */\n      dup2\n        /* \"#utility.yul\":5147:5151   */\n      dup2\n        /* \"#utility.yul\":5143:5163   */\n      sub\n        /* \"#utility.yul\":5139:5140   */\n      0x00\n        /* \"#utility.yul\":5128:5137   */\n      dup4\n        /* \"#utility.yul\":5124:5141   */\n      add\n        /* \"#utility.yul\":5117:5164   */\n      mstore\n        /* \"#utility.yul\":5181:5312   */\n      tag_186\n        /* \"#utility.yul\":5307:5311   */\n      dup2\n        /* \"#utility.yul\":5181:5312   */\n      tag_158\n      jump\t// in\n    tag_186:\n        /* \"#utility.yul\":5173:5312   */\n      swap1\n      pop\n        /* \"#utility.yul\":4900:5319   */\n      swap2\n      swap1\n      pop\n      jump\t// out\n        /* \"#utility.yul\":5325:5744   */\n    tag_35:\n        /* \"#utility.yul\":5491:5495   */\n      0x00\n        /* \"#utility.yul\":5529:5531   */\n      0x20\n        /* \"#utility.yul\":5518:5527   */\n      dup3\n        /* \"#utility.yul\":5514:5532   */\n      add\n        /* \"#utility.yul\":5506:5532   */\n      swap1\n      pop\n        /* \"#utility.yul\":5578:5587   */\n      dup2\n        /* \"#utility.yul\":5572:5576   */\n      dup2\n        /* \"#utility.yul\":5568:5588   */\n      sub\n        /* \"#utility.yul\":5564:5565   */\n      0x00\n        /* \"#utility.yul\":5553:5562   */\n      dup4\n        /* \"#utility.yul\":5549:5566   */\n      add\n        /* \"#utility.yul\":5542:5589   */\n      mstore\n        /* \"#utility.yul\":5606:5737   */\n      tag_188\n        /* \"#utility.yul\":5732:5736   */\n      dup2\n        /* \"#utility.yul\":5606:5737   */\n      tag_163\n      jump\t// in\n    tag_188:\n        /* \"#utility.yul\":5598:5737   */\n      swap1\n      pop\n        /* \"#utility.yul\":5325:5744   */\n      swap2\n      swap1\n      pop\n      jump\t// out\n        /* \"#utility.yul\":5831:5930   */\n    tag_147:\n        /* \"#utility.yul\":5883:5889   */\n      0x00\n        /* \"#utility.yul\":5917:5922   */\n      dup2\n        /* \"#utility.yul\":5911:5923   */\n      mload\n        /* \"#utility.yul\":5901:5923   */\n      swap1\n      pop\n        /* \"#utility.yul\":5831:5930   */\n      swap2\n      swap1\n      pop\n      jump\t// out\n        /* \"#utility.yul\":5936:6105   */\n    tag_155:\n        /* \"#utility.yul\":6020:6031   */\n      0x00\n        /* \"#utility.yul\":6054:6060   */\n      dup3\n        /* \"#utility.yul\":6049:6052   */\n      dup3\n        /* \"#utility.yul\":6042:6061   */\n      mstore\n        /* \"#utility.yul\":6094:6098   */\n      0x20\n        /* \"#utility.yul\":6089:6092   */\n      dup3\n        /* \"#utility.yul\":6085:6099   */\n      add\n        /* \"#utility.yul\":6070:6099   */\n      swap1\n      pop\n        /* \"#utility.yul\":5936:6105   */\n      swap3\n      swap2\n      pop\n      pop\n      jump\t// out\n        /* \"#utility.yul\":6111:6259   */\n    tag_149:\n        /* \"#utility.yul\":6213:6224   */\n      0x00\n        /* \"#utility.yul\":6250:6253   */\n      dup2\n        /* \"#utility.yul\":6235:6253   */\n      swap1\n      pop\n        /* \"#utility.yul\":6111:6259   */\n      swap3\n      swap2\n      pop\n      pop\n      jump\t// out\n        /* \"#utility.yul\":6265:6570   */\n    tag_52:\n        /* \"#utility.yul\":6305:6308   */\n      0x00\n        /* \"#utility.yul\":6324:6344   */\n      tag_195\n        /* \"#utility.yul\":6342:6343   */\n      dup3\n        /* \"#utility.yul\":6324:6344   */\n      tag_171\n      jump\t// in\n    tag_195:\n        /* \"#utility.yul\":6319:6344   */\n      swap2\n      pop\n        /* \"#utility.yul\":6358:6378   */\n      tag_196\n        /* \"#utility.yul\":6376:6377   */\n      dup4\n        /* \"#utility.yul\":6358:6378   */\n      tag_171\n      jump\t// in\n    tag_196:\n        /* \"#utility.yul\":6353:6378   */\n      swap3\n      pop\n        /* \"#utility.yul\":6512:6513   */\n      dup3\n        /* \"#utility.yul\":6444:6510   */\n      0xffffffffffffffffffffffffffffffffffffffffffffffffffffffffffffffff\n        /* \"#utility.yul\":6440:6514   */\n      sub\n        /* \"#utility.yul\":6437:6438   */\n      dup3\n        /* \"#utility.yul\":6434:6515   */\n      gt\n        /* \"#utility.yul\":6431:6538   */\n      iszero\n      tag_197\n      jumpi\n        /* \"#utility.yul\":6518:6536   */\n      tag_198\n      tag_199\n      jump\t// in\n    tag_198:\n        /* \"#utility.yul\":6431:6538   */\n    tag_197:\n        /* \"#utility.yul\":6562:6563   */\n      dup3\n        /* \"#utility.yul\":6559:6560   */\n      dup3\n        /* \"#utility.yul\":6555:6564   */\n      add\n        /* \"#utility.yul\":6548:6564   */\n      swap1\n      pop\n        /* \"#utility.yul\":6265:6570   */\n      swap3\n      swap2\n      pop\n      pop\n      jump\t// out\n        /* \"#utility.yul\":6576:6924   */\n    tag_83:\n        /* \"#utility.yul\":6616:6623   */\n      0x00\n        /* \"#utility.yul\":6639:6659   */\n      tag_201\n        /* \"#utility.yul\":6657:6658   */\n      dup3\n        /* \"#utility.yul\":6639:6659   */\n      tag_171\n      jump\t// in\n    tag_201:\n        /* \"#utility.yul\":6634:6659   */\n      swap2\n      pop\n        /* \"#utility.yul\":6673:6693   */\n      tag_202\n        /* \"#utility.yul\":6691:6692   */\n      dup4\n        /* \"#utility.yul\":6673:6693   */\n      tag_171\n      jump\t// in\n    tag_202:\n        /* \"#utility.yul\":6668:6693   */\n      swap3\n      pop\n        /* \"#utility.yul\":6861:6862   */\n      dup2\n        /* \"#utility.yul\":6793:6859   */\n      0xffffffffffffffffffffffffffffffffffffffffffffffffffffffffffffffff\n        /* \"#utility.yul\":6789:6863   */\n      div\n        /* \"#utility.yul\":6786:6787   */\n      dup4\n        /* \"#utility.yul\":6783:6864   */\n      gt\n        /* \"#utility.yul\":6778:6779   */\n      dup3\n        /* \"#utility.yul\":6771:6780   */\n      iszero\n        /* \"#utility.yul\":6764:6781   */\n      iszero\n        /* \"#utility.yul\":6760:6865   */\n      and\n        /* \"#utility.yul\":6757:6888   */\n      iszero\n      tag_203\n      jumpi\n        /* \"#utility.yul\":6868:6886   */\n      tag_204\n      tag_199\n      jump\t// in\n    tag_204:\n        /* \"#utility.yul\":6757:6888   */\n    tag_203:\n        /* \"#utility.yul\":6916:6917   */\n      dup3\n        /* \"#utility.yul\":6913:6914   */\n      dup3\n        /* \"#utility.yul\":6909:6918   */\n      mul\n        /* \"#utility.yul\":6898:6918   */\n      swap1\n      pop\n        /* \"#utility.yul\":6576:6924   */\n      swap3\n      swap2\n      pop\n      pop\n      jump\t// out\n        /* \"#utility.yul\":6930:7026   */\n    tag_134:\n        /* \"#utility.yul\":6967:6974   */\n      0x00\n        /* \"#utility.yul\":6996:7020   */\n      tag_206\n        /* \"#utility.yul\":7014:7019   */\n      dup3\n        /* \"#utility.yul\":6996:7020   */\n      tag_207\n      jump\t// in\n    tag_206:\n        /* \"#utility.yul\":6985:7020   */\n      swap1\n      pop\n        /* \"#utility.yul\":6930:7026   */\n      swap2\n      swap1\n      pop\n      jump\t// out\n        /* \"#utility.yul\":7032:7109   */\n    tag_143:\n        /* \"#utility.yul\":7069:7076   */\n      0x00\n        /* \"#utility.yul\":7098:7103   */\n      dup2\n        /* \"#utility.yul\":7087:7103   */\n      swap1\n      pop\n        /* \"#utility.yul\":7032:7109   */\n      swap2\n      swap1\n      pop\n      jump\t// out\n        /* \"#utility.yul\":7115:7241   */\n    tag_207:\n        /* \"#utility.yul\":7152:7159   */\n      0x00\n        /* \"#utility.yul\":7192:7234   */\n      0xffffffffffffffffffffffffffffffffffffffff\n        /* \"#utility.yul\":7185:7190   */\n      dup3\n        /* \"#utility.yul\":7181:7235   */\n      and\n        /* \"#utility.yul\":7170:7235   */\n      swap1\n      pop\n        /* \"#utility.yul\":7115:7241   */\n      swap2\n      swap1\n      pop\n      jump\t// out\n        /* \"#utility.yul\":7247:7324   */\n    tag_171:\n        /* \"#utility.yul\":7284:7291   */\n      0x00\n        /* \"#utility.yul\":7313:7318   */\n      dup2\n        /* \"#utility.yul\":7302:7318   */\n      swap1\n      pop\n        /* \"#utility.yul\":7247:7324   */\n      swap2\n      swap1\n      pop\n      jump\t// out\n        /* \"#utility.yul\":7330:7637   */\n    tag_151:\n        /* \"#utility.yul\":7398:7399   */\n      0x00\n        /* \"#utility.yul\":7408:7521   */\n    tag_212:\n        /* \"#utility.yul\":7422:7428   */\n      dup4\n        /* \"#utility.yul\":7419:7420   */\n      dup2\n        /* \"#utility.yul\":7416:7429   */\n      lt\n        /* \"#utility.yul\":7408:7521   */\n      iszero\n      tag_214\n      jumpi\n        /* \"#utility.yul\":7507:7508   */\n      dup1\n        /* \"#utility.yul\":7502:7505   */\n      dup3\n        /* \"#utility.yul\":7498:7509   */\n      add\n        /* \"#utility.yul\":7492:7510   */\n      mload\n        /* \"#utility.yul\":7488:7489   */\n      dup2\n        /* \"#utility.yul\":7483:7486   */\n      dup5\n        /* \"#utility.yul\":7479:7490   */\n      add\n        /* \"#utility.yul\":7472:7511   */\n      mstore\n        /* \"#utility.yul\":7444:7446   */\n      0x20\n        /* \"#utility.yul\":7441:7442   */\n      dup2\n        /* \"#utility.yul\":7437:7447   */\n      add\n        /* \"#utility.yul\":7432:7447   */\n      swap1\n      pop\n        /* \"#utility.yul\":7408:7521   */\n      jump(tag_212)\n    tag_214:\n        /* \"#utility.yul\":7539:7545   */\n      dup4\n        /* \"#utility.yul\":7536:7537   */\n      dup2\n        /* \"#utility.yul\":7533:7546   */\n      gt\n        /* \"#utility.yul\":7530:7631   */\n      iszero\n      tag_215\n      jumpi\n        /* \"#utility.yul\":7619:7620   */\n      0x00\n        /* \"#utility.yul\":7610:7616   */\n      dup5\n        /* \"#utility.yul\":7605:7608   */\n      dup5\n        /* \"#utility.yul\":7601:7617   */\n      add\n        /* \"#utility.yul\":7594:7621   */\n      mstore\n        /* \"#utility.yul\":7530:7631   */\n    tag_215:\n        /* \"#utility.yul\":7379:7637   */\n      pop\n        /* \"#utility.yul\":7330:7637   */\n      pop\n      pop\n      pop\n      jump\t// out\n        /* \"#utility.yul\":7643:7876   */\n    tag_43:\n        /* \"#utility.yul\":7682:7685   */\n      0x00\n        /* \"#utility.yul\":7705:7729   */\n      tag_217\n        /* \"#utility.yul\":7723:7728   */\n      dup3\n        /* \"#utility.yul\":7705:7729   */\n      tag_171\n      jump\t// in\n    tag_217:\n        /* \"#utility.yul\":7696:7729   */\n      swap2\n      pop\n        /* \"#utility.yul\":7751:7817   */\n      0xffffffffffffffffffffffffffffffffffffffffffffffffffffffffffffffff\n        /* \"#utility.yul\":7744:7749   */\n      dup3\n        /* \"#utility.yul\":7741:7818   */\n      eq\n        /* \"#utility.yul\":7738:7841   */\n      iszero\n      tag_218\n      jumpi\n        /* \"#utility.yul\":7821:7839   */\n      tag_219\n      tag_199\n      jump\t// in\n    tag_219:\n        /* \"#utility.yul\":7738:7841   */\n    tag_218:\n        /* \"#utility.yul\":7868:7869   */\n      0x01\n        /* \"#utility.yul\":7861:7866   */\n      dup3\n        /* \"#utility.yul\":7857:7870   */\n      add\n        /* \"#utility.yul\":7850:7870   */\n      swap1\n      pop\n        /* \"#utility.yul\":7643:7876   */\n      swap2\n      swap1\n      pop\n      jump\t// out\n        /* \"#utility.yul\":7882:7982   */\n    tag_139:\n        /* \"#utility.yul\":7921:7928   */\n      0x00\n        /* \"#utility.yul\":7950:7976   */\n      tag_221\n        /* \"#utility.yul\":7970:7975   */\n      dup3\n        /* \"#utility.yul\":7950:7976   */\n      tag_222\n      jump\t// in\n    tag_221:\n        /* \"#utility.yul\":7939:7976   */\n      swap1\n      pop\n        /* \"#utility.yul\":7882:7982   */\n      swap2\n      swap1\n      pop\n      jump\t// out\n        /* \"#utility.yul\":7988:8082   */\n    tag_222:\n        /* \"#utility.yul\":8027:8034   */\n      0x00\n        /* \"#utility.yul\":8056:8076   */\n      tag_224\n        /* \"#utility.yul\":8070:8075   */\n      dup3\n        /* \"#utility.yul\":8056:8076   */\n      tag_225\n      jump\t// in\n    tag_224:\n        /* \"#utility.yul\":8045:8076   */\n      swap1\n      pop\n        /* \"#utility.yul\":7988:8082   */\n      swap2\n      swap1\n      pop\n      jump\t// out\n        /* \"#utility.yul\":8088:8268   */\n    tag_199:\n        /* \"#utility.yul\":8136:8213   */\n      0x4e487b7100000000000000000000000000000000000000000000000000000000\n        /* \"#utility.yul\":8133:8134   */\n      0x00\n        /* \"#utility.yul\":8126:8214   */\n      mstore\n        /* \"#utility.yul\":8233:8237   */\n      0x11\n        /* \"#utility.yul\":8230:8231   */\n      0x04\n        /* \"#utility.yul\":8223:8238   */\n      mstore\n        /* \"#utility.yul\":8257:8261   */\n      0x24\n        /* \"#utility.yul\":8254:8255   */\n      0x00\n        /* \"#utility.yul\":8247:8262   */\n      revert\n        /* \"#utility.yul\":8274:8454   */\n    tag_62:\n        /* \"#utility.yul\":8322:8399   */\n      0x4e487b7100000000000000000000000000000000000000000000000000000000\n        /* \"#utility.yul\":8319:8320   */\n      0x00\n        /* \"#utility.yul\":8312:8400   */\n      mstore\n        /* \"#utility.yul\":8419:8423   */\n      0x32\n        /* \"#utility.yul\":8416:8417   */\n      0x04\n        /* \"#utility.yul\":8409:8424   */\n      mstore\n        /* \"#utility.yul\":8443:8447   */\n      0x24\n        /* \"#utility.yul\":8440:8441   */\n      0x00\n        /* \"#utility.yul\":8433:8448   */\n      revert\n        /* \"#utility.yul\":8460:8640   */\n    tag_55:\n        /* \"#utility.yul\":8508:8585   */\n      0x4e487b7100000000000000000000000000000000000000000000000000000000\n        /* \"#utility.yul\":8505:8506   */\n      0x00\n        /* \"#utility.yul\":8498:8586   */\n      mstore\n        /* \"#utility.yul\":8605:8609   */\n      0x41\n        /* \"#utility.yul\":8602:8603   */\n      0x04\n        /* \"#utility.yul\":8595:8610   */\n      mstore\n        /* \"#utility.yul\":8629:8633   */\n      0x24\n        /* \"#utility.yul\":8626:8627   */\n      0x00\n        /* \"#utility.yul\":8619:8634   */\n      revert\n        /* \"#utility.yul\":8769:8886   */\n    tag_124:\n        /* \"#utility.yul\":8878:8879   */\n      0x00\n        /* \"#utility.yul\":8875:8876   */\n      dup1\n        /* \"#utility.yul\":8868:8880   */\n      revert\n        /* \"#utility.yul\":8892:8986   */\n    tag_225:\n        /* \"#utility.yul\":8925:8933   */\n      0x00\n        /* \"#utility.yul\":8973:8978   */\n      dup2\n        /* \"#utility.yul\":8969:8971   */\n      0x60\n        /* \"#utility.yul\":8965:8979   */\n      shl\n        /* \"#utility.yul\":8944:8979   */\n      swap1\n      pop\n        /* \"#utility.yul\":8892:8986   */\n      swap2\n      swap1\n      pop\n      jump\t// out\n        /* \"#utility.yul\":8992:9151   */\n    tag_157:\n        /* \"#utility.yul\":9132:9143   */\n      0x6e6f742065786973740000000000000000000000000000000000000000000000\n        /* \"#utility.yul\":9128:9129   */\n      0x00\n        /* \"#utility.yul\":9120:9126   */\n      dup3\n        /* \"#utility.yul\":9116:9130   */\n      add\n        /* \"#utility.yul\":9109:9144   */\n      mstore\n        /* \"#utility.yul\":8992:9151   */\n      pop\n      jump\t// out\n        /* \"#utility.yul\":9157:9317   */\n    tag_162:\n        /* \"#utility.yul\":9297:9309   */\n      0x73616d6520746f6b656e00000000000000000000000000000000000000000000\n        /* \"#utility.yul\":9293:9294   */\n      0x00\n        /* \"#utility.yul\":9285:9291   */\n      dup3\n        /* \"#utility.yul\":9281:9295   */\n      add\n        /* \"#utility.yul\":9274:9310   */\n      mstore\n        /* \"#utility.yul\":9157:9317   */\n      pop\n      jump\t// out\n        /* \"#utility.yul\":9323:9483   */\n    tag_167:\n        /* \"#utility.yul\":9463:9475   */\n      0x7061697220657869737400000000000000000000000000000000000000000000\n        /* \"#utility.yul\":9459:9460   */\n      0x00\n        /* \"#utility.yul\":9451:9457   */\n      dup3\n        /* \"#utility.yul\":9447:9461   */\n      add\n        /* \"#utility.yul\":9440:9476   */\n      mstore\n        /* \"#utility.yul\":9323:9483   */\n      pop\n      jump\t// out\n        /* \"#utility.yul\":9489:9611   */\n    tag_116:\n        /* \"#utility.yul\":9562:9586   */\n      tag_237\n        /* \"#utility.yul\":9580:9585   */\n      dup2\n        /* \"#utility.yul\":9562:9586   */\n      tag_134\n      jump\t// in\n    tag_237:\n        /* \"#utility.yul\":9555:9560   */\n      dup2\n        /* \"#utility.yul\":9552:9587   */\n      eq\n        /* \"#utility.yul\":9542:9605   */\n      tag_238\n      jumpi\n        /* \"#utility.yul\":9601:9602   */\n      0x00\n        /* \"#utility.yul\":9598:9599   */\n      dup1\n        /* \"#utility.yul\":9591:9603   */\n      revert\n        /* \"#utility.yul\":9542:9605   */\n    tag_238:\n        /* \"#utility.yul\":9489:9611   */\n      pop\n      jump\t// out\n        /* \"#utility.yul\":9617:9739   */\n    tag_120:\n        /* \"#utility.yul\":9690:9714   */\n      tag_240\n        /* \"#utility.yul\":9708:9713   */\n      dup2\n        /* \"#utility.yul\":9690:9714   */\n      tag_143\n      jump\t// in\n    tag_240:\n        /* \"#utility.yul\":9683:9688   */\n      dup2\n        /* \"#utility.yul\":9680:9715   */\n      eq\n        /* \"#utility.yul\":9670:9733   */\n      tag_241\n      jumpi\n        /* \"#utility.yul\":9729:9730   */\n      0x00\n        /* \"#utility.yul\":9726:9727   */\n      dup1\n        /* \"#utility.yul\":9719:9731   */\n      revert\n        /* \"#utility.yul\":9670:9733   */\n    tag_241:\n        /* \"#utility.yul\":9617:9739   */\n      pop\n      jump\t// out\n\n    auxdata: 0xa2646970667358221220fdfece343ae5a1db72abd3b3813fde25fdbd24f7a67283a1f7ff50ed821974c564736f6c63430008070033\n}\n",
				"bytecode": {
					"linkReferences": {},
					"object": "608060405234801561001057600080fd5b5060405162000fea38038062000fea83398181016040528101906100349190610097565b6000808190555080600160006101000a81548173ffffffffffffffffffffffffffffffffffffffff021916908373ffffffffffffffffffffffffffffffffffffffff16021790555050610112565b600081519050610091816100fb565b92915050565b6000602082840312156100ad576100ac6100f6565b5b60006100bb84828501610082565b91505092915050565b60006100cf826100d6565b9050919050565b600073ffffffffffffffffffffffffffffffffffffffff82169050919050565b600080fd5b610104816100c4565b811461010f57600080fd5b50565b610ec880620001226000396000f3fe608060405234801561001057600080fd5b50600436106100365760003560e01c8063b8e5303d1461003b578063d8aedd861461006e575b600080fd5b61005560048036038101906100509190610990565b61009e565b6040516100659493929190610acd565b60405180910390f35b61008860048036038101906100839190610950565b610197565b6040516100959190610b12565b60405180910390f35b6000806000806100ad856103cc565b6100ec576040517f08c379a00000000000000000000000000000000000000000000000000000000081526004016100e390610b2d565b60405180910390fd5b6002600086815260200190815260200160002060000160009054906101000a900473ffffffffffffffffffffffffffffffffffffffff166002600087815260200190815260200160002060010160009054906101000a900473ffffffffffffffffffffffffffffffffffffffff166002600088815260200190815260200160002060020154600260008981526020019081526020016000206003015493509350935093509193509193565b6000806101a3846103f9565b905060006101b0846103f9565b905060006101be838361042a565b90506000816040516020016101d39190610ab6565b6040516020818303038152906040528051906020012090506101f4816103cc565b15610234576040517f08c379a000000000000000000000000000000000000000000000000000000000815260040161022b90610b6d565b60405180910390fd5b61023e84846105c0565b1561027e576040517f08c379a000000000000000000000000000000000000000000000000000000000815260040161027590610b4d565b60405180910390fd5b60016002600083815260200190815260200160002060040160006101000a81548160ff021916908315150217905550866002600083815260200190815260200160002060000160006101000a81548173ffffffffffffffffffffffffffffffffffffffff021916908373ffffffffffffffffffffffffffffffffffffffff160217905550856002600083815260200190815260200160002060010160006101000a81548173ffffffffffffffffffffffffffffffffffffffff021916908373ffffffffffffffffffffffffffffffffffffffff1602179055506000600260008381526020019081526020016000206002018190555060006002600083815260200190815260200160002060030181905550806003600080548152602001908152602001600020819055506000808154809291906103ba90610cdd565b91905055508094505050505092915050565b60006002600083815260200190815260200160002060040160009054906101000a900460ff169050919050565b60606104238260405160200161040f9190610a9b565b60405160208183030381529060405261062c565b9050919050565b6060600083905060008390506000815183516104469190610bb4565b67ffffffffffffffff81111561045f5761045e610da8565b5b6040519080825280601f01601f1916602001820160405280156104915781602001600182028036833780820191505090505b50905060008190506000805b8551811015610525578581815181106104b9576104b8610d79565b5b602001015160f81c60f81b8383806104d090610cdd565b9450815181106104e3576104e2610d79565b5b60200101907effffffffffffffffffffffffffffffffffffffffffffffffffffffffffffff1916908160001a905350808061051d90610cdd565b91505061049d565b5060005b84518110156105b15784818151811061054557610544610d79565b5b602001015160f81c60f81b83838061055c90610cdd565b94508151811061056f5761056e610d79565b5b60200101907effffffffffffffffffffffffffffffffffffffffffffffffffffffffffffff1916908160001a90535080806105a990610cdd565b915050610529565b50829550505050505092915050565b600081518351146105d45760009050610626565b816040516020016105e59190610ab6565b604051602081830303815290604052805190602001208360405160200161060c9190610ab6565b604051602081830303815290604052805190602001201490505b92915050565b606060006040518060400160405280601081526020017f303132333435363738396162636465660000000000000000000000000000000081525090506000600284516106789190610c0a565b60026106849190610bb4565b67ffffffffffffffff81111561069d5761069c610da8565b5b6040519080825280601f01601f1916602001820160405280156106cf5781602001600182028036833780820191505090505b5090507f30000000000000000000000000000000000000000000000000000000000000008160008151811061070757610706610d79565b5b60200101907effffffffffffffffffffffffffffffffffffffffffffffffffffffffffffff1916908160001a9053507f78000000000000000000000000000000000000000000000000000000000000008160018151811061076b5761076a610d79565b5b60200101907effffffffffffffffffffffffffffffffffffffffffffffffffffffffffffff1916908160001a90535060005b845181101561091b578260048683815181106107bc576107bb610d79565b5b602001015160f81c60f81b7effffffffffffffffffffffffffffffffffffffffffffffffffffffffffffff1916901c60f81c60ff168151811061080257610801610d79565b5b602001015160f81c60f81b8260028361081b9190610c0a565b60026108279190610bb4565b8151811061083857610837610d79565b5b60200101907effffffffffffffffffffffffffffffffffffffffffffffffffffffffffffff1916908160001a90535082600f60f81b8683815181106108805761087f610d79565b5b602001015160f81c60f81b1660f81c60ff16815181106108a3576108a2610d79565b5b602001015160f81c60f81b826002836108bc9190610c0a565b60036108c89190610bb4565b815181106108d9576108d8610d79565b5b60200101907effffffffffffffffffffffffffffffffffffffffffffffffffffffffffffff1916908160001a905350808061091390610cdd565b91505061079d565b508092505050919050565b60008135905061093581610e64565b92915050565b60008135905061094a81610e7b565b92915050565b6000806040838503121561096757610966610dd7565b5b600061097585828601610926565b925050602061098685828601610926565b9150509250929050565b6000602082840312156109a6576109a5610dd7565b5b60006109b48482850161093b565b91505092915050565b6109c681610c64565b82525050565b6109dd6109d882610c64565b610d26565b82525050565b6109ec81610c76565b82525050565b60006109fd82610b8d565b610a078185610ba9565b9350610a17818560208601610caa565b80840191505092915050565b6000610a30600983610b98565b9150610a3b82610de9565b602082019050919050565b6000610a53600a83610b98565b9150610a5e82610e12565b602082019050919050565b6000610a76600a83610b98565b9150610a8182610e3b565b602082019050919050565b610a9581610ca0565b82525050565b6000610aa782846109cc565b60148201915081905092915050565b6000610ac282846109f2565b915081905092915050565b6000608082019050610ae260008301876109bd565b610aef60208301866109bd565b610afc6040830185610a8c565b610b096060830184610a8c565b95945050505050565b6000602082019050610b2760008301846109e3565b92915050565b60006020820190508181036000830152610b4681610a23565b9050919050565b60006020820190508181036000830152610b6681610a46565b9050919050565b60006020820190508181036000830152610b8681610a69565b9050919050565b600081519050919050565b600082825260208201905092915050565b600081905092915050565b6000610bbf82610ca0565b9150610bca83610ca0565b9250827fffffffffffffffffffffffffffffffffffffffffffffffffffffffffffffffff03821115610bff57610bfe610d4a565b5b828201905092915050565b6000610c1582610ca0565b9150610c2083610ca0565b9250817fffffffffffffffffffffffffffffffffffffffffffffffffffffffffffffffff0483118215151615610c5957610c58610d4a565b5b828202905092915050565b6000610c6f82610c80565b9050919050565b6000819050919050565b600073ffffffffffffffffffffffffffffffffffffffff82169050919050565b6000819050919050565b60005b83811015610cc8578082015181840152602081019050610cad565b83811115610cd7576000848401525b50505050565b6000610ce882610ca0565b91507fffffffffffffffffffffffffffffffffffffffffffffffffffffffffffffffff821415610d1b57610d1a610d4a565b5b600182019050919050565b6000610d3182610d38565b9050919050565b6000610d4382610ddc565b9050919050565b7f4e487b7100000000000000000000000000000000000000000000000000000000600052601160045260246000fd5b7f4e487b7100000000000000000000000000000000000000000000000000000000600052603260045260246000fd5b7f4e487b7100000000000000000000000000000000000000000000000000000000600052604160045260246000fd5b600080fd5b60008160601b9050919050565b7f6e6f742065786973740000000000000000000000000000000000000000000000600082015250565b7f73616d6520746f6b656e00000000000000000000000000000000000000000000600082015250565b7f7061697220657869737400000000000000000000000000000000000000000000600082015250565b610e6d81610c64565b8114610e7857600080fd5b50565b610e8481610c76565b8114610e8f57600080fd5b5056fea2646970667358221220fdfece343ae5a1db72abd3b3813fde25fdbd24f7a67283a1f7ff50ed821974c564736f6c63430008070033",
					"opcodes": "PUSH1 0x80 PUSH1 0x40 MSTORE CALLVALUE DUP1 ISZERO PUSH2 0x10 JUMPI PUSH1 0x0 DUP1 REVERT JUMPDEST POP PUSH1 0x40 MLOAD PUSH3 0xFEA CODESIZE SUB DUP1 PUSH3 0xFEA DUP4 CODECOPY DUP2 DUP2 ADD PUSH1 0x40 MSTORE DUP2 ADD SWAP1 PUSH2 0x34 SWAP2 SWAP1 PUSH2 0x97 JUMP JUMPDEST PUSH1 0x0 DUP1 DUP2 SWAP1 SSTORE POP DUP1 PUSH1 0x1 PUSH1 0x0 PUSH2 0x100 EXP DUP2 SLOAD DUP2 PUSH20 0xFFFFFFFFFFFFFFFFFFFFFFFFFFFFFFFFFFFFFFFF MUL NOT AND SWAP1 DUP4 PUSH20 0xFFFFFFFFFFFFFFFFFFFFFFFFFFFFFFFFFFFFFFFF AND MUL OR SWAP1 SSTORE POP POP PUSH2 0x112 JUMP JUMPDEST PUSH1 0x0 DUP2 MLOAD SWAP1 POP PUSH2 0x91 DUP2 PUSH2 0xFB JUMP JUMPDEST SWAP3 SWAP2 POP POP JUMP JUMPDEST PUSH1 0x0 PUSH1 0x20 DUP3 DUP5 SUB SLT ISZERO PUSH2 0xAD JUMPI PUSH2 0xAC PUSH2 0xF6 JUMP JUMPDEST JUMPDEST PUSH1 0x0 PUSH2 0xBB DUP5 DUP3 DUP6 ADD PUSH2 0x82 JUMP JUMPDEST SWAP2 POP POP SWAP3 SWAP2 POP POP JUMP JUMPDEST PUSH1 0x0 PUSH2 0xCF DUP3 PUSH2 0xD6 JUMP JUMPDEST SWAP1 POP SWAP2 SWAP1 POP JUMP JUMPDEST PUSH1 0x0 PUSH20 0xFFFFFFFFFFFFFFFFFFFFFFFFFFFFFFFFFFFFFFFF DUP3 AND SWAP1 POP SWAP2 SWAP1 POP JUMP JUMPDEST PUSH1 0x0 DUP1 REVERT JUMPDEST PUSH2 0x104 DUP2 PUSH2 0xC4 JUMP JUMPDEST DUP2 EQ PUSH2 0x10F JUMPI PUSH1 0x0 DUP1 REVERT JUMPDEST POP JUMP JUMPDEST PUSH2 0xEC8 DUP1 PUSH3 0x122 PUSH1 0x0 CODECOPY PUSH1 0x0 RETURN INVALID PUSH1 0x80 PUSH1 0x40 MSTORE CALLVALUE DUP1 ISZERO PUSH2 0x10 JUMPI PUSH1 0x0 DUP1 REVERT JUMPDEST POP PUSH1 0x4 CALLDATASIZE LT PUSH2 0x36 JUMPI PUSH1 0x0 CALLDATALOAD PUSH1 0xE0 SHR DUP1 PUSH4 0xB8E5303D EQ PUSH2 0x3B JUMPI DUP1 PUSH4 0xD8AEDD86 EQ PUSH2 0x6E JUMPI JUMPDEST PUSH1 0x0 DUP1 REVERT JUMPDEST PUSH2 0x55 PUSH1 0x4 DUP1 CALLDATASIZE SUB DUP2 ADD SWAP1 PUSH2 0x50 SWAP2 SWAP1 PUSH2 0x990 JUMP JUMPDEST PUSH2 0x9E JUMP JUMPDEST PUSH1 0x40 MLOAD PUSH2 0x65 SWAP5 SWAP4 SWAP3 SWAP2 SWAP1 PUSH2 0xACD JUMP JUMPDEST PUSH1 0x40 MLOAD DUP1 SWAP2 SUB SWAP1 RETURN JUMPDEST PUSH2 0x88 PUSH1 0x4 DUP1 CALLDATASIZE SUB DUP2 ADD SWAP1 PUSH2 0x83 SWAP2 SWAP1 PUSH2 0x950 JUMP JUMPDEST PUSH2 0x197 JUMP JUMPDEST PUSH1 0x40 MLOAD PUSH2 0x95 SWAP2 SWAP1 PUSH2 0xB12 JUMP JUMPDEST PUSH1 0x40 MLOAD DUP1 SWAP2 SUB SWAP1 RETURN JUMPDEST PUSH1 0x0 DUP1 PUSH1 0x0 DUP1 PUSH2 0xAD DUP6 PUSH2 0x3CC JUMP JUMPDEST PUSH2 0xEC JUMPI PUSH1 0x40 MLOAD PUSH32 0x8C379A000000000000000000000000000000000000000000000000000000000 DUP2 MSTORE PUSH1 0x4 ADD PUSH2 0xE3 SWAP1 PUSH2 0xB2D JUMP JUMPDEST PUSH1 0x40 MLOAD DUP1 SWAP2 SUB SWAP1 REVERT JUMPDEST PUSH1 0x2 PUSH1 0x0 DUP7 DUP2 MSTORE PUSH1 0x20 ADD SWAP1 DUP2 MSTORE PUSH1 0x20 ADD PUSH1 0x0 KECCAK256 PUSH1 0x0 ADD PUSH1 0x0 SWAP1 SLOAD SWAP1 PUSH2 0x100 EXP SWAP1 DIV PUSH20 0xFFFFFFFFFFFFFFFFFFFFFFFFFFFFFFFFFFFFFFFF AND PUSH1 0x2 PUSH1 0x0 DUP8 DUP2 MSTORE PUSH1 0x20 ADD SWAP1 DUP2 MSTORE PUSH1 0x20 ADD PUSH1 0x0 KECCAK256 PUSH1 0x1 ADD PUSH1 0x0 SWAP1 SLOAD SWAP1 PUSH2 0x100 EXP SWAP1 DIV PUSH20 0xFFFFFFFFFFFFFFFFFFFFFFFFFFFFFFFFFFFFFFFF AND PUSH1 0x2 PUSH1 0x0 DUP9 DUP2 MSTORE PUSH1 0x20 ADD SWAP1 DUP2 MSTORE PUSH1 0x20 ADD PUSH1 0x0 KECCAK256 PUSH1 0x2 ADD SLOAD PUSH1 0x2 PUSH1 0x0 DUP10 DUP2 MSTORE PUSH1 0x20 ADD SWAP1 DUP2 MSTORE PUSH1 0x20 ADD PUSH1 0x0 KECCAK256 PUSH1 0x3 ADD SLOAD SWAP4 POP SWAP4 POP SWAP4 POP SWAP4 POP SWAP2 SWAP4 POP SWAP2 SWAP4 JUMP JUMPDEST PUSH1 0x0 DUP1 PUSH2 0x1A3 DUP5 PUSH2 0x3F9 JUMP JUMPDEST SWAP1 POP PUSH1 0x0 PUSH2 0x1B0 DUP5 PUSH2 0x3F9 JUMP JUMPDEST SWAP1 POP PUSH1 0x0 PUSH2 0x1BE DUP4 DUP4 PUSH2 0x42A JUMP JUMPDEST SWAP1 POP PUSH1 0x0 DUP2 PUSH1 0x40 MLOAD PUSH1 0x20 ADD PUSH2 0x1D3 SWAP2 SWAP1 PUSH2 0xAB6 JUMP JUMPDEST PUSH1 0x40 MLOAD PUSH1 0x20 DUP2 DUP4 SUB SUB DUP2 MSTORE SWAP1 PUSH1 0x40 MSTORE DUP1 MLOAD SWAP1 PUSH1 0x20 ADD KECCAK256 SWAP1 POP PUSH2 0x1F4 DUP2 PUSH2 0x3CC JUMP JUMPDEST ISZERO PUSH2 0x234 JUMPI PUSH1 0x40 MLOAD PUSH32 0x8C379A000000000000000000000000000000000000000000000000000000000 DUP2 MSTORE PUSH1 0x4 ADD PUSH2 0x22B SWAP1 PUSH2 0xB6D JUMP JUMPDEST PUSH1 0x40 MLOAD DUP1 SWAP2 SUB SWAP1 REVERT JUMPDEST PUSH2 0x23E DUP5 DUP5 PUSH2 0x5C0 JUMP JUMPDEST ISZERO PUSH2 0x27E JUMPI PUSH1 0x40 MLOAD PUSH32 0x8C379A000000000000000000000000000000000000000000000000000000000 DUP2 MSTORE PUSH1 0x4 ADD PUSH2 0x275 SWAP1 PUSH2 0xB4D JUMP JUMPDEST PUSH1 0x40 MLOAD DUP1 SWAP2 SUB SWAP1 REVERT JUMPDEST PUSH1 0x1 PUSH1 0x2 PUSH1 0x0 DUP4 DUP2 MSTORE PUSH1 0x20 ADD SWAP1 DUP2 MSTORE PUSH1 0x20 ADD PUSH1 0x0 KECCAK256 PUSH1 0x4 ADD PUSH1 0x0 PUSH2 0x100 EXP DUP2 SLOAD DUP2 PUSH1 0xFF MUL NOT AND SWAP1 DUP4 ISZERO ISZERO MUL OR SWAP1 SSTORE POP DUP7 PUSH1 0x2 PUSH1 0x0 DUP4 DUP2 MSTORE PUSH1 0x20 ADD SWAP1 DUP2 MSTORE PUSH1 0x20 ADD PUSH1 0x0 KECCAK256 PUSH1 0x0 ADD PUSH1 0x0 PUSH2 0x100 EXP DUP2 SLOAD DUP2 PUSH20 0xFFFFFFFFFFFFFFFFFFFFFFFFFFFFFFFFFFFFFFFF MUL NOT AND SWAP1 DUP4 PUSH20 0xFFFFFFFFFFFFFFFFFFFFFFFFFFFFFFFFFFFFFFFF AND MUL OR SWAP1 SSTORE POP DUP6 PUSH1 0x2 PUSH1 0x0 DUP4 DUP2 MSTORE PUSH1 0x20 ADD SWAP1 DUP2 MSTORE PUSH1 0x20 ADD PUSH1 0x0 KECCAK256 PUSH1 0x1 ADD PUSH1 0x0 PUSH2 0x100 EXP DUP2 SLOAD DUP2 PUSH20 0xFFFFFFFFFFFFFFFFFFFFFFFFFFFFFFFFFFFFFFFF MUL NOT AND SWAP1 DUP4 PUSH20 0xFFFFFFFFFFFFFFFFFFFFFFFFFFFFFFFFFFFFFFFF AND MUL OR SWAP1 SSTORE POP PUSH1 0x0 PUSH1 0x2 PUSH1 0x0 DUP4 DUP2 MSTORE PUSH1 0x20 ADD SWAP1 DUP2 MSTORE PUSH1 0x20 ADD PUSH1 0x0 KECCAK256 PUSH1 0x2 ADD DUP2 SWAP1 SSTORE POP PUSH1 0x0 PUSH1 0x2 PUSH1 0x0 DUP4 DUP2 MSTORE PUSH1 0x20 ADD SWAP1 DUP2 MSTORE PUSH1 0x20 ADD PUSH1 0x0 KECCAK256 PUSH1 0x3 ADD DUP2 SWAP1 SSTORE POP DUP1 PUSH1 0x3 PUSH1 0x0 DUP1 SLOAD DUP2 MSTORE PUSH1 0x20 ADD SWAP1 DUP2 MSTORE PUSH1 0x20 ADD PUSH1 0x0 KECCAK256 DUP2 SWAP1 SSTORE POP PUSH1 0x0 DUP1 DUP2 SLOAD DUP1 SWAP3 SWAP2 SWAP1 PUSH2 0x3BA SWAP1 PUSH2 0xCDD JUMP JUMPDEST SWAP2 SWAP1 POP SSTORE POP DUP1 SWAP5 POP POP POP POP POP SWAP3 SWAP2 POP POP JUMP JUMPDEST PUSH1 0x0 PUSH1 0x2 PUSH1 0x0 DUP4 DUP2 MSTORE PUSH1 0x20 ADD SWAP1 DUP2 MSTORE PUSH1 0x20 ADD PUSH1 0x0 KECCAK256 PUSH1 0x4 ADD PUSH1 0x0 SWAP1 SLOAD SWAP1 PUSH2 0x100 EXP SWAP1 DIV PUSH1 0xFF AND SWAP1 POP SWAP2 SWAP1 POP JUMP JUMPDEST PUSH1 0x60 PUSH2 0x423 DUP3 PUSH1 0x40 MLOAD PUSH1 0x20 ADD PUSH2 0x40F SWAP2 SWAP1 PUSH2 0xA9B JUMP JUMPDEST PUSH1 0x40 MLOAD PUSH1 0x20 DUP2 DUP4 SUB SUB DUP2 MSTORE SWAP1 PUSH1 0x40 MSTORE PUSH2 0x62C JUMP JUMPDEST SWAP1 POP SWAP2 SWAP1 POP JUMP JUMPDEST PUSH1 0x60 PUSH1 0x0 DUP4 SWAP1 POP PUSH1 0x0 DUP4 SWAP1 POP PUSH1 0x0 DUP2 MLOAD DUP4 MLOAD PUSH2 0x446 SWAP2 SWAP1 PUSH2 0xBB4 JUMP JUMPDEST PUSH8 0xFFFFFFFFFFFFFFFF DUP2 GT ISZERO PUSH2 0x45F JUMPI PUSH2 0x45E PUSH2 0xDA8 JUMP JUMPDEST JUMPDEST PUSH1 0x40 MLOAD SWAP1 DUP1 DUP3 MSTORE DUP1 PUSH1 0x1F ADD PUSH1 0x1F NOT AND PUSH1 0x20 ADD DUP3 ADD PUSH1 0x40 MSTORE DUP1 ISZERO PUSH2 0x491 JUMPI DUP2 PUSH1 0x20 ADD PUSH1 0x1 DUP3 MUL DUP1 CALLDATASIZE DUP4 CALLDATACOPY DUP1 DUP3 ADD SWAP2 POP POP SWAP1 POP JUMPDEST POP SWAP1 POP PUSH1 0x0 DUP2 SWAP1 POP PUSH1 0x0 DUP1 JUMPDEST DUP6 MLOAD DUP2 LT ISZERO PUSH2 0x525 JUMPI DUP6 DUP2 DUP2 MLOAD DUP2 LT PUSH2 0x4B9 JUMPI PUSH2 0x4B8 PUSH2 0xD79 JUMP JUMPDEST JUMPDEST PUSH1 0x20 ADD ADD MLOAD PUSH1 0xF8 SHR PUSH1 0xF8 SHL DUP4 DUP4 DUP1 PUSH2 0x4D0 SWAP1 PUSH2 0xCDD JUMP JUMPDEST SWAP5 POP DUP2 MLOAD DUP2 LT PUSH2 0x4E3 JUMPI PUSH2 0x4E2 PUSH2 0xD79 JUMP JUMPDEST JUMPDEST PUSH1 0x20 ADD ADD SWAP1 PUSH31 0xFFFFFFFFFFFFFFFFFFFFFFFFFFFFFFFFFFFFFFFFFFFFFFFFFFFFFFFFFFFFFF NOT AND SWAP1 DUP2 PUSH1 0x0 BYTE SWAP1 MSTORE8 POP DUP1 DUP1 PUSH2 0x51D SWAP1 PUSH2 0xCDD JUMP JUMPDEST SWAP2 POP POP PUSH2 0x49D JUMP JUMPDEST POP PUSH1 0x0 JUMPDEST DUP5 MLOAD DUP2 LT ISZERO PUSH2 0x5B1 JUMPI DUP5 DUP2 DUP2 MLOAD DUP2 LT PUSH2 0x545 JUMPI PUSH2 0x544 PUSH2 0xD79 JUMP JUMPDEST JUMPDEST PUSH1 0x20 ADD ADD MLOAD PUSH1 0xF8 SHR PUSH1 0xF8 SHL DUP4 DUP4 DUP1 PUSH2 0x55C SWAP1 PUSH2 0xCDD JUMP JUMPDEST SWAP5 POP DUP2 MLOAD DUP2 LT PUSH2 0x56F JUMPI PUSH2 0x56E PUSH2 0xD79 JUMP JUMPDEST JUMPDEST PUSH1 0x20 ADD ADD SWAP1 PUSH31 0xFFFFFFFFFFFFFFFFFFFFFFFFFFFFFFFFFFFFFFFFFFFFFFFFFFFFFFFFFFFFFF NOT AND SWAP1 DUP2 PUSH1 0x0 BYTE SWAP1 MSTORE8 POP DUP1 DUP1 PUSH2 0x5A9 SWAP1 PUSH2 0xCDD JUMP JUMPDEST SWAP2 POP POP PUSH2 0x529 JUMP JUMPDEST POP DUP3 SWAP6 POP POP POP POP POP POP SWAP3 SWAP2 POP POP JUMP JUMPDEST PUSH1 0x0 DUP2 MLOAD DUP4 MLOAD EQ PUSH2 0x5D4 JUMPI PUSH1 0x0 SWAP1 POP PUSH2 0x626 JUMP JUMPDEST DUP2 PUSH1 0x40 MLOAD PUSH1 0x20 ADD PUSH2 0x5E5 SWAP2 SWAP1 PUSH2 0xAB6 JUMP JUMPDEST PUSH1 0x40 MLOAD PUSH1 0x20 DUP2 DUP4 SUB SUB DUP2 MSTORE SWAP1 PUSH1 0x40 MSTORE DUP1 MLOAD SWAP1 PUSH1 0x20 ADD KECCAK256 DUP4 PUSH1 0x40 MLOAD PUSH1 0x20 ADD PUSH2 0x60C SWAP2 SWAP1 PUSH2 0xAB6 JUMP JUMPDEST PUSH1 0x40 MLOAD PUSH1 0x20 DUP2 DUP4 SUB SUB DUP2 MSTORE SWAP1 PUSH1 0x40 MSTORE DUP1 MLOAD SWAP1 PUSH1 0x20 ADD KECCAK256 EQ SWAP1 POP JUMPDEST SWAP3 SWAP2 POP POP JUMP JUMPDEST PUSH1 0x60 PUSH1 0x0 PUSH1 0x40 MLOAD DUP1 PUSH1 0x40 ADD PUSH1 0x40 MSTORE DUP1 PUSH1 0x10 DUP2 MSTORE PUSH1 0x20 ADD PUSH32 0x3031323334353637383961626364656600000000000000000000000000000000 DUP2 MSTORE POP SWAP1 POP PUSH1 0x0 PUSH1 0x2 DUP5 MLOAD PUSH2 0x678 SWAP2 SWAP1 PUSH2 0xC0A JUMP JUMPDEST PUSH1 0x2 PUSH2 0x684 SWAP2 SWAP1 PUSH2 0xBB4 JUMP JUMPDEST PUSH8 0xFFFFFFFFFFFFFFFF DUP2 GT ISZERO PUSH2 0x69D JUMPI PUSH2 0x69C PUSH2 0xDA8 JUMP JUMPDEST JUMPDEST PUSH1 0x40 MLOAD SWAP1 DUP1 DUP3 MSTORE DUP1 PUSH1 0x1F ADD PUSH1 0x1F NOT AND PUSH1 0x20 ADD DUP3 ADD PUSH1 0x40 MSTORE DUP1 ISZERO PUSH2 0x6CF JUMPI DUP2 PUSH1 0x20 ADD PUSH1 0x1 DUP3 MUL DUP1 CALLDATASIZE DUP4 CALLDATACOPY DUP1 DUP3 ADD SWAP2 POP POP SWAP1 POP JUMPDEST POP SWAP1 POP PUSH32 0x3000000000000000000000000000000000000000000000000000000000000000 DUP2 PUSH1 0x0 DUP2 MLOAD DUP2 LT PUSH2 0x707 JUMPI PUSH2 0x706 PUSH2 0xD79 JUMP JUMPDEST JUMPDEST PUSH1 0x20 ADD ADD SWAP1 PUSH31 0xFFFFFFFFFFFFFFFFFFFFFFFFFFFFFFFFFFFFFFFFFFFFFFFFFFFFFFFFFFFFFF NOT AND SWAP1 DUP2 PUSH1 0x0 BYTE SWAP1 MSTORE8 POP PUSH32 0x7800000000000000000000000000000000000000000000000000000000000000 DUP2 PUSH1 0x1 DUP2 MLOAD DUP2 LT PUSH2 0x76B JUMPI PUSH2 0x76A PUSH2 0xD79 JUMP JUMPDEST JUMPDEST PUSH1 0x20 ADD ADD SWAP1 PUSH31 0xFFFFFFFFFFFFFFFFFFFFFFFFFFFFFFFFFFFFFFFFFFFFFFFFFFFFFFFFFFFFFF NOT AND SWAP1 DUP2 PUSH1 0x0 BYTE SWAP1 MSTORE8 POP PUSH1 0x0 JUMPDEST DUP5 MLOAD DUP2 LT ISZERO PUSH2 0x91B JUMPI DUP3 PUSH1 0x4 DUP7 DUP4 DUP2 MLOAD DUP2 LT PUSH2 0x7BC JUMPI PUSH2 0x7BB PUSH2 0xD79 JUMP JUMPDEST JUMPDEST PUSH1 0x20 ADD ADD MLOAD PUSH1 0xF8 SHR PUSH1 0xF8 SHL PUSH31 0xFFFFFFFFFFFFFFFFFFFFFFFFFFFFFFFFFFFFFFFFFFFFFFFFFFFFFFFFFFFFFF NOT AND SWAP1 SHR PUSH1 0xF8 SHR PUSH1 0xFF AND DUP2 MLOAD DUP2 LT PUSH2 0x802 JUMPI PUSH2 0x801 PUSH2 0xD79 JUMP JUMPDEST JUMPDEST PUSH1 0x20 ADD ADD MLOAD PUSH1 0xF8 SHR PUSH1 0xF8 SHL DUP3 PUSH1 0x2 DUP4 PUSH2 0x81B SWAP2 SWAP1 PUSH2 0xC0A JUMP JUMPDEST PUSH1 0x2 PUSH2 0x827 SWAP2 SWAP1 PUSH2 0xBB4 JUMP JUMPDEST DUP2 MLOAD DUP2 LT PUSH2 0x838 JUMPI PUSH2 0x837 PUSH2 0xD79 JUMP JUMPDEST JUMPDEST PUSH1 0x20 ADD ADD SWAP1 PUSH31 0xFFFFFFFFFFFFFFFFFFFFFFFFFFFFFFFFFFFFFFFFFFFFFFFFFFFFFFFFFFFFFF NOT AND SWAP1 DUP2 PUSH1 0x0 BYTE SWAP1 MSTORE8 POP DUP3 PUSH1 0xF PUSH1 0xF8 SHL DUP7 DUP4 DUP2 MLOAD DUP2 LT PUSH2 0x880 JUMPI PUSH2 0x87F PUSH2 0xD79 JUMP JUMPDEST JUMPDEST PUSH1 0x20 ADD ADD MLOAD PUSH1 0xF8 SHR PUSH1 0xF8 SHL AND PUSH1 0xF8 SHR PUSH1 0xFF AND DUP2 MLOAD DUP2 LT PUSH2 0x8A3 JUMPI PUSH2 0x8A2 PUSH2 0xD79 JUMP JUMPDEST JUMPDEST PUSH1 0x20 ADD ADD MLOAD PUSH1 0xF8 SHR PUSH1 0xF8 SHL DUP3 PUSH1 0x2 DUP4 PUSH2 0x8BC SWAP2 SWAP1 PUSH2 0xC0A JUMP JUMPDEST PUSH1 0x3 PUSH2 0x8C8 SWAP2 SWAP1 PUSH2 0xBB4 JUMP JUMPDEST DUP2 MLOAD DUP2 LT PUSH2 0x8D9 JUMPI PUSH2 0x8D8 PUSH2 0xD79 JUMP JUMPDEST JUMPDEST PUSH1 0x20 ADD ADD SWAP1 PUSH31 0xFFFFFFFFFFFFFFFFFFFFFFFFFFFFFFFFFFFFFFFFFFFFFFFFFFFFFFFFFFFFFF NOT AND SWAP1 DUP2 PUSH1 0x0 BYTE SWAP1 MSTORE8 POP DUP1 DUP1 PUSH2 0x913 SWAP1 PUSH2 0xCDD JUMP JUMPDEST SWAP2 POP POP PUSH2 0x79D JUMP JUMPDEST POP DUP1 SWAP3 POP POP POP SWAP2 SWAP1 POP JUMP JUMPDEST PUSH1 0x0 DUP2 CALLDATALOAD SWAP1 POP PUSH2 0x935 DUP2 PUSH2 0xE64 JUMP JUMPDEST SWAP3 SWAP2 POP POP JUMP JUMPDEST PUSH1 0x0 DUP2 CALLDATALOAD SWAP1 POP PUSH2 0x94A DUP2 PUSH2 0xE7B JUMP JUMPDEST SWAP3 SWAP2 POP POP JUMP JUMPDEST PUSH1 0x0 DUP1 PUSH1 0x40 DUP4 DUP6 SUB SLT ISZERO PUSH2 0x967 JUMPI PUSH2 0x966 PUSH2 0xDD7 JUMP JUMPDEST JUMPDEST PUSH1 0x0 PUSH2 0x975 DUP6 DUP3 DUP7 ADD PUSH2 0x926 JUMP JUMPDEST SWAP3 POP POP PUSH1 0x20 PUSH2 0x986 DUP6 DUP3 DUP7 ADD PUSH2 0x926 JUMP JUMPDEST SWAP2 POP POP SWAP3 POP SWAP3 SWAP1 POP JUMP JUMPDEST PUSH1 0x0 PUSH1 0x20 DUP3 DUP5 SUB SLT ISZERO PUSH2 0x9A6 JUMPI PUSH2 0x9A5 PUSH2 0xDD7 JUMP JUMPDEST JUMPDEST PUSH1 0x0 PUSH2 0x9B4 DUP5 DUP3 DUP6 ADD PUSH2 0x93B JUMP JUMPDEST SWAP2 POP POP SWAP3 SWAP2 POP POP JUMP JUMPDEST PUSH2 0x9C6 DUP2 PUSH2 0xC64 JUMP JUMPDEST DUP3 MSTORE POP POP JUMP JUMPDEST PUSH2 0x9DD PUSH2 0x9D8 DUP3 PUSH2 0xC64 JUMP JUMPDEST PUSH2 0xD26 JUMP JUMPDEST DUP3 MSTORE POP POP JUMP JUMPDEST PUSH2 0x9EC DUP2 PUSH2 0xC76 JUMP JUMPDEST DUP3 MSTORE POP POP JUMP JUMPDEST PUSH1 0x0 PUSH2 0x9FD DUP3 PUSH2 0xB8D JUMP JUMPDEST PUSH2 0xA07 DUP2 DUP6 PUSH2 0xBA9 JUMP JUMPDEST SWAP4 POP PUSH2 0xA17 DUP2 DUP6 PUSH1 0x20 DUP7 ADD PUSH2 0xCAA JUMP JUMPDEST DUP1 DUP5 ADD SWAP2 POP POP SWAP3 SWAP2 POP POP JUMP JUMPDEST PUSH1 0x0 PUSH2 0xA30 PUSH1 0x9 DUP4 PUSH2 0xB98 JUMP JUMPDEST SWAP2 POP PUSH2 0xA3B DUP3 PUSH2 0xDE9 JUMP JUMPDEST PUSH1 0x20 DUP3 ADD SWAP1 POP SWAP2 SWAP1 POP JUMP JUMPDEST PUSH1 0x0 PUSH2 0xA53 PUSH1 0xA DUP4 PUSH2 0xB98 JUMP JUMPDEST SWAP2 POP PUSH2 0xA5E DUP3 PUSH2 0xE12 JUMP JUMPDEST PUSH1 0x20 DUP3 ADD SWAP1 POP SWAP2 SWAP1 POP JUMP JUMPDEST PUSH1 0x0 PUSH2 0xA76 PUSH1 0xA DUP4 PUSH2 0xB98 JUMP JUMPDEST SWAP2 POP PUSH2 0xA81 DUP3 PUSH2 0xE3B JUMP JUMPDEST PUSH1 0x20 DUP3 ADD SWAP1 POP SWAP2 SWAP1 POP JUMP JUMPDEST PUSH2 0xA95 DUP2 PUSH2 0xCA0 JUMP JUMPDEST DUP3 MSTORE POP POP JUMP JUMPDEST PUSH1 0x0 PUSH2 0xAA7 DUP3 DUP5 PUSH2 0x9CC JUMP JUMPDEST PUSH1 0x14 DUP3 ADD SWAP2 POP DUP2 SWAP1 POP SWAP3 SWAP2 POP POP JUMP JUMPDEST PUSH1 0x0 PUSH2 0xAC2 DUP3 DUP5 PUSH2 0x9F2 JUMP JUMPDEST SWAP2 POP DUP2 SWAP1 POP SWAP3 SWAP2 POP POP JUMP JUMPDEST PUSH1 0x0 PUSH1 0x80 DUP3 ADD SWAP1 POP PUSH2 0xAE2 PUSH1 0x0 DUP4 ADD DUP8 PUSH2 0x9BD JUMP JUMPDEST PUSH2 0xAEF PUSH1 0x20 DUP4 ADD DUP7 PUSH2 0x9BD JUMP JUMPDEST PUSH2 0xAFC PUSH1 0x40 DUP4 ADD DUP6 PUSH2 0xA8C JUMP JUMPDEST PUSH2 0xB09 PUSH1 0x60 DUP4 ADD DUP5 PUSH2 0xA8C JUMP JUMPDEST SWAP6 SWAP5 POP POP POP POP POP JUMP JUMPDEST PUSH1 0x0 PUSH1 0x20 DUP3 ADD SWAP1 POP PUSH2 0xB27 PUSH1 0x0 DUP4 ADD DUP5 PUSH2 0x9E3 JUMP JUMPDEST SWAP3 SWAP2 POP POP JUMP JUMPDEST PUSH1 0x0 PUSH1 0x20 DUP3 ADD SWAP1 POP DUP2 DUP2 SUB PUSH1 0x0 DUP4 ADD MSTORE PUSH2 0xB46 DUP2 PUSH2 0xA23 JUMP JUMPDEST SWAP1 POP SWAP2 SWAP1 POP JUMP JUMPDEST PUSH1 0x0 PUSH1 0x20 DUP3 ADD SWAP1 POP DUP2 DUP2 SUB PUSH1 0x0 DUP4 ADD MSTORE PUSH2 0xB66 DUP2 PUSH2 0xA46 JUMP JUMPDEST SWAP1 POP SWAP2 SWAP1 POP JUMP JUMPDEST PUSH1 0x0 PUSH1 0x20 DUP3 ADD SWAP1 POP DUP2 DUP2 SUB PUSH1 0x0 DUP4 ADD MSTORE PUSH2 0xB86 DUP2 PUSH2 0xA69 JUMP JUMPDEST SWAP1 POP SWAP2 SWAP1 POP JUMP JUMPDEST PUSH1 0x0 DUP2 MLOAD SWAP1 POP SWAP2 SWAP1 POP JUMP JUMPDEST PUSH1 0x0 DUP3 DUP3 MSTORE PUSH1 0x20 DUP3 ADD SWAP1 POP SWAP3 SWAP2 POP POP JUMP JUMPDEST PUSH1 0x0 DUP2 SWAP1 POP SWAP3 SWAP2 POP POP JUMP JUMPDEST PUSH1 0x0 PUSH2 0xBBF DUP3 PUSH2 0xCA0 JUMP JUMPDEST SWAP2 POP PUSH2 0xBCA DUP4 PUSH2 0xCA0 JUMP JUMPDEST SWAP3 POP DUP3 PUSH32 0xFFFFFFFFFFFFFFFFFFFFFFFFFFFFFFFFFFFFFFFFFFFFFFFFFFFFFFFFFFFFFFFF SUB DUP3 GT ISZERO PUSH2 0xBFF JUMPI PUSH2 0xBFE PUSH2 0xD4A JUMP JUMPDEST JUMPDEST DUP3 DUP3 ADD SWAP1 POP SWAP3 SWAP2 POP POP JUMP JUMPDEST PUSH1 0x0 PUSH2 0xC15 DUP3 PUSH2 0xCA0 JUMP JUMPDEST SWAP2 POP PUSH2 0xC20 DUP4 PUSH2 0xCA0 JUMP JUMPDEST SWAP3 POP DUP2 PUSH32 0xFFFFFFFFFFFFFFFFFFFFFFFFFFFFFFFFFFFFFFFFFFFFFFFFFFFFFFFFFFFFFFFF DIV DUP4 GT DUP3 ISZERO ISZERO AND ISZERO PUSH2 0xC59 JUMPI PUSH2 0xC58 PUSH2 0xD4A JUMP JUMPDEST JUMPDEST DUP3 DUP3 MUL SWAP1 POP SWAP3 SWAP2 POP POP JUMP JUMPDEST PUSH1 0x0 PUSH2 0xC6F DUP3 PUSH2 0xC80 JUMP JUMPDEST SWAP1 POP SWAP2 SWAP1 POP JUMP JUMPDEST PUSH1 0x0 DUP2 SWAP1 POP SWAP2 SWAP1 POP JUMP JUMPDEST PUSH1 0x0 PUSH20 0xFFFFFFFFFFFFFFFFFFFFFFFFFFFFFFFFFFFFFFFF DUP3 AND SWAP1 POP SWAP2 SWAP1 POP JUMP JUMPDEST PUSH1 0x0 DUP2 SWAP1 POP SWAP2 SWAP1 POP JUMP JUMPDEST PUSH1 0x0 JUMPDEST DUP4 DUP2 LT ISZERO PUSH2 0xCC8 JUMPI DUP1 DUP3 ADD MLOAD DUP2 DUP5 ADD MSTORE PUSH1 0x20 DUP2 ADD SWAP1 POP PUSH2 0xCAD JUMP JUMPDEST DUP4 DUP2 GT ISZERO PUSH2 0xCD7 JUMPI PUSH1 0x0 DUP5 DUP5 ADD MSTORE JUMPDEST POP POP POP POP JUMP JUMPDEST PUSH1 0x0 PUSH2 0xCE8 DUP3 PUSH2 0xCA0 JUMP JUMPDEST SWAP2 POP PUSH32 0xFFFFFFFFFFFFFFFFFFFFFFFFFFFFFFFFFFFFFFFFFFFFFFFFFFFFFFFFFFFFFFFF DUP3 EQ ISZERO PUSH2 0xD1B JUMPI PUSH2 0xD1A PUSH2 0xD4A JUMP JUMPDEST JUMPDEST PUSH1 0x1 DUP3 ADD SWAP1 POP SWAP2 SWAP1 POP JUMP JUMPDEST PUSH1 0x0 PUSH2 0xD31 DUP3 PUSH2 0xD38 JUMP JUMPDEST SWAP1 POP SWAP2 SWAP1 POP JUMP JUMPDEST PUSH1 0x0 PUSH2 0xD43 DUP3 PUSH2 0xDDC JUMP JUMPDEST SWAP1 POP SWAP2 SWAP1 POP JUMP JUMPDEST PUSH32 0x4E487B7100000000000000000000000000000000000000000000000000000000 PUSH1 0x0 MSTORE PUSH1 0x11 PUSH1 0x4 MSTORE PUSH1 0x24 PUSH1 0x0 REVERT JUMPDEST PUSH32 0x4E487B7100000000000000000000000000000000000000000000000000000000 PUSH1 0x0 MSTORE PUSH1 0x32 PUSH1 0x4 MSTORE PUSH1 0x24 PUSH1 0x0 REVERT JUMPDEST PUSH32 0x4E487B7100000000000000000000000000000000000000000000000000000000 PUSH1 0x0 MSTORE PUSH1 0x41 PUSH1 0x4 MSTORE PUSH1 0x24 PUSH1 0x0 REVERT JUMPDEST PUSH1 0x0 DUP1 REVERT JUMPDEST PUSH1 0x0 DUP2 PUSH1 0x60 SHL SWAP1 POP SWAP2 SWAP1 POP JUMP JUMPDEST PUSH32 0x6E6F742065786973740000000000000000000000000000000000000000000000 PUSH1 0x0 DUP3 ADD MSTORE POP JUMP JUMPDEST PUSH32 0x73616D6520746F6B656E00000000000000000000000000000000000000000000 PUSH1 0x0 DUP3 ADD MSTORE POP JUMP JUMPDEST PUSH32 0x7061697220657869737400000000000000000000000000000000000000000000 PUSH1 0x0 DUP3 ADD MSTORE POP JUMP JUMPDEST PUSH2 0xE6D DUP2 PUSH2 0xC64 JUMP JUMPDEST DUP2 EQ PUSH2 0xE78 JUMPI PUSH1 0x0 DUP1 REVERT JUMPDEST POP JUMP JUMPDEST PUSH2 0xE84 DUP2 PUSH2 0xC76 JUMP JUMPDEST DUP2 EQ PUSH2 0xE8F JUMPI PUSH1 0x0 DUP1 REVERT JUMPDEST POP JUMP INVALID LOG2 PUSH5 0x6970667358 0x22 SLT KECCAK256 REVERT INVALID 0xCE CALLVALUE GASPRICE 0xE5 LOG1 0xDB PUSH19 0xABD3B3813FDE25FDBD24F7A67283A1F7FF50ED DUP3 NOT PUSH21 0xC564736F6C63430008070033000000000000000000 "
				},
				"gasEstimates": {
					"creation": {
						"codeDepositCost": "756800",
						"executionCost": "infinite",
						"totalCost": "infinite"
					},
					"external": {
						"getPair(bytes32)": "infinite",
						"set_Pair(address,address)": "infinite"
					},
					"internal": {
						"addressToString(address)": "infinite",
						"bytes32ToString(bytes32)": "infinite",
						"contains(bytes32)": "2254",
						"strConcat(string memory,string memory)": "infinite",
						"stringCompare(string memory,string memory)": "infinite",
						"toString(bytes memory)": "infinite",
						"uint256ToString(uint256)": "infinite"
					}
				},
				"methodIdentifiers": {
					"getPair(bytes32)": "b8e5303d",
					"set_Pair(address,address)": "d8aedd86"
				}
			},
			"storageLayout": {
				"storage": [
					{
						"astId": 14,
						"contract": "wwcc-contracts/contracts/nftswaptest.sol:NFTSWAP",
						"label": "index",
						"offset": 0,
						"slot": "0",
						"type": "t_uint256"
					},
					{
						"astId": 16,
						"contract": "wwcc-contracts/contracts/nftswaptest.sol:NFTSWAP",
						"label": "owner",
						"offset": 0,
						"slot": "1",
						"type": "t_address"
					},
					{
						"astId": 21,
						"contract": "wwcc-contracts/contracts/nftswaptest.sol:NFTSWAP",
						"label": "pair",
						"offset": 0,
						"slot": "2",
						"type": "t_mapping(t_bytes32,t_struct(PairPool)12_storage)"
					},
					{
						"astId": 25,
						"contract": "wwcc-contracts/contracts/nftswaptest.sol:NFTSWAP",
						"label": "pairKeyList",
						"offset": 0,
						"slot": "3",
						"type": "t_mapping(t_uint256,t_bytes32)"
					}
				],
				"types": {
					"t_address": {
						"encoding": "inplace",
						"label": "address",
						"numberOfBytes": "20"
					},
					"t_bool": {
						"encoding": "inplace",
						"label": "bool",
						"numberOfBytes": "1"
					},
					"t_bytes32": {
						"encoding": "inplace",
						"label": "bytes32",
						"numberOfBytes": "32"
					},
					"t_mapping(t_bytes32,t_struct(PairPool)12_storage)": {
						"encoding": "mapping",
						"key": "t_bytes32",
						"label": "mapping(bytes32 => struct NFTSWAP.PairPool)",
						"numberOfBytes": "32",
						"value": "t_struct(PairPool)12_storage"
					},
					"t_mapping(t_uint256,t_bytes32)": {
						"encoding": "mapping",
						"key": "t_uint256",
						"label": "mapping(uint256 => bytes32)",
						"numberOfBytes": "32",
						"value": "t_bytes32"
					},
					"t_struct(PairPool)12_storage": {
						"encoding": "inplace",
						"label": "struct NFTSWAP.PairPool",
						"members": [
							{
								"astId": 3,
								"contract": "wwcc-contracts/contracts/nftswaptest.sol:NFTSWAP",
								"label": "token1",
								"offset": 0,
								"slot": "0",
								"type": "t_address"
							},
							{
								"astId": 5,
								"contract": "wwcc-contracts/contracts/nftswaptest.sol:NFTSWAP",
								"label": "token2",
								"offset": 0,
								"slot": "1",
								"type": "t_address"
							},
							{
								"astId": 7,
								"contract": "wwcc-contracts/contracts/nftswaptest.sol:NFTSWAP",
								"label": "token1Pool",
								"offset": 0,
								"slot": "2",
								"type": "t_uint256"
							},
							{
								"astId": 9,
								"contract": "wwcc-contracts/contracts/nftswaptest.sol:NFTSWAP",
								"label": "token2Pool",
								"offset": 0,
								"slot": "3",
								"type": "t_uint256"
							},
							{
								"astId": 11,
								"contract": "wwcc-contracts/contracts/nftswaptest.sol:NFTSWAP",
								"label": "used",
								"offset": 0,
								"slot": "4",
								"type": "t_bool"
							}
						],
						"numberOfBytes": "160"
					},
					"t_uint256": {
						"encoding": "inplace",
						"label": "uint256",
						"numberOfBytes": "32"
					}
				}
			},
			"userdoc": {
				"kind": "user",
				"methods": {},
				"version": 1
			}
		}
	}
}