{
	"wwcc-contracts/contracts/wwccPool.sol": {
		"WCPOOL": {
			"abi": [
				{
					"inputs": [
						{
							"internalType": "address",
							"name": "holder",
							"type": "address"
						},
						{
							"internalType": "uint256",
							"name": "firstBasal",
							"type": "uint256"
						}
					],
					"stateMutability": "nonpayable",
					"type": "constructor"
				},
				{
					"anonymous": false,
					"inputs": [
						{
							"indexed": false,
							"internalType": "address",
							"name": "owner",
							"type": "address"
						},
						{
							"indexed": false,
							"internalType": "address",
							"name": "spender",
							"type": "address"
						},
						{
							"indexed": false,
							"internalType": "uint256",
							"name": "value",
							"type": "uint256"
						}
					],
					"name": "Approval",
					"type": "event"
				},
				{
					"anonymous": false,
					"inputs": [
						{
							"indexed": false,
							"internalType": "address",
							"name": "",
							"type": "address"
						},
						{
							"indexed": false,
							"internalType": "uint256",
							"name": "",
							"type": "uint256"
						}
					],
					"name": "Received",
					"type": "event"
				},
				{
					"anonymous": false,
					"inputs": [
						{
							"indexed": false,
							"internalType": "address",
							"name": "owner",
							"type": "address"
						},
						{
							"indexed": false,
							"internalType": "address",
							"name": "spender",
							"type": "address"
						},
						{
							"indexed": false,
							"internalType": "uint256",
							"name": "value",
							"type": "uint256"
						}
					],
					"name": "Transfer",
					"type": "event"
				},
				{
					"inputs": [
						{
							"internalType": "bytes32",
							"name": "poolKey",
							"type": "bytes32"
						},
						{
							"internalType": "uint256",
							"name": "homeScore",
							"type": "uint256"
						},
						{
							"internalType": "uint256",
							"name": "visitScore",
							"type": "uint256"
						},
						{
							"internalType": "uint256",
							"name": "result",
							"type": "uint256"
						}
					],
					"name": "Award",
					"outputs": [
						{
							"internalType": "bool",
							"name": "",
							"type": "bool"
						}
					],
					"stateMutability": "payable",
					"type": "function"
				},
				{
					"inputs": [],
					"name": "CheckBasal",
					"outputs": [
						{
							"internalType": "uint256",
							"name": "",
							"type": "uint256"
						}
					],
					"stateMutability": "nonpayable",
					"type": "function"
				},
				{
					"inputs": [
						{
							"internalType": "bytes32",
							"name": "poolKey",
							"type": "bytes32"
						}
					],
					"name": "CheckExpect",
					"outputs": [
						{
							"internalType": "uint256",
							"name": "",
							"type": "uint256"
						}
					],
					"stateMutability": "nonpayable",
					"type": "function"
				},
				{
					"inputs": [
						{
							"internalType": "address",
							"name": "joiner",
							"type": "address"
						},
						{
							"internalType": "uint256",
							"name": "weight",
							"type": "uint256"
						},
						{
							"internalType": "bytes32",
							"name": "poolKey",
							"type": "bytes32"
						},
						{
							"internalType": "uint256",
							"name": "homeScore",
							"type": "uint256"
						},
						{
							"internalType": "uint256",
							"name": "visitScore",
							"type": "uint256"
						},
						{
							"internalType": "uint256",
							"name": "kind",
							"type": "uint256"
						}
					],
					"name": "Picking",
					"outputs": [
						{
							"internalType": "bool",
							"name": "",
							"type": "bool"
						}
					],
					"stateMutability": "nonpayable",
					"type": "function"
				},
				{
					"inputs": [
						{
							"internalType": "bytes32",
							"name": "poolKey",
							"type": "bytes32"
						},
						{
							"internalType": "uint256",
							"name": "basal",
							"type": "uint256"
						}
					],
					"name": "Set_Basal",
					"outputs": [
						{
							"internalType": "bool",
							"name": "",
							"type": "bool"
						}
					],
					"stateMutability": "nonpayable",
					"type": "function"
				},
				{
					"inputs": [
						{
							"internalType": "string",
							"name": "home",
							"type": "string"
						},
						{
							"internalType": "string",
							"name": "visit",
							"type": "string"
						},
						{
							"internalType": "string",
							"name": "rounds",
							"type": "string"
						},
						{
							"internalType": "bool",
							"name": "decided",
							"type": "bool"
						}
					],
					"name": "Set_Pool",
					"outputs": [
						{
							"internalType": "bytes32",
							"name": "",
							"type": "bytes32"
						}
					],
					"stateMutability": "nonpayable",
					"type": "function"
				},
				{
					"inputs": [
						{
							"internalType": "address",
							"name": "toAddress",
							"type": "address"
						},
						{
							"internalType": "bytes32",
							"name": "poolKey",
							"type": "bytes32"
						}
					],
					"name": "Withdrawal",
					"outputs": [
						{
							"internalType": "bool",
							"name": "",
							"type": "bool"
						}
					],
					"stateMutability": "payable",
					"type": "function"
				},
				{
					"inputs": [
						{
							"internalType": "bytes32",
							"name": "poolKey",
							"type": "bytes32"
						}
					],
					"name": "getPair",
					"outputs": [
						{
							"internalType": "string",
							"name": "home",
							"type": "string"
						},
						{
							"internalType": "string",
							"name": "visit",
							"type": "string"
						},
						{
							"internalType": "string",
							"name": "rounds",
							"type": "string"
						},
						{
							"internalType": "uint256",
							"name": "wPool",
							"type": "uint256"
						},
						{
							"internalType": "uint256",
							"name": "dPool",
							"type": "uint256"
						},
						{
							"internalType": "uint256",
							"name": "lPool",
							"type": "uint256"
						},
						{
							"internalType": "uint256",
							"name": "sPool",
							"type": "uint256"
						}
					],
					"stateMutability": "view",
					"type": "function"
				},
				{
					"inputs": [
						{
							"internalType": "address",
							"name": "joiner",
							"type": "address"
						},
						{
							"internalType": "uint256",
							"name": "amount",
							"type": "uint256"
						}
					],
					"name": "voteWithdrawal",
					"outputs": [
						{
							"internalType": "bool",
							"name": "",
							"type": "bool"
						}
					],
					"stateMutability": "payable",
					"type": "function"
				},
				{
					"stateMutability": "payable",
					"type": "receive"
				}
			],
			"devdoc": {
				"kind": "dev",
				"methods": {},
				"version": 1
			},
			"evm": {
				"assembly": "    /* \"wwcc-contracts/contracts/wwccPool.sol\":96:12146  contract WCPOOL {... */\n  mstore(0x40, 0x80)\n    /* \"wwcc-contracts/contracts/wwccPool.sol\":1471:1718  constructor(... */\n  callvalue\n  dup1\n  iszero\n  tag_1\n  jumpi\n  0x00\n  dup1\n  revert\ntag_1:\n  pop\n  mload(0x40)\n  sub(codesize, bytecodeSize)\n  dup1\n  bytecodeSize\n  dup4\n  codecopy\n  dup2\n  dup2\n  add\n  0x40\n  mstore\n  dup2\n  add\n  swap1\n  tag_2\n  swap2\n  swap1\n  tag_3\n  jump\t// in\ntag_2:\n    /* \"wwcc-contracts/contracts/wwccPool.sol\":1599:1605  holder */\n  dup2\n    /* \"wwcc-contracts/contracts/wwccPool.sol\":1591:1596  owner */\n  0x00\n  dup1\n    /* \"wwcc-contracts/contracts/wwccPool.sol\":1591:1605  owner = holder */\n  0x0100\n  exp\n  dup2\n  sload\n  dup2\n  0xffffffffffffffffffffffffffffffffffffffff\n  mul\n  not\n  and\n  swap1\n  dup4\n  0xffffffffffffffffffffffffffffffffffffffff\n  and\n  mul\n  or\n  swap1\n  sstore\n  pop\n    /* \"wwcc-contracts/contracts/wwccPool.sol\":1631:1641  firstBasal */\n  dup1\n    /* \"wwcc-contracts/contracts/wwccPool.sol\":1615:1628  nextBasalLast */\n  0x07\n    /* \"wwcc-contracts/contracts/wwccPool.sol\":1615:1641  nextBasalLast = firstBasal */\n  dup2\n  swap1\n  sstore\n  pop\n    /* \"wwcc-contracts/contracts/wwccPool.sol\":1471:1718  constructor(... */\n  pop\n  pop\n    /* \"wwcc-contracts/contracts/wwccPool.sol\":96:12146  contract WCPOOL {... */\n  jump(tag_6)\n    /* \"#utility.yul\":7:150   */\ntag_8:\n    /* \"#utility.yul\":64:69   */\n  0x00\n    /* \"#utility.yul\":95:101   */\n  dup2\n    /* \"#utility.yul\":89:102   */\n  mload\n    /* \"#utility.yul\":80:102   */\n  swap1\n  pop\n    /* \"#utility.yul\":111:144   */\n  tag_10\n    /* \"#utility.yul\":138:143   */\n  dup2\n    /* \"#utility.yul\":111:144   */\n  tag_11\n  jump\t// in\ntag_10:\n    /* \"#utility.yul\":7:150   */\n  swap3\n  swap2\n  pop\n  pop\n  jump\t// out\n    /* \"#utility.yul\":156:299   */\ntag_12:\n    /* \"#utility.yul\":213:218   */\n  0x00\n    /* \"#utility.yul\":244:250   */\n  dup2\n    /* \"#utility.yul\":238:251   */\n  mload\n    /* \"#utility.yul\":229:251   */\n  swap1\n  pop\n    /* \"#utility.yul\":260:293   */\n  tag_14\n    /* \"#utility.yul\":287:292   */\n  dup2\n    /* \"#utility.yul\":260:293   */\n  tag_15\n  jump\t// in\ntag_14:\n    /* \"#utility.yul\":156:299   */\n  swap3\n  swap2\n  pop\n  pop\n  jump\t// out\n    /* \"#utility.yul\":305:812   */\ntag_3:\n    /* \"#utility.yul\":384:390   */\n  0x00\n    /* \"#utility.yul\":392:398   */\n  dup1\n    /* \"#utility.yul\":441:443   */\n  0x40\n    /* \"#utility.yul\":429:438   */\n  dup4\n    /* \"#utility.yul\":420:427   */\n  dup6\n    /* \"#utility.yul\":416:439   */\n  sub\n    /* \"#utility.yul\":412:444   */\n  slt\n    /* \"#utility.yul\":409:528   */\n  iszero\n  tag_17\n  jumpi\n    /* \"#utility.yul\":447:526   */\n  tag_18\n  tag_19\n  jump\t// in\ntag_18:\n    /* \"#utility.yul\":409:528   */\ntag_17:\n    /* \"#utility.yul\":567:568   */\n  0x00\n    /* \"#utility.yul\":592:656   */\n  tag_20\n    /* \"#utility.yul\":648:655   */\n  dup6\n    /* \"#utility.yul\":639:645   */\n  dup3\n    /* \"#utility.yul\":628:637   */\n  dup7\n    /* \"#utility.yul\":624:646   */\n  add\n    /* \"#utility.yul\":592:656   */\n  tag_8\n  jump\t// in\ntag_20:\n    /* \"#utility.yul\":582:656   */\n  swap3\n  pop\n    /* \"#utility.yul\":538:666   */\n  pop\n    /* \"#utility.yul\":705:707   */\n  0x20\n    /* \"#utility.yul\":731:795   */\n  tag_21\n    /* \"#utility.yul\":787:794   */\n  dup6\n    /* \"#utility.yul\":778:784   */\n  dup3\n    /* \"#utility.yul\":767:776   */\n  dup7\n    /* \"#utility.yul\":763:785   */\n  add\n    /* \"#utility.yul\":731:795   */\n  tag_12\n  jump\t// in\ntag_21:\n    /* \"#utility.yul\":721:795   */\n  swap2\n  pop\n    /* \"#utility.yul\":676:805   */\n  pop\n    /* \"#utility.yul\":305:812   */\n  swap3\n  pop\n  swap3\n  swap1\n  pop\n  jump\t// out\n    /* \"#utility.yul\":899:995   */\ntag_24:\n    /* \"#utility.yul\":936:943   */\n  0x00\n    /* \"#utility.yul\":965:989   */\n  tag_26\n    /* \"#utility.yul\":983:988   */\n  dup3\n    /* \"#utility.yul\":965:989   */\n  tag_27\n  jump\t// in\ntag_26:\n    /* \"#utility.yul\":954:989   */\n  swap1\n  pop\n    /* \"#utility.yul\":899:995   */\n  swap2\n  swap1\n  pop\n  jump\t// out\n    /* \"#utility.yul\":1001:1127   */\ntag_27:\n    /* \"#utility.yul\":1038:1045   */\n  0x00\n    /* \"#utility.yul\":1078:1120   */\n  0xffffffffffffffffffffffffffffffffffffffff\n    /* \"#utility.yul\":1071:1076   */\n  dup3\n    /* \"#utility.yul\":1067:1121   */\n  and\n    /* \"#utility.yul\":1056:1121   */\n  swap1\n  pop\n    /* \"#utility.yul\":1001:1127   */\n  swap2\n  swap1\n  pop\n  jump\t// out\n    /* \"#utility.yul\":1133:1210   */\ntag_29:\n    /* \"#utility.yul\":1170:1177   */\n  0x00\n    /* \"#utility.yul\":1199:1204   */\n  dup2\n    /* \"#utility.yul\":1188:1204   */\n  swap1\n  pop\n    /* \"#utility.yul\":1133:1210   */\n  swap2\n  swap1\n  pop\n  jump\t// out\n    /* \"#utility.yul\":1339:1456   */\ntag_19:\n    /* \"#utility.yul\":1448:1449   */\n  0x00\n    /* \"#utility.yul\":1445:1446   */\n  dup1\n    /* \"#utility.yul\":1438:1450   */\n  revert\n    /* \"#utility.yul\":1462:1584   */\ntag_11:\n    /* \"#utility.yul\":1535:1559   */\n  tag_35\n    /* \"#utility.yul\":1553:1558   */\n  dup2\n    /* \"#utility.yul\":1535:1559   */\n  tag_24\n  jump\t// in\ntag_35:\n    /* \"#utility.yul\":1528:1533   */\n  dup2\n    /* \"#utility.yul\":1525:1560   */\n  eq\n    /* \"#utility.yul\":1515:1578   */\n  tag_36\n  jumpi\n    /* \"#utility.yul\":1574:1575   */\n  0x00\n    /* \"#utility.yul\":1571:1572   */\n  dup1\n    /* \"#utility.yul\":1564:1576   */\n  revert\n    /* \"#utility.yul\":1515:1578   */\ntag_36:\n    /* \"#utility.yul\":1462:1584   */\n  pop\n  jump\t// out\n    /* \"#utility.yul\":1590:1712   */\ntag_15:\n    /* \"#utility.yul\":1663:1687   */\n  tag_38\n    /* \"#utility.yul\":1681:1686   */\n  dup2\n    /* \"#utility.yul\":1663:1687   */\n  tag_29\n  jump\t// in\ntag_38:\n    /* \"#utility.yul\":1656:1661   */\n  dup2\n    /* \"#utility.yul\":1653:1688   */\n  eq\n    /* \"#utility.yul\":1643:1706   */\n  tag_39\n  jumpi\n    /* \"#utility.yul\":1702:1703   */\n  0x00\n    /* \"#utility.yul\":1699:1700   */\n  dup1\n    /* \"#utility.yul\":1692:1704   */\n  revert\n    /* \"#utility.yul\":1643:1706   */\ntag_39:\n    /* \"#utility.yul\":1590:1712   */\n  pop\n  jump\t// out\n    /* \"wwcc-contracts/contracts/wwccPool.sol\":96:12146  contract WCPOOL {... */\ntag_6:\n  dataSize(sub_0)\n  dup1\n  dataOffset(sub_0)\n  0x00\n  codecopy\n  0x00\n  return\nstop\n\nsub_0: assembly {\n        /* \"wwcc-contracts/contracts/wwccPool.sol\":96:12146  contract WCPOOL {... */\n      mstore(0x40, 0x80)\n      jumpi(tag_1, lt(calldatasize, 0x04))\n      shr(0xe0, calldataload(0x00))\n      dup1\n      0x4121855f\n      gt\n      tag_12\n      jumpi\n      dup1\n      0x4121855f\n      eq\n      tag_7\n      jumpi\n      dup1\n      0x47e4dd27\n      eq\n      tag_8\n      jumpi\n      dup1\n      0x74fe9bc2\n      eq\n      tag_9\n      jumpi\n      dup1\n      0x9bd0abf1\n      eq\n      tag_10\n      jumpi\n      dup1\n      0xb8e5303d\n      eq\n      tag_11\n      jumpi\n      jump(tag_2)\n    tag_12:\n      dup1\n      0x0ce49053\n      eq\n      tag_3\n      jumpi\n      dup1\n      0x2bf21ecc\n      eq\n      tag_4\n      jumpi\n      dup1\n      0x357965ba\n      eq\n      tag_5\n      jumpi\n      dup1\n      0x3e6ff1a2\n      eq\n      tag_6\n      jumpi\n      jump(tag_2)\n    tag_1:\n      jumpi(tag_2, calldatasize)\n        /* \"wwcc-contracts/contracts/wwccPool.sol\":12007:12012  owner */\n      0x00\n      dup1\n      sload\n      swap1\n      0x0100\n      exp\n      swap1\n      div\n      0xffffffffffffffffffffffffffffffffffffffff\n      and\n        /* \"wwcc-contracts/contracts/wwccPool.sol\":11993:12012  msg.sender != owner */\n      0xffffffffffffffffffffffffffffffffffffffff\n      and\n        /* \"wwcc-contracts/contracts/wwccPool.sol\":11993:12003  msg.sender */\n      caller\n        /* \"wwcc-contracts/contracts/wwccPool.sol\":11993:12012  msg.sender != owner */\n      0xffffffffffffffffffffffffffffffffffffffff\n      and\n      eq\n        /* \"wwcc-contracts/contracts/wwccPool.sol\":11990:12139  if(msg.sender != owner){... */\n      tag_15\n      jumpi\n        /* \"wwcc-contracts/contracts/wwccPool.sol\":12052:12061  msg.value */\n      callvalue\n        /* \"wwcc-contracts/contracts/wwccPool.sol\":12026:12036  voteAmount */\n      0x05\n        /* \"wwcc-contracts/contracts/wwccPool.sol\":12026:12048  voteAmount[msg.sender] */\n      0x00\n        /* \"wwcc-contracts/contracts/wwccPool.sol\":12037:12047  msg.sender */\n      caller\n        /* \"wwcc-contracts/contracts/wwccPool.sol\":12026:12048  voteAmount[msg.sender] */\n      0xffffffffffffffffffffffffffffffffffffffff\n      and\n      0xffffffffffffffffffffffffffffffffffffffff\n      and\n      dup2\n      mstore\n      0x20\n      add\n      swap1\n      dup2\n      mstore\n      0x20\n      add\n      0x00\n      keccak256\n      0x00\n        /* \"wwcc-contracts/contracts/wwccPool.sol\":12026:12061  voteAmount[msg.sender] += msg.value */\n      dup3\n      dup3\n      sload\n      tag_16\n      swap2\n      swap1\n      tag_17\n      jump\t// in\n    tag_16:\n      swap3\n      pop\n      pop\n      dup2\n      swap1\n      sstore\n      pop\n        /* \"wwcc-contracts/contracts/wwccPool.sol\":12079:12110  Received(msg.sender, msg.value) */\n      0x88a5966d370b9919b20f3e2c13ff65706f196a4e32cc2c12bf57088f88525874\n        /* \"wwcc-contracts/contracts/wwccPool.sol\":12088:12098  msg.sender */\n      caller\n        /* \"wwcc-contracts/contracts/wwccPool.sol\":12100:12109  msg.value */\n      callvalue\n        /* \"wwcc-contracts/contracts/wwccPool.sol\":12079:12110  Received(msg.sender, msg.value) */\n      mload(0x40)\n      tag_18\n      swap3\n      swap2\n      swap1\n      tag_19\n      jump\t// in\n    tag_18:\n      mload(0x40)\n      dup1\n      swap2\n      sub\n      swap1\n      log1\n        /* \"wwcc-contracts/contracts/wwccPool.sol\":11990:12139  if(msg.sender != owner){... */\n      jump(tag_20)\n    tag_15:\n    tag_20:\n        /* \"wwcc-contracts/contracts/wwccPool.sol\":96:12146  contract WCPOOL {... */\n      stop\n    tag_2:\n      0x00\n      dup1\n      revert\n        /* \"wwcc-contracts/contracts/wwccPool.sol\":4487:5142  function Withdrawal(address toAddress,bytes32 poolKey) external onlyManager payable returns (bool){... */\n    tag_3:\n      tag_21\n      0x04\n      dup1\n      calldatasize\n      sub\n      dup2\n      add\n      swap1\n      tag_22\n      swap2\n      swap1\n      tag_23\n      jump\t// in\n    tag_22:\n      tag_24\n      jump\t// in\n    tag_21:\n      mload(0x40)\n      tag_25\n      swap2\n      swap1\n      tag_26\n      jump\t// in\n    tag_25:\n      mload(0x40)\n      dup1\n      swap2\n      sub\n      swap1\n      return\n        /* \"wwcc-contracts/contracts/wwccPool.sol\":3960:4482  function Set_Basal(bytes32 poolKey,uint256 basal) external onlyManager  returns (bool){... */\n    tag_4:\n      callvalue\n      dup1\n      iszero\n      tag_27\n      jumpi\n      0x00\n      dup1\n      revert\n    tag_27:\n      pop\n      tag_28\n      0x04\n      dup1\n      calldatasize\n      sub\n      dup2\n      add\n      swap1\n      tag_29\n      swap2\n      swap1\n      tag_30\n      jump\t// in\n    tag_29:\n      tag_31\n      jump\t// in\n    tag_28:\n      mload(0x40)\n      tag_32\n      swap2\n      swap1\n      tag_26\n      jump\t// in\n    tag_32:\n      mload(0x40)\n      dup1\n      swap2\n      sub\n      swap1\n      return\n        /* \"wwcc-contracts/contracts/wwccPool.sol\":1723:2612  function Set_Pool(... */\n    tag_5:\n      callvalue\n      dup1\n      iszero\n      tag_33\n      jumpi\n      0x00\n      dup1\n      revert\n    tag_33:\n      pop\n      tag_34\n      0x04\n      dup1\n      calldatasize\n      sub\n      dup2\n      add\n      swap1\n      tag_35\n      swap2\n      swap1\n      tag_36\n      jump\t// in\n    tag_35:\n      tag_37\n      jump\t// in\n    tag_34:\n      mload(0x40)\n      tag_38\n      swap2\n      swap1\n      tag_39\n      jump\t// in\n    tag_38:\n      mload(0x40)\n      dup1\n      swap2\n      sub\n      swap1\n      return\n        /* \"wwcc-contracts/contracts/wwccPool.sol\":5879:5989  function CheckBasal() external onlyManager  returns (uint256){... */\n    tag_6:\n      callvalue\n      dup1\n      iszero\n      tag_40\n      jumpi\n      0x00\n      dup1\n      revert\n    tag_40:\n      pop\n      tag_41\n      tag_42\n      jump\t// in\n    tag_41:\n      mload(0x40)\n      tag_43\n      swap2\n      swap1\n      tag_44\n      jump\t// in\n    tag_43:\n      mload(0x40)\n      dup1\n      swap2\n      sub\n      swap1\n      return\n        /* \"wwcc-contracts/contracts/wwccPool.sol\":5521:5874  function CheckExpect(bytes32 poolKey) external onlyManager  returns (uint256){... */\n    tag_7:\n      callvalue\n      dup1\n      iszero\n      tag_45\n      jumpi\n      0x00\n      dup1\n      revert\n    tag_45:\n      pop\n      tag_46\n      0x04\n      dup1\n      calldatasize\n      sub\n      dup2\n      add\n      swap1\n      tag_47\n      swap2\n      swap1\n      tag_48\n      jump\t// in\n    tag_47:\n      tag_49\n      jump\t// in\n    tag_46:\n      mload(0x40)\n      tag_50\n      swap2\n      swap1\n      tag_44\n      jump\t// in\n    tag_50:\n      mload(0x40)\n      dup1\n      swap2\n      sub\n      swap1\n      return\n        /* \"wwcc-contracts/contracts/wwccPool.sol\":2617:3955  function Picking(address joiner,uint256 weight,bytes32 poolKey,uint256 homeScore,uint256 visitScore,uint256 kind) external onlyManager returns(bool){... */\n    tag_8:\n      callvalue\n      dup1\n      iszero\n      tag_51\n      jumpi\n      0x00\n      dup1\n      revert\n    tag_51:\n      pop\n      tag_52\n      0x04\n      dup1\n      calldatasize\n      sub\n      dup2\n      add\n      swap1\n      tag_53\n      swap2\n      swap1\n      tag_54\n      jump\t// in\n    tag_53:\n      tag_55\n      jump\t// in\n    tag_52:\n      mload(0x40)\n      tag_56\n      swap2\n      swap1\n      tag_26\n      jump\t// in\n    tag_56:\n      mload(0x40)\n      dup1\n      swap2\n      sub\n      swap1\n      return\n        /* \"wwcc-contracts/contracts/wwccPool.sol\":5994:9451  function Award(bytes32 poolKey,uint256 homeScore,uint256 visitScore,uint256 result)  external onlyManager  payable returns(bool){... */\n    tag_9:\n      tag_57\n      0x04\n      dup1\n      calldatasize\n      sub\n      dup2\n      add\n      swap1\n      tag_58\n      swap2\n      swap1\n      tag_59\n      jump\t// in\n    tag_58:\n      tag_60\n      jump\t// in\n    tag_57:\n      mload(0x40)\n      tag_61\n      swap2\n      swap1\n      tag_26\n      jump\t// in\n    tag_61:\n      mload(0x40)\n      dup1\n      swap2\n      sub\n      swap1\n      return\n        /* \"wwcc-contracts/contracts/wwccPool.sol\":5147:5516  function voteWithdrawal(address joiner,uint256 amount) external onlyManager payable returns (bool){... */\n    tag_10:\n      tag_62\n      0x04\n      dup1\n      calldatasize\n      sub\n      dup2\n      add\n      swap1\n      tag_63\n      swap2\n      swap1\n      tag_64\n      jump\t// in\n    tag_63:\n      tag_65\n      jump\t// in\n    tag_62:\n      mload(0x40)\n      tag_66\n      swap2\n      swap1\n      tag_26\n      jump\t// in\n    tag_66:\n      mload(0x40)\n      dup1\n      swap2\n      sub\n      swap1\n      return\n        /* \"wwcc-contracts/contracts/wwccPool.sol\":9456:9989  function getPair(bytes32 poolKey) external view returns (string memory home,string memory visit,string memory rounds,uint256 wPool,uint256 dPool,uint256 lPool,uint256 sPool){... */\n    tag_11:\n      callvalue\n      dup1\n      iszero\n      tag_67\n      jumpi\n      0x00\n      dup1\n      revert\n    tag_67:\n      pop\n      tag_68\n      0x04\n      dup1\n      calldatasize\n      sub\n      dup2\n      add\n      swap1\n      tag_69\n      swap2\n      swap1\n      tag_48\n      jump\t// in\n    tag_69:\n      tag_70\n      jump\t// in\n    tag_68:\n      mload(0x40)\n      tag_71\n      swap8\n      swap7\n      swap6\n      swap5\n      swap4\n      swap3\n      swap2\n      swap1\n      tag_72\n      jump\t// in\n    tag_71:\n      mload(0x40)\n      dup1\n      swap2\n      sub\n      swap1\n      return\n        /* \"wwcc-contracts/contracts/wwccPool.sol\":4487:5142  function Withdrawal(address toAddress,bytes32 poolKey) external onlyManager payable returns (bool){... */\n    tag_24:\n        /* \"wwcc-contracts/contracts/wwccPool.sol\":4580:4584  bool */\n      0x00\n        /* \"wwcc-contracts/contracts/wwccPool.sol\":11873:11878  owner */\n      dup1\n      0x00\n      swap1\n      sload\n      swap1\n      0x0100\n      exp\n      swap1\n      div\n      0xffffffffffffffffffffffffffffffffffffffff\n      and\n        /* \"wwcc-contracts/contracts/wwccPool.sol\":11859:11878  msg.sender == owner */\n      0xffffffffffffffffffffffffffffffffffffffff\n      and\n        /* \"wwcc-contracts/contracts/wwccPool.sol\":11859:11869  msg.sender */\n      caller\n        /* \"wwcc-contracts/contracts/wwccPool.sol\":11859:11878  msg.sender == owner */\n      0xffffffffffffffffffffffffffffffffffffffff\n      and\n      eq\n        /* \"wwcc-contracts/contracts/wwccPool.sol\":11838:11929  require(... */\n      tag_74\n      jumpi\n      mload(0x40)\n      0x08c379a000000000000000000000000000000000000000000000000000000000\n      dup2\n      mstore\n      0x04\n      add\n      tag_75\n      swap1\n      tag_76\n      jump\t// in\n    tag_75:\n      mload(0x40)\n      dup1\n      swap2\n      sub\n      swap1\n      revert\n    tag_74:\n        /* \"wwcc-contracts/contracts/wwccPool.sol\":4602:4619  contains(poolKey) */\n      tag_78\n        /* \"wwcc-contracts/contracts/wwccPool.sol\":4611:4618  poolKey */\n      dup3\n        /* \"wwcc-contracts/contracts/wwccPool.sol\":4602:4610  contains */\n      tag_79\n        /* \"wwcc-contracts/contracts/wwccPool.sol\":4602:4619  contains(poolKey) */\n      jump\t// in\n    tag_78:\n        /* \"wwcc-contracts/contracts/wwccPool.sol\":4598:5136  if(!contains(poolKey)) { ... */\n      tag_80\n      jumpi\n        /* \"wwcc-contracts/contracts/wwccPool.sol\":4640:4664  revert(\"pool not exist\") */\n      mload(0x40)\n      0x08c379a000000000000000000000000000000000000000000000000000000000\n      dup2\n      mstore\n      0x04\n      add\n      tag_81\n      swap1\n      tag_82\n      jump\t// in\n    tag_81:\n      mload(0x40)\n      dup1\n      swap2\n      sub\n      swap1\n      revert\n        /* \"wwcc-contracts/contracts/wwccPool.sol\":4598:5136  if(!contains(poolKey)) { ... */\n    tag_80:\n        /* \"wwcc-contracts/contracts/wwccPool.sol\":4700:4718  WcPool memory pool */\n      0x00\n        /* \"wwcc-contracts/contracts/wwccPool.sol\":4721:4728  WcPools */\n      0x06\n        /* \"wwcc-contracts/contracts/wwccPool.sol\":4721:4737  WcPools[poolKey] */\n      0x00\n        /* \"wwcc-contracts/contracts/wwccPool.sol\":4729:4736  poolKey */\n      dup5\n        /* \"wwcc-contracts/contracts/wwccPool.sol\":4721:4737  WcPools[poolKey] */\n      dup2\n      mstore\n      0x20\n      add\n      swap1\n      dup2\n      mstore\n      0x20\n      add\n      0x00\n      keccak256\n        /* \"wwcc-contracts/contracts/wwccPool.sol\":4700:4737  WcPool memory pool = WcPools[poolKey] */\n      mload(0x40)\n      dup1\n      0x0160\n      add\n      0x40\n      mstore\n      swap1\n      dup2\n      0x00\n      dup3\n      add\n      dup1\n      sload\n      tag_84\n      swap1\n      tag_85\n      jump\t// in\n    tag_84:\n      dup1\n      0x1f\n      add\n      0x20\n      dup1\n      swap2\n      div\n      mul\n      0x20\n      add\n      mload(0x40)\n      swap1\n      dup2\n      add\n      0x40\n      mstore\n      dup1\n      swap3\n      swap2\n      swap1\n      dup2\n      dup2\n      mstore\n      0x20\n      add\n      dup3\n      dup1\n      sload\n      tag_86\n      swap1\n      tag_85\n      jump\t// in\n    tag_86:\n      dup1\n      iszero\n      tag_87\n      jumpi\n      dup1\n      0x1f\n      lt\n      tag_88\n      jumpi\n      0x0100\n      dup1\n      dup4\n      sload\n      div\n      mul\n      dup4\n      mstore\n      swap2\n      0x20\n      add\n      swap2\n      jump(tag_87)\n    tag_88:\n      dup3\n      add\n      swap2\n      swap1\n      0x00\n      mstore\n      keccak256(0x00, 0x20)\n      swap1\n    tag_89:\n      dup2\n      sload\n      dup2\n      mstore\n      swap1\n      0x01\n      add\n      swap1\n      0x20\n      add\n      dup1\n      dup4\n      gt\n      tag_89\n      jumpi\n      dup3\n      swap1\n      sub\n      0x1f\n      and\n      dup3\n      add\n      swap2\n    tag_87:\n      pop\n      pop\n      pop\n      pop\n      pop\n      dup2\n      mstore\n      0x20\n      add\n      0x01\n      dup3\n      add\n      dup1\n      sload\n      tag_90\n      swap1\n      tag_85\n      jump\t// in\n    tag_90:\n      dup1\n      0x1f\n      add\n      0x20\n      dup1\n      swap2\n      div\n      mul\n      0x20\n      add\n      mload(0x40)\n      swap1\n      dup2\n      add\n      0x40\n      mstore\n      dup1\n      swap3\n      swap2\n      swap1\n      dup2\n      dup2\n      mstore\n      0x20\n      add\n      dup3\n      dup1\n      sload\n      tag_91\n      swap1\n      tag_85\n      jump\t// in\n    tag_91:\n      dup1\n      iszero\n      tag_92\n      jumpi\n      dup1\n      0x1f\n      lt\n      tag_93\n      jumpi\n      0x0100\n      dup1\n      dup4\n      sload\n      div\n      mul\n      dup4\n      mstore\n      swap2\n      0x20\n      add\n      swap2\n      jump(tag_92)\n    tag_93:\n      dup3\n      add\n      swap2\n      swap1\n      0x00\n      mstore\n      keccak256(0x00, 0x20)\n      swap1\n    tag_94:\n      dup2\n      sload\n      dup2\n      mstore\n      swap1\n      0x01\n      add\n      swap1\n      0x20\n      add\n      dup1\n      dup4\n      gt\n      tag_94\n      jumpi\n      dup3\n      swap1\n      sub\n      0x1f\n      and\n      dup3\n      add\n      swap2\n    tag_92:\n      pop\n      pop\n      pop\n      pop\n      pop\n      dup2\n      mstore\n      0x20\n      add\n      0x02\n      dup3\n      add\n      dup1\n      sload\n      tag_95\n      swap1\n      tag_85\n      jump\t// in\n    tag_95:\n      dup1\n      0x1f\n      add\n      0x20\n      dup1\n      swap2\n      div\n      mul\n      0x20\n      add\n      mload(0x40)\n      swap1\n      dup2\n      add\n      0x40\n      mstore\n      dup1\n      swap3\n      swap2\n      swap1\n      dup2\n      dup2\n      mstore\n      0x20\n      add\n      dup3\n      dup1\n      sload\n      tag_96\n      swap1\n      tag_85\n      jump\t// in\n    tag_96:\n      dup1\n      iszero\n      tag_97\n      jumpi\n      dup1\n      0x1f\n      lt\n      tag_98\n      jumpi\n      0x0100\n      dup1\n      dup4\n      sload\n      div\n      mul\n      dup4\n      mstore\n      swap2\n      0x20\n      add\n      swap2\n      jump(tag_97)\n    tag_98:\n      dup3\n      add\n      swap2\n      swap1\n      0x00\n      mstore\n      keccak256(0x00, 0x20)\n      swap1\n    tag_99:\n      dup2\n      sload\n      dup2\n      mstore\n      swap1\n      0x01\n      add\n      swap1\n      0x20\n      add\n      dup1\n      dup4\n      gt\n      tag_99\n      jumpi\n      dup3\n      swap1\n      sub\n      0x1f\n      and\n      dup3\n      add\n      swap2\n    tag_97:\n      pop\n      pop\n      pop\n      pop\n      pop\n      dup2\n      mstore\n      0x20\n      add\n      0x03\n      dup3\n      add\n      sload\n      dup2\n      mstore\n      0x20\n      add\n      0x04\n      dup3\n      add\n      sload\n      dup2\n      mstore\n      0x20\n      add\n      0x05\n      dup3\n      add\n      sload\n      dup2\n      mstore\n      0x20\n      add\n      0x06\n      dup3\n      add\n      sload\n      dup2\n      mstore\n      0x20\n      add\n      0x07\n      dup3\n      add\n      sload\n      dup2\n      mstore\n      0x20\n      add\n      0x08\n      dup3\n      add\n      0x00\n      swap1\n      sload\n      swap1\n      0x0100\n      exp\n      swap1\n      div\n      0xff\n      and\n      iszero\n      iszero\n      iszero\n      iszero\n      dup2\n      mstore\n      0x20\n      add\n      0x08\n      dup3\n      add\n      0x01\n      swap1\n      sload\n      swap1\n      0x0100\n      exp\n      swap1\n      div\n      0xff\n      and\n      iszero\n      iszero\n      iszero\n      iszero\n      dup2\n      mstore\n      0x20\n      add\n      0x08\n      dup3\n      add\n      0x02\n      swap1\n      sload\n      swap1\n      0x0100\n      exp\n      swap1\n      div\n      0xff\n      and\n      iszero\n      iszero\n      iszero\n      iszero\n      dup2\n      mstore\n      pop\n      pop\n      swap1\n      pop\n        /* \"wwcc-contracts/contracts/wwccPool.sol\":4755:4769  uint256 expect */\n      0x00\n        /* \"wwcc-contracts/contracts/wwccPool.sol\":4772:4838  (pool.wPool+pool.lPool+pool.dPool+pool.sPool + pool.basal).div(10) */\n      tag_100\n        /* \"wwcc-contracts/contracts/wwccPool.sol\":4835:4837  10 */\n      0x0a\n        /* \"wwcc-contracts/contracts/wwccPool.sol\":4819:4823  pool */\n      dup4\n        /* \"wwcc-contracts/contracts/wwccPool.sol\":4819:4829  pool.basal */\n      0xe0\n      add\n      mload\n        /* \"wwcc-contracts/contracts/wwccPool.sol\":4806:4810  pool */\n      dup5\n        /* \"wwcc-contracts/contracts/wwccPool.sol\":4806:4816  pool.sPool */\n      0xc0\n      add\n      mload\n        /* \"wwcc-contracts/contracts/wwccPool.sol\":4795:4799  pool */\n      dup6\n        /* \"wwcc-contracts/contracts/wwccPool.sol\":4795:4805  pool.dPool */\n      0x80\n      add\n      mload\n        /* \"wwcc-contracts/contracts/wwccPool.sol\":4784:4788  pool */\n      dup7\n        /* \"wwcc-contracts/contracts/wwccPool.sol\":4784:4794  pool.lPool */\n      0xa0\n      add\n      mload\n        /* \"wwcc-contracts/contracts/wwccPool.sol\":4773:4777  pool */\n      dup8\n        /* \"wwcc-contracts/contracts/wwccPool.sol\":4773:4783  pool.wPool */\n      0x60\n      add\n      mload\n        /* \"wwcc-contracts/contracts/wwccPool.sol\":4773:4794  pool.wPool+pool.lPool */\n      tag_101\n      swap2\n      swap1\n      tag_17\n      jump\t// in\n    tag_101:\n        /* \"wwcc-contracts/contracts/wwccPool.sol\":4773:4805  pool.wPool+pool.lPool+pool.dPool */\n      tag_102\n      swap2\n      swap1\n      tag_17\n      jump\t// in\n    tag_102:\n        /* \"wwcc-contracts/contracts/wwccPool.sol\":4773:4816  pool.wPool+pool.lPool+pool.dPool+pool.sPool */\n      tag_103\n      swap2\n      swap1\n      tag_17\n      jump\t// in\n    tag_103:\n        /* \"wwcc-contracts/contracts/wwccPool.sol\":4773:4829  pool.wPool+pool.lPool+pool.dPool+pool.sPool + pool.basal */\n      tag_104\n      swap2\n      swap1\n      tag_17\n      jump\t// in\n    tag_104:\n        /* \"wwcc-contracts/contracts/wwccPool.sol\":4772:4834  (pool.wPool+pool.lPool+pool.dPool+pool.sPool + pool.basal).div */\n      tag_105\n      swap1\n        /* \"wwcc-contracts/contracts/wwccPool.sol\":4772:4838  (pool.wPool+pool.lPool+pool.dPool+pool.sPool + pool.basal).div(10) */\n      swap2\n      swap1\n      0xffffffff\n      and\n      jump\t// in\n    tag_100:\n        /* \"wwcc-contracts/contracts/wwccPool.sol\":4755:4838  uint256 expect = (pool.wPool+pool.lPool+pool.dPool+pool.sPool + pool.basal).div(10) */\n      swap1\n      pop\n        /* \"wwcc-contracts/contracts/wwccPool.sol\":4876:4880  true */\n      0x01\n        /* \"wwcc-contracts/contracts/wwccPool.sol\":4860:4864  pool */\n      dup3\n        /* \"wwcc-contracts/contracts/wwccPool.sol\":4860:4873  pool.finished */\n      0x0140\n      add\n        /* \"wwcc-contracts/contracts/wwccPool.sol\":4860:4880  pool.finished = true */\n      swap1\n      iszero\n      iszero\n      swap1\n      dup2\n      iszero\n      iszero\n      dup2\n      mstore\n      pop\n        /* \"wwcc-contracts/contracts/wwccPool.sol\":4856:5108  if (pool.finished = true){... */\n      iszero\n      tag_106\n      jumpi\n        /* \"wwcc-contracts/contracts/wwccPool.sol\":4903:4936  address payable toAddress_address */\n      0x00\n        /* \"wwcc-contracts/contracts/wwccPool.sol\":4947:4956  toAddress */\n      dup6\n        /* \"wwcc-contracts/contracts/wwccPool.sol\":4903:4957  address payable toAddress_address = payable(toAddress) */\n      swap1\n      pop\n        /* \"wwcc-contracts/contracts/wwccPool.sol\":4979:4996  toAddress_address */\n      dup1\n        /* \"wwcc-contracts/contracts/wwccPool.sol\":4979:5005  toAddress_address.transfer */\n      0xffffffffffffffffffffffffffffffffffffffff\n      and\n        /* \"wwcc-contracts/contracts/wwccPool.sol\":4979:5013  toAddress_address.transfer(expect) */\n      0x08fc\n        /* \"wwcc-contracts/contracts/wwccPool.sol\":5006:5012  expect */\n      dup4\n        /* \"wwcc-contracts/contracts/wwccPool.sol\":4979:5013  toAddress_address.transfer(expect) */\n      swap1\n      dup2\n      iszero\n      mul\n      swap1\n      mload(0x40)\n      0x00\n      mload(0x40)\n      dup1\n      dup4\n      sub\n      dup2\n      dup6\n      dup9\n      dup9\n      call\n      swap4\n      pop\n      pop\n      pop\n      pop\n      iszero\n      dup1\n      iszero\n      tag_108\n      jumpi\n      returndatasize\n      0x00\n      dup1\n      returndatacopy\n      revert(0x00, returndatasize)\n    tag_108:\n      pop\n        /* \"wwcc-contracts/contracts/wwccPool.sol\":4881:5032  {... */\n      pop\n        /* \"wwcc-contracts/contracts/wwccPool.sol\":4856:5108  if (pool.finished = true){... */\n      jump(tag_109)\n    tag_106:\n        /* \"wwcc-contracts/contracts/wwccPool.sol\":5058:5089  revert(\"pool has not finished\") */\n      mload(0x40)\n      0x08c379a000000000000000000000000000000000000000000000000000000000\n      dup2\n      mstore\n      0x04\n      add\n      tag_110\n      swap1\n      tag_111\n      jump\t// in\n    tag_110:\n      mload(0x40)\n      dup1\n      swap2\n      sub\n      swap1\n      revert\n        /* \"wwcc-contracts/contracts/wwccPool.sol\":4856:5108  if (pool.finished = true){... */\n    tag_109:\n        /* \"wwcc-contracts/contracts/wwccPool.sol\":4682:5136  {... */\n      pop\n      pop\n        /* \"wwcc-contracts/contracts/wwccPool.sol\":4487:5142  function Withdrawal(address toAddress,bytes32 poolKey) external onlyManager payable returns (bool){... */\n      swap3\n      swap2\n      pop\n      pop\n      jump\t// out\n        /* \"wwcc-contracts/contracts/wwccPool.sol\":3960:4482  function Set_Basal(bytes32 poolKey,uint256 basal) external onlyManager  returns (bool){... */\n    tag_31:\n        /* \"wwcc-contracts/contracts/wwccPool.sol\":4041:4045  bool */\n      0x00\n        /* \"wwcc-contracts/contracts/wwccPool.sol\":11873:11878  owner */\n      dup1\n      0x00\n      swap1\n      sload\n      swap1\n      0x0100\n      exp\n      swap1\n      div\n      0xffffffffffffffffffffffffffffffffffffffff\n      and\n        /* \"wwcc-contracts/contracts/wwccPool.sol\":11859:11878  msg.sender == owner */\n      0xffffffffffffffffffffffffffffffffffffffff\n      and\n        /* \"wwcc-contracts/contracts/wwccPool.sol\":11859:11869  msg.sender */\n      caller\n        /* \"wwcc-contracts/contracts/wwccPool.sol\":11859:11878  msg.sender == owner */\n      0xffffffffffffffffffffffffffffffffffffffff\n      and\n      eq\n        /* \"wwcc-contracts/contracts/wwccPool.sol\":11838:11929  require(... */\n      tag_113\n      jumpi\n      mload(0x40)\n      0x08c379a000000000000000000000000000000000000000000000000000000000\n      dup2\n      mstore\n      0x04\n      add\n      tag_114\n      swap1\n      tag_76\n      jump\t// in\n    tag_114:\n      mload(0x40)\n      dup1\n      swap2\n      sub\n      swap1\n      revert\n    tag_113:\n        /* \"wwcc-contracts/contracts/wwccPool.sol\":4060:4077  contains(poolKey) */\n      tag_116\n        /* \"wwcc-contracts/contracts/wwccPool.sol\":4069:4076  poolKey */\n      dup4\n        /* \"wwcc-contracts/contracts/wwccPool.sol\":4060:4068  contains */\n      tag_79\n        /* \"wwcc-contracts/contracts/wwccPool.sol\":4060:4077  contains(poolKey) */\n      jump\t// in\n    tag_116:\n        /* \"wwcc-contracts/contracts/wwccPool.sol\":4056:4476  if(!contains(poolKey)) { ... */\n      tag_117\n      jumpi\n        /* \"wwcc-contracts/contracts/wwccPool.sol\":4094:4118  revert(\"pool not exist\") */\n      mload(0x40)\n      0x08c379a000000000000000000000000000000000000000000000000000000000\n      dup2\n      mstore\n      0x04\n      add\n      tag_118\n      swap1\n      tag_82\n      jump\t// in\n    tag_118:\n      mload(0x40)\n      dup1\n      swap2\n      sub\n      swap1\n      revert\n        /* \"wwcc-contracts/contracts/wwccPool.sol\":4056:4476  if(!contains(poolKey)) { ... */\n    tag_117:\n        /* \"wwcc-contracts/contracts/wwccPool.sol\":4146:4164  WcPool memory pool */\n      0x00\n        /* \"wwcc-contracts/contracts/wwccPool.sol\":4167:4174  WcPools */\n      0x06\n        /* \"wwcc-contracts/contracts/wwccPool.sol\":4167:4183  WcPools[poolKey] */\n      0x00\n        /* \"wwcc-contracts/contracts/wwccPool.sol\":4175:4182  poolKey */\n      dup6\n        /* \"wwcc-contracts/contracts/wwccPool.sol\":4167:4183  WcPools[poolKey] */\n      dup2\n      mstore\n      0x20\n      add\n      swap1\n      dup2\n      mstore\n      0x20\n      add\n      0x00\n      keccak256\n        /* \"wwcc-contracts/contracts/wwccPool.sol\":4146:4183  WcPool memory pool = WcPools[poolKey] */\n      mload(0x40)\n      dup1\n      0x0160\n      add\n      0x40\n      mstore\n      swap1\n      dup2\n      0x00\n      dup3\n      add\n      dup1\n      sload\n      tag_120\n      swap1\n      tag_85\n      jump\t// in\n    tag_120:\n      dup1\n      0x1f\n      add\n      0x20\n      dup1\n      swap2\n      div\n      mul\n      0x20\n      add\n      mload(0x40)\n      swap1\n      dup2\n      add\n      0x40\n      mstore\n      dup1\n      swap3\n      swap2\n      swap1\n      dup2\n      dup2\n      mstore\n      0x20\n      add\n      dup3\n      dup1\n      sload\n      tag_121\n      swap1\n      tag_85\n      jump\t// in\n    tag_121:\n      dup1\n      iszero\n      tag_122\n      jumpi\n      dup1\n      0x1f\n      lt\n      tag_123\n      jumpi\n      0x0100\n      dup1\n      dup4\n      sload\n      div\n      mul\n      dup4\n      mstore\n      swap2\n      0x20\n      add\n      swap2\n      jump(tag_122)\n    tag_123:\n      dup3\n      add\n      swap2\n      swap1\n      0x00\n      mstore\n      keccak256(0x00, 0x20)\n      swap1\n    tag_124:\n      dup2\n      sload\n      dup2\n      mstore\n      swap1\n      0x01\n      add\n      swap1\n      0x20\n      add\n      dup1\n      dup4\n      gt\n      tag_124\n      jumpi\n      dup3\n      swap1\n      sub\n      0x1f\n      and\n      dup3\n      add\n      swap2\n    tag_122:\n      pop\n      pop\n      pop\n      pop\n      pop\n      dup2\n      mstore\n      0x20\n      add\n      0x01\n      dup3\n      add\n      dup1\n      sload\n      tag_125\n      swap1\n      tag_85\n      jump\t// in\n    tag_125:\n      dup1\n      0x1f\n      add\n      0x20\n      dup1\n      swap2\n      div\n      mul\n      0x20\n      add\n      mload(0x40)\n      swap1\n      dup2\n      add\n      0x40\n      mstore\n      dup1\n      swap3\n      swap2\n      swap1\n      dup2\n      dup2\n      mstore\n      0x20\n      add\n      dup3\n      dup1\n      sload\n      tag_126\n      swap1\n      tag_85\n      jump\t// in\n    tag_126:\n      dup1\n      iszero\n      tag_127\n      jumpi\n      dup1\n      0x1f\n      lt\n      tag_128\n      jumpi\n      0x0100\n      dup1\n      dup4\n      sload\n      div\n      mul\n      dup4\n      mstore\n      swap2\n      0x20\n      add\n      swap2\n      jump(tag_127)\n    tag_128:\n      dup3\n      add\n      swap2\n      swap1\n      0x00\n      mstore\n      keccak256(0x00, 0x20)\n      swap1\n    tag_129:\n      dup2\n      sload\n      dup2\n      mstore\n      swap1\n      0x01\n      add\n      swap1\n      0x20\n      add\n      dup1\n      dup4\n      gt\n      tag_129\n      jumpi\n      dup3\n      swap1\n      sub\n      0x1f\n      and\n      dup3\n      add\n      swap2\n    tag_127:\n      pop\n      pop\n      pop\n      pop\n      pop\n      dup2\n      mstore\n      0x20\n      add\n      0x02\n      dup3\n      add\n      dup1\n      sload\n      tag_130\n      swap1\n      tag_85\n      jump\t// in\n    tag_130:\n      dup1\n      0x1f\n      add\n      0x20\n      dup1\n      swap2\n      div\n      mul\n      0x20\n      add\n      mload(0x40)\n      swap1\n      dup2\n      add\n      0x40\n      mstore\n      dup1\n      swap3\n      swap2\n      swap1\n      dup2\n      dup2\n      mstore\n      0x20\n      add\n      dup3\n      dup1\n      sload\n      tag_131\n      swap1\n      tag_85\n      jump\t// in\n    tag_131:\n      dup1\n      iszero\n      tag_132\n      jumpi\n      dup1\n      0x1f\n      lt\n      tag_133\n      jumpi\n      0x0100\n      dup1\n      dup4\n      sload\n      div\n      mul\n      dup4\n      mstore\n      swap2\n      0x20\n      add\n      swap2\n      jump(tag_132)\n    tag_133:\n      dup3\n      add\n      swap2\n      swap1\n      0x00\n      mstore\n      keccak256(0x00, 0x20)\n      swap1\n    tag_134:\n      dup2\n      sload\n      dup2\n      mstore\n      swap1\n      0x01\n      add\n      swap1\n      0x20\n      add\n      dup1\n      dup4\n      gt\n      tag_134\n      jumpi\n      dup3\n      swap1\n      sub\n      0x1f\n      and\n      dup3\n      add\n      swap2\n    tag_132:\n      pop\n      pop\n      pop\n      pop\n      pop\n      dup2\n      mstore\n      0x20\n      add\n      0x03\n      dup3\n      add\n      sload\n      dup2\n      mstore\n      0x20\n      add\n      0x04\n      dup3\n      add\n      sload\n      dup2\n      mstore\n      0x20\n      add\n      0x05\n      dup3\n      add\n      sload\n      dup2\n      mstore\n      0x20\n      add\n      0x06\n      dup3\n      add\n      sload\n      dup2\n      mstore\n      0x20\n      add\n      0x07\n      dup3\n      add\n      sload\n      dup2\n      mstore\n      0x20\n      add\n      0x08\n      dup3\n      add\n      0x00\n      swap1\n      sload\n      swap1\n      0x0100\n      exp\n      swap1\n      div\n      0xff\n      and\n      iszero\n      iszero\n      iszero\n      iszero\n      dup2\n      mstore\n      0x20\n      add\n      0x08\n      dup3\n      add\n      0x01\n      swap1\n      sload\n      swap1\n      0x0100\n      exp\n      swap1\n      div\n      0xff\n      and\n      iszero\n      iszero\n      iszero\n      iszero\n      dup2\n      mstore\n      0x20\n      add\n      0x08\n      dup3\n      add\n      0x02\n      swap1\n      sload\n      swap1\n      0x0100\n      exp\n      swap1\n      div\n      0xff\n      and\n      iszero\n      iszero\n      iszero\n      iszero\n      dup2\n      mstore\n      pop\n      pop\n      swap1\n      pop\n        /* \"wwcc-contracts/contracts/wwccPool.sol\":4213:4214  0 */\n      0x00\n        /* \"wwcc-contracts/contracts/wwccPool.sol\":4200:4204  pool */\n      dup2\n        /* \"wwcc-contracts/contracts/wwccPool.sol\":4200:4210  pool.basal */\n      0xe0\n      add\n      mload\n        /* \"wwcc-contracts/contracts/wwccPool.sol\":4200:4214  pool.basal > 0 */\n      gt\n        /* \"wwcc-contracts/contracts/wwccPool.sol\":4196:4279  if (pool.basal > 0){... */\n      iszero\n      tag_135\n      jumpi\n        /* \"wwcc-contracts/contracts/wwccPool.sol\":4232:4265  revert(\"pool basal has been set\") */\n      mload(0x40)\n      0x08c379a000000000000000000000000000000000000000000000000000000000\n      dup2\n      mstore\n      0x04\n      add\n      tag_136\n      swap1\n      tag_137\n      jump\t// in\n    tag_136:\n      mload(0x40)\n      dup1\n      swap2\n      sub\n      swap1\n      revert\n        /* \"wwcc-contracts/contracts/wwccPool.sol\":4196:4279  if (pool.basal > 0){... */\n    tag_135:\n        /* \"wwcc-contracts/contracts/wwccPool.sol\":4311:4316  basal */\n      dup3\n        /* \"wwcc-contracts/contracts/wwccPool.sol\":4295:4308  nextBasalLast */\n      sload(0x07)\n        /* \"wwcc-contracts/contracts/wwccPool.sol\":4295:4316  nextBasalLast > basal */\n      gt\n        /* \"wwcc-contracts/contracts/wwccPool.sol\":4291:4374  if (nextBasalLast > basal){... */\n      iszero\n      tag_138\n      jumpi\n        /* \"wwcc-contracts/contracts/wwccPool.sol\":4334:4360  revert(\"not enough basal\") */\n      mload(0x40)\n      0x08c379a000000000000000000000000000000000000000000000000000000000\n      dup2\n      mstore\n      0x04\n      add\n      tag_139\n      swap1\n      tag_140\n      jump\t// in\n    tag_139:\n      mload(0x40)\n      dup1\n      swap2\n      sub\n      swap1\n      revert\n        /* \"wwcc-contracts/contracts/wwccPool.sol\":4291:4374  if (nextBasalLast > basal){... */\n    tag_138:\n        /* \"wwcc-contracts/contracts/wwccPool.sol\":4400:4405  basal */\n      dup3\n        /* \"wwcc-contracts/contracts/wwccPool.sol\":4386:4390  pool */\n      dup2\n        /* \"wwcc-contracts/contracts/wwccPool.sol\":4386:4396  pool.basal */\n      0xe0\n      add\n        /* \"wwcc-contracts/contracts/wwccPool.sol\":4386:4405  pool.basal += basal */\n      dup2\n      dup2\n      mload\n      tag_141\n      swap2\n      swap1\n      tag_17\n      jump\t// in\n    tag_141:\n      swap2\n      pop\n      dup2\n      dup2\n      mstore\n      pop\n      pop\n        /* \"wwcc-contracts/contracts/wwccPool.sol\":4436:4441  basal */\n      dup3\n        /* \"wwcc-contracts/contracts/wwccPool.sol\":4418:4431  nextBasalLast */\n      0x07\n      0x00\n        /* \"wwcc-contracts/contracts/wwccPool.sol\":4418:4441  nextBasalLast -=  basal */\n      dup3\n      dup3\n      sload\n      tag_142\n      swap2\n      swap1\n      tag_143\n      jump\t// in\n    tag_142:\n      swap3\n      pop\n      pop\n      dup2\n      swap1\n      sstore\n      pop\n        /* \"wwcc-contracts/contracts/wwccPool.sol\":4461:4465  true */\n      0x01\n        /* \"wwcc-contracts/contracts/wwccPool.sol\":4454:4465  return true */\n      swap2\n      pop\n      pop\n        /* \"wwcc-contracts/contracts/wwccPool.sol\":3960:4482  function Set_Basal(bytes32 poolKey,uint256 basal) external onlyManager  returns (bool){... */\n      swap3\n      swap2\n      pop\n      pop\n      jump\t// out\n        /* \"wwcc-contracts/contracts/wwccPool.sol\":1723:2612  function Set_Pool(... */\n    tag_37:\n        /* \"wwcc-contracts/contracts/wwccPool.sol\":1870:1877  bytes32 */\n      0x00\n        /* \"wwcc-contracts/contracts/wwccPool.sol\":11873:11878  owner */\n      dup1\n      0x00\n      swap1\n      sload\n      swap1\n      0x0100\n      exp\n      swap1\n      div\n      0xffffffffffffffffffffffffffffffffffffffff\n      and\n        /* \"wwcc-contracts/contracts/wwccPool.sol\":11859:11878  msg.sender == owner */\n      0xffffffffffffffffffffffffffffffffffffffff\n      and\n        /* \"wwcc-contracts/contracts/wwccPool.sol\":11859:11869  msg.sender */\n      caller\n        /* \"wwcc-contracts/contracts/wwccPool.sol\":11859:11878  msg.sender == owner */\n      0xffffffffffffffffffffffffffffffffffffffff\n      and\n      eq\n        /* \"wwcc-contracts/contracts/wwccPool.sol\":11838:11929  require(... */\n      tag_145\n      jumpi\n      mload(0x40)\n      0x08c379a000000000000000000000000000000000000000000000000000000000\n      dup2\n      mstore\n      0x04\n      add\n      tag_146\n      swap1\n      tag_76\n      jump\t// in\n    tag_146:\n      mload(0x40)\n      dup1\n      swap2\n      sub\n      swap1\n      revert\n    tag_145:\n        /* \"wwcc-contracts/contracts/wwccPool.sol\":1888:1904  string memory s1 */\n      0x00\n        /* \"wwcc-contracts/contracts/wwccPool.sol\":1907:1928  strConcat(home,visit) */\n      tag_148\n        /* \"wwcc-contracts/contracts/wwccPool.sol\":1917:1921  home */\n      dup7\n        /* \"wwcc-contracts/contracts/wwccPool.sol\":1922:1927  visit */\n      dup7\n        /* \"wwcc-contracts/contracts/wwccPool.sol\":1907:1916  strConcat */\n      tag_149\n        /* \"wwcc-contracts/contracts/wwccPool.sol\":1907:1928  strConcat(home,visit) */\n      jump\t// in\n    tag_148:\n        /* \"wwcc-contracts/contracts/wwccPool.sol\":1888:1928  string memory s1 = strConcat(home,visit) */\n      swap1\n      pop\n        /* \"wwcc-contracts/contracts/wwccPool.sol\":1937:1953  string memory s2 */\n      0x00\n        /* \"wwcc-contracts/contracts/wwccPool.sol\":1956:1976  strConcat(s1,rounds) */\n      tag_150\n        /* \"wwcc-contracts/contracts/wwccPool.sol\":1966:1968  s1 */\n      dup3\n        /* \"wwcc-contracts/contracts/wwccPool.sol\":1969:1975  rounds */\n      dup7\n        /* \"wwcc-contracts/contracts/wwccPool.sol\":1956:1965  strConcat */\n      tag_149\n        /* \"wwcc-contracts/contracts/wwccPool.sol\":1956:1976  strConcat(s1,rounds) */\n      jump\t// in\n    tag_150:\n        /* \"wwcc-contracts/contracts/wwccPool.sol\":1937:1976  string memory s2 = strConcat(s1,rounds) */\n      swap1\n      pop\n        /* \"wwcc-contracts/contracts/wwccPool.sol\":1985:2000  bytes32 poolKey */\n      0x00\n        /* \"wwcc-contracts/contracts/wwccPool.sol\":2030:2032  s2 */\n      dup2\n        /* \"wwcc-contracts/contracts/wwccPool.sol\":2013:2033  abi.encodePacked(s2) */\n      add(0x20, mload(0x40))\n      tag_151\n      swap2\n      swap1\n      tag_152\n      jump\t// in\n    tag_151:\n      mload(0x40)\n      0x20\n      dup2\n      dup4\n      sub\n      sub\n      dup2\n      mstore\n      swap1\n      0x40\n      mstore\n        /* \"wwcc-contracts/contracts/wwccPool.sol\":2003:2034  keccak256(abi.encodePacked(s2)) */\n      dup1\n      mload\n      swap1\n      0x20\n      add\n      keccak256\n        /* \"wwcc-contracts/contracts/wwccPool.sol\":1985:2034  bytes32 poolKey = keccak256(abi.encodePacked(s2)) */\n      swap1\n      pop\n        /* \"wwcc-contracts/contracts/wwccPool.sol\":2046:2063  contains(poolKey) */\n      tag_153\n        /* \"wwcc-contracts/contracts/wwccPool.sol\":2055:2062  poolKey */\n      dup2\n        /* \"wwcc-contracts/contracts/wwccPool.sol\":2046:2054  contains */\n      tag_79\n        /* \"wwcc-contracts/contracts/wwccPool.sol\":2046:2063  contains(poolKey) */\n      jump\t// in\n    tag_153:\n        /* \"wwcc-contracts/contracts/wwccPool.sol\":2043:2583  if(contains(poolKey)) { ... */\n      iszero\n      tag_154\n      jumpi\n        /* \"wwcc-contracts/contracts/wwccPool.sol\":2080:2100  revert(\"pair exist\") */\n      mload(0x40)\n      0x08c379a000000000000000000000000000000000000000000000000000000000\n      dup2\n      mstore\n      0x04\n      add\n      tag_155\n      swap1\n      tag_156\n      jump\t// in\n    tag_155:\n      mload(0x40)\n      dup1\n      swap2\n      sub\n      swap1\n      revert\n        /* \"wwcc-contracts/contracts/wwccPool.sol\":2043:2583  if(contains(poolKey)) { ... */\n    tag_154:\n        /* \"wwcc-contracts/contracts/wwccPool.sol\":2151:2155  true */\n      0x01\n        /* \"wwcc-contracts/contracts/wwccPool.sol\":2127:2134  WcPools */\n      0x06\n        /* \"wwcc-contracts/contracts/wwccPool.sol\":2127:2143  WcPools[poolKey] */\n      0x00\n        /* \"wwcc-contracts/contracts/wwccPool.sol\":2135:2142  poolKey */\n      dup4\n        /* \"wwcc-contracts/contracts/wwccPool.sol\":2127:2143  WcPools[poolKey] */\n      dup2\n      mstore\n      0x20\n      add\n      swap1\n      dup2\n      mstore\n      0x20\n      add\n      0x00\n      keccak256\n        /* \"wwcc-contracts/contracts/wwccPool.sol\":2127:2148  WcPools[poolKey].used */\n      0x08\n      add\n      0x01\n        /* \"wwcc-contracts/contracts/wwccPool.sol\":2127:2155  WcPools[poolKey].used = true */\n      0x0100\n      exp\n      dup2\n      sload\n      dup2\n      0xff\n      mul\n      not\n      and\n      swap1\n      dup4\n      iszero\n      iszero\n      mul\n      or\n      swap1\n      sstore\n      pop\n        /* \"wwcc-contracts/contracts/wwccPool.sol\":2192:2196  home */\n      dup8\n        /* \"wwcc-contracts/contracts/wwccPool.sol\":2168:2175  WcPools */\n      0x06\n        /* \"wwcc-contracts/contracts/wwccPool.sol\":2168:2184  WcPools[poolKey] */\n      0x00\n        /* \"wwcc-contracts/contracts/wwccPool.sol\":2176:2183  poolKey */\n      dup4\n        /* \"wwcc-contracts/contracts/wwccPool.sol\":2168:2184  WcPools[poolKey] */\n      dup2\n      mstore\n      0x20\n      add\n      swap1\n      dup2\n      mstore\n      0x20\n      add\n      0x00\n      keccak256\n        /* \"wwcc-contracts/contracts/wwccPool.sol\":2168:2189  WcPools[poolKey].home */\n      0x00\n      add\n        /* \"wwcc-contracts/contracts/wwccPool.sol\":2168:2196  WcPools[poolKey].home = home */\n      swap1\n      dup1\n      mload\n      swap1\n      0x20\n      add\n      swap1\n      tag_158\n      swap3\n      swap2\n      swap1\n      tag_159\n      jump\t// in\n    tag_158:\n      pop\n        /* \"wwcc-contracts/contracts/wwccPool.sol\":2234:2239  visit */\n      dup7\n        /* \"wwcc-contracts/contracts/wwccPool.sol\":2209:2216  WcPools */\n      0x06\n        /* \"wwcc-contracts/contracts/wwccPool.sol\":2209:2225  WcPools[poolKey] */\n      0x00\n        /* \"wwcc-contracts/contracts/wwccPool.sol\":2217:2224  poolKey */\n      dup4\n        /* \"wwcc-contracts/contracts/wwccPool.sol\":2209:2225  WcPools[poolKey] */\n      dup2\n      mstore\n      0x20\n      add\n      swap1\n      dup2\n      mstore\n      0x20\n      add\n      0x00\n      keccak256\n        /* \"wwcc-contracts/contracts/wwccPool.sol\":2209:2231  WcPools[poolKey].visit */\n      0x01\n      add\n        /* \"wwcc-contracts/contracts/wwccPool.sol\":2209:2239  WcPools[poolKey].visit = visit */\n      swap1\n      dup1\n      mload\n      swap1\n      0x20\n      add\n      swap1\n      tag_160\n      swap3\n      swap2\n      swap1\n      tag_159\n      jump\t// in\n    tag_160:\n      pop\n        /* \"wwcc-contracts/contracts/wwccPool.sol\":2278:2284  rounds */\n      dup6\n        /* \"wwcc-contracts/contracts/wwccPool.sol\":2252:2259  WcPools */\n      0x06\n        /* \"wwcc-contracts/contracts/wwccPool.sol\":2252:2268  WcPools[poolKey] */\n      0x00\n        /* \"wwcc-contracts/contracts/wwccPool.sol\":2260:2267  poolKey */\n      dup4\n        /* \"wwcc-contracts/contracts/wwccPool.sol\":2252:2268  WcPools[poolKey] */\n      dup2\n      mstore\n      0x20\n      add\n      swap1\n      dup2\n      mstore\n      0x20\n      add\n      0x00\n      keccak256\n        /* \"wwcc-contracts/contracts/wwccPool.sol\":2252:2275  WcPools[poolKey].rounds */\n      0x02\n      add\n        /* \"wwcc-contracts/contracts/wwccPool.sol\":2252:2284  WcPools[poolKey].rounds = rounds */\n      swap1\n      dup1\n      mload\n      swap1\n      0x20\n      add\n      swap1\n      tag_161\n      swap3\n      swap2\n      swap1\n      tag_159\n      jump\t// in\n    tag_161:\n      pop\n        /* \"wwcc-contracts/contracts/wwccPool.sol\":2322:2323  0 */\n      0x00\n        /* \"wwcc-contracts/contracts/wwccPool.sol\":2297:2304  WcPools */\n      0x06\n        /* \"wwcc-contracts/contracts/wwccPool.sol\":2297:2313  WcPools[poolKey] */\n      0x00\n        /* \"wwcc-contracts/contracts/wwccPool.sol\":2305:2312  poolKey */\n      dup4\n        /* \"wwcc-contracts/contracts/wwccPool.sol\":2297:2313  WcPools[poolKey] */\n      dup2\n      mstore\n      0x20\n      add\n      swap1\n      dup2\n      mstore\n      0x20\n      add\n      0x00\n      keccak256\n        /* \"wwcc-contracts/contracts/wwccPool.sol\":2297:2319  WcPools[poolKey].wPool */\n      0x03\n      add\n        /* \"wwcc-contracts/contracts/wwccPool.sol\":2297:2323  WcPools[poolKey].wPool = 0 */\n      dup2\n      swap1\n      sstore\n      pop\n        /* \"wwcc-contracts/contracts/wwccPool.sol\":2361:2362  0 */\n      0x00\n        /* \"wwcc-contracts/contracts/wwccPool.sol\":2336:2343  WcPools */\n      0x06\n        /* \"wwcc-contracts/contracts/wwccPool.sol\":2336:2352  WcPools[poolKey] */\n      0x00\n        /* \"wwcc-contracts/contracts/wwccPool.sol\":2344:2351  poolKey */\n      dup4\n        /* \"wwcc-contracts/contracts/wwccPool.sol\":2336:2352  WcPools[poolKey] */\n      dup2\n      mstore\n      0x20\n      add\n      swap1\n      dup2\n      mstore\n      0x20\n      add\n      0x00\n      keccak256\n        /* \"wwcc-contracts/contracts/wwccPool.sol\":2336:2358  WcPools[poolKey].dPool */\n      0x04\n      add\n        /* \"wwcc-contracts/contracts/wwccPool.sol\":2336:2362  WcPools[poolKey].dPool = 0 */\n      dup2\n      swap1\n      sstore\n      pop\n        /* \"wwcc-contracts/contracts/wwccPool.sol\":2400:2401  0 */\n      0x00\n        /* \"wwcc-contracts/contracts/wwccPool.sol\":2375:2382  WcPools */\n      0x06\n        /* \"wwcc-contracts/contracts/wwccPool.sol\":2375:2391  WcPools[poolKey] */\n      0x00\n        /* \"wwcc-contracts/contracts/wwccPool.sol\":2383:2390  poolKey */\n      dup4\n        /* \"wwcc-contracts/contracts/wwccPool.sol\":2375:2391  WcPools[poolKey] */\n      dup2\n      mstore\n      0x20\n      add\n      swap1\n      dup2\n      mstore\n      0x20\n      add\n      0x00\n      keccak256\n        /* \"wwcc-contracts/contracts/wwccPool.sol\":2375:2397  WcPools[poolKey].lPool */\n      0x05\n      add\n        /* \"wwcc-contracts/contracts/wwccPool.sol\":2375:2401  WcPools[poolKey].lPool = 0 */\n      dup2\n      swap1\n      sstore\n      pop\n        /* \"wwcc-contracts/contracts/wwccPool.sol\":2439:2440  0 */\n      0x00\n        /* \"wwcc-contracts/contracts/wwccPool.sol\":2414:2421  WcPools */\n      0x06\n        /* \"wwcc-contracts/contracts/wwccPool.sol\":2414:2430  WcPools[poolKey] */\n      0x00\n        /* \"wwcc-contracts/contracts/wwccPool.sol\":2422:2429  poolKey */\n      dup4\n        /* \"wwcc-contracts/contracts/wwccPool.sol\":2414:2430  WcPools[poolKey] */\n      dup2\n      mstore\n      0x20\n      add\n      swap1\n      dup2\n      mstore\n      0x20\n      add\n      0x00\n      keccak256\n        /* \"wwcc-contracts/contracts/wwccPool.sol\":2414:2436  WcPools[poolKey].sPool */\n      0x06\n      add\n        /* \"wwcc-contracts/contracts/wwccPool.sol\":2414:2440  WcPools[poolKey].sPool = 0 */\n      dup2\n      swap1\n      sstore\n      pop\n        /* \"wwcc-contracts/contracts/wwccPool.sol\":2478:2479  0 */\n      0x00\n        /* \"wwcc-contracts/contracts/wwccPool.sol\":2453:2460  WcPools */\n      0x06\n        /* \"wwcc-contracts/contracts/wwccPool.sol\":2453:2469  WcPools[poolKey] */\n      0x00\n        /* \"wwcc-contracts/contracts/wwccPool.sol\":2461:2468  poolKey */\n      dup4\n        /* \"wwcc-contracts/contracts/wwccPool.sol\":2453:2469  WcPools[poolKey] */\n      dup2\n      mstore\n      0x20\n      add\n      swap1\n      dup2\n      mstore\n      0x20\n      add\n      0x00\n      keccak256\n        /* \"wwcc-contracts/contracts/wwccPool.sol\":2453:2475  WcPools[poolKey].basal */\n      0x07\n      add\n        /* \"wwcc-contracts/contracts/wwccPool.sol\":2453:2479  WcPools[poolKey].basal = 0 */\n      dup2\n      swap1\n      sstore\n      pop\n        /* \"wwcc-contracts/contracts/wwccPool.sol\":2519:2526  decided */\n      dup5\n        /* \"wwcc-contracts/contracts/wwccPool.sol\":2492:2499  WcPools */\n      0x06\n        /* \"wwcc-contracts/contracts/wwccPool.sol\":2492:2508  WcPools[poolKey] */\n      0x00\n        /* \"wwcc-contracts/contracts/wwccPool.sol\":2500:2507  poolKey */\n      dup4\n        /* \"wwcc-contracts/contracts/wwccPool.sol\":2492:2508  WcPools[poolKey] */\n      dup2\n      mstore\n      0x20\n      add\n      swap1\n      dup2\n      mstore\n      0x20\n      add\n      0x00\n      keccak256\n        /* \"wwcc-contracts/contracts/wwccPool.sol\":2492:2516  WcPools[poolKey].decided */\n      0x08\n      add\n      0x00\n        /* \"wwcc-contracts/contracts/wwccPool.sol\":2492:2526  WcPools[poolKey].decided = decided */\n      0x0100\n      exp\n      dup2\n      sload\n      dup2\n      0xff\n      mul\n      not\n      and\n      swap1\n      dup4\n      iszero\n      iszero\n      mul\n      or\n      swap1\n      sstore\n      pop\n        /* \"wwcc-contracts/contracts/wwccPool.sol\":2567:2572  false */\n      0x00\n        /* \"wwcc-contracts/contracts/wwccPool.sol\":2539:2546  WcPools */\n      0x06\n        /* \"wwcc-contracts/contracts/wwccPool.sol\":2539:2555  WcPools[poolKey] */\n      0x00\n        /* \"wwcc-contracts/contracts/wwccPool.sol\":2547:2554  poolKey */\n      dup4\n        /* \"wwcc-contracts/contracts/wwccPool.sol\":2539:2555  WcPools[poolKey] */\n      dup2\n      mstore\n      0x20\n      add\n      swap1\n      dup2\n      mstore\n      0x20\n      add\n      0x00\n      keccak256\n        /* \"wwcc-contracts/contracts/wwccPool.sol\":2539:2564  WcPools[poolKey].finished */\n      0x08\n      add\n      0x02\n        /* \"wwcc-contracts/contracts/wwccPool.sol\":2539:2572  WcPools[poolKey].finished = false */\n      0x0100\n      exp\n      dup2\n      sload\n      dup2\n      0xff\n      mul\n      not\n      and\n      swap1\n      dup4\n      iszero\n      iszero\n      mul\n      or\n      swap1\n      sstore\n      pop\n        /* \"wwcc-contracts/contracts/wwccPool.sol\":2598:2605  poolKey */\n      dup1\n        /* \"wwcc-contracts/contracts/wwccPool.sol\":2591:2605  return poolKey */\n      swap4\n      pop\n      pop\n      pop\n      pop\n        /* \"wwcc-contracts/contracts/wwccPool.sol\":1723:2612  function Set_Pool(... */\n      swap5\n      swap4\n      pop\n      pop\n      pop\n      pop\n      jump\t// out\n        /* \"wwcc-contracts/contracts/wwccPool.sol\":5879:5989  function CheckBasal() external onlyManager  returns (uint256){... */\n    tag_42:\n        /* \"wwcc-contracts/contracts/wwccPool.sol\":5932:5939  uint256 */\n      0x00\n        /* \"wwcc-contracts/contracts/wwccPool.sol\":11873:11878  owner */\n      dup1\n      0x00\n      swap1\n      sload\n      swap1\n      0x0100\n      exp\n      swap1\n      div\n      0xffffffffffffffffffffffffffffffffffffffff\n      and\n        /* \"wwcc-contracts/contracts/wwccPool.sol\":11859:11878  msg.sender == owner */\n      0xffffffffffffffffffffffffffffffffffffffff\n      and\n        /* \"wwcc-contracts/contracts/wwccPool.sol\":11859:11869  msg.sender */\n      caller\n        /* \"wwcc-contracts/contracts/wwccPool.sol\":11859:11878  msg.sender == owner */\n      0xffffffffffffffffffffffffffffffffffffffff\n      and\n      eq\n        /* \"wwcc-contracts/contracts/wwccPool.sol\":11838:11929  require(... */\n      tag_163\n      jumpi\n      mload(0x40)\n      0x08c379a000000000000000000000000000000000000000000000000000000000\n      dup2\n      mstore\n      0x04\n      add\n      tag_164\n      swap1\n      tag_76\n      jump\t// in\n    tag_164:\n      mload(0x40)\n      dup1\n      swap2\n      sub\n      swap1\n      revert\n    tag_163:\n        /* \"wwcc-contracts/contracts/wwccPool.sol\":5960:5973  nextBasalLast */\n      sload(0x07)\n        /* \"wwcc-contracts/contracts/wwccPool.sol\":5953:5973  return nextBasalLast */\n      swap1\n      pop\n        /* \"wwcc-contracts/contracts/wwccPool.sol\":5879:5989  function CheckBasal() external onlyManager  returns (uint256){... */\n      swap1\n      jump\t// out\n        /* \"wwcc-contracts/contracts/wwccPool.sol\":5521:5874  function CheckExpect(bytes32 poolKey) external onlyManager  returns (uint256){... */\n    tag_49:\n        /* \"wwcc-contracts/contracts/wwccPool.sol\":5590:5597  uint256 */\n      0x00\n        /* \"wwcc-contracts/contracts/wwccPool.sol\":11873:11878  owner */\n      dup1\n      0x00\n      swap1\n      sload\n      swap1\n      0x0100\n      exp\n      swap1\n      div\n      0xffffffffffffffffffffffffffffffffffffffff\n      and\n        /* \"wwcc-contracts/contracts/wwccPool.sol\":11859:11878  msg.sender == owner */\n      0xffffffffffffffffffffffffffffffffffffffff\n      and\n        /* \"wwcc-contracts/contracts/wwccPool.sol\":11859:11869  msg.sender */\n      caller\n        /* \"wwcc-contracts/contracts/wwccPool.sol\":11859:11878  msg.sender == owner */\n      0xffffffffffffffffffffffffffffffffffffffff\n      and\n      eq\n        /* \"wwcc-contracts/contracts/wwccPool.sol\":11838:11929  require(... */\n      tag_167\n      jumpi\n      mload(0x40)\n      0x08c379a000000000000000000000000000000000000000000000000000000000\n      dup2\n      mstore\n      0x04\n      add\n      tag_168\n      swap1\n      tag_76\n      jump\t// in\n    tag_168:\n      mload(0x40)\n      dup1\n      swap2\n      sub\n      swap1\n      revert\n    tag_167:\n        /* \"wwcc-contracts/contracts/wwccPool.sol\":5612:5629  contains(poolKey) */\n      tag_170\n        /* \"wwcc-contracts/contracts/wwccPool.sol\":5621:5628  poolKey */\n      dup3\n        /* \"wwcc-contracts/contracts/wwccPool.sol\":5612:5620  contains */\n      tag_79\n        /* \"wwcc-contracts/contracts/wwccPool.sol\":5612:5629  contains(poolKey) */\n      jump\t// in\n    tag_170:\n        /* \"wwcc-contracts/contracts/wwccPool.sol\":5608:5868  if(!contains(poolKey)) { ... */\n      tag_171\n      jumpi\n        /* \"wwcc-contracts/contracts/wwccPool.sol\":5646:5670  revert(\"pool not exist\") */\n      mload(0x40)\n      0x08c379a000000000000000000000000000000000000000000000000000000000\n      dup2\n      mstore\n      0x04\n      add\n      tag_172\n      swap1\n      tag_82\n      jump\t// in\n    tag_172:\n      mload(0x40)\n      dup1\n      swap2\n      sub\n      swap1\n      revert\n        /* \"wwcc-contracts/contracts/wwccPool.sol\":5608:5868  if(!contains(poolKey)) { ... */\n    tag_171:\n        /* \"wwcc-contracts/contracts/wwccPool.sol\":5698:5716  WcPool memory pool */\n      0x00\n        /* \"wwcc-contracts/contracts/wwccPool.sol\":5719:5726  WcPools */\n      0x06\n        /* \"wwcc-contracts/contracts/wwccPool.sol\":5719:5735  WcPools[poolKey] */\n      0x00\n        /* \"wwcc-contracts/contracts/wwccPool.sol\":5727:5734  poolKey */\n      dup5\n        /* \"wwcc-contracts/contracts/wwccPool.sol\":5719:5735  WcPools[poolKey] */\n      dup2\n      mstore\n      0x20\n      add\n      swap1\n      dup2\n      mstore\n      0x20\n      add\n      0x00\n      keccak256\n        /* \"wwcc-contracts/contracts/wwccPool.sol\":5698:5735  WcPool memory pool = WcPools[poolKey] */\n      mload(0x40)\n      dup1\n      0x0160\n      add\n      0x40\n      mstore\n      swap1\n      dup2\n      0x00\n      dup3\n      add\n      dup1\n      sload\n      tag_174\n      swap1\n      tag_85\n      jump\t// in\n    tag_174:\n      dup1\n      0x1f\n      add\n      0x20\n      dup1\n      swap2\n      div\n      mul\n      0x20\n      add\n      mload(0x40)\n      swap1\n      dup2\n      add\n      0x40\n      mstore\n      dup1\n      swap3\n      swap2\n      swap1\n      dup2\n      dup2\n      mstore\n      0x20\n      add\n      dup3\n      dup1\n      sload\n      tag_175\n      swap1\n      tag_85\n      jump\t// in\n    tag_175:\n      dup1\n      iszero\n      tag_176\n      jumpi\n      dup1\n      0x1f\n      lt\n      tag_177\n      jumpi\n      0x0100\n      dup1\n      dup4\n      sload\n      div\n      mul\n      dup4\n      mstore\n      swap2\n      0x20\n      add\n      swap2\n      jump(tag_176)\n    tag_177:\n      dup3\n      add\n      swap2\n      swap1\n      0x00\n      mstore\n      keccak256(0x00, 0x20)\n      swap1\n    tag_178:\n      dup2\n      sload\n      dup2\n      mstore\n      swap1\n      0x01\n      add\n      swap1\n      0x20\n      add\n      dup1\n      dup4\n      gt\n      tag_178\n      jumpi\n      dup3\n      swap1\n      sub\n      0x1f\n      and\n      dup3\n      add\n      swap2\n    tag_176:\n      pop\n      pop\n      pop\n      pop\n      pop\n      dup2\n      mstore\n      0x20\n      add\n      0x01\n      dup3\n      add\n      dup1\n      sload\n      tag_179\n      swap1\n      tag_85\n      jump\t// in\n    tag_179:\n      dup1\n      0x1f\n      add\n      0x20\n      dup1\n      swap2\n      div\n      mul\n      0x20\n      add\n      mload(0x40)\n      swap1\n      dup2\n      add\n      0x40\n      mstore\n      dup1\n      swap3\n      swap2\n      swap1\n      dup2\n      dup2\n      mstore\n      0x20\n      add\n      dup3\n      dup1\n      sload\n      tag_180\n      swap1\n      tag_85\n      jump\t// in\n    tag_180:\n      dup1\n      iszero\n      tag_181\n      jumpi\n      dup1\n      0x1f\n      lt\n      tag_182\n      jumpi\n      0x0100\n      dup1\n      dup4\n      sload\n      div\n      mul\n      dup4\n      mstore\n      swap2\n      0x20\n      add\n      swap2\n      jump(tag_181)\n    tag_182:\n      dup3\n      add\n      swap2\n      swap1\n      0x00\n      mstore\n      keccak256(0x00, 0x20)\n      swap1\n    tag_183:\n      dup2\n      sload\n      dup2\n      mstore\n      swap1\n      0x01\n      add\n      swap1\n      0x20\n      add\n      dup1\n      dup4\n      gt\n      tag_183\n      jumpi\n      dup3\n      swap1\n      sub\n      0x1f\n      and\n      dup3\n      add\n      swap2\n    tag_181:\n      pop\n      pop\n      pop\n      pop\n      pop\n      dup2\n      mstore\n      0x20\n      add\n      0x02\n      dup3\n      add\n      dup1\n      sload\n      tag_184\n      swap1\n      tag_85\n      jump\t// in\n    tag_184:\n      dup1\n      0x1f\n      add\n      0x20\n      dup1\n      swap2\n      div\n      mul\n      0x20\n      add\n      mload(0x40)\n      swap1\n      dup2\n      add\n      0x40\n      mstore\n      dup1\n      swap3\n      swap2\n      swap1\n      dup2\n      dup2\n      mstore\n      0x20\n      add\n      dup3\n      dup1\n      sload\n      tag_185\n      swap1\n      tag_85\n      jump\t// in\n    tag_185:\n      dup1\n      iszero\n      tag_186\n      jumpi\n      dup1\n      0x1f\n      lt\n      tag_187\n      jumpi\n      0x0100\n      dup1\n      dup4\n      sload\n      div\n      mul\n      dup4\n      mstore\n      swap2\n      0x20\n      add\n      swap2\n      jump(tag_186)\n    tag_187:\n      dup3\n      add\n      swap2\n      swap1\n      0x00\n      mstore\n      keccak256(0x00, 0x20)\n      swap1\n    tag_188:\n      dup2\n      sload\n      dup2\n      mstore\n      swap1\n      0x01\n      add\n      swap1\n      0x20\n      add\n      dup1\n      dup4\n      gt\n      tag_188\n      jumpi\n      dup3\n      swap1\n      sub\n      0x1f\n      and\n      dup3\n      add\n      swap2\n    tag_186:\n      pop\n      pop\n      pop\n      pop\n      pop\n      dup2\n      mstore\n      0x20\n      add\n      0x03\n      dup3\n      add\n      sload\n      dup2\n      mstore\n      0x20\n      add\n      0x04\n      dup3\n      add\n      sload\n      dup2\n      mstore\n      0x20\n      add\n      0x05\n      dup3\n      add\n      sload\n      dup2\n      mstore\n      0x20\n      add\n      0x06\n      dup3\n      add\n      sload\n      dup2\n      mstore\n      0x20\n      add\n      0x07\n      dup3\n      add\n      sload\n      dup2\n      mstore\n      0x20\n      add\n      0x08\n      dup3\n      add\n      0x00\n      swap1\n      sload\n      swap1\n      0x0100\n      exp\n      swap1\n      div\n      0xff\n      and\n      iszero\n      iszero\n      iszero\n      iszero\n      dup2\n      mstore\n      0x20\n      add\n      0x08\n      dup3\n      add\n      0x01\n      swap1\n      sload\n      swap1\n      0x0100\n      exp\n      swap1\n      div\n      0xff\n      and\n      iszero\n      iszero\n      iszero\n      iszero\n      dup2\n      mstore\n      0x20\n      add\n      0x08\n      dup3\n      add\n      0x02\n      swap1\n      sload\n      swap1\n      0x0100\n      exp\n      swap1\n      div\n      0xff\n      and\n      iszero\n      iszero\n      iszero\n      iszero\n      dup2\n      mstore\n      pop\n      pop\n      swap1\n      pop\n        /* \"wwcc-contracts/contracts/wwccPool.sol\":5748:5762  uint256 expect */\n      0x00\n        /* \"wwcc-contracts/contracts/wwccPool.sol\":5765:5831  (pool.wPool+pool.lPool+pool.dPool+pool.sPool + pool.basal).div(10) */\n      tag_189\n        /* \"wwcc-contracts/contracts/wwccPool.sol\":5828:5830  10 */\n      0x0a\n        /* \"wwcc-contracts/contracts/wwccPool.sol\":5812:5816  pool */\n      dup4\n        /* \"wwcc-contracts/contracts/wwccPool.sol\":5812:5822  pool.basal */\n      0xe0\n      add\n      mload\n        /* \"wwcc-contracts/contracts/wwccPool.sol\":5799:5803  pool */\n      dup5\n        /* \"wwcc-contracts/contracts/wwccPool.sol\":5799:5809  pool.sPool */\n      0xc0\n      add\n      mload\n        /* \"wwcc-contracts/contracts/wwccPool.sol\":5788:5792  pool */\n      dup6\n        /* \"wwcc-contracts/contracts/wwccPool.sol\":5788:5798  pool.dPool */\n      0x80\n      add\n      mload\n        /* \"wwcc-contracts/contracts/wwccPool.sol\":5777:5781  pool */\n      dup7\n        /* \"wwcc-contracts/contracts/wwccPool.sol\":5777:5787  pool.lPool */\n      0xa0\n      add\n      mload\n        /* \"wwcc-contracts/contracts/wwccPool.sol\":5766:5770  pool */\n      dup8\n        /* \"wwcc-contracts/contracts/wwccPool.sol\":5766:5776  pool.wPool */\n      0x60\n      add\n      mload\n        /* \"wwcc-contracts/contracts/wwccPool.sol\":5766:5787  pool.wPool+pool.lPool */\n      tag_190\n      swap2\n      swap1\n      tag_17\n      jump\t// in\n    tag_190:\n        /* \"wwcc-contracts/contracts/wwccPool.sol\":5766:5798  pool.wPool+pool.lPool+pool.dPool */\n      tag_191\n      swap2\n      swap1\n      tag_17\n      jump\t// in\n    tag_191:\n        /* \"wwcc-contracts/contracts/wwccPool.sol\":5766:5809  pool.wPool+pool.lPool+pool.dPool+pool.sPool */\n      tag_192\n      swap2\n      swap1\n      tag_17\n      jump\t// in\n    tag_192:\n        /* \"wwcc-contracts/contracts/wwccPool.sol\":5766:5822  pool.wPool+pool.lPool+pool.dPool+pool.sPool + pool.basal */\n      tag_193\n      swap2\n      swap1\n      tag_17\n      jump\t// in\n    tag_193:\n        /* \"wwcc-contracts/contracts/wwccPool.sol\":5765:5827  (pool.wPool+pool.lPool+pool.dPool+pool.sPool + pool.basal).div */\n      tag_105\n      swap1\n        /* \"wwcc-contracts/contracts/wwccPool.sol\":5765:5831  (pool.wPool+pool.lPool+pool.dPool+pool.sPool + pool.basal).div(10) */\n      swap2\n      swap1\n      0xffffffff\n      and\n      jump\t// in\n    tag_189:\n        /* \"wwcc-contracts/contracts/wwccPool.sol\":5748:5831  uint256 expect = (pool.wPool+pool.lPool+pool.dPool+pool.sPool + pool.basal).div(10) */\n      swap1\n      pop\n        /* \"wwcc-contracts/contracts/wwccPool.sol\":5851:5857  expect */\n      dup1\n        /* \"wwcc-contracts/contracts/wwccPool.sol\":5844:5857  return expect */\n      swap3\n      pop\n      pop\n      pop\n        /* \"wwcc-contracts/contracts/wwccPool.sol\":5521:5874  function CheckExpect(bytes32 poolKey) external onlyManager  returns (uint256){... */\n      swap2\n      swap1\n      pop\n      jump\t// out\n        /* \"wwcc-contracts/contracts/wwccPool.sol\":2617:3955  function Picking(address joiner,uint256 weight,bytes32 poolKey,uint256 homeScore,uint256 visitScore,uint256 kind) external onlyManager returns(bool){... */\n    tag_55:\n        /* \"wwcc-contracts/contracts/wwccPool.sol\":2760:2764  bool */\n      0x00\n        /* \"wwcc-contracts/contracts/wwccPool.sol\":11873:11878  owner */\n      dup1\n      0x00\n      swap1\n      sload\n      swap1\n      0x0100\n      exp\n      swap1\n      div\n      0xffffffffffffffffffffffffffffffffffffffff\n      and\n        /* \"wwcc-contracts/contracts/wwccPool.sol\":11859:11878  msg.sender == owner */\n      0xffffffffffffffffffffffffffffffffffffffff\n      and\n        /* \"wwcc-contracts/contracts/wwccPool.sol\":11859:11869  msg.sender */\n      caller\n        /* \"wwcc-contracts/contracts/wwccPool.sol\":11859:11878  msg.sender == owner */\n      0xffffffffffffffffffffffffffffffffffffffff\n      and\n      eq\n        /* \"wwcc-contracts/contracts/wwccPool.sol\":11838:11929  require(... */\n      tag_195\n      jumpi\n      mload(0x40)\n      0x08c379a000000000000000000000000000000000000000000000000000000000\n      dup2\n      mstore\n      0x04\n      add\n      tag_196\n      swap1\n      tag_76\n      jump\t// in\n    tag_196:\n      mload(0x40)\n      dup1\n      swap2\n      sub\n      swap1\n      revert\n    tag_195:\n        /* \"wwcc-contracts/contracts/wwccPool.sol\":2779:2796  contains(poolKey) */\n      tag_198\n        /* \"wwcc-contracts/contracts/wwccPool.sol\":2788:2795  poolKey */\n      dup6\n        /* \"wwcc-contracts/contracts/wwccPool.sol\":2779:2787  contains */\n      tag_79\n        /* \"wwcc-contracts/contracts/wwccPool.sol\":2779:2796  contains(poolKey) */\n      jump\t// in\n    tag_198:\n        /* \"wwcc-contracts/contracts/wwccPool.sol\":2775:3929  if(!contains(poolKey)) { ... */\n      tag_199\n      jumpi\n        /* \"wwcc-contracts/contracts/wwccPool.sol\":2813:2837  revert(\"pool not exist\") */\n      mload(0x40)\n      0x08c379a000000000000000000000000000000000000000000000000000000000\n      dup2\n      mstore\n      0x04\n      add\n      tag_200\n      swap1\n      tag_82\n      jump\t// in\n    tag_200:\n      mload(0x40)\n      dup1\n      swap2\n      sub\n      swap1\n      revert\n        /* \"wwcc-contracts/contracts/wwccPool.sol\":2775:3929  if(!contains(poolKey)) { ... */\n    tag_199:\n        /* \"wwcc-contracts/contracts/wwccPool.sol\":2886:2892  weight */\n      dup6\n        /* \"wwcc-contracts/contracts/wwccPool.sol\":2867:2877  voteAmount */\n      0x05\n        /* \"wwcc-contracts/contracts/wwccPool.sol\":2867:2885  voteAmount[joiner] */\n      0x00\n        /* \"wwcc-contracts/contracts/wwccPool.sol\":2878:2884  joiner */\n      dup10\n        /* \"wwcc-contracts/contracts/wwccPool.sol\":2867:2885  voteAmount[joiner] */\n      0xffffffffffffffffffffffffffffffffffffffff\n      and\n      0xffffffffffffffffffffffffffffffffffffffff\n      and\n      dup2\n      mstore\n      0x20\n      add\n      swap1\n      dup2\n      mstore\n      0x20\n      add\n      0x00\n      keccak256\n      sload\n        /* \"wwcc-contracts/contracts/wwccPool.sol\":2867:2892  voteAmount[joiner]<weight */\n      lt\n        /* \"wwcc-contracts/contracts/wwccPool.sol\":2864:2955  if(voteAmount[joiner]<weight){... */\n      iszero\n      tag_202\n      jumpi\n        /* \"wwcc-contracts/contracts/wwccPool.sol\":2910:2941  revert(\"not enough voteAmount\") */\n      mload(0x40)\n      0x08c379a000000000000000000000000000000000000000000000000000000000\n      dup2\n      mstore\n      0x04\n      add\n      tag_203\n      swap1\n      tag_204\n      jump\t// in\n    tag_203:\n      mload(0x40)\n      dup1\n      swap2\n      sub\n      swap1\n      revert\n        /* \"wwcc-contracts/contracts/wwccPool.sol\":2864:2955  if(voteAmount[joiner]<weight){... */\n    tag_202:\n        /* \"wwcc-contracts/contracts/wwccPool.sol\":2967:2985  WcPool memory pool */\n      0x00\n        /* \"wwcc-contracts/contracts/wwccPool.sol\":2988:2995  WcPools */\n      0x06\n        /* \"wwcc-contracts/contracts/wwccPool.sol\":2988:3004  WcPools[poolKey] */\n      0x00\n        /* \"wwcc-contracts/contracts/wwccPool.sol\":2996:3003  poolKey */\n      dup8\n        /* \"wwcc-contracts/contracts/wwccPool.sol\":2988:3004  WcPools[poolKey] */\n      dup2\n      mstore\n      0x20\n      add\n      swap1\n      dup2\n      mstore\n      0x20\n      add\n      0x00\n      keccak256\n        /* \"wwcc-contracts/contracts/wwccPool.sol\":2967:3004  WcPool memory pool = WcPools[poolKey] */\n      mload(0x40)\n      dup1\n      0x0160\n      add\n      0x40\n      mstore\n      swap1\n      dup2\n      0x00\n      dup3\n      add\n      dup1\n      sload\n      tag_205\n      swap1\n      tag_85\n      jump\t// in\n    tag_205:\n      dup1\n      0x1f\n      add\n      0x20\n      dup1\n      swap2\n      div\n      mul\n      0x20\n      add\n      mload(0x40)\n      swap1\n      dup2\n      add\n      0x40\n      mstore\n      dup1\n      swap3\n      swap2\n      swap1\n      dup2\n      dup2\n      mstore\n      0x20\n      add\n      dup3\n      dup1\n      sload\n      tag_206\n      swap1\n      tag_85\n      jump\t// in\n    tag_206:\n      dup1\n      iszero\n      tag_207\n      jumpi\n      dup1\n      0x1f\n      lt\n      tag_208\n      jumpi\n      0x0100\n      dup1\n      dup4\n      sload\n      div\n      mul\n      dup4\n      mstore\n      swap2\n      0x20\n      add\n      swap2\n      jump(tag_207)\n    tag_208:\n      dup3\n      add\n      swap2\n      swap1\n      0x00\n      mstore\n      keccak256(0x00, 0x20)\n      swap1\n    tag_209:\n      dup2\n      sload\n      dup2\n      mstore\n      swap1\n      0x01\n      add\n      swap1\n      0x20\n      add\n      dup1\n      dup4\n      gt\n      tag_209\n      jumpi\n      dup3\n      swap1\n      sub\n      0x1f\n      and\n      dup3\n      add\n      swap2\n    tag_207:\n      pop\n      pop\n      pop\n      pop\n      pop\n      dup2\n      mstore\n      0x20\n      add\n      0x01\n      dup3\n      add\n      dup1\n      sload\n      tag_210\n      swap1\n      tag_85\n      jump\t// in\n    tag_210:\n      dup1\n      0x1f\n      add\n      0x20\n      dup1\n      swap2\n      div\n      mul\n      0x20\n      add\n      mload(0x40)\n      swap1\n      dup2\n      add\n      0x40\n      mstore\n      dup1\n      swap3\n      swap2\n      swap1\n      dup2\n      dup2\n      mstore\n      0x20\n      add\n      dup3\n      dup1\n      sload\n      tag_211\n      swap1\n      tag_85\n      jump\t// in\n    tag_211:\n      dup1\n      iszero\n      tag_212\n      jumpi\n      dup1\n      0x1f\n      lt\n      tag_213\n      jumpi\n      0x0100\n      dup1\n      dup4\n      sload\n      div\n      mul\n      dup4\n      mstore\n      swap2\n      0x20\n      add\n      swap2\n      jump(tag_212)\n    tag_213:\n      dup3\n      add\n      swap2\n      swap1\n      0x00\n      mstore\n      keccak256(0x00, 0x20)\n      swap1\n    tag_214:\n      dup2\n      sload\n      dup2\n      mstore\n      swap1\n      0x01\n      add\n      swap1\n      0x20\n      add\n      dup1\n      dup4\n      gt\n      tag_214\n      jumpi\n      dup3\n      swap1\n      sub\n      0x1f\n      and\n      dup3\n      add\n      swap2\n    tag_212:\n      pop\n      pop\n      pop\n      pop\n      pop\n      dup2\n      mstore\n      0x20\n      add\n      0x02\n      dup3\n      add\n      dup1\n      sload\n      tag_215\n      swap1\n      tag_85\n      jump\t// in\n    tag_215:\n      dup1\n      0x1f\n      add\n      0x20\n      dup1\n      swap2\n      div\n      mul\n      0x20\n      add\n      mload(0x40)\n      swap1\n      dup2\n      add\n      0x40\n      mstore\n      dup1\n      swap3\n      swap2\n      swap1\n      dup2\n      dup2\n      mstore\n      0x20\n      add\n      dup3\n      dup1\n      sload\n      tag_216\n      swap1\n      tag_85\n      jump\t// in\n    tag_216:\n      dup1\n      iszero\n      tag_217\n      jumpi\n      dup1\n      0x1f\n      lt\n      tag_218\n      jumpi\n      0x0100\n      dup1\n      dup4\n      sload\n      div\n      mul\n      dup4\n      mstore\n      swap2\n      0x20\n      add\n      swap2\n      jump(tag_217)\n    tag_218:\n      dup3\n      add\n      swap2\n      swap1\n      0x00\n      mstore\n      keccak256(0x00, 0x20)\n      swap1\n    tag_219:\n      dup2\n      sload\n      dup2\n      mstore\n      swap1\n      0x01\n      add\n      swap1\n      0x20\n      add\n      dup1\n      dup4\n      gt\n      tag_219\n      jumpi\n      dup3\n      swap1\n      sub\n      0x1f\n      and\n      dup3\n      add\n      swap2\n    tag_217:\n      pop\n      pop\n      pop\n      pop\n      pop\n      dup2\n      mstore\n      0x20\n      add\n      0x03\n      dup3\n      add\n      sload\n      dup2\n      mstore\n      0x20\n      add\n      0x04\n      dup3\n      add\n      sload\n      dup2\n      mstore\n      0x20\n      add\n      0x05\n      dup3\n      add\n      sload\n      dup2\n      mstore\n      0x20\n      add\n      0x06\n      dup3\n      add\n      sload\n      dup2\n      mstore\n      0x20\n      add\n      0x07\n      dup3\n      add\n      sload\n      dup2\n      mstore\n      0x20\n      add\n      0x08\n      dup3\n      add\n      0x00\n      swap1\n      sload\n      swap1\n      0x0100\n      exp\n      swap1\n      div\n      0xff\n      and\n      iszero\n      iszero\n      iszero\n      iszero\n      dup2\n      mstore\n      0x20\n      add\n      0x08\n      dup3\n      add\n      0x01\n      swap1\n      sload\n      swap1\n      0x0100\n      exp\n      swap1\n      div\n      0xff\n      and\n      iszero\n      iszero\n      iszero\n      iszero\n      dup2\n      mstore\n      0x20\n      add\n      0x08\n      dup3\n      add\n      0x02\n      swap1\n      sload\n      swap1\n      0x0100\n      exp\n      swap1\n      div\n      0xff\n      and\n      iszero\n      iszero\n      iszero\n      iszero\n      dup2\n      mstore\n      pop\n      pop\n      swap1\n      pop\n        /* \"wwcc-contracts/contracts/wwccPool.sol\":3017:3034  string  memory si */\n      0x00\n        /* \"wwcc-contracts/contracts/wwccPool.sol\":3037:3102  strConcat(uint256ToString(homeScore),uint256ToString(visitScore)) */\n      tag_220\n        /* \"wwcc-contracts/contracts/wwccPool.sol\":3047:3073  uint256ToString(homeScore) */\n      tag_221\n        /* \"wwcc-contracts/contracts/wwccPool.sol\":3063:3072  homeScore */\n      dup8\n        /* \"wwcc-contracts/contracts/wwccPool.sol\":3047:3062  uint256ToString */\n      tag_222\n        /* \"wwcc-contracts/contracts/wwccPool.sol\":3047:3073  uint256ToString(homeScore) */\n      jump\t// in\n    tag_221:\n        /* \"wwcc-contracts/contracts/wwccPool.sol\":3074:3101  uint256ToString(visitScore) */\n      tag_223\n        /* \"wwcc-contracts/contracts/wwccPool.sol\":3090:3100  visitScore */\n      dup8\n        /* \"wwcc-contracts/contracts/wwccPool.sol\":3074:3089  uint256ToString */\n      tag_222\n        /* \"wwcc-contracts/contracts/wwccPool.sol\":3074:3101  uint256ToString(visitScore) */\n      jump\t// in\n    tag_223:\n        /* \"wwcc-contracts/contracts/wwccPool.sol\":3037:3046  strConcat */\n      tag_149\n        /* \"wwcc-contracts/contracts/wwccPool.sol\":3037:3102  strConcat(uint256ToString(homeScore),uint256ToString(visitScore)) */\n      jump\t// in\n    tag_220:\n        /* \"wwcc-contracts/contracts/wwccPool.sol\":3017:3102  string  memory si = strConcat(uint256ToString(homeScore),uint256ToString(visitScore)) */\n      swap1\n      pop\n        /* \"wwcc-contracts/contracts/wwccPool.sol\":3115:3140  string  memory pickingKey */\n      0x00\n        /* \"wwcc-contracts/contracts/wwccPool.sol\":3143:3181  strConcat(bytes32ToString(poolKey),si) */\n      tag_224\n        /* \"wwcc-contracts/contracts/wwccPool.sol\":3153:3177  bytes32ToString(poolKey) */\n      tag_225\n        /* \"wwcc-contracts/contracts/wwccPool.sol\":3169:3176  poolKey */\n      dup10\n        /* \"wwcc-contracts/contracts/wwccPool.sol\":3153:3168  bytes32ToString */\n      tag_226\n        /* \"wwcc-contracts/contracts/wwccPool.sol\":3153:3177  bytes32ToString(poolKey) */\n      jump\t// in\n    tag_225:\n        /* \"wwcc-contracts/contracts/wwccPool.sol\":3178:3180  si */\n      dup4\n        /* \"wwcc-contracts/contracts/wwccPool.sol\":3143:3152  strConcat */\n      tag_149\n        /* \"wwcc-contracts/contracts/wwccPool.sol\":3143:3181  strConcat(bytes32ToString(poolKey),si) */\n      jump\t// in\n    tag_224:\n        /* \"wwcc-contracts/contracts/wwccPool.sol\":3115:3181  string  memory pickingKey = strConcat(bytes32ToString(poolKey),si) */\n      swap1\n      pop\n        /* \"wwcc-contracts/contracts/wwccPool.sol\":3194:3217  JoinerPicking memory jp */\n      0x00\n        /* \"wwcc-contracts/contracts/wwccPool.sol\":3220:3291  JoinerPicking(weight,kind,homeScore,visitScore,joiner,pickingKey,false) */\n      mload(0x40)\n      dup1\n      0xe0\n      add\n      0x40\n      mstore\n      dup1\n        /* \"wwcc-contracts/contracts/wwccPool.sol\":3234:3240  weight */\n      dup12\n        /* \"wwcc-contracts/contracts/wwccPool.sol\":3220:3291  JoinerPicking(weight,kind,homeScore,visitScore,joiner,pickingKey,false) */\n      dup2\n      mstore\n      0x20\n      add\n        /* \"wwcc-contracts/contracts/wwccPool.sol\":3241:3245  kind */\n      dup8\n        /* \"wwcc-contracts/contracts/wwccPool.sol\":3220:3291  JoinerPicking(weight,kind,homeScore,visitScore,joiner,pickingKey,false) */\n      dup2\n      mstore\n      0x20\n      add\n        /* \"wwcc-contracts/contracts/wwccPool.sol\":3246:3255  homeScore */\n      dup10\n        /* \"wwcc-contracts/contracts/wwccPool.sol\":3220:3291  JoinerPicking(weight,kind,homeScore,visitScore,joiner,pickingKey,false) */\n      dup2\n      mstore\n      0x20\n      add\n        /* \"wwcc-contracts/contracts/wwccPool.sol\":3256:3266  visitScore */\n      dup9\n        /* \"wwcc-contracts/contracts/wwccPool.sol\":3220:3291  JoinerPicking(weight,kind,homeScore,visitScore,joiner,pickingKey,false) */\n      dup2\n      mstore\n      0x20\n      add\n        /* \"wwcc-contracts/contracts/wwccPool.sol\":3267:3273  joiner */\n      dup13\n        /* \"wwcc-contracts/contracts/wwccPool.sol\":3220:3291  JoinerPicking(weight,kind,homeScore,visitScore,joiner,pickingKey,false) */\n      0xffffffffffffffffffffffffffffffffffffffff\n      and\n      dup2\n      mstore\n      0x20\n      add\n        /* \"wwcc-contracts/contracts/wwccPool.sol\":3274:3284  pickingKey */\n      dup4\n        /* \"wwcc-contracts/contracts/wwccPool.sol\":3220:3291  JoinerPicking(weight,kind,homeScore,visitScore,joiner,pickingKey,false) */\n      dup2\n      mstore\n      0x20\n      add\n        /* \"wwcc-contracts/contracts/wwccPool.sol\":3285:3290  false */\n      0x00\n        /* \"wwcc-contracts/contracts/wwccPool.sol\":3220:3291  JoinerPicking(weight,kind,homeScore,visitScore,joiner,pickingKey,false) */\n      iszero\n      iszero\n      dup2\n      mstore\n      pop\n        /* \"wwcc-contracts/contracts/wwccPool.sol\":3194:3291  JoinerPicking memory jp = JoinerPicking(weight,kind,homeScore,visitScore,joiner,pickingKey,false) */\n      swap1\n      pop\n        /* \"wwcc-contracts/contracts/wwccPool.sol\":3340:3347  poolKey */\n      dup9\n        /* \"wwcc-contracts/contracts/wwccPool.sol\":3304:3320  allScorePoolInfo */\n      0x02\n        /* \"wwcc-contracts/contracts/wwccPool.sol\":3304:3329  allScorePoolInfo[poolKey] */\n      0x00\n        /* \"wwcc-contracts/contracts/wwccPool.sol\":3321:3328  poolKey */\n      dup12\n        /* \"wwcc-contracts/contracts/wwccPool.sol\":3304:3329  allScorePoolInfo[poolKey] */\n      dup2\n      mstore\n      0x20\n      add\n      swap1\n      dup2\n      mstore\n      0x20\n      add\n      0x00\n      keccak256\n        /* \"wwcc-contracts/contracts/wwccPool.sol\":3304:3337  allScorePoolInfo[poolKey].poolKey */\n      0x01\n      add\n        /* \"wwcc-contracts/contracts/wwccPool.sol\":3304:3347  allScorePoolInfo[poolKey].poolKey = poolKey */\n      dup2\n      swap1\n      sstore\n      pop\n        /* \"wwcc-contracts/contracts/wwccPool.sol\":3360:3376  allScorePoolInfo */\n      0x02\n        /* \"wwcc-contracts/contracts/wwccPool.sol\":3360:3385  allScorePoolInfo[poolKey] */\n      0x00\n        /* \"wwcc-contracts/contracts/wwccPool.sol\":3377:3384  poolKey */\n      dup11\n        /* \"wwcc-contracts/contracts/wwccPool.sol\":3360:3385  allScorePoolInfo[poolKey] */\n      dup2\n      mstore\n      0x20\n      add\n      swap1\n      dup2\n      mstore\n      0x20\n      add\n      0x00\n      keccak256\n        /* \"wwcc-contracts/contracts/wwccPool.sol\":3360:3397  allScorePoolInfo[poolKey].separateBet */\n      0x00\n      add\n        /* \"wwcc-contracts/contracts/wwccPool.sol\":3403:3405  jp */\n      dup2\n        /* \"wwcc-contracts/contracts/wwccPool.sol\":3360:3406  allScorePoolInfo[poolKey].separateBet.push(jp) */\n      swap1\n      dup1\n      0x01\n      dup2\n      sload\n      add\n      dup1\n      dup3\n      sstore\n      dup1\n      swap2\n      pop\n      pop\n      0x01\n      swap1\n      sub\n      swap1\n      0x00\n      mstore\n      keccak256(0x00, 0x20)\n      swap1\n      0x07\n      mul\n      add\n      0x00\n      swap1\n      swap2\n      swap1\n      swap2\n      swap1\n      swap2\n      pop\n      0x00\n      dup3\n      add\n      mload\n      dup2\n      0x00\n      add\n      sstore\n      0x20\n      dup3\n      add\n      mload\n      dup2\n      0x01\n      add\n      sstore\n      0x40\n      dup3\n      add\n      mload\n      dup2\n      0x02\n      add\n      sstore\n      0x60\n      dup3\n      add\n      mload\n      dup2\n      0x03\n      add\n      sstore\n      0x80\n      dup3\n      add\n      mload\n      dup2\n      0x04\n      add\n      exp(0x0100, 0x00)\n      dup2\n      sload\n      dup2\n      0xffffffffffffffffffffffffffffffffffffffff\n      mul\n      not\n      and\n      swap1\n      dup4\n      0xffffffffffffffffffffffffffffffffffffffff\n      and\n      mul\n      or\n      swap1\n      sstore\n      pop\n      0xa0\n      dup3\n      add\n      mload\n      dup2\n      0x05\n      add\n      swap1\n      dup1\n      mload\n      swap1\n      0x20\n      add\n      swap1\n      tag_228\n      swap3\n      swap2\n      swap1\n      tag_159\n      jump\t// in\n    tag_228:\n      pop\n      0xc0\n      dup3\n      add\n      mload\n      dup2\n      0x06\n      add\n      exp(0x0100, 0x00)\n      dup2\n      sload\n      dup2\n      0xff\n      mul\n      not\n      and\n      swap1\n      dup4\n      iszero\n      iszero\n      mul\n      or\n      swap1\n      sstore\n      pop\n      pop\n      pop\n        /* \"wwcc-contracts/contracts/wwccPool.sol\":3454:3460  joiner */\n      dup11\n        /* \"wwcc-contracts/contracts/wwccPool.sol\":3420:3436  joinerAllPicking */\n      0x04\n        /* \"wwcc-contracts/contracts/wwccPool.sol\":3420:3444  joinerAllPicking[joiner] */\n      0x00\n        /* \"wwcc-contracts/contracts/wwccPool.sol\":3437:3443  joiner */\n      dup14\n        /* \"wwcc-contracts/contracts/wwccPool.sol\":3420:3444  joinerAllPicking[joiner] */\n      0xffffffffffffffffffffffffffffffffffffffff\n      and\n      0xffffffffffffffffffffffffffffffffffffffff\n      and\n      dup2\n      mstore\n      0x20\n      add\n      swap1\n      dup2\n      mstore\n      0x20\n      add\n      0x00\n      keccak256\n        /* \"wwcc-contracts/contracts/wwccPool.sol\":3420:3451  joinerAllPicking[joiner].joiner */\n      0x01\n      add\n      0x00\n        /* \"wwcc-contracts/contracts/wwccPool.sol\":3420:3460  joinerAllPicking[joiner].joiner = joiner */\n      0x0100\n      exp\n      dup2\n      sload\n      dup2\n      0xffffffffffffffffffffffffffffffffffffffff\n      mul\n      not\n      and\n      swap1\n      dup4\n      0xffffffffffffffffffffffffffffffffffffffff\n      and\n      mul\n      or\n      swap1\n      sstore\n      pop\n        /* \"wwcc-contracts/contracts/wwccPool.sol\":3473:3489  allScorePoolInfo */\n      0x02\n        /* \"wwcc-contracts/contracts/wwccPool.sol\":3473:3498  allScorePoolInfo[poolKey] */\n      0x00\n        /* \"wwcc-contracts/contracts/wwccPool.sol\":3490:3497  poolKey */\n      dup11\n        /* \"wwcc-contracts/contracts/wwccPool.sol\":3473:3498  allScorePoolInfo[poolKey] */\n      dup2\n      mstore\n      0x20\n      add\n      swap1\n      dup2\n      mstore\n      0x20\n      add\n      0x00\n      keccak256\n        /* \"wwcc-contracts/contracts/wwccPool.sol\":3473:3510  allScorePoolInfo[poolKey].separateBet */\n      0x00\n      add\n        /* \"wwcc-contracts/contracts/wwccPool.sol\":3516:3518  jp */\n      dup2\n        /* \"wwcc-contracts/contracts/wwccPool.sol\":3473:3519  allScorePoolInfo[poolKey].separateBet.push(jp) */\n      swap1\n      dup1\n      0x01\n      dup2\n      sload\n      add\n      dup1\n      dup3\n      sstore\n      dup1\n      swap2\n      pop\n      pop\n      0x01\n      swap1\n      sub\n      swap1\n      0x00\n      mstore\n      keccak256(0x00, 0x20)\n      swap1\n      0x07\n      mul\n      add\n      0x00\n      swap1\n      swap2\n      swap1\n      swap2\n      swap1\n      swap2\n      pop\n      0x00\n      dup3\n      add\n      mload\n      dup2\n      0x00\n      add\n      sstore\n      0x20\n      dup3\n      add\n      mload\n      dup2\n      0x01\n      add\n      sstore\n      0x40\n      dup3\n      add\n      mload\n      dup2\n      0x02\n      add\n      sstore\n      0x60\n      dup3\n      add\n      mload\n      dup2\n      0x03\n      add\n      sstore\n      0x80\n      dup3\n      add\n      mload\n      dup2\n      0x04\n      add\n      exp(0x0100, 0x00)\n      dup2\n      sload\n      dup2\n      0xffffffffffffffffffffffffffffffffffffffff\n      mul\n      not\n      and\n      swap1\n      dup4\n      0xffffffffffffffffffffffffffffffffffffffff\n      and\n      mul\n      or\n      swap1\n      sstore\n      pop\n      0xa0\n      dup3\n      add\n      mload\n      dup2\n      0x05\n      add\n      swap1\n      dup1\n      mload\n      swap1\n      0x20\n      add\n      swap1\n      tag_230\n      swap3\n      swap2\n      swap1\n      tag_159\n      jump\t// in\n    tag_230:\n      pop\n      0xc0\n      dup3\n      add\n      mload\n      dup2\n      0x06\n      add\n      exp(0x0100, 0x00)\n      dup2\n      sload\n      dup2\n      0xff\n      mul\n      not\n      and\n      swap1\n      dup4\n      iszero\n      iszero\n      mul\n      or\n      swap1\n      sstore\n      pop\n      pop\n      pop\n        /* \"wwcc-contracts/contracts/wwccPool.sol\":3546:3547  2 */\n      0x02\n        /* \"wwcc-contracts/contracts/wwccPool.sol\":3538:3542  kind */\n      dup7\n        /* \"wwcc-contracts/contracts/wwccPool.sol\":3538:3547  kind == 2 */\n      eq\n        /* \"wwcc-contracts/contracts/wwccPool.sol\":3534:3866  if (kind == 2){... */\n      iszero\n      tag_231\n      jumpi\n        /* \"wwcc-contracts/contracts/wwccPool.sol\":3578:3584  weight */\n      dup10\n        /* \"wwcc-contracts/contracts/wwccPool.sol\":3564:3568  pool */\n      dup5\n        /* \"wwcc-contracts/contracts/wwccPool.sol\":3564:3574  pool.sPool */\n      0xc0\n      add\n        /* \"wwcc-contracts/contracts/wwccPool.sol\":3564:3584  pool.sPool += weight */\n      dup2\n      dup2\n      mload\n      tag_232\n      swap2\n      swap1\n      tag_17\n      jump\t// in\n    tag_232:\n      swap2\n      pop\n      dup2\n      dup2\n      mstore\n      pop\n      pop\n        /* \"wwcc-contracts/contracts/wwccPool.sol\":3631:3637  weight */\n      dup10\n        /* \"wwcc-contracts/contracts/wwccPool.sol\":3600:3615  singleScorePool */\n      0x03\n        /* \"wwcc-contracts/contracts/wwccPool.sol\":3616:3626  pickingKey */\n      dup4\n        /* \"wwcc-contracts/contracts/wwccPool.sol\":3600:3627  singleScorePool[pickingKey] */\n      mload(0x40)\n      tag_233\n      swap2\n      swap1\n      tag_152\n      jump\t// in\n    tag_233:\n      swap1\n      dup2\n      mstore\n      0x20\n      add\n      mload(0x40)\n      dup1\n      swap2\n      sub\n      swap1\n      keccak256\n      0x00\n        /* \"wwcc-contracts/contracts/wwccPool.sol\":3600:3637  singleScorePool[pickingKey] += weight */\n      dup3\n      dup3\n      sload\n      tag_234\n      swap2\n      swap1\n      tag_17\n      jump\t// in\n    tag_234:\n      swap3\n      pop\n      pop\n      dup2\n      swap1\n      sstore\n      pop\n        /* \"wwcc-contracts/contracts/wwccPool.sol\":3534:3866  if (kind == 2){... */\n      jump(tag_235)\n    tag_231:\n        /* \"wwcc-contracts/contracts/wwccPool.sol\":3681:3682  3 */\n      0x03\n        /* \"wwcc-contracts/contracts/wwccPool.sol\":3673:3677  kind */\n      dup7\n        /* \"wwcc-contracts/contracts/wwccPool.sol\":3673:3682  kind == 3 */\n      eq\n        /* \"wwcc-contracts/contracts/wwccPool.sol\":3670:3866  if(kind == 3){... */\n      iszero\n      tag_236\n      jumpi\n        /* \"wwcc-contracts/contracts/wwccPool.sol\":3715:3721  weight */\n      dup10\n        /* \"wwcc-contracts/contracts/wwccPool.sol\":3701:3705  pool */\n      dup5\n        /* \"wwcc-contracts/contracts/wwccPool.sol\":3701:3711  pool.wPool */\n      0x60\n      add\n        /* \"wwcc-contracts/contracts/wwccPool.sol\":3701:3721  pool.wPool += weight */\n      dup2\n      dup2\n      mload\n      tag_237\n      swap2\n      swap1\n      tag_17\n      jump\t// in\n    tag_237:\n      swap2\n      pop\n      dup2\n      dup2\n      mstore\n      pop\n      pop\n        /* \"wwcc-contracts/contracts/wwccPool.sol\":3670:3866  if(kind == 3){... */\n      jump(tag_238)\n    tag_236:\n        /* \"wwcc-contracts/contracts/wwccPool.sol\":3753:3754  1 */\n      0x01\n        /* \"wwcc-contracts/contracts/wwccPool.sol\":3745:3749  kind */\n      dup7\n        /* \"wwcc-contracts/contracts/wwccPool.sol\":3745:3754  kind == 1 */\n      eq\n        /* \"wwcc-contracts/contracts/wwccPool.sol\":3741:3866  if (kind == 1){... */\n      iszero\n      tag_239\n      jumpi\n        /* \"wwcc-contracts/contracts/wwccPool.sol\":3787:3793  weight */\n      dup10\n        /* \"wwcc-contracts/contracts/wwccPool.sol\":3773:3777  pool */\n      dup5\n        /* \"wwcc-contracts/contracts/wwccPool.sol\":3773:3783  pool.dPool */\n      0x80\n      add\n        /* \"wwcc-contracts/contracts/wwccPool.sol\":3773:3793  pool.dPool += weight */\n      dup2\n      dup2\n      mload\n      tag_240\n      swap2\n      swap1\n      tag_17\n      jump\t// in\n    tag_240:\n      swap2\n      pop\n      dup2\n      dup2\n      mstore\n      pop\n      pop\n        /* \"wwcc-contracts/contracts/wwccPool.sol\":3741:3866  if (kind == 1){... */\n      jump(tag_241)\n    tag_239:\n        /* \"wwcc-contracts/contracts/wwccPool.sol\":3845:3851  weight */\n      dup10\n        /* \"wwcc-contracts/contracts/wwccPool.sol\":3831:3835  pool */\n      dup5\n        /* \"wwcc-contracts/contracts/wwccPool.sol\":3831:3841  pool.lPool */\n      0xa0\n      add\n        /* \"wwcc-contracts/contracts/wwccPool.sol\":3831:3851  pool.lPool += weight */\n      dup2\n      dup2\n      mload\n      tag_242\n      swap2\n      swap1\n      tag_17\n      jump\t// in\n    tag_242:\n      swap2\n      pop\n      dup2\n      dup2\n      mstore\n      pop\n      pop\n        /* \"wwcc-contracts/contracts/wwccPool.sol\":3741:3866  if (kind == 1){... */\n    tag_241:\n        /* \"wwcc-contracts/contracts/wwccPool.sol\":3670:3866  if(kind == 3){... */\n    tag_238:\n        /* \"wwcc-contracts/contracts/wwccPool.sol\":3534:3866  if (kind == 2){... */\n    tag_235:\n        /* \"wwcc-contracts/contracts/wwccPool.sol\":3901:3907  weight */\n      dup10\n        /* \"wwcc-contracts/contracts/wwccPool.sol\":3879:3889  voteAmount */\n      0x05\n        /* \"wwcc-contracts/contracts/wwccPool.sol\":3879:3897  voteAmount[joiner] */\n      0x00\n        /* \"wwcc-contracts/contracts/wwccPool.sol\":3890:3896  joiner */\n      dup14\n        /* \"wwcc-contracts/contracts/wwccPool.sol\":3879:3897  voteAmount[joiner] */\n      0xffffffffffffffffffffffffffffffffffffffff\n      and\n      0xffffffffffffffffffffffffffffffffffffffff\n      and\n      dup2\n      mstore\n      0x20\n      add\n      swap1\n      dup2\n      mstore\n      0x20\n      add\n      0x00\n      keccak256\n      0x00\n        /* \"wwcc-contracts/contracts/wwccPool.sol\":3879:3907  voteAmount[joiner] -= weight */\n      dup3\n      dup3\n      sload\n      tag_243\n      swap2\n      swap1\n      tag_143\n      jump\t// in\n    tag_243:\n      swap3\n      pop\n      pop\n      dup2\n      swap1\n      sstore\n      pop\n        /* \"wwcc-contracts/contracts/wwccPool.sol\":2851:3929  {... */\n      pop\n      pop\n      pop\n      pop\n        /* \"wwcc-contracts/contracts/wwccPool.sol\":3944:3948  true */\n      0x01\n        /* \"wwcc-contracts/contracts/wwccPool.sol\":3937:3948  return true */\n      swap1\n      pop\n        /* \"wwcc-contracts/contracts/wwccPool.sol\":2617:3955  function Picking(address joiner,uint256 weight,bytes32 poolKey,uint256 homeScore,uint256 visitScore,uint256 kind) external onlyManager returns(bool){... */\n      swap7\n      swap6\n      pop\n      pop\n      pop\n      pop\n      pop\n      pop\n      jump\t// out\n        /* \"wwcc-contracts/contracts/wwccPool.sol\":5994:9451  function Award(bytes32 poolKey,uint256 homeScore,uint256 visitScore,uint256 result)  external onlyManager  payable returns(bool){... */\n    tag_60:\n        /* \"wwcc-contracts/contracts/wwccPool.sol\":6117:6121  bool */\n      0x00\n        /* \"wwcc-contracts/contracts/wwccPool.sol\":11873:11878  owner */\n      dup1\n      0x00\n      swap1\n      sload\n      swap1\n      0x0100\n      exp\n      swap1\n      div\n      0xffffffffffffffffffffffffffffffffffffffff\n      and\n        /* \"wwcc-contracts/contracts/wwccPool.sol\":11859:11878  msg.sender == owner */\n      0xffffffffffffffffffffffffffffffffffffffff\n      and\n        /* \"wwcc-contracts/contracts/wwccPool.sol\":11859:11869  msg.sender */\n      caller\n        /* \"wwcc-contracts/contracts/wwccPool.sol\":11859:11878  msg.sender == owner */\n      0xffffffffffffffffffffffffffffffffffffffff\n      and\n      eq\n        /* \"wwcc-contracts/contracts/wwccPool.sol\":11838:11929  require(... */\n      tag_245\n      jumpi\n      mload(0x40)\n      0x08c379a000000000000000000000000000000000000000000000000000000000\n      dup2\n      mstore\n      0x04\n      add\n      tag_246\n      swap1\n      tag_76\n      jump\t// in\n    tag_246:\n      mload(0x40)\n      dup1\n      swap2\n      sub\n      swap1\n      revert\n    tag_245:\n        /* \"wwcc-contracts/contracts/wwccPool.sol\":6136:6153  contains(poolKey) */\n      tag_248\n        /* \"wwcc-contracts/contracts/wwccPool.sol\":6145:6152  poolKey */\n      dup6\n        /* \"wwcc-contracts/contracts/wwccPool.sol\":6136:6144  contains */\n      tag_79\n        /* \"wwcc-contracts/contracts/wwccPool.sol\":6136:6153  contains(poolKey) */\n      jump\t// in\n    tag_248:\n        /* \"wwcc-contracts/contracts/wwccPool.sol\":6132:9425  if(!contains(poolKey)) { ... */\n      tag_249\n      jumpi\n        /* \"wwcc-contracts/contracts/wwccPool.sol\":6170:6194  revert(\"pool not exist\") */\n      mload(0x40)\n      0x08c379a000000000000000000000000000000000000000000000000000000000\n      dup2\n      mstore\n      0x04\n      add\n      tag_250\n      swap1\n      tag_82\n      jump\t// in\n    tag_250:\n      mload(0x40)\n      dup1\n      swap2\n      sub\n      swap1\n      revert\n        /* \"wwcc-contracts/contracts/wwccPool.sol\":6132:9425  if(!contains(poolKey)) { ... */\n    tag_249:\n        /* \"wwcc-contracts/contracts/wwccPool.sol\":6221:6239  WcPool memory pool */\n      0x00\n        /* \"wwcc-contracts/contracts/wwccPool.sol\":6242:6249  WcPools */\n      0x06\n        /* \"wwcc-contracts/contracts/wwccPool.sol\":6242:6258  WcPools[poolKey] */\n      0x00\n        /* \"wwcc-contracts/contracts/wwccPool.sol\":6250:6257  poolKey */\n      dup8\n        /* \"wwcc-contracts/contracts/wwccPool.sol\":6242:6258  WcPools[poolKey] */\n      dup2\n      mstore\n      0x20\n      add\n      swap1\n      dup2\n      mstore\n      0x20\n      add\n      0x00\n      keccak256\n        /* \"wwcc-contracts/contracts/wwccPool.sol\":6221:6258  WcPool memory pool = WcPools[poolKey] */\n      mload(0x40)\n      dup1\n      0x0160\n      add\n      0x40\n      mstore\n      swap1\n      dup2\n      0x00\n      dup3\n      add\n      dup1\n      sload\n      tag_252\n      swap1\n      tag_85\n      jump\t// in\n    tag_252:\n      dup1\n      0x1f\n      add\n      0x20\n      dup1\n      swap2\n      div\n      mul\n      0x20\n      add\n      mload(0x40)\n      swap1\n      dup2\n      add\n      0x40\n      mstore\n      dup1\n      swap3\n      swap2\n      swap1\n      dup2\n      dup2\n      mstore\n      0x20\n      add\n      dup3\n      dup1\n      sload\n      tag_253\n      swap1\n      tag_85\n      jump\t// in\n    tag_253:\n      dup1\n      iszero\n      tag_254\n      jumpi\n      dup1\n      0x1f\n      lt\n      tag_255\n      jumpi\n      0x0100\n      dup1\n      dup4\n      sload\n      div\n      mul\n      dup4\n      mstore\n      swap2\n      0x20\n      add\n      swap2\n      jump(tag_254)\n    tag_255:\n      dup3\n      add\n      swap2\n      swap1\n      0x00\n      mstore\n      keccak256(0x00, 0x20)\n      swap1\n    tag_256:\n      dup2\n      sload\n      dup2\n      mstore\n      swap1\n      0x01\n      add\n      swap1\n      0x20\n      add\n      dup1\n      dup4\n      gt\n      tag_256\n      jumpi\n      dup3\n      swap1\n      sub\n      0x1f\n      and\n      dup3\n      add\n      swap2\n    tag_254:\n      pop\n      pop\n      pop\n      pop\n      pop\n      dup2\n      mstore\n      0x20\n      add\n      0x01\n      dup3\n      add\n      dup1\n      sload\n      tag_257\n      swap1\n      tag_85\n      jump\t// in\n    tag_257:\n      dup1\n      0x1f\n      add\n      0x20\n      dup1\n      swap2\n      div\n      mul\n      0x20\n      add\n      mload(0x40)\n      swap1\n      dup2\n      add\n      0x40\n      mstore\n      dup1\n      swap3\n      swap2\n      swap1\n      dup2\n      dup2\n      mstore\n      0x20\n      add\n      dup3\n      dup1\n      sload\n      tag_258\n      swap1\n      tag_85\n      jump\t// in\n    tag_258:\n      dup1\n      iszero\n      tag_259\n      jumpi\n      dup1\n      0x1f\n      lt\n      tag_260\n      jumpi\n      0x0100\n      dup1\n      dup4\n      sload\n      div\n      mul\n      dup4\n      mstore\n      swap2\n      0x20\n      add\n      swap2\n      jump(tag_259)\n    tag_260:\n      dup3\n      add\n      swap2\n      swap1\n      0x00\n      mstore\n      keccak256(0x00, 0x20)\n      swap1\n    tag_261:\n      dup2\n      sload\n      dup2\n      mstore\n      swap1\n      0x01\n      add\n      swap1\n      0x20\n      add\n      dup1\n      dup4\n      gt\n      tag_261\n      jumpi\n      dup3\n      swap1\n      sub\n      0x1f\n      and\n      dup3\n      add\n      swap2\n    tag_259:\n      pop\n      pop\n      pop\n      pop\n      pop\n      dup2\n      mstore\n      0x20\n      add\n      0x02\n      dup3\n      add\n      dup1\n      sload\n      tag_262\n      swap1\n      tag_85\n      jump\t// in\n    tag_262:\n      dup1\n      0x1f\n      add\n      0x20\n      dup1\n      swap2\n      div\n      mul\n      0x20\n      add\n      mload(0x40)\n      swap1\n      dup2\n      add\n      0x40\n      mstore\n      dup1\n      swap3\n      swap2\n      swap1\n      dup2\n      dup2\n      mstore\n      0x20\n      add\n      dup3\n      dup1\n      sload\n      tag_263\n      swap1\n      tag_85\n      jump\t// in\n    tag_263:\n      dup1\n      iszero\n      tag_264\n      jumpi\n      dup1\n      0x1f\n      lt\n      tag_265\n      jumpi\n      0x0100\n      dup1\n      dup4\n      sload\n      div\n      mul\n      dup4\n      mstore\n      swap2\n      0x20\n      add\n      swap2\n      jump(tag_264)\n    tag_265:\n      dup3\n      add\n      swap2\n      swap1\n      0x00\n      mstore\n      keccak256(0x00, 0x20)\n      swap1\n    tag_266:\n      dup2\n      sload\n      dup2\n      mstore\n      swap1\n      0x01\n      add\n      swap1\n      0x20\n      add\n      dup1\n      dup4\n      gt\n      tag_266\n      jumpi\n      dup3\n      swap1\n      sub\n      0x1f\n      and\n      dup3\n      add\n      swap2\n    tag_264:\n      pop\n      pop\n      pop\n      pop\n      pop\n      dup2\n      mstore\n      0x20\n      add\n      0x03\n      dup3\n      add\n      sload\n      dup2\n      mstore\n      0x20\n      add\n      0x04\n      dup3\n      add\n      sload\n      dup2\n      mstore\n      0x20\n      add\n      0x05\n      dup3\n      add\n      sload\n      dup2\n      mstore\n      0x20\n      add\n      0x06\n      dup3\n      add\n      sload\n      dup2\n      mstore\n      0x20\n      add\n      0x07\n      dup3\n      add\n      sload\n      dup2\n      mstore\n      0x20\n      add\n      0x08\n      dup3\n      add\n      0x00\n      swap1\n      sload\n      swap1\n      0x0100\n      exp\n      swap1\n      div\n      0xff\n      and\n      iszero\n      iszero\n      iszero\n      iszero\n      dup2\n      mstore\n      0x20\n      add\n      0x08\n      dup3\n      add\n      0x01\n      swap1\n      sload\n      swap1\n      0x0100\n      exp\n      swap1\n      div\n      0xff\n      and\n      iszero\n      iszero\n      iszero\n      iszero\n      dup2\n      mstore\n      0x20\n      add\n      0x08\n      dup3\n      add\n      0x02\n      swap1\n      sload\n      swap1\n      0x0100\n      exp\n      swap1\n      div\n      0xff\n      and\n      iszero\n      iszero\n      iszero\n      iszero\n      dup2\n      mstore\n      pop\n      pop\n      swap1\n      pop\n        /* \"wwcc-contracts/contracts/wwccPool.sol\":6289:6293  true */\n      0x01\n        /* \"wwcc-contracts/contracts/wwccPool.sol\":6275:6279  pool */\n      dup2\n        /* \"wwcc-contracts/contracts/wwccPool.sol\":6275:6288  pool.finished */\n      0x0140\n      add\n        /* \"wwcc-contracts/contracts/wwccPool.sol\":6275:6293  pool.finished=true */\n      swap1\n      iszero\n      iszero\n      swap1\n      dup2\n      iszero\n      iszero\n      dup2\n      mstore\n      pop\n        /* \"wwcc-contracts/contracts/wwccPool.sol\":6271:6352  if (pool.finished=true){... */\n      iszero\n      tag_267\n      jumpi\n        /* \"wwcc-contracts/contracts/wwccPool.sol\":6311:6338  revert(\"pool has finished\") */\n      mload(0x40)\n      0x08c379a000000000000000000000000000000000000000000000000000000000\n      dup2\n      mstore\n      0x04\n      add\n      tag_268\n      swap1\n      tag_269\n      jump\t// in\n    tag_268:\n      mload(0x40)\n      dup1\n      swap2\n      sub\n      swap1\n      revert\n        /* \"wwcc-contracts/contracts/wwccPool.sol\":6271:6352  if (pool.finished=true){... */\n    tag_267:\n        /* \"wwcc-contracts/contracts/wwccPool.sol\":6364:6399  JoinerPicking[] memory separateBets */\n      0x00\n        /* \"wwcc-contracts/contracts/wwccPool.sol\":6402:6418  allScorePoolInfo */\n      0x02\n        /* \"wwcc-contracts/contracts/wwccPool.sol\":6402:6427  allScorePoolInfo[poolKey] */\n      0x00\n        /* \"wwcc-contracts/contracts/wwccPool.sol\":6419:6426  poolKey */\n      dup9\n        /* \"wwcc-contracts/contracts/wwccPool.sol\":6402:6427  allScorePoolInfo[poolKey] */\n      dup2\n      mstore\n      0x20\n      add\n      swap1\n      dup2\n      mstore\n      0x20\n      add\n      0x00\n      keccak256\n        /* \"wwcc-contracts/contracts/wwccPool.sol\":6402:6439  allScorePoolInfo[poolKey].separateBet */\n      0x00\n      add\n        /* \"wwcc-contracts/contracts/wwccPool.sol\":6364:6439  JoinerPicking[] memory separateBets = allScorePoolInfo[poolKey].separateBet */\n      dup1\n      sload\n      dup1\n      0x20\n      mul\n      0x20\n      add\n      mload(0x40)\n      swap1\n      dup2\n      add\n      0x40\n      mstore\n      dup1\n      swap3\n      swap2\n      swap1\n      dup2\n      dup2\n      mstore\n      0x20\n      add\n      0x00\n      swap1\n    tag_270:\n      dup3\n      dup3\n      lt\n      iszero\n      tag_271\n      jumpi\n      dup4\n      dup3\n      swap1\n      0x00\n      mstore\n      keccak256(0x00, 0x20)\n      swap1\n      0x07\n      mul\n      add\n      mload(0x40)\n      dup1\n      0xe0\n      add\n      0x40\n      mstore\n      swap1\n      dup2\n      0x00\n      dup3\n      add\n      sload\n      dup2\n      mstore\n      0x20\n      add\n      0x01\n      dup3\n      add\n      sload\n      dup2\n      mstore\n      0x20\n      add\n      0x02\n      dup3\n      add\n      sload\n      dup2\n      mstore\n      0x20\n      add\n      0x03\n      dup3\n      add\n      sload\n      dup2\n      mstore\n      0x20\n      add\n      0x04\n      dup3\n      add\n      0x00\n      swap1\n      sload\n      swap1\n      0x0100\n      exp\n      swap1\n      div\n      0xffffffffffffffffffffffffffffffffffffffff\n      and\n      0xffffffffffffffffffffffffffffffffffffffff\n      and\n      0xffffffffffffffffffffffffffffffffffffffff\n      and\n      dup2\n      mstore\n      0x20\n      add\n      0x05\n      dup3\n      add\n      dup1\n      sload\n      tag_273\n      swap1\n      tag_85\n      jump\t// in\n    tag_273:\n      dup1\n      0x1f\n      add\n      0x20\n      dup1\n      swap2\n      div\n      mul\n      0x20\n      add\n      mload(0x40)\n      swap1\n      dup2\n      add\n      0x40\n      mstore\n      dup1\n      swap3\n      swap2\n      swap1\n      dup2\n      dup2\n      mstore\n      0x20\n      add\n      dup3\n      dup1\n      sload\n      tag_274\n      swap1\n      tag_85\n      jump\t// in\n    tag_274:\n      dup1\n      iszero\n      tag_275\n      jumpi\n      dup1\n      0x1f\n      lt\n      tag_276\n      jumpi\n      0x0100\n      dup1\n      dup4\n      sload\n      div\n      mul\n      dup4\n      mstore\n      swap2\n      0x20\n      add\n      swap2\n      jump(tag_275)\n    tag_276:\n      dup3\n      add\n      swap2\n      swap1\n      0x00\n      mstore\n      keccak256(0x00, 0x20)\n      swap1\n    tag_277:\n      dup2\n      sload\n      dup2\n      mstore\n      swap1\n      0x01\n      add\n      swap1\n      0x20\n      add\n      dup1\n      dup4\n      gt\n      tag_277\n      jumpi\n      dup3\n      swap1\n      sub\n      0x1f\n      and\n      dup3\n      add\n      swap2\n    tag_275:\n      pop\n      pop\n      pop\n      pop\n      pop\n      dup2\n      mstore\n      0x20\n      add\n      0x06\n      dup3\n      add\n      0x00\n      swap1\n      sload\n      swap1\n      0x0100\n      exp\n      swap1\n      div\n      0xff\n      and\n      iszero\n      iszero\n      iszero\n      iszero\n      dup2\n      mstore\n      pop\n      pop\n      dup2\n      mstore\n      0x20\n      add\n      swap1\n      0x01\n      add\n      swap1\n      jump(tag_270)\n    tag_271:\n      pop\n      pop\n      pop\n      pop\n      swap1\n      pop\n        /* \"wwcc-contracts/contracts/wwccPool.sol\":6452:6475  uint256 allRewardAmount */\n      0x00\n        /* \"wwcc-contracts/contracts/wwccPool.sol\":6509:6584  (pool.sPool + pool.wPool+pool.lPool+pool.dPool + pool.basal.div(2)).div(20) */\n      tag_278\n        /* \"wwcc-contracts/contracts/wwccPool.sol\":6581:6583  20 */\n      0x14\n        /* \"wwcc-contracts/contracts/wwccPool.sol\":6558:6575  pool.basal.div(2) */\n      tag_279\n        /* \"wwcc-contracts/contracts/wwccPool.sol\":6573:6574  2 */\n      0x02\n        /* \"wwcc-contracts/contracts/wwccPool.sol\":6558:6562  pool */\n      dup7\n        /* \"wwcc-contracts/contracts/wwccPool.sol\":6558:6568  pool.basal */\n      0xe0\n      add\n      mload\n        /* \"wwcc-contracts/contracts/wwccPool.sol\":6558:6572  pool.basal.div */\n      tag_105\n      swap1\n        /* \"wwcc-contracts/contracts/wwccPool.sol\":6558:6575  pool.basal.div(2) */\n      swap2\n      swap1\n      0xffffffff\n      and\n      jump\t// in\n    tag_279:\n        /* \"wwcc-contracts/contracts/wwccPool.sol\":6545:6549  pool */\n      dup6\n        /* \"wwcc-contracts/contracts/wwccPool.sol\":6545:6555  pool.dPool */\n      0x80\n      add\n      mload\n        /* \"wwcc-contracts/contracts/wwccPool.sol\":6534:6538  pool */\n      dup7\n        /* \"wwcc-contracts/contracts/wwccPool.sol\":6534:6544  pool.lPool */\n      0xa0\n      add\n      mload\n        /* \"wwcc-contracts/contracts/wwccPool.sol\":6523:6527  pool */\n      dup8\n        /* \"wwcc-contracts/contracts/wwccPool.sol\":6523:6533  pool.wPool */\n      0x60\n      add\n      mload\n        /* \"wwcc-contracts/contracts/wwccPool.sol\":6510:6514  pool */\n      dup9\n        /* \"wwcc-contracts/contracts/wwccPool.sol\":6510:6520  pool.sPool */\n      0xc0\n      add\n      mload\n        /* \"wwcc-contracts/contracts/wwccPool.sol\":6510:6533  pool.sPool + pool.wPool */\n      tag_280\n      swap2\n      swap1\n      tag_17\n      jump\t// in\n    tag_280:\n        /* \"wwcc-contracts/contracts/wwccPool.sol\":6510:6544  pool.sPool + pool.wPool+pool.lPool */\n      tag_281\n      swap2\n      swap1\n      tag_17\n      jump\t// in\n    tag_281:\n        /* \"wwcc-contracts/contracts/wwccPool.sol\":6510:6555  pool.sPool + pool.wPool+pool.lPool+pool.dPool */\n      tag_282\n      swap2\n      swap1\n      tag_17\n      jump\t// in\n    tag_282:\n        /* \"wwcc-contracts/contracts/wwccPool.sol\":6510:6575  pool.sPool + pool.wPool+pool.lPool+pool.dPool + pool.basal.div(2) */\n      tag_283\n      swap2\n      swap1\n      tag_17\n      jump\t// in\n    tag_283:\n        /* \"wwcc-contracts/contracts/wwccPool.sol\":6509:6580  (pool.sPool + pool.wPool+pool.lPool+pool.dPool + pool.basal.div(2)).div */\n      tag_105\n      swap1\n        /* \"wwcc-contracts/contracts/wwccPool.sol\":6509:6584  (pool.sPool + pool.wPool+pool.lPool+pool.dPool + pool.basal.div(2)).div(20) */\n      swap2\n      swap1\n      0xffffffff\n      and\n      jump\t// in\n    tag_278:\n        /* \"wwcc-contracts/contracts/wwccPool.sol\":6492:6505  nextBasalLast */\n      0x07\n      0x00\n        /* \"wwcc-contracts/contracts/wwccPool.sol\":6492:6584  nextBasalLast += (pool.sPool + pool.wPool+pool.lPool+pool.dPool + pool.basal.div(2)).div(20) */\n      dup3\n      dup3\n      sload\n      tag_284\n      swap2\n      swap1\n      tag_17\n      jump\t// in\n    tag_284:\n      swap3\n      pop\n      pop\n      dup2\n      swap1\n      sstore\n      pop\n        /* \"wwcc-contracts/contracts/wwccPool.sol\":6758:6764  uint j */\n      0x00\n        /* \"wwcc-contracts/contracts/wwccPool.sol\":6736:9253  for (... */\n    tag_285:\n        /* \"wwcc-contracts/contracts/wwccPool.sol\":6811:6812  1 */\n      0x01\n        /* \"wwcc-contracts/contracts/wwccPool.sol\":6791:6803  separateBets */\n      dup4\n        /* \"wwcc-contracts/contracts/wwccPool.sol\":6791:6810  separateBets.length */\n      mload\n        /* \"wwcc-contracts/contracts/wwccPool.sol\":6791:6812  separateBets.length-1 */\n      tag_288\n      swap2\n      swap1\n      tag_143\n      jump\t// in\n    tag_288:\n        /* \"wwcc-contracts/contracts/wwccPool.sol\":6786:6787  j */\n      dup2\n        /* \"wwcc-contracts/contracts/wwccPool.sol\":6786:6812  j <= separateBets.length-1 */\n      gt\n        /* \"wwcc-contracts/contracts/wwccPool.sol\":6736:9253  for (... */\n      tag_286\n      jumpi\n        /* \"wwcc-contracts/contracts/wwccPool.sol\":6902:6907  false */\n      0x00\n        /* \"wwcc-contracts/contracts/wwccPool.sol\":6875:6887  separateBets */\n      dup4\n        /* \"wwcc-contracts/contracts/wwccPool.sol\":6888:6889  j */\n      dup3\n        /* \"wwcc-contracts/contracts/wwccPool.sol\":6875:6890  separateBets[j] */\n      dup2\n      mload\n      dup2\n      lt\n      tag_289\n      jumpi\n      tag_290\n      tag_291\n      jump\t// in\n    tag_290:\n    tag_289:\n      0x20\n      mul\n      0x20\n      add\n      add\n      mload\n        /* \"wwcc-contracts/contracts/wwccPool.sol\":6875:6899  separateBets[j].finished */\n      0xc0\n      add\n        /* \"wwcc-contracts/contracts/wwccPool.sol\":6875:6907  separateBets[j].finished = false */\n      swap1\n      iszero\n      iszero\n      swap1\n      dup2\n      iszero\n      iszero\n      dup2\n      mstore\n      pop\n        /* \"wwcc-contracts/contracts/wwccPool.sol\":6872:9233  if(separateBets[j].finished = false){... */\n      iszero\n      tag_292\n      jumpi\n        /* \"wwcc-contracts/contracts/wwccPool.sol\":6957:6958  2 */\n      0x02\n        /* \"wwcc-contracts/contracts/wwccPool.sol\":6935:6947  separateBets */\n      dup4\n        /* \"wwcc-contracts/contracts/wwccPool.sol\":6948:6949  j */\n      dup3\n        /* \"wwcc-contracts/contracts/wwccPool.sol\":6935:6950  separateBets[j] */\n      dup2\n      mload\n      dup2\n      lt\n      tag_293\n      jumpi\n      tag_294\n      tag_291\n      jump\t// in\n    tag_294:\n    tag_293:\n      0x20\n      mul\n      0x20\n      add\n      add\n      mload\n        /* \"wwcc-contracts/contracts/wwccPool.sol\":6935:6955  separateBets[j].kind */\n      0x20\n      add\n      mload\n        /* \"wwcc-contracts/contracts/wwccPool.sol\":6935:6958  separateBets[j].kind==2 */\n      eq\n        /* \"wwcc-contracts/contracts/wwccPool.sol\":6932:9213  if(separateBets[j].kind==2){... */\n      iszero\n      tag_295\n      jumpi\n        /* \"wwcc-contracts/contracts/wwccPool.sol\":7005:7054  (pool.sPool + pool.basal.div(2)).mul(85).div(100) */\n      tag_296\n        /* \"wwcc-contracts/contracts/wwccPool.sol\":7050:7053  100 */\n      0x64\n        /* \"wwcc-contracts/contracts/wwccPool.sol\":7005:7045  (pool.sPool + pool.basal.div(2)).mul(85) */\n      tag_297\n        /* \"wwcc-contracts/contracts/wwccPool.sol\":7042:7044  85 */\n      0x55\n        /* \"wwcc-contracts/contracts/wwccPool.sol\":7019:7036  pool.basal.div(2) */\n      tag_298\n        /* \"wwcc-contracts/contracts/wwccPool.sol\":7034:7035  2 */\n      0x02\n        /* \"wwcc-contracts/contracts/wwccPool.sol\":7019:7023  pool */\n      dup10\n        /* \"wwcc-contracts/contracts/wwccPool.sol\":7019:7029  pool.basal */\n      0xe0\n      add\n      mload\n        /* \"wwcc-contracts/contracts/wwccPool.sol\":7019:7033  pool.basal.div */\n      tag_105\n      swap1\n        /* \"wwcc-contracts/contracts/wwccPool.sol\":7019:7036  pool.basal.div(2) */\n      swap2\n      swap1\n      0xffffffff\n      and\n      jump\t// in\n    tag_298:\n        /* \"wwcc-contracts/contracts/wwccPool.sol\":7006:7010  pool */\n      dup9\n        /* \"wwcc-contracts/contracts/wwccPool.sol\":7006:7016  pool.sPool */\n      0xc0\n      add\n      mload\n        /* \"wwcc-contracts/contracts/wwccPool.sol\":7006:7036  pool.sPool + pool.basal.div(2) */\n      tag_299\n      swap2\n      swap1\n      tag_17\n      jump\t// in\n    tag_299:\n        /* \"wwcc-contracts/contracts/wwccPool.sol\":7005:7041  (pool.sPool + pool.basal.div(2)).mul */\n      tag_300\n      swap1\n        /* \"wwcc-contracts/contracts/wwccPool.sol\":7005:7045  (pool.sPool + pool.basal.div(2)).mul(85) */\n      swap2\n      swap1\n      0xffffffff\n      and\n      jump\t// in\n    tag_297:\n        /* \"wwcc-contracts/contracts/wwccPool.sol\":7005:7049  (pool.sPool + pool.basal.div(2)).mul(85).div */\n      tag_105\n      swap1\n        /* \"wwcc-contracts/contracts/wwccPool.sol\":7005:7054  (pool.sPool + pool.basal.div(2)).mul(85).div(100) */\n      swap2\n      swap1\n      0xffffffff\n      and\n      jump\t// in\n    tag_296:\n        /* \"wwcc-contracts/contracts/wwccPool.sol\":6987:7054  allRewardAmount = (pool.sPool + pool.basal.div(2)).mul(85).div(100) */\n      swap2\n      pop\n        /* \"wwcc-contracts/contracts/wwccPool.sol\":7109:7118  homeScore */\n      dup8\n        /* \"wwcc-contracts/contracts/wwccPool.sol\":7082:7094  separateBets */\n      dup4\n        /* \"wwcc-contracts/contracts/wwccPool.sol\":7095:7096  j */\n      dup3\n        /* \"wwcc-contracts/contracts/wwccPool.sol\":7082:7097  separateBets[j] */\n      dup2\n      mload\n      dup2\n      lt\n      tag_301\n      jumpi\n      tag_302\n      tag_291\n      jump\t// in\n    tag_302:\n    tag_301:\n      0x20\n      mul\n      0x20\n      add\n      add\n      mload\n        /* \"wwcc-contracts/contracts/wwccPool.sol\":7082:7107  separateBets[j].homeScore */\n      0x40\n      add\n      mload\n        /* \"wwcc-contracts/contracts/wwccPool.sol\":7082:7118  separateBets[j].homeScore==homeScore */\n      eq\n        /* \"wwcc-contracts/contracts/wwccPool.sol\":7082:7160  separateBets[j].homeScore==homeScore && separateBets[j].visitScore==visitScore */\n      dup1\n      iszero\n      tag_303\n      jumpi\n      pop\n        /* \"wwcc-contracts/contracts/wwccPool.sol\":7150:7160  visitScore */\n      dup7\n        /* \"wwcc-contracts/contracts/wwccPool.sol\":7122:7134  separateBets */\n      dup4\n        /* \"wwcc-contracts/contracts/wwccPool.sol\":7135:7136  j */\n      dup3\n        /* \"wwcc-contracts/contracts/wwccPool.sol\":7122:7137  separateBets[j] */\n      dup2\n      mload\n      dup2\n      lt\n      tag_304\n      jumpi\n      tag_305\n      tag_291\n      jump\t// in\n    tag_305:\n    tag_304:\n      0x20\n      mul\n      0x20\n      add\n      add\n      mload\n        /* \"wwcc-contracts/contracts/wwccPool.sol\":7122:7148  separateBets[j].visitScore */\n      0x60\n      add\n      mload\n        /* \"wwcc-contracts/contracts/wwccPool.sol\":7122:7160  separateBets[j].visitScore==visitScore */\n      eq\n        /* \"wwcc-contracts/contracts/wwccPool.sol\":7082:7160  separateBets[j].homeScore==homeScore && separateBets[j].visitScore==visitScore */\n    tag_303:\n        /* \"wwcc-contracts/contracts/wwccPool.sol\":7078:7876  if (separateBets[j].homeScore==homeScore && separateBets[j].visitScore==visitScore){... */\n      iszero\n      tag_306\n      jumpi\n        /* \"wwcc-contracts/contracts/wwccPool.sol\":7189:7218  uint256 singleScorePoolAmount */\n      0x00\n        /* \"wwcc-contracts/contracts/wwccPool.sol\":7221:7236  singleScorePool */\n      0x03\n        /* \"wwcc-contracts/contracts/wwccPool.sol\":7237:7249  separateBets */\n      dup5\n        /* \"wwcc-contracts/contracts/wwccPool.sol\":7250:7251  j */\n      dup4\n        /* \"wwcc-contracts/contracts/wwccPool.sol\":7237:7252  separateBets[j] */\n      dup2\n      mload\n      dup2\n      lt\n      tag_307\n      jumpi\n      tag_308\n      tag_291\n      jump\t// in\n    tag_308:\n    tag_307:\n      0x20\n      mul\n      0x20\n      add\n      add\n      mload\n        /* \"wwcc-contracts/contracts/wwccPool.sol\":7237:7263  separateBets[j].pickingKey */\n      0xa0\n      add\n      mload\n        /* \"wwcc-contracts/contracts/wwccPool.sol\":7221:7264  singleScorePool[separateBets[j].pickingKey] */\n      mload(0x40)\n      tag_309\n      swap2\n      swap1\n      tag_152\n      jump\t// in\n    tag_309:\n      swap1\n      dup2\n      mstore\n      0x20\n      add\n      mload(0x40)\n      dup1\n      swap2\n      sub\n      swap1\n      keccak256\n      sload\n        /* \"wwcc-contracts/contracts/wwccPool.sol\":7189:7264  uint256 singleScorePoolAmount = singleScorePool[separateBets[j].pickingKey] */\n      swap1\n      pop\n        /* \"wwcc-contracts/contracts/wwccPool.sol\":7292:7312  uint256 rewardAmount */\n      0x00\n        /* \"wwcc-contracts/contracts/wwccPool.sol\":7359:7380  singleScorePoolAmount */\n      dup2\n        /* \"wwcc-contracts/contracts/wwccPool.sol\":7333:7345  separateBets */\n      dup6\n        /* \"wwcc-contracts/contracts/wwccPool.sol\":7346:7347  j */\n      dup5\n        /* \"wwcc-contracts/contracts/wwccPool.sol\":7333:7348  separateBets[j] */\n      dup2\n      mload\n      dup2\n      lt\n      tag_310\n      jumpi\n      tag_311\n      tag_291\n      jump\t// in\n    tag_311:\n    tag_310:\n      0x20\n      mul\n      0x20\n      add\n      add\n      mload\n        /* \"wwcc-contracts/contracts/wwccPool.sol\":7333:7355  separateBets[j].weight */\n      0x00\n      add\n      mload\n        /* \"wwcc-contracts/contracts/wwccPool.sol\":7315:7330  allRewardAmount */\n      dup6\n        /* \"wwcc-contracts/contracts/wwccPool.sol\":7315:7355  allRewardAmount * separateBets[j].weight */\n      tag_312\n      swap2\n      swap1\n      tag_313\n      jump\t// in\n    tag_312:\n        /* \"wwcc-contracts/contracts/wwccPool.sol\":7315:7380  allRewardAmount * separateBets[j].weight /  singleScorePoolAmount */\n      tag_314\n      swap2\n      swap1\n      tag_315\n      jump\t// in\n    tag_314:\n        /* \"wwcc-contracts/contracts/wwccPool.sol\":7292:7380  uint256 rewardAmount = allRewardAmount * separateBets[j].weight /  singleScorePoolAmount */\n      swap1\n      pop\n        /* \"wwcc-contracts/contracts/wwccPool.sol\":7752:7764  rewardAmount */\n      dup1\n        /* \"wwcc-contracts/contracts/wwccPool.sol\":7714:7724  voteAmount */\n      0x05\n        /* \"wwcc-contracts/contracts/wwccPool.sol\":7714:7748  voteAmount[separateBets[j].joiner] */\n      0x00\n        /* \"wwcc-contracts/contracts/wwccPool.sol\":7725:7737  separateBets */\n      dup8\n        /* \"wwcc-contracts/contracts/wwccPool.sol\":7738:7739  j */\n      dup7\n        /* \"wwcc-contracts/contracts/wwccPool.sol\":7725:7740  separateBets[j] */\n      dup2\n      mload\n      dup2\n      lt\n      tag_316\n      jumpi\n      tag_317\n      tag_291\n      jump\t// in\n    tag_317:\n    tag_316:\n      0x20\n      mul\n      0x20\n      add\n      add\n      mload\n        /* \"wwcc-contracts/contracts/wwccPool.sol\":7725:7747  separateBets[j].joiner */\n      0x80\n      add\n      mload\n        /* \"wwcc-contracts/contracts/wwccPool.sol\":7714:7748  voteAmount[separateBets[j].joiner] */\n      0xffffffffffffffffffffffffffffffffffffffff\n      and\n      0xffffffffffffffffffffffffffffffffffffffff\n      and\n      dup2\n      mstore\n      0x20\n      add\n      swap1\n      dup2\n      mstore\n      0x20\n      add\n      0x00\n      keccak256\n      0x00\n        /* \"wwcc-contracts/contracts/wwccPool.sol\":7714:7764  voteAmount[separateBets[j].joiner] += rewardAmount */\n      dup3\n      dup3\n      sload\n      tag_318\n      swap2\n      swap1\n      tag_17\n      jump\t// in\n    tag_318:\n      swap3\n      pop\n      pop\n      dup2\n      swap1\n      sstore\n      pop\n        /* \"wwcc-contracts/contracts/wwccPool.sol\":7819:7823  true */\n      0x01\n        /* \"wwcc-contracts/contracts/wwccPool.sol\":7792:7804  separateBets */\n      dup6\n        /* \"wwcc-contracts/contracts/wwccPool.sol\":7805:7806  j */\n      dup5\n        /* \"wwcc-contracts/contracts/wwccPool.sol\":7792:7807  separateBets[j] */\n      dup2\n      mload\n      dup2\n      lt\n      tag_319\n      jumpi\n      tag_320\n      tag_291\n      jump\t// in\n    tag_320:\n    tag_319:\n      0x20\n      mul\n      0x20\n      add\n      add\n      mload\n        /* \"wwcc-contracts/contracts/wwccPool.sol\":7792:7816  separateBets[j].finished */\n      0xc0\n      add\n        /* \"wwcc-contracts/contracts/wwccPool.sol\":7792:7823  separateBets[j].finished = true */\n      swap1\n      iszero\n      iszero\n      swap1\n      dup2\n      iszero\n      iszero\n      dup2\n      mstore\n      pop\n      pop\n        /* \"wwcc-contracts/contracts/wwccPool.sol\":7161:7876  {... */\n      pop\n      pop\n        /* \"wwcc-contracts/contracts/wwccPool.sol\":7078:7876  if (separateBets[j].homeScore==homeScore && separateBets[j].visitScore==visitScore){... */\n    tag_306:\n        /* \"wwcc-contracts/contracts/wwccPool.sol\":6932:9213  if(separateBets[j].kind==2){... */\n      jump(tag_321)\n    tag_295:\n        /* \"wwcc-contracts/contracts/wwccPool.sol\":7951:7957  result */\n      dup6\n        /* \"wwcc-contracts/contracts/wwccPool.sol\":7929:7941  separateBets */\n      dup4\n        /* \"wwcc-contracts/contracts/wwccPool.sol\":7942:7943  j */\n      dup3\n        /* \"wwcc-contracts/contracts/wwccPool.sol\":7929:7944  separateBets[j] */\n      dup2\n      mload\n      dup2\n      lt\n      tag_322\n      jumpi\n      tag_323\n      tag_291\n      jump\t// in\n    tag_323:\n    tag_322:\n      0x20\n      mul\n      0x20\n      add\n      add\n      mload\n        /* \"wwcc-contracts/contracts/wwccPool.sol\":7929:7949  separateBets[j].kind */\n      0x20\n      add\n      mload\n        /* \"wwcc-contracts/contracts/wwccPool.sol\":7929:7957  separateBets[j].kind==result */\n      eq\n        /* \"wwcc-contracts/contracts/wwccPool.sol\":7926:9191  if(separateBets[j].kind==result){... */\n      iszero\n      tag_324\n      jumpi\n        /* \"wwcc-contracts/contracts/wwccPool.sol\":8004:8074  (pool.wPool+pool.lPool+pool.dPool+ pool.basal.div(2)).mul(85).div(100) */\n      tag_325\n        /* \"wwcc-contracts/contracts/wwccPool.sol\":8070:8073  100 */\n      0x64\n        /* \"wwcc-contracts/contracts/wwccPool.sol\":8004:8065  (pool.wPool+pool.lPool+pool.dPool+ pool.basal.div(2)).mul(85) */\n      tag_326\n        /* \"wwcc-contracts/contracts/wwccPool.sol\":8062:8064  85 */\n      0x55\n        /* \"wwcc-contracts/contracts/wwccPool.sol\":8039:8056  pool.basal.div(2) */\n      tag_327\n        /* \"wwcc-contracts/contracts/wwccPool.sol\":8054:8055  2 */\n      0x02\n        /* \"wwcc-contracts/contracts/wwccPool.sol\":8039:8043  pool */\n      dup10\n        /* \"wwcc-contracts/contracts/wwccPool.sol\":8039:8049  pool.basal */\n      0xe0\n      add\n      mload\n        /* \"wwcc-contracts/contracts/wwccPool.sol\":8039:8053  pool.basal.div */\n      tag_105\n      swap1\n        /* \"wwcc-contracts/contracts/wwccPool.sol\":8039:8056  pool.basal.div(2) */\n      swap2\n      swap1\n      0xffffffff\n      and\n      jump\t// in\n    tag_327:\n        /* \"wwcc-contracts/contracts/wwccPool.sol\":8027:8031  pool */\n      dup9\n        /* \"wwcc-contracts/contracts/wwccPool.sol\":8027:8037  pool.dPool */\n      0x80\n      add\n      mload\n        /* \"wwcc-contracts/contracts/wwccPool.sol\":8016:8020  pool */\n      dup10\n        /* \"wwcc-contracts/contracts/wwccPool.sol\":8016:8026  pool.lPool */\n      0xa0\n      add\n      mload\n        /* \"wwcc-contracts/contracts/wwccPool.sol\":8005:8009  pool */\n      dup11\n        /* \"wwcc-contracts/contracts/wwccPool.sol\":8005:8015  pool.wPool */\n      0x60\n      add\n      mload\n        /* \"wwcc-contracts/contracts/wwccPool.sol\":8005:8026  pool.wPool+pool.lPool */\n      tag_328\n      swap2\n      swap1\n      tag_17\n      jump\t// in\n    tag_328:\n        /* \"wwcc-contracts/contracts/wwccPool.sol\":8005:8037  pool.wPool+pool.lPool+pool.dPool */\n      tag_329\n      swap2\n      swap1\n      tag_17\n      jump\t// in\n    tag_329:\n        /* \"wwcc-contracts/contracts/wwccPool.sol\":8005:8056  pool.wPool+pool.lPool+pool.dPool+ pool.basal.div(2) */\n      tag_330\n      swap2\n      swap1\n      tag_17\n      jump\t// in\n    tag_330:\n        /* \"wwcc-contracts/contracts/wwccPool.sol\":8004:8061  (pool.wPool+pool.lPool+pool.dPool+ pool.basal.div(2)).mul */\n      tag_300\n      swap1\n        /* \"wwcc-contracts/contracts/wwccPool.sol\":8004:8065  (pool.wPool+pool.lPool+pool.dPool+ pool.basal.div(2)).mul(85) */\n      swap2\n      swap1\n      0xffffffff\n      and\n      jump\t// in\n    tag_326:\n        /* \"wwcc-contracts/contracts/wwccPool.sol\":8004:8069  (pool.wPool+pool.lPool+pool.dPool+ pool.basal.div(2)).mul(85).div */\n      tag_105\n      swap1\n        /* \"wwcc-contracts/contracts/wwccPool.sol\":8004:8074  (pool.wPool+pool.lPool+pool.dPool+ pool.basal.div(2)).mul(85).div(100) */\n      swap2\n      swap1\n      0xffffffff\n      and\n      jump\t// in\n    tag_325:\n        /* \"wwcc-contracts/contracts/wwccPool.sol\":7986:8074  allRewardAmount = (pool.wPool+pool.lPool+pool.dPool+ pool.basal.div(2)).mul(85).div(100) */\n      swap2\n      pop\n        /* \"wwcc-contracts/contracts/wwccPool.sol\":8102:8124  uint256 pickPoolAmount */\n      0x00\n        /* \"wwcc-contracts/contracts/wwccPool.sol\":8184:8185  0 */\n      dup1\n        /* \"wwcc-contracts/contracts/wwccPool.sol\":8160:8172  separateBets */\n      dup5\n        /* \"wwcc-contracts/contracts/wwccPool.sol\":8173:8174  j */\n      dup4\n        /* \"wwcc-contracts/contracts/wwccPool.sol\":8160:8175  separateBets[j] */\n      dup2\n      mload\n      dup2\n      lt\n      tag_331\n      jumpi\n      tag_332\n      tag_291\n      jump\t// in\n    tag_332:\n    tag_331:\n      0x20\n      mul\n      0x20\n      add\n      add\n      mload\n        /* \"wwcc-contracts/contracts/wwccPool.sol\":8160:8180  separateBets[j].kind */\n      0x20\n      add\n      mload\n        /* \"wwcc-contracts/contracts/wwccPool.sol\":8160:8185  separateBets[j].kind == 0 */\n      eq\n        /* \"wwcc-contracts/contracts/wwccPool.sol\":8156:8291  if (separateBets[j].kind == 0){... */\n      iszero\n      tag_333\n      jumpi\n        /* \"wwcc-contracts/contracts/wwccPool.sol\":8235:8262  pool.lPool.mul(85).div(100) */\n      tag_334\n        /* \"wwcc-contracts/contracts/wwccPool.sol\":8258:8261  100 */\n      0x64\n        /* \"wwcc-contracts/contracts/wwccPool.sol\":8235:8253  pool.lPool.mul(85) */\n      tag_335\n        /* \"wwcc-contracts/contracts/wwccPool.sol\":8250:8252  85 */\n      0x55\n        /* \"wwcc-contracts/contracts/wwccPool.sol\":8235:8239  pool */\n      dup9\n        /* \"wwcc-contracts/contracts/wwccPool.sol\":8235:8245  pool.lPool */\n      0xa0\n      add\n      mload\n        /* \"wwcc-contracts/contracts/wwccPool.sol\":8235:8249  pool.lPool.mul */\n      tag_300\n      swap1\n        /* \"wwcc-contracts/contracts/wwccPool.sol\":8235:8253  pool.lPool.mul(85) */\n      swap2\n      swap1\n      0xffffffff\n      and\n      jump\t// in\n    tag_335:\n        /* \"wwcc-contracts/contracts/wwccPool.sol\":8235:8257  pool.lPool.mul(85).div */\n      tag_105\n      swap1\n        /* \"wwcc-contracts/contracts/wwccPool.sol\":8235:8262  pool.lPool.mul(85).div(100) */\n      swap2\n      swap1\n      0xffffffff\n      and\n      jump\t// in\n    tag_334:\n        /* \"wwcc-contracts/contracts/wwccPool.sol\":8218:8262  pickPoolAmount = pool.lPool.mul(85).div(100) */\n      swap1\n      pop\n        /* \"wwcc-contracts/contracts/wwccPool.sol\":8156:8291  if (separateBets[j].kind == 0){... */\n    tag_333:\n        /* \"wwcc-contracts/contracts/wwccPool.sol\":8346:8347  1 */\n      0x01\n        /* \"wwcc-contracts/contracts/wwccPool.sol\":8322:8334  separateBets */\n      dup5\n        /* \"wwcc-contracts/contracts/wwccPool.sol\":8335:8336  j */\n      dup4\n        /* \"wwcc-contracts/contracts/wwccPool.sol\":8322:8337  separateBets[j] */\n      dup2\n      mload\n      dup2\n      lt\n      tag_336\n      jumpi\n      tag_337\n      tag_291\n      jump\t// in\n    tag_337:\n    tag_336:\n      0x20\n      mul\n      0x20\n      add\n      add\n      mload\n        /* \"wwcc-contracts/contracts/wwccPool.sol\":8322:8342  separateBets[j].kind */\n      0x20\n      add\n      mload\n        /* \"wwcc-contracts/contracts/wwccPool.sol\":8322:8347  separateBets[j].kind == 1 */\n      eq\n        /* \"wwcc-contracts/contracts/wwccPool.sol\":8318:8453  if (separateBets[j].kind == 1){... */\n      iszero\n      tag_338\n      jumpi\n        /* \"wwcc-contracts/contracts/wwccPool.sol\":8397:8424  pool.dPool.mul(85).div(100) */\n      tag_339\n        /* \"wwcc-contracts/contracts/wwccPool.sol\":8420:8423  100 */\n      0x64\n        /* \"wwcc-contracts/contracts/wwccPool.sol\":8397:8415  pool.dPool.mul(85) */\n      tag_340\n        /* \"wwcc-contracts/contracts/wwccPool.sol\":8412:8414  85 */\n      0x55\n        /* \"wwcc-contracts/contracts/wwccPool.sol\":8397:8401  pool */\n      dup9\n        /* \"wwcc-contracts/contracts/wwccPool.sol\":8397:8407  pool.dPool */\n      0x80\n      add\n      mload\n        /* \"wwcc-contracts/contracts/wwccPool.sol\":8397:8411  pool.dPool.mul */\n      tag_300\n      swap1\n        /* \"wwcc-contracts/contracts/wwccPool.sol\":8397:8415  pool.dPool.mul(85) */\n      swap2\n      swap1\n      0xffffffff\n      and\n      jump\t// in\n    tag_340:\n        /* \"wwcc-contracts/contracts/wwccPool.sol\":8397:8419  pool.dPool.mul(85).div */\n      tag_105\n      swap1\n        /* \"wwcc-contracts/contracts/wwccPool.sol\":8397:8424  pool.dPool.mul(85).div(100) */\n      swap2\n      swap1\n      0xffffffff\n      and\n      jump\t// in\n    tag_339:\n        /* \"wwcc-contracts/contracts/wwccPool.sol\":8380:8424  pickPoolAmount = pool.dPool.mul(85).div(100) */\n      swap1\n      pop\n        /* \"wwcc-contracts/contracts/wwccPool.sol\":8318:8453  if (separateBets[j].kind == 1){... */\n    tag_338:\n        /* \"wwcc-contracts/contracts/wwccPool.sol\":8508:8509  3 */\n      0x03\n        /* \"wwcc-contracts/contracts/wwccPool.sol\":8484:8496  separateBets */\n      dup5\n        /* \"wwcc-contracts/contracts/wwccPool.sol\":8497:8498  j */\n      dup4\n        /* \"wwcc-contracts/contracts/wwccPool.sol\":8484:8499  separateBets[j] */\n      dup2\n      mload\n      dup2\n      lt\n      tag_341\n      jumpi\n      tag_342\n      tag_291\n      jump\t// in\n    tag_342:\n    tag_341:\n      0x20\n      mul\n      0x20\n      add\n      add\n      mload\n        /* \"wwcc-contracts/contracts/wwccPool.sol\":8484:8504  separateBets[j].kind */\n      0x20\n      add\n      mload\n        /* \"wwcc-contracts/contracts/wwccPool.sol\":8484:8509  separateBets[j].kind == 3 */\n      eq\n        /* \"wwcc-contracts/contracts/wwccPool.sol\":8480:8615  if (separateBets[j].kind == 3){... */\n      iszero\n      tag_343\n      jumpi\n        /* \"wwcc-contracts/contracts/wwccPool.sol\":8559:8586  pool.wPool.mul(85).div(100) */\n      tag_344\n        /* \"wwcc-contracts/contracts/wwccPool.sol\":8582:8585  100 */\n      0x64\n        /* \"wwcc-contracts/contracts/wwccPool.sol\":8559:8577  pool.wPool.mul(85) */\n      tag_345\n        /* \"wwcc-contracts/contracts/wwccPool.sol\":8574:8576  85 */\n      0x55\n        /* \"wwcc-contracts/contracts/wwccPool.sol\":8559:8563  pool */\n      dup9\n        /* \"wwcc-contracts/contracts/wwccPool.sol\":8559:8569  pool.wPool */\n      0x60\n      add\n      mload\n        /* \"wwcc-contracts/contracts/wwccPool.sol\":8559:8573  pool.wPool.mul */\n      tag_300\n      swap1\n        /* \"wwcc-contracts/contracts/wwccPool.sol\":8559:8577  pool.wPool.mul(85) */\n      swap2\n      swap1\n      0xffffffff\n      and\n      jump\t// in\n    tag_345:\n        /* \"wwcc-contracts/contracts/wwccPool.sol\":8559:8581  pool.wPool.mul(85).div */\n      tag_105\n      swap1\n        /* \"wwcc-contracts/contracts/wwccPool.sol\":8559:8586  pool.wPool.mul(85).div(100) */\n      swap2\n      swap1\n      0xffffffff\n      and\n      jump\t// in\n    tag_344:\n        /* \"wwcc-contracts/contracts/wwccPool.sol\":8542:8586  pickPoolAmount = pool.wPool.mul(85).div(100) */\n      swap1\n      pop\n        /* \"wwcc-contracts/contracts/wwccPool.sol\":8480:8615  if (separateBets[j].kind == 3){... */\n    tag_343:\n        /* \"wwcc-contracts/contracts/wwccPool.sol\":8642:8662  uint256 rewardAmount */\n      0x00\n        /* \"wwcc-contracts/contracts/wwccPool.sol\":8709:8723  pickPoolAmount */\n      dup2\n        /* \"wwcc-contracts/contracts/wwccPool.sol\":8683:8695  separateBets */\n      dup6\n        /* \"wwcc-contracts/contracts/wwccPool.sol\":8696:8697  j */\n      dup5\n        /* \"wwcc-contracts/contracts/wwccPool.sol\":8683:8698  separateBets[j] */\n      dup2\n      mload\n      dup2\n      lt\n      tag_346\n      jumpi\n      tag_347\n      tag_291\n      jump\t// in\n    tag_347:\n    tag_346:\n      0x20\n      mul\n      0x20\n      add\n      add\n      mload\n        /* \"wwcc-contracts/contracts/wwccPool.sol\":8683:8705  separateBets[j].weight */\n      0x00\n      add\n      mload\n        /* \"wwcc-contracts/contracts/wwccPool.sol\":8665:8680  allRewardAmount */\n      dup6\n        /* \"wwcc-contracts/contracts/wwccPool.sol\":8665:8705  allRewardAmount * separateBets[j].weight */\n      tag_348\n      swap2\n      swap1\n      tag_313\n      jump\t// in\n    tag_348:\n        /* \"wwcc-contracts/contracts/wwccPool.sol\":8665:8723  allRewardAmount * separateBets[j].weight /  pickPoolAmount */\n      tag_349\n      swap2\n      swap1\n      tag_315\n      jump\t// in\n    tag_349:\n        /* \"wwcc-contracts/contracts/wwccPool.sol\":8642:8723  uint256 rewardAmount = allRewardAmount * separateBets[j].weight /  pickPoolAmount */\n      swap1\n      pop\n        /* \"wwcc-contracts/contracts/wwccPool.sol\":9095:9107  rewardAmount */\n      dup1\n        /* \"wwcc-contracts/contracts/wwccPool.sol\":9057:9067  voteAmount */\n      0x05\n        /* \"wwcc-contracts/contracts/wwccPool.sol\":9057:9091  voteAmount[separateBets[j].joiner] */\n      0x00\n        /* \"wwcc-contracts/contracts/wwccPool.sol\":9068:9080  separateBets */\n      dup8\n        /* \"wwcc-contracts/contracts/wwccPool.sol\":9081:9082  j */\n      dup7\n        /* \"wwcc-contracts/contracts/wwccPool.sol\":9068:9083  separateBets[j] */\n      dup2\n      mload\n      dup2\n      lt\n      tag_350\n      jumpi\n      tag_351\n      tag_291\n      jump\t// in\n    tag_351:\n    tag_350:\n      0x20\n      mul\n      0x20\n      add\n      add\n      mload\n        /* \"wwcc-contracts/contracts/wwccPool.sol\":9068:9090  separateBets[j].joiner */\n      0x80\n      add\n      mload\n        /* \"wwcc-contracts/contracts/wwccPool.sol\":9057:9091  voteAmount[separateBets[j].joiner] */\n      0xffffffffffffffffffffffffffffffffffffffff\n      and\n      0xffffffffffffffffffffffffffffffffffffffff\n      and\n      dup2\n      mstore\n      0x20\n      add\n      swap1\n      dup2\n      mstore\n      0x20\n      add\n      0x00\n      keccak256\n      0x00\n        /* \"wwcc-contracts/contracts/wwccPool.sol\":9057:9107  voteAmount[separateBets[j].joiner] += rewardAmount */\n      dup3\n      dup3\n      sload\n      tag_352\n      swap2\n      swap1\n      tag_17\n      jump\t// in\n    tag_352:\n      swap3\n      pop\n      pop\n      dup2\n      swap1\n      sstore\n      pop\n        /* \"wwcc-contracts/contracts/wwccPool.sol\":9162:9166  true */\n      0x01\n        /* \"wwcc-contracts/contracts/wwccPool.sol\":9135:9147  separateBets */\n      dup6\n        /* \"wwcc-contracts/contracts/wwccPool.sol\":9148:9149  j */\n      dup5\n        /* \"wwcc-contracts/contracts/wwccPool.sol\":9135:9150  separateBets[j] */\n      dup2\n      mload\n      dup2\n      lt\n      tag_353\n      jumpi\n      tag_354\n      tag_291\n      jump\t// in\n    tag_354:\n    tag_353:\n      0x20\n      mul\n      0x20\n      add\n      add\n      mload\n        /* \"wwcc-contracts/contracts/wwccPool.sol\":9135:9159  separateBets[j].finished */\n      0xc0\n      add\n        /* \"wwcc-contracts/contracts/wwccPool.sol\":9135:9166  separateBets[j].finished = true */\n      swap1\n      iszero\n      iszero\n      swap1\n      dup2\n      iszero\n      iszero\n      dup2\n      mstore\n      pop\n      pop\n        /* \"wwcc-contracts/contracts/wwccPool.sol\":7958:9191  {... */\n      pop\n      pop\n        /* \"wwcc-contracts/contracts/wwccPool.sol\":7926:9191  if(separateBets[j].kind==result){... */\n    tag_324:\n        /* \"wwcc-contracts/contracts/wwccPool.sol\":6932:9213  if(separateBets[j].kind==2){... */\n    tag_321:\n        /* \"wwcc-contracts/contracts/wwccPool.sol\":6872:9233  if(separateBets[j].finished = false){... */\n    tag_292:\n        /* \"wwcc-contracts/contracts/wwccPool.sol\":6830:6834  j ++ */\n      dup1\n      dup1\n      tag_355\n      swap1\n      tag_356\n      jump\t// in\n    tag_355:\n      swap2\n      pop\n      pop\n        /* \"wwcc-contracts/contracts/wwccPool.sol\":6736:9253  for (... */\n      jump(tag_285)\n    tag_286:\n      pop\n        /* \"wwcc-contracts/contracts/wwccPool.sol\":9286:9290  true */\n      0x01\n        /* \"wwcc-contracts/contracts/wwccPool.sol\":9270:9274  pool */\n      dup4\n        /* \"wwcc-contracts/contracts/wwccPool.sol\":9270:9283  pool.finished */\n      0x0140\n      add\n        /* \"wwcc-contracts/contracts/wwccPool.sol\":9270:9290  pool.finished = true */\n      swap1\n      iszero\n      iszero\n      swap1\n      dup2\n      iszero\n      iszero\n      dup2\n      mstore\n      pop\n      pop\n        /* \"wwcc-contracts/contracts/wwccPool.sol\":6208:9425  {... */\n      pop\n      pop\n      pop\n        /* \"wwcc-contracts/contracts/wwccPool.sol\":9440:9444  true */\n      0x01\n        /* \"wwcc-contracts/contracts/wwccPool.sol\":9433:9444  return true */\n      swap1\n      pop\n        /* \"wwcc-contracts/contracts/wwccPool.sol\":5994:9451  function Award(bytes32 poolKey,uint256 homeScore,uint256 visitScore,uint256 result)  external onlyManager  payable returns(bool){... */\n      swap5\n      swap4\n      pop\n      pop\n      pop\n      pop\n      jump\t// out\n        /* \"wwcc-contracts/contracts/wwccPool.sol\":5147:5516  function voteWithdrawal(address joiner,uint256 amount) external onlyManager payable returns (bool){... */\n    tag_65:\n        /* \"wwcc-contracts/contracts/wwccPool.sol\":5240:5244  bool */\n      0x00\n        /* \"wwcc-contracts/contracts/wwccPool.sol\":11873:11878  owner */\n      dup1\n      0x00\n      swap1\n      sload\n      swap1\n      0x0100\n      exp\n      swap1\n      div\n      0xffffffffffffffffffffffffffffffffffffffff\n      and\n        /* \"wwcc-contracts/contracts/wwccPool.sol\":11859:11878  msg.sender == owner */\n      0xffffffffffffffffffffffffffffffffffffffff\n      and\n        /* \"wwcc-contracts/contracts/wwccPool.sol\":11859:11869  msg.sender */\n      caller\n        /* \"wwcc-contracts/contracts/wwccPool.sol\":11859:11878  msg.sender == owner */\n      0xffffffffffffffffffffffffffffffffffffffff\n      and\n      eq\n        /* \"wwcc-contracts/contracts/wwccPool.sol\":11838:11929  require(... */\n      tag_358\n      jumpi\n      mload(0x40)\n      0x08c379a000000000000000000000000000000000000000000000000000000000\n      dup2\n      mstore\n      0x04\n      add\n      tag_359\n      swap1\n      tag_76\n      jump\t// in\n    tag_359:\n      mload(0x40)\n      dup1\n      swap2\n      sub\n      swap1\n      revert\n    tag_358:\n        /* \"wwcc-contracts/contracts/wwccPool.sol\":5280:5286  amount */\n      dup2\n        /* \"wwcc-contracts/contracts/wwccPool.sol\":5258:5268  voteAmount */\n      0x05\n        /* \"wwcc-contracts/contracts/wwccPool.sol\":5258:5276  voteAmount[joiner] */\n      0x00\n        /* \"wwcc-contracts/contracts/wwccPool.sol\":5269:5275  joiner */\n      dup6\n        /* \"wwcc-contracts/contracts/wwccPool.sol\":5258:5276  voteAmount[joiner] */\n      0xffffffffffffffffffffffffffffffffffffffff\n      and\n      0xffffffffffffffffffffffffffffffffffffffff\n      and\n      dup2\n      mstore\n      0x20\n      add\n      swap1\n      dup2\n      mstore\n      0x20\n      add\n      0x00\n      keccak256\n      sload\n        /* \"wwcc-contracts/contracts/wwccPool.sol\":5258:5286  voteAmount[joiner] >= amount */\n      lt\n      iszero\n        /* \"wwcc-contracts/contracts/wwccPool.sol\":5258:5313  voteAmount[joiner] >= amount && voteAmount[joiner] >= 0 */\n      dup1\n      iszero\n      tag_361\n      jumpi\n      pop\n        /* \"wwcc-contracts/contracts/wwccPool.sol\":5312:5313  0 */\n      0x00\n        /* \"wwcc-contracts/contracts/wwccPool.sol\":5290:5300  voteAmount */\n      0x05\n        /* \"wwcc-contracts/contracts/wwccPool.sol\":5290:5308  voteAmount[joiner] */\n      0x00\n        /* \"wwcc-contracts/contracts/wwccPool.sol\":5301:5307  joiner */\n      dup6\n        /* \"wwcc-contracts/contracts/wwccPool.sol\":5290:5308  voteAmount[joiner] */\n      0xffffffffffffffffffffffffffffffffffffffff\n      and\n      0xffffffffffffffffffffffffffffffffffffffff\n      and\n      dup2\n      mstore\n      0x20\n      add\n      swap1\n      dup2\n      mstore\n      0x20\n      add\n      0x00\n      keccak256\n      sload\n        /* \"wwcc-contracts/contracts/wwccPool.sol\":5290:5313  voteAmount[joiner] >= 0 */\n      lt\n      iszero\n        /* \"wwcc-contracts/contracts/wwccPool.sol\":5258:5313  voteAmount[joiner] >= amount && voteAmount[joiner] >= 0 */\n    tag_361:\n        /* \"wwcc-contracts/contracts/wwccPool.sol\":5255:5510  if(voteAmount[joiner] >= amount && voteAmount[joiner] >= 0){... */\n      iszero\n      tag_362\n      jumpi\n        /* \"wwcc-contracts/contracts/wwccPool.sol\":5328:5361  address payable toAddress_address */\n      0x00\n        /* \"wwcc-contracts/contracts/wwccPool.sol\":5372:5378  joiner */\n      dup4\n        /* \"wwcc-contracts/contracts/wwccPool.sol\":5328:5379  address payable toAddress_address = payable(joiner) */\n      swap1\n      pop\n        /* \"wwcc-contracts/contracts/wwccPool.sol\":5393:5410  toAddress_address */\n      dup1\n        /* \"wwcc-contracts/contracts/wwccPool.sol\":5393:5419  toAddress_address.transfer */\n      0xffffffffffffffffffffffffffffffffffffffff\n      and\n        /* \"wwcc-contracts/contracts/wwccPool.sol\":5393:5439  toAddress_address.transfer(voteAmount[joiner]) */\n      0x08fc\n        /* \"wwcc-contracts/contracts/wwccPool.sol\":5420:5430  voteAmount */\n      0x05\n        /* \"wwcc-contracts/contracts/wwccPool.sol\":5420:5438  voteAmount[joiner] */\n      0x00\n        /* \"wwcc-contracts/contracts/wwccPool.sol\":5431:5437  joiner */\n      dup8\n        /* \"wwcc-contracts/contracts/wwccPool.sol\":5420:5438  voteAmount[joiner] */\n      0xffffffffffffffffffffffffffffffffffffffff\n      and\n      0xffffffffffffffffffffffffffffffffffffffff\n      and\n      dup2\n      mstore\n      0x20\n      add\n      swap1\n      dup2\n      mstore\n      0x20\n      add\n      0x00\n      keccak256\n      sload\n        /* \"wwcc-contracts/contracts/wwccPool.sol\":5393:5439  toAddress_address.transfer(voteAmount[joiner]) */\n      swap1\n      dup2\n      iszero\n      mul\n      swap1\n      mload(0x40)\n      0x00\n      mload(0x40)\n      dup1\n      dup4\n      sub\n      dup2\n      dup6\n      dup9\n      dup9\n      call\n      swap4\n      pop\n      pop\n      pop\n      pop\n      iszero\n      dup1\n      iszero\n      tag_364\n      jumpi\n      returndatasize\n      0x00\n      dup1\n      returndatacopy\n      revert(0x00, returndatasize)\n    tag_364:\n      pop\n        /* \"wwcc-contracts/contracts/wwccPool.sol\":5314:5450  {... */\n      pop\n        /* \"wwcc-contracts/contracts/wwccPool.sol\":5255:5510  if(voteAmount[joiner] >= amount && voteAmount[joiner] >= 0){... */\n      jump(tag_365)\n    tag_362:\n        /* \"wwcc-contracts/contracts/wwccPool.sol\":5468:5499  revert(\"not enough voteAmount\") */\n      mload(0x40)\n      0x08c379a000000000000000000000000000000000000000000000000000000000\n      dup2\n      mstore\n      0x04\n      add\n      tag_366\n      swap1\n      tag_204\n      jump\t// in\n    tag_366:\n      mload(0x40)\n      dup1\n      swap2\n      sub\n      swap1\n      revert\n        /* \"wwcc-contracts/contracts/wwccPool.sol\":5255:5510  if(voteAmount[joiner] >= amount && voteAmount[joiner] >= 0){... */\n    tag_365:\n        /* \"wwcc-contracts/contracts/wwccPool.sol\":5147:5516  function voteWithdrawal(address joiner,uint256 amount) external onlyManager payable returns (bool){... */\n      swap3\n      swap2\n      pop\n      pop\n      jump\t// out\n        /* \"wwcc-contracts/contracts/wwccPool.sol\":9456:9989  function getPair(bytes32 poolKey) external view returns (string memory home,string memory visit,string memory rounds,uint256 wPool,uint256 dPool,uint256 lPool,uint256 sPool){... */\n    tag_70:\n        /* \"wwcc-contracts/contracts/wwccPool.sol\":9513:9531  string memory home */\n      0x60\n        /* \"wwcc-contracts/contracts/wwccPool.sol\":9532:9551  string memory visit */\n      dup1\n        /* \"wwcc-contracts/contracts/wwccPool.sol\":9552:9572  string memory rounds */\n      0x60\n        /* \"wwcc-contracts/contracts/wwccPool.sol\":9573:9586  uint256 wPool */\n      0x00\n        /* \"wwcc-contracts/contracts/wwccPool.sol\":9587:9600  uint256 dPool */\n      dup1\n        /* \"wwcc-contracts/contracts/wwccPool.sol\":9601:9614  uint256 lPool */\n      0x00\n        /* \"wwcc-contracts/contracts/wwccPool.sol\":9615:9628  uint256 sPool */\n      dup1\n        /* \"wwcc-contracts/contracts/wwccPool.sol\":9643:9660  contains(poolKey) */\n      tag_368\n        /* \"wwcc-contracts/contracts/wwccPool.sol\":9652:9659  poolKey */\n      dup9\n        /* \"wwcc-contracts/contracts/wwccPool.sol\":9643:9651  contains */\n      tag_79\n        /* \"wwcc-contracts/contracts/wwccPool.sol\":9643:9660  contains(poolKey) */\n      jump\t// in\n    tag_368:\n        /* \"wwcc-contracts/contracts/wwccPool.sol\":9639:9983  if(!contains(poolKey)) { ... */\n      tag_369\n      jumpi\n        /* \"wwcc-contracts/contracts/wwccPool.sol\":9677:9696  revert(\"not exist\") */\n      mload(0x40)\n      0x08c379a000000000000000000000000000000000000000000000000000000000\n      dup2\n      mstore\n      0x04\n      add\n      tag_370\n      swap1\n      tag_371\n      jump\t// in\n    tag_370:\n      mload(0x40)\n      dup1\n      swap2\n      sub\n      swap1\n      revert\n        /* \"wwcc-contracts/contracts/wwccPool.sol\":9639:9983  if(!contains(poolKey)) { ... */\n    tag_369:\n        /* \"wwcc-contracts/contracts/wwccPool.sol\":9733:9740  WcPools */\n      0x06\n        /* \"wwcc-contracts/contracts/wwccPool.sol\":9733:9749  WcPools[poolKey] */\n      0x00\n        /* \"wwcc-contracts/contracts/wwccPool.sol\":9741:9748  poolKey */\n      dup10\n        /* \"wwcc-contracts/contracts/wwccPool.sol\":9733:9749  WcPools[poolKey] */\n      dup2\n      mstore\n      0x20\n      add\n      swap1\n      dup2\n      mstore\n      0x20\n      add\n      0x00\n      keccak256\n        /* \"wwcc-contracts/contracts/wwccPool.sol\":9733:9754  WcPools[poolKey].home */\n      0x00\n      add\n        /* \"wwcc-contracts/contracts/wwccPool.sol\":9768:9775  WcPools */\n      0x06\n        /* \"wwcc-contracts/contracts/wwccPool.sol\":9768:9784  WcPools[poolKey] */\n      0x00\n        /* \"wwcc-contracts/contracts/wwccPool.sol\":9776:9783  poolKey */\n      dup11\n        /* \"wwcc-contracts/contracts/wwccPool.sol\":9768:9784  WcPools[poolKey] */\n      dup2\n      mstore\n      0x20\n      add\n      swap1\n      dup2\n      mstore\n      0x20\n      add\n      0x00\n      keccak256\n        /* \"wwcc-contracts/contracts/wwccPool.sol\":9768:9790  WcPools[poolKey].visit */\n      0x01\n      add\n        /* \"wwcc-contracts/contracts/wwccPool.sol\":9804:9811  WcPools */\n      0x06\n        /* \"wwcc-contracts/contracts/wwccPool.sol\":9804:9820  WcPools[poolKey] */\n      0x00\n        /* \"wwcc-contracts/contracts/wwccPool.sol\":9812:9819  poolKey */\n      dup12\n        /* \"wwcc-contracts/contracts/wwccPool.sol\":9804:9820  WcPools[poolKey] */\n      dup2\n      mstore\n      0x20\n      add\n      swap1\n      dup2\n      mstore\n      0x20\n      add\n      0x00\n      keccak256\n        /* \"wwcc-contracts/contracts/wwccPool.sol\":9804:9827  WcPools[poolKey].rounds */\n      0x02\n      add\n        /* \"wwcc-contracts/contracts/wwccPool.sol\":9841:9848  WcPools */\n      0x06\n        /* \"wwcc-contracts/contracts/wwccPool.sol\":9841:9857  WcPools[poolKey] */\n      0x00\n        /* \"wwcc-contracts/contracts/wwccPool.sol\":9849:9856  poolKey */\n      dup13\n        /* \"wwcc-contracts/contracts/wwccPool.sol\":9841:9857  WcPools[poolKey] */\n      dup2\n      mstore\n      0x20\n      add\n      swap1\n      dup2\n      mstore\n      0x20\n      add\n      0x00\n      keccak256\n        /* \"wwcc-contracts/contracts/wwccPool.sol\":9841:9863  WcPools[poolKey].wPool */\n      0x03\n      add\n      sload\n        /* \"wwcc-contracts/contracts/wwccPool.sol\":9877:9884  WcPools */\n      0x06\n        /* \"wwcc-contracts/contracts/wwccPool.sol\":9877:9893  WcPools[poolKey] */\n      0x00\n        /* \"wwcc-contracts/contracts/wwccPool.sol\":9885:9892  poolKey */\n      dup14\n        /* \"wwcc-contracts/contracts/wwccPool.sol\":9877:9893  WcPools[poolKey] */\n      dup2\n      mstore\n      0x20\n      add\n      swap1\n      dup2\n      mstore\n      0x20\n      add\n      0x00\n      keccak256\n        /* \"wwcc-contracts/contracts/wwccPool.sol\":9877:9899  WcPools[poolKey].dPool */\n      0x04\n      add\n      sload\n        /* \"wwcc-contracts/contracts/wwccPool.sol\":9913:9920  WcPools */\n      0x06\n        /* \"wwcc-contracts/contracts/wwccPool.sol\":9913:9929  WcPools[poolKey] */\n      0x00\n        /* \"wwcc-contracts/contracts/wwccPool.sol\":9921:9928  poolKey */\n      dup15\n        /* \"wwcc-contracts/contracts/wwccPool.sol\":9913:9929  WcPools[poolKey] */\n      dup2\n      mstore\n      0x20\n      add\n      swap1\n      dup2\n      mstore\n      0x20\n      add\n      0x00\n      keccak256\n        /* \"wwcc-contracts/contracts/wwccPool.sol\":9913:9935  WcPools[poolKey].lPool */\n      0x05\n      add\n      sload\n        /* \"wwcc-contracts/contracts/wwccPool.sol\":9949:9956  WcPools */\n      0x06\n        /* \"wwcc-contracts/contracts/wwccPool.sol\":9949:9965  WcPools[poolKey] */\n      0x00\n        /* \"wwcc-contracts/contracts/wwccPool.sol\":9957:9964  poolKey */\n      dup16\n        /* \"wwcc-contracts/contracts/wwccPool.sol\":9949:9965  WcPools[poolKey] */\n      dup2\n      mstore\n      0x20\n      add\n      swap1\n      dup2\n      mstore\n      0x20\n      add\n      0x00\n      keccak256\n        /* \"wwcc-contracts/contracts/wwccPool.sol\":9949:9971  WcPools[poolKey].sPool */\n      0x06\n      add\n      sload\n        /* \"wwcc-contracts/contracts/wwccPool.sol\":9725:9972  return (WcPools[poolKey].home,... */\n      dup7\n      dup1\n      sload\n      tag_373\n      swap1\n      tag_85\n      jump\t// in\n    tag_373:\n      dup1\n      0x1f\n      add\n      0x20\n      dup1\n      swap2\n      div\n      mul\n      0x20\n      add\n      mload(0x40)\n      swap1\n      dup2\n      add\n      0x40\n      mstore\n      dup1\n      swap3\n      swap2\n      swap1\n      dup2\n      dup2\n      mstore\n      0x20\n      add\n      dup3\n      dup1\n      sload\n      tag_374\n      swap1\n      tag_85\n      jump\t// in\n    tag_374:\n      dup1\n      iszero\n      tag_375\n      jumpi\n      dup1\n      0x1f\n      lt\n      tag_376\n      jumpi\n      0x0100\n      dup1\n      dup4\n      sload\n      div\n      mul\n      dup4\n      mstore\n      swap2\n      0x20\n      add\n      swap2\n      jump(tag_375)\n    tag_376:\n      dup3\n      add\n      swap2\n      swap1\n      0x00\n      mstore\n      keccak256(0x00, 0x20)\n      swap1\n    tag_377:\n      dup2\n      sload\n      dup2\n      mstore\n      swap1\n      0x01\n      add\n      swap1\n      0x20\n      add\n      dup1\n      dup4\n      gt\n      tag_377\n      jumpi\n      dup3\n      swap1\n      sub\n      0x1f\n      and\n      dup3\n      add\n      swap2\n    tag_375:\n      pop\n      pop\n      pop\n      pop\n      pop\n      swap7\n      pop\n      dup6\n      dup1\n      sload\n      tag_378\n      swap1\n      tag_85\n      jump\t// in\n    tag_378:\n      dup1\n      0x1f\n      add\n      0x20\n      dup1\n      swap2\n      div\n      mul\n      0x20\n      add\n      mload(0x40)\n      swap1\n      dup2\n      add\n      0x40\n      mstore\n      dup1\n      swap3\n      swap2\n      swap1\n      dup2\n      dup2\n      mstore\n      0x20\n      add\n      dup3\n      dup1\n      sload\n      tag_379\n      swap1\n      tag_85\n      jump\t// in\n    tag_379:\n      dup1\n      iszero\n      tag_380\n      jumpi\n      dup1\n      0x1f\n      lt\n      tag_381\n      jumpi\n      0x0100\n      dup1\n      dup4\n      sload\n      div\n      mul\n      dup4\n      mstore\n      swap2\n      0x20\n      add\n      swap2\n      jump(tag_380)\n    tag_381:\n      dup3\n      add\n      swap2\n      swap1\n      0x00\n      mstore\n      keccak256(0x00, 0x20)\n      swap1\n    tag_382:\n      dup2\n      sload\n      dup2\n      mstore\n      swap1\n      0x01\n      add\n      swap1\n      0x20\n      add\n      dup1\n      dup4\n      gt\n      tag_382\n      jumpi\n      dup3\n      swap1\n      sub\n      0x1f\n      and\n      dup3\n      add\n      swap2\n    tag_380:\n      pop\n      pop\n      pop\n      pop\n      pop\n      swap6\n      pop\n      dup5\n      dup1\n      sload\n      tag_383\n      swap1\n      tag_85\n      jump\t// in\n    tag_383:\n      dup1\n      0x1f\n      add\n      0x20\n      dup1\n      swap2\n      div\n      mul\n      0x20\n      add\n      mload(0x40)\n      swap1\n      dup2\n      add\n      0x40\n      mstore\n      dup1\n      swap3\n      swap2\n      swap1\n      dup2\n      dup2\n      mstore\n      0x20\n      add\n      dup3\n      dup1\n      sload\n      tag_384\n      swap1\n      tag_85\n      jump\t// in\n    tag_384:\n      dup1\n      iszero\n      tag_385\n      jumpi\n      dup1\n      0x1f\n      lt\n      tag_386\n      jumpi\n      0x0100\n      dup1\n      dup4\n      sload\n      div\n      mul\n      dup4\n      mstore\n      swap2\n      0x20\n      add\n      swap2\n      jump(tag_385)\n    tag_386:\n      dup3\n      add\n      swap2\n      swap1\n      0x00\n      mstore\n      keccak256(0x00, 0x20)\n      swap1\n    tag_387:\n      dup2\n      sload\n      dup2\n      mstore\n      swap1\n      0x01\n      add\n      swap1\n      0x20\n      add\n      dup1\n      dup4\n      gt\n      tag_387\n      jumpi\n      dup3\n      swap1\n      sub\n      0x1f\n      and\n      dup3\n      add\n      swap2\n    tag_385:\n      pop\n      pop\n      pop\n      pop\n      pop\n      swap5\n      pop\n      swap7\n      pop\n      swap7\n      pop\n      swap7\n      pop\n      swap7\n      pop\n      swap7\n      pop\n      swap7\n      pop\n      swap7\n      pop\n        /* \"wwcc-contracts/contracts/wwccPool.sol\":9456:9989  function getPair(bytes32 poolKey) external view returns (string memory home,string memory visit,string memory rounds,uint256 wPool,uint256 dPool,uint256 lPool,uint256 sPool){... */\n      swap2\n      swap4\n      swap6\n      swap8\n      swap1\n      swap3\n      swap5\n      swap7\n      pop\n      jump\t// out\n        /* \"wwcc-contracts/contracts/wwccPool.sol\":9994:10107  function contains(bytes32 poolKey) internal view returns (bool) {... */\n    tag_79:\n        /* \"wwcc-contracts/contracts/wwccPool.sol\":10052:10056  bool */\n      0x00\n        /* \"wwcc-contracts/contracts/wwccPool.sol\":10079:10086  WcPools */\n      0x06\n        /* \"wwcc-contracts/contracts/wwccPool.sol\":10079:10095  WcPools[poolKey] */\n      0x00\n        /* \"wwcc-contracts/contracts/wwccPool.sol\":10087:10094  poolKey */\n      dup4\n        /* \"wwcc-contracts/contracts/wwccPool.sol\":10079:10095  WcPools[poolKey] */\n      dup2\n      mstore\n      0x20\n      add\n      swap1\n      dup2\n      mstore\n      0x20\n      add\n      0x00\n      keccak256\n        /* \"wwcc-contracts/contracts/wwccPool.sol\":10079:10100  WcPools[poolKey].used */\n      0x08\n      add\n      0x01\n      swap1\n      sload\n      swap1\n      0x0100\n      exp\n      swap1\n      div\n      0xff\n      and\n        /* \"wwcc-contracts/contracts/wwccPool.sol\":10072:10100  return WcPools[poolKey].used */\n      swap1\n      pop\n        /* \"wwcc-contracts/contracts/wwccPool.sol\":9994:10107  function contains(bytes32 poolKey) internal view returns (bool) {... */\n      swap2\n      swap1\n      pop\n      jump\t// out\n        /* \"wwcc-contracts/contracts/safemath.sol\":274:417  function div(uint256 a, uint256 b) internal pure returns (uint256) {... */\n    tag_105:\n        /* \"wwcc-contracts/contracts/safemath.sol\":332:339  uint256 */\n      0x00\n        /* \"wwcc-contracts/contracts/safemath.sol\":363:364  0 */\n      dup1\n        /* \"wwcc-contracts/contracts/safemath.sol\":359:360  b */\n      dup3\n        /* \"wwcc-contracts/contracts/safemath.sol\":359:364  b > 0 */\n      gt\n        /* \"wwcc-contracts/contracts/safemath.sol\":351:365  require(b > 0) */\n      tag_390\n      jumpi\n      0x00\n      dup1\n      revert\n    tag_390:\n        /* \"wwcc-contracts/contracts/safemath.sol\":375:384  uint256 c */\n      0x00\n        /* \"wwcc-contracts/contracts/safemath.sol\":391:392  b */\n      dup3\n        /* \"wwcc-contracts/contracts/safemath.sol\":387:388  a */\n      dup5\n        /* \"wwcc-contracts/contracts/safemath.sol\":387:392  a / b */\n      tag_391\n      swap2\n      swap1\n      tag_315\n      jump\t// in\n    tag_391:\n        /* \"wwcc-contracts/contracts/safemath.sol\":375:392  uint256 c = a / b */\n      swap1\n      pop\n        /* \"wwcc-contracts/contracts/safemath.sol\":409:410  c */\n      dup1\n        /* \"wwcc-contracts/contracts/safemath.sol\":402:410  return c */\n      swap2\n      pop\n      pop\n        /* \"wwcc-contracts/contracts/safemath.sol\":274:417  function div(uint256 a, uint256 b) internal pure returns (uint256) {... */\n      swap3\n      swap2\n      pop\n      pop\n      jump\t// out\n        /* \"wwcc-contracts/contracts/wwccPool.sol\":10112:10601  function strConcat(string memory _a,string memory _b) internal pure returns (string memory){... */\n    tag_149:\n        /* \"wwcc-contracts/contracts/wwccPool.sol\":10189:10202  string memory */\n      0x60\n        /* \"wwcc-contracts/contracts/wwccPool.sol\":10217:10233  bytes memory _ba */\n      0x00\n        /* \"wwcc-contracts/contracts/wwccPool.sol\":10242:10244  _a */\n      dup4\n        /* \"wwcc-contracts/contracts/wwccPool.sol\":10217:10245  bytes memory _ba = bytes(_a) */\n      swap1\n      pop\n        /* \"wwcc-contracts/contracts/wwccPool.sol\":10259:10275  bytes memory _bb */\n      0x00\n        /* \"wwcc-contracts/contracts/wwccPool.sol\":10284:10286  _b */\n      dup4\n        /* \"wwcc-contracts/contracts/wwccPool.sol\":10259:10287  bytes memory _bb = bytes(_b) */\n      swap1\n      pop\n        /* \"wwcc-contracts/contracts/wwccPool.sol\":10301:10318  string memory ret */\n      0x00\n        /* \"wwcc-contracts/contracts/wwccPool.sol\":10345:10348  _bb */\n      dup2\n        /* \"wwcc-contracts/contracts/wwccPool.sol\":10345:10355  _bb.length */\n      mload\n        /* \"wwcc-contracts/contracts/wwccPool.sol\":10332:10335  _ba */\n      dup4\n        /* \"wwcc-contracts/contracts/wwccPool.sol\":10332:10342  _ba.length */\n      mload\n        /* \"wwcc-contracts/contracts/wwccPool.sol\":10332:10355  _ba.length + _bb.length */\n      tag_393\n      swap2\n      swap1\n      tag_17\n      jump\t// in\n    tag_393:\n        /* \"wwcc-contracts/contracts/wwccPool.sol\":10321:10356  new string(_ba.length + _bb.length) */\n      0xffffffffffffffff\n      dup2\n      gt\n      iszero\n      tag_394\n      jumpi\n      tag_395\n      tag_396\n      jump\t// in\n    tag_395:\n    tag_394:\n      mload(0x40)\n      swap1\n      dup1\n      dup3\n      mstore\n      dup1\n      0x1f\n      add\n      not(0x1f)\n      and\n      0x20\n      add\n      dup3\n      add\n      0x40\n      mstore\n      dup1\n      iszero\n      tag_397\n      jumpi\n      dup2\n      0x20\n      add\n      0x01\n      dup3\n      mul\n      dup1\n      calldatasize\n      dup4\n      calldatacopy\n      dup1\n      dup3\n      add\n      swap2\n      pop\n      pop\n      swap1\n      pop\n    tag_397:\n      pop\n        /* \"wwcc-contracts/contracts/wwccPool.sol\":10301:10356  string memory ret = new string(_ba.length + _bb.length) */\n      swap1\n      pop\n        /* \"wwcc-contracts/contracts/wwccPool.sol\":10370:10387  bytes memory bret */\n      0x00\n        /* \"wwcc-contracts/contracts/wwccPool.sol\":10396:10399  ret */\n      dup2\n        /* \"wwcc-contracts/contracts/wwccPool.sol\":10370:10400  bytes memory bret = bytes(ret) */\n      swap1\n      pop\n        /* \"wwcc-contracts/contracts/wwccPool.sol\":10414:10420  uint k */\n      0x00\n        /* \"wwcc-contracts/contracts/wwccPool.sol\":10442:10448  uint i */\n      dup1\n        /* \"wwcc-contracts/contracts/wwccPool.sol\":10438:10491  for(uint i = 0;i < _ba.length;i++) bret[k++] = _ba[i] */\n    tag_398:\n        /* \"wwcc-contracts/contracts/wwccPool.sol\":10457:10460  _ba */\n      dup6\n        /* \"wwcc-contracts/contracts/wwccPool.sol\":10457:10467  _ba.length */\n      mload\n        /* \"wwcc-contracts/contracts/wwccPool.sol\":10453:10454  i */\n      dup2\n        /* \"wwcc-contracts/contracts/wwccPool.sol\":10453:10467  i < _ba.length */\n      lt\n        /* \"wwcc-contracts/contracts/wwccPool.sol\":10438:10491  for(uint i = 0;i < _ba.length;i++) bret[k++] = _ba[i] */\n      iszero\n      tag_399\n      jumpi\n        /* \"wwcc-contracts/contracts/wwccPool.sol\":10485:10488  _ba */\n      dup6\n        /* \"wwcc-contracts/contracts/wwccPool.sol\":10489:10490  i */\n      dup2\n        /* \"wwcc-contracts/contracts/wwccPool.sol\":10485:10491  _ba[i] */\n      dup2\n      mload\n      dup2\n      lt\n      tag_401\n      jumpi\n      tag_402\n      tag_291\n      jump\t// in\n    tag_402:\n    tag_401:\n      0x20\n      add\n      add\n      mload\n      0xf8\n      shr\n      0xf8\n      shl\n        /* \"wwcc-contracts/contracts/wwccPool.sol\":10473:10477  bret */\n      dup4\n        /* \"wwcc-contracts/contracts/wwccPool.sol\":10478:10481  k++ */\n      dup4\n      dup1\n      tag_403\n      swap1\n      tag_356\n      jump\t// in\n    tag_403:\n      swap5\n      pop\n        /* \"wwcc-contracts/contracts/wwccPool.sol\":10473:10482  bret[k++] */\n      dup2\n      mload\n      dup2\n      lt\n      tag_404\n      jumpi\n      tag_405\n      tag_291\n      jump\t// in\n    tag_405:\n    tag_404:\n      0x20\n      add\n      add\n        /* \"wwcc-contracts/contracts/wwccPool.sol\":10473:10491  bret[k++] = _ba[i] */\n      swap1\n      not(0xffffffffffffffffffffffffffffffffffffffffffffffffffffffffffffff)\n      and\n      swap1\n      dup2\n      0x00\n      byte\n      swap1\n      mstore8\n      pop\n        /* \"wwcc-contracts/contracts/wwccPool.sol\":10468:10471  i++ */\n      dup1\n      dup1\n      tag_406\n      swap1\n      tag_356\n      jump\t// in\n    tag_406:\n      swap2\n      pop\n      pop\n        /* \"wwcc-contracts/contracts/wwccPool.sol\":10438:10491  for(uint i = 0;i < _ba.length;i++) bret[k++] = _ba[i] */\n      jump(tag_398)\n    tag_399:\n      pop\n        /* \"wwcc-contracts/contracts/wwccPool.sol\":10509:10515  uint i */\n      0x00\n        /* \"wwcc-contracts/contracts/wwccPool.sol\":10505:10558  for(uint i = 0;i < _bb.length;i++) bret[k++] = _bb[i] */\n    tag_407:\n        /* \"wwcc-contracts/contracts/wwccPool.sol\":10524:10527  _bb */\n      dup5\n        /* \"wwcc-contracts/contracts/wwccPool.sol\":10524:10534  _bb.length */\n      mload\n        /* \"wwcc-contracts/contracts/wwccPool.sol\":10520:10521  i */\n      dup2\n        /* \"wwcc-contracts/contracts/wwccPool.sol\":10520:10534  i < _bb.length */\n      lt\n        /* \"wwcc-contracts/contracts/wwccPool.sol\":10505:10558  for(uint i = 0;i < _bb.length;i++) bret[k++] = _bb[i] */\n      iszero\n      tag_408\n      jumpi\n        /* \"wwcc-contracts/contracts/wwccPool.sol\":10552:10555  _bb */\n      dup5\n        /* \"wwcc-contracts/contracts/wwccPool.sol\":10556:10557  i */\n      dup2\n        /* \"wwcc-contracts/contracts/wwccPool.sol\":10552:10558  _bb[i] */\n      dup2\n      mload\n      dup2\n      lt\n      tag_410\n      jumpi\n      tag_411\n      tag_291\n      jump\t// in\n    tag_411:\n    tag_410:\n      0x20\n      add\n      add\n      mload\n      0xf8\n      shr\n      0xf8\n      shl\n        /* \"wwcc-contracts/contracts/wwccPool.sol\":10540:10544  bret */\n      dup4\n        /* \"wwcc-contracts/contracts/wwccPool.sol\":10545:10548  k++ */\n      dup4\n      dup1\n      tag_412\n      swap1\n      tag_356\n      jump\t// in\n    tag_412:\n      swap5\n      pop\n        /* \"wwcc-contracts/contracts/wwccPool.sol\":10540:10549  bret[k++] */\n      dup2\n      mload\n      dup2\n      lt\n      tag_413\n      jumpi\n      tag_414\n      tag_291\n      jump\t// in\n    tag_414:\n    tag_413:\n      0x20\n      add\n      add\n        /* \"wwcc-contracts/contracts/wwccPool.sol\":10540:10558  bret[k++] = _bb[i] */\n      swap1\n      not(0xffffffffffffffffffffffffffffffffffffffffffffffffffffffffffffff)\n      and\n      swap1\n      dup2\n      0x00\n      byte\n      swap1\n      mstore8\n      pop\n        /* \"wwcc-contracts/contracts/wwccPool.sol\":10535:10538  i++ */\n      dup1\n      dup1\n      tag_415\n      swap1\n      tag_356\n      jump\t// in\n    tag_415:\n      swap2\n      pop\n      pop\n        /* \"wwcc-contracts/contracts/wwccPool.sol\":10505:10558  for(uint i = 0;i < _bb.length;i++) bret[k++] = _bb[i] */\n      jump(tag_407)\n    tag_408:\n      pop\n        /* \"wwcc-contracts/contracts/wwccPool.sol\":10586:10589  ret */\n      dup3\n        /* \"wwcc-contracts/contracts/wwccPool.sol\":10572:10590  return string(ret) */\n      swap6\n      pop\n      pop\n      pop\n      pop\n      pop\n      pop\n        /* \"wwcc-contracts/contracts/wwccPool.sol\":10112:10601  function strConcat(string memory _a,string memory _b) internal pure returns (string memory){... */\n      swap3\n      swap2\n      pop\n      pop\n      jump\t// out\n        /* \"wwcc-contracts/contracts/wwccPool.sol\":10740:10869  function uint256ToString(uint256 u) internal pure returns(string memory){... */\n    tag_222:\n        /* \"wwcc-contracts/contracts/wwccPool.sol\":10798:10811  string memory */\n      0x60\n        /* \"wwcc-contracts/contracts/wwccPool.sol\":10833:10862  toString(abi.encodePacked(u)) */\n      tag_417\n        /* \"wwcc-contracts/contracts/wwccPool.sol\":10859:10860  u */\n      dup3\n        /* \"wwcc-contracts/contracts/wwccPool.sol\":10842:10861  abi.encodePacked(u) */\n      add(0x20, mload(0x40))\n      tag_418\n      swap2\n      swap1\n      tag_419\n      jump\t// in\n    tag_418:\n      mload(0x40)\n      0x20\n      dup2\n      dup4\n      sub\n      sub\n      dup2\n      mstore\n      swap1\n      0x40\n      mstore\n        /* \"wwcc-contracts/contracts/wwccPool.sol\":10833:10841  toString */\n      tag_420\n        /* \"wwcc-contracts/contracts/wwccPool.sol\":10833:10862  toString(abi.encodePacked(u)) */\n      jump\t// in\n    tag_417:\n        /* \"wwcc-contracts/contracts/wwccPool.sol\":10826:10862  return toString(abi.encodePacked(u)) */\n      swap1\n      pop\n        /* \"wwcc-contracts/contracts/wwccPool.sol\":10740:10869  function uint256ToString(uint256 u) internal pure returns(string memory){... */\n      swap2\n      swap1\n      pop\n      jump\t// out\n        /* \"wwcc-contracts/contracts/wwccPool.sol\":10874:11004  function bytes32ToString(bytes32 b) internal pure returns(string memory){... */\n    tag_226:\n        /* \"wwcc-contracts/contracts/wwccPool.sol\":10932:10945  string memory */\n      0x60\n        /* \"wwcc-contracts/contracts/wwccPool.sol\":10967:10996  toString(abi.encodePacked(b)) */\n      tag_422\n        /* \"wwcc-contracts/contracts/wwccPool.sol\":10993:10994  b */\n      dup3\n        /* \"wwcc-contracts/contracts/wwccPool.sol\":10976:10995  abi.encodePacked(b) */\n      add(0x20, mload(0x40))\n      tag_423\n      swap2\n      swap1\n      tag_424\n      jump\t// in\n    tag_423:\n      mload(0x40)\n      0x20\n      dup2\n      dup4\n      sub\n      sub\n      dup2\n      mstore\n      swap1\n      0x40\n      mstore\n        /* \"wwcc-contracts/contracts/wwccPool.sol\":10967:10975  toString */\n      tag_420\n        /* \"wwcc-contracts/contracts/wwccPool.sol\":10967:10996  toString(abi.encodePacked(b)) */\n      jump\t// in\n    tag_422:\n        /* \"wwcc-contracts/contracts/wwccPool.sol\":10960:10996  return toString(abi.encodePacked(b)) */\n      swap1\n      pop\n        /* \"wwcc-contracts/contracts/wwccPool.sol\":10874:11004  function bytes32ToString(bytes32 b) internal pure returns(string memory){... */\n      swap2\n      swap1\n      pop\n      jump\t// out\n        /* \"wwcc-contracts/contracts/safemath.sol\":62:266  function mul(uint256 a, uint256 b) internal pure returns (uint256) {... */\n    tag_300:\n        /* \"wwcc-contracts/contracts/safemath.sol\":120:127  uint256 */\n      0x00\n        /* \"wwcc-contracts/contracts/safemath.sol\":148:149  0 */\n      dup1\n        /* \"wwcc-contracts/contracts/safemath.sol\":143:144  a */\n      dup4\n        /* \"wwcc-contracts/contracts/safemath.sol\":143:149  a == 0 */\n      eq\n        /* \"wwcc-contracts/contracts/safemath.sol\":139:184  if (a == 0) {... */\n      iszero\n      tag_426\n      jumpi\n        /* \"wwcc-contracts/contracts/safemath.sol\":172:173  0 */\n      0x00\n        /* \"wwcc-contracts/contracts/safemath.sol\":165:173  return 0 */\n      swap1\n      pop\n      jump(tag_425)\n        /* \"wwcc-contracts/contracts/safemath.sol\":139:184  if (a == 0) {... */\n    tag_426:\n        /* \"wwcc-contracts/contracts/safemath.sol\":195:204  uint256 c */\n      0x00\n        /* \"wwcc-contracts/contracts/safemath.sol\":211:212  b */\n      dup3\n        /* \"wwcc-contracts/contracts/safemath.sol\":207:208  a */\n      dup5\n        /* \"wwcc-contracts/contracts/safemath.sol\":207:212  a * b */\n      tag_427\n      swap2\n      swap1\n      tag_313\n      jump\t// in\n    tag_427:\n        /* \"wwcc-contracts/contracts/safemath.sol\":195:212  uint256 c = a * b */\n      swap1\n      pop\n        /* \"wwcc-contracts/contracts/safemath.sol\":239:240  b */\n      dup3\n        /* \"wwcc-contracts/contracts/safemath.sol\":234:235  a */\n      dup5\n        /* \"wwcc-contracts/contracts/safemath.sol\":230:231  c */\n      dup3\n        /* \"wwcc-contracts/contracts/safemath.sol\":230:235  c / a */\n      tag_428\n      swap2\n      swap1\n      tag_315\n      jump\t// in\n    tag_428:\n        /* \"wwcc-contracts/contracts/safemath.sol\":230:240  c / a == b */\n      eq\n        /* \"wwcc-contracts/contracts/safemath.sol\":222:241  require(c / a == b) */\n      tag_429\n      jumpi\n      0x00\n      dup1\n      revert\n    tag_429:\n        /* \"wwcc-contracts/contracts/safemath.sol\":258:259  c */\n      dup1\n        /* \"wwcc-contracts/contracts/safemath.sol\":251:259  return c */\n      swap2\n      pop\n      pop\n        /* \"wwcc-contracts/contracts/safemath.sol\":62:266  function mul(uint256 a, uint256 b) internal pure returns (uint256) {... */\n    tag_425:\n      swap3\n      swap2\n      pop\n      pop\n      jump\t// out\n        /* \"wwcc-contracts/contracts/wwccPool.sol\":11009:11496  function toString(bytes memory data) internal pure returns(string memory){... */\n    tag_420:\n        /* \"wwcc-contracts/contracts/wwccPool.sol\":11068:11081  string memory */\n      0x60\n        /* \"wwcc-contracts/contracts/wwccPool.sol\":11096:11117  bytes memory alphabet */\n      0x00\n        /* \"wwcc-contracts/contracts/wwccPool.sol\":11096:11138  bytes memory alphabet = \"0123456789abcdef\" */\n      mload(0x40)\n      dup1\n      0x40\n      add\n      0x40\n      mstore\n      dup1\n      0x10\n      dup2\n      mstore\n      0x20\n      add\n      0x3031323334353637383961626364656600000000000000000000000000000000\n      dup2\n      mstore\n      pop\n      swap1\n      pop\n        /* \"wwcc-contracts/contracts/wwccPool.sol\":11152:11168  bytes memory str */\n      0x00\n        /* \"wwcc-contracts/contracts/wwccPool.sol\":11199:11200  2 */\n      0x02\n        /* \"wwcc-contracts/contracts/wwccPool.sol\":11185:11189  data */\n      dup5\n        /* \"wwcc-contracts/contracts/wwccPool.sol\":11185:11196  data.length */\n      mload\n        /* \"wwcc-contracts/contracts/wwccPool.sol\":11185:11200  data.length * 2 */\n      tag_431\n      swap2\n      swap1\n      tag_313\n      jump\t// in\n    tag_431:\n        /* \"wwcc-contracts/contracts/wwccPool.sol\":11181:11182  2 */\n      0x02\n        /* \"wwcc-contracts/contracts/wwccPool.sol\":11181:11200  2 + data.length * 2 */\n      tag_432\n      swap2\n      swap1\n      tag_17\n      jump\t// in\n    tag_432:\n        /* \"wwcc-contracts/contracts/wwccPool.sol\":11171:11201  new bytes(2 + data.length * 2) */\n      0xffffffffffffffff\n      dup2\n      gt\n      iszero\n      tag_433\n      jumpi\n      tag_434\n      tag_396\n      jump\t// in\n    tag_434:\n    tag_433:\n      mload(0x40)\n      swap1\n      dup1\n      dup3\n      mstore\n      dup1\n      0x1f\n      add\n      not(0x1f)\n      and\n      0x20\n      add\n      dup3\n      add\n      0x40\n      mstore\n      dup1\n      iszero\n      tag_435\n      jumpi\n      dup2\n      0x20\n      add\n      0x01\n      dup3\n      mul\n      dup1\n      calldatasize\n      dup4\n      calldatacopy\n      dup1\n      dup3\n      add\n      swap2\n      pop\n      pop\n      swap1\n      pop\n    tag_435:\n      pop\n        /* \"wwcc-contracts/contracts/wwccPool.sol\":11152:11201  bytes memory str = new bytes(2 + data.length * 2) */\n      swap1\n      pop\n        /* \"wwcc-contracts/contracts/wwccPool.sol\":11215:11227  str[0] = \"0\" */\n      0x3000000000000000000000000000000000000000000000000000000000000000\n        /* \"wwcc-contracts/contracts/wwccPool.sol\":11215:11218  str */\n      dup2\n        /* \"wwcc-contracts/contracts/wwccPool.sol\":11219:11220  0 */\n      0x00\n        /* \"wwcc-contracts/contracts/wwccPool.sol\":11215:11221  str[0] */\n      dup2\n      mload\n      dup2\n      lt\n      tag_436\n      jumpi\n      tag_437\n      tag_291\n      jump\t// in\n    tag_437:\n    tag_436:\n      0x20\n      add\n      add\n        /* \"wwcc-contracts/contracts/wwccPool.sol\":11215:11227  str[0] = \"0\" */\n      swap1\n      not(0xffffffffffffffffffffffffffffffffffffffffffffffffffffffffffffff)\n      and\n      swap1\n      dup2\n      0x00\n      byte\n      swap1\n      mstore8\n      pop\n        /* \"wwcc-contracts/contracts/wwccPool.sol\":11241:11253  str[1] = \"x\" */\n      0x7800000000000000000000000000000000000000000000000000000000000000\n        /* \"wwcc-contracts/contracts/wwccPool.sol\":11241:11244  str */\n      dup2\n        /* \"wwcc-contracts/contracts/wwccPool.sol\":11245:11246  1 */\n      0x01\n        /* \"wwcc-contracts/contracts/wwccPool.sol\":11241:11247  str[1] */\n      dup2\n      mload\n      dup2\n      lt\n      tag_438\n      jumpi\n      tag_439\n      tag_291\n      jump\t// in\n    tag_439:\n    tag_438:\n      0x20\n      add\n      add\n        /* \"wwcc-contracts/contracts/wwccPool.sol\":11241:11253  str[1] = \"x\" */\n      swap1\n      not(0xffffffffffffffffffffffffffffffffffffffffffffffffffffffffffffff)\n      and\n      swap1\n      dup2\n      0x00\n      byte\n      swap1\n      mstore8\n      pop\n        /* \"wwcc-contracts/contracts/wwccPool.sol\":11271:11277  uint i */\n      0x00\n        /* \"wwcc-contracts/contracts/wwccPool.sol\":11267:11458  for(uint i =0;i < data.length;i++){... */\n    tag_440:\n        /* \"wwcc-contracts/contracts/wwccPool.sol\":11285:11289  data */\n      dup5\n        /* \"wwcc-contracts/contracts/wwccPool.sol\":11285:11296  data.length */\n      mload\n        /* \"wwcc-contracts/contracts/wwccPool.sol\":11281:11282  i */\n      dup2\n        /* \"wwcc-contracts/contracts/wwccPool.sol\":11281:11296  i < data.length */\n      lt\n        /* \"wwcc-contracts/contracts/wwccPool.sol\":11267:11458  for(uint i =0;i < data.length;i++){... */\n      iszero\n      tag_441\n      jumpi\n        /* \"wwcc-contracts/contracts/wwccPool.sol\":11336:11344  alphabet */\n      dup3\n        /* \"wwcc-contracts/contracts/wwccPool.sol\":11367:11368  4 */\n      0x04\n        /* \"wwcc-contracts/contracts/wwccPool.sol\":11356:11360  data */\n      dup7\n        /* \"wwcc-contracts/contracts/wwccPool.sol\":11361:11362  i */\n      dup4\n        /* \"wwcc-contracts/contracts/wwccPool.sol\":11356:11363  data[i] */\n      dup2\n      mload\n      dup2\n      lt\n      tag_443\n      jumpi\n      tag_444\n      tag_291\n      jump\t// in\n    tag_444:\n    tag_443:\n      0x20\n      add\n      add\n      mload\n      0xf8\n      shr\n      0xf8\n      shl\n        /* \"wwcc-contracts/contracts/wwccPool.sol\":11356:11368  data[i] >> 4 */\n      not(0xffffffffffffffffffffffffffffffffffffffffffffffffffffffffffffff)\n      and\n      swap1\n      shr\n        /* \"wwcc-contracts/contracts/wwccPool.sol\":11350:11369  uint8(data[i] >> 4) */\n      0xf8\n      shr\n        /* \"wwcc-contracts/contracts/wwccPool.sol\":11345:11370  uint(uint8(data[i] >> 4)) */\n      0xff\n      and\n        /* \"wwcc-contracts/contracts/wwccPool.sol\":11336:11371  alphabet[uint(uint8(data[i] >> 4))] */\n      dup2\n      mload\n      dup2\n      lt\n      tag_445\n      jumpi\n      tag_446\n      tag_291\n      jump\t// in\n    tag_446:\n    tag_445:\n      0x20\n      add\n      add\n      mload\n      0xf8\n      shr\n      0xf8\n      shl\n        /* \"wwcc-contracts/contracts/wwccPool.sol\":11319:11322  str */\n      dup3\n        /* \"wwcc-contracts/contracts/wwccPool.sol\":11331:11332  2 */\n      0x02\n        /* \"wwcc-contracts/contracts/wwccPool.sol\":11327:11328  i */\n      dup4\n        /* \"wwcc-contracts/contracts/wwccPool.sol\":11327:11332  i * 2 */\n      tag_447\n      swap2\n      swap1\n      tag_313\n      jump\t// in\n    tag_447:\n        /* \"wwcc-contracts/contracts/wwccPool.sol\":11323:11324  2 */\n      0x02\n        /* \"wwcc-contracts/contracts/wwccPool.sol\":11323:11332  2 + i * 2 */\n      tag_448\n      swap2\n      swap1\n      tag_17\n      jump\t// in\n    tag_448:\n        /* \"wwcc-contracts/contracts/wwccPool.sol\":11319:11333  str[2 + i * 2] */\n      dup2\n      mload\n      dup2\n      lt\n      tag_449\n      jumpi\n      tag_450\n      tag_291\n      jump\t// in\n    tag_450:\n    tag_449:\n      0x20\n      add\n      add\n        /* \"wwcc-contracts/contracts/wwccPool.sol\":11319:11371  str[2 + i * 2] = alphabet[uint(uint8(data[i] >> 4))] */\n      swap1\n      not(0xffffffffffffffffffffffffffffffffffffffffffffffffffffffffffffff)\n      and\n      swap1\n      dup2\n      0x00\n      byte\n      swap1\n      mstore8\n      pop\n        /* \"wwcc-contracts/contracts/wwccPool.sol\":11406:11414  alphabet */\n      dup3\n        /* \"wwcc-contracts/contracts/wwccPool.sol\":11436:11440  0x0f */\n      0x0f\n        /* \"wwcc-contracts/contracts/wwccPool.sol\":11426:11440  data[i] & 0x0f */\n      0xf8\n      shl\n        /* \"wwcc-contracts/contracts/wwccPool.sol\":11426:11430  data */\n      dup7\n        /* \"wwcc-contracts/contracts/wwccPool.sol\":11431:11432  i */\n      dup4\n        /* \"wwcc-contracts/contracts/wwccPool.sol\":11426:11433  data[i] */\n      dup2\n      mload\n      dup2\n      lt\n      tag_451\n      jumpi\n      tag_452\n      tag_291\n      jump\t// in\n    tag_452:\n    tag_451:\n      0x20\n      add\n      add\n      mload\n      0xf8\n      shr\n      0xf8\n      shl\n        /* \"wwcc-contracts/contracts/wwccPool.sol\":11426:11440  data[i] & 0x0f */\n      and\n        /* \"wwcc-contracts/contracts/wwccPool.sol\":11420:11441  uint8(data[i] & 0x0f) */\n      0xf8\n      shr\n        /* \"wwcc-contracts/contracts/wwccPool.sol\":11415:11442  uint(uint8(data[i] & 0x0f)) */\n      0xff\n      and\n        /* \"wwcc-contracts/contracts/wwccPool.sol\":11406:11443  alphabet[uint(uint8(data[i] & 0x0f))] */\n      dup2\n      mload\n      dup2\n      lt\n      tag_453\n      jumpi\n      tag_454\n      tag_291\n      jump\t// in\n    tag_454:\n    tag_453:\n      0x20\n      add\n      add\n      mload\n      0xf8\n      shr\n      0xf8\n      shl\n        /* \"wwcc-contracts/contracts/wwccPool.sol\":11389:11392  str */\n      dup3\n        /* \"wwcc-contracts/contracts/wwccPool.sol\":11401:11402  2 */\n      0x02\n        /* \"wwcc-contracts/contracts/wwccPool.sol\":11397:11398  i */\n      dup4\n        /* \"wwcc-contracts/contracts/wwccPool.sol\":11397:11402  i * 2 */\n      tag_455\n      swap2\n      swap1\n      tag_313\n      jump\t// in\n    tag_455:\n        /* \"wwcc-contracts/contracts/wwccPool.sol\":11393:11394  3 */\n      0x03\n        /* \"wwcc-contracts/contracts/wwccPool.sol\":11393:11402  3 + i * 2 */\n      tag_456\n      swap2\n      swap1\n      tag_17\n      jump\t// in\n    tag_456:\n        /* \"wwcc-contracts/contracts/wwccPool.sol\":11389:11403  str[3 + i * 2] */\n      dup2\n      mload\n      dup2\n      lt\n      tag_457\n      jumpi\n      tag_458\n      tag_291\n      jump\t// in\n    tag_458:\n    tag_457:\n      0x20\n      add\n      add\n        /* \"wwcc-contracts/contracts/wwccPool.sol\":11389:11443  str[3 + i * 2] = alphabet[uint(uint8(data[i] & 0x0f))] */\n      swap1\n      not(0xffffffffffffffffffffffffffffffffffffffffffffffffffffffffffffff)\n      and\n      swap1\n      dup2\n      0x00\n      byte\n      swap1\n      mstore8\n      pop\n        /* \"wwcc-contracts/contracts/wwccPool.sol\":11297:11300  i++ */\n      dup1\n      dup1\n      tag_459\n      swap1\n      tag_356\n      jump\t// in\n    tag_459:\n      swap2\n      pop\n      pop\n        /* \"wwcc-contracts/contracts/wwccPool.sol\":11267:11458  for(uint i =0;i < data.length;i++){... */\n      jump(tag_440)\n    tag_441:\n      pop\n        /* \"wwcc-contracts/contracts/wwccPool.sol\":11485:11488  str */\n      dup1\n        /* \"wwcc-contracts/contracts/wwccPool.sol\":11471:11489  return string(str) */\n      swap3\n      pop\n      pop\n      pop\n        /* \"wwcc-contracts/contracts/wwccPool.sol\":11009:11496  function toString(bytes memory data) internal pure returns(string memory){... */\n      swap2\n      swap1\n      pop\n      jump\t// out\n    tag_159:\n      dup3\n      dup1\n      sload\n      tag_460\n      swap1\n      tag_85\n      jump\t// in\n    tag_460:\n      swap1\n      0x00\n      mstore\n      keccak256(0x00, 0x20)\n      swap1\n      0x1f\n      add\n      0x20\n      swap1\n      div\n      dup2\n      add\n      swap3\n      dup3\n      tag_462\n      jumpi\n      0x00\n      dup6\n      sstore\n      jump(tag_461)\n    tag_462:\n      dup3\n      0x1f\n      lt\n      tag_463\n      jumpi\n      dup1\n      mload\n      not(0xff)\n      and\n      dup4\n      dup1\n      add\n      or\n      dup6\n      sstore\n      jump(tag_461)\n    tag_463:\n      dup3\n      dup1\n      add\n      0x01\n      add\n      dup6\n      sstore\n      dup3\n      iszero\n      tag_461\n      jumpi\n      swap2\n      dup3\n      add\n    tag_464:\n      dup3\n      dup2\n      gt\n      iszero\n      tag_465\n      jumpi\n      dup3\n      mload\n      dup3\n      sstore\n      swap2\n      0x20\n      add\n      swap2\n      swap1\n      0x01\n      add\n      swap1\n      jump(tag_464)\n    tag_465:\n    tag_461:\n      pop\n      swap1\n      pop\n      tag_466\n      swap2\n      swap1\n      tag_467\n      jump\t// in\n    tag_466:\n      pop\n      swap1\n      jump\t// out\n    tag_467:\n    tag_468:\n      dup1\n      dup3\n      gt\n      iszero\n      tag_469\n      jumpi\n      0x00\n      dup2\n      0x00\n      swap1\n      sstore\n      pop\n      0x01\n      add\n      jump(tag_468)\n    tag_469:\n      pop\n      swap1\n      jump\t// out\n        /* \"#utility.yul\":7:419   */\n    tag_471:\n        /* \"#utility.yul\":85:90   */\n      0x00\n        /* \"#utility.yul\":110:176   */\n      tag_473\n        /* \"#utility.yul\":126:175   */\n      tag_474\n        /* \"#utility.yul\":168:174   */\n      dup5\n        /* \"#utility.yul\":126:175   */\n      tag_475\n      jump\t// in\n    tag_474:\n        /* \"#utility.yul\":110:176   */\n      tag_476\n      jump\t// in\n    tag_473:\n        /* \"#utility.yul\":101:176   */\n      swap1\n      pop\n        /* \"#utility.yul\":199:205   */\n      dup3\n        /* \"#utility.yul\":192:197   */\n      dup2\n        /* \"#utility.yul\":185:206   */\n      mstore\n        /* \"#utility.yul\":237:241   */\n      0x20\n        /* \"#utility.yul\":230:235   */\n      dup2\n        /* \"#utility.yul\":226:242   */\n      add\n        /* \"#utility.yul\":275:278   */\n      dup5\n        /* \"#utility.yul\":266:272   */\n      dup5\n        /* \"#utility.yul\":261:264   */\n      dup5\n        /* \"#utility.yul\":257:273   */\n      add\n        /* \"#utility.yul\":254:279   */\n      gt\n        /* \"#utility.yul\":251:363   */\n      iszero\n      tag_477\n      jumpi\n        /* \"#utility.yul\":282:361   */\n      tag_478\n      tag_479\n      jump\t// in\n    tag_478:\n        /* \"#utility.yul\":251:363   */\n    tag_477:\n        /* \"#utility.yul\":372:413   */\n      tag_480\n        /* \"#utility.yul\":406:412   */\n      dup5\n        /* \"#utility.yul\":401:404   */\n      dup3\n        /* \"#utility.yul\":396:399   */\n      dup6\n        /* \"#utility.yul\":372:413   */\n      tag_481\n      jump\t// in\n    tag_480:\n        /* \"#utility.yul\":91:419   */\n      pop\n        /* \"#utility.yul\":7:419   */\n      swap4\n      swap3\n      pop\n      pop\n      pop\n      jump\t// out\n        /* \"#utility.yul\":425:564   */\n    tag_482:\n        /* \"#utility.yul\":471:476   */\n      0x00\n        /* \"#utility.yul\":509:515   */\n      dup2\n        /* \"#utility.yul\":496:516   */\n      calldataload\n        /* \"#utility.yul\":487:516   */\n      swap1\n      pop\n        /* \"#utility.yul\":525:558   */\n      tag_484\n        /* \"#utility.yul\":552:557   */\n      dup2\n        /* \"#utility.yul\":525:558   */\n      tag_485\n      jump\t// in\n    tag_484:\n        /* \"#utility.yul\":425:564   */\n      swap3\n      swap2\n      pop\n      pop\n      jump\t// out\n        /* \"#utility.yul\":570:703   */\n    tag_486:\n        /* \"#utility.yul\":613:618   */\n      0x00\n        /* \"#utility.yul\":651:657   */\n      dup2\n        /* \"#utility.yul\":638:658   */\n      calldataload\n        /* \"#utility.yul\":629:658   */\n      swap1\n      pop\n        /* \"#utility.yul\":667:697   */\n      tag_488\n        /* \"#utility.yul\":691:696   */\n      dup2\n        /* \"#utility.yul\":667:697   */\n      tag_489\n      jump\t// in\n    tag_488:\n        /* \"#utility.yul\":570:703   */\n      swap3\n      swap2\n      pop\n      pop\n      jump\t// out\n        /* \"#utility.yul\":709:848   */\n    tag_490:\n        /* \"#utility.yul\":755:760   */\n      0x00\n        /* \"#utility.yul\":793:799   */\n      dup2\n        /* \"#utility.yul\":780:800   */\n      calldataload\n        /* \"#utility.yul\":771:800   */\n      swap1\n      pop\n        /* \"#utility.yul\":809:842   */\n      tag_492\n        /* \"#utility.yul\":836:841   */\n      dup2\n        /* \"#utility.yul\":809:842   */\n      tag_493\n      jump\t// in\n    tag_492:\n        /* \"#utility.yul\":709:848   */\n      swap3\n      swap2\n      pop\n      pop\n      jump\t// out\n        /* \"#utility.yul\":868:1208   */\n    tag_494:\n        /* \"#utility.yul\":924:929   */\n      0x00\n        /* \"#utility.yul\":973:976   */\n      dup3\n        /* \"#utility.yul\":966:970   */\n      0x1f\n        /* \"#utility.yul\":958:964   */\n      dup4\n        /* \"#utility.yul\":954:971   */\n      add\n        /* \"#utility.yul\":950:977   */\n      slt\n        /* \"#utility.yul\":940:1062   */\n      tag_496\n      jumpi\n        /* \"#utility.yul\":981:1060   */\n      tag_497\n      tag_498\n      jump\t// in\n    tag_497:\n        /* \"#utility.yul\":940:1062   */\n    tag_496:\n        /* \"#utility.yul\":1098:1104   */\n      dup2\n        /* \"#utility.yul\":1085:1105   */\n      calldataload\n        /* \"#utility.yul\":1123:1202   */\n      tag_499\n        /* \"#utility.yul\":1198:1201   */\n      dup5\n        /* \"#utility.yul\":1190:1196   */\n      dup3\n        /* \"#utility.yul\":1183:1187   */\n      0x20\n        /* \"#utility.yul\":1175:1181   */\n      dup7\n        /* \"#utility.yul\":1171:1188   */\n      add\n        /* \"#utility.yul\":1123:1202   */\n      tag_471\n      jump\t// in\n    tag_499:\n        /* \"#utility.yul\":1114:1202   */\n      swap2\n      pop\n        /* \"#utility.yul\":930:1208   */\n      pop\n        /* \"#utility.yul\":868:1208   */\n      swap3\n      swap2\n      pop\n      pop\n      jump\t// out\n        /* \"#utility.yul\":1214:1353   */\n    tag_500:\n        /* \"#utility.yul\":1260:1265   */\n      0x00\n        /* \"#utility.yul\":1298:1304   */\n      dup2\n        /* \"#utility.yul\":1285:1305   */\n      calldataload\n        /* \"#utility.yul\":1276:1305   */\n      swap1\n      pop\n        /* \"#utility.yul\":1314:1347   */\n      tag_502\n        /* \"#utility.yul\":1341:1346   */\n      dup2\n        /* \"#utility.yul\":1314:1347   */\n      tag_503\n      jump\t// in\n    tag_502:\n        /* \"#utility.yul\":1214:1353   */\n      swap3\n      swap2\n      pop\n      pop\n      jump\t// out\n        /* \"#utility.yul\":1359:1833   */\n    tag_23:\n        /* \"#utility.yul\":1427:1433   */\n      0x00\n        /* \"#utility.yul\":1435:1441   */\n      dup1\n        /* \"#utility.yul\":1484:1486   */\n      0x40\n        /* \"#utility.yul\":1472:1481   */\n      dup4\n        /* \"#utility.yul\":1463:1470   */\n      dup6\n        /* \"#utility.yul\":1459:1482   */\n      sub\n        /* \"#utility.yul\":1455:1487   */\n      slt\n        /* \"#utility.yul\":1452:1571   */\n      iszero\n      tag_505\n      jumpi\n        /* \"#utility.yul\":1490:1569   */\n      tag_506\n      tag_507\n      jump\t// in\n    tag_506:\n        /* \"#utility.yul\":1452:1571   */\n    tag_505:\n        /* \"#utility.yul\":1610:1611   */\n      0x00\n        /* \"#utility.yul\":1635:1688   */\n      tag_508\n        /* \"#utility.yul\":1680:1687   */\n      dup6\n        /* \"#utility.yul\":1671:1677   */\n      dup3\n        /* \"#utility.yul\":1660:1669   */\n      dup7\n        /* \"#utility.yul\":1656:1678   */\n      add\n        /* \"#utility.yul\":1635:1688   */\n      tag_482\n      jump\t// in\n    tag_508:\n        /* \"#utility.yul\":1625:1688   */\n      swap3\n      pop\n        /* \"#utility.yul\":1581:1698   */\n      pop\n        /* \"#utility.yul\":1737:1739   */\n      0x20\n        /* \"#utility.yul\":1763:1816   */\n      tag_509\n        /* \"#utility.yul\":1808:1815   */\n      dup6\n        /* \"#utility.yul\":1799:1805   */\n      dup3\n        /* \"#utility.yul\":1788:1797   */\n      dup7\n        /* \"#utility.yul\":1784:1806   */\n      add\n        /* \"#utility.yul\":1763:1816   */\n      tag_490\n      jump\t// in\n    tag_509:\n        /* \"#utility.yul\":1753:1816   */\n      swap2\n      pop\n        /* \"#utility.yul\":1708:1826   */\n      pop\n        /* \"#utility.yul\":1359:1833   */\n      swap3\n      pop\n      swap3\n      swap1\n      pop\n      jump\t// out\n        /* \"#utility.yul\":1839:2313   */\n    tag_64:\n        /* \"#utility.yul\":1907:1913   */\n      0x00\n        /* \"#utility.yul\":1915:1921   */\n      dup1\n        /* \"#utility.yul\":1964:1966   */\n      0x40\n        /* \"#utility.yul\":1952:1961   */\n      dup4\n        /* \"#utility.yul\":1943:1950   */\n      dup6\n        /* \"#utility.yul\":1939:1962   */\n      sub\n        /* \"#utility.yul\":1935:1967   */\n      slt\n        /* \"#utility.yul\":1932:2051   */\n      iszero\n      tag_511\n      jumpi\n        /* \"#utility.yul\":1970:2049   */\n      tag_512\n      tag_507\n      jump\t// in\n    tag_512:\n        /* \"#utility.yul\":1932:2051   */\n    tag_511:\n        /* \"#utility.yul\":2090:2091   */\n      0x00\n        /* \"#utility.yul\":2115:2168   */\n      tag_513\n        /* \"#utility.yul\":2160:2167   */\n      dup6\n        /* \"#utility.yul\":2151:2157   */\n      dup3\n        /* \"#utility.yul\":2140:2149   */\n      dup7\n        /* \"#utility.yul\":2136:2158   */\n      add\n        /* \"#utility.yul\":2115:2168   */\n      tag_482\n      jump\t// in\n    tag_513:\n        /* \"#utility.yul\":2105:2168   */\n      swap3\n      pop\n        /* \"#utility.yul\":2061:2178   */\n      pop\n        /* \"#utility.yul\":2217:2219   */\n      0x20\n        /* \"#utility.yul\":2243:2296   */\n      tag_514\n        /* \"#utility.yul\":2288:2295   */\n      dup6\n        /* \"#utility.yul\":2279:2285   */\n      dup3\n        /* \"#utility.yul\":2268:2277   */\n      dup7\n        /* \"#utility.yul\":2264:2286   */\n      add\n        /* \"#utility.yul\":2243:2296   */\n      tag_500\n      jump\t// in\n    tag_514:\n        /* \"#utility.yul\":2233:2296   */\n      swap2\n      pop\n        /* \"#utility.yul\":2188:2306   */\n      pop\n        /* \"#utility.yul\":1839:2313   */\n      swap3\n      pop\n      swap3\n      swap1\n      pop\n      jump\t// out\n        /* \"#utility.yul\":2319:3376   */\n    tag_54:\n        /* \"#utility.yul\":2423:2429   */\n      0x00\n        /* \"#utility.yul\":2431:2437   */\n      dup1\n        /* \"#utility.yul\":2439:2445   */\n      0x00\n        /* \"#utility.yul\":2447:2453   */\n      dup1\n        /* \"#utility.yul\":2455:2461   */\n      0x00\n        /* \"#utility.yul\":2463:2469   */\n      dup1\n        /* \"#utility.yul\":2512:2515   */\n      0xc0\n        /* \"#utility.yul\":2500:2509   */\n      dup8\n        /* \"#utility.yul\":2491:2498   */\n      dup10\n        /* \"#utility.yul\":2487:2510   */\n      sub\n        /* \"#utility.yul\":2483:2516   */\n      slt\n        /* \"#utility.yul\":2480:2600   */\n      iszero\n      tag_516\n      jumpi\n        /* \"#utility.yul\":2519:2598   */\n      tag_517\n      tag_507\n      jump\t// in\n    tag_517:\n        /* \"#utility.yul\":2480:2600   */\n    tag_516:\n        /* \"#utility.yul\":2639:2640   */\n      0x00\n        /* \"#utility.yul\":2664:2717   */\n      tag_518\n        /* \"#utility.yul\":2709:2716   */\n      dup10\n        /* \"#utility.yul\":2700:2706   */\n      dup3\n        /* \"#utility.yul\":2689:2698   */\n      dup11\n        /* \"#utility.yul\":2685:2707   */\n      add\n        /* \"#utility.yul\":2664:2717   */\n      tag_482\n      jump\t// in\n    tag_518:\n        /* \"#utility.yul\":2654:2717   */\n      swap7\n      pop\n        /* \"#utility.yul\":2610:2727   */\n      pop\n        /* \"#utility.yul\":2766:2768   */\n      0x20\n        /* \"#utility.yul\":2792:2845   */\n      tag_519\n        /* \"#utility.yul\":2837:2844   */\n      dup10\n        /* \"#utility.yul\":2828:2834   */\n      dup3\n        /* \"#utility.yul\":2817:2826   */\n      dup11\n        /* \"#utility.yul\":2813:2835   */\n      add\n        /* \"#utility.yul\":2792:2845   */\n      tag_500\n      jump\t// in\n    tag_519:\n        /* \"#utility.yul\":2782:2845   */\n      swap6\n      pop\n        /* \"#utility.yul\":2737:2855   */\n      pop\n        /* \"#utility.yul\":2894:2896   */\n      0x40\n        /* \"#utility.yul\":2920:2973   */\n      tag_520\n        /* \"#utility.yul\":2965:2972   */\n      dup10\n        /* \"#utility.yul\":2956:2962   */\n      dup3\n        /* \"#utility.yul\":2945:2954   */\n      dup11\n        /* \"#utility.yul\":2941:2963   */\n      add\n        /* \"#utility.yul\":2920:2973   */\n      tag_490\n      jump\t// in\n    tag_520:\n        /* \"#utility.yul\":2910:2973   */\n      swap5\n      pop\n        /* \"#utility.yul\":2865:2983   */\n      pop\n        /* \"#utility.yul\":3022:3024   */\n      0x60\n        /* \"#utility.yul\":3048:3101   */\n      tag_521\n        /* \"#utility.yul\":3093:3100   */\n      dup10\n        /* \"#utility.yul\":3084:3090   */\n      dup3\n        /* \"#utility.yul\":3073:3082   */\n      dup11\n        /* \"#utility.yul\":3069:3091   */\n      add\n        /* \"#utility.yul\":3048:3101   */\n      tag_500\n      jump\t// in\n    tag_521:\n        /* \"#utility.yul\":3038:3101   */\n      swap4\n      pop\n        /* \"#utility.yul\":2993:3111   */\n      pop\n        /* \"#utility.yul\":3150:3153   */\n      0x80\n        /* \"#utility.yul\":3177:3230   */\n      tag_522\n        /* \"#utility.yul\":3222:3229   */\n      dup10\n        /* \"#utility.yul\":3213:3219   */\n      dup3\n        /* \"#utility.yul\":3202:3211   */\n      dup11\n        /* \"#utility.yul\":3198:3220   */\n      add\n        /* \"#utility.yul\":3177:3230   */\n      tag_500\n      jump\t// in\n    tag_522:\n        /* \"#utility.yul\":3167:3230   */\n      swap3\n      pop\n        /* \"#utility.yul\":3121:3240   */\n      pop\n        /* \"#utility.yul\":3279:3282   */\n      0xa0\n        /* \"#utility.yul\":3306:3359   */\n      tag_523\n        /* \"#utility.yul\":3351:3358   */\n      dup10\n        /* \"#utility.yul\":3342:3348   */\n      dup3\n        /* \"#utility.yul\":3331:3340   */\n      dup11\n        /* \"#utility.yul\":3327:3349   */\n      add\n        /* \"#utility.yul\":3306:3359   */\n      tag_500\n      jump\t// in\n    tag_523:\n        /* \"#utility.yul\":3296:3359   */\n      swap2\n      pop\n        /* \"#utility.yul\":3250:3369   */\n      pop\n        /* \"#utility.yul\":2319:3376   */\n      swap3\n      swap6\n      pop\n      swap3\n      swap6\n      pop\n      swap3\n      swap6\n      jump\t// out\n        /* \"#utility.yul\":3382:3711   */\n    tag_48:\n        /* \"#utility.yul\":3441:3447   */\n      0x00\n        /* \"#utility.yul\":3490:3492   */\n      0x20\n        /* \"#utility.yul\":3478:3487   */\n      dup3\n        /* \"#utility.yul\":3469:3476   */\n      dup5\n        /* \"#utility.yul\":3465:3488   */\n      sub\n        /* \"#utility.yul\":3461:3493   */\n      slt\n        /* \"#utility.yul\":3458:3577   */\n      iszero\n      tag_525\n      jumpi\n        /* \"#utility.yul\":3496:3575   */\n      tag_526\n      tag_507\n      jump\t// in\n    tag_526:\n        /* \"#utility.yul\":3458:3577   */\n    tag_525:\n        /* \"#utility.yul\":3616:3617   */\n      0x00\n        /* \"#utility.yul\":3641:3694   */\n      tag_527\n        /* \"#utility.yul\":3686:3693   */\n      dup5\n        /* \"#utility.yul\":3677:3683   */\n      dup3\n        /* \"#utility.yul\":3666:3675   */\n      dup6\n        /* \"#utility.yul\":3662:3684   */\n      add\n        /* \"#utility.yul\":3641:3694   */\n      tag_490\n      jump\t// in\n    tag_527:\n        /* \"#utility.yul\":3631:3694   */\n      swap2\n      pop\n        /* \"#utility.yul\":3587:3704   */\n      pop\n        /* \"#utility.yul\":3382:3711   */\n      swap3\n      swap2\n      pop\n      pop\n      jump\t// out\n        /* \"#utility.yul\":3717:4191   */\n    tag_30:\n        /* \"#utility.yul\":3785:3791   */\n      0x00\n        /* \"#utility.yul\":3793:3799   */\n      dup1\n        /* \"#utility.yul\":3842:3844   */\n      0x40\n        /* \"#utility.yul\":3830:3839   */\n      dup4\n        /* \"#utility.yul\":3821:3828   */\n      dup6\n        /* \"#utility.yul\":3817:3840   */\n      sub\n        /* \"#utility.yul\":3813:3845   */\n      slt\n        /* \"#utility.yul\":3810:3929   */\n      iszero\n      tag_529\n      jumpi\n        /* \"#utility.yul\":3848:3927   */\n      tag_530\n      tag_507\n      jump\t// in\n    tag_530:\n        /* \"#utility.yul\":3810:3929   */\n    tag_529:\n        /* \"#utility.yul\":3968:3969   */\n      0x00\n        /* \"#utility.yul\":3993:4046   */\n      tag_531\n        /* \"#utility.yul\":4038:4045   */\n      dup6\n        /* \"#utility.yul\":4029:4035   */\n      dup3\n        /* \"#utility.yul\":4018:4027   */\n      dup7\n        /* \"#utility.yul\":4014:4036   */\n      add\n        /* \"#utility.yul\":3993:4046   */\n      tag_490\n      jump\t// in\n    tag_531:\n        /* \"#utility.yul\":3983:4046   */\n      swap3\n      pop\n        /* \"#utility.yul\":3939:4056   */\n      pop\n        /* \"#utility.yul\":4095:4097   */\n      0x20\n        /* \"#utility.yul\":4121:4174   */\n      tag_532\n        /* \"#utility.yul\":4166:4173   */\n      dup6\n        /* \"#utility.yul\":4157:4163   */\n      dup3\n        /* \"#utility.yul\":4146:4155   */\n      dup7\n        /* \"#utility.yul\":4142:4164   */\n      add\n        /* \"#utility.yul\":4121:4174   */\n      tag_500\n      jump\t// in\n    tag_532:\n        /* \"#utility.yul\":4111:4174   */\n      swap2\n      pop\n        /* \"#utility.yul\":4066:4184   */\n      pop\n        /* \"#utility.yul\":3717:4191   */\n      swap3\n      pop\n      swap3\n      swap1\n      pop\n      jump\t// out\n        /* \"#utility.yul\":4197:4962   */\n    tag_59:\n        /* \"#utility.yul\":4283:4289   */\n      0x00\n        /* \"#utility.yul\":4291:4297   */\n      dup1\n        /* \"#utility.yul\":4299:4305   */\n      0x00\n        /* \"#utility.yul\":4307:4313   */\n      dup1\n        /* \"#utility.yul\":4356:4359   */\n      0x80\n        /* \"#utility.yul\":4344:4353   */\n      dup6\n        /* \"#utility.yul\":4335:4342   */\n      dup8\n        /* \"#utility.yul\":4331:4354   */\n      sub\n        /* \"#utility.yul\":4327:4360   */\n      slt\n        /* \"#utility.yul\":4324:4444   */\n      iszero\n      tag_534\n      jumpi\n        /* \"#utility.yul\":4363:4442   */\n      tag_535\n      tag_507\n      jump\t// in\n    tag_535:\n        /* \"#utility.yul\":4324:4444   */\n    tag_534:\n        /* \"#utility.yul\":4483:4484   */\n      0x00\n        /* \"#utility.yul\":4508:4561   */\n      tag_536\n        /* \"#utility.yul\":4553:4560   */\n      dup8\n        /* \"#utility.yul\":4544:4550   */\n      dup3\n        /* \"#utility.yul\":4533:4542   */\n      dup9\n        /* \"#utility.yul\":4529:4551   */\n      add\n        /* \"#utility.yul\":4508:4561   */\n      tag_490\n      jump\t// in\n    tag_536:\n        /* \"#utility.yul\":4498:4561   */\n      swap5\n      pop\n        /* \"#utility.yul\":4454:4571   */\n      pop\n        /* \"#utility.yul\":4610:4612   */\n      0x20\n        /* \"#utility.yul\":4636:4689   */\n      tag_537\n        /* \"#utility.yul\":4681:4688   */\n      dup8\n        /* \"#utility.yul\":4672:4678   */\n      dup3\n        /* \"#utility.yul\":4661:4670   */\n      dup9\n        /* \"#utility.yul\":4657:4679   */\n      add\n        /* \"#utility.yul\":4636:4689   */\n      tag_500\n      jump\t// in\n    tag_537:\n        /* \"#utility.yul\":4626:4689   */\n      swap4\n      pop\n        /* \"#utility.yul\":4581:4699   */\n      pop\n        /* \"#utility.yul\":4738:4740   */\n      0x40\n        /* \"#utility.yul\":4764:4817   */\n      tag_538\n        /* \"#utility.yul\":4809:4816   */\n      dup8\n        /* \"#utility.yul\":4800:4806   */\n      dup3\n        /* \"#utility.yul\":4789:4798   */\n      dup9\n        /* \"#utility.yul\":4785:4807   */\n      add\n        /* \"#utility.yul\":4764:4817   */\n      tag_500\n      jump\t// in\n    tag_538:\n        /* \"#utility.yul\":4754:4817   */\n      swap3\n      pop\n        /* \"#utility.yul\":4709:4827   */\n      pop\n        /* \"#utility.yul\":4866:4868   */\n      0x60\n        /* \"#utility.yul\":4892:4945   */\n      tag_539\n        /* \"#utility.yul\":4937:4944   */\n      dup8\n        /* \"#utility.yul\":4928:4934   */\n      dup3\n        /* \"#utility.yul\":4917:4926   */\n      dup9\n        /* \"#utility.yul\":4913:4935   */\n      add\n        /* \"#utility.yul\":4892:4945   */\n      tag_500\n      jump\t// in\n    tag_539:\n        /* \"#utility.yul\":4882:4945   */\n      swap2\n      pop\n        /* \"#utility.yul\":4837:4955   */\n      pop\n        /* \"#utility.yul\":4197:4962   */\n      swap3\n      swap6\n      swap2\n      swap5\n      pop\n      swap3\n      pop\n      jump\t// out\n        /* \"#utility.yul\":4968:6267   */\n    tag_36:\n        /* \"#utility.yul\":5081:5087   */\n      0x00\n        /* \"#utility.yul\":5089:5095   */\n      dup1\n        /* \"#utility.yul\":5097:5103   */\n      0x00\n        /* \"#utility.yul\":5105:5111   */\n      dup1\n        /* \"#utility.yul\":5154:5157   */\n      0x80\n        /* \"#utility.yul\":5142:5151   */\n      dup6\n        /* \"#utility.yul\":5133:5140   */\n      dup8\n        /* \"#utility.yul\":5129:5152   */\n      sub\n        /* \"#utility.yul\":5125:5158   */\n      slt\n        /* \"#utility.yul\":5122:5242   */\n      iszero\n      tag_541\n      jumpi\n        /* \"#utility.yul\":5161:5240   */\n      tag_542\n      tag_507\n      jump\t// in\n    tag_542:\n        /* \"#utility.yul\":5122:5242   */\n    tag_541:\n        /* \"#utility.yul\":5309:5310   */\n      0x00\n        /* \"#utility.yul\":5298:5307   */\n      dup6\n        /* \"#utility.yul\":5294:5311   */\n      add\n        /* \"#utility.yul\":5281:5312   */\n      calldataload\n        /* \"#utility.yul\":5339:5357   */\n      0xffffffffffffffff\n        /* \"#utility.yul\":5331:5337   */\n      dup2\n        /* \"#utility.yul\":5328:5358   */\n      gt\n        /* \"#utility.yul\":5325:5442   */\n      iszero\n      tag_543\n      jumpi\n        /* \"#utility.yul\":5361:5440   */\n      tag_544\n      tag_545\n      jump\t// in\n    tag_544:\n        /* \"#utility.yul\":5325:5442   */\n    tag_543:\n        /* \"#utility.yul\":5466:5529   */\n      tag_546\n        /* \"#utility.yul\":5521:5528   */\n      dup8\n        /* \"#utility.yul\":5512:5518   */\n      dup3\n        /* \"#utility.yul\":5501:5510   */\n      dup9\n        /* \"#utility.yul\":5497:5519   */\n      add\n        /* \"#utility.yul\":5466:5529   */\n      tag_494\n      jump\t// in\n    tag_546:\n        /* \"#utility.yul\":5456:5529   */\n      swap5\n      pop\n        /* \"#utility.yul\":5252:5539   */\n      pop\n        /* \"#utility.yul\":5606:5608   */\n      0x20\n        /* \"#utility.yul\":5595:5604   */\n      dup6\n        /* \"#utility.yul\":5591:5609   */\n      add\n        /* \"#utility.yul\":5578:5610   */\n      calldataload\n        /* \"#utility.yul\":5637:5655   */\n      0xffffffffffffffff\n        /* \"#utility.yul\":5629:5635   */\n      dup2\n        /* \"#utility.yul\":5626:5656   */\n      gt\n        /* \"#utility.yul\":5623:5740   */\n      iszero\n      tag_547\n      jumpi\n        /* \"#utility.yul\":5659:5738   */\n      tag_548\n      tag_545\n      jump\t// in\n    tag_548:\n        /* \"#utility.yul\":5623:5740   */\n    tag_547:\n        /* \"#utility.yul\":5764:5827   */\n      tag_549\n        /* \"#utility.yul\":5819:5826   */\n      dup8\n        /* \"#utility.yul\":5810:5816   */\n      dup3\n        /* \"#utility.yul\":5799:5808   */\n      dup9\n        /* \"#utility.yul\":5795:5817   */\n      add\n        /* \"#utility.yul\":5764:5827   */\n      tag_494\n      jump\t// in\n    tag_549:\n        /* \"#utility.yul\":5754:5827   */\n      swap4\n      pop\n        /* \"#utility.yul\":5549:5837   */\n      pop\n        /* \"#utility.yul\":5904:5906   */\n      0x40\n        /* \"#utility.yul\":5893:5902   */\n      dup6\n        /* \"#utility.yul\":5889:5907   */\n      add\n        /* \"#utility.yul\":5876:5908   */\n      calldataload\n        /* \"#utility.yul\":5935:5953   */\n      0xffffffffffffffff\n        /* \"#utility.yul\":5927:5933   */\n      dup2\n        /* \"#utility.yul\":5924:5954   */\n      gt\n        /* \"#utility.yul\":5921:6038   */\n      iszero\n      tag_550\n      jumpi\n        /* \"#utility.yul\":5957:6036   */\n      tag_551\n      tag_545\n      jump\t// in\n    tag_551:\n        /* \"#utility.yul\":5921:6038   */\n    tag_550:\n        /* \"#utility.yul\":6062:6125   */\n      tag_552\n        /* \"#utility.yul\":6117:6124   */\n      dup8\n        /* \"#utility.yul\":6108:6114   */\n      dup3\n        /* \"#utility.yul\":6097:6106   */\n      dup9\n        /* \"#utility.yul\":6093:6115   */\n      add\n        /* \"#utility.yul\":6062:6125   */\n      tag_494\n      jump\t// in\n    tag_552:\n        /* \"#utility.yul\":6052:6125   */\n      swap3\n      pop\n        /* \"#utility.yul\":5847:6135   */\n      pop\n        /* \"#utility.yul\":6174:6176   */\n      0x60\n        /* \"#utility.yul\":6200:6250   */\n      tag_553\n        /* \"#utility.yul\":6242:6249   */\n      dup8\n        /* \"#utility.yul\":6233:6239   */\n      dup3\n        /* \"#utility.yul\":6222:6231   */\n      dup9\n        /* \"#utility.yul\":6218:6240   */\n      add\n        /* \"#utility.yul\":6200:6250   */\n      tag_486\n      jump\t// in\n    tag_553:\n        /* \"#utility.yul\":6190:6250   */\n      swap2\n      pop\n        /* \"#utility.yul\":6145:6260   */\n      pop\n        /* \"#utility.yul\":4968:6267   */\n      swap3\n      swap6\n      swap2\n      swap5\n      pop\n      swap3\n      pop\n      jump\t// out\n        /* \"#utility.yul\":6273:6391   */\n    tag_554:\n        /* \"#utility.yul\":6360:6384   */\n      tag_556\n        /* \"#utility.yul\":6378:6383   */\n      dup2\n        /* \"#utility.yul\":6360:6384   */\n      tag_557\n      jump\t// in\n    tag_556:\n        /* \"#utility.yul\":6355:6358   */\n      dup3\n        /* \"#utility.yul\":6348:6385   */\n      mstore\n        /* \"#utility.yul\":6273:6391   */\n      pop\n      pop\n      jump\t// out\n        /* \"#utility.yul\":6397:6506   */\n    tag_558:\n        /* \"#utility.yul\":6478:6499   */\n      tag_560\n        /* \"#utility.yul\":6493:6498   */\n      dup2\n        /* \"#utility.yul\":6478:6499   */\n      tag_561\n      jump\t// in\n    tag_560:\n        /* \"#utility.yul\":6473:6476   */\n      dup3\n        /* \"#utility.yul\":6466:6500   */\n      mstore\n        /* \"#utility.yul\":6397:6506   */\n      pop\n      pop\n      jump\t// out\n        /* \"#utility.yul\":6512:6630   */\n    tag_562:\n        /* \"#utility.yul\":6599:6623   */\n      tag_564\n        /* \"#utility.yul\":6617:6622   */\n      dup2\n        /* \"#utility.yul\":6599:6623   */\n      tag_565\n      jump\t// in\n    tag_564:\n        /* \"#utility.yul\":6594:6597   */\n      dup3\n        /* \"#utility.yul\":6587:6624   */\n      mstore\n        /* \"#utility.yul\":6512:6630   */\n      pop\n      pop\n      jump\t// out\n        /* \"#utility.yul\":6636:6793   */\n    tag_566:\n        /* \"#utility.yul\":6741:6786   */\n      tag_568\n        /* \"#utility.yul\":6761:6785   */\n      tag_569\n        /* \"#utility.yul\":6779:6784   */\n      dup3\n        /* \"#utility.yul\":6761:6785   */\n      tag_565\n      jump\t// in\n    tag_569:\n        /* \"#utility.yul\":6741:6786   */\n      tag_570\n      jump\t// in\n    tag_568:\n        /* \"#utility.yul\":6736:6739   */\n      dup3\n        /* \"#utility.yul\":6729:6787   */\n      mstore\n        /* \"#utility.yul\":6636:6793   */\n      pop\n      pop\n      jump\t// out\n        /* \"#utility.yul\":6799:7163   */\n    tag_571:\n        /* \"#utility.yul\":6887:6890   */\n      0x00\n        /* \"#utility.yul\":6915:6954   */\n      tag_573\n        /* \"#utility.yul\":6948:6953   */\n      dup3\n        /* \"#utility.yul\":6915:6954   */\n      tag_574\n      jump\t// in\n    tag_573:\n        /* \"#utility.yul\":6970:7041   */\n      tag_575\n        /* \"#utility.yul\":7034:7040   */\n      dup2\n        /* \"#utility.yul\":7029:7032   */\n      dup6\n        /* \"#utility.yul\":6970:7041   */\n      tag_576\n      jump\t// in\n    tag_575:\n        /* \"#utility.yul\":6963:7041   */\n      swap4\n      pop\n        /* \"#utility.yul\":7050:7102   */\n      tag_577\n        /* \"#utility.yul\":7095:7101   */\n      dup2\n        /* \"#utility.yul\":7090:7093   */\n      dup6\n        /* \"#utility.yul\":7083:7087   */\n      0x20\n        /* \"#utility.yul\":7076:7081   */\n      dup7\n        /* \"#utility.yul\":7072:7088   */\n      add\n        /* \"#utility.yul\":7050:7102   */\n      tag_578\n      jump\t// in\n    tag_577:\n        /* \"#utility.yul\":7127:7156   */\n      tag_579\n        /* \"#utility.yul\":7149:7155   */\n      dup2\n        /* \"#utility.yul\":7127:7156   */\n      tag_580\n      jump\t// in\n    tag_579:\n        /* \"#utility.yul\":7122:7125   */\n      dup5\n        /* \"#utility.yul\":7118:7157   */\n      add\n        /* \"#utility.yul\":7111:7157   */\n      swap2\n      pop\n        /* \"#utility.yul\":6891:7163   */\n      pop\n        /* \"#utility.yul\":6799:7163   */\n      swap3\n      swap2\n      pop\n      pop\n      jump\t// out\n        /* \"#utility.yul\":7169:7546   */\n    tag_581:\n        /* \"#utility.yul\":7275:7278   */\n      0x00\n        /* \"#utility.yul\":7303:7342   */\n      tag_583\n        /* \"#utility.yul\":7336:7341   */\n      dup3\n        /* \"#utility.yul\":7303:7342   */\n      tag_574\n      jump\t// in\n    tag_583:\n        /* \"#utility.yul\":7358:7447   */\n      tag_584\n        /* \"#utility.yul\":7440:7446   */\n      dup2\n        /* \"#utility.yul\":7435:7438   */\n      dup6\n        /* \"#utility.yul\":7358:7447   */\n      tag_585\n      jump\t// in\n    tag_584:\n        /* \"#utility.yul\":7351:7447   */\n      swap4\n      pop\n        /* \"#utility.yul\":7456:7508   */\n      tag_586\n        /* \"#utility.yul\":7501:7507   */\n      dup2\n        /* \"#utility.yul\":7496:7499   */\n      dup6\n        /* \"#utility.yul\":7489:7493   */\n      0x20\n        /* \"#utility.yul\":7482:7487   */\n      dup7\n        /* \"#utility.yul\":7478:7494   */\n      add\n        /* \"#utility.yul\":7456:7508   */\n      tag_578\n      jump\t// in\n    tag_586:\n        /* \"#utility.yul\":7533:7539   */\n      dup1\n        /* \"#utility.yul\":7528:7531   */\n      dup5\n        /* \"#utility.yul\":7524:7540   */\n      add\n        /* \"#utility.yul\":7517:7540   */\n      swap2\n      pop\n        /* \"#utility.yul\":7279:7546   */\n      pop\n        /* \"#utility.yul\":7169:7546   */\n      swap3\n      swap2\n      pop\n      pop\n      jump\t// out\n        /* \"#utility.yul\":7552:7918   */\n    tag_587:\n        /* \"#utility.yul\":7694:7697   */\n      0x00\n        /* \"#utility.yul\":7715:7782   */\n      tag_589\n        /* \"#utility.yul\":7779:7781   */\n      0x19\n        /* \"#utility.yul\":7774:7777   */\n      dup4\n        /* \"#utility.yul\":7715:7782   */\n      tag_576\n      jump\t// in\n    tag_589:\n        /* \"#utility.yul\":7708:7782   */\n      swap2\n      pop\n        /* \"#utility.yul\":7791:7884   */\n      tag_590\n        /* \"#utility.yul\":7880:7883   */\n      dup3\n        /* \"#utility.yul\":7791:7884   */\n      tag_591\n      jump\t// in\n    tag_590:\n        /* \"#utility.yul\":7909:7911   */\n      0x20\n        /* \"#utility.yul\":7904:7907   */\n      dup3\n        /* \"#utility.yul\":7900:7912   */\n      add\n        /* \"#utility.yul\":7893:7912   */\n      swap1\n      pop\n        /* \"#utility.yul\":7552:7918   */\n      swap2\n      swap1\n      pop\n      jump\t// out\n        /* \"#utility.yul\":7924:8289   */\n    tag_592:\n        /* \"#utility.yul\":8066:8069   */\n      0x00\n        /* \"#utility.yul\":8087:8153   */\n      tag_594\n        /* \"#utility.yul\":8151:8152   */\n      0x09\n        /* \"#utility.yul\":8146:8149   */\n      dup4\n        /* \"#utility.yul\":8087:8153   */\n      tag_576\n      jump\t// in\n    tag_594:\n        /* \"#utility.yul\":8080:8153   */\n      swap2\n      pop\n        /* \"#utility.yul\":8162:8255   */\n      tag_595\n        /* \"#utility.yul\":8251:8254   */\n      dup3\n        /* \"#utility.yul\":8162:8255   */\n      tag_596\n      jump\t// in\n    tag_595:\n        /* \"#utility.yul\":8280:8282   */\n      0x20\n        /* \"#utility.yul\":8275:8278   */\n      dup3\n        /* \"#utility.yul\":8271:8283   */\n      add\n        /* \"#utility.yul\":8264:8283   */\n      swap1\n      pop\n        /* \"#utility.yul\":7924:8289   */\n      swap2\n      swap1\n      pop\n      jump\t// out\n        /* \"#utility.yul\":8295:8661   */\n    tag_597:\n        /* \"#utility.yul\":8437:8440   */\n      0x00\n        /* \"#utility.yul\":8458:8525   */\n      tag_599\n        /* \"#utility.yul\":8522:8524   */\n      0x0e\n        /* \"#utility.yul\":8517:8520   */\n      dup4\n        /* \"#utility.yul\":8458:8525   */\n      tag_576\n      jump\t// in\n    tag_599:\n        /* \"#utility.yul\":8451:8525   */\n      swap2\n      pop\n        /* \"#utility.yul\":8534:8627   */\n      tag_600\n        /* \"#utility.yul\":8623:8626   */\n      dup3\n        /* \"#utility.yul\":8534:8627   */\n      tag_601\n      jump\t// in\n    tag_600:\n        /* \"#utility.yul\":8652:8654   */\n      0x20\n        /* \"#utility.yul\":8647:8650   */\n      dup3\n        /* \"#utility.yul\":8643:8655   */\n      add\n        /* \"#utility.yul\":8636:8655   */\n      swap1\n      pop\n        /* \"#utility.yul\":8295:8661   */\n      swap2\n      swap1\n      pop\n      jump\t// out\n        /* \"#utility.yul\":8667:9033   */\n    tag_602:\n        /* \"#utility.yul\":8809:8812   */\n      0x00\n        /* \"#utility.yul\":8830:8897   */\n      tag_604\n        /* \"#utility.yul\":8894:8896   */\n      0x17\n        /* \"#utility.yul\":8889:8892   */\n      dup4\n        /* \"#utility.yul\":8830:8897   */\n      tag_576\n      jump\t// in\n    tag_604:\n        /* \"#utility.yul\":8823:8897   */\n      swap2\n      pop\n        /* \"#utility.yul\":8906:8999   */\n      tag_605\n        /* \"#utility.yul\":8995:8998   */\n      dup3\n        /* \"#utility.yul\":8906:8999   */\n      tag_606\n      jump\t// in\n    tag_605:\n        /* \"#utility.yul\":9024:9026   */\n      0x20\n        /* \"#utility.yul\":9019:9022   */\n      dup3\n        /* \"#utility.yul\":9015:9027   */\n      add\n        /* \"#utility.yul\":9008:9027   */\n      swap1\n      pop\n        /* \"#utility.yul\":8667:9033   */\n      swap2\n      swap1\n      pop\n      jump\t// out\n        /* \"#utility.yul\":9039:9405   */\n    tag_607:\n        /* \"#utility.yul\":9181:9184   */\n      0x00\n        /* \"#utility.yul\":9202:9269   */\n      tag_609\n        /* \"#utility.yul\":9266:9268   */\n      0x0a\n        /* \"#utility.yul\":9261:9264   */\n      dup4\n        /* \"#utility.yul\":9202:9269   */\n      tag_576\n      jump\t// in\n    tag_609:\n        /* \"#utility.yul\":9195:9269   */\n      swap2\n      pop\n        /* \"#utility.yul\":9278:9371   */\n      tag_610\n        /* \"#utility.yul\":9367:9370   */\n      dup3\n        /* \"#utility.yul\":9278:9371   */\n      tag_611\n      jump\t// in\n    tag_610:\n        /* \"#utility.yul\":9396:9398   */\n      0x20\n        /* \"#utility.yul\":9391:9394   */\n      dup3\n        /* \"#utility.yul\":9387:9399   */\n      add\n        /* \"#utility.yul\":9380:9399   */\n      swap1\n      pop\n        /* \"#utility.yul\":9039:9405   */\n      swap2\n      swap1\n      pop\n      jump\t// out\n        /* \"#utility.yul\":9411:9777   */\n    tag_612:\n        /* \"#utility.yul\":9553:9556   */\n      0x00\n        /* \"#utility.yul\":9574:9641   */\n      tag_614\n        /* \"#utility.yul\":9638:9640   */\n      0x15\n        /* \"#utility.yul\":9633:9636   */\n      dup4\n        /* \"#utility.yul\":9574:9641   */\n      tag_576\n      jump\t// in\n    tag_614:\n        /* \"#utility.yul\":9567:9641   */\n      swap2\n      pop\n        /* \"#utility.yul\":9650:9743   */\n      tag_615\n        /* \"#utility.yul\":9739:9742   */\n      dup3\n        /* \"#utility.yul\":9650:9743   */\n      tag_616\n      jump\t// in\n    tag_615:\n        /* \"#utility.yul\":9768:9770   */\n      0x20\n        /* \"#utility.yul\":9763:9766   */\n      dup3\n        /* \"#utility.yul\":9759:9771   */\n      add\n        /* \"#utility.yul\":9752:9771   */\n      swap1\n      pop\n        /* \"#utility.yul\":9411:9777   */\n      swap2\n      swap1\n      pop\n      jump\t// out\n        /* \"#utility.yul\":9783:10149   */\n    tag_617:\n        /* \"#utility.yul\":9925:9928   */\n      0x00\n        /* \"#utility.yul\":9946:10013   */\n      tag_619\n        /* \"#utility.yul\":10010:10012   */\n      0x15\n        /* \"#utility.yul\":10005:10008   */\n      dup4\n        /* \"#utility.yul\":9946:10013   */\n      tag_576\n      jump\t// in\n    tag_619:\n        /* \"#utility.yul\":9939:10013   */\n      swap2\n      pop\n        /* \"#utility.yul\":10022:10115   */\n      tag_620\n        /* \"#utility.yul\":10111:10114   */\n      dup3\n        /* \"#utility.yul\":10022:10115   */\n      tag_621\n      jump\t// in\n    tag_620:\n        /* \"#utility.yul\":10140:10142   */\n      0x20\n        /* \"#utility.yul\":10135:10138   */\n      dup3\n        /* \"#utility.yul\":10131:10143   */\n      add\n        /* \"#utility.yul\":10124:10143   */\n      swap1\n      pop\n        /* \"#utility.yul\":9783:10149   */\n      swap2\n      swap1\n      pop\n      jump\t// out\n        /* \"#utility.yul\":10155:10521   */\n    tag_622:\n        /* \"#utility.yul\":10297:10300   */\n      0x00\n        /* \"#utility.yul\":10318:10385   */\n      tag_624\n        /* \"#utility.yul\":10382:10384   */\n      0x10\n        /* \"#utility.yul\":10377:10380   */\n      dup4\n        /* \"#utility.yul\":10318:10385   */\n      tag_576\n      jump\t// in\n    tag_624:\n        /* \"#utility.yul\":10311:10385   */\n      swap2\n      pop\n        /* \"#utility.yul\":10394:10487   */\n      tag_625\n        /* \"#utility.yul\":10483:10486   */\n      dup3\n        /* \"#utility.yul\":10394:10487   */\n      tag_626\n      jump\t// in\n    tag_625:\n        /* \"#utility.yul\":10512:10514   */\n      0x20\n        /* \"#utility.yul\":10507:10510   */\n      dup3\n        /* \"#utility.yul\":10503:10515   */\n      add\n        /* \"#utility.yul\":10496:10515   */\n      swap1\n      pop\n        /* \"#utility.yul\":10155:10521   */\n      swap2\n      swap1\n      pop\n      jump\t// out\n        /* \"#utility.yul\":10527:10893   */\n    tag_627:\n        /* \"#utility.yul\":10669:10672   */\n      0x00\n        /* \"#utility.yul\":10690:10757   */\n      tag_629\n        /* \"#utility.yul\":10754:10756   */\n      0x11\n        /* \"#utility.yul\":10749:10752   */\n      dup4\n        /* \"#utility.yul\":10690:10757   */\n      tag_576\n      jump\t// in\n    tag_629:\n        /* \"#utility.yul\":10683:10757   */\n      swap2\n      pop\n        /* \"#utility.yul\":10766:10859   */\n      tag_630\n        /* \"#utility.yul\":10855:10858   */\n      dup3\n        /* \"#utility.yul\":10766:10859   */\n      tag_631\n      jump\t// in\n    tag_630:\n        /* \"#utility.yul\":10884:10886   */\n      0x20\n        /* \"#utility.yul\":10879:10882   */\n      dup3\n        /* \"#utility.yul\":10875:10887   */\n      add\n        /* \"#utility.yul\":10868:10887   */\n      swap1\n      pop\n        /* \"#utility.yul\":10527:10893   */\n      swap2\n      swap1\n      pop\n      jump\t// out\n        /* \"#utility.yul\":10899:11017   */\n    tag_632:\n        /* \"#utility.yul\":10986:11010   */\n      tag_634\n        /* \"#utility.yul\":11004:11009   */\n      dup2\n        /* \"#utility.yul\":10986:11010   */\n      tag_635\n      jump\t// in\n    tag_634:\n        /* \"#utility.yul\":10981:10984   */\n      dup3\n        /* \"#utility.yul\":10974:11011   */\n      mstore\n        /* \"#utility.yul\":10899:11017   */\n      pop\n      pop\n      jump\t// out\n        /* \"#utility.yul\":11023:11180   */\n    tag_636:\n        /* \"#utility.yul\":11128:11173   */\n      tag_638\n        /* \"#utility.yul\":11148:11172   */\n      tag_639\n        /* \"#utility.yul\":11166:11171   */\n      dup3\n        /* \"#utility.yul\":11148:11172   */\n      tag_635\n      jump\t// in\n    tag_639:\n        /* \"#utility.yul\":11128:11173   */\n      tag_640\n      jump\t// in\n    tag_638:\n        /* \"#utility.yul\":11123:11126   */\n      dup3\n        /* \"#utility.yul\":11116:11174   */\n      mstore\n        /* \"#utility.yul\":11023:11180   */\n      pop\n      pop\n      jump\t// out\n        /* \"#utility.yul\":11186:11442   */\n    tag_424:\n        /* \"#utility.yul\":11298:11301   */\n      0x00\n        /* \"#utility.yul\":11313:11388   */\n      tag_642\n        /* \"#utility.yul\":11384:11387   */\n      dup3\n        /* \"#utility.yul\":11375:11381   */\n      dup5\n        /* \"#utility.yul\":11313:11388   */\n      tag_566\n      jump\t// in\n    tag_642:\n        /* \"#utility.yul\":11413:11415   */\n      0x20\n        /* \"#utility.yul\":11408:11411   */\n      dup3\n        /* \"#utility.yul\":11404:11416   */\n      add\n        /* \"#utility.yul\":11397:11416   */\n      swap2\n      pop\n        /* \"#utility.yul\":11433:11436   */\n      dup2\n        /* \"#utility.yul\":11426:11436   */\n      swap1\n      pop\n        /* \"#utility.yul\":11186:11442   */\n      swap3\n      swap2\n      pop\n      pop\n      jump\t// out\n        /* \"#utility.yul\":11448:11723   */\n    tag_152:\n        /* \"#utility.yul\":11580:11583   */\n      0x00\n        /* \"#utility.yul\":11602:11697   */\n      tag_644\n        /* \"#utility.yul\":11693:11696   */\n      dup3\n        /* \"#utility.yul\":11684:11690   */\n      dup5\n        /* \"#utility.yul\":11602:11697   */\n      tag_581\n      jump\t// in\n    tag_644:\n        /* \"#utility.yul\":11595:11697   */\n      swap2\n      pop\n        /* \"#utility.yul\":11714:11717   */\n      dup2\n        /* \"#utility.yul\":11707:11717   */\n      swap1\n      pop\n        /* \"#utility.yul\":11448:11723   */\n      swap3\n      swap2\n      pop\n      pop\n      jump\t// out\n        /* \"#utility.yul\":11729:11985   */\n    tag_419:\n        /* \"#utility.yul\":11841:11844   */\n      0x00\n        /* \"#utility.yul\":11856:11931   */\n      tag_646\n        /* \"#utility.yul\":11927:11930   */\n      dup3\n        /* \"#utility.yul\":11918:11924   */\n      dup5\n        /* \"#utility.yul\":11856:11931   */\n      tag_636\n      jump\t// in\n    tag_646:\n        /* \"#utility.yul\":11956:11958   */\n      0x20\n        /* \"#utility.yul\":11951:11954   */\n      dup3\n        /* \"#utility.yul\":11947:11959   */\n      add\n        /* \"#utility.yul\":11940:11959   */\n      swap2\n      pop\n        /* \"#utility.yul\":11976:11979   */\n      dup2\n        /* \"#utility.yul\":11969:11979   */\n      swap1\n      pop\n        /* \"#utility.yul\":11729:11985   */\n      swap3\n      swap2\n      pop\n      pop\n      jump\t// out\n        /* \"#utility.yul\":11991:12323   */\n    tag_19:\n        /* \"#utility.yul\":12112:12116   */\n      0x00\n        /* \"#utility.yul\":12150:12152   */\n      0x40\n        /* \"#utility.yul\":12139:12148   */\n      dup3\n        /* \"#utility.yul\":12135:12153   */\n      add\n        /* \"#utility.yul\":12127:12153   */\n      swap1\n      pop\n        /* \"#utility.yul\":12163:12234   */\n      tag_648\n        /* \"#utility.yul\":12231:12232   */\n      0x00\n        /* \"#utility.yul\":12220:12229   */\n      dup4\n        /* \"#utility.yul\":12216:12233   */\n      add\n        /* \"#utility.yul\":12207:12213   */\n      dup6\n        /* \"#utility.yul\":12163:12234   */\n      tag_554\n      jump\t// in\n    tag_648:\n        /* \"#utility.yul\":12244:12316   */\n      tag_649\n        /* \"#utility.yul\":12312:12314   */\n      0x20\n        /* \"#utility.yul\":12301:12310   */\n      dup4\n        /* \"#utility.yul\":12297:12315   */\n      add\n        /* \"#utility.yul\":12288:12294   */\n      dup5\n        /* \"#utility.yul\":12244:12316   */\n      tag_632\n      jump\t// in\n    tag_649:\n        /* \"#utility.yul\":11991:12323   */\n      swap4\n      swap3\n      pop\n      pop\n      pop\n      jump\t// out\n        /* \"#utility.yul\":12329:12539   */\n    tag_26:\n        /* \"#utility.yul\":12416:12420   */\n      0x00\n        /* \"#utility.yul\":12454:12456   */\n      0x20\n        /* \"#utility.yul\":12443:12452   */\n      dup3\n        /* \"#utility.yul\":12439:12457   */\n      add\n        /* \"#utility.yul\":12431:12457   */\n      swap1\n      pop\n        /* \"#utility.yul\":12467:12532   */\n      tag_651\n        /* \"#utility.yul\":12529:12530   */\n      0x00\n        /* \"#utility.yul\":12518:12527   */\n      dup4\n        /* \"#utility.yul\":12514:12531   */\n      add\n        /* \"#utility.yul\":12505:12511   */\n      dup5\n        /* \"#utility.yul\":12467:12532   */\n      tag_558\n      jump\t// in\n    tag_651:\n        /* \"#utility.yul\":12329:12539   */\n      swap3\n      swap2\n      pop\n      pop\n      jump\t// out\n        /* \"#utility.yul\":12545:12767   */\n    tag_39:\n        /* \"#utility.yul\":12638:12642   */\n      0x00\n        /* \"#utility.yul\":12676:12678   */\n      0x20\n        /* \"#utility.yul\":12665:12674   */\n      dup3\n        /* \"#utility.yul\":12661:12679   */\n      add\n        /* \"#utility.yul\":12653:12679   */\n      swap1\n      pop\n        /* \"#utility.yul\":12689:12760   */\n      tag_653\n        /* \"#utility.yul\":12757:12758   */\n      0x00\n        /* \"#utility.yul\":12746:12755   */\n      dup4\n        /* \"#utility.yul\":12742:12759   */\n      add\n        /* \"#utility.yul\":12733:12739   */\n      dup5\n        /* \"#utility.yul\":12689:12760   */\n      tag_562\n      jump\t// in\n    tag_653:\n        /* \"#utility.yul\":12545:12767   */\n      swap3\n      swap2\n      pop\n      pop\n      jump\t// out\n        /* \"#utility.yul\":12773:13932   */\n    tag_72:\n        /* \"#utility.yul\":13094:13098   */\n      0x00\n        /* \"#utility.yul\":13132:13135   */\n      0xe0\n        /* \"#utility.yul\":13121:13130   */\n      dup3\n        /* \"#utility.yul\":13117:13136   */\n      add\n        /* \"#utility.yul\":13109:13136   */\n      swap1\n      pop\n        /* \"#utility.yul\":13182:13191   */\n      dup2\n        /* \"#utility.yul\":13176:13180   */\n      dup2\n        /* \"#utility.yul\":13172:13192   */\n      sub\n        /* \"#utility.yul\":13168:13169   */\n      0x00\n        /* \"#utility.yul\":13157:13166   */\n      dup4\n        /* \"#utility.yul\":13153:13170   */\n      add\n        /* \"#utility.yul\":13146:13193   */\n      mstore\n        /* \"#utility.yul\":13210:13288   */\n      tag_655\n        /* \"#utility.yul\":13283:13287   */\n      dup2\n        /* \"#utility.yul\":13274:13280   */\n      dup11\n        /* \"#utility.yul\":13210:13288   */\n      tag_571\n      jump\t// in\n    tag_655:\n        /* \"#utility.yul\":13202:13288   */\n      swap1\n      pop\n        /* \"#utility.yul\":13335:13344   */\n      dup2\n        /* \"#utility.yul\":13329:13333   */\n      dup2\n        /* \"#utility.yul\":13325:13345   */\n      sub\n        /* \"#utility.yul\":13320:13322   */\n      0x20\n        /* \"#utility.yul\":13309:13318   */\n      dup4\n        /* \"#utility.yul\":13305:13323   */\n      add\n        /* \"#utility.yul\":13298:13346   */\n      mstore\n        /* \"#utility.yul\":13363:13441   */\n      tag_656\n        /* \"#utility.yul\":13436:13440   */\n      dup2\n        /* \"#utility.yul\":13427:13433   */\n      dup10\n        /* \"#utility.yul\":13363:13441   */\n      tag_571\n      jump\t// in\n    tag_656:\n        /* \"#utility.yul\":13355:13441   */\n      swap1\n      pop\n        /* \"#utility.yul\":13488:13497   */\n      dup2\n        /* \"#utility.yul\":13482:13486   */\n      dup2\n        /* \"#utility.yul\":13478:13498   */\n      sub\n        /* \"#utility.yul\":13473:13475   */\n      0x40\n        /* \"#utility.yul\":13462:13471   */\n      dup4\n        /* \"#utility.yul\":13458:13476   */\n      add\n        /* \"#utility.yul\":13451:13499   */\n      mstore\n        /* \"#utility.yul\":13516:13594   */\n      tag_657\n        /* \"#utility.yul\":13589:13593   */\n      dup2\n        /* \"#utility.yul\":13580:13586   */\n      dup9\n        /* \"#utility.yul\":13516:13594   */\n      tag_571\n      jump\t// in\n    tag_657:\n        /* \"#utility.yul\":13508:13594   */\n      swap1\n      pop\n        /* \"#utility.yul\":13604:13676   */\n      tag_658\n        /* \"#utility.yul\":13672:13674   */\n      0x60\n        /* \"#utility.yul\":13661:13670   */\n      dup4\n        /* \"#utility.yul\":13657:13675   */\n      add\n        /* \"#utility.yul\":13648:13654   */\n      dup8\n        /* \"#utility.yul\":13604:13676   */\n      tag_632\n      jump\t// in\n    tag_658:\n        /* \"#utility.yul\":13686:13759   */\n      tag_659\n        /* \"#utility.yul\":13754:13757   */\n      0x80\n        /* \"#utility.yul\":13743:13752   */\n      dup4\n        /* \"#utility.yul\":13739:13758   */\n      add\n        /* \"#utility.yul\":13730:13736   */\n      dup7\n        /* \"#utility.yul\":13686:13759   */\n      tag_632\n      jump\t// in\n    tag_659:\n        /* \"#utility.yul\":13769:13842   */\n      tag_660\n        /* \"#utility.yul\":13837:13840   */\n      0xa0\n        /* \"#utility.yul\":13826:13835   */\n      dup4\n        /* \"#utility.yul\":13822:13841   */\n      add\n        /* \"#utility.yul\":13813:13819   */\n      dup6\n        /* \"#utility.yul\":13769:13842   */\n      tag_632\n      jump\t// in\n    tag_660:\n        /* \"#utility.yul\":13852:13925   */\n      tag_661\n        /* \"#utility.yul\":13920:13923   */\n      0xc0\n        /* \"#utility.yul\":13909:13918   */\n      dup4\n        /* \"#utility.yul\":13905:13924   */\n      add\n        /* \"#utility.yul\":13896:13902   */\n      dup5\n        /* \"#utility.yul\":13852:13925   */\n      tag_632\n      jump\t// in\n    tag_661:\n        /* \"#utility.yul\":12773:13932   */\n      swap9\n      swap8\n      pop\n      pop\n      pop\n      pop\n      pop\n      pop\n      pop\n      pop\n      jump\t// out\n        /* \"#utility.yul\":13938:14357   */\n    tag_76:\n        /* \"#utility.yul\":14104:14108   */\n      0x00\n        /* \"#utility.yul\":14142:14144   */\n      0x20\n        /* \"#utility.yul\":14131:14140   */\n      dup3\n        /* \"#utility.yul\":14127:14145   */\n      add\n        /* \"#utility.yul\":14119:14145   */\n      swap1\n      pop\n        /* \"#utility.yul\":14191:14200   */\n      dup2\n        /* \"#utility.yul\":14185:14189   */\n      dup2\n        /* \"#utility.yul\":14181:14201   */\n      sub\n        /* \"#utility.yul\":14177:14178   */\n      0x00\n        /* \"#utility.yul\":14166:14175   */\n      dup4\n        /* \"#utility.yul\":14162:14179   */\n      add\n        /* \"#utility.yul\":14155:14202   */\n      mstore\n        /* \"#utility.yul\":14219:14350   */\n      tag_663\n        /* \"#utility.yul\":14345:14349   */\n      dup2\n        /* \"#utility.yul\":14219:14350   */\n      tag_587\n      jump\t// in\n    tag_663:\n        /* \"#utility.yul\":14211:14350   */\n      swap1\n      pop\n        /* \"#utility.yul\":13938:14357   */\n      swap2\n      swap1\n      pop\n      jump\t// out\n        /* \"#utility.yul\":14363:14782   */\n    tag_371:\n        /* \"#utility.yul\":14529:14533   */\n      0x00\n        /* \"#utility.yul\":14567:14569   */\n      0x20\n        /* \"#utility.yul\":14556:14565   */\n      dup3\n        /* \"#utility.yul\":14552:14570   */\n      add\n        /* \"#utility.yul\":14544:14570   */\n      swap1\n      pop\n        /* \"#utility.yul\":14616:14625   */\n      dup2\n        /* \"#utility.yul\":14610:14614   */\n      dup2\n        /* \"#utility.yul\":14606:14626   */\n      sub\n        /* \"#utility.yul\":14602:14603   */\n      0x00\n        /* \"#utility.yul\":14591:14600   */\n      dup4\n        /* \"#utility.yul\":14587:14604   */\n      add\n        /* \"#utility.yul\":14580:14627   */\n      mstore\n        /* \"#utility.yul\":14644:14775   */\n      tag_665\n        /* \"#utility.yul\":14770:14774   */\n      dup2\n        /* \"#utility.yul\":14644:14775   */\n      tag_592\n      jump\t// in\n    tag_665:\n        /* \"#utility.yul\":14636:14775   */\n      swap1\n      pop\n        /* \"#utility.yul\":14363:14782   */\n      swap2\n      swap1\n      pop\n      jump\t// out\n        /* \"#utility.yul\":14788:15207   */\n    tag_82:\n        /* \"#utility.yul\":14954:14958   */\n      0x00\n        /* \"#utility.yul\":14992:14994   */\n      0x20\n        /* \"#utility.yul\":14981:14990   */\n      dup3\n        /* \"#utility.yul\":14977:14995   */\n      add\n        /* \"#utility.yul\":14969:14995   */\n      swap1\n      pop\n        /* \"#utility.yul\":15041:15050   */\n      dup2\n        /* \"#utility.yul\":15035:15039   */\n      dup2\n        /* \"#utility.yul\":15031:15051   */\n      sub\n        /* \"#utility.yul\":15027:15028   */\n      0x00\n        /* \"#utility.yul\":15016:15025   */\n      dup4\n        /* \"#utility.yul\":15012:15029   */\n      add\n        /* \"#utility.yul\":15005:15052   */\n      mstore\n        /* \"#utility.yul\":15069:15200   */\n      tag_667\n        /* \"#utility.yul\":15195:15199   */\n      dup2\n        /* \"#utility.yul\":15069:15200   */\n      tag_597\n      jump\t// in\n    tag_667:\n        /* \"#utility.yul\":15061:15200   */\n      swap1\n      pop\n        /* \"#utility.yul\":14788:15207   */\n      swap2\n      swap1\n      pop\n      jump\t// out\n        /* \"#utility.yul\":15213:15632   */\n    tag_137:\n        /* \"#utility.yul\":15379:15383   */\n      0x00\n        /* \"#utility.yul\":15417:15419   */\n      0x20\n        /* \"#utility.yul\":15406:15415   */\n      dup3\n        /* \"#utility.yul\":15402:15420   */\n      add\n        /* \"#utility.yul\":15394:15420   */\n      swap1\n      pop\n        /* \"#utility.yul\":15466:15475   */\n      dup2\n        /* \"#utility.yul\":15460:15464   */\n      dup2\n        /* \"#utility.yul\":15456:15476   */\n      sub\n        /* \"#utility.yul\":15452:15453   */\n      0x00\n        /* \"#utility.yul\":15441:15450   */\n      dup4\n        /* \"#utility.yul\":15437:15454   */\n      add\n        /* \"#utility.yul\":15430:15477   */\n      mstore\n        /* \"#utility.yul\":15494:15625   */\n      tag_669\n        /* \"#utility.yul\":15620:15624   */\n      dup2\n        /* \"#utility.yul\":15494:15625   */\n      tag_602\n      jump\t// in\n    tag_669:\n        /* \"#utility.yul\":15486:15625   */\n      swap1\n      pop\n        /* \"#utility.yul\":15213:15632   */\n      swap2\n      swap1\n      pop\n      jump\t// out\n        /* \"#utility.yul\":15638:16057   */\n    tag_156:\n        /* \"#utility.yul\":15804:15808   */\n      0x00\n        /* \"#utility.yul\":15842:15844   */\n      0x20\n        /* \"#utility.yul\":15831:15840   */\n      dup3\n        /* \"#utility.yul\":15827:15845   */\n      add\n        /* \"#utility.yul\":15819:15845   */\n      swap1\n      pop\n        /* \"#utility.yul\":15891:15900   */\n      dup2\n        /* \"#utility.yul\":15885:15889   */\n      dup2\n        /* \"#utility.yul\":15881:15901   */\n      sub\n        /* \"#utility.yul\":15877:15878   */\n      0x00\n        /* \"#utility.yul\":15866:15875   */\n      dup4\n        /* \"#utility.yul\":15862:15879   */\n      add\n        /* \"#utility.yul\":15855:15902   */\n      mstore\n        /* \"#utility.yul\":15919:16050   */\n      tag_671\n        /* \"#utility.yul\":16045:16049   */\n      dup2\n        /* \"#utility.yul\":15919:16050   */\n      tag_607\n      jump\t// in\n    tag_671:\n        /* \"#utility.yul\":15911:16050   */\n      swap1\n      pop\n        /* \"#utility.yul\":15638:16057   */\n      swap2\n      swap1\n      pop\n      jump\t// out\n        /* \"#utility.yul\":16063:16482   */\n    tag_111:\n        /* \"#utility.yul\":16229:16233   */\n      0x00\n        /* \"#utility.yul\":16267:16269   */\n      0x20\n        /* \"#utility.yul\":16256:16265   */\n      dup3\n        /* \"#utility.yul\":16252:16270   */\n      add\n        /* \"#utility.yul\":16244:16270   */\n      swap1\n      pop\n        /* \"#utility.yul\":16316:16325   */\n      dup2\n        /* \"#utility.yul\":16310:16314   */\n      dup2\n        /* \"#utility.yul\":16306:16326   */\n      sub\n        /* \"#utility.yul\":16302:16303   */\n      0x00\n        /* \"#utility.yul\":16291:16300   */\n      dup4\n        /* \"#utility.yul\":16287:16304   */\n      add\n        /* \"#utility.yul\":16280:16327   */\n      mstore\n        /* \"#utility.yul\":16344:16475   */\n      tag_673\n        /* \"#utility.yul\":16470:16474   */\n      dup2\n        /* \"#utility.yul\":16344:16475   */\n      tag_612\n      jump\t// in\n    tag_673:\n        /* \"#utility.yul\":16336:16475   */\n      swap1\n      pop\n        /* \"#utility.yul\":16063:16482   */\n      swap2\n      swap1\n      pop\n      jump\t// out\n        /* \"#utility.yul\":16488:16907   */\n    tag_204:\n        /* \"#utility.yul\":16654:16658   */\n      0x00\n        /* \"#utility.yul\":16692:16694   */\n      0x20\n        /* \"#utility.yul\":16681:16690   */\n      dup3\n        /* \"#utility.yul\":16677:16695   */\n      add\n        /* \"#utility.yul\":16669:16695   */\n      swap1\n      pop\n        /* \"#utility.yul\":16741:16750   */\n      dup2\n        /* \"#utility.yul\":16735:16739   */\n      dup2\n        /* \"#utility.yul\":16731:16751   */\n      sub\n        /* \"#utility.yul\":16727:16728   */\n      0x00\n        /* \"#utility.yul\":16716:16725   */\n      dup4\n        /* \"#utility.yul\":16712:16729   */\n      add\n        /* \"#utility.yul\":16705:16752   */\n      mstore\n        /* \"#utility.yul\":16769:16900   */\n      tag_675\n        /* \"#utility.yul\":16895:16899   */\n      dup2\n        /* \"#utility.yul\":16769:16900   */\n      tag_617\n      jump\t// in\n    tag_675:\n        /* \"#utility.yul\":16761:16900   */\n      swap1\n      pop\n        /* \"#utility.yul\":16488:16907   */\n      swap2\n      swap1\n      pop\n      jump\t// out\n        /* \"#utility.yul\":16913:17332   */\n    tag_140:\n        /* \"#utility.yul\":17079:17083   */\n      0x00\n        /* \"#utility.yul\":17117:17119   */\n      0x20\n        /* \"#utility.yul\":17106:17115   */\n      dup3\n        /* \"#utility.yul\":17102:17120   */\n      add\n        /* \"#utility.yul\":17094:17120   */\n      swap1\n      pop\n        /* \"#utility.yul\":17166:17175   */\n      dup2\n        /* \"#utility.yul\":17160:17164   */\n      dup2\n        /* \"#utility.yul\":17156:17176   */\n      sub\n        /* \"#utility.yul\":17152:17153   */\n      0x00\n        /* \"#utility.yul\":17141:17150   */\n      dup4\n        /* \"#utility.yul\":17137:17154   */\n      add\n        /* \"#utility.yul\":17130:17177   */\n      mstore\n        /* \"#utility.yul\":17194:17325   */\n      tag_677\n        /* \"#utility.yul\":17320:17324   */\n      dup2\n        /* \"#utility.yul\":17194:17325   */\n      tag_622\n      jump\t// in\n    tag_677:\n        /* \"#utility.yul\":17186:17325   */\n      swap1\n      pop\n        /* \"#utility.yul\":16913:17332   */\n      swap2\n      swap1\n      pop\n      jump\t// out\n        /* \"#utility.yul\":17338:17757   */\n    tag_269:\n        /* \"#utility.yul\":17504:17508   */\n      0x00\n        /* \"#utility.yul\":17542:17544   */\n      0x20\n        /* \"#utility.yul\":17531:17540   */\n      dup3\n        /* \"#utility.yul\":17527:17545   */\n      add\n        /* \"#utility.yul\":17519:17545   */\n      swap1\n      pop\n        /* \"#utility.yul\":17591:17600   */\n      dup2\n        /* \"#utility.yul\":17585:17589   */\n      dup2\n        /* \"#utility.yul\":17581:17601   */\n      sub\n        /* \"#utility.yul\":17577:17578   */\n      0x00\n        /* \"#utility.yul\":17566:17575   */\n      dup4\n        /* \"#utility.yul\":17562:17579   */\n      add\n        /* \"#utility.yul\":17555:17602   */\n      mstore\n        /* \"#utility.yul\":17619:17750   */\n      tag_679\n        /* \"#utility.yul\":17745:17749   */\n      dup2\n        /* \"#utility.yul\":17619:17750   */\n      tag_627\n      jump\t// in\n    tag_679:\n        /* \"#utility.yul\":17611:17750   */\n      swap1\n      pop\n        /* \"#utility.yul\":17338:17757   */\n      swap2\n      swap1\n      pop\n      jump\t// out\n        /* \"#utility.yul\":17763:17985   */\n    tag_44:\n        /* \"#utility.yul\":17856:17860   */\n      0x00\n        /* \"#utility.yul\":17894:17896   */\n      0x20\n        /* \"#utility.yul\":17883:17892   */\n      dup3\n        /* \"#utility.yul\":17879:17897   */\n      add\n        /* \"#utility.yul\":17871:17897   */\n      swap1\n      pop\n        /* \"#utility.yul\":17907:17978   */\n      tag_681\n        /* \"#utility.yul\":17975:17976   */\n      0x00\n        /* \"#utility.yul\":17964:17973   */\n      dup4\n        /* \"#utility.yul\":17960:17977   */\n      add\n        /* \"#utility.yul\":17951:17957   */\n      dup5\n        /* \"#utility.yul\":17907:17978   */\n      tag_632\n      jump\t// in\n    tag_681:\n        /* \"#utility.yul\":17763:17985   */\n      swap3\n      swap2\n      pop\n      pop\n      jump\t// out\n        /* \"#utility.yul\":17991:18120   */\n    tag_476:\n        /* \"#utility.yul\":18025:18031   */\n      0x00\n        /* \"#utility.yul\":18052:18072   */\n      tag_683\n      tag_684\n      jump\t// in\n    tag_683:\n        /* \"#utility.yul\":18042:18072   */\n      swap1\n      pop\n        /* \"#utility.yul\":18081:18114   */\n      tag_685\n        /* \"#utility.yul\":18109:18113   */\n      dup3\n        /* \"#utility.yul\":18101:18107   */\n      dup3\n        /* \"#utility.yul\":18081:18114   */\n      tag_686\n      jump\t// in\n    tag_685:\n        /* \"#utility.yul\":17991:18120   */\n      swap2\n      swap1\n      pop\n      jump\t// out\n        /* \"#utility.yul\":18126:18201   */\n    tag_684:\n        /* \"#utility.yul\":18159:18165   */\n      0x00\n        /* \"#utility.yul\":18192:18194   */\n      0x40\n        /* \"#utility.yul\":18186:18195   */\n      mload\n        /* \"#utility.yul\":18176:18195   */\n      swap1\n      pop\n        /* \"#utility.yul\":18126:18201   */\n      swap1\n      jump\t// out\n        /* \"#utility.yul\":18207:18515   */\n    tag_475:\n        /* \"#utility.yul\":18269:18273   */\n      0x00\n        /* \"#utility.yul\":18359:18377   */\n      0xffffffffffffffff\n        /* \"#utility.yul\":18351:18357   */\n      dup3\n        /* \"#utility.yul\":18348:18378   */\n      gt\n        /* \"#utility.yul\":18345:18401   */\n      iszero\n      tag_689\n      jumpi\n        /* \"#utility.yul\":18381:18399   */\n      tag_690\n      tag_396\n      jump\t// in\n    tag_690:\n        /* \"#utility.yul\":18345:18401   */\n    tag_689:\n        /* \"#utility.yul\":18419:18448   */\n      tag_691\n        /* \"#utility.yul\":18441:18447   */\n      dup3\n        /* \"#utility.yul\":18419:18448   */\n      tag_580\n      jump\t// in\n    tag_691:\n        /* \"#utility.yul\":18411:18448   */\n      swap1\n      pop\n        /* \"#utility.yul\":18503:18507   */\n      0x20\n        /* \"#utility.yul\":18497:18501   */\n      dup2\n        /* \"#utility.yul\":18493:18508   */\n      add\n        /* \"#utility.yul\":18485:18508   */\n      swap1\n      pop\n        /* \"#utility.yul\":18207:18515   */\n      swap2\n      swap1\n      pop\n      jump\t// out\n        /* \"#utility.yul\":18521:18620   */\n    tag_574:\n        /* \"#utility.yul\":18573:18579   */\n      0x00\n        /* \"#utility.yul\":18607:18612   */\n      dup2\n        /* \"#utility.yul\":18601:18613   */\n      mload\n        /* \"#utility.yul\":18591:18613   */\n      swap1\n      pop\n        /* \"#utility.yul\":18521:18620   */\n      swap2\n      swap1\n      pop\n      jump\t// out\n        /* \"#utility.yul\":18626:18795   */\n    tag_576:\n        /* \"#utility.yul\":18710:18721   */\n      0x00\n        /* \"#utility.yul\":18744:18750   */\n      dup3\n        /* \"#utility.yul\":18739:18742   */\n      dup3\n        /* \"#utility.yul\":18732:18751   */\n      mstore\n        /* \"#utility.yul\":18784:18788   */\n      0x20\n        /* \"#utility.yul\":18779:18782   */\n      dup3\n        /* \"#utility.yul\":18775:18789   */\n      add\n        /* \"#utility.yul\":18760:18789   */\n      swap1\n      pop\n        /* \"#utility.yul\":18626:18795   */\n      swap3\n      swap2\n      pop\n      pop\n      jump\t// out\n        /* \"#utility.yul\":18801:18949   */\n    tag_585:\n        /* \"#utility.yul\":18903:18914   */\n      0x00\n        /* \"#utility.yul\":18940:18943   */\n      dup2\n        /* \"#utility.yul\":18925:18943   */\n      swap1\n      pop\n        /* \"#utility.yul\":18801:18949   */\n      swap3\n      swap2\n      pop\n      pop\n      jump\t// out\n        /* \"#utility.yul\":18955:19260   */\n    tag_17:\n        /* \"#utility.yul\":18995:18998   */\n      0x00\n        /* \"#utility.yul\":19014:19034   */\n      tag_696\n        /* \"#utility.yul\":19032:19033   */\n      dup3\n        /* \"#utility.yul\":19014:19034   */\n      tag_635\n      jump\t// in\n    tag_696:\n        /* \"#utility.yul\":19009:19034   */\n      swap2\n      pop\n        /* \"#utility.yul\":19048:19068   */\n      tag_697\n        /* \"#utility.yul\":19066:19067   */\n      dup4\n        /* \"#utility.yul\":19048:19068   */\n      tag_635\n      jump\t// in\n    tag_697:\n        /* \"#utility.yul\":19043:19068   */\n      swap3\n      pop\n        /* \"#utility.yul\":19202:19203   */\n      dup3\n        /* \"#utility.yul\":19134:19200   */\n      0xffffffffffffffffffffffffffffffffffffffffffffffffffffffffffffffff\n        /* \"#utility.yul\":19130:19204   */\n      sub\n        /* \"#utility.yul\":19127:19128   */\n      dup3\n        /* \"#utility.yul\":19124:19205   */\n      gt\n        /* \"#utility.yul\":19121:19228   */\n      iszero\n      tag_698\n      jumpi\n        /* \"#utility.yul\":19208:19226   */\n      tag_699\n      tag_700\n      jump\t// in\n    tag_699:\n        /* \"#utility.yul\":19121:19228   */\n    tag_698:\n        /* \"#utility.yul\":19252:19253   */\n      dup3\n        /* \"#utility.yul\":19249:19250   */\n      dup3\n        /* \"#utility.yul\":19245:19254   */\n      add\n        /* \"#utility.yul\":19238:19254   */\n      swap1\n      pop\n        /* \"#utility.yul\":18955:19260   */\n      swap3\n      swap2\n      pop\n      pop\n      jump\t// out\n        /* \"#utility.yul\":19266:19451   */\n    tag_315:\n        /* \"#utility.yul\":19306:19307   */\n      0x00\n        /* \"#utility.yul\":19323:19343   */\n      tag_702\n        /* \"#utility.yul\":19341:19342   */\n      dup3\n        /* \"#utility.yul\":19323:19343   */\n      tag_635\n      jump\t// in\n    tag_702:\n        /* \"#utility.yul\":19318:19343   */\n      swap2\n      pop\n        /* \"#utility.yul\":19357:19377   */\n      tag_703\n        /* \"#utility.yul\":19375:19376   */\n      dup4\n        /* \"#utility.yul\":19357:19377   */\n      tag_635\n      jump\t// in\n    tag_703:\n        /* \"#utility.yul\":19352:19377   */\n      swap3\n      pop\n        /* \"#utility.yul\":19396:19397   */\n      dup3\n        /* \"#utility.yul\":19386:19421   */\n      tag_704\n      jumpi\n        /* \"#utility.yul\":19401:19419   */\n      tag_705\n      tag_706\n      jump\t// in\n    tag_705:\n        /* \"#utility.yul\":19386:19421   */\n    tag_704:\n        /* \"#utility.yul\":19443:19444   */\n      dup3\n        /* \"#utility.yul\":19440:19441   */\n      dup3\n        /* \"#utility.yul\":19436:19445   */\n      div\n        /* \"#utility.yul\":19431:19445   */\n      swap1\n      pop\n        /* \"#utility.yul\":19266:19451   */\n      swap3\n      swap2\n      pop\n      pop\n      jump\t// out\n        /* \"#utility.yul\":19457:19805   */\n    tag_313:\n        /* \"#utility.yul\":19497:19504   */\n      0x00\n        /* \"#utility.yul\":19520:19540   */\n      tag_708\n        /* \"#utility.yul\":19538:19539   */\n      dup3\n        /* \"#utility.yul\":19520:19540   */\n      tag_635\n      jump\t// in\n    tag_708:\n        /* \"#utility.yul\":19515:19540   */\n      swap2\n      pop\n        /* \"#utility.yul\":19554:19574   */\n      tag_709\n        /* \"#utility.yul\":19572:19573   */\n      dup4\n        /* \"#utility.yul\":19554:19574   */\n      tag_635\n      jump\t// in\n    tag_709:\n        /* \"#utility.yul\":19549:19574   */\n      swap3\n      pop\n        /* \"#utility.yul\":19742:19743   */\n      dup2\n        /* \"#utility.yul\":19674:19740   */\n      0xffffffffffffffffffffffffffffffffffffffffffffffffffffffffffffffff\n        /* \"#utility.yul\":19670:19744   */\n      div\n        /* \"#utility.yul\":19667:19668   */\n      dup4\n        /* \"#utility.yul\":19664:19745   */\n      gt\n        /* \"#utility.yul\":19659:19660   */\n      dup3\n        /* \"#utility.yul\":19652:19661   */\n      iszero\n        /* \"#utility.yul\":19645:19662   */\n      iszero\n        /* \"#utility.yul\":19641:19746   */\n      and\n        /* \"#utility.yul\":19638:19769   */\n      iszero\n      tag_710\n      jumpi\n        /* \"#utility.yul\":19749:19767   */\n      tag_711\n      tag_700\n      jump\t// in\n    tag_711:\n        /* \"#utility.yul\":19638:19769   */\n    tag_710:\n        /* \"#utility.yul\":19797:19798   */\n      dup3\n        /* \"#utility.yul\":19794:19795   */\n      dup3\n        /* \"#utility.yul\":19790:19799   */\n      mul\n        /* \"#utility.yul\":19779:19799   */\n      swap1\n      pop\n        /* \"#utility.yul\":19457:19805   */\n      swap3\n      swap2\n      pop\n      pop\n      jump\t// out\n        /* \"#utility.yul\":19811:20002   */\n    tag_143:\n        /* \"#utility.yul\":19851:19855   */\n      0x00\n        /* \"#utility.yul\":19871:19891   */\n      tag_713\n        /* \"#utility.yul\":19889:19890   */\n      dup3\n        /* \"#utility.yul\":19871:19891   */\n      tag_635\n      jump\t// in\n    tag_713:\n        /* \"#utility.yul\":19866:19891   */\n      swap2\n      pop\n        /* \"#utility.yul\":19905:19925   */\n      tag_714\n        /* \"#utility.yul\":19923:19924   */\n      dup4\n        /* \"#utility.yul\":19905:19925   */\n      tag_635\n      jump\t// in\n    tag_714:\n        /* \"#utility.yul\":19900:19925   */\n      swap3\n      pop\n        /* \"#utility.yul\":19944:19945   */\n      dup3\n        /* \"#utility.yul\":19941:19942   */\n      dup3\n        /* \"#utility.yul\":19938:19946   */\n      lt\n        /* \"#utility.yul\":19935:19969   */\n      iszero\n      tag_715\n      jumpi\n        /* \"#utility.yul\":19949:19967   */\n      tag_716\n      tag_700\n      jump\t// in\n    tag_716:\n        /* \"#utility.yul\":19935:19969   */\n    tag_715:\n        /* \"#utility.yul\":19994:19995   */\n      dup3\n        /* \"#utility.yul\":19991:19992   */\n      dup3\n        /* \"#utility.yul\":19987:19996   */\n      sub\n        /* \"#utility.yul\":19979:19996   */\n      swap1\n      pop\n        /* \"#utility.yul\":19811:20002   */\n      swap3\n      swap2\n      pop\n      pop\n      jump\t// out\n        /* \"#utility.yul\":20008:20104   */\n    tag_557:\n        /* \"#utility.yul\":20045:20052   */\n      0x00\n        /* \"#utility.yul\":20074:20098   */\n      tag_718\n        /* \"#utility.yul\":20092:20097   */\n      dup3\n        /* \"#utility.yul\":20074:20098   */\n      tag_719\n      jump\t// in\n    tag_718:\n        /* \"#utility.yul\":20063:20098   */\n      swap1\n      pop\n        /* \"#utility.yul\":20008:20104   */\n      swap2\n      swap1\n      pop\n      jump\t// out\n        /* \"#utility.yul\":20110:20200   */\n    tag_561:\n        /* \"#utility.yul\":20144:20151   */\n      0x00\n        /* \"#utility.yul\":20187:20192   */\n      dup2\n        /* \"#utility.yul\":20180:20193   */\n      iszero\n        /* \"#utility.yul\":20173:20194   */\n      iszero\n        /* \"#utility.yul\":20162:20194   */\n      swap1\n      pop\n        /* \"#utility.yul\":20110:20200   */\n      swap2\n      swap1\n      pop\n      jump\t// out\n        /* \"#utility.yul\":20206:20283   */\n    tag_565:\n        /* \"#utility.yul\":20243:20250   */\n      0x00\n        /* \"#utility.yul\":20272:20277   */\n      dup2\n        /* \"#utility.yul\":20261:20277   */\n      swap1\n      pop\n        /* \"#utility.yul\":20206:20283   */\n      swap2\n      swap1\n      pop\n      jump\t// out\n        /* \"#utility.yul\":20289:20415   */\n    tag_719:\n        /* \"#utility.yul\":20326:20333   */\n      0x00\n        /* \"#utility.yul\":20366:20408   */\n      0xffffffffffffffffffffffffffffffffffffffff\n        /* \"#utility.yul\":20359:20364   */\n      dup3\n        /* \"#utility.yul\":20355:20409   */\n      and\n        /* \"#utility.yul\":20344:20409   */\n      swap1\n      pop\n        /* \"#utility.yul\":20289:20415   */\n      swap2\n      swap1\n      pop\n      jump\t// out\n        /* \"#utility.yul\":20421:20498   */\n    tag_635:\n        /* \"#utility.yul\":20458:20465   */\n      0x00\n        /* \"#utility.yul\":20487:20492   */\n      dup2\n        /* \"#utility.yul\":20476:20492   */\n      swap1\n      pop\n        /* \"#utility.yul\":20421:20498   */\n      swap2\n      swap1\n      pop\n      jump\t// out\n        /* \"#utility.yul\":20504:20658   */\n    tag_481:\n        /* \"#utility.yul\":20588:20594   */\n      dup3\n        /* \"#utility.yul\":20583:20586   */\n      dup2\n        /* \"#utility.yul\":20578:20581   */\n      dup4\n        /* \"#utility.yul\":20565:20595   */\n      calldatacopy\n        /* \"#utility.yul\":20650:20651   */\n      0x00\n        /* \"#utility.yul\":20641:20647   */\n      dup4\n        /* \"#utility.yul\":20636:20639   */\n      dup4\n        /* \"#utility.yul\":20632:20648   */\n      add\n        /* \"#utility.yul\":20625:20652   */\n      mstore\n        /* \"#utility.yul\":20504:20658   */\n      pop\n      pop\n      pop\n      jump\t// out\n        /* \"#utility.yul\":20664:20971   */\n    tag_578:\n        /* \"#utility.yul\":20732:20733   */\n      0x00\n        /* \"#utility.yul\":20742:20855   */\n    tag_726:\n        /* \"#utility.yul\":20756:20762   */\n      dup4\n        /* \"#utility.yul\":20753:20754   */\n      dup2\n        /* \"#utility.yul\":20750:20763   */\n      lt\n        /* \"#utility.yul\":20742:20855   */\n      iszero\n      tag_728\n      jumpi\n        /* \"#utility.yul\":20841:20842   */\n      dup1\n        /* \"#utility.yul\":20836:20839   */\n      dup3\n        /* \"#utility.yul\":20832:20843   */\n      add\n        /* \"#utility.yul\":20826:20844   */\n      mload\n        /* \"#utility.yul\":20822:20823   */\n      dup2\n        /* \"#utility.yul\":20817:20820   */\n      dup5\n        /* \"#utility.yul\":20813:20824   */\n      add\n        /* \"#utility.yul\":20806:20845   */\n      mstore\n        /* \"#utility.yul\":20778:20780   */\n      0x20\n        /* \"#utility.yul\":20775:20776   */\n      dup2\n        /* \"#utility.yul\":20771:20781   */\n      add\n        /* \"#utility.yul\":20766:20781   */\n      swap1\n      pop\n        /* \"#utility.yul\":20742:20855   */\n      jump(tag_726)\n    tag_728:\n        /* \"#utility.yul\":20873:20879   */\n      dup4\n        /* \"#utility.yul\":20870:20871   */\n      dup2\n        /* \"#utility.yul\":20867:20880   */\n      gt\n        /* \"#utility.yul\":20864:20965   */\n      iszero\n      tag_729\n      jumpi\n        /* \"#utility.yul\":20953:20954   */\n      0x00\n        /* \"#utility.yul\":20944:20950   */\n      dup5\n        /* \"#utility.yul\":20939:20942   */\n      dup5\n        /* \"#utility.yul\":20935:20951   */\n      add\n        /* \"#utility.yul\":20928:20955   */\n      mstore\n        /* \"#utility.yul\":20864:20965   */\n    tag_729:\n        /* \"#utility.yul\":20713:20971   */\n      pop\n        /* \"#utility.yul\":20664:20971   */\n      pop\n      pop\n      pop\n      jump\t// out\n        /* \"#utility.yul\":20977:21297   */\n    tag_85:\n        /* \"#utility.yul\":21021:21027   */\n      0x00\n        /* \"#utility.yul\":21058:21059   */\n      0x02\n        /* \"#utility.yul\":21052:21056   */\n      dup3\n        /* \"#utility.yul\":21048:21060   */\n      div\n        /* \"#utility.yul\":21038:21060   */\n      swap1\n      pop\n        /* \"#utility.yul\":21105:21106   */\n      0x01\n        /* \"#utility.yul\":21099:21103   */\n      dup3\n        /* \"#utility.yul\":21095:21107   */\n      and\n        /* \"#utility.yul\":21126:21144   */\n      dup1\n        /* \"#utility.yul\":21116:21197   */\n      tag_731\n      jumpi\n        /* \"#utility.yul\":21182:21186   */\n      0x7f\n        /* \"#utility.yul\":21174:21180   */\n      dup3\n        /* \"#utility.yul\":21170:21187   */\n      and\n        /* \"#utility.yul\":21160:21187   */\n      swap2\n      pop\n        /* \"#utility.yul\":21116:21197   */\n    tag_731:\n        /* \"#utility.yul\":21244:21246   */\n      0x20\n        /* \"#utility.yul\":21236:21242   */\n      dup3\n        /* \"#utility.yul\":21233:21247   */\n      lt\n        /* \"#utility.yul\":21213:21231   */\n      dup2\n        /* \"#utility.yul\":21210:21248   */\n      eq\n        /* \"#utility.yul\":21207:21291   */\n      iszero\n      tag_732\n      jumpi\n        /* \"#utility.yul\":21263:21281   */\n      tag_733\n      tag_734\n      jump\t// in\n    tag_733:\n        /* \"#utility.yul\":21207:21291   */\n    tag_732:\n        /* \"#utility.yul\":21028:21297   */\n      pop\n        /* \"#utility.yul\":20977:21297   */\n      swap2\n      swap1\n      pop\n      jump\t// out\n        /* \"#utility.yul\":21303:21584   */\n    tag_686:\n        /* \"#utility.yul\":21386:21413   */\n      tag_736\n        /* \"#utility.yul\":21408:21412   */\n      dup3\n        /* \"#utility.yul\":21386:21413   */\n      tag_580\n      jump\t// in\n    tag_736:\n        /* \"#utility.yul\":21378:21384   */\n      dup2\n        /* \"#utility.yul\":21374:21414   */\n      add\n        /* \"#utility.yul\":21516:21522   */\n      dup2\n        /* \"#utility.yul\":21504:21514   */\n      dup2\n        /* \"#utility.yul\":21501:21523   */\n      lt\n        /* \"#utility.yul\":21480:21498   */\n      0xffffffffffffffff\n        /* \"#utility.yul\":21468:21478   */\n      dup3\n        /* \"#utility.yul\":21465:21499   */\n      gt\n        /* \"#utility.yul\":21462:21524   */\n      or\n        /* \"#utility.yul\":21459:21547   */\n      iszero\n      tag_737\n      jumpi\n        /* \"#utility.yul\":21527:21545   */\n      tag_738\n      tag_396\n      jump\t// in\n    tag_738:\n        /* \"#utility.yul\":21459:21547   */\n    tag_737:\n        /* \"#utility.yul\":21567:21577   */\n      dup1\n        /* \"#utility.yul\":21563:21565   */\n      0x40\n        /* \"#utility.yul\":21556:21578   */\n      mstore\n        /* \"#utility.yul\":21346:21584   */\n      pop\n        /* \"#utility.yul\":21303:21584   */\n      pop\n      pop\n      jump\t// out\n        /* \"#utility.yul\":21590:21823   */\n    tag_356:\n        /* \"#utility.yul\":21629:21632   */\n      0x00\n        /* \"#utility.yul\":21652:21676   */\n      tag_740\n        /* \"#utility.yul\":21670:21675   */\n      dup3\n        /* \"#utility.yul\":21652:21676   */\n      tag_635\n      jump\t// in\n    tag_740:\n        /* \"#utility.yul\":21643:21676   */\n      swap2\n      pop\n        /* \"#utility.yul\":21698:21764   */\n      0xffffffffffffffffffffffffffffffffffffffffffffffffffffffffffffffff\n        /* \"#utility.yul\":21691:21696   */\n      dup3\n        /* \"#utility.yul\":21688:21765   */\n      eq\n        /* \"#utility.yul\":21685:21788   */\n      iszero\n      tag_741\n      jumpi\n        /* \"#utility.yul\":21768:21786   */\n      tag_742\n      tag_700\n      jump\t// in\n    tag_742:\n        /* \"#utility.yul\":21685:21788   */\n    tag_741:\n        /* \"#utility.yul\":21815:21816   */\n      0x01\n        /* \"#utility.yul\":21808:21813   */\n      dup3\n        /* \"#utility.yul\":21804:21817   */\n      add\n        /* \"#utility.yul\":21797:21817   */\n      swap1\n      pop\n        /* \"#utility.yul\":21590:21823   */\n      swap2\n      swap1\n      pop\n      jump\t// out\n        /* \"#utility.yul\":21829:21908   */\n    tag_570:\n        /* \"#utility.yul\":21868:21875   */\n      0x00\n        /* \"#utility.yul\":21897:21902   */\n      dup2\n        /* \"#utility.yul\":21886:21902   */\n      swap1\n      pop\n        /* \"#utility.yul\":21829:21908   */\n      swap2\n      swap1\n      pop\n      jump\t// out\n        /* \"#utility.yul\":21914:21993   */\n    tag_640:\n        /* \"#utility.yul\":21953:21960   */\n      0x00\n        /* \"#utility.yul\":21982:21987   */\n      dup2\n        /* \"#utility.yul\":21971:21987   */\n      swap1\n      pop\n        /* \"#utility.yul\":21914:21993   */\n      swap2\n      swap1\n      pop\n      jump\t// out\n        /* \"#utility.yul\":21999:22179   */\n    tag_700:\n        /* \"#utility.yul\":22047:22124   */\n      0x4e487b7100000000000000000000000000000000000000000000000000000000\n        /* \"#utility.yul\":22044:22045   */\n      0x00\n        /* \"#utility.yul\":22037:22125   */\n      mstore\n        /* \"#utility.yul\":22144:22148   */\n      0x11\n        /* \"#utility.yul\":22141:22142   */\n      0x04\n        /* \"#utility.yul\":22134:22149   */\n      mstore\n        /* \"#utility.yul\":22168:22172   */\n      0x24\n        /* \"#utility.yul\":22165:22166   */\n      0x00\n        /* \"#utility.yul\":22158:22173   */\n      revert\n        /* \"#utility.yul\":22185:22365   */\n    tag_706:\n        /* \"#utility.yul\":22233:22310   */\n      0x4e487b7100000000000000000000000000000000000000000000000000000000\n        /* \"#utility.yul\":22230:22231   */\n      0x00\n        /* \"#utility.yul\":22223:22311   */\n      mstore\n        /* \"#utility.yul\":22330:22334   */\n      0x12\n        /* \"#utility.yul\":22327:22328   */\n      0x04\n        /* \"#utility.yul\":22320:22335   */\n      mstore\n        /* \"#utility.yul\":22354:22358   */\n      0x24\n        /* \"#utility.yul\":22351:22352   */\n      0x00\n        /* \"#utility.yul\":22344:22359   */\n      revert\n        /* \"#utility.yul\":22371:22551   */\n    tag_734:\n        /* \"#utility.yul\":22419:22496   */\n      0x4e487b7100000000000000000000000000000000000000000000000000000000\n        /* \"#utility.yul\":22416:22417   */\n      0x00\n        /* \"#utility.yul\":22409:22497   */\n      mstore\n        /* \"#utility.yul\":22516:22520   */\n      0x22\n        /* \"#utility.yul\":22513:22514   */\n      0x04\n        /* \"#utility.yul\":22506:22521   */\n      mstore\n        /* \"#utility.yul\":22540:22544   */\n      0x24\n        /* \"#utility.yul\":22537:22538   */\n      0x00\n        /* \"#utility.yul\":22530:22545   */\n      revert\n        /* \"#utility.yul\":22557:22737   */\n    tag_291:\n        /* \"#utility.yul\":22605:22682   */\n      0x4e487b7100000000000000000000000000000000000000000000000000000000\n        /* \"#utility.yul\":22602:22603   */\n      0x00\n        /* \"#utility.yul\":22595:22683   */\n      mstore\n        /* \"#utility.yul\":22702:22706   */\n      0x32\n        /* \"#utility.yul\":22699:22700   */\n      0x04\n        /* \"#utility.yul\":22692:22707   */\n      mstore\n        /* \"#utility.yul\":22726:22730   */\n      0x24\n        /* \"#utility.yul\":22723:22724   */\n      0x00\n        /* \"#utility.yul\":22716:22731   */\n      revert\n        /* \"#utility.yul\":22743:22923   */\n    tag_396:\n        /* \"#utility.yul\":22791:22868   */\n      0x4e487b7100000000000000000000000000000000000000000000000000000000\n        /* \"#utility.yul\":22788:22789   */\n      0x00\n        /* \"#utility.yul\":22781:22869   */\n      mstore\n        /* \"#utility.yul\":22888:22892   */\n      0x41\n        /* \"#utility.yul\":22885:22886   */\n      0x04\n        /* \"#utility.yul\":22878:22893   */\n      mstore\n        /* \"#utility.yul\":22912:22916   */\n      0x24\n        /* \"#utility.yul\":22909:22910   */\n      0x00\n        /* \"#utility.yul\":22902:22917   */\n      revert\n        /* \"#utility.yul\":22929:23046   */\n    tag_498:\n        /* \"#utility.yul\":23038:23039   */\n      0x00\n        /* \"#utility.yul\":23035:23036   */\n      dup1\n        /* \"#utility.yul\":23028:23040   */\n      revert\n        /* \"#utility.yul\":23052:23169   */\n    tag_479:\n        /* \"#utility.yul\":23161:23162   */\n      0x00\n        /* \"#utility.yul\":23158:23159   */\n      dup1\n        /* \"#utility.yul\":23151:23163   */\n      revert\n        /* \"#utility.yul\":23175:23292   */\n    tag_545:\n        /* \"#utility.yul\":23284:23285   */\n      0x00\n        /* \"#utility.yul\":23281:23282   */\n      dup1\n        /* \"#utility.yul\":23274:23286   */\n      revert\n        /* \"#utility.yul\":23298:23415   */\n    tag_507:\n        /* \"#utility.yul\":23407:23408   */\n      0x00\n        /* \"#utility.yul\":23404:23405   */\n      dup1\n        /* \"#utility.yul\":23397:23409   */\n      revert\n        /* \"#utility.yul\":23421:23523   */\n    tag_580:\n        /* \"#utility.yul\":23462:23468   */\n      0x00\n        /* \"#utility.yul\":23513:23515   */\n      0x1f\n        /* \"#utility.yul\":23509:23516   */\n      not\n        /* \"#utility.yul\":23504:23506   */\n      0x1f\n        /* \"#utility.yul\":23497:23502   */\n      dup4\n        /* \"#utility.yul\":23493:23507   */\n      add\n        /* \"#utility.yul\":23489:23517   */\n      and\n        /* \"#utility.yul\":23479:23517   */\n      swap1\n      pop\n        /* \"#utility.yul\":23421:23523   */\n      swap2\n      swap1\n      pop\n      jump\t// out\n        /* \"#utility.yul\":23529:23704   */\n    tag_591:\n        /* \"#utility.yul\":23669:23696   */\n      0x4f6e6c79206f776e65722063616e2063616c6c20746869732e00000000000000\n        /* \"#utility.yul\":23665:23666   */\n      0x00\n        /* \"#utility.yul\":23657:23663   */\n      dup3\n        /* \"#utility.yul\":23653:23667   */\n      add\n        /* \"#utility.yul\":23646:23697   */\n      mstore\n        /* \"#utility.yul\":23529:23704   */\n      pop\n      jump\t// out\n        /* \"#utility.yul\":23710:23869   */\n    tag_596:\n        /* \"#utility.yul\":23850:23861   */\n      0x6e6f742065786973740000000000000000000000000000000000000000000000\n        /* \"#utility.yul\":23846:23847   */\n      0x00\n        /* \"#utility.yul\":23838:23844   */\n      dup3\n        /* \"#utility.yul\":23834:23848   */\n      add\n        /* \"#utility.yul\":23827:23862   */\n      mstore\n        /* \"#utility.yul\":23710:23869   */\n      pop\n      jump\t// out\n        /* \"#utility.yul\":23875:24039   */\n    tag_601:\n        /* \"#utility.yul\":24015:24031   */\n      0x706f6f6c206e6f74206578697374000000000000000000000000000000000000\n        /* \"#utility.yul\":24011:24012   */\n      0x00\n        /* \"#utility.yul\":24003:24009   */\n      dup3\n        /* \"#utility.yul\":23999:24013   */\n      add\n        /* \"#utility.yul\":23992:24032   */\n      mstore\n        /* \"#utility.yul\":23875:24039   */\n      pop\n      jump\t// out\n        /* \"#utility.yul\":24045:24218   */\n    tag_606:\n        /* \"#utility.yul\":24185:24210   */\n      0x706f6f6c20626173616c20686173206265656e20736574000000000000000000\n        /* \"#utility.yul\":24181:24182   */\n      0x00\n        /* \"#utility.yul\":24173:24179   */\n      dup3\n        /* \"#utility.yul\":24169:24183   */\n      add\n        /* \"#utility.yul\":24162:24211   */\n      mstore\n        /* \"#utility.yul\":24045:24218   */\n      pop\n      jump\t// out\n        /* \"#utility.yul\":24224:24384   */\n    tag_611:\n        /* \"#utility.yul\":24364:24376   */\n      0x7061697220657869737400000000000000000000000000000000000000000000\n        /* \"#utility.yul\":24360:24361   */\n      0x00\n        /* \"#utility.yul\":24352:24358   */\n      dup3\n        /* \"#utility.yul\":24348:24362   */\n      add\n        /* \"#utility.yul\":24341:24377   */\n      mstore\n        /* \"#utility.yul\":24224:24384   */\n      pop\n      jump\t// out\n        /* \"#utility.yul\":24390:24561   */\n    tag_616:\n        /* \"#utility.yul\":24530:24553   */\n      0x706f6f6c20686173206e6f742066696e69736865640000000000000000000000\n        /* \"#utility.yul\":24526:24527   */\n      0x00\n        /* \"#utility.yul\":24518:24524   */\n      dup3\n        /* \"#utility.yul\":24514:24528   */\n      add\n        /* \"#utility.yul\":24507:24554   */\n      mstore\n        /* \"#utility.yul\":24390:24561   */\n      pop\n      jump\t// out\n        /* \"#utility.yul\":24567:24738   */\n    tag_621:\n        /* \"#utility.yul\":24707:24730   */\n      0x6e6f7420656e6f75676820766f7465416d6f756e740000000000000000000000\n        /* \"#utility.yul\":24703:24704   */\n      0x00\n        /* \"#utility.yul\":24695:24701   */\n      dup3\n        /* \"#utility.yul\":24691:24705   */\n      add\n        /* \"#utility.yul\":24684:24731   */\n      mstore\n        /* \"#utility.yul\":24567:24738   */\n      pop\n      jump\t// out\n        /* \"#utility.yul\":24744:24910   */\n    tag_626:\n        /* \"#utility.yul\":24884:24902   */\n      0x6e6f7420656e6f75676820626173616c00000000000000000000000000000000\n        /* \"#utility.yul\":24880:24881   */\n      0x00\n        /* \"#utility.yul\":24872:24878   */\n      dup3\n        /* \"#utility.yul\":24868:24882   */\n      add\n        /* \"#utility.yul\":24861:24903   */\n      mstore\n        /* \"#utility.yul\":24744:24910   */\n      pop\n      jump\t// out\n        /* \"#utility.yul\":24916:25083   */\n    tag_631:\n        /* \"#utility.yul\":25056:25075   */\n      0x706f6f6c206861732066696e6973686564000000000000000000000000000000\n        /* \"#utility.yul\":25052:25053   */\n      0x00\n        /* \"#utility.yul\":25044:25050   */\n      dup3\n        /* \"#utility.yul\":25040:25054   */\n      add\n        /* \"#utility.yul\":25033:25076   */\n      mstore\n        /* \"#utility.yul\":24916:25083   */\n      pop\n      jump\t// out\n        /* \"#utility.yul\":25089:25211   */\n    tag_485:\n        /* \"#utility.yul\":25162:25186   */\n      tag_765\n        /* \"#utility.yul\":25180:25185   */\n      dup2\n        /* \"#utility.yul\":25162:25186   */\n      tag_557\n      jump\t// in\n    tag_765:\n        /* \"#utility.yul\":25155:25160   */\n      dup2\n        /* \"#utility.yul\":25152:25187   */\n      eq\n        /* \"#utility.yul\":25142:25205   */\n      tag_766\n      jumpi\n        /* \"#utility.yul\":25201:25202   */\n      0x00\n        /* \"#utility.yul\":25198:25199   */\n      dup1\n        /* \"#utility.yul\":25191:25203   */\n      revert\n        /* \"#utility.yul\":25142:25205   */\n    tag_766:\n        /* \"#utility.yul\":25089:25211   */\n      pop\n      jump\t// out\n        /* \"#utility.yul\":25217:25333   */\n    tag_489:\n        /* \"#utility.yul\":25287:25308   */\n      tag_768\n        /* \"#utility.yul\":25302:25307   */\n      dup2\n        /* \"#utility.yul\":25287:25308   */\n      tag_561\n      jump\t// in\n    tag_768:\n        /* \"#utility.yul\":25280:25285   */\n      dup2\n        /* \"#utility.yul\":25277:25309   */\n      eq\n        /* \"#utility.yul\":25267:25327   */\n      tag_769\n      jumpi\n        /* \"#utility.yul\":25323:25324   */\n      0x00\n        /* \"#utility.yul\":25320:25321   */\n      dup1\n        /* \"#utility.yul\":25313:25325   */\n      revert\n        /* \"#utility.yul\":25267:25327   */\n    tag_769:\n        /* \"#utility.yul\":25217:25333   */\n      pop\n      jump\t// out\n        /* \"#utility.yul\":25339:25461   */\n    tag_493:\n        /* \"#utility.yul\":25412:25436   */\n      tag_771\n        /* \"#utility.yul\":25430:25435   */\n      dup2\n        /* \"#utility.yul\":25412:25436   */\n      tag_565\n      jump\t// in\n    tag_771:\n        /* \"#utility.yul\":25405:25410   */\n      dup2\n        /* \"#utility.yul\":25402:25437   */\n      eq\n        /* \"#utility.yul\":25392:25455   */\n      tag_772\n      jumpi\n        /* \"#utility.yul\":25451:25452   */\n      0x00\n        /* \"#utility.yul\":25448:25449   */\n      dup1\n        /* \"#utility.yul\":25441:25453   */\n      revert\n        /* \"#utility.yul\":25392:25455   */\n    tag_772:\n        /* \"#utility.yul\":25339:25461   */\n      pop\n      jump\t// out\n        /* \"#utility.yul\":25467:25589   */\n    tag_503:\n        /* \"#utility.yul\":25540:25564   */\n      tag_774\n        /* \"#utility.yul\":25558:25563   */\n      dup2\n        /* \"#utility.yul\":25540:25564   */\n      tag_635\n      jump\t// in\n    tag_774:\n        /* \"#utility.yul\":25533:25538   */\n      dup2\n        /* \"#utility.yul\":25530:25565   */\n      eq\n        /* \"#utility.yul\":25520:25583   */\n      tag_775\n      jumpi\n        /* \"#utility.yul\":25579:25580   */\n      0x00\n        /* \"#utility.yul\":25576:25577   */\n      dup1\n        /* \"#utility.yul\":25569:25581   */\n      revert\n        /* \"#utility.yul\":25520:25583   */\n    tag_775:\n        /* \"#utility.yul\":25467:25589   */\n      pop\n      jump\t// out\n\n    auxdata: 0xa2646970667358221220a73601a91d250ea6e7f6d654f1b702b728755a94b07b544db45bcfbc885f0ba664736f6c63430008070033\n}\n",
				"bytecode": {
					"linkReferences": {},
					"object": "60806040523480156200001157600080fd5b5060405162003f1c38038062003f1c8339818101604052810190620000379190620000b4565b816000806101000a81548173ffffffffffffffffffffffffffffffffffffffff021916908373ffffffffffffffffffffffffffffffffffffffff16021790555080600781905550505062000172565b60008151905062000097816200013e565b92915050565b600081519050620000ae8162000158565b92915050565b60008060408385031215620000ce57620000cd62000139565b5b6000620000de8582860162000086565b9250506020620000f1858286016200009d565b9150509250929050565b600062000108826200010f565b9050919050565b600073ffffffffffffffffffffffffffffffffffffffff82169050919050565b6000819050919050565b600080fd5b6200014981620000fb565b81146200015557600080fd5b50565b62000163816200012f565b81146200016f57600080fd5b50565b613d9a80620001826000396000f3fe60806040526004361061008a5760003560e01c80634121855f116100595780634121855f1461025357806347e4dd271461029057806374fe9bc2146102cd5780639bd0abf1146102fd578063b8e5303d1461032d57610179565b80630ce490531461017e5780632bf21ecc146101ae578063357965ba146101eb5780633e6ff1a21461022857610179565b366101795760008054906101000a900473ffffffffffffffffffffffffffffffffffffffff1673ffffffffffffffffffffffffffffffffffffffff163373ffffffffffffffffffffffffffffffffffffffff16146101765734600560003373ffffffffffffffffffffffffffffffffffffffff1673ffffffffffffffffffffffffffffffffffffffff1681526020019081526020016000206000828254610131919061381e565b925050819055507f88a5966d370b9919b20f3e2c13ff65706f196a4e32cc2c12bf57088f885258743334604051610169929190613583565b60405180910390a1610177565b5b005b600080fd5b6101986004803603810190610193919061308b565b610370565b6040516101a591906135ac565b60405180910390f35b3480156101ba57600080fd5b506101d560048036038101906101d091906131c5565b6107a8565b6040516101e291906135ac565b60405180910390f35b3480156101f757600080fd5b50610212600480360381019061020d919061326c565b610ba7565b60405161021f91906135c7565b60405180910390f35b34801561023457600080fd5b5061023d610e6f565b60405161024a9190613786565b60405180910390f35b34801561025f57600080fd5b5061027a60048036038101906102759190613198565b610f08565b6040516102879190613786565b60405180910390f35b34801561029c57600080fd5b506102b760048036038101906102b2919061310b565b61129f565b6040516102c491906135ac565b60405180910390f35b6102e760048036038101906102e29190613205565b611a80565b6040516102f491906135ac565b60405180910390f35b610317600480360381019061031291906130cb565b6124f3565b60405161032491906135ac565b60405180910390f35b34801561033957600080fd5b50610354600480360381019061034f9190613198565b6126ea565b60405161036797969594939291906135e2565b60405180910390f35b60008060009054906101000a900473ffffffffffffffffffffffffffffffffffffffff1673ffffffffffffffffffffffffffffffffffffffff163373ffffffffffffffffffffffffffffffffffffffff1614610401576040517f08c379a00000000000000000000000000000000000000000000000000000000081526004016103f890613666565b60405180910390fd5b61040a82612998565b610449576040517f08c379a0000000000000000000000000000000000000000000000000000000008152600401610440906136a6565b60405180910390fd5b6000600660008481526020019081526020016000206040518061016001604052908160008201805461047a906139c7565b80601f01602080910402602001604051908101604052809291908181526020018280546104a6906139c7565b80156104f35780601f106104c8576101008083540402835291602001916104f3565b820191906000526020600020905b8154815290600101906020018083116104d657829003601f168201915b5050505050815260200160018201805461050c906139c7565b80601f0160208091040260200160405190810160405280929190818152602001828054610538906139c7565b80156105855780601f1061055a57610100808354040283529160200191610585565b820191906000526020600020905b81548152906001019060200180831161056857829003601f168201915b5050505050815260200160028201805461059e906139c7565b80601f01602080910402602001604051908101604052809291908181526020018280546105ca906139c7565b80156106175780601f106105ec57610100808354040283529160200191610617565b820191906000526020600020905b8154815290600101906020018083116105fa57829003601f168201915b5050505050815260200160038201548152602001600482015481526020016005820154815260200160068201548152602001600782015481526020016008820160009054906101000a900460ff161515151581526020016008820160019054906101000a900460ff161515151581526020016008820160029054906101000a900460ff161515151581525050905060006106fb600a8360e001518460c0015185608001518660a0015187606001516106cf919061381e565b6106d9919061381e565b6106e3919061381e565b6106ed919061381e565b6129c590919063ffffffff16565b90506001826101400190151590811515815250156107655760008590508073ffffffffffffffffffffffffffffffffffffffff166108fc839081150290604051600060405180830381858888f1935050505015801561075e573d6000803e3d6000fd5b50506107a0565b6040517f08c379a000000000000000000000000000000000000000000000000000000000815260040161079790613706565b60405180910390fd5b505092915050565b60008060009054906101000a900473ffffffffffffffffffffffffffffffffffffffff1673ffffffffffffffffffffffffffffffffffffffff163373ffffffffffffffffffffffffffffffffffffffff1614610839576040517f08c379a000000000000000000000000000000000000000000000000000000000815260040161083090613666565b60405180910390fd5b61084283612998565b610881576040517f08c379a0000000000000000000000000000000000000000000000000000000008152600401610878906136a6565b60405180910390fd5b600060066000858152602001908152602001600020604051806101600160405290816000820180546108b2906139c7565b80601f01602080910402602001604051908101604052809291908181526020018280546108de906139c7565b801561092b5780601f106109005761010080835404028352916020019161092b565b820191906000526020600020905b81548152906001019060200180831161090e57829003601f168201915b50505050508152602001600182018054610944906139c7565b80601f0160208091040260200160405190810160405280929190818152602001828054610970906139c7565b80156109bd5780601f10610992576101008083540402835291602001916109bd565b820191906000526020600020905b8154815290600101906020018083116109a057829003601f168201915b505050505081526020016002820180546109d6906139c7565b80601f0160208091040260200160405190810160405280929190818152602001828054610a02906139c7565b8015610a4f5780601f10610a2457610100808354040283529160200191610a4f565b820191906000526020600020905b815481529060010190602001808311610a3257829003601f168201915b5050505050815260200160038201548152602001600482015481526020016005820154815260200160068201548152602001600782015481526020016008820160009054906101000a900460ff161515151581526020016008820160019054906101000a900460ff161515151581526020016008820160029054906101000a900460ff161515151581525050905060008160e001511115610b25576040517f08c379a0000000000000000000000000000000000000000000000000000000008152600401610b1c906136c6565b60405180910390fd5b826007541115610b6a576040517f08c379a0000000000000000000000000000000000000000000000000000000008152600401610b6190613746565b60405180910390fd5b828160e001818151610b7c919061381e565b915081815250508260076000828254610b9591906138ff565b92505081905550600191505092915050565b60008060009054906101000a900473ffffffffffffffffffffffffffffffffffffffff1673ffffffffffffffffffffffffffffffffffffffff163373ffffffffffffffffffffffffffffffffffffffff1614610c38576040517f08c379a0000000000000000000000000000000000000000000000000000000008152600401610c2f90613666565b60405180910390fd5b6000610c4486866129ed565b90506000610c5282866129ed565b9050600081604051602001610c679190613551565b604051602081830303815290604052805190602001209050610c8881612998565b15610cc8576040517f08c379a0000000000000000000000000000000000000000000000000000000008152600401610cbf906136e6565b60405180910390fd5b60016006600083815260200190815260200160002060080160016101000a81548160ff02191690831515021790555087600660008381526020019081526020016000206000019080519060200190610d21929190612f24565b5086600660008381526020019081526020016000206001019080519060200190610d4c929190612f24565b5085600660008381526020019081526020016000206002019080519060200190610d77929190612f24565b506000600660008381526020019081526020016000206003018190555060006006600083815260200190815260200160002060040181905550600060066000838152602001908152602001600020600501819055506000600660008381526020019081526020016000206006018190555060006006600083815260200190815260200160002060070181905550846006600083815260200190815260200160002060080160006101000a81548160ff02191690831515021790555060006006600083815260200190815260200160002060080160026101000a81548160ff021916908315150217905550809350505050949350505050565b60008060009054906101000a900473ffffffffffffffffffffffffffffffffffffffff1673ffffffffffffffffffffffffffffffffffffffff163373ffffffffffffffffffffffffffffffffffffffff1614610f00576040517f08c379a0000000000000000000000000000000000000000000000000000000008152600401610ef790613666565b60405180910390fd5b600754905090565b60008060009054906101000a900473ffffffffffffffffffffffffffffffffffffffff1673ffffffffffffffffffffffffffffffffffffffff163373ffffffffffffffffffffffffffffffffffffffff1614610f99576040517f08c379a0000000000000000000000000000000000000000000000000000000008152600401610f9090613666565b60405180910390fd5b610fa282612998565b610fe1576040517f08c379a0000000000000000000000000000000000000000000000000000000008152600401610fd8906136a6565b60405180910390fd5b60006006600084815260200190815260200160002060405180610160016040529081600082018054611012906139c7565b80601f016020809104026020016040519081016040528092919081815260200182805461103e906139c7565b801561108b5780601f106110605761010080835404028352916020019161108b565b820191906000526020600020905b81548152906001019060200180831161106e57829003601f168201915b505050505081526020016001820180546110a4906139c7565b80601f01602080910402602001604051908101604052809291908181526020018280546110d0906139c7565b801561111d5780601f106110f25761010080835404028352916020019161111d565b820191906000526020600020905b81548152906001019060200180831161110057829003601f168201915b50505050508152602001600282018054611136906139c7565b80601f0160208091040260200160405190810160405280929190818152602001828054611162906139c7565b80156111af5780601f10611184576101008083540402835291602001916111af565b820191906000526020600020905b81548152906001019060200180831161119257829003601f168201915b5050505050815260200160038201548152602001600482015481526020016005820154815260200160068201548152602001600782015481526020016008820160009054906101000a900460ff161515151581526020016008820160019054906101000a900460ff161515151581526020016008820160029054906101000a900460ff16151515158152505090506000611293600a8360e001518460c0015185608001518660a001518760600151611267919061381e565b611271919061381e565b61127b919061381e565b611285919061381e565b6129c590919063ffffffff16565b90508092505050919050565b60008060009054906101000a900473ffffffffffffffffffffffffffffffffffffffff1673ffffffffffffffffffffffffffffffffffffffff163373ffffffffffffffffffffffffffffffffffffffff1614611330576040517f08c379a000000000000000000000000000000000000000000000000000000000815260040161132790613666565b60405180910390fd5b61133985612998565b611378576040517f08c379a000000000000000000000000000000000000000000000000000000000815260040161136f906136a6565b60405180910390fd5b85600560008973ffffffffffffffffffffffffffffffffffffffff1673ffffffffffffffffffffffffffffffffffffffff1681526020019081526020016000205410156113fa576040517f08c379a00000000000000000000000000000000000000000000000000000000081526004016113f190613726565b60405180910390fd5b6000600660008781526020019081526020016000206040518061016001604052908160008201805461142b906139c7565b80601f0160208091040260200160405190810160405280929190818152602001828054611457906139c7565b80156114a45780601f10611479576101008083540402835291602001916114a4565b820191906000526020600020905b81548152906001019060200180831161148757829003601f168201915b505050505081526020016001820180546114bd906139c7565b80601f01602080910402602001604051908101604052809291908181526020018280546114e9906139c7565b80156115365780601f1061150b57610100808354040283529160200191611536565b820191906000526020600020905b81548152906001019060200180831161151957829003601f168201915b5050505050815260200160028201805461154f906139c7565b80601f016020809104026020016040519081016040528092919081815260200182805461157b906139c7565b80156115c85780601f1061159d576101008083540402835291602001916115c8565b820191906000526020600020905b8154815290600101906020018083116115ab57829003601f168201915b5050505050815260200160038201548152602001600482015481526020016005820154815260200160068201548152602001600782015481526020016008820160009054906101000a900460ff161515151581526020016008820160019054906101000a900460ff161515151581526020016008820160029054906101000a900460ff1615151515815250509050600061167261166487612b83565b61166d87612b83565b6129ed565b9050600061168861168289612bb4565b836129ed565b905060006040518060e001604052808b81526020018781526020018981526020018881526020018c73ffffffffffffffffffffffffffffffffffffffff16815260200183815260200160001515815250905088600260008b815260200190815260200160002060010181905550600260008a81526020019081526020016000206000018190806001815401808255809150506001900390600052602060002090600702016000909190919091506000820151816000015560208201518160010155604082015181600201556060820151816003015560808201518160040160006101000a81548173ffffffffffffffffffffffffffffffffffffffff021916908373ffffffffffffffffffffffffffffffffffffffff16021790555060a08201518160050190805190602001906117c0929190612f24565b5060c08201518160060160006101000a81548160ff02191690831515021790555050508a600460008d73ffffffffffffffffffffffffffffffffffffffff1673ffffffffffffffffffffffffffffffffffffffff16815260200190815260200160002060010160006101000a81548173ffffffffffffffffffffffffffffffffffffffff021916908373ffffffffffffffffffffffffffffffffffffffff160217905550600260008a81526020019081526020016000206000018190806001815401808255809150506001900390600052602060002090600702016000909190919091506000820151816000015560208201518160010155604082015181600201556060820151816003015560808201518160040160006101000a81548173ffffffffffffffffffffffffffffffffffffffff021916908373ffffffffffffffffffffffffffffffffffffffff16021790555060a082015181600501908051906020019061192f929190612f24565b5060c08201518160060160006101000a81548160ff021916908315150217905550505060028614156119ae57898460c00181815161196d919061381e565b91508181525050896003836040516119859190613551565b908152602001604051809103902060008282546119a2919061381e565b92505081905550611a18565b60038614156119d55789846060018181516119c9919061381e565b91508181525050611a17565b60018614156119fc5789846080018181516119f0919061381e565b91508181525050611a16565b898460a001818151611a0e919061381e565b915081815250505b5b5b89600560008d73ffffffffffffffffffffffffffffffffffffffff1673ffffffffffffffffffffffffffffffffffffffff1681526020019081526020016000206000828254611a6791906138ff565b9250508190555050505050600190509695505050505050565b60008060009054906101000a900473ffffffffffffffffffffffffffffffffffffffff1673ffffffffffffffffffffffffffffffffffffffff163373ffffffffffffffffffffffffffffffffffffffff1614611b11576040517f08c379a0000000000000000000000000000000000000000000000000000000008152600401611b0890613666565b60405180910390fd5b611b1a85612998565b611b59576040517f08c379a0000000000000000000000000000000000000000000000000000000008152600401611b50906136a6565b60405180910390fd5b60006006600087815260200190815260200160002060405180610160016040529081600082018054611b8a906139c7565b80601f0160208091040260200160405190810160405280929190818152602001828054611bb6906139c7565b8015611c035780601f10611bd857610100808354040283529160200191611c03565b820191906000526020600020905b815481529060010190602001808311611be657829003601f168201915b50505050508152602001600182018054611c1c906139c7565b80601f0160208091040260200160405190810160405280929190818152602001828054611c48906139c7565b8015611c955780601f10611c6a57610100808354040283529160200191611c95565b820191906000526020600020905b815481529060010190602001808311611c7857829003601f168201915b50505050508152602001600282018054611cae906139c7565b80601f0160208091040260200160405190810160405280929190818152602001828054611cda906139c7565b8015611d275780601f10611cfc57610100808354040283529160200191611d27565b820191906000526020600020905b815481529060010190602001808311611d0a57829003601f168201915b5050505050815260200160038201548152602001600482015481526020016005820154815260200160068201548152602001600782015481526020016008820160009054906101000a900460ff161515151581526020016008820160019054906101000a900460ff161515151581526020016008820160029054906101000a900460ff1615151515815250509050600181610140019015159081151581525015611e06576040517f08c379a0000000000000000000000000000000000000000000000000000000008152600401611dfd90613766565b60405180910390fd5b600060026000888152602001908152602001600020600001805480602002602001604051908101604052809291908181526020016000905b82821015611f9b57838290600052602060002090600702016040518060e0016040529081600082015481526020016001820154815260200160028201548152602001600382015481526020016004820160009054906101000a900473ffffffffffffffffffffffffffffffffffffffff1673ffffffffffffffffffffffffffffffffffffffff1673ffffffffffffffffffffffffffffffffffffffff168152602001600582018054611eef906139c7565b80601f0160208091040260200160405190810160405280929190818152602001828054611f1b906139c7565b8015611f685780601f10611f3d57610100808354040283529160200191611f68565b820191906000526020600020905b815481529060010190602001808311611f4b57829003601f168201915b505050505081526020016006820160009054906101000a900460ff16151515158152505081526020019060010190611e3e565b505050509050600061200a6014611fc060028660e001516129c590919063ffffffff16565b85608001518660a0015187606001518860c00151611fde919061381e565b611fe8919061381e565b611ff2919061381e565b611ffc919061381e565b6129c590919063ffffffff16565b6007600082825461201b919061381e565b9250508190555060005b6001835161203391906138ff565b81116124d157600083828151811061204e5761204d613b14565b5b602002602001015160c00190151590811515815250156124be57600283828151811061207d5761207c613b14565b5b602002602001015160200151141561224e576120dc60646120ce60556120b160028960e001516129c590919063ffffffff16565b8860c001516120c0919061381e565b612be590919063ffffffff16565b6129c590919063ffffffff16565b9150878382815181106120f2576120f1613b14565b5b60200260200101516040015114801561212857508683828151811061211a57612119613b14565b5b602002602001015160600151145b15612249576000600384838151811061214457612143613b14565b5b602002602001015160a0015160405161215d9190613551565b908152602001604051809103902054905060008185848151811061218457612183613b14565b5b6020026020010151600001518561219b91906138a5565b6121a59190613874565b905080600560008786815181106121bf576121be613b14565b5b60200260200101516080015173ffffffffffffffffffffffffffffffffffffffff1673ffffffffffffffffffffffffffffffffffffffff1681526020019081526020016000206000828254612214919061381e565b9250508190555060018584815181106122305761222f613b14565b5b602002602001015160c001901515908115158152505050505b6124bd565b8583828151811061226257612261613b14565b5b60200260200101516020015114156124bc576122df60646122d1605561229660028960e001516129c590919063ffffffff16565b88608001518960a001518a606001516122af919061381e565b6122b9919061381e565b6122c3919061381e565b612be590919063ffffffff16565b6129c590919063ffffffff16565b91506000808483815181106122f7576122f6613b14565b5b602002602001015160200151141561233757612334606461232660558860a00151612be590919063ffffffff16565b6129c590919063ffffffff16565b90505b600184838151811061234c5761234b613b14565b5b602002602001015160200151141561238c57612389606461237b60558860800151612be590919063ffffffff16565b6129c590919063ffffffff16565b90505b60038483815181106123a1576123a0613b14565b5b60200260200101516020015114156123e1576123de60646123d060558860600151612be590919063ffffffff16565b6129c590919063ffffffff16565b90505b6000818584815181106123f7576123f6613b14565b5b6020026020010151600001518561240e91906138a5565b6124189190613874565b9050806005600087868151811061243257612431613b14565b5b60200260200101516080015173ffffffffffffffffffffffffffffffffffffffff1673ffffffffffffffffffffffffffffffffffffffff1681526020019081526020016000206000828254612487919061381e565b9250508190555060018584815181106124a3576124a2613b14565b5b602002602001015160c001901515908115158152505050505b5b5b80806124c990613a2a565b915050612025565b5060018361014001901515908115158152505050505060019050949350505050565b60008060009054906101000a900473ffffffffffffffffffffffffffffffffffffffff1673ffffffffffffffffffffffffffffffffffffffff163373ffffffffffffffffffffffffffffffffffffffff1614612584576040517f08c379a000000000000000000000000000000000000000000000000000000000815260040161257b90613666565b60405180910390fd5b81600560008573ffffffffffffffffffffffffffffffffffffffff1673ffffffffffffffffffffffffffffffffffffffff168152602001908152602001600020541015801561261357506000600560008573ffffffffffffffffffffffffffffffffffffffff1673ffffffffffffffffffffffffffffffffffffffff1681526020019081526020016000205410155b156126a95760008390508073ffffffffffffffffffffffffffffffffffffffff166108fc600560008773ffffffffffffffffffffffffffffffffffffffff1673ffffffffffffffffffffffffffffffffffffffff168152602001908152602001600020549081150290604051600060405180830381858888f193505050501580156126a2573d6000803e3d6000fd5b50506126e4565b6040517f08c379a00000000000000000000000000000000000000000000000000000000081526004016126db90613726565b60405180910390fd5b92915050565b60608060606000806000806126fe88612998565b61273d576040517f08c379a000000000000000000000000000000000000000000000000000000000815260040161273490613686565b60405180910390fd5b60066000898152602001908152602001600020600001600660008a8152602001908152602001600020600101600660008b8152602001908152602001600020600201600660008c815260200190815260200160002060030154600660008d815260200190815260200160002060040154600660008e815260200190815260200160002060050154600660008f8152602001908152602001600020600601548680546127e7906139c7565b80601f0160208091040260200160405190810160405280929190818152602001828054612813906139c7565b80156128605780601f1061283557610100808354040283529160200191612860565b820191906000526020600020905b81548152906001019060200180831161284357829003601f168201915b50505050509650858054612873906139c7565b80601f016020809104026020016040519081016040528092919081815260200182805461289f906139c7565b80156128ec5780601f106128c1576101008083540402835291602001916128ec565b820191906000526020600020905b8154815290600101906020018083116128cf57829003601f168201915b505050505095508480546128ff906139c7565b80601f016020809104026020016040519081016040528092919081815260200182805461292b906139c7565b80156129785780601f1061294d57610100808354040283529160200191612978565b820191906000526020600020905b81548152906001019060200180831161295b57829003601f168201915b505050505094509650965096509650965096509650919395979092949650565b60006006600083815260200190815260200160002060080160019054906101000a900460ff169050919050565b60008082116129d357600080fd5b600082846129e19190613874565b90508091505092915050565b606060008390506000839050600081518351612a09919061381e565b67ffffffffffffffff811115612a2257612a21613b43565b5b6040519080825280601f01601f191660200182016040528015612a545781602001600182028036833780820191505090505b50905060008190506000805b8551811015612ae857858181518110612a7c57612a7b613b14565b5b602001015160f81c60f81b838380612a9390613a2a565b945081518110612aa657612aa5613b14565b5b60200101907effffffffffffffffffffffffffffffffffffffffffffffffffffffffffffff1916908160001a9053508080612ae090613a2a565b915050612a60565b5060005b8451811015612b7457848181518110612b0857612b07613b14565b5b602001015160f81c60f81b838380612b1f90613a2a565b945081518110612b3257612b31613b14565b5b60200101907effffffffffffffffffffffffffffffffffffffffffffffffffffffffffffff1916908160001a9053508080612b6c90613a2a565b915050612aec565b50829550505050505092915050565b6060612bad82604051602001612b999190613568565b604051602081830303815290604052612c2a565b9050919050565b6060612bde82604051602001612bca9190613536565b604051602081830303815290604052612c2a565b9050919050565b600080831415612bf85760009050612c24565b60008284612c0691906138a5565b9050828482612c159190613874565b14612c1f57600080fd5b809150505b92915050565b606060006040518060400160405280601081526020017f30313233343536373839616263646566000000000000000000000000000000008152509050600060028451612c7691906138a5565b6002612c82919061381e565b67ffffffffffffffff811115612c9b57612c9a613b43565b5b6040519080825280601f01601f191660200182016040528015612ccd5781602001600182028036833780820191505090505b5090507f300000000000000000000000000000000000000000000000000000000000000081600081518110612d0557612d04613b14565b5b60200101907effffffffffffffffffffffffffffffffffffffffffffffffffffffffffffff1916908160001a9053507f780000000000000000000000000000000000000000000000000000000000000081600181518110612d6957612d68613b14565b5b60200101907effffffffffffffffffffffffffffffffffffffffffffffffffffffffffffff1916908160001a90535060005b8451811015612f1957826004868381518110612dba57612db9613b14565b5b602001015160f81c60f81b7effffffffffffffffffffffffffffffffffffffffffffffffffffffffffffff1916901c60f81c60ff1681518110612e0057612dff613b14565b5b602001015160f81c60f81b82600283612e1991906138a5565b6002612e25919061381e565b81518110612e3657612e35613b14565b5b60200101907effffffffffffffffffffffffffffffffffffffffffffffffffffffffffffff1916908160001a90535082600f60f81b868381518110612e7e57612e7d613b14565b5b602001015160f81c60f81b1660f81c60ff1681518110612ea157612ea0613b14565b5b602001015160f81c60f81b82600283612eba91906138a5565b6003612ec6919061381e565b81518110612ed757612ed6613b14565b5b60200101907effffffffffffffffffffffffffffffffffffffffffffffffffffffffffffff1916908160001a9053508080612f1190613a2a565b915050612d9b565b508092505050919050565b828054612f30906139c7565b90600052602060002090601f016020900481019282612f525760008555612f99565b82601f10612f6b57805160ff1916838001178555612f99565b82800160010185558215612f99579182015b82811115612f98578251825591602001919060010190612f7d565b5b509050612fa69190612faa565b5090565b5b80821115612fc3576000816000905550600101612fab565b5090565b6000612fda612fd5846137c6565b6137a1565b905082815260208101848484011115612ff657612ff5613b77565b5b613001848285613985565b509392505050565b60008135905061301881613d08565b92915050565b60008135905061302d81613d1f565b92915050565b60008135905061304281613d36565b92915050565b600082601f83011261305d5761305c613b72565b5b813561306d848260208601612fc7565b91505092915050565b60008135905061308581613d4d565b92915050565b600080604083850312156130a2576130a1613b81565b5b60006130b085828601613009565b92505060206130c185828601613033565b9150509250929050565b600080604083850312156130e2576130e1613b81565b5b60006130f085828601613009565b925050602061310185828601613076565b9150509250929050565b60008060008060008060c0878903121561312857613127613b81565b5b600061313689828a01613009565b965050602061314789828a01613076565b955050604061315889828a01613033565b945050606061316989828a01613076565b935050608061317a89828a01613076565b92505060a061318b89828a01613076565b9150509295509295509295565b6000602082840312156131ae576131ad613b81565b5b60006131bc84828501613033565b91505092915050565b600080604083850312156131dc576131db613b81565b5b60006131ea85828601613033565b92505060206131fb85828601613076565b9150509250929050565b6000806000806080858703121561321f5761321e613b81565b5b600061322d87828801613033565b945050602061323e87828801613076565b935050604061324f87828801613076565b925050606061326087828801613076565b91505092959194509250565b6000806000806080858703121561328657613285613b81565b5b600085013567ffffffffffffffff8111156132a4576132a3613b7c565b5b6132b087828801613048565b945050602085013567ffffffffffffffff8111156132d1576132d0613b7c565b5b6132dd87828801613048565b935050604085013567ffffffffffffffff8111156132fe576132fd613b7c565b5b61330a87828801613048565b925050606061331b8782880161301e565b91505092959194509250565b61333081613933565b82525050565b61333f81613945565b82525050565b61334e81613951565b82525050565b61336561336082613951565b613a73565b82525050565b6000613376826137f7565b6133808185613802565b9350613390818560208601613994565b61339981613b86565b840191505092915050565b60006133af826137f7565b6133b98185613813565b93506133c9818560208601613994565b80840191505092915050565b60006133e2601983613802565b91506133ed82613b97565b602082019050919050565b6000613405600983613802565b915061341082613bc0565b602082019050919050565b6000613428600e83613802565b915061343382613be9565b602082019050919050565b600061344b601783613802565b915061345682613c12565b602082019050919050565b600061346e600a83613802565b915061347982613c3b565b602082019050919050565b6000613491601583613802565b915061349c82613c64565b602082019050919050565b60006134b4601583613802565b91506134bf82613c8d565b602082019050919050565b60006134d7601083613802565b91506134e282613cb6565b602082019050919050565b60006134fa601183613802565b915061350582613cdf565b602082019050919050565b6135198161397b565b82525050565b61353061352b8261397b565b613a7d565b82525050565b60006135428284613354565b60208201915081905092915050565b600061355d82846133a4565b915081905092915050565b6000613574828461351f565b60208201915081905092915050565b60006040820190506135986000830185613327565b6135a56020830184613510565b9392505050565b60006020820190506135c16000830184613336565b92915050565b60006020820190506135dc6000830184613345565b92915050565b600060e08201905081810360008301526135fc818a61336b565b90508181036020830152613610818961336b565b90508181036040830152613624818861336b565b90506136336060830187613510565b6136406080830186613510565b61364d60a0830185613510565b61365a60c0830184613510565b98975050505050505050565b6000602082019050818103600083015261367f816133d5565b9050919050565b6000602082019050818103600083015261369f816133f8565b9050919050565b600060208201905081810360008301526136bf8161341b565b9050919050565b600060208201905081810360008301526136df8161343e565b9050919050565b600060208201905081810360008301526136ff81613461565b9050919050565b6000602082019050818103600083015261371f81613484565b9050919050565b6000602082019050818103600083015261373f816134a7565b9050919050565b6000602082019050818103600083015261375f816134ca565b9050919050565b6000602082019050818103600083015261377f816134ed565b9050919050565b600060208201905061379b6000830184613510565b92915050565b60006137ab6137bc565b90506137b782826139f9565b919050565b6000604051905090565b600067ffffffffffffffff8211156137e1576137e0613b43565b5b6137ea82613b86565b9050602081019050919050565b600081519050919050565b600082825260208201905092915050565b600081905092915050565b60006138298261397b565b91506138348361397b565b9250827fffffffffffffffffffffffffffffffffffffffffffffffffffffffffffffffff0382111561386957613868613a87565b5b828201905092915050565b600061387f8261397b565b915061388a8361397b565b92508261389a57613899613ab6565b5b828204905092915050565b60006138b08261397b565b91506138bb8361397b565b9250817fffffffffffffffffffffffffffffffffffffffffffffffffffffffffffffffff04831182151516156138f4576138f3613a87565b5b828202905092915050565b600061390a8261397b565b91506139158361397b565b92508282101561392857613927613a87565b5b828203905092915050565b600061393e8261395b565b9050919050565b60008115159050919050565b6000819050919050565b600073ffffffffffffffffffffffffffffffffffffffff82169050919050565b6000819050919050565b82818337600083830152505050565b60005b838110156139b2578082015181840152602081019050613997565b838111156139c1576000848401525b50505050565b600060028204905060018216806139df57607f821691505b602082108114156139f3576139f2613ae5565b5b50919050565b613a0282613b86565b810181811067ffffffffffffffff82111715613a2157613a20613b43565b5b80604052505050565b6000613a358261397b565b91507fffffffffffffffffffffffffffffffffffffffffffffffffffffffffffffffff821415613a6857613a67613a87565b5b600182019050919050565b6000819050919050565b6000819050919050565b7f4e487b7100000000000000000000000000000000000000000000000000000000600052601160045260246000fd5b7f4e487b7100000000000000000000000000000000000000000000000000000000600052601260045260246000fd5b7f4e487b7100000000000000000000000000000000000000000000000000000000600052602260045260246000fd5b7f4e487b7100000000000000000000000000000000000000000000000000000000600052603260045260246000fd5b7f4e487b7100000000000000000000000000000000000000000000000000000000600052604160045260246000fd5b600080fd5b600080fd5b600080fd5b600080fd5b6000601f19601f8301169050919050565b7f4f6e6c79206f776e65722063616e2063616c6c20746869732e00000000000000600082015250565b7f6e6f742065786973740000000000000000000000000000000000000000000000600082015250565b7f706f6f6c206e6f74206578697374000000000000000000000000000000000000600082015250565b7f706f6f6c20626173616c20686173206265656e20736574000000000000000000600082015250565b7f7061697220657869737400000000000000000000000000000000000000000000600082015250565b7f706f6f6c20686173206e6f742066696e69736865640000000000000000000000600082015250565b7f6e6f7420656e6f75676820766f7465416d6f756e740000000000000000000000600082015250565b7f6e6f7420656e6f75676820626173616c00000000000000000000000000000000600082015250565b7f706f6f6c206861732066696e6973686564000000000000000000000000000000600082015250565b613d1181613933565b8114613d1c57600080fd5b50565b613d2881613945565b8114613d3357600080fd5b50565b613d3f81613951565b8114613d4a57600080fd5b50565b613d568161397b565b8114613d6157600080fd5b5056fea2646970667358221220a73601a91d250ea6e7f6d654f1b702b728755a94b07b544db45bcfbc885f0ba664736f6c63430008070033",
					"opcodes": "PUSH1 0x80 PUSH1 0x40 MSTORE CALLVALUE DUP1 ISZERO PUSH3 0x11 JUMPI PUSH1 0x0 DUP1 REVERT JUMPDEST POP PUSH1 0x40 MLOAD PUSH3 0x3F1C CODESIZE SUB DUP1 PUSH3 0x3F1C DUP4 CODECOPY DUP2 DUP2 ADD PUSH1 0x40 MSTORE DUP2 ADD SWAP1 PUSH3 0x37 SWAP2 SWAP1 PUSH3 0xB4 JUMP JUMPDEST DUP2 PUSH1 0x0 DUP1 PUSH2 0x100 EXP DUP2 SLOAD DUP2 PUSH20 0xFFFFFFFFFFFFFFFFFFFFFFFFFFFFFFFFFFFFFFFF MUL NOT AND SWAP1 DUP4 PUSH20 0xFFFFFFFFFFFFFFFFFFFFFFFFFFFFFFFFFFFFFFFF AND MUL OR SWAP1 SSTORE POP DUP1 PUSH1 0x7 DUP2 SWAP1 SSTORE POP POP POP PUSH3 0x172 JUMP JUMPDEST PUSH1 0x0 DUP2 MLOAD SWAP1 POP PUSH3 0x97 DUP2 PUSH3 0x13E JUMP JUMPDEST SWAP3 SWAP2 POP POP JUMP JUMPDEST PUSH1 0x0 DUP2 MLOAD SWAP1 POP PUSH3 0xAE DUP2 PUSH3 0x158 JUMP JUMPDEST SWAP3 SWAP2 POP POP JUMP JUMPDEST PUSH1 0x0 DUP1 PUSH1 0x40 DUP4 DUP6 SUB SLT ISZERO PUSH3 0xCE JUMPI PUSH3 0xCD PUSH3 0x139 JUMP JUMPDEST JUMPDEST PUSH1 0x0 PUSH3 0xDE DUP6 DUP3 DUP7 ADD PUSH3 0x86 JUMP JUMPDEST SWAP3 POP POP PUSH1 0x20 PUSH3 0xF1 DUP6 DUP3 DUP7 ADD PUSH3 0x9D JUMP JUMPDEST SWAP2 POP POP SWAP3 POP SWAP3 SWAP1 POP JUMP JUMPDEST PUSH1 0x0 PUSH3 0x108 DUP3 PUSH3 0x10F JUMP JUMPDEST SWAP1 POP SWAP2 SWAP1 POP JUMP JUMPDEST PUSH1 0x0 PUSH20 0xFFFFFFFFFFFFFFFFFFFFFFFFFFFFFFFFFFFFFFFF DUP3 AND SWAP1 POP SWAP2 SWAP1 POP JUMP JUMPDEST PUSH1 0x0 DUP2 SWAP1 POP SWAP2 SWAP1 POP JUMP JUMPDEST PUSH1 0x0 DUP1 REVERT JUMPDEST PUSH3 0x149 DUP2 PUSH3 0xFB JUMP JUMPDEST DUP2 EQ PUSH3 0x155 JUMPI PUSH1 0x0 DUP1 REVERT JUMPDEST POP JUMP JUMPDEST PUSH3 0x163 DUP2 PUSH3 0x12F JUMP JUMPDEST DUP2 EQ PUSH3 0x16F JUMPI PUSH1 0x0 DUP1 REVERT JUMPDEST POP JUMP JUMPDEST PUSH2 0x3D9A DUP1 PUSH3 0x182 PUSH1 0x0 CODECOPY PUSH1 0x0 RETURN INVALID PUSH1 0x80 PUSH1 0x40 MSTORE PUSH1 0x4 CALLDATASIZE LT PUSH2 0x8A JUMPI PUSH1 0x0 CALLDATALOAD PUSH1 0xE0 SHR DUP1 PUSH4 0x4121855F GT PUSH2 0x59 JUMPI DUP1 PUSH4 0x4121855F EQ PUSH2 0x253 JUMPI DUP1 PUSH4 0x47E4DD27 EQ PUSH2 0x290 JUMPI DUP1 PUSH4 0x74FE9BC2 EQ PUSH2 0x2CD JUMPI DUP1 PUSH4 0x9BD0ABF1 EQ PUSH2 0x2FD JUMPI DUP1 PUSH4 0xB8E5303D EQ PUSH2 0x32D JUMPI PUSH2 0x179 JUMP JUMPDEST DUP1 PUSH4 0xCE49053 EQ PUSH2 0x17E JUMPI DUP1 PUSH4 0x2BF21ECC EQ PUSH2 0x1AE JUMPI DUP1 PUSH4 0x357965BA EQ PUSH2 0x1EB JUMPI DUP1 PUSH4 0x3E6FF1A2 EQ PUSH2 0x228 JUMPI PUSH2 0x179 JUMP JUMPDEST CALLDATASIZE PUSH2 0x179 JUMPI PUSH1 0x0 DUP1 SLOAD SWAP1 PUSH2 0x100 EXP SWAP1 DIV PUSH20 0xFFFFFFFFFFFFFFFFFFFFFFFFFFFFFFFFFFFFFFFF AND PUSH20 0xFFFFFFFFFFFFFFFFFFFFFFFFFFFFFFFFFFFFFFFF AND CALLER PUSH20 0xFFFFFFFFFFFFFFFFFFFFFFFFFFFFFFFFFFFFFFFF AND EQ PUSH2 0x176 JUMPI CALLVALUE PUSH1 0x5 PUSH1 0x0 CALLER PUSH20 0xFFFFFFFFFFFFFFFFFFFFFFFFFFFFFFFFFFFFFFFF AND PUSH20 0xFFFFFFFFFFFFFFFFFFFFFFFFFFFFFFFFFFFFFFFF AND DUP2 MSTORE PUSH1 0x20 ADD SWAP1 DUP2 MSTORE PUSH1 0x20 ADD PUSH1 0x0 KECCAK256 PUSH1 0x0 DUP3 DUP3 SLOAD PUSH2 0x131 SWAP2 SWAP1 PUSH2 0x381E JUMP JUMPDEST SWAP3 POP POP DUP2 SWAP1 SSTORE POP PUSH32 0x88A5966D370B9919B20F3E2C13FF65706F196A4E32CC2C12BF57088F88525874 CALLER CALLVALUE PUSH1 0x40 MLOAD PUSH2 0x169 SWAP3 SWAP2 SWAP1 PUSH2 0x3583 JUMP JUMPDEST PUSH1 0x40 MLOAD DUP1 SWAP2 SUB SWAP1 LOG1 PUSH2 0x177 JUMP JUMPDEST JUMPDEST STOP JUMPDEST PUSH1 0x0 DUP1 REVERT JUMPDEST PUSH2 0x198 PUSH1 0x4 DUP1 CALLDATASIZE SUB DUP2 ADD SWAP1 PUSH2 0x193 SWAP2 SWAP1 PUSH2 0x308B JUMP JUMPDEST PUSH2 0x370 JUMP JUMPDEST PUSH1 0x40 MLOAD PUSH2 0x1A5 SWAP2 SWAP1 PUSH2 0x35AC JUMP JUMPDEST PUSH1 0x40 MLOAD DUP1 SWAP2 SUB SWAP1 RETURN JUMPDEST CALLVALUE DUP1 ISZERO PUSH2 0x1BA JUMPI PUSH1 0x0 DUP1 REVERT JUMPDEST POP PUSH2 0x1D5 PUSH1 0x4 DUP1 CALLDATASIZE SUB DUP2 ADD SWAP1 PUSH2 0x1D0 SWAP2 SWAP1 PUSH2 0x31C5 JUMP JUMPDEST PUSH2 0x7A8 JUMP JUMPDEST PUSH1 0x40 MLOAD PUSH2 0x1E2 SWAP2 SWAP1 PUSH2 0x35AC JUMP JUMPDEST PUSH1 0x40 MLOAD DUP1 SWAP2 SUB SWAP1 RETURN JUMPDEST CALLVALUE DUP1 ISZERO PUSH2 0x1F7 JUMPI PUSH1 0x0 DUP1 REVERT JUMPDEST POP PUSH2 0x212 PUSH1 0x4 DUP1 CALLDATASIZE SUB DUP2 ADD SWAP1 PUSH2 0x20D SWAP2 SWAP1 PUSH2 0x326C JUMP JUMPDEST PUSH2 0xBA7 JUMP JUMPDEST PUSH1 0x40 MLOAD PUSH2 0x21F SWAP2 SWAP1 PUSH2 0x35C7 JUMP JUMPDEST PUSH1 0x40 MLOAD DUP1 SWAP2 SUB SWAP1 RETURN JUMPDEST CALLVALUE DUP1 ISZERO PUSH2 0x234 JUMPI PUSH1 0x0 DUP1 REVERT JUMPDEST POP PUSH2 0x23D PUSH2 0xE6F JUMP JUMPDEST PUSH1 0x40 MLOAD PUSH2 0x24A SWAP2 SWAP1 PUSH2 0x3786 JUMP JUMPDEST PUSH1 0x40 MLOAD DUP1 SWAP2 SUB SWAP1 RETURN JUMPDEST CALLVALUE DUP1 ISZERO PUSH2 0x25F JUMPI PUSH1 0x0 DUP1 REVERT JUMPDEST POP PUSH2 0x27A PUSH1 0x4 DUP1 CALLDATASIZE SUB DUP2 ADD SWAP1 PUSH2 0x275 SWAP2 SWAP1 PUSH2 0x3198 JUMP JUMPDEST PUSH2 0xF08 JUMP JUMPDEST PUSH1 0x40 MLOAD PUSH2 0x287 SWAP2 SWAP1 PUSH2 0x3786 JUMP JUMPDEST PUSH1 0x40 MLOAD DUP1 SWAP2 SUB SWAP1 RETURN JUMPDEST CALLVALUE DUP1 ISZERO PUSH2 0x29C JUMPI PUSH1 0x0 DUP1 REVERT JUMPDEST POP PUSH2 0x2B7 PUSH1 0x4 DUP1 CALLDATASIZE SUB DUP2 ADD SWAP1 PUSH2 0x2B2 SWAP2 SWAP1 PUSH2 0x310B JUMP JUMPDEST PUSH2 0x129F JUMP JUMPDEST PUSH1 0x40 MLOAD PUSH2 0x2C4 SWAP2 SWAP1 PUSH2 0x35AC JUMP JUMPDEST PUSH1 0x40 MLOAD DUP1 SWAP2 SUB SWAP1 RETURN JUMPDEST PUSH2 0x2E7 PUSH1 0x4 DUP1 CALLDATASIZE SUB DUP2 ADD SWAP1 PUSH2 0x2E2 SWAP2 SWAP1 PUSH2 0x3205 JUMP JUMPDEST PUSH2 0x1A80 JUMP JUMPDEST PUSH1 0x40 MLOAD PUSH2 0x2F4 SWAP2 SWAP1 PUSH2 0x35AC JUMP JUMPDEST PUSH1 0x40 MLOAD DUP1 SWAP2 SUB SWAP1 RETURN JUMPDEST PUSH2 0x317 PUSH1 0x4 DUP1 CALLDATASIZE SUB DUP2 ADD SWAP1 PUSH2 0x312 SWAP2 SWAP1 PUSH2 0x30CB JUMP JUMPDEST PUSH2 0x24F3 JUMP JUMPDEST PUSH1 0x40 MLOAD PUSH2 0x324 SWAP2 SWAP1 PUSH2 0x35AC JUMP JUMPDEST PUSH1 0x40 MLOAD DUP1 SWAP2 SUB SWAP1 RETURN JUMPDEST CALLVALUE DUP1 ISZERO PUSH2 0x339 JUMPI PUSH1 0x0 DUP1 REVERT JUMPDEST POP PUSH2 0x354 PUSH1 0x4 DUP1 CALLDATASIZE SUB DUP2 ADD SWAP1 PUSH2 0x34F SWAP2 SWAP1 PUSH2 0x3198 JUMP JUMPDEST PUSH2 0x26EA JUMP JUMPDEST PUSH1 0x40 MLOAD PUSH2 0x367 SWAP8 SWAP7 SWAP6 SWAP5 SWAP4 SWAP3 SWAP2 SWAP1 PUSH2 0x35E2 JUMP JUMPDEST PUSH1 0x40 MLOAD DUP1 SWAP2 SUB SWAP1 RETURN JUMPDEST PUSH1 0x0 DUP1 PUSH1 0x0 SWAP1 SLOAD SWAP1 PUSH2 0x100 EXP SWAP1 DIV PUSH20 0xFFFFFFFFFFFFFFFFFFFFFFFFFFFFFFFFFFFFFFFF AND PUSH20 0xFFFFFFFFFFFFFFFFFFFFFFFFFFFFFFFFFFFFFFFF AND CALLER PUSH20 0xFFFFFFFFFFFFFFFFFFFFFFFFFFFFFFFFFFFFFFFF AND EQ PUSH2 0x401 JUMPI PUSH1 0x40 MLOAD PUSH32 0x8C379A000000000000000000000000000000000000000000000000000000000 DUP2 MSTORE PUSH1 0x4 ADD PUSH2 0x3F8 SWAP1 PUSH2 0x3666 JUMP JUMPDEST PUSH1 0x40 MLOAD DUP1 SWAP2 SUB SWAP1 REVERT JUMPDEST PUSH2 0x40A DUP3 PUSH2 0x2998 JUMP JUMPDEST PUSH2 0x449 JUMPI PUSH1 0x40 MLOAD PUSH32 0x8C379A000000000000000000000000000000000000000000000000000000000 DUP2 MSTORE PUSH1 0x4 ADD PUSH2 0x440 SWAP1 PUSH2 0x36A6 JUMP JUMPDEST PUSH1 0x40 MLOAD DUP1 SWAP2 SUB SWAP1 REVERT JUMPDEST PUSH1 0x0 PUSH1 0x6 PUSH1 0x0 DUP5 DUP2 MSTORE PUSH1 0x20 ADD SWAP1 DUP2 MSTORE PUSH1 0x20 ADD PUSH1 0x0 KECCAK256 PUSH1 0x40 MLOAD DUP1 PUSH2 0x160 ADD PUSH1 0x40 MSTORE SWAP1 DUP2 PUSH1 0x0 DUP3 ADD DUP1 SLOAD PUSH2 0x47A SWAP1 PUSH2 0x39C7 JUMP JUMPDEST DUP1 PUSH1 0x1F ADD PUSH1 0x20 DUP1 SWAP2 DIV MUL PUSH1 0x20 ADD PUSH1 0x40 MLOAD SWAP1 DUP2 ADD PUSH1 0x40 MSTORE DUP1 SWAP3 SWAP2 SWAP1 DUP2 DUP2 MSTORE PUSH1 0x20 ADD DUP3 DUP1 SLOAD PUSH2 0x4A6 SWAP1 PUSH2 0x39C7 JUMP JUMPDEST DUP1 ISZERO PUSH2 0x4F3 JUMPI DUP1 PUSH1 0x1F LT PUSH2 0x4C8 JUMPI PUSH2 0x100 DUP1 DUP4 SLOAD DIV MUL DUP4 MSTORE SWAP2 PUSH1 0x20 ADD SWAP2 PUSH2 0x4F3 JUMP JUMPDEST DUP3 ADD SWAP2 SWAP1 PUSH1 0x0 MSTORE PUSH1 0x20 PUSH1 0x0 KECCAK256 SWAP1 JUMPDEST DUP2 SLOAD DUP2 MSTORE SWAP1 PUSH1 0x1 ADD SWAP1 PUSH1 0x20 ADD DUP1 DUP4 GT PUSH2 0x4D6 JUMPI DUP3 SWAP1 SUB PUSH1 0x1F AND DUP3 ADD SWAP2 JUMPDEST POP POP POP POP POP DUP2 MSTORE PUSH1 0x20 ADD PUSH1 0x1 DUP3 ADD DUP1 SLOAD PUSH2 0x50C SWAP1 PUSH2 0x39C7 JUMP JUMPDEST DUP1 PUSH1 0x1F ADD PUSH1 0x20 DUP1 SWAP2 DIV MUL PUSH1 0x20 ADD PUSH1 0x40 MLOAD SWAP1 DUP2 ADD PUSH1 0x40 MSTORE DUP1 SWAP3 SWAP2 SWAP1 DUP2 DUP2 MSTORE PUSH1 0x20 ADD DUP3 DUP1 SLOAD PUSH2 0x538 SWAP1 PUSH2 0x39C7 JUMP JUMPDEST DUP1 ISZERO PUSH2 0x585 JUMPI DUP1 PUSH1 0x1F LT PUSH2 0x55A JUMPI PUSH2 0x100 DUP1 DUP4 SLOAD DIV MUL DUP4 MSTORE SWAP2 PUSH1 0x20 ADD SWAP2 PUSH2 0x585 JUMP JUMPDEST DUP3 ADD SWAP2 SWAP1 PUSH1 0x0 MSTORE PUSH1 0x20 PUSH1 0x0 KECCAK256 SWAP1 JUMPDEST DUP2 SLOAD DUP2 MSTORE SWAP1 PUSH1 0x1 ADD SWAP1 PUSH1 0x20 ADD DUP1 DUP4 GT PUSH2 0x568 JUMPI DUP3 SWAP1 SUB PUSH1 0x1F AND DUP3 ADD SWAP2 JUMPDEST POP POP POP POP POP DUP2 MSTORE PUSH1 0x20 ADD PUSH1 0x2 DUP3 ADD DUP1 SLOAD PUSH2 0x59E SWAP1 PUSH2 0x39C7 JUMP JUMPDEST DUP1 PUSH1 0x1F ADD PUSH1 0x20 DUP1 SWAP2 DIV MUL PUSH1 0x20 ADD PUSH1 0x40 MLOAD SWAP1 DUP2 ADD PUSH1 0x40 MSTORE DUP1 SWAP3 SWAP2 SWAP1 DUP2 DUP2 MSTORE PUSH1 0x20 ADD DUP3 DUP1 SLOAD PUSH2 0x5CA SWAP1 PUSH2 0x39C7 JUMP JUMPDEST DUP1 ISZERO PUSH2 0x617 JUMPI DUP1 PUSH1 0x1F LT PUSH2 0x5EC JUMPI PUSH2 0x100 DUP1 DUP4 SLOAD DIV MUL DUP4 MSTORE SWAP2 PUSH1 0x20 ADD SWAP2 PUSH2 0x617 JUMP JUMPDEST DUP3 ADD SWAP2 SWAP1 PUSH1 0x0 MSTORE PUSH1 0x20 PUSH1 0x0 KECCAK256 SWAP1 JUMPDEST DUP2 SLOAD DUP2 MSTORE SWAP1 PUSH1 0x1 ADD SWAP1 PUSH1 0x20 ADD DUP1 DUP4 GT PUSH2 0x5FA JUMPI DUP3 SWAP1 SUB PUSH1 0x1F AND DUP3 ADD SWAP2 JUMPDEST POP POP POP POP POP DUP2 MSTORE PUSH1 0x20 ADD PUSH1 0x3 DUP3 ADD SLOAD DUP2 MSTORE PUSH1 0x20 ADD PUSH1 0x4 DUP3 ADD SLOAD DUP2 MSTORE PUSH1 0x20 ADD PUSH1 0x5 DUP3 ADD SLOAD DUP2 MSTORE PUSH1 0x20 ADD PUSH1 0x6 DUP3 ADD SLOAD DUP2 MSTORE PUSH1 0x20 ADD PUSH1 0x7 DUP3 ADD SLOAD DUP2 MSTORE PUSH1 0x20 ADD PUSH1 0x8 DUP3 ADD PUSH1 0x0 SWAP1 SLOAD SWAP1 PUSH2 0x100 EXP SWAP1 DIV PUSH1 0xFF AND ISZERO ISZERO ISZERO ISZERO DUP2 MSTORE PUSH1 0x20 ADD PUSH1 0x8 DUP3 ADD PUSH1 0x1 SWAP1 SLOAD SWAP1 PUSH2 0x100 EXP SWAP1 DIV PUSH1 0xFF AND ISZERO ISZERO ISZERO ISZERO DUP2 MSTORE PUSH1 0x20 ADD PUSH1 0x8 DUP3 ADD PUSH1 0x2 SWAP1 SLOAD SWAP1 PUSH2 0x100 EXP SWAP1 DIV PUSH1 0xFF AND ISZERO ISZERO ISZERO ISZERO DUP2 MSTORE POP POP SWAP1 POP PUSH1 0x0 PUSH2 0x6FB PUSH1 0xA DUP4 PUSH1 0xE0 ADD MLOAD DUP5 PUSH1 0xC0 ADD MLOAD DUP6 PUSH1 0x80 ADD MLOAD DUP7 PUSH1 0xA0 ADD MLOAD DUP8 PUSH1 0x60 ADD MLOAD PUSH2 0x6CF SWAP2 SWAP1 PUSH2 0x381E JUMP JUMPDEST PUSH2 0x6D9 SWAP2 SWAP1 PUSH2 0x381E JUMP JUMPDEST PUSH2 0x6E3 SWAP2 SWAP1 PUSH2 0x381E JUMP JUMPDEST PUSH2 0x6ED SWAP2 SWAP1 PUSH2 0x381E JUMP JUMPDEST PUSH2 0x29C5 SWAP1 SWAP2 SWAP1 PUSH4 0xFFFFFFFF AND JUMP JUMPDEST SWAP1 POP PUSH1 0x1 DUP3 PUSH2 0x140 ADD SWAP1 ISZERO ISZERO SWAP1 DUP2 ISZERO ISZERO DUP2 MSTORE POP ISZERO PUSH2 0x765 JUMPI PUSH1 0x0 DUP6 SWAP1 POP DUP1 PUSH20 0xFFFFFFFFFFFFFFFFFFFFFFFFFFFFFFFFFFFFFFFF AND PUSH2 0x8FC DUP4 SWAP1 DUP2 ISZERO MUL SWAP1 PUSH1 0x40 MLOAD PUSH1 0x0 PUSH1 0x40 MLOAD DUP1 DUP4 SUB DUP2 DUP6 DUP9 DUP9 CALL SWAP4 POP POP POP POP ISZERO DUP1 ISZERO PUSH2 0x75E JUMPI RETURNDATASIZE PUSH1 0x0 DUP1 RETURNDATACOPY RETURNDATASIZE PUSH1 0x0 REVERT JUMPDEST POP POP PUSH2 0x7A0 JUMP JUMPDEST PUSH1 0x40 MLOAD PUSH32 0x8C379A000000000000000000000000000000000000000000000000000000000 DUP2 MSTORE PUSH1 0x4 ADD PUSH2 0x797 SWAP1 PUSH2 0x3706 JUMP JUMPDEST PUSH1 0x40 MLOAD DUP1 SWAP2 SUB SWAP1 REVERT JUMPDEST POP POP SWAP3 SWAP2 POP POP JUMP JUMPDEST PUSH1 0x0 DUP1 PUSH1 0x0 SWAP1 SLOAD SWAP1 PUSH2 0x100 EXP SWAP1 DIV PUSH20 0xFFFFFFFFFFFFFFFFFFFFFFFFFFFFFFFFFFFFFFFF AND PUSH20 0xFFFFFFFFFFFFFFFFFFFFFFFFFFFFFFFFFFFFFFFF AND CALLER PUSH20 0xFFFFFFFFFFFFFFFFFFFFFFFFFFFFFFFFFFFFFFFF AND EQ PUSH2 0x839 JUMPI PUSH1 0x40 MLOAD PUSH32 0x8C379A000000000000000000000000000000000000000000000000000000000 DUP2 MSTORE PUSH1 0x4 ADD PUSH2 0x830 SWAP1 PUSH2 0x3666 JUMP JUMPDEST PUSH1 0x40 MLOAD DUP1 SWAP2 SUB SWAP1 REVERT JUMPDEST PUSH2 0x842 DUP4 PUSH2 0x2998 JUMP JUMPDEST PUSH2 0x881 JUMPI PUSH1 0x40 MLOAD PUSH32 0x8C379A000000000000000000000000000000000000000000000000000000000 DUP2 MSTORE PUSH1 0x4 ADD PUSH2 0x878 SWAP1 PUSH2 0x36A6 JUMP JUMPDEST PUSH1 0x40 MLOAD DUP1 SWAP2 SUB SWAP1 REVERT JUMPDEST PUSH1 0x0 PUSH1 0x6 PUSH1 0x0 DUP6 DUP2 MSTORE PUSH1 0x20 ADD SWAP1 DUP2 MSTORE PUSH1 0x20 ADD PUSH1 0x0 KECCAK256 PUSH1 0x40 MLOAD DUP1 PUSH2 0x160 ADD PUSH1 0x40 MSTORE SWAP1 DUP2 PUSH1 0x0 DUP3 ADD DUP1 SLOAD PUSH2 0x8B2 SWAP1 PUSH2 0x39C7 JUMP JUMPDEST DUP1 PUSH1 0x1F ADD PUSH1 0x20 DUP1 SWAP2 DIV MUL PUSH1 0x20 ADD PUSH1 0x40 MLOAD SWAP1 DUP2 ADD PUSH1 0x40 MSTORE DUP1 SWAP3 SWAP2 SWAP1 DUP2 DUP2 MSTORE PUSH1 0x20 ADD DUP3 DUP1 SLOAD PUSH2 0x8DE SWAP1 PUSH2 0x39C7 JUMP JUMPDEST DUP1 ISZERO PUSH2 0x92B JUMPI DUP1 PUSH1 0x1F LT PUSH2 0x900 JUMPI PUSH2 0x100 DUP1 DUP4 SLOAD DIV MUL DUP4 MSTORE SWAP2 PUSH1 0x20 ADD SWAP2 PUSH2 0x92B JUMP JUMPDEST DUP3 ADD SWAP2 SWAP1 PUSH1 0x0 MSTORE PUSH1 0x20 PUSH1 0x0 KECCAK256 SWAP1 JUMPDEST DUP2 SLOAD DUP2 MSTORE SWAP1 PUSH1 0x1 ADD SWAP1 PUSH1 0x20 ADD DUP1 DUP4 GT PUSH2 0x90E JUMPI DUP3 SWAP1 SUB PUSH1 0x1F AND DUP3 ADD SWAP2 JUMPDEST POP POP POP POP POP DUP2 MSTORE PUSH1 0x20 ADD PUSH1 0x1 DUP3 ADD DUP1 SLOAD PUSH2 0x944 SWAP1 PUSH2 0x39C7 JUMP JUMPDEST DUP1 PUSH1 0x1F ADD PUSH1 0x20 DUP1 SWAP2 DIV MUL PUSH1 0x20 ADD PUSH1 0x40 MLOAD SWAP1 DUP2 ADD PUSH1 0x40 MSTORE DUP1 SWAP3 SWAP2 SWAP1 DUP2 DUP2 MSTORE PUSH1 0x20 ADD DUP3 DUP1 SLOAD PUSH2 0x970 SWAP1 PUSH2 0x39C7 JUMP JUMPDEST DUP1 ISZERO PUSH2 0x9BD JUMPI DUP1 PUSH1 0x1F LT PUSH2 0x992 JUMPI PUSH2 0x100 DUP1 DUP4 SLOAD DIV MUL DUP4 MSTORE SWAP2 PUSH1 0x20 ADD SWAP2 PUSH2 0x9BD JUMP JUMPDEST DUP3 ADD SWAP2 SWAP1 PUSH1 0x0 MSTORE PUSH1 0x20 PUSH1 0x0 KECCAK256 SWAP1 JUMPDEST DUP2 SLOAD DUP2 MSTORE SWAP1 PUSH1 0x1 ADD SWAP1 PUSH1 0x20 ADD DUP1 DUP4 GT PUSH2 0x9A0 JUMPI DUP3 SWAP1 SUB PUSH1 0x1F AND DUP3 ADD SWAP2 JUMPDEST POP POP POP POP POP DUP2 MSTORE PUSH1 0x20 ADD PUSH1 0x2 DUP3 ADD DUP1 SLOAD PUSH2 0x9D6 SWAP1 PUSH2 0x39C7 JUMP JUMPDEST DUP1 PUSH1 0x1F ADD PUSH1 0x20 DUP1 SWAP2 DIV MUL PUSH1 0x20 ADD PUSH1 0x40 MLOAD SWAP1 DUP2 ADD PUSH1 0x40 MSTORE DUP1 SWAP3 SWAP2 SWAP1 DUP2 DUP2 MSTORE PUSH1 0x20 ADD DUP3 DUP1 SLOAD PUSH2 0xA02 SWAP1 PUSH2 0x39C7 JUMP JUMPDEST DUP1 ISZERO PUSH2 0xA4F JUMPI DUP1 PUSH1 0x1F LT PUSH2 0xA24 JUMPI PUSH2 0x100 DUP1 DUP4 SLOAD DIV MUL DUP4 MSTORE SWAP2 PUSH1 0x20 ADD SWAP2 PUSH2 0xA4F JUMP JUMPDEST DUP3 ADD SWAP2 SWAP1 PUSH1 0x0 MSTORE PUSH1 0x20 PUSH1 0x0 KECCAK256 SWAP1 JUMPDEST DUP2 SLOAD DUP2 MSTORE SWAP1 PUSH1 0x1 ADD SWAP1 PUSH1 0x20 ADD DUP1 DUP4 GT PUSH2 0xA32 JUMPI DUP3 SWAP1 SUB PUSH1 0x1F AND DUP3 ADD SWAP2 JUMPDEST POP POP POP POP POP DUP2 MSTORE PUSH1 0x20 ADD PUSH1 0x3 DUP3 ADD SLOAD DUP2 MSTORE PUSH1 0x20 ADD PUSH1 0x4 DUP3 ADD SLOAD DUP2 MSTORE PUSH1 0x20 ADD PUSH1 0x5 DUP3 ADD SLOAD DUP2 MSTORE PUSH1 0x20 ADD PUSH1 0x6 DUP3 ADD SLOAD DUP2 MSTORE PUSH1 0x20 ADD PUSH1 0x7 DUP3 ADD SLOAD DUP2 MSTORE PUSH1 0x20 ADD PUSH1 0x8 DUP3 ADD PUSH1 0x0 SWAP1 SLOAD SWAP1 PUSH2 0x100 EXP SWAP1 DIV PUSH1 0xFF AND ISZERO ISZERO ISZERO ISZERO DUP2 MSTORE PUSH1 0x20 ADD PUSH1 0x8 DUP3 ADD PUSH1 0x1 SWAP1 SLOAD SWAP1 PUSH2 0x100 EXP SWAP1 DIV PUSH1 0xFF AND ISZERO ISZERO ISZERO ISZERO DUP2 MSTORE PUSH1 0x20 ADD PUSH1 0x8 DUP3 ADD PUSH1 0x2 SWAP1 SLOAD SWAP1 PUSH2 0x100 EXP SWAP1 DIV PUSH1 0xFF AND ISZERO ISZERO ISZERO ISZERO DUP2 MSTORE POP POP SWAP1 POP PUSH1 0x0 DUP2 PUSH1 0xE0 ADD MLOAD GT ISZERO PUSH2 0xB25 JUMPI PUSH1 0x40 MLOAD PUSH32 0x8C379A000000000000000000000000000000000000000000000000000000000 DUP2 MSTORE PUSH1 0x4 ADD PUSH2 0xB1C SWAP1 PUSH2 0x36C6 JUMP JUMPDEST PUSH1 0x40 MLOAD DUP1 SWAP2 SUB SWAP1 REVERT JUMPDEST DUP3 PUSH1 0x7 SLOAD GT ISZERO PUSH2 0xB6A JUMPI PUSH1 0x40 MLOAD PUSH32 0x8C379A000000000000000000000000000000000000000000000000000000000 DUP2 MSTORE PUSH1 0x4 ADD PUSH2 0xB61 SWAP1 PUSH2 0x3746 JUMP JUMPDEST PUSH1 0x40 MLOAD DUP1 SWAP2 SUB SWAP1 REVERT JUMPDEST DUP3 DUP2 PUSH1 0xE0 ADD DUP2 DUP2 MLOAD PUSH2 0xB7C SWAP2 SWAP1 PUSH2 0x381E JUMP JUMPDEST SWAP2 POP DUP2 DUP2 MSTORE POP POP DUP3 PUSH1 0x7 PUSH1 0x0 DUP3 DUP3 SLOAD PUSH2 0xB95 SWAP2 SWAP1 PUSH2 0x38FF JUMP JUMPDEST SWAP3 POP POP DUP2 SWAP1 SSTORE POP PUSH1 0x1 SWAP2 POP POP SWAP3 SWAP2 POP POP JUMP JUMPDEST PUSH1 0x0 DUP1 PUSH1 0x0 SWAP1 SLOAD SWAP1 PUSH2 0x100 EXP SWAP1 DIV PUSH20 0xFFFFFFFFFFFFFFFFFFFFFFFFFFFFFFFFFFFFFFFF AND PUSH20 0xFFFFFFFFFFFFFFFFFFFFFFFFFFFFFFFFFFFFFFFF AND CALLER PUSH20 0xFFFFFFFFFFFFFFFFFFFFFFFFFFFFFFFFFFFFFFFF AND EQ PUSH2 0xC38 JUMPI PUSH1 0x40 MLOAD PUSH32 0x8C379A000000000000000000000000000000000000000000000000000000000 DUP2 MSTORE PUSH1 0x4 ADD PUSH2 0xC2F SWAP1 PUSH2 0x3666 JUMP JUMPDEST PUSH1 0x40 MLOAD DUP1 SWAP2 SUB SWAP1 REVERT JUMPDEST PUSH1 0x0 PUSH2 0xC44 DUP7 DUP7 PUSH2 0x29ED JUMP JUMPDEST SWAP1 POP PUSH1 0x0 PUSH2 0xC52 DUP3 DUP7 PUSH2 0x29ED JUMP JUMPDEST SWAP1 POP PUSH1 0x0 DUP2 PUSH1 0x40 MLOAD PUSH1 0x20 ADD PUSH2 0xC67 SWAP2 SWAP1 PUSH2 0x3551 JUMP JUMPDEST PUSH1 0x40 MLOAD PUSH1 0x20 DUP2 DUP4 SUB SUB DUP2 MSTORE SWAP1 PUSH1 0x40 MSTORE DUP1 MLOAD SWAP1 PUSH1 0x20 ADD KECCAK256 SWAP1 POP PUSH2 0xC88 DUP2 PUSH2 0x2998 JUMP JUMPDEST ISZERO PUSH2 0xCC8 JUMPI PUSH1 0x40 MLOAD PUSH32 0x8C379A000000000000000000000000000000000000000000000000000000000 DUP2 MSTORE PUSH1 0x4 ADD PUSH2 0xCBF SWAP1 PUSH2 0x36E6 JUMP JUMPDEST PUSH1 0x40 MLOAD DUP1 SWAP2 SUB SWAP1 REVERT JUMPDEST PUSH1 0x1 PUSH1 0x6 PUSH1 0x0 DUP4 DUP2 MSTORE PUSH1 0x20 ADD SWAP1 DUP2 MSTORE PUSH1 0x20 ADD PUSH1 0x0 KECCAK256 PUSH1 0x8 ADD PUSH1 0x1 PUSH2 0x100 EXP DUP2 SLOAD DUP2 PUSH1 0xFF MUL NOT AND SWAP1 DUP4 ISZERO ISZERO MUL OR SWAP1 SSTORE POP DUP8 PUSH1 0x6 PUSH1 0x0 DUP4 DUP2 MSTORE PUSH1 0x20 ADD SWAP1 DUP2 MSTORE PUSH1 0x20 ADD PUSH1 0x0 KECCAK256 PUSH1 0x0 ADD SWAP1 DUP1 MLOAD SWAP1 PUSH1 0x20 ADD SWAP1 PUSH2 0xD21 SWAP3 SWAP2 SWAP1 PUSH2 0x2F24 JUMP JUMPDEST POP DUP7 PUSH1 0x6 PUSH1 0x0 DUP4 DUP2 MSTORE PUSH1 0x20 ADD SWAP1 DUP2 MSTORE PUSH1 0x20 ADD PUSH1 0x0 KECCAK256 PUSH1 0x1 ADD SWAP1 DUP1 MLOAD SWAP1 PUSH1 0x20 ADD SWAP1 PUSH2 0xD4C SWAP3 SWAP2 SWAP1 PUSH2 0x2F24 JUMP JUMPDEST POP DUP6 PUSH1 0x6 PUSH1 0x0 DUP4 DUP2 MSTORE PUSH1 0x20 ADD SWAP1 DUP2 MSTORE PUSH1 0x20 ADD PUSH1 0x0 KECCAK256 PUSH1 0x2 ADD SWAP1 DUP1 MLOAD SWAP1 PUSH1 0x20 ADD SWAP1 PUSH2 0xD77 SWAP3 SWAP2 SWAP1 PUSH2 0x2F24 JUMP JUMPDEST POP PUSH1 0x0 PUSH1 0x6 PUSH1 0x0 DUP4 DUP2 MSTORE PUSH1 0x20 ADD SWAP1 DUP2 MSTORE PUSH1 0x20 ADD PUSH1 0x0 KECCAK256 PUSH1 0x3 ADD DUP2 SWAP1 SSTORE POP PUSH1 0x0 PUSH1 0x6 PUSH1 0x0 DUP4 DUP2 MSTORE PUSH1 0x20 ADD SWAP1 DUP2 MSTORE PUSH1 0x20 ADD PUSH1 0x0 KECCAK256 PUSH1 0x4 ADD DUP2 SWAP1 SSTORE POP PUSH1 0x0 PUSH1 0x6 PUSH1 0x0 DUP4 DUP2 MSTORE PUSH1 0x20 ADD SWAP1 DUP2 MSTORE PUSH1 0x20 ADD PUSH1 0x0 KECCAK256 PUSH1 0x5 ADD DUP2 SWAP1 SSTORE POP PUSH1 0x0 PUSH1 0x6 PUSH1 0x0 DUP4 DUP2 MSTORE PUSH1 0x20 ADD SWAP1 DUP2 MSTORE PUSH1 0x20 ADD PUSH1 0x0 KECCAK256 PUSH1 0x6 ADD DUP2 SWAP1 SSTORE POP PUSH1 0x0 PUSH1 0x6 PUSH1 0x0 DUP4 DUP2 MSTORE PUSH1 0x20 ADD SWAP1 DUP2 MSTORE PUSH1 0x20 ADD PUSH1 0x0 KECCAK256 PUSH1 0x7 ADD DUP2 SWAP1 SSTORE POP DUP5 PUSH1 0x6 PUSH1 0x0 DUP4 DUP2 MSTORE PUSH1 0x20 ADD SWAP1 DUP2 MSTORE PUSH1 0x20 ADD PUSH1 0x0 KECCAK256 PUSH1 0x8 ADD PUSH1 0x0 PUSH2 0x100 EXP DUP2 SLOAD DUP2 PUSH1 0xFF MUL NOT AND SWAP1 DUP4 ISZERO ISZERO MUL OR SWAP1 SSTORE POP PUSH1 0x0 PUSH1 0x6 PUSH1 0x0 DUP4 DUP2 MSTORE PUSH1 0x20 ADD SWAP1 DUP2 MSTORE PUSH1 0x20 ADD PUSH1 0x0 KECCAK256 PUSH1 0x8 ADD PUSH1 0x2 PUSH2 0x100 EXP DUP2 SLOAD DUP2 PUSH1 0xFF MUL NOT AND SWAP1 DUP4 ISZERO ISZERO MUL OR SWAP1 SSTORE POP DUP1 SWAP4 POP POP POP POP SWAP5 SWAP4 POP POP POP POP JUMP JUMPDEST PUSH1 0x0 DUP1 PUSH1 0x0 SWAP1 SLOAD SWAP1 PUSH2 0x100 EXP SWAP1 DIV PUSH20 0xFFFFFFFFFFFFFFFFFFFFFFFFFFFFFFFFFFFFFFFF AND PUSH20 0xFFFFFFFFFFFFFFFFFFFFFFFFFFFFFFFFFFFFFFFF AND CALLER PUSH20 0xFFFFFFFFFFFFFFFFFFFFFFFFFFFFFFFFFFFFFFFF AND EQ PUSH2 0xF00 JUMPI PUSH1 0x40 MLOAD PUSH32 0x8C379A000000000000000000000000000000000000000000000000000000000 DUP2 MSTORE PUSH1 0x4 ADD PUSH2 0xEF7 SWAP1 PUSH2 0x3666 JUMP JUMPDEST PUSH1 0x40 MLOAD DUP1 SWAP2 SUB SWAP1 REVERT JUMPDEST PUSH1 0x7 SLOAD SWAP1 POP SWAP1 JUMP JUMPDEST PUSH1 0x0 DUP1 PUSH1 0x0 SWAP1 SLOAD SWAP1 PUSH2 0x100 EXP SWAP1 DIV PUSH20 0xFFFFFFFFFFFFFFFFFFFFFFFFFFFFFFFFFFFFFFFF AND PUSH20 0xFFFFFFFFFFFFFFFFFFFFFFFFFFFFFFFFFFFFFFFF AND CALLER PUSH20 0xFFFFFFFFFFFFFFFFFFFFFFFFFFFFFFFFFFFFFFFF AND EQ PUSH2 0xF99 JUMPI PUSH1 0x40 MLOAD PUSH32 0x8C379A000000000000000000000000000000000000000000000000000000000 DUP2 MSTORE PUSH1 0x4 ADD PUSH2 0xF90 SWAP1 PUSH2 0x3666 JUMP JUMPDEST PUSH1 0x40 MLOAD DUP1 SWAP2 SUB SWAP1 REVERT JUMPDEST PUSH2 0xFA2 DUP3 PUSH2 0x2998 JUMP JUMPDEST PUSH2 0xFE1 JUMPI PUSH1 0x40 MLOAD PUSH32 0x8C379A000000000000000000000000000000000000000000000000000000000 DUP2 MSTORE PUSH1 0x4 ADD PUSH2 0xFD8 SWAP1 PUSH2 0x36A6 JUMP JUMPDEST PUSH1 0x40 MLOAD DUP1 SWAP2 SUB SWAP1 REVERT JUMPDEST PUSH1 0x0 PUSH1 0x6 PUSH1 0x0 DUP5 DUP2 MSTORE PUSH1 0x20 ADD SWAP1 DUP2 MSTORE PUSH1 0x20 ADD PUSH1 0x0 KECCAK256 PUSH1 0x40 MLOAD DUP1 PUSH2 0x160 ADD PUSH1 0x40 MSTORE SWAP1 DUP2 PUSH1 0x0 DUP3 ADD DUP1 SLOAD PUSH2 0x1012 SWAP1 PUSH2 0x39C7 JUMP JUMPDEST DUP1 PUSH1 0x1F ADD PUSH1 0x20 DUP1 SWAP2 DIV MUL PUSH1 0x20 ADD PUSH1 0x40 MLOAD SWAP1 DUP2 ADD PUSH1 0x40 MSTORE DUP1 SWAP3 SWAP2 SWAP1 DUP2 DUP2 MSTORE PUSH1 0x20 ADD DUP3 DUP1 SLOAD PUSH2 0x103E SWAP1 PUSH2 0x39C7 JUMP JUMPDEST DUP1 ISZERO PUSH2 0x108B JUMPI DUP1 PUSH1 0x1F LT PUSH2 0x1060 JUMPI PUSH2 0x100 DUP1 DUP4 SLOAD DIV MUL DUP4 MSTORE SWAP2 PUSH1 0x20 ADD SWAP2 PUSH2 0x108B JUMP JUMPDEST DUP3 ADD SWAP2 SWAP1 PUSH1 0x0 MSTORE PUSH1 0x20 PUSH1 0x0 KECCAK256 SWAP1 JUMPDEST DUP2 SLOAD DUP2 MSTORE SWAP1 PUSH1 0x1 ADD SWAP1 PUSH1 0x20 ADD DUP1 DUP4 GT PUSH2 0x106E JUMPI DUP3 SWAP1 SUB PUSH1 0x1F AND DUP3 ADD SWAP2 JUMPDEST POP POP POP POP POP DUP2 MSTORE PUSH1 0x20 ADD PUSH1 0x1 DUP3 ADD DUP1 SLOAD PUSH2 0x10A4 SWAP1 PUSH2 0x39C7 JUMP JUMPDEST DUP1 PUSH1 0x1F ADD PUSH1 0x20 DUP1 SWAP2 DIV MUL PUSH1 0x20 ADD PUSH1 0x40 MLOAD SWAP1 DUP2 ADD PUSH1 0x40 MSTORE DUP1 SWAP3 SWAP2 SWAP1 DUP2 DUP2 MSTORE PUSH1 0x20 ADD DUP3 DUP1 SLOAD PUSH2 0x10D0 SWAP1 PUSH2 0x39C7 JUMP JUMPDEST DUP1 ISZERO PUSH2 0x111D JUMPI DUP1 PUSH1 0x1F LT PUSH2 0x10F2 JUMPI PUSH2 0x100 DUP1 DUP4 SLOAD DIV MUL DUP4 MSTORE SWAP2 PUSH1 0x20 ADD SWAP2 PUSH2 0x111D JUMP JUMPDEST DUP3 ADD SWAP2 SWAP1 PUSH1 0x0 MSTORE PUSH1 0x20 PUSH1 0x0 KECCAK256 SWAP1 JUMPDEST DUP2 SLOAD DUP2 MSTORE SWAP1 PUSH1 0x1 ADD SWAP1 PUSH1 0x20 ADD DUP1 DUP4 GT PUSH2 0x1100 JUMPI DUP3 SWAP1 SUB PUSH1 0x1F AND DUP3 ADD SWAP2 JUMPDEST POP POP POP POP POP DUP2 MSTORE PUSH1 0x20 ADD PUSH1 0x2 DUP3 ADD DUP1 SLOAD PUSH2 0x1136 SWAP1 PUSH2 0x39C7 JUMP JUMPDEST DUP1 PUSH1 0x1F ADD PUSH1 0x20 DUP1 SWAP2 DIV MUL PUSH1 0x20 ADD PUSH1 0x40 MLOAD SWAP1 DUP2 ADD PUSH1 0x40 MSTORE DUP1 SWAP3 SWAP2 SWAP1 DUP2 DUP2 MSTORE PUSH1 0x20 ADD DUP3 DUP1 SLOAD PUSH2 0x1162 SWAP1 PUSH2 0x39C7 JUMP JUMPDEST DUP1 ISZERO PUSH2 0x11AF JUMPI DUP1 PUSH1 0x1F LT PUSH2 0x1184 JUMPI PUSH2 0x100 DUP1 DUP4 SLOAD DIV MUL DUP4 MSTORE SWAP2 PUSH1 0x20 ADD SWAP2 PUSH2 0x11AF JUMP JUMPDEST DUP3 ADD SWAP2 SWAP1 PUSH1 0x0 MSTORE PUSH1 0x20 PUSH1 0x0 KECCAK256 SWAP1 JUMPDEST DUP2 SLOAD DUP2 MSTORE SWAP1 PUSH1 0x1 ADD SWAP1 PUSH1 0x20 ADD DUP1 DUP4 GT PUSH2 0x1192 JUMPI DUP3 SWAP1 SUB PUSH1 0x1F AND DUP3 ADD SWAP2 JUMPDEST POP POP POP POP POP DUP2 MSTORE PUSH1 0x20 ADD PUSH1 0x3 DUP3 ADD SLOAD DUP2 MSTORE PUSH1 0x20 ADD PUSH1 0x4 DUP3 ADD SLOAD DUP2 MSTORE PUSH1 0x20 ADD PUSH1 0x5 DUP3 ADD SLOAD DUP2 MSTORE PUSH1 0x20 ADD PUSH1 0x6 DUP3 ADD SLOAD DUP2 MSTORE PUSH1 0x20 ADD PUSH1 0x7 DUP3 ADD SLOAD DUP2 MSTORE PUSH1 0x20 ADD PUSH1 0x8 DUP3 ADD PUSH1 0x0 SWAP1 SLOAD SWAP1 PUSH2 0x100 EXP SWAP1 DIV PUSH1 0xFF AND ISZERO ISZERO ISZERO ISZERO DUP2 MSTORE PUSH1 0x20 ADD PUSH1 0x8 DUP3 ADD PUSH1 0x1 SWAP1 SLOAD SWAP1 PUSH2 0x100 EXP SWAP1 DIV PUSH1 0xFF AND ISZERO ISZERO ISZERO ISZERO DUP2 MSTORE PUSH1 0x20 ADD PUSH1 0x8 DUP3 ADD PUSH1 0x2 SWAP1 SLOAD SWAP1 PUSH2 0x100 EXP SWAP1 DIV PUSH1 0xFF AND ISZERO ISZERO ISZERO ISZERO DUP2 MSTORE POP POP SWAP1 POP PUSH1 0x0 PUSH2 0x1293 PUSH1 0xA DUP4 PUSH1 0xE0 ADD MLOAD DUP5 PUSH1 0xC0 ADD MLOAD DUP6 PUSH1 0x80 ADD MLOAD DUP7 PUSH1 0xA0 ADD MLOAD DUP8 PUSH1 0x60 ADD MLOAD PUSH2 0x1267 SWAP2 SWAP1 PUSH2 0x381E JUMP JUMPDEST PUSH2 0x1271 SWAP2 SWAP1 PUSH2 0x381E JUMP JUMPDEST PUSH2 0x127B SWAP2 SWAP1 PUSH2 0x381E JUMP JUMPDEST PUSH2 0x1285 SWAP2 SWAP1 PUSH2 0x381E JUMP JUMPDEST PUSH2 0x29C5 SWAP1 SWAP2 SWAP1 PUSH4 0xFFFFFFFF AND JUMP JUMPDEST SWAP1 POP DUP1 SWAP3 POP POP POP SWAP2 SWAP1 POP JUMP JUMPDEST PUSH1 0x0 DUP1 PUSH1 0x0 SWAP1 SLOAD SWAP1 PUSH2 0x100 EXP SWAP1 DIV PUSH20 0xFFFFFFFFFFFFFFFFFFFFFFFFFFFFFFFFFFFFFFFF AND PUSH20 0xFFFFFFFFFFFFFFFFFFFFFFFFFFFFFFFFFFFFFFFF AND CALLER PUSH20 0xFFFFFFFFFFFFFFFFFFFFFFFFFFFFFFFFFFFFFFFF AND EQ PUSH2 0x1330 JUMPI PUSH1 0x40 MLOAD PUSH32 0x8C379A000000000000000000000000000000000000000000000000000000000 DUP2 MSTORE PUSH1 0x4 ADD PUSH2 0x1327 SWAP1 PUSH2 0x3666 JUMP JUMPDEST PUSH1 0x40 MLOAD DUP1 SWAP2 SUB SWAP1 REVERT JUMPDEST PUSH2 0x1339 DUP6 PUSH2 0x2998 JUMP JUMPDEST PUSH2 0x1378 JUMPI PUSH1 0x40 MLOAD PUSH32 0x8C379A000000000000000000000000000000000000000000000000000000000 DUP2 MSTORE PUSH1 0x4 ADD PUSH2 0x136F SWAP1 PUSH2 0x36A6 JUMP JUMPDEST PUSH1 0x40 MLOAD DUP1 SWAP2 SUB SWAP1 REVERT JUMPDEST DUP6 PUSH1 0x5 PUSH1 0x0 DUP10 PUSH20 0xFFFFFFFFFFFFFFFFFFFFFFFFFFFFFFFFFFFFFFFF AND PUSH20 0xFFFFFFFFFFFFFFFFFFFFFFFFFFFFFFFFFFFFFFFF AND DUP2 MSTORE PUSH1 0x20 ADD SWAP1 DUP2 MSTORE PUSH1 0x20 ADD PUSH1 0x0 KECCAK256 SLOAD LT ISZERO PUSH2 0x13FA JUMPI PUSH1 0x40 MLOAD PUSH32 0x8C379A000000000000000000000000000000000000000000000000000000000 DUP2 MSTORE PUSH1 0x4 ADD PUSH2 0x13F1 SWAP1 PUSH2 0x3726 JUMP JUMPDEST PUSH1 0x40 MLOAD DUP1 SWAP2 SUB SWAP1 REVERT JUMPDEST PUSH1 0x0 PUSH1 0x6 PUSH1 0x0 DUP8 DUP2 MSTORE PUSH1 0x20 ADD SWAP1 DUP2 MSTORE PUSH1 0x20 ADD PUSH1 0x0 KECCAK256 PUSH1 0x40 MLOAD DUP1 PUSH2 0x160 ADD PUSH1 0x40 MSTORE SWAP1 DUP2 PUSH1 0x0 DUP3 ADD DUP1 SLOAD PUSH2 0x142B SWAP1 PUSH2 0x39C7 JUMP JUMPDEST DUP1 PUSH1 0x1F ADD PUSH1 0x20 DUP1 SWAP2 DIV MUL PUSH1 0x20 ADD PUSH1 0x40 MLOAD SWAP1 DUP2 ADD PUSH1 0x40 MSTORE DUP1 SWAP3 SWAP2 SWAP1 DUP2 DUP2 MSTORE PUSH1 0x20 ADD DUP3 DUP1 SLOAD PUSH2 0x1457 SWAP1 PUSH2 0x39C7 JUMP JUMPDEST DUP1 ISZERO PUSH2 0x14A4 JUMPI DUP1 PUSH1 0x1F LT PUSH2 0x1479 JUMPI PUSH2 0x100 DUP1 DUP4 SLOAD DIV MUL DUP4 MSTORE SWAP2 PUSH1 0x20 ADD SWAP2 PUSH2 0x14A4 JUMP JUMPDEST DUP3 ADD SWAP2 SWAP1 PUSH1 0x0 MSTORE PUSH1 0x20 PUSH1 0x0 KECCAK256 SWAP1 JUMPDEST DUP2 SLOAD DUP2 MSTORE SWAP1 PUSH1 0x1 ADD SWAP1 PUSH1 0x20 ADD DUP1 DUP4 GT PUSH2 0x1487 JUMPI DUP3 SWAP1 SUB PUSH1 0x1F AND DUP3 ADD SWAP2 JUMPDEST POP POP POP POP POP DUP2 MSTORE PUSH1 0x20 ADD PUSH1 0x1 DUP3 ADD DUP1 SLOAD PUSH2 0x14BD SWAP1 PUSH2 0x39C7 JUMP JUMPDEST DUP1 PUSH1 0x1F ADD PUSH1 0x20 DUP1 SWAP2 DIV MUL PUSH1 0x20 ADD PUSH1 0x40 MLOAD SWAP1 DUP2 ADD PUSH1 0x40 MSTORE DUP1 SWAP3 SWAP2 SWAP1 DUP2 DUP2 MSTORE PUSH1 0x20 ADD DUP3 DUP1 SLOAD PUSH2 0x14E9 SWAP1 PUSH2 0x39C7 JUMP JUMPDEST DUP1 ISZERO PUSH2 0x1536 JUMPI DUP1 PUSH1 0x1F LT PUSH2 0x150B JUMPI PUSH2 0x100 DUP1 DUP4 SLOAD DIV MUL DUP4 MSTORE SWAP2 PUSH1 0x20 ADD SWAP2 PUSH2 0x1536 JUMP JUMPDEST DUP3 ADD SWAP2 SWAP1 PUSH1 0x0 MSTORE PUSH1 0x20 PUSH1 0x0 KECCAK256 SWAP1 JUMPDEST DUP2 SLOAD DUP2 MSTORE SWAP1 PUSH1 0x1 ADD SWAP1 PUSH1 0x20 ADD DUP1 DUP4 GT PUSH2 0x1519 JUMPI DUP3 SWAP1 SUB PUSH1 0x1F AND DUP3 ADD SWAP2 JUMPDEST POP POP POP POP POP DUP2 MSTORE PUSH1 0x20 ADD PUSH1 0x2 DUP3 ADD DUP1 SLOAD PUSH2 0x154F SWAP1 PUSH2 0x39C7 JUMP JUMPDEST DUP1 PUSH1 0x1F ADD PUSH1 0x20 DUP1 SWAP2 DIV MUL PUSH1 0x20 ADD PUSH1 0x40 MLOAD SWAP1 DUP2 ADD PUSH1 0x40 MSTORE DUP1 SWAP3 SWAP2 SWAP1 DUP2 DUP2 MSTORE PUSH1 0x20 ADD DUP3 DUP1 SLOAD PUSH2 0x157B SWAP1 PUSH2 0x39C7 JUMP JUMPDEST DUP1 ISZERO PUSH2 0x15C8 JUMPI DUP1 PUSH1 0x1F LT PUSH2 0x159D JUMPI PUSH2 0x100 DUP1 DUP4 SLOAD DIV MUL DUP4 MSTORE SWAP2 PUSH1 0x20 ADD SWAP2 PUSH2 0x15C8 JUMP JUMPDEST DUP3 ADD SWAP2 SWAP1 PUSH1 0x0 MSTORE PUSH1 0x20 PUSH1 0x0 KECCAK256 SWAP1 JUMPDEST DUP2 SLOAD DUP2 MSTORE SWAP1 PUSH1 0x1 ADD SWAP1 PUSH1 0x20 ADD DUP1 DUP4 GT PUSH2 0x15AB JUMPI DUP3 SWAP1 SUB PUSH1 0x1F AND DUP3 ADD SWAP2 JUMPDEST POP POP POP POP POP DUP2 MSTORE PUSH1 0x20 ADD PUSH1 0x3 DUP3 ADD SLOAD DUP2 MSTORE PUSH1 0x20 ADD PUSH1 0x4 DUP3 ADD SLOAD DUP2 MSTORE PUSH1 0x20 ADD PUSH1 0x5 DUP3 ADD SLOAD DUP2 MSTORE PUSH1 0x20 ADD PUSH1 0x6 DUP3 ADD SLOAD DUP2 MSTORE PUSH1 0x20 ADD PUSH1 0x7 DUP3 ADD SLOAD DUP2 MSTORE PUSH1 0x20 ADD PUSH1 0x8 DUP3 ADD PUSH1 0x0 SWAP1 SLOAD SWAP1 PUSH2 0x100 EXP SWAP1 DIV PUSH1 0xFF AND ISZERO ISZERO ISZERO ISZERO DUP2 MSTORE PUSH1 0x20 ADD PUSH1 0x8 DUP3 ADD PUSH1 0x1 SWAP1 SLOAD SWAP1 PUSH2 0x100 EXP SWAP1 DIV PUSH1 0xFF AND ISZERO ISZERO ISZERO ISZERO DUP2 MSTORE PUSH1 0x20 ADD PUSH1 0x8 DUP3 ADD PUSH1 0x2 SWAP1 SLOAD SWAP1 PUSH2 0x100 EXP SWAP1 DIV PUSH1 0xFF AND ISZERO ISZERO ISZERO ISZERO DUP2 MSTORE POP POP SWAP1 POP PUSH1 0x0 PUSH2 0x1672 PUSH2 0x1664 DUP8 PUSH2 0x2B83 JUMP JUMPDEST PUSH2 0x166D DUP8 PUSH2 0x2B83 JUMP JUMPDEST PUSH2 0x29ED JUMP JUMPDEST SWAP1 POP PUSH1 0x0 PUSH2 0x1688 PUSH2 0x1682 DUP10 PUSH2 0x2BB4 JUMP JUMPDEST DUP4 PUSH2 0x29ED JUMP JUMPDEST SWAP1 POP PUSH1 0x0 PUSH1 0x40 MLOAD DUP1 PUSH1 0xE0 ADD PUSH1 0x40 MSTORE DUP1 DUP12 DUP2 MSTORE PUSH1 0x20 ADD DUP8 DUP2 MSTORE PUSH1 0x20 ADD DUP10 DUP2 MSTORE PUSH1 0x20 ADD DUP9 DUP2 MSTORE PUSH1 0x20 ADD DUP13 PUSH20 0xFFFFFFFFFFFFFFFFFFFFFFFFFFFFFFFFFFFFFFFF AND DUP2 MSTORE PUSH1 0x20 ADD DUP4 DUP2 MSTORE PUSH1 0x20 ADD PUSH1 0x0 ISZERO ISZERO DUP2 MSTORE POP SWAP1 POP DUP9 PUSH1 0x2 PUSH1 0x0 DUP12 DUP2 MSTORE PUSH1 0x20 ADD SWAP1 DUP2 MSTORE PUSH1 0x20 ADD PUSH1 0x0 KECCAK256 PUSH1 0x1 ADD DUP2 SWAP1 SSTORE POP PUSH1 0x2 PUSH1 0x0 DUP11 DUP2 MSTORE PUSH1 0x20 ADD SWAP1 DUP2 MSTORE PUSH1 0x20 ADD PUSH1 0x0 KECCAK256 PUSH1 0x0 ADD DUP2 SWAP1 DUP1 PUSH1 0x1 DUP2 SLOAD ADD DUP1 DUP3 SSTORE DUP1 SWAP2 POP POP PUSH1 0x1 SWAP1 SUB SWAP1 PUSH1 0x0 MSTORE PUSH1 0x20 PUSH1 0x0 KECCAK256 SWAP1 PUSH1 0x7 MUL ADD PUSH1 0x0 SWAP1 SWAP2 SWAP1 SWAP2 SWAP1 SWAP2 POP PUSH1 0x0 DUP3 ADD MLOAD DUP2 PUSH1 0x0 ADD SSTORE PUSH1 0x20 DUP3 ADD MLOAD DUP2 PUSH1 0x1 ADD SSTORE PUSH1 0x40 DUP3 ADD MLOAD DUP2 PUSH1 0x2 ADD SSTORE PUSH1 0x60 DUP3 ADD MLOAD DUP2 PUSH1 0x3 ADD SSTORE PUSH1 0x80 DUP3 ADD MLOAD DUP2 PUSH1 0x4 ADD PUSH1 0x0 PUSH2 0x100 EXP DUP2 SLOAD DUP2 PUSH20 0xFFFFFFFFFFFFFFFFFFFFFFFFFFFFFFFFFFFFFFFF MUL NOT AND SWAP1 DUP4 PUSH20 0xFFFFFFFFFFFFFFFFFFFFFFFFFFFFFFFFFFFFFFFF AND MUL OR SWAP1 SSTORE POP PUSH1 0xA0 DUP3 ADD MLOAD DUP2 PUSH1 0x5 ADD SWAP1 DUP1 MLOAD SWAP1 PUSH1 0x20 ADD SWAP1 PUSH2 0x17C0 SWAP3 SWAP2 SWAP1 PUSH2 0x2F24 JUMP JUMPDEST POP PUSH1 0xC0 DUP3 ADD MLOAD DUP2 PUSH1 0x6 ADD PUSH1 0x0 PUSH2 0x100 EXP DUP2 SLOAD DUP2 PUSH1 0xFF MUL NOT AND SWAP1 DUP4 ISZERO ISZERO MUL OR SWAP1 SSTORE POP POP POP DUP11 PUSH1 0x4 PUSH1 0x0 DUP14 PUSH20 0xFFFFFFFFFFFFFFFFFFFFFFFFFFFFFFFFFFFFFFFF AND PUSH20 0xFFFFFFFFFFFFFFFFFFFFFFFFFFFFFFFFFFFFFFFF AND DUP2 MSTORE PUSH1 0x20 ADD SWAP1 DUP2 MSTORE PUSH1 0x20 ADD PUSH1 0x0 KECCAK256 PUSH1 0x1 ADD PUSH1 0x0 PUSH2 0x100 EXP DUP2 SLOAD DUP2 PUSH20 0xFFFFFFFFFFFFFFFFFFFFFFFFFFFFFFFFFFFFFFFF MUL NOT AND SWAP1 DUP4 PUSH20 0xFFFFFFFFFFFFFFFFFFFFFFFFFFFFFFFFFFFFFFFF AND MUL OR SWAP1 SSTORE POP PUSH1 0x2 PUSH1 0x0 DUP11 DUP2 MSTORE PUSH1 0x20 ADD SWAP1 DUP2 MSTORE PUSH1 0x20 ADD PUSH1 0x0 KECCAK256 PUSH1 0x0 ADD DUP2 SWAP1 DUP1 PUSH1 0x1 DUP2 SLOAD ADD DUP1 DUP3 SSTORE DUP1 SWAP2 POP POP PUSH1 0x1 SWAP1 SUB SWAP1 PUSH1 0x0 MSTORE PUSH1 0x20 PUSH1 0x0 KECCAK256 SWAP1 PUSH1 0x7 MUL ADD PUSH1 0x0 SWAP1 SWAP2 SWAP1 SWAP2 SWAP1 SWAP2 POP PUSH1 0x0 DUP3 ADD MLOAD DUP2 PUSH1 0x0 ADD SSTORE PUSH1 0x20 DUP3 ADD MLOAD DUP2 PUSH1 0x1 ADD SSTORE PUSH1 0x40 DUP3 ADD MLOAD DUP2 PUSH1 0x2 ADD SSTORE PUSH1 0x60 DUP3 ADD MLOAD DUP2 PUSH1 0x3 ADD SSTORE PUSH1 0x80 DUP3 ADD MLOAD DUP2 PUSH1 0x4 ADD PUSH1 0x0 PUSH2 0x100 EXP DUP2 SLOAD DUP2 PUSH20 0xFFFFFFFFFFFFFFFFFFFFFFFFFFFFFFFFFFFFFFFF MUL NOT AND SWAP1 DUP4 PUSH20 0xFFFFFFFFFFFFFFFFFFFFFFFFFFFFFFFFFFFFFFFF AND MUL OR SWAP1 SSTORE POP PUSH1 0xA0 DUP3 ADD MLOAD DUP2 PUSH1 0x5 ADD SWAP1 DUP1 MLOAD SWAP1 PUSH1 0x20 ADD SWAP1 PUSH2 0x192F SWAP3 SWAP2 SWAP1 PUSH2 0x2F24 JUMP JUMPDEST POP PUSH1 0xC0 DUP3 ADD MLOAD DUP2 PUSH1 0x6 ADD PUSH1 0x0 PUSH2 0x100 EXP DUP2 SLOAD DUP2 PUSH1 0xFF MUL NOT AND SWAP1 DUP4 ISZERO ISZERO MUL OR SWAP1 SSTORE POP POP POP PUSH1 0x2 DUP7 EQ ISZERO PUSH2 0x19AE JUMPI DUP10 DUP5 PUSH1 0xC0 ADD DUP2 DUP2 MLOAD PUSH2 0x196D SWAP2 SWAP1 PUSH2 0x381E JUMP JUMPDEST SWAP2 POP DUP2 DUP2 MSTORE POP POP DUP10 PUSH1 0x3 DUP4 PUSH1 0x40 MLOAD PUSH2 0x1985 SWAP2 SWAP1 PUSH2 0x3551 JUMP JUMPDEST SWAP1 DUP2 MSTORE PUSH1 0x20 ADD PUSH1 0x40 MLOAD DUP1 SWAP2 SUB SWAP1 KECCAK256 PUSH1 0x0 DUP3 DUP3 SLOAD PUSH2 0x19A2 SWAP2 SWAP1 PUSH2 0x381E JUMP JUMPDEST SWAP3 POP POP DUP2 SWAP1 SSTORE POP PUSH2 0x1A18 JUMP JUMPDEST PUSH1 0x3 DUP7 EQ ISZERO PUSH2 0x19D5 JUMPI DUP10 DUP5 PUSH1 0x60 ADD DUP2 DUP2 MLOAD PUSH2 0x19C9 SWAP2 SWAP1 PUSH2 0x381E JUMP JUMPDEST SWAP2 POP DUP2 DUP2 MSTORE POP POP PUSH2 0x1A17 JUMP JUMPDEST PUSH1 0x1 DUP7 EQ ISZERO PUSH2 0x19FC JUMPI DUP10 DUP5 PUSH1 0x80 ADD DUP2 DUP2 MLOAD PUSH2 0x19F0 SWAP2 SWAP1 PUSH2 0x381E JUMP JUMPDEST SWAP2 POP DUP2 DUP2 MSTORE POP POP PUSH2 0x1A16 JUMP JUMPDEST DUP10 DUP5 PUSH1 0xA0 ADD DUP2 DUP2 MLOAD PUSH2 0x1A0E SWAP2 SWAP1 PUSH2 0x381E JUMP JUMPDEST SWAP2 POP DUP2 DUP2 MSTORE POP POP JUMPDEST JUMPDEST JUMPDEST DUP10 PUSH1 0x5 PUSH1 0x0 DUP14 PUSH20 0xFFFFFFFFFFFFFFFFFFFFFFFFFFFFFFFFFFFFFFFF AND PUSH20 0xFFFFFFFFFFFFFFFFFFFFFFFFFFFFFFFFFFFFFFFF AND DUP2 MSTORE PUSH1 0x20 ADD SWAP1 DUP2 MSTORE PUSH1 0x20 ADD PUSH1 0x0 KECCAK256 PUSH1 0x0 DUP3 DUP3 SLOAD PUSH2 0x1A67 SWAP2 SWAP1 PUSH2 0x38FF JUMP JUMPDEST SWAP3 POP POP DUP2 SWAP1 SSTORE POP POP POP POP POP PUSH1 0x1 SWAP1 POP SWAP7 SWAP6 POP POP POP POP POP POP JUMP JUMPDEST PUSH1 0x0 DUP1 PUSH1 0x0 SWAP1 SLOAD SWAP1 PUSH2 0x100 EXP SWAP1 DIV PUSH20 0xFFFFFFFFFFFFFFFFFFFFFFFFFFFFFFFFFFFFFFFF AND PUSH20 0xFFFFFFFFFFFFFFFFFFFFFFFFFFFFFFFFFFFFFFFF AND CALLER PUSH20 0xFFFFFFFFFFFFFFFFFFFFFFFFFFFFFFFFFFFFFFFF AND EQ PUSH2 0x1B11 JUMPI PUSH1 0x40 MLOAD PUSH32 0x8C379A000000000000000000000000000000000000000000000000000000000 DUP2 MSTORE PUSH1 0x4 ADD PUSH2 0x1B08 SWAP1 PUSH2 0x3666 JUMP JUMPDEST PUSH1 0x40 MLOAD DUP1 SWAP2 SUB SWAP1 REVERT JUMPDEST PUSH2 0x1B1A DUP6 PUSH2 0x2998 JUMP JUMPDEST PUSH2 0x1B59 JUMPI PUSH1 0x40 MLOAD PUSH32 0x8C379A000000000000000000000000000000000000000000000000000000000 DUP2 MSTORE PUSH1 0x4 ADD PUSH2 0x1B50 SWAP1 PUSH2 0x36A6 JUMP JUMPDEST PUSH1 0x40 MLOAD DUP1 SWAP2 SUB SWAP1 REVERT JUMPDEST PUSH1 0x0 PUSH1 0x6 PUSH1 0x0 DUP8 DUP2 MSTORE PUSH1 0x20 ADD SWAP1 DUP2 MSTORE PUSH1 0x20 ADD PUSH1 0x0 KECCAK256 PUSH1 0x40 MLOAD DUP1 PUSH2 0x160 ADD PUSH1 0x40 MSTORE SWAP1 DUP2 PUSH1 0x0 DUP3 ADD DUP1 SLOAD PUSH2 0x1B8A SWAP1 PUSH2 0x39C7 JUMP JUMPDEST DUP1 PUSH1 0x1F ADD PUSH1 0x20 DUP1 SWAP2 DIV MUL PUSH1 0x20 ADD PUSH1 0x40 MLOAD SWAP1 DUP2 ADD PUSH1 0x40 MSTORE DUP1 SWAP3 SWAP2 SWAP1 DUP2 DUP2 MSTORE PUSH1 0x20 ADD DUP3 DUP1 SLOAD PUSH2 0x1BB6 SWAP1 PUSH2 0x39C7 JUMP JUMPDEST DUP1 ISZERO PUSH2 0x1C03 JUMPI DUP1 PUSH1 0x1F LT PUSH2 0x1BD8 JUMPI PUSH2 0x100 DUP1 DUP4 SLOAD DIV MUL DUP4 MSTORE SWAP2 PUSH1 0x20 ADD SWAP2 PUSH2 0x1C03 JUMP JUMPDEST DUP3 ADD SWAP2 SWAP1 PUSH1 0x0 MSTORE PUSH1 0x20 PUSH1 0x0 KECCAK256 SWAP1 JUMPDEST DUP2 SLOAD DUP2 MSTORE SWAP1 PUSH1 0x1 ADD SWAP1 PUSH1 0x20 ADD DUP1 DUP4 GT PUSH2 0x1BE6 JUMPI DUP3 SWAP1 SUB PUSH1 0x1F AND DUP3 ADD SWAP2 JUMPDEST POP POP POP POP POP DUP2 MSTORE PUSH1 0x20 ADD PUSH1 0x1 DUP3 ADD DUP1 SLOAD PUSH2 0x1C1C SWAP1 PUSH2 0x39C7 JUMP JUMPDEST DUP1 PUSH1 0x1F ADD PUSH1 0x20 DUP1 SWAP2 DIV MUL PUSH1 0x20 ADD PUSH1 0x40 MLOAD SWAP1 DUP2 ADD PUSH1 0x40 MSTORE DUP1 SWAP3 SWAP2 SWAP1 DUP2 DUP2 MSTORE PUSH1 0x20 ADD DUP3 DUP1 SLOAD PUSH2 0x1C48 SWAP1 PUSH2 0x39C7 JUMP JUMPDEST DUP1 ISZERO PUSH2 0x1C95 JUMPI DUP1 PUSH1 0x1F LT PUSH2 0x1C6A JUMPI PUSH2 0x100 DUP1 DUP4 SLOAD DIV MUL DUP4 MSTORE SWAP2 PUSH1 0x20 ADD SWAP2 PUSH2 0x1C95 JUMP JUMPDEST DUP3 ADD SWAP2 SWAP1 PUSH1 0x0 MSTORE PUSH1 0x20 PUSH1 0x0 KECCAK256 SWAP1 JUMPDEST DUP2 SLOAD DUP2 MSTORE SWAP1 PUSH1 0x1 ADD SWAP1 PUSH1 0x20 ADD DUP1 DUP4 GT PUSH2 0x1C78 JUMPI DUP3 SWAP1 SUB PUSH1 0x1F AND DUP3 ADD SWAP2 JUMPDEST POP POP POP POP POP DUP2 MSTORE PUSH1 0x20 ADD PUSH1 0x2 DUP3 ADD DUP1 SLOAD PUSH2 0x1CAE SWAP1 PUSH2 0x39C7 JUMP JUMPDEST DUP1 PUSH1 0x1F ADD PUSH1 0x20 DUP1 SWAP2 DIV MUL PUSH1 0x20 ADD PUSH1 0x40 MLOAD SWAP1 DUP2 ADD PUSH1 0x40 MSTORE DUP1 SWAP3 SWAP2 SWAP1 DUP2 DUP2 MSTORE PUSH1 0x20 ADD DUP3 DUP1 SLOAD PUSH2 0x1CDA SWAP1 PUSH2 0x39C7 JUMP JUMPDEST DUP1 ISZERO PUSH2 0x1D27 JUMPI DUP1 PUSH1 0x1F LT PUSH2 0x1CFC JUMPI PUSH2 0x100 DUP1 DUP4 SLOAD DIV MUL DUP4 MSTORE SWAP2 PUSH1 0x20 ADD SWAP2 PUSH2 0x1D27 JUMP JUMPDEST DUP3 ADD SWAP2 SWAP1 PUSH1 0x0 MSTORE PUSH1 0x20 PUSH1 0x0 KECCAK256 SWAP1 JUMPDEST DUP2 SLOAD DUP2 MSTORE SWAP1 PUSH1 0x1 ADD SWAP1 PUSH1 0x20 ADD DUP1 DUP4 GT PUSH2 0x1D0A JUMPI DUP3 SWAP1 SUB PUSH1 0x1F AND DUP3 ADD SWAP2 JUMPDEST POP POP POP POP POP DUP2 MSTORE PUSH1 0x20 ADD PUSH1 0x3 DUP3 ADD SLOAD DUP2 MSTORE PUSH1 0x20 ADD PUSH1 0x4 DUP3 ADD SLOAD DUP2 MSTORE PUSH1 0x20 ADD PUSH1 0x5 DUP3 ADD SLOAD DUP2 MSTORE PUSH1 0x20 ADD PUSH1 0x6 DUP3 ADD SLOAD DUP2 MSTORE PUSH1 0x20 ADD PUSH1 0x7 DUP3 ADD SLOAD DUP2 MSTORE PUSH1 0x20 ADD PUSH1 0x8 DUP3 ADD PUSH1 0x0 SWAP1 SLOAD SWAP1 PUSH2 0x100 EXP SWAP1 DIV PUSH1 0xFF AND ISZERO ISZERO ISZERO ISZERO DUP2 MSTORE PUSH1 0x20 ADD PUSH1 0x8 DUP3 ADD PUSH1 0x1 SWAP1 SLOAD SWAP1 PUSH2 0x100 EXP SWAP1 DIV PUSH1 0xFF AND ISZERO ISZERO ISZERO ISZERO DUP2 MSTORE PUSH1 0x20 ADD PUSH1 0x8 DUP3 ADD PUSH1 0x2 SWAP1 SLOAD SWAP1 PUSH2 0x100 EXP SWAP1 DIV PUSH1 0xFF AND ISZERO ISZERO ISZERO ISZERO DUP2 MSTORE POP POP SWAP1 POP PUSH1 0x1 DUP2 PUSH2 0x140 ADD SWAP1 ISZERO ISZERO SWAP1 DUP2 ISZERO ISZERO DUP2 MSTORE POP ISZERO PUSH2 0x1E06 JUMPI PUSH1 0x40 MLOAD PUSH32 0x8C379A000000000000000000000000000000000000000000000000000000000 DUP2 MSTORE PUSH1 0x4 ADD PUSH2 0x1DFD SWAP1 PUSH2 0x3766 JUMP JUMPDEST PUSH1 0x40 MLOAD DUP1 SWAP2 SUB SWAP1 REVERT JUMPDEST PUSH1 0x0 PUSH1 0x2 PUSH1 0x0 DUP9 DUP2 MSTORE PUSH1 0x20 ADD SWAP1 DUP2 MSTORE PUSH1 0x20 ADD PUSH1 0x0 KECCAK256 PUSH1 0x0 ADD DUP1 SLOAD DUP1 PUSH1 0x20 MUL PUSH1 0x20 ADD PUSH1 0x40 MLOAD SWAP1 DUP2 ADD PUSH1 0x40 MSTORE DUP1 SWAP3 SWAP2 SWAP1 DUP2 DUP2 MSTORE PUSH1 0x20 ADD PUSH1 0x0 SWAP1 JUMPDEST DUP3 DUP3 LT ISZERO PUSH2 0x1F9B JUMPI DUP4 DUP3 SWAP1 PUSH1 0x0 MSTORE PUSH1 0x20 PUSH1 0x0 KECCAK256 SWAP1 PUSH1 0x7 MUL ADD PUSH1 0x40 MLOAD DUP1 PUSH1 0xE0 ADD PUSH1 0x40 MSTORE SWAP1 DUP2 PUSH1 0x0 DUP3 ADD SLOAD DUP2 MSTORE PUSH1 0x20 ADD PUSH1 0x1 DUP3 ADD SLOAD DUP2 MSTORE PUSH1 0x20 ADD PUSH1 0x2 DUP3 ADD SLOAD DUP2 MSTORE PUSH1 0x20 ADD PUSH1 0x3 DUP3 ADD SLOAD DUP2 MSTORE PUSH1 0x20 ADD PUSH1 0x4 DUP3 ADD PUSH1 0x0 SWAP1 SLOAD SWAP1 PUSH2 0x100 EXP SWAP1 DIV PUSH20 0xFFFFFFFFFFFFFFFFFFFFFFFFFFFFFFFFFFFFFFFF AND PUSH20 0xFFFFFFFFFFFFFFFFFFFFFFFFFFFFFFFFFFFFFFFF AND PUSH20 0xFFFFFFFFFFFFFFFFFFFFFFFFFFFFFFFFFFFFFFFF AND DUP2 MSTORE PUSH1 0x20 ADD PUSH1 0x5 DUP3 ADD DUP1 SLOAD PUSH2 0x1EEF SWAP1 PUSH2 0x39C7 JUMP JUMPDEST DUP1 PUSH1 0x1F ADD PUSH1 0x20 DUP1 SWAP2 DIV MUL PUSH1 0x20 ADD PUSH1 0x40 MLOAD SWAP1 DUP2 ADD PUSH1 0x40 MSTORE DUP1 SWAP3 SWAP2 SWAP1 DUP2 DUP2 MSTORE PUSH1 0x20 ADD DUP3 DUP1 SLOAD PUSH2 0x1F1B SWAP1 PUSH2 0x39C7 JUMP JUMPDEST DUP1 ISZERO PUSH2 0x1F68 JUMPI DUP1 PUSH1 0x1F LT PUSH2 0x1F3D JUMPI PUSH2 0x100 DUP1 DUP4 SLOAD DIV MUL DUP4 MSTORE SWAP2 PUSH1 0x20 ADD SWAP2 PUSH2 0x1F68 JUMP JUMPDEST DUP3 ADD SWAP2 SWAP1 PUSH1 0x0 MSTORE PUSH1 0x20 PUSH1 0x0 KECCAK256 SWAP1 JUMPDEST DUP2 SLOAD DUP2 MSTORE SWAP1 PUSH1 0x1 ADD SWAP1 PUSH1 0x20 ADD DUP1 DUP4 GT PUSH2 0x1F4B JUMPI DUP3 SWAP1 SUB PUSH1 0x1F AND DUP3 ADD SWAP2 JUMPDEST POP POP POP POP POP DUP2 MSTORE PUSH1 0x20 ADD PUSH1 0x6 DUP3 ADD PUSH1 0x0 SWAP1 SLOAD SWAP1 PUSH2 0x100 EXP SWAP1 DIV PUSH1 0xFF AND ISZERO ISZERO ISZERO ISZERO DUP2 MSTORE POP POP DUP2 MSTORE PUSH1 0x20 ADD SWAP1 PUSH1 0x1 ADD SWAP1 PUSH2 0x1E3E JUMP JUMPDEST POP POP POP POP SWAP1 POP PUSH1 0x0 PUSH2 0x200A PUSH1 0x14 PUSH2 0x1FC0 PUSH1 0x2 DUP7 PUSH1 0xE0 ADD MLOAD PUSH2 0x29C5 SWAP1 SWAP2 SWAP1 PUSH4 0xFFFFFFFF AND JUMP JUMPDEST DUP6 PUSH1 0x80 ADD MLOAD DUP7 PUSH1 0xA0 ADD MLOAD DUP8 PUSH1 0x60 ADD MLOAD DUP9 PUSH1 0xC0 ADD MLOAD PUSH2 0x1FDE SWAP2 SWAP1 PUSH2 0x381E JUMP JUMPDEST PUSH2 0x1FE8 SWAP2 SWAP1 PUSH2 0x381E JUMP JUMPDEST PUSH2 0x1FF2 SWAP2 SWAP1 PUSH2 0x381E JUMP JUMPDEST PUSH2 0x1FFC SWAP2 SWAP1 PUSH2 0x381E JUMP JUMPDEST PUSH2 0x29C5 SWAP1 SWAP2 SWAP1 PUSH4 0xFFFFFFFF AND JUMP JUMPDEST PUSH1 0x7 PUSH1 0x0 DUP3 DUP3 SLOAD PUSH2 0x201B SWAP2 SWAP1 PUSH2 0x381E JUMP JUMPDEST SWAP3 POP POP DUP2 SWAP1 SSTORE POP PUSH1 0x0 JUMPDEST PUSH1 0x1 DUP4 MLOAD PUSH2 0x2033 SWAP2 SWAP1 PUSH2 0x38FF JUMP JUMPDEST DUP2 GT PUSH2 0x24D1 JUMPI PUSH1 0x0 DUP4 DUP3 DUP2 MLOAD DUP2 LT PUSH2 0x204E JUMPI PUSH2 0x204D PUSH2 0x3B14 JUMP JUMPDEST JUMPDEST PUSH1 0x20 MUL PUSH1 0x20 ADD ADD MLOAD PUSH1 0xC0 ADD SWAP1 ISZERO ISZERO SWAP1 DUP2 ISZERO ISZERO DUP2 MSTORE POP ISZERO PUSH2 0x24BE JUMPI PUSH1 0x2 DUP4 DUP3 DUP2 MLOAD DUP2 LT PUSH2 0x207D JUMPI PUSH2 0x207C PUSH2 0x3B14 JUMP JUMPDEST JUMPDEST PUSH1 0x20 MUL PUSH1 0x20 ADD ADD MLOAD PUSH1 0x20 ADD MLOAD EQ ISZERO PUSH2 0x224E JUMPI PUSH2 0x20DC PUSH1 0x64 PUSH2 0x20CE PUSH1 0x55 PUSH2 0x20B1 PUSH1 0x2 DUP10 PUSH1 0xE0 ADD MLOAD PUSH2 0x29C5 SWAP1 SWAP2 SWAP1 PUSH4 0xFFFFFFFF AND JUMP JUMPDEST DUP9 PUSH1 0xC0 ADD MLOAD PUSH2 0x20C0 SWAP2 SWAP1 PUSH2 0x381E JUMP JUMPDEST PUSH2 0x2BE5 SWAP1 SWAP2 SWAP1 PUSH4 0xFFFFFFFF AND JUMP JUMPDEST PUSH2 0x29C5 SWAP1 SWAP2 SWAP1 PUSH4 0xFFFFFFFF AND JUMP JUMPDEST SWAP2 POP DUP8 DUP4 DUP3 DUP2 MLOAD DUP2 LT PUSH2 0x20F2 JUMPI PUSH2 0x20F1 PUSH2 0x3B14 JUMP JUMPDEST JUMPDEST PUSH1 0x20 MUL PUSH1 0x20 ADD ADD MLOAD PUSH1 0x40 ADD MLOAD EQ DUP1 ISZERO PUSH2 0x2128 JUMPI POP DUP7 DUP4 DUP3 DUP2 MLOAD DUP2 LT PUSH2 0x211A JUMPI PUSH2 0x2119 PUSH2 0x3B14 JUMP JUMPDEST JUMPDEST PUSH1 0x20 MUL PUSH1 0x20 ADD ADD MLOAD PUSH1 0x60 ADD MLOAD EQ JUMPDEST ISZERO PUSH2 0x2249 JUMPI PUSH1 0x0 PUSH1 0x3 DUP5 DUP4 DUP2 MLOAD DUP2 LT PUSH2 0x2144 JUMPI PUSH2 0x2143 PUSH2 0x3B14 JUMP JUMPDEST JUMPDEST PUSH1 0x20 MUL PUSH1 0x20 ADD ADD MLOAD PUSH1 0xA0 ADD MLOAD PUSH1 0x40 MLOAD PUSH2 0x215D SWAP2 SWAP1 PUSH2 0x3551 JUMP JUMPDEST SWAP1 DUP2 MSTORE PUSH1 0x20 ADD PUSH1 0x40 MLOAD DUP1 SWAP2 SUB SWAP1 KECCAK256 SLOAD SWAP1 POP PUSH1 0x0 DUP2 DUP6 DUP5 DUP2 MLOAD DUP2 LT PUSH2 0x2184 JUMPI PUSH2 0x2183 PUSH2 0x3B14 JUMP JUMPDEST JUMPDEST PUSH1 0x20 MUL PUSH1 0x20 ADD ADD MLOAD PUSH1 0x0 ADD MLOAD DUP6 PUSH2 0x219B SWAP2 SWAP1 PUSH2 0x38A5 JUMP JUMPDEST PUSH2 0x21A5 SWAP2 SWAP1 PUSH2 0x3874 JUMP JUMPDEST SWAP1 POP DUP1 PUSH1 0x5 PUSH1 0x0 DUP8 DUP7 DUP2 MLOAD DUP2 LT PUSH2 0x21BF JUMPI PUSH2 0x21BE PUSH2 0x3B14 JUMP JUMPDEST JUMPDEST PUSH1 0x20 MUL PUSH1 0x20 ADD ADD MLOAD PUSH1 0x80 ADD MLOAD PUSH20 0xFFFFFFFFFFFFFFFFFFFFFFFFFFFFFFFFFFFFFFFF AND PUSH20 0xFFFFFFFFFFFFFFFFFFFFFFFFFFFFFFFFFFFFFFFF AND DUP2 MSTORE PUSH1 0x20 ADD SWAP1 DUP2 MSTORE PUSH1 0x20 ADD PUSH1 0x0 KECCAK256 PUSH1 0x0 DUP3 DUP3 SLOAD PUSH2 0x2214 SWAP2 SWAP1 PUSH2 0x381E JUMP JUMPDEST SWAP3 POP POP DUP2 SWAP1 SSTORE POP PUSH1 0x1 DUP6 DUP5 DUP2 MLOAD DUP2 LT PUSH2 0x2230 JUMPI PUSH2 0x222F PUSH2 0x3B14 JUMP JUMPDEST JUMPDEST PUSH1 0x20 MUL PUSH1 0x20 ADD ADD MLOAD PUSH1 0xC0 ADD SWAP1 ISZERO ISZERO SWAP1 DUP2 ISZERO ISZERO DUP2 MSTORE POP POP POP POP JUMPDEST PUSH2 0x24BD JUMP JUMPDEST DUP6 DUP4 DUP3 DUP2 MLOAD DUP2 LT PUSH2 0x2262 JUMPI PUSH2 0x2261 PUSH2 0x3B14 JUMP JUMPDEST JUMPDEST PUSH1 0x20 MUL PUSH1 0x20 ADD ADD MLOAD PUSH1 0x20 ADD MLOAD EQ ISZERO PUSH2 0x24BC JUMPI PUSH2 0x22DF PUSH1 0x64 PUSH2 0x22D1 PUSH1 0x55 PUSH2 0x2296 PUSH1 0x2 DUP10 PUSH1 0xE0 ADD MLOAD PUSH2 0x29C5 SWAP1 SWAP2 SWAP1 PUSH4 0xFFFFFFFF AND JUMP JUMPDEST DUP9 PUSH1 0x80 ADD MLOAD DUP10 PUSH1 0xA0 ADD MLOAD DUP11 PUSH1 0x60 ADD MLOAD PUSH2 0x22AF SWAP2 SWAP1 PUSH2 0x381E JUMP JUMPDEST PUSH2 0x22B9 SWAP2 SWAP1 PUSH2 0x381E JUMP JUMPDEST PUSH2 0x22C3 SWAP2 SWAP1 PUSH2 0x381E JUMP JUMPDEST PUSH2 0x2BE5 SWAP1 SWAP2 SWAP1 PUSH4 0xFFFFFFFF AND JUMP JUMPDEST PUSH2 0x29C5 SWAP1 SWAP2 SWAP1 PUSH4 0xFFFFFFFF AND JUMP JUMPDEST SWAP2 POP PUSH1 0x0 DUP1 DUP5 DUP4 DUP2 MLOAD DUP2 LT PUSH2 0x22F7 JUMPI PUSH2 0x22F6 PUSH2 0x3B14 JUMP JUMPDEST JUMPDEST PUSH1 0x20 MUL PUSH1 0x20 ADD ADD MLOAD PUSH1 0x20 ADD MLOAD EQ ISZERO PUSH2 0x2337 JUMPI PUSH2 0x2334 PUSH1 0x64 PUSH2 0x2326 PUSH1 0x55 DUP9 PUSH1 0xA0 ADD MLOAD PUSH2 0x2BE5 SWAP1 SWAP2 SWAP1 PUSH4 0xFFFFFFFF AND JUMP JUMPDEST PUSH2 0x29C5 SWAP1 SWAP2 SWAP1 PUSH4 0xFFFFFFFF AND JUMP JUMPDEST SWAP1 POP JUMPDEST PUSH1 0x1 DUP5 DUP4 DUP2 MLOAD DUP2 LT PUSH2 0x234C JUMPI PUSH2 0x234B PUSH2 0x3B14 JUMP JUMPDEST JUMPDEST PUSH1 0x20 MUL PUSH1 0x20 ADD ADD MLOAD PUSH1 0x20 ADD MLOAD EQ ISZERO PUSH2 0x238C JUMPI PUSH2 0x2389 PUSH1 0x64 PUSH2 0x237B PUSH1 0x55 DUP9 PUSH1 0x80 ADD MLOAD PUSH2 0x2BE5 SWAP1 SWAP2 SWAP1 PUSH4 0xFFFFFFFF AND JUMP JUMPDEST PUSH2 0x29C5 SWAP1 SWAP2 SWAP1 PUSH4 0xFFFFFFFF AND JUMP JUMPDEST SWAP1 POP JUMPDEST PUSH1 0x3 DUP5 DUP4 DUP2 MLOAD DUP2 LT PUSH2 0x23A1 JUMPI PUSH2 0x23A0 PUSH2 0x3B14 JUMP JUMPDEST JUMPDEST PUSH1 0x20 MUL PUSH1 0x20 ADD ADD MLOAD PUSH1 0x20 ADD MLOAD EQ ISZERO PUSH2 0x23E1 JUMPI PUSH2 0x23DE PUSH1 0x64 PUSH2 0x23D0 PUSH1 0x55 DUP9 PUSH1 0x60 ADD MLOAD PUSH2 0x2BE5 SWAP1 SWAP2 SWAP1 PUSH4 0xFFFFFFFF AND JUMP JUMPDEST PUSH2 0x29C5 SWAP1 SWAP2 SWAP1 PUSH4 0xFFFFFFFF AND JUMP JUMPDEST SWAP1 POP JUMPDEST PUSH1 0x0 DUP2 DUP6 DUP5 DUP2 MLOAD DUP2 LT PUSH2 0x23F7 JUMPI PUSH2 0x23F6 PUSH2 0x3B14 JUMP JUMPDEST JUMPDEST PUSH1 0x20 MUL PUSH1 0x20 ADD ADD MLOAD PUSH1 0x0 ADD MLOAD DUP6 PUSH2 0x240E SWAP2 SWAP1 PUSH2 0x38A5 JUMP JUMPDEST PUSH2 0x2418 SWAP2 SWAP1 PUSH2 0x3874 JUMP JUMPDEST SWAP1 POP DUP1 PUSH1 0x5 PUSH1 0x0 DUP8 DUP7 DUP2 MLOAD DUP2 LT PUSH2 0x2432 JUMPI PUSH2 0x2431 PUSH2 0x3B14 JUMP JUMPDEST JUMPDEST PUSH1 0x20 MUL PUSH1 0x20 ADD ADD MLOAD PUSH1 0x80 ADD MLOAD PUSH20 0xFFFFFFFFFFFFFFFFFFFFFFFFFFFFFFFFFFFFFFFF AND PUSH20 0xFFFFFFFFFFFFFFFFFFFFFFFFFFFFFFFFFFFFFFFF AND DUP2 MSTORE PUSH1 0x20 ADD SWAP1 DUP2 MSTORE PUSH1 0x20 ADD PUSH1 0x0 KECCAK256 PUSH1 0x0 DUP3 DUP3 SLOAD PUSH2 0x2487 SWAP2 SWAP1 PUSH2 0x381E JUMP JUMPDEST SWAP3 POP POP DUP2 SWAP1 SSTORE POP PUSH1 0x1 DUP6 DUP5 DUP2 MLOAD DUP2 LT PUSH2 0x24A3 JUMPI PUSH2 0x24A2 PUSH2 0x3B14 JUMP JUMPDEST JUMPDEST PUSH1 0x20 MUL PUSH1 0x20 ADD ADD MLOAD PUSH1 0xC0 ADD SWAP1 ISZERO ISZERO SWAP1 DUP2 ISZERO ISZERO DUP2 MSTORE POP POP POP POP JUMPDEST JUMPDEST JUMPDEST DUP1 DUP1 PUSH2 0x24C9 SWAP1 PUSH2 0x3A2A JUMP JUMPDEST SWAP2 POP POP PUSH2 0x2025 JUMP JUMPDEST POP PUSH1 0x1 DUP4 PUSH2 0x140 ADD SWAP1 ISZERO ISZERO SWAP1 DUP2 ISZERO ISZERO DUP2 MSTORE POP POP POP POP POP PUSH1 0x1 SWAP1 POP SWAP5 SWAP4 POP POP POP POP JUMP JUMPDEST PUSH1 0x0 DUP1 PUSH1 0x0 SWAP1 SLOAD SWAP1 PUSH2 0x100 EXP SWAP1 DIV PUSH20 0xFFFFFFFFFFFFFFFFFFFFFFFFFFFFFFFFFFFFFFFF AND PUSH20 0xFFFFFFFFFFFFFFFFFFFFFFFFFFFFFFFFFFFFFFFF AND CALLER PUSH20 0xFFFFFFFFFFFFFFFFFFFFFFFFFFFFFFFFFFFFFFFF AND EQ PUSH2 0x2584 JUMPI PUSH1 0x40 MLOAD PUSH32 0x8C379A000000000000000000000000000000000000000000000000000000000 DUP2 MSTORE PUSH1 0x4 ADD PUSH2 0x257B SWAP1 PUSH2 0x3666 JUMP JUMPDEST PUSH1 0x40 MLOAD DUP1 SWAP2 SUB SWAP1 REVERT JUMPDEST DUP2 PUSH1 0x5 PUSH1 0x0 DUP6 PUSH20 0xFFFFFFFFFFFFFFFFFFFFFFFFFFFFFFFFFFFFFFFF AND PUSH20 0xFFFFFFFFFFFFFFFFFFFFFFFFFFFFFFFFFFFFFFFF AND DUP2 MSTORE PUSH1 0x20 ADD SWAP1 DUP2 MSTORE PUSH1 0x20 ADD PUSH1 0x0 KECCAK256 SLOAD LT ISZERO DUP1 ISZERO PUSH2 0x2613 JUMPI POP PUSH1 0x0 PUSH1 0x5 PUSH1 0x0 DUP6 PUSH20 0xFFFFFFFFFFFFFFFFFFFFFFFFFFFFFFFFFFFFFFFF AND PUSH20 0xFFFFFFFFFFFFFFFFFFFFFFFFFFFFFFFFFFFFFFFF AND DUP2 MSTORE PUSH1 0x20 ADD SWAP1 DUP2 MSTORE PUSH1 0x20 ADD PUSH1 0x0 KECCAK256 SLOAD LT ISZERO JUMPDEST ISZERO PUSH2 0x26A9 JUMPI PUSH1 0x0 DUP4 SWAP1 POP DUP1 PUSH20 0xFFFFFFFFFFFFFFFFFFFFFFFFFFFFFFFFFFFFFFFF AND PUSH2 0x8FC PUSH1 0x5 PUSH1 0x0 DUP8 PUSH20 0xFFFFFFFFFFFFFFFFFFFFFFFFFFFFFFFFFFFFFFFF AND PUSH20 0xFFFFFFFFFFFFFFFFFFFFFFFFFFFFFFFFFFFFFFFF AND DUP2 MSTORE PUSH1 0x20 ADD SWAP1 DUP2 MSTORE PUSH1 0x20 ADD PUSH1 0x0 KECCAK256 SLOAD SWAP1 DUP2 ISZERO MUL SWAP1 PUSH1 0x40 MLOAD PUSH1 0x0 PUSH1 0x40 MLOAD DUP1 DUP4 SUB DUP2 DUP6 DUP9 DUP9 CALL SWAP4 POP POP POP POP ISZERO DUP1 ISZERO PUSH2 0x26A2 JUMPI RETURNDATASIZE PUSH1 0x0 DUP1 RETURNDATACOPY RETURNDATASIZE PUSH1 0x0 REVERT JUMPDEST POP POP PUSH2 0x26E4 JUMP JUMPDEST PUSH1 0x40 MLOAD PUSH32 0x8C379A000000000000000000000000000000000000000000000000000000000 DUP2 MSTORE PUSH1 0x4 ADD PUSH2 0x26DB SWAP1 PUSH2 0x3726 JUMP JUMPDEST PUSH1 0x40 MLOAD DUP1 SWAP2 SUB SWAP1 REVERT JUMPDEST SWAP3 SWAP2 POP POP JUMP JUMPDEST PUSH1 0x60 DUP1 PUSH1 0x60 PUSH1 0x0 DUP1 PUSH1 0x0 DUP1 PUSH2 0x26FE DUP9 PUSH2 0x2998 JUMP JUMPDEST PUSH2 0x273D JUMPI PUSH1 0x40 MLOAD PUSH32 0x8C379A000000000000000000000000000000000000000000000000000000000 DUP2 MSTORE PUSH1 0x4 ADD PUSH2 0x2734 SWAP1 PUSH2 0x3686 JUMP JUMPDEST PUSH1 0x40 MLOAD DUP1 SWAP2 SUB SWAP1 REVERT JUMPDEST PUSH1 0x6 PUSH1 0x0 DUP10 DUP2 MSTORE PUSH1 0x20 ADD SWAP1 DUP2 MSTORE PUSH1 0x20 ADD PUSH1 0x0 KECCAK256 PUSH1 0x0 ADD PUSH1 0x6 PUSH1 0x0 DUP11 DUP2 MSTORE PUSH1 0x20 ADD SWAP1 DUP2 MSTORE PUSH1 0x20 ADD PUSH1 0x0 KECCAK256 PUSH1 0x1 ADD PUSH1 0x6 PUSH1 0x0 DUP12 DUP2 MSTORE PUSH1 0x20 ADD SWAP1 DUP2 MSTORE PUSH1 0x20 ADD PUSH1 0x0 KECCAK256 PUSH1 0x2 ADD PUSH1 0x6 PUSH1 0x0 DUP13 DUP2 MSTORE PUSH1 0x20 ADD SWAP1 DUP2 MSTORE PUSH1 0x20 ADD PUSH1 0x0 KECCAK256 PUSH1 0x3 ADD SLOAD PUSH1 0x6 PUSH1 0x0 DUP14 DUP2 MSTORE PUSH1 0x20 ADD SWAP1 DUP2 MSTORE PUSH1 0x20 ADD PUSH1 0x0 KECCAK256 PUSH1 0x4 ADD SLOAD PUSH1 0x6 PUSH1 0x0 DUP15 DUP2 MSTORE PUSH1 0x20 ADD SWAP1 DUP2 MSTORE PUSH1 0x20 ADD PUSH1 0x0 KECCAK256 PUSH1 0x5 ADD SLOAD PUSH1 0x6 PUSH1 0x0 DUP16 DUP2 MSTORE PUSH1 0x20 ADD SWAP1 DUP2 MSTORE PUSH1 0x20 ADD PUSH1 0x0 KECCAK256 PUSH1 0x6 ADD SLOAD DUP7 DUP1 SLOAD PUSH2 0x27E7 SWAP1 PUSH2 0x39C7 JUMP JUMPDEST DUP1 PUSH1 0x1F ADD PUSH1 0x20 DUP1 SWAP2 DIV MUL PUSH1 0x20 ADD PUSH1 0x40 MLOAD SWAP1 DUP2 ADD PUSH1 0x40 MSTORE DUP1 SWAP3 SWAP2 SWAP1 DUP2 DUP2 MSTORE PUSH1 0x20 ADD DUP3 DUP1 SLOAD PUSH2 0x2813 SWAP1 PUSH2 0x39C7 JUMP JUMPDEST DUP1 ISZERO PUSH2 0x2860 JUMPI DUP1 PUSH1 0x1F LT PUSH2 0x2835 JUMPI PUSH2 0x100 DUP1 DUP4 SLOAD DIV MUL DUP4 MSTORE SWAP2 PUSH1 0x20 ADD SWAP2 PUSH2 0x2860 JUMP JUMPDEST DUP3 ADD SWAP2 SWAP1 PUSH1 0x0 MSTORE PUSH1 0x20 PUSH1 0x0 KECCAK256 SWAP1 JUMPDEST DUP2 SLOAD DUP2 MSTORE SWAP1 PUSH1 0x1 ADD SWAP1 PUSH1 0x20 ADD DUP1 DUP4 GT PUSH2 0x2843 JUMPI DUP3 SWAP1 SUB PUSH1 0x1F AND DUP3 ADD SWAP2 JUMPDEST POP POP POP POP POP SWAP7 POP DUP6 DUP1 SLOAD PUSH2 0x2873 SWAP1 PUSH2 0x39C7 JUMP JUMPDEST DUP1 PUSH1 0x1F ADD PUSH1 0x20 DUP1 SWAP2 DIV MUL PUSH1 0x20 ADD PUSH1 0x40 MLOAD SWAP1 DUP2 ADD PUSH1 0x40 MSTORE DUP1 SWAP3 SWAP2 SWAP1 DUP2 DUP2 MSTORE PUSH1 0x20 ADD DUP3 DUP1 SLOAD PUSH2 0x289F SWAP1 PUSH2 0x39C7 JUMP JUMPDEST DUP1 ISZERO PUSH2 0x28EC JUMPI DUP1 PUSH1 0x1F LT PUSH2 0x28C1 JUMPI PUSH2 0x100 DUP1 DUP4 SLOAD DIV MUL DUP4 MSTORE SWAP2 PUSH1 0x20 ADD SWAP2 PUSH2 0x28EC JUMP JUMPDEST DUP3 ADD SWAP2 SWAP1 PUSH1 0x0 MSTORE PUSH1 0x20 PUSH1 0x0 KECCAK256 SWAP1 JUMPDEST DUP2 SLOAD DUP2 MSTORE SWAP1 PUSH1 0x1 ADD SWAP1 PUSH1 0x20 ADD DUP1 DUP4 GT PUSH2 0x28CF JUMPI DUP3 SWAP1 SUB PUSH1 0x1F AND DUP3 ADD SWAP2 JUMPDEST POP POP POP POP POP SWAP6 POP DUP5 DUP1 SLOAD PUSH2 0x28FF SWAP1 PUSH2 0x39C7 JUMP JUMPDEST DUP1 PUSH1 0x1F ADD PUSH1 0x20 DUP1 SWAP2 DIV MUL PUSH1 0x20 ADD PUSH1 0x40 MLOAD SWAP1 DUP2 ADD PUSH1 0x40 MSTORE DUP1 SWAP3 SWAP2 SWAP1 DUP2 DUP2 MSTORE PUSH1 0x20 ADD DUP3 DUP1 SLOAD PUSH2 0x292B SWAP1 PUSH2 0x39C7 JUMP JUMPDEST DUP1 ISZERO PUSH2 0x2978 JUMPI DUP1 PUSH1 0x1F LT PUSH2 0x294D JUMPI PUSH2 0x100 DUP1 DUP4 SLOAD DIV MUL DUP4 MSTORE SWAP2 PUSH1 0x20 ADD SWAP2 PUSH2 0x2978 JUMP JUMPDEST DUP3 ADD SWAP2 SWAP1 PUSH1 0x0 MSTORE PUSH1 0x20 PUSH1 0x0 KECCAK256 SWAP1 JUMPDEST DUP2 SLOAD DUP2 MSTORE SWAP1 PUSH1 0x1 ADD SWAP1 PUSH1 0x20 ADD DUP1 DUP4 GT PUSH2 0x295B JUMPI DUP3 SWAP1 SUB PUSH1 0x1F AND DUP3 ADD SWAP2 JUMPDEST POP POP POP POP POP SWAP5 POP SWAP7 POP SWAP7 POP SWAP7 POP SWAP7 POP SWAP7 POP SWAP7 POP SWAP7 POP SWAP2 SWAP4 SWAP6 SWAP8 SWAP1 SWAP3 SWAP5 SWAP7 POP JUMP JUMPDEST PUSH1 0x0 PUSH1 0x6 PUSH1 0x0 DUP4 DUP2 MSTORE PUSH1 0x20 ADD SWAP1 DUP2 MSTORE PUSH1 0x20 ADD PUSH1 0x0 KECCAK256 PUSH1 0x8 ADD PUSH1 0x1 SWAP1 SLOAD SWAP1 PUSH2 0x100 EXP SWAP1 DIV PUSH1 0xFF AND SWAP1 POP SWAP2 SWAP1 POP JUMP JUMPDEST PUSH1 0x0 DUP1 DUP3 GT PUSH2 0x29D3 JUMPI PUSH1 0x0 DUP1 REVERT JUMPDEST PUSH1 0x0 DUP3 DUP5 PUSH2 0x29E1 SWAP2 SWAP1 PUSH2 0x3874 JUMP JUMPDEST SWAP1 POP DUP1 SWAP2 POP POP SWAP3 SWAP2 POP POP JUMP JUMPDEST PUSH1 0x60 PUSH1 0x0 DUP4 SWAP1 POP PUSH1 0x0 DUP4 SWAP1 POP PUSH1 0x0 DUP2 MLOAD DUP4 MLOAD PUSH2 0x2A09 SWAP2 SWAP1 PUSH2 0x381E JUMP JUMPDEST PUSH8 0xFFFFFFFFFFFFFFFF DUP2 GT ISZERO PUSH2 0x2A22 JUMPI PUSH2 0x2A21 PUSH2 0x3B43 JUMP JUMPDEST JUMPDEST PUSH1 0x40 MLOAD SWAP1 DUP1 DUP3 MSTORE DUP1 PUSH1 0x1F ADD PUSH1 0x1F NOT AND PUSH1 0x20 ADD DUP3 ADD PUSH1 0x40 MSTORE DUP1 ISZERO PUSH2 0x2A54 JUMPI DUP2 PUSH1 0x20 ADD PUSH1 0x1 DUP3 MUL DUP1 CALLDATASIZE DUP4 CALLDATACOPY DUP1 DUP3 ADD SWAP2 POP POP SWAP1 POP JUMPDEST POP SWAP1 POP PUSH1 0x0 DUP2 SWAP1 POP PUSH1 0x0 DUP1 JUMPDEST DUP6 MLOAD DUP2 LT ISZERO PUSH2 0x2AE8 JUMPI DUP6 DUP2 DUP2 MLOAD DUP2 LT PUSH2 0x2A7C JUMPI PUSH2 0x2A7B PUSH2 0x3B14 JUMP JUMPDEST JUMPDEST PUSH1 0x20 ADD ADD MLOAD PUSH1 0xF8 SHR PUSH1 0xF8 SHL DUP4 DUP4 DUP1 PUSH2 0x2A93 SWAP1 PUSH2 0x3A2A JUMP JUMPDEST SWAP5 POP DUP2 MLOAD DUP2 LT PUSH2 0x2AA6 JUMPI PUSH2 0x2AA5 PUSH2 0x3B14 JUMP JUMPDEST JUMPDEST PUSH1 0x20 ADD ADD SWAP1 PUSH31 0xFFFFFFFFFFFFFFFFFFFFFFFFFFFFFFFFFFFFFFFFFFFFFFFFFFFFFFFFFFFFFF NOT AND SWAP1 DUP2 PUSH1 0x0 BYTE SWAP1 MSTORE8 POP DUP1 DUP1 PUSH2 0x2AE0 SWAP1 PUSH2 0x3A2A JUMP JUMPDEST SWAP2 POP POP PUSH2 0x2A60 JUMP JUMPDEST POP PUSH1 0x0 JUMPDEST DUP5 MLOAD DUP2 LT ISZERO PUSH2 0x2B74 JUMPI DUP5 DUP2 DUP2 MLOAD DUP2 LT PUSH2 0x2B08 JUMPI PUSH2 0x2B07 PUSH2 0x3B14 JUMP JUMPDEST JUMPDEST PUSH1 0x20 ADD ADD MLOAD PUSH1 0xF8 SHR PUSH1 0xF8 SHL DUP4 DUP4 DUP1 PUSH2 0x2B1F SWAP1 PUSH2 0x3A2A JUMP JUMPDEST SWAP5 POP DUP2 MLOAD DUP2 LT PUSH2 0x2B32 JUMPI PUSH2 0x2B31 PUSH2 0x3B14 JUMP JUMPDEST JUMPDEST PUSH1 0x20 ADD ADD SWAP1 PUSH31 0xFFFFFFFFFFFFFFFFFFFFFFFFFFFFFFFFFFFFFFFFFFFFFFFFFFFFFFFFFFFFFF NOT AND SWAP1 DUP2 PUSH1 0x0 BYTE SWAP1 MSTORE8 POP DUP1 DUP1 PUSH2 0x2B6C SWAP1 PUSH2 0x3A2A JUMP JUMPDEST SWAP2 POP POP PUSH2 0x2AEC JUMP JUMPDEST POP DUP3 SWAP6 POP POP POP POP POP POP SWAP3 SWAP2 POP POP JUMP JUMPDEST PUSH1 0x60 PUSH2 0x2BAD DUP3 PUSH1 0x40 MLOAD PUSH1 0x20 ADD PUSH2 0x2B99 SWAP2 SWAP1 PUSH2 0x3568 JUMP JUMPDEST PUSH1 0x40 MLOAD PUSH1 0x20 DUP2 DUP4 SUB SUB DUP2 MSTORE SWAP1 PUSH1 0x40 MSTORE PUSH2 0x2C2A JUMP JUMPDEST SWAP1 POP SWAP2 SWAP1 POP JUMP JUMPDEST PUSH1 0x60 PUSH2 0x2BDE DUP3 PUSH1 0x40 MLOAD PUSH1 0x20 ADD PUSH2 0x2BCA SWAP2 SWAP1 PUSH2 0x3536 JUMP JUMPDEST PUSH1 0x40 MLOAD PUSH1 0x20 DUP2 DUP4 SUB SUB DUP2 MSTORE SWAP1 PUSH1 0x40 MSTORE PUSH2 0x2C2A JUMP JUMPDEST SWAP1 POP SWAP2 SWAP1 POP JUMP JUMPDEST PUSH1 0x0 DUP1 DUP4 EQ ISZERO PUSH2 0x2BF8 JUMPI PUSH1 0x0 SWAP1 POP PUSH2 0x2C24 JUMP JUMPDEST PUSH1 0x0 DUP3 DUP5 PUSH2 0x2C06 SWAP2 SWAP1 PUSH2 0x38A5 JUMP JUMPDEST SWAP1 POP DUP3 DUP5 DUP3 PUSH2 0x2C15 SWAP2 SWAP1 PUSH2 0x3874 JUMP JUMPDEST EQ PUSH2 0x2C1F JUMPI PUSH1 0x0 DUP1 REVERT JUMPDEST DUP1 SWAP2 POP POP JUMPDEST SWAP3 SWAP2 POP POP JUMP JUMPDEST PUSH1 0x60 PUSH1 0x0 PUSH1 0x40 MLOAD DUP1 PUSH1 0x40 ADD PUSH1 0x40 MSTORE DUP1 PUSH1 0x10 DUP2 MSTORE PUSH1 0x20 ADD PUSH32 0x3031323334353637383961626364656600000000000000000000000000000000 DUP2 MSTORE POP SWAP1 POP PUSH1 0x0 PUSH1 0x2 DUP5 MLOAD PUSH2 0x2C76 SWAP2 SWAP1 PUSH2 0x38A5 JUMP JUMPDEST PUSH1 0x2 PUSH2 0x2C82 SWAP2 SWAP1 PUSH2 0x381E JUMP JUMPDEST PUSH8 0xFFFFFFFFFFFFFFFF DUP2 GT ISZERO PUSH2 0x2C9B JUMPI PUSH2 0x2C9A PUSH2 0x3B43 JUMP JUMPDEST JUMPDEST PUSH1 0x40 MLOAD SWAP1 DUP1 DUP3 MSTORE DUP1 PUSH1 0x1F ADD PUSH1 0x1F NOT AND PUSH1 0x20 ADD DUP3 ADD PUSH1 0x40 MSTORE DUP1 ISZERO PUSH2 0x2CCD JUMPI DUP2 PUSH1 0x20 ADD PUSH1 0x1 DUP3 MUL DUP1 CALLDATASIZE DUP4 CALLDATACOPY DUP1 DUP3 ADD SWAP2 POP POP SWAP1 POP JUMPDEST POP SWAP1 POP PUSH32 0x3000000000000000000000000000000000000000000000000000000000000000 DUP2 PUSH1 0x0 DUP2 MLOAD DUP2 LT PUSH2 0x2D05 JUMPI PUSH2 0x2D04 PUSH2 0x3B14 JUMP JUMPDEST JUMPDEST PUSH1 0x20 ADD ADD SWAP1 PUSH31 0xFFFFFFFFFFFFFFFFFFFFFFFFFFFFFFFFFFFFFFFFFFFFFFFFFFFFFFFFFFFFFF NOT AND SWAP1 DUP2 PUSH1 0x0 BYTE SWAP1 MSTORE8 POP PUSH32 0x7800000000000000000000000000000000000000000000000000000000000000 DUP2 PUSH1 0x1 DUP2 MLOAD DUP2 LT PUSH2 0x2D69 JUMPI PUSH2 0x2D68 PUSH2 0x3B14 JUMP JUMPDEST JUMPDEST PUSH1 0x20 ADD ADD SWAP1 PUSH31 0xFFFFFFFFFFFFFFFFFFFFFFFFFFFFFFFFFFFFFFFFFFFFFFFFFFFFFFFFFFFFFF NOT AND SWAP1 DUP2 PUSH1 0x0 BYTE SWAP1 MSTORE8 POP PUSH1 0x0 JUMPDEST DUP5 MLOAD DUP2 LT ISZERO PUSH2 0x2F19 JUMPI DUP3 PUSH1 0x4 DUP7 DUP4 DUP2 MLOAD DUP2 LT PUSH2 0x2DBA JUMPI PUSH2 0x2DB9 PUSH2 0x3B14 JUMP JUMPDEST JUMPDEST PUSH1 0x20 ADD ADD MLOAD PUSH1 0xF8 SHR PUSH1 0xF8 SHL PUSH31 0xFFFFFFFFFFFFFFFFFFFFFFFFFFFFFFFFFFFFFFFFFFFFFFFFFFFFFFFFFFFFFF NOT AND SWAP1 SHR PUSH1 0xF8 SHR PUSH1 0xFF AND DUP2 MLOAD DUP2 LT PUSH2 0x2E00 JUMPI PUSH2 0x2DFF PUSH2 0x3B14 JUMP JUMPDEST JUMPDEST PUSH1 0x20 ADD ADD MLOAD PUSH1 0xF8 SHR PUSH1 0xF8 SHL DUP3 PUSH1 0x2 DUP4 PUSH2 0x2E19 SWAP2 SWAP1 PUSH2 0x38A5 JUMP JUMPDEST PUSH1 0x2 PUSH2 0x2E25 SWAP2 SWAP1 PUSH2 0x381E JUMP JUMPDEST DUP2 MLOAD DUP2 LT PUSH2 0x2E36 JUMPI PUSH2 0x2E35 PUSH2 0x3B14 JUMP JUMPDEST JUMPDEST PUSH1 0x20 ADD ADD SWAP1 PUSH31 0xFFFFFFFFFFFFFFFFFFFFFFFFFFFFFFFFFFFFFFFFFFFFFFFFFFFFFFFFFFFFFF NOT AND SWAP1 DUP2 PUSH1 0x0 BYTE SWAP1 MSTORE8 POP DUP3 PUSH1 0xF PUSH1 0xF8 SHL DUP7 DUP4 DUP2 MLOAD DUP2 LT PUSH2 0x2E7E JUMPI PUSH2 0x2E7D PUSH2 0x3B14 JUMP JUMPDEST JUMPDEST PUSH1 0x20 ADD ADD MLOAD PUSH1 0xF8 SHR PUSH1 0xF8 SHL AND PUSH1 0xF8 SHR PUSH1 0xFF AND DUP2 MLOAD DUP2 LT PUSH2 0x2EA1 JUMPI PUSH2 0x2EA0 PUSH2 0x3B14 JUMP JUMPDEST JUMPDEST PUSH1 0x20 ADD ADD MLOAD PUSH1 0xF8 SHR PUSH1 0xF8 SHL DUP3 PUSH1 0x2 DUP4 PUSH2 0x2EBA SWAP2 SWAP1 PUSH2 0x38A5 JUMP JUMPDEST PUSH1 0x3 PUSH2 0x2EC6 SWAP2 SWAP1 PUSH2 0x381E JUMP JUMPDEST DUP2 MLOAD DUP2 LT PUSH2 0x2ED7 JUMPI PUSH2 0x2ED6 PUSH2 0x3B14 JUMP JUMPDEST JUMPDEST PUSH1 0x20 ADD ADD SWAP1 PUSH31 0xFFFFFFFFFFFFFFFFFFFFFFFFFFFFFFFFFFFFFFFFFFFFFFFFFFFFFFFFFFFFFF NOT AND SWAP1 DUP2 PUSH1 0x0 BYTE SWAP1 MSTORE8 POP DUP1 DUP1 PUSH2 0x2F11 SWAP1 PUSH2 0x3A2A JUMP JUMPDEST SWAP2 POP POP PUSH2 0x2D9B JUMP JUMPDEST POP DUP1 SWAP3 POP POP POP SWAP2 SWAP1 POP JUMP JUMPDEST DUP3 DUP1 SLOAD PUSH2 0x2F30 SWAP1 PUSH2 0x39C7 JUMP JUMPDEST SWAP1 PUSH1 0x0 MSTORE PUSH1 0x20 PUSH1 0x0 KECCAK256 SWAP1 PUSH1 0x1F ADD PUSH1 0x20 SWAP1 DIV DUP2 ADD SWAP3 DUP3 PUSH2 0x2F52 JUMPI PUSH1 0x0 DUP6 SSTORE PUSH2 0x2F99 JUMP JUMPDEST DUP3 PUSH1 0x1F LT PUSH2 0x2F6B JUMPI DUP1 MLOAD PUSH1 0xFF NOT AND DUP4 DUP1 ADD OR DUP6 SSTORE PUSH2 0x2F99 JUMP JUMPDEST DUP3 DUP1 ADD PUSH1 0x1 ADD DUP6 SSTORE DUP3 ISZERO PUSH2 0x2F99 JUMPI SWAP2 DUP3 ADD JUMPDEST DUP3 DUP2 GT ISZERO PUSH2 0x2F98 JUMPI DUP3 MLOAD DUP3 SSTORE SWAP2 PUSH1 0x20 ADD SWAP2 SWAP1 PUSH1 0x1 ADD SWAP1 PUSH2 0x2F7D JUMP JUMPDEST JUMPDEST POP SWAP1 POP PUSH2 0x2FA6 SWAP2 SWAP1 PUSH2 0x2FAA JUMP JUMPDEST POP SWAP1 JUMP JUMPDEST JUMPDEST DUP1 DUP3 GT ISZERO PUSH2 0x2FC3 JUMPI PUSH1 0x0 DUP2 PUSH1 0x0 SWAP1 SSTORE POP PUSH1 0x1 ADD PUSH2 0x2FAB JUMP JUMPDEST POP SWAP1 JUMP JUMPDEST PUSH1 0x0 PUSH2 0x2FDA PUSH2 0x2FD5 DUP5 PUSH2 0x37C6 JUMP JUMPDEST PUSH2 0x37A1 JUMP JUMPDEST SWAP1 POP DUP3 DUP2 MSTORE PUSH1 0x20 DUP2 ADD DUP5 DUP5 DUP5 ADD GT ISZERO PUSH2 0x2FF6 JUMPI PUSH2 0x2FF5 PUSH2 0x3B77 JUMP JUMPDEST JUMPDEST PUSH2 0x3001 DUP5 DUP3 DUP6 PUSH2 0x3985 JUMP JUMPDEST POP SWAP4 SWAP3 POP POP POP JUMP JUMPDEST PUSH1 0x0 DUP2 CALLDATALOAD SWAP1 POP PUSH2 0x3018 DUP2 PUSH2 0x3D08 JUMP JUMPDEST SWAP3 SWAP2 POP POP JUMP JUMPDEST PUSH1 0x0 DUP2 CALLDATALOAD SWAP1 POP PUSH2 0x302D DUP2 PUSH2 0x3D1F JUMP JUMPDEST SWAP3 SWAP2 POP POP JUMP JUMPDEST PUSH1 0x0 DUP2 CALLDATALOAD SWAP1 POP PUSH2 0x3042 DUP2 PUSH2 0x3D36 JUMP JUMPDEST SWAP3 SWAP2 POP POP JUMP JUMPDEST PUSH1 0x0 DUP3 PUSH1 0x1F DUP4 ADD SLT PUSH2 0x305D JUMPI PUSH2 0x305C PUSH2 0x3B72 JUMP JUMPDEST JUMPDEST DUP2 CALLDATALOAD PUSH2 0x306D DUP5 DUP3 PUSH1 0x20 DUP7 ADD PUSH2 0x2FC7 JUMP JUMPDEST SWAP2 POP POP SWAP3 SWAP2 POP POP JUMP JUMPDEST PUSH1 0x0 DUP2 CALLDATALOAD SWAP1 POP PUSH2 0x3085 DUP2 PUSH2 0x3D4D JUMP JUMPDEST SWAP3 SWAP2 POP POP JUMP JUMPDEST PUSH1 0x0 DUP1 PUSH1 0x40 DUP4 DUP6 SUB SLT ISZERO PUSH2 0x30A2 JUMPI PUSH2 0x30A1 PUSH2 0x3B81 JUMP JUMPDEST JUMPDEST PUSH1 0x0 PUSH2 0x30B0 DUP6 DUP3 DUP7 ADD PUSH2 0x3009 JUMP JUMPDEST SWAP3 POP POP PUSH1 0x20 PUSH2 0x30C1 DUP6 DUP3 DUP7 ADD PUSH2 0x3033 JUMP JUMPDEST SWAP2 POP POP SWAP3 POP SWAP3 SWAP1 POP JUMP JUMPDEST PUSH1 0x0 DUP1 PUSH1 0x40 DUP4 DUP6 SUB SLT ISZERO PUSH2 0x30E2 JUMPI PUSH2 0x30E1 PUSH2 0x3B81 JUMP JUMPDEST JUMPDEST PUSH1 0x0 PUSH2 0x30F0 DUP6 DUP3 DUP7 ADD PUSH2 0x3009 JUMP JUMPDEST SWAP3 POP POP PUSH1 0x20 PUSH2 0x3101 DUP6 DUP3 DUP7 ADD PUSH2 0x3076 JUMP JUMPDEST SWAP2 POP POP SWAP3 POP SWAP3 SWAP1 POP JUMP JUMPDEST PUSH1 0x0 DUP1 PUSH1 0x0 DUP1 PUSH1 0x0 DUP1 PUSH1 0xC0 DUP8 DUP10 SUB SLT ISZERO PUSH2 0x3128 JUMPI PUSH2 0x3127 PUSH2 0x3B81 JUMP JUMPDEST JUMPDEST PUSH1 0x0 PUSH2 0x3136 DUP10 DUP3 DUP11 ADD PUSH2 0x3009 JUMP JUMPDEST SWAP7 POP POP PUSH1 0x20 PUSH2 0x3147 DUP10 DUP3 DUP11 ADD PUSH2 0x3076 JUMP JUMPDEST SWAP6 POP POP PUSH1 0x40 PUSH2 0x3158 DUP10 DUP3 DUP11 ADD PUSH2 0x3033 JUMP JUMPDEST SWAP5 POP POP PUSH1 0x60 PUSH2 0x3169 DUP10 DUP3 DUP11 ADD PUSH2 0x3076 JUMP JUMPDEST SWAP4 POP POP PUSH1 0x80 PUSH2 0x317A DUP10 DUP3 DUP11 ADD PUSH2 0x3076 JUMP JUMPDEST SWAP3 POP POP PUSH1 0xA0 PUSH2 0x318B DUP10 DUP3 DUP11 ADD PUSH2 0x3076 JUMP JUMPDEST SWAP2 POP POP SWAP3 SWAP6 POP SWAP3 SWAP6 POP SWAP3 SWAP6 JUMP JUMPDEST PUSH1 0x0 PUSH1 0x20 DUP3 DUP5 SUB SLT ISZERO PUSH2 0x31AE JUMPI PUSH2 0x31AD PUSH2 0x3B81 JUMP JUMPDEST JUMPDEST PUSH1 0x0 PUSH2 0x31BC DUP5 DUP3 DUP6 ADD PUSH2 0x3033 JUMP JUMPDEST SWAP2 POP POP SWAP3 SWAP2 POP POP JUMP JUMPDEST PUSH1 0x0 DUP1 PUSH1 0x40 DUP4 DUP6 SUB SLT ISZERO PUSH2 0x31DC JUMPI PUSH2 0x31DB PUSH2 0x3B81 JUMP JUMPDEST JUMPDEST PUSH1 0x0 PUSH2 0x31EA DUP6 DUP3 DUP7 ADD PUSH2 0x3033 JUMP JUMPDEST SWAP3 POP POP PUSH1 0x20 PUSH2 0x31FB DUP6 DUP3 DUP7 ADD PUSH2 0x3076 JUMP JUMPDEST SWAP2 POP POP SWAP3 POP SWAP3 SWAP1 POP JUMP JUMPDEST PUSH1 0x0 DUP1 PUSH1 0x0 DUP1 PUSH1 0x80 DUP6 DUP8 SUB SLT ISZERO PUSH2 0x321F JUMPI PUSH2 0x321E PUSH2 0x3B81 JUMP JUMPDEST JUMPDEST PUSH1 0x0 PUSH2 0x322D DUP8 DUP3 DUP9 ADD PUSH2 0x3033 JUMP JUMPDEST SWAP5 POP POP PUSH1 0x20 PUSH2 0x323E DUP8 DUP3 DUP9 ADD PUSH2 0x3076 JUMP JUMPDEST SWAP4 POP POP PUSH1 0x40 PUSH2 0x324F DUP8 DUP3 DUP9 ADD PUSH2 0x3076 JUMP JUMPDEST SWAP3 POP POP PUSH1 0x60 PUSH2 0x3260 DUP8 DUP3 DUP9 ADD PUSH2 0x3076 JUMP JUMPDEST SWAP2 POP POP SWAP3 SWAP6 SWAP2 SWAP5 POP SWAP3 POP JUMP JUMPDEST PUSH1 0x0 DUP1 PUSH1 0x0 DUP1 PUSH1 0x80 DUP6 DUP8 SUB SLT ISZERO PUSH2 0x3286 JUMPI PUSH2 0x3285 PUSH2 0x3B81 JUMP JUMPDEST JUMPDEST PUSH1 0x0 DUP6 ADD CALLDATALOAD PUSH8 0xFFFFFFFFFFFFFFFF DUP2 GT ISZERO PUSH2 0x32A4 JUMPI PUSH2 0x32A3 PUSH2 0x3B7C JUMP JUMPDEST JUMPDEST PUSH2 0x32B0 DUP8 DUP3 DUP9 ADD PUSH2 0x3048 JUMP JUMPDEST SWAP5 POP POP PUSH1 0x20 DUP6 ADD CALLDATALOAD PUSH8 0xFFFFFFFFFFFFFFFF DUP2 GT ISZERO PUSH2 0x32D1 JUMPI PUSH2 0x32D0 PUSH2 0x3B7C JUMP JUMPDEST JUMPDEST PUSH2 0x32DD DUP8 DUP3 DUP9 ADD PUSH2 0x3048 JUMP JUMPDEST SWAP4 POP POP PUSH1 0x40 DUP6 ADD CALLDATALOAD PUSH8 0xFFFFFFFFFFFFFFFF DUP2 GT ISZERO PUSH2 0x32FE JUMPI PUSH2 0x32FD PUSH2 0x3B7C JUMP JUMPDEST JUMPDEST PUSH2 0x330A DUP8 DUP3 DUP9 ADD PUSH2 0x3048 JUMP JUMPDEST SWAP3 POP POP PUSH1 0x60 PUSH2 0x331B DUP8 DUP3 DUP9 ADD PUSH2 0x301E JUMP JUMPDEST SWAP2 POP POP SWAP3 SWAP6 SWAP2 SWAP5 POP SWAP3 POP JUMP JUMPDEST PUSH2 0x3330 DUP2 PUSH2 0x3933 JUMP JUMPDEST DUP3 MSTORE POP POP JUMP JUMPDEST PUSH2 0x333F DUP2 PUSH2 0x3945 JUMP JUMPDEST DUP3 MSTORE POP POP JUMP JUMPDEST PUSH2 0x334E DUP2 PUSH2 0x3951 JUMP JUMPDEST DUP3 MSTORE POP POP JUMP JUMPDEST PUSH2 0x3365 PUSH2 0x3360 DUP3 PUSH2 0x3951 JUMP JUMPDEST PUSH2 0x3A73 JUMP JUMPDEST DUP3 MSTORE POP POP JUMP JUMPDEST PUSH1 0x0 PUSH2 0x3376 DUP3 PUSH2 0x37F7 JUMP JUMPDEST PUSH2 0x3380 DUP2 DUP6 PUSH2 0x3802 JUMP JUMPDEST SWAP4 POP PUSH2 0x3390 DUP2 DUP6 PUSH1 0x20 DUP7 ADD PUSH2 0x3994 JUMP JUMPDEST PUSH2 0x3399 DUP2 PUSH2 0x3B86 JUMP JUMPDEST DUP5 ADD SWAP2 POP POP SWAP3 SWAP2 POP POP JUMP JUMPDEST PUSH1 0x0 PUSH2 0x33AF DUP3 PUSH2 0x37F7 JUMP JUMPDEST PUSH2 0x33B9 DUP2 DUP6 PUSH2 0x3813 JUMP JUMPDEST SWAP4 POP PUSH2 0x33C9 DUP2 DUP6 PUSH1 0x20 DUP7 ADD PUSH2 0x3994 JUMP JUMPDEST DUP1 DUP5 ADD SWAP2 POP POP SWAP3 SWAP2 POP POP JUMP JUMPDEST PUSH1 0x0 PUSH2 0x33E2 PUSH1 0x19 DUP4 PUSH2 0x3802 JUMP JUMPDEST SWAP2 POP PUSH2 0x33ED DUP3 PUSH2 0x3B97 JUMP JUMPDEST PUSH1 0x20 DUP3 ADD SWAP1 POP SWAP2 SWAP1 POP JUMP JUMPDEST PUSH1 0x0 PUSH2 0x3405 PUSH1 0x9 DUP4 PUSH2 0x3802 JUMP JUMPDEST SWAP2 POP PUSH2 0x3410 DUP3 PUSH2 0x3BC0 JUMP JUMPDEST PUSH1 0x20 DUP3 ADD SWAP1 POP SWAP2 SWAP1 POP JUMP JUMPDEST PUSH1 0x0 PUSH2 0x3428 PUSH1 0xE DUP4 PUSH2 0x3802 JUMP JUMPDEST SWAP2 POP PUSH2 0x3433 DUP3 PUSH2 0x3BE9 JUMP JUMPDEST PUSH1 0x20 DUP3 ADD SWAP1 POP SWAP2 SWAP1 POP JUMP JUMPDEST PUSH1 0x0 PUSH2 0x344B PUSH1 0x17 DUP4 PUSH2 0x3802 JUMP JUMPDEST SWAP2 POP PUSH2 0x3456 DUP3 PUSH2 0x3C12 JUMP JUMPDEST PUSH1 0x20 DUP3 ADD SWAP1 POP SWAP2 SWAP1 POP JUMP JUMPDEST PUSH1 0x0 PUSH2 0x346E PUSH1 0xA DUP4 PUSH2 0x3802 JUMP JUMPDEST SWAP2 POP PUSH2 0x3479 DUP3 PUSH2 0x3C3B JUMP JUMPDEST PUSH1 0x20 DUP3 ADD SWAP1 POP SWAP2 SWAP1 POP JUMP JUMPDEST PUSH1 0x0 PUSH2 0x3491 PUSH1 0x15 DUP4 PUSH2 0x3802 JUMP JUMPDEST SWAP2 POP PUSH2 0x349C DUP3 PUSH2 0x3C64 JUMP JUMPDEST PUSH1 0x20 DUP3 ADD SWAP1 POP SWAP2 SWAP1 POP JUMP JUMPDEST PUSH1 0x0 PUSH2 0x34B4 PUSH1 0x15 DUP4 PUSH2 0x3802 JUMP JUMPDEST SWAP2 POP PUSH2 0x34BF DUP3 PUSH2 0x3C8D JUMP JUMPDEST PUSH1 0x20 DUP3 ADD SWAP1 POP SWAP2 SWAP1 POP JUMP JUMPDEST PUSH1 0x0 PUSH2 0x34D7 PUSH1 0x10 DUP4 PUSH2 0x3802 JUMP JUMPDEST SWAP2 POP PUSH2 0x34E2 DUP3 PUSH2 0x3CB6 JUMP JUMPDEST PUSH1 0x20 DUP3 ADD SWAP1 POP SWAP2 SWAP1 POP JUMP JUMPDEST PUSH1 0x0 PUSH2 0x34FA PUSH1 0x11 DUP4 PUSH2 0x3802 JUMP JUMPDEST SWAP2 POP PUSH2 0x3505 DUP3 PUSH2 0x3CDF JUMP JUMPDEST PUSH1 0x20 DUP3 ADD SWAP1 POP SWAP2 SWAP1 POP JUMP JUMPDEST PUSH2 0x3519 DUP2 PUSH2 0x397B JUMP JUMPDEST DUP3 MSTORE POP POP JUMP JUMPDEST PUSH2 0x3530 PUSH2 0x352B DUP3 PUSH2 0x397B JUMP JUMPDEST PUSH2 0x3A7D JUMP JUMPDEST DUP3 MSTORE POP POP JUMP JUMPDEST PUSH1 0x0 PUSH2 0x3542 DUP3 DUP5 PUSH2 0x3354 JUMP JUMPDEST PUSH1 0x20 DUP3 ADD SWAP2 POP DUP2 SWAP1 POP SWAP3 SWAP2 POP POP JUMP JUMPDEST PUSH1 0x0 PUSH2 0x355D DUP3 DUP5 PUSH2 0x33A4 JUMP JUMPDEST SWAP2 POP DUP2 SWAP1 POP SWAP3 SWAP2 POP POP JUMP JUMPDEST PUSH1 0x0 PUSH2 0x3574 DUP3 DUP5 PUSH2 0x351F JUMP JUMPDEST PUSH1 0x20 DUP3 ADD SWAP2 POP DUP2 SWAP1 POP SWAP3 SWAP2 POP POP JUMP JUMPDEST PUSH1 0x0 PUSH1 0x40 DUP3 ADD SWAP1 POP PUSH2 0x3598 PUSH1 0x0 DUP4 ADD DUP6 PUSH2 0x3327 JUMP JUMPDEST PUSH2 0x35A5 PUSH1 0x20 DUP4 ADD DUP5 PUSH2 0x3510 JUMP JUMPDEST SWAP4 SWAP3 POP POP POP JUMP JUMPDEST PUSH1 0x0 PUSH1 0x20 DUP3 ADD SWAP1 POP PUSH2 0x35C1 PUSH1 0x0 DUP4 ADD DUP5 PUSH2 0x3336 JUMP JUMPDEST SWAP3 SWAP2 POP POP JUMP JUMPDEST PUSH1 0x0 PUSH1 0x20 DUP3 ADD SWAP1 POP PUSH2 0x35DC PUSH1 0x0 DUP4 ADD DUP5 PUSH2 0x3345 JUMP JUMPDEST SWAP3 SWAP2 POP POP JUMP JUMPDEST PUSH1 0x0 PUSH1 0xE0 DUP3 ADD SWAP1 POP DUP2 DUP2 SUB PUSH1 0x0 DUP4 ADD MSTORE PUSH2 0x35FC DUP2 DUP11 PUSH2 0x336B JUMP JUMPDEST SWAP1 POP DUP2 DUP2 SUB PUSH1 0x20 DUP4 ADD MSTORE PUSH2 0x3610 DUP2 DUP10 PUSH2 0x336B JUMP JUMPDEST SWAP1 POP DUP2 DUP2 SUB PUSH1 0x40 DUP4 ADD MSTORE PUSH2 0x3624 DUP2 DUP9 PUSH2 0x336B JUMP JUMPDEST SWAP1 POP PUSH2 0x3633 PUSH1 0x60 DUP4 ADD DUP8 PUSH2 0x3510 JUMP JUMPDEST PUSH2 0x3640 PUSH1 0x80 DUP4 ADD DUP7 PUSH2 0x3510 JUMP JUMPDEST PUSH2 0x364D PUSH1 0xA0 DUP4 ADD DUP6 PUSH2 0x3510 JUMP JUMPDEST PUSH2 0x365A PUSH1 0xC0 DUP4 ADD DUP5 PUSH2 0x3510 JUMP JUMPDEST SWAP9 SWAP8 POP POP POP POP POP POP POP POP JUMP JUMPDEST PUSH1 0x0 PUSH1 0x20 DUP3 ADD SWAP1 POP DUP2 DUP2 SUB PUSH1 0x0 DUP4 ADD MSTORE PUSH2 0x367F DUP2 PUSH2 0x33D5 JUMP JUMPDEST SWAP1 POP SWAP2 SWAP1 POP JUMP JUMPDEST PUSH1 0x0 PUSH1 0x20 DUP3 ADD SWAP1 POP DUP2 DUP2 SUB PUSH1 0x0 DUP4 ADD MSTORE PUSH2 0x369F DUP2 PUSH2 0x33F8 JUMP JUMPDEST SWAP1 POP SWAP2 SWAP1 POP JUMP JUMPDEST PUSH1 0x0 PUSH1 0x20 DUP3 ADD SWAP1 POP DUP2 DUP2 SUB PUSH1 0x0 DUP4 ADD MSTORE PUSH2 0x36BF DUP2 PUSH2 0x341B JUMP JUMPDEST SWAP1 POP SWAP2 SWAP1 POP JUMP JUMPDEST PUSH1 0x0 PUSH1 0x20 DUP3 ADD SWAP1 POP DUP2 DUP2 SUB PUSH1 0x0 DUP4 ADD MSTORE PUSH2 0x36DF DUP2 PUSH2 0x343E JUMP JUMPDEST SWAP1 POP SWAP2 SWAP1 POP JUMP JUMPDEST PUSH1 0x0 PUSH1 0x20 DUP3 ADD SWAP1 POP DUP2 DUP2 SUB PUSH1 0x0 DUP4 ADD MSTORE PUSH2 0x36FF DUP2 PUSH2 0x3461 JUMP JUMPDEST SWAP1 POP SWAP2 SWAP1 POP JUMP JUMPDEST PUSH1 0x0 PUSH1 0x20 DUP3 ADD SWAP1 POP DUP2 DUP2 SUB PUSH1 0x0 DUP4 ADD MSTORE PUSH2 0x371F DUP2 PUSH2 0x3484 JUMP JUMPDEST SWAP1 POP SWAP2 SWAP1 POP JUMP JUMPDEST PUSH1 0x0 PUSH1 0x20 DUP3 ADD SWAP1 POP DUP2 DUP2 SUB PUSH1 0x0 DUP4 ADD MSTORE PUSH2 0x373F DUP2 PUSH2 0x34A7 JUMP JUMPDEST SWAP1 POP SWAP2 SWAP1 POP JUMP JUMPDEST PUSH1 0x0 PUSH1 0x20 DUP3 ADD SWAP1 POP DUP2 DUP2 SUB PUSH1 0x0 DUP4 ADD MSTORE PUSH2 0x375F DUP2 PUSH2 0x34CA JUMP JUMPDEST SWAP1 POP SWAP2 SWAP1 POP JUMP JUMPDEST PUSH1 0x0 PUSH1 0x20 DUP3 ADD SWAP1 POP DUP2 DUP2 SUB PUSH1 0x0 DUP4 ADD MSTORE PUSH2 0x377F DUP2 PUSH2 0x34ED JUMP JUMPDEST SWAP1 POP SWAP2 SWAP1 POP JUMP JUMPDEST PUSH1 0x0 PUSH1 0x20 DUP3 ADD SWAP1 POP PUSH2 0x379B PUSH1 0x0 DUP4 ADD DUP5 PUSH2 0x3510 JUMP JUMPDEST SWAP3 SWAP2 POP POP JUMP JUMPDEST PUSH1 0x0 PUSH2 0x37AB PUSH2 0x37BC JUMP JUMPDEST SWAP1 POP PUSH2 0x37B7 DUP3 DUP3 PUSH2 0x39F9 JUMP JUMPDEST SWAP2 SWAP1 POP JUMP JUMPDEST PUSH1 0x0 PUSH1 0x40 MLOAD SWAP1 POP SWAP1 JUMP JUMPDEST PUSH1 0x0 PUSH8 0xFFFFFFFFFFFFFFFF DUP3 GT ISZERO PUSH2 0x37E1 JUMPI PUSH2 0x37E0 PUSH2 0x3B43 JUMP JUMPDEST JUMPDEST PUSH2 0x37EA DUP3 PUSH2 0x3B86 JUMP JUMPDEST SWAP1 POP PUSH1 0x20 DUP2 ADD SWAP1 POP SWAP2 SWAP1 POP JUMP JUMPDEST PUSH1 0x0 DUP2 MLOAD SWAP1 POP SWAP2 SWAP1 POP JUMP JUMPDEST PUSH1 0x0 DUP3 DUP3 MSTORE PUSH1 0x20 DUP3 ADD SWAP1 POP SWAP3 SWAP2 POP POP JUMP JUMPDEST PUSH1 0x0 DUP2 SWAP1 POP SWAP3 SWAP2 POP POP JUMP JUMPDEST PUSH1 0x0 PUSH2 0x3829 DUP3 PUSH2 0x397B JUMP JUMPDEST SWAP2 POP PUSH2 0x3834 DUP4 PUSH2 0x397B JUMP JUMPDEST SWAP3 POP DUP3 PUSH32 0xFFFFFFFFFFFFFFFFFFFFFFFFFFFFFFFFFFFFFFFFFFFFFFFFFFFFFFFFFFFFFFFF SUB DUP3 GT ISZERO PUSH2 0x3869 JUMPI PUSH2 0x3868 PUSH2 0x3A87 JUMP JUMPDEST JUMPDEST DUP3 DUP3 ADD SWAP1 POP SWAP3 SWAP2 POP POP JUMP JUMPDEST PUSH1 0x0 PUSH2 0x387F DUP3 PUSH2 0x397B JUMP JUMPDEST SWAP2 POP PUSH2 0x388A DUP4 PUSH2 0x397B JUMP JUMPDEST SWAP3 POP DUP3 PUSH2 0x389A JUMPI PUSH2 0x3899 PUSH2 0x3AB6 JUMP JUMPDEST JUMPDEST DUP3 DUP3 DIV SWAP1 POP SWAP3 SWAP2 POP POP JUMP JUMPDEST PUSH1 0x0 PUSH2 0x38B0 DUP3 PUSH2 0x397B JUMP JUMPDEST SWAP2 POP PUSH2 0x38BB DUP4 PUSH2 0x397B JUMP JUMPDEST SWAP3 POP DUP2 PUSH32 0xFFFFFFFFFFFFFFFFFFFFFFFFFFFFFFFFFFFFFFFFFFFFFFFFFFFFFFFFFFFFFFFF DIV DUP4 GT DUP3 ISZERO ISZERO AND ISZERO PUSH2 0x38F4 JUMPI PUSH2 0x38F3 PUSH2 0x3A87 JUMP JUMPDEST JUMPDEST DUP3 DUP3 MUL SWAP1 POP SWAP3 SWAP2 POP POP JUMP JUMPDEST PUSH1 0x0 PUSH2 0x390A DUP3 PUSH2 0x397B JUMP JUMPDEST SWAP2 POP PUSH2 0x3915 DUP4 PUSH2 0x397B JUMP JUMPDEST SWAP3 POP DUP3 DUP3 LT ISZERO PUSH2 0x3928 JUMPI PUSH2 0x3927 PUSH2 0x3A87 JUMP JUMPDEST JUMPDEST DUP3 DUP3 SUB SWAP1 POP SWAP3 SWAP2 POP POP JUMP JUMPDEST PUSH1 0x0 PUSH2 0x393E DUP3 PUSH2 0x395B JUMP JUMPDEST SWAP1 POP SWAP2 SWAP1 POP JUMP JUMPDEST PUSH1 0x0 DUP2 ISZERO ISZERO SWAP1 POP SWAP2 SWAP1 POP JUMP JUMPDEST PUSH1 0x0 DUP2 SWAP1 POP SWAP2 SWAP1 POP JUMP JUMPDEST PUSH1 0x0 PUSH20 0xFFFFFFFFFFFFFFFFFFFFFFFFFFFFFFFFFFFFFFFF DUP3 AND SWAP1 POP SWAP2 SWAP1 POP JUMP JUMPDEST PUSH1 0x0 DUP2 SWAP1 POP SWAP2 SWAP1 POP JUMP JUMPDEST DUP3 DUP2 DUP4 CALLDATACOPY PUSH1 0x0 DUP4 DUP4 ADD MSTORE POP POP POP JUMP JUMPDEST PUSH1 0x0 JUMPDEST DUP4 DUP2 LT ISZERO PUSH2 0x39B2 JUMPI DUP1 DUP3 ADD MLOAD DUP2 DUP5 ADD MSTORE PUSH1 0x20 DUP2 ADD SWAP1 POP PUSH2 0x3997 JUMP JUMPDEST DUP4 DUP2 GT ISZERO PUSH2 0x39C1 JUMPI PUSH1 0x0 DUP5 DUP5 ADD MSTORE JUMPDEST POP POP POP POP JUMP JUMPDEST PUSH1 0x0 PUSH1 0x2 DUP3 DIV SWAP1 POP PUSH1 0x1 DUP3 AND DUP1 PUSH2 0x39DF JUMPI PUSH1 0x7F DUP3 AND SWAP2 POP JUMPDEST PUSH1 0x20 DUP3 LT DUP2 EQ ISZERO PUSH2 0x39F3 JUMPI PUSH2 0x39F2 PUSH2 0x3AE5 JUMP JUMPDEST JUMPDEST POP SWAP2 SWAP1 POP JUMP JUMPDEST PUSH2 0x3A02 DUP3 PUSH2 0x3B86 JUMP JUMPDEST DUP2 ADD DUP2 DUP2 LT PUSH8 0xFFFFFFFFFFFFFFFF DUP3 GT OR ISZERO PUSH2 0x3A21 JUMPI PUSH2 0x3A20 PUSH2 0x3B43 JUMP JUMPDEST JUMPDEST DUP1 PUSH1 0x40 MSTORE POP POP POP JUMP JUMPDEST PUSH1 0x0 PUSH2 0x3A35 DUP3 PUSH2 0x397B JUMP JUMPDEST SWAP2 POP PUSH32 0xFFFFFFFFFFFFFFFFFFFFFFFFFFFFFFFFFFFFFFFFFFFFFFFFFFFFFFFFFFFFFFFF DUP3 EQ ISZERO PUSH2 0x3A68 JUMPI PUSH2 0x3A67 PUSH2 0x3A87 JUMP JUMPDEST JUMPDEST PUSH1 0x1 DUP3 ADD SWAP1 POP SWAP2 SWAP1 POP JUMP JUMPDEST PUSH1 0x0 DUP2 SWAP1 POP SWAP2 SWAP1 POP JUMP JUMPDEST PUSH1 0x0 DUP2 SWAP1 POP SWAP2 SWAP1 POP JUMP JUMPDEST PUSH32 0x4E487B7100000000000000000000000000000000000000000000000000000000 PUSH1 0x0 MSTORE PUSH1 0x11 PUSH1 0x4 MSTORE PUSH1 0x24 PUSH1 0x0 REVERT JUMPDEST PUSH32 0x4E487B7100000000000000000000000000000000000000000000000000000000 PUSH1 0x0 MSTORE PUSH1 0x12 PUSH1 0x4 MSTORE PUSH1 0x24 PUSH1 0x0 REVERT JUMPDEST PUSH32 0x4E487B7100000000000000000000000000000000000000000000000000000000 PUSH1 0x0 MSTORE PUSH1 0x22 PUSH1 0x4 MSTORE PUSH1 0x24 PUSH1 0x0 REVERT JUMPDEST PUSH32 0x4E487B7100000000000000000000000000000000000000000000000000000000 PUSH1 0x0 MSTORE PUSH1 0x32 PUSH1 0x4 MSTORE PUSH1 0x24 PUSH1 0x0 REVERT JUMPDEST PUSH32 0x4E487B7100000000000000000000000000000000000000000000000000000000 PUSH1 0x0 MSTORE PUSH1 0x41 PUSH1 0x4 MSTORE PUSH1 0x24 PUSH1 0x0 REVERT JUMPDEST PUSH1 0x0 DUP1 REVERT JUMPDEST PUSH1 0x0 DUP1 REVERT JUMPDEST PUSH1 0x0 DUP1 REVERT JUMPDEST PUSH1 0x0 DUP1 REVERT JUMPDEST PUSH1 0x0 PUSH1 0x1F NOT PUSH1 0x1F DUP4 ADD AND SWAP1 POP SWAP2 SWAP1 POP JUMP JUMPDEST PUSH32 0x4F6E6C79206F776E65722063616E2063616C6C20746869732E00000000000000 PUSH1 0x0 DUP3 ADD MSTORE POP JUMP JUMPDEST PUSH32 0x6E6F742065786973740000000000000000000000000000000000000000000000 PUSH1 0x0 DUP3 ADD MSTORE POP JUMP JUMPDEST PUSH32 0x706F6F6C206E6F74206578697374000000000000000000000000000000000000 PUSH1 0x0 DUP3 ADD MSTORE POP JUMP JUMPDEST PUSH32 0x706F6F6C20626173616C20686173206265656E20736574000000000000000000 PUSH1 0x0 DUP3 ADD MSTORE POP JUMP JUMPDEST PUSH32 0x7061697220657869737400000000000000000000000000000000000000000000 PUSH1 0x0 DUP3 ADD MSTORE POP JUMP JUMPDEST PUSH32 0x706F6F6C20686173206E6F742066696E69736865640000000000000000000000 PUSH1 0x0 DUP3 ADD MSTORE POP JUMP JUMPDEST PUSH32 0x6E6F7420656E6F75676820766F7465416D6F756E740000000000000000000000 PUSH1 0x0 DUP3 ADD MSTORE POP JUMP JUMPDEST PUSH32 0x6E6F7420656E6F75676820626173616C00000000000000000000000000000000 PUSH1 0x0 DUP3 ADD MSTORE POP JUMP JUMPDEST PUSH32 0x706F6F6C206861732066696E6973686564000000000000000000000000000000 PUSH1 0x0 DUP3 ADD MSTORE POP JUMP JUMPDEST PUSH2 0x3D11 DUP2 PUSH2 0x3933 JUMP JUMPDEST DUP2 EQ PUSH2 0x3D1C JUMPI PUSH1 0x0 DUP1 REVERT JUMPDEST POP JUMP JUMPDEST PUSH2 0x3D28 DUP2 PUSH2 0x3945 JUMP JUMPDEST DUP2 EQ PUSH2 0x3D33 JUMPI PUSH1 0x0 DUP1 REVERT JUMPDEST POP JUMP JUMPDEST PUSH2 0x3D3F DUP2 PUSH2 0x3951 JUMP JUMPDEST DUP2 EQ PUSH2 0x3D4A JUMPI PUSH1 0x0 DUP1 REVERT JUMPDEST POP JUMP JUMPDEST PUSH2 0x3D56 DUP2 PUSH2 0x397B JUMP JUMPDEST DUP2 EQ PUSH2 0x3D61 JUMPI PUSH1 0x0 DUP1 REVERT JUMPDEST POP JUMP INVALID LOG2 PUSH5 0x6970667358 0x22 SLT KECCAK256 0xA7 CALLDATASIZE ADD 0xA9 SAR 0x25 0xE 0xA6 0xE7 0xF6 0xD6 SLOAD CALL 0xB7 MUL 0xB7 0x28 PUSH22 0x5A94B07B544DB45BCFBC885F0BA664736F6C63430008 SMOD STOP CALLER "
				},
				"gasEstimates": {
					"creation": {
						"codeDepositCost": "3154000",
						"executionCost": "infinite",
						"totalCost": "infinite"
					},
					"external": {
						"Award(bytes32,uint256,uint256,uint256)": "infinite",
						"CheckBasal()": "4674",
						"CheckExpect(bytes32)": "infinite",
						"Picking(address,uint256,bytes32,uint256,uint256,uint256)": "infinite",
						"Set_Basal(bytes32,uint256)": "infinite",
						"Set_Pool(string,string,string,bool)": "infinite",
						"Withdrawal(address,bytes32)": "infinite",
						"getPair(bytes32)": "infinite",
						"voteWithdrawal(address,uint256)": "infinite"
					},
					"internal": {
						"addressToString(address)": "infinite",
						"bytes32ToString(bytes32)": "infinite",
						"contains(bytes32)": "2304",
						"strConcat(string memory,string memory)": "infinite",
						"stringCompare(string memory,string memory)": "infinite",
						"toString(bytes memory)": "infinite",
						"uint256ToString(uint256)": "infinite"
					}
				},
				"methodIdentifiers": {
					"Award(bytes32,uint256,uint256,uint256)": "74fe9bc2",
					"CheckBasal()": "3e6ff1a2",
					"CheckExpect(bytes32)": "4121855f",
					"Picking(address,uint256,bytes32,uint256,uint256,uint256)": "47e4dd27",
					"Set_Basal(bytes32,uint256)": "2bf21ecc",
					"Set_Pool(string,string,string,bool)": "357965ba",
					"Withdrawal(address,bytes32)": "0ce49053",
					"getPair(bytes32)": "b8e5303d",
					"voteWithdrawal(address,uint256)": "9bd0abf1"
				}
			},
			"storageLayout": {
				"storage": [
					{
						"astId": 187,
						"contract": "wwcc-contracts/contracts/wwccPool.sol:WCPOOL",
						"label": "owner",
						"offset": 0,
						"slot": "0",
						"type": "t_address"
					},
					{
						"astId": 191,
						"contract": "wwcc-contracts/contracts/wwccPool.sol:WCPOOL",
						"label": "scorePools",
						"offset": 0,
						"slot": "1",
						"type": "t_mapping(t_string_memory_ptr,t_uint256)"
					},
					{
						"astId": 196,
						"contract": "wwcc-contracts/contracts/wwccPool.sol:WCPOOL",
						"label": "allScorePoolInfo",
						"offset": 0,
						"slot": "2",
						"type": "t_mapping(t_bytes32,t_struct(AllScorePool)160_storage)"
					},
					{
						"astId": 200,
						"contract": "wwcc-contracts/contracts/wwccPool.sol:WCPOOL",
						"label": "singleScorePool",
						"offset": 0,
						"slot": "3",
						"type": "t_mapping(t_string_memory_ptr,t_uint256)"
					},
					{
						"astId": 205,
						"contract": "wwcc-contracts/contracts/wwccPool.sol:WCPOOL",
						"label": "joinerAllPicking",
						"offset": 0,
						"slot": "4",
						"type": "t_mapping(t_address,t_struct(JoinerAllPicking)167_storage)"
					},
					{
						"astId": 209,
						"contract": "wwcc-contracts/contracts/wwccPool.sol:WCPOOL",
						"label": "voteAmount",
						"offset": 0,
						"slot": "5",
						"type": "t_mapping(t_address,t_uint256)"
					},
					{
						"astId": 214,
						"contract": "wwcc-contracts/contracts/wwccPool.sol:WCPOOL",
						"label": "WcPools",
						"offset": 0,
						"slot": "6",
						"type": "t_mapping(t_bytes32,t_struct(WcPool)153_storage)"
					},
					{
						"astId": 216,
						"contract": "wwcc-contracts/contracts/wwccPool.sol:WCPOOL",
						"label": "nextBasalLast",
						"offset": 0,
						"slot": "7",
						"type": "t_uint256"
					}
				],
				"types": {
					"t_address": {
						"encoding": "inplace",
						"label": "address",
						"numberOfBytes": "20"
					},
					"t_array(t_struct(JoinerPicking)182_storage)dyn_storage": {
						"base": "t_struct(JoinerPicking)182_storage",
						"encoding": "dynamic_array",
						"label": "struct WCPOOL.JoinerPicking[]",
						"numberOfBytes": "32"
					},
					"t_bool": {
						"encoding": "inplace",
						"label": "bool",
						"numberOfBytes": "1"
					},
					"t_bytes32": {
						"encoding": "inplace",
						"label": "bytes32",
						"numberOfBytes": "32"
					},
					"t_mapping(t_address,t_struct(JoinerAllPicking)167_storage)": {
						"encoding": "mapping",
						"key": "t_address",
						"label": "mapping(address => struct WCPOOL.JoinerAllPicking)",
						"numberOfBytes": "32",
						"value": "t_struct(JoinerAllPicking)167_storage"
					},
					"t_mapping(t_address,t_uint256)": {
						"encoding": "mapping",
						"key": "t_address",
						"label": "mapping(address => uint256)",
						"numberOfBytes": "32",
						"value": "t_uint256"
					},
					"t_mapping(t_bytes32,t_struct(AllScorePool)160_storage)": {
						"encoding": "mapping",
						"key": "t_bytes32",
						"label": "mapping(bytes32 => struct WCPOOL.AllScorePool)",
						"numberOfBytes": "32",
						"value": "t_struct(AllScorePool)160_storage"
					},
					"t_mapping(t_bytes32,t_struct(WcPool)153_storage)": {
						"encoding": "mapping",
						"key": "t_bytes32",
						"label": "mapping(bytes32 => struct WCPOOL.WcPool)",
						"numberOfBytes": "32",
						"value": "t_struct(WcPool)153_storage"
					},
					"t_mapping(t_string_memory_ptr,t_uint256)": {
						"encoding": "mapping",
						"key": "t_string_memory_ptr",
						"label": "mapping(string => uint256)",
						"numberOfBytes": "32",
						"value": "t_uint256"
					},
					"t_string_memory_ptr": {
						"encoding": "bytes",
						"label": "string",
						"numberOfBytes": "32"
					},
					"t_string_storage": {
						"encoding": "bytes",
						"label": "string",
						"numberOfBytes": "32"
					},
					"t_struct(AllScorePool)160_storage": {
						"encoding": "inplace",
						"label": "struct WCPOOL.AllScorePool",
						"members": [
							{
								"astId": 157,
								"contract": "wwcc-contracts/contracts/wwccPool.sol:WCPOOL",
								"label": "separateBet",
								"offset": 0,
								"slot": "0",
								"type": "t_array(t_struct(JoinerPicking)182_storage)dyn_storage"
							},
							{
								"astId": 159,
								"contract": "wwcc-contracts/contracts/wwccPool.sol:WCPOOL",
								"label": "poolKey",
								"offset": 0,
								"slot": "1",
								"type": "t_bytes32"
							}
						],
						"numberOfBytes": "64"
					},
					"t_struct(JoinerAllPicking)167_storage": {
						"encoding": "inplace",
						"label": "struct WCPOOL.JoinerAllPicking",
						"members": [
							{
								"astId": 164,
								"contract": "wwcc-contracts/contracts/wwccPool.sol:WCPOOL",
								"label": "separateBet",
								"offset": 0,
								"slot": "0",
								"type": "t_array(t_struct(JoinerPicking)182_storage)dyn_storage"
							},
							{
								"astId": 166,
								"contract": "wwcc-contracts/contracts/wwccPool.sol:WCPOOL",
								"label": "joiner",
								"offset": 0,
								"slot": "1",
								"type": "t_address"
							}
						],
						"numberOfBytes": "64"
					},
					"t_struct(JoinerPicking)182_storage": {
						"encoding": "inplace",
						"label": "struct WCPOOL.JoinerPicking",
						"members": [
							{
								"astId": 169,
								"contract": "wwcc-contracts/contracts/wwccPool.sol:WCPOOL",
								"label": "weight",
								"offset": 0,
								"slot": "0",
								"type": "t_uint256"
							},
							{
								"astId": 171,
								"contract": "wwcc-contracts/contracts/wwccPool.sol:WCPOOL",
								"label": "kind",
								"offset": 0,
								"slot": "1",
								"type": "t_uint256"
							},
							{
								"astId": 173,
								"contract": "wwcc-contracts/contracts/wwccPool.sol:WCPOOL",
								"label": "homeScore",
								"offset": 0,
								"slot": "2",
								"type": "t_uint256"
							},
							{
								"astId": 175,
								"contract": "wwcc-contracts/contracts/wwccPool.sol:WCPOOL",
								"label": "visitScore",
								"offset": 0,
								"slot": "3",
								"type": "t_uint256"
							},
							{
								"astId": 177,
								"contract": "wwcc-contracts/contracts/wwccPool.sol:WCPOOL",
								"label": "joiner",
								"offset": 0,
								"slot": "4",
								"type": "t_address"
							},
							{
								"astId": 179,
								"contract": "wwcc-contracts/contracts/wwccPool.sol:WCPOOL",
								"label": "pickingKey",
								"offset": 0,
								"slot": "5",
								"type": "t_string_storage"
							},
							{
								"astId": 181,
								"contract": "wwcc-contracts/contracts/wwccPool.sol:WCPOOL",
								"label": "finished",
								"offset": 0,
								"slot": "6",
								"type": "t_bool"
							}
						],
						"numberOfBytes": "224"
					},
					"t_struct(WcPool)153_storage": {
						"encoding": "inplace",
						"label": "struct WCPOOL.WcPool",
						"members": [
							{
								"astId": 132,
								"contract": "wwcc-contracts/contracts/wwccPool.sol:WCPOOL",
								"label": "home",
								"offset": 0,
								"slot": "0",
								"type": "t_string_storage"
							},
							{
								"astId": 134,
								"contract": "wwcc-contracts/contracts/wwccPool.sol:WCPOOL",
								"label": "visit",
								"offset": 0,
								"slot": "1",
								"type": "t_string_storage"
							},
							{
								"astId": 136,
								"contract": "wwcc-contracts/contracts/wwccPool.sol:WCPOOL",
								"label": "rounds",
								"offset": 0,
								"slot": "2",
								"type": "t_string_storage"
							},
							{
								"astId": 138,
								"contract": "wwcc-contracts/contracts/wwccPool.sol:WCPOOL",
								"label": "wPool",
								"offset": 0,
								"slot": "3",
								"type": "t_uint256"
							},
							{
								"astId": 140,
								"contract": "wwcc-contracts/contracts/wwccPool.sol:WCPOOL",
								"label": "dPool",
								"offset": 0,
								"slot": "4",
								"type": "t_uint256"
							},
							{
								"astId": 142,
								"contract": "wwcc-contracts/contracts/wwccPool.sol:WCPOOL",
								"label": "lPool",
								"offset": 0,
								"slot": "5",
								"type": "t_uint256"
							},
							{
								"astId": 144,
								"contract": "wwcc-contracts/contracts/wwccPool.sol:WCPOOL",
								"label": "sPool",
								"offset": 0,
								"slot": "6",
								"type": "t_uint256"
							},
							{
								"astId": 146,
								"contract": "wwcc-contracts/contracts/wwccPool.sol:WCPOOL",
								"label": "basal",
								"offset": 0,
								"slot": "7",
								"type": "t_uint256"
							},
							{
								"astId": 148,
								"contract": "wwcc-contracts/contracts/wwccPool.sol:WCPOOL",
								"label": "decided",
								"offset": 0,
								"slot": "8",
								"type": "t_bool"
							},
							{
								"astId": 150,
								"contract": "wwcc-contracts/contracts/wwccPool.sol:WCPOOL",
								"label": "used",
								"offset": 1,
								"slot": "8",
								"type": "t_bool"
							},
							{
								"astId": 152,
								"contract": "wwcc-contracts/contracts/wwccPool.sol:WCPOOL",
								"label": "finished",
								"offset": 2,
								"slot": "8",
								"type": "t_bool"
							}
						],
						"numberOfBytes": "288"
					},
					"t_uint256": {
						"encoding": "inplace",
						"label": "uint256",
						"numberOfBytes": "32"
					}
				}
			},
			"userdoc": {
				"kind": "user",
				"methods": {},
				"version": 1
			}
		}
	}
}