{
	"wwcc-contracts/contracts/wwccPool.sol": {
		"WCPOOL": {
			"abi": [
				{
					"inputs": [
						{
							"internalType": "address",
							"name": "holder",
							"type": "address"
						},
						{
							"internalType": "uint256",
							"name": "firstBasal",
							"type": "uint256"
						}
					],
					"stateMutability": "nonpayable",
					"type": "constructor"
				},
				{
					"anonymous": false,
					"inputs": [
						{
							"indexed": false,
							"internalType": "address",
							"name": "",
							"type": "address"
						},
						{
							"indexed": false,
							"internalType": "uint256",
							"name": "",
							"type": "uint256"
						}
					],
					"name": "Received",
					"type": "event"
				},
				{
					"inputs": [
						{
							"internalType": "bytes32",
							"name": "poolKey",
							"type": "bytes32"
						},
						{
							"internalType": "uint256",
							"name": "homeScore",
							"type": "uint256"
						},
						{
							"internalType": "uint256",
							"name": "visitScore",
							"type": "uint256"
						},
						{
							"internalType": "uint256",
							"name": "result",
							"type": "uint256"
						}
					],
					"name": "Award",
					"outputs": [
						{
							"internalType": "bool",
							"name": "",
							"type": "bool"
						}
					],
					"stateMutability": "payable",
					"type": "function"
				},
				{
					"inputs": [],
					"name": "CheckBasal",
					"outputs": [
						{
							"internalType": "uint256",
							"name": "",
							"type": "uint256"
						}
					],
					"stateMutability": "view",
					"type": "function"
				},
				{
					"inputs": [
						{
							"internalType": "bytes32",
							"name": "poolKey",
							"type": "bytes32"
						}
					],
					"name": "CheckExpect",
					"outputs": [
						{
							"internalType": "uint256",
							"name": "",
							"type": "uint256"
						}
					],
					"stateMutability": "view",
					"type": "function"
				},
				{
					"inputs": [],
					"name": "CheckVoteTickets",
					"outputs": [
						{
							"internalType": "uint256",
							"name": "",
							"type": "uint256"
						}
					],
					"stateMutability": "view",
					"type": "function"
				},
				{
					"inputs": [
						{
							"internalType": "address",
							"name": "joiner",
							"type": "address"
						},
						{
							"internalType": "uint256",
							"name": "weight",
							"type": "uint256"
						},
						{
							"internalType": "bytes32",
							"name": "poolKey",
							"type": "bytes32"
						},
						{
							"internalType": "uint256",
							"name": "homeScore",
							"type": "uint256"
						},
						{
							"internalType": "uint256",
							"name": "visitScore",
							"type": "uint256"
						},
						{
							"internalType": "uint256",
							"name": "kind",
							"type": "uint256"
						}
					],
					"name": "Picking",
					"outputs": [
						{
							"internalType": "bool",
							"name": "",
							"type": "bool"
						}
					],
					"stateMutability": "nonpayable",
					"type": "function"
				},
				{
					"inputs": [
						{
							"internalType": "bytes32",
							"name": "poolKey",
							"type": "bytes32"
						},
						{
							"internalType": "uint256",
							"name": "basal",
							"type": "uint256"
						}
					],
					"name": "Set_Basal",
					"outputs": [
						{
							"internalType": "bool",
							"name": "",
							"type": "bool"
						}
					],
					"stateMutability": "nonpayable",
					"type": "function"
				},
				{
					"inputs": [
						{
							"internalType": "string",
							"name": "home",
							"type": "string"
						},
						{
							"internalType": "string",
							"name": "visit",
							"type": "string"
						},
						{
							"internalType": "string",
							"name": "rounds",
							"type": "string"
						},
						{
							"internalType": "bool",
							"name": "decided",
							"type": "bool"
						}
					],
					"name": "Set_Pool",
					"outputs": [
						{
							"internalType": "bytes32",
							"name": "",
							"type": "bytes32"
						}
					],
					"stateMutability": "nonpayable",
					"type": "function"
				},
				{
					"inputs": [
						{
							"internalType": "address",
							"name": "toAddress",
							"type": "address"
						},
						{
							"internalType": "bytes32",
							"name": "poolKey",
							"type": "bytes32"
						}
					],
					"name": "Withdrawal",
					"outputs": [
						{
							"internalType": "bool",
							"name": "",
							"type": "bool"
						}
					],
					"stateMutability": "payable",
					"type": "function"
				},
				{
					"inputs": [
						{
							"internalType": "bytes32",
							"name": "poolKey",
							"type": "bytes32"
						}
					],
					"name": "getPool",
					"outputs": [
						{
							"internalType": "string",
							"name": "vs",
							"type": "string"
						},
						{
							"internalType": "string",
							"name": "rounds",
							"type": "string"
						},
						{
							"components": [
								{
									"internalType": "uint256",
									"name": "wPool",
									"type": "uint256"
								},
								{
									"internalType": "uint256",
									"name": "dPool",
									"type": "uint256"
								},
								{
									"internalType": "uint256",
									"name": "lPool",
									"type": "uint256"
								},
								{
									"internalType": "uint256",
									"name": "sPool",
									"type": "uint256"
								},
								{
									"internalType": "uint256",
									"name": "basal",
									"type": "uint256"
								}
							],
							"internalType": "struct WCPOOL.PoolViewInfo",
							"name": "viewInfo",
							"type": "tuple"
						}
					],
					"stateMutability": "view",
					"type": "function"
				},
				{
					"inputs": [
						{
							"internalType": "address",
							"name": "joiner",
							"type": "address"
						},
						{
							"internalType": "uint256",
							"name": "amount",
							"type": "uint256"
						}
					],
					"name": "voteWithdrawal",
					"outputs": [
						{
							"internalType": "bool",
							"name": "",
							"type": "bool"
						}
					],
					"stateMutability": "payable",
					"type": "function"
				},
				{
					"stateMutability": "payable",
					"type": "receive"
				}
			],
			"devdoc": {
				"kind": "dev",
				"methods": {},
				"version": 1
			},
			"evm": {
				"assembly": "    /* \"wwcc-contracts/contracts/wwccPool.sol\":96:13293  contract WCPOOL {... */\n  mstore(0x40, 0x80)\n    /* \"wwcc-contracts/contracts/wwccPool.sol\":1726:1926  constructor(... */\n  callvalue\n  dup1\n  iszero\n  tag_1\n  jumpi\n  0x00\n  dup1\n  revert\ntag_1:\n  pop\n  mload(0x40)\n  sub(codesize, bytecodeSize)\n  dup1\n  bytecodeSize\n  dup4\n  codecopy\n  dup2\n  dup2\n  add\n  0x40\n  mstore\n  dup2\n  add\n  swap1\n  tag_2\n  swap2\n  swap1\n  tag_3\n  jump\t// in\ntag_2:\n    /* \"wwcc-contracts/contracts/wwccPool.sol\":1807:1813  holder */\n  dup2\n    /* \"wwcc-contracts/contracts/wwccPool.sol\":1799:1804  owner */\n  0x00\n  dup1\n    /* \"wwcc-contracts/contracts/wwccPool.sol\":1799:1813  owner = holder */\n  0x0100\n  exp\n  dup2\n  sload\n  dup2\n  0xffffffffffffffffffffffffffffffffffffffff\n  mul\n  not\n  and\n  swap1\n  dup4\n  0xffffffffffffffffffffffffffffffffffffffff\n  and\n  mul\n  or\n  swap1\n  sstore\n  pop\n    /* \"wwcc-contracts/contracts/wwccPool.sol\":1839:1849  firstBasal */\n  dup1\n    /* \"wwcc-contracts/contracts/wwccPool.sol\":1823:1836  nextBasalLast */\n  0x01\n    /* \"wwcc-contracts/contracts/wwccPool.sol\":1823:1849  nextBasalLast = firstBasal */\n  dup2\n  swap1\n  sstore\n  pop\n    /* \"wwcc-contracts/contracts/wwccPool.sol\":1726:1926  constructor(... */\n  pop\n  pop\n    /* \"wwcc-contracts/contracts/wwccPool.sol\":96:13293  contract WCPOOL {... */\n  jump(tag_6)\n    /* \"#utility.yul\":7:150   */\ntag_8:\n    /* \"#utility.yul\":64:69   */\n  0x00\n    /* \"#utility.yul\":95:101   */\n  dup2\n    /* \"#utility.yul\":89:102   */\n  mload\n    /* \"#utility.yul\":80:102   */\n  swap1\n  pop\n    /* \"#utility.yul\":111:144   */\n  tag_10\n    /* \"#utility.yul\":138:143   */\n  dup2\n    /* \"#utility.yul\":111:144   */\n  tag_11\n  jump\t// in\ntag_10:\n    /* \"#utility.yul\":7:150   */\n  swap3\n  swap2\n  pop\n  pop\n  jump\t// out\n    /* \"#utility.yul\":156:299   */\ntag_12:\n    /* \"#utility.yul\":213:218   */\n  0x00\n    /* \"#utility.yul\":244:250   */\n  dup2\n    /* \"#utility.yul\":238:251   */\n  mload\n    /* \"#utility.yul\":229:251   */\n  swap1\n  pop\n    /* \"#utility.yul\":260:293   */\n  tag_14\n    /* \"#utility.yul\":287:292   */\n  dup2\n    /* \"#utility.yul\":260:293   */\n  tag_15\n  jump\t// in\ntag_14:\n    /* \"#utility.yul\":156:299   */\n  swap3\n  swap2\n  pop\n  pop\n  jump\t// out\n    /* \"#utility.yul\":305:812   */\ntag_3:\n    /* \"#utility.yul\":384:390   */\n  0x00\n    /* \"#utility.yul\":392:398   */\n  dup1\n    /* \"#utility.yul\":441:443   */\n  0x40\n    /* \"#utility.yul\":429:438   */\n  dup4\n    /* \"#utility.yul\":420:427   */\n  dup6\n    /* \"#utility.yul\":416:439   */\n  sub\n    /* \"#utility.yul\":412:444   */\n  slt\n    /* \"#utility.yul\":409:528   */\n  iszero\n  tag_17\n  jumpi\n    /* \"#utility.yul\":447:526   */\n  tag_18\n  tag_19\n  jump\t// in\ntag_18:\n    /* \"#utility.yul\":409:528   */\ntag_17:\n    /* \"#utility.yul\":567:568   */\n  0x00\n    /* \"#utility.yul\":592:656   */\n  tag_20\n    /* \"#utility.yul\":648:655   */\n  dup6\n    /* \"#utility.yul\":639:645   */\n  dup3\n    /* \"#utility.yul\":628:637   */\n  dup7\n    /* \"#utility.yul\":624:646   */\n  add\n    /* \"#utility.yul\":592:656   */\n  tag_8\n  jump\t// in\ntag_20:\n    /* \"#utility.yul\":582:656   */\n  swap3\n  pop\n    /* \"#utility.yul\":538:666   */\n  pop\n    /* \"#utility.yul\":705:707   */\n  0x20\n    /* \"#utility.yul\":731:795   */\n  tag_21\n    /* \"#utility.yul\":787:794   */\n  dup6\n    /* \"#utility.yul\":778:784   */\n  dup3\n    /* \"#utility.yul\":767:776   */\n  dup7\n    /* \"#utility.yul\":763:785   */\n  add\n    /* \"#utility.yul\":731:795   */\n  tag_12\n  jump\t// in\ntag_21:\n    /* \"#utility.yul\":721:795   */\n  swap2\n  pop\n    /* \"#utility.yul\":676:805   */\n  pop\n    /* \"#utility.yul\":305:812   */\n  swap3\n  pop\n  swap3\n  swap1\n  pop\n  jump\t// out\n    /* \"#utility.yul\":899:995   */\ntag_24:\n    /* \"#utility.yul\":936:943   */\n  0x00\n    /* \"#utility.yul\":965:989   */\n  tag_26\n    /* \"#utility.yul\":983:988   */\n  dup3\n    /* \"#utility.yul\":965:989   */\n  tag_27\n  jump\t// in\ntag_26:\n    /* \"#utility.yul\":954:989   */\n  swap1\n  pop\n    /* \"#utility.yul\":899:995   */\n  swap2\n  swap1\n  pop\n  jump\t// out\n    /* \"#utility.yul\":1001:1127   */\ntag_27:\n    /* \"#utility.yul\":1038:1045   */\n  0x00\n    /* \"#utility.yul\":1078:1120   */\n  0xffffffffffffffffffffffffffffffffffffffff\n    /* \"#utility.yul\":1071:1076   */\n  dup3\n    /* \"#utility.yul\":1067:1121   */\n  and\n    /* \"#utility.yul\":1056:1121   */\n  swap1\n  pop\n    /* \"#utility.yul\":1001:1127   */\n  swap2\n  swap1\n  pop\n  jump\t// out\n    /* \"#utility.yul\":1133:1210   */\ntag_29:\n    /* \"#utility.yul\":1170:1177   */\n  0x00\n    /* \"#utility.yul\":1199:1204   */\n  dup2\n    /* \"#utility.yul\":1188:1204   */\n  swap1\n  pop\n    /* \"#utility.yul\":1133:1210   */\n  swap2\n  swap1\n  pop\n  jump\t// out\n    /* \"#utility.yul\":1339:1456   */\ntag_19:\n    /* \"#utility.yul\":1448:1449   */\n  0x00\n    /* \"#utility.yul\":1445:1446   */\n  dup1\n    /* \"#utility.yul\":1438:1450   */\n  revert\n    /* \"#utility.yul\":1462:1584   */\ntag_11:\n    /* \"#utility.yul\":1535:1559   */\n  tag_35\n    /* \"#utility.yul\":1553:1558   */\n  dup2\n    /* \"#utility.yul\":1535:1559   */\n  tag_24\n  jump\t// in\ntag_35:\n    /* \"#utility.yul\":1528:1533   */\n  dup2\n    /* \"#utility.yul\":1525:1560   */\n  eq\n    /* \"#utility.yul\":1515:1578   */\n  tag_36\n  jumpi\n    /* \"#utility.yul\":1574:1575   */\n  0x00\n    /* \"#utility.yul\":1571:1572   */\n  dup1\n    /* \"#utility.yul\":1564:1576   */\n  revert\n    /* \"#utility.yul\":1515:1578   */\ntag_36:\n    /* \"#utility.yul\":1462:1584   */\n  pop\n  jump\t// out\n    /* \"#utility.yul\":1590:1712   */\ntag_15:\n    /* \"#utility.yul\":1663:1687   */\n  tag_38\n    /* \"#utility.yul\":1681:1686   */\n  dup2\n    /* \"#utility.yul\":1663:1687   */\n  tag_29\n  jump\t// in\ntag_38:\n    /* \"#utility.yul\":1656:1661   */\n  dup2\n    /* \"#utility.yul\":1653:1688   */\n  eq\n    /* \"#utility.yul\":1643:1706   */\n  tag_39\n  jumpi\n    /* \"#utility.yul\":1702:1703   */\n  0x00\n    /* \"#utility.yul\":1699:1700   */\n  dup1\n    /* \"#utility.yul\":1692:1704   */\n  revert\n    /* \"#utility.yul\":1643:1706   */\ntag_39:\n    /* \"#utility.yul\":1590:1712   */\n  pop\n  jump\t// out\n    /* \"wwcc-contracts/contracts/wwccPool.sol\":96:13293  contract WCPOOL {... */\ntag_6:\n  dataSize(sub_0)\n  dup1\n  dataOffset(sub_0)\n  0x00\n  codecopy\n  0x00\n  return\nstop\n\nsub_0: assembly {\n        /* \"wwcc-contracts/contracts/wwccPool.sol\":96:13293  contract WCPOOL {... */\n      mstore(0x40, 0x80)\n      jumpi(tag_1, lt(calldatasize, 0x04))\n      shr(0xe0, calldataload(0x00))\n      dup1\n      0x47e4dd27\n      gt\n      tag_13\n      jumpi\n      dup1\n      0x47e4dd27\n      eq\n      tag_8\n      jumpi\n      dup1\n      0x74fe9bc2\n      eq\n      tag_9\n      jumpi\n      dup1\n      0x9bd0abf1\n      eq\n      tag_10\n      jumpi\n      dup1\n      0xbaf41269\n      eq\n      tag_11\n      jumpi\n      dup1\n      0xf6c00927\n      eq\n      tag_12\n      jumpi\n      jump(tag_2)\n    tag_13:\n      dup1\n      0x0ce49053\n      eq\n      tag_3\n      jumpi\n      dup1\n      0x2bf21ecc\n      eq\n      tag_4\n      jumpi\n      dup1\n      0x357965ba\n      eq\n      tag_5\n      jumpi\n      dup1\n      0x3e6ff1a2\n      eq\n      tag_6\n      jumpi\n      dup1\n      0x4121855f\n      eq\n      tag_7\n      jumpi\n      jump(tag_2)\n    tag_1:\n      jumpi(tag_2, calldatasize)\n        /* \"wwcc-contracts/contracts/wwccPool.sol\":13154:13159  owner */\n      0x00\n      dup1\n      sload\n      swap1\n      0x0100\n      exp\n      swap1\n      div\n      0xffffffffffffffffffffffffffffffffffffffff\n      and\n        /* \"wwcc-contracts/contracts/wwccPool.sol\":13140:13159  msg.sender != owner */\n      0xffffffffffffffffffffffffffffffffffffffff\n      and\n        /* \"wwcc-contracts/contracts/wwccPool.sol\":13140:13150  msg.sender */\n      caller\n        /* \"wwcc-contracts/contracts/wwccPool.sol\":13140:13159  msg.sender != owner */\n      0xffffffffffffffffffffffffffffffffffffffff\n      and\n      eq\n        /* \"wwcc-contracts/contracts/wwccPool.sol\":13137:13286  if(msg.sender != owner){... */\n      tag_16\n      jumpi\n        /* \"wwcc-contracts/contracts/wwccPool.sol\":13199:13208  msg.value */\n      callvalue\n        /* \"wwcc-contracts/contracts/wwccPool.sol\":13173:13183  voteAmount */\n      0x02\n        /* \"wwcc-contracts/contracts/wwccPool.sol\":13173:13195  voteAmount[msg.sender] */\n      0x00\n        /* \"wwcc-contracts/contracts/wwccPool.sol\":13184:13194  msg.sender */\n      caller\n        /* \"wwcc-contracts/contracts/wwccPool.sol\":13173:13195  voteAmount[msg.sender] */\n      0xffffffffffffffffffffffffffffffffffffffff\n      and\n      0xffffffffffffffffffffffffffffffffffffffff\n      and\n      dup2\n      mstore\n      0x20\n      add\n      swap1\n      dup2\n      mstore\n      0x20\n      add\n      0x00\n      keccak256\n      0x00\n        /* \"wwcc-contracts/contracts/wwccPool.sol\":13173:13208  voteAmount[msg.sender] += msg.value */\n      dup3\n      dup3\n      sload\n      tag_17\n      swap2\n      swap1\n      tag_18\n      jump\t// in\n    tag_17:\n      swap3\n      pop\n      pop\n      dup2\n      swap1\n      sstore\n      pop\n        /* \"wwcc-contracts/contracts/wwccPool.sol\":13226:13257  Received(msg.sender, msg.value) */\n      0x88a5966d370b9919b20f3e2c13ff65706f196a4e32cc2c12bf57088f88525874\n        /* \"wwcc-contracts/contracts/wwccPool.sol\":13235:13245  msg.sender */\n      caller\n        /* \"wwcc-contracts/contracts/wwccPool.sol\":13247:13256  msg.value */\n      callvalue\n        /* \"wwcc-contracts/contracts/wwccPool.sol\":13226:13257  Received(msg.sender, msg.value) */\n      mload(0x40)\n      tag_19\n      swap3\n      swap2\n      swap1\n      tag_20\n      jump\t// in\n    tag_19:\n      mload(0x40)\n      dup1\n      swap2\n      sub\n      swap1\n      log1\n        /* \"wwcc-contracts/contracts/wwccPool.sol\":13137:13286  if(msg.sender != owner){... */\n      jump(tag_21)\n    tag_16:\n    tag_21:\n        /* \"wwcc-contracts/contracts/wwccPool.sol\":96:13293  contract WCPOOL {... */\n      stop\n    tag_2:\n      0x00\n      dup1\n      revert\n        /* \"wwcc-contracts/contracts/wwccPool.sol\":4826:5505  function Withdrawal(address toAddress,bytes32 poolKey) external onlyManager payable returns (bool){... */\n    tag_3:\n      tag_22\n      0x04\n      dup1\n      calldatasize\n      sub\n      dup2\n      add\n      swap1\n      tag_23\n      swap2\n      swap1\n      tag_24\n      jump\t// in\n    tag_23:\n      tag_25\n      jump\t// in\n    tag_22:\n      mload(0x40)\n      tag_26\n      swap2\n      swap1\n      tag_27\n      jump\t// in\n    tag_26:\n      mload(0x40)\n      dup1\n      swap2\n      sub\n      swap1\n      return\n        /* \"wwcc-contracts/contracts/wwccPool.sol\":4261:4783  function Set_Basal(bytes32 poolKey,uint256 basal) external onlyManager  returns (bool){... */\n    tag_4:\n      callvalue\n      dup1\n      iszero\n      tag_28\n      jumpi\n      0x00\n      dup1\n      revert\n    tag_28:\n      pop\n      tag_29\n      0x04\n      dup1\n      calldatasize\n      sub\n      dup2\n      add\n      swap1\n      tag_30\n      swap2\n      swap1\n      tag_31\n      jump\t// in\n    tag_30:\n      tag_32\n      jump\t// in\n    tag_29:\n      mload(0x40)\n      tag_33\n      swap2\n      swap1\n      tag_27\n      jump\t// in\n    tag_33:\n      mload(0x40)\n      dup1\n      swap2\n      sub\n      swap1\n      return\n        /* \"wwcc-contracts/contracts/wwccPool.sol\":1968:2857  function Set_Pool(... */\n    tag_5:\n      callvalue\n      dup1\n      iszero\n      tag_34\n      jumpi\n      0x00\n      dup1\n      revert\n    tag_34:\n      pop\n      tag_35\n      0x04\n      dup1\n      calldatasize\n      sub\n      dup2\n      add\n      swap1\n      tag_36\n      swap2\n      swap1\n      tag_37\n      jump\t// in\n    tag_36:\n      tag_38\n      jump\t// in\n    tag_35:\n      mload(0x40)\n      tag_39\n      swap2\n      swap1\n      tag_40\n      jump\t// in\n    tag_39:\n      mload(0x40)\n      dup1\n      swap2\n      sub\n      swap1\n      return\n        /* \"wwcc-contracts/contracts/wwccPool.sol\":6441:6547  function CheckBasal() external onlyManager view  returns (uint256){... */\n    tag_6:\n      callvalue\n      dup1\n      iszero\n      tag_41\n      jumpi\n      0x00\n      dup1\n      revert\n    tag_41:\n      pop\n      tag_42\n      tag_43\n      jump\t// in\n    tag_42:\n      mload(0x40)\n      tag_44\n      swap2\n      swap1\n      tag_45\n      jump\t// in\n    tag_44:\n      mload(0x40)\n      dup1\n      swap2\n      sub\n      swap1\n      return\n        /* \"wwcc-contracts/contracts/wwccPool.sol\":6021:6379  function CheckExpect(bytes32 poolKey) external onlyManager view  returns (uint256){... */\n    tag_7:\n      callvalue\n      dup1\n      iszero\n      tag_46\n      jumpi\n      0x00\n      dup1\n      revert\n    tag_46:\n      pop\n      tag_47\n      0x04\n      dup1\n      calldatasize\n      sub\n      dup2\n      add\n      swap1\n      tag_48\n      swap2\n      swap1\n      tag_49\n      jump\t// in\n    tag_48:\n      tag_50\n      jump\t// in\n    tag_47:\n      mload(0x40)\n      tag_51\n      swap2\n      swap1\n      tag_45\n      jump\t// in\n    tag_51:\n      mload(0x40)\n      dup1\n      swap2\n      sub\n      swap1\n      return\n        /* \"wwcc-contracts/contracts/wwccPool.sol\":2880:4206  function Picking(address joiner,uint256 weight,bytes32 poolKey,uint256 homeScore,uint256 visitScore,uint256 kind) external returns(bool){... */\n    tag_8:\n      callvalue\n      dup1\n      iszero\n      tag_52\n      jumpi\n      0x00\n      dup1\n      revert\n    tag_52:\n      pop\n      tag_53\n      0x04\n      dup1\n      calldatasize\n      sub\n      dup2\n      add\n      swap1\n      tag_54\n      swap2\n      swap1\n      tag_55\n      jump\t// in\n    tag_54:\n      tag_56\n      jump\t// in\n    tag_53:\n      mload(0x40)\n      tag_57\n      swap2\n      swap1\n      tag_27\n      jump\t// in\n    tag_57:\n      mload(0x40)\n      dup1\n      swap2\n      sub\n      swap1\n      return\n        /* \"wwcc-contracts/contracts/wwccPool.sol\":6765:10222  function Award(bytes32 poolKey,uint256 homeScore,uint256 visitScore,uint256 result)  external onlyManager  payable returns(bool){... */\n    tag_9:\n      tag_58\n      0x04\n      dup1\n      calldatasize\n      sub\n      dup2\n      add\n      swap1\n      tag_59\n      swap2\n      swap1\n      tag_60\n      jump\t// in\n    tag_59:\n      tag_61\n      jump\t// in\n    tag_58:\n      mload(0x40)\n      tag_62\n      swap2\n      swap1\n      tag_27\n      jump\t// in\n    tag_62:\n      mload(0x40)\n      dup1\n      swap2\n      sub\n      swap1\n      return\n        /* \"wwcc-contracts/contracts/wwccPool.sol\":5566:5956  function voteWithdrawal(address joiner,uint256 amount) external onlyManager payable returns (bool){... */\n    tag_10:\n      tag_63\n      0x04\n      dup1\n      calldatasize\n      sub\n      dup2\n      add\n      swap1\n      tag_64\n      swap2\n      swap1\n      tag_65\n      jump\t// in\n    tag_64:\n      tag_66\n      jump\t// in\n    tag_63:\n      mload(0x40)\n      tag_67\n      swap2\n      swap1\n      tag_27\n      jump\t// in\n    tag_67:\n      mload(0x40)\n      dup1\n      swap2\n      sub\n      swap1\n      return\n        /* \"wwcc-contracts/contracts/wwccPool.sol\":6589:6694  function CheckVoteTickets() external view returns (uint256){... */\n    tag_11:\n      callvalue\n      dup1\n      iszero\n      tag_68\n      jumpi\n      0x00\n      dup1\n      revert\n    tag_68:\n      pop\n      tag_69\n      tag_70\n      jump\t// in\n    tag_69:\n      mload(0x40)\n      tag_71\n      swap2\n      swap1\n      tag_45\n      jump\t// in\n    tag_71:\n      mload(0x40)\n      dup1\n      swap2\n      sub\n      swap1\n      return\n        /* \"wwcc-contracts/contracts/wwccPool.sol\":10272:10920  function getPool(bytes32 poolKey) external view returns (string memory vs,string memory rounds,PoolViewInfo memory viewInfo){... */\n    tag_12:\n      callvalue\n      dup1\n      iszero\n      tag_72\n      jumpi\n      0x00\n      dup1\n      revert\n    tag_72:\n      pop\n      tag_73\n      0x04\n      dup1\n      calldatasize\n      sub\n      dup2\n      add\n      swap1\n      tag_74\n      swap2\n      swap1\n      tag_49\n      jump\t// in\n    tag_74:\n      tag_75\n      jump\t// in\n    tag_73:\n      mload(0x40)\n      tag_76\n      swap4\n      swap3\n      swap2\n      swap1\n      tag_77\n      jump\t// in\n    tag_76:\n      mload(0x40)\n      dup1\n      swap2\n      sub\n      swap1\n      return\n        /* \"wwcc-contracts/contracts/wwccPool.sol\":4826:5505  function Withdrawal(address toAddress,bytes32 poolKey) external onlyManager payable returns (bool){... */\n    tag_25:\n        /* \"wwcc-contracts/contracts/wwccPool.sol\":4919:4923  bool */\n      0x00\n        /* \"wwcc-contracts/contracts/wwccPool.sol\":12970:12975  owner */\n      dup1\n      0x00\n      swap1\n      sload\n      swap1\n      0x0100\n      exp\n      swap1\n      div\n      0xffffffffffffffffffffffffffffffffffffffff\n      and\n        /* \"wwcc-contracts/contracts/wwccPool.sol\":12956:12975  msg.sender == owner */\n      0xffffffffffffffffffffffffffffffffffffffff\n      and\n        /* \"wwcc-contracts/contracts/wwccPool.sol\":12956:12966  msg.sender */\n      caller\n        /* \"wwcc-contracts/contracts/wwccPool.sol\":12956:12975  msg.sender == owner */\n      0xffffffffffffffffffffffffffffffffffffffff\n      and\n      eq\n        /* \"wwcc-contracts/contracts/wwccPool.sol\":12935:13026  require(... */\n      tag_79\n      jumpi\n      mload(0x40)\n      0x08c379a000000000000000000000000000000000000000000000000000000000\n      dup2\n      mstore\n      0x04\n      add\n      tag_80\n      swap1\n      tag_81\n      jump\t// in\n    tag_80:\n      mload(0x40)\n      dup1\n      swap2\n      sub\n      swap1\n      revert\n    tag_79:\n        /* \"wwcc-contracts/contracts/wwccPool.sol\":4941:4958  contains(poolKey) */\n      tag_83\n        /* \"wwcc-contracts/contracts/wwccPool.sol\":4950:4957  poolKey */\n      dup3\n        /* \"wwcc-contracts/contracts/wwccPool.sol\":4941:4949  contains */\n      tag_84\n        /* \"wwcc-contracts/contracts/wwccPool.sol\":4941:4958  contains(poolKey) */\n      jump\t// in\n    tag_83:\n        /* \"wwcc-contracts/contracts/wwccPool.sol\":4937:5475  if(!contains(poolKey)) { ... */\n      tag_85\n      jumpi\n        /* \"wwcc-contracts/contracts/wwccPool.sol\":4979:5003  revert(\"pool not exist\") */\n      mload(0x40)\n      0x08c379a000000000000000000000000000000000000000000000000000000000\n      dup2\n      mstore\n      0x04\n      add\n      tag_86\n      swap1\n      tag_87\n      jump\t// in\n    tag_86:\n      mload(0x40)\n      dup1\n      swap2\n      sub\n      swap1\n      revert\n        /* \"wwcc-contracts/contracts/wwccPool.sol\":4937:5475  if(!contains(poolKey)) { ... */\n    tag_85:\n        /* \"wwcc-contracts/contracts/wwccPool.sol\":5039:5057  WcPool memory pool */\n      0x00\n        /* \"wwcc-contracts/contracts/wwccPool.sol\":5060:5067  WcPools */\n      0x03\n        /* \"wwcc-contracts/contracts/wwccPool.sol\":5060:5076  WcPools[poolKey] */\n      0x00\n        /* \"wwcc-contracts/contracts/wwccPool.sol\":5068:5075  poolKey */\n      dup5\n        /* \"wwcc-contracts/contracts/wwccPool.sol\":5060:5076  WcPools[poolKey] */\n      dup2\n      mstore\n      0x20\n      add\n      swap1\n      dup2\n      mstore\n      0x20\n      add\n      0x00\n      keccak256\n        /* \"wwcc-contracts/contracts/wwccPool.sol\":5039:5076  WcPool memory pool = WcPools[poolKey] */\n      mload(0x40)\n      dup1\n      0x0160\n      add\n      0x40\n      mstore\n      swap1\n      dup2\n      0x00\n      dup3\n      add\n      dup1\n      sload\n      tag_89\n      swap1\n      tag_90\n      jump\t// in\n    tag_89:\n      dup1\n      0x1f\n      add\n      0x20\n      dup1\n      swap2\n      div\n      mul\n      0x20\n      add\n      mload(0x40)\n      swap1\n      dup2\n      add\n      0x40\n      mstore\n      dup1\n      swap3\n      swap2\n      swap1\n      dup2\n      dup2\n      mstore\n      0x20\n      add\n      dup3\n      dup1\n      sload\n      tag_91\n      swap1\n      tag_90\n      jump\t// in\n    tag_91:\n      dup1\n      iszero\n      tag_92\n      jumpi\n      dup1\n      0x1f\n      lt\n      tag_93\n      jumpi\n      0x0100\n      dup1\n      dup4\n      sload\n      div\n      mul\n      dup4\n      mstore\n      swap2\n      0x20\n      add\n      swap2\n      jump(tag_92)\n    tag_93:\n      dup3\n      add\n      swap2\n      swap1\n      0x00\n      mstore\n      keccak256(0x00, 0x20)\n      swap1\n    tag_94:\n      dup2\n      sload\n      dup2\n      mstore\n      swap1\n      0x01\n      add\n      swap1\n      0x20\n      add\n      dup1\n      dup4\n      gt\n      tag_94\n      jumpi\n      dup3\n      swap1\n      sub\n      0x1f\n      and\n      dup3\n      add\n      swap2\n    tag_92:\n      pop\n      pop\n      pop\n      pop\n      pop\n      dup2\n      mstore\n      0x20\n      add\n      0x01\n      dup3\n      add\n      dup1\n      sload\n      tag_95\n      swap1\n      tag_90\n      jump\t// in\n    tag_95:\n      dup1\n      0x1f\n      add\n      0x20\n      dup1\n      swap2\n      div\n      mul\n      0x20\n      add\n      mload(0x40)\n      swap1\n      dup2\n      add\n      0x40\n      mstore\n      dup1\n      swap3\n      swap2\n      swap1\n      dup2\n      dup2\n      mstore\n      0x20\n      add\n      dup3\n      dup1\n      sload\n      tag_96\n      swap1\n      tag_90\n      jump\t// in\n    tag_96:\n      dup1\n      iszero\n      tag_97\n      jumpi\n      dup1\n      0x1f\n      lt\n      tag_98\n      jumpi\n      0x0100\n      dup1\n      dup4\n      sload\n      div\n      mul\n      dup4\n      mstore\n      swap2\n      0x20\n      add\n      swap2\n      jump(tag_97)\n    tag_98:\n      dup3\n      add\n      swap2\n      swap1\n      0x00\n      mstore\n      keccak256(0x00, 0x20)\n      swap1\n    tag_99:\n      dup2\n      sload\n      dup2\n      mstore\n      swap1\n      0x01\n      add\n      swap1\n      0x20\n      add\n      dup1\n      dup4\n      gt\n      tag_99\n      jumpi\n      dup3\n      swap1\n      sub\n      0x1f\n      and\n      dup3\n      add\n      swap2\n    tag_97:\n      pop\n      pop\n      pop\n      pop\n      pop\n      dup2\n      mstore\n      0x20\n      add\n      0x02\n      dup3\n      add\n      dup1\n      sload\n      tag_100\n      swap1\n      tag_90\n      jump\t// in\n    tag_100:\n      dup1\n      0x1f\n      add\n      0x20\n      dup1\n      swap2\n      div\n      mul\n      0x20\n      add\n      mload(0x40)\n      swap1\n      dup2\n      add\n      0x40\n      mstore\n      dup1\n      swap3\n      swap2\n      swap1\n      dup2\n      dup2\n      mstore\n      0x20\n      add\n      dup3\n      dup1\n      sload\n      tag_101\n      swap1\n      tag_90\n      jump\t// in\n    tag_101:\n      dup1\n      iszero\n      tag_102\n      jumpi\n      dup1\n      0x1f\n      lt\n      tag_103\n      jumpi\n      0x0100\n      dup1\n      dup4\n      sload\n      div\n      mul\n      dup4\n      mstore\n      swap2\n      0x20\n      add\n      swap2\n      jump(tag_102)\n    tag_103:\n      dup3\n      add\n      swap2\n      swap1\n      0x00\n      mstore\n      keccak256(0x00, 0x20)\n      swap1\n    tag_104:\n      dup2\n      sload\n      dup2\n      mstore\n      swap1\n      0x01\n      add\n      swap1\n      0x20\n      add\n      dup1\n      dup4\n      gt\n      tag_104\n      jumpi\n      dup3\n      swap1\n      sub\n      0x1f\n      and\n      dup3\n      add\n      swap2\n    tag_102:\n      pop\n      pop\n      pop\n      pop\n      pop\n      dup2\n      mstore\n      0x20\n      add\n      0x03\n      dup3\n      add\n      sload\n      dup2\n      mstore\n      0x20\n      add\n      0x04\n      dup3\n      add\n      sload\n      dup2\n      mstore\n      0x20\n      add\n      0x05\n      dup3\n      add\n      sload\n      dup2\n      mstore\n      0x20\n      add\n      0x06\n      dup3\n      add\n      sload\n      dup2\n      mstore\n      0x20\n      add\n      0x07\n      dup3\n      add\n      sload\n      dup2\n      mstore\n      0x20\n      add\n      0x08\n      dup3\n      add\n      0x00\n      swap1\n      sload\n      swap1\n      0x0100\n      exp\n      swap1\n      div\n      0xff\n      and\n      iszero\n      iszero\n      iszero\n      iszero\n      dup2\n      mstore\n      0x20\n      add\n      0x08\n      dup3\n      add\n      0x01\n      swap1\n      sload\n      swap1\n      0x0100\n      exp\n      swap1\n      div\n      0xff\n      and\n      iszero\n      iszero\n      iszero\n      iszero\n      dup2\n      mstore\n      0x20\n      add\n      0x08\n      dup3\n      add\n      0x02\n      swap1\n      sload\n      swap1\n      0x0100\n      exp\n      swap1\n      div\n      0xff\n      and\n      iszero\n      iszero\n      iszero\n      iszero\n      dup2\n      mstore\n      pop\n      pop\n      swap1\n      pop\n        /* \"wwcc-contracts/contracts/wwccPool.sol\":5094:5108  uint256 expect */\n      0x00\n        /* \"wwcc-contracts/contracts/wwccPool.sol\":5111:5177  (pool.wPool+pool.lPool+pool.dPool+pool.sPool + pool.basal).div(10) */\n      tag_105\n        /* \"wwcc-contracts/contracts/wwccPool.sol\":5174:5176  10 */\n      0x0a\n        /* \"wwcc-contracts/contracts/wwccPool.sol\":5158:5162  pool */\n      dup4\n        /* \"wwcc-contracts/contracts/wwccPool.sol\":5158:5168  pool.basal */\n      0xe0\n      add\n      mload\n        /* \"wwcc-contracts/contracts/wwccPool.sol\":5145:5149  pool */\n      dup5\n        /* \"wwcc-contracts/contracts/wwccPool.sol\":5145:5155  pool.sPool */\n      0xc0\n      add\n      mload\n        /* \"wwcc-contracts/contracts/wwccPool.sol\":5134:5138  pool */\n      dup6\n        /* \"wwcc-contracts/contracts/wwccPool.sol\":5134:5144  pool.dPool */\n      0x80\n      add\n      mload\n        /* \"wwcc-contracts/contracts/wwccPool.sol\":5123:5127  pool */\n      dup7\n        /* \"wwcc-contracts/contracts/wwccPool.sol\":5123:5133  pool.lPool */\n      0xa0\n      add\n      mload\n        /* \"wwcc-contracts/contracts/wwccPool.sol\":5112:5116  pool */\n      dup8\n        /* \"wwcc-contracts/contracts/wwccPool.sol\":5112:5122  pool.wPool */\n      0x60\n      add\n      mload\n        /* \"wwcc-contracts/contracts/wwccPool.sol\":5112:5133  pool.wPool+pool.lPool */\n      tag_106\n      swap2\n      swap1\n      tag_18\n      jump\t// in\n    tag_106:\n        /* \"wwcc-contracts/contracts/wwccPool.sol\":5112:5144  pool.wPool+pool.lPool+pool.dPool */\n      tag_107\n      swap2\n      swap1\n      tag_18\n      jump\t// in\n    tag_107:\n        /* \"wwcc-contracts/contracts/wwccPool.sol\":5112:5155  pool.wPool+pool.lPool+pool.dPool+pool.sPool */\n      tag_108\n      swap2\n      swap1\n      tag_18\n      jump\t// in\n    tag_108:\n        /* \"wwcc-contracts/contracts/wwccPool.sol\":5112:5168  pool.wPool+pool.lPool+pool.dPool+pool.sPool + pool.basal */\n      tag_109\n      swap2\n      swap1\n      tag_18\n      jump\t// in\n    tag_109:\n        /* \"wwcc-contracts/contracts/wwccPool.sol\":5111:5173  (pool.wPool+pool.lPool+pool.dPool+pool.sPool + pool.basal).div */\n      tag_110\n      swap1\n        /* \"wwcc-contracts/contracts/wwccPool.sol\":5111:5177  (pool.wPool+pool.lPool+pool.dPool+pool.sPool + pool.basal).div(10) */\n      swap2\n      swap1\n      0xffffffff\n      and\n      jump\t// in\n    tag_105:\n        /* \"wwcc-contracts/contracts/wwccPool.sol\":5094:5177  uint256 expect = (pool.wPool+pool.lPool+pool.dPool+pool.sPool + pool.basal).div(10) */\n      swap1\n      pop\n        /* \"wwcc-contracts/contracts/wwccPool.sol\":5215:5219  true */\n      0x01\n        /* \"wwcc-contracts/contracts/wwccPool.sol\":5199:5203  pool */\n      dup3\n        /* \"wwcc-contracts/contracts/wwccPool.sol\":5199:5212  pool.finished */\n      0x0140\n      add\n        /* \"wwcc-contracts/contracts/wwccPool.sol\":5199:5219  pool.finished = true */\n      swap1\n      iszero\n      iszero\n      swap1\n      dup2\n      iszero\n      iszero\n      dup2\n      mstore\n      pop\n        /* \"wwcc-contracts/contracts/wwccPool.sol\":5195:5447  if (pool.finished = true){... */\n      iszero\n      tag_111\n      jumpi\n        /* \"wwcc-contracts/contracts/wwccPool.sol\":5242:5275  address payable toAddress_address */\n      0x00\n        /* \"wwcc-contracts/contracts/wwccPool.sol\":5286:5295  toAddress */\n      dup6\n        /* \"wwcc-contracts/contracts/wwccPool.sol\":5242:5296  address payable toAddress_address = payable(toAddress) */\n      swap1\n      pop\n        /* \"wwcc-contracts/contracts/wwccPool.sol\":5318:5335  toAddress_address */\n      dup1\n        /* \"wwcc-contracts/contracts/wwccPool.sol\":5318:5344  toAddress_address.transfer */\n      0xffffffffffffffffffffffffffffffffffffffff\n      and\n        /* \"wwcc-contracts/contracts/wwccPool.sol\":5318:5352  toAddress_address.transfer(expect) */\n      0x08fc\n        /* \"wwcc-contracts/contracts/wwccPool.sol\":5345:5351  expect */\n      dup4\n        /* \"wwcc-contracts/contracts/wwccPool.sol\":5318:5352  toAddress_address.transfer(expect) */\n      swap1\n      dup2\n      iszero\n      mul\n      swap1\n      mload(0x40)\n      0x00\n      mload(0x40)\n      dup1\n      dup4\n      sub\n      dup2\n      dup6\n      dup9\n      dup9\n      call\n      swap4\n      pop\n      pop\n      pop\n      pop\n      iszero\n      dup1\n      iszero\n      tag_113\n      jumpi\n      returndatasize\n      0x00\n      dup1\n      returndatacopy\n      revert(0x00, returndatasize)\n    tag_113:\n      pop\n        /* \"wwcc-contracts/contracts/wwccPool.sol\":5220:5371  {... */\n      pop\n        /* \"wwcc-contracts/contracts/wwccPool.sol\":5195:5447  if (pool.finished = true){... */\n      jump(tag_114)\n    tag_111:\n        /* \"wwcc-contracts/contracts/wwccPool.sol\":5397:5428  revert(\"pool has not finished\") */\n      mload(0x40)\n      0x08c379a000000000000000000000000000000000000000000000000000000000\n      dup2\n      mstore\n      0x04\n      add\n      tag_115\n      swap1\n      tag_116\n      jump\t// in\n    tag_115:\n      mload(0x40)\n      dup1\n      swap2\n      sub\n      swap1\n      revert\n        /* \"wwcc-contracts/contracts/wwccPool.sol\":5195:5447  if (pool.finished = true){... */\n    tag_114:\n        /* \"wwcc-contracts/contracts/wwccPool.sol\":5021:5475  {... */\n      pop\n      pop\n        /* \"wwcc-contracts/contracts/wwccPool.sol\":5494:5498  true */\n      0x01\n        /* \"wwcc-contracts/contracts/wwccPool.sol\":5487:5498  return true */\n      swap1\n      pop\n        /* \"wwcc-contracts/contracts/wwccPool.sol\":4826:5505  function Withdrawal(address toAddress,bytes32 poolKey) external onlyManager payable returns (bool){... */\n      swap3\n      swap2\n      pop\n      pop\n      jump\t// out\n        /* \"wwcc-contracts/contracts/wwccPool.sol\":4261:4783  function Set_Basal(bytes32 poolKey,uint256 basal) external onlyManager  returns (bool){... */\n    tag_32:\n        /* \"wwcc-contracts/contracts/wwccPool.sol\":4342:4346  bool */\n      0x00\n        /* \"wwcc-contracts/contracts/wwccPool.sol\":12970:12975  owner */\n      dup1\n      0x00\n      swap1\n      sload\n      swap1\n      0x0100\n      exp\n      swap1\n      div\n      0xffffffffffffffffffffffffffffffffffffffff\n      and\n        /* \"wwcc-contracts/contracts/wwccPool.sol\":12956:12975  msg.sender == owner */\n      0xffffffffffffffffffffffffffffffffffffffff\n      and\n        /* \"wwcc-contracts/contracts/wwccPool.sol\":12956:12966  msg.sender */\n      caller\n        /* \"wwcc-contracts/contracts/wwccPool.sol\":12956:12975  msg.sender == owner */\n      0xffffffffffffffffffffffffffffffffffffffff\n      and\n      eq\n        /* \"wwcc-contracts/contracts/wwccPool.sol\":12935:13026  require(... */\n      tag_118\n      jumpi\n      mload(0x40)\n      0x08c379a000000000000000000000000000000000000000000000000000000000\n      dup2\n      mstore\n      0x04\n      add\n      tag_119\n      swap1\n      tag_81\n      jump\t// in\n    tag_119:\n      mload(0x40)\n      dup1\n      swap2\n      sub\n      swap1\n      revert\n    tag_118:\n        /* \"wwcc-contracts/contracts/wwccPool.sol\":4361:4378  contains(poolKey) */\n      tag_121\n        /* \"wwcc-contracts/contracts/wwccPool.sol\":4370:4377  poolKey */\n      dup4\n        /* \"wwcc-contracts/contracts/wwccPool.sol\":4361:4369  contains */\n      tag_84\n        /* \"wwcc-contracts/contracts/wwccPool.sol\":4361:4378  contains(poolKey) */\n      jump\t// in\n    tag_121:\n        /* \"wwcc-contracts/contracts/wwccPool.sol\":4357:4777  if(!contains(poolKey)) { ... */\n      tag_122\n      jumpi\n        /* \"wwcc-contracts/contracts/wwccPool.sol\":4395:4419  revert(\"pool not exist\") */\n      mload(0x40)\n      0x08c379a000000000000000000000000000000000000000000000000000000000\n      dup2\n      mstore\n      0x04\n      add\n      tag_123\n      swap1\n      tag_87\n      jump\t// in\n    tag_123:\n      mload(0x40)\n      dup1\n      swap2\n      sub\n      swap1\n      revert\n        /* \"wwcc-contracts/contracts/wwccPool.sol\":4357:4777  if(!contains(poolKey)) { ... */\n    tag_122:\n        /* \"wwcc-contracts/contracts/wwccPool.sol\":4447:4465  WcPool memory pool */\n      0x00\n        /* \"wwcc-contracts/contracts/wwccPool.sol\":4468:4475  WcPools */\n      0x03\n        /* \"wwcc-contracts/contracts/wwccPool.sol\":4468:4484  WcPools[poolKey] */\n      0x00\n        /* \"wwcc-contracts/contracts/wwccPool.sol\":4476:4483  poolKey */\n      dup6\n        /* \"wwcc-contracts/contracts/wwccPool.sol\":4468:4484  WcPools[poolKey] */\n      dup2\n      mstore\n      0x20\n      add\n      swap1\n      dup2\n      mstore\n      0x20\n      add\n      0x00\n      keccak256\n        /* \"wwcc-contracts/contracts/wwccPool.sol\":4447:4484  WcPool memory pool = WcPools[poolKey] */\n      mload(0x40)\n      dup1\n      0x0160\n      add\n      0x40\n      mstore\n      swap1\n      dup2\n      0x00\n      dup3\n      add\n      dup1\n      sload\n      tag_125\n      swap1\n      tag_90\n      jump\t// in\n    tag_125:\n      dup1\n      0x1f\n      add\n      0x20\n      dup1\n      swap2\n      div\n      mul\n      0x20\n      add\n      mload(0x40)\n      swap1\n      dup2\n      add\n      0x40\n      mstore\n      dup1\n      swap3\n      swap2\n      swap1\n      dup2\n      dup2\n      mstore\n      0x20\n      add\n      dup3\n      dup1\n      sload\n      tag_126\n      swap1\n      tag_90\n      jump\t// in\n    tag_126:\n      dup1\n      iszero\n      tag_127\n      jumpi\n      dup1\n      0x1f\n      lt\n      tag_128\n      jumpi\n      0x0100\n      dup1\n      dup4\n      sload\n      div\n      mul\n      dup4\n      mstore\n      swap2\n      0x20\n      add\n      swap2\n      jump(tag_127)\n    tag_128:\n      dup3\n      add\n      swap2\n      swap1\n      0x00\n      mstore\n      keccak256(0x00, 0x20)\n      swap1\n    tag_129:\n      dup2\n      sload\n      dup2\n      mstore\n      swap1\n      0x01\n      add\n      swap1\n      0x20\n      add\n      dup1\n      dup4\n      gt\n      tag_129\n      jumpi\n      dup3\n      swap1\n      sub\n      0x1f\n      and\n      dup3\n      add\n      swap2\n    tag_127:\n      pop\n      pop\n      pop\n      pop\n      pop\n      dup2\n      mstore\n      0x20\n      add\n      0x01\n      dup3\n      add\n      dup1\n      sload\n      tag_130\n      swap1\n      tag_90\n      jump\t// in\n    tag_130:\n      dup1\n      0x1f\n      add\n      0x20\n      dup1\n      swap2\n      div\n      mul\n      0x20\n      add\n      mload(0x40)\n      swap1\n      dup2\n      add\n      0x40\n      mstore\n      dup1\n      swap3\n      swap2\n      swap1\n      dup2\n      dup2\n      mstore\n      0x20\n      add\n      dup3\n      dup1\n      sload\n      tag_131\n      swap1\n      tag_90\n      jump\t// in\n    tag_131:\n      dup1\n      iszero\n      tag_132\n      jumpi\n      dup1\n      0x1f\n      lt\n      tag_133\n      jumpi\n      0x0100\n      dup1\n      dup4\n      sload\n      div\n      mul\n      dup4\n      mstore\n      swap2\n      0x20\n      add\n      swap2\n      jump(tag_132)\n    tag_133:\n      dup3\n      add\n      swap2\n      swap1\n      0x00\n      mstore\n      keccak256(0x00, 0x20)\n      swap1\n    tag_134:\n      dup2\n      sload\n      dup2\n      mstore\n      swap1\n      0x01\n      add\n      swap1\n      0x20\n      add\n      dup1\n      dup4\n      gt\n      tag_134\n      jumpi\n      dup3\n      swap1\n      sub\n      0x1f\n      and\n      dup3\n      add\n      swap2\n    tag_132:\n      pop\n      pop\n      pop\n      pop\n      pop\n      dup2\n      mstore\n      0x20\n      add\n      0x02\n      dup3\n      add\n      dup1\n      sload\n      tag_135\n      swap1\n      tag_90\n      jump\t// in\n    tag_135:\n      dup1\n      0x1f\n      add\n      0x20\n      dup1\n      swap2\n      div\n      mul\n      0x20\n      add\n      mload(0x40)\n      swap1\n      dup2\n      add\n      0x40\n      mstore\n      dup1\n      swap3\n      swap2\n      swap1\n      dup2\n      dup2\n      mstore\n      0x20\n      add\n      dup3\n      dup1\n      sload\n      tag_136\n      swap1\n      tag_90\n      jump\t// in\n    tag_136:\n      dup1\n      iszero\n      tag_137\n      jumpi\n      dup1\n      0x1f\n      lt\n      tag_138\n      jumpi\n      0x0100\n      dup1\n      dup4\n      sload\n      div\n      mul\n      dup4\n      mstore\n      swap2\n      0x20\n      add\n      swap2\n      jump(tag_137)\n    tag_138:\n      dup3\n      add\n      swap2\n      swap1\n      0x00\n      mstore\n      keccak256(0x00, 0x20)\n      swap1\n    tag_139:\n      dup2\n      sload\n      dup2\n      mstore\n      swap1\n      0x01\n      add\n      swap1\n      0x20\n      add\n      dup1\n      dup4\n      gt\n      tag_139\n      jumpi\n      dup3\n      swap1\n      sub\n      0x1f\n      and\n      dup3\n      add\n      swap2\n    tag_137:\n      pop\n      pop\n      pop\n      pop\n      pop\n      dup2\n      mstore\n      0x20\n      add\n      0x03\n      dup3\n      add\n      sload\n      dup2\n      mstore\n      0x20\n      add\n      0x04\n      dup3\n      add\n      sload\n      dup2\n      mstore\n      0x20\n      add\n      0x05\n      dup3\n      add\n      sload\n      dup2\n      mstore\n      0x20\n      add\n      0x06\n      dup3\n      add\n      sload\n      dup2\n      mstore\n      0x20\n      add\n      0x07\n      dup3\n      add\n      sload\n      dup2\n      mstore\n      0x20\n      add\n      0x08\n      dup3\n      add\n      0x00\n      swap1\n      sload\n      swap1\n      0x0100\n      exp\n      swap1\n      div\n      0xff\n      and\n      iszero\n      iszero\n      iszero\n      iszero\n      dup2\n      mstore\n      0x20\n      add\n      0x08\n      dup3\n      add\n      0x01\n      swap1\n      sload\n      swap1\n      0x0100\n      exp\n      swap1\n      div\n      0xff\n      and\n      iszero\n      iszero\n      iszero\n      iszero\n      dup2\n      mstore\n      0x20\n      add\n      0x08\n      dup3\n      add\n      0x02\n      swap1\n      sload\n      swap1\n      0x0100\n      exp\n      swap1\n      div\n      0xff\n      and\n      iszero\n      iszero\n      iszero\n      iszero\n      dup2\n      mstore\n      pop\n      pop\n      swap1\n      pop\n        /* \"wwcc-contracts/contracts/wwccPool.sol\":4514:4515  0 */\n      0x00\n        /* \"wwcc-contracts/contracts/wwccPool.sol\":4501:4505  pool */\n      dup2\n        /* \"wwcc-contracts/contracts/wwccPool.sol\":4501:4511  pool.basal */\n      0xe0\n      add\n      mload\n        /* \"wwcc-contracts/contracts/wwccPool.sol\":4501:4515  pool.basal > 0 */\n      gt\n        /* \"wwcc-contracts/contracts/wwccPool.sol\":4497:4580  if (pool.basal > 0){... */\n      iszero\n      tag_140\n      jumpi\n        /* \"wwcc-contracts/contracts/wwccPool.sol\":4533:4566  revert(\"pool basal has been set\") */\n      mload(0x40)\n      0x08c379a000000000000000000000000000000000000000000000000000000000\n      dup2\n      mstore\n      0x04\n      add\n      tag_141\n      swap1\n      tag_142\n      jump\t// in\n    tag_141:\n      mload(0x40)\n      dup1\n      swap2\n      sub\n      swap1\n      revert\n        /* \"wwcc-contracts/contracts/wwccPool.sol\":4497:4580  if (pool.basal > 0){... */\n    tag_140:\n        /* \"wwcc-contracts/contracts/wwccPool.sol\":4612:4617  basal */\n      dup3\n        /* \"wwcc-contracts/contracts/wwccPool.sol\":4596:4609  nextBasalLast */\n      sload(0x01)\n        /* \"wwcc-contracts/contracts/wwccPool.sol\":4596:4617  nextBasalLast > basal */\n      gt\n        /* \"wwcc-contracts/contracts/wwccPool.sol\":4592:4675  if (nextBasalLast > basal){... */\n      iszero\n      tag_143\n      jumpi\n        /* \"wwcc-contracts/contracts/wwccPool.sol\":4635:4661  revert(\"not enough basal\") */\n      mload(0x40)\n      0x08c379a000000000000000000000000000000000000000000000000000000000\n      dup2\n      mstore\n      0x04\n      add\n      tag_144\n      swap1\n      tag_145\n      jump\t// in\n    tag_144:\n      mload(0x40)\n      dup1\n      swap2\n      sub\n      swap1\n      revert\n        /* \"wwcc-contracts/contracts/wwccPool.sol\":4592:4675  if (nextBasalLast > basal){... */\n    tag_143:\n        /* \"wwcc-contracts/contracts/wwccPool.sol\":4701:4706  basal */\n      dup3\n        /* \"wwcc-contracts/contracts/wwccPool.sol\":4687:4691  pool */\n      dup2\n        /* \"wwcc-contracts/contracts/wwccPool.sol\":4687:4697  pool.basal */\n      0xe0\n      add\n        /* \"wwcc-contracts/contracts/wwccPool.sol\":4687:4706  pool.basal += basal */\n      dup2\n      dup2\n      mload\n      tag_146\n      swap2\n      swap1\n      tag_18\n      jump\t// in\n    tag_146:\n      swap2\n      pop\n      dup2\n      dup2\n      mstore\n      pop\n      pop\n        /* \"wwcc-contracts/contracts/wwccPool.sol\":4737:4742  basal */\n      dup3\n        /* \"wwcc-contracts/contracts/wwccPool.sol\":4719:4732  nextBasalLast */\n      0x01\n      0x00\n        /* \"wwcc-contracts/contracts/wwccPool.sol\":4719:4742  nextBasalLast -=  basal */\n      dup3\n      dup3\n      sload\n      tag_147\n      swap2\n      swap1\n      tag_148\n      jump\t// in\n    tag_147:\n      swap3\n      pop\n      pop\n      dup2\n      swap1\n      sstore\n      pop\n        /* \"wwcc-contracts/contracts/wwccPool.sol\":4762:4766  true */\n      0x01\n        /* \"wwcc-contracts/contracts/wwccPool.sol\":4755:4766  return true */\n      swap2\n      pop\n      pop\n        /* \"wwcc-contracts/contracts/wwccPool.sol\":4261:4783  function Set_Basal(bytes32 poolKey,uint256 basal) external onlyManager  returns (bool){... */\n      swap3\n      swap2\n      pop\n      pop\n      jump\t// out\n        /* \"wwcc-contracts/contracts/wwccPool.sol\":1968:2857  function Set_Pool(... */\n    tag_38:\n        /* \"wwcc-contracts/contracts/wwccPool.sol\":2115:2122  bytes32 */\n      0x00\n        /* \"wwcc-contracts/contracts/wwccPool.sol\":12970:12975  owner */\n      dup1\n      0x00\n      swap1\n      sload\n      swap1\n      0x0100\n      exp\n      swap1\n      div\n      0xffffffffffffffffffffffffffffffffffffffff\n      and\n        /* \"wwcc-contracts/contracts/wwccPool.sol\":12956:12975  msg.sender == owner */\n      0xffffffffffffffffffffffffffffffffffffffff\n      and\n        /* \"wwcc-contracts/contracts/wwccPool.sol\":12956:12966  msg.sender */\n      caller\n        /* \"wwcc-contracts/contracts/wwccPool.sol\":12956:12975  msg.sender == owner */\n      0xffffffffffffffffffffffffffffffffffffffff\n      and\n      eq\n        /* \"wwcc-contracts/contracts/wwccPool.sol\":12935:13026  require(... */\n      tag_150\n      jumpi\n      mload(0x40)\n      0x08c379a000000000000000000000000000000000000000000000000000000000\n      dup2\n      mstore\n      0x04\n      add\n      tag_151\n      swap1\n      tag_81\n      jump\t// in\n    tag_151:\n      mload(0x40)\n      dup1\n      swap2\n      sub\n      swap1\n      revert\n    tag_150:\n        /* \"wwcc-contracts/contracts/wwccPool.sol\":2133:2149  string memory s1 */\n      0x00\n        /* \"wwcc-contracts/contracts/wwccPool.sol\":2152:2173  strConcat(home,visit) */\n      tag_153\n        /* \"wwcc-contracts/contracts/wwccPool.sol\":2162:2166  home */\n      dup7\n        /* \"wwcc-contracts/contracts/wwccPool.sol\":2167:2172  visit */\n      dup7\n        /* \"wwcc-contracts/contracts/wwccPool.sol\":2152:2161  strConcat */\n      tag_154\n        /* \"wwcc-contracts/contracts/wwccPool.sol\":2152:2173  strConcat(home,visit) */\n      jump\t// in\n    tag_153:\n        /* \"wwcc-contracts/contracts/wwccPool.sol\":2133:2173  string memory s1 = strConcat(home,visit) */\n      swap1\n      pop\n        /* \"wwcc-contracts/contracts/wwccPool.sol\":2182:2198  string memory s2 */\n      0x00\n        /* \"wwcc-contracts/contracts/wwccPool.sol\":2201:2221  strConcat(s1,rounds) */\n      tag_155\n        /* \"wwcc-contracts/contracts/wwccPool.sol\":2211:2213  s1 */\n      dup3\n        /* \"wwcc-contracts/contracts/wwccPool.sol\":2214:2220  rounds */\n      dup7\n        /* \"wwcc-contracts/contracts/wwccPool.sol\":2201:2210  strConcat */\n      tag_154\n        /* \"wwcc-contracts/contracts/wwccPool.sol\":2201:2221  strConcat(s1,rounds) */\n      jump\t// in\n    tag_155:\n        /* \"wwcc-contracts/contracts/wwccPool.sol\":2182:2221  string memory s2 = strConcat(s1,rounds) */\n      swap1\n      pop\n        /* \"wwcc-contracts/contracts/wwccPool.sol\":2230:2245  bytes32 poolKey */\n      0x00\n        /* \"wwcc-contracts/contracts/wwccPool.sol\":2275:2277  s2 */\n      dup2\n        /* \"wwcc-contracts/contracts/wwccPool.sol\":2258:2278  abi.encodePacked(s2) */\n      add(0x20, mload(0x40))\n      tag_156\n      swap2\n      swap1\n      tag_157\n      jump\t// in\n    tag_156:\n      mload(0x40)\n      0x20\n      dup2\n      dup4\n      sub\n      sub\n      dup2\n      mstore\n      swap1\n      0x40\n      mstore\n        /* \"wwcc-contracts/contracts/wwccPool.sol\":2248:2279  keccak256(abi.encodePacked(s2)) */\n      dup1\n      mload\n      swap1\n      0x20\n      add\n      keccak256\n        /* \"wwcc-contracts/contracts/wwccPool.sol\":2230:2279  bytes32 poolKey = keccak256(abi.encodePacked(s2)) */\n      swap1\n      pop\n        /* \"wwcc-contracts/contracts/wwccPool.sol\":2291:2308  contains(poolKey) */\n      tag_158\n        /* \"wwcc-contracts/contracts/wwccPool.sol\":2300:2307  poolKey */\n      dup2\n        /* \"wwcc-contracts/contracts/wwccPool.sol\":2291:2299  contains */\n      tag_84\n        /* \"wwcc-contracts/contracts/wwccPool.sol\":2291:2308  contains(poolKey) */\n      jump\t// in\n    tag_158:\n        /* \"wwcc-contracts/contracts/wwccPool.sol\":2288:2828  if(contains(poolKey)) { ... */\n      iszero\n      tag_159\n      jumpi\n        /* \"wwcc-contracts/contracts/wwccPool.sol\":2325:2345  revert(\"pair exist\") */\n      mload(0x40)\n      0x08c379a000000000000000000000000000000000000000000000000000000000\n      dup2\n      mstore\n      0x04\n      add\n      tag_160\n      swap1\n      tag_161\n      jump\t// in\n    tag_160:\n      mload(0x40)\n      dup1\n      swap2\n      sub\n      swap1\n      revert\n        /* \"wwcc-contracts/contracts/wwccPool.sol\":2288:2828  if(contains(poolKey)) { ... */\n    tag_159:\n        /* \"wwcc-contracts/contracts/wwccPool.sol\":2396:2400  true */\n      0x01\n        /* \"wwcc-contracts/contracts/wwccPool.sol\":2372:2379  WcPools */\n      0x03\n        /* \"wwcc-contracts/contracts/wwccPool.sol\":2372:2388  WcPools[poolKey] */\n      0x00\n        /* \"wwcc-contracts/contracts/wwccPool.sol\":2380:2387  poolKey */\n      dup4\n        /* \"wwcc-contracts/contracts/wwccPool.sol\":2372:2388  WcPools[poolKey] */\n      dup2\n      mstore\n      0x20\n      add\n      swap1\n      dup2\n      mstore\n      0x20\n      add\n      0x00\n      keccak256\n        /* \"wwcc-contracts/contracts/wwccPool.sol\":2372:2393  WcPools[poolKey].used */\n      0x08\n      add\n      0x01\n        /* \"wwcc-contracts/contracts/wwccPool.sol\":2372:2400  WcPools[poolKey].used = true */\n      0x0100\n      exp\n      dup2\n      sload\n      dup2\n      0xff\n      mul\n      not\n      and\n      swap1\n      dup4\n      iszero\n      iszero\n      mul\n      or\n      swap1\n      sstore\n      pop\n        /* \"wwcc-contracts/contracts/wwccPool.sol\":2437:2441  home */\n      dup8\n        /* \"wwcc-contracts/contracts/wwccPool.sol\":2413:2420  WcPools */\n      0x03\n        /* \"wwcc-contracts/contracts/wwccPool.sol\":2413:2429  WcPools[poolKey] */\n      0x00\n        /* \"wwcc-contracts/contracts/wwccPool.sol\":2421:2428  poolKey */\n      dup4\n        /* \"wwcc-contracts/contracts/wwccPool.sol\":2413:2429  WcPools[poolKey] */\n      dup2\n      mstore\n      0x20\n      add\n      swap1\n      dup2\n      mstore\n      0x20\n      add\n      0x00\n      keccak256\n        /* \"wwcc-contracts/contracts/wwccPool.sol\":2413:2434  WcPools[poolKey].home */\n      0x00\n      add\n        /* \"wwcc-contracts/contracts/wwccPool.sol\":2413:2441  WcPools[poolKey].home = home */\n      swap1\n      dup1\n      mload\n      swap1\n      0x20\n      add\n      swap1\n      tag_163\n      swap3\n      swap2\n      swap1\n      tag_164\n      jump\t// in\n    tag_163:\n      pop\n        /* \"wwcc-contracts/contracts/wwccPool.sol\":2479:2484  visit */\n      dup7\n        /* \"wwcc-contracts/contracts/wwccPool.sol\":2454:2461  WcPools */\n      0x03\n        /* \"wwcc-contracts/contracts/wwccPool.sol\":2454:2470  WcPools[poolKey] */\n      0x00\n        /* \"wwcc-contracts/contracts/wwccPool.sol\":2462:2469  poolKey */\n      dup4\n        /* \"wwcc-contracts/contracts/wwccPool.sol\":2454:2470  WcPools[poolKey] */\n      dup2\n      mstore\n      0x20\n      add\n      swap1\n      dup2\n      mstore\n      0x20\n      add\n      0x00\n      keccak256\n        /* \"wwcc-contracts/contracts/wwccPool.sol\":2454:2476  WcPools[poolKey].visit */\n      0x01\n      add\n        /* \"wwcc-contracts/contracts/wwccPool.sol\":2454:2484  WcPools[poolKey].visit = visit */\n      swap1\n      dup1\n      mload\n      swap1\n      0x20\n      add\n      swap1\n      tag_165\n      swap3\n      swap2\n      swap1\n      tag_164\n      jump\t// in\n    tag_165:\n      pop\n        /* \"wwcc-contracts/contracts/wwccPool.sol\":2523:2529  rounds */\n      dup6\n        /* \"wwcc-contracts/contracts/wwccPool.sol\":2497:2504  WcPools */\n      0x03\n        /* \"wwcc-contracts/contracts/wwccPool.sol\":2497:2513  WcPools[poolKey] */\n      0x00\n        /* \"wwcc-contracts/contracts/wwccPool.sol\":2505:2512  poolKey */\n      dup4\n        /* \"wwcc-contracts/contracts/wwccPool.sol\":2497:2513  WcPools[poolKey] */\n      dup2\n      mstore\n      0x20\n      add\n      swap1\n      dup2\n      mstore\n      0x20\n      add\n      0x00\n      keccak256\n        /* \"wwcc-contracts/contracts/wwccPool.sol\":2497:2520  WcPools[poolKey].rounds */\n      0x02\n      add\n        /* \"wwcc-contracts/contracts/wwccPool.sol\":2497:2529  WcPools[poolKey].rounds = rounds */\n      swap1\n      dup1\n      mload\n      swap1\n      0x20\n      add\n      swap1\n      tag_166\n      swap3\n      swap2\n      swap1\n      tag_164\n      jump\t// in\n    tag_166:\n      pop\n        /* \"wwcc-contracts/contracts/wwccPool.sol\":2567:2568  0 */\n      0x00\n        /* \"wwcc-contracts/contracts/wwccPool.sol\":2542:2549  WcPools */\n      0x03\n        /* \"wwcc-contracts/contracts/wwccPool.sol\":2542:2558  WcPools[poolKey] */\n      0x00\n        /* \"wwcc-contracts/contracts/wwccPool.sol\":2550:2557  poolKey */\n      dup4\n        /* \"wwcc-contracts/contracts/wwccPool.sol\":2542:2558  WcPools[poolKey] */\n      dup2\n      mstore\n      0x20\n      add\n      swap1\n      dup2\n      mstore\n      0x20\n      add\n      0x00\n      keccak256\n        /* \"wwcc-contracts/contracts/wwccPool.sol\":2542:2564  WcPools[poolKey].wPool */\n      0x03\n      add\n        /* \"wwcc-contracts/contracts/wwccPool.sol\":2542:2568  WcPools[poolKey].wPool = 0 */\n      dup2\n      swap1\n      sstore\n      pop\n        /* \"wwcc-contracts/contracts/wwccPool.sol\":2606:2607  0 */\n      0x00\n        /* \"wwcc-contracts/contracts/wwccPool.sol\":2581:2588  WcPools */\n      0x03\n        /* \"wwcc-contracts/contracts/wwccPool.sol\":2581:2597  WcPools[poolKey] */\n      0x00\n        /* \"wwcc-contracts/contracts/wwccPool.sol\":2589:2596  poolKey */\n      dup4\n        /* \"wwcc-contracts/contracts/wwccPool.sol\":2581:2597  WcPools[poolKey] */\n      dup2\n      mstore\n      0x20\n      add\n      swap1\n      dup2\n      mstore\n      0x20\n      add\n      0x00\n      keccak256\n        /* \"wwcc-contracts/contracts/wwccPool.sol\":2581:2603  WcPools[poolKey].dPool */\n      0x04\n      add\n        /* \"wwcc-contracts/contracts/wwccPool.sol\":2581:2607  WcPools[poolKey].dPool = 0 */\n      dup2\n      swap1\n      sstore\n      pop\n        /* \"wwcc-contracts/contracts/wwccPool.sol\":2645:2646  0 */\n      0x00\n        /* \"wwcc-contracts/contracts/wwccPool.sol\":2620:2627  WcPools */\n      0x03\n        /* \"wwcc-contracts/contracts/wwccPool.sol\":2620:2636  WcPools[poolKey] */\n      0x00\n        /* \"wwcc-contracts/contracts/wwccPool.sol\":2628:2635  poolKey */\n      dup4\n        /* \"wwcc-contracts/contracts/wwccPool.sol\":2620:2636  WcPools[poolKey] */\n      dup2\n      mstore\n      0x20\n      add\n      swap1\n      dup2\n      mstore\n      0x20\n      add\n      0x00\n      keccak256\n        /* \"wwcc-contracts/contracts/wwccPool.sol\":2620:2642  WcPools[poolKey].lPool */\n      0x05\n      add\n        /* \"wwcc-contracts/contracts/wwccPool.sol\":2620:2646  WcPools[poolKey].lPool = 0 */\n      dup2\n      swap1\n      sstore\n      pop\n        /* \"wwcc-contracts/contracts/wwccPool.sol\":2684:2685  0 */\n      0x00\n        /* \"wwcc-contracts/contracts/wwccPool.sol\":2659:2666  WcPools */\n      0x03\n        /* \"wwcc-contracts/contracts/wwccPool.sol\":2659:2675  WcPools[poolKey] */\n      0x00\n        /* \"wwcc-contracts/contracts/wwccPool.sol\":2667:2674  poolKey */\n      dup4\n        /* \"wwcc-contracts/contracts/wwccPool.sol\":2659:2675  WcPools[poolKey] */\n      dup2\n      mstore\n      0x20\n      add\n      swap1\n      dup2\n      mstore\n      0x20\n      add\n      0x00\n      keccak256\n        /* \"wwcc-contracts/contracts/wwccPool.sol\":2659:2681  WcPools[poolKey].sPool */\n      0x06\n      add\n        /* \"wwcc-contracts/contracts/wwccPool.sol\":2659:2685  WcPools[poolKey].sPool = 0 */\n      dup2\n      swap1\n      sstore\n      pop\n        /* \"wwcc-contracts/contracts/wwccPool.sol\":2723:2724  0 */\n      0x00\n        /* \"wwcc-contracts/contracts/wwccPool.sol\":2698:2705  WcPools */\n      0x03\n        /* \"wwcc-contracts/contracts/wwccPool.sol\":2698:2714  WcPools[poolKey] */\n      0x00\n        /* \"wwcc-contracts/contracts/wwccPool.sol\":2706:2713  poolKey */\n      dup4\n        /* \"wwcc-contracts/contracts/wwccPool.sol\":2698:2714  WcPools[poolKey] */\n      dup2\n      mstore\n      0x20\n      add\n      swap1\n      dup2\n      mstore\n      0x20\n      add\n      0x00\n      keccak256\n        /* \"wwcc-contracts/contracts/wwccPool.sol\":2698:2720  WcPools[poolKey].basal */\n      0x07\n      add\n        /* \"wwcc-contracts/contracts/wwccPool.sol\":2698:2724  WcPools[poolKey].basal = 0 */\n      dup2\n      swap1\n      sstore\n      pop\n        /* \"wwcc-contracts/contracts/wwccPool.sol\":2764:2771  decided */\n      dup5\n        /* \"wwcc-contracts/contracts/wwccPool.sol\":2737:2744  WcPools */\n      0x03\n        /* \"wwcc-contracts/contracts/wwccPool.sol\":2737:2753  WcPools[poolKey] */\n      0x00\n        /* \"wwcc-contracts/contracts/wwccPool.sol\":2745:2752  poolKey */\n      dup4\n        /* \"wwcc-contracts/contracts/wwccPool.sol\":2737:2753  WcPools[poolKey] */\n      dup2\n      mstore\n      0x20\n      add\n      swap1\n      dup2\n      mstore\n      0x20\n      add\n      0x00\n      keccak256\n        /* \"wwcc-contracts/contracts/wwccPool.sol\":2737:2761  WcPools[poolKey].decided */\n      0x08\n      add\n      0x00\n        /* \"wwcc-contracts/contracts/wwccPool.sol\":2737:2771  WcPools[poolKey].decided = decided */\n      0x0100\n      exp\n      dup2\n      sload\n      dup2\n      0xff\n      mul\n      not\n      and\n      swap1\n      dup4\n      iszero\n      iszero\n      mul\n      or\n      swap1\n      sstore\n      pop\n        /* \"wwcc-contracts/contracts/wwccPool.sol\":2812:2817  false */\n      0x00\n        /* \"wwcc-contracts/contracts/wwccPool.sol\":2784:2791  WcPools */\n      0x03\n        /* \"wwcc-contracts/contracts/wwccPool.sol\":2784:2800  WcPools[poolKey] */\n      0x00\n        /* \"wwcc-contracts/contracts/wwccPool.sol\":2792:2799  poolKey */\n      dup4\n        /* \"wwcc-contracts/contracts/wwccPool.sol\":2784:2800  WcPools[poolKey] */\n      dup2\n      mstore\n      0x20\n      add\n      swap1\n      dup2\n      mstore\n      0x20\n      add\n      0x00\n      keccak256\n        /* \"wwcc-contracts/contracts/wwccPool.sol\":2784:2809  WcPools[poolKey].finished */\n      0x08\n      add\n      0x02\n        /* \"wwcc-contracts/contracts/wwccPool.sol\":2784:2817  WcPools[poolKey].finished = false */\n      0x0100\n      exp\n      dup2\n      sload\n      dup2\n      0xff\n      mul\n      not\n      and\n      swap1\n      dup4\n      iszero\n      iszero\n      mul\n      or\n      swap1\n      sstore\n      pop\n        /* \"wwcc-contracts/contracts/wwccPool.sol\":2843:2850  poolKey */\n      dup1\n        /* \"wwcc-contracts/contracts/wwccPool.sol\":2836:2850  return poolKey */\n      swap4\n      pop\n      pop\n      pop\n      pop\n        /* \"wwcc-contracts/contracts/wwccPool.sol\":1968:2857  function Set_Pool(... */\n      swap5\n      swap4\n      pop\n      pop\n      pop\n      pop\n      jump\t// out\n        /* \"wwcc-contracts/contracts/wwccPool.sol\":6441:6547  function CheckBasal() external onlyManager view  returns (uint256){... */\n    tag_43:\n        /* \"wwcc-contracts/contracts/wwccPool.sol\":6499:6506  uint256 */\n      0x00\n        /* \"wwcc-contracts/contracts/wwccPool.sol\":12970:12975  owner */\n      dup1\n      0x00\n      swap1\n      sload\n      swap1\n      0x0100\n      exp\n      swap1\n      div\n      0xffffffffffffffffffffffffffffffffffffffff\n      and\n        /* \"wwcc-contracts/contracts/wwccPool.sol\":12956:12975  msg.sender == owner */\n      0xffffffffffffffffffffffffffffffffffffffff\n      and\n        /* \"wwcc-contracts/contracts/wwccPool.sol\":12956:12966  msg.sender */\n      caller\n        /* \"wwcc-contracts/contracts/wwccPool.sol\":12956:12975  msg.sender == owner */\n      0xffffffffffffffffffffffffffffffffffffffff\n      and\n      eq\n        /* \"wwcc-contracts/contracts/wwccPool.sol\":12935:13026  require(... */\n      tag_168\n      jumpi\n      mload(0x40)\n      0x08c379a000000000000000000000000000000000000000000000000000000000\n      dup2\n      mstore\n      0x04\n      add\n      tag_169\n      swap1\n      tag_81\n      jump\t// in\n    tag_169:\n      mload(0x40)\n      dup1\n      swap2\n      sub\n      swap1\n      revert\n    tag_168:\n        /* \"wwcc-contracts/contracts/wwccPool.sol\":6527:6540  nextBasalLast */\n      sload(0x01)\n        /* \"wwcc-contracts/contracts/wwccPool.sol\":6520:6540  return nextBasalLast */\n      swap1\n      pop\n        /* \"wwcc-contracts/contracts/wwccPool.sol\":6441:6547  function CheckBasal() external onlyManager view  returns (uint256){... */\n      swap1\n      jump\t// out\n        /* \"wwcc-contracts/contracts/wwccPool.sol\":6021:6379  function CheckExpect(bytes32 poolKey) external onlyManager view  returns (uint256){... */\n    tag_50:\n        /* \"wwcc-contracts/contracts/wwccPool.sol\":6095:6102  uint256 */\n      0x00\n        /* \"wwcc-contracts/contracts/wwccPool.sol\":12970:12975  owner */\n      dup1\n      0x00\n      swap1\n      sload\n      swap1\n      0x0100\n      exp\n      swap1\n      div\n      0xffffffffffffffffffffffffffffffffffffffff\n      and\n        /* \"wwcc-contracts/contracts/wwccPool.sol\":12956:12975  msg.sender == owner */\n      0xffffffffffffffffffffffffffffffffffffffff\n      and\n        /* \"wwcc-contracts/contracts/wwccPool.sol\":12956:12966  msg.sender */\n      caller\n        /* \"wwcc-contracts/contracts/wwccPool.sol\":12956:12975  msg.sender == owner */\n      0xffffffffffffffffffffffffffffffffffffffff\n      and\n      eq\n        /* \"wwcc-contracts/contracts/wwccPool.sol\":12935:13026  require(... */\n      tag_172\n      jumpi\n      mload(0x40)\n      0x08c379a000000000000000000000000000000000000000000000000000000000\n      dup2\n      mstore\n      0x04\n      add\n      tag_173\n      swap1\n      tag_81\n      jump\t// in\n    tag_173:\n      mload(0x40)\n      dup1\n      swap2\n      sub\n      swap1\n      revert\n    tag_172:\n        /* \"wwcc-contracts/contracts/wwccPool.sol\":6117:6134  contains(poolKey) */\n      tag_175\n        /* \"wwcc-contracts/contracts/wwccPool.sol\":6126:6133  poolKey */\n      dup3\n        /* \"wwcc-contracts/contracts/wwccPool.sol\":6117:6125  contains */\n      tag_84\n        /* \"wwcc-contracts/contracts/wwccPool.sol\":6117:6134  contains(poolKey) */\n      jump\t// in\n    tag_175:\n        /* \"wwcc-contracts/contracts/wwccPool.sol\":6113:6373  if(!contains(poolKey)) { ... */\n      tag_176\n      jumpi\n        /* \"wwcc-contracts/contracts/wwccPool.sol\":6151:6175  revert(\"pool not exist\") */\n      mload(0x40)\n      0x08c379a000000000000000000000000000000000000000000000000000000000\n      dup2\n      mstore\n      0x04\n      add\n      tag_177\n      swap1\n      tag_87\n      jump\t// in\n    tag_177:\n      mload(0x40)\n      dup1\n      swap2\n      sub\n      swap1\n      revert\n        /* \"wwcc-contracts/contracts/wwccPool.sol\":6113:6373  if(!contains(poolKey)) { ... */\n    tag_176:\n        /* \"wwcc-contracts/contracts/wwccPool.sol\":6203:6221  WcPool memory pool */\n      0x00\n        /* \"wwcc-contracts/contracts/wwccPool.sol\":6224:6231  WcPools */\n      0x03\n        /* \"wwcc-contracts/contracts/wwccPool.sol\":6224:6240  WcPools[poolKey] */\n      0x00\n        /* \"wwcc-contracts/contracts/wwccPool.sol\":6232:6239  poolKey */\n      dup5\n        /* \"wwcc-contracts/contracts/wwccPool.sol\":6224:6240  WcPools[poolKey] */\n      dup2\n      mstore\n      0x20\n      add\n      swap1\n      dup2\n      mstore\n      0x20\n      add\n      0x00\n      keccak256\n        /* \"wwcc-contracts/contracts/wwccPool.sol\":6203:6240  WcPool memory pool = WcPools[poolKey] */\n      mload(0x40)\n      dup1\n      0x0160\n      add\n      0x40\n      mstore\n      swap1\n      dup2\n      0x00\n      dup3\n      add\n      dup1\n      sload\n      tag_179\n      swap1\n      tag_90\n      jump\t// in\n    tag_179:\n      dup1\n      0x1f\n      add\n      0x20\n      dup1\n      swap2\n      div\n      mul\n      0x20\n      add\n      mload(0x40)\n      swap1\n      dup2\n      add\n      0x40\n      mstore\n      dup1\n      swap3\n      swap2\n      swap1\n      dup2\n      dup2\n      mstore\n      0x20\n      add\n      dup3\n      dup1\n      sload\n      tag_180\n      swap1\n      tag_90\n      jump\t// in\n    tag_180:\n      dup1\n      iszero\n      tag_181\n      jumpi\n      dup1\n      0x1f\n      lt\n      tag_182\n      jumpi\n      0x0100\n      dup1\n      dup4\n      sload\n      div\n      mul\n      dup4\n      mstore\n      swap2\n      0x20\n      add\n      swap2\n      jump(tag_181)\n    tag_182:\n      dup3\n      add\n      swap2\n      swap1\n      0x00\n      mstore\n      keccak256(0x00, 0x20)\n      swap1\n    tag_183:\n      dup2\n      sload\n      dup2\n      mstore\n      swap1\n      0x01\n      add\n      swap1\n      0x20\n      add\n      dup1\n      dup4\n      gt\n      tag_183\n      jumpi\n      dup3\n      swap1\n      sub\n      0x1f\n      and\n      dup3\n      add\n      swap2\n    tag_181:\n      pop\n      pop\n      pop\n      pop\n      pop\n      dup2\n      mstore\n      0x20\n      add\n      0x01\n      dup3\n      add\n      dup1\n      sload\n      tag_184\n      swap1\n      tag_90\n      jump\t// in\n    tag_184:\n      dup1\n      0x1f\n      add\n      0x20\n      dup1\n      swap2\n      div\n      mul\n      0x20\n      add\n      mload(0x40)\n      swap1\n      dup2\n      add\n      0x40\n      mstore\n      dup1\n      swap3\n      swap2\n      swap1\n      dup2\n      dup2\n      mstore\n      0x20\n      add\n      dup3\n      dup1\n      sload\n      tag_185\n      swap1\n      tag_90\n      jump\t// in\n    tag_185:\n      dup1\n      iszero\n      tag_186\n      jumpi\n      dup1\n      0x1f\n      lt\n      tag_187\n      jumpi\n      0x0100\n      dup1\n      dup4\n      sload\n      div\n      mul\n      dup4\n      mstore\n      swap2\n      0x20\n      add\n      swap2\n      jump(tag_186)\n    tag_187:\n      dup3\n      add\n      swap2\n      swap1\n      0x00\n      mstore\n      keccak256(0x00, 0x20)\n      swap1\n    tag_188:\n      dup2\n      sload\n      dup2\n      mstore\n      swap1\n      0x01\n      add\n      swap1\n      0x20\n      add\n      dup1\n      dup4\n      gt\n      tag_188\n      jumpi\n      dup3\n      swap1\n      sub\n      0x1f\n      and\n      dup3\n      add\n      swap2\n    tag_186:\n      pop\n      pop\n      pop\n      pop\n      pop\n      dup2\n      mstore\n      0x20\n      add\n      0x02\n      dup3\n      add\n      dup1\n      sload\n      tag_189\n      swap1\n      tag_90\n      jump\t// in\n    tag_189:\n      dup1\n      0x1f\n      add\n      0x20\n      dup1\n      swap2\n      div\n      mul\n      0x20\n      add\n      mload(0x40)\n      swap1\n      dup2\n      add\n      0x40\n      mstore\n      dup1\n      swap3\n      swap2\n      swap1\n      dup2\n      dup2\n      mstore\n      0x20\n      add\n      dup3\n      dup1\n      sload\n      tag_190\n      swap1\n      tag_90\n      jump\t// in\n    tag_190:\n      dup1\n      iszero\n      tag_191\n      jumpi\n      dup1\n      0x1f\n      lt\n      tag_192\n      jumpi\n      0x0100\n      dup1\n      dup4\n      sload\n      div\n      mul\n      dup4\n      mstore\n      swap2\n      0x20\n      add\n      swap2\n      jump(tag_191)\n    tag_192:\n      dup3\n      add\n      swap2\n      swap1\n      0x00\n      mstore\n      keccak256(0x00, 0x20)\n      swap1\n    tag_193:\n      dup2\n      sload\n      dup2\n      mstore\n      swap1\n      0x01\n      add\n      swap1\n      0x20\n      add\n      dup1\n      dup4\n      gt\n      tag_193\n      jumpi\n      dup3\n      swap1\n      sub\n      0x1f\n      and\n      dup3\n      add\n      swap2\n    tag_191:\n      pop\n      pop\n      pop\n      pop\n      pop\n      dup2\n      mstore\n      0x20\n      add\n      0x03\n      dup3\n      add\n      sload\n      dup2\n      mstore\n      0x20\n      add\n      0x04\n      dup3\n      add\n      sload\n      dup2\n      mstore\n      0x20\n      add\n      0x05\n      dup3\n      add\n      sload\n      dup2\n      mstore\n      0x20\n      add\n      0x06\n      dup3\n      add\n      sload\n      dup2\n      mstore\n      0x20\n      add\n      0x07\n      dup3\n      add\n      sload\n      dup2\n      mstore\n      0x20\n      add\n      0x08\n      dup3\n      add\n      0x00\n      swap1\n      sload\n      swap1\n      0x0100\n      exp\n      swap1\n      div\n      0xff\n      and\n      iszero\n      iszero\n      iszero\n      iszero\n      dup2\n      mstore\n      0x20\n      add\n      0x08\n      dup3\n      add\n      0x01\n      swap1\n      sload\n      swap1\n      0x0100\n      exp\n      swap1\n      div\n      0xff\n      and\n      iszero\n      iszero\n      iszero\n      iszero\n      dup2\n      mstore\n      0x20\n      add\n      0x08\n      dup3\n      add\n      0x02\n      swap1\n      sload\n      swap1\n      0x0100\n      exp\n      swap1\n      div\n      0xff\n      and\n      iszero\n      iszero\n      iszero\n      iszero\n      dup2\n      mstore\n      pop\n      pop\n      swap1\n      pop\n        /* \"wwcc-contracts/contracts/wwccPool.sol\":6253:6267  uint256 expect */\n      0x00\n        /* \"wwcc-contracts/contracts/wwccPool.sol\":6270:6336  (pool.wPool+pool.lPool+pool.dPool+pool.sPool + pool.basal).div(10) */\n      tag_194\n        /* \"wwcc-contracts/contracts/wwccPool.sol\":6333:6335  10 */\n      0x0a\n        /* \"wwcc-contracts/contracts/wwccPool.sol\":6317:6321  pool */\n      dup4\n        /* \"wwcc-contracts/contracts/wwccPool.sol\":6317:6327  pool.basal */\n      0xe0\n      add\n      mload\n        /* \"wwcc-contracts/contracts/wwccPool.sol\":6304:6308  pool */\n      dup5\n        /* \"wwcc-contracts/contracts/wwccPool.sol\":6304:6314  pool.sPool */\n      0xc0\n      add\n      mload\n        /* \"wwcc-contracts/contracts/wwccPool.sol\":6293:6297  pool */\n      dup6\n        /* \"wwcc-contracts/contracts/wwccPool.sol\":6293:6303  pool.dPool */\n      0x80\n      add\n      mload\n        /* \"wwcc-contracts/contracts/wwccPool.sol\":6282:6286  pool */\n      dup7\n        /* \"wwcc-contracts/contracts/wwccPool.sol\":6282:6292  pool.lPool */\n      0xa0\n      add\n      mload\n        /* \"wwcc-contracts/contracts/wwccPool.sol\":6271:6275  pool */\n      dup8\n        /* \"wwcc-contracts/contracts/wwccPool.sol\":6271:6281  pool.wPool */\n      0x60\n      add\n      mload\n        /* \"wwcc-contracts/contracts/wwccPool.sol\":6271:6292  pool.wPool+pool.lPool */\n      tag_195\n      swap2\n      swap1\n      tag_18\n      jump\t// in\n    tag_195:\n        /* \"wwcc-contracts/contracts/wwccPool.sol\":6271:6303  pool.wPool+pool.lPool+pool.dPool */\n      tag_196\n      swap2\n      swap1\n      tag_18\n      jump\t// in\n    tag_196:\n        /* \"wwcc-contracts/contracts/wwccPool.sol\":6271:6314  pool.wPool+pool.lPool+pool.dPool+pool.sPool */\n      tag_197\n      swap2\n      swap1\n      tag_18\n      jump\t// in\n    tag_197:\n        /* \"wwcc-contracts/contracts/wwccPool.sol\":6271:6327  pool.wPool+pool.lPool+pool.dPool+pool.sPool + pool.basal */\n      tag_198\n      swap2\n      swap1\n      tag_18\n      jump\t// in\n    tag_198:\n        /* \"wwcc-contracts/contracts/wwccPool.sol\":6270:6332  (pool.wPool+pool.lPool+pool.dPool+pool.sPool + pool.basal).div */\n      tag_110\n      swap1\n        /* \"wwcc-contracts/contracts/wwccPool.sol\":6270:6336  (pool.wPool+pool.lPool+pool.dPool+pool.sPool + pool.basal).div(10) */\n      swap2\n      swap1\n      0xffffffff\n      and\n      jump\t// in\n    tag_194:\n        /* \"wwcc-contracts/contracts/wwccPool.sol\":6253:6336  uint256 expect = (pool.wPool+pool.lPool+pool.dPool+pool.sPool + pool.basal).div(10) */\n      swap1\n      pop\n        /* \"wwcc-contracts/contracts/wwccPool.sol\":6356:6362  expect */\n      dup1\n        /* \"wwcc-contracts/contracts/wwccPool.sol\":6349:6362  return expect */\n      swap3\n      pop\n      pop\n      pop\n        /* \"wwcc-contracts/contracts/wwccPool.sol\":6021:6379  function CheckExpect(bytes32 poolKey) external onlyManager view  returns (uint256){... */\n      swap2\n      swap1\n      pop\n      jump\t// out\n        /* \"wwcc-contracts/contracts/wwccPool.sol\":2880:4206  function Picking(address joiner,uint256 weight,bytes32 poolKey,uint256 homeScore,uint256 visitScore,uint256 kind) external returns(bool){... */\n    tag_56:\n        /* \"wwcc-contracts/contracts/wwccPool.sol\":3011:3015  bool */\n      0x00\n        /* \"wwcc-contracts/contracts/wwccPool.sol\":3030:3047  contains(poolKey) */\n      tag_200\n        /* \"wwcc-contracts/contracts/wwccPool.sol\":3039:3046  poolKey */\n      dup6\n        /* \"wwcc-contracts/contracts/wwccPool.sol\":3030:3038  contains */\n      tag_84\n        /* \"wwcc-contracts/contracts/wwccPool.sol\":3030:3047  contains(poolKey) */\n      jump\t// in\n    tag_200:\n        /* \"wwcc-contracts/contracts/wwccPool.sol\":3026:4180  if(!contains(poolKey)) { ... */\n      tag_201\n      jumpi\n        /* \"wwcc-contracts/contracts/wwccPool.sol\":3064:3088  revert(\"pool not exist\") */\n      mload(0x40)\n      0x08c379a000000000000000000000000000000000000000000000000000000000\n      dup2\n      mstore\n      0x04\n      add\n      tag_202\n      swap1\n      tag_87\n      jump\t// in\n    tag_202:\n      mload(0x40)\n      dup1\n      swap2\n      sub\n      swap1\n      revert\n        /* \"wwcc-contracts/contracts/wwccPool.sol\":3026:4180  if(!contains(poolKey)) { ... */\n    tag_201:\n        /* \"wwcc-contracts/contracts/wwccPool.sol\":3137:3143  weight */\n      dup6\n        /* \"wwcc-contracts/contracts/wwccPool.sol\":3118:3128  voteAmount */\n      0x02\n        /* \"wwcc-contracts/contracts/wwccPool.sol\":3118:3136  voteAmount[joiner] */\n      0x00\n        /* \"wwcc-contracts/contracts/wwccPool.sol\":3129:3135  joiner */\n      dup10\n        /* \"wwcc-contracts/contracts/wwccPool.sol\":3118:3136  voteAmount[joiner] */\n      0xffffffffffffffffffffffffffffffffffffffff\n      and\n      0xffffffffffffffffffffffffffffffffffffffff\n      and\n      dup2\n      mstore\n      0x20\n      add\n      swap1\n      dup2\n      mstore\n      0x20\n      add\n      0x00\n      keccak256\n      sload\n        /* \"wwcc-contracts/contracts/wwccPool.sol\":3118:3143  voteAmount[joiner]<weight */\n      lt\n        /* \"wwcc-contracts/contracts/wwccPool.sol\":3115:3206  if(voteAmount[joiner]<weight){... */\n      iszero\n      tag_204\n      jumpi\n        /* \"wwcc-contracts/contracts/wwccPool.sol\":3161:3192  revert(\"not enough voteAmount\") */\n      mload(0x40)\n      0x08c379a000000000000000000000000000000000000000000000000000000000\n      dup2\n      mstore\n      0x04\n      add\n      tag_205\n      swap1\n      tag_206\n      jump\t// in\n    tag_205:\n      mload(0x40)\n      dup1\n      swap2\n      sub\n      swap1\n      revert\n        /* \"wwcc-contracts/contracts/wwccPool.sol\":3115:3206  if(voteAmount[joiner]<weight){... */\n    tag_204:\n        /* \"wwcc-contracts/contracts/wwccPool.sol\":3218:3236  WcPool memory pool */\n      0x00\n        /* \"wwcc-contracts/contracts/wwccPool.sol\":3239:3246  WcPools */\n      0x03\n        /* \"wwcc-contracts/contracts/wwccPool.sol\":3239:3255  WcPools[poolKey] */\n      0x00\n        /* \"wwcc-contracts/contracts/wwccPool.sol\":3247:3254  poolKey */\n      dup8\n        /* \"wwcc-contracts/contracts/wwccPool.sol\":3239:3255  WcPools[poolKey] */\n      dup2\n      mstore\n      0x20\n      add\n      swap1\n      dup2\n      mstore\n      0x20\n      add\n      0x00\n      keccak256\n        /* \"wwcc-contracts/contracts/wwccPool.sol\":3218:3255  WcPool memory pool = WcPools[poolKey] */\n      mload(0x40)\n      dup1\n      0x0160\n      add\n      0x40\n      mstore\n      swap1\n      dup2\n      0x00\n      dup3\n      add\n      dup1\n      sload\n      tag_207\n      swap1\n      tag_90\n      jump\t// in\n    tag_207:\n      dup1\n      0x1f\n      add\n      0x20\n      dup1\n      swap2\n      div\n      mul\n      0x20\n      add\n      mload(0x40)\n      swap1\n      dup2\n      add\n      0x40\n      mstore\n      dup1\n      swap3\n      swap2\n      swap1\n      dup2\n      dup2\n      mstore\n      0x20\n      add\n      dup3\n      dup1\n      sload\n      tag_208\n      swap1\n      tag_90\n      jump\t// in\n    tag_208:\n      dup1\n      iszero\n      tag_209\n      jumpi\n      dup1\n      0x1f\n      lt\n      tag_210\n      jumpi\n      0x0100\n      dup1\n      dup4\n      sload\n      div\n      mul\n      dup4\n      mstore\n      swap2\n      0x20\n      add\n      swap2\n      jump(tag_209)\n    tag_210:\n      dup3\n      add\n      swap2\n      swap1\n      0x00\n      mstore\n      keccak256(0x00, 0x20)\n      swap1\n    tag_211:\n      dup2\n      sload\n      dup2\n      mstore\n      swap1\n      0x01\n      add\n      swap1\n      0x20\n      add\n      dup1\n      dup4\n      gt\n      tag_211\n      jumpi\n      dup3\n      swap1\n      sub\n      0x1f\n      and\n      dup3\n      add\n      swap2\n    tag_209:\n      pop\n      pop\n      pop\n      pop\n      pop\n      dup2\n      mstore\n      0x20\n      add\n      0x01\n      dup3\n      add\n      dup1\n      sload\n      tag_212\n      swap1\n      tag_90\n      jump\t// in\n    tag_212:\n      dup1\n      0x1f\n      add\n      0x20\n      dup1\n      swap2\n      div\n      mul\n      0x20\n      add\n      mload(0x40)\n      swap1\n      dup2\n      add\n      0x40\n      mstore\n      dup1\n      swap3\n      swap2\n      swap1\n      dup2\n      dup2\n      mstore\n      0x20\n      add\n      dup3\n      dup1\n      sload\n      tag_213\n      swap1\n      tag_90\n      jump\t// in\n    tag_213:\n      dup1\n      iszero\n      tag_214\n      jumpi\n      dup1\n      0x1f\n      lt\n      tag_215\n      jumpi\n      0x0100\n      dup1\n      dup4\n      sload\n      div\n      mul\n      dup4\n      mstore\n      swap2\n      0x20\n      add\n      swap2\n      jump(tag_214)\n    tag_215:\n      dup3\n      add\n      swap2\n      swap1\n      0x00\n      mstore\n      keccak256(0x00, 0x20)\n      swap1\n    tag_216:\n      dup2\n      sload\n      dup2\n      mstore\n      swap1\n      0x01\n      add\n      swap1\n      0x20\n      add\n      dup1\n      dup4\n      gt\n      tag_216\n      jumpi\n      dup3\n      swap1\n      sub\n      0x1f\n      and\n      dup3\n      add\n      swap2\n    tag_214:\n      pop\n      pop\n      pop\n      pop\n      pop\n      dup2\n      mstore\n      0x20\n      add\n      0x02\n      dup3\n      add\n      dup1\n      sload\n      tag_217\n      swap1\n      tag_90\n      jump\t// in\n    tag_217:\n      dup1\n      0x1f\n      add\n      0x20\n      dup1\n      swap2\n      div\n      mul\n      0x20\n      add\n      mload(0x40)\n      swap1\n      dup2\n      add\n      0x40\n      mstore\n      dup1\n      swap3\n      swap2\n      swap1\n      dup2\n      dup2\n      mstore\n      0x20\n      add\n      dup3\n      dup1\n      sload\n      tag_218\n      swap1\n      tag_90\n      jump\t// in\n    tag_218:\n      dup1\n      iszero\n      tag_219\n      jumpi\n      dup1\n      0x1f\n      lt\n      tag_220\n      jumpi\n      0x0100\n      dup1\n      dup4\n      sload\n      div\n      mul\n      dup4\n      mstore\n      swap2\n      0x20\n      add\n      swap2\n      jump(tag_219)\n    tag_220:\n      dup3\n      add\n      swap2\n      swap1\n      0x00\n      mstore\n      keccak256(0x00, 0x20)\n      swap1\n    tag_221:\n      dup2\n      sload\n      dup2\n      mstore\n      swap1\n      0x01\n      add\n      swap1\n      0x20\n      add\n      dup1\n      dup4\n      gt\n      tag_221\n      jumpi\n      dup3\n      swap1\n      sub\n      0x1f\n      and\n      dup3\n      add\n      swap2\n    tag_219:\n      pop\n      pop\n      pop\n      pop\n      pop\n      dup2\n      mstore\n      0x20\n      add\n      0x03\n      dup3\n      add\n      sload\n      dup2\n      mstore\n      0x20\n      add\n      0x04\n      dup3\n      add\n      sload\n      dup2\n      mstore\n      0x20\n      add\n      0x05\n      dup3\n      add\n      sload\n      dup2\n      mstore\n      0x20\n      add\n      0x06\n      dup3\n      add\n      sload\n      dup2\n      mstore\n      0x20\n      add\n      0x07\n      dup3\n      add\n      sload\n      dup2\n      mstore\n      0x20\n      add\n      0x08\n      dup3\n      add\n      0x00\n      swap1\n      sload\n      swap1\n      0x0100\n      exp\n      swap1\n      div\n      0xff\n      and\n      iszero\n      iszero\n      iszero\n      iszero\n      dup2\n      mstore\n      0x20\n      add\n      0x08\n      dup3\n      add\n      0x01\n      swap1\n      sload\n      swap1\n      0x0100\n      exp\n      swap1\n      div\n      0xff\n      and\n      iszero\n      iszero\n      iszero\n      iszero\n      dup2\n      mstore\n      0x20\n      add\n      0x08\n      dup3\n      add\n      0x02\n      swap1\n      sload\n      swap1\n      0x0100\n      exp\n      swap1\n      div\n      0xff\n      and\n      iszero\n      iszero\n      iszero\n      iszero\n      dup2\n      mstore\n      pop\n      pop\n      swap1\n      pop\n        /* \"wwcc-contracts/contracts/wwccPool.sol\":3268:3285  string  memory si */\n      0x00\n        /* \"wwcc-contracts/contracts/wwccPool.sol\":3288:3353  strConcat(uint256ToString(homeScore),uint256ToString(visitScore)) */\n      tag_222\n        /* \"wwcc-contracts/contracts/wwccPool.sol\":3298:3324  uint256ToString(homeScore) */\n      tag_223\n        /* \"wwcc-contracts/contracts/wwccPool.sol\":3314:3323  homeScore */\n      dup8\n        /* \"wwcc-contracts/contracts/wwccPool.sol\":3298:3313  uint256ToString */\n      tag_224\n        /* \"wwcc-contracts/contracts/wwccPool.sol\":3298:3324  uint256ToString(homeScore) */\n      jump\t// in\n    tag_223:\n        /* \"wwcc-contracts/contracts/wwccPool.sol\":3325:3352  uint256ToString(visitScore) */\n      tag_225\n        /* \"wwcc-contracts/contracts/wwccPool.sol\":3341:3351  visitScore */\n      dup8\n        /* \"wwcc-contracts/contracts/wwccPool.sol\":3325:3340  uint256ToString */\n      tag_224\n        /* \"wwcc-contracts/contracts/wwccPool.sol\":3325:3352  uint256ToString(visitScore) */\n      jump\t// in\n    tag_225:\n        /* \"wwcc-contracts/contracts/wwccPool.sol\":3288:3297  strConcat */\n      tag_154\n        /* \"wwcc-contracts/contracts/wwccPool.sol\":3288:3353  strConcat(uint256ToString(homeScore),uint256ToString(visitScore)) */\n      jump\t// in\n    tag_222:\n        /* \"wwcc-contracts/contracts/wwccPool.sol\":3268:3353  string  memory si = strConcat(uint256ToString(homeScore),uint256ToString(visitScore)) */\n      swap1\n      pop\n        /* \"wwcc-contracts/contracts/wwccPool.sol\":3366:3391  string  memory pickingKey */\n      0x00\n        /* \"wwcc-contracts/contracts/wwccPool.sol\":3394:3432  strConcat(bytes32ToString(poolKey),si) */\n      tag_226\n        /* \"wwcc-contracts/contracts/wwccPool.sol\":3404:3428  bytes32ToString(poolKey) */\n      tag_227\n        /* \"wwcc-contracts/contracts/wwccPool.sol\":3420:3427  poolKey */\n      dup10\n        /* \"wwcc-contracts/contracts/wwccPool.sol\":3404:3419  bytes32ToString */\n      tag_228\n        /* \"wwcc-contracts/contracts/wwccPool.sol\":3404:3428  bytes32ToString(poolKey) */\n      jump\t// in\n    tag_227:\n        /* \"wwcc-contracts/contracts/wwccPool.sol\":3429:3431  si */\n      dup4\n        /* \"wwcc-contracts/contracts/wwccPool.sol\":3394:3403  strConcat */\n      tag_154\n        /* \"wwcc-contracts/contracts/wwccPool.sol\":3394:3432  strConcat(bytes32ToString(poolKey),si) */\n      jump\t// in\n    tag_226:\n        /* \"wwcc-contracts/contracts/wwccPool.sol\":3366:3432  string  memory pickingKey = strConcat(bytes32ToString(poolKey),si) */\n      swap1\n      pop\n        /* \"wwcc-contracts/contracts/wwccPool.sol\":3445:3468  JoinerPicking memory jp */\n      0x00\n        /* \"wwcc-contracts/contracts/wwccPool.sol\":3471:3542  JoinerPicking(weight,kind,homeScore,visitScore,joiner,pickingKey,false) */\n      mload(0x40)\n      dup1\n      0xe0\n      add\n      0x40\n      mstore\n      dup1\n        /* \"wwcc-contracts/contracts/wwccPool.sol\":3485:3491  weight */\n      dup12\n        /* \"wwcc-contracts/contracts/wwccPool.sol\":3471:3542  JoinerPicking(weight,kind,homeScore,visitScore,joiner,pickingKey,false) */\n      dup2\n      mstore\n      0x20\n      add\n        /* \"wwcc-contracts/contracts/wwccPool.sol\":3492:3496  kind */\n      dup8\n        /* \"wwcc-contracts/contracts/wwccPool.sol\":3471:3542  JoinerPicking(weight,kind,homeScore,visitScore,joiner,pickingKey,false) */\n      dup2\n      mstore\n      0x20\n      add\n        /* \"wwcc-contracts/contracts/wwccPool.sol\":3497:3506  homeScore */\n      dup10\n        /* \"wwcc-contracts/contracts/wwccPool.sol\":3471:3542  JoinerPicking(weight,kind,homeScore,visitScore,joiner,pickingKey,false) */\n      dup2\n      mstore\n      0x20\n      add\n        /* \"wwcc-contracts/contracts/wwccPool.sol\":3507:3517  visitScore */\n      dup9\n        /* \"wwcc-contracts/contracts/wwccPool.sol\":3471:3542  JoinerPicking(weight,kind,homeScore,visitScore,joiner,pickingKey,false) */\n      dup2\n      mstore\n      0x20\n      add\n        /* \"wwcc-contracts/contracts/wwccPool.sol\":3518:3524  joiner */\n      dup13\n        /* \"wwcc-contracts/contracts/wwccPool.sol\":3471:3542  JoinerPicking(weight,kind,homeScore,visitScore,joiner,pickingKey,false) */\n      0xffffffffffffffffffffffffffffffffffffffff\n      and\n      dup2\n      mstore\n      0x20\n      add\n        /* \"wwcc-contracts/contracts/wwccPool.sol\":3525:3535  pickingKey */\n      dup4\n        /* \"wwcc-contracts/contracts/wwccPool.sol\":3471:3542  JoinerPicking(weight,kind,homeScore,visitScore,joiner,pickingKey,false) */\n      dup2\n      mstore\n      0x20\n      add\n        /* \"wwcc-contracts/contracts/wwccPool.sol\":3536:3541  false */\n      0x00\n        /* \"wwcc-contracts/contracts/wwccPool.sol\":3471:3542  JoinerPicking(weight,kind,homeScore,visitScore,joiner,pickingKey,false) */\n      iszero\n      iszero\n      dup2\n      mstore\n      pop\n        /* \"wwcc-contracts/contracts/wwccPool.sol\":3445:3542  JoinerPicking memory jp = JoinerPicking(weight,kind,homeScore,visitScore,joiner,pickingKey,false) */\n      swap1\n      pop\n        /* \"wwcc-contracts/contracts/wwccPool.sol\":3591:3598  poolKey */\n      dup9\n        /* \"wwcc-contracts/contracts/wwccPool.sol\":3555:3571  allScorePoolInfo */\n      0x04\n        /* \"wwcc-contracts/contracts/wwccPool.sol\":3555:3580  allScorePoolInfo[poolKey] */\n      0x00\n        /* \"wwcc-contracts/contracts/wwccPool.sol\":3572:3579  poolKey */\n      dup12\n        /* \"wwcc-contracts/contracts/wwccPool.sol\":3555:3580  allScorePoolInfo[poolKey] */\n      dup2\n      mstore\n      0x20\n      add\n      swap1\n      dup2\n      mstore\n      0x20\n      add\n      0x00\n      keccak256\n        /* \"wwcc-contracts/contracts/wwccPool.sol\":3555:3588  allScorePoolInfo[poolKey].poolKey */\n      0x01\n      add\n        /* \"wwcc-contracts/contracts/wwccPool.sol\":3555:3598  allScorePoolInfo[poolKey].poolKey = poolKey */\n      dup2\n      swap1\n      sstore\n      pop\n        /* \"wwcc-contracts/contracts/wwccPool.sol\":3611:3627  allScorePoolInfo */\n      0x04\n        /* \"wwcc-contracts/contracts/wwccPool.sol\":3611:3636  allScorePoolInfo[poolKey] */\n      0x00\n        /* \"wwcc-contracts/contracts/wwccPool.sol\":3628:3635  poolKey */\n      dup11\n        /* \"wwcc-contracts/contracts/wwccPool.sol\":3611:3636  allScorePoolInfo[poolKey] */\n      dup2\n      mstore\n      0x20\n      add\n      swap1\n      dup2\n      mstore\n      0x20\n      add\n      0x00\n      keccak256\n        /* \"wwcc-contracts/contracts/wwccPool.sol\":3611:3648  allScorePoolInfo[poolKey].separateBet */\n      0x00\n      add\n        /* \"wwcc-contracts/contracts/wwccPool.sol\":3654:3656  jp */\n      dup2\n        /* \"wwcc-contracts/contracts/wwccPool.sol\":3611:3657  allScorePoolInfo[poolKey].separateBet.push(jp) */\n      swap1\n      dup1\n      0x01\n      dup2\n      sload\n      add\n      dup1\n      dup3\n      sstore\n      dup1\n      swap2\n      pop\n      pop\n      0x01\n      swap1\n      sub\n      swap1\n      0x00\n      mstore\n      keccak256(0x00, 0x20)\n      swap1\n      0x07\n      mul\n      add\n      0x00\n      swap1\n      swap2\n      swap1\n      swap2\n      swap1\n      swap2\n      pop\n      0x00\n      dup3\n      add\n      mload\n      dup2\n      0x00\n      add\n      sstore\n      0x20\n      dup3\n      add\n      mload\n      dup2\n      0x01\n      add\n      sstore\n      0x40\n      dup3\n      add\n      mload\n      dup2\n      0x02\n      add\n      sstore\n      0x60\n      dup3\n      add\n      mload\n      dup2\n      0x03\n      add\n      sstore\n      0x80\n      dup3\n      add\n      mload\n      dup2\n      0x04\n      add\n      exp(0x0100, 0x00)\n      dup2\n      sload\n      dup2\n      0xffffffffffffffffffffffffffffffffffffffff\n      mul\n      not\n      and\n      swap1\n      dup4\n      0xffffffffffffffffffffffffffffffffffffffff\n      and\n      mul\n      or\n      swap1\n      sstore\n      pop\n      0xa0\n      dup3\n      add\n      mload\n      dup2\n      0x05\n      add\n      swap1\n      dup1\n      mload\n      swap1\n      0x20\n      add\n      swap1\n      tag_230\n      swap3\n      swap2\n      swap1\n      tag_164\n      jump\t// in\n    tag_230:\n      pop\n      0xc0\n      dup3\n      add\n      mload\n      dup2\n      0x06\n      add\n      exp(0x0100, 0x00)\n      dup2\n      sload\n      dup2\n      0xff\n      mul\n      not\n      and\n      swap1\n      dup4\n      iszero\n      iszero\n      mul\n      or\n      swap1\n      sstore\n      pop\n      pop\n      pop\n        /* \"wwcc-contracts/contracts/wwccPool.sol\":3705:3711  joiner */\n      dup11\n        /* \"wwcc-contracts/contracts/wwccPool.sol\":3671:3687  joinerAllPicking */\n      0x06\n        /* \"wwcc-contracts/contracts/wwccPool.sol\":3671:3695  joinerAllPicking[joiner] */\n      0x00\n        /* \"wwcc-contracts/contracts/wwccPool.sol\":3688:3694  joiner */\n      dup14\n        /* \"wwcc-contracts/contracts/wwccPool.sol\":3671:3695  joinerAllPicking[joiner] */\n      0xffffffffffffffffffffffffffffffffffffffff\n      and\n      0xffffffffffffffffffffffffffffffffffffffff\n      and\n      dup2\n      mstore\n      0x20\n      add\n      swap1\n      dup2\n      mstore\n      0x20\n      add\n      0x00\n      keccak256\n        /* \"wwcc-contracts/contracts/wwccPool.sol\":3671:3702  joinerAllPicking[joiner].joiner */\n      0x01\n      add\n      0x00\n        /* \"wwcc-contracts/contracts/wwccPool.sol\":3671:3711  joinerAllPicking[joiner].joiner = joiner */\n      0x0100\n      exp\n      dup2\n      sload\n      dup2\n      0xffffffffffffffffffffffffffffffffffffffff\n      mul\n      not\n      and\n      swap1\n      dup4\n      0xffffffffffffffffffffffffffffffffffffffff\n      and\n      mul\n      or\n      swap1\n      sstore\n      pop\n        /* \"wwcc-contracts/contracts/wwccPool.sol\":3724:3740  allScorePoolInfo */\n      0x04\n        /* \"wwcc-contracts/contracts/wwccPool.sol\":3724:3749  allScorePoolInfo[poolKey] */\n      0x00\n        /* \"wwcc-contracts/contracts/wwccPool.sol\":3741:3748  poolKey */\n      dup11\n        /* \"wwcc-contracts/contracts/wwccPool.sol\":3724:3749  allScorePoolInfo[poolKey] */\n      dup2\n      mstore\n      0x20\n      add\n      swap1\n      dup2\n      mstore\n      0x20\n      add\n      0x00\n      keccak256\n        /* \"wwcc-contracts/contracts/wwccPool.sol\":3724:3761  allScorePoolInfo[poolKey].separateBet */\n      0x00\n      add\n        /* \"wwcc-contracts/contracts/wwccPool.sol\":3767:3769  jp */\n      dup2\n        /* \"wwcc-contracts/contracts/wwccPool.sol\":3724:3770  allScorePoolInfo[poolKey].separateBet.push(jp) */\n      swap1\n      dup1\n      0x01\n      dup2\n      sload\n      add\n      dup1\n      dup3\n      sstore\n      dup1\n      swap2\n      pop\n      pop\n      0x01\n      swap1\n      sub\n      swap1\n      0x00\n      mstore\n      keccak256(0x00, 0x20)\n      swap1\n      0x07\n      mul\n      add\n      0x00\n      swap1\n      swap2\n      swap1\n      swap2\n      swap1\n      swap2\n      pop\n      0x00\n      dup3\n      add\n      mload\n      dup2\n      0x00\n      add\n      sstore\n      0x20\n      dup3\n      add\n      mload\n      dup2\n      0x01\n      add\n      sstore\n      0x40\n      dup3\n      add\n      mload\n      dup2\n      0x02\n      add\n      sstore\n      0x60\n      dup3\n      add\n      mload\n      dup2\n      0x03\n      add\n      sstore\n      0x80\n      dup3\n      add\n      mload\n      dup2\n      0x04\n      add\n      exp(0x0100, 0x00)\n      dup2\n      sload\n      dup2\n      0xffffffffffffffffffffffffffffffffffffffff\n      mul\n      not\n      and\n      swap1\n      dup4\n      0xffffffffffffffffffffffffffffffffffffffff\n      and\n      mul\n      or\n      swap1\n      sstore\n      pop\n      0xa0\n      dup3\n      add\n      mload\n      dup2\n      0x05\n      add\n      swap1\n      dup1\n      mload\n      swap1\n      0x20\n      add\n      swap1\n      tag_232\n      swap3\n      swap2\n      swap1\n      tag_164\n      jump\t// in\n    tag_232:\n      pop\n      0xc0\n      dup3\n      add\n      mload\n      dup2\n      0x06\n      add\n      exp(0x0100, 0x00)\n      dup2\n      sload\n      dup2\n      0xff\n      mul\n      not\n      and\n      swap1\n      dup4\n      iszero\n      iszero\n      mul\n      or\n      swap1\n      sstore\n      pop\n      pop\n      pop\n        /* \"wwcc-contracts/contracts/wwccPool.sol\":3797:3798  2 */\n      0x02\n        /* \"wwcc-contracts/contracts/wwccPool.sol\":3789:3793  kind */\n      dup7\n        /* \"wwcc-contracts/contracts/wwccPool.sol\":3789:3798  kind == 2 */\n      eq\n        /* \"wwcc-contracts/contracts/wwccPool.sol\":3785:4117  if (kind == 2){... */\n      iszero\n      tag_233\n      jumpi\n        /* \"wwcc-contracts/contracts/wwccPool.sol\":3829:3835  weight */\n      dup10\n        /* \"wwcc-contracts/contracts/wwccPool.sol\":3815:3819  pool */\n      dup5\n        /* \"wwcc-contracts/contracts/wwccPool.sol\":3815:3825  pool.sPool */\n      0xc0\n      add\n        /* \"wwcc-contracts/contracts/wwccPool.sol\":3815:3835  pool.sPool += weight */\n      dup2\n      dup2\n      mload\n      tag_234\n      swap2\n      swap1\n      tag_18\n      jump\t// in\n    tag_234:\n      swap2\n      pop\n      dup2\n      dup2\n      mstore\n      pop\n      pop\n        /* \"wwcc-contracts/contracts/wwccPool.sol\":3882:3888  weight */\n      dup10\n        /* \"wwcc-contracts/contracts/wwccPool.sol\":3851:3866  singleScorePool */\n      0x05\n        /* \"wwcc-contracts/contracts/wwccPool.sol\":3867:3877  pickingKey */\n      dup4\n        /* \"wwcc-contracts/contracts/wwccPool.sol\":3851:3878  singleScorePool[pickingKey] */\n      mload(0x40)\n      tag_235\n      swap2\n      swap1\n      tag_157\n      jump\t// in\n    tag_235:\n      swap1\n      dup2\n      mstore\n      0x20\n      add\n      mload(0x40)\n      dup1\n      swap2\n      sub\n      swap1\n      keccak256\n      0x00\n        /* \"wwcc-contracts/contracts/wwccPool.sol\":3851:3888  singleScorePool[pickingKey] += weight */\n      dup3\n      dup3\n      sload\n      tag_236\n      swap2\n      swap1\n      tag_18\n      jump\t// in\n    tag_236:\n      swap3\n      pop\n      pop\n      dup2\n      swap1\n      sstore\n      pop\n        /* \"wwcc-contracts/contracts/wwccPool.sol\":3785:4117  if (kind == 2){... */\n      jump(tag_237)\n    tag_233:\n        /* \"wwcc-contracts/contracts/wwccPool.sol\":3932:3933  3 */\n      0x03\n        /* \"wwcc-contracts/contracts/wwccPool.sol\":3924:3928  kind */\n      dup7\n        /* \"wwcc-contracts/contracts/wwccPool.sol\":3924:3933  kind == 3 */\n      eq\n        /* \"wwcc-contracts/contracts/wwccPool.sol\":3921:4117  if(kind == 3){... */\n      iszero\n      tag_238\n      jumpi\n        /* \"wwcc-contracts/contracts/wwccPool.sol\":3966:3972  weight */\n      dup10\n        /* \"wwcc-contracts/contracts/wwccPool.sol\":3952:3956  pool */\n      dup5\n        /* \"wwcc-contracts/contracts/wwccPool.sol\":3952:3962  pool.wPool */\n      0x60\n      add\n        /* \"wwcc-contracts/contracts/wwccPool.sol\":3952:3972  pool.wPool += weight */\n      dup2\n      dup2\n      mload\n      tag_239\n      swap2\n      swap1\n      tag_18\n      jump\t// in\n    tag_239:\n      swap2\n      pop\n      dup2\n      dup2\n      mstore\n      pop\n      pop\n        /* \"wwcc-contracts/contracts/wwccPool.sol\":3921:4117  if(kind == 3){... */\n      jump(tag_240)\n    tag_238:\n        /* \"wwcc-contracts/contracts/wwccPool.sol\":4004:4005  1 */\n      0x01\n        /* \"wwcc-contracts/contracts/wwccPool.sol\":3996:4000  kind */\n      dup7\n        /* \"wwcc-contracts/contracts/wwccPool.sol\":3996:4005  kind == 1 */\n      eq\n        /* \"wwcc-contracts/contracts/wwccPool.sol\":3992:4117  if (kind == 1){... */\n      iszero\n      tag_241\n      jumpi\n        /* \"wwcc-contracts/contracts/wwccPool.sol\":4038:4044  weight */\n      dup10\n        /* \"wwcc-contracts/contracts/wwccPool.sol\":4024:4028  pool */\n      dup5\n        /* \"wwcc-contracts/contracts/wwccPool.sol\":4024:4034  pool.dPool */\n      0x80\n      add\n        /* \"wwcc-contracts/contracts/wwccPool.sol\":4024:4044  pool.dPool += weight */\n      dup2\n      dup2\n      mload\n      tag_242\n      swap2\n      swap1\n      tag_18\n      jump\t// in\n    tag_242:\n      swap2\n      pop\n      dup2\n      dup2\n      mstore\n      pop\n      pop\n        /* \"wwcc-contracts/contracts/wwccPool.sol\":3992:4117  if (kind == 1){... */\n      jump(tag_243)\n    tag_241:\n        /* \"wwcc-contracts/contracts/wwccPool.sol\":4096:4102  weight */\n      dup10\n        /* \"wwcc-contracts/contracts/wwccPool.sol\":4082:4086  pool */\n      dup5\n        /* \"wwcc-contracts/contracts/wwccPool.sol\":4082:4092  pool.lPool */\n      0xa0\n      add\n        /* \"wwcc-contracts/contracts/wwccPool.sol\":4082:4102  pool.lPool += weight */\n      dup2\n      dup2\n      mload\n      tag_244\n      swap2\n      swap1\n      tag_18\n      jump\t// in\n    tag_244:\n      swap2\n      pop\n      dup2\n      dup2\n      mstore\n      pop\n      pop\n        /* \"wwcc-contracts/contracts/wwccPool.sol\":3992:4117  if (kind == 1){... */\n    tag_243:\n        /* \"wwcc-contracts/contracts/wwccPool.sol\":3921:4117  if(kind == 3){... */\n    tag_240:\n        /* \"wwcc-contracts/contracts/wwccPool.sol\":3785:4117  if (kind == 2){... */\n    tag_237:\n        /* \"wwcc-contracts/contracts/wwccPool.sol\":4152:4158  weight */\n      dup10\n        /* \"wwcc-contracts/contracts/wwccPool.sol\":4130:4140  voteAmount */\n      0x02\n        /* \"wwcc-contracts/contracts/wwccPool.sol\":4130:4148  voteAmount[joiner] */\n      0x00\n        /* \"wwcc-contracts/contracts/wwccPool.sol\":4141:4147  joiner */\n      dup14\n        /* \"wwcc-contracts/contracts/wwccPool.sol\":4130:4148  voteAmount[joiner] */\n      0xffffffffffffffffffffffffffffffffffffffff\n      and\n      0xffffffffffffffffffffffffffffffffffffffff\n      and\n      dup2\n      mstore\n      0x20\n      add\n      swap1\n      dup2\n      mstore\n      0x20\n      add\n      0x00\n      keccak256\n      0x00\n        /* \"wwcc-contracts/contracts/wwccPool.sol\":4130:4158  voteAmount[joiner] -= weight */\n      dup3\n      dup3\n      sload\n      tag_245\n      swap2\n      swap1\n      tag_148\n      jump\t// in\n    tag_245:\n      swap3\n      pop\n      pop\n      dup2\n      swap1\n      sstore\n      pop\n        /* \"wwcc-contracts/contracts/wwccPool.sol\":3102:4180  {... */\n      pop\n      pop\n      pop\n      pop\n        /* \"wwcc-contracts/contracts/wwccPool.sol\":4195:4199  true */\n      0x01\n        /* \"wwcc-contracts/contracts/wwccPool.sol\":4188:4199  return true */\n      swap1\n      pop\n        /* \"wwcc-contracts/contracts/wwccPool.sol\":2880:4206  function Picking(address joiner,uint256 weight,bytes32 poolKey,uint256 homeScore,uint256 visitScore,uint256 kind) external returns(bool){... */\n      swap7\n      swap6\n      pop\n      pop\n      pop\n      pop\n      pop\n      pop\n      jump\t// out\n        /* \"wwcc-contracts/contracts/wwccPool.sol\":6765:10222  function Award(bytes32 poolKey,uint256 homeScore,uint256 visitScore,uint256 result)  external onlyManager  payable returns(bool){... */\n    tag_61:\n        /* \"wwcc-contracts/contracts/wwccPool.sol\":6888:6892  bool */\n      0x00\n        /* \"wwcc-contracts/contracts/wwccPool.sol\":12970:12975  owner */\n      dup1\n      0x00\n      swap1\n      sload\n      swap1\n      0x0100\n      exp\n      swap1\n      div\n      0xffffffffffffffffffffffffffffffffffffffff\n      and\n        /* \"wwcc-contracts/contracts/wwccPool.sol\":12956:12975  msg.sender == owner */\n      0xffffffffffffffffffffffffffffffffffffffff\n      and\n        /* \"wwcc-contracts/contracts/wwccPool.sol\":12956:12966  msg.sender */\n      caller\n        /* \"wwcc-contracts/contracts/wwccPool.sol\":12956:12975  msg.sender == owner */\n      0xffffffffffffffffffffffffffffffffffffffff\n      and\n      eq\n        /* \"wwcc-contracts/contracts/wwccPool.sol\":12935:13026  require(... */\n      tag_247\n      jumpi\n      mload(0x40)\n      0x08c379a000000000000000000000000000000000000000000000000000000000\n      dup2\n      mstore\n      0x04\n      add\n      tag_248\n      swap1\n      tag_81\n      jump\t// in\n    tag_248:\n      mload(0x40)\n      dup1\n      swap2\n      sub\n      swap1\n      revert\n    tag_247:\n        /* \"wwcc-contracts/contracts/wwccPool.sol\":6907:6924  contains(poolKey) */\n      tag_250\n        /* \"wwcc-contracts/contracts/wwccPool.sol\":6916:6923  poolKey */\n      dup6\n        /* \"wwcc-contracts/contracts/wwccPool.sol\":6907:6915  contains */\n      tag_84\n        /* \"wwcc-contracts/contracts/wwccPool.sol\":6907:6924  contains(poolKey) */\n      jump\t// in\n    tag_250:\n        /* \"wwcc-contracts/contracts/wwccPool.sol\":6903:10196  if(!contains(poolKey)) { ... */\n      tag_251\n      jumpi\n        /* \"wwcc-contracts/contracts/wwccPool.sol\":6941:6965  revert(\"pool not exist\") */\n      mload(0x40)\n      0x08c379a000000000000000000000000000000000000000000000000000000000\n      dup2\n      mstore\n      0x04\n      add\n      tag_252\n      swap1\n      tag_87\n      jump\t// in\n    tag_252:\n      mload(0x40)\n      dup1\n      swap2\n      sub\n      swap1\n      revert\n        /* \"wwcc-contracts/contracts/wwccPool.sol\":6903:10196  if(!contains(poolKey)) { ... */\n    tag_251:\n        /* \"wwcc-contracts/contracts/wwccPool.sol\":6992:7010  WcPool memory pool */\n      0x00\n        /* \"wwcc-contracts/contracts/wwccPool.sol\":7013:7020  WcPools */\n      0x03\n        /* \"wwcc-contracts/contracts/wwccPool.sol\":7013:7029  WcPools[poolKey] */\n      0x00\n        /* \"wwcc-contracts/contracts/wwccPool.sol\":7021:7028  poolKey */\n      dup8\n        /* \"wwcc-contracts/contracts/wwccPool.sol\":7013:7029  WcPools[poolKey] */\n      dup2\n      mstore\n      0x20\n      add\n      swap1\n      dup2\n      mstore\n      0x20\n      add\n      0x00\n      keccak256\n        /* \"wwcc-contracts/contracts/wwccPool.sol\":6992:7029  WcPool memory pool = WcPools[poolKey] */\n      mload(0x40)\n      dup1\n      0x0160\n      add\n      0x40\n      mstore\n      swap1\n      dup2\n      0x00\n      dup3\n      add\n      dup1\n      sload\n      tag_254\n      swap1\n      tag_90\n      jump\t// in\n    tag_254:\n      dup1\n      0x1f\n      add\n      0x20\n      dup1\n      swap2\n      div\n      mul\n      0x20\n      add\n      mload(0x40)\n      swap1\n      dup2\n      add\n      0x40\n      mstore\n      dup1\n      swap3\n      swap2\n      swap1\n      dup2\n      dup2\n      mstore\n      0x20\n      add\n      dup3\n      dup1\n      sload\n      tag_255\n      swap1\n      tag_90\n      jump\t// in\n    tag_255:\n      dup1\n      iszero\n      tag_256\n      jumpi\n      dup1\n      0x1f\n      lt\n      tag_257\n      jumpi\n      0x0100\n      dup1\n      dup4\n      sload\n      div\n      mul\n      dup4\n      mstore\n      swap2\n      0x20\n      add\n      swap2\n      jump(tag_256)\n    tag_257:\n      dup3\n      add\n      swap2\n      swap1\n      0x00\n      mstore\n      keccak256(0x00, 0x20)\n      swap1\n    tag_258:\n      dup2\n      sload\n      dup2\n      mstore\n      swap1\n      0x01\n      add\n      swap1\n      0x20\n      add\n      dup1\n      dup4\n      gt\n      tag_258\n      jumpi\n      dup3\n      swap1\n      sub\n      0x1f\n      and\n      dup3\n      add\n      swap2\n    tag_256:\n      pop\n      pop\n      pop\n      pop\n      pop\n      dup2\n      mstore\n      0x20\n      add\n      0x01\n      dup3\n      add\n      dup1\n      sload\n      tag_259\n      swap1\n      tag_90\n      jump\t// in\n    tag_259:\n      dup1\n      0x1f\n      add\n      0x20\n      dup1\n      swap2\n      div\n      mul\n      0x20\n      add\n      mload(0x40)\n      swap1\n      dup2\n      add\n      0x40\n      mstore\n      dup1\n      swap3\n      swap2\n      swap1\n      dup2\n      dup2\n      mstore\n      0x20\n      add\n      dup3\n      dup1\n      sload\n      tag_260\n      swap1\n      tag_90\n      jump\t// in\n    tag_260:\n      dup1\n      iszero\n      tag_261\n      jumpi\n      dup1\n      0x1f\n      lt\n      tag_262\n      jumpi\n      0x0100\n      dup1\n      dup4\n      sload\n      div\n      mul\n      dup4\n      mstore\n      swap2\n      0x20\n      add\n      swap2\n      jump(tag_261)\n    tag_262:\n      dup3\n      add\n      swap2\n      swap1\n      0x00\n      mstore\n      keccak256(0x00, 0x20)\n      swap1\n    tag_263:\n      dup2\n      sload\n      dup2\n      mstore\n      swap1\n      0x01\n      add\n      swap1\n      0x20\n      add\n      dup1\n      dup4\n      gt\n      tag_263\n      jumpi\n      dup3\n      swap1\n      sub\n      0x1f\n      and\n      dup3\n      add\n      swap2\n    tag_261:\n      pop\n      pop\n      pop\n      pop\n      pop\n      dup2\n      mstore\n      0x20\n      add\n      0x02\n      dup3\n      add\n      dup1\n      sload\n      tag_264\n      swap1\n      tag_90\n      jump\t// in\n    tag_264:\n      dup1\n      0x1f\n      add\n      0x20\n      dup1\n      swap2\n      div\n      mul\n      0x20\n      add\n      mload(0x40)\n      swap1\n      dup2\n      add\n      0x40\n      mstore\n      dup1\n      swap3\n      swap2\n      swap1\n      dup2\n      dup2\n      mstore\n      0x20\n      add\n      dup3\n      dup1\n      sload\n      tag_265\n      swap1\n      tag_90\n      jump\t// in\n    tag_265:\n      dup1\n      iszero\n      tag_266\n      jumpi\n      dup1\n      0x1f\n      lt\n      tag_267\n      jumpi\n      0x0100\n      dup1\n      dup4\n      sload\n      div\n      mul\n      dup4\n      mstore\n      swap2\n      0x20\n      add\n      swap2\n      jump(tag_266)\n    tag_267:\n      dup3\n      add\n      swap2\n      swap1\n      0x00\n      mstore\n      keccak256(0x00, 0x20)\n      swap1\n    tag_268:\n      dup2\n      sload\n      dup2\n      mstore\n      swap1\n      0x01\n      add\n      swap1\n      0x20\n      add\n      dup1\n      dup4\n      gt\n      tag_268\n      jumpi\n      dup3\n      swap1\n      sub\n      0x1f\n      and\n      dup3\n      add\n      swap2\n    tag_266:\n      pop\n      pop\n      pop\n      pop\n      pop\n      dup2\n      mstore\n      0x20\n      add\n      0x03\n      dup3\n      add\n      sload\n      dup2\n      mstore\n      0x20\n      add\n      0x04\n      dup3\n      add\n      sload\n      dup2\n      mstore\n      0x20\n      add\n      0x05\n      dup3\n      add\n      sload\n      dup2\n      mstore\n      0x20\n      add\n      0x06\n      dup3\n      add\n      sload\n      dup2\n      mstore\n      0x20\n      add\n      0x07\n      dup3\n      add\n      sload\n      dup2\n      mstore\n      0x20\n      add\n      0x08\n      dup3\n      add\n      0x00\n      swap1\n      sload\n      swap1\n      0x0100\n      exp\n      swap1\n      div\n      0xff\n      and\n      iszero\n      iszero\n      iszero\n      iszero\n      dup2\n      mstore\n      0x20\n      add\n      0x08\n      dup3\n      add\n      0x01\n      swap1\n      sload\n      swap1\n      0x0100\n      exp\n      swap1\n      div\n      0xff\n      and\n      iszero\n      iszero\n      iszero\n      iszero\n      dup2\n      mstore\n      0x20\n      add\n      0x08\n      dup3\n      add\n      0x02\n      swap1\n      sload\n      swap1\n      0x0100\n      exp\n      swap1\n      div\n      0xff\n      and\n      iszero\n      iszero\n      iszero\n      iszero\n      dup2\n      mstore\n      pop\n      pop\n      swap1\n      pop\n        /* \"wwcc-contracts/contracts/wwccPool.sol\":7060:7064  true */\n      0x01\n        /* \"wwcc-contracts/contracts/wwccPool.sol\":7046:7050  pool */\n      dup2\n        /* \"wwcc-contracts/contracts/wwccPool.sol\":7046:7059  pool.finished */\n      0x0140\n      add\n        /* \"wwcc-contracts/contracts/wwccPool.sol\":7046:7064  pool.finished=true */\n      swap1\n      iszero\n      iszero\n      swap1\n      dup2\n      iszero\n      iszero\n      dup2\n      mstore\n      pop\n        /* \"wwcc-contracts/contracts/wwccPool.sol\":7042:7123  if (pool.finished=true){... */\n      iszero\n      tag_269\n      jumpi\n        /* \"wwcc-contracts/contracts/wwccPool.sol\":7082:7109  revert(\"pool has finished\") */\n      mload(0x40)\n      0x08c379a000000000000000000000000000000000000000000000000000000000\n      dup2\n      mstore\n      0x04\n      add\n      tag_270\n      swap1\n      tag_271\n      jump\t// in\n    tag_270:\n      mload(0x40)\n      dup1\n      swap2\n      sub\n      swap1\n      revert\n        /* \"wwcc-contracts/contracts/wwccPool.sol\":7042:7123  if (pool.finished=true){... */\n    tag_269:\n        /* \"wwcc-contracts/contracts/wwccPool.sol\":7135:7170  JoinerPicking[] memory separateBets */\n      0x00\n        /* \"wwcc-contracts/contracts/wwccPool.sol\":7173:7189  allScorePoolInfo */\n      0x04\n        /* \"wwcc-contracts/contracts/wwccPool.sol\":7173:7198  allScorePoolInfo[poolKey] */\n      0x00\n        /* \"wwcc-contracts/contracts/wwccPool.sol\":7190:7197  poolKey */\n      dup9\n        /* \"wwcc-contracts/contracts/wwccPool.sol\":7173:7198  allScorePoolInfo[poolKey] */\n      dup2\n      mstore\n      0x20\n      add\n      swap1\n      dup2\n      mstore\n      0x20\n      add\n      0x00\n      keccak256\n        /* \"wwcc-contracts/contracts/wwccPool.sol\":7173:7210  allScorePoolInfo[poolKey].separateBet */\n      0x00\n      add\n        /* \"wwcc-contracts/contracts/wwccPool.sol\":7135:7210  JoinerPicking[] memory separateBets = allScorePoolInfo[poolKey].separateBet */\n      dup1\n      sload\n      dup1\n      0x20\n      mul\n      0x20\n      add\n      mload(0x40)\n      swap1\n      dup2\n      add\n      0x40\n      mstore\n      dup1\n      swap3\n      swap2\n      swap1\n      dup2\n      dup2\n      mstore\n      0x20\n      add\n      0x00\n      swap1\n    tag_272:\n      dup3\n      dup3\n      lt\n      iszero\n      tag_273\n      jumpi\n      dup4\n      dup3\n      swap1\n      0x00\n      mstore\n      keccak256(0x00, 0x20)\n      swap1\n      0x07\n      mul\n      add\n      mload(0x40)\n      dup1\n      0xe0\n      add\n      0x40\n      mstore\n      swap1\n      dup2\n      0x00\n      dup3\n      add\n      sload\n      dup2\n      mstore\n      0x20\n      add\n      0x01\n      dup3\n      add\n      sload\n      dup2\n      mstore\n      0x20\n      add\n      0x02\n      dup3\n      add\n      sload\n      dup2\n      mstore\n      0x20\n      add\n      0x03\n      dup3\n      add\n      sload\n      dup2\n      mstore\n      0x20\n      add\n      0x04\n      dup3\n      add\n      0x00\n      swap1\n      sload\n      swap1\n      0x0100\n      exp\n      swap1\n      div\n      0xffffffffffffffffffffffffffffffffffffffff\n      and\n      0xffffffffffffffffffffffffffffffffffffffff\n      and\n      0xffffffffffffffffffffffffffffffffffffffff\n      and\n      dup2\n      mstore\n      0x20\n      add\n      0x05\n      dup3\n      add\n      dup1\n      sload\n      tag_275\n      swap1\n      tag_90\n      jump\t// in\n    tag_275:\n      dup1\n      0x1f\n      add\n      0x20\n      dup1\n      swap2\n      div\n      mul\n      0x20\n      add\n      mload(0x40)\n      swap1\n      dup2\n      add\n      0x40\n      mstore\n      dup1\n      swap3\n      swap2\n      swap1\n      dup2\n      dup2\n      mstore\n      0x20\n      add\n      dup3\n      dup1\n      sload\n      tag_276\n      swap1\n      tag_90\n      jump\t// in\n    tag_276:\n      dup1\n      iszero\n      tag_277\n      jumpi\n      dup1\n      0x1f\n      lt\n      tag_278\n      jumpi\n      0x0100\n      dup1\n      dup4\n      sload\n      div\n      mul\n      dup4\n      mstore\n      swap2\n      0x20\n      add\n      swap2\n      jump(tag_277)\n    tag_278:\n      dup3\n      add\n      swap2\n      swap1\n      0x00\n      mstore\n      keccak256(0x00, 0x20)\n      swap1\n    tag_279:\n      dup2\n      sload\n      dup2\n      mstore\n      swap1\n      0x01\n      add\n      swap1\n      0x20\n      add\n      dup1\n      dup4\n      gt\n      tag_279\n      jumpi\n      dup3\n      swap1\n      sub\n      0x1f\n      and\n      dup3\n      add\n      swap2\n    tag_277:\n      pop\n      pop\n      pop\n      pop\n      pop\n      dup2\n      mstore\n      0x20\n      add\n      0x06\n      dup3\n      add\n      0x00\n      swap1\n      sload\n      swap1\n      0x0100\n      exp\n      swap1\n      div\n      0xff\n      and\n      iszero\n      iszero\n      iszero\n      iszero\n      dup2\n      mstore\n      pop\n      pop\n      dup2\n      mstore\n      0x20\n      add\n      swap1\n      0x01\n      add\n      swap1\n      jump(tag_272)\n    tag_273:\n      pop\n      pop\n      pop\n      pop\n      swap1\n      pop\n        /* \"wwcc-contracts/contracts/wwccPool.sol\":7223:7246  uint256 allRewardAmount */\n      0x00\n        /* \"wwcc-contracts/contracts/wwccPool.sol\":7280:7355  (pool.sPool + pool.wPool+pool.lPool+pool.dPool + pool.basal.div(2)).div(20) */\n      tag_280\n        /* \"wwcc-contracts/contracts/wwccPool.sol\":7352:7354  20 */\n      0x14\n        /* \"wwcc-contracts/contracts/wwccPool.sol\":7329:7346  pool.basal.div(2) */\n      tag_281\n        /* \"wwcc-contracts/contracts/wwccPool.sol\":7344:7345  2 */\n      0x02\n        /* \"wwcc-contracts/contracts/wwccPool.sol\":7329:7333  pool */\n      dup7\n        /* \"wwcc-contracts/contracts/wwccPool.sol\":7329:7339  pool.basal */\n      0xe0\n      add\n      mload\n        /* \"wwcc-contracts/contracts/wwccPool.sol\":7329:7343  pool.basal.div */\n      tag_110\n      swap1\n        /* \"wwcc-contracts/contracts/wwccPool.sol\":7329:7346  pool.basal.div(2) */\n      swap2\n      swap1\n      0xffffffff\n      and\n      jump\t// in\n    tag_281:\n        /* \"wwcc-contracts/contracts/wwccPool.sol\":7316:7320  pool */\n      dup6\n        /* \"wwcc-contracts/contracts/wwccPool.sol\":7316:7326  pool.dPool */\n      0x80\n      add\n      mload\n        /* \"wwcc-contracts/contracts/wwccPool.sol\":7305:7309  pool */\n      dup7\n        /* \"wwcc-contracts/contracts/wwccPool.sol\":7305:7315  pool.lPool */\n      0xa0\n      add\n      mload\n        /* \"wwcc-contracts/contracts/wwccPool.sol\":7294:7298  pool */\n      dup8\n        /* \"wwcc-contracts/contracts/wwccPool.sol\":7294:7304  pool.wPool */\n      0x60\n      add\n      mload\n        /* \"wwcc-contracts/contracts/wwccPool.sol\":7281:7285  pool */\n      dup9\n        /* \"wwcc-contracts/contracts/wwccPool.sol\":7281:7291  pool.sPool */\n      0xc0\n      add\n      mload\n        /* \"wwcc-contracts/contracts/wwccPool.sol\":7281:7304  pool.sPool + pool.wPool */\n      tag_282\n      swap2\n      swap1\n      tag_18\n      jump\t// in\n    tag_282:\n        /* \"wwcc-contracts/contracts/wwccPool.sol\":7281:7315  pool.sPool + pool.wPool+pool.lPool */\n      tag_283\n      swap2\n      swap1\n      tag_18\n      jump\t// in\n    tag_283:\n        /* \"wwcc-contracts/contracts/wwccPool.sol\":7281:7326  pool.sPool + pool.wPool+pool.lPool+pool.dPool */\n      tag_284\n      swap2\n      swap1\n      tag_18\n      jump\t// in\n    tag_284:\n        /* \"wwcc-contracts/contracts/wwccPool.sol\":7281:7346  pool.sPool + pool.wPool+pool.lPool+pool.dPool + pool.basal.div(2) */\n      tag_285\n      swap2\n      swap1\n      tag_18\n      jump\t// in\n    tag_285:\n        /* \"wwcc-contracts/contracts/wwccPool.sol\":7280:7351  (pool.sPool + pool.wPool+pool.lPool+pool.dPool + pool.basal.div(2)).div */\n      tag_110\n      swap1\n        /* \"wwcc-contracts/contracts/wwccPool.sol\":7280:7355  (pool.sPool + pool.wPool+pool.lPool+pool.dPool + pool.basal.div(2)).div(20) */\n      swap2\n      swap1\n      0xffffffff\n      and\n      jump\t// in\n    tag_280:\n        /* \"wwcc-contracts/contracts/wwccPool.sol\":7263:7276  nextBasalLast */\n      0x01\n      0x00\n        /* \"wwcc-contracts/contracts/wwccPool.sol\":7263:7355  nextBasalLast += (pool.sPool + pool.wPool+pool.lPool+pool.dPool + pool.basal.div(2)).div(20) */\n      dup3\n      dup3\n      sload\n      tag_286\n      swap2\n      swap1\n      tag_18\n      jump\t// in\n    tag_286:\n      swap3\n      pop\n      pop\n      dup2\n      swap1\n      sstore\n      pop\n        /* \"wwcc-contracts/contracts/wwccPool.sol\":7529:7535  uint j */\n      0x00\n        /* \"wwcc-contracts/contracts/wwccPool.sol\":7507:10024  for (... */\n    tag_287:\n        /* \"wwcc-contracts/contracts/wwccPool.sol\":7582:7583  1 */\n      0x01\n        /* \"wwcc-contracts/contracts/wwccPool.sol\":7562:7574  separateBets */\n      dup4\n        /* \"wwcc-contracts/contracts/wwccPool.sol\":7562:7581  separateBets.length */\n      mload\n        /* \"wwcc-contracts/contracts/wwccPool.sol\":7562:7583  separateBets.length-1 */\n      tag_290\n      swap2\n      swap1\n      tag_148\n      jump\t// in\n    tag_290:\n        /* \"wwcc-contracts/contracts/wwccPool.sol\":7557:7558  j */\n      dup2\n        /* \"wwcc-contracts/contracts/wwccPool.sol\":7557:7583  j <= separateBets.length-1 */\n      gt\n        /* \"wwcc-contracts/contracts/wwccPool.sol\":7507:10024  for (... */\n      tag_288\n      jumpi\n        /* \"wwcc-contracts/contracts/wwccPool.sol\":7673:7678  false */\n      0x00\n        /* \"wwcc-contracts/contracts/wwccPool.sol\":7646:7658  separateBets */\n      dup4\n        /* \"wwcc-contracts/contracts/wwccPool.sol\":7659:7660  j */\n      dup3\n        /* \"wwcc-contracts/contracts/wwccPool.sol\":7646:7661  separateBets[j] */\n      dup2\n      mload\n      dup2\n      lt\n      tag_291\n      jumpi\n      tag_292\n      tag_293\n      jump\t// in\n    tag_292:\n    tag_291:\n      0x20\n      mul\n      0x20\n      add\n      add\n      mload\n        /* \"wwcc-contracts/contracts/wwccPool.sol\":7646:7670  separateBets[j].finished */\n      0xc0\n      add\n        /* \"wwcc-contracts/contracts/wwccPool.sol\":7646:7678  separateBets[j].finished = false */\n      swap1\n      iszero\n      iszero\n      swap1\n      dup2\n      iszero\n      iszero\n      dup2\n      mstore\n      pop\n        /* \"wwcc-contracts/contracts/wwccPool.sol\":7643:10004  if(separateBets[j].finished = false){... */\n      iszero\n      tag_294\n      jumpi\n        /* \"wwcc-contracts/contracts/wwccPool.sol\":7728:7729  2 */\n      0x02\n        /* \"wwcc-contracts/contracts/wwccPool.sol\":7706:7718  separateBets */\n      dup4\n        /* \"wwcc-contracts/contracts/wwccPool.sol\":7719:7720  j */\n      dup3\n        /* \"wwcc-contracts/contracts/wwccPool.sol\":7706:7721  separateBets[j] */\n      dup2\n      mload\n      dup2\n      lt\n      tag_295\n      jumpi\n      tag_296\n      tag_293\n      jump\t// in\n    tag_296:\n    tag_295:\n      0x20\n      mul\n      0x20\n      add\n      add\n      mload\n        /* \"wwcc-contracts/contracts/wwccPool.sol\":7706:7726  separateBets[j].kind */\n      0x20\n      add\n      mload\n        /* \"wwcc-contracts/contracts/wwccPool.sol\":7706:7729  separateBets[j].kind==2 */\n      eq\n        /* \"wwcc-contracts/contracts/wwccPool.sol\":7703:9984  if(separateBets[j].kind==2){... */\n      iszero\n      tag_297\n      jumpi\n        /* \"wwcc-contracts/contracts/wwccPool.sol\":7776:7825  (pool.sPool + pool.basal.div(2)).mul(85).div(100) */\n      tag_298\n        /* \"wwcc-contracts/contracts/wwccPool.sol\":7821:7824  100 */\n      0x64\n        /* \"wwcc-contracts/contracts/wwccPool.sol\":7776:7816  (pool.sPool + pool.basal.div(2)).mul(85) */\n      tag_299\n        /* \"wwcc-contracts/contracts/wwccPool.sol\":7813:7815  85 */\n      0x55\n        /* \"wwcc-contracts/contracts/wwccPool.sol\":7790:7807  pool.basal.div(2) */\n      tag_300\n        /* \"wwcc-contracts/contracts/wwccPool.sol\":7805:7806  2 */\n      0x02\n        /* \"wwcc-contracts/contracts/wwccPool.sol\":7790:7794  pool */\n      dup10\n        /* \"wwcc-contracts/contracts/wwccPool.sol\":7790:7800  pool.basal */\n      0xe0\n      add\n      mload\n        /* \"wwcc-contracts/contracts/wwccPool.sol\":7790:7804  pool.basal.div */\n      tag_110\n      swap1\n        /* \"wwcc-contracts/contracts/wwccPool.sol\":7790:7807  pool.basal.div(2) */\n      swap2\n      swap1\n      0xffffffff\n      and\n      jump\t// in\n    tag_300:\n        /* \"wwcc-contracts/contracts/wwccPool.sol\":7777:7781  pool */\n      dup9\n        /* \"wwcc-contracts/contracts/wwccPool.sol\":7777:7787  pool.sPool */\n      0xc0\n      add\n      mload\n        /* \"wwcc-contracts/contracts/wwccPool.sol\":7777:7807  pool.sPool + pool.basal.div(2) */\n      tag_301\n      swap2\n      swap1\n      tag_18\n      jump\t// in\n    tag_301:\n        /* \"wwcc-contracts/contracts/wwccPool.sol\":7776:7812  (pool.sPool + pool.basal.div(2)).mul */\n      tag_302\n      swap1\n        /* \"wwcc-contracts/contracts/wwccPool.sol\":7776:7816  (pool.sPool + pool.basal.div(2)).mul(85) */\n      swap2\n      swap1\n      0xffffffff\n      and\n      jump\t// in\n    tag_299:\n        /* \"wwcc-contracts/contracts/wwccPool.sol\":7776:7820  (pool.sPool + pool.basal.div(2)).mul(85).div */\n      tag_110\n      swap1\n        /* \"wwcc-contracts/contracts/wwccPool.sol\":7776:7825  (pool.sPool + pool.basal.div(2)).mul(85).div(100) */\n      swap2\n      swap1\n      0xffffffff\n      and\n      jump\t// in\n    tag_298:\n        /* \"wwcc-contracts/contracts/wwccPool.sol\":7758:7825  allRewardAmount = (pool.sPool + pool.basal.div(2)).mul(85).div(100) */\n      swap2\n      pop\n        /* \"wwcc-contracts/contracts/wwccPool.sol\":7880:7889  homeScore */\n      dup8\n        /* \"wwcc-contracts/contracts/wwccPool.sol\":7853:7865  separateBets */\n      dup4\n        /* \"wwcc-contracts/contracts/wwccPool.sol\":7866:7867  j */\n      dup3\n        /* \"wwcc-contracts/contracts/wwccPool.sol\":7853:7868  separateBets[j] */\n      dup2\n      mload\n      dup2\n      lt\n      tag_303\n      jumpi\n      tag_304\n      tag_293\n      jump\t// in\n    tag_304:\n    tag_303:\n      0x20\n      mul\n      0x20\n      add\n      add\n      mload\n        /* \"wwcc-contracts/contracts/wwccPool.sol\":7853:7878  separateBets[j].homeScore */\n      0x40\n      add\n      mload\n        /* \"wwcc-contracts/contracts/wwccPool.sol\":7853:7889  separateBets[j].homeScore==homeScore */\n      eq\n        /* \"wwcc-contracts/contracts/wwccPool.sol\":7853:7931  separateBets[j].homeScore==homeScore && separateBets[j].visitScore==visitScore */\n      dup1\n      iszero\n      tag_305\n      jumpi\n      pop\n        /* \"wwcc-contracts/contracts/wwccPool.sol\":7921:7931  visitScore */\n      dup7\n        /* \"wwcc-contracts/contracts/wwccPool.sol\":7893:7905  separateBets */\n      dup4\n        /* \"wwcc-contracts/contracts/wwccPool.sol\":7906:7907  j */\n      dup3\n        /* \"wwcc-contracts/contracts/wwccPool.sol\":7893:7908  separateBets[j] */\n      dup2\n      mload\n      dup2\n      lt\n      tag_306\n      jumpi\n      tag_307\n      tag_293\n      jump\t// in\n    tag_307:\n    tag_306:\n      0x20\n      mul\n      0x20\n      add\n      add\n      mload\n        /* \"wwcc-contracts/contracts/wwccPool.sol\":7893:7919  separateBets[j].visitScore */\n      0x60\n      add\n      mload\n        /* \"wwcc-contracts/contracts/wwccPool.sol\":7893:7931  separateBets[j].visitScore==visitScore */\n      eq\n        /* \"wwcc-contracts/contracts/wwccPool.sol\":7853:7931  separateBets[j].homeScore==homeScore && separateBets[j].visitScore==visitScore */\n    tag_305:\n        /* \"wwcc-contracts/contracts/wwccPool.sol\":7849:8647  if (separateBets[j].homeScore==homeScore && separateBets[j].visitScore==visitScore){... */\n      iszero\n      tag_308\n      jumpi\n        /* \"wwcc-contracts/contracts/wwccPool.sol\":7960:7989  uint256 singleScorePoolAmount */\n      0x00\n        /* \"wwcc-contracts/contracts/wwccPool.sol\":7992:8007  singleScorePool */\n      0x05\n        /* \"wwcc-contracts/contracts/wwccPool.sol\":8008:8020  separateBets */\n      dup5\n        /* \"wwcc-contracts/contracts/wwccPool.sol\":8021:8022  j */\n      dup4\n        /* \"wwcc-contracts/contracts/wwccPool.sol\":8008:8023  separateBets[j] */\n      dup2\n      mload\n      dup2\n      lt\n      tag_309\n      jumpi\n      tag_310\n      tag_293\n      jump\t// in\n    tag_310:\n    tag_309:\n      0x20\n      mul\n      0x20\n      add\n      add\n      mload\n        /* \"wwcc-contracts/contracts/wwccPool.sol\":8008:8034  separateBets[j].pickingKey */\n      0xa0\n      add\n      mload\n        /* \"wwcc-contracts/contracts/wwccPool.sol\":7992:8035  singleScorePool[separateBets[j].pickingKey] */\n      mload(0x40)\n      tag_311\n      swap2\n      swap1\n      tag_157\n      jump\t// in\n    tag_311:\n      swap1\n      dup2\n      mstore\n      0x20\n      add\n      mload(0x40)\n      dup1\n      swap2\n      sub\n      swap1\n      keccak256\n      sload\n        /* \"wwcc-contracts/contracts/wwccPool.sol\":7960:8035  uint256 singleScorePoolAmount = singleScorePool[separateBets[j].pickingKey] */\n      swap1\n      pop\n        /* \"wwcc-contracts/contracts/wwccPool.sol\":8063:8083  uint256 rewardAmount */\n      0x00\n        /* \"wwcc-contracts/contracts/wwccPool.sol\":8130:8151  singleScorePoolAmount */\n      dup2\n        /* \"wwcc-contracts/contracts/wwccPool.sol\":8104:8116  separateBets */\n      dup6\n        /* \"wwcc-contracts/contracts/wwccPool.sol\":8117:8118  j */\n      dup5\n        /* \"wwcc-contracts/contracts/wwccPool.sol\":8104:8119  separateBets[j] */\n      dup2\n      mload\n      dup2\n      lt\n      tag_312\n      jumpi\n      tag_313\n      tag_293\n      jump\t// in\n    tag_313:\n    tag_312:\n      0x20\n      mul\n      0x20\n      add\n      add\n      mload\n        /* \"wwcc-contracts/contracts/wwccPool.sol\":8104:8126  separateBets[j].weight */\n      0x00\n      add\n      mload\n        /* \"wwcc-contracts/contracts/wwccPool.sol\":8086:8101  allRewardAmount */\n      dup6\n        /* \"wwcc-contracts/contracts/wwccPool.sol\":8086:8126  allRewardAmount * separateBets[j].weight */\n      tag_314\n      swap2\n      swap1\n      tag_315\n      jump\t// in\n    tag_314:\n        /* \"wwcc-contracts/contracts/wwccPool.sol\":8086:8151  allRewardAmount * separateBets[j].weight /  singleScorePoolAmount */\n      tag_316\n      swap2\n      swap1\n      tag_317\n      jump\t// in\n    tag_316:\n        /* \"wwcc-contracts/contracts/wwccPool.sol\":8063:8151  uint256 rewardAmount = allRewardAmount * separateBets[j].weight /  singleScorePoolAmount */\n      swap1\n      pop\n        /* \"wwcc-contracts/contracts/wwccPool.sol\":8523:8535  rewardAmount */\n      dup1\n        /* \"wwcc-contracts/contracts/wwccPool.sol\":8485:8495  voteAmount */\n      0x02\n        /* \"wwcc-contracts/contracts/wwccPool.sol\":8485:8519  voteAmount[separateBets[j].joiner] */\n      0x00\n        /* \"wwcc-contracts/contracts/wwccPool.sol\":8496:8508  separateBets */\n      dup8\n        /* \"wwcc-contracts/contracts/wwccPool.sol\":8509:8510  j */\n      dup7\n        /* \"wwcc-contracts/contracts/wwccPool.sol\":8496:8511  separateBets[j] */\n      dup2\n      mload\n      dup2\n      lt\n      tag_318\n      jumpi\n      tag_319\n      tag_293\n      jump\t// in\n    tag_319:\n    tag_318:\n      0x20\n      mul\n      0x20\n      add\n      add\n      mload\n        /* \"wwcc-contracts/contracts/wwccPool.sol\":8496:8518  separateBets[j].joiner */\n      0x80\n      add\n      mload\n        /* \"wwcc-contracts/contracts/wwccPool.sol\":8485:8519  voteAmount[separateBets[j].joiner] */\n      0xffffffffffffffffffffffffffffffffffffffff\n      and\n      0xffffffffffffffffffffffffffffffffffffffff\n      and\n      dup2\n      mstore\n      0x20\n      add\n      swap1\n      dup2\n      mstore\n      0x20\n      add\n      0x00\n      keccak256\n      0x00\n        /* \"wwcc-contracts/contracts/wwccPool.sol\":8485:8535  voteAmount[separateBets[j].joiner] += rewardAmount */\n      dup3\n      dup3\n      sload\n      tag_320\n      swap2\n      swap1\n      tag_18\n      jump\t// in\n    tag_320:\n      swap3\n      pop\n      pop\n      dup2\n      swap1\n      sstore\n      pop\n        /* \"wwcc-contracts/contracts/wwccPool.sol\":8590:8594  true */\n      0x01\n        /* \"wwcc-contracts/contracts/wwccPool.sol\":8563:8575  separateBets */\n      dup6\n        /* \"wwcc-contracts/contracts/wwccPool.sol\":8576:8577  j */\n      dup5\n        /* \"wwcc-contracts/contracts/wwccPool.sol\":8563:8578  separateBets[j] */\n      dup2\n      mload\n      dup2\n      lt\n      tag_321\n      jumpi\n      tag_322\n      tag_293\n      jump\t// in\n    tag_322:\n    tag_321:\n      0x20\n      mul\n      0x20\n      add\n      add\n      mload\n        /* \"wwcc-contracts/contracts/wwccPool.sol\":8563:8587  separateBets[j].finished */\n      0xc0\n      add\n        /* \"wwcc-contracts/contracts/wwccPool.sol\":8563:8594  separateBets[j].finished = true */\n      swap1\n      iszero\n      iszero\n      swap1\n      dup2\n      iszero\n      iszero\n      dup2\n      mstore\n      pop\n      pop\n        /* \"wwcc-contracts/contracts/wwccPool.sol\":7932:8647  {... */\n      pop\n      pop\n        /* \"wwcc-contracts/contracts/wwccPool.sol\":7849:8647  if (separateBets[j].homeScore==homeScore && separateBets[j].visitScore==visitScore){... */\n    tag_308:\n        /* \"wwcc-contracts/contracts/wwccPool.sol\":7703:9984  if(separateBets[j].kind==2){... */\n      jump(tag_323)\n    tag_297:\n        /* \"wwcc-contracts/contracts/wwccPool.sol\":8722:8728  result */\n      dup6\n        /* \"wwcc-contracts/contracts/wwccPool.sol\":8700:8712  separateBets */\n      dup4\n        /* \"wwcc-contracts/contracts/wwccPool.sol\":8713:8714  j */\n      dup3\n        /* \"wwcc-contracts/contracts/wwccPool.sol\":8700:8715  separateBets[j] */\n      dup2\n      mload\n      dup2\n      lt\n      tag_324\n      jumpi\n      tag_325\n      tag_293\n      jump\t// in\n    tag_325:\n    tag_324:\n      0x20\n      mul\n      0x20\n      add\n      add\n      mload\n        /* \"wwcc-contracts/contracts/wwccPool.sol\":8700:8720  separateBets[j].kind */\n      0x20\n      add\n      mload\n        /* \"wwcc-contracts/contracts/wwccPool.sol\":8700:8728  separateBets[j].kind==result */\n      eq\n        /* \"wwcc-contracts/contracts/wwccPool.sol\":8697:9962  if(separateBets[j].kind==result){... */\n      iszero\n      tag_326\n      jumpi\n        /* \"wwcc-contracts/contracts/wwccPool.sol\":8775:8845  (pool.wPool+pool.lPool+pool.dPool+ pool.basal.div(2)).mul(85).div(100) */\n      tag_327\n        /* \"wwcc-contracts/contracts/wwccPool.sol\":8841:8844  100 */\n      0x64\n        /* \"wwcc-contracts/contracts/wwccPool.sol\":8775:8836  (pool.wPool+pool.lPool+pool.dPool+ pool.basal.div(2)).mul(85) */\n      tag_328\n        /* \"wwcc-contracts/contracts/wwccPool.sol\":8833:8835  85 */\n      0x55\n        /* \"wwcc-contracts/contracts/wwccPool.sol\":8810:8827  pool.basal.div(2) */\n      tag_329\n        /* \"wwcc-contracts/contracts/wwccPool.sol\":8825:8826  2 */\n      0x02\n        /* \"wwcc-contracts/contracts/wwccPool.sol\":8810:8814  pool */\n      dup10\n        /* \"wwcc-contracts/contracts/wwccPool.sol\":8810:8820  pool.basal */\n      0xe0\n      add\n      mload\n        /* \"wwcc-contracts/contracts/wwccPool.sol\":8810:8824  pool.basal.div */\n      tag_110\n      swap1\n        /* \"wwcc-contracts/contracts/wwccPool.sol\":8810:8827  pool.basal.div(2) */\n      swap2\n      swap1\n      0xffffffff\n      and\n      jump\t// in\n    tag_329:\n        /* \"wwcc-contracts/contracts/wwccPool.sol\":8798:8802  pool */\n      dup9\n        /* \"wwcc-contracts/contracts/wwccPool.sol\":8798:8808  pool.dPool */\n      0x80\n      add\n      mload\n        /* \"wwcc-contracts/contracts/wwccPool.sol\":8787:8791  pool */\n      dup10\n        /* \"wwcc-contracts/contracts/wwccPool.sol\":8787:8797  pool.lPool */\n      0xa0\n      add\n      mload\n        /* \"wwcc-contracts/contracts/wwccPool.sol\":8776:8780  pool */\n      dup11\n        /* \"wwcc-contracts/contracts/wwccPool.sol\":8776:8786  pool.wPool */\n      0x60\n      add\n      mload\n        /* \"wwcc-contracts/contracts/wwccPool.sol\":8776:8797  pool.wPool+pool.lPool */\n      tag_330\n      swap2\n      swap1\n      tag_18\n      jump\t// in\n    tag_330:\n        /* \"wwcc-contracts/contracts/wwccPool.sol\":8776:8808  pool.wPool+pool.lPool+pool.dPool */\n      tag_331\n      swap2\n      swap1\n      tag_18\n      jump\t// in\n    tag_331:\n        /* \"wwcc-contracts/contracts/wwccPool.sol\":8776:8827  pool.wPool+pool.lPool+pool.dPool+ pool.basal.div(2) */\n      tag_332\n      swap2\n      swap1\n      tag_18\n      jump\t// in\n    tag_332:\n        /* \"wwcc-contracts/contracts/wwccPool.sol\":8775:8832  (pool.wPool+pool.lPool+pool.dPool+ pool.basal.div(2)).mul */\n      tag_302\n      swap1\n        /* \"wwcc-contracts/contracts/wwccPool.sol\":8775:8836  (pool.wPool+pool.lPool+pool.dPool+ pool.basal.div(2)).mul(85) */\n      swap2\n      swap1\n      0xffffffff\n      and\n      jump\t// in\n    tag_328:\n        /* \"wwcc-contracts/contracts/wwccPool.sol\":8775:8840  (pool.wPool+pool.lPool+pool.dPool+ pool.basal.div(2)).mul(85).div */\n      tag_110\n      swap1\n        /* \"wwcc-contracts/contracts/wwccPool.sol\":8775:8845  (pool.wPool+pool.lPool+pool.dPool+ pool.basal.div(2)).mul(85).div(100) */\n      swap2\n      swap1\n      0xffffffff\n      and\n      jump\t// in\n    tag_327:\n        /* \"wwcc-contracts/contracts/wwccPool.sol\":8757:8845  allRewardAmount = (pool.wPool+pool.lPool+pool.dPool+ pool.basal.div(2)).mul(85).div(100) */\n      swap2\n      pop\n        /* \"wwcc-contracts/contracts/wwccPool.sol\":8873:8895  uint256 pickPoolAmount */\n      0x00\n        /* \"wwcc-contracts/contracts/wwccPool.sol\":8955:8956  0 */\n      dup1\n        /* \"wwcc-contracts/contracts/wwccPool.sol\":8931:8943  separateBets */\n      dup5\n        /* \"wwcc-contracts/contracts/wwccPool.sol\":8944:8945  j */\n      dup4\n        /* \"wwcc-contracts/contracts/wwccPool.sol\":8931:8946  separateBets[j] */\n      dup2\n      mload\n      dup2\n      lt\n      tag_333\n      jumpi\n      tag_334\n      tag_293\n      jump\t// in\n    tag_334:\n    tag_333:\n      0x20\n      mul\n      0x20\n      add\n      add\n      mload\n        /* \"wwcc-contracts/contracts/wwccPool.sol\":8931:8951  separateBets[j].kind */\n      0x20\n      add\n      mload\n        /* \"wwcc-contracts/contracts/wwccPool.sol\":8931:8956  separateBets[j].kind == 0 */\n      eq\n        /* \"wwcc-contracts/contracts/wwccPool.sol\":8927:9062  if (separateBets[j].kind == 0){... */\n      iszero\n      tag_335\n      jumpi\n        /* \"wwcc-contracts/contracts/wwccPool.sol\":9006:9033  pool.lPool.mul(85).div(100) */\n      tag_336\n        /* \"wwcc-contracts/contracts/wwccPool.sol\":9029:9032  100 */\n      0x64\n        /* \"wwcc-contracts/contracts/wwccPool.sol\":9006:9024  pool.lPool.mul(85) */\n      tag_337\n        /* \"wwcc-contracts/contracts/wwccPool.sol\":9021:9023  85 */\n      0x55\n        /* \"wwcc-contracts/contracts/wwccPool.sol\":9006:9010  pool */\n      dup9\n        /* \"wwcc-contracts/contracts/wwccPool.sol\":9006:9016  pool.lPool */\n      0xa0\n      add\n      mload\n        /* \"wwcc-contracts/contracts/wwccPool.sol\":9006:9020  pool.lPool.mul */\n      tag_302\n      swap1\n        /* \"wwcc-contracts/contracts/wwccPool.sol\":9006:9024  pool.lPool.mul(85) */\n      swap2\n      swap1\n      0xffffffff\n      and\n      jump\t// in\n    tag_337:\n        /* \"wwcc-contracts/contracts/wwccPool.sol\":9006:9028  pool.lPool.mul(85).div */\n      tag_110\n      swap1\n        /* \"wwcc-contracts/contracts/wwccPool.sol\":9006:9033  pool.lPool.mul(85).div(100) */\n      swap2\n      swap1\n      0xffffffff\n      and\n      jump\t// in\n    tag_336:\n        /* \"wwcc-contracts/contracts/wwccPool.sol\":8989:9033  pickPoolAmount = pool.lPool.mul(85).div(100) */\n      swap1\n      pop\n        /* \"wwcc-contracts/contracts/wwccPool.sol\":8927:9062  if (separateBets[j].kind == 0){... */\n    tag_335:\n        /* \"wwcc-contracts/contracts/wwccPool.sol\":9117:9118  1 */\n      0x01\n        /* \"wwcc-contracts/contracts/wwccPool.sol\":9093:9105  separateBets */\n      dup5\n        /* \"wwcc-contracts/contracts/wwccPool.sol\":9106:9107  j */\n      dup4\n        /* \"wwcc-contracts/contracts/wwccPool.sol\":9093:9108  separateBets[j] */\n      dup2\n      mload\n      dup2\n      lt\n      tag_338\n      jumpi\n      tag_339\n      tag_293\n      jump\t// in\n    tag_339:\n    tag_338:\n      0x20\n      mul\n      0x20\n      add\n      add\n      mload\n        /* \"wwcc-contracts/contracts/wwccPool.sol\":9093:9113  separateBets[j].kind */\n      0x20\n      add\n      mload\n        /* \"wwcc-contracts/contracts/wwccPool.sol\":9093:9118  separateBets[j].kind == 1 */\n      eq\n        /* \"wwcc-contracts/contracts/wwccPool.sol\":9089:9224  if (separateBets[j].kind == 1){... */\n      iszero\n      tag_340\n      jumpi\n        /* \"wwcc-contracts/contracts/wwccPool.sol\":9168:9195  pool.dPool.mul(85).div(100) */\n      tag_341\n        /* \"wwcc-contracts/contracts/wwccPool.sol\":9191:9194  100 */\n      0x64\n        /* \"wwcc-contracts/contracts/wwccPool.sol\":9168:9186  pool.dPool.mul(85) */\n      tag_342\n        /* \"wwcc-contracts/contracts/wwccPool.sol\":9183:9185  85 */\n      0x55\n        /* \"wwcc-contracts/contracts/wwccPool.sol\":9168:9172  pool */\n      dup9\n        /* \"wwcc-contracts/contracts/wwccPool.sol\":9168:9178  pool.dPool */\n      0x80\n      add\n      mload\n        /* \"wwcc-contracts/contracts/wwccPool.sol\":9168:9182  pool.dPool.mul */\n      tag_302\n      swap1\n        /* \"wwcc-contracts/contracts/wwccPool.sol\":9168:9186  pool.dPool.mul(85) */\n      swap2\n      swap1\n      0xffffffff\n      and\n      jump\t// in\n    tag_342:\n        /* \"wwcc-contracts/contracts/wwccPool.sol\":9168:9190  pool.dPool.mul(85).div */\n      tag_110\n      swap1\n        /* \"wwcc-contracts/contracts/wwccPool.sol\":9168:9195  pool.dPool.mul(85).div(100) */\n      swap2\n      swap1\n      0xffffffff\n      and\n      jump\t// in\n    tag_341:\n        /* \"wwcc-contracts/contracts/wwccPool.sol\":9151:9195  pickPoolAmount = pool.dPool.mul(85).div(100) */\n      swap1\n      pop\n        /* \"wwcc-contracts/contracts/wwccPool.sol\":9089:9224  if (separateBets[j].kind == 1){... */\n    tag_340:\n        /* \"wwcc-contracts/contracts/wwccPool.sol\":9279:9280  3 */\n      0x03\n        /* \"wwcc-contracts/contracts/wwccPool.sol\":9255:9267  separateBets */\n      dup5\n        /* \"wwcc-contracts/contracts/wwccPool.sol\":9268:9269  j */\n      dup4\n        /* \"wwcc-contracts/contracts/wwccPool.sol\":9255:9270  separateBets[j] */\n      dup2\n      mload\n      dup2\n      lt\n      tag_343\n      jumpi\n      tag_344\n      tag_293\n      jump\t// in\n    tag_344:\n    tag_343:\n      0x20\n      mul\n      0x20\n      add\n      add\n      mload\n        /* \"wwcc-contracts/contracts/wwccPool.sol\":9255:9275  separateBets[j].kind */\n      0x20\n      add\n      mload\n        /* \"wwcc-contracts/contracts/wwccPool.sol\":9255:9280  separateBets[j].kind == 3 */\n      eq\n        /* \"wwcc-contracts/contracts/wwccPool.sol\":9251:9386  if (separateBets[j].kind == 3){... */\n      iszero\n      tag_345\n      jumpi\n        /* \"wwcc-contracts/contracts/wwccPool.sol\":9330:9357  pool.wPool.mul(85).div(100) */\n      tag_346\n        /* \"wwcc-contracts/contracts/wwccPool.sol\":9353:9356  100 */\n      0x64\n        /* \"wwcc-contracts/contracts/wwccPool.sol\":9330:9348  pool.wPool.mul(85) */\n      tag_347\n        /* \"wwcc-contracts/contracts/wwccPool.sol\":9345:9347  85 */\n      0x55\n        /* \"wwcc-contracts/contracts/wwccPool.sol\":9330:9334  pool */\n      dup9\n        /* \"wwcc-contracts/contracts/wwccPool.sol\":9330:9340  pool.wPool */\n      0x60\n      add\n      mload\n        /* \"wwcc-contracts/contracts/wwccPool.sol\":9330:9344  pool.wPool.mul */\n      tag_302\n      swap1\n        /* \"wwcc-contracts/contracts/wwccPool.sol\":9330:9348  pool.wPool.mul(85) */\n      swap2\n      swap1\n      0xffffffff\n      and\n      jump\t// in\n    tag_347:\n        /* \"wwcc-contracts/contracts/wwccPool.sol\":9330:9352  pool.wPool.mul(85).div */\n      tag_110\n      swap1\n        /* \"wwcc-contracts/contracts/wwccPool.sol\":9330:9357  pool.wPool.mul(85).div(100) */\n      swap2\n      swap1\n      0xffffffff\n      and\n      jump\t// in\n    tag_346:\n        /* \"wwcc-contracts/contracts/wwccPool.sol\":9313:9357  pickPoolAmount = pool.wPool.mul(85).div(100) */\n      swap1\n      pop\n        /* \"wwcc-contracts/contracts/wwccPool.sol\":9251:9386  if (separateBets[j].kind == 3){... */\n    tag_345:\n        /* \"wwcc-contracts/contracts/wwccPool.sol\":9413:9433  uint256 rewardAmount */\n      0x00\n        /* \"wwcc-contracts/contracts/wwccPool.sol\":9480:9494  pickPoolAmount */\n      dup2\n        /* \"wwcc-contracts/contracts/wwccPool.sol\":9454:9466  separateBets */\n      dup6\n        /* \"wwcc-contracts/contracts/wwccPool.sol\":9467:9468  j */\n      dup5\n        /* \"wwcc-contracts/contracts/wwccPool.sol\":9454:9469  separateBets[j] */\n      dup2\n      mload\n      dup2\n      lt\n      tag_348\n      jumpi\n      tag_349\n      tag_293\n      jump\t// in\n    tag_349:\n    tag_348:\n      0x20\n      mul\n      0x20\n      add\n      add\n      mload\n        /* \"wwcc-contracts/contracts/wwccPool.sol\":9454:9476  separateBets[j].weight */\n      0x00\n      add\n      mload\n        /* \"wwcc-contracts/contracts/wwccPool.sol\":9436:9451  allRewardAmount */\n      dup6\n        /* \"wwcc-contracts/contracts/wwccPool.sol\":9436:9476  allRewardAmount * separateBets[j].weight */\n      tag_350\n      swap2\n      swap1\n      tag_315\n      jump\t// in\n    tag_350:\n        /* \"wwcc-contracts/contracts/wwccPool.sol\":9436:9494  allRewardAmount * separateBets[j].weight /  pickPoolAmount */\n      tag_351\n      swap2\n      swap1\n      tag_317\n      jump\t// in\n    tag_351:\n        /* \"wwcc-contracts/contracts/wwccPool.sol\":9413:9494  uint256 rewardAmount = allRewardAmount * separateBets[j].weight /  pickPoolAmount */\n      swap1\n      pop\n        /* \"wwcc-contracts/contracts/wwccPool.sol\":9866:9878  rewardAmount */\n      dup1\n        /* \"wwcc-contracts/contracts/wwccPool.sol\":9828:9838  voteAmount */\n      0x02\n        /* \"wwcc-contracts/contracts/wwccPool.sol\":9828:9862  voteAmount[separateBets[j].joiner] */\n      0x00\n        /* \"wwcc-contracts/contracts/wwccPool.sol\":9839:9851  separateBets */\n      dup8\n        /* \"wwcc-contracts/contracts/wwccPool.sol\":9852:9853  j */\n      dup7\n        /* \"wwcc-contracts/contracts/wwccPool.sol\":9839:9854  separateBets[j] */\n      dup2\n      mload\n      dup2\n      lt\n      tag_352\n      jumpi\n      tag_353\n      tag_293\n      jump\t// in\n    tag_353:\n    tag_352:\n      0x20\n      mul\n      0x20\n      add\n      add\n      mload\n        /* \"wwcc-contracts/contracts/wwccPool.sol\":9839:9861  separateBets[j].joiner */\n      0x80\n      add\n      mload\n        /* \"wwcc-contracts/contracts/wwccPool.sol\":9828:9862  voteAmount[separateBets[j].joiner] */\n      0xffffffffffffffffffffffffffffffffffffffff\n      and\n      0xffffffffffffffffffffffffffffffffffffffff\n      and\n      dup2\n      mstore\n      0x20\n      add\n      swap1\n      dup2\n      mstore\n      0x20\n      add\n      0x00\n      keccak256\n      0x00\n        /* \"wwcc-contracts/contracts/wwccPool.sol\":9828:9878  voteAmount[separateBets[j].joiner] += rewardAmount */\n      dup3\n      dup3\n      sload\n      tag_354\n      swap2\n      swap1\n      tag_18\n      jump\t// in\n    tag_354:\n      swap3\n      pop\n      pop\n      dup2\n      swap1\n      sstore\n      pop\n        /* \"wwcc-contracts/contracts/wwccPool.sol\":9933:9937  true */\n      0x01\n        /* \"wwcc-contracts/contracts/wwccPool.sol\":9906:9918  separateBets */\n      dup6\n        /* \"wwcc-contracts/contracts/wwccPool.sol\":9919:9920  j */\n      dup5\n        /* \"wwcc-contracts/contracts/wwccPool.sol\":9906:9921  separateBets[j] */\n      dup2\n      mload\n      dup2\n      lt\n      tag_355\n      jumpi\n      tag_356\n      tag_293\n      jump\t// in\n    tag_356:\n    tag_355:\n      0x20\n      mul\n      0x20\n      add\n      add\n      mload\n        /* \"wwcc-contracts/contracts/wwccPool.sol\":9906:9930  separateBets[j].finished */\n      0xc0\n      add\n        /* \"wwcc-contracts/contracts/wwccPool.sol\":9906:9937  separateBets[j].finished = true */\n      swap1\n      iszero\n      iszero\n      swap1\n      dup2\n      iszero\n      iszero\n      dup2\n      mstore\n      pop\n      pop\n        /* \"wwcc-contracts/contracts/wwccPool.sol\":8729:9962  {... */\n      pop\n      pop\n        /* \"wwcc-contracts/contracts/wwccPool.sol\":8697:9962  if(separateBets[j].kind==result){... */\n    tag_326:\n        /* \"wwcc-contracts/contracts/wwccPool.sol\":7703:9984  if(separateBets[j].kind==2){... */\n    tag_323:\n        /* \"wwcc-contracts/contracts/wwccPool.sol\":7643:10004  if(separateBets[j].finished = false){... */\n    tag_294:\n        /* \"wwcc-contracts/contracts/wwccPool.sol\":7601:7605  j ++ */\n      dup1\n      dup1\n      tag_357\n      swap1\n      tag_358\n      jump\t// in\n    tag_357:\n      swap2\n      pop\n      pop\n        /* \"wwcc-contracts/contracts/wwccPool.sol\":7507:10024  for (... */\n      jump(tag_287)\n    tag_288:\n      pop\n        /* \"wwcc-contracts/contracts/wwccPool.sol\":10057:10061  true */\n      0x01\n        /* \"wwcc-contracts/contracts/wwccPool.sol\":10041:10045  pool */\n      dup4\n        /* \"wwcc-contracts/contracts/wwccPool.sol\":10041:10054  pool.finished */\n      0x0140\n      add\n        /* \"wwcc-contracts/contracts/wwccPool.sol\":10041:10061  pool.finished = true */\n      swap1\n      iszero\n      iszero\n      swap1\n      dup2\n      iszero\n      iszero\n      dup2\n      mstore\n      pop\n      pop\n        /* \"wwcc-contracts/contracts/wwccPool.sol\":6979:10196  {... */\n      pop\n      pop\n      pop\n        /* \"wwcc-contracts/contracts/wwccPool.sol\":10211:10215  true */\n      0x01\n        /* \"wwcc-contracts/contracts/wwccPool.sol\":10204:10215  return true */\n      swap1\n      pop\n        /* \"wwcc-contracts/contracts/wwccPool.sol\":6765:10222  function Award(bytes32 poolKey,uint256 homeScore,uint256 visitScore,uint256 result)  external onlyManager  payable returns(bool){... */\n      swap5\n      swap4\n      pop\n      pop\n      pop\n      pop\n      jump\t// out\n        /* \"wwcc-contracts/contracts/wwccPool.sol\":5566:5956  function voteWithdrawal(address joiner,uint256 amount) external onlyManager payable returns (bool){... */\n    tag_66:\n        /* \"wwcc-contracts/contracts/wwccPool.sol\":5659:5663  bool */\n      0x00\n        /* \"wwcc-contracts/contracts/wwccPool.sol\":12970:12975  owner */\n      dup1\n      0x00\n      swap1\n      sload\n      swap1\n      0x0100\n      exp\n      swap1\n      div\n      0xffffffffffffffffffffffffffffffffffffffff\n      and\n        /* \"wwcc-contracts/contracts/wwccPool.sol\":12956:12975  msg.sender == owner */\n      0xffffffffffffffffffffffffffffffffffffffff\n      and\n        /* \"wwcc-contracts/contracts/wwccPool.sol\":12956:12966  msg.sender */\n      caller\n        /* \"wwcc-contracts/contracts/wwccPool.sol\":12956:12975  msg.sender == owner */\n      0xffffffffffffffffffffffffffffffffffffffff\n      and\n      eq\n        /* \"wwcc-contracts/contracts/wwccPool.sol\":12935:13026  require(... */\n      tag_360\n      jumpi\n      mload(0x40)\n      0x08c379a000000000000000000000000000000000000000000000000000000000\n      dup2\n      mstore\n      0x04\n      add\n      tag_361\n      swap1\n      tag_81\n      jump\t// in\n    tag_361:\n      mload(0x40)\n      dup1\n      swap2\n      sub\n      swap1\n      revert\n    tag_360:\n        /* \"wwcc-contracts/contracts/wwccPool.sol\":5699:5705  amount */\n      dup2\n        /* \"wwcc-contracts/contracts/wwccPool.sol\":5677:5687  voteAmount */\n      0x02\n        /* \"wwcc-contracts/contracts/wwccPool.sol\":5677:5695  voteAmount[joiner] */\n      0x00\n        /* \"wwcc-contracts/contracts/wwccPool.sol\":5688:5694  joiner */\n      dup6\n        /* \"wwcc-contracts/contracts/wwccPool.sol\":5677:5695  voteAmount[joiner] */\n      0xffffffffffffffffffffffffffffffffffffffff\n      and\n      0xffffffffffffffffffffffffffffffffffffffff\n      and\n      dup2\n      mstore\n      0x20\n      add\n      swap1\n      dup2\n      mstore\n      0x20\n      add\n      0x00\n      keccak256\n      sload\n        /* \"wwcc-contracts/contracts/wwccPool.sol\":5677:5705  voteAmount[joiner] >= amount */\n      lt\n      iszero\n        /* \"wwcc-contracts/contracts/wwccPool.sol\":5677:5732  voteAmount[joiner] >= amount && voteAmount[joiner] >= 0 */\n      dup1\n      iszero\n      tag_363\n      jumpi\n      pop\n        /* \"wwcc-contracts/contracts/wwccPool.sol\":5731:5732  0 */\n      0x00\n        /* \"wwcc-contracts/contracts/wwccPool.sol\":5709:5719  voteAmount */\n      0x02\n        /* \"wwcc-contracts/contracts/wwccPool.sol\":5709:5727  voteAmount[joiner] */\n      0x00\n        /* \"wwcc-contracts/contracts/wwccPool.sol\":5720:5726  joiner */\n      dup6\n        /* \"wwcc-contracts/contracts/wwccPool.sol\":5709:5727  voteAmount[joiner] */\n      0xffffffffffffffffffffffffffffffffffffffff\n      and\n      0xffffffffffffffffffffffffffffffffffffffff\n      and\n      dup2\n      mstore\n      0x20\n      add\n      swap1\n      dup2\n      mstore\n      0x20\n      add\n      0x00\n      keccak256\n      sload\n        /* \"wwcc-contracts/contracts/wwccPool.sol\":5709:5732  voteAmount[joiner] >= 0 */\n      lt\n      iszero\n        /* \"wwcc-contracts/contracts/wwccPool.sol\":5677:5732  voteAmount[joiner] >= amount && voteAmount[joiner] >= 0 */\n    tag_363:\n        /* \"wwcc-contracts/contracts/wwccPool.sol\":5674:5929  if(voteAmount[joiner] >= amount && voteAmount[joiner] >= 0){... */\n      iszero\n      tag_364\n      jumpi\n        /* \"wwcc-contracts/contracts/wwccPool.sol\":5747:5780  address payable toAddress_address */\n      0x00\n        /* \"wwcc-contracts/contracts/wwccPool.sol\":5791:5797  joiner */\n      dup4\n        /* \"wwcc-contracts/contracts/wwccPool.sol\":5747:5798  address payable toAddress_address = payable(joiner) */\n      swap1\n      pop\n        /* \"wwcc-contracts/contracts/wwccPool.sol\":5812:5829  toAddress_address */\n      dup1\n        /* \"wwcc-contracts/contracts/wwccPool.sol\":5812:5838  toAddress_address.transfer */\n      0xffffffffffffffffffffffffffffffffffffffff\n      and\n        /* \"wwcc-contracts/contracts/wwccPool.sol\":5812:5858  toAddress_address.transfer(voteAmount[joiner]) */\n      0x08fc\n        /* \"wwcc-contracts/contracts/wwccPool.sol\":5839:5849  voteAmount */\n      0x02\n        /* \"wwcc-contracts/contracts/wwccPool.sol\":5839:5857  voteAmount[joiner] */\n      0x00\n        /* \"wwcc-contracts/contracts/wwccPool.sol\":5850:5856  joiner */\n      dup8\n        /* \"wwcc-contracts/contracts/wwccPool.sol\":5839:5857  voteAmount[joiner] */\n      0xffffffffffffffffffffffffffffffffffffffff\n      and\n      0xffffffffffffffffffffffffffffffffffffffff\n      and\n      dup2\n      mstore\n      0x20\n      add\n      swap1\n      dup2\n      mstore\n      0x20\n      add\n      0x00\n      keccak256\n      sload\n        /* \"wwcc-contracts/contracts/wwccPool.sol\":5812:5858  toAddress_address.transfer(voteAmount[joiner]) */\n      swap1\n      dup2\n      iszero\n      mul\n      swap1\n      mload(0x40)\n      0x00\n      mload(0x40)\n      dup1\n      dup4\n      sub\n      dup2\n      dup6\n      dup9\n      dup9\n      call\n      swap4\n      pop\n      pop\n      pop\n      pop\n      iszero\n      dup1\n      iszero\n      tag_366\n      jumpi\n      returndatasize\n      0x00\n      dup1\n      returndatacopy\n      revert(0x00, returndatasize)\n    tag_366:\n      pop\n        /* \"wwcc-contracts/contracts/wwccPool.sol\":5733:5869  {... */\n      pop\n        /* \"wwcc-contracts/contracts/wwccPool.sol\":5674:5929  if(voteAmount[joiner] >= amount && voteAmount[joiner] >= 0){... */\n      jump(tag_367)\n    tag_364:\n        /* \"wwcc-contracts/contracts/wwccPool.sol\":5887:5918  revert(\"not enough voteAmount\") */\n      mload(0x40)\n      0x08c379a000000000000000000000000000000000000000000000000000000000\n      dup2\n      mstore\n      0x04\n      add\n      tag_368\n      swap1\n      tag_206\n      jump\t// in\n    tag_368:\n      mload(0x40)\n      dup1\n      swap2\n      sub\n      swap1\n      revert\n        /* \"wwcc-contracts/contracts/wwccPool.sol\":5674:5929  if(voteAmount[joiner] >= amount && voteAmount[joiner] >= 0){... */\n    tag_367:\n        /* \"wwcc-contracts/contracts/wwccPool.sol\":5945:5949  true */\n      0x01\n        /* \"wwcc-contracts/contracts/wwccPool.sol\":5938:5949  return true */\n      swap1\n      pop\n        /* \"wwcc-contracts/contracts/wwccPool.sol\":5566:5956  function voteWithdrawal(address joiner,uint256 amount) external onlyManager payable returns (bool){... */\n      swap3\n      swap2\n      pop\n      pop\n      jump\t// out\n        /* \"wwcc-contracts/contracts/wwccPool.sol\":6589:6694  function CheckVoteTickets() external view returns (uint256){... */\n    tag_70:\n        /* \"wwcc-contracts/contracts/wwccPool.sol\":6640:6647  uint256 */\n      0x00\n        /* \"wwcc-contracts/contracts/wwccPool.sol\":6665:6675  voteAmount */\n      0x02\n        /* \"wwcc-contracts/contracts/wwccPool.sol\":6665:6687  voteAmount[msg.sender] */\n      0x00\n        /* \"wwcc-contracts/contracts/wwccPool.sol\":6676:6686  msg.sender */\n      caller\n        /* \"wwcc-contracts/contracts/wwccPool.sol\":6665:6687  voteAmount[msg.sender] */\n      0xffffffffffffffffffffffffffffffffffffffff\n      and\n      0xffffffffffffffffffffffffffffffffffffffff\n      and\n      dup2\n      mstore\n      0x20\n      add\n      swap1\n      dup2\n      mstore\n      0x20\n      add\n      0x00\n      keccak256\n      sload\n        /* \"wwcc-contracts/contracts/wwccPool.sol\":6658:6687  return voteAmount[msg.sender] */\n      swap1\n      pop\n        /* \"wwcc-contracts/contracts/wwccPool.sol\":6589:6694  function CheckVoteTickets() external view returns (uint256){... */\n      swap1\n      jump\t// out\n        /* \"wwcc-contracts/contracts/wwccPool.sol\":10272:10920  function getPool(bytes32 poolKey) external view returns (string memory vs,string memory rounds,PoolViewInfo memory viewInfo){... */\n    tag_75:\n        /* \"wwcc-contracts/contracts/wwccPool.sol\":10329:10345  string memory vs */\n      0x60\n        /* \"wwcc-contracts/contracts/wwccPool.sol\":10346:10366  string memory rounds */\n      dup1\n        /* \"wwcc-contracts/contracts/wwccPool.sol\":10367:10395  PoolViewInfo memory viewInfo */\n      tag_370\n      tag_371\n      jump\t// in\n    tag_370:\n        /* \"wwcc-contracts/contracts/wwccPool.sol\":10410:10427  contains(poolKey) */\n      tag_373\n        /* \"wwcc-contracts/contracts/wwccPool.sol\":10419:10426  poolKey */\n      dup5\n        /* \"wwcc-contracts/contracts/wwccPool.sol\":10410:10418  contains */\n      tag_84\n        /* \"wwcc-contracts/contracts/wwccPool.sol\":10410:10427  contains(poolKey) */\n      jump\t// in\n    tag_373:\n        /* \"wwcc-contracts/contracts/wwccPool.sol\":10406:10914  if(!contains(poolKey)) { ... */\n      tag_374\n      jumpi\n        /* \"wwcc-contracts/contracts/wwccPool.sol\":10444:10463  revert(\"not exist\") */\n      mload(0x40)\n      0x08c379a000000000000000000000000000000000000000000000000000000000\n      dup2\n      mstore\n      0x04\n      add\n      tag_375\n      swap1\n      tag_376\n      jump\t// in\n    tag_375:\n      mload(0x40)\n      dup1\n      swap2\n      sub\n      swap1\n      revert\n        /* \"wwcc-contracts/contracts/wwccPool.sol\":10406:10914  if(!contains(poolKey)) { ... */\n    tag_374:\n        /* \"wwcc-contracts/contracts/wwccPool.sol\":10492:10509  string  memory hv */\n      0x00\n        /* \"wwcc-contracts/contracts/wwccPool.sol\":10512:10551  strConcat(WcPools[poolKey].home,\" vs \") */\n      tag_378\n        /* \"wwcc-contracts/contracts/wwccPool.sol\":10522:10529  WcPools */\n      0x03\n        /* \"wwcc-contracts/contracts/wwccPool.sol\":10522:10538  WcPools[poolKey] */\n      0x00\n        /* \"wwcc-contracts/contracts/wwccPool.sol\":10530:10537  poolKey */\n      dup8\n        /* \"wwcc-contracts/contracts/wwccPool.sol\":10522:10538  WcPools[poolKey] */\n      dup2\n      mstore\n      0x20\n      add\n      swap1\n      dup2\n      mstore\n      0x20\n      add\n      0x00\n      keccak256\n        /* \"wwcc-contracts/contracts/wwccPool.sol\":10522:10543  WcPools[poolKey].home */\n      0x00\n      add\n        /* \"wwcc-contracts/contracts/wwccPool.sol\":10512:10551  strConcat(WcPools[poolKey].home,\" vs \") */\n      dup1\n      sload\n      tag_379\n      swap1\n      tag_90\n      jump\t// in\n    tag_379:\n      dup1\n      0x1f\n      add\n      0x20\n      dup1\n      swap2\n      div\n      mul\n      0x20\n      add\n      mload(0x40)\n      swap1\n      dup2\n      add\n      0x40\n      mstore\n      dup1\n      swap3\n      swap2\n      swap1\n      dup2\n      dup2\n      mstore\n      0x20\n      add\n      dup3\n      dup1\n      sload\n      tag_380\n      swap1\n      tag_90\n      jump\t// in\n    tag_380:\n      dup1\n      iszero\n      tag_381\n      jumpi\n      dup1\n      0x1f\n      lt\n      tag_382\n      jumpi\n      0x0100\n      dup1\n      dup4\n      sload\n      div\n      mul\n      dup4\n      mstore\n      swap2\n      0x20\n      add\n      swap2\n      jump(tag_381)\n    tag_382:\n      dup3\n      add\n      swap2\n      swap1\n      0x00\n      mstore\n      keccak256(0x00, 0x20)\n      swap1\n    tag_383:\n      dup2\n      sload\n      dup2\n      mstore\n      swap1\n      0x01\n      add\n      swap1\n      0x20\n      add\n      dup1\n      dup4\n      gt\n      tag_383\n      jumpi\n      dup3\n      swap1\n      sub\n      0x1f\n      and\n      dup3\n      add\n      swap2\n    tag_381:\n      pop\n      pop\n      pop\n      pop\n      pop\n      mload(0x40)\n      dup1\n      0x40\n      add\n      0x40\n      mstore\n      dup1\n      0x04\n      dup2\n      mstore\n      0x20\n      add\n      0x2076732000000000000000000000000000000000000000000000000000000000\n      dup2\n      mstore\n      pop\n        /* \"wwcc-contracts/contracts/wwccPool.sol\":10512:10521  strConcat */\n      tag_154\n        /* \"wwcc-contracts/contracts/wwccPool.sol\":10512:10551  strConcat(WcPools[poolKey].home,\" vs \") */\n      jump\t// in\n    tag_378:\n        /* \"wwcc-contracts/contracts/wwccPool.sol\":10492:10551  string  memory hv = strConcat(WcPools[poolKey].home,\" vs \") */\n      swap1\n      pop\n        /* \"wwcc-contracts/contracts/wwccPool.sol\":10570:10606  strConcat(hv,WcPools[poolKey].visit) */\n      tag_384\n        /* \"wwcc-contracts/contracts/wwccPool.sol\":10580:10582  hv */\n      dup2\n        /* \"wwcc-contracts/contracts/wwccPool.sol\":10583:10590  WcPools */\n      0x03\n        /* \"wwcc-contracts/contracts/wwccPool.sol\":10583:10599  WcPools[poolKey] */\n      0x00\n        /* \"wwcc-contracts/contracts/wwccPool.sol\":10591:10598  poolKey */\n      dup9\n        /* \"wwcc-contracts/contracts/wwccPool.sol\":10583:10599  WcPools[poolKey] */\n      dup2\n      mstore\n      0x20\n      add\n      swap1\n      dup2\n      mstore\n      0x20\n      add\n      0x00\n      keccak256\n        /* \"wwcc-contracts/contracts/wwccPool.sol\":10583:10605  WcPools[poolKey].visit */\n      0x01\n      add\n        /* \"wwcc-contracts/contracts/wwccPool.sol\":10570:10606  strConcat(hv,WcPools[poolKey].visit) */\n      dup1\n      sload\n      tag_385\n      swap1\n      tag_90\n      jump\t// in\n    tag_385:\n      dup1\n      0x1f\n      add\n      0x20\n      dup1\n      swap2\n      div\n      mul\n      0x20\n      add\n      mload(0x40)\n      swap1\n      dup2\n      add\n      0x40\n      mstore\n      dup1\n      swap3\n      swap2\n      swap1\n      dup2\n      dup2\n      mstore\n      0x20\n      add\n      dup3\n      dup1\n      sload\n      tag_386\n      swap1\n      tag_90\n      jump\t// in\n    tag_386:\n      dup1\n      iszero\n      tag_387\n      jumpi\n      dup1\n      0x1f\n      lt\n      tag_388\n      jumpi\n      0x0100\n      dup1\n      dup4\n      sload\n      div\n      mul\n      dup4\n      mstore\n      swap2\n      0x20\n      add\n      swap2\n      jump(tag_387)\n    tag_388:\n      dup3\n      add\n      swap2\n      swap1\n      0x00\n      mstore\n      keccak256(0x00, 0x20)\n      swap1\n    tag_389:\n      dup2\n      sload\n      dup2\n      mstore\n      swap1\n      0x01\n      add\n      swap1\n      0x20\n      add\n      dup1\n      dup4\n      gt\n      tag_389\n      jumpi\n      dup3\n      swap1\n      sub\n      0x1f\n      and\n      dup3\n      add\n      swap2\n    tag_387:\n      pop\n      pop\n      pop\n      pop\n      pop\n        /* \"wwcc-contracts/contracts/wwccPool.sol\":10570:10579  strConcat */\n      tag_154\n        /* \"wwcc-contracts/contracts/wwccPool.sol\":10570:10606  strConcat(hv,WcPools[poolKey].visit) */\n      jump\t// in\n    tag_384:\n        /* \"wwcc-contracts/contracts/wwccPool.sol\":10565:10606  vs = strConcat(hv,WcPools[poolKey].visit) */\n      swap4\n      pop\n        /* \"wwcc-contracts/contracts/wwccPool.sol\":10620:10642  PoolViewInfo memory vi */\n      0x00\n        /* \"wwcc-contracts/contracts/wwccPool.sol\":10645:10825  PoolViewInfo(WcPools[poolKey].wPool,... */\n      mload(0x40)\n      dup1\n      0xa0\n      add\n      0x40\n      mstore\n      dup1\n        /* \"wwcc-contracts/contracts/wwccPool.sol\":10658:10665  WcPools */\n      0x03\n        /* \"wwcc-contracts/contracts/wwccPool.sol\":10658:10674  WcPools[poolKey] */\n      0x00\n        /* \"wwcc-contracts/contracts/wwccPool.sol\":10666:10673  poolKey */\n      dup10\n        /* \"wwcc-contracts/contracts/wwccPool.sol\":10658:10674  WcPools[poolKey] */\n      dup2\n      mstore\n      0x20\n      add\n      swap1\n      dup2\n      mstore\n      0x20\n      add\n      0x00\n      keccak256\n        /* \"wwcc-contracts/contracts/wwccPool.sol\":10658:10680  WcPools[poolKey].wPool */\n      0x03\n      add\n      sload\n        /* \"wwcc-contracts/contracts/wwccPool.sol\":10645:10825  PoolViewInfo(WcPools[poolKey].wPool,... */\n      dup2\n      mstore\n      0x20\n      add\n        /* \"wwcc-contracts/contracts/wwccPool.sol\":10694:10701  WcPools */\n      0x03\n        /* \"wwcc-contracts/contracts/wwccPool.sol\":10694:10710  WcPools[poolKey] */\n      0x00\n        /* \"wwcc-contracts/contracts/wwccPool.sol\":10702:10709  poolKey */\n      dup10\n        /* \"wwcc-contracts/contracts/wwccPool.sol\":10694:10710  WcPools[poolKey] */\n      dup2\n      mstore\n      0x20\n      add\n      swap1\n      dup2\n      mstore\n      0x20\n      add\n      0x00\n      keccak256\n        /* \"wwcc-contracts/contracts/wwccPool.sol\":10694:10716  WcPools[poolKey].dPool */\n      0x04\n      add\n      sload\n        /* \"wwcc-contracts/contracts/wwccPool.sol\":10645:10825  PoolViewInfo(WcPools[poolKey].wPool,... */\n      dup2\n      mstore\n      0x20\n      add\n        /* \"wwcc-contracts/contracts/wwccPool.sol\":10730:10737  WcPools */\n      0x03\n        /* \"wwcc-contracts/contracts/wwccPool.sol\":10730:10746  WcPools[poolKey] */\n      0x00\n        /* \"wwcc-contracts/contracts/wwccPool.sol\":10738:10745  poolKey */\n      dup10\n        /* \"wwcc-contracts/contracts/wwccPool.sol\":10730:10746  WcPools[poolKey] */\n      dup2\n      mstore\n      0x20\n      add\n      swap1\n      dup2\n      mstore\n      0x20\n      add\n      0x00\n      keccak256\n        /* \"wwcc-contracts/contracts/wwccPool.sol\":10730:10752  WcPools[poolKey].lPool */\n      0x05\n      add\n      sload\n        /* \"wwcc-contracts/contracts/wwccPool.sol\":10645:10825  PoolViewInfo(WcPools[poolKey].wPool,... */\n      dup2\n      mstore\n      0x20\n      add\n        /* \"wwcc-contracts/contracts/wwccPool.sol\":10766:10773  WcPools */\n      0x03\n        /* \"wwcc-contracts/contracts/wwccPool.sol\":10766:10782  WcPools[poolKey] */\n      0x00\n        /* \"wwcc-contracts/contracts/wwccPool.sol\":10774:10781  poolKey */\n      dup10\n        /* \"wwcc-contracts/contracts/wwccPool.sol\":10766:10782  WcPools[poolKey] */\n      dup2\n      mstore\n      0x20\n      add\n      swap1\n      dup2\n      mstore\n      0x20\n      add\n      0x00\n      keccak256\n        /* \"wwcc-contracts/contracts/wwccPool.sol\":10766:10788  WcPools[poolKey].sPool */\n      0x06\n      add\n      sload\n        /* \"wwcc-contracts/contracts/wwccPool.sol\":10645:10825  PoolViewInfo(WcPools[poolKey].wPool,... */\n      dup2\n      mstore\n      0x20\n      add\n        /* \"wwcc-contracts/contracts/wwccPool.sol\":10802:10809  WcPools */\n      0x03\n        /* \"wwcc-contracts/contracts/wwccPool.sol\":10802:10818  WcPools[poolKey] */\n      0x00\n        /* \"wwcc-contracts/contracts/wwccPool.sol\":10810:10817  poolKey */\n      dup10\n        /* \"wwcc-contracts/contracts/wwccPool.sol\":10802:10818  WcPools[poolKey] */\n      dup2\n      mstore\n      0x20\n      add\n      swap1\n      dup2\n      mstore\n      0x20\n      add\n      0x00\n      keccak256\n        /* \"wwcc-contracts/contracts/wwccPool.sol\":10802:10824  WcPools[poolKey].basal */\n      0x07\n      add\n      sload\n        /* \"wwcc-contracts/contracts/wwccPool.sol\":10645:10825  PoolViewInfo(WcPools[poolKey].wPool,... */\n      dup2\n      mstore\n      pop\n        /* \"wwcc-contracts/contracts/wwccPool.sol\":10620:10825  PoolViewInfo memory vi = PoolViewInfo(WcPools[poolKey].wPool,... */\n      swap1\n      pop\n        /* \"wwcc-contracts/contracts/wwccPool.sol\":10847:10849  vs */\n      dup5\n        /* \"wwcc-contracts/contracts/wwccPool.sol\":10863:10870  WcPools */\n      0x03\n        /* \"wwcc-contracts/contracts/wwccPool.sol\":10863:10879  WcPools[poolKey] */\n      0x00\n        /* \"wwcc-contracts/contracts/wwccPool.sol\":10871:10878  poolKey */\n      dup9\n        /* \"wwcc-contracts/contracts/wwccPool.sol\":10863:10879  WcPools[poolKey] */\n      dup2\n      mstore\n      0x20\n      add\n      swap1\n      dup2\n      mstore\n      0x20\n      add\n      0x00\n      keccak256\n        /* \"wwcc-contracts/contracts/wwccPool.sol\":10863:10886  WcPools[poolKey].rounds */\n      0x02\n      add\n        /* \"wwcc-contracts/contracts/wwccPool.sol\":10900:10902  vi */\n      dup3\n        /* \"wwcc-contracts/contracts/wwccPool.sol\":10839:10903  return (vs,... */\n      dup2\n      dup1\n      sload\n      tag_390\n      swap1\n      tag_90\n      jump\t// in\n    tag_390:\n      dup1\n      0x1f\n      add\n      0x20\n      dup1\n      swap2\n      div\n      mul\n      0x20\n      add\n      mload(0x40)\n      swap1\n      dup2\n      add\n      0x40\n      mstore\n      dup1\n      swap3\n      swap2\n      swap1\n      dup2\n      dup2\n      mstore\n      0x20\n      add\n      dup3\n      dup1\n      sload\n      tag_391\n      swap1\n      tag_90\n      jump\t// in\n    tag_391:\n      dup1\n      iszero\n      tag_392\n      jumpi\n      dup1\n      0x1f\n      lt\n      tag_393\n      jumpi\n      0x0100\n      dup1\n      dup4\n      sload\n      div\n      mul\n      dup4\n      mstore\n      swap2\n      0x20\n      add\n      swap2\n      jump(tag_392)\n    tag_393:\n      dup3\n      add\n      swap2\n      swap1\n      0x00\n      mstore\n      keccak256(0x00, 0x20)\n      swap1\n    tag_394:\n      dup2\n      sload\n      dup2\n      mstore\n      swap1\n      0x01\n      add\n      swap1\n      0x20\n      add\n      dup1\n      dup4\n      gt\n      tag_394\n      jumpi\n      dup3\n      swap1\n      sub\n      0x1f\n      and\n      dup3\n      add\n      swap2\n    tag_392:\n      pop\n      pop\n      pop\n      pop\n      pop\n      swap2\n      pop\n      swap5\n      pop\n      swap5\n      pop\n      swap5\n      pop\n      pop\n      pop\n        /* \"wwcc-contracts/contracts/wwccPool.sol\":10272:10920  function getPool(bytes32 poolKey) external view returns (string memory vs,string memory rounds,PoolViewInfo memory viewInfo){... */\n      swap2\n      swap4\n      swap1\n      swap3\n      pop\n      jump\t// out\n        /* \"wwcc-contracts/contracts/wwccPool.sol\":10984:11097  function contains(bytes32 poolKey) internal view returns (bool) {... */\n    tag_84:\n        /* \"wwcc-contracts/contracts/wwccPool.sol\":11042:11046  bool */\n      0x00\n        /* \"wwcc-contracts/contracts/wwccPool.sol\":11069:11076  WcPools */\n      0x03\n        /* \"wwcc-contracts/contracts/wwccPool.sol\":11069:11085  WcPools[poolKey] */\n      0x00\n        /* \"wwcc-contracts/contracts/wwccPool.sol\":11077:11084  poolKey */\n      dup4\n        /* \"wwcc-contracts/contracts/wwccPool.sol\":11069:11085  WcPools[poolKey] */\n      dup2\n      mstore\n      0x20\n      add\n      swap1\n      dup2\n      mstore\n      0x20\n      add\n      0x00\n      keccak256\n        /* \"wwcc-contracts/contracts/wwccPool.sol\":11069:11090  WcPools[poolKey].used */\n      0x08\n      add\n      0x01\n      swap1\n      sload\n      swap1\n      0x0100\n      exp\n      swap1\n      div\n      0xff\n      and\n        /* \"wwcc-contracts/contracts/wwccPool.sol\":11062:11090  return WcPools[poolKey].used */\n      swap1\n      pop\n        /* \"wwcc-contracts/contracts/wwccPool.sol\":10984:11097  function contains(bytes32 poolKey) internal view returns (bool) {... */\n      swap2\n      swap1\n      pop\n      jump\t// out\n        /* \"wwcc-contracts/contracts/safemath.sol\":274:417  function div(uint256 a, uint256 b) internal pure returns (uint256) {... */\n    tag_110:\n        /* \"wwcc-contracts/contracts/safemath.sol\":332:339  uint256 */\n      0x00\n        /* \"wwcc-contracts/contracts/safemath.sol\":363:364  0 */\n      dup1\n        /* \"wwcc-contracts/contracts/safemath.sol\":359:360  b */\n      dup3\n        /* \"wwcc-contracts/contracts/safemath.sol\":359:364  b > 0 */\n      gt\n        /* \"wwcc-contracts/contracts/safemath.sol\":351:365  require(b > 0) */\n      tag_397\n      jumpi\n      0x00\n      dup1\n      revert\n    tag_397:\n        /* \"wwcc-contracts/contracts/safemath.sol\":375:384  uint256 c */\n      0x00\n        /* \"wwcc-contracts/contracts/safemath.sol\":391:392  b */\n      dup3\n        /* \"wwcc-contracts/contracts/safemath.sol\":387:388  a */\n      dup5\n        /* \"wwcc-contracts/contracts/safemath.sol\":387:392  a / b */\n      tag_398\n      swap2\n      swap1\n      tag_317\n      jump\t// in\n    tag_398:\n        /* \"wwcc-contracts/contracts/safemath.sol\":375:392  uint256 c = a / b */\n      swap1\n      pop\n        /* \"wwcc-contracts/contracts/safemath.sol\":409:410  c */\n      dup1\n        /* \"wwcc-contracts/contracts/safemath.sol\":402:410  return c */\n      swap2\n      pop\n      pop\n        /* \"wwcc-contracts/contracts/safemath.sol\":274:417  function div(uint256 a, uint256 b) internal pure returns (uint256) {... */\n      swap3\n      swap2\n      pop\n      pop\n      jump\t// out\n        /* \"wwcc-contracts/contracts/wwccPool.sol\":11127:11616  function strConcat(string memory _a,string memory _b) internal pure returns (string memory){... */\n    tag_154:\n        /* \"wwcc-contracts/contracts/wwccPool.sol\":11204:11217  string memory */\n      0x60\n        /* \"wwcc-contracts/contracts/wwccPool.sol\":11232:11248  bytes memory _ba */\n      0x00\n        /* \"wwcc-contracts/contracts/wwccPool.sol\":11257:11259  _a */\n      dup4\n        /* \"wwcc-contracts/contracts/wwccPool.sol\":11232:11260  bytes memory _ba = bytes(_a) */\n      swap1\n      pop\n        /* \"wwcc-contracts/contracts/wwccPool.sol\":11274:11290  bytes memory _bb */\n      0x00\n        /* \"wwcc-contracts/contracts/wwccPool.sol\":11299:11301  _b */\n      dup4\n        /* \"wwcc-contracts/contracts/wwccPool.sol\":11274:11302  bytes memory _bb = bytes(_b) */\n      swap1\n      pop\n        /* \"wwcc-contracts/contracts/wwccPool.sol\":11316:11333  string memory ret */\n      0x00\n        /* \"wwcc-contracts/contracts/wwccPool.sol\":11360:11363  _bb */\n      dup2\n        /* \"wwcc-contracts/contracts/wwccPool.sol\":11360:11370  _bb.length */\n      mload\n        /* \"wwcc-contracts/contracts/wwccPool.sol\":11347:11350  _ba */\n      dup4\n        /* \"wwcc-contracts/contracts/wwccPool.sol\":11347:11357  _ba.length */\n      mload\n        /* \"wwcc-contracts/contracts/wwccPool.sol\":11347:11370  _ba.length + _bb.length */\n      tag_400\n      swap2\n      swap1\n      tag_18\n      jump\t// in\n    tag_400:\n        /* \"wwcc-contracts/contracts/wwccPool.sol\":11336:11371  new string(_ba.length + _bb.length) */\n      0xffffffffffffffff\n      dup2\n      gt\n      iszero\n      tag_401\n      jumpi\n      tag_402\n      tag_403\n      jump\t// in\n    tag_402:\n    tag_401:\n      mload(0x40)\n      swap1\n      dup1\n      dup3\n      mstore\n      dup1\n      0x1f\n      add\n      not(0x1f)\n      and\n      0x20\n      add\n      dup3\n      add\n      0x40\n      mstore\n      dup1\n      iszero\n      tag_404\n      jumpi\n      dup2\n      0x20\n      add\n      0x01\n      dup3\n      mul\n      dup1\n      calldatasize\n      dup4\n      calldatacopy\n      dup1\n      dup3\n      add\n      swap2\n      pop\n      pop\n      swap1\n      pop\n    tag_404:\n      pop\n        /* \"wwcc-contracts/contracts/wwccPool.sol\":11316:11371  string memory ret = new string(_ba.length + _bb.length) */\n      swap1\n      pop\n        /* \"wwcc-contracts/contracts/wwccPool.sol\":11385:11402  bytes memory bret */\n      0x00\n        /* \"wwcc-contracts/contracts/wwccPool.sol\":11411:11414  ret */\n      dup2\n        /* \"wwcc-contracts/contracts/wwccPool.sol\":11385:11415  bytes memory bret = bytes(ret) */\n      swap1\n      pop\n        /* \"wwcc-contracts/contracts/wwccPool.sol\":11429:11435  uint k */\n      0x00\n        /* \"wwcc-contracts/contracts/wwccPool.sol\":11457:11463  uint i */\n      dup1\n        /* \"wwcc-contracts/contracts/wwccPool.sol\":11453:11506  for(uint i = 0;i < _ba.length;i++) bret[k++] = _ba[i] */\n    tag_405:\n        /* \"wwcc-contracts/contracts/wwccPool.sol\":11472:11475  _ba */\n      dup6\n        /* \"wwcc-contracts/contracts/wwccPool.sol\":11472:11482  _ba.length */\n      mload\n        /* \"wwcc-contracts/contracts/wwccPool.sol\":11468:11469  i */\n      dup2\n        /* \"wwcc-contracts/contracts/wwccPool.sol\":11468:11482  i < _ba.length */\n      lt\n        /* \"wwcc-contracts/contracts/wwccPool.sol\":11453:11506  for(uint i = 0;i < _ba.length;i++) bret[k++] = _ba[i] */\n      iszero\n      tag_406\n      jumpi\n        /* \"wwcc-contracts/contracts/wwccPool.sol\":11500:11503  _ba */\n      dup6\n        /* \"wwcc-contracts/contracts/wwccPool.sol\":11504:11505  i */\n      dup2\n        /* \"wwcc-contracts/contracts/wwccPool.sol\":11500:11506  _ba[i] */\n      dup2\n      mload\n      dup2\n      lt\n      tag_408\n      jumpi\n      tag_409\n      tag_293\n      jump\t// in\n    tag_409:\n    tag_408:\n      0x20\n      add\n      add\n      mload\n      0xf8\n      shr\n      0xf8\n      shl\n        /* \"wwcc-contracts/contracts/wwccPool.sol\":11488:11492  bret */\n      dup4\n        /* \"wwcc-contracts/contracts/wwccPool.sol\":11493:11496  k++ */\n      dup4\n      dup1\n      tag_410\n      swap1\n      tag_358\n      jump\t// in\n    tag_410:\n      swap5\n      pop\n        /* \"wwcc-contracts/contracts/wwccPool.sol\":11488:11497  bret[k++] */\n      dup2\n      mload\n      dup2\n      lt\n      tag_411\n      jumpi\n      tag_412\n      tag_293\n      jump\t// in\n    tag_412:\n    tag_411:\n      0x20\n      add\n      add\n        /* \"wwcc-contracts/contracts/wwccPool.sol\":11488:11506  bret[k++] = _ba[i] */\n      swap1\n      not(0xffffffffffffffffffffffffffffffffffffffffffffffffffffffffffffff)\n      and\n      swap1\n      dup2\n      0x00\n      byte\n      swap1\n      mstore8\n      pop\n        /* \"wwcc-contracts/contracts/wwccPool.sol\":11483:11486  i++ */\n      dup1\n      dup1\n      tag_413\n      swap1\n      tag_358\n      jump\t// in\n    tag_413:\n      swap2\n      pop\n      pop\n        /* \"wwcc-contracts/contracts/wwccPool.sol\":11453:11506  for(uint i = 0;i < _ba.length;i++) bret[k++] = _ba[i] */\n      jump(tag_405)\n    tag_406:\n      pop\n        /* \"wwcc-contracts/contracts/wwccPool.sol\":11524:11530  uint i */\n      0x00\n        /* \"wwcc-contracts/contracts/wwccPool.sol\":11520:11573  for(uint i = 0;i < _bb.length;i++) bret[k++] = _bb[i] */\n    tag_414:\n        /* \"wwcc-contracts/contracts/wwccPool.sol\":11539:11542  _bb */\n      dup5\n        /* \"wwcc-contracts/contracts/wwccPool.sol\":11539:11549  _bb.length */\n      mload\n        /* \"wwcc-contracts/contracts/wwccPool.sol\":11535:11536  i */\n      dup2\n        /* \"wwcc-contracts/contracts/wwccPool.sol\":11535:11549  i < _bb.length */\n      lt\n        /* \"wwcc-contracts/contracts/wwccPool.sol\":11520:11573  for(uint i = 0;i < _bb.length;i++) bret[k++] = _bb[i] */\n      iszero\n      tag_415\n      jumpi\n        /* \"wwcc-contracts/contracts/wwccPool.sol\":11567:11570  _bb */\n      dup5\n        /* \"wwcc-contracts/contracts/wwccPool.sol\":11571:11572  i */\n      dup2\n        /* \"wwcc-contracts/contracts/wwccPool.sol\":11567:11573  _bb[i] */\n      dup2\n      mload\n      dup2\n      lt\n      tag_417\n      jumpi\n      tag_418\n      tag_293\n      jump\t// in\n    tag_418:\n    tag_417:\n      0x20\n      add\n      add\n      mload\n      0xf8\n      shr\n      0xf8\n      shl\n        /* \"wwcc-contracts/contracts/wwccPool.sol\":11555:11559  bret */\n      dup4\n        /* \"wwcc-contracts/contracts/wwccPool.sol\":11560:11563  k++ */\n      dup4\n      dup1\n      tag_419\n      swap1\n      tag_358\n      jump\t// in\n    tag_419:\n      swap5\n      pop\n        /* \"wwcc-contracts/contracts/wwccPool.sol\":11555:11564  bret[k++] */\n      dup2\n      mload\n      dup2\n      lt\n      tag_420\n      jumpi\n      tag_421\n      tag_293\n      jump\t// in\n    tag_421:\n    tag_420:\n      0x20\n      add\n      add\n        /* \"wwcc-contracts/contracts/wwccPool.sol\":11555:11573  bret[k++] = _bb[i] */\n      swap1\n      not(0xffffffffffffffffffffffffffffffffffffffffffffffffffffffffffffff)\n      and\n      swap1\n      dup2\n      0x00\n      byte\n      swap1\n      mstore8\n      pop\n        /* \"wwcc-contracts/contracts/wwccPool.sol\":11550:11553  i++ */\n      dup1\n      dup1\n      tag_422\n      swap1\n      tag_358\n      jump\t// in\n    tag_422:\n      swap2\n      pop\n      pop\n        /* \"wwcc-contracts/contracts/wwccPool.sol\":11520:11573  for(uint i = 0;i < _bb.length;i++) bret[k++] = _bb[i] */\n      jump(tag_414)\n    tag_415:\n      pop\n        /* \"wwcc-contracts/contracts/wwccPool.sol\":11601:11604  ret */\n      dup3\n        /* \"wwcc-contracts/contracts/wwccPool.sol\":11587:11605  return string(ret) */\n      swap6\n      pop\n      pop\n      pop\n      pop\n      pop\n      pop\n        /* \"wwcc-contracts/contracts/wwccPool.sol\":11127:11616  function strConcat(string memory _a,string memory _b) internal pure returns (string memory){... */\n      swap3\n      swap2\n      pop\n      pop\n      jump\t// out\n        /* \"wwcc-contracts/contracts/wwccPool.sol\":11780:11909  function uint256ToString(uint256 u) internal pure returns(string memory){... */\n    tag_224:\n        /* \"wwcc-contracts/contracts/wwccPool.sol\":11838:11851  string memory */\n      0x60\n        /* \"wwcc-contracts/contracts/wwccPool.sol\":11873:11902  toString(abi.encodePacked(u)) */\n      tag_424\n        /* \"wwcc-contracts/contracts/wwccPool.sol\":11899:11900  u */\n      dup3\n        /* \"wwcc-contracts/contracts/wwccPool.sol\":11882:11901  abi.encodePacked(u) */\n      add(0x20, mload(0x40))\n      tag_425\n      swap2\n      swap1\n      tag_426\n      jump\t// in\n    tag_425:\n      mload(0x40)\n      0x20\n      dup2\n      dup4\n      sub\n      sub\n      dup2\n      mstore\n      swap1\n      0x40\n      mstore\n        /* \"wwcc-contracts/contracts/wwccPool.sol\":11873:11881  toString */\n      tag_427\n        /* \"wwcc-contracts/contracts/wwccPool.sol\":11873:11902  toString(abi.encodePacked(u)) */\n      jump\t// in\n    tag_424:\n        /* \"wwcc-contracts/contracts/wwccPool.sol\":11866:11902  return toString(abi.encodePacked(u)) */\n      swap1\n      pop\n        /* \"wwcc-contracts/contracts/wwccPool.sol\":11780:11909  function uint256ToString(uint256 u) internal pure returns(string memory){... */\n      swap2\n      swap1\n      pop\n      jump\t// out\n        /* \"wwcc-contracts/contracts/wwccPool.sol\":11914:12043  function bytes32ToString(bytes32 b) internal pure returns(string memory){... */\n    tag_228:\n        /* \"wwcc-contracts/contracts/wwccPool.sol\":11972:11985  string memory */\n      0x60\n        /* \"wwcc-contracts/contracts/wwccPool.sol\":12007:12036  toString(abi.encodePacked(b)) */\n      tag_429\n        /* \"wwcc-contracts/contracts/wwccPool.sol\":12033:12034  b */\n      dup3\n        /* \"wwcc-contracts/contracts/wwccPool.sol\":12016:12035  abi.encodePacked(b) */\n      add(0x20, mload(0x40))\n      tag_430\n      swap2\n      swap1\n      tag_431\n      jump\t// in\n    tag_430:\n      mload(0x40)\n      0x20\n      dup2\n      dup4\n      sub\n      sub\n      dup2\n      mstore\n      swap1\n      0x40\n      mstore\n        /* \"wwcc-contracts/contracts/wwccPool.sol\":12007:12015  toString */\n      tag_427\n        /* \"wwcc-contracts/contracts/wwccPool.sol\":12007:12036  toString(abi.encodePacked(b)) */\n      jump\t// in\n    tag_429:\n        /* \"wwcc-contracts/contracts/wwccPool.sol\":12000:12036  return toString(abi.encodePacked(b)) */\n      swap1\n      pop\n        /* \"wwcc-contracts/contracts/wwccPool.sol\":11914:12043  function bytes32ToString(bytes32 b) internal pure returns(string memory){... */\n      swap2\n      swap1\n      pop\n      jump\t// out\n        /* \"wwcc-contracts/contracts/safemath.sol\":62:266  function mul(uint256 a, uint256 b) internal pure returns (uint256) {... */\n    tag_302:\n        /* \"wwcc-contracts/contracts/safemath.sol\":120:127  uint256 */\n      0x00\n        /* \"wwcc-contracts/contracts/safemath.sol\":148:149  0 */\n      dup1\n        /* \"wwcc-contracts/contracts/safemath.sol\":143:144  a */\n      dup4\n        /* \"wwcc-contracts/contracts/safemath.sol\":143:149  a == 0 */\n      eq\n        /* \"wwcc-contracts/contracts/safemath.sol\":139:184  if (a == 0) {... */\n      iszero\n      tag_433\n      jumpi\n        /* \"wwcc-contracts/contracts/safemath.sol\":172:173  0 */\n      0x00\n        /* \"wwcc-contracts/contracts/safemath.sol\":165:173  return 0 */\n      swap1\n      pop\n      jump(tag_432)\n        /* \"wwcc-contracts/contracts/safemath.sol\":139:184  if (a == 0) {... */\n    tag_433:\n        /* \"wwcc-contracts/contracts/safemath.sol\":195:204  uint256 c */\n      0x00\n        /* \"wwcc-contracts/contracts/safemath.sol\":211:212  b */\n      dup3\n        /* \"wwcc-contracts/contracts/safemath.sol\":207:208  a */\n      dup5\n        /* \"wwcc-contracts/contracts/safemath.sol\":207:212  a * b */\n      tag_434\n      swap2\n      swap1\n      tag_315\n      jump\t// in\n    tag_434:\n        /* \"wwcc-contracts/contracts/safemath.sol\":195:212  uint256 c = a * b */\n      swap1\n      pop\n        /* \"wwcc-contracts/contracts/safemath.sol\":239:240  b */\n      dup3\n        /* \"wwcc-contracts/contracts/safemath.sol\":234:235  a */\n      dup5\n        /* \"wwcc-contracts/contracts/safemath.sol\":230:231  c */\n      dup3\n        /* \"wwcc-contracts/contracts/safemath.sol\":230:235  c / a */\n      tag_435\n      swap2\n      swap1\n      tag_317\n      jump\t// in\n    tag_435:\n        /* \"wwcc-contracts/contracts/safemath.sol\":230:240  c / a == b */\n      eq\n        /* \"wwcc-contracts/contracts/safemath.sol\":222:241  require(c / a == b) */\n      tag_436\n      jumpi\n      0x00\n      dup1\n      revert\n    tag_436:\n        /* \"wwcc-contracts/contracts/safemath.sol\":258:259  c */\n      dup1\n        /* \"wwcc-contracts/contracts/safemath.sol\":251:259  return c */\n      swap2\n      pop\n      pop\n        /* \"wwcc-contracts/contracts/safemath.sol\":62:266  function mul(uint256 a, uint256 b) internal pure returns (uint256) {... */\n    tag_432:\n      swap3\n      swap2\n      pop\n      pop\n      jump\t// out\n        /* \"wwcc-contracts/contracts/wwccPool.sol\":12048:12535  function toString(bytes memory data) internal pure returns(string memory){... */\n    tag_427:\n        /* \"wwcc-contracts/contracts/wwccPool.sol\":12107:12120  string memory */\n      0x60\n        /* \"wwcc-contracts/contracts/wwccPool.sol\":12135:12156  bytes memory alphabet */\n      0x00\n        /* \"wwcc-contracts/contracts/wwccPool.sol\":12135:12177  bytes memory alphabet = \"0123456789abcdef\" */\n      mload(0x40)\n      dup1\n      0x40\n      add\n      0x40\n      mstore\n      dup1\n      0x10\n      dup2\n      mstore\n      0x20\n      add\n      0x3031323334353637383961626364656600000000000000000000000000000000\n      dup2\n      mstore\n      pop\n      swap1\n      pop\n        /* \"wwcc-contracts/contracts/wwccPool.sol\":12191:12207  bytes memory str */\n      0x00\n        /* \"wwcc-contracts/contracts/wwccPool.sol\":12238:12239  2 */\n      0x02\n        /* \"wwcc-contracts/contracts/wwccPool.sol\":12224:12228  data */\n      dup5\n        /* \"wwcc-contracts/contracts/wwccPool.sol\":12224:12235  data.length */\n      mload\n        /* \"wwcc-contracts/contracts/wwccPool.sol\":12224:12239  data.length * 2 */\n      tag_438\n      swap2\n      swap1\n      tag_315\n      jump\t// in\n    tag_438:\n        /* \"wwcc-contracts/contracts/wwccPool.sol\":12220:12221  2 */\n      0x02\n        /* \"wwcc-contracts/contracts/wwccPool.sol\":12220:12239  2 + data.length * 2 */\n      tag_439\n      swap2\n      swap1\n      tag_18\n      jump\t// in\n    tag_439:\n        /* \"wwcc-contracts/contracts/wwccPool.sol\":12210:12240  new bytes(2 + data.length * 2) */\n      0xffffffffffffffff\n      dup2\n      gt\n      iszero\n      tag_440\n      jumpi\n      tag_441\n      tag_403\n      jump\t// in\n    tag_441:\n    tag_440:\n      mload(0x40)\n      swap1\n      dup1\n      dup3\n      mstore\n      dup1\n      0x1f\n      add\n      not(0x1f)\n      and\n      0x20\n      add\n      dup3\n      add\n      0x40\n      mstore\n      dup1\n      iszero\n      tag_442\n      jumpi\n      dup2\n      0x20\n      add\n      0x01\n      dup3\n      mul\n      dup1\n      calldatasize\n      dup4\n      calldatacopy\n      dup1\n      dup3\n      add\n      swap2\n      pop\n      pop\n      swap1\n      pop\n    tag_442:\n      pop\n        /* \"wwcc-contracts/contracts/wwccPool.sol\":12191:12240  bytes memory str = new bytes(2 + data.length * 2) */\n      swap1\n      pop\n        /* \"wwcc-contracts/contracts/wwccPool.sol\":12254:12266  str[0] = \"0\" */\n      0x3000000000000000000000000000000000000000000000000000000000000000\n        /* \"wwcc-contracts/contracts/wwccPool.sol\":12254:12257  str */\n      dup2\n        /* \"wwcc-contracts/contracts/wwccPool.sol\":12258:12259  0 */\n      0x00\n        /* \"wwcc-contracts/contracts/wwccPool.sol\":12254:12260  str[0] */\n      dup2\n      mload\n      dup2\n      lt\n      tag_443\n      jumpi\n      tag_444\n      tag_293\n      jump\t// in\n    tag_444:\n    tag_443:\n      0x20\n      add\n      add\n        /* \"wwcc-contracts/contracts/wwccPool.sol\":12254:12266  str[0] = \"0\" */\n      swap1\n      not(0xffffffffffffffffffffffffffffffffffffffffffffffffffffffffffffff)\n      and\n      swap1\n      dup2\n      0x00\n      byte\n      swap1\n      mstore8\n      pop\n        /* \"wwcc-contracts/contracts/wwccPool.sol\":12280:12292  str[1] = \"x\" */\n      0x7800000000000000000000000000000000000000000000000000000000000000\n        /* \"wwcc-contracts/contracts/wwccPool.sol\":12280:12283  str */\n      dup2\n        /* \"wwcc-contracts/contracts/wwccPool.sol\":12284:12285  1 */\n      0x01\n        /* \"wwcc-contracts/contracts/wwccPool.sol\":12280:12286  str[1] */\n      dup2\n      mload\n      dup2\n      lt\n      tag_445\n      jumpi\n      tag_446\n      tag_293\n      jump\t// in\n    tag_446:\n    tag_445:\n      0x20\n      add\n      add\n        /* \"wwcc-contracts/contracts/wwccPool.sol\":12280:12292  str[1] = \"x\" */\n      swap1\n      not(0xffffffffffffffffffffffffffffffffffffffffffffffffffffffffffffff)\n      and\n      swap1\n      dup2\n      0x00\n      byte\n      swap1\n      mstore8\n      pop\n        /* \"wwcc-contracts/contracts/wwccPool.sol\":12310:12316  uint i */\n      0x00\n        /* \"wwcc-contracts/contracts/wwccPool.sol\":12306:12497  for(uint i =0;i < data.length;i++){... */\n    tag_447:\n        /* \"wwcc-contracts/contracts/wwccPool.sol\":12324:12328  data */\n      dup5\n        /* \"wwcc-contracts/contracts/wwccPool.sol\":12324:12335  data.length */\n      mload\n        /* \"wwcc-contracts/contracts/wwccPool.sol\":12320:12321  i */\n      dup2\n        /* \"wwcc-contracts/contracts/wwccPool.sol\":12320:12335  i < data.length */\n      lt\n        /* \"wwcc-contracts/contracts/wwccPool.sol\":12306:12497  for(uint i =0;i < data.length;i++){... */\n      iszero\n      tag_448\n      jumpi\n        /* \"wwcc-contracts/contracts/wwccPool.sol\":12375:12383  alphabet */\n      dup3\n        /* \"wwcc-contracts/contracts/wwccPool.sol\":12406:12407  4 */\n      0x04\n        /* \"wwcc-contracts/contracts/wwccPool.sol\":12395:12399  data */\n      dup7\n        /* \"wwcc-contracts/contracts/wwccPool.sol\":12400:12401  i */\n      dup4\n        /* \"wwcc-contracts/contracts/wwccPool.sol\":12395:12402  data[i] */\n      dup2\n      mload\n      dup2\n      lt\n      tag_450\n      jumpi\n      tag_451\n      tag_293\n      jump\t// in\n    tag_451:\n    tag_450:\n      0x20\n      add\n      add\n      mload\n      0xf8\n      shr\n      0xf8\n      shl\n        /* \"wwcc-contracts/contracts/wwccPool.sol\":12395:12407  data[i] >> 4 */\n      not(0xffffffffffffffffffffffffffffffffffffffffffffffffffffffffffffff)\n      and\n      swap1\n      shr\n        /* \"wwcc-contracts/contracts/wwccPool.sol\":12389:12408  uint8(data[i] >> 4) */\n      0xf8\n      shr\n        /* \"wwcc-contracts/contracts/wwccPool.sol\":12384:12409  uint(uint8(data[i] >> 4)) */\n      0xff\n      and\n        /* \"wwcc-contracts/contracts/wwccPool.sol\":12375:12410  alphabet[uint(uint8(data[i] >> 4))] */\n      dup2\n      mload\n      dup2\n      lt\n      tag_452\n      jumpi\n      tag_453\n      tag_293\n      jump\t// in\n    tag_453:\n    tag_452:\n      0x20\n      add\n      add\n      mload\n      0xf8\n      shr\n      0xf8\n      shl\n        /* \"wwcc-contracts/contracts/wwccPool.sol\":12358:12361  str */\n      dup3\n        /* \"wwcc-contracts/contracts/wwccPool.sol\":12370:12371  2 */\n      0x02\n        /* \"wwcc-contracts/contracts/wwccPool.sol\":12366:12367  i */\n      dup4\n        /* \"wwcc-contracts/contracts/wwccPool.sol\":12366:12371  i * 2 */\n      tag_454\n      swap2\n      swap1\n      tag_315\n      jump\t// in\n    tag_454:\n        /* \"wwcc-contracts/contracts/wwccPool.sol\":12362:12363  2 */\n      0x02\n        /* \"wwcc-contracts/contracts/wwccPool.sol\":12362:12371  2 + i * 2 */\n      tag_455\n      swap2\n      swap1\n      tag_18\n      jump\t// in\n    tag_455:\n        /* \"wwcc-contracts/contracts/wwccPool.sol\":12358:12372  str[2 + i * 2] */\n      dup2\n      mload\n      dup2\n      lt\n      tag_456\n      jumpi\n      tag_457\n      tag_293\n      jump\t// in\n    tag_457:\n    tag_456:\n      0x20\n      add\n      add\n        /* \"wwcc-contracts/contracts/wwccPool.sol\":12358:12410  str[2 + i * 2] = alphabet[uint(uint8(data[i] >> 4))] */\n      swap1\n      not(0xffffffffffffffffffffffffffffffffffffffffffffffffffffffffffffff)\n      and\n      swap1\n      dup2\n      0x00\n      byte\n      swap1\n      mstore8\n      pop\n        /* \"wwcc-contracts/contracts/wwccPool.sol\":12445:12453  alphabet */\n      dup3\n        /* \"wwcc-contracts/contracts/wwccPool.sol\":12475:12479  0x0f */\n      0x0f\n        /* \"wwcc-contracts/contracts/wwccPool.sol\":12465:12479  data[i] & 0x0f */\n      0xf8\n      shl\n        /* \"wwcc-contracts/contracts/wwccPool.sol\":12465:12469  data */\n      dup7\n        /* \"wwcc-contracts/contracts/wwccPool.sol\":12470:12471  i */\n      dup4\n        /* \"wwcc-contracts/contracts/wwccPool.sol\":12465:12472  data[i] */\n      dup2\n      mload\n      dup2\n      lt\n      tag_458\n      jumpi\n      tag_459\n      tag_293\n      jump\t// in\n    tag_459:\n    tag_458:\n      0x20\n      add\n      add\n      mload\n      0xf8\n      shr\n      0xf8\n      shl\n        /* \"wwcc-contracts/contracts/wwccPool.sol\":12465:12479  data[i] & 0x0f */\n      and\n        /* \"wwcc-contracts/contracts/wwccPool.sol\":12459:12480  uint8(data[i] & 0x0f) */\n      0xf8\n      shr\n        /* \"wwcc-contracts/contracts/wwccPool.sol\":12454:12481  uint(uint8(data[i] & 0x0f)) */\n      0xff\n      and\n        /* \"wwcc-contracts/contracts/wwccPool.sol\":12445:12482  alphabet[uint(uint8(data[i] & 0x0f))] */\n      dup2\n      mload\n      dup2\n      lt\n      tag_460\n      jumpi\n      tag_461\n      tag_293\n      jump\t// in\n    tag_461:\n    tag_460:\n      0x20\n      add\n      add\n      mload\n      0xf8\n      shr\n      0xf8\n      shl\n        /* \"wwcc-contracts/contracts/wwccPool.sol\":12428:12431  str */\n      dup3\n        /* \"wwcc-contracts/contracts/wwccPool.sol\":12440:12441  2 */\n      0x02\n        /* \"wwcc-contracts/contracts/wwccPool.sol\":12436:12437  i */\n      dup4\n        /* \"wwcc-contracts/contracts/wwccPool.sol\":12436:12441  i * 2 */\n      tag_462\n      swap2\n      swap1\n      tag_315\n      jump\t// in\n    tag_462:\n        /* \"wwcc-contracts/contracts/wwccPool.sol\":12432:12433  3 */\n      0x03\n        /* \"wwcc-contracts/contracts/wwccPool.sol\":12432:12441  3 + i * 2 */\n      tag_463\n      swap2\n      swap1\n      tag_18\n      jump\t// in\n    tag_463:\n        /* \"wwcc-contracts/contracts/wwccPool.sol\":12428:12442  str[3 + i * 2] */\n      dup2\n      mload\n      dup2\n      lt\n      tag_464\n      jumpi\n      tag_465\n      tag_293\n      jump\t// in\n    tag_465:\n    tag_464:\n      0x20\n      add\n      add\n        /* \"wwcc-contracts/contracts/wwccPool.sol\":12428:12482  str[3 + i * 2] = alphabet[uint(uint8(data[i] & 0x0f))] */\n      swap1\n      not(0xffffffffffffffffffffffffffffffffffffffffffffffffffffffffffffff)\n      and\n      swap1\n      dup2\n      0x00\n      byte\n      swap1\n      mstore8\n      pop\n        /* \"wwcc-contracts/contracts/wwccPool.sol\":12336:12339  i++ */\n      dup1\n      dup1\n      tag_466\n      swap1\n      tag_358\n      jump\t// in\n    tag_466:\n      swap2\n      pop\n      pop\n        /* \"wwcc-contracts/contracts/wwccPool.sol\":12306:12497  for(uint i =0;i < data.length;i++){... */\n      jump(tag_447)\n    tag_448:\n      pop\n        /* \"wwcc-contracts/contracts/wwccPool.sol\":12524:12527  str */\n      dup1\n        /* \"wwcc-contracts/contracts/wwccPool.sol\":12510:12528  return string(str) */\n      swap3\n      pop\n      pop\n      pop\n        /* \"wwcc-contracts/contracts/wwccPool.sol\":12048:12535  function toString(bytes memory data) internal pure returns(string memory){... */\n      swap2\n      swap1\n      pop\n      jump\t// out\n    tag_164:\n      dup3\n      dup1\n      sload\n      tag_467\n      swap1\n      tag_90\n      jump\t// in\n    tag_467:\n      swap1\n      0x00\n      mstore\n      keccak256(0x00, 0x20)\n      swap1\n      0x1f\n      add\n      0x20\n      swap1\n      div\n      dup2\n      add\n      swap3\n      dup3\n      tag_469\n      jumpi\n      0x00\n      dup6\n      sstore\n      jump(tag_468)\n    tag_469:\n      dup3\n      0x1f\n      lt\n      tag_470\n      jumpi\n      dup1\n      mload\n      not(0xff)\n      and\n      dup4\n      dup1\n      add\n      or\n      dup6\n      sstore\n      jump(tag_468)\n    tag_470:\n      dup3\n      dup1\n      add\n      0x01\n      add\n      dup6\n      sstore\n      dup3\n      iszero\n      tag_468\n      jumpi\n      swap2\n      dup3\n      add\n    tag_471:\n      dup3\n      dup2\n      gt\n      iszero\n      tag_472\n      jumpi\n      dup3\n      mload\n      dup3\n      sstore\n      swap2\n      0x20\n      add\n      swap2\n      swap1\n      0x01\n      add\n      swap1\n      jump(tag_471)\n    tag_472:\n    tag_468:\n      pop\n      swap1\n      pop\n      tag_473\n      swap2\n      swap1\n      tag_474\n      jump\t// in\n    tag_473:\n      pop\n      swap1\n      jump\t// out\n    tag_371:\n      mload(0x40)\n      dup1\n      0xa0\n      add\n      0x40\n      mstore\n      dup1\n      0x00\n      dup2\n      mstore\n      0x20\n      add\n      0x00\n      dup2\n      mstore\n      0x20\n      add\n      0x00\n      dup2\n      mstore\n      0x20\n      add\n      0x00\n      dup2\n      mstore\n      0x20\n      add\n      0x00\n      dup2\n      mstore\n      pop\n      swap1\n      jump\t// out\n    tag_474:\n    tag_475:\n      dup1\n      dup3\n      gt\n      iszero\n      tag_476\n      jumpi\n      0x00\n      dup2\n      0x00\n      swap1\n      sstore\n      pop\n      0x01\n      add\n      jump(tag_475)\n    tag_476:\n      pop\n      swap1\n      jump\t// out\n        /* \"#utility.yul\":7:419   */\n    tag_478:\n        /* \"#utility.yul\":85:90   */\n      0x00\n        /* \"#utility.yul\":110:176   */\n      tag_480\n        /* \"#utility.yul\":126:175   */\n      tag_481\n        /* \"#utility.yul\":168:174   */\n      dup5\n        /* \"#utility.yul\":126:175   */\n      tag_482\n      jump\t// in\n    tag_481:\n        /* \"#utility.yul\":110:176   */\n      tag_483\n      jump\t// in\n    tag_480:\n        /* \"#utility.yul\":101:176   */\n      swap1\n      pop\n        /* \"#utility.yul\":199:205   */\n      dup3\n        /* \"#utility.yul\":192:197   */\n      dup2\n        /* \"#utility.yul\":185:206   */\n      mstore\n        /* \"#utility.yul\":237:241   */\n      0x20\n        /* \"#utility.yul\":230:235   */\n      dup2\n        /* \"#utility.yul\":226:242   */\n      add\n        /* \"#utility.yul\":275:278   */\n      dup5\n        /* \"#utility.yul\":266:272   */\n      dup5\n        /* \"#utility.yul\":261:264   */\n      dup5\n        /* \"#utility.yul\":257:273   */\n      add\n        /* \"#utility.yul\":254:279   */\n      gt\n        /* \"#utility.yul\":251:363   */\n      iszero\n      tag_484\n      jumpi\n        /* \"#utility.yul\":282:361   */\n      tag_485\n      tag_486\n      jump\t// in\n    tag_485:\n        /* \"#utility.yul\":251:363   */\n    tag_484:\n        /* \"#utility.yul\":372:413   */\n      tag_487\n        /* \"#utility.yul\":406:412   */\n      dup5\n        /* \"#utility.yul\":401:404   */\n      dup3\n        /* \"#utility.yul\":396:399   */\n      dup6\n        /* \"#utility.yul\":372:413   */\n      tag_488\n      jump\t// in\n    tag_487:\n        /* \"#utility.yul\":91:419   */\n      pop\n        /* \"#utility.yul\":7:419   */\n      swap4\n      swap3\n      pop\n      pop\n      pop\n      jump\t// out\n        /* \"#utility.yul\":425:564   */\n    tag_489:\n        /* \"#utility.yul\":471:476   */\n      0x00\n        /* \"#utility.yul\":509:515   */\n      dup2\n        /* \"#utility.yul\":496:516   */\n      calldataload\n        /* \"#utility.yul\":487:516   */\n      swap1\n      pop\n        /* \"#utility.yul\":525:558   */\n      tag_491\n        /* \"#utility.yul\":552:557   */\n      dup2\n        /* \"#utility.yul\":525:558   */\n      tag_492\n      jump\t// in\n    tag_491:\n        /* \"#utility.yul\":425:564   */\n      swap3\n      swap2\n      pop\n      pop\n      jump\t// out\n        /* \"#utility.yul\":570:703   */\n    tag_493:\n        /* \"#utility.yul\":613:618   */\n      0x00\n        /* \"#utility.yul\":651:657   */\n      dup2\n        /* \"#utility.yul\":638:658   */\n      calldataload\n        /* \"#utility.yul\":629:658   */\n      swap1\n      pop\n        /* \"#utility.yul\":667:697   */\n      tag_495\n        /* \"#utility.yul\":691:696   */\n      dup2\n        /* \"#utility.yul\":667:697   */\n      tag_496\n      jump\t// in\n    tag_495:\n        /* \"#utility.yul\":570:703   */\n      swap3\n      swap2\n      pop\n      pop\n      jump\t// out\n        /* \"#utility.yul\":709:848   */\n    tag_497:\n        /* \"#utility.yul\":755:760   */\n      0x00\n        /* \"#utility.yul\":793:799   */\n      dup2\n        /* \"#utility.yul\":780:800   */\n      calldataload\n        /* \"#utility.yul\":771:800   */\n      swap1\n      pop\n        /* \"#utility.yul\":809:842   */\n      tag_499\n        /* \"#utility.yul\":836:841   */\n      dup2\n        /* \"#utility.yul\":809:842   */\n      tag_500\n      jump\t// in\n    tag_499:\n        /* \"#utility.yul\":709:848   */\n      swap3\n      swap2\n      pop\n      pop\n      jump\t// out\n        /* \"#utility.yul\":868:1208   */\n    tag_501:\n        /* \"#utility.yul\":924:929   */\n      0x00\n        /* \"#utility.yul\":973:976   */\n      dup3\n        /* \"#utility.yul\":966:970   */\n      0x1f\n        /* \"#utility.yul\":958:964   */\n      dup4\n        /* \"#utility.yul\":954:971   */\n      add\n        /* \"#utility.yul\":950:977   */\n      slt\n        /* \"#utility.yul\":940:1062   */\n      tag_503\n      jumpi\n        /* \"#utility.yul\":981:1060   */\n      tag_504\n      tag_505\n      jump\t// in\n    tag_504:\n        /* \"#utility.yul\":940:1062   */\n    tag_503:\n        /* \"#utility.yul\":1098:1104   */\n      dup2\n        /* \"#utility.yul\":1085:1105   */\n      calldataload\n        /* \"#utility.yul\":1123:1202   */\n      tag_506\n        /* \"#utility.yul\":1198:1201   */\n      dup5\n        /* \"#utility.yul\":1190:1196   */\n      dup3\n        /* \"#utility.yul\":1183:1187   */\n      0x20\n        /* \"#utility.yul\":1175:1181   */\n      dup7\n        /* \"#utility.yul\":1171:1188   */\n      add\n        /* \"#utility.yul\":1123:1202   */\n      tag_478\n      jump\t// in\n    tag_506:\n        /* \"#utility.yul\":1114:1202   */\n      swap2\n      pop\n        /* \"#utility.yul\":930:1208   */\n      pop\n        /* \"#utility.yul\":868:1208   */\n      swap3\n      swap2\n      pop\n      pop\n      jump\t// out\n        /* \"#utility.yul\":1214:1353   */\n    tag_507:\n        /* \"#utility.yul\":1260:1265   */\n      0x00\n        /* \"#utility.yul\":1298:1304   */\n      dup2\n        /* \"#utility.yul\":1285:1305   */\n      calldataload\n        /* \"#utility.yul\":1276:1305   */\n      swap1\n      pop\n        /* \"#utility.yul\":1314:1347   */\n      tag_509\n        /* \"#utility.yul\":1341:1346   */\n      dup2\n        /* \"#utility.yul\":1314:1347   */\n      tag_510\n      jump\t// in\n    tag_509:\n        /* \"#utility.yul\":1214:1353   */\n      swap3\n      swap2\n      pop\n      pop\n      jump\t// out\n        /* \"#utility.yul\":1359:1833   */\n    tag_24:\n        /* \"#utility.yul\":1427:1433   */\n      0x00\n        /* \"#utility.yul\":1435:1441   */\n      dup1\n        /* \"#utility.yul\":1484:1486   */\n      0x40\n        /* \"#utility.yul\":1472:1481   */\n      dup4\n        /* \"#utility.yul\":1463:1470   */\n      dup6\n        /* \"#utility.yul\":1459:1482   */\n      sub\n        /* \"#utility.yul\":1455:1487   */\n      slt\n        /* \"#utility.yul\":1452:1571   */\n      iszero\n      tag_512\n      jumpi\n        /* \"#utility.yul\":1490:1569   */\n      tag_513\n      tag_514\n      jump\t// in\n    tag_513:\n        /* \"#utility.yul\":1452:1571   */\n    tag_512:\n        /* \"#utility.yul\":1610:1611   */\n      0x00\n        /* \"#utility.yul\":1635:1688   */\n      tag_515\n        /* \"#utility.yul\":1680:1687   */\n      dup6\n        /* \"#utility.yul\":1671:1677   */\n      dup3\n        /* \"#utility.yul\":1660:1669   */\n      dup7\n        /* \"#utility.yul\":1656:1678   */\n      add\n        /* \"#utility.yul\":1635:1688   */\n      tag_489\n      jump\t// in\n    tag_515:\n        /* \"#utility.yul\":1625:1688   */\n      swap3\n      pop\n        /* \"#utility.yul\":1581:1698   */\n      pop\n        /* \"#utility.yul\":1737:1739   */\n      0x20\n        /* \"#utility.yul\":1763:1816   */\n      tag_516\n        /* \"#utility.yul\":1808:1815   */\n      dup6\n        /* \"#utility.yul\":1799:1805   */\n      dup3\n        /* \"#utility.yul\":1788:1797   */\n      dup7\n        /* \"#utility.yul\":1784:1806   */\n      add\n        /* \"#utility.yul\":1763:1816   */\n      tag_497\n      jump\t// in\n    tag_516:\n        /* \"#utility.yul\":1753:1816   */\n      swap2\n      pop\n        /* \"#utility.yul\":1708:1826   */\n      pop\n        /* \"#utility.yul\":1359:1833   */\n      swap3\n      pop\n      swap3\n      swap1\n      pop\n      jump\t// out\n        /* \"#utility.yul\":1839:2313   */\n    tag_65:\n        /* \"#utility.yul\":1907:1913   */\n      0x00\n        /* \"#utility.yul\":1915:1921   */\n      dup1\n        /* \"#utility.yul\":1964:1966   */\n      0x40\n        /* \"#utility.yul\":1952:1961   */\n      dup4\n        /* \"#utility.yul\":1943:1950   */\n      dup6\n        /* \"#utility.yul\":1939:1962   */\n      sub\n        /* \"#utility.yul\":1935:1967   */\n      slt\n        /* \"#utility.yul\":1932:2051   */\n      iszero\n      tag_518\n      jumpi\n        /* \"#utility.yul\":1970:2049   */\n      tag_519\n      tag_514\n      jump\t// in\n    tag_519:\n        /* \"#utility.yul\":1932:2051   */\n    tag_518:\n        /* \"#utility.yul\":2090:2091   */\n      0x00\n        /* \"#utility.yul\":2115:2168   */\n      tag_520\n        /* \"#utility.yul\":2160:2167   */\n      dup6\n        /* \"#utility.yul\":2151:2157   */\n      dup3\n        /* \"#utility.yul\":2140:2149   */\n      dup7\n        /* \"#utility.yul\":2136:2158   */\n      add\n        /* \"#utility.yul\":2115:2168   */\n      tag_489\n      jump\t// in\n    tag_520:\n        /* \"#utility.yul\":2105:2168   */\n      swap3\n      pop\n        /* \"#utility.yul\":2061:2178   */\n      pop\n        /* \"#utility.yul\":2217:2219   */\n      0x20\n        /* \"#utility.yul\":2243:2296   */\n      tag_521\n        /* \"#utility.yul\":2288:2295   */\n      dup6\n        /* \"#utility.yul\":2279:2285   */\n      dup3\n        /* \"#utility.yul\":2268:2277   */\n      dup7\n        /* \"#utility.yul\":2264:2286   */\n      add\n        /* \"#utility.yul\":2243:2296   */\n      tag_507\n      jump\t// in\n    tag_521:\n        /* \"#utility.yul\":2233:2296   */\n      swap2\n      pop\n        /* \"#utility.yul\":2188:2306   */\n      pop\n        /* \"#utility.yul\":1839:2313   */\n      swap3\n      pop\n      swap3\n      swap1\n      pop\n      jump\t// out\n        /* \"#utility.yul\":2319:3376   */\n    tag_55:\n        /* \"#utility.yul\":2423:2429   */\n      0x00\n        /* \"#utility.yul\":2431:2437   */\n      dup1\n        /* \"#utility.yul\":2439:2445   */\n      0x00\n        /* \"#utility.yul\":2447:2453   */\n      dup1\n        /* \"#utility.yul\":2455:2461   */\n      0x00\n        /* \"#utility.yul\":2463:2469   */\n      dup1\n        /* \"#utility.yul\":2512:2515   */\n      0xc0\n        /* \"#utility.yul\":2500:2509   */\n      dup8\n        /* \"#utility.yul\":2491:2498   */\n      dup10\n        /* \"#utility.yul\":2487:2510   */\n      sub\n        /* \"#utility.yul\":2483:2516   */\n      slt\n        /* \"#utility.yul\":2480:2600   */\n      iszero\n      tag_523\n      jumpi\n        /* \"#utility.yul\":2519:2598   */\n      tag_524\n      tag_514\n      jump\t// in\n    tag_524:\n        /* \"#utility.yul\":2480:2600   */\n    tag_523:\n        /* \"#utility.yul\":2639:2640   */\n      0x00\n        /* \"#utility.yul\":2664:2717   */\n      tag_525\n        /* \"#utility.yul\":2709:2716   */\n      dup10\n        /* \"#utility.yul\":2700:2706   */\n      dup3\n        /* \"#utility.yul\":2689:2698   */\n      dup11\n        /* \"#utility.yul\":2685:2707   */\n      add\n        /* \"#utility.yul\":2664:2717   */\n      tag_489\n      jump\t// in\n    tag_525:\n        /* \"#utility.yul\":2654:2717   */\n      swap7\n      pop\n        /* \"#utility.yul\":2610:2727   */\n      pop\n        /* \"#utility.yul\":2766:2768   */\n      0x20\n        /* \"#utility.yul\":2792:2845   */\n      tag_526\n        /* \"#utility.yul\":2837:2844   */\n      dup10\n        /* \"#utility.yul\":2828:2834   */\n      dup3\n        /* \"#utility.yul\":2817:2826   */\n      dup11\n        /* \"#utility.yul\":2813:2835   */\n      add\n        /* \"#utility.yul\":2792:2845   */\n      tag_507\n      jump\t// in\n    tag_526:\n        /* \"#utility.yul\":2782:2845   */\n      swap6\n      pop\n        /* \"#utility.yul\":2737:2855   */\n      pop\n        /* \"#utility.yul\":2894:2896   */\n      0x40\n        /* \"#utility.yul\":2920:2973   */\n      tag_527\n        /* \"#utility.yul\":2965:2972   */\n      dup10\n        /* \"#utility.yul\":2956:2962   */\n      dup3\n        /* \"#utility.yul\":2945:2954   */\n      dup11\n        /* \"#utility.yul\":2941:2963   */\n      add\n        /* \"#utility.yul\":2920:2973   */\n      tag_497\n      jump\t// in\n    tag_527:\n        /* \"#utility.yul\":2910:2973   */\n      swap5\n      pop\n        /* \"#utility.yul\":2865:2983   */\n      pop\n        /* \"#utility.yul\":3022:3024   */\n      0x60\n        /* \"#utility.yul\":3048:3101   */\n      tag_528\n        /* \"#utility.yul\":3093:3100   */\n      dup10\n        /* \"#utility.yul\":3084:3090   */\n      dup3\n        /* \"#utility.yul\":3073:3082   */\n      dup11\n        /* \"#utility.yul\":3069:3091   */\n      add\n        /* \"#utility.yul\":3048:3101   */\n      tag_507\n      jump\t// in\n    tag_528:\n        /* \"#utility.yul\":3038:3101   */\n      swap4\n      pop\n        /* \"#utility.yul\":2993:3111   */\n      pop\n        /* \"#utility.yul\":3150:3153   */\n      0x80\n        /* \"#utility.yul\":3177:3230   */\n      tag_529\n        /* \"#utility.yul\":3222:3229   */\n      dup10\n        /* \"#utility.yul\":3213:3219   */\n      dup3\n        /* \"#utility.yul\":3202:3211   */\n      dup11\n        /* \"#utility.yul\":3198:3220   */\n      add\n        /* \"#utility.yul\":3177:3230   */\n      tag_507\n      jump\t// in\n    tag_529:\n        /* \"#utility.yul\":3167:3230   */\n      swap3\n      pop\n        /* \"#utility.yul\":3121:3240   */\n      pop\n        /* \"#utility.yul\":3279:3282   */\n      0xa0\n        /* \"#utility.yul\":3306:3359   */\n      tag_530\n        /* \"#utility.yul\":3351:3358   */\n      dup10\n        /* \"#utility.yul\":3342:3348   */\n      dup3\n        /* \"#utility.yul\":3331:3340   */\n      dup11\n        /* \"#utility.yul\":3327:3349   */\n      add\n        /* \"#utility.yul\":3306:3359   */\n      tag_507\n      jump\t// in\n    tag_530:\n        /* \"#utility.yul\":3296:3359   */\n      swap2\n      pop\n        /* \"#utility.yul\":3250:3369   */\n      pop\n        /* \"#utility.yul\":2319:3376   */\n      swap3\n      swap6\n      pop\n      swap3\n      swap6\n      pop\n      swap3\n      swap6\n      jump\t// out\n        /* \"#utility.yul\":3382:3711   */\n    tag_49:\n        /* \"#utility.yul\":3441:3447   */\n      0x00\n        /* \"#utility.yul\":3490:3492   */\n      0x20\n        /* \"#utility.yul\":3478:3487   */\n      dup3\n        /* \"#utility.yul\":3469:3476   */\n      dup5\n        /* \"#utility.yul\":3465:3488   */\n      sub\n        /* \"#utility.yul\":3461:3493   */\n      slt\n        /* \"#utility.yul\":3458:3577   */\n      iszero\n      tag_532\n      jumpi\n        /* \"#utility.yul\":3496:3575   */\n      tag_533\n      tag_514\n      jump\t// in\n    tag_533:\n        /* \"#utility.yul\":3458:3577   */\n    tag_532:\n        /* \"#utility.yul\":3616:3617   */\n      0x00\n        /* \"#utility.yul\":3641:3694   */\n      tag_534\n        /* \"#utility.yul\":3686:3693   */\n      dup5\n        /* \"#utility.yul\":3677:3683   */\n      dup3\n        /* \"#utility.yul\":3666:3675   */\n      dup6\n        /* \"#utility.yul\":3662:3684   */\n      add\n        /* \"#utility.yul\":3641:3694   */\n      tag_497\n      jump\t// in\n    tag_534:\n        /* \"#utility.yul\":3631:3694   */\n      swap2\n      pop\n        /* \"#utility.yul\":3587:3704   */\n      pop\n        /* \"#utility.yul\":3382:3711   */\n      swap3\n      swap2\n      pop\n      pop\n      jump\t// out\n        /* \"#utility.yul\":3717:4191   */\n    tag_31:\n        /* \"#utility.yul\":3785:3791   */\n      0x00\n        /* \"#utility.yul\":3793:3799   */\n      dup1\n        /* \"#utility.yul\":3842:3844   */\n      0x40\n        /* \"#utility.yul\":3830:3839   */\n      dup4\n        /* \"#utility.yul\":3821:3828   */\n      dup6\n        /* \"#utility.yul\":3817:3840   */\n      sub\n        /* \"#utility.yul\":3813:3845   */\n      slt\n        /* \"#utility.yul\":3810:3929   */\n      iszero\n      tag_536\n      jumpi\n        /* \"#utility.yul\":3848:3927   */\n      tag_537\n      tag_514\n      jump\t// in\n    tag_537:\n        /* \"#utility.yul\":3810:3929   */\n    tag_536:\n        /* \"#utility.yul\":3968:3969   */\n      0x00\n        /* \"#utility.yul\":3993:4046   */\n      tag_538\n        /* \"#utility.yul\":4038:4045   */\n      dup6\n        /* \"#utility.yul\":4029:4035   */\n      dup3\n        /* \"#utility.yul\":4018:4027   */\n      dup7\n        /* \"#utility.yul\":4014:4036   */\n      add\n        /* \"#utility.yul\":3993:4046   */\n      tag_497\n      jump\t// in\n    tag_538:\n        /* \"#utility.yul\":3983:4046   */\n      swap3\n      pop\n        /* \"#utility.yul\":3939:4056   */\n      pop\n        /* \"#utility.yul\":4095:4097   */\n      0x20\n        /* \"#utility.yul\":4121:4174   */\n      tag_539\n        /* \"#utility.yul\":4166:4173   */\n      dup6\n        /* \"#utility.yul\":4157:4163   */\n      dup3\n        /* \"#utility.yul\":4146:4155   */\n      dup7\n        /* \"#utility.yul\":4142:4164   */\n      add\n        /* \"#utility.yul\":4121:4174   */\n      tag_507\n      jump\t// in\n    tag_539:\n        /* \"#utility.yul\":4111:4174   */\n      swap2\n      pop\n        /* \"#utility.yul\":4066:4184   */\n      pop\n        /* \"#utility.yul\":3717:4191   */\n      swap3\n      pop\n      swap3\n      swap1\n      pop\n      jump\t// out\n        /* \"#utility.yul\":4197:4962   */\n    tag_60:\n        /* \"#utility.yul\":4283:4289   */\n      0x00\n        /* \"#utility.yul\":4291:4297   */\n      dup1\n        /* \"#utility.yul\":4299:4305   */\n      0x00\n        /* \"#utility.yul\":4307:4313   */\n      dup1\n        /* \"#utility.yul\":4356:4359   */\n      0x80\n        /* \"#utility.yul\":4344:4353   */\n      dup6\n        /* \"#utility.yul\":4335:4342   */\n      dup8\n        /* \"#utility.yul\":4331:4354   */\n      sub\n        /* \"#utility.yul\":4327:4360   */\n      slt\n        /* \"#utility.yul\":4324:4444   */\n      iszero\n      tag_541\n      jumpi\n        /* \"#utility.yul\":4363:4442   */\n      tag_542\n      tag_514\n      jump\t// in\n    tag_542:\n        /* \"#utility.yul\":4324:4444   */\n    tag_541:\n        /* \"#utility.yul\":4483:4484   */\n      0x00\n        /* \"#utility.yul\":4508:4561   */\n      tag_543\n        /* \"#utility.yul\":4553:4560   */\n      dup8\n        /* \"#utility.yul\":4544:4550   */\n      dup3\n        /* \"#utility.yul\":4533:4542   */\n      dup9\n        /* \"#utility.yul\":4529:4551   */\n      add\n        /* \"#utility.yul\":4508:4561   */\n      tag_497\n      jump\t// in\n    tag_543:\n        /* \"#utility.yul\":4498:4561   */\n      swap5\n      pop\n        /* \"#utility.yul\":4454:4571   */\n      pop\n        /* \"#utility.yul\":4610:4612   */\n      0x20\n        /* \"#utility.yul\":4636:4689   */\n      tag_544\n        /* \"#utility.yul\":4681:4688   */\n      dup8\n        /* \"#utility.yul\":4672:4678   */\n      dup3\n        /* \"#utility.yul\":4661:4670   */\n      dup9\n        /* \"#utility.yul\":4657:4679   */\n      add\n        /* \"#utility.yul\":4636:4689   */\n      tag_507\n      jump\t// in\n    tag_544:\n        /* \"#utility.yul\":4626:4689   */\n      swap4\n      pop\n        /* \"#utility.yul\":4581:4699   */\n      pop\n        /* \"#utility.yul\":4738:4740   */\n      0x40\n        /* \"#utility.yul\":4764:4817   */\n      tag_545\n        /* \"#utility.yul\":4809:4816   */\n      dup8\n        /* \"#utility.yul\":4800:4806   */\n      dup3\n        /* \"#utility.yul\":4789:4798   */\n      dup9\n        /* \"#utility.yul\":4785:4807   */\n      add\n        /* \"#utility.yul\":4764:4817   */\n      tag_507\n      jump\t// in\n    tag_545:\n        /* \"#utility.yul\":4754:4817   */\n      swap3\n      pop\n        /* \"#utility.yul\":4709:4827   */\n      pop\n        /* \"#utility.yul\":4866:4868   */\n      0x60\n        /* \"#utility.yul\":4892:4945   */\n      tag_546\n        /* \"#utility.yul\":4937:4944   */\n      dup8\n        /* \"#utility.yul\":4928:4934   */\n      dup3\n        /* \"#utility.yul\":4917:4926   */\n      dup9\n        /* \"#utility.yul\":4913:4935   */\n      add\n        /* \"#utility.yul\":4892:4945   */\n      tag_507\n      jump\t// in\n    tag_546:\n        /* \"#utility.yul\":4882:4945   */\n      swap2\n      pop\n        /* \"#utility.yul\":4837:4955   */\n      pop\n        /* \"#utility.yul\":4197:4962   */\n      swap3\n      swap6\n      swap2\n      swap5\n      pop\n      swap3\n      pop\n      jump\t// out\n        /* \"#utility.yul\":4968:6267   */\n    tag_37:\n        /* \"#utility.yul\":5081:5087   */\n      0x00\n        /* \"#utility.yul\":5089:5095   */\n      dup1\n        /* \"#utility.yul\":5097:5103   */\n      0x00\n        /* \"#utility.yul\":5105:5111   */\n      dup1\n        /* \"#utility.yul\":5154:5157   */\n      0x80\n        /* \"#utility.yul\":5142:5151   */\n      dup6\n        /* \"#utility.yul\":5133:5140   */\n      dup8\n        /* \"#utility.yul\":5129:5152   */\n      sub\n        /* \"#utility.yul\":5125:5158   */\n      slt\n        /* \"#utility.yul\":5122:5242   */\n      iszero\n      tag_548\n      jumpi\n        /* \"#utility.yul\":5161:5240   */\n      tag_549\n      tag_514\n      jump\t// in\n    tag_549:\n        /* \"#utility.yul\":5122:5242   */\n    tag_548:\n        /* \"#utility.yul\":5309:5310   */\n      0x00\n        /* \"#utility.yul\":5298:5307   */\n      dup6\n        /* \"#utility.yul\":5294:5311   */\n      add\n        /* \"#utility.yul\":5281:5312   */\n      calldataload\n        /* \"#utility.yul\":5339:5357   */\n      0xffffffffffffffff\n        /* \"#utility.yul\":5331:5337   */\n      dup2\n        /* \"#utility.yul\":5328:5358   */\n      gt\n        /* \"#utility.yul\":5325:5442   */\n      iszero\n      tag_550\n      jumpi\n        /* \"#utility.yul\":5361:5440   */\n      tag_551\n      tag_552\n      jump\t// in\n    tag_551:\n        /* \"#utility.yul\":5325:5442   */\n    tag_550:\n        /* \"#utility.yul\":5466:5529   */\n      tag_553\n        /* \"#utility.yul\":5521:5528   */\n      dup8\n        /* \"#utility.yul\":5512:5518   */\n      dup3\n        /* \"#utility.yul\":5501:5510   */\n      dup9\n        /* \"#utility.yul\":5497:5519   */\n      add\n        /* \"#utility.yul\":5466:5529   */\n      tag_501\n      jump\t// in\n    tag_553:\n        /* \"#utility.yul\":5456:5529   */\n      swap5\n      pop\n        /* \"#utility.yul\":5252:5539   */\n      pop\n        /* \"#utility.yul\":5606:5608   */\n      0x20\n        /* \"#utility.yul\":5595:5604   */\n      dup6\n        /* \"#utility.yul\":5591:5609   */\n      add\n        /* \"#utility.yul\":5578:5610   */\n      calldataload\n        /* \"#utility.yul\":5637:5655   */\n      0xffffffffffffffff\n        /* \"#utility.yul\":5629:5635   */\n      dup2\n        /* \"#utility.yul\":5626:5656   */\n      gt\n        /* \"#utility.yul\":5623:5740   */\n      iszero\n      tag_554\n      jumpi\n        /* \"#utility.yul\":5659:5738   */\n      tag_555\n      tag_552\n      jump\t// in\n    tag_555:\n        /* \"#utility.yul\":5623:5740   */\n    tag_554:\n        /* \"#utility.yul\":5764:5827   */\n      tag_556\n        /* \"#utility.yul\":5819:5826   */\n      dup8\n        /* \"#utility.yul\":5810:5816   */\n      dup3\n        /* \"#utility.yul\":5799:5808   */\n      dup9\n        /* \"#utility.yul\":5795:5817   */\n      add\n        /* \"#utility.yul\":5764:5827   */\n      tag_501\n      jump\t// in\n    tag_556:\n        /* \"#utility.yul\":5754:5827   */\n      swap4\n      pop\n        /* \"#utility.yul\":5549:5837   */\n      pop\n        /* \"#utility.yul\":5904:5906   */\n      0x40\n        /* \"#utility.yul\":5893:5902   */\n      dup6\n        /* \"#utility.yul\":5889:5907   */\n      add\n        /* \"#utility.yul\":5876:5908   */\n      calldataload\n        /* \"#utility.yul\":5935:5953   */\n      0xffffffffffffffff\n        /* \"#utility.yul\":5927:5933   */\n      dup2\n        /* \"#utility.yul\":5924:5954   */\n      gt\n        /* \"#utility.yul\":5921:6038   */\n      iszero\n      tag_557\n      jumpi\n        /* \"#utility.yul\":5957:6036   */\n      tag_558\n      tag_552\n      jump\t// in\n    tag_558:\n        /* \"#utility.yul\":5921:6038   */\n    tag_557:\n        /* \"#utility.yul\":6062:6125   */\n      tag_559\n        /* \"#utility.yul\":6117:6124   */\n      dup8\n        /* \"#utility.yul\":6108:6114   */\n      dup3\n        /* \"#utility.yul\":6097:6106   */\n      dup9\n        /* \"#utility.yul\":6093:6115   */\n      add\n        /* \"#utility.yul\":6062:6125   */\n      tag_501\n      jump\t// in\n    tag_559:\n        /* \"#utility.yul\":6052:6125   */\n      swap3\n      pop\n        /* \"#utility.yul\":5847:6135   */\n      pop\n        /* \"#utility.yul\":6174:6176   */\n      0x60\n        /* \"#utility.yul\":6200:6250   */\n      tag_560\n        /* \"#utility.yul\":6242:6249   */\n      dup8\n        /* \"#utility.yul\":6233:6239   */\n      dup3\n        /* \"#utility.yul\":6222:6231   */\n      dup9\n        /* \"#utility.yul\":6218:6240   */\n      add\n        /* \"#utility.yul\":6200:6250   */\n      tag_493\n      jump\t// in\n    tag_560:\n        /* \"#utility.yul\":6190:6250   */\n      swap2\n      pop\n        /* \"#utility.yul\":6145:6260   */\n      pop\n        /* \"#utility.yul\":4968:6267   */\n      swap3\n      swap6\n      swap2\n      swap5\n      pop\n      swap3\n      pop\n      jump\t// out\n        /* \"#utility.yul\":6273:6391   */\n    tag_561:\n        /* \"#utility.yul\":6360:6384   */\n      tag_563\n        /* \"#utility.yul\":6378:6383   */\n      dup2\n        /* \"#utility.yul\":6360:6384   */\n      tag_564\n      jump\t// in\n    tag_563:\n        /* \"#utility.yul\":6355:6358   */\n      dup3\n        /* \"#utility.yul\":6348:6385   */\n      mstore\n        /* \"#utility.yul\":6273:6391   */\n      pop\n      pop\n      jump\t// out\n        /* \"#utility.yul\":6397:6506   */\n    tag_565:\n        /* \"#utility.yul\":6478:6499   */\n      tag_567\n        /* \"#utility.yul\":6493:6498   */\n      dup2\n        /* \"#utility.yul\":6478:6499   */\n      tag_568\n      jump\t// in\n    tag_567:\n        /* \"#utility.yul\":6473:6476   */\n      dup3\n        /* \"#utility.yul\":6466:6500   */\n      mstore\n        /* \"#utility.yul\":6397:6506   */\n      pop\n      pop\n      jump\t// out\n        /* \"#utility.yul\":6512:6630   */\n    tag_569:\n        /* \"#utility.yul\":6599:6623   */\n      tag_571\n        /* \"#utility.yul\":6617:6622   */\n      dup2\n        /* \"#utility.yul\":6599:6623   */\n      tag_572\n      jump\t// in\n    tag_571:\n        /* \"#utility.yul\":6594:6597   */\n      dup3\n        /* \"#utility.yul\":6587:6624   */\n      mstore\n        /* \"#utility.yul\":6512:6630   */\n      pop\n      pop\n      jump\t// out\n        /* \"#utility.yul\":6636:6793   */\n    tag_573:\n        /* \"#utility.yul\":6741:6786   */\n      tag_575\n        /* \"#utility.yul\":6761:6785   */\n      tag_576\n        /* \"#utility.yul\":6779:6784   */\n      dup3\n        /* \"#utility.yul\":6761:6785   */\n      tag_572\n      jump\t// in\n    tag_576:\n        /* \"#utility.yul\":6741:6786   */\n      tag_577\n      jump\t// in\n    tag_575:\n        /* \"#utility.yul\":6736:6739   */\n      dup3\n        /* \"#utility.yul\":6729:6787   */\n      mstore\n        /* \"#utility.yul\":6636:6793   */\n      pop\n      pop\n      jump\t// out\n        /* \"#utility.yul\":6799:7163   */\n    tag_578:\n        /* \"#utility.yul\":6887:6890   */\n      0x00\n        /* \"#utility.yul\":6915:6954   */\n      tag_580\n        /* \"#utility.yul\":6948:6953   */\n      dup3\n        /* \"#utility.yul\":6915:6954   */\n      tag_581\n      jump\t// in\n    tag_580:\n        /* \"#utility.yul\":6970:7041   */\n      tag_582\n        /* \"#utility.yul\":7034:7040   */\n      dup2\n        /* \"#utility.yul\":7029:7032   */\n      dup6\n        /* \"#utility.yul\":6970:7041   */\n      tag_583\n      jump\t// in\n    tag_582:\n        /* \"#utility.yul\":6963:7041   */\n      swap4\n      pop\n        /* \"#utility.yul\":7050:7102   */\n      tag_584\n        /* \"#utility.yul\":7095:7101   */\n      dup2\n        /* \"#utility.yul\":7090:7093   */\n      dup6\n        /* \"#utility.yul\":7083:7087   */\n      0x20\n        /* \"#utility.yul\":7076:7081   */\n      dup7\n        /* \"#utility.yul\":7072:7088   */\n      add\n        /* \"#utility.yul\":7050:7102   */\n      tag_585\n      jump\t// in\n    tag_584:\n        /* \"#utility.yul\":7127:7156   */\n      tag_586\n        /* \"#utility.yul\":7149:7155   */\n      dup2\n        /* \"#utility.yul\":7127:7156   */\n      tag_587\n      jump\t// in\n    tag_586:\n        /* \"#utility.yul\":7122:7125   */\n      dup5\n        /* \"#utility.yul\":7118:7157   */\n      add\n        /* \"#utility.yul\":7111:7157   */\n      swap2\n      pop\n        /* \"#utility.yul\":6891:7163   */\n      pop\n        /* \"#utility.yul\":6799:7163   */\n      swap3\n      swap2\n      pop\n      pop\n      jump\t// out\n        /* \"#utility.yul\":7169:7546   */\n    tag_588:\n        /* \"#utility.yul\":7275:7278   */\n      0x00\n        /* \"#utility.yul\":7303:7342   */\n      tag_590\n        /* \"#utility.yul\":7336:7341   */\n      dup3\n        /* \"#utility.yul\":7303:7342   */\n      tag_581\n      jump\t// in\n    tag_590:\n        /* \"#utility.yul\":7358:7447   */\n      tag_591\n        /* \"#utility.yul\":7440:7446   */\n      dup2\n        /* \"#utility.yul\":7435:7438   */\n      dup6\n        /* \"#utility.yul\":7358:7447   */\n      tag_592\n      jump\t// in\n    tag_591:\n        /* \"#utility.yul\":7351:7447   */\n      swap4\n      pop\n        /* \"#utility.yul\":7456:7508   */\n      tag_593\n        /* \"#utility.yul\":7501:7507   */\n      dup2\n        /* \"#utility.yul\":7496:7499   */\n      dup6\n        /* \"#utility.yul\":7489:7493   */\n      0x20\n        /* \"#utility.yul\":7482:7487   */\n      dup7\n        /* \"#utility.yul\":7478:7494   */\n      add\n        /* \"#utility.yul\":7456:7508   */\n      tag_585\n      jump\t// in\n    tag_593:\n        /* \"#utility.yul\":7533:7539   */\n      dup1\n        /* \"#utility.yul\":7528:7531   */\n      dup5\n        /* \"#utility.yul\":7524:7540   */\n      add\n        /* \"#utility.yul\":7517:7540   */\n      swap2\n      pop\n        /* \"#utility.yul\":7279:7546   */\n      pop\n        /* \"#utility.yul\":7169:7546   */\n      swap3\n      swap2\n      pop\n      pop\n      jump\t// out\n        /* \"#utility.yul\":7552:7918   */\n    tag_594:\n        /* \"#utility.yul\":7694:7697   */\n      0x00\n        /* \"#utility.yul\":7715:7782   */\n      tag_596\n        /* \"#utility.yul\":7779:7781   */\n      0x19\n        /* \"#utility.yul\":7774:7777   */\n      dup4\n        /* \"#utility.yul\":7715:7782   */\n      tag_583\n      jump\t// in\n    tag_596:\n        /* \"#utility.yul\":7708:7782   */\n      swap2\n      pop\n        /* \"#utility.yul\":7791:7884   */\n      tag_597\n        /* \"#utility.yul\":7880:7883   */\n      dup3\n        /* \"#utility.yul\":7791:7884   */\n      tag_598\n      jump\t// in\n    tag_597:\n        /* \"#utility.yul\":7909:7911   */\n      0x20\n        /* \"#utility.yul\":7904:7907   */\n      dup3\n        /* \"#utility.yul\":7900:7912   */\n      add\n        /* \"#utility.yul\":7893:7912   */\n      swap1\n      pop\n        /* \"#utility.yul\":7552:7918   */\n      swap2\n      swap1\n      pop\n      jump\t// out\n        /* \"#utility.yul\":7924:8289   */\n    tag_599:\n        /* \"#utility.yul\":8066:8069   */\n      0x00\n        /* \"#utility.yul\":8087:8153   */\n      tag_601\n        /* \"#utility.yul\":8151:8152   */\n      0x09\n        /* \"#utility.yul\":8146:8149   */\n      dup4\n        /* \"#utility.yul\":8087:8153   */\n      tag_583\n      jump\t// in\n    tag_601:\n        /* \"#utility.yul\":8080:8153   */\n      swap2\n      pop\n        /* \"#utility.yul\":8162:8255   */\n      tag_602\n        /* \"#utility.yul\":8251:8254   */\n      dup3\n        /* \"#utility.yul\":8162:8255   */\n      tag_603\n      jump\t// in\n    tag_602:\n        /* \"#utility.yul\":8280:8282   */\n      0x20\n        /* \"#utility.yul\":8275:8278   */\n      dup3\n        /* \"#utility.yul\":8271:8283   */\n      add\n        /* \"#utility.yul\":8264:8283   */\n      swap1\n      pop\n        /* \"#utility.yul\":7924:8289   */\n      swap2\n      swap1\n      pop\n      jump\t// out\n        /* \"#utility.yul\":8295:8661   */\n    tag_604:\n        /* \"#utility.yul\":8437:8440   */\n      0x00\n        /* \"#utility.yul\":8458:8525   */\n      tag_606\n        /* \"#utility.yul\":8522:8524   */\n      0x0e\n        /* \"#utility.yul\":8517:8520   */\n      dup4\n        /* \"#utility.yul\":8458:8525   */\n      tag_583\n      jump\t// in\n    tag_606:\n        /* \"#utility.yul\":8451:8525   */\n      swap2\n      pop\n        /* \"#utility.yul\":8534:8627   */\n      tag_607\n        /* \"#utility.yul\":8623:8626   */\n      dup3\n        /* \"#utility.yul\":8534:8627   */\n      tag_608\n      jump\t// in\n    tag_607:\n        /* \"#utility.yul\":8652:8654   */\n      0x20\n        /* \"#utility.yul\":8647:8650   */\n      dup3\n        /* \"#utility.yul\":8643:8655   */\n      add\n        /* \"#utility.yul\":8636:8655   */\n      swap1\n      pop\n        /* \"#utility.yul\":8295:8661   */\n      swap2\n      swap1\n      pop\n      jump\t// out\n        /* \"#utility.yul\":8667:9033   */\n    tag_609:\n        /* \"#utility.yul\":8809:8812   */\n      0x00\n        /* \"#utility.yul\":8830:8897   */\n      tag_611\n        /* \"#utility.yul\":8894:8896   */\n      0x17\n        /* \"#utility.yul\":8889:8892   */\n      dup4\n        /* \"#utility.yul\":8830:8897   */\n      tag_583\n      jump\t// in\n    tag_611:\n        /* \"#utility.yul\":8823:8897   */\n      swap2\n      pop\n        /* \"#utility.yul\":8906:8999   */\n      tag_612\n        /* \"#utility.yul\":8995:8998   */\n      dup3\n        /* \"#utility.yul\":8906:8999   */\n      tag_613\n      jump\t// in\n    tag_612:\n        /* \"#utility.yul\":9024:9026   */\n      0x20\n        /* \"#utility.yul\":9019:9022   */\n      dup3\n        /* \"#utility.yul\":9015:9027   */\n      add\n        /* \"#utility.yul\":9008:9027   */\n      swap1\n      pop\n        /* \"#utility.yul\":8667:9033   */\n      swap2\n      swap1\n      pop\n      jump\t// out\n        /* \"#utility.yul\":9039:9405   */\n    tag_614:\n        /* \"#utility.yul\":9181:9184   */\n      0x00\n        /* \"#utility.yul\":9202:9269   */\n      tag_616\n        /* \"#utility.yul\":9266:9268   */\n      0x0a\n        /* \"#utility.yul\":9261:9264   */\n      dup4\n        /* \"#utility.yul\":9202:9269   */\n      tag_583\n      jump\t// in\n    tag_616:\n        /* \"#utility.yul\":9195:9269   */\n      swap2\n      pop\n        /* \"#utility.yul\":9278:9371   */\n      tag_617\n        /* \"#utility.yul\":9367:9370   */\n      dup3\n        /* \"#utility.yul\":9278:9371   */\n      tag_618\n      jump\t// in\n    tag_617:\n        /* \"#utility.yul\":9396:9398   */\n      0x20\n        /* \"#utility.yul\":9391:9394   */\n      dup3\n        /* \"#utility.yul\":9387:9399   */\n      add\n        /* \"#utility.yul\":9380:9399   */\n      swap1\n      pop\n        /* \"#utility.yul\":9039:9405   */\n      swap2\n      swap1\n      pop\n      jump\t// out\n        /* \"#utility.yul\":9411:9777   */\n    tag_619:\n        /* \"#utility.yul\":9553:9556   */\n      0x00\n        /* \"#utility.yul\":9574:9641   */\n      tag_621\n        /* \"#utility.yul\":9638:9640   */\n      0x15\n        /* \"#utility.yul\":9633:9636   */\n      dup4\n        /* \"#utility.yul\":9574:9641   */\n      tag_583\n      jump\t// in\n    tag_621:\n        /* \"#utility.yul\":9567:9641   */\n      swap2\n      pop\n        /* \"#utility.yul\":9650:9743   */\n      tag_622\n        /* \"#utility.yul\":9739:9742   */\n      dup3\n        /* \"#utility.yul\":9650:9743   */\n      tag_623\n      jump\t// in\n    tag_622:\n        /* \"#utility.yul\":9768:9770   */\n      0x20\n        /* \"#utility.yul\":9763:9766   */\n      dup3\n        /* \"#utility.yul\":9759:9771   */\n      add\n        /* \"#utility.yul\":9752:9771   */\n      swap1\n      pop\n        /* \"#utility.yul\":9411:9777   */\n      swap2\n      swap1\n      pop\n      jump\t// out\n        /* \"#utility.yul\":9783:10149   */\n    tag_624:\n        /* \"#utility.yul\":9925:9928   */\n      0x00\n        /* \"#utility.yul\":9946:10013   */\n      tag_626\n        /* \"#utility.yul\":10010:10012   */\n      0x15\n        /* \"#utility.yul\":10005:10008   */\n      dup4\n        /* \"#utility.yul\":9946:10013   */\n      tag_583\n      jump\t// in\n    tag_626:\n        /* \"#utility.yul\":9939:10013   */\n      swap2\n      pop\n        /* \"#utility.yul\":10022:10115   */\n      tag_627\n        /* \"#utility.yul\":10111:10114   */\n      dup3\n        /* \"#utility.yul\":10022:10115   */\n      tag_628\n      jump\t// in\n    tag_627:\n        /* \"#utility.yul\":10140:10142   */\n      0x20\n        /* \"#utility.yul\":10135:10138   */\n      dup3\n        /* \"#utility.yul\":10131:10143   */\n      add\n        /* \"#utility.yul\":10124:10143   */\n      swap1\n      pop\n        /* \"#utility.yul\":9783:10149   */\n      swap2\n      swap1\n      pop\n      jump\t// out\n        /* \"#utility.yul\":10155:10521   */\n    tag_629:\n        /* \"#utility.yul\":10297:10300   */\n      0x00\n        /* \"#utility.yul\":10318:10385   */\n      tag_631\n        /* \"#utility.yul\":10382:10384   */\n      0x10\n        /* \"#utility.yul\":10377:10380   */\n      dup4\n        /* \"#utility.yul\":10318:10385   */\n      tag_583\n      jump\t// in\n    tag_631:\n        /* \"#utility.yul\":10311:10385   */\n      swap2\n      pop\n        /* \"#utility.yul\":10394:10487   */\n      tag_632\n        /* \"#utility.yul\":10483:10486   */\n      dup3\n        /* \"#utility.yul\":10394:10487   */\n      tag_633\n      jump\t// in\n    tag_632:\n        /* \"#utility.yul\":10512:10514   */\n      0x20\n        /* \"#utility.yul\":10507:10510   */\n      dup3\n        /* \"#utility.yul\":10503:10515   */\n      add\n        /* \"#utility.yul\":10496:10515   */\n      swap1\n      pop\n        /* \"#utility.yul\":10155:10521   */\n      swap2\n      swap1\n      pop\n      jump\t// out\n        /* \"#utility.yul\":10527:10893   */\n    tag_634:\n        /* \"#utility.yul\":10669:10672   */\n      0x00\n        /* \"#utility.yul\":10690:10757   */\n      tag_636\n        /* \"#utility.yul\":10754:10756   */\n      0x11\n        /* \"#utility.yul\":10749:10752   */\n      dup4\n        /* \"#utility.yul\":10690:10757   */\n      tag_583\n      jump\t// in\n    tag_636:\n        /* \"#utility.yul\":10683:10757   */\n      swap2\n      pop\n        /* \"#utility.yul\":10766:10859   */\n      tag_637\n        /* \"#utility.yul\":10855:10858   */\n      dup3\n        /* \"#utility.yul\":10766:10859   */\n      tag_638\n      jump\t// in\n    tag_637:\n        /* \"#utility.yul\":10884:10886   */\n      0x20\n        /* \"#utility.yul\":10879:10882   */\n      dup3\n        /* \"#utility.yul\":10875:10887   */\n      add\n        /* \"#utility.yul\":10868:10887   */\n      swap1\n      pop\n        /* \"#utility.yul\":10527:10893   */\n      swap2\n      swap1\n      pop\n      jump\t// out\n        /* \"#utility.yul\":10963:12005   */\n    tag_639:\n        /* \"#utility.yul\":11118:11122   */\n      0xa0\n        /* \"#utility.yul\":11113:11116   */\n      dup3\n        /* \"#utility.yul\":11109:11123   */\n      add\n        /* \"#utility.yul\":11206:11210   */\n      0x00\n        /* \"#utility.yul\":11199:11204   */\n      dup3\n        /* \"#utility.yul\":11195:11211   */\n      add\n        /* \"#utility.yul\":11189:11212   */\n      mload\n        /* \"#utility.yul\":11225:11288   */\n      tag_641\n        /* \"#utility.yul\":11282:11286   */\n      0x00\n        /* \"#utility.yul\":11277:11280   */\n      dup6\n        /* \"#utility.yul\":11273:11287   */\n      add\n        /* \"#utility.yul\":11259:11271   */\n      dup3\n        /* \"#utility.yul\":11225:11288   */\n      tag_642\n      jump\t// in\n    tag_641:\n        /* \"#utility.yul\":11133:11298   */\n      pop\n        /* \"#utility.yul\":11381:11385   */\n      0x20\n        /* \"#utility.yul\":11374:11379   */\n      dup3\n        /* \"#utility.yul\":11370:11386   */\n      add\n        /* \"#utility.yul\":11364:11387   */\n      mload\n        /* \"#utility.yul\":11400:11463   */\n      tag_643\n        /* \"#utility.yul\":11457:11461   */\n      0x20\n        /* \"#utility.yul\":11452:11455   */\n      dup6\n        /* \"#utility.yul\":11448:11462   */\n      add\n        /* \"#utility.yul\":11434:11446   */\n      dup3\n        /* \"#utility.yul\":11400:11463   */\n      tag_642\n      jump\t// in\n    tag_643:\n        /* \"#utility.yul\":11308:11473   */\n      pop\n        /* \"#utility.yul\":11556:11560   */\n      0x40\n        /* \"#utility.yul\":11549:11554   */\n      dup3\n        /* \"#utility.yul\":11545:11561   */\n      add\n        /* \"#utility.yul\":11539:11562   */\n      mload\n        /* \"#utility.yul\":11575:11638   */\n      tag_644\n        /* \"#utility.yul\":11632:11636   */\n      0x40\n        /* \"#utility.yul\":11627:11630   */\n      dup6\n        /* \"#utility.yul\":11623:11637   */\n      add\n        /* \"#utility.yul\":11609:11621   */\n      dup3\n        /* \"#utility.yul\":11575:11638   */\n      tag_642\n      jump\t// in\n    tag_644:\n        /* \"#utility.yul\":11483:11648   */\n      pop\n        /* \"#utility.yul\":11731:11735   */\n      0x60\n        /* \"#utility.yul\":11724:11729   */\n      dup3\n        /* \"#utility.yul\":11720:11736   */\n      add\n        /* \"#utility.yul\":11714:11737   */\n      mload\n        /* \"#utility.yul\":11750:11813   */\n      tag_645\n        /* \"#utility.yul\":11807:11811   */\n      0x60\n        /* \"#utility.yul\":11802:11805   */\n      dup6\n        /* \"#utility.yul\":11798:11812   */\n      add\n        /* \"#utility.yul\":11784:11796   */\n      dup3\n        /* \"#utility.yul\":11750:11813   */\n      tag_642\n      jump\t// in\n    tag_645:\n        /* \"#utility.yul\":11658:11823   */\n      pop\n        /* \"#utility.yul\":11906:11910   */\n      0x80\n        /* \"#utility.yul\":11899:11904   */\n      dup3\n        /* \"#utility.yul\":11895:11911   */\n      add\n        /* \"#utility.yul\":11889:11912   */\n      mload\n        /* \"#utility.yul\":11925:11988   */\n      tag_646\n        /* \"#utility.yul\":11982:11986   */\n      0x80\n        /* \"#utility.yul\":11977:11980   */\n      dup6\n        /* \"#utility.yul\":11973:11987   */\n      add\n        /* \"#utility.yul\":11959:11971   */\n      dup3\n        /* \"#utility.yul\":11925:11988   */\n      tag_642\n      jump\t// in\n    tag_646:\n        /* \"#utility.yul\":11833:11998   */\n      pop\n        /* \"#utility.yul\":11087:12005   */\n      pop\n        /* \"#utility.yul\":10963:12005   */\n      pop\n      pop\n      jump\t// out\n        /* \"#utility.yul\":12011:12119   */\n    tag_642:\n        /* \"#utility.yul\":12088:12112   */\n      tag_648\n        /* \"#utility.yul\":12106:12111   */\n      dup2\n        /* \"#utility.yul\":12088:12112   */\n      tag_649\n      jump\t// in\n    tag_648:\n        /* \"#utility.yul\":12083:12086   */\n      dup3\n        /* \"#utility.yul\":12076:12113   */\n      mstore\n        /* \"#utility.yul\":12011:12119   */\n      pop\n      pop\n      jump\t// out\n        /* \"#utility.yul\":12125:12243   */\n    tag_650:\n        /* \"#utility.yul\":12212:12236   */\n      tag_652\n        /* \"#utility.yul\":12230:12235   */\n      dup2\n        /* \"#utility.yul\":12212:12236   */\n      tag_649\n      jump\t// in\n    tag_652:\n        /* \"#utility.yul\":12207:12210   */\n      dup3\n        /* \"#utility.yul\":12200:12237   */\n      mstore\n        /* \"#utility.yul\":12125:12243   */\n      pop\n      pop\n      jump\t// out\n        /* \"#utility.yul\":12249:12406   */\n    tag_653:\n        /* \"#utility.yul\":12354:12399   */\n      tag_655\n        /* \"#utility.yul\":12374:12398   */\n      tag_656\n        /* \"#utility.yul\":12392:12397   */\n      dup3\n        /* \"#utility.yul\":12374:12398   */\n      tag_649\n      jump\t// in\n    tag_656:\n        /* \"#utility.yul\":12354:12399   */\n      tag_657\n      jump\t// in\n    tag_655:\n        /* \"#utility.yul\":12349:12352   */\n      dup3\n        /* \"#utility.yul\":12342:12400   */\n      mstore\n        /* \"#utility.yul\":12249:12406   */\n      pop\n      pop\n      jump\t// out\n        /* \"#utility.yul\":12412:12668   */\n    tag_431:\n        /* \"#utility.yul\":12524:12527   */\n      0x00\n        /* \"#utility.yul\":12539:12614   */\n      tag_659\n        /* \"#utility.yul\":12610:12613   */\n      dup3\n        /* \"#utility.yul\":12601:12607   */\n      dup5\n        /* \"#utility.yul\":12539:12614   */\n      tag_573\n      jump\t// in\n    tag_659:\n        /* \"#utility.yul\":12639:12641   */\n      0x20\n        /* \"#utility.yul\":12634:12637   */\n      dup3\n        /* \"#utility.yul\":12630:12642   */\n      add\n        /* \"#utility.yul\":12623:12642   */\n      swap2\n      pop\n        /* \"#utility.yul\":12659:12662   */\n      dup2\n        /* \"#utility.yul\":12652:12662   */\n      swap1\n      pop\n        /* \"#utility.yul\":12412:12668   */\n      swap3\n      swap2\n      pop\n      pop\n      jump\t// out\n        /* \"#utility.yul\":12674:12949   */\n    tag_157:\n        /* \"#utility.yul\":12806:12809   */\n      0x00\n        /* \"#utility.yul\":12828:12923   */\n      tag_661\n        /* \"#utility.yul\":12919:12922   */\n      dup3\n        /* \"#utility.yul\":12910:12916   */\n      dup5\n        /* \"#utility.yul\":12828:12923   */\n      tag_588\n      jump\t// in\n    tag_661:\n        /* \"#utility.yul\":12821:12923   */\n      swap2\n      pop\n        /* \"#utility.yul\":12940:12943   */\n      dup2\n        /* \"#utility.yul\":12933:12943   */\n      swap1\n      pop\n        /* \"#utility.yul\":12674:12949   */\n      swap3\n      swap2\n      pop\n      pop\n      jump\t// out\n        /* \"#utility.yul\":12955:13211   */\n    tag_426:\n        /* \"#utility.yul\":13067:13070   */\n      0x00\n        /* \"#utility.yul\":13082:13157   */\n      tag_663\n        /* \"#utility.yul\":13153:13156   */\n      dup3\n        /* \"#utility.yul\":13144:13150   */\n      dup5\n        /* \"#utility.yul\":13082:13157   */\n      tag_653\n      jump\t// in\n    tag_663:\n        /* \"#utility.yul\":13182:13184   */\n      0x20\n        /* \"#utility.yul\":13177:13180   */\n      dup3\n        /* \"#utility.yul\":13173:13185   */\n      add\n        /* \"#utility.yul\":13166:13185   */\n      swap2\n      pop\n        /* \"#utility.yul\":13202:13205   */\n      dup2\n        /* \"#utility.yul\":13195:13205   */\n      swap1\n      pop\n        /* \"#utility.yul\":12955:13211   */\n      swap3\n      swap2\n      pop\n      pop\n      jump\t// out\n        /* \"#utility.yul\":13217:13549   */\n    tag_20:\n        /* \"#utility.yul\":13338:13342   */\n      0x00\n        /* \"#utility.yul\":13376:13378   */\n      0x40\n        /* \"#utility.yul\":13365:13374   */\n      dup3\n        /* \"#utility.yul\":13361:13379   */\n      add\n        /* \"#utility.yul\":13353:13379   */\n      swap1\n      pop\n        /* \"#utility.yul\":13389:13460   */\n      tag_665\n        /* \"#utility.yul\":13457:13458   */\n      0x00\n        /* \"#utility.yul\":13446:13455   */\n      dup4\n        /* \"#utility.yul\":13442:13459   */\n      add\n        /* \"#utility.yul\":13433:13439   */\n      dup6\n        /* \"#utility.yul\":13389:13460   */\n      tag_561\n      jump\t// in\n    tag_665:\n        /* \"#utility.yul\":13470:13542   */\n      tag_666\n        /* \"#utility.yul\":13538:13540   */\n      0x20\n        /* \"#utility.yul\":13527:13536   */\n      dup4\n        /* \"#utility.yul\":13523:13541   */\n      add\n        /* \"#utility.yul\":13514:13520   */\n      dup5\n        /* \"#utility.yul\":13470:13542   */\n      tag_650\n      jump\t// in\n    tag_666:\n        /* \"#utility.yul\":13217:13549   */\n      swap4\n      swap3\n      pop\n      pop\n      pop\n      jump\t// out\n        /* \"#utility.yul\":13555:13765   */\n    tag_27:\n        /* \"#utility.yul\":13642:13646   */\n      0x00\n        /* \"#utility.yul\":13680:13682   */\n      0x20\n        /* \"#utility.yul\":13669:13678   */\n      dup3\n        /* \"#utility.yul\":13665:13683   */\n      add\n        /* \"#utility.yul\":13657:13683   */\n      swap1\n      pop\n        /* \"#utility.yul\":13693:13758   */\n      tag_668\n        /* \"#utility.yul\":13755:13756   */\n      0x00\n        /* \"#utility.yul\":13744:13753   */\n      dup4\n        /* \"#utility.yul\":13740:13757   */\n      add\n        /* \"#utility.yul\":13731:13737   */\n      dup5\n        /* \"#utility.yul\":13693:13758   */\n      tag_565\n      jump\t// in\n    tag_668:\n        /* \"#utility.yul\":13555:13765   */\n      swap3\n      swap2\n      pop\n      pop\n      jump\t// out\n        /* \"#utility.yul\":13771:13993   */\n    tag_40:\n        /* \"#utility.yul\":13864:13868   */\n      0x00\n        /* \"#utility.yul\":13902:13904   */\n      0x20\n        /* \"#utility.yul\":13891:13900   */\n      dup3\n        /* \"#utility.yul\":13887:13905   */\n      add\n        /* \"#utility.yul\":13879:13905   */\n      swap1\n      pop\n        /* \"#utility.yul\":13915:13986   */\n      tag_670\n        /* \"#utility.yul\":13983:13984   */\n      0x00\n        /* \"#utility.yul\":13972:13981   */\n      dup4\n        /* \"#utility.yul\":13968:13985   */\n      add\n        /* \"#utility.yul\":13959:13965   */\n      dup5\n        /* \"#utility.yul\":13915:13986   */\n      tag_569\n      jump\t// in\n    tag_670:\n        /* \"#utility.yul\":13771:13993   */\n      swap3\n      swap2\n      pop\n      pop\n      jump\t// out\n        /* \"#utility.yul\":13999:14740   */\n    tag_77:\n        /* \"#utility.yul\":14246:14250   */\n      0x00\n        /* \"#utility.yul\":14284:14287   */\n      0xe0\n        /* \"#utility.yul\":14273:14282   */\n      dup3\n        /* \"#utility.yul\":14269:14288   */\n      add\n        /* \"#utility.yul\":14261:14288   */\n      swap1\n      pop\n        /* \"#utility.yul\":14334:14343   */\n      dup2\n        /* \"#utility.yul\":14328:14332   */\n      dup2\n        /* \"#utility.yul\":14324:14344   */\n      sub\n        /* \"#utility.yul\":14320:14321   */\n      0x00\n        /* \"#utility.yul\":14309:14318   */\n      dup4\n        /* \"#utility.yul\":14305:14322   */\n      add\n        /* \"#utility.yul\":14298:14345   */\n      mstore\n        /* \"#utility.yul\":14362:14440   */\n      tag_672\n        /* \"#utility.yul\":14435:14439   */\n      dup2\n        /* \"#utility.yul\":14426:14432   */\n      dup7\n        /* \"#utility.yul\":14362:14440   */\n      tag_578\n      jump\t// in\n    tag_672:\n        /* \"#utility.yul\":14354:14440   */\n      swap1\n      pop\n        /* \"#utility.yul\":14487:14496   */\n      dup2\n        /* \"#utility.yul\":14481:14485   */\n      dup2\n        /* \"#utility.yul\":14477:14497   */\n      sub\n        /* \"#utility.yul\":14472:14474   */\n      0x20\n        /* \"#utility.yul\":14461:14470   */\n      dup4\n        /* \"#utility.yul\":14457:14475   */\n      add\n        /* \"#utility.yul\":14450:14498   */\n      mstore\n        /* \"#utility.yul\":14515:14593   */\n      tag_673\n        /* \"#utility.yul\":14588:14592   */\n      dup2\n        /* \"#utility.yul\":14579:14585   */\n      dup6\n        /* \"#utility.yul\":14515:14593   */\n      tag_578\n      jump\t// in\n    tag_673:\n        /* \"#utility.yul\":14507:14593   */\n      swap1\n      pop\n        /* \"#utility.yul\":14603:14733   */\n      tag_674\n        /* \"#utility.yul\":14729:14731   */\n      0x40\n        /* \"#utility.yul\":14718:14727   */\n      dup4\n        /* \"#utility.yul\":14714:14732   */\n      add\n        /* \"#utility.yul\":14705:14711   */\n      dup5\n        /* \"#utility.yul\":14603:14733   */\n      tag_639\n      jump\t// in\n    tag_674:\n        /* \"#utility.yul\":13999:14740   */\n      swap5\n      swap4\n      pop\n      pop\n      pop\n      pop\n      jump\t// out\n        /* \"#utility.yul\":14746:15165   */\n    tag_81:\n        /* \"#utility.yul\":14912:14916   */\n      0x00\n        /* \"#utility.yul\":14950:14952   */\n      0x20\n        /* \"#utility.yul\":14939:14948   */\n      dup3\n        /* \"#utility.yul\":14935:14953   */\n      add\n        /* \"#utility.yul\":14927:14953   */\n      swap1\n      pop\n        /* \"#utility.yul\":14999:15008   */\n      dup2\n        /* \"#utility.yul\":14993:14997   */\n      dup2\n        /* \"#utility.yul\":14989:15009   */\n      sub\n        /* \"#utility.yul\":14985:14986   */\n      0x00\n        /* \"#utility.yul\":14974:14983   */\n      dup4\n        /* \"#utility.yul\":14970:14987   */\n      add\n        /* \"#utility.yul\":14963:15010   */\n      mstore\n        /* \"#utility.yul\":15027:15158   */\n      tag_676\n        /* \"#utility.yul\":15153:15157   */\n      dup2\n        /* \"#utility.yul\":15027:15158   */\n      tag_594\n      jump\t// in\n    tag_676:\n        /* \"#utility.yul\":15019:15158   */\n      swap1\n      pop\n        /* \"#utility.yul\":14746:15165   */\n      swap2\n      swap1\n      pop\n      jump\t// out\n        /* \"#utility.yul\":15171:15590   */\n    tag_376:\n        /* \"#utility.yul\":15337:15341   */\n      0x00\n        /* \"#utility.yul\":15375:15377   */\n      0x20\n        /* \"#utility.yul\":15364:15373   */\n      dup3\n        /* \"#utility.yul\":15360:15378   */\n      add\n        /* \"#utility.yul\":15352:15378   */\n      swap1\n      pop\n        /* \"#utility.yul\":15424:15433   */\n      dup2\n        /* \"#utility.yul\":15418:15422   */\n      dup2\n        /* \"#utility.yul\":15414:15434   */\n      sub\n        /* \"#utility.yul\":15410:15411   */\n      0x00\n        /* \"#utility.yul\":15399:15408   */\n      dup4\n        /* \"#utility.yul\":15395:15412   */\n      add\n        /* \"#utility.yul\":15388:15435   */\n      mstore\n        /* \"#utility.yul\":15452:15583   */\n      tag_678\n        /* \"#utility.yul\":15578:15582   */\n      dup2\n        /* \"#utility.yul\":15452:15583   */\n      tag_599\n      jump\t// in\n    tag_678:\n        /* \"#utility.yul\":15444:15583   */\n      swap1\n      pop\n        /* \"#utility.yul\":15171:15590   */\n      swap2\n      swap1\n      pop\n      jump\t// out\n        /* \"#utility.yul\":15596:16015   */\n    tag_87:\n        /* \"#utility.yul\":15762:15766   */\n      0x00\n        /* \"#utility.yul\":15800:15802   */\n      0x20\n        /* \"#utility.yul\":15789:15798   */\n      dup3\n        /* \"#utility.yul\":15785:15803   */\n      add\n        /* \"#utility.yul\":15777:15803   */\n      swap1\n      pop\n        /* \"#utility.yul\":15849:15858   */\n      dup2\n        /* \"#utility.yul\":15843:15847   */\n      dup2\n        /* \"#utility.yul\":15839:15859   */\n      sub\n        /* \"#utility.yul\":15835:15836   */\n      0x00\n        /* \"#utility.yul\":15824:15833   */\n      dup4\n        /* \"#utility.yul\":15820:15837   */\n      add\n        /* \"#utility.yul\":15813:15860   */\n      mstore\n        /* \"#utility.yul\":15877:16008   */\n      tag_680\n        /* \"#utility.yul\":16003:16007   */\n      dup2\n        /* \"#utility.yul\":15877:16008   */\n      tag_604\n      jump\t// in\n    tag_680:\n        /* \"#utility.yul\":15869:16008   */\n      swap1\n      pop\n        /* \"#utility.yul\":15596:16015   */\n      swap2\n      swap1\n      pop\n      jump\t// out\n        /* \"#utility.yul\":16021:16440   */\n    tag_142:\n        /* \"#utility.yul\":16187:16191   */\n      0x00\n        /* \"#utility.yul\":16225:16227   */\n      0x20\n        /* \"#utility.yul\":16214:16223   */\n      dup3\n        /* \"#utility.yul\":16210:16228   */\n      add\n        /* \"#utility.yul\":16202:16228   */\n      swap1\n      pop\n        /* \"#utility.yul\":16274:16283   */\n      dup2\n        /* \"#utility.yul\":16268:16272   */\n      dup2\n        /* \"#utility.yul\":16264:16284   */\n      sub\n        /* \"#utility.yul\":16260:16261   */\n      0x00\n        /* \"#utility.yul\":16249:16258   */\n      dup4\n        /* \"#utility.yul\":16245:16262   */\n      add\n        /* \"#utility.yul\":16238:16285   */\n      mstore\n        /* \"#utility.yul\":16302:16433   */\n      tag_682\n        /* \"#utility.yul\":16428:16432   */\n      dup2\n        /* \"#utility.yul\":16302:16433   */\n      tag_609\n      jump\t// in\n    tag_682:\n        /* \"#utility.yul\":16294:16433   */\n      swap1\n      pop\n        /* \"#utility.yul\":16021:16440   */\n      swap2\n      swap1\n      pop\n      jump\t// out\n        /* \"#utility.yul\":16446:16865   */\n    tag_161:\n        /* \"#utility.yul\":16612:16616   */\n      0x00\n        /* \"#utility.yul\":16650:16652   */\n      0x20\n        /* \"#utility.yul\":16639:16648   */\n      dup3\n        /* \"#utility.yul\":16635:16653   */\n      add\n        /* \"#utility.yul\":16627:16653   */\n      swap1\n      pop\n        /* \"#utility.yul\":16699:16708   */\n      dup2\n        /* \"#utility.yul\":16693:16697   */\n      dup2\n        /* \"#utility.yul\":16689:16709   */\n      sub\n        /* \"#utility.yul\":16685:16686   */\n      0x00\n        /* \"#utility.yul\":16674:16683   */\n      dup4\n        /* \"#utility.yul\":16670:16687   */\n      add\n        /* \"#utility.yul\":16663:16710   */\n      mstore\n        /* \"#utility.yul\":16727:16858   */\n      tag_684\n        /* \"#utility.yul\":16853:16857   */\n      dup2\n        /* \"#utility.yul\":16727:16858   */\n      tag_614\n      jump\t// in\n    tag_684:\n        /* \"#utility.yul\":16719:16858   */\n      swap1\n      pop\n        /* \"#utility.yul\":16446:16865   */\n      swap2\n      swap1\n      pop\n      jump\t// out\n        /* \"#utility.yul\":16871:17290   */\n    tag_116:\n        /* \"#utility.yul\":17037:17041   */\n      0x00\n        /* \"#utility.yul\":17075:17077   */\n      0x20\n        /* \"#utility.yul\":17064:17073   */\n      dup3\n        /* \"#utility.yul\":17060:17078   */\n      add\n        /* \"#utility.yul\":17052:17078   */\n      swap1\n      pop\n        /* \"#utility.yul\":17124:17133   */\n      dup2\n        /* \"#utility.yul\":17118:17122   */\n      dup2\n        /* \"#utility.yul\":17114:17134   */\n      sub\n        /* \"#utility.yul\":17110:17111   */\n      0x00\n        /* \"#utility.yul\":17099:17108   */\n      dup4\n        /* \"#utility.yul\":17095:17112   */\n      add\n        /* \"#utility.yul\":17088:17135   */\n      mstore\n        /* \"#utility.yul\":17152:17283   */\n      tag_686\n        /* \"#utility.yul\":17278:17282   */\n      dup2\n        /* \"#utility.yul\":17152:17283   */\n      tag_619\n      jump\t// in\n    tag_686:\n        /* \"#utility.yul\":17144:17283   */\n      swap1\n      pop\n        /* \"#utility.yul\":16871:17290   */\n      swap2\n      swap1\n      pop\n      jump\t// out\n        /* \"#utility.yul\":17296:17715   */\n    tag_206:\n        /* \"#utility.yul\":17462:17466   */\n      0x00\n        /* \"#utility.yul\":17500:17502   */\n      0x20\n        /* \"#utility.yul\":17489:17498   */\n      dup3\n        /* \"#utility.yul\":17485:17503   */\n      add\n        /* \"#utility.yul\":17477:17503   */\n      swap1\n      pop\n        /* \"#utility.yul\":17549:17558   */\n      dup2\n        /* \"#utility.yul\":17543:17547   */\n      dup2\n        /* \"#utility.yul\":17539:17559   */\n      sub\n        /* \"#utility.yul\":17535:17536   */\n      0x00\n        /* \"#utility.yul\":17524:17533   */\n      dup4\n        /* \"#utility.yul\":17520:17537   */\n      add\n        /* \"#utility.yul\":17513:17560   */\n      mstore\n        /* \"#utility.yul\":17577:17708   */\n      tag_688\n        /* \"#utility.yul\":17703:17707   */\n      dup2\n        /* \"#utility.yul\":17577:17708   */\n      tag_624\n      jump\t// in\n    tag_688:\n        /* \"#utility.yul\":17569:17708   */\n      swap1\n      pop\n        /* \"#utility.yul\":17296:17715   */\n      swap2\n      swap1\n      pop\n      jump\t// out\n        /* \"#utility.yul\":17721:18140   */\n    tag_145:\n        /* \"#utility.yul\":17887:17891   */\n      0x00\n        /* \"#utility.yul\":17925:17927   */\n      0x20\n        /* \"#utility.yul\":17914:17923   */\n      dup3\n        /* \"#utility.yul\":17910:17928   */\n      add\n        /* \"#utility.yul\":17902:17928   */\n      swap1\n      pop\n        /* \"#utility.yul\":17974:17983   */\n      dup2\n        /* \"#utility.yul\":17968:17972   */\n      dup2\n        /* \"#utility.yul\":17964:17984   */\n      sub\n        /* \"#utility.yul\":17960:17961   */\n      0x00\n        /* \"#utility.yul\":17949:17958   */\n      dup4\n        /* \"#utility.yul\":17945:17962   */\n      add\n        /* \"#utility.yul\":17938:17985   */\n      mstore\n        /* \"#utility.yul\":18002:18133   */\n      tag_690\n        /* \"#utility.yul\":18128:18132   */\n      dup2\n        /* \"#utility.yul\":18002:18133   */\n      tag_629\n      jump\t// in\n    tag_690:\n        /* \"#utility.yul\":17994:18133   */\n      swap1\n      pop\n        /* \"#utility.yul\":17721:18140   */\n      swap2\n      swap1\n      pop\n      jump\t// out\n        /* \"#utility.yul\":18146:18565   */\n    tag_271:\n        /* \"#utility.yul\":18312:18316   */\n      0x00\n        /* \"#utility.yul\":18350:18352   */\n      0x20\n        /* \"#utility.yul\":18339:18348   */\n      dup3\n        /* \"#utility.yul\":18335:18353   */\n      add\n        /* \"#utility.yul\":18327:18353   */\n      swap1\n      pop\n        /* \"#utility.yul\":18399:18408   */\n      dup2\n        /* \"#utility.yul\":18393:18397   */\n      dup2\n        /* \"#utility.yul\":18389:18409   */\n      sub\n        /* \"#utility.yul\":18385:18386   */\n      0x00\n        /* \"#utility.yul\":18374:18383   */\n      dup4\n        /* \"#utility.yul\":18370:18387   */\n      add\n        /* \"#utility.yul\":18363:18410   */\n      mstore\n        /* \"#utility.yul\":18427:18558   */\n      tag_692\n        /* \"#utility.yul\":18553:18557   */\n      dup2\n        /* \"#utility.yul\":18427:18558   */\n      tag_634\n      jump\t// in\n    tag_692:\n        /* \"#utility.yul\":18419:18558   */\n      swap1\n      pop\n        /* \"#utility.yul\":18146:18565   */\n      swap2\n      swap1\n      pop\n      jump\t// out\n        /* \"#utility.yul\":18571:18793   */\n    tag_45:\n        /* \"#utility.yul\":18664:18668   */\n      0x00\n        /* \"#utility.yul\":18702:18704   */\n      0x20\n        /* \"#utility.yul\":18691:18700   */\n      dup3\n        /* \"#utility.yul\":18687:18705   */\n      add\n        /* \"#utility.yul\":18679:18705   */\n      swap1\n      pop\n        /* \"#utility.yul\":18715:18786   */\n      tag_694\n        /* \"#utility.yul\":18783:18784   */\n      0x00\n        /* \"#utility.yul\":18772:18781   */\n      dup4\n        /* \"#utility.yul\":18768:18785   */\n      add\n        /* \"#utility.yul\":18759:18765   */\n      dup5\n        /* \"#utility.yul\":18715:18786   */\n      tag_650\n      jump\t// in\n    tag_694:\n        /* \"#utility.yul\":18571:18793   */\n      swap3\n      swap2\n      pop\n      pop\n      jump\t// out\n        /* \"#utility.yul\":18799:18928   */\n    tag_483:\n        /* \"#utility.yul\":18833:18839   */\n      0x00\n        /* \"#utility.yul\":18860:18880   */\n      tag_696\n      tag_697\n      jump\t// in\n    tag_696:\n        /* \"#utility.yul\":18850:18880   */\n      swap1\n      pop\n        /* \"#utility.yul\":18889:18922   */\n      tag_698\n        /* \"#utility.yul\":18917:18921   */\n      dup3\n        /* \"#utility.yul\":18909:18915   */\n      dup3\n        /* \"#utility.yul\":18889:18922   */\n      tag_699\n      jump\t// in\n    tag_698:\n        /* \"#utility.yul\":18799:18928   */\n      swap2\n      swap1\n      pop\n      jump\t// out\n        /* \"#utility.yul\":18934:19009   */\n    tag_697:\n        /* \"#utility.yul\":18967:18973   */\n      0x00\n        /* \"#utility.yul\":19000:19002   */\n      0x40\n        /* \"#utility.yul\":18994:19003   */\n      mload\n        /* \"#utility.yul\":18984:19003   */\n      swap1\n      pop\n        /* \"#utility.yul\":18934:19009   */\n      swap1\n      jump\t// out\n        /* \"#utility.yul\":19015:19323   */\n    tag_482:\n        /* \"#utility.yul\":19077:19081   */\n      0x00\n        /* \"#utility.yul\":19167:19185   */\n      0xffffffffffffffff\n        /* \"#utility.yul\":19159:19165   */\n      dup3\n        /* \"#utility.yul\":19156:19186   */\n      gt\n        /* \"#utility.yul\":19153:19209   */\n      iszero\n      tag_702\n      jumpi\n        /* \"#utility.yul\":19189:19207   */\n      tag_703\n      tag_403\n      jump\t// in\n    tag_703:\n        /* \"#utility.yul\":19153:19209   */\n    tag_702:\n        /* \"#utility.yul\":19227:19256   */\n      tag_704\n        /* \"#utility.yul\":19249:19255   */\n      dup3\n        /* \"#utility.yul\":19227:19256   */\n      tag_587\n      jump\t// in\n    tag_704:\n        /* \"#utility.yul\":19219:19256   */\n      swap1\n      pop\n        /* \"#utility.yul\":19311:19315   */\n      0x20\n        /* \"#utility.yul\":19305:19309   */\n      dup2\n        /* \"#utility.yul\":19301:19316   */\n      add\n        /* \"#utility.yul\":19293:19316   */\n      swap1\n      pop\n        /* \"#utility.yul\":19015:19323   */\n      swap2\n      swap1\n      pop\n      jump\t// out\n        /* \"#utility.yul\":19329:19428   */\n    tag_581:\n        /* \"#utility.yul\":19381:19387   */\n      0x00\n        /* \"#utility.yul\":19415:19420   */\n      dup2\n        /* \"#utility.yul\":19409:19421   */\n      mload\n        /* \"#utility.yul\":19399:19421   */\n      swap1\n      pop\n        /* \"#utility.yul\":19329:19428   */\n      swap2\n      swap1\n      pop\n      jump\t// out\n        /* \"#utility.yul\":19434:19603   */\n    tag_583:\n        /* \"#utility.yul\":19518:19529   */\n      0x00\n        /* \"#utility.yul\":19552:19558   */\n      dup3\n        /* \"#utility.yul\":19547:19550   */\n      dup3\n        /* \"#utility.yul\":19540:19559   */\n      mstore\n        /* \"#utility.yul\":19592:19596   */\n      0x20\n        /* \"#utility.yul\":19587:19590   */\n      dup3\n        /* \"#utility.yul\":19583:19597   */\n      add\n        /* \"#utility.yul\":19568:19597   */\n      swap1\n      pop\n        /* \"#utility.yul\":19434:19603   */\n      swap3\n      swap2\n      pop\n      pop\n      jump\t// out\n        /* \"#utility.yul\":19609:19757   */\n    tag_592:\n        /* \"#utility.yul\":19711:19722   */\n      0x00\n        /* \"#utility.yul\":19748:19751   */\n      dup2\n        /* \"#utility.yul\":19733:19751   */\n      swap1\n      pop\n        /* \"#utility.yul\":19609:19757   */\n      swap3\n      swap2\n      pop\n      pop\n      jump\t// out\n        /* \"#utility.yul\":19763:20068   */\n    tag_18:\n        /* \"#utility.yul\":19803:19806   */\n      0x00\n        /* \"#utility.yul\":19822:19842   */\n      tag_709\n        /* \"#utility.yul\":19840:19841   */\n      dup3\n        /* \"#utility.yul\":19822:19842   */\n      tag_649\n      jump\t// in\n    tag_709:\n        /* \"#utility.yul\":19817:19842   */\n      swap2\n      pop\n        /* \"#utility.yul\":19856:19876   */\n      tag_710\n        /* \"#utility.yul\":19874:19875   */\n      dup4\n        /* \"#utility.yul\":19856:19876   */\n      tag_649\n      jump\t// in\n    tag_710:\n        /* \"#utility.yul\":19851:19876   */\n      swap3\n      pop\n        /* \"#utility.yul\":20010:20011   */\n      dup3\n        /* \"#utility.yul\":19942:20008   */\n      0xffffffffffffffffffffffffffffffffffffffffffffffffffffffffffffffff\n        /* \"#utility.yul\":19938:20012   */\n      sub\n        /* \"#utility.yul\":19935:19936   */\n      dup3\n        /* \"#utility.yul\":19932:20013   */\n      gt\n        /* \"#utility.yul\":19929:20036   */\n      iszero\n      tag_711\n      jumpi\n        /* \"#utility.yul\":20016:20034   */\n      tag_712\n      tag_713\n      jump\t// in\n    tag_712:\n        /* \"#utility.yul\":19929:20036   */\n    tag_711:\n        /* \"#utility.yul\":20060:20061   */\n      dup3\n        /* \"#utility.yul\":20057:20058   */\n      dup3\n        /* \"#utility.yul\":20053:20062   */\n      add\n        /* \"#utility.yul\":20046:20062   */\n      swap1\n      pop\n        /* \"#utility.yul\":19763:20068   */\n      swap3\n      swap2\n      pop\n      pop\n      jump\t// out\n        /* \"#utility.yul\":20074:20259   */\n    tag_317:\n        /* \"#utility.yul\":20114:20115   */\n      0x00\n        /* \"#utility.yul\":20131:20151   */\n      tag_715\n        /* \"#utility.yul\":20149:20150   */\n      dup3\n        /* \"#utility.yul\":20131:20151   */\n      tag_649\n      jump\t// in\n    tag_715:\n        /* \"#utility.yul\":20126:20151   */\n      swap2\n      pop\n        /* \"#utility.yul\":20165:20185   */\n      tag_716\n        /* \"#utility.yul\":20183:20184   */\n      dup4\n        /* \"#utility.yul\":20165:20185   */\n      tag_649\n      jump\t// in\n    tag_716:\n        /* \"#utility.yul\":20160:20185   */\n      swap3\n      pop\n        /* \"#utility.yul\":20204:20205   */\n      dup3\n        /* \"#utility.yul\":20194:20229   */\n      tag_717\n      jumpi\n        /* \"#utility.yul\":20209:20227   */\n      tag_718\n      tag_719\n      jump\t// in\n    tag_718:\n        /* \"#utility.yul\":20194:20229   */\n    tag_717:\n        /* \"#utility.yul\":20251:20252   */\n      dup3\n        /* \"#utility.yul\":20248:20249   */\n      dup3\n        /* \"#utility.yul\":20244:20253   */\n      div\n        /* \"#utility.yul\":20239:20253   */\n      swap1\n      pop\n        /* \"#utility.yul\":20074:20259   */\n      swap3\n      swap2\n      pop\n      pop\n      jump\t// out\n        /* \"#utility.yul\":20265:20613   */\n    tag_315:\n        /* \"#utility.yul\":20305:20312   */\n      0x00\n        /* \"#utility.yul\":20328:20348   */\n      tag_721\n        /* \"#utility.yul\":20346:20347   */\n      dup3\n        /* \"#utility.yul\":20328:20348   */\n      tag_649\n      jump\t// in\n    tag_721:\n        /* \"#utility.yul\":20323:20348   */\n      swap2\n      pop\n        /* \"#utility.yul\":20362:20382   */\n      tag_722\n        /* \"#utility.yul\":20380:20381   */\n      dup4\n        /* \"#utility.yul\":20362:20382   */\n      tag_649\n      jump\t// in\n    tag_722:\n        /* \"#utility.yul\":20357:20382   */\n      swap3\n      pop\n        /* \"#utility.yul\":20550:20551   */\n      dup2\n        /* \"#utility.yul\":20482:20548   */\n      0xffffffffffffffffffffffffffffffffffffffffffffffffffffffffffffffff\n        /* \"#utility.yul\":20478:20552   */\n      div\n        /* \"#utility.yul\":20475:20476   */\n      dup4\n        /* \"#utility.yul\":20472:20553   */\n      gt\n        /* \"#utility.yul\":20467:20468   */\n      dup3\n        /* \"#utility.yul\":20460:20469   */\n      iszero\n        /* \"#utility.yul\":20453:20470   */\n      iszero\n        /* \"#utility.yul\":20449:20554   */\n      and\n        /* \"#utility.yul\":20446:20577   */\n      iszero\n      tag_723\n      jumpi\n        /* \"#utility.yul\":20557:20575   */\n      tag_724\n      tag_713\n      jump\t// in\n    tag_724:\n        /* \"#utility.yul\":20446:20577   */\n    tag_723:\n        /* \"#utility.yul\":20605:20606   */\n      dup3\n        /* \"#utility.yul\":20602:20603   */\n      dup3\n        /* \"#utility.yul\":20598:20607   */\n      mul\n        /* \"#utility.yul\":20587:20607   */\n      swap1\n      pop\n        /* \"#utility.yul\":20265:20613   */\n      swap3\n      swap2\n      pop\n      pop\n      jump\t// out\n        /* \"#utility.yul\":20619:20810   */\n    tag_148:\n        /* \"#utility.yul\":20659:20663   */\n      0x00\n        /* \"#utility.yul\":20679:20699   */\n      tag_726\n        /* \"#utility.yul\":20697:20698   */\n      dup3\n        /* \"#utility.yul\":20679:20699   */\n      tag_649\n      jump\t// in\n    tag_726:\n        /* \"#utility.yul\":20674:20699   */\n      swap2\n      pop\n        /* \"#utility.yul\":20713:20733   */\n      tag_727\n        /* \"#utility.yul\":20731:20732   */\n      dup4\n        /* \"#utility.yul\":20713:20733   */\n      tag_649\n      jump\t// in\n    tag_727:\n        /* \"#utility.yul\":20708:20733   */\n      swap3\n      pop\n        /* \"#utility.yul\":20752:20753   */\n      dup3\n        /* \"#utility.yul\":20749:20750   */\n      dup3\n        /* \"#utility.yul\":20746:20754   */\n      lt\n        /* \"#utility.yul\":20743:20777   */\n      iszero\n      tag_728\n      jumpi\n        /* \"#utility.yul\":20757:20775   */\n      tag_729\n      tag_713\n      jump\t// in\n    tag_729:\n        /* \"#utility.yul\":20743:20777   */\n    tag_728:\n        /* \"#utility.yul\":20802:20803   */\n      dup3\n        /* \"#utility.yul\":20799:20800   */\n      dup3\n        /* \"#utility.yul\":20795:20804   */\n      sub\n        /* \"#utility.yul\":20787:20804   */\n      swap1\n      pop\n        /* \"#utility.yul\":20619:20810   */\n      swap3\n      swap2\n      pop\n      pop\n      jump\t// out\n        /* \"#utility.yul\":20816:20912   */\n    tag_564:\n        /* \"#utility.yul\":20853:20860   */\n      0x00\n        /* \"#utility.yul\":20882:20906   */\n      tag_731\n        /* \"#utility.yul\":20900:20905   */\n      dup3\n        /* \"#utility.yul\":20882:20906   */\n      tag_732\n      jump\t// in\n    tag_731:\n        /* \"#utility.yul\":20871:20906   */\n      swap1\n      pop\n        /* \"#utility.yul\":20816:20912   */\n      swap2\n      swap1\n      pop\n      jump\t// out\n        /* \"#utility.yul\":20918:21008   */\n    tag_568:\n        /* \"#utility.yul\":20952:20959   */\n      0x00\n        /* \"#utility.yul\":20995:21000   */\n      dup2\n        /* \"#utility.yul\":20988:21001   */\n      iszero\n        /* \"#utility.yul\":20981:21002   */\n      iszero\n        /* \"#utility.yul\":20970:21002   */\n      swap1\n      pop\n        /* \"#utility.yul\":20918:21008   */\n      swap2\n      swap1\n      pop\n      jump\t// out\n        /* \"#utility.yul\":21014:21091   */\n    tag_572:\n        /* \"#utility.yul\":21051:21058   */\n      0x00\n        /* \"#utility.yul\":21080:21085   */\n      dup2\n        /* \"#utility.yul\":21069:21085   */\n      swap1\n      pop\n        /* \"#utility.yul\":21014:21091   */\n      swap2\n      swap1\n      pop\n      jump\t// out\n        /* \"#utility.yul\":21097:21223   */\n    tag_732:\n        /* \"#utility.yul\":21134:21141   */\n      0x00\n        /* \"#utility.yul\":21174:21216   */\n      0xffffffffffffffffffffffffffffffffffffffff\n        /* \"#utility.yul\":21167:21172   */\n      dup3\n        /* \"#utility.yul\":21163:21217   */\n      and\n        /* \"#utility.yul\":21152:21217   */\n      swap1\n      pop\n        /* \"#utility.yul\":21097:21223   */\n      swap2\n      swap1\n      pop\n      jump\t// out\n        /* \"#utility.yul\":21229:21306   */\n    tag_649:\n        /* \"#utility.yul\":21266:21273   */\n      0x00\n        /* \"#utility.yul\":21295:21300   */\n      dup2\n        /* \"#utility.yul\":21284:21300   */\n      swap1\n      pop\n        /* \"#utility.yul\":21229:21306   */\n      swap2\n      swap1\n      pop\n      jump\t// out\n        /* \"#utility.yul\":21312:21466   */\n    tag_488:\n        /* \"#utility.yul\":21396:21402   */\n      dup3\n        /* \"#utility.yul\":21391:21394   */\n      dup2\n        /* \"#utility.yul\":21386:21389   */\n      dup4\n        /* \"#utility.yul\":21373:21403   */\n      calldatacopy\n        /* \"#utility.yul\":21458:21459   */\n      0x00\n        /* \"#utility.yul\":21449:21455   */\n      dup4\n        /* \"#utility.yul\":21444:21447   */\n      dup4\n        /* \"#utility.yul\":21440:21456   */\n      add\n        /* \"#utility.yul\":21433:21460   */\n      mstore\n        /* \"#utility.yul\":21312:21466   */\n      pop\n      pop\n      pop\n      jump\t// out\n        /* \"#utility.yul\":21472:21779   */\n    tag_585:\n        /* \"#utility.yul\":21540:21541   */\n      0x00\n        /* \"#utility.yul\":21550:21663   */\n    tag_739:\n        /* \"#utility.yul\":21564:21570   */\n      dup4\n        /* \"#utility.yul\":21561:21562   */\n      dup2\n        /* \"#utility.yul\":21558:21571   */\n      lt\n        /* \"#utility.yul\":21550:21663   */\n      iszero\n      tag_741\n      jumpi\n        /* \"#utility.yul\":21649:21650   */\n      dup1\n        /* \"#utility.yul\":21644:21647   */\n      dup3\n        /* \"#utility.yul\":21640:21651   */\n      add\n        /* \"#utility.yul\":21634:21652   */\n      mload\n        /* \"#utility.yul\":21630:21631   */\n      dup2\n        /* \"#utility.yul\":21625:21628   */\n      dup5\n        /* \"#utility.yul\":21621:21632   */\n      add\n        /* \"#utility.yul\":21614:21653   */\n      mstore\n        /* \"#utility.yul\":21586:21588   */\n      0x20\n        /* \"#utility.yul\":21583:21584   */\n      dup2\n        /* \"#utility.yul\":21579:21589   */\n      add\n        /* \"#utility.yul\":21574:21589   */\n      swap1\n      pop\n        /* \"#utility.yul\":21550:21663   */\n      jump(tag_739)\n    tag_741:\n        /* \"#utility.yul\":21681:21687   */\n      dup4\n        /* \"#utility.yul\":21678:21679   */\n      dup2\n        /* \"#utility.yul\":21675:21688   */\n      gt\n        /* \"#utility.yul\":21672:21773   */\n      iszero\n      tag_742\n      jumpi\n        /* \"#utility.yul\":21761:21762   */\n      0x00\n        /* \"#utility.yul\":21752:21758   */\n      dup5\n        /* \"#utility.yul\":21747:21750   */\n      dup5\n        /* \"#utility.yul\":21743:21759   */\n      add\n        /* \"#utility.yul\":21736:21763   */\n      mstore\n        /* \"#utility.yul\":21672:21773   */\n    tag_742:\n        /* \"#utility.yul\":21521:21779   */\n      pop\n        /* \"#utility.yul\":21472:21779   */\n      pop\n      pop\n      pop\n      jump\t// out\n        /* \"#utility.yul\":21785:22105   */\n    tag_90:\n        /* \"#utility.yul\":21829:21835   */\n      0x00\n        /* \"#utility.yul\":21866:21867   */\n      0x02\n        /* \"#utility.yul\":21860:21864   */\n      dup3\n        /* \"#utility.yul\":21856:21868   */\n      div\n        /* \"#utility.yul\":21846:21868   */\n      swap1\n      pop\n        /* \"#utility.yul\":21913:21914   */\n      0x01\n        /* \"#utility.yul\":21907:21911   */\n      dup3\n        /* \"#utility.yul\":21903:21915   */\n      and\n        /* \"#utility.yul\":21934:21952   */\n      dup1\n        /* \"#utility.yul\":21924:22005   */\n      tag_744\n      jumpi\n        /* \"#utility.yul\":21990:21994   */\n      0x7f\n        /* \"#utility.yul\":21982:21988   */\n      dup3\n        /* \"#utility.yul\":21978:21995   */\n      and\n        /* \"#utility.yul\":21968:21995   */\n      swap2\n      pop\n        /* \"#utility.yul\":21924:22005   */\n    tag_744:\n        /* \"#utility.yul\":22052:22054   */\n      0x20\n        /* \"#utility.yul\":22044:22050   */\n      dup3\n        /* \"#utility.yul\":22041:22055   */\n      lt\n        /* \"#utility.yul\":22021:22039   */\n      dup2\n        /* \"#utility.yul\":22018:22056   */\n      eq\n        /* \"#utility.yul\":22015:22099   */\n      iszero\n      tag_745\n      jumpi\n        /* \"#utility.yul\":22071:22089   */\n      tag_746\n      tag_747\n      jump\t// in\n    tag_746:\n        /* \"#utility.yul\":22015:22099   */\n    tag_745:\n        /* \"#utility.yul\":21836:22105   */\n      pop\n        /* \"#utility.yul\":21785:22105   */\n      swap2\n      swap1\n      pop\n      jump\t// out\n        /* \"#utility.yul\":22111:22392   */\n    tag_699:\n        /* \"#utility.yul\":22194:22221   */\n      tag_749\n        /* \"#utility.yul\":22216:22220   */\n      dup3\n        /* \"#utility.yul\":22194:22221   */\n      tag_587\n      jump\t// in\n    tag_749:\n        /* \"#utility.yul\":22186:22192   */\n      dup2\n        /* \"#utility.yul\":22182:22222   */\n      add\n        /* \"#utility.yul\":22324:22330   */\n      dup2\n        /* \"#utility.yul\":22312:22322   */\n      dup2\n        /* \"#utility.yul\":22309:22331   */\n      lt\n        /* \"#utility.yul\":22288:22306   */\n      0xffffffffffffffff\n        /* \"#utility.yul\":22276:22286   */\n      dup3\n        /* \"#utility.yul\":22273:22307   */\n      gt\n        /* \"#utility.yul\":22270:22332   */\n      or\n        /* \"#utility.yul\":22267:22355   */\n      iszero\n      tag_750\n      jumpi\n        /* \"#utility.yul\":22335:22353   */\n      tag_751\n      tag_403\n      jump\t// in\n    tag_751:\n        /* \"#utility.yul\":22267:22355   */\n    tag_750:\n        /* \"#utility.yul\":22375:22385   */\n      dup1\n        /* \"#utility.yul\":22371:22373   */\n      0x40\n        /* \"#utility.yul\":22364:22386   */\n      mstore\n        /* \"#utility.yul\":22154:22392   */\n      pop\n        /* \"#utility.yul\":22111:22392   */\n      pop\n      pop\n      jump\t// out\n        /* \"#utility.yul\":22398:22631   */\n    tag_358:\n        /* \"#utility.yul\":22437:22440   */\n      0x00\n        /* \"#utility.yul\":22460:22484   */\n      tag_753\n        /* \"#utility.yul\":22478:22483   */\n      dup3\n        /* \"#utility.yul\":22460:22484   */\n      tag_649\n      jump\t// in\n    tag_753:\n        /* \"#utility.yul\":22451:22484   */\n      swap2\n      pop\n        /* \"#utility.yul\":22506:22572   */\n      0xffffffffffffffffffffffffffffffffffffffffffffffffffffffffffffffff\n        /* \"#utility.yul\":22499:22504   */\n      dup3\n        /* \"#utility.yul\":22496:22573   */\n      eq\n        /* \"#utility.yul\":22493:22596   */\n      iszero\n      tag_754\n      jumpi\n        /* \"#utility.yul\":22576:22594   */\n      tag_755\n      tag_713\n      jump\t// in\n    tag_755:\n        /* \"#utility.yul\":22493:22596   */\n    tag_754:\n        /* \"#utility.yul\":22623:22624   */\n      0x01\n        /* \"#utility.yul\":22616:22621   */\n      dup3\n        /* \"#utility.yul\":22612:22625   */\n      add\n        /* \"#utility.yul\":22605:22625   */\n      swap1\n      pop\n        /* \"#utility.yul\":22398:22631   */\n      swap2\n      swap1\n      pop\n      jump\t// out\n        /* \"#utility.yul\":22637:22716   */\n    tag_577:\n        /* \"#utility.yul\":22676:22683   */\n      0x00\n        /* \"#utility.yul\":22705:22710   */\n      dup2\n        /* \"#utility.yul\":22694:22710   */\n      swap1\n      pop\n        /* \"#utility.yul\":22637:22716   */\n      swap2\n      swap1\n      pop\n      jump\t// out\n        /* \"#utility.yul\":22722:22801   */\n    tag_657:\n        /* \"#utility.yul\":22761:22768   */\n      0x00\n        /* \"#utility.yul\":22790:22795   */\n      dup2\n        /* \"#utility.yul\":22779:22795   */\n      swap1\n      pop\n        /* \"#utility.yul\":22722:22801   */\n      swap2\n      swap1\n      pop\n      jump\t// out\n        /* \"#utility.yul\":22807:22987   */\n    tag_713:\n        /* \"#utility.yul\":22855:22932   */\n      0x4e487b7100000000000000000000000000000000000000000000000000000000\n        /* \"#utility.yul\":22852:22853   */\n      0x00\n        /* \"#utility.yul\":22845:22933   */\n      mstore\n        /* \"#utility.yul\":22952:22956   */\n      0x11\n        /* \"#utility.yul\":22949:22950   */\n      0x04\n        /* \"#utility.yul\":22942:22957   */\n      mstore\n        /* \"#utility.yul\":22976:22980   */\n      0x24\n        /* \"#utility.yul\":22973:22974   */\n      0x00\n        /* \"#utility.yul\":22966:22981   */\n      revert\n        /* \"#utility.yul\":22993:23173   */\n    tag_719:\n        /* \"#utility.yul\":23041:23118   */\n      0x4e487b7100000000000000000000000000000000000000000000000000000000\n        /* \"#utility.yul\":23038:23039   */\n      0x00\n        /* \"#utility.yul\":23031:23119   */\n      mstore\n        /* \"#utility.yul\":23138:23142   */\n      0x12\n        /* \"#utility.yul\":23135:23136   */\n      0x04\n        /* \"#utility.yul\":23128:23143   */\n      mstore\n        /* \"#utility.yul\":23162:23166   */\n      0x24\n        /* \"#utility.yul\":23159:23160   */\n      0x00\n        /* \"#utility.yul\":23152:23167   */\n      revert\n        /* \"#utility.yul\":23179:23359   */\n    tag_747:\n        /* \"#utility.yul\":23227:23304   */\n      0x4e487b7100000000000000000000000000000000000000000000000000000000\n        /* \"#utility.yul\":23224:23225   */\n      0x00\n        /* \"#utility.yul\":23217:23305   */\n      mstore\n        /* \"#utility.yul\":23324:23328   */\n      0x22\n        /* \"#utility.yul\":23321:23322   */\n      0x04\n        /* \"#utility.yul\":23314:23329   */\n      mstore\n        /* \"#utility.yul\":23348:23352   */\n      0x24\n        /* \"#utility.yul\":23345:23346   */\n      0x00\n        /* \"#utility.yul\":23338:23353   */\n      revert\n        /* \"#utility.yul\":23365:23545   */\n    tag_293:\n        /* \"#utility.yul\":23413:23490   */\n      0x4e487b7100000000000000000000000000000000000000000000000000000000\n        /* \"#utility.yul\":23410:23411   */\n      0x00\n        /* \"#utility.yul\":23403:23491   */\n      mstore\n        /* \"#utility.yul\":23510:23514   */\n      0x32\n        /* \"#utility.yul\":23507:23508   */\n      0x04\n        /* \"#utility.yul\":23500:23515   */\n      mstore\n        /* \"#utility.yul\":23534:23538   */\n      0x24\n        /* \"#utility.yul\":23531:23532   */\n      0x00\n        /* \"#utility.yul\":23524:23539   */\n      revert\n        /* \"#utility.yul\":23551:23731   */\n    tag_403:\n        /* \"#utility.yul\":23599:23676   */\n      0x4e487b7100000000000000000000000000000000000000000000000000000000\n        /* \"#utility.yul\":23596:23597   */\n      0x00\n        /* \"#utility.yul\":23589:23677   */\n      mstore\n        /* \"#utility.yul\":23696:23700   */\n      0x41\n        /* \"#utility.yul\":23693:23694   */\n      0x04\n        /* \"#utility.yul\":23686:23701   */\n      mstore\n        /* \"#utility.yul\":23720:23724   */\n      0x24\n        /* \"#utility.yul\":23717:23718   */\n      0x00\n        /* \"#utility.yul\":23710:23725   */\n      revert\n        /* \"#utility.yul\":23737:23854   */\n    tag_505:\n        /* \"#utility.yul\":23846:23847   */\n      0x00\n        /* \"#utility.yul\":23843:23844   */\n      dup1\n        /* \"#utility.yul\":23836:23848   */\n      revert\n        /* \"#utility.yul\":23860:23977   */\n    tag_486:\n        /* \"#utility.yul\":23969:23970   */\n      0x00\n        /* \"#utility.yul\":23966:23967   */\n      dup1\n        /* \"#utility.yul\":23959:23971   */\n      revert\n        /* \"#utility.yul\":23983:24100   */\n    tag_552:\n        /* \"#utility.yul\":24092:24093   */\n      0x00\n        /* \"#utility.yul\":24089:24090   */\n      dup1\n        /* \"#utility.yul\":24082:24094   */\n      revert\n        /* \"#utility.yul\":24106:24223   */\n    tag_514:\n        /* \"#utility.yul\":24215:24216   */\n      0x00\n        /* \"#utility.yul\":24212:24213   */\n      dup1\n        /* \"#utility.yul\":24205:24217   */\n      revert\n        /* \"#utility.yul\":24229:24331   */\n    tag_587:\n        /* \"#utility.yul\":24270:24276   */\n      0x00\n        /* \"#utility.yul\":24321:24323   */\n      0x1f\n        /* \"#utility.yul\":24317:24324   */\n      not\n        /* \"#utility.yul\":24312:24314   */\n      0x1f\n        /* \"#utility.yul\":24305:24310   */\n      dup4\n        /* \"#utility.yul\":24301:24315   */\n      add\n        /* \"#utility.yul\":24297:24325   */\n      and\n        /* \"#utility.yul\":24287:24325   */\n      swap1\n      pop\n        /* \"#utility.yul\":24229:24331   */\n      swap2\n      swap1\n      pop\n      jump\t// out\n        /* \"#utility.yul\":24337:24512   */\n    tag_598:\n        /* \"#utility.yul\":24477:24504   */\n      0x4f6e6c79206f776e65722063616e2063616c6c20746869732e00000000000000\n        /* \"#utility.yul\":24473:24474   */\n      0x00\n        /* \"#utility.yul\":24465:24471   */\n      dup3\n        /* \"#utility.yul\":24461:24475   */\n      add\n        /* \"#utility.yul\":24454:24505   */\n      mstore\n        /* \"#utility.yul\":24337:24512   */\n      pop\n      jump\t// out\n        /* \"#utility.yul\":24518:24677   */\n    tag_603:\n        /* \"#utility.yul\":24658:24669   */\n      0x6e6f742065786973740000000000000000000000000000000000000000000000\n        /* \"#utility.yul\":24654:24655   */\n      0x00\n        /* \"#utility.yul\":24646:24652   */\n      dup3\n        /* \"#utility.yul\":24642:24656   */\n      add\n        /* \"#utility.yul\":24635:24670   */\n      mstore\n        /* \"#utility.yul\":24518:24677   */\n      pop\n      jump\t// out\n        /* \"#utility.yul\":24683:24847   */\n    tag_608:\n        /* \"#utility.yul\":24823:24839   */\n      0x706f6f6c206e6f74206578697374000000000000000000000000000000000000\n        /* \"#utility.yul\":24819:24820   */\n      0x00\n        /* \"#utility.yul\":24811:24817   */\n      dup3\n        /* \"#utility.yul\":24807:24821   */\n      add\n        /* \"#utility.yul\":24800:24840   */\n      mstore\n        /* \"#utility.yul\":24683:24847   */\n      pop\n      jump\t// out\n        /* \"#utility.yul\":24853:25026   */\n    tag_613:\n        /* \"#utility.yul\":24993:25018   */\n      0x706f6f6c20626173616c20686173206265656e20736574000000000000000000\n        /* \"#utility.yul\":24989:24990   */\n      0x00\n        /* \"#utility.yul\":24981:24987   */\n      dup3\n        /* \"#utility.yul\":24977:24991   */\n      add\n        /* \"#utility.yul\":24970:25019   */\n      mstore\n        /* \"#utility.yul\":24853:25026   */\n      pop\n      jump\t// out\n        /* \"#utility.yul\":25032:25192   */\n    tag_618:\n        /* \"#utility.yul\":25172:25184   */\n      0x7061697220657869737400000000000000000000000000000000000000000000\n        /* \"#utility.yul\":25168:25169   */\n      0x00\n        /* \"#utility.yul\":25160:25166   */\n      dup3\n        /* \"#utility.yul\":25156:25170   */\n      add\n        /* \"#utility.yul\":25149:25185   */\n      mstore\n        /* \"#utility.yul\":25032:25192   */\n      pop\n      jump\t// out\n        /* \"#utility.yul\":25198:25369   */\n    tag_623:\n        /* \"#utility.yul\":25338:25361   */\n      0x706f6f6c20686173206e6f742066696e69736865640000000000000000000000\n        /* \"#utility.yul\":25334:25335   */\n      0x00\n        /* \"#utility.yul\":25326:25332   */\n      dup3\n        /* \"#utility.yul\":25322:25336   */\n      add\n        /* \"#utility.yul\":25315:25362   */\n      mstore\n        /* \"#utility.yul\":25198:25369   */\n      pop\n      jump\t// out\n        /* \"#utility.yul\":25375:25546   */\n    tag_628:\n        /* \"#utility.yul\":25515:25538   */\n      0x6e6f7420656e6f75676820766f7465416d6f756e740000000000000000000000\n        /* \"#utility.yul\":25511:25512   */\n      0x00\n        /* \"#utility.yul\":25503:25509   */\n      dup3\n        /* \"#utility.yul\":25499:25513   */\n      add\n        /* \"#utility.yul\":25492:25539   */\n      mstore\n        /* \"#utility.yul\":25375:25546   */\n      pop\n      jump\t// out\n        /* \"#utility.yul\":25552:25718   */\n    tag_633:\n        /* \"#utility.yul\":25692:25710   */\n      0x6e6f7420656e6f75676820626173616c00000000000000000000000000000000\n        /* \"#utility.yul\":25688:25689   */\n      0x00\n        /* \"#utility.yul\":25680:25686   */\n      dup3\n        /* \"#utility.yul\":25676:25690   */\n      add\n        /* \"#utility.yul\":25669:25711   */\n      mstore\n        /* \"#utility.yul\":25552:25718   */\n      pop\n      jump\t// out\n        /* \"#utility.yul\":25724:25891   */\n    tag_638:\n        /* \"#utility.yul\":25864:25883   */\n      0x706f6f6c206861732066696e6973686564000000000000000000000000000000\n        /* \"#utility.yul\":25860:25861   */\n      0x00\n        /* \"#utility.yul\":25852:25858   */\n      dup3\n        /* \"#utility.yul\":25848:25862   */\n      add\n        /* \"#utility.yul\":25841:25884   */\n      mstore\n        /* \"#utility.yul\":25724:25891   */\n      pop\n      jump\t// out\n        /* \"#utility.yul\":25897:26019   */\n    tag_492:\n        /* \"#utility.yul\":25970:25994   */\n      tag_778\n        /* \"#utility.yul\":25988:25993   */\n      dup2\n        /* \"#utility.yul\":25970:25994   */\n      tag_564\n      jump\t// in\n    tag_778:\n        /* \"#utility.yul\":25963:25968   */\n      dup2\n        /* \"#utility.yul\":25960:25995   */\n      eq\n        /* \"#utility.yul\":25950:26013   */\n      tag_779\n      jumpi\n        /* \"#utility.yul\":26009:26010   */\n      0x00\n        /* \"#utility.yul\":26006:26007   */\n      dup1\n        /* \"#utility.yul\":25999:26011   */\n      revert\n        /* \"#utility.yul\":25950:26013   */\n    tag_779:\n        /* \"#utility.yul\":25897:26019   */\n      pop\n      jump\t// out\n        /* \"#utility.yul\":26025:26141   */\n    tag_496:\n        /* \"#utility.yul\":26095:26116   */\n      tag_781\n        /* \"#utility.yul\":26110:26115   */\n      dup2\n        /* \"#utility.yul\":26095:26116   */\n      tag_568\n      jump\t// in\n    tag_781:\n        /* \"#utility.yul\":26088:26093   */\n      dup2\n        /* \"#utility.yul\":26085:26117   */\n      eq\n        /* \"#utility.yul\":26075:26135   */\n      tag_782\n      jumpi\n        /* \"#utility.yul\":26131:26132   */\n      0x00\n        /* \"#utility.yul\":26128:26129   */\n      dup1\n        /* \"#utility.yul\":26121:26133   */\n      revert\n        /* \"#utility.yul\":26075:26135   */\n    tag_782:\n        /* \"#utility.yul\":26025:26141   */\n      pop\n      jump\t// out\n        /* \"#utility.yul\":26147:26269   */\n    tag_500:\n        /* \"#utility.yul\":26220:26244   */\n      tag_784\n        /* \"#utility.yul\":26238:26243   */\n      dup2\n        /* \"#utility.yul\":26220:26244   */\n      tag_572\n      jump\t// in\n    tag_784:\n        /* \"#utility.yul\":26213:26218   */\n      dup2\n        /* \"#utility.yul\":26210:26245   */\n      eq\n        /* \"#utility.yul\":26200:26263   */\n      tag_785\n      jumpi\n        /* \"#utility.yul\":26259:26260   */\n      0x00\n        /* \"#utility.yul\":26256:26257   */\n      dup1\n        /* \"#utility.yul\":26249:26261   */\n      revert\n        /* \"#utility.yul\":26200:26263   */\n    tag_785:\n        /* \"#utility.yul\":26147:26269   */\n      pop\n      jump\t// out\n        /* \"#utility.yul\":26275:26397   */\n    tag_510:\n        /* \"#utility.yul\":26348:26372   */\n      tag_787\n        /* \"#utility.yul\":26366:26371   */\n      dup2\n        /* \"#utility.yul\":26348:26372   */\n      tag_649\n      jump\t// in\n    tag_787:\n        /* \"#utility.yul\":26341:26346   */\n      dup2\n        /* \"#utility.yul\":26338:26373   */\n      eq\n        /* \"#utility.yul\":26328:26391   */\n      tag_788\n      jumpi\n        /* \"#utility.yul\":26387:26388   */\n      0x00\n        /* \"#utility.yul\":26384:26385   */\n      dup1\n        /* \"#utility.yul\":26377:26389   */\n      revert\n        /* \"#utility.yul\":26328:26391   */\n    tag_788:\n        /* \"#utility.yul\":26275:26397   */\n      pop\n      jump\t// out\n\n    auxdata: 0xa2646970667358221220d29583539ffe540c3695cd25b2f2cadcf9162a7993e2d526ebdcdf307d9a8f4164736f6c63430008070033\n}\n",
				"bytecode": {
					"linkReferences": {},
					"object": "60806040523480156200001157600080fd5b5060405162003ff138038062003ff18339818101604052810190620000379190620000b4565b816000806101000a81548173ffffffffffffffffffffffffffffffffffffffff021916908373ffffffffffffffffffffffffffffffffffffffff16021790555080600181905550505062000172565b60008151905062000097816200013e565b92915050565b600081519050620000ae8162000158565b92915050565b60008060408385031215620000ce57620000cd62000139565b5b6000620000de8582860162000086565b9250506020620000f1858286016200009d565b9150509250929050565b600062000108826200010f565b9050919050565b600073ffffffffffffffffffffffffffffffffffffffff82169050919050565b6000819050919050565b600080fd5b6200014981620000fb565b81146200015557600080fd5b50565b62000163816200012f565b81146200016f57600080fd5b50565b613e6f80620001826000396000f3fe6080604052600436106100955760003560e01c806347e4dd271161005957806347e4dd271461029b57806374fe9bc2146102d85780639bd0abf114610308578063baf4126914610338578063f6c009271461036357610184565b80630ce49053146101895780632bf21ecc146101b9578063357965ba146101f65780633e6ff1a2146102335780634121855f1461025e57610184565b366101845760008054906101000a900473ffffffffffffffffffffffffffffffffffffffff1673ffffffffffffffffffffffffffffffffffffffff163373ffffffffffffffffffffffffffffffffffffffff16146101815734600260003373ffffffffffffffffffffffffffffffffffffffff1673ffffffffffffffffffffffffffffffffffffffff168152602001908152602001600020600082825461013c91906138f3565b925050819055507f88a5966d370b9919b20f3e2c13ff65706f196a4e32cc2c12bf57088f885258743334604051610174929190613697565b60405180910390a1610182565b5b005b600080fd5b6101a3600480360381019061019e9190613128565b6103a2565b6040516101b091906136c0565b60405180910390f35b3480156101c557600080fd5b506101e060048036038101906101db9190613262565b6107de565b6040516101ed91906136c0565b60405180910390f35b34801561020257600080fd5b5061021d60048036038101906102189190613309565b610bdd565b60405161022a91906136db565b60405180910390f35b34801561023f57600080fd5b50610248610ea5565b604051610255919061385b565b60405180910390f35b34801561026a57600080fd5b5061028560048036038101906102809190613235565b610f3e565b604051610292919061385b565b60405180910390f35b3480156102a757600080fd5b506102c260048036038101906102bd91906131a8565b6112d5565b6040516102cf91906136c0565b60405180910390f35b6102f260048036038101906102ed91906132a2565b611a27565b6040516102ff91906136c0565b60405180910390f35b610322600480360381019061031d9190613168565b61249a565b60405161032f91906136c0565b60405180910390f35b34801561034457600080fd5b5061034d612695565b60405161035a919061385b565b60405180910390f35b34801561036f57600080fd5b5061038a60048036038101906103859190613235565b6126dc565b604051610399939291906136f6565b60405180910390f35b60008060009054906101000a900473ffffffffffffffffffffffffffffffffffffffff1673ffffffffffffffffffffffffffffffffffffffff163373ffffffffffffffffffffffffffffffffffffffff1614610433576040517f08c379a000000000000000000000000000000000000000000000000000000000815260040161042a9061373b565b60405180910390fd5b61043c82612a06565b61047b576040517f08c379a00000000000000000000000000000000000000000000000000000000081526004016104729061377b565b60405180910390fd5b600060036000848152602001908152602001600020604051806101600160405290816000820180546104ac90613a9c565b80601f01602080910402602001604051908101604052809291908181526020018280546104d890613a9c565b80156105255780601f106104fa57610100808354040283529160200191610525565b820191906000526020600020905b81548152906001019060200180831161050857829003601f168201915b5050505050815260200160018201805461053e90613a9c565b80601f016020809104026020016040519081016040528092919081815260200182805461056a90613a9c565b80156105b75780601f1061058c576101008083540402835291602001916105b7565b820191906000526020600020905b81548152906001019060200180831161059a57829003601f168201915b505050505081526020016002820180546105d090613a9c565b80601f01602080910402602001604051908101604052809291908181526020018280546105fc90613a9c565b80156106495780601f1061061e57610100808354040283529160200191610649565b820191906000526020600020905b81548152906001019060200180831161062c57829003601f168201915b5050505050815260200160038201548152602001600482015481526020016005820154815260200160068201548152602001600782015481526020016008820160009054906101000a900460ff161515151581526020016008820160019054906101000a900460ff161515151581526020016008820160029054906101000a900460ff1615151515815250509050600061072d600a8360e001518460c0015185608001518660a00151876060015161070191906138f3565b61070b91906138f3565b61071591906138f3565b61071f91906138f3565b612a3390919063ffffffff16565b90506001826101400190151590811515815250156107975760008590508073ffffffffffffffffffffffffffffffffffffffff166108fc839081150290604051600060405180830381858888f19350505050158015610790573d6000803e3d6000fd5b50506107d2565b6040517f08c379a00000000000000000000000000000000000000000000000000000000081526004016107c9906137db565b60405180910390fd5b50506001905092915050565b60008060009054906101000a900473ffffffffffffffffffffffffffffffffffffffff1673ffffffffffffffffffffffffffffffffffffffff163373ffffffffffffffffffffffffffffffffffffffff161461086f576040517f08c379a00000000000000000000000000000000000000000000000000000000081526004016108669061373b565b60405180910390fd5b61087883612a06565b6108b7576040517f08c379a00000000000000000000000000000000000000000000000000000000081526004016108ae9061377b565b60405180910390fd5b600060036000858152602001908152602001600020604051806101600160405290816000820180546108e890613a9c565b80601f016020809104026020016040519081016040528092919081815260200182805461091490613a9c565b80156109615780601f1061093657610100808354040283529160200191610961565b820191906000526020600020905b81548152906001019060200180831161094457829003601f168201915b5050505050815260200160018201805461097a90613a9c565b80601f01602080910402602001604051908101604052809291908181526020018280546109a690613a9c565b80156109f35780601f106109c8576101008083540402835291602001916109f3565b820191906000526020600020905b8154815290600101906020018083116109d657829003601f168201915b50505050508152602001600282018054610a0c90613a9c565b80601f0160208091040260200160405190810160405280929190818152602001828054610a3890613a9c565b8015610a855780601f10610a5a57610100808354040283529160200191610a85565b820191906000526020600020905b815481529060010190602001808311610a6857829003601f168201915b5050505050815260200160038201548152602001600482015481526020016005820154815260200160068201548152602001600782015481526020016008820160009054906101000a900460ff161515151581526020016008820160019054906101000a900460ff161515151581526020016008820160029054906101000a900460ff161515151581525050905060008160e001511115610b5b576040517f08c379a0000000000000000000000000000000000000000000000000000000008152600401610b529061379b565b60405180910390fd5b826001541115610ba0576040517f08c379a0000000000000000000000000000000000000000000000000000000008152600401610b979061381b565b60405180910390fd5b828160e001818151610bb291906138f3565b915081815250508260016000828254610bcb91906139d4565b92505081905550600191505092915050565b60008060009054906101000a900473ffffffffffffffffffffffffffffffffffffffff1673ffffffffffffffffffffffffffffffffffffffff163373ffffffffffffffffffffffffffffffffffffffff1614610c6e576040517f08c379a0000000000000000000000000000000000000000000000000000000008152600401610c659061373b565b60405180910390fd5b6000610c7a8686612a5b565b90506000610c888286612a5b565b9050600081604051602001610c9d9190613665565b604051602081830303815290604052805190602001209050610cbe81612a06565b15610cfe576040517f08c379a0000000000000000000000000000000000000000000000000000000008152600401610cf5906137bb565b60405180910390fd5b60016003600083815260200190815260200160002060080160016101000a81548160ff02191690831515021790555087600360008381526020019081526020016000206000019080519060200190610d57929190612f92565b5086600360008381526020019081526020016000206001019080519060200190610d82929190612f92565b5085600360008381526020019081526020016000206002019080519060200190610dad929190612f92565b506000600360008381526020019081526020016000206003018190555060006003600083815260200190815260200160002060040181905550600060036000838152602001908152602001600020600501819055506000600360008381526020019081526020016000206006018190555060006003600083815260200190815260200160002060070181905550846003600083815260200190815260200160002060080160006101000a81548160ff02191690831515021790555060006003600083815260200190815260200160002060080160026101000a81548160ff021916908315150217905550809350505050949350505050565b60008060009054906101000a900473ffffffffffffffffffffffffffffffffffffffff1673ffffffffffffffffffffffffffffffffffffffff163373ffffffffffffffffffffffffffffffffffffffff1614610f36576040517f08c379a0000000000000000000000000000000000000000000000000000000008152600401610f2d9061373b565b60405180910390fd5b600154905090565b60008060009054906101000a900473ffffffffffffffffffffffffffffffffffffffff1673ffffffffffffffffffffffffffffffffffffffff163373ffffffffffffffffffffffffffffffffffffffff1614610fcf576040517f08c379a0000000000000000000000000000000000000000000000000000000008152600401610fc69061373b565b60405180910390fd5b610fd882612a06565b611017576040517f08c379a000000000000000000000000000000000000000000000000000000000815260040161100e9061377b565b60405180910390fd5b6000600360008481526020019081526020016000206040518061016001604052908160008201805461104890613a9c565b80601f016020809104026020016040519081016040528092919081815260200182805461107490613a9c565b80156110c15780601f10611096576101008083540402835291602001916110c1565b820191906000526020600020905b8154815290600101906020018083116110a457829003601f168201915b505050505081526020016001820180546110da90613a9c565b80601f016020809104026020016040519081016040528092919081815260200182805461110690613a9c565b80156111535780601f1061112857610100808354040283529160200191611153565b820191906000526020600020905b81548152906001019060200180831161113657829003601f168201915b5050505050815260200160028201805461116c90613a9c565b80601f016020809104026020016040519081016040528092919081815260200182805461119890613a9c565b80156111e55780601f106111ba576101008083540402835291602001916111e5565b820191906000526020600020905b8154815290600101906020018083116111c857829003601f168201915b5050505050815260200160038201548152602001600482015481526020016005820154815260200160068201548152602001600782015481526020016008820160009054906101000a900460ff161515151581526020016008820160019054906101000a900460ff161515151581526020016008820160029054906101000a900460ff161515151581525050905060006112c9600a8360e001518460c0015185608001518660a00151876060015161129d91906138f3565b6112a791906138f3565b6112b191906138f3565b6112bb91906138f3565b612a3390919063ffffffff16565b90508092505050919050565b60006112e085612a06565b61131f576040517f08c379a00000000000000000000000000000000000000000000000000000000081526004016113169061377b565b60405180910390fd5b85600260008973ffffffffffffffffffffffffffffffffffffffff1673ffffffffffffffffffffffffffffffffffffffff1681526020019081526020016000205410156113a1576040517f08c379a0000000000000000000000000000000000000000000000000000000008152600401611398906137fb565b60405180910390fd5b600060036000878152602001908152602001600020604051806101600160405290816000820180546113d290613a9c565b80601f01602080910402602001604051908101604052809291908181526020018280546113fe90613a9c565b801561144b5780601f106114205761010080835404028352916020019161144b565b820191906000526020600020905b81548152906001019060200180831161142e57829003601f168201915b5050505050815260200160018201805461146490613a9c565b80601f016020809104026020016040519081016040528092919081815260200182805461149090613a9c565b80156114dd5780601f106114b2576101008083540402835291602001916114dd565b820191906000526020600020905b8154815290600101906020018083116114c057829003601f168201915b505050505081526020016002820180546114f690613a9c565b80601f016020809104026020016040519081016040528092919081815260200182805461152290613a9c565b801561156f5780601f106115445761010080835404028352916020019161156f565b820191906000526020600020905b81548152906001019060200180831161155257829003601f168201915b5050505050815260200160038201548152602001600482015481526020016005820154815260200160068201548152602001600782015481526020016008820160009054906101000a900460ff161515151581526020016008820160019054906101000a900460ff161515151581526020016008820160029054906101000a900460ff1615151515815250509050600061161961160b87612bf1565b61161487612bf1565b612a5b565b9050600061162f61162989612c22565b83612a5b565b905060006040518060e001604052808b81526020018781526020018981526020018881526020018c73ffffffffffffffffffffffffffffffffffffffff16815260200183815260200160001515815250905088600460008b815260200190815260200160002060010181905550600460008a81526020019081526020016000206000018190806001815401808255809150506001900390600052602060002090600702016000909190919091506000820151816000015560208201518160010155604082015181600201556060820151816003015560808201518160040160006101000a81548173ffffffffffffffffffffffffffffffffffffffff021916908373ffffffffffffffffffffffffffffffffffffffff16021790555060a0820151816005019080519060200190611767929190612f92565b5060c08201518160060160006101000a81548160ff02191690831515021790555050508a600660008d73ffffffffffffffffffffffffffffffffffffffff1673ffffffffffffffffffffffffffffffffffffffff16815260200190815260200160002060010160006101000a81548173ffffffffffffffffffffffffffffffffffffffff021916908373ffffffffffffffffffffffffffffffffffffffff160217905550600460008a81526020019081526020016000206000018190806001815401808255809150506001900390600052602060002090600702016000909190919091506000820151816000015560208201518160010155604082015181600201556060820151816003015560808201518160040160006101000a81548173ffffffffffffffffffffffffffffffffffffffff021916908373ffffffffffffffffffffffffffffffffffffffff16021790555060a08201518160050190805190602001906118d6929190612f92565b5060c08201518160060160006101000a81548160ff0219169083151502179055505050600286141561195557898460c00181815161191491906138f3565b915081815250508960058360405161192c9190613665565b9081526020016040518091039020600082825461194991906138f3565b925050819055506119bf565b600386141561197c57898460600181815161197091906138f3565b915081815250506119be565b60018614156119a357898460800181815161199791906138f3565b915081815250506119bd565b898460a0018181516119b591906138f3565b915081815250505b5b5b89600260008d73ffffffffffffffffffffffffffffffffffffffff1673ffffffffffffffffffffffffffffffffffffffff1681526020019081526020016000206000828254611a0e91906139d4565b9250508190555050505050600190509695505050505050565b60008060009054906101000a900473ffffffffffffffffffffffffffffffffffffffff1673ffffffffffffffffffffffffffffffffffffffff163373ffffffffffffffffffffffffffffffffffffffff1614611ab8576040517f08c379a0000000000000000000000000000000000000000000000000000000008152600401611aaf9061373b565b60405180910390fd5b611ac185612a06565b611b00576040517f08c379a0000000000000000000000000000000000000000000000000000000008152600401611af79061377b565b60405180910390fd5b60006003600087815260200190815260200160002060405180610160016040529081600082018054611b3190613a9c565b80601f0160208091040260200160405190810160405280929190818152602001828054611b5d90613a9c565b8015611baa5780601f10611b7f57610100808354040283529160200191611baa565b820191906000526020600020905b815481529060010190602001808311611b8d57829003601f168201915b50505050508152602001600182018054611bc390613a9c565b80601f0160208091040260200160405190810160405280929190818152602001828054611bef90613a9c565b8015611c3c5780601f10611c1157610100808354040283529160200191611c3c565b820191906000526020600020905b815481529060010190602001808311611c1f57829003601f168201915b50505050508152602001600282018054611c5590613a9c565b80601f0160208091040260200160405190810160405280929190818152602001828054611c8190613a9c565b8015611cce5780601f10611ca357610100808354040283529160200191611cce565b820191906000526020600020905b815481529060010190602001808311611cb157829003601f168201915b5050505050815260200160038201548152602001600482015481526020016005820154815260200160068201548152602001600782015481526020016008820160009054906101000a900460ff161515151581526020016008820160019054906101000a900460ff161515151581526020016008820160029054906101000a900460ff1615151515815250509050600181610140019015159081151581525015611dad576040517f08c379a0000000000000000000000000000000000000000000000000000000008152600401611da49061383b565b60405180910390fd5b600060046000888152602001908152602001600020600001805480602002602001604051908101604052809291908181526020016000905b82821015611f4257838290600052602060002090600702016040518060e0016040529081600082015481526020016001820154815260200160028201548152602001600382015481526020016004820160009054906101000a900473ffffffffffffffffffffffffffffffffffffffff1673ffffffffffffffffffffffffffffffffffffffff1673ffffffffffffffffffffffffffffffffffffffff168152602001600582018054611e9690613a9c565b80601f0160208091040260200160405190810160405280929190818152602001828054611ec290613a9c565b8015611f0f5780601f10611ee457610100808354040283529160200191611f0f565b820191906000526020600020905b815481529060010190602001808311611ef257829003601f168201915b505050505081526020016006820160009054906101000a900460ff16151515158152505081526020019060010190611de5565b5050505090506000611fb16014611f6760028660e00151612a3390919063ffffffff16565b85608001518660a0015187606001518860c00151611f8591906138f3565b611f8f91906138f3565b611f9991906138f3565b611fa391906138f3565b612a3390919063ffffffff16565b60016000828254611fc291906138f3565b9250508190555060005b60018351611fda91906139d4565b8111612478576000838281518110611ff557611ff4613be9565b5b602002602001015160c001901515908115158152501561246557600283828151811061202457612023613be9565b5b60200260200101516020015114156121f5576120836064612075605561205860028960e00151612a3390919063ffffffff16565b8860c0015161206791906138f3565b612c5390919063ffffffff16565b612a3390919063ffffffff16565b91508783828151811061209957612098613be9565b5b6020026020010151604001511480156120cf5750868382815181106120c1576120c0613be9565b5b602002602001015160600151145b156121f057600060058483815181106120eb576120ea613be9565b5b602002602001015160a001516040516121049190613665565b908152602001604051809103902054905060008185848151811061212b5761212a613be9565b5b60200260200101516000015185612142919061397a565b61214c9190613949565b9050806002600087868151811061216657612165613be9565b5b60200260200101516080015173ffffffffffffffffffffffffffffffffffffffff1673ffffffffffffffffffffffffffffffffffffffff16815260200190815260200160002060008282546121bb91906138f3565b9250508190555060018584815181106121d7576121d6613be9565b5b602002602001015160c001901515908115158152505050505b612464565b8583828151811061220957612208613be9565b5b6020026020010151602001511415612463576122866064612278605561223d60028960e00151612a3390919063ffffffff16565b88608001518960a001518a6060015161225691906138f3565b61226091906138f3565b61226a91906138f3565b612c5390919063ffffffff16565b612a3390919063ffffffff16565b915060008084838151811061229e5761229d613be9565b5b60200260200101516020015114156122de576122db60646122cd60558860a00151612c5390919063ffffffff16565b612a3390919063ffffffff16565b90505b60018483815181106122f3576122f2613be9565b5b602002602001015160200151141561233357612330606461232260558860800151612c5390919063ffffffff16565b612a3390919063ffffffff16565b90505b600384838151811061234857612347613be9565b5b602002602001015160200151141561238857612385606461237760558860600151612c5390919063ffffffff16565b612a3390919063ffffffff16565b90505b60008185848151811061239e5761239d613be9565b5b602002602001015160000151856123b5919061397a565b6123bf9190613949565b905080600260008786815181106123d9576123d8613be9565b5b60200260200101516080015173ffffffffffffffffffffffffffffffffffffffff1673ffffffffffffffffffffffffffffffffffffffff168152602001908152602001600020600082825461242e91906138f3565b92505081905550600185848151811061244a57612449613be9565b5b602002602001015160c001901515908115158152505050505b5b5b808061247090613aff565b915050611fcc565b5060018361014001901515908115158152505050505060019050949350505050565b60008060009054906101000a900473ffffffffffffffffffffffffffffffffffffffff1673ffffffffffffffffffffffffffffffffffffffff163373ffffffffffffffffffffffffffffffffffffffff161461252b576040517f08c379a00000000000000000000000000000000000000000000000000000000081526004016125229061373b565b60405180910390fd5b81600260008573ffffffffffffffffffffffffffffffffffffffff1673ffffffffffffffffffffffffffffffffffffffff16815260200190815260200160002054101580156125ba57506000600260008573ffffffffffffffffffffffffffffffffffffffff1673ffffffffffffffffffffffffffffffffffffffff1681526020019081526020016000205410155b156126505760008390508073ffffffffffffffffffffffffffffffffffffffff166108fc600260008773ffffffffffffffffffffffffffffffffffffffff1673ffffffffffffffffffffffffffffffffffffffff168152602001908152602001600020549081150290604051600060405180830381858888f19350505050158015612649573d6000803e3d6000fd5b505061268b565b6040517f08c379a0000000000000000000000000000000000000000000000000000000008152600401612682906137fb565b60405180910390fd5b6001905092915050565b6000600260003373ffffffffffffffffffffffffffffffffffffffff1673ffffffffffffffffffffffffffffffffffffffff16815260200190815260200160002054905090565b6060806126e7613018565b6126f084612a06565b61272f576040517f08c379a00000000000000000000000000000000000000000000000000000000081526004016127269061375b565b60405180910390fd5b600061280e60036000878152602001908152602001600020600001805461275590613a9c565b80601f016020809104026020016040519081016040528092919081815260200182805461278190613a9c565b80156127ce5780601f106127a3576101008083540402835291602001916127ce565b820191906000526020600020905b8154815290600101906020018083116127b157829003601f168201915b50505050506040518060400160405280600481526020017f2076732000000000000000000000000000000000000000000000000000000000815250612a5b565b90506128b88160036000888152602001908152602001600020600101805461283590613a9c565b80601f016020809104026020016040519081016040528092919081815260200182805461286190613a9c565b80156128ae5780601f10612883576101008083540402835291602001916128ae565b820191906000526020600020905b81548152906001019060200180831161289157829003601f168201915b5050505050612a5b565b935060006040518060a00160405280600360008981526020019081526020016000206003015481526020016003600089815260200190815260200160002060040154815260200160036000898152602001908152602001600020600501548152602001600360008981526020019081526020016000206006015481526020016003600089815260200190815260200160002060070154815250905084600360008881526020019081526020016000206002018281805461297790613a9c565b80601f01602080910402602001604051908101604052809291908181526020018280546129a390613a9c565b80156129f05780601f106129c5576101008083540402835291602001916129f0565b820191906000526020600020905b8154815290600101906020018083116129d357829003601f168201915b5050505050915094509450945050509193909250565b60006003600083815260200190815260200160002060080160019054906101000a900460ff169050919050565b6000808211612a4157600080fd5b60008284612a4f9190613949565b90508091505092915050565b606060008390506000839050600081518351612a7791906138f3565b67ffffffffffffffff811115612a9057612a8f613c18565b5b6040519080825280601f01601f191660200182016040528015612ac25781602001600182028036833780820191505090505b50905060008190506000805b8551811015612b5657858181518110612aea57612ae9613be9565b5b602001015160f81c60f81b838380612b0190613aff565b945081518110612b1457612b13613be9565b5b60200101907effffffffffffffffffffffffffffffffffffffffffffffffffffffffffffff1916908160001a9053508080612b4e90613aff565b915050612ace565b5060005b8451811015612be257848181518110612b7657612b75613be9565b5b602001015160f81c60f81b838380612b8d90613aff565b945081518110612ba057612b9f613be9565b5b60200101907effffffffffffffffffffffffffffffffffffffffffffffffffffffffffffff1916908160001a9053508080612bda90613aff565b915050612b5a565b50829550505050505092915050565b6060612c1b82604051602001612c07919061367c565b604051602081830303815290604052612c98565b9050919050565b6060612c4c82604051602001612c38919061364a565b604051602081830303815290604052612c98565b9050919050565b600080831415612c665760009050612c92565b60008284612c74919061397a565b9050828482612c839190613949565b14612c8d57600080fd5b809150505b92915050565b606060006040518060400160405280601081526020017f30313233343536373839616263646566000000000000000000000000000000008152509050600060028451612ce4919061397a565b6002612cf091906138f3565b67ffffffffffffffff811115612d0957612d08613c18565b5b6040519080825280601f01601f191660200182016040528015612d3b5781602001600182028036833780820191505090505b5090507f300000000000000000000000000000000000000000000000000000000000000081600081518110612d7357612d72613be9565b5b60200101907effffffffffffffffffffffffffffffffffffffffffffffffffffffffffffff1916908160001a9053507f780000000000000000000000000000000000000000000000000000000000000081600181518110612dd757612dd6613be9565b5b60200101907effffffffffffffffffffffffffffffffffffffffffffffffffffffffffffff1916908160001a90535060005b8451811015612f8757826004868381518110612e2857612e27613be9565b5b602001015160f81c60f81b7effffffffffffffffffffffffffffffffffffffffffffffffffffffffffffff1916901c60f81c60ff1681518110612e6e57612e6d613be9565b5b602001015160f81c60f81b82600283612e87919061397a565b6002612e9391906138f3565b81518110612ea457612ea3613be9565b5b60200101907effffffffffffffffffffffffffffffffffffffffffffffffffffffffffffff1916908160001a90535082600f60f81b868381518110612eec57612eeb613be9565b5b602001015160f81c60f81b1660f81c60ff1681518110612f0f57612f0e613be9565b5b602001015160f81c60f81b82600283612f28919061397a565b6003612f3491906138f3565b81518110612f4557612f44613be9565b5b60200101907effffffffffffffffffffffffffffffffffffffffffffffffffffffffffffff1916908160001a9053508080612f7f90613aff565b915050612e09565b508092505050919050565b828054612f9e90613a9c565b90600052602060002090601f016020900481019282612fc05760008555613007565b82601f10612fd957805160ff1916838001178555613007565b82800160010185558215613007579182015b82811115613006578251825591602001919060010190612feb565b5b5090506130149190613047565b5090565b6040518060a0016040528060008152602001600081526020016000815260200160008152602001600081525090565b5b80821115613060576000816000905550600101613048565b5090565b60006130776130728461389b565b613876565b90508281526020810184848401111561309357613092613c4c565b5b61309e848285613a5a565b509392505050565b6000813590506130b581613ddd565b92915050565b6000813590506130ca81613df4565b92915050565b6000813590506130df81613e0b565b92915050565b600082601f8301126130fa576130f9613c47565b5b813561310a848260208601613064565b91505092915050565b60008135905061312281613e22565b92915050565b6000806040838503121561313f5761313e613c56565b5b600061314d858286016130a6565b925050602061315e858286016130d0565b9150509250929050565b6000806040838503121561317f5761317e613c56565b5b600061318d858286016130a6565b925050602061319e85828601613113565b9150509250929050565b60008060008060008060c087890312156131c5576131c4613c56565b5b60006131d389828a016130a6565b96505060206131e489828a01613113565b95505060406131f589828a016130d0565b945050606061320689828a01613113565b935050608061321789828a01613113565b92505060a061322889828a01613113565b9150509295509295509295565b60006020828403121561324b5761324a613c56565b5b6000613259848285016130d0565b91505092915050565b6000806040838503121561327957613278613c56565b5b6000613287858286016130d0565b925050602061329885828601613113565b9150509250929050565b600080600080608085870312156132bc576132bb613c56565b5b60006132ca878288016130d0565b94505060206132db87828801613113565b93505060406132ec87828801613113565b92505060606132fd87828801613113565b91505092959194509250565b6000806000806080858703121561332357613322613c56565b5b600085013567ffffffffffffffff81111561334157613340613c51565b5b61334d878288016130e5565b945050602085013567ffffffffffffffff81111561336e5761336d613c51565b5b61337a878288016130e5565b935050604085013567ffffffffffffffff81111561339b5761339a613c51565b5b6133a7878288016130e5565b92505060606133b8878288016130bb565b91505092959194509250565b6133cd81613a08565b82525050565b6133dc81613a1a565b82525050565b6133eb81613a26565b82525050565b6134026133fd82613a26565b613b48565b82525050565b6000613413826138cc565b61341d81856138d7565b935061342d818560208601613a69565b61343681613c5b565b840191505092915050565b600061344c826138cc565b61345681856138e8565b9350613466818560208601613a69565b80840191505092915050565b600061347f6019836138d7565b915061348a82613c6c565b602082019050919050565b60006134a26009836138d7565b91506134ad82613c95565b602082019050919050565b60006134c5600e836138d7565b91506134d082613cbe565b602082019050919050565b60006134e86017836138d7565b91506134f382613ce7565b602082019050919050565b600061350b600a836138d7565b915061351682613d10565b602082019050919050565b600061352e6015836138d7565b915061353982613d39565b602082019050919050565b60006135516015836138d7565b915061355c82613d62565b602082019050919050565b60006135746010836138d7565b915061357f82613d8b565b602082019050919050565b60006135976011836138d7565b91506135a282613db4565b602082019050919050565b60a0820160008201516135c36000850182613615565b5060208201516135d66020850182613615565b5060408201516135e96040850182613615565b5060608201516135fc6060850182613615565b50608082015161360f6080850182613615565b50505050565b61361e81613a50565b82525050565b61362d81613a50565b82525050565b61364461363f82613a50565b613b52565b82525050565b600061365682846133f1565b60208201915081905092915050565b60006136718284613441565b915081905092915050565b60006136888284613633565b60208201915081905092915050565b60006040820190506136ac60008301856133c4565b6136b96020830184613624565b9392505050565b60006020820190506136d560008301846133d3565b92915050565b60006020820190506136f060008301846133e2565b92915050565b600060e08201905081810360008301526137108186613408565b905081810360208301526137248185613408565b905061373360408301846135ad565b949350505050565b6000602082019050818103600083015261375481613472565b9050919050565b6000602082019050818103600083015261377481613495565b9050919050565b60006020820190508181036000830152613794816134b8565b9050919050565b600060208201905081810360008301526137b4816134db565b9050919050565b600060208201905081810360008301526137d4816134fe565b9050919050565b600060208201905081810360008301526137f481613521565b9050919050565b6000602082019050818103600083015261381481613544565b9050919050565b6000602082019050818103600083015261383481613567565b9050919050565b600060208201905081810360008301526138548161358a565b9050919050565b60006020820190506138706000830184613624565b92915050565b6000613880613891565b905061388c8282613ace565b919050565b6000604051905090565b600067ffffffffffffffff8211156138b6576138b5613c18565b5b6138bf82613c5b565b9050602081019050919050565b600081519050919050565b600082825260208201905092915050565b600081905092915050565b60006138fe82613a50565b915061390983613a50565b9250827fffffffffffffffffffffffffffffffffffffffffffffffffffffffffffffffff0382111561393e5761393d613b5c565b5b828201905092915050565b600061395482613a50565b915061395f83613a50565b92508261396f5761396e613b8b565b5b828204905092915050565b600061398582613a50565b915061399083613a50565b9250817fffffffffffffffffffffffffffffffffffffffffffffffffffffffffffffffff04831182151516156139c9576139c8613b5c565b5b828202905092915050565b60006139df82613a50565b91506139ea83613a50565b9250828210156139fd576139fc613b5c565b5b828203905092915050565b6000613a1382613a30565b9050919050565b60008115159050919050565b6000819050919050565b600073ffffffffffffffffffffffffffffffffffffffff82169050919050565b6000819050919050565b82818337600083830152505050565b60005b83811015613a87578082015181840152602081019050613a6c565b83811115613a96576000848401525b50505050565b60006002820490506001821680613ab457607f821691505b60208210811415613ac857613ac7613bba565b5b50919050565b613ad782613c5b565b810181811067ffffffffffffffff82111715613af657613af5613c18565b5b80604052505050565b6000613b0a82613a50565b91507fffffffffffffffffffffffffffffffffffffffffffffffffffffffffffffffff821415613b3d57613b3c613b5c565b5b600182019050919050565b6000819050919050565b6000819050919050565b7f4e487b7100000000000000000000000000000000000000000000000000000000600052601160045260246000fd5b7f4e487b7100000000000000000000000000000000000000000000000000000000600052601260045260246000fd5b7f4e487b7100000000000000000000000000000000000000000000000000000000600052602260045260246000fd5b7f4e487b7100000000000000000000000000000000000000000000000000000000600052603260045260246000fd5b7f4e487b7100000000000000000000000000000000000000000000000000000000600052604160045260246000fd5b600080fd5b600080fd5b600080fd5b600080fd5b6000601f19601f8301169050919050565b7f4f6e6c79206f776e65722063616e2063616c6c20746869732e00000000000000600082015250565b7f6e6f742065786973740000000000000000000000000000000000000000000000600082015250565b7f706f6f6c206e6f74206578697374000000000000000000000000000000000000600082015250565b7f706f6f6c20626173616c20686173206265656e20736574000000000000000000600082015250565b7f7061697220657869737400000000000000000000000000000000000000000000600082015250565b7f706f6f6c20686173206e6f742066696e69736865640000000000000000000000600082015250565b7f6e6f7420656e6f75676820766f7465416d6f756e740000000000000000000000600082015250565b7f6e6f7420656e6f75676820626173616c00000000000000000000000000000000600082015250565b7f706f6f6c206861732066696e6973686564000000000000000000000000000000600082015250565b613de681613a08565b8114613df157600080fd5b50565b613dfd81613a1a565b8114613e0857600080fd5b50565b613e1481613a26565b8114613e1f57600080fd5b50565b613e2b81613a50565b8114613e3657600080fd5b5056fea2646970667358221220d29583539ffe540c3695cd25b2f2cadcf9162a7993e2d526ebdcdf307d9a8f4164736f6c63430008070033",
					"opcodes": "PUSH1 0x80 PUSH1 0x40 MSTORE CALLVALUE DUP1 ISZERO PUSH3 0x11 JUMPI PUSH1 0x0 DUP1 REVERT JUMPDEST POP PUSH1 0x40 MLOAD PUSH3 0x3FF1 CODESIZE SUB DUP1 PUSH3 0x3FF1 DUP4 CODECOPY DUP2 DUP2 ADD PUSH1 0x40 MSTORE DUP2 ADD SWAP1 PUSH3 0x37 SWAP2 SWAP1 PUSH3 0xB4 JUMP JUMPDEST DUP2 PUSH1 0x0 DUP1 PUSH2 0x100 EXP DUP2 SLOAD DUP2 PUSH20 0xFFFFFFFFFFFFFFFFFFFFFFFFFFFFFFFFFFFFFFFF MUL NOT AND SWAP1 DUP4 PUSH20 0xFFFFFFFFFFFFFFFFFFFFFFFFFFFFFFFFFFFFFFFF AND MUL OR SWAP1 SSTORE POP DUP1 PUSH1 0x1 DUP2 SWAP1 SSTORE POP POP POP PUSH3 0x172 JUMP JUMPDEST PUSH1 0x0 DUP2 MLOAD SWAP1 POP PUSH3 0x97 DUP2 PUSH3 0x13E JUMP JUMPDEST SWAP3 SWAP2 POP POP JUMP JUMPDEST PUSH1 0x0 DUP2 MLOAD SWAP1 POP PUSH3 0xAE DUP2 PUSH3 0x158 JUMP JUMPDEST SWAP3 SWAP2 POP POP JUMP JUMPDEST PUSH1 0x0 DUP1 PUSH1 0x40 DUP4 DUP6 SUB SLT ISZERO PUSH3 0xCE JUMPI PUSH3 0xCD PUSH3 0x139 JUMP JUMPDEST JUMPDEST PUSH1 0x0 PUSH3 0xDE DUP6 DUP3 DUP7 ADD PUSH3 0x86 JUMP JUMPDEST SWAP3 POP POP PUSH1 0x20 PUSH3 0xF1 DUP6 DUP3 DUP7 ADD PUSH3 0x9D JUMP JUMPDEST SWAP2 POP POP SWAP3 POP SWAP3 SWAP1 POP JUMP JUMPDEST PUSH1 0x0 PUSH3 0x108 DUP3 PUSH3 0x10F JUMP JUMPDEST SWAP1 POP SWAP2 SWAP1 POP JUMP JUMPDEST PUSH1 0x0 PUSH20 0xFFFFFFFFFFFFFFFFFFFFFFFFFFFFFFFFFFFFFFFF DUP3 AND SWAP1 POP SWAP2 SWAP1 POP JUMP JUMPDEST PUSH1 0x0 DUP2 SWAP1 POP SWAP2 SWAP1 POP JUMP JUMPDEST PUSH1 0x0 DUP1 REVERT JUMPDEST PUSH3 0x149 DUP2 PUSH3 0xFB JUMP JUMPDEST DUP2 EQ PUSH3 0x155 JUMPI PUSH1 0x0 DUP1 REVERT JUMPDEST POP JUMP JUMPDEST PUSH3 0x163 DUP2 PUSH3 0x12F JUMP JUMPDEST DUP2 EQ PUSH3 0x16F JUMPI PUSH1 0x0 DUP1 REVERT JUMPDEST POP JUMP JUMPDEST PUSH2 0x3E6F DUP1 PUSH3 0x182 PUSH1 0x0 CODECOPY PUSH1 0x0 RETURN INVALID PUSH1 0x80 PUSH1 0x40 MSTORE PUSH1 0x4 CALLDATASIZE LT PUSH2 0x95 JUMPI PUSH1 0x0 CALLDATALOAD PUSH1 0xE0 SHR DUP1 PUSH4 0x47E4DD27 GT PUSH2 0x59 JUMPI DUP1 PUSH4 0x47E4DD27 EQ PUSH2 0x29B JUMPI DUP1 PUSH4 0x74FE9BC2 EQ PUSH2 0x2D8 JUMPI DUP1 PUSH4 0x9BD0ABF1 EQ PUSH2 0x308 JUMPI DUP1 PUSH4 0xBAF41269 EQ PUSH2 0x338 JUMPI DUP1 PUSH4 0xF6C00927 EQ PUSH2 0x363 JUMPI PUSH2 0x184 JUMP JUMPDEST DUP1 PUSH4 0xCE49053 EQ PUSH2 0x189 JUMPI DUP1 PUSH4 0x2BF21ECC EQ PUSH2 0x1B9 JUMPI DUP1 PUSH4 0x357965BA EQ PUSH2 0x1F6 JUMPI DUP1 PUSH4 0x3E6FF1A2 EQ PUSH2 0x233 JUMPI DUP1 PUSH4 0x4121855F EQ PUSH2 0x25E JUMPI PUSH2 0x184 JUMP JUMPDEST CALLDATASIZE PUSH2 0x184 JUMPI PUSH1 0x0 DUP1 SLOAD SWAP1 PUSH2 0x100 EXP SWAP1 DIV PUSH20 0xFFFFFFFFFFFFFFFFFFFFFFFFFFFFFFFFFFFFFFFF AND PUSH20 0xFFFFFFFFFFFFFFFFFFFFFFFFFFFFFFFFFFFFFFFF AND CALLER PUSH20 0xFFFFFFFFFFFFFFFFFFFFFFFFFFFFFFFFFFFFFFFF AND EQ PUSH2 0x181 JUMPI CALLVALUE PUSH1 0x2 PUSH1 0x0 CALLER PUSH20 0xFFFFFFFFFFFFFFFFFFFFFFFFFFFFFFFFFFFFFFFF AND PUSH20 0xFFFFFFFFFFFFFFFFFFFFFFFFFFFFFFFFFFFFFFFF AND DUP2 MSTORE PUSH1 0x20 ADD SWAP1 DUP2 MSTORE PUSH1 0x20 ADD PUSH1 0x0 KECCAK256 PUSH1 0x0 DUP3 DUP3 SLOAD PUSH2 0x13C SWAP2 SWAP1 PUSH2 0x38F3 JUMP JUMPDEST SWAP3 POP POP DUP2 SWAP1 SSTORE POP PUSH32 0x88A5966D370B9919B20F3E2C13FF65706F196A4E32CC2C12BF57088F88525874 CALLER CALLVALUE PUSH1 0x40 MLOAD PUSH2 0x174 SWAP3 SWAP2 SWAP1 PUSH2 0x3697 JUMP JUMPDEST PUSH1 0x40 MLOAD DUP1 SWAP2 SUB SWAP1 LOG1 PUSH2 0x182 JUMP JUMPDEST JUMPDEST STOP JUMPDEST PUSH1 0x0 DUP1 REVERT JUMPDEST PUSH2 0x1A3 PUSH1 0x4 DUP1 CALLDATASIZE SUB DUP2 ADD SWAP1 PUSH2 0x19E SWAP2 SWAP1 PUSH2 0x3128 JUMP JUMPDEST PUSH2 0x3A2 JUMP JUMPDEST PUSH1 0x40 MLOAD PUSH2 0x1B0 SWAP2 SWAP1 PUSH2 0x36C0 JUMP JUMPDEST PUSH1 0x40 MLOAD DUP1 SWAP2 SUB SWAP1 RETURN JUMPDEST CALLVALUE DUP1 ISZERO PUSH2 0x1C5 JUMPI PUSH1 0x0 DUP1 REVERT JUMPDEST POP PUSH2 0x1E0 PUSH1 0x4 DUP1 CALLDATASIZE SUB DUP2 ADD SWAP1 PUSH2 0x1DB SWAP2 SWAP1 PUSH2 0x3262 JUMP JUMPDEST PUSH2 0x7DE JUMP JUMPDEST PUSH1 0x40 MLOAD PUSH2 0x1ED SWAP2 SWAP1 PUSH2 0x36C0 JUMP JUMPDEST PUSH1 0x40 MLOAD DUP1 SWAP2 SUB SWAP1 RETURN JUMPDEST CALLVALUE DUP1 ISZERO PUSH2 0x202 JUMPI PUSH1 0x0 DUP1 REVERT JUMPDEST POP PUSH2 0x21D PUSH1 0x4 DUP1 CALLDATASIZE SUB DUP2 ADD SWAP1 PUSH2 0x218 SWAP2 SWAP1 PUSH2 0x3309 JUMP JUMPDEST PUSH2 0xBDD JUMP JUMPDEST PUSH1 0x40 MLOAD PUSH2 0x22A SWAP2 SWAP1 PUSH2 0x36DB JUMP JUMPDEST PUSH1 0x40 MLOAD DUP1 SWAP2 SUB SWAP1 RETURN JUMPDEST CALLVALUE DUP1 ISZERO PUSH2 0x23F JUMPI PUSH1 0x0 DUP1 REVERT JUMPDEST POP PUSH2 0x248 PUSH2 0xEA5 JUMP JUMPDEST PUSH1 0x40 MLOAD PUSH2 0x255 SWAP2 SWAP1 PUSH2 0x385B JUMP JUMPDEST PUSH1 0x40 MLOAD DUP1 SWAP2 SUB SWAP1 RETURN JUMPDEST CALLVALUE DUP1 ISZERO PUSH2 0x26A JUMPI PUSH1 0x0 DUP1 REVERT JUMPDEST POP PUSH2 0x285 PUSH1 0x4 DUP1 CALLDATASIZE SUB DUP2 ADD SWAP1 PUSH2 0x280 SWAP2 SWAP1 PUSH2 0x3235 JUMP JUMPDEST PUSH2 0xF3E JUMP JUMPDEST PUSH1 0x40 MLOAD PUSH2 0x292 SWAP2 SWAP1 PUSH2 0x385B JUMP JUMPDEST PUSH1 0x40 MLOAD DUP1 SWAP2 SUB SWAP1 RETURN JUMPDEST CALLVALUE DUP1 ISZERO PUSH2 0x2A7 JUMPI PUSH1 0x0 DUP1 REVERT JUMPDEST POP PUSH2 0x2C2 PUSH1 0x4 DUP1 CALLDATASIZE SUB DUP2 ADD SWAP1 PUSH2 0x2BD SWAP2 SWAP1 PUSH2 0x31A8 JUMP JUMPDEST PUSH2 0x12D5 JUMP JUMPDEST PUSH1 0x40 MLOAD PUSH2 0x2CF SWAP2 SWAP1 PUSH2 0x36C0 JUMP JUMPDEST PUSH1 0x40 MLOAD DUP1 SWAP2 SUB SWAP1 RETURN JUMPDEST PUSH2 0x2F2 PUSH1 0x4 DUP1 CALLDATASIZE SUB DUP2 ADD SWAP1 PUSH2 0x2ED SWAP2 SWAP1 PUSH2 0x32A2 JUMP JUMPDEST PUSH2 0x1A27 JUMP JUMPDEST PUSH1 0x40 MLOAD PUSH2 0x2FF SWAP2 SWAP1 PUSH2 0x36C0 JUMP JUMPDEST PUSH1 0x40 MLOAD DUP1 SWAP2 SUB SWAP1 RETURN JUMPDEST PUSH2 0x322 PUSH1 0x4 DUP1 CALLDATASIZE SUB DUP2 ADD SWAP1 PUSH2 0x31D SWAP2 SWAP1 PUSH2 0x3168 JUMP JUMPDEST PUSH2 0x249A JUMP JUMPDEST PUSH1 0x40 MLOAD PUSH2 0x32F SWAP2 SWAP1 PUSH2 0x36C0 JUMP JUMPDEST PUSH1 0x40 MLOAD DUP1 SWAP2 SUB SWAP1 RETURN JUMPDEST CALLVALUE DUP1 ISZERO PUSH2 0x344 JUMPI PUSH1 0x0 DUP1 REVERT JUMPDEST POP PUSH2 0x34D PUSH2 0x2695 JUMP JUMPDEST PUSH1 0x40 MLOAD PUSH2 0x35A SWAP2 SWAP1 PUSH2 0x385B JUMP JUMPDEST PUSH1 0x40 MLOAD DUP1 SWAP2 SUB SWAP1 RETURN JUMPDEST CALLVALUE DUP1 ISZERO PUSH2 0x36F JUMPI PUSH1 0x0 DUP1 REVERT JUMPDEST POP PUSH2 0x38A PUSH1 0x4 DUP1 CALLDATASIZE SUB DUP2 ADD SWAP1 PUSH2 0x385 SWAP2 SWAP1 PUSH2 0x3235 JUMP JUMPDEST PUSH2 0x26DC JUMP JUMPDEST PUSH1 0x40 MLOAD PUSH2 0x399 SWAP4 SWAP3 SWAP2 SWAP1 PUSH2 0x36F6 JUMP JUMPDEST PUSH1 0x40 MLOAD DUP1 SWAP2 SUB SWAP1 RETURN JUMPDEST PUSH1 0x0 DUP1 PUSH1 0x0 SWAP1 SLOAD SWAP1 PUSH2 0x100 EXP SWAP1 DIV PUSH20 0xFFFFFFFFFFFFFFFFFFFFFFFFFFFFFFFFFFFFFFFF AND PUSH20 0xFFFFFFFFFFFFFFFFFFFFFFFFFFFFFFFFFFFFFFFF AND CALLER PUSH20 0xFFFFFFFFFFFFFFFFFFFFFFFFFFFFFFFFFFFFFFFF AND EQ PUSH2 0x433 JUMPI PUSH1 0x40 MLOAD PUSH32 0x8C379A000000000000000000000000000000000000000000000000000000000 DUP2 MSTORE PUSH1 0x4 ADD PUSH2 0x42A SWAP1 PUSH2 0x373B JUMP JUMPDEST PUSH1 0x40 MLOAD DUP1 SWAP2 SUB SWAP1 REVERT JUMPDEST PUSH2 0x43C DUP3 PUSH2 0x2A06 JUMP JUMPDEST PUSH2 0x47B JUMPI PUSH1 0x40 MLOAD PUSH32 0x8C379A000000000000000000000000000000000000000000000000000000000 DUP2 MSTORE PUSH1 0x4 ADD PUSH2 0x472 SWAP1 PUSH2 0x377B JUMP JUMPDEST PUSH1 0x40 MLOAD DUP1 SWAP2 SUB SWAP1 REVERT JUMPDEST PUSH1 0x0 PUSH1 0x3 PUSH1 0x0 DUP5 DUP2 MSTORE PUSH1 0x20 ADD SWAP1 DUP2 MSTORE PUSH1 0x20 ADD PUSH1 0x0 KECCAK256 PUSH1 0x40 MLOAD DUP1 PUSH2 0x160 ADD PUSH1 0x40 MSTORE SWAP1 DUP2 PUSH1 0x0 DUP3 ADD DUP1 SLOAD PUSH2 0x4AC SWAP1 PUSH2 0x3A9C JUMP JUMPDEST DUP1 PUSH1 0x1F ADD PUSH1 0x20 DUP1 SWAP2 DIV MUL PUSH1 0x20 ADD PUSH1 0x40 MLOAD SWAP1 DUP2 ADD PUSH1 0x40 MSTORE DUP1 SWAP3 SWAP2 SWAP1 DUP2 DUP2 MSTORE PUSH1 0x20 ADD DUP3 DUP1 SLOAD PUSH2 0x4D8 SWAP1 PUSH2 0x3A9C JUMP JUMPDEST DUP1 ISZERO PUSH2 0x525 JUMPI DUP1 PUSH1 0x1F LT PUSH2 0x4FA JUMPI PUSH2 0x100 DUP1 DUP4 SLOAD DIV MUL DUP4 MSTORE SWAP2 PUSH1 0x20 ADD SWAP2 PUSH2 0x525 JUMP JUMPDEST DUP3 ADD SWAP2 SWAP1 PUSH1 0x0 MSTORE PUSH1 0x20 PUSH1 0x0 KECCAK256 SWAP1 JUMPDEST DUP2 SLOAD DUP2 MSTORE SWAP1 PUSH1 0x1 ADD SWAP1 PUSH1 0x20 ADD DUP1 DUP4 GT PUSH2 0x508 JUMPI DUP3 SWAP1 SUB PUSH1 0x1F AND DUP3 ADD SWAP2 JUMPDEST POP POP POP POP POP DUP2 MSTORE PUSH1 0x20 ADD PUSH1 0x1 DUP3 ADD DUP1 SLOAD PUSH2 0x53E SWAP1 PUSH2 0x3A9C JUMP JUMPDEST DUP1 PUSH1 0x1F ADD PUSH1 0x20 DUP1 SWAP2 DIV MUL PUSH1 0x20 ADD PUSH1 0x40 MLOAD SWAP1 DUP2 ADD PUSH1 0x40 MSTORE DUP1 SWAP3 SWAP2 SWAP1 DUP2 DUP2 MSTORE PUSH1 0x20 ADD DUP3 DUP1 SLOAD PUSH2 0x56A SWAP1 PUSH2 0x3A9C JUMP JUMPDEST DUP1 ISZERO PUSH2 0x5B7 JUMPI DUP1 PUSH1 0x1F LT PUSH2 0x58C JUMPI PUSH2 0x100 DUP1 DUP4 SLOAD DIV MUL DUP4 MSTORE SWAP2 PUSH1 0x20 ADD SWAP2 PUSH2 0x5B7 JUMP JUMPDEST DUP3 ADD SWAP2 SWAP1 PUSH1 0x0 MSTORE PUSH1 0x20 PUSH1 0x0 KECCAK256 SWAP1 JUMPDEST DUP2 SLOAD DUP2 MSTORE SWAP1 PUSH1 0x1 ADD SWAP1 PUSH1 0x20 ADD DUP1 DUP4 GT PUSH2 0x59A JUMPI DUP3 SWAP1 SUB PUSH1 0x1F AND DUP3 ADD SWAP2 JUMPDEST POP POP POP POP POP DUP2 MSTORE PUSH1 0x20 ADD PUSH1 0x2 DUP3 ADD DUP1 SLOAD PUSH2 0x5D0 SWAP1 PUSH2 0x3A9C JUMP JUMPDEST DUP1 PUSH1 0x1F ADD PUSH1 0x20 DUP1 SWAP2 DIV MUL PUSH1 0x20 ADD PUSH1 0x40 MLOAD SWAP1 DUP2 ADD PUSH1 0x40 MSTORE DUP1 SWAP3 SWAP2 SWAP1 DUP2 DUP2 MSTORE PUSH1 0x20 ADD DUP3 DUP1 SLOAD PUSH2 0x5FC SWAP1 PUSH2 0x3A9C JUMP JUMPDEST DUP1 ISZERO PUSH2 0x649 JUMPI DUP1 PUSH1 0x1F LT PUSH2 0x61E JUMPI PUSH2 0x100 DUP1 DUP4 SLOAD DIV MUL DUP4 MSTORE SWAP2 PUSH1 0x20 ADD SWAP2 PUSH2 0x649 JUMP JUMPDEST DUP3 ADD SWAP2 SWAP1 PUSH1 0x0 MSTORE PUSH1 0x20 PUSH1 0x0 KECCAK256 SWAP1 JUMPDEST DUP2 SLOAD DUP2 MSTORE SWAP1 PUSH1 0x1 ADD SWAP1 PUSH1 0x20 ADD DUP1 DUP4 GT PUSH2 0x62C JUMPI DUP3 SWAP1 SUB PUSH1 0x1F AND DUP3 ADD SWAP2 JUMPDEST POP POP POP POP POP DUP2 MSTORE PUSH1 0x20 ADD PUSH1 0x3 DUP3 ADD SLOAD DUP2 MSTORE PUSH1 0x20 ADD PUSH1 0x4 DUP3 ADD SLOAD DUP2 MSTORE PUSH1 0x20 ADD PUSH1 0x5 DUP3 ADD SLOAD DUP2 MSTORE PUSH1 0x20 ADD PUSH1 0x6 DUP3 ADD SLOAD DUP2 MSTORE PUSH1 0x20 ADD PUSH1 0x7 DUP3 ADD SLOAD DUP2 MSTORE PUSH1 0x20 ADD PUSH1 0x8 DUP3 ADD PUSH1 0x0 SWAP1 SLOAD SWAP1 PUSH2 0x100 EXP SWAP1 DIV PUSH1 0xFF AND ISZERO ISZERO ISZERO ISZERO DUP2 MSTORE PUSH1 0x20 ADD PUSH1 0x8 DUP3 ADD PUSH1 0x1 SWAP1 SLOAD SWAP1 PUSH2 0x100 EXP SWAP1 DIV PUSH1 0xFF AND ISZERO ISZERO ISZERO ISZERO DUP2 MSTORE PUSH1 0x20 ADD PUSH1 0x8 DUP3 ADD PUSH1 0x2 SWAP1 SLOAD SWAP1 PUSH2 0x100 EXP SWAP1 DIV PUSH1 0xFF AND ISZERO ISZERO ISZERO ISZERO DUP2 MSTORE POP POP SWAP1 POP PUSH1 0x0 PUSH2 0x72D PUSH1 0xA DUP4 PUSH1 0xE0 ADD MLOAD DUP5 PUSH1 0xC0 ADD MLOAD DUP6 PUSH1 0x80 ADD MLOAD DUP7 PUSH1 0xA0 ADD MLOAD DUP8 PUSH1 0x60 ADD MLOAD PUSH2 0x701 SWAP2 SWAP1 PUSH2 0x38F3 JUMP JUMPDEST PUSH2 0x70B SWAP2 SWAP1 PUSH2 0x38F3 JUMP JUMPDEST PUSH2 0x715 SWAP2 SWAP1 PUSH2 0x38F3 JUMP JUMPDEST PUSH2 0x71F SWAP2 SWAP1 PUSH2 0x38F3 JUMP JUMPDEST PUSH2 0x2A33 SWAP1 SWAP2 SWAP1 PUSH4 0xFFFFFFFF AND JUMP JUMPDEST SWAP1 POP PUSH1 0x1 DUP3 PUSH2 0x140 ADD SWAP1 ISZERO ISZERO SWAP1 DUP2 ISZERO ISZERO DUP2 MSTORE POP ISZERO PUSH2 0x797 JUMPI PUSH1 0x0 DUP6 SWAP1 POP DUP1 PUSH20 0xFFFFFFFFFFFFFFFFFFFFFFFFFFFFFFFFFFFFFFFF AND PUSH2 0x8FC DUP4 SWAP1 DUP2 ISZERO MUL SWAP1 PUSH1 0x40 MLOAD PUSH1 0x0 PUSH1 0x40 MLOAD DUP1 DUP4 SUB DUP2 DUP6 DUP9 DUP9 CALL SWAP4 POP POP POP POP ISZERO DUP1 ISZERO PUSH2 0x790 JUMPI RETURNDATASIZE PUSH1 0x0 DUP1 RETURNDATACOPY RETURNDATASIZE PUSH1 0x0 REVERT JUMPDEST POP POP PUSH2 0x7D2 JUMP JUMPDEST PUSH1 0x40 MLOAD PUSH32 0x8C379A000000000000000000000000000000000000000000000000000000000 DUP2 MSTORE PUSH1 0x4 ADD PUSH2 0x7C9 SWAP1 PUSH2 0x37DB JUMP JUMPDEST PUSH1 0x40 MLOAD DUP1 SWAP2 SUB SWAP1 REVERT JUMPDEST POP POP PUSH1 0x1 SWAP1 POP SWAP3 SWAP2 POP POP JUMP JUMPDEST PUSH1 0x0 DUP1 PUSH1 0x0 SWAP1 SLOAD SWAP1 PUSH2 0x100 EXP SWAP1 DIV PUSH20 0xFFFFFFFFFFFFFFFFFFFFFFFFFFFFFFFFFFFFFFFF AND PUSH20 0xFFFFFFFFFFFFFFFFFFFFFFFFFFFFFFFFFFFFFFFF AND CALLER PUSH20 0xFFFFFFFFFFFFFFFFFFFFFFFFFFFFFFFFFFFFFFFF AND EQ PUSH2 0x86F JUMPI PUSH1 0x40 MLOAD PUSH32 0x8C379A000000000000000000000000000000000000000000000000000000000 DUP2 MSTORE PUSH1 0x4 ADD PUSH2 0x866 SWAP1 PUSH2 0x373B JUMP JUMPDEST PUSH1 0x40 MLOAD DUP1 SWAP2 SUB SWAP1 REVERT JUMPDEST PUSH2 0x878 DUP4 PUSH2 0x2A06 JUMP JUMPDEST PUSH2 0x8B7 JUMPI PUSH1 0x40 MLOAD PUSH32 0x8C379A000000000000000000000000000000000000000000000000000000000 DUP2 MSTORE PUSH1 0x4 ADD PUSH2 0x8AE SWAP1 PUSH2 0x377B JUMP JUMPDEST PUSH1 0x40 MLOAD DUP1 SWAP2 SUB SWAP1 REVERT JUMPDEST PUSH1 0x0 PUSH1 0x3 PUSH1 0x0 DUP6 DUP2 MSTORE PUSH1 0x20 ADD SWAP1 DUP2 MSTORE PUSH1 0x20 ADD PUSH1 0x0 KECCAK256 PUSH1 0x40 MLOAD DUP1 PUSH2 0x160 ADD PUSH1 0x40 MSTORE SWAP1 DUP2 PUSH1 0x0 DUP3 ADD DUP1 SLOAD PUSH2 0x8E8 SWAP1 PUSH2 0x3A9C JUMP JUMPDEST DUP1 PUSH1 0x1F ADD PUSH1 0x20 DUP1 SWAP2 DIV MUL PUSH1 0x20 ADD PUSH1 0x40 MLOAD SWAP1 DUP2 ADD PUSH1 0x40 MSTORE DUP1 SWAP3 SWAP2 SWAP1 DUP2 DUP2 MSTORE PUSH1 0x20 ADD DUP3 DUP1 SLOAD PUSH2 0x914 SWAP1 PUSH2 0x3A9C JUMP JUMPDEST DUP1 ISZERO PUSH2 0x961 JUMPI DUP1 PUSH1 0x1F LT PUSH2 0x936 JUMPI PUSH2 0x100 DUP1 DUP4 SLOAD DIV MUL DUP4 MSTORE SWAP2 PUSH1 0x20 ADD SWAP2 PUSH2 0x961 JUMP JUMPDEST DUP3 ADD SWAP2 SWAP1 PUSH1 0x0 MSTORE PUSH1 0x20 PUSH1 0x0 KECCAK256 SWAP1 JUMPDEST DUP2 SLOAD DUP2 MSTORE SWAP1 PUSH1 0x1 ADD SWAP1 PUSH1 0x20 ADD DUP1 DUP4 GT PUSH2 0x944 JUMPI DUP3 SWAP1 SUB PUSH1 0x1F AND DUP3 ADD SWAP2 JUMPDEST POP POP POP POP POP DUP2 MSTORE PUSH1 0x20 ADD PUSH1 0x1 DUP3 ADD DUP1 SLOAD PUSH2 0x97A SWAP1 PUSH2 0x3A9C JUMP JUMPDEST DUP1 PUSH1 0x1F ADD PUSH1 0x20 DUP1 SWAP2 DIV MUL PUSH1 0x20 ADD PUSH1 0x40 MLOAD SWAP1 DUP2 ADD PUSH1 0x40 MSTORE DUP1 SWAP3 SWAP2 SWAP1 DUP2 DUP2 MSTORE PUSH1 0x20 ADD DUP3 DUP1 SLOAD PUSH2 0x9A6 SWAP1 PUSH2 0x3A9C JUMP JUMPDEST DUP1 ISZERO PUSH2 0x9F3 JUMPI DUP1 PUSH1 0x1F LT PUSH2 0x9C8 JUMPI PUSH2 0x100 DUP1 DUP4 SLOAD DIV MUL DUP4 MSTORE SWAP2 PUSH1 0x20 ADD SWAP2 PUSH2 0x9F3 JUMP JUMPDEST DUP3 ADD SWAP2 SWAP1 PUSH1 0x0 MSTORE PUSH1 0x20 PUSH1 0x0 KECCAK256 SWAP1 JUMPDEST DUP2 SLOAD DUP2 MSTORE SWAP1 PUSH1 0x1 ADD SWAP1 PUSH1 0x20 ADD DUP1 DUP4 GT PUSH2 0x9D6 JUMPI DUP3 SWAP1 SUB PUSH1 0x1F AND DUP3 ADD SWAP2 JUMPDEST POP POP POP POP POP DUP2 MSTORE PUSH1 0x20 ADD PUSH1 0x2 DUP3 ADD DUP1 SLOAD PUSH2 0xA0C SWAP1 PUSH2 0x3A9C JUMP JUMPDEST DUP1 PUSH1 0x1F ADD PUSH1 0x20 DUP1 SWAP2 DIV MUL PUSH1 0x20 ADD PUSH1 0x40 MLOAD SWAP1 DUP2 ADD PUSH1 0x40 MSTORE DUP1 SWAP3 SWAP2 SWAP1 DUP2 DUP2 MSTORE PUSH1 0x20 ADD DUP3 DUP1 SLOAD PUSH2 0xA38 SWAP1 PUSH2 0x3A9C JUMP JUMPDEST DUP1 ISZERO PUSH2 0xA85 JUMPI DUP1 PUSH1 0x1F LT PUSH2 0xA5A JUMPI PUSH2 0x100 DUP1 DUP4 SLOAD DIV MUL DUP4 MSTORE SWAP2 PUSH1 0x20 ADD SWAP2 PUSH2 0xA85 JUMP JUMPDEST DUP3 ADD SWAP2 SWAP1 PUSH1 0x0 MSTORE PUSH1 0x20 PUSH1 0x0 KECCAK256 SWAP1 JUMPDEST DUP2 SLOAD DUP2 MSTORE SWAP1 PUSH1 0x1 ADD SWAP1 PUSH1 0x20 ADD DUP1 DUP4 GT PUSH2 0xA68 JUMPI DUP3 SWAP1 SUB PUSH1 0x1F AND DUP3 ADD SWAP2 JUMPDEST POP POP POP POP POP DUP2 MSTORE PUSH1 0x20 ADD PUSH1 0x3 DUP3 ADD SLOAD DUP2 MSTORE PUSH1 0x20 ADD PUSH1 0x4 DUP3 ADD SLOAD DUP2 MSTORE PUSH1 0x20 ADD PUSH1 0x5 DUP3 ADD SLOAD DUP2 MSTORE PUSH1 0x20 ADD PUSH1 0x6 DUP3 ADD SLOAD DUP2 MSTORE PUSH1 0x20 ADD PUSH1 0x7 DUP3 ADD SLOAD DUP2 MSTORE PUSH1 0x20 ADD PUSH1 0x8 DUP3 ADD PUSH1 0x0 SWAP1 SLOAD SWAP1 PUSH2 0x100 EXP SWAP1 DIV PUSH1 0xFF AND ISZERO ISZERO ISZERO ISZERO DUP2 MSTORE PUSH1 0x20 ADD PUSH1 0x8 DUP3 ADD PUSH1 0x1 SWAP1 SLOAD SWAP1 PUSH2 0x100 EXP SWAP1 DIV PUSH1 0xFF AND ISZERO ISZERO ISZERO ISZERO DUP2 MSTORE PUSH1 0x20 ADD PUSH1 0x8 DUP3 ADD PUSH1 0x2 SWAP1 SLOAD SWAP1 PUSH2 0x100 EXP SWAP1 DIV PUSH1 0xFF AND ISZERO ISZERO ISZERO ISZERO DUP2 MSTORE POP POP SWAP1 POP PUSH1 0x0 DUP2 PUSH1 0xE0 ADD MLOAD GT ISZERO PUSH2 0xB5B JUMPI PUSH1 0x40 MLOAD PUSH32 0x8C379A000000000000000000000000000000000000000000000000000000000 DUP2 MSTORE PUSH1 0x4 ADD PUSH2 0xB52 SWAP1 PUSH2 0x379B JUMP JUMPDEST PUSH1 0x40 MLOAD DUP1 SWAP2 SUB SWAP1 REVERT JUMPDEST DUP3 PUSH1 0x1 SLOAD GT ISZERO PUSH2 0xBA0 JUMPI PUSH1 0x40 MLOAD PUSH32 0x8C379A000000000000000000000000000000000000000000000000000000000 DUP2 MSTORE PUSH1 0x4 ADD PUSH2 0xB97 SWAP1 PUSH2 0x381B JUMP JUMPDEST PUSH1 0x40 MLOAD DUP1 SWAP2 SUB SWAP1 REVERT JUMPDEST DUP3 DUP2 PUSH1 0xE0 ADD DUP2 DUP2 MLOAD PUSH2 0xBB2 SWAP2 SWAP1 PUSH2 0x38F3 JUMP JUMPDEST SWAP2 POP DUP2 DUP2 MSTORE POP POP DUP3 PUSH1 0x1 PUSH1 0x0 DUP3 DUP3 SLOAD PUSH2 0xBCB SWAP2 SWAP1 PUSH2 0x39D4 JUMP JUMPDEST SWAP3 POP POP DUP2 SWAP1 SSTORE POP PUSH1 0x1 SWAP2 POP POP SWAP3 SWAP2 POP POP JUMP JUMPDEST PUSH1 0x0 DUP1 PUSH1 0x0 SWAP1 SLOAD SWAP1 PUSH2 0x100 EXP SWAP1 DIV PUSH20 0xFFFFFFFFFFFFFFFFFFFFFFFFFFFFFFFFFFFFFFFF AND PUSH20 0xFFFFFFFFFFFFFFFFFFFFFFFFFFFFFFFFFFFFFFFF AND CALLER PUSH20 0xFFFFFFFFFFFFFFFFFFFFFFFFFFFFFFFFFFFFFFFF AND EQ PUSH2 0xC6E JUMPI PUSH1 0x40 MLOAD PUSH32 0x8C379A000000000000000000000000000000000000000000000000000000000 DUP2 MSTORE PUSH1 0x4 ADD PUSH2 0xC65 SWAP1 PUSH2 0x373B JUMP JUMPDEST PUSH1 0x40 MLOAD DUP1 SWAP2 SUB SWAP1 REVERT JUMPDEST PUSH1 0x0 PUSH2 0xC7A DUP7 DUP7 PUSH2 0x2A5B JUMP JUMPDEST SWAP1 POP PUSH1 0x0 PUSH2 0xC88 DUP3 DUP7 PUSH2 0x2A5B JUMP JUMPDEST SWAP1 POP PUSH1 0x0 DUP2 PUSH1 0x40 MLOAD PUSH1 0x20 ADD PUSH2 0xC9D SWAP2 SWAP1 PUSH2 0x3665 JUMP JUMPDEST PUSH1 0x40 MLOAD PUSH1 0x20 DUP2 DUP4 SUB SUB DUP2 MSTORE SWAP1 PUSH1 0x40 MSTORE DUP1 MLOAD SWAP1 PUSH1 0x20 ADD KECCAK256 SWAP1 POP PUSH2 0xCBE DUP2 PUSH2 0x2A06 JUMP JUMPDEST ISZERO PUSH2 0xCFE JUMPI PUSH1 0x40 MLOAD PUSH32 0x8C379A000000000000000000000000000000000000000000000000000000000 DUP2 MSTORE PUSH1 0x4 ADD PUSH2 0xCF5 SWAP1 PUSH2 0x37BB JUMP JUMPDEST PUSH1 0x40 MLOAD DUP1 SWAP2 SUB SWAP1 REVERT JUMPDEST PUSH1 0x1 PUSH1 0x3 PUSH1 0x0 DUP4 DUP2 MSTORE PUSH1 0x20 ADD SWAP1 DUP2 MSTORE PUSH1 0x20 ADD PUSH1 0x0 KECCAK256 PUSH1 0x8 ADD PUSH1 0x1 PUSH2 0x100 EXP DUP2 SLOAD DUP2 PUSH1 0xFF MUL NOT AND SWAP1 DUP4 ISZERO ISZERO MUL OR SWAP1 SSTORE POP DUP8 PUSH1 0x3 PUSH1 0x0 DUP4 DUP2 MSTORE PUSH1 0x20 ADD SWAP1 DUP2 MSTORE PUSH1 0x20 ADD PUSH1 0x0 KECCAK256 PUSH1 0x0 ADD SWAP1 DUP1 MLOAD SWAP1 PUSH1 0x20 ADD SWAP1 PUSH2 0xD57 SWAP3 SWAP2 SWAP1 PUSH2 0x2F92 JUMP JUMPDEST POP DUP7 PUSH1 0x3 PUSH1 0x0 DUP4 DUP2 MSTORE PUSH1 0x20 ADD SWAP1 DUP2 MSTORE PUSH1 0x20 ADD PUSH1 0x0 KECCAK256 PUSH1 0x1 ADD SWAP1 DUP1 MLOAD SWAP1 PUSH1 0x20 ADD SWAP1 PUSH2 0xD82 SWAP3 SWAP2 SWAP1 PUSH2 0x2F92 JUMP JUMPDEST POP DUP6 PUSH1 0x3 PUSH1 0x0 DUP4 DUP2 MSTORE PUSH1 0x20 ADD SWAP1 DUP2 MSTORE PUSH1 0x20 ADD PUSH1 0x0 KECCAK256 PUSH1 0x2 ADD SWAP1 DUP1 MLOAD SWAP1 PUSH1 0x20 ADD SWAP1 PUSH2 0xDAD SWAP3 SWAP2 SWAP1 PUSH2 0x2F92 JUMP JUMPDEST POP PUSH1 0x0 PUSH1 0x3 PUSH1 0x0 DUP4 DUP2 MSTORE PUSH1 0x20 ADD SWAP1 DUP2 MSTORE PUSH1 0x20 ADD PUSH1 0x0 KECCAK256 PUSH1 0x3 ADD DUP2 SWAP1 SSTORE POP PUSH1 0x0 PUSH1 0x3 PUSH1 0x0 DUP4 DUP2 MSTORE PUSH1 0x20 ADD SWAP1 DUP2 MSTORE PUSH1 0x20 ADD PUSH1 0x0 KECCAK256 PUSH1 0x4 ADD DUP2 SWAP1 SSTORE POP PUSH1 0x0 PUSH1 0x3 PUSH1 0x0 DUP4 DUP2 MSTORE PUSH1 0x20 ADD SWAP1 DUP2 MSTORE PUSH1 0x20 ADD PUSH1 0x0 KECCAK256 PUSH1 0x5 ADD DUP2 SWAP1 SSTORE POP PUSH1 0x0 PUSH1 0x3 PUSH1 0x0 DUP4 DUP2 MSTORE PUSH1 0x20 ADD SWAP1 DUP2 MSTORE PUSH1 0x20 ADD PUSH1 0x0 KECCAK256 PUSH1 0x6 ADD DUP2 SWAP1 SSTORE POP PUSH1 0x0 PUSH1 0x3 PUSH1 0x0 DUP4 DUP2 MSTORE PUSH1 0x20 ADD SWAP1 DUP2 MSTORE PUSH1 0x20 ADD PUSH1 0x0 KECCAK256 PUSH1 0x7 ADD DUP2 SWAP1 SSTORE POP DUP5 PUSH1 0x3 PUSH1 0x0 DUP4 DUP2 MSTORE PUSH1 0x20 ADD SWAP1 DUP2 MSTORE PUSH1 0x20 ADD PUSH1 0x0 KECCAK256 PUSH1 0x8 ADD PUSH1 0x0 PUSH2 0x100 EXP DUP2 SLOAD DUP2 PUSH1 0xFF MUL NOT AND SWAP1 DUP4 ISZERO ISZERO MUL OR SWAP1 SSTORE POP PUSH1 0x0 PUSH1 0x3 PUSH1 0x0 DUP4 DUP2 MSTORE PUSH1 0x20 ADD SWAP1 DUP2 MSTORE PUSH1 0x20 ADD PUSH1 0x0 KECCAK256 PUSH1 0x8 ADD PUSH1 0x2 PUSH2 0x100 EXP DUP2 SLOAD DUP2 PUSH1 0xFF MUL NOT AND SWAP1 DUP4 ISZERO ISZERO MUL OR SWAP1 SSTORE POP DUP1 SWAP4 POP POP POP POP SWAP5 SWAP4 POP POP POP POP JUMP JUMPDEST PUSH1 0x0 DUP1 PUSH1 0x0 SWAP1 SLOAD SWAP1 PUSH2 0x100 EXP SWAP1 DIV PUSH20 0xFFFFFFFFFFFFFFFFFFFFFFFFFFFFFFFFFFFFFFFF AND PUSH20 0xFFFFFFFFFFFFFFFFFFFFFFFFFFFFFFFFFFFFFFFF AND CALLER PUSH20 0xFFFFFFFFFFFFFFFFFFFFFFFFFFFFFFFFFFFFFFFF AND EQ PUSH2 0xF36 JUMPI PUSH1 0x40 MLOAD PUSH32 0x8C379A000000000000000000000000000000000000000000000000000000000 DUP2 MSTORE PUSH1 0x4 ADD PUSH2 0xF2D SWAP1 PUSH2 0x373B JUMP JUMPDEST PUSH1 0x40 MLOAD DUP1 SWAP2 SUB SWAP1 REVERT JUMPDEST PUSH1 0x1 SLOAD SWAP1 POP SWAP1 JUMP JUMPDEST PUSH1 0x0 DUP1 PUSH1 0x0 SWAP1 SLOAD SWAP1 PUSH2 0x100 EXP SWAP1 DIV PUSH20 0xFFFFFFFFFFFFFFFFFFFFFFFFFFFFFFFFFFFFFFFF AND PUSH20 0xFFFFFFFFFFFFFFFFFFFFFFFFFFFFFFFFFFFFFFFF AND CALLER PUSH20 0xFFFFFFFFFFFFFFFFFFFFFFFFFFFFFFFFFFFFFFFF AND EQ PUSH2 0xFCF JUMPI PUSH1 0x40 MLOAD PUSH32 0x8C379A000000000000000000000000000000000000000000000000000000000 DUP2 MSTORE PUSH1 0x4 ADD PUSH2 0xFC6 SWAP1 PUSH2 0x373B JUMP JUMPDEST PUSH1 0x40 MLOAD DUP1 SWAP2 SUB SWAP1 REVERT JUMPDEST PUSH2 0xFD8 DUP3 PUSH2 0x2A06 JUMP JUMPDEST PUSH2 0x1017 JUMPI PUSH1 0x40 MLOAD PUSH32 0x8C379A000000000000000000000000000000000000000000000000000000000 DUP2 MSTORE PUSH1 0x4 ADD PUSH2 0x100E SWAP1 PUSH2 0x377B JUMP JUMPDEST PUSH1 0x40 MLOAD DUP1 SWAP2 SUB SWAP1 REVERT JUMPDEST PUSH1 0x0 PUSH1 0x3 PUSH1 0x0 DUP5 DUP2 MSTORE PUSH1 0x20 ADD SWAP1 DUP2 MSTORE PUSH1 0x20 ADD PUSH1 0x0 KECCAK256 PUSH1 0x40 MLOAD DUP1 PUSH2 0x160 ADD PUSH1 0x40 MSTORE SWAP1 DUP2 PUSH1 0x0 DUP3 ADD DUP1 SLOAD PUSH2 0x1048 SWAP1 PUSH2 0x3A9C JUMP JUMPDEST DUP1 PUSH1 0x1F ADD PUSH1 0x20 DUP1 SWAP2 DIV MUL PUSH1 0x20 ADD PUSH1 0x40 MLOAD SWAP1 DUP2 ADD PUSH1 0x40 MSTORE DUP1 SWAP3 SWAP2 SWAP1 DUP2 DUP2 MSTORE PUSH1 0x20 ADD DUP3 DUP1 SLOAD PUSH2 0x1074 SWAP1 PUSH2 0x3A9C JUMP JUMPDEST DUP1 ISZERO PUSH2 0x10C1 JUMPI DUP1 PUSH1 0x1F LT PUSH2 0x1096 JUMPI PUSH2 0x100 DUP1 DUP4 SLOAD DIV MUL DUP4 MSTORE SWAP2 PUSH1 0x20 ADD SWAP2 PUSH2 0x10C1 JUMP JUMPDEST DUP3 ADD SWAP2 SWAP1 PUSH1 0x0 MSTORE PUSH1 0x20 PUSH1 0x0 KECCAK256 SWAP1 JUMPDEST DUP2 SLOAD DUP2 MSTORE SWAP1 PUSH1 0x1 ADD SWAP1 PUSH1 0x20 ADD DUP1 DUP4 GT PUSH2 0x10A4 JUMPI DUP3 SWAP1 SUB PUSH1 0x1F AND DUP3 ADD SWAP2 JUMPDEST POP POP POP POP POP DUP2 MSTORE PUSH1 0x20 ADD PUSH1 0x1 DUP3 ADD DUP1 SLOAD PUSH2 0x10DA SWAP1 PUSH2 0x3A9C JUMP JUMPDEST DUP1 PUSH1 0x1F ADD PUSH1 0x20 DUP1 SWAP2 DIV MUL PUSH1 0x20 ADD PUSH1 0x40 MLOAD SWAP1 DUP2 ADD PUSH1 0x40 MSTORE DUP1 SWAP3 SWAP2 SWAP1 DUP2 DUP2 MSTORE PUSH1 0x20 ADD DUP3 DUP1 SLOAD PUSH2 0x1106 SWAP1 PUSH2 0x3A9C JUMP JUMPDEST DUP1 ISZERO PUSH2 0x1153 JUMPI DUP1 PUSH1 0x1F LT PUSH2 0x1128 JUMPI PUSH2 0x100 DUP1 DUP4 SLOAD DIV MUL DUP4 MSTORE SWAP2 PUSH1 0x20 ADD SWAP2 PUSH2 0x1153 JUMP JUMPDEST DUP3 ADD SWAP2 SWAP1 PUSH1 0x0 MSTORE PUSH1 0x20 PUSH1 0x0 KECCAK256 SWAP1 JUMPDEST DUP2 SLOAD DUP2 MSTORE SWAP1 PUSH1 0x1 ADD SWAP1 PUSH1 0x20 ADD DUP1 DUP4 GT PUSH2 0x1136 JUMPI DUP3 SWAP1 SUB PUSH1 0x1F AND DUP3 ADD SWAP2 JUMPDEST POP POP POP POP POP DUP2 MSTORE PUSH1 0x20 ADD PUSH1 0x2 DUP3 ADD DUP1 SLOAD PUSH2 0x116C SWAP1 PUSH2 0x3A9C JUMP JUMPDEST DUP1 PUSH1 0x1F ADD PUSH1 0x20 DUP1 SWAP2 DIV MUL PUSH1 0x20 ADD PUSH1 0x40 MLOAD SWAP1 DUP2 ADD PUSH1 0x40 MSTORE DUP1 SWAP3 SWAP2 SWAP1 DUP2 DUP2 MSTORE PUSH1 0x20 ADD DUP3 DUP1 SLOAD PUSH2 0x1198 SWAP1 PUSH2 0x3A9C JUMP JUMPDEST DUP1 ISZERO PUSH2 0x11E5 JUMPI DUP1 PUSH1 0x1F LT PUSH2 0x11BA JUMPI PUSH2 0x100 DUP1 DUP4 SLOAD DIV MUL DUP4 MSTORE SWAP2 PUSH1 0x20 ADD SWAP2 PUSH2 0x11E5 JUMP JUMPDEST DUP3 ADD SWAP2 SWAP1 PUSH1 0x0 MSTORE PUSH1 0x20 PUSH1 0x0 KECCAK256 SWAP1 JUMPDEST DUP2 SLOAD DUP2 MSTORE SWAP1 PUSH1 0x1 ADD SWAP1 PUSH1 0x20 ADD DUP1 DUP4 GT PUSH2 0x11C8 JUMPI DUP3 SWAP1 SUB PUSH1 0x1F AND DUP3 ADD SWAP2 JUMPDEST POP POP POP POP POP DUP2 MSTORE PUSH1 0x20 ADD PUSH1 0x3 DUP3 ADD SLOAD DUP2 MSTORE PUSH1 0x20 ADD PUSH1 0x4 DUP3 ADD SLOAD DUP2 MSTORE PUSH1 0x20 ADD PUSH1 0x5 DUP3 ADD SLOAD DUP2 MSTORE PUSH1 0x20 ADD PUSH1 0x6 DUP3 ADD SLOAD DUP2 MSTORE PUSH1 0x20 ADD PUSH1 0x7 DUP3 ADD SLOAD DUP2 MSTORE PUSH1 0x20 ADD PUSH1 0x8 DUP3 ADD PUSH1 0x0 SWAP1 SLOAD SWAP1 PUSH2 0x100 EXP SWAP1 DIV PUSH1 0xFF AND ISZERO ISZERO ISZERO ISZERO DUP2 MSTORE PUSH1 0x20 ADD PUSH1 0x8 DUP3 ADD PUSH1 0x1 SWAP1 SLOAD SWAP1 PUSH2 0x100 EXP SWAP1 DIV PUSH1 0xFF AND ISZERO ISZERO ISZERO ISZERO DUP2 MSTORE PUSH1 0x20 ADD PUSH1 0x8 DUP3 ADD PUSH1 0x2 SWAP1 SLOAD SWAP1 PUSH2 0x100 EXP SWAP1 DIV PUSH1 0xFF AND ISZERO ISZERO ISZERO ISZERO DUP2 MSTORE POP POP SWAP1 POP PUSH1 0x0 PUSH2 0x12C9 PUSH1 0xA DUP4 PUSH1 0xE0 ADD MLOAD DUP5 PUSH1 0xC0 ADD MLOAD DUP6 PUSH1 0x80 ADD MLOAD DUP7 PUSH1 0xA0 ADD MLOAD DUP8 PUSH1 0x60 ADD MLOAD PUSH2 0x129D SWAP2 SWAP1 PUSH2 0x38F3 JUMP JUMPDEST PUSH2 0x12A7 SWAP2 SWAP1 PUSH2 0x38F3 JUMP JUMPDEST PUSH2 0x12B1 SWAP2 SWAP1 PUSH2 0x38F3 JUMP JUMPDEST PUSH2 0x12BB SWAP2 SWAP1 PUSH2 0x38F3 JUMP JUMPDEST PUSH2 0x2A33 SWAP1 SWAP2 SWAP1 PUSH4 0xFFFFFFFF AND JUMP JUMPDEST SWAP1 POP DUP1 SWAP3 POP POP POP SWAP2 SWAP1 POP JUMP JUMPDEST PUSH1 0x0 PUSH2 0x12E0 DUP6 PUSH2 0x2A06 JUMP JUMPDEST PUSH2 0x131F JUMPI PUSH1 0x40 MLOAD PUSH32 0x8C379A000000000000000000000000000000000000000000000000000000000 DUP2 MSTORE PUSH1 0x4 ADD PUSH2 0x1316 SWAP1 PUSH2 0x377B JUMP JUMPDEST PUSH1 0x40 MLOAD DUP1 SWAP2 SUB SWAP1 REVERT JUMPDEST DUP6 PUSH1 0x2 PUSH1 0x0 DUP10 PUSH20 0xFFFFFFFFFFFFFFFFFFFFFFFFFFFFFFFFFFFFFFFF AND PUSH20 0xFFFFFFFFFFFFFFFFFFFFFFFFFFFFFFFFFFFFFFFF AND DUP2 MSTORE PUSH1 0x20 ADD SWAP1 DUP2 MSTORE PUSH1 0x20 ADD PUSH1 0x0 KECCAK256 SLOAD LT ISZERO PUSH2 0x13A1 JUMPI PUSH1 0x40 MLOAD PUSH32 0x8C379A000000000000000000000000000000000000000000000000000000000 DUP2 MSTORE PUSH1 0x4 ADD PUSH2 0x1398 SWAP1 PUSH2 0x37FB JUMP JUMPDEST PUSH1 0x40 MLOAD DUP1 SWAP2 SUB SWAP1 REVERT JUMPDEST PUSH1 0x0 PUSH1 0x3 PUSH1 0x0 DUP8 DUP2 MSTORE PUSH1 0x20 ADD SWAP1 DUP2 MSTORE PUSH1 0x20 ADD PUSH1 0x0 KECCAK256 PUSH1 0x40 MLOAD DUP1 PUSH2 0x160 ADD PUSH1 0x40 MSTORE SWAP1 DUP2 PUSH1 0x0 DUP3 ADD DUP1 SLOAD PUSH2 0x13D2 SWAP1 PUSH2 0x3A9C JUMP JUMPDEST DUP1 PUSH1 0x1F ADD PUSH1 0x20 DUP1 SWAP2 DIV MUL PUSH1 0x20 ADD PUSH1 0x40 MLOAD SWAP1 DUP2 ADD PUSH1 0x40 MSTORE DUP1 SWAP3 SWAP2 SWAP1 DUP2 DUP2 MSTORE PUSH1 0x20 ADD DUP3 DUP1 SLOAD PUSH2 0x13FE SWAP1 PUSH2 0x3A9C JUMP JUMPDEST DUP1 ISZERO PUSH2 0x144B JUMPI DUP1 PUSH1 0x1F LT PUSH2 0x1420 JUMPI PUSH2 0x100 DUP1 DUP4 SLOAD DIV MUL DUP4 MSTORE SWAP2 PUSH1 0x20 ADD SWAP2 PUSH2 0x144B JUMP JUMPDEST DUP3 ADD SWAP2 SWAP1 PUSH1 0x0 MSTORE PUSH1 0x20 PUSH1 0x0 KECCAK256 SWAP1 JUMPDEST DUP2 SLOAD DUP2 MSTORE SWAP1 PUSH1 0x1 ADD SWAP1 PUSH1 0x20 ADD DUP1 DUP4 GT PUSH2 0x142E JUMPI DUP3 SWAP1 SUB PUSH1 0x1F AND DUP3 ADD SWAP2 JUMPDEST POP POP POP POP POP DUP2 MSTORE PUSH1 0x20 ADD PUSH1 0x1 DUP3 ADD DUP1 SLOAD PUSH2 0x1464 SWAP1 PUSH2 0x3A9C JUMP JUMPDEST DUP1 PUSH1 0x1F ADD PUSH1 0x20 DUP1 SWAP2 DIV MUL PUSH1 0x20 ADD PUSH1 0x40 MLOAD SWAP1 DUP2 ADD PUSH1 0x40 MSTORE DUP1 SWAP3 SWAP2 SWAP1 DUP2 DUP2 MSTORE PUSH1 0x20 ADD DUP3 DUP1 SLOAD PUSH2 0x1490 SWAP1 PUSH2 0x3A9C JUMP JUMPDEST DUP1 ISZERO PUSH2 0x14DD JUMPI DUP1 PUSH1 0x1F LT PUSH2 0x14B2 JUMPI PUSH2 0x100 DUP1 DUP4 SLOAD DIV MUL DUP4 MSTORE SWAP2 PUSH1 0x20 ADD SWAP2 PUSH2 0x14DD JUMP JUMPDEST DUP3 ADD SWAP2 SWAP1 PUSH1 0x0 MSTORE PUSH1 0x20 PUSH1 0x0 KECCAK256 SWAP1 JUMPDEST DUP2 SLOAD DUP2 MSTORE SWAP1 PUSH1 0x1 ADD SWAP1 PUSH1 0x20 ADD DUP1 DUP4 GT PUSH2 0x14C0 JUMPI DUP3 SWAP1 SUB PUSH1 0x1F AND DUP3 ADD SWAP2 JUMPDEST POP POP POP POP POP DUP2 MSTORE PUSH1 0x20 ADD PUSH1 0x2 DUP3 ADD DUP1 SLOAD PUSH2 0x14F6 SWAP1 PUSH2 0x3A9C JUMP JUMPDEST DUP1 PUSH1 0x1F ADD PUSH1 0x20 DUP1 SWAP2 DIV MUL PUSH1 0x20 ADD PUSH1 0x40 MLOAD SWAP1 DUP2 ADD PUSH1 0x40 MSTORE DUP1 SWAP3 SWAP2 SWAP1 DUP2 DUP2 MSTORE PUSH1 0x20 ADD DUP3 DUP1 SLOAD PUSH2 0x1522 SWAP1 PUSH2 0x3A9C JUMP JUMPDEST DUP1 ISZERO PUSH2 0x156F JUMPI DUP1 PUSH1 0x1F LT PUSH2 0x1544 JUMPI PUSH2 0x100 DUP1 DUP4 SLOAD DIV MUL DUP4 MSTORE SWAP2 PUSH1 0x20 ADD SWAP2 PUSH2 0x156F JUMP JUMPDEST DUP3 ADD SWAP2 SWAP1 PUSH1 0x0 MSTORE PUSH1 0x20 PUSH1 0x0 KECCAK256 SWAP1 JUMPDEST DUP2 SLOAD DUP2 MSTORE SWAP1 PUSH1 0x1 ADD SWAP1 PUSH1 0x20 ADD DUP1 DUP4 GT PUSH2 0x1552 JUMPI DUP3 SWAP1 SUB PUSH1 0x1F AND DUP3 ADD SWAP2 JUMPDEST POP POP POP POP POP DUP2 MSTORE PUSH1 0x20 ADD PUSH1 0x3 DUP3 ADD SLOAD DUP2 MSTORE PUSH1 0x20 ADD PUSH1 0x4 DUP3 ADD SLOAD DUP2 MSTORE PUSH1 0x20 ADD PUSH1 0x5 DUP3 ADD SLOAD DUP2 MSTORE PUSH1 0x20 ADD PUSH1 0x6 DUP3 ADD SLOAD DUP2 MSTORE PUSH1 0x20 ADD PUSH1 0x7 DUP3 ADD SLOAD DUP2 MSTORE PUSH1 0x20 ADD PUSH1 0x8 DUP3 ADD PUSH1 0x0 SWAP1 SLOAD SWAP1 PUSH2 0x100 EXP SWAP1 DIV PUSH1 0xFF AND ISZERO ISZERO ISZERO ISZERO DUP2 MSTORE PUSH1 0x20 ADD PUSH1 0x8 DUP3 ADD PUSH1 0x1 SWAP1 SLOAD SWAP1 PUSH2 0x100 EXP SWAP1 DIV PUSH1 0xFF AND ISZERO ISZERO ISZERO ISZERO DUP2 MSTORE PUSH1 0x20 ADD PUSH1 0x8 DUP3 ADD PUSH1 0x2 SWAP1 SLOAD SWAP1 PUSH2 0x100 EXP SWAP1 DIV PUSH1 0xFF AND ISZERO ISZERO ISZERO ISZERO DUP2 MSTORE POP POP SWAP1 POP PUSH1 0x0 PUSH2 0x1619 PUSH2 0x160B DUP8 PUSH2 0x2BF1 JUMP JUMPDEST PUSH2 0x1614 DUP8 PUSH2 0x2BF1 JUMP JUMPDEST PUSH2 0x2A5B JUMP JUMPDEST SWAP1 POP PUSH1 0x0 PUSH2 0x162F PUSH2 0x1629 DUP10 PUSH2 0x2C22 JUMP JUMPDEST DUP4 PUSH2 0x2A5B JUMP JUMPDEST SWAP1 POP PUSH1 0x0 PUSH1 0x40 MLOAD DUP1 PUSH1 0xE0 ADD PUSH1 0x40 MSTORE DUP1 DUP12 DUP2 MSTORE PUSH1 0x20 ADD DUP8 DUP2 MSTORE PUSH1 0x20 ADD DUP10 DUP2 MSTORE PUSH1 0x20 ADD DUP9 DUP2 MSTORE PUSH1 0x20 ADD DUP13 PUSH20 0xFFFFFFFFFFFFFFFFFFFFFFFFFFFFFFFFFFFFFFFF AND DUP2 MSTORE PUSH1 0x20 ADD DUP4 DUP2 MSTORE PUSH1 0x20 ADD PUSH1 0x0 ISZERO ISZERO DUP2 MSTORE POP SWAP1 POP DUP9 PUSH1 0x4 PUSH1 0x0 DUP12 DUP2 MSTORE PUSH1 0x20 ADD SWAP1 DUP2 MSTORE PUSH1 0x20 ADD PUSH1 0x0 KECCAK256 PUSH1 0x1 ADD DUP2 SWAP1 SSTORE POP PUSH1 0x4 PUSH1 0x0 DUP11 DUP2 MSTORE PUSH1 0x20 ADD SWAP1 DUP2 MSTORE PUSH1 0x20 ADD PUSH1 0x0 KECCAK256 PUSH1 0x0 ADD DUP2 SWAP1 DUP1 PUSH1 0x1 DUP2 SLOAD ADD DUP1 DUP3 SSTORE DUP1 SWAP2 POP POP PUSH1 0x1 SWAP1 SUB SWAP1 PUSH1 0x0 MSTORE PUSH1 0x20 PUSH1 0x0 KECCAK256 SWAP1 PUSH1 0x7 MUL ADD PUSH1 0x0 SWAP1 SWAP2 SWAP1 SWAP2 SWAP1 SWAP2 POP PUSH1 0x0 DUP3 ADD MLOAD DUP2 PUSH1 0x0 ADD SSTORE PUSH1 0x20 DUP3 ADD MLOAD DUP2 PUSH1 0x1 ADD SSTORE PUSH1 0x40 DUP3 ADD MLOAD DUP2 PUSH1 0x2 ADD SSTORE PUSH1 0x60 DUP3 ADD MLOAD DUP2 PUSH1 0x3 ADD SSTORE PUSH1 0x80 DUP3 ADD MLOAD DUP2 PUSH1 0x4 ADD PUSH1 0x0 PUSH2 0x100 EXP DUP2 SLOAD DUP2 PUSH20 0xFFFFFFFFFFFFFFFFFFFFFFFFFFFFFFFFFFFFFFFF MUL NOT AND SWAP1 DUP4 PUSH20 0xFFFFFFFFFFFFFFFFFFFFFFFFFFFFFFFFFFFFFFFF AND MUL OR SWAP1 SSTORE POP PUSH1 0xA0 DUP3 ADD MLOAD DUP2 PUSH1 0x5 ADD SWAP1 DUP1 MLOAD SWAP1 PUSH1 0x20 ADD SWAP1 PUSH2 0x1767 SWAP3 SWAP2 SWAP1 PUSH2 0x2F92 JUMP JUMPDEST POP PUSH1 0xC0 DUP3 ADD MLOAD DUP2 PUSH1 0x6 ADD PUSH1 0x0 PUSH2 0x100 EXP DUP2 SLOAD DUP2 PUSH1 0xFF MUL NOT AND SWAP1 DUP4 ISZERO ISZERO MUL OR SWAP1 SSTORE POP POP POP DUP11 PUSH1 0x6 PUSH1 0x0 DUP14 PUSH20 0xFFFFFFFFFFFFFFFFFFFFFFFFFFFFFFFFFFFFFFFF AND PUSH20 0xFFFFFFFFFFFFFFFFFFFFFFFFFFFFFFFFFFFFFFFF AND DUP2 MSTORE PUSH1 0x20 ADD SWAP1 DUP2 MSTORE PUSH1 0x20 ADD PUSH1 0x0 KECCAK256 PUSH1 0x1 ADD PUSH1 0x0 PUSH2 0x100 EXP DUP2 SLOAD DUP2 PUSH20 0xFFFFFFFFFFFFFFFFFFFFFFFFFFFFFFFFFFFFFFFF MUL NOT AND SWAP1 DUP4 PUSH20 0xFFFFFFFFFFFFFFFFFFFFFFFFFFFFFFFFFFFFFFFF AND MUL OR SWAP1 SSTORE POP PUSH1 0x4 PUSH1 0x0 DUP11 DUP2 MSTORE PUSH1 0x20 ADD SWAP1 DUP2 MSTORE PUSH1 0x20 ADD PUSH1 0x0 KECCAK256 PUSH1 0x0 ADD DUP2 SWAP1 DUP1 PUSH1 0x1 DUP2 SLOAD ADD DUP1 DUP3 SSTORE DUP1 SWAP2 POP POP PUSH1 0x1 SWAP1 SUB SWAP1 PUSH1 0x0 MSTORE PUSH1 0x20 PUSH1 0x0 KECCAK256 SWAP1 PUSH1 0x7 MUL ADD PUSH1 0x0 SWAP1 SWAP2 SWAP1 SWAP2 SWAP1 SWAP2 POP PUSH1 0x0 DUP3 ADD MLOAD DUP2 PUSH1 0x0 ADD SSTORE PUSH1 0x20 DUP3 ADD MLOAD DUP2 PUSH1 0x1 ADD SSTORE PUSH1 0x40 DUP3 ADD MLOAD DUP2 PUSH1 0x2 ADD SSTORE PUSH1 0x60 DUP3 ADD MLOAD DUP2 PUSH1 0x3 ADD SSTORE PUSH1 0x80 DUP3 ADD MLOAD DUP2 PUSH1 0x4 ADD PUSH1 0x0 PUSH2 0x100 EXP DUP2 SLOAD DUP2 PUSH20 0xFFFFFFFFFFFFFFFFFFFFFFFFFFFFFFFFFFFFFFFF MUL NOT AND SWAP1 DUP4 PUSH20 0xFFFFFFFFFFFFFFFFFFFFFFFFFFFFFFFFFFFFFFFF AND MUL OR SWAP1 SSTORE POP PUSH1 0xA0 DUP3 ADD MLOAD DUP2 PUSH1 0x5 ADD SWAP1 DUP1 MLOAD SWAP1 PUSH1 0x20 ADD SWAP1 PUSH2 0x18D6 SWAP3 SWAP2 SWAP1 PUSH2 0x2F92 JUMP JUMPDEST POP PUSH1 0xC0 DUP3 ADD MLOAD DUP2 PUSH1 0x6 ADD PUSH1 0x0 PUSH2 0x100 EXP DUP2 SLOAD DUP2 PUSH1 0xFF MUL NOT AND SWAP1 DUP4 ISZERO ISZERO MUL OR SWAP1 SSTORE POP POP POP PUSH1 0x2 DUP7 EQ ISZERO PUSH2 0x1955 JUMPI DUP10 DUP5 PUSH1 0xC0 ADD DUP2 DUP2 MLOAD PUSH2 0x1914 SWAP2 SWAP1 PUSH2 0x38F3 JUMP JUMPDEST SWAP2 POP DUP2 DUP2 MSTORE POP POP DUP10 PUSH1 0x5 DUP4 PUSH1 0x40 MLOAD PUSH2 0x192C SWAP2 SWAP1 PUSH2 0x3665 JUMP JUMPDEST SWAP1 DUP2 MSTORE PUSH1 0x20 ADD PUSH1 0x40 MLOAD DUP1 SWAP2 SUB SWAP1 KECCAK256 PUSH1 0x0 DUP3 DUP3 SLOAD PUSH2 0x1949 SWAP2 SWAP1 PUSH2 0x38F3 JUMP JUMPDEST SWAP3 POP POP DUP2 SWAP1 SSTORE POP PUSH2 0x19BF JUMP JUMPDEST PUSH1 0x3 DUP7 EQ ISZERO PUSH2 0x197C JUMPI DUP10 DUP5 PUSH1 0x60 ADD DUP2 DUP2 MLOAD PUSH2 0x1970 SWAP2 SWAP1 PUSH2 0x38F3 JUMP JUMPDEST SWAP2 POP DUP2 DUP2 MSTORE POP POP PUSH2 0x19BE JUMP JUMPDEST PUSH1 0x1 DUP7 EQ ISZERO PUSH2 0x19A3 JUMPI DUP10 DUP5 PUSH1 0x80 ADD DUP2 DUP2 MLOAD PUSH2 0x1997 SWAP2 SWAP1 PUSH2 0x38F3 JUMP JUMPDEST SWAP2 POP DUP2 DUP2 MSTORE POP POP PUSH2 0x19BD JUMP JUMPDEST DUP10 DUP5 PUSH1 0xA0 ADD DUP2 DUP2 MLOAD PUSH2 0x19B5 SWAP2 SWAP1 PUSH2 0x38F3 JUMP JUMPDEST SWAP2 POP DUP2 DUP2 MSTORE POP POP JUMPDEST JUMPDEST JUMPDEST DUP10 PUSH1 0x2 PUSH1 0x0 DUP14 PUSH20 0xFFFFFFFFFFFFFFFFFFFFFFFFFFFFFFFFFFFFFFFF AND PUSH20 0xFFFFFFFFFFFFFFFFFFFFFFFFFFFFFFFFFFFFFFFF AND DUP2 MSTORE PUSH1 0x20 ADD SWAP1 DUP2 MSTORE PUSH1 0x20 ADD PUSH1 0x0 KECCAK256 PUSH1 0x0 DUP3 DUP3 SLOAD PUSH2 0x1A0E SWAP2 SWAP1 PUSH2 0x39D4 JUMP JUMPDEST SWAP3 POP POP DUP2 SWAP1 SSTORE POP POP POP POP POP PUSH1 0x1 SWAP1 POP SWAP7 SWAP6 POP POP POP POP POP POP JUMP JUMPDEST PUSH1 0x0 DUP1 PUSH1 0x0 SWAP1 SLOAD SWAP1 PUSH2 0x100 EXP SWAP1 DIV PUSH20 0xFFFFFFFFFFFFFFFFFFFFFFFFFFFFFFFFFFFFFFFF AND PUSH20 0xFFFFFFFFFFFFFFFFFFFFFFFFFFFFFFFFFFFFFFFF AND CALLER PUSH20 0xFFFFFFFFFFFFFFFFFFFFFFFFFFFFFFFFFFFFFFFF AND EQ PUSH2 0x1AB8 JUMPI PUSH1 0x40 MLOAD PUSH32 0x8C379A000000000000000000000000000000000000000000000000000000000 DUP2 MSTORE PUSH1 0x4 ADD PUSH2 0x1AAF SWAP1 PUSH2 0x373B JUMP JUMPDEST PUSH1 0x40 MLOAD DUP1 SWAP2 SUB SWAP1 REVERT JUMPDEST PUSH2 0x1AC1 DUP6 PUSH2 0x2A06 JUMP JUMPDEST PUSH2 0x1B00 JUMPI PUSH1 0x40 MLOAD PUSH32 0x8C379A000000000000000000000000000000000000000000000000000000000 DUP2 MSTORE PUSH1 0x4 ADD PUSH2 0x1AF7 SWAP1 PUSH2 0x377B JUMP JUMPDEST PUSH1 0x40 MLOAD DUP1 SWAP2 SUB SWAP1 REVERT JUMPDEST PUSH1 0x0 PUSH1 0x3 PUSH1 0x0 DUP8 DUP2 MSTORE PUSH1 0x20 ADD SWAP1 DUP2 MSTORE PUSH1 0x20 ADD PUSH1 0x0 KECCAK256 PUSH1 0x40 MLOAD DUP1 PUSH2 0x160 ADD PUSH1 0x40 MSTORE SWAP1 DUP2 PUSH1 0x0 DUP3 ADD DUP1 SLOAD PUSH2 0x1B31 SWAP1 PUSH2 0x3A9C JUMP JUMPDEST DUP1 PUSH1 0x1F ADD PUSH1 0x20 DUP1 SWAP2 DIV MUL PUSH1 0x20 ADD PUSH1 0x40 MLOAD SWAP1 DUP2 ADD PUSH1 0x40 MSTORE DUP1 SWAP3 SWAP2 SWAP1 DUP2 DUP2 MSTORE PUSH1 0x20 ADD DUP3 DUP1 SLOAD PUSH2 0x1B5D SWAP1 PUSH2 0x3A9C JUMP JUMPDEST DUP1 ISZERO PUSH2 0x1BAA JUMPI DUP1 PUSH1 0x1F LT PUSH2 0x1B7F JUMPI PUSH2 0x100 DUP1 DUP4 SLOAD DIV MUL DUP4 MSTORE SWAP2 PUSH1 0x20 ADD SWAP2 PUSH2 0x1BAA JUMP JUMPDEST DUP3 ADD SWAP2 SWAP1 PUSH1 0x0 MSTORE PUSH1 0x20 PUSH1 0x0 KECCAK256 SWAP1 JUMPDEST DUP2 SLOAD DUP2 MSTORE SWAP1 PUSH1 0x1 ADD SWAP1 PUSH1 0x20 ADD DUP1 DUP4 GT PUSH2 0x1B8D JUMPI DUP3 SWAP1 SUB PUSH1 0x1F AND DUP3 ADD SWAP2 JUMPDEST POP POP POP POP POP DUP2 MSTORE PUSH1 0x20 ADD PUSH1 0x1 DUP3 ADD DUP1 SLOAD PUSH2 0x1BC3 SWAP1 PUSH2 0x3A9C JUMP JUMPDEST DUP1 PUSH1 0x1F ADD PUSH1 0x20 DUP1 SWAP2 DIV MUL PUSH1 0x20 ADD PUSH1 0x40 MLOAD SWAP1 DUP2 ADD PUSH1 0x40 MSTORE DUP1 SWAP3 SWAP2 SWAP1 DUP2 DUP2 MSTORE PUSH1 0x20 ADD DUP3 DUP1 SLOAD PUSH2 0x1BEF SWAP1 PUSH2 0x3A9C JUMP JUMPDEST DUP1 ISZERO PUSH2 0x1C3C JUMPI DUP1 PUSH1 0x1F LT PUSH2 0x1C11 JUMPI PUSH2 0x100 DUP1 DUP4 SLOAD DIV MUL DUP4 MSTORE SWAP2 PUSH1 0x20 ADD SWAP2 PUSH2 0x1C3C JUMP JUMPDEST DUP3 ADD SWAP2 SWAP1 PUSH1 0x0 MSTORE PUSH1 0x20 PUSH1 0x0 KECCAK256 SWAP1 JUMPDEST DUP2 SLOAD DUP2 MSTORE SWAP1 PUSH1 0x1 ADD SWAP1 PUSH1 0x20 ADD DUP1 DUP4 GT PUSH2 0x1C1F JUMPI DUP3 SWAP1 SUB PUSH1 0x1F AND DUP3 ADD SWAP2 JUMPDEST POP POP POP POP POP DUP2 MSTORE PUSH1 0x20 ADD PUSH1 0x2 DUP3 ADD DUP1 SLOAD PUSH2 0x1C55 SWAP1 PUSH2 0x3A9C JUMP JUMPDEST DUP1 PUSH1 0x1F ADD PUSH1 0x20 DUP1 SWAP2 DIV MUL PUSH1 0x20 ADD PUSH1 0x40 MLOAD SWAP1 DUP2 ADD PUSH1 0x40 MSTORE DUP1 SWAP3 SWAP2 SWAP1 DUP2 DUP2 MSTORE PUSH1 0x20 ADD DUP3 DUP1 SLOAD PUSH2 0x1C81 SWAP1 PUSH2 0x3A9C JUMP JUMPDEST DUP1 ISZERO PUSH2 0x1CCE JUMPI DUP1 PUSH1 0x1F LT PUSH2 0x1CA3 JUMPI PUSH2 0x100 DUP1 DUP4 SLOAD DIV MUL DUP4 MSTORE SWAP2 PUSH1 0x20 ADD SWAP2 PUSH2 0x1CCE JUMP JUMPDEST DUP3 ADD SWAP2 SWAP1 PUSH1 0x0 MSTORE PUSH1 0x20 PUSH1 0x0 KECCAK256 SWAP1 JUMPDEST DUP2 SLOAD DUP2 MSTORE SWAP1 PUSH1 0x1 ADD SWAP1 PUSH1 0x20 ADD DUP1 DUP4 GT PUSH2 0x1CB1 JUMPI DUP3 SWAP1 SUB PUSH1 0x1F AND DUP3 ADD SWAP2 JUMPDEST POP POP POP POP POP DUP2 MSTORE PUSH1 0x20 ADD PUSH1 0x3 DUP3 ADD SLOAD DUP2 MSTORE PUSH1 0x20 ADD PUSH1 0x4 DUP3 ADD SLOAD DUP2 MSTORE PUSH1 0x20 ADD PUSH1 0x5 DUP3 ADD SLOAD DUP2 MSTORE PUSH1 0x20 ADD PUSH1 0x6 DUP3 ADD SLOAD DUP2 MSTORE PUSH1 0x20 ADD PUSH1 0x7 DUP3 ADD SLOAD DUP2 MSTORE PUSH1 0x20 ADD PUSH1 0x8 DUP3 ADD PUSH1 0x0 SWAP1 SLOAD SWAP1 PUSH2 0x100 EXP SWAP1 DIV PUSH1 0xFF AND ISZERO ISZERO ISZERO ISZERO DUP2 MSTORE PUSH1 0x20 ADD PUSH1 0x8 DUP3 ADD PUSH1 0x1 SWAP1 SLOAD SWAP1 PUSH2 0x100 EXP SWAP1 DIV PUSH1 0xFF AND ISZERO ISZERO ISZERO ISZERO DUP2 MSTORE PUSH1 0x20 ADD PUSH1 0x8 DUP3 ADD PUSH1 0x2 SWAP1 SLOAD SWAP1 PUSH2 0x100 EXP SWAP1 DIV PUSH1 0xFF AND ISZERO ISZERO ISZERO ISZERO DUP2 MSTORE POP POP SWAP1 POP PUSH1 0x1 DUP2 PUSH2 0x140 ADD SWAP1 ISZERO ISZERO SWAP1 DUP2 ISZERO ISZERO DUP2 MSTORE POP ISZERO PUSH2 0x1DAD JUMPI PUSH1 0x40 MLOAD PUSH32 0x8C379A000000000000000000000000000000000000000000000000000000000 DUP2 MSTORE PUSH1 0x4 ADD PUSH2 0x1DA4 SWAP1 PUSH2 0x383B JUMP JUMPDEST PUSH1 0x40 MLOAD DUP1 SWAP2 SUB SWAP1 REVERT JUMPDEST PUSH1 0x0 PUSH1 0x4 PUSH1 0x0 DUP9 DUP2 MSTORE PUSH1 0x20 ADD SWAP1 DUP2 MSTORE PUSH1 0x20 ADD PUSH1 0x0 KECCAK256 PUSH1 0x0 ADD DUP1 SLOAD DUP1 PUSH1 0x20 MUL PUSH1 0x20 ADD PUSH1 0x40 MLOAD SWAP1 DUP2 ADD PUSH1 0x40 MSTORE DUP1 SWAP3 SWAP2 SWAP1 DUP2 DUP2 MSTORE PUSH1 0x20 ADD PUSH1 0x0 SWAP1 JUMPDEST DUP3 DUP3 LT ISZERO PUSH2 0x1F42 JUMPI DUP4 DUP3 SWAP1 PUSH1 0x0 MSTORE PUSH1 0x20 PUSH1 0x0 KECCAK256 SWAP1 PUSH1 0x7 MUL ADD PUSH1 0x40 MLOAD DUP1 PUSH1 0xE0 ADD PUSH1 0x40 MSTORE SWAP1 DUP2 PUSH1 0x0 DUP3 ADD SLOAD DUP2 MSTORE PUSH1 0x20 ADD PUSH1 0x1 DUP3 ADD SLOAD DUP2 MSTORE PUSH1 0x20 ADD PUSH1 0x2 DUP3 ADD SLOAD DUP2 MSTORE PUSH1 0x20 ADD PUSH1 0x3 DUP3 ADD SLOAD DUP2 MSTORE PUSH1 0x20 ADD PUSH1 0x4 DUP3 ADD PUSH1 0x0 SWAP1 SLOAD SWAP1 PUSH2 0x100 EXP SWAP1 DIV PUSH20 0xFFFFFFFFFFFFFFFFFFFFFFFFFFFFFFFFFFFFFFFF AND PUSH20 0xFFFFFFFFFFFFFFFFFFFFFFFFFFFFFFFFFFFFFFFF AND PUSH20 0xFFFFFFFFFFFFFFFFFFFFFFFFFFFFFFFFFFFFFFFF AND DUP2 MSTORE PUSH1 0x20 ADD PUSH1 0x5 DUP3 ADD DUP1 SLOAD PUSH2 0x1E96 SWAP1 PUSH2 0x3A9C JUMP JUMPDEST DUP1 PUSH1 0x1F ADD PUSH1 0x20 DUP1 SWAP2 DIV MUL PUSH1 0x20 ADD PUSH1 0x40 MLOAD SWAP1 DUP2 ADD PUSH1 0x40 MSTORE DUP1 SWAP3 SWAP2 SWAP1 DUP2 DUP2 MSTORE PUSH1 0x20 ADD DUP3 DUP1 SLOAD PUSH2 0x1EC2 SWAP1 PUSH2 0x3A9C JUMP JUMPDEST DUP1 ISZERO PUSH2 0x1F0F JUMPI DUP1 PUSH1 0x1F LT PUSH2 0x1EE4 JUMPI PUSH2 0x100 DUP1 DUP4 SLOAD DIV MUL DUP4 MSTORE SWAP2 PUSH1 0x20 ADD SWAP2 PUSH2 0x1F0F JUMP JUMPDEST DUP3 ADD SWAP2 SWAP1 PUSH1 0x0 MSTORE PUSH1 0x20 PUSH1 0x0 KECCAK256 SWAP1 JUMPDEST DUP2 SLOAD DUP2 MSTORE SWAP1 PUSH1 0x1 ADD SWAP1 PUSH1 0x20 ADD DUP1 DUP4 GT PUSH2 0x1EF2 JUMPI DUP3 SWAP1 SUB PUSH1 0x1F AND DUP3 ADD SWAP2 JUMPDEST POP POP POP POP POP DUP2 MSTORE PUSH1 0x20 ADD PUSH1 0x6 DUP3 ADD PUSH1 0x0 SWAP1 SLOAD SWAP1 PUSH2 0x100 EXP SWAP1 DIV PUSH1 0xFF AND ISZERO ISZERO ISZERO ISZERO DUP2 MSTORE POP POP DUP2 MSTORE PUSH1 0x20 ADD SWAP1 PUSH1 0x1 ADD SWAP1 PUSH2 0x1DE5 JUMP JUMPDEST POP POP POP POP SWAP1 POP PUSH1 0x0 PUSH2 0x1FB1 PUSH1 0x14 PUSH2 0x1F67 PUSH1 0x2 DUP7 PUSH1 0xE0 ADD MLOAD PUSH2 0x2A33 SWAP1 SWAP2 SWAP1 PUSH4 0xFFFFFFFF AND JUMP JUMPDEST DUP6 PUSH1 0x80 ADD MLOAD DUP7 PUSH1 0xA0 ADD MLOAD DUP8 PUSH1 0x60 ADD MLOAD DUP9 PUSH1 0xC0 ADD MLOAD PUSH2 0x1F85 SWAP2 SWAP1 PUSH2 0x38F3 JUMP JUMPDEST PUSH2 0x1F8F SWAP2 SWAP1 PUSH2 0x38F3 JUMP JUMPDEST PUSH2 0x1F99 SWAP2 SWAP1 PUSH2 0x38F3 JUMP JUMPDEST PUSH2 0x1FA3 SWAP2 SWAP1 PUSH2 0x38F3 JUMP JUMPDEST PUSH2 0x2A33 SWAP1 SWAP2 SWAP1 PUSH4 0xFFFFFFFF AND JUMP JUMPDEST PUSH1 0x1 PUSH1 0x0 DUP3 DUP3 SLOAD PUSH2 0x1FC2 SWAP2 SWAP1 PUSH2 0x38F3 JUMP JUMPDEST SWAP3 POP POP DUP2 SWAP1 SSTORE POP PUSH1 0x0 JUMPDEST PUSH1 0x1 DUP4 MLOAD PUSH2 0x1FDA SWAP2 SWAP1 PUSH2 0x39D4 JUMP JUMPDEST DUP2 GT PUSH2 0x2478 JUMPI PUSH1 0x0 DUP4 DUP3 DUP2 MLOAD DUP2 LT PUSH2 0x1FF5 JUMPI PUSH2 0x1FF4 PUSH2 0x3BE9 JUMP JUMPDEST JUMPDEST PUSH1 0x20 MUL PUSH1 0x20 ADD ADD MLOAD PUSH1 0xC0 ADD SWAP1 ISZERO ISZERO SWAP1 DUP2 ISZERO ISZERO DUP2 MSTORE POP ISZERO PUSH2 0x2465 JUMPI PUSH1 0x2 DUP4 DUP3 DUP2 MLOAD DUP2 LT PUSH2 0x2024 JUMPI PUSH2 0x2023 PUSH2 0x3BE9 JUMP JUMPDEST JUMPDEST PUSH1 0x20 MUL PUSH1 0x20 ADD ADD MLOAD PUSH1 0x20 ADD MLOAD EQ ISZERO PUSH2 0x21F5 JUMPI PUSH2 0x2083 PUSH1 0x64 PUSH2 0x2075 PUSH1 0x55 PUSH2 0x2058 PUSH1 0x2 DUP10 PUSH1 0xE0 ADD MLOAD PUSH2 0x2A33 SWAP1 SWAP2 SWAP1 PUSH4 0xFFFFFFFF AND JUMP JUMPDEST DUP9 PUSH1 0xC0 ADD MLOAD PUSH2 0x2067 SWAP2 SWAP1 PUSH2 0x38F3 JUMP JUMPDEST PUSH2 0x2C53 SWAP1 SWAP2 SWAP1 PUSH4 0xFFFFFFFF AND JUMP JUMPDEST PUSH2 0x2A33 SWAP1 SWAP2 SWAP1 PUSH4 0xFFFFFFFF AND JUMP JUMPDEST SWAP2 POP DUP8 DUP4 DUP3 DUP2 MLOAD DUP2 LT PUSH2 0x2099 JUMPI PUSH2 0x2098 PUSH2 0x3BE9 JUMP JUMPDEST JUMPDEST PUSH1 0x20 MUL PUSH1 0x20 ADD ADD MLOAD PUSH1 0x40 ADD MLOAD EQ DUP1 ISZERO PUSH2 0x20CF JUMPI POP DUP7 DUP4 DUP3 DUP2 MLOAD DUP2 LT PUSH2 0x20C1 JUMPI PUSH2 0x20C0 PUSH2 0x3BE9 JUMP JUMPDEST JUMPDEST PUSH1 0x20 MUL PUSH1 0x20 ADD ADD MLOAD PUSH1 0x60 ADD MLOAD EQ JUMPDEST ISZERO PUSH2 0x21F0 JUMPI PUSH1 0x0 PUSH1 0x5 DUP5 DUP4 DUP2 MLOAD DUP2 LT PUSH2 0x20EB JUMPI PUSH2 0x20EA PUSH2 0x3BE9 JUMP JUMPDEST JUMPDEST PUSH1 0x20 MUL PUSH1 0x20 ADD ADD MLOAD PUSH1 0xA0 ADD MLOAD PUSH1 0x40 MLOAD PUSH2 0x2104 SWAP2 SWAP1 PUSH2 0x3665 JUMP JUMPDEST SWAP1 DUP2 MSTORE PUSH1 0x20 ADD PUSH1 0x40 MLOAD DUP1 SWAP2 SUB SWAP1 KECCAK256 SLOAD SWAP1 POP PUSH1 0x0 DUP2 DUP6 DUP5 DUP2 MLOAD DUP2 LT PUSH2 0x212B JUMPI PUSH2 0x212A PUSH2 0x3BE9 JUMP JUMPDEST JUMPDEST PUSH1 0x20 MUL PUSH1 0x20 ADD ADD MLOAD PUSH1 0x0 ADD MLOAD DUP6 PUSH2 0x2142 SWAP2 SWAP1 PUSH2 0x397A JUMP JUMPDEST PUSH2 0x214C SWAP2 SWAP1 PUSH2 0x3949 JUMP JUMPDEST SWAP1 POP DUP1 PUSH1 0x2 PUSH1 0x0 DUP8 DUP7 DUP2 MLOAD DUP2 LT PUSH2 0x2166 JUMPI PUSH2 0x2165 PUSH2 0x3BE9 JUMP JUMPDEST JUMPDEST PUSH1 0x20 MUL PUSH1 0x20 ADD ADD MLOAD PUSH1 0x80 ADD MLOAD PUSH20 0xFFFFFFFFFFFFFFFFFFFFFFFFFFFFFFFFFFFFFFFF AND PUSH20 0xFFFFFFFFFFFFFFFFFFFFFFFFFFFFFFFFFFFFFFFF AND DUP2 MSTORE PUSH1 0x20 ADD SWAP1 DUP2 MSTORE PUSH1 0x20 ADD PUSH1 0x0 KECCAK256 PUSH1 0x0 DUP3 DUP3 SLOAD PUSH2 0x21BB SWAP2 SWAP1 PUSH2 0x38F3 JUMP JUMPDEST SWAP3 POP POP DUP2 SWAP1 SSTORE POP PUSH1 0x1 DUP6 DUP5 DUP2 MLOAD DUP2 LT PUSH2 0x21D7 JUMPI PUSH2 0x21D6 PUSH2 0x3BE9 JUMP JUMPDEST JUMPDEST PUSH1 0x20 MUL PUSH1 0x20 ADD ADD MLOAD PUSH1 0xC0 ADD SWAP1 ISZERO ISZERO SWAP1 DUP2 ISZERO ISZERO DUP2 MSTORE POP POP POP POP JUMPDEST PUSH2 0x2464 JUMP JUMPDEST DUP6 DUP4 DUP3 DUP2 MLOAD DUP2 LT PUSH2 0x2209 JUMPI PUSH2 0x2208 PUSH2 0x3BE9 JUMP JUMPDEST JUMPDEST PUSH1 0x20 MUL PUSH1 0x20 ADD ADD MLOAD PUSH1 0x20 ADD MLOAD EQ ISZERO PUSH2 0x2463 JUMPI PUSH2 0x2286 PUSH1 0x64 PUSH2 0x2278 PUSH1 0x55 PUSH2 0x223D PUSH1 0x2 DUP10 PUSH1 0xE0 ADD MLOAD PUSH2 0x2A33 SWAP1 SWAP2 SWAP1 PUSH4 0xFFFFFFFF AND JUMP JUMPDEST DUP9 PUSH1 0x80 ADD MLOAD DUP10 PUSH1 0xA0 ADD MLOAD DUP11 PUSH1 0x60 ADD MLOAD PUSH2 0x2256 SWAP2 SWAP1 PUSH2 0x38F3 JUMP JUMPDEST PUSH2 0x2260 SWAP2 SWAP1 PUSH2 0x38F3 JUMP JUMPDEST PUSH2 0x226A SWAP2 SWAP1 PUSH2 0x38F3 JUMP JUMPDEST PUSH2 0x2C53 SWAP1 SWAP2 SWAP1 PUSH4 0xFFFFFFFF AND JUMP JUMPDEST PUSH2 0x2A33 SWAP1 SWAP2 SWAP1 PUSH4 0xFFFFFFFF AND JUMP JUMPDEST SWAP2 POP PUSH1 0x0 DUP1 DUP5 DUP4 DUP2 MLOAD DUP2 LT PUSH2 0x229E JUMPI PUSH2 0x229D PUSH2 0x3BE9 JUMP JUMPDEST JUMPDEST PUSH1 0x20 MUL PUSH1 0x20 ADD ADD MLOAD PUSH1 0x20 ADD MLOAD EQ ISZERO PUSH2 0x22DE JUMPI PUSH2 0x22DB PUSH1 0x64 PUSH2 0x22CD PUSH1 0x55 DUP9 PUSH1 0xA0 ADD MLOAD PUSH2 0x2C53 SWAP1 SWAP2 SWAP1 PUSH4 0xFFFFFFFF AND JUMP JUMPDEST PUSH2 0x2A33 SWAP1 SWAP2 SWAP1 PUSH4 0xFFFFFFFF AND JUMP JUMPDEST SWAP1 POP JUMPDEST PUSH1 0x1 DUP5 DUP4 DUP2 MLOAD DUP2 LT PUSH2 0x22F3 JUMPI PUSH2 0x22F2 PUSH2 0x3BE9 JUMP JUMPDEST JUMPDEST PUSH1 0x20 MUL PUSH1 0x20 ADD ADD MLOAD PUSH1 0x20 ADD MLOAD EQ ISZERO PUSH2 0x2333 JUMPI PUSH2 0x2330 PUSH1 0x64 PUSH2 0x2322 PUSH1 0x55 DUP9 PUSH1 0x80 ADD MLOAD PUSH2 0x2C53 SWAP1 SWAP2 SWAP1 PUSH4 0xFFFFFFFF AND JUMP JUMPDEST PUSH2 0x2A33 SWAP1 SWAP2 SWAP1 PUSH4 0xFFFFFFFF AND JUMP JUMPDEST SWAP1 POP JUMPDEST PUSH1 0x3 DUP5 DUP4 DUP2 MLOAD DUP2 LT PUSH2 0x2348 JUMPI PUSH2 0x2347 PUSH2 0x3BE9 JUMP JUMPDEST JUMPDEST PUSH1 0x20 MUL PUSH1 0x20 ADD ADD MLOAD PUSH1 0x20 ADD MLOAD EQ ISZERO PUSH2 0x2388 JUMPI PUSH2 0x2385 PUSH1 0x64 PUSH2 0x2377 PUSH1 0x55 DUP9 PUSH1 0x60 ADD MLOAD PUSH2 0x2C53 SWAP1 SWAP2 SWAP1 PUSH4 0xFFFFFFFF AND JUMP JUMPDEST PUSH2 0x2A33 SWAP1 SWAP2 SWAP1 PUSH4 0xFFFFFFFF AND JUMP JUMPDEST SWAP1 POP JUMPDEST PUSH1 0x0 DUP2 DUP6 DUP5 DUP2 MLOAD DUP2 LT PUSH2 0x239E JUMPI PUSH2 0x239D PUSH2 0x3BE9 JUMP JUMPDEST JUMPDEST PUSH1 0x20 MUL PUSH1 0x20 ADD ADD MLOAD PUSH1 0x0 ADD MLOAD DUP6 PUSH2 0x23B5 SWAP2 SWAP1 PUSH2 0x397A JUMP JUMPDEST PUSH2 0x23BF SWAP2 SWAP1 PUSH2 0x3949 JUMP JUMPDEST SWAP1 POP DUP1 PUSH1 0x2 PUSH1 0x0 DUP8 DUP7 DUP2 MLOAD DUP2 LT PUSH2 0x23D9 JUMPI PUSH2 0x23D8 PUSH2 0x3BE9 JUMP JUMPDEST JUMPDEST PUSH1 0x20 MUL PUSH1 0x20 ADD ADD MLOAD PUSH1 0x80 ADD MLOAD PUSH20 0xFFFFFFFFFFFFFFFFFFFFFFFFFFFFFFFFFFFFFFFF AND PUSH20 0xFFFFFFFFFFFFFFFFFFFFFFFFFFFFFFFFFFFFFFFF AND DUP2 MSTORE PUSH1 0x20 ADD SWAP1 DUP2 MSTORE PUSH1 0x20 ADD PUSH1 0x0 KECCAK256 PUSH1 0x0 DUP3 DUP3 SLOAD PUSH2 0x242E SWAP2 SWAP1 PUSH2 0x38F3 JUMP JUMPDEST SWAP3 POP POP DUP2 SWAP1 SSTORE POP PUSH1 0x1 DUP6 DUP5 DUP2 MLOAD DUP2 LT PUSH2 0x244A JUMPI PUSH2 0x2449 PUSH2 0x3BE9 JUMP JUMPDEST JUMPDEST PUSH1 0x20 MUL PUSH1 0x20 ADD ADD MLOAD PUSH1 0xC0 ADD SWAP1 ISZERO ISZERO SWAP1 DUP2 ISZERO ISZERO DUP2 MSTORE POP POP POP POP JUMPDEST JUMPDEST JUMPDEST DUP1 DUP1 PUSH2 0x2470 SWAP1 PUSH2 0x3AFF JUMP JUMPDEST SWAP2 POP POP PUSH2 0x1FCC JUMP JUMPDEST POP PUSH1 0x1 DUP4 PUSH2 0x140 ADD SWAP1 ISZERO ISZERO SWAP1 DUP2 ISZERO ISZERO DUP2 MSTORE POP POP POP POP POP PUSH1 0x1 SWAP1 POP SWAP5 SWAP4 POP POP POP POP JUMP JUMPDEST PUSH1 0x0 DUP1 PUSH1 0x0 SWAP1 SLOAD SWAP1 PUSH2 0x100 EXP SWAP1 DIV PUSH20 0xFFFFFFFFFFFFFFFFFFFFFFFFFFFFFFFFFFFFFFFF AND PUSH20 0xFFFFFFFFFFFFFFFFFFFFFFFFFFFFFFFFFFFFFFFF AND CALLER PUSH20 0xFFFFFFFFFFFFFFFFFFFFFFFFFFFFFFFFFFFFFFFF AND EQ PUSH2 0x252B JUMPI PUSH1 0x40 MLOAD PUSH32 0x8C379A000000000000000000000000000000000000000000000000000000000 DUP2 MSTORE PUSH1 0x4 ADD PUSH2 0x2522 SWAP1 PUSH2 0x373B JUMP JUMPDEST PUSH1 0x40 MLOAD DUP1 SWAP2 SUB SWAP1 REVERT JUMPDEST DUP2 PUSH1 0x2 PUSH1 0x0 DUP6 PUSH20 0xFFFFFFFFFFFFFFFFFFFFFFFFFFFFFFFFFFFFFFFF AND PUSH20 0xFFFFFFFFFFFFFFFFFFFFFFFFFFFFFFFFFFFFFFFF AND DUP2 MSTORE PUSH1 0x20 ADD SWAP1 DUP2 MSTORE PUSH1 0x20 ADD PUSH1 0x0 KECCAK256 SLOAD LT ISZERO DUP1 ISZERO PUSH2 0x25BA JUMPI POP PUSH1 0x0 PUSH1 0x2 PUSH1 0x0 DUP6 PUSH20 0xFFFFFFFFFFFFFFFFFFFFFFFFFFFFFFFFFFFFFFFF AND PUSH20 0xFFFFFFFFFFFFFFFFFFFFFFFFFFFFFFFFFFFFFFFF AND DUP2 MSTORE PUSH1 0x20 ADD SWAP1 DUP2 MSTORE PUSH1 0x20 ADD PUSH1 0x0 KECCAK256 SLOAD LT ISZERO JUMPDEST ISZERO PUSH2 0x2650 JUMPI PUSH1 0x0 DUP4 SWAP1 POP DUP1 PUSH20 0xFFFFFFFFFFFFFFFFFFFFFFFFFFFFFFFFFFFFFFFF AND PUSH2 0x8FC PUSH1 0x2 PUSH1 0x0 DUP8 PUSH20 0xFFFFFFFFFFFFFFFFFFFFFFFFFFFFFFFFFFFFFFFF AND PUSH20 0xFFFFFFFFFFFFFFFFFFFFFFFFFFFFFFFFFFFFFFFF AND DUP2 MSTORE PUSH1 0x20 ADD SWAP1 DUP2 MSTORE PUSH1 0x20 ADD PUSH1 0x0 KECCAK256 SLOAD SWAP1 DUP2 ISZERO MUL SWAP1 PUSH1 0x40 MLOAD PUSH1 0x0 PUSH1 0x40 MLOAD DUP1 DUP4 SUB DUP2 DUP6 DUP9 DUP9 CALL SWAP4 POP POP POP POP ISZERO DUP1 ISZERO PUSH2 0x2649 JUMPI RETURNDATASIZE PUSH1 0x0 DUP1 RETURNDATACOPY RETURNDATASIZE PUSH1 0x0 REVERT JUMPDEST POP POP PUSH2 0x268B JUMP JUMPDEST PUSH1 0x40 MLOAD PUSH32 0x8C379A000000000000000000000000000000000000000000000000000000000 DUP2 MSTORE PUSH1 0x4 ADD PUSH2 0x2682 SWAP1 PUSH2 0x37FB JUMP JUMPDEST PUSH1 0x40 MLOAD DUP1 SWAP2 SUB SWAP1 REVERT JUMPDEST PUSH1 0x1 SWAP1 POP SWAP3 SWAP2 POP POP JUMP JUMPDEST PUSH1 0x0 PUSH1 0x2 PUSH1 0x0 CALLER PUSH20 0xFFFFFFFFFFFFFFFFFFFFFFFFFFFFFFFFFFFFFFFF AND PUSH20 0xFFFFFFFFFFFFFFFFFFFFFFFFFFFFFFFFFFFFFFFF AND DUP2 MSTORE PUSH1 0x20 ADD SWAP1 DUP2 MSTORE PUSH1 0x20 ADD PUSH1 0x0 KECCAK256 SLOAD SWAP1 POP SWAP1 JUMP JUMPDEST PUSH1 0x60 DUP1 PUSH2 0x26E7 PUSH2 0x3018 JUMP JUMPDEST PUSH2 0x26F0 DUP5 PUSH2 0x2A06 JUMP JUMPDEST PUSH2 0x272F JUMPI PUSH1 0x40 MLOAD PUSH32 0x8C379A000000000000000000000000000000000000000000000000000000000 DUP2 MSTORE PUSH1 0x4 ADD PUSH2 0x2726 SWAP1 PUSH2 0x375B JUMP JUMPDEST PUSH1 0x40 MLOAD DUP1 SWAP2 SUB SWAP1 REVERT JUMPDEST PUSH1 0x0 PUSH2 0x280E PUSH1 0x3 PUSH1 0x0 DUP8 DUP2 MSTORE PUSH1 0x20 ADD SWAP1 DUP2 MSTORE PUSH1 0x20 ADD PUSH1 0x0 KECCAK256 PUSH1 0x0 ADD DUP1 SLOAD PUSH2 0x2755 SWAP1 PUSH2 0x3A9C JUMP JUMPDEST DUP1 PUSH1 0x1F ADD PUSH1 0x20 DUP1 SWAP2 DIV MUL PUSH1 0x20 ADD PUSH1 0x40 MLOAD SWAP1 DUP2 ADD PUSH1 0x40 MSTORE DUP1 SWAP3 SWAP2 SWAP1 DUP2 DUP2 MSTORE PUSH1 0x20 ADD DUP3 DUP1 SLOAD PUSH2 0x2781 SWAP1 PUSH2 0x3A9C JUMP JUMPDEST DUP1 ISZERO PUSH2 0x27CE JUMPI DUP1 PUSH1 0x1F LT PUSH2 0x27A3 JUMPI PUSH2 0x100 DUP1 DUP4 SLOAD DIV MUL DUP4 MSTORE SWAP2 PUSH1 0x20 ADD SWAP2 PUSH2 0x27CE JUMP JUMPDEST DUP3 ADD SWAP2 SWAP1 PUSH1 0x0 MSTORE PUSH1 0x20 PUSH1 0x0 KECCAK256 SWAP1 JUMPDEST DUP2 SLOAD DUP2 MSTORE SWAP1 PUSH1 0x1 ADD SWAP1 PUSH1 0x20 ADD DUP1 DUP4 GT PUSH2 0x27B1 JUMPI DUP3 SWAP1 SUB PUSH1 0x1F AND DUP3 ADD SWAP2 JUMPDEST POP POP POP POP POP PUSH1 0x40 MLOAD DUP1 PUSH1 0x40 ADD PUSH1 0x40 MSTORE DUP1 PUSH1 0x4 DUP2 MSTORE PUSH1 0x20 ADD PUSH32 0x2076732000000000000000000000000000000000000000000000000000000000 DUP2 MSTORE POP PUSH2 0x2A5B JUMP JUMPDEST SWAP1 POP PUSH2 0x28B8 DUP2 PUSH1 0x3 PUSH1 0x0 DUP9 DUP2 MSTORE PUSH1 0x20 ADD SWAP1 DUP2 MSTORE PUSH1 0x20 ADD PUSH1 0x0 KECCAK256 PUSH1 0x1 ADD DUP1 SLOAD PUSH2 0x2835 SWAP1 PUSH2 0x3A9C JUMP JUMPDEST DUP1 PUSH1 0x1F ADD PUSH1 0x20 DUP1 SWAP2 DIV MUL PUSH1 0x20 ADD PUSH1 0x40 MLOAD SWAP1 DUP2 ADD PUSH1 0x40 MSTORE DUP1 SWAP3 SWAP2 SWAP1 DUP2 DUP2 MSTORE PUSH1 0x20 ADD DUP3 DUP1 SLOAD PUSH2 0x2861 SWAP1 PUSH2 0x3A9C JUMP JUMPDEST DUP1 ISZERO PUSH2 0x28AE JUMPI DUP1 PUSH1 0x1F LT PUSH2 0x2883 JUMPI PUSH2 0x100 DUP1 DUP4 SLOAD DIV MUL DUP4 MSTORE SWAP2 PUSH1 0x20 ADD SWAP2 PUSH2 0x28AE JUMP JUMPDEST DUP3 ADD SWAP2 SWAP1 PUSH1 0x0 MSTORE PUSH1 0x20 PUSH1 0x0 KECCAK256 SWAP1 JUMPDEST DUP2 SLOAD DUP2 MSTORE SWAP1 PUSH1 0x1 ADD SWAP1 PUSH1 0x20 ADD DUP1 DUP4 GT PUSH2 0x2891 JUMPI DUP3 SWAP1 SUB PUSH1 0x1F AND DUP3 ADD SWAP2 JUMPDEST POP POP POP POP POP PUSH2 0x2A5B JUMP JUMPDEST SWAP4 POP PUSH1 0x0 PUSH1 0x40 MLOAD DUP1 PUSH1 0xA0 ADD PUSH1 0x40 MSTORE DUP1 PUSH1 0x3 PUSH1 0x0 DUP10 DUP2 MSTORE PUSH1 0x20 ADD SWAP1 DUP2 MSTORE PUSH1 0x20 ADD PUSH1 0x0 KECCAK256 PUSH1 0x3 ADD SLOAD DUP2 MSTORE PUSH1 0x20 ADD PUSH1 0x3 PUSH1 0x0 DUP10 DUP2 MSTORE PUSH1 0x20 ADD SWAP1 DUP2 MSTORE PUSH1 0x20 ADD PUSH1 0x0 KECCAK256 PUSH1 0x4 ADD SLOAD DUP2 MSTORE PUSH1 0x20 ADD PUSH1 0x3 PUSH1 0x0 DUP10 DUP2 MSTORE PUSH1 0x20 ADD SWAP1 DUP2 MSTORE PUSH1 0x20 ADD PUSH1 0x0 KECCAK256 PUSH1 0x5 ADD SLOAD DUP2 MSTORE PUSH1 0x20 ADD PUSH1 0x3 PUSH1 0x0 DUP10 DUP2 MSTORE PUSH1 0x20 ADD SWAP1 DUP2 MSTORE PUSH1 0x20 ADD PUSH1 0x0 KECCAK256 PUSH1 0x6 ADD SLOAD DUP2 MSTORE PUSH1 0x20 ADD PUSH1 0x3 PUSH1 0x0 DUP10 DUP2 MSTORE PUSH1 0x20 ADD SWAP1 DUP2 MSTORE PUSH1 0x20 ADD PUSH1 0x0 KECCAK256 PUSH1 0x7 ADD SLOAD DUP2 MSTORE POP SWAP1 POP DUP5 PUSH1 0x3 PUSH1 0x0 DUP9 DUP2 MSTORE PUSH1 0x20 ADD SWAP1 DUP2 MSTORE PUSH1 0x20 ADD PUSH1 0x0 KECCAK256 PUSH1 0x2 ADD DUP3 DUP2 DUP1 SLOAD PUSH2 0x2977 SWAP1 PUSH2 0x3A9C JUMP JUMPDEST DUP1 PUSH1 0x1F ADD PUSH1 0x20 DUP1 SWAP2 DIV MUL PUSH1 0x20 ADD PUSH1 0x40 MLOAD SWAP1 DUP2 ADD PUSH1 0x40 MSTORE DUP1 SWAP3 SWAP2 SWAP1 DUP2 DUP2 MSTORE PUSH1 0x20 ADD DUP3 DUP1 SLOAD PUSH2 0x29A3 SWAP1 PUSH2 0x3A9C JUMP JUMPDEST DUP1 ISZERO PUSH2 0x29F0 JUMPI DUP1 PUSH1 0x1F LT PUSH2 0x29C5 JUMPI PUSH2 0x100 DUP1 DUP4 SLOAD DIV MUL DUP4 MSTORE SWAP2 PUSH1 0x20 ADD SWAP2 PUSH2 0x29F0 JUMP JUMPDEST DUP3 ADD SWAP2 SWAP1 PUSH1 0x0 MSTORE PUSH1 0x20 PUSH1 0x0 KECCAK256 SWAP1 JUMPDEST DUP2 SLOAD DUP2 MSTORE SWAP1 PUSH1 0x1 ADD SWAP1 PUSH1 0x20 ADD DUP1 DUP4 GT PUSH2 0x29D3 JUMPI DUP3 SWAP1 SUB PUSH1 0x1F AND DUP3 ADD SWAP2 JUMPDEST POP POP POP POP POP SWAP2 POP SWAP5 POP SWAP5 POP SWAP5 POP POP POP SWAP2 SWAP4 SWAP1 SWAP3 POP JUMP JUMPDEST PUSH1 0x0 PUSH1 0x3 PUSH1 0x0 DUP4 DUP2 MSTORE PUSH1 0x20 ADD SWAP1 DUP2 MSTORE PUSH1 0x20 ADD PUSH1 0x0 KECCAK256 PUSH1 0x8 ADD PUSH1 0x1 SWAP1 SLOAD SWAP1 PUSH2 0x100 EXP SWAP1 DIV PUSH1 0xFF AND SWAP1 POP SWAP2 SWAP1 POP JUMP JUMPDEST PUSH1 0x0 DUP1 DUP3 GT PUSH2 0x2A41 JUMPI PUSH1 0x0 DUP1 REVERT JUMPDEST PUSH1 0x0 DUP3 DUP5 PUSH2 0x2A4F SWAP2 SWAP1 PUSH2 0x3949 JUMP JUMPDEST SWAP1 POP DUP1 SWAP2 POP POP SWAP3 SWAP2 POP POP JUMP JUMPDEST PUSH1 0x60 PUSH1 0x0 DUP4 SWAP1 POP PUSH1 0x0 DUP4 SWAP1 POP PUSH1 0x0 DUP2 MLOAD DUP4 MLOAD PUSH2 0x2A77 SWAP2 SWAP1 PUSH2 0x38F3 JUMP JUMPDEST PUSH8 0xFFFFFFFFFFFFFFFF DUP2 GT ISZERO PUSH2 0x2A90 JUMPI PUSH2 0x2A8F PUSH2 0x3C18 JUMP JUMPDEST JUMPDEST PUSH1 0x40 MLOAD SWAP1 DUP1 DUP3 MSTORE DUP1 PUSH1 0x1F ADD PUSH1 0x1F NOT AND PUSH1 0x20 ADD DUP3 ADD PUSH1 0x40 MSTORE DUP1 ISZERO PUSH2 0x2AC2 JUMPI DUP2 PUSH1 0x20 ADD PUSH1 0x1 DUP3 MUL DUP1 CALLDATASIZE DUP4 CALLDATACOPY DUP1 DUP3 ADD SWAP2 POP POP SWAP1 POP JUMPDEST POP SWAP1 POP PUSH1 0x0 DUP2 SWAP1 POP PUSH1 0x0 DUP1 JUMPDEST DUP6 MLOAD DUP2 LT ISZERO PUSH2 0x2B56 JUMPI DUP6 DUP2 DUP2 MLOAD DUP2 LT PUSH2 0x2AEA JUMPI PUSH2 0x2AE9 PUSH2 0x3BE9 JUMP JUMPDEST JUMPDEST PUSH1 0x20 ADD ADD MLOAD PUSH1 0xF8 SHR PUSH1 0xF8 SHL DUP4 DUP4 DUP1 PUSH2 0x2B01 SWAP1 PUSH2 0x3AFF JUMP JUMPDEST SWAP5 POP DUP2 MLOAD DUP2 LT PUSH2 0x2B14 JUMPI PUSH2 0x2B13 PUSH2 0x3BE9 JUMP JUMPDEST JUMPDEST PUSH1 0x20 ADD ADD SWAP1 PUSH31 0xFFFFFFFFFFFFFFFFFFFFFFFFFFFFFFFFFFFFFFFFFFFFFFFFFFFFFFFFFFFFFF NOT AND SWAP1 DUP2 PUSH1 0x0 BYTE SWAP1 MSTORE8 POP DUP1 DUP1 PUSH2 0x2B4E SWAP1 PUSH2 0x3AFF JUMP JUMPDEST SWAP2 POP POP PUSH2 0x2ACE JUMP JUMPDEST POP PUSH1 0x0 JUMPDEST DUP5 MLOAD DUP2 LT ISZERO PUSH2 0x2BE2 JUMPI DUP5 DUP2 DUP2 MLOAD DUP2 LT PUSH2 0x2B76 JUMPI PUSH2 0x2B75 PUSH2 0x3BE9 JUMP JUMPDEST JUMPDEST PUSH1 0x20 ADD ADD MLOAD PUSH1 0xF8 SHR PUSH1 0xF8 SHL DUP4 DUP4 DUP1 PUSH2 0x2B8D SWAP1 PUSH2 0x3AFF JUMP JUMPDEST SWAP5 POP DUP2 MLOAD DUP2 LT PUSH2 0x2BA0 JUMPI PUSH2 0x2B9F PUSH2 0x3BE9 JUMP JUMPDEST JUMPDEST PUSH1 0x20 ADD ADD SWAP1 PUSH31 0xFFFFFFFFFFFFFFFFFFFFFFFFFFFFFFFFFFFFFFFFFFFFFFFFFFFFFFFFFFFFFF NOT AND SWAP1 DUP2 PUSH1 0x0 BYTE SWAP1 MSTORE8 POP DUP1 DUP1 PUSH2 0x2BDA SWAP1 PUSH2 0x3AFF JUMP JUMPDEST SWAP2 POP POP PUSH2 0x2B5A JUMP JUMPDEST POP DUP3 SWAP6 POP POP POP POP POP POP SWAP3 SWAP2 POP POP JUMP JUMPDEST PUSH1 0x60 PUSH2 0x2C1B DUP3 PUSH1 0x40 MLOAD PUSH1 0x20 ADD PUSH2 0x2C07 SWAP2 SWAP1 PUSH2 0x367C JUMP JUMPDEST PUSH1 0x40 MLOAD PUSH1 0x20 DUP2 DUP4 SUB SUB DUP2 MSTORE SWAP1 PUSH1 0x40 MSTORE PUSH2 0x2C98 JUMP JUMPDEST SWAP1 POP SWAP2 SWAP1 POP JUMP JUMPDEST PUSH1 0x60 PUSH2 0x2C4C DUP3 PUSH1 0x40 MLOAD PUSH1 0x20 ADD PUSH2 0x2C38 SWAP2 SWAP1 PUSH2 0x364A JUMP JUMPDEST PUSH1 0x40 MLOAD PUSH1 0x20 DUP2 DUP4 SUB SUB DUP2 MSTORE SWAP1 PUSH1 0x40 MSTORE PUSH2 0x2C98 JUMP JUMPDEST SWAP1 POP SWAP2 SWAP1 POP JUMP JUMPDEST PUSH1 0x0 DUP1 DUP4 EQ ISZERO PUSH2 0x2C66 JUMPI PUSH1 0x0 SWAP1 POP PUSH2 0x2C92 JUMP JUMPDEST PUSH1 0x0 DUP3 DUP5 PUSH2 0x2C74 SWAP2 SWAP1 PUSH2 0x397A JUMP JUMPDEST SWAP1 POP DUP3 DUP5 DUP3 PUSH2 0x2C83 SWAP2 SWAP1 PUSH2 0x3949 JUMP JUMPDEST EQ PUSH2 0x2C8D JUMPI PUSH1 0x0 DUP1 REVERT JUMPDEST DUP1 SWAP2 POP POP JUMPDEST SWAP3 SWAP2 POP POP JUMP JUMPDEST PUSH1 0x60 PUSH1 0x0 PUSH1 0x40 MLOAD DUP1 PUSH1 0x40 ADD PUSH1 0x40 MSTORE DUP1 PUSH1 0x10 DUP2 MSTORE PUSH1 0x20 ADD PUSH32 0x3031323334353637383961626364656600000000000000000000000000000000 DUP2 MSTORE POP SWAP1 POP PUSH1 0x0 PUSH1 0x2 DUP5 MLOAD PUSH2 0x2CE4 SWAP2 SWAP1 PUSH2 0x397A JUMP JUMPDEST PUSH1 0x2 PUSH2 0x2CF0 SWAP2 SWAP1 PUSH2 0x38F3 JUMP JUMPDEST PUSH8 0xFFFFFFFFFFFFFFFF DUP2 GT ISZERO PUSH2 0x2D09 JUMPI PUSH2 0x2D08 PUSH2 0x3C18 JUMP JUMPDEST JUMPDEST PUSH1 0x40 MLOAD SWAP1 DUP1 DUP3 MSTORE DUP1 PUSH1 0x1F ADD PUSH1 0x1F NOT AND PUSH1 0x20 ADD DUP3 ADD PUSH1 0x40 MSTORE DUP1 ISZERO PUSH2 0x2D3B JUMPI DUP2 PUSH1 0x20 ADD PUSH1 0x1 DUP3 MUL DUP1 CALLDATASIZE DUP4 CALLDATACOPY DUP1 DUP3 ADD SWAP2 POP POP SWAP1 POP JUMPDEST POP SWAP1 POP PUSH32 0x3000000000000000000000000000000000000000000000000000000000000000 DUP2 PUSH1 0x0 DUP2 MLOAD DUP2 LT PUSH2 0x2D73 JUMPI PUSH2 0x2D72 PUSH2 0x3BE9 JUMP JUMPDEST JUMPDEST PUSH1 0x20 ADD ADD SWAP1 PUSH31 0xFFFFFFFFFFFFFFFFFFFFFFFFFFFFFFFFFFFFFFFFFFFFFFFFFFFFFFFFFFFFFF NOT AND SWAP1 DUP2 PUSH1 0x0 BYTE SWAP1 MSTORE8 POP PUSH32 0x7800000000000000000000000000000000000000000000000000000000000000 DUP2 PUSH1 0x1 DUP2 MLOAD DUP2 LT PUSH2 0x2DD7 JUMPI PUSH2 0x2DD6 PUSH2 0x3BE9 JUMP JUMPDEST JUMPDEST PUSH1 0x20 ADD ADD SWAP1 PUSH31 0xFFFFFFFFFFFFFFFFFFFFFFFFFFFFFFFFFFFFFFFFFFFFFFFFFFFFFFFFFFFFFF NOT AND SWAP1 DUP2 PUSH1 0x0 BYTE SWAP1 MSTORE8 POP PUSH1 0x0 JUMPDEST DUP5 MLOAD DUP2 LT ISZERO PUSH2 0x2F87 JUMPI DUP3 PUSH1 0x4 DUP7 DUP4 DUP2 MLOAD DUP2 LT PUSH2 0x2E28 JUMPI PUSH2 0x2E27 PUSH2 0x3BE9 JUMP JUMPDEST JUMPDEST PUSH1 0x20 ADD ADD MLOAD PUSH1 0xF8 SHR PUSH1 0xF8 SHL PUSH31 0xFFFFFFFFFFFFFFFFFFFFFFFFFFFFFFFFFFFFFFFFFFFFFFFFFFFFFFFFFFFFFF NOT AND SWAP1 SHR PUSH1 0xF8 SHR PUSH1 0xFF AND DUP2 MLOAD DUP2 LT PUSH2 0x2E6E JUMPI PUSH2 0x2E6D PUSH2 0x3BE9 JUMP JUMPDEST JUMPDEST PUSH1 0x20 ADD ADD MLOAD PUSH1 0xF8 SHR PUSH1 0xF8 SHL DUP3 PUSH1 0x2 DUP4 PUSH2 0x2E87 SWAP2 SWAP1 PUSH2 0x397A JUMP JUMPDEST PUSH1 0x2 PUSH2 0x2E93 SWAP2 SWAP1 PUSH2 0x38F3 JUMP JUMPDEST DUP2 MLOAD DUP2 LT PUSH2 0x2EA4 JUMPI PUSH2 0x2EA3 PUSH2 0x3BE9 JUMP JUMPDEST JUMPDEST PUSH1 0x20 ADD ADD SWAP1 PUSH31 0xFFFFFFFFFFFFFFFFFFFFFFFFFFFFFFFFFFFFFFFFFFFFFFFFFFFFFFFFFFFFFF NOT AND SWAP1 DUP2 PUSH1 0x0 BYTE SWAP1 MSTORE8 POP DUP3 PUSH1 0xF PUSH1 0xF8 SHL DUP7 DUP4 DUP2 MLOAD DUP2 LT PUSH2 0x2EEC JUMPI PUSH2 0x2EEB PUSH2 0x3BE9 JUMP JUMPDEST JUMPDEST PUSH1 0x20 ADD ADD MLOAD PUSH1 0xF8 SHR PUSH1 0xF8 SHL AND PUSH1 0xF8 SHR PUSH1 0xFF AND DUP2 MLOAD DUP2 LT PUSH2 0x2F0F JUMPI PUSH2 0x2F0E PUSH2 0x3BE9 JUMP JUMPDEST JUMPDEST PUSH1 0x20 ADD ADD MLOAD PUSH1 0xF8 SHR PUSH1 0xF8 SHL DUP3 PUSH1 0x2 DUP4 PUSH2 0x2F28 SWAP2 SWAP1 PUSH2 0x397A JUMP JUMPDEST PUSH1 0x3 PUSH2 0x2F34 SWAP2 SWAP1 PUSH2 0x38F3 JUMP JUMPDEST DUP2 MLOAD DUP2 LT PUSH2 0x2F45 JUMPI PUSH2 0x2F44 PUSH2 0x3BE9 JUMP JUMPDEST JUMPDEST PUSH1 0x20 ADD ADD SWAP1 PUSH31 0xFFFFFFFFFFFFFFFFFFFFFFFFFFFFFFFFFFFFFFFFFFFFFFFFFFFFFFFFFFFFFF NOT AND SWAP1 DUP2 PUSH1 0x0 BYTE SWAP1 MSTORE8 POP DUP1 DUP1 PUSH2 0x2F7F SWAP1 PUSH2 0x3AFF JUMP JUMPDEST SWAP2 POP POP PUSH2 0x2E09 JUMP JUMPDEST POP DUP1 SWAP3 POP POP POP SWAP2 SWAP1 POP JUMP JUMPDEST DUP3 DUP1 SLOAD PUSH2 0x2F9E SWAP1 PUSH2 0x3A9C JUMP JUMPDEST SWAP1 PUSH1 0x0 MSTORE PUSH1 0x20 PUSH1 0x0 KECCAK256 SWAP1 PUSH1 0x1F ADD PUSH1 0x20 SWAP1 DIV DUP2 ADD SWAP3 DUP3 PUSH2 0x2FC0 JUMPI PUSH1 0x0 DUP6 SSTORE PUSH2 0x3007 JUMP JUMPDEST DUP3 PUSH1 0x1F LT PUSH2 0x2FD9 JUMPI DUP1 MLOAD PUSH1 0xFF NOT AND DUP4 DUP1 ADD OR DUP6 SSTORE PUSH2 0x3007 JUMP JUMPDEST DUP3 DUP1 ADD PUSH1 0x1 ADD DUP6 SSTORE DUP3 ISZERO PUSH2 0x3007 JUMPI SWAP2 DUP3 ADD JUMPDEST DUP3 DUP2 GT ISZERO PUSH2 0x3006 JUMPI DUP3 MLOAD DUP3 SSTORE SWAP2 PUSH1 0x20 ADD SWAP2 SWAP1 PUSH1 0x1 ADD SWAP1 PUSH2 0x2FEB JUMP JUMPDEST JUMPDEST POP SWAP1 POP PUSH2 0x3014 SWAP2 SWAP1 PUSH2 0x3047 JUMP JUMPDEST POP SWAP1 JUMP JUMPDEST PUSH1 0x40 MLOAD DUP1 PUSH1 0xA0 ADD PUSH1 0x40 MSTORE DUP1 PUSH1 0x0 DUP2 MSTORE PUSH1 0x20 ADD PUSH1 0x0 DUP2 MSTORE PUSH1 0x20 ADD PUSH1 0x0 DUP2 MSTORE PUSH1 0x20 ADD PUSH1 0x0 DUP2 MSTORE PUSH1 0x20 ADD PUSH1 0x0 DUP2 MSTORE POP SWAP1 JUMP JUMPDEST JUMPDEST DUP1 DUP3 GT ISZERO PUSH2 0x3060 JUMPI PUSH1 0x0 DUP2 PUSH1 0x0 SWAP1 SSTORE POP PUSH1 0x1 ADD PUSH2 0x3048 JUMP JUMPDEST POP SWAP1 JUMP JUMPDEST PUSH1 0x0 PUSH2 0x3077 PUSH2 0x3072 DUP5 PUSH2 0x389B JUMP JUMPDEST PUSH2 0x3876 JUMP JUMPDEST SWAP1 POP DUP3 DUP2 MSTORE PUSH1 0x20 DUP2 ADD DUP5 DUP5 DUP5 ADD GT ISZERO PUSH2 0x3093 JUMPI PUSH2 0x3092 PUSH2 0x3C4C JUMP JUMPDEST JUMPDEST PUSH2 0x309E DUP5 DUP3 DUP6 PUSH2 0x3A5A JUMP JUMPDEST POP SWAP4 SWAP3 POP POP POP JUMP JUMPDEST PUSH1 0x0 DUP2 CALLDATALOAD SWAP1 POP PUSH2 0x30B5 DUP2 PUSH2 0x3DDD JUMP JUMPDEST SWAP3 SWAP2 POP POP JUMP JUMPDEST PUSH1 0x0 DUP2 CALLDATALOAD SWAP1 POP PUSH2 0x30CA DUP2 PUSH2 0x3DF4 JUMP JUMPDEST SWAP3 SWAP2 POP POP JUMP JUMPDEST PUSH1 0x0 DUP2 CALLDATALOAD SWAP1 POP PUSH2 0x30DF DUP2 PUSH2 0x3E0B JUMP JUMPDEST SWAP3 SWAP2 POP POP JUMP JUMPDEST PUSH1 0x0 DUP3 PUSH1 0x1F DUP4 ADD SLT PUSH2 0x30FA JUMPI PUSH2 0x30F9 PUSH2 0x3C47 JUMP JUMPDEST JUMPDEST DUP2 CALLDATALOAD PUSH2 0x310A DUP5 DUP3 PUSH1 0x20 DUP7 ADD PUSH2 0x3064 JUMP JUMPDEST SWAP2 POP POP SWAP3 SWAP2 POP POP JUMP JUMPDEST PUSH1 0x0 DUP2 CALLDATALOAD SWAP1 POP PUSH2 0x3122 DUP2 PUSH2 0x3E22 JUMP JUMPDEST SWAP3 SWAP2 POP POP JUMP JUMPDEST PUSH1 0x0 DUP1 PUSH1 0x40 DUP4 DUP6 SUB SLT ISZERO PUSH2 0x313F JUMPI PUSH2 0x313E PUSH2 0x3C56 JUMP JUMPDEST JUMPDEST PUSH1 0x0 PUSH2 0x314D DUP6 DUP3 DUP7 ADD PUSH2 0x30A6 JUMP JUMPDEST SWAP3 POP POP PUSH1 0x20 PUSH2 0x315E DUP6 DUP3 DUP7 ADD PUSH2 0x30D0 JUMP JUMPDEST SWAP2 POP POP SWAP3 POP SWAP3 SWAP1 POP JUMP JUMPDEST PUSH1 0x0 DUP1 PUSH1 0x40 DUP4 DUP6 SUB SLT ISZERO PUSH2 0x317F JUMPI PUSH2 0x317E PUSH2 0x3C56 JUMP JUMPDEST JUMPDEST PUSH1 0x0 PUSH2 0x318D DUP6 DUP3 DUP7 ADD PUSH2 0x30A6 JUMP JUMPDEST SWAP3 POP POP PUSH1 0x20 PUSH2 0x319E DUP6 DUP3 DUP7 ADD PUSH2 0x3113 JUMP JUMPDEST SWAP2 POP POP SWAP3 POP SWAP3 SWAP1 POP JUMP JUMPDEST PUSH1 0x0 DUP1 PUSH1 0x0 DUP1 PUSH1 0x0 DUP1 PUSH1 0xC0 DUP8 DUP10 SUB SLT ISZERO PUSH2 0x31C5 JUMPI PUSH2 0x31C4 PUSH2 0x3C56 JUMP JUMPDEST JUMPDEST PUSH1 0x0 PUSH2 0x31D3 DUP10 DUP3 DUP11 ADD PUSH2 0x30A6 JUMP JUMPDEST SWAP7 POP POP PUSH1 0x20 PUSH2 0x31E4 DUP10 DUP3 DUP11 ADD PUSH2 0x3113 JUMP JUMPDEST SWAP6 POP POP PUSH1 0x40 PUSH2 0x31F5 DUP10 DUP3 DUP11 ADD PUSH2 0x30D0 JUMP JUMPDEST SWAP5 POP POP PUSH1 0x60 PUSH2 0x3206 DUP10 DUP3 DUP11 ADD PUSH2 0x3113 JUMP JUMPDEST SWAP4 POP POP PUSH1 0x80 PUSH2 0x3217 DUP10 DUP3 DUP11 ADD PUSH2 0x3113 JUMP JUMPDEST SWAP3 POP POP PUSH1 0xA0 PUSH2 0x3228 DUP10 DUP3 DUP11 ADD PUSH2 0x3113 JUMP JUMPDEST SWAP2 POP POP SWAP3 SWAP6 POP SWAP3 SWAP6 POP SWAP3 SWAP6 JUMP JUMPDEST PUSH1 0x0 PUSH1 0x20 DUP3 DUP5 SUB SLT ISZERO PUSH2 0x324B JUMPI PUSH2 0x324A PUSH2 0x3C56 JUMP JUMPDEST JUMPDEST PUSH1 0x0 PUSH2 0x3259 DUP5 DUP3 DUP6 ADD PUSH2 0x30D0 JUMP JUMPDEST SWAP2 POP POP SWAP3 SWAP2 POP POP JUMP JUMPDEST PUSH1 0x0 DUP1 PUSH1 0x40 DUP4 DUP6 SUB SLT ISZERO PUSH2 0x3279 JUMPI PUSH2 0x3278 PUSH2 0x3C56 JUMP JUMPDEST JUMPDEST PUSH1 0x0 PUSH2 0x3287 DUP6 DUP3 DUP7 ADD PUSH2 0x30D0 JUMP JUMPDEST SWAP3 POP POP PUSH1 0x20 PUSH2 0x3298 DUP6 DUP3 DUP7 ADD PUSH2 0x3113 JUMP JUMPDEST SWAP2 POP POP SWAP3 POP SWAP3 SWAP1 POP JUMP JUMPDEST PUSH1 0x0 DUP1 PUSH1 0x0 DUP1 PUSH1 0x80 DUP6 DUP8 SUB SLT ISZERO PUSH2 0x32BC JUMPI PUSH2 0x32BB PUSH2 0x3C56 JUMP JUMPDEST JUMPDEST PUSH1 0x0 PUSH2 0x32CA DUP8 DUP3 DUP9 ADD PUSH2 0x30D0 JUMP JUMPDEST SWAP5 POP POP PUSH1 0x20 PUSH2 0x32DB DUP8 DUP3 DUP9 ADD PUSH2 0x3113 JUMP JUMPDEST SWAP4 POP POP PUSH1 0x40 PUSH2 0x32EC DUP8 DUP3 DUP9 ADD PUSH2 0x3113 JUMP JUMPDEST SWAP3 POP POP PUSH1 0x60 PUSH2 0x32FD DUP8 DUP3 DUP9 ADD PUSH2 0x3113 JUMP JUMPDEST SWAP2 POP POP SWAP3 SWAP6 SWAP2 SWAP5 POP SWAP3 POP JUMP JUMPDEST PUSH1 0x0 DUP1 PUSH1 0x0 DUP1 PUSH1 0x80 DUP6 DUP8 SUB SLT ISZERO PUSH2 0x3323 JUMPI PUSH2 0x3322 PUSH2 0x3C56 JUMP JUMPDEST JUMPDEST PUSH1 0x0 DUP6 ADD CALLDATALOAD PUSH8 0xFFFFFFFFFFFFFFFF DUP2 GT ISZERO PUSH2 0x3341 JUMPI PUSH2 0x3340 PUSH2 0x3C51 JUMP JUMPDEST JUMPDEST PUSH2 0x334D DUP8 DUP3 DUP9 ADD PUSH2 0x30E5 JUMP JUMPDEST SWAP5 POP POP PUSH1 0x20 DUP6 ADD CALLDATALOAD PUSH8 0xFFFFFFFFFFFFFFFF DUP2 GT ISZERO PUSH2 0x336E JUMPI PUSH2 0x336D PUSH2 0x3C51 JUMP JUMPDEST JUMPDEST PUSH2 0x337A DUP8 DUP3 DUP9 ADD PUSH2 0x30E5 JUMP JUMPDEST SWAP4 POP POP PUSH1 0x40 DUP6 ADD CALLDATALOAD PUSH8 0xFFFFFFFFFFFFFFFF DUP2 GT ISZERO PUSH2 0x339B JUMPI PUSH2 0x339A PUSH2 0x3C51 JUMP JUMPDEST JUMPDEST PUSH2 0x33A7 DUP8 DUP3 DUP9 ADD PUSH2 0x30E5 JUMP JUMPDEST SWAP3 POP POP PUSH1 0x60 PUSH2 0x33B8 DUP8 DUP3 DUP9 ADD PUSH2 0x30BB JUMP JUMPDEST SWAP2 POP POP SWAP3 SWAP6 SWAP2 SWAP5 POP SWAP3 POP JUMP JUMPDEST PUSH2 0x33CD DUP2 PUSH2 0x3A08 JUMP JUMPDEST DUP3 MSTORE POP POP JUMP JUMPDEST PUSH2 0x33DC DUP2 PUSH2 0x3A1A JUMP JUMPDEST DUP3 MSTORE POP POP JUMP JUMPDEST PUSH2 0x33EB DUP2 PUSH2 0x3A26 JUMP JUMPDEST DUP3 MSTORE POP POP JUMP JUMPDEST PUSH2 0x3402 PUSH2 0x33FD DUP3 PUSH2 0x3A26 JUMP JUMPDEST PUSH2 0x3B48 JUMP JUMPDEST DUP3 MSTORE POP POP JUMP JUMPDEST PUSH1 0x0 PUSH2 0x3413 DUP3 PUSH2 0x38CC JUMP JUMPDEST PUSH2 0x341D DUP2 DUP6 PUSH2 0x38D7 JUMP JUMPDEST SWAP4 POP PUSH2 0x342D DUP2 DUP6 PUSH1 0x20 DUP7 ADD PUSH2 0x3A69 JUMP JUMPDEST PUSH2 0x3436 DUP2 PUSH2 0x3C5B JUMP JUMPDEST DUP5 ADD SWAP2 POP POP SWAP3 SWAP2 POP POP JUMP JUMPDEST PUSH1 0x0 PUSH2 0x344C DUP3 PUSH2 0x38CC JUMP JUMPDEST PUSH2 0x3456 DUP2 DUP6 PUSH2 0x38E8 JUMP JUMPDEST SWAP4 POP PUSH2 0x3466 DUP2 DUP6 PUSH1 0x20 DUP7 ADD PUSH2 0x3A69 JUMP JUMPDEST DUP1 DUP5 ADD SWAP2 POP POP SWAP3 SWAP2 POP POP JUMP JUMPDEST PUSH1 0x0 PUSH2 0x347F PUSH1 0x19 DUP4 PUSH2 0x38D7 JUMP JUMPDEST SWAP2 POP PUSH2 0x348A DUP3 PUSH2 0x3C6C JUMP JUMPDEST PUSH1 0x20 DUP3 ADD SWAP1 POP SWAP2 SWAP1 POP JUMP JUMPDEST PUSH1 0x0 PUSH2 0x34A2 PUSH1 0x9 DUP4 PUSH2 0x38D7 JUMP JUMPDEST SWAP2 POP PUSH2 0x34AD DUP3 PUSH2 0x3C95 JUMP JUMPDEST PUSH1 0x20 DUP3 ADD SWAP1 POP SWAP2 SWAP1 POP JUMP JUMPDEST PUSH1 0x0 PUSH2 0x34C5 PUSH1 0xE DUP4 PUSH2 0x38D7 JUMP JUMPDEST SWAP2 POP PUSH2 0x34D0 DUP3 PUSH2 0x3CBE JUMP JUMPDEST PUSH1 0x20 DUP3 ADD SWAP1 POP SWAP2 SWAP1 POP JUMP JUMPDEST PUSH1 0x0 PUSH2 0x34E8 PUSH1 0x17 DUP4 PUSH2 0x38D7 JUMP JUMPDEST SWAP2 POP PUSH2 0x34F3 DUP3 PUSH2 0x3CE7 JUMP JUMPDEST PUSH1 0x20 DUP3 ADD SWAP1 POP SWAP2 SWAP1 POP JUMP JUMPDEST PUSH1 0x0 PUSH2 0x350B PUSH1 0xA DUP4 PUSH2 0x38D7 JUMP JUMPDEST SWAP2 POP PUSH2 0x3516 DUP3 PUSH2 0x3D10 JUMP JUMPDEST PUSH1 0x20 DUP3 ADD SWAP1 POP SWAP2 SWAP1 POP JUMP JUMPDEST PUSH1 0x0 PUSH2 0x352E PUSH1 0x15 DUP4 PUSH2 0x38D7 JUMP JUMPDEST SWAP2 POP PUSH2 0x3539 DUP3 PUSH2 0x3D39 JUMP JUMPDEST PUSH1 0x20 DUP3 ADD SWAP1 POP SWAP2 SWAP1 POP JUMP JUMPDEST PUSH1 0x0 PUSH2 0x3551 PUSH1 0x15 DUP4 PUSH2 0x38D7 JUMP JUMPDEST SWAP2 POP PUSH2 0x355C DUP3 PUSH2 0x3D62 JUMP JUMPDEST PUSH1 0x20 DUP3 ADD SWAP1 POP SWAP2 SWAP1 POP JUMP JUMPDEST PUSH1 0x0 PUSH2 0x3574 PUSH1 0x10 DUP4 PUSH2 0x38D7 JUMP JUMPDEST SWAP2 POP PUSH2 0x357F DUP3 PUSH2 0x3D8B JUMP JUMPDEST PUSH1 0x20 DUP3 ADD SWAP1 POP SWAP2 SWAP1 POP JUMP JUMPDEST PUSH1 0x0 PUSH2 0x3597 PUSH1 0x11 DUP4 PUSH2 0x38D7 JUMP JUMPDEST SWAP2 POP PUSH2 0x35A2 DUP3 PUSH2 0x3DB4 JUMP JUMPDEST PUSH1 0x20 DUP3 ADD SWAP1 POP SWAP2 SWAP1 POP JUMP JUMPDEST PUSH1 0xA0 DUP3 ADD PUSH1 0x0 DUP3 ADD MLOAD PUSH2 0x35C3 PUSH1 0x0 DUP6 ADD DUP3 PUSH2 0x3615 JUMP JUMPDEST POP PUSH1 0x20 DUP3 ADD MLOAD PUSH2 0x35D6 PUSH1 0x20 DUP6 ADD DUP3 PUSH2 0x3615 JUMP JUMPDEST POP PUSH1 0x40 DUP3 ADD MLOAD PUSH2 0x35E9 PUSH1 0x40 DUP6 ADD DUP3 PUSH2 0x3615 JUMP JUMPDEST POP PUSH1 0x60 DUP3 ADD MLOAD PUSH2 0x35FC PUSH1 0x60 DUP6 ADD DUP3 PUSH2 0x3615 JUMP JUMPDEST POP PUSH1 0x80 DUP3 ADD MLOAD PUSH2 0x360F PUSH1 0x80 DUP6 ADD DUP3 PUSH2 0x3615 JUMP JUMPDEST POP POP POP POP JUMP JUMPDEST PUSH2 0x361E DUP2 PUSH2 0x3A50 JUMP JUMPDEST DUP3 MSTORE POP POP JUMP JUMPDEST PUSH2 0x362D DUP2 PUSH2 0x3A50 JUMP JUMPDEST DUP3 MSTORE POP POP JUMP JUMPDEST PUSH2 0x3644 PUSH2 0x363F DUP3 PUSH2 0x3A50 JUMP JUMPDEST PUSH2 0x3B52 JUMP JUMPDEST DUP3 MSTORE POP POP JUMP JUMPDEST PUSH1 0x0 PUSH2 0x3656 DUP3 DUP5 PUSH2 0x33F1 JUMP JUMPDEST PUSH1 0x20 DUP3 ADD SWAP2 POP DUP2 SWAP1 POP SWAP3 SWAP2 POP POP JUMP JUMPDEST PUSH1 0x0 PUSH2 0x3671 DUP3 DUP5 PUSH2 0x3441 JUMP JUMPDEST SWAP2 POP DUP2 SWAP1 POP SWAP3 SWAP2 POP POP JUMP JUMPDEST PUSH1 0x0 PUSH2 0x3688 DUP3 DUP5 PUSH2 0x3633 JUMP JUMPDEST PUSH1 0x20 DUP3 ADD SWAP2 POP DUP2 SWAP1 POP SWAP3 SWAP2 POP POP JUMP JUMPDEST PUSH1 0x0 PUSH1 0x40 DUP3 ADD SWAP1 POP PUSH2 0x36AC PUSH1 0x0 DUP4 ADD DUP6 PUSH2 0x33C4 JUMP JUMPDEST PUSH2 0x36B9 PUSH1 0x20 DUP4 ADD DUP5 PUSH2 0x3624 JUMP JUMPDEST SWAP4 SWAP3 POP POP POP JUMP JUMPDEST PUSH1 0x0 PUSH1 0x20 DUP3 ADD SWAP1 POP PUSH2 0x36D5 PUSH1 0x0 DUP4 ADD DUP5 PUSH2 0x33D3 JUMP JUMPDEST SWAP3 SWAP2 POP POP JUMP JUMPDEST PUSH1 0x0 PUSH1 0x20 DUP3 ADD SWAP1 POP PUSH2 0x36F0 PUSH1 0x0 DUP4 ADD DUP5 PUSH2 0x33E2 JUMP JUMPDEST SWAP3 SWAP2 POP POP JUMP JUMPDEST PUSH1 0x0 PUSH1 0xE0 DUP3 ADD SWAP1 POP DUP2 DUP2 SUB PUSH1 0x0 DUP4 ADD MSTORE PUSH2 0x3710 DUP2 DUP7 PUSH2 0x3408 JUMP JUMPDEST SWAP1 POP DUP2 DUP2 SUB PUSH1 0x20 DUP4 ADD MSTORE PUSH2 0x3724 DUP2 DUP6 PUSH2 0x3408 JUMP JUMPDEST SWAP1 POP PUSH2 0x3733 PUSH1 0x40 DUP4 ADD DUP5 PUSH2 0x35AD JUMP JUMPDEST SWAP5 SWAP4 POP POP POP POP JUMP JUMPDEST PUSH1 0x0 PUSH1 0x20 DUP3 ADD SWAP1 POP DUP2 DUP2 SUB PUSH1 0x0 DUP4 ADD MSTORE PUSH2 0x3754 DUP2 PUSH2 0x3472 JUMP JUMPDEST SWAP1 POP SWAP2 SWAP1 POP JUMP JUMPDEST PUSH1 0x0 PUSH1 0x20 DUP3 ADD SWAP1 POP DUP2 DUP2 SUB PUSH1 0x0 DUP4 ADD MSTORE PUSH2 0x3774 DUP2 PUSH2 0x3495 JUMP JUMPDEST SWAP1 POP SWAP2 SWAP1 POP JUMP JUMPDEST PUSH1 0x0 PUSH1 0x20 DUP3 ADD SWAP1 POP DUP2 DUP2 SUB PUSH1 0x0 DUP4 ADD MSTORE PUSH2 0x3794 DUP2 PUSH2 0x34B8 JUMP JUMPDEST SWAP1 POP SWAP2 SWAP1 POP JUMP JUMPDEST PUSH1 0x0 PUSH1 0x20 DUP3 ADD SWAP1 POP DUP2 DUP2 SUB PUSH1 0x0 DUP4 ADD MSTORE PUSH2 0x37B4 DUP2 PUSH2 0x34DB JUMP JUMPDEST SWAP1 POP SWAP2 SWAP1 POP JUMP JUMPDEST PUSH1 0x0 PUSH1 0x20 DUP3 ADD SWAP1 POP DUP2 DUP2 SUB PUSH1 0x0 DUP4 ADD MSTORE PUSH2 0x37D4 DUP2 PUSH2 0x34FE JUMP JUMPDEST SWAP1 POP SWAP2 SWAP1 POP JUMP JUMPDEST PUSH1 0x0 PUSH1 0x20 DUP3 ADD SWAP1 POP DUP2 DUP2 SUB PUSH1 0x0 DUP4 ADD MSTORE PUSH2 0x37F4 DUP2 PUSH2 0x3521 JUMP JUMPDEST SWAP1 POP SWAP2 SWAP1 POP JUMP JUMPDEST PUSH1 0x0 PUSH1 0x20 DUP3 ADD SWAP1 POP DUP2 DUP2 SUB PUSH1 0x0 DUP4 ADD MSTORE PUSH2 0x3814 DUP2 PUSH2 0x3544 JUMP JUMPDEST SWAP1 POP SWAP2 SWAP1 POP JUMP JUMPDEST PUSH1 0x0 PUSH1 0x20 DUP3 ADD SWAP1 POP DUP2 DUP2 SUB PUSH1 0x0 DUP4 ADD MSTORE PUSH2 0x3834 DUP2 PUSH2 0x3567 JUMP JUMPDEST SWAP1 POP SWAP2 SWAP1 POP JUMP JUMPDEST PUSH1 0x0 PUSH1 0x20 DUP3 ADD SWAP1 POP DUP2 DUP2 SUB PUSH1 0x0 DUP4 ADD MSTORE PUSH2 0x3854 DUP2 PUSH2 0x358A JUMP JUMPDEST SWAP1 POP SWAP2 SWAP1 POP JUMP JUMPDEST PUSH1 0x0 PUSH1 0x20 DUP3 ADD SWAP1 POP PUSH2 0x3870 PUSH1 0x0 DUP4 ADD DUP5 PUSH2 0x3624 JUMP JUMPDEST SWAP3 SWAP2 POP POP JUMP JUMPDEST PUSH1 0x0 PUSH2 0x3880 PUSH2 0x3891 JUMP JUMPDEST SWAP1 POP PUSH2 0x388C DUP3 DUP3 PUSH2 0x3ACE JUMP JUMPDEST SWAP2 SWAP1 POP JUMP JUMPDEST PUSH1 0x0 PUSH1 0x40 MLOAD SWAP1 POP SWAP1 JUMP JUMPDEST PUSH1 0x0 PUSH8 0xFFFFFFFFFFFFFFFF DUP3 GT ISZERO PUSH2 0x38B6 JUMPI PUSH2 0x38B5 PUSH2 0x3C18 JUMP JUMPDEST JUMPDEST PUSH2 0x38BF DUP3 PUSH2 0x3C5B JUMP JUMPDEST SWAP1 POP PUSH1 0x20 DUP2 ADD SWAP1 POP SWAP2 SWAP1 POP JUMP JUMPDEST PUSH1 0x0 DUP2 MLOAD SWAP1 POP SWAP2 SWAP1 POP JUMP JUMPDEST PUSH1 0x0 DUP3 DUP3 MSTORE PUSH1 0x20 DUP3 ADD SWAP1 POP SWAP3 SWAP2 POP POP JUMP JUMPDEST PUSH1 0x0 DUP2 SWAP1 POP SWAP3 SWAP2 POP POP JUMP JUMPDEST PUSH1 0x0 PUSH2 0x38FE DUP3 PUSH2 0x3A50 JUMP JUMPDEST SWAP2 POP PUSH2 0x3909 DUP4 PUSH2 0x3A50 JUMP JUMPDEST SWAP3 POP DUP3 PUSH32 0xFFFFFFFFFFFFFFFFFFFFFFFFFFFFFFFFFFFFFFFFFFFFFFFFFFFFFFFFFFFFFFFF SUB DUP3 GT ISZERO PUSH2 0x393E JUMPI PUSH2 0x393D PUSH2 0x3B5C JUMP JUMPDEST JUMPDEST DUP3 DUP3 ADD SWAP1 POP SWAP3 SWAP2 POP POP JUMP JUMPDEST PUSH1 0x0 PUSH2 0x3954 DUP3 PUSH2 0x3A50 JUMP JUMPDEST SWAP2 POP PUSH2 0x395F DUP4 PUSH2 0x3A50 JUMP JUMPDEST SWAP3 POP DUP3 PUSH2 0x396F JUMPI PUSH2 0x396E PUSH2 0x3B8B JUMP JUMPDEST JUMPDEST DUP3 DUP3 DIV SWAP1 POP SWAP3 SWAP2 POP POP JUMP JUMPDEST PUSH1 0x0 PUSH2 0x3985 DUP3 PUSH2 0x3A50 JUMP JUMPDEST SWAP2 POP PUSH2 0x3990 DUP4 PUSH2 0x3A50 JUMP JUMPDEST SWAP3 POP DUP2 PUSH32 0xFFFFFFFFFFFFFFFFFFFFFFFFFFFFFFFFFFFFFFFFFFFFFFFFFFFFFFFFFFFFFFFF DIV DUP4 GT DUP3 ISZERO ISZERO AND ISZERO PUSH2 0x39C9 JUMPI PUSH2 0x39C8 PUSH2 0x3B5C JUMP JUMPDEST JUMPDEST DUP3 DUP3 MUL SWAP1 POP SWAP3 SWAP2 POP POP JUMP JUMPDEST PUSH1 0x0 PUSH2 0x39DF DUP3 PUSH2 0x3A50 JUMP JUMPDEST SWAP2 POP PUSH2 0x39EA DUP4 PUSH2 0x3A50 JUMP JUMPDEST SWAP3 POP DUP3 DUP3 LT ISZERO PUSH2 0x39FD JUMPI PUSH2 0x39FC PUSH2 0x3B5C JUMP JUMPDEST JUMPDEST DUP3 DUP3 SUB SWAP1 POP SWAP3 SWAP2 POP POP JUMP JUMPDEST PUSH1 0x0 PUSH2 0x3A13 DUP3 PUSH2 0x3A30 JUMP JUMPDEST SWAP1 POP SWAP2 SWAP1 POP JUMP JUMPDEST PUSH1 0x0 DUP2 ISZERO ISZERO SWAP1 POP SWAP2 SWAP1 POP JUMP JUMPDEST PUSH1 0x0 DUP2 SWAP1 POP SWAP2 SWAP1 POP JUMP JUMPDEST PUSH1 0x0 PUSH20 0xFFFFFFFFFFFFFFFFFFFFFFFFFFFFFFFFFFFFFFFF DUP3 AND SWAP1 POP SWAP2 SWAP1 POP JUMP JUMPDEST PUSH1 0x0 DUP2 SWAP1 POP SWAP2 SWAP1 POP JUMP JUMPDEST DUP3 DUP2 DUP4 CALLDATACOPY PUSH1 0x0 DUP4 DUP4 ADD MSTORE POP POP POP JUMP JUMPDEST PUSH1 0x0 JUMPDEST DUP4 DUP2 LT ISZERO PUSH2 0x3A87 JUMPI DUP1 DUP3 ADD MLOAD DUP2 DUP5 ADD MSTORE PUSH1 0x20 DUP2 ADD SWAP1 POP PUSH2 0x3A6C JUMP JUMPDEST DUP4 DUP2 GT ISZERO PUSH2 0x3A96 JUMPI PUSH1 0x0 DUP5 DUP5 ADD MSTORE JUMPDEST POP POP POP POP JUMP JUMPDEST PUSH1 0x0 PUSH1 0x2 DUP3 DIV SWAP1 POP PUSH1 0x1 DUP3 AND DUP1 PUSH2 0x3AB4 JUMPI PUSH1 0x7F DUP3 AND SWAP2 POP JUMPDEST PUSH1 0x20 DUP3 LT DUP2 EQ ISZERO PUSH2 0x3AC8 JUMPI PUSH2 0x3AC7 PUSH2 0x3BBA JUMP JUMPDEST JUMPDEST POP SWAP2 SWAP1 POP JUMP JUMPDEST PUSH2 0x3AD7 DUP3 PUSH2 0x3C5B JUMP JUMPDEST DUP2 ADD DUP2 DUP2 LT PUSH8 0xFFFFFFFFFFFFFFFF DUP3 GT OR ISZERO PUSH2 0x3AF6 JUMPI PUSH2 0x3AF5 PUSH2 0x3C18 JUMP JUMPDEST JUMPDEST DUP1 PUSH1 0x40 MSTORE POP POP POP JUMP JUMPDEST PUSH1 0x0 PUSH2 0x3B0A DUP3 PUSH2 0x3A50 JUMP JUMPDEST SWAP2 POP PUSH32 0xFFFFFFFFFFFFFFFFFFFFFFFFFFFFFFFFFFFFFFFFFFFFFFFFFFFFFFFFFFFFFFFF DUP3 EQ ISZERO PUSH2 0x3B3D JUMPI PUSH2 0x3B3C PUSH2 0x3B5C JUMP JUMPDEST JUMPDEST PUSH1 0x1 DUP3 ADD SWAP1 POP SWAP2 SWAP1 POP JUMP JUMPDEST PUSH1 0x0 DUP2 SWAP1 POP SWAP2 SWAP1 POP JUMP JUMPDEST PUSH1 0x0 DUP2 SWAP1 POP SWAP2 SWAP1 POP JUMP JUMPDEST PUSH32 0x4E487B7100000000000000000000000000000000000000000000000000000000 PUSH1 0x0 MSTORE PUSH1 0x11 PUSH1 0x4 MSTORE PUSH1 0x24 PUSH1 0x0 REVERT JUMPDEST PUSH32 0x4E487B7100000000000000000000000000000000000000000000000000000000 PUSH1 0x0 MSTORE PUSH1 0x12 PUSH1 0x4 MSTORE PUSH1 0x24 PUSH1 0x0 REVERT JUMPDEST PUSH32 0x4E487B7100000000000000000000000000000000000000000000000000000000 PUSH1 0x0 MSTORE PUSH1 0x22 PUSH1 0x4 MSTORE PUSH1 0x24 PUSH1 0x0 REVERT JUMPDEST PUSH32 0x4E487B7100000000000000000000000000000000000000000000000000000000 PUSH1 0x0 MSTORE PUSH1 0x32 PUSH1 0x4 MSTORE PUSH1 0x24 PUSH1 0x0 REVERT JUMPDEST PUSH32 0x4E487B7100000000000000000000000000000000000000000000000000000000 PUSH1 0x0 MSTORE PUSH1 0x41 PUSH1 0x4 MSTORE PUSH1 0x24 PUSH1 0x0 REVERT JUMPDEST PUSH1 0x0 DUP1 REVERT JUMPDEST PUSH1 0x0 DUP1 REVERT JUMPDEST PUSH1 0x0 DUP1 REVERT JUMPDEST PUSH1 0x0 DUP1 REVERT JUMPDEST PUSH1 0x0 PUSH1 0x1F NOT PUSH1 0x1F DUP4 ADD AND SWAP1 POP SWAP2 SWAP1 POP JUMP JUMPDEST PUSH32 0x4F6E6C79206F776E65722063616E2063616C6C20746869732E00000000000000 PUSH1 0x0 DUP3 ADD MSTORE POP JUMP JUMPDEST PUSH32 0x6E6F742065786973740000000000000000000000000000000000000000000000 PUSH1 0x0 DUP3 ADD MSTORE POP JUMP JUMPDEST PUSH32 0x706F6F6C206E6F74206578697374000000000000000000000000000000000000 PUSH1 0x0 DUP3 ADD MSTORE POP JUMP JUMPDEST PUSH32 0x706F6F6C20626173616C20686173206265656E20736574000000000000000000 PUSH1 0x0 DUP3 ADD MSTORE POP JUMP JUMPDEST PUSH32 0x7061697220657869737400000000000000000000000000000000000000000000 PUSH1 0x0 DUP3 ADD MSTORE POP JUMP JUMPDEST PUSH32 0x706F6F6C20686173206E6F742066696E69736865640000000000000000000000 PUSH1 0x0 DUP3 ADD MSTORE POP JUMP JUMPDEST PUSH32 0x6E6F7420656E6F75676820766F7465416D6F756E740000000000000000000000 PUSH1 0x0 DUP3 ADD MSTORE POP JUMP JUMPDEST PUSH32 0x6E6F7420656E6F75676820626173616C00000000000000000000000000000000 PUSH1 0x0 DUP3 ADD MSTORE POP JUMP JUMPDEST PUSH32 0x706F6F6C206861732066696E6973686564000000000000000000000000000000 PUSH1 0x0 DUP3 ADD MSTORE POP JUMP JUMPDEST PUSH2 0x3DE6 DUP2 PUSH2 0x3A08 JUMP JUMPDEST DUP2 EQ PUSH2 0x3DF1 JUMPI PUSH1 0x0 DUP1 REVERT JUMPDEST POP JUMP JUMPDEST PUSH2 0x3DFD DUP2 PUSH2 0x3A1A JUMP JUMPDEST DUP2 EQ PUSH2 0x3E08 JUMPI PUSH1 0x0 DUP1 REVERT JUMPDEST POP JUMP JUMPDEST PUSH2 0x3E14 DUP2 PUSH2 0x3A26 JUMP JUMPDEST DUP2 EQ PUSH2 0x3E1F JUMPI PUSH1 0x0 DUP1 REVERT JUMPDEST POP JUMP JUMPDEST PUSH2 0x3E2B DUP2 PUSH2 0x3A50 JUMP JUMPDEST DUP2 EQ PUSH2 0x3E36 JUMPI PUSH1 0x0 DUP1 REVERT JUMPDEST POP JUMP INVALID LOG2 PUSH5 0x6970667358 0x22 SLT KECCAK256 0xD2 SWAP6 DUP4 MSTORE8 SWAP16 INVALID SLOAD 0xC CALLDATASIZE SWAP6 0xCD 0x25 0xB2 CALLCODE 0xCA 0xDC 0xF9 AND 0x2A PUSH26 0x93E2D526EBDCDF307D9A8F4164736F6C63430008070033000000 "
				},
				"gasEstimates": {
					"creation": {
						"codeDepositCost": "3196600",
						"executionCost": "infinite",
						"totalCost": "infinite"
					},
					"external": {
						"Award(bytes32,uint256,uint256,uint256)": "infinite",
						"CheckBasal()": "4674",
						"CheckExpect(bytes32)": "infinite",
						"CheckVoteTickets()": "2592",
						"Picking(address,uint256,bytes32,uint256,uint256,uint256)": "infinite",
						"Set_Basal(bytes32,uint256)": "infinite",
						"Set_Pool(string,string,string,bool)": "infinite",
						"Withdrawal(address,bytes32)": "infinite",
						"getPool(bytes32)": "infinite",
						"voteWithdrawal(address,uint256)": "infinite"
					},
					"internal": {
						"addressToString(address)": "infinite",
						"bytes32ToString(bytes32)": "infinite",
						"contains(bytes32)": "2304",
						"strConcat(string memory,string memory)": "infinite",
						"stringCompare(string memory,string memory)": "infinite",
						"toString(bytes memory)": "infinite",
						"uint256ToString(uint256)": "infinite"
					}
				},
				"methodIdentifiers": {
					"Award(bytes32,uint256,uint256,uint256)": "74fe9bc2",
					"CheckBasal()": "3e6ff1a2",
					"CheckExpect(bytes32)": "4121855f",
					"CheckVoteTickets()": "baf41269",
					"Picking(address,uint256,bytes32,uint256,uint256,uint256)": "47e4dd27",
					"Set_Basal(bytes32,uint256)": "2bf21ecc",
					"Set_Pool(string,string,string,bool)": "357965ba",
					"Withdrawal(address,bytes32)": "0ce49053",
					"getPool(bytes32)": "f6c00927",
					"voteWithdrawal(address,uint256)": "9bd0abf1"
				}
			},
			"storageLayout": {
				"storage": [
					{
						"astId": 198,
						"contract": "wwcc-contracts/contracts/wwccPool.sol:WCPOOL",
						"label": "owner",
						"offset": 0,
						"slot": "0",
						"type": "t_address"
					},
					{
						"astId": 200,
						"contract": "wwcc-contracts/contracts/wwccPool.sol:WCPOOL",
						"label": "nextBasalLast",
						"offset": 0,
						"slot": "1",
						"type": "t_uint256"
					},
					{
						"astId": 204,
						"contract": "wwcc-contracts/contracts/wwccPool.sol:WCPOOL",
						"label": "voteAmount",
						"offset": 0,
						"slot": "2",
						"type": "t_mapping(t_address,t_uint256)"
					},
					{
						"astId": 209,
						"contract": "wwcc-contracts/contracts/wwccPool.sol:WCPOOL",
						"label": "WcPools",
						"offset": 0,
						"slot": "3",
						"type": "t_mapping(t_bytes32,t_struct(WcPool)153_storage)"
					},
					{
						"astId": 214,
						"contract": "wwcc-contracts/contracts/wwccPool.sol:WCPOOL",
						"label": "allScorePoolInfo",
						"offset": 0,
						"slot": "4",
						"type": "t_mapping(t_bytes32,t_struct(AllScorePool)171_storage)"
					},
					{
						"astId": 218,
						"contract": "wwcc-contracts/contracts/wwccPool.sol:WCPOOL",
						"label": "singleScorePool",
						"offset": 0,
						"slot": "5",
						"type": "t_mapping(t_string_memory_ptr,t_uint256)"
					},
					{
						"astId": 223,
						"contract": "wwcc-contracts/contracts/wwccPool.sol:WCPOOL",
						"label": "joinerAllPicking",
						"offset": 0,
						"slot": "6",
						"type": "t_mapping(t_address,t_struct(JoinerAllPicking)178_storage)"
					}
				],
				"types": {
					"t_address": {
						"encoding": "inplace",
						"label": "address",
						"numberOfBytes": "20"
					},
					"t_array(t_struct(JoinerPicking)193_storage)dyn_storage": {
						"base": "t_struct(JoinerPicking)193_storage",
						"encoding": "dynamic_array",
						"label": "struct WCPOOL.JoinerPicking[]",
						"numberOfBytes": "32"
					},
					"t_bool": {
						"encoding": "inplace",
						"label": "bool",
						"numberOfBytes": "1"
					},
					"t_bytes32": {
						"encoding": "inplace",
						"label": "bytes32",
						"numberOfBytes": "32"
					},
					"t_mapping(t_address,t_struct(JoinerAllPicking)178_storage)": {
						"encoding": "mapping",
						"key": "t_address",
						"label": "mapping(address => struct WCPOOL.JoinerAllPicking)",
						"numberOfBytes": "32",
						"value": "t_struct(JoinerAllPicking)178_storage"
					},
					"t_mapping(t_address,t_uint256)": {
						"encoding": "mapping",
						"key": "t_address",
						"label": "mapping(address => uint256)",
						"numberOfBytes": "32",
						"value": "t_uint256"
					},
					"t_mapping(t_bytes32,t_struct(AllScorePool)171_storage)": {
						"encoding": "mapping",
						"key": "t_bytes32",
						"label": "mapping(bytes32 => struct WCPOOL.AllScorePool)",
						"numberOfBytes": "32",
						"value": "t_struct(AllScorePool)171_storage"
					},
					"t_mapping(t_bytes32,t_struct(WcPool)153_storage)": {
						"encoding": "mapping",
						"key": "t_bytes32",
						"label": "mapping(bytes32 => struct WCPOOL.WcPool)",
						"numberOfBytes": "32",
						"value": "t_struct(WcPool)153_storage"
					},
					"t_mapping(t_string_memory_ptr,t_uint256)": {
						"encoding": "mapping",
						"key": "t_string_memory_ptr",
						"label": "mapping(string => uint256)",
						"numberOfBytes": "32",
						"value": "t_uint256"
					},
					"t_string_memory_ptr": {
						"encoding": "bytes",
						"label": "string",
						"numberOfBytes": "32"
					},
					"t_string_storage": {
						"encoding": "bytes",
						"label": "string",
						"numberOfBytes": "32"
					},
					"t_struct(AllScorePool)171_storage": {
						"encoding": "inplace",
						"label": "struct WCPOOL.AllScorePool",
						"members": [
							{
								"astId": 168,
								"contract": "wwcc-contracts/contracts/wwccPool.sol:WCPOOL",
								"label": "separateBet",
								"offset": 0,
								"slot": "0",
								"type": "t_array(t_struct(JoinerPicking)193_storage)dyn_storage"
							},
							{
								"astId": 170,
								"contract": "wwcc-contracts/contracts/wwccPool.sol:WCPOOL",
								"label": "poolKey",
								"offset": 0,
								"slot": "1",
								"type": "t_bytes32"
							}
						],
						"numberOfBytes": "64"
					},
					"t_struct(JoinerAllPicking)178_storage": {
						"encoding": "inplace",
						"label": "struct WCPOOL.JoinerAllPicking",
						"members": [
							{
								"astId": 175,
								"contract": "wwcc-contracts/contracts/wwccPool.sol:WCPOOL",
								"label": "separateBet",
								"offset": 0,
								"slot": "0",
								"type": "t_array(t_struct(JoinerPicking)193_storage)dyn_storage"
							},
							{
								"astId": 177,
								"contract": "wwcc-contracts/contracts/wwccPool.sol:WCPOOL",
								"label": "joiner",
								"offset": 0,
								"slot": "1",
								"type": "t_address"
							}
						],
						"numberOfBytes": "64"
					},
					"t_struct(JoinerPicking)193_storage": {
						"encoding": "inplace",
						"label": "struct WCPOOL.JoinerPicking",
						"members": [
							{
								"astId": 180,
								"contract": "wwcc-contracts/contracts/wwccPool.sol:WCPOOL",
								"label": "weight",
								"offset": 0,
								"slot": "0",
								"type": "t_uint256"
							},
							{
								"astId": 182,
								"contract": "wwcc-contracts/contracts/wwccPool.sol:WCPOOL",
								"label": "kind",
								"offset": 0,
								"slot": "1",
								"type": "t_uint256"
							},
							{
								"astId": 184,
								"contract": "wwcc-contracts/contracts/wwccPool.sol:WCPOOL",
								"label": "homeScore",
								"offset": 0,
								"slot": "2",
								"type": "t_uint256"
							},
							{
								"astId": 186,
								"contract": "wwcc-contracts/contracts/wwccPool.sol:WCPOOL",
								"label": "visitScore",
								"offset": 0,
								"slot": "3",
								"type": "t_uint256"
							},
							{
								"astId": 188,
								"contract": "wwcc-contracts/contracts/wwccPool.sol:WCPOOL",
								"label": "joiner",
								"offset": 0,
								"slot": "4",
								"type": "t_address"
							},
							{
								"astId": 190,
								"contract": "wwcc-contracts/contracts/wwccPool.sol:WCPOOL",
								"label": "pickingKey",
								"offset": 0,
								"slot": "5",
								"type": "t_string_storage"
							},
							{
								"astId": 192,
								"contract": "wwcc-contracts/contracts/wwccPool.sol:WCPOOL",
								"label": "finished",
								"offset": 0,
								"slot": "6",
								"type": "t_bool"
							}
						],
						"numberOfBytes": "224"
					},
					"t_struct(WcPool)153_storage": {
						"encoding": "inplace",
						"label": "struct WCPOOL.WcPool",
						"members": [
							{
								"astId": 132,
								"contract": "wwcc-contracts/contracts/wwccPool.sol:WCPOOL",
								"label": "home",
								"offset": 0,
								"slot": "0",
								"type": "t_string_storage"
							},
							{
								"astId": 134,
								"contract": "wwcc-contracts/contracts/wwccPool.sol:WCPOOL",
								"label": "visit",
								"offset": 0,
								"slot": "1",
								"type": "t_string_storage"
							},
							{
								"astId": 136,
								"contract": "wwcc-contracts/contracts/wwccPool.sol:WCPOOL",
								"label": "rounds",
								"offset": 0,
								"slot": "2",
								"type": "t_string_storage"
							},
							{
								"astId": 138,
								"contract": "wwcc-contracts/contracts/wwccPool.sol:WCPOOL",
								"label": "wPool",
								"offset": 0,
								"slot": "3",
								"type": "t_uint256"
							},
							{
								"astId": 140,
								"contract": "wwcc-contracts/contracts/wwccPool.sol:WCPOOL",
								"label": "dPool",
								"offset": 0,
								"slot": "4",
								"type": "t_uint256"
							},
							{
								"astId": 142,
								"contract": "wwcc-contracts/contracts/wwccPool.sol:WCPOOL",
								"label": "lPool",
								"offset": 0,
								"slot": "5",
								"type": "t_uint256"
							},
							{
								"astId": 144,
								"contract": "wwcc-contracts/contracts/wwccPool.sol:WCPOOL",
								"label": "sPool",
								"offset": 0,
								"slot": "6",
								"type": "t_uint256"
							},
							{
								"astId": 146,
								"contract": "wwcc-contracts/contracts/wwccPool.sol:WCPOOL",
								"label": "basal",
								"offset": 0,
								"slot": "7",
								"type": "t_uint256"
							},
							{
								"astId": 148,
								"contract": "wwcc-contracts/contracts/wwccPool.sol:WCPOOL",
								"label": "decided",
								"offset": 0,
								"slot": "8",
								"type": "t_bool"
							},
							{
								"astId": 150,
								"contract": "wwcc-contracts/contracts/wwccPool.sol:WCPOOL",
								"label": "used",
								"offset": 1,
								"slot": "8",
								"type": "t_bool"
							},
							{
								"astId": 152,
								"contract": "wwcc-contracts/contracts/wwccPool.sol:WCPOOL",
								"label": "finished",
								"offset": 2,
								"slot": "8",
								"type": "t_bool"
							}
						],
						"numberOfBytes": "288"
					},
					"t_uint256": {
						"encoding": "inplace",
						"label": "uint256",
						"numberOfBytes": "32"
					}
				}
			},
			"userdoc": {
				"kind": "user",
				"methods": {},
				"version": 1
			}
		}
	}
}