{
	"wwcc-contracts/contracts/wwccPool.sol": {
		"WCPOOL": {
			"abi": [
				{
					"inputs": [
						{
							"internalType": "address",
							"name": "holder",
							"type": "address"
						},
						{
							"internalType": "uint256",
							"name": "firstBasal",
							"type": "uint256"
						}
					],
					"stateMutability": "nonpayable",
					"type": "constructor"
				},
				{
					"anonymous": false,
					"inputs": [
						{
							"indexed": false,
							"internalType": "address",
							"name": "",
							"type": "address"
						},
						{
							"indexed": false,
							"internalType": "uint256",
							"name": "",
							"type": "uint256"
						}
					],
					"name": "Received",
					"type": "event"
				},
				{
					"inputs": [
						{
							"internalType": "bytes32",
							"name": "poolKey",
							"type": "bytes32"
						},
						{
							"internalType": "uint256",
							"name": "homeScore",
							"type": "uint256"
						},
						{
							"internalType": "uint256",
							"name": "visitScore",
							"type": "uint256"
						},
						{
							"internalType": "uint256",
							"name": "result",
							"type": "uint256"
						}
					],
					"name": "Award",
					"outputs": [
						{
							"internalType": "bool",
							"name": "",
							"type": "bool"
						}
					],
					"stateMutability": "payable",
					"type": "function"
				},
				{
					"inputs": [],
					"name": "CheckBasal",
					"outputs": [
						{
							"internalType": "uint256",
							"name": "",
							"type": "uint256"
						}
					],
					"stateMutability": "view",
					"type": "function"
				},
				{
					"inputs": [
						{
							"internalType": "bytes32",
							"name": "poolKey",
							"type": "bytes32"
						}
					],
					"name": "CheckExpect",
					"outputs": [
						{
							"internalType": "uint256",
							"name": "",
							"type": "uint256"
						}
					],
					"stateMutability": "view",
					"type": "function"
				},
				{
					"inputs": [
						{
							"internalType": "address",
							"name": "joiner",
							"type": "address"
						},
						{
							"internalType": "uint256",
							"name": "weight",
							"type": "uint256"
						},
						{
							"internalType": "bytes32",
							"name": "poolKey",
							"type": "bytes32"
						},
						{
							"internalType": "uint256",
							"name": "homeScore",
							"type": "uint256"
						},
						{
							"internalType": "uint256",
							"name": "visitScore",
							"type": "uint256"
						},
						{
							"internalType": "uint256",
							"name": "kind",
							"type": "uint256"
						}
					],
					"name": "Picking",
					"outputs": [
						{
							"internalType": "bool",
							"name": "",
							"type": "bool"
						}
					],
					"stateMutability": "nonpayable",
					"type": "function"
				},
				{
					"inputs": [
						{
							"internalType": "bytes32",
							"name": "poolKey",
							"type": "bytes32"
						},
						{
							"internalType": "uint256",
							"name": "basal",
							"type": "uint256"
						}
					],
					"name": "Set_Basal",
					"outputs": [
						{
							"internalType": "bool",
							"name": "",
							"type": "bool"
						}
					],
					"stateMutability": "nonpayable",
					"type": "function"
				},
				{
					"inputs": [
						{
							"internalType": "string",
							"name": "home",
							"type": "string"
						},
						{
							"internalType": "string",
							"name": "visit",
							"type": "string"
						},
						{
							"internalType": "string",
							"name": "rounds",
							"type": "string"
						},
						{
							"internalType": "bool",
							"name": "decided",
							"type": "bool"
						}
					],
					"name": "Set_Pool",
					"outputs": [
						{
							"internalType": "bytes32",
							"name": "",
							"type": "bytes32"
						}
					],
					"stateMutability": "nonpayable",
					"type": "function"
				},
				{
					"inputs": [
						{
							"internalType": "address",
							"name": "toAddress",
							"type": "address"
						},
						{
							"internalType": "bytes32",
							"name": "poolKey",
							"type": "bytes32"
						}
					],
					"name": "Withdrawal",
					"outputs": [
						{
							"internalType": "bool",
							"name": "",
							"type": "bool"
						}
					],
					"stateMutability": "payable",
					"type": "function"
				},
				{
					"inputs": [
						{
							"internalType": "bytes32",
							"name": "poolKey",
							"type": "bytes32"
						}
					],
					"name": "getPool",
					"outputs": [
						{
							"internalType": "string",
							"name": "vs",
							"type": "string"
						},
						{
							"internalType": "string",
							"name": "rounds",
							"type": "string"
						},
						{
							"components": [
								{
									"internalType": "uint256",
									"name": "wPool",
									"type": "uint256"
								},
								{
									"internalType": "uint256",
									"name": "dPool",
									"type": "uint256"
								},
								{
									"internalType": "uint256",
									"name": "lPool",
									"type": "uint256"
								},
								{
									"internalType": "uint256",
									"name": "sPool",
									"type": "uint256"
								},
								{
									"internalType": "uint256",
									"name": "basal",
									"type": "uint256"
								}
							],
							"internalType": "struct WCPOOL.PoolViewInfo",
							"name": "viewInfo",
							"type": "tuple"
						}
					],
					"stateMutability": "view",
					"type": "function"
				},
				{
					"inputs": [
						{
							"internalType": "address",
							"name": "joiner",
							"type": "address"
						},
						{
							"internalType": "uint256",
							"name": "amount",
							"type": "uint256"
						}
					],
					"name": "voteWithdrawal",
					"outputs": [
						{
							"internalType": "bool",
							"name": "",
							"type": "bool"
						}
					],
					"stateMutability": "payable",
					"type": "function"
				},
				{
					"stateMutability": "payable",
					"type": "receive"
				}
			],
			"devdoc": {
				"kind": "dev",
				"methods": {},
				"version": 1
			},
			"evm": {
				"assembly": "    /* \"wwcc-contracts/contracts/wwccPool.sol\":96:13146  contract WCPOOL {... */\n  mstore(0x40, 0x80)\n    /* \"wwcc-contracts/contracts/wwccPool.sol\":1726:1926  constructor(... */\n  callvalue\n  dup1\n  iszero\n  tag_1\n  jumpi\n  0x00\n  dup1\n  revert\ntag_1:\n  pop\n  mload(0x40)\n  sub(codesize, bytecodeSize)\n  dup1\n  bytecodeSize\n  dup4\n  codecopy\n  dup2\n  dup2\n  add\n  0x40\n  mstore\n  dup2\n  add\n  swap1\n  tag_2\n  swap2\n  swap1\n  tag_3\n  jump\t// in\ntag_2:\n    /* \"wwcc-contracts/contracts/wwccPool.sol\":1807:1813  holder */\n  dup2\n    /* \"wwcc-contracts/contracts/wwccPool.sol\":1799:1804  owner */\n  0x00\n  dup1\n    /* \"wwcc-contracts/contracts/wwccPool.sol\":1799:1813  owner = holder */\n  0x0100\n  exp\n  dup2\n  sload\n  dup2\n  0xffffffffffffffffffffffffffffffffffffffff\n  mul\n  not\n  and\n  swap1\n  dup4\n  0xffffffffffffffffffffffffffffffffffffffff\n  and\n  mul\n  or\n  swap1\n  sstore\n  pop\n    /* \"wwcc-contracts/contracts/wwccPool.sol\":1839:1849  firstBasal */\n  dup1\n    /* \"wwcc-contracts/contracts/wwccPool.sol\":1823:1836  nextBasalLast */\n  0x01\n    /* \"wwcc-contracts/contracts/wwccPool.sol\":1823:1849  nextBasalLast = firstBasal */\n  dup2\n  swap1\n  sstore\n  pop\n    /* \"wwcc-contracts/contracts/wwccPool.sol\":1726:1926  constructor(... */\n  pop\n  pop\n    /* \"wwcc-contracts/contracts/wwccPool.sol\":96:13146  contract WCPOOL {... */\n  jump(tag_6)\n    /* \"#utility.yul\":7:150   */\ntag_8:\n    /* \"#utility.yul\":64:69   */\n  0x00\n    /* \"#utility.yul\":95:101   */\n  dup2\n    /* \"#utility.yul\":89:102   */\n  mload\n    /* \"#utility.yul\":80:102   */\n  swap1\n  pop\n    /* \"#utility.yul\":111:144   */\n  tag_10\n    /* \"#utility.yul\":138:143   */\n  dup2\n    /* \"#utility.yul\":111:144   */\n  tag_11\n  jump\t// in\ntag_10:\n    /* \"#utility.yul\":7:150   */\n  swap3\n  swap2\n  pop\n  pop\n  jump\t// out\n    /* \"#utility.yul\":156:299   */\ntag_12:\n    /* \"#utility.yul\":213:218   */\n  0x00\n    /* \"#utility.yul\":244:250   */\n  dup2\n    /* \"#utility.yul\":238:251   */\n  mload\n    /* \"#utility.yul\":229:251   */\n  swap1\n  pop\n    /* \"#utility.yul\":260:293   */\n  tag_14\n    /* \"#utility.yul\":287:292   */\n  dup2\n    /* \"#utility.yul\":260:293   */\n  tag_15\n  jump\t// in\ntag_14:\n    /* \"#utility.yul\":156:299   */\n  swap3\n  swap2\n  pop\n  pop\n  jump\t// out\n    /* \"#utility.yul\":305:812   */\ntag_3:\n    /* \"#utility.yul\":384:390   */\n  0x00\n    /* \"#utility.yul\":392:398   */\n  dup1\n    /* \"#utility.yul\":441:443   */\n  0x40\n    /* \"#utility.yul\":429:438   */\n  dup4\n    /* \"#utility.yul\":420:427   */\n  dup6\n    /* \"#utility.yul\":416:439   */\n  sub\n    /* \"#utility.yul\":412:444   */\n  slt\n    /* \"#utility.yul\":409:528   */\n  iszero\n  tag_17\n  jumpi\n    /* \"#utility.yul\":447:526   */\n  tag_18\n  tag_19\n  jump\t// in\ntag_18:\n    /* \"#utility.yul\":409:528   */\ntag_17:\n    /* \"#utility.yul\":567:568   */\n  0x00\n    /* \"#utility.yul\":592:656   */\n  tag_20\n    /* \"#utility.yul\":648:655   */\n  dup6\n    /* \"#utility.yul\":639:645   */\n  dup3\n    /* \"#utility.yul\":628:637   */\n  dup7\n    /* \"#utility.yul\":624:646   */\n  add\n    /* \"#utility.yul\":592:656   */\n  tag_8\n  jump\t// in\ntag_20:\n    /* \"#utility.yul\":582:656   */\n  swap3\n  pop\n    /* \"#utility.yul\":538:666   */\n  pop\n    /* \"#utility.yul\":705:707   */\n  0x20\n    /* \"#utility.yul\":731:795   */\n  tag_21\n    /* \"#utility.yul\":787:794   */\n  dup6\n    /* \"#utility.yul\":778:784   */\n  dup3\n    /* \"#utility.yul\":767:776   */\n  dup7\n    /* \"#utility.yul\":763:785   */\n  add\n    /* \"#utility.yul\":731:795   */\n  tag_12\n  jump\t// in\ntag_21:\n    /* \"#utility.yul\":721:795   */\n  swap2\n  pop\n    /* \"#utility.yul\":676:805   */\n  pop\n    /* \"#utility.yul\":305:812   */\n  swap3\n  pop\n  swap3\n  swap1\n  pop\n  jump\t// out\n    /* \"#utility.yul\":899:995   */\ntag_24:\n    /* \"#utility.yul\":936:943   */\n  0x00\n    /* \"#utility.yul\":965:989   */\n  tag_26\n    /* \"#utility.yul\":983:988   */\n  dup3\n    /* \"#utility.yul\":965:989   */\n  tag_27\n  jump\t// in\ntag_26:\n    /* \"#utility.yul\":954:989   */\n  swap1\n  pop\n    /* \"#utility.yul\":899:995   */\n  swap2\n  swap1\n  pop\n  jump\t// out\n    /* \"#utility.yul\":1001:1127   */\ntag_27:\n    /* \"#utility.yul\":1038:1045   */\n  0x00\n    /* \"#utility.yul\":1078:1120   */\n  0xffffffffffffffffffffffffffffffffffffffff\n    /* \"#utility.yul\":1071:1076   */\n  dup3\n    /* \"#utility.yul\":1067:1121   */\n  and\n    /* \"#utility.yul\":1056:1121   */\n  swap1\n  pop\n    /* \"#utility.yul\":1001:1127   */\n  swap2\n  swap1\n  pop\n  jump\t// out\n    /* \"#utility.yul\":1133:1210   */\ntag_29:\n    /* \"#utility.yul\":1170:1177   */\n  0x00\n    /* \"#utility.yul\":1199:1204   */\n  dup2\n    /* \"#utility.yul\":1188:1204   */\n  swap1\n  pop\n    /* \"#utility.yul\":1133:1210   */\n  swap2\n  swap1\n  pop\n  jump\t// out\n    /* \"#utility.yul\":1339:1456   */\ntag_19:\n    /* \"#utility.yul\":1448:1449   */\n  0x00\n    /* \"#utility.yul\":1445:1446   */\n  dup1\n    /* \"#utility.yul\":1438:1450   */\n  revert\n    /* \"#utility.yul\":1462:1584   */\ntag_11:\n    /* \"#utility.yul\":1535:1559   */\n  tag_35\n    /* \"#utility.yul\":1553:1558   */\n  dup2\n    /* \"#utility.yul\":1535:1559   */\n  tag_24\n  jump\t// in\ntag_35:\n    /* \"#utility.yul\":1528:1533   */\n  dup2\n    /* \"#utility.yul\":1525:1560   */\n  eq\n    /* \"#utility.yul\":1515:1578   */\n  tag_36\n  jumpi\n    /* \"#utility.yul\":1574:1575   */\n  0x00\n    /* \"#utility.yul\":1571:1572   */\n  dup1\n    /* \"#utility.yul\":1564:1576   */\n  revert\n    /* \"#utility.yul\":1515:1578   */\ntag_36:\n    /* \"#utility.yul\":1462:1584   */\n  pop\n  jump\t// out\n    /* \"#utility.yul\":1590:1712   */\ntag_15:\n    /* \"#utility.yul\":1663:1687   */\n  tag_38\n    /* \"#utility.yul\":1681:1686   */\n  dup2\n    /* \"#utility.yul\":1663:1687   */\n  tag_29\n  jump\t// in\ntag_38:\n    /* \"#utility.yul\":1656:1661   */\n  dup2\n    /* \"#utility.yul\":1653:1688   */\n  eq\n    /* \"#utility.yul\":1643:1706   */\n  tag_39\n  jumpi\n    /* \"#utility.yul\":1702:1703   */\n  0x00\n    /* \"#utility.yul\":1699:1700   */\n  dup1\n    /* \"#utility.yul\":1692:1704   */\n  revert\n    /* \"#utility.yul\":1643:1706   */\ntag_39:\n    /* \"#utility.yul\":1590:1712   */\n  pop\n  jump\t// out\n    /* \"wwcc-contracts/contracts/wwccPool.sol\":96:13146  contract WCPOOL {... */\ntag_6:\n  dataSize(sub_0)\n  dup1\n  dataOffset(sub_0)\n  0x00\n  codecopy\n  0x00\n  return\nstop\n\nsub_0: assembly {\n        /* \"wwcc-contracts/contracts/wwccPool.sol\":96:13146  contract WCPOOL {... */\n      mstore(0x40, 0x80)\n      jumpi(tag_1, lt(calldatasize, 0x04))\n      shr(0xe0, calldataload(0x00))\n      dup1\n      0x4121855f\n      gt\n      tag_12\n      jumpi\n      dup1\n      0x4121855f\n      eq\n      tag_7\n      jumpi\n      dup1\n      0x47e4dd27\n      eq\n      tag_8\n      jumpi\n      dup1\n      0x74fe9bc2\n      eq\n      tag_9\n      jumpi\n      dup1\n      0x9bd0abf1\n      eq\n      tag_10\n      jumpi\n      dup1\n      0xf6c00927\n      eq\n      tag_11\n      jumpi\n      jump(tag_2)\n    tag_12:\n      dup1\n      0x0ce49053\n      eq\n      tag_3\n      jumpi\n      dup1\n      0x2bf21ecc\n      eq\n      tag_4\n      jumpi\n      dup1\n      0x357965ba\n      eq\n      tag_5\n      jumpi\n      dup1\n      0x3e6ff1a2\n      eq\n      tag_6\n      jumpi\n      jump(tag_2)\n    tag_1:\n      jumpi(tag_2, calldatasize)\n        /* \"wwcc-contracts/contracts/wwccPool.sol\":13007:13012  owner */\n      0x00\n      dup1\n      sload\n      swap1\n      0x0100\n      exp\n      swap1\n      div\n      0xffffffffffffffffffffffffffffffffffffffff\n      and\n        /* \"wwcc-contracts/contracts/wwccPool.sol\":12993:13012  msg.sender != owner */\n      0xffffffffffffffffffffffffffffffffffffffff\n      and\n        /* \"wwcc-contracts/contracts/wwccPool.sol\":12993:13003  msg.sender */\n      caller\n        /* \"wwcc-contracts/contracts/wwccPool.sol\":12993:13012  msg.sender != owner */\n      0xffffffffffffffffffffffffffffffffffffffff\n      and\n      eq\n        /* \"wwcc-contracts/contracts/wwccPool.sol\":12990:13139  if(msg.sender != owner){... */\n      tag_15\n      jumpi\n        /* \"wwcc-contracts/contracts/wwccPool.sol\":13052:13061  msg.value */\n      callvalue\n        /* \"wwcc-contracts/contracts/wwccPool.sol\":13026:13036  voteAmount */\n      0x02\n        /* \"wwcc-contracts/contracts/wwccPool.sol\":13026:13048  voteAmount[msg.sender] */\n      0x00\n        /* \"wwcc-contracts/contracts/wwccPool.sol\":13037:13047  msg.sender */\n      caller\n        /* \"wwcc-contracts/contracts/wwccPool.sol\":13026:13048  voteAmount[msg.sender] */\n      0xffffffffffffffffffffffffffffffffffffffff\n      and\n      0xffffffffffffffffffffffffffffffffffffffff\n      and\n      dup2\n      mstore\n      0x20\n      add\n      swap1\n      dup2\n      mstore\n      0x20\n      add\n      0x00\n      keccak256\n      0x00\n        /* \"wwcc-contracts/contracts/wwccPool.sol\":13026:13061  voteAmount[msg.sender] += msg.value */\n      dup3\n      dup3\n      sload\n      tag_16\n      swap2\n      swap1\n      tag_17\n      jump\t// in\n    tag_16:\n      swap3\n      pop\n      pop\n      dup2\n      swap1\n      sstore\n      pop\n        /* \"wwcc-contracts/contracts/wwccPool.sol\":13079:13110  Received(msg.sender, msg.value) */\n      0x88a5966d370b9919b20f3e2c13ff65706f196a4e32cc2c12bf57088f88525874\n        /* \"wwcc-contracts/contracts/wwccPool.sol\":13088:13098  msg.sender */\n      caller\n        /* \"wwcc-contracts/contracts/wwccPool.sol\":13100:13109  msg.value */\n      callvalue\n        /* \"wwcc-contracts/contracts/wwccPool.sol\":13079:13110  Received(msg.sender, msg.value) */\n      mload(0x40)\n      tag_18\n      swap3\n      swap2\n      swap1\n      tag_19\n      jump\t// in\n    tag_18:\n      mload(0x40)\n      dup1\n      swap2\n      sub\n      swap1\n      log1\n        /* \"wwcc-contracts/contracts/wwccPool.sol\":12990:13139  if(msg.sender != owner){... */\n      jump(tag_20)\n    tag_15:\n    tag_20:\n        /* \"wwcc-contracts/contracts/wwccPool.sol\":96:13146  contract WCPOOL {... */\n      stop\n    tag_2:\n      0x00\n      dup1\n      revert\n        /* \"wwcc-contracts/contracts/wwccPool.sol\":4826:5505  function Withdrawal(address toAddress,bytes32 poolKey) external onlyManager payable returns (bool){... */\n    tag_3:\n      tag_21\n      0x04\n      dup1\n      calldatasize\n      sub\n      dup2\n      add\n      swap1\n      tag_22\n      swap2\n      swap1\n      tag_23\n      jump\t// in\n    tag_22:\n      tag_24\n      jump\t// in\n    tag_21:\n      mload(0x40)\n      tag_25\n      swap2\n      swap1\n      tag_26\n      jump\t// in\n    tag_25:\n      mload(0x40)\n      dup1\n      swap2\n      sub\n      swap1\n      return\n        /* \"wwcc-contracts/contracts/wwccPool.sol\":4261:4783  function Set_Basal(bytes32 poolKey,uint256 basal) external onlyManager  returns (bool){... */\n    tag_4:\n      callvalue\n      dup1\n      iszero\n      tag_27\n      jumpi\n      0x00\n      dup1\n      revert\n    tag_27:\n      pop\n      tag_28\n      0x04\n      dup1\n      calldatasize\n      sub\n      dup2\n      add\n      swap1\n      tag_29\n      swap2\n      swap1\n      tag_30\n      jump\t// in\n    tag_29:\n      tag_31\n      jump\t// in\n    tag_28:\n      mload(0x40)\n      tag_32\n      swap2\n      swap1\n      tag_26\n      jump\t// in\n    tag_32:\n      mload(0x40)\n      dup1\n      swap2\n      sub\n      swap1\n      return\n        /* \"wwcc-contracts/contracts/wwccPool.sol\":1968:2857  function Set_Pool(... */\n    tag_5:\n      callvalue\n      dup1\n      iszero\n      tag_33\n      jumpi\n      0x00\n      dup1\n      revert\n    tag_33:\n      pop\n      tag_34\n      0x04\n      dup1\n      calldatasize\n      sub\n      dup2\n      add\n      swap1\n      tag_35\n      swap2\n      swap1\n      tag_36\n      jump\t// in\n    tag_35:\n      tag_37\n      jump\t// in\n    tag_34:\n      mload(0x40)\n      tag_38\n      swap2\n      swap1\n      tag_39\n      jump\t// in\n    tag_38:\n      mload(0x40)\n      dup1\n      swap2\n      sub\n      swap1\n      return\n        /* \"wwcc-contracts/contracts/wwccPool.sol\":6441:6547  function CheckBasal() external onlyManager view  returns (uint256){... */\n    tag_6:\n      callvalue\n      dup1\n      iszero\n      tag_40\n      jumpi\n      0x00\n      dup1\n      revert\n    tag_40:\n      pop\n      tag_41\n      tag_42\n      jump\t// in\n    tag_41:\n      mload(0x40)\n      tag_43\n      swap2\n      swap1\n      tag_44\n      jump\t// in\n    tag_43:\n      mload(0x40)\n      dup1\n      swap2\n      sub\n      swap1\n      return\n        /* \"wwcc-contracts/contracts/wwccPool.sol\":6021:6379  function CheckExpect(bytes32 poolKey) external onlyManager view  returns (uint256){... */\n    tag_7:\n      callvalue\n      dup1\n      iszero\n      tag_45\n      jumpi\n      0x00\n      dup1\n      revert\n    tag_45:\n      pop\n      tag_46\n      0x04\n      dup1\n      calldatasize\n      sub\n      dup2\n      add\n      swap1\n      tag_47\n      swap2\n      swap1\n      tag_48\n      jump\t// in\n    tag_47:\n      tag_49\n      jump\t// in\n    tag_46:\n      mload(0x40)\n      tag_50\n      swap2\n      swap1\n      tag_44\n      jump\t// in\n    tag_50:\n      mload(0x40)\n      dup1\n      swap2\n      sub\n      swap1\n      return\n        /* \"wwcc-contracts/contracts/wwccPool.sol\":2880:4206  function Picking(address joiner,uint256 weight,bytes32 poolKey,uint256 homeScore,uint256 visitScore,uint256 kind) external returns(bool){... */\n    tag_8:\n      callvalue\n      dup1\n      iszero\n      tag_51\n      jumpi\n      0x00\n      dup1\n      revert\n    tag_51:\n      pop\n      tag_52\n      0x04\n      dup1\n      calldatasize\n      sub\n      dup2\n      add\n      swap1\n      tag_53\n      swap2\n      swap1\n      tag_54\n      jump\t// in\n    tag_53:\n      tag_55\n      jump\t// in\n    tag_52:\n      mload(0x40)\n      tag_56\n      swap2\n      swap1\n      tag_26\n      jump\t// in\n    tag_56:\n      mload(0x40)\n      dup1\n      swap2\n      sub\n      swap1\n      return\n        /* \"wwcc-contracts/contracts/wwccPool.sol\":6618:10075  function Award(bytes32 poolKey,uint256 homeScore,uint256 visitScore,uint256 result)  external onlyManager  payable returns(bool){... */\n    tag_9:\n      tag_57\n      0x04\n      dup1\n      calldatasize\n      sub\n      dup2\n      add\n      swap1\n      tag_58\n      swap2\n      swap1\n      tag_59\n      jump\t// in\n    tag_58:\n      tag_60\n      jump\t// in\n    tag_57:\n      mload(0x40)\n      tag_61\n      swap2\n      swap1\n      tag_26\n      jump\t// in\n    tag_61:\n      mload(0x40)\n      dup1\n      swap2\n      sub\n      swap1\n      return\n        /* \"wwcc-contracts/contracts/wwccPool.sol\":5566:5956  function voteWithdrawal(address joiner,uint256 amount) external onlyManager payable returns (bool){... */\n    tag_10:\n      tag_62\n      0x04\n      dup1\n      calldatasize\n      sub\n      dup2\n      add\n      swap1\n      tag_63\n      swap2\n      swap1\n      tag_64\n      jump\t// in\n    tag_63:\n      tag_65\n      jump\t// in\n    tag_62:\n      mload(0x40)\n      tag_66\n      swap2\n      swap1\n      tag_26\n      jump\t// in\n    tag_66:\n      mload(0x40)\n      dup1\n      swap2\n      sub\n      swap1\n      return\n        /* \"wwcc-contracts/contracts/wwccPool.sol\":10125:10773  function getPool(bytes32 poolKey) external view returns (string memory vs,string memory rounds,PoolViewInfo memory viewInfo){... */\n    tag_11:\n      callvalue\n      dup1\n      iszero\n      tag_67\n      jumpi\n      0x00\n      dup1\n      revert\n    tag_67:\n      pop\n      tag_68\n      0x04\n      dup1\n      calldatasize\n      sub\n      dup2\n      add\n      swap1\n      tag_69\n      swap2\n      swap1\n      tag_48\n      jump\t// in\n    tag_69:\n      tag_70\n      jump\t// in\n    tag_68:\n      mload(0x40)\n      tag_71\n      swap4\n      swap3\n      swap2\n      swap1\n      tag_72\n      jump\t// in\n    tag_71:\n      mload(0x40)\n      dup1\n      swap2\n      sub\n      swap1\n      return\n        /* \"wwcc-contracts/contracts/wwccPool.sol\":4826:5505  function Withdrawal(address toAddress,bytes32 poolKey) external onlyManager payable returns (bool){... */\n    tag_24:\n        /* \"wwcc-contracts/contracts/wwccPool.sol\":4919:4923  bool */\n      0x00\n        /* \"wwcc-contracts/contracts/wwccPool.sol\":12823:12828  owner */\n      dup1\n      0x00\n      swap1\n      sload\n      swap1\n      0x0100\n      exp\n      swap1\n      div\n      0xffffffffffffffffffffffffffffffffffffffff\n      and\n        /* \"wwcc-contracts/contracts/wwccPool.sol\":12809:12828  msg.sender == owner */\n      0xffffffffffffffffffffffffffffffffffffffff\n      and\n        /* \"wwcc-contracts/contracts/wwccPool.sol\":12809:12819  msg.sender */\n      caller\n        /* \"wwcc-contracts/contracts/wwccPool.sol\":12809:12828  msg.sender == owner */\n      0xffffffffffffffffffffffffffffffffffffffff\n      and\n      eq\n        /* \"wwcc-contracts/contracts/wwccPool.sol\":12788:12879  require(... */\n      tag_74\n      jumpi\n      mload(0x40)\n      0x08c379a000000000000000000000000000000000000000000000000000000000\n      dup2\n      mstore\n      0x04\n      add\n      tag_75\n      swap1\n      tag_76\n      jump\t// in\n    tag_75:\n      mload(0x40)\n      dup1\n      swap2\n      sub\n      swap1\n      revert\n    tag_74:\n        /* \"wwcc-contracts/contracts/wwccPool.sol\":4941:4958  contains(poolKey) */\n      tag_78\n        /* \"wwcc-contracts/contracts/wwccPool.sol\":4950:4957  poolKey */\n      dup3\n        /* \"wwcc-contracts/contracts/wwccPool.sol\":4941:4949  contains */\n      tag_79\n        /* \"wwcc-contracts/contracts/wwccPool.sol\":4941:4958  contains(poolKey) */\n      jump\t// in\n    tag_78:\n        /* \"wwcc-contracts/contracts/wwccPool.sol\":4937:5475  if(!contains(poolKey)) { ... */\n      tag_80\n      jumpi\n        /* \"wwcc-contracts/contracts/wwccPool.sol\":4979:5003  revert(\"pool not exist\") */\n      mload(0x40)\n      0x08c379a000000000000000000000000000000000000000000000000000000000\n      dup2\n      mstore\n      0x04\n      add\n      tag_81\n      swap1\n      tag_82\n      jump\t// in\n    tag_81:\n      mload(0x40)\n      dup1\n      swap2\n      sub\n      swap1\n      revert\n        /* \"wwcc-contracts/contracts/wwccPool.sol\":4937:5475  if(!contains(poolKey)) { ... */\n    tag_80:\n        /* \"wwcc-contracts/contracts/wwccPool.sol\":5039:5057  WcPool memory pool */\n      0x00\n        /* \"wwcc-contracts/contracts/wwccPool.sol\":5060:5067  WcPools */\n      0x03\n        /* \"wwcc-contracts/contracts/wwccPool.sol\":5060:5076  WcPools[poolKey] */\n      0x00\n        /* \"wwcc-contracts/contracts/wwccPool.sol\":5068:5075  poolKey */\n      dup5\n        /* \"wwcc-contracts/contracts/wwccPool.sol\":5060:5076  WcPools[poolKey] */\n      dup2\n      mstore\n      0x20\n      add\n      swap1\n      dup2\n      mstore\n      0x20\n      add\n      0x00\n      keccak256\n        /* \"wwcc-contracts/contracts/wwccPool.sol\":5039:5076  WcPool memory pool = WcPools[poolKey] */\n      mload(0x40)\n      dup1\n      0x0160\n      add\n      0x40\n      mstore\n      swap1\n      dup2\n      0x00\n      dup3\n      add\n      dup1\n      sload\n      tag_84\n      swap1\n      tag_85\n      jump\t// in\n    tag_84:\n      dup1\n      0x1f\n      add\n      0x20\n      dup1\n      swap2\n      div\n      mul\n      0x20\n      add\n      mload(0x40)\n      swap1\n      dup2\n      add\n      0x40\n      mstore\n      dup1\n      swap3\n      swap2\n      swap1\n      dup2\n      dup2\n      mstore\n      0x20\n      add\n      dup3\n      dup1\n      sload\n      tag_86\n      swap1\n      tag_85\n      jump\t// in\n    tag_86:\n      dup1\n      iszero\n      tag_87\n      jumpi\n      dup1\n      0x1f\n      lt\n      tag_88\n      jumpi\n      0x0100\n      dup1\n      dup4\n      sload\n      div\n      mul\n      dup4\n      mstore\n      swap2\n      0x20\n      add\n      swap2\n      jump(tag_87)\n    tag_88:\n      dup3\n      add\n      swap2\n      swap1\n      0x00\n      mstore\n      keccak256(0x00, 0x20)\n      swap1\n    tag_89:\n      dup2\n      sload\n      dup2\n      mstore\n      swap1\n      0x01\n      add\n      swap1\n      0x20\n      add\n      dup1\n      dup4\n      gt\n      tag_89\n      jumpi\n      dup3\n      swap1\n      sub\n      0x1f\n      and\n      dup3\n      add\n      swap2\n    tag_87:\n      pop\n      pop\n      pop\n      pop\n      pop\n      dup2\n      mstore\n      0x20\n      add\n      0x01\n      dup3\n      add\n      dup1\n      sload\n      tag_90\n      swap1\n      tag_85\n      jump\t// in\n    tag_90:\n      dup1\n      0x1f\n      add\n      0x20\n      dup1\n      swap2\n      div\n      mul\n      0x20\n      add\n      mload(0x40)\n      swap1\n      dup2\n      add\n      0x40\n      mstore\n      dup1\n      swap3\n      swap2\n      swap1\n      dup2\n      dup2\n      mstore\n      0x20\n      add\n      dup3\n      dup1\n      sload\n      tag_91\n      swap1\n      tag_85\n      jump\t// in\n    tag_91:\n      dup1\n      iszero\n      tag_92\n      jumpi\n      dup1\n      0x1f\n      lt\n      tag_93\n      jumpi\n      0x0100\n      dup1\n      dup4\n      sload\n      div\n      mul\n      dup4\n      mstore\n      swap2\n      0x20\n      add\n      swap2\n      jump(tag_92)\n    tag_93:\n      dup3\n      add\n      swap2\n      swap1\n      0x00\n      mstore\n      keccak256(0x00, 0x20)\n      swap1\n    tag_94:\n      dup2\n      sload\n      dup2\n      mstore\n      swap1\n      0x01\n      add\n      swap1\n      0x20\n      add\n      dup1\n      dup4\n      gt\n      tag_94\n      jumpi\n      dup3\n      swap1\n      sub\n      0x1f\n      and\n      dup3\n      add\n      swap2\n    tag_92:\n      pop\n      pop\n      pop\n      pop\n      pop\n      dup2\n      mstore\n      0x20\n      add\n      0x02\n      dup3\n      add\n      dup1\n      sload\n      tag_95\n      swap1\n      tag_85\n      jump\t// in\n    tag_95:\n      dup1\n      0x1f\n      add\n      0x20\n      dup1\n      swap2\n      div\n      mul\n      0x20\n      add\n      mload(0x40)\n      swap1\n      dup2\n      add\n      0x40\n      mstore\n      dup1\n      swap3\n      swap2\n      swap1\n      dup2\n      dup2\n      mstore\n      0x20\n      add\n      dup3\n      dup1\n      sload\n      tag_96\n      swap1\n      tag_85\n      jump\t// in\n    tag_96:\n      dup1\n      iszero\n      tag_97\n      jumpi\n      dup1\n      0x1f\n      lt\n      tag_98\n      jumpi\n      0x0100\n      dup1\n      dup4\n      sload\n      div\n      mul\n      dup4\n      mstore\n      swap2\n      0x20\n      add\n      swap2\n      jump(tag_97)\n    tag_98:\n      dup3\n      add\n      swap2\n      swap1\n      0x00\n      mstore\n      keccak256(0x00, 0x20)\n      swap1\n    tag_99:\n      dup2\n      sload\n      dup2\n      mstore\n      swap1\n      0x01\n      add\n      swap1\n      0x20\n      add\n      dup1\n      dup4\n      gt\n      tag_99\n      jumpi\n      dup3\n      swap1\n      sub\n      0x1f\n      and\n      dup3\n      add\n      swap2\n    tag_97:\n      pop\n      pop\n      pop\n      pop\n      pop\n      dup2\n      mstore\n      0x20\n      add\n      0x03\n      dup3\n      add\n      sload\n      dup2\n      mstore\n      0x20\n      add\n      0x04\n      dup3\n      add\n      sload\n      dup2\n      mstore\n      0x20\n      add\n      0x05\n      dup3\n      add\n      sload\n      dup2\n      mstore\n      0x20\n      add\n      0x06\n      dup3\n      add\n      sload\n      dup2\n      mstore\n      0x20\n      add\n      0x07\n      dup3\n      add\n      sload\n      dup2\n      mstore\n      0x20\n      add\n      0x08\n      dup3\n      add\n      0x00\n      swap1\n      sload\n      swap1\n      0x0100\n      exp\n      swap1\n      div\n      0xff\n      and\n      iszero\n      iszero\n      iszero\n      iszero\n      dup2\n      mstore\n      0x20\n      add\n      0x08\n      dup3\n      add\n      0x01\n      swap1\n      sload\n      swap1\n      0x0100\n      exp\n      swap1\n      div\n      0xff\n      and\n      iszero\n      iszero\n      iszero\n      iszero\n      dup2\n      mstore\n      0x20\n      add\n      0x08\n      dup3\n      add\n      0x02\n      swap1\n      sload\n      swap1\n      0x0100\n      exp\n      swap1\n      div\n      0xff\n      and\n      iszero\n      iszero\n      iszero\n      iszero\n      dup2\n      mstore\n      pop\n      pop\n      swap1\n      pop\n        /* \"wwcc-contracts/contracts/wwccPool.sol\":5094:5108  uint256 expect */\n      0x00\n        /* \"wwcc-contracts/contracts/wwccPool.sol\":5111:5177  (pool.wPool+pool.lPool+pool.dPool+pool.sPool + pool.basal).div(10) */\n      tag_100\n        /* \"wwcc-contracts/contracts/wwccPool.sol\":5174:5176  10 */\n      0x0a\n        /* \"wwcc-contracts/contracts/wwccPool.sol\":5158:5162  pool */\n      dup4\n        /* \"wwcc-contracts/contracts/wwccPool.sol\":5158:5168  pool.basal */\n      0xe0\n      add\n      mload\n        /* \"wwcc-contracts/contracts/wwccPool.sol\":5145:5149  pool */\n      dup5\n        /* \"wwcc-contracts/contracts/wwccPool.sol\":5145:5155  pool.sPool */\n      0xc0\n      add\n      mload\n        /* \"wwcc-contracts/contracts/wwccPool.sol\":5134:5138  pool */\n      dup6\n        /* \"wwcc-contracts/contracts/wwccPool.sol\":5134:5144  pool.dPool */\n      0x80\n      add\n      mload\n        /* \"wwcc-contracts/contracts/wwccPool.sol\":5123:5127  pool */\n      dup7\n        /* \"wwcc-contracts/contracts/wwccPool.sol\":5123:5133  pool.lPool */\n      0xa0\n      add\n      mload\n        /* \"wwcc-contracts/contracts/wwccPool.sol\":5112:5116  pool */\n      dup8\n        /* \"wwcc-contracts/contracts/wwccPool.sol\":5112:5122  pool.wPool */\n      0x60\n      add\n      mload\n        /* \"wwcc-contracts/contracts/wwccPool.sol\":5112:5133  pool.wPool+pool.lPool */\n      tag_101\n      swap2\n      swap1\n      tag_17\n      jump\t// in\n    tag_101:\n        /* \"wwcc-contracts/contracts/wwccPool.sol\":5112:5144  pool.wPool+pool.lPool+pool.dPool */\n      tag_102\n      swap2\n      swap1\n      tag_17\n      jump\t// in\n    tag_102:\n        /* \"wwcc-contracts/contracts/wwccPool.sol\":5112:5155  pool.wPool+pool.lPool+pool.dPool+pool.sPool */\n      tag_103\n      swap2\n      swap1\n      tag_17\n      jump\t// in\n    tag_103:\n        /* \"wwcc-contracts/contracts/wwccPool.sol\":5112:5168  pool.wPool+pool.lPool+pool.dPool+pool.sPool + pool.basal */\n      tag_104\n      swap2\n      swap1\n      tag_17\n      jump\t// in\n    tag_104:\n        /* \"wwcc-contracts/contracts/wwccPool.sol\":5111:5173  (pool.wPool+pool.lPool+pool.dPool+pool.sPool + pool.basal).div */\n      tag_105\n      swap1\n        /* \"wwcc-contracts/contracts/wwccPool.sol\":5111:5177  (pool.wPool+pool.lPool+pool.dPool+pool.sPool + pool.basal).div(10) */\n      swap2\n      swap1\n      0xffffffff\n      and\n      jump\t// in\n    tag_100:\n        /* \"wwcc-contracts/contracts/wwccPool.sol\":5094:5177  uint256 expect = (pool.wPool+pool.lPool+pool.dPool+pool.sPool + pool.basal).div(10) */\n      swap1\n      pop\n        /* \"wwcc-contracts/contracts/wwccPool.sol\":5215:5219  true */\n      0x01\n        /* \"wwcc-contracts/contracts/wwccPool.sol\":5199:5203  pool */\n      dup3\n        /* \"wwcc-contracts/contracts/wwccPool.sol\":5199:5212  pool.finished */\n      0x0140\n      add\n        /* \"wwcc-contracts/contracts/wwccPool.sol\":5199:5219  pool.finished = true */\n      swap1\n      iszero\n      iszero\n      swap1\n      dup2\n      iszero\n      iszero\n      dup2\n      mstore\n      pop\n        /* \"wwcc-contracts/contracts/wwccPool.sol\":5195:5447  if (pool.finished = true){... */\n      iszero\n      tag_106\n      jumpi\n        /* \"wwcc-contracts/contracts/wwccPool.sol\":5242:5275  address payable toAddress_address */\n      0x00\n        /* \"wwcc-contracts/contracts/wwccPool.sol\":5286:5295  toAddress */\n      dup6\n        /* \"wwcc-contracts/contracts/wwccPool.sol\":5242:5296  address payable toAddress_address = payable(toAddress) */\n      swap1\n      pop\n        /* \"wwcc-contracts/contracts/wwccPool.sol\":5318:5335  toAddress_address */\n      dup1\n        /* \"wwcc-contracts/contracts/wwccPool.sol\":5318:5344  toAddress_address.transfer */\n      0xffffffffffffffffffffffffffffffffffffffff\n      and\n        /* \"wwcc-contracts/contracts/wwccPool.sol\":5318:5352  toAddress_address.transfer(expect) */\n      0x08fc\n        /* \"wwcc-contracts/contracts/wwccPool.sol\":5345:5351  expect */\n      dup4\n        /* \"wwcc-contracts/contracts/wwccPool.sol\":5318:5352  toAddress_address.transfer(expect) */\n      swap1\n      dup2\n      iszero\n      mul\n      swap1\n      mload(0x40)\n      0x00\n      mload(0x40)\n      dup1\n      dup4\n      sub\n      dup2\n      dup6\n      dup9\n      dup9\n      call\n      swap4\n      pop\n      pop\n      pop\n      pop\n      iszero\n      dup1\n      iszero\n      tag_108\n      jumpi\n      returndatasize\n      0x00\n      dup1\n      returndatacopy\n      revert(0x00, returndatasize)\n    tag_108:\n      pop\n        /* \"wwcc-contracts/contracts/wwccPool.sol\":5220:5371  {... */\n      pop\n        /* \"wwcc-contracts/contracts/wwccPool.sol\":5195:5447  if (pool.finished = true){... */\n      jump(tag_109)\n    tag_106:\n        /* \"wwcc-contracts/contracts/wwccPool.sol\":5397:5428  revert(\"pool has not finished\") */\n      mload(0x40)\n      0x08c379a000000000000000000000000000000000000000000000000000000000\n      dup2\n      mstore\n      0x04\n      add\n      tag_110\n      swap1\n      tag_111\n      jump\t// in\n    tag_110:\n      mload(0x40)\n      dup1\n      swap2\n      sub\n      swap1\n      revert\n        /* \"wwcc-contracts/contracts/wwccPool.sol\":5195:5447  if (pool.finished = true){... */\n    tag_109:\n        /* \"wwcc-contracts/contracts/wwccPool.sol\":5021:5475  {... */\n      pop\n      pop\n        /* \"wwcc-contracts/contracts/wwccPool.sol\":5494:5498  true */\n      0x01\n        /* \"wwcc-contracts/contracts/wwccPool.sol\":5487:5498  return true */\n      swap1\n      pop\n        /* \"wwcc-contracts/contracts/wwccPool.sol\":4826:5505  function Withdrawal(address toAddress,bytes32 poolKey) external onlyManager payable returns (bool){... */\n      swap3\n      swap2\n      pop\n      pop\n      jump\t// out\n        /* \"wwcc-contracts/contracts/wwccPool.sol\":4261:4783  function Set_Basal(bytes32 poolKey,uint256 basal) external onlyManager  returns (bool){... */\n    tag_31:\n        /* \"wwcc-contracts/contracts/wwccPool.sol\":4342:4346  bool */\n      0x00\n        /* \"wwcc-contracts/contracts/wwccPool.sol\":12823:12828  owner */\n      dup1\n      0x00\n      swap1\n      sload\n      swap1\n      0x0100\n      exp\n      swap1\n      div\n      0xffffffffffffffffffffffffffffffffffffffff\n      and\n        /* \"wwcc-contracts/contracts/wwccPool.sol\":12809:12828  msg.sender == owner */\n      0xffffffffffffffffffffffffffffffffffffffff\n      and\n        /* \"wwcc-contracts/contracts/wwccPool.sol\":12809:12819  msg.sender */\n      caller\n        /* \"wwcc-contracts/contracts/wwccPool.sol\":12809:12828  msg.sender == owner */\n      0xffffffffffffffffffffffffffffffffffffffff\n      and\n      eq\n        /* \"wwcc-contracts/contracts/wwccPool.sol\":12788:12879  require(... */\n      tag_113\n      jumpi\n      mload(0x40)\n      0x08c379a000000000000000000000000000000000000000000000000000000000\n      dup2\n      mstore\n      0x04\n      add\n      tag_114\n      swap1\n      tag_76\n      jump\t// in\n    tag_114:\n      mload(0x40)\n      dup1\n      swap2\n      sub\n      swap1\n      revert\n    tag_113:\n        /* \"wwcc-contracts/contracts/wwccPool.sol\":4361:4378  contains(poolKey) */\n      tag_116\n        /* \"wwcc-contracts/contracts/wwccPool.sol\":4370:4377  poolKey */\n      dup4\n        /* \"wwcc-contracts/contracts/wwccPool.sol\":4361:4369  contains */\n      tag_79\n        /* \"wwcc-contracts/contracts/wwccPool.sol\":4361:4378  contains(poolKey) */\n      jump\t// in\n    tag_116:\n        /* \"wwcc-contracts/contracts/wwccPool.sol\":4357:4777  if(!contains(poolKey)) { ... */\n      tag_117\n      jumpi\n        /* \"wwcc-contracts/contracts/wwccPool.sol\":4395:4419  revert(\"pool not exist\") */\n      mload(0x40)\n      0x08c379a000000000000000000000000000000000000000000000000000000000\n      dup2\n      mstore\n      0x04\n      add\n      tag_118\n      swap1\n      tag_82\n      jump\t// in\n    tag_118:\n      mload(0x40)\n      dup1\n      swap2\n      sub\n      swap1\n      revert\n        /* \"wwcc-contracts/contracts/wwccPool.sol\":4357:4777  if(!contains(poolKey)) { ... */\n    tag_117:\n        /* \"wwcc-contracts/contracts/wwccPool.sol\":4447:4465  WcPool memory pool */\n      0x00\n        /* \"wwcc-contracts/contracts/wwccPool.sol\":4468:4475  WcPools */\n      0x03\n        /* \"wwcc-contracts/contracts/wwccPool.sol\":4468:4484  WcPools[poolKey] */\n      0x00\n        /* \"wwcc-contracts/contracts/wwccPool.sol\":4476:4483  poolKey */\n      dup6\n        /* \"wwcc-contracts/contracts/wwccPool.sol\":4468:4484  WcPools[poolKey] */\n      dup2\n      mstore\n      0x20\n      add\n      swap1\n      dup2\n      mstore\n      0x20\n      add\n      0x00\n      keccak256\n        /* \"wwcc-contracts/contracts/wwccPool.sol\":4447:4484  WcPool memory pool = WcPools[poolKey] */\n      mload(0x40)\n      dup1\n      0x0160\n      add\n      0x40\n      mstore\n      swap1\n      dup2\n      0x00\n      dup3\n      add\n      dup1\n      sload\n      tag_120\n      swap1\n      tag_85\n      jump\t// in\n    tag_120:\n      dup1\n      0x1f\n      add\n      0x20\n      dup1\n      swap2\n      div\n      mul\n      0x20\n      add\n      mload(0x40)\n      swap1\n      dup2\n      add\n      0x40\n      mstore\n      dup1\n      swap3\n      swap2\n      swap1\n      dup2\n      dup2\n      mstore\n      0x20\n      add\n      dup3\n      dup1\n      sload\n      tag_121\n      swap1\n      tag_85\n      jump\t// in\n    tag_121:\n      dup1\n      iszero\n      tag_122\n      jumpi\n      dup1\n      0x1f\n      lt\n      tag_123\n      jumpi\n      0x0100\n      dup1\n      dup4\n      sload\n      div\n      mul\n      dup4\n      mstore\n      swap2\n      0x20\n      add\n      swap2\n      jump(tag_122)\n    tag_123:\n      dup3\n      add\n      swap2\n      swap1\n      0x00\n      mstore\n      keccak256(0x00, 0x20)\n      swap1\n    tag_124:\n      dup2\n      sload\n      dup2\n      mstore\n      swap1\n      0x01\n      add\n      swap1\n      0x20\n      add\n      dup1\n      dup4\n      gt\n      tag_124\n      jumpi\n      dup3\n      swap1\n      sub\n      0x1f\n      and\n      dup3\n      add\n      swap2\n    tag_122:\n      pop\n      pop\n      pop\n      pop\n      pop\n      dup2\n      mstore\n      0x20\n      add\n      0x01\n      dup3\n      add\n      dup1\n      sload\n      tag_125\n      swap1\n      tag_85\n      jump\t// in\n    tag_125:\n      dup1\n      0x1f\n      add\n      0x20\n      dup1\n      swap2\n      div\n      mul\n      0x20\n      add\n      mload(0x40)\n      swap1\n      dup2\n      add\n      0x40\n      mstore\n      dup1\n      swap3\n      swap2\n      swap1\n      dup2\n      dup2\n      mstore\n      0x20\n      add\n      dup3\n      dup1\n      sload\n      tag_126\n      swap1\n      tag_85\n      jump\t// in\n    tag_126:\n      dup1\n      iszero\n      tag_127\n      jumpi\n      dup1\n      0x1f\n      lt\n      tag_128\n      jumpi\n      0x0100\n      dup1\n      dup4\n      sload\n      div\n      mul\n      dup4\n      mstore\n      swap2\n      0x20\n      add\n      swap2\n      jump(tag_127)\n    tag_128:\n      dup3\n      add\n      swap2\n      swap1\n      0x00\n      mstore\n      keccak256(0x00, 0x20)\n      swap1\n    tag_129:\n      dup2\n      sload\n      dup2\n      mstore\n      swap1\n      0x01\n      add\n      swap1\n      0x20\n      add\n      dup1\n      dup4\n      gt\n      tag_129\n      jumpi\n      dup3\n      swap1\n      sub\n      0x1f\n      and\n      dup3\n      add\n      swap2\n    tag_127:\n      pop\n      pop\n      pop\n      pop\n      pop\n      dup2\n      mstore\n      0x20\n      add\n      0x02\n      dup3\n      add\n      dup1\n      sload\n      tag_130\n      swap1\n      tag_85\n      jump\t// in\n    tag_130:\n      dup1\n      0x1f\n      add\n      0x20\n      dup1\n      swap2\n      div\n      mul\n      0x20\n      add\n      mload(0x40)\n      swap1\n      dup2\n      add\n      0x40\n      mstore\n      dup1\n      swap3\n      swap2\n      swap1\n      dup2\n      dup2\n      mstore\n      0x20\n      add\n      dup3\n      dup1\n      sload\n      tag_131\n      swap1\n      tag_85\n      jump\t// in\n    tag_131:\n      dup1\n      iszero\n      tag_132\n      jumpi\n      dup1\n      0x1f\n      lt\n      tag_133\n      jumpi\n      0x0100\n      dup1\n      dup4\n      sload\n      div\n      mul\n      dup4\n      mstore\n      swap2\n      0x20\n      add\n      swap2\n      jump(tag_132)\n    tag_133:\n      dup3\n      add\n      swap2\n      swap1\n      0x00\n      mstore\n      keccak256(0x00, 0x20)\n      swap1\n    tag_134:\n      dup2\n      sload\n      dup2\n      mstore\n      swap1\n      0x01\n      add\n      swap1\n      0x20\n      add\n      dup1\n      dup4\n      gt\n      tag_134\n      jumpi\n      dup3\n      swap1\n      sub\n      0x1f\n      and\n      dup3\n      add\n      swap2\n    tag_132:\n      pop\n      pop\n      pop\n      pop\n      pop\n      dup2\n      mstore\n      0x20\n      add\n      0x03\n      dup3\n      add\n      sload\n      dup2\n      mstore\n      0x20\n      add\n      0x04\n      dup3\n      add\n      sload\n      dup2\n      mstore\n      0x20\n      add\n      0x05\n      dup3\n      add\n      sload\n      dup2\n      mstore\n      0x20\n      add\n      0x06\n      dup3\n      add\n      sload\n      dup2\n      mstore\n      0x20\n      add\n      0x07\n      dup3\n      add\n      sload\n      dup2\n      mstore\n      0x20\n      add\n      0x08\n      dup3\n      add\n      0x00\n      swap1\n      sload\n      swap1\n      0x0100\n      exp\n      swap1\n      div\n      0xff\n      and\n      iszero\n      iszero\n      iszero\n      iszero\n      dup2\n      mstore\n      0x20\n      add\n      0x08\n      dup3\n      add\n      0x01\n      swap1\n      sload\n      swap1\n      0x0100\n      exp\n      swap1\n      div\n      0xff\n      and\n      iszero\n      iszero\n      iszero\n      iszero\n      dup2\n      mstore\n      0x20\n      add\n      0x08\n      dup3\n      add\n      0x02\n      swap1\n      sload\n      swap1\n      0x0100\n      exp\n      swap1\n      div\n      0xff\n      and\n      iszero\n      iszero\n      iszero\n      iszero\n      dup2\n      mstore\n      pop\n      pop\n      swap1\n      pop\n        /* \"wwcc-contracts/contracts/wwccPool.sol\":4514:4515  0 */\n      0x00\n        /* \"wwcc-contracts/contracts/wwccPool.sol\":4501:4505  pool */\n      dup2\n        /* \"wwcc-contracts/contracts/wwccPool.sol\":4501:4511  pool.basal */\n      0xe0\n      add\n      mload\n        /* \"wwcc-contracts/contracts/wwccPool.sol\":4501:4515  pool.basal > 0 */\n      gt\n        /* \"wwcc-contracts/contracts/wwccPool.sol\":4497:4580  if (pool.basal > 0){... */\n      iszero\n      tag_135\n      jumpi\n        /* \"wwcc-contracts/contracts/wwccPool.sol\":4533:4566  revert(\"pool basal has been set\") */\n      mload(0x40)\n      0x08c379a000000000000000000000000000000000000000000000000000000000\n      dup2\n      mstore\n      0x04\n      add\n      tag_136\n      swap1\n      tag_137\n      jump\t// in\n    tag_136:\n      mload(0x40)\n      dup1\n      swap2\n      sub\n      swap1\n      revert\n        /* \"wwcc-contracts/contracts/wwccPool.sol\":4497:4580  if (pool.basal > 0){... */\n    tag_135:\n        /* \"wwcc-contracts/contracts/wwccPool.sol\":4612:4617  basal */\n      dup3\n        /* \"wwcc-contracts/contracts/wwccPool.sol\":4596:4609  nextBasalLast */\n      sload(0x01)\n        /* \"wwcc-contracts/contracts/wwccPool.sol\":4596:4617  nextBasalLast > basal */\n      gt\n        /* \"wwcc-contracts/contracts/wwccPool.sol\":4592:4675  if (nextBasalLast > basal){... */\n      iszero\n      tag_138\n      jumpi\n        /* \"wwcc-contracts/contracts/wwccPool.sol\":4635:4661  revert(\"not enough basal\") */\n      mload(0x40)\n      0x08c379a000000000000000000000000000000000000000000000000000000000\n      dup2\n      mstore\n      0x04\n      add\n      tag_139\n      swap1\n      tag_140\n      jump\t// in\n    tag_139:\n      mload(0x40)\n      dup1\n      swap2\n      sub\n      swap1\n      revert\n        /* \"wwcc-contracts/contracts/wwccPool.sol\":4592:4675  if (nextBasalLast > basal){... */\n    tag_138:\n        /* \"wwcc-contracts/contracts/wwccPool.sol\":4701:4706  basal */\n      dup3\n        /* \"wwcc-contracts/contracts/wwccPool.sol\":4687:4691  pool */\n      dup2\n        /* \"wwcc-contracts/contracts/wwccPool.sol\":4687:4697  pool.basal */\n      0xe0\n      add\n        /* \"wwcc-contracts/contracts/wwccPool.sol\":4687:4706  pool.basal += basal */\n      dup2\n      dup2\n      mload\n      tag_141\n      swap2\n      swap1\n      tag_17\n      jump\t// in\n    tag_141:\n      swap2\n      pop\n      dup2\n      dup2\n      mstore\n      pop\n      pop\n        /* \"wwcc-contracts/contracts/wwccPool.sol\":4737:4742  basal */\n      dup3\n        /* \"wwcc-contracts/contracts/wwccPool.sol\":4719:4732  nextBasalLast */\n      0x01\n      0x00\n        /* \"wwcc-contracts/contracts/wwccPool.sol\":4719:4742  nextBasalLast -=  basal */\n      dup3\n      dup3\n      sload\n      tag_142\n      swap2\n      swap1\n      tag_143\n      jump\t// in\n    tag_142:\n      swap3\n      pop\n      pop\n      dup2\n      swap1\n      sstore\n      pop\n        /* \"wwcc-contracts/contracts/wwccPool.sol\":4762:4766  true */\n      0x01\n        /* \"wwcc-contracts/contracts/wwccPool.sol\":4755:4766  return true */\n      swap2\n      pop\n      pop\n        /* \"wwcc-contracts/contracts/wwccPool.sol\":4261:4783  function Set_Basal(bytes32 poolKey,uint256 basal) external onlyManager  returns (bool){... */\n      swap3\n      swap2\n      pop\n      pop\n      jump\t// out\n        /* \"wwcc-contracts/contracts/wwccPool.sol\":1968:2857  function Set_Pool(... */\n    tag_37:\n        /* \"wwcc-contracts/contracts/wwccPool.sol\":2115:2122  bytes32 */\n      0x00\n        /* \"wwcc-contracts/contracts/wwccPool.sol\":12823:12828  owner */\n      dup1\n      0x00\n      swap1\n      sload\n      swap1\n      0x0100\n      exp\n      swap1\n      div\n      0xffffffffffffffffffffffffffffffffffffffff\n      and\n        /* \"wwcc-contracts/contracts/wwccPool.sol\":12809:12828  msg.sender == owner */\n      0xffffffffffffffffffffffffffffffffffffffff\n      and\n        /* \"wwcc-contracts/contracts/wwccPool.sol\":12809:12819  msg.sender */\n      caller\n        /* \"wwcc-contracts/contracts/wwccPool.sol\":12809:12828  msg.sender == owner */\n      0xffffffffffffffffffffffffffffffffffffffff\n      and\n      eq\n        /* \"wwcc-contracts/contracts/wwccPool.sol\":12788:12879  require(... */\n      tag_145\n      jumpi\n      mload(0x40)\n      0x08c379a000000000000000000000000000000000000000000000000000000000\n      dup2\n      mstore\n      0x04\n      add\n      tag_146\n      swap1\n      tag_76\n      jump\t// in\n    tag_146:\n      mload(0x40)\n      dup1\n      swap2\n      sub\n      swap1\n      revert\n    tag_145:\n        /* \"wwcc-contracts/contracts/wwccPool.sol\":2133:2149  string memory s1 */\n      0x00\n        /* \"wwcc-contracts/contracts/wwccPool.sol\":2152:2173  strConcat(home,visit) */\n      tag_148\n        /* \"wwcc-contracts/contracts/wwccPool.sol\":2162:2166  home */\n      dup7\n        /* \"wwcc-contracts/contracts/wwccPool.sol\":2167:2172  visit */\n      dup7\n        /* \"wwcc-contracts/contracts/wwccPool.sol\":2152:2161  strConcat */\n      tag_149\n        /* \"wwcc-contracts/contracts/wwccPool.sol\":2152:2173  strConcat(home,visit) */\n      jump\t// in\n    tag_148:\n        /* \"wwcc-contracts/contracts/wwccPool.sol\":2133:2173  string memory s1 = strConcat(home,visit) */\n      swap1\n      pop\n        /* \"wwcc-contracts/contracts/wwccPool.sol\":2182:2198  string memory s2 */\n      0x00\n        /* \"wwcc-contracts/contracts/wwccPool.sol\":2201:2221  strConcat(s1,rounds) */\n      tag_150\n        /* \"wwcc-contracts/contracts/wwccPool.sol\":2211:2213  s1 */\n      dup3\n        /* \"wwcc-contracts/contracts/wwccPool.sol\":2214:2220  rounds */\n      dup7\n        /* \"wwcc-contracts/contracts/wwccPool.sol\":2201:2210  strConcat */\n      tag_149\n        /* \"wwcc-contracts/contracts/wwccPool.sol\":2201:2221  strConcat(s1,rounds) */\n      jump\t// in\n    tag_150:\n        /* \"wwcc-contracts/contracts/wwccPool.sol\":2182:2221  string memory s2 = strConcat(s1,rounds) */\n      swap1\n      pop\n        /* \"wwcc-contracts/contracts/wwccPool.sol\":2230:2245  bytes32 poolKey */\n      0x00\n        /* \"wwcc-contracts/contracts/wwccPool.sol\":2275:2277  s2 */\n      dup2\n        /* \"wwcc-contracts/contracts/wwccPool.sol\":2258:2278  abi.encodePacked(s2) */\n      add(0x20, mload(0x40))\n      tag_151\n      swap2\n      swap1\n      tag_152\n      jump\t// in\n    tag_151:\n      mload(0x40)\n      0x20\n      dup2\n      dup4\n      sub\n      sub\n      dup2\n      mstore\n      swap1\n      0x40\n      mstore\n        /* \"wwcc-contracts/contracts/wwccPool.sol\":2248:2279  keccak256(abi.encodePacked(s2)) */\n      dup1\n      mload\n      swap1\n      0x20\n      add\n      keccak256\n        /* \"wwcc-contracts/contracts/wwccPool.sol\":2230:2279  bytes32 poolKey = keccak256(abi.encodePacked(s2)) */\n      swap1\n      pop\n        /* \"wwcc-contracts/contracts/wwccPool.sol\":2291:2308  contains(poolKey) */\n      tag_153\n        /* \"wwcc-contracts/contracts/wwccPool.sol\":2300:2307  poolKey */\n      dup2\n        /* \"wwcc-contracts/contracts/wwccPool.sol\":2291:2299  contains */\n      tag_79\n        /* \"wwcc-contracts/contracts/wwccPool.sol\":2291:2308  contains(poolKey) */\n      jump\t// in\n    tag_153:\n        /* \"wwcc-contracts/contracts/wwccPool.sol\":2288:2828  if(contains(poolKey)) { ... */\n      iszero\n      tag_154\n      jumpi\n        /* \"wwcc-contracts/contracts/wwccPool.sol\":2325:2345  revert(\"pair exist\") */\n      mload(0x40)\n      0x08c379a000000000000000000000000000000000000000000000000000000000\n      dup2\n      mstore\n      0x04\n      add\n      tag_155\n      swap1\n      tag_156\n      jump\t// in\n    tag_155:\n      mload(0x40)\n      dup1\n      swap2\n      sub\n      swap1\n      revert\n        /* \"wwcc-contracts/contracts/wwccPool.sol\":2288:2828  if(contains(poolKey)) { ... */\n    tag_154:\n        /* \"wwcc-contracts/contracts/wwccPool.sol\":2396:2400  true */\n      0x01\n        /* \"wwcc-contracts/contracts/wwccPool.sol\":2372:2379  WcPools */\n      0x03\n        /* \"wwcc-contracts/contracts/wwccPool.sol\":2372:2388  WcPools[poolKey] */\n      0x00\n        /* \"wwcc-contracts/contracts/wwccPool.sol\":2380:2387  poolKey */\n      dup4\n        /* \"wwcc-contracts/contracts/wwccPool.sol\":2372:2388  WcPools[poolKey] */\n      dup2\n      mstore\n      0x20\n      add\n      swap1\n      dup2\n      mstore\n      0x20\n      add\n      0x00\n      keccak256\n        /* \"wwcc-contracts/contracts/wwccPool.sol\":2372:2393  WcPools[poolKey].used */\n      0x08\n      add\n      0x01\n        /* \"wwcc-contracts/contracts/wwccPool.sol\":2372:2400  WcPools[poolKey].used = true */\n      0x0100\n      exp\n      dup2\n      sload\n      dup2\n      0xff\n      mul\n      not\n      and\n      swap1\n      dup4\n      iszero\n      iszero\n      mul\n      or\n      swap1\n      sstore\n      pop\n        /* \"wwcc-contracts/contracts/wwccPool.sol\":2437:2441  home */\n      dup8\n        /* \"wwcc-contracts/contracts/wwccPool.sol\":2413:2420  WcPools */\n      0x03\n        /* \"wwcc-contracts/contracts/wwccPool.sol\":2413:2429  WcPools[poolKey] */\n      0x00\n        /* \"wwcc-contracts/contracts/wwccPool.sol\":2421:2428  poolKey */\n      dup4\n        /* \"wwcc-contracts/contracts/wwccPool.sol\":2413:2429  WcPools[poolKey] */\n      dup2\n      mstore\n      0x20\n      add\n      swap1\n      dup2\n      mstore\n      0x20\n      add\n      0x00\n      keccak256\n        /* \"wwcc-contracts/contracts/wwccPool.sol\":2413:2434  WcPools[poolKey].home */\n      0x00\n      add\n        /* \"wwcc-contracts/contracts/wwccPool.sol\":2413:2441  WcPools[poolKey].home = home */\n      swap1\n      dup1\n      mload\n      swap1\n      0x20\n      add\n      swap1\n      tag_158\n      swap3\n      swap2\n      swap1\n      tag_159\n      jump\t// in\n    tag_158:\n      pop\n        /* \"wwcc-contracts/contracts/wwccPool.sol\":2479:2484  visit */\n      dup7\n        /* \"wwcc-contracts/contracts/wwccPool.sol\":2454:2461  WcPools */\n      0x03\n        /* \"wwcc-contracts/contracts/wwccPool.sol\":2454:2470  WcPools[poolKey] */\n      0x00\n        /* \"wwcc-contracts/contracts/wwccPool.sol\":2462:2469  poolKey */\n      dup4\n        /* \"wwcc-contracts/contracts/wwccPool.sol\":2454:2470  WcPools[poolKey] */\n      dup2\n      mstore\n      0x20\n      add\n      swap1\n      dup2\n      mstore\n      0x20\n      add\n      0x00\n      keccak256\n        /* \"wwcc-contracts/contracts/wwccPool.sol\":2454:2476  WcPools[poolKey].visit */\n      0x01\n      add\n        /* \"wwcc-contracts/contracts/wwccPool.sol\":2454:2484  WcPools[poolKey].visit = visit */\n      swap1\n      dup1\n      mload\n      swap1\n      0x20\n      add\n      swap1\n      tag_160\n      swap3\n      swap2\n      swap1\n      tag_159\n      jump\t// in\n    tag_160:\n      pop\n        /* \"wwcc-contracts/contracts/wwccPool.sol\":2523:2529  rounds */\n      dup6\n        /* \"wwcc-contracts/contracts/wwccPool.sol\":2497:2504  WcPools */\n      0x03\n        /* \"wwcc-contracts/contracts/wwccPool.sol\":2497:2513  WcPools[poolKey] */\n      0x00\n        /* \"wwcc-contracts/contracts/wwccPool.sol\":2505:2512  poolKey */\n      dup4\n        /* \"wwcc-contracts/contracts/wwccPool.sol\":2497:2513  WcPools[poolKey] */\n      dup2\n      mstore\n      0x20\n      add\n      swap1\n      dup2\n      mstore\n      0x20\n      add\n      0x00\n      keccak256\n        /* \"wwcc-contracts/contracts/wwccPool.sol\":2497:2520  WcPools[poolKey].rounds */\n      0x02\n      add\n        /* \"wwcc-contracts/contracts/wwccPool.sol\":2497:2529  WcPools[poolKey].rounds = rounds */\n      swap1\n      dup1\n      mload\n      swap1\n      0x20\n      add\n      swap1\n      tag_161\n      swap3\n      swap2\n      swap1\n      tag_159\n      jump\t// in\n    tag_161:\n      pop\n        /* \"wwcc-contracts/contracts/wwccPool.sol\":2567:2568  0 */\n      0x00\n        /* \"wwcc-contracts/contracts/wwccPool.sol\":2542:2549  WcPools */\n      0x03\n        /* \"wwcc-contracts/contracts/wwccPool.sol\":2542:2558  WcPools[poolKey] */\n      0x00\n        /* \"wwcc-contracts/contracts/wwccPool.sol\":2550:2557  poolKey */\n      dup4\n        /* \"wwcc-contracts/contracts/wwccPool.sol\":2542:2558  WcPools[poolKey] */\n      dup2\n      mstore\n      0x20\n      add\n      swap1\n      dup2\n      mstore\n      0x20\n      add\n      0x00\n      keccak256\n        /* \"wwcc-contracts/contracts/wwccPool.sol\":2542:2564  WcPools[poolKey].wPool */\n      0x03\n      add\n        /* \"wwcc-contracts/contracts/wwccPool.sol\":2542:2568  WcPools[poolKey].wPool = 0 */\n      dup2\n      swap1\n      sstore\n      pop\n        /* \"wwcc-contracts/contracts/wwccPool.sol\":2606:2607  0 */\n      0x00\n        /* \"wwcc-contracts/contracts/wwccPool.sol\":2581:2588  WcPools */\n      0x03\n        /* \"wwcc-contracts/contracts/wwccPool.sol\":2581:2597  WcPools[poolKey] */\n      0x00\n        /* \"wwcc-contracts/contracts/wwccPool.sol\":2589:2596  poolKey */\n      dup4\n        /* \"wwcc-contracts/contracts/wwccPool.sol\":2581:2597  WcPools[poolKey] */\n      dup2\n      mstore\n      0x20\n      add\n      swap1\n      dup2\n      mstore\n      0x20\n      add\n      0x00\n      keccak256\n        /* \"wwcc-contracts/contracts/wwccPool.sol\":2581:2603  WcPools[poolKey].dPool */\n      0x04\n      add\n        /* \"wwcc-contracts/contracts/wwccPool.sol\":2581:2607  WcPools[poolKey].dPool = 0 */\n      dup2\n      swap1\n      sstore\n      pop\n        /* \"wwcc-contracts/contracts/wwccPool.sol\":2645:2646  0 */\n      0x00\n        /* \"wwcc-contracts/contracts/wwccPool.sol\":2620:2627  WcPools */\n      0x03\n        /* \"wwcc-contracts/contracts/wwccPool.sol\":2620:2636  WcPools[poolKey] */\n      0x00\n        /* \"wwcc-contracts/contracts/wwccPool.sol\":2628:2635  poolKey */\n      dup4\n        /* \"wwcc-contracts/contracts/wwccPool.sol\":2620:2636  WcPools[poolKey] */\n      dup2\n      mstore\n      0x20\n      add\n      swap1\n      dup2\n      mstore\n      0x20\n      add\n      0x00\n      keccak256\n        /* \"wwcc-contracts/contracts/wwccPool.sol\":2620:2642  WcPools[poolKey].lPool */\n      0x05\n      add\n        /* \"wwcc-contracts/contracts/wwccPool.sol\":2620:2646  WcPools[poolKey].lPool = 0 */\n      dup2\n      swap1\n      sstore\n      pop\n        /* \"wwcc-contracts/contracts/wwccPool.sol\":2684:2685  0 */\n      0x00\n        /* \"wwcc-contracts/contracts/wwccPool.sol\":2659:2666  WcPools */\n      0x03\n        /* \"wwcc-contracts/contracts/wwccPool.sol\":2659:2675  WcPools[poolKey] */\n      0x00\n        /* \"wwcc-contracts/contracts/wwccPool.sol\":2667:2674  poolKey */\n      dup4\n        /* \"wwcc-contracts/contracts/wwccPool.sol\":2659:2675  WcPools[poolKey] */\n      dup2\n      mstore\n      0x20\n      add\n      swap1\n      dup2\n      mstore\n      0x20\n      add\n      0x00\n      keccak256\n        /* \"wwcc-contracts/contracts/wwccPool.sol\":2659:2681  WcPools[poolKey].sPool */\n      0x06\n      add\n        /* \"wwcc-contracts/contracts/wwccPool.sol\":2659:2685  WcPools[poolKey].sPool = 0 */\n      dup2\n      swap1\n      sstore\n      pop\n        /* \"wwcc-contracts/contracts/wwccPool.sol\":2723:2724  0 */\n      0x00\n        /* \"wwcc-contracts/contracts/wwccPool.sol\":2698:2705  WcPools */\n      0x03\n        /* \"wwcc-contracts/contracts/wwccPool.sol\":2698:2714  WcPools[poolKey] */\n      0x00\n        /* \"wwcc-contracts/contracts/wwccPool.sol\":2706:2713  poolKey */\n      dup4\n        /* \"wwcc-contracts/contracts/wwccPool.sol\":2698:2714  WcPools[poolKey] */\n      dup2\n      mstore\n      0x20\n      add\n      swap1\n      dup2\n      mstore\n      0x20\n      add\n      0x00\n      keccak256\n        /* \"wwcc-contracts/contracts/wwccPool.sol\":2698:2720  WcPools[poolKey].basal */\n      0x07\n      add\n        /* \"wwcc-contracts/contracts/wwccPool.sol\":2698:2724  WcPools[poolKey].basal = 0 */\n      dup2\n      swap1\n      sstore\n      pop\n        /* \"wwcc-contracts/contracts/wwccPool.sol\":2764:2771  decided */\n      dup5\n        /* \"wwcc-contracts/contracts/wwccPool.sol\":2737:2744  WcPools */\n      0x03\n        /* \"wwcc-contracts/contracts/wwccPool.sol\":2737:2753  WcPools[poolKey] */\n      0x00\n        /* \"wwcc-contracts/contracts/wwccPool.sol\":2745:2752  poolKey */\n      dup4\n        /* \"wwcc-contracts/contracts/wwccPool.sol\":2737:2753  WcPools[poolKey] */\n      dup2\n      mstore\n      0x20\n      add\n      swap1\n      dup2\n      mstore\n      0x20\n      add\n      0x00\n      keccak256\n        /* \"wwcc-contracts/contracts/wwccPool.sol\":2737:2761  WcPools[poolKey].decided */\n      0x08\n      add\n      0x00\n        /* \"wwcc-contracts/contracts/wwccPool.sol\":2737:2771  WcPools[poolKey].decided = decided */\n      0x0100\n      exp\n      dup2\n      sload\n      dup2\n      0xff\n      mul\n      not\n      and\n      swap1\n      dup4\n      iszero\n      iszero\n      mul\n      or\n      swap1\n      sstore\n      pop\n        /* \"wwcc-contracts/contracts/wwccPool.sol\":2812:2817  false */\n      0x00\n        /* \"wwcc-contracts/contracts/wwccPool.sol\":2784:2791  WcPools */\n      0x03\n        /* \"wwcc-contracts/contracts/wwccPool.sol\":2784:2800  WcPools[poolKey] */\n      0x00\n        /* \"wwcc-contracts/contracts/wwccPool.sol\":2792:2799  poolKey */\n      dup4\n        /* \"wwcc-contracts/contracts/wwccPool.sol\":2784:2800  WcPools[poolKey] */\n      dup2\n      mstore\n      0x20\n      add\n      swap1\n      dup2\n      mstore\n      0x20\n      add\n      0x00\n      keccak256\n        /* \"wwcc-contracts/contracts/wwccPool.sol\":2784:2809  WcPools[poolKey].finished */\n      0x08\n      add\n      0x02\n        /* \"wwcc-contracts/contracts/wwccPool.sol\":2784:2817  WcPools[poolKey].finished = false */\n      0x0100\n      exp\n      dup2\n      sload\n      dup2\n      0xff\n      mul\n      not\n      and\n      swap1\n      dup4\n      iszero\n      iszero\n      mul\n      or\n      swap1\n      sstore\n      pop\n        /* \"wwcc-contracts/contracts/wwccPool.sol\":2843:2850  poolKey */\n      dup1\n        /* \"wwcc-contracts/contracts/wwccPool.sol\":2836:2850  return poolKey */\n      swap4\n      pop\n      pop\n      pop\n      pop\n        /* \"wwcc-contracts/contracts/wwccPool.sol\":1968:2857  function Set_Pool(... */\n      swap5\n      swap4\n      pop\n      pop\n      pop\n      pop\n      jump\t// out\n        /* \"wwcc-contracts/contracts/wwccPool.sol\":6441:6547  function CheckBasal() external onlyManager view  returns (uint256){... */\n    tag_42:\n        /* \"wwcc-contracts/contracts/wwccPool.sol\":6499:6506  uint256 */\n      0x00\n        /* \"wwcc-contracts/contracts/wwccPool.sol\":12823:12828  owner */\n      dup1\n      0x00\n      swap1\n      sload\n      swap1\n      0x0100\n      exp\n      swap1\n      div\n      0xffffffffffffffffffffffffffffffffffffffff\n      and\n        /* \"wwcc-contracts/contracts/wwccPool.sol\":12809:12828  msg.sender == owner */\n      0xffffffffffffffffffffffffffffffffffffffff\n      and\n        /* \"wwcc-contracts/contracts/wwccPool.sol\":12809:12819  msg.sender */\n      caller\n        /* \"wwcc-contracts/contracts/wwccPool.sol\":12809:12828  msg.sender == owner */\n      0xffffffffffffffffffffffffffffffffffffffff\n      and\n      eq\n        /* \"wwcc-contracts/contracts/wwccPool.sol\":12788:12879  require(... */\n      tag_163\n      jumpi\n      mload(0x40)\n      0x08c379a000000000000000000000000000000000000000000000000000000000\n      dup2\n      mstore\n      0x04\n      add\n      tag_164\n      swap1\n      tag_76\n      jump\t// in\n    tag_164:\n      mload(0x40)\n      dup1\n      swap2\n      sub\n      swap1\n      revert\n    tag_163:\n        /* \"wwcc-contracts/contracts/wwccPool.sol\":6527:6540  nextBasalLast */\n      sload(0x01)\n        /* \"wwcc-contracts/contracts/wwccPool.sol\":6520:6540  return nextBasalLast */\n      swap1\n      pop\n        /* \"wwcc-contracts/contracts/wwccPool.sol\":6441:6547  function CheckBasal() external onlyManager view  returns (uint256){... */\n      swap1\n      jump\t// out\n        /* \"wwcc-contracts/contracts/wwccPool.sol\":6021:6379  function CheckExpect(bytes32 poolKey) external onlyManager view  returns (uint256){... */\n    tag_49:\n        /* \"wwcc-contracts/contracts/wwccPool.sol\":6095:6102  uint256 */\n      0x00\n        /* \"wwcc-contracts/contracts/wwccPool.sol\":12823:12828  owner */\n      dup1\n      0x00\n      swap1\n      sload\n      swap1\n      0x0100\n      exp\n      swap1\n      div\n      0xffffffffffffffffffffffffffffffffffffffff\n      and\n        /* \"wwcc-contracts/contracts/wwccPool.sol\":12809:12828  msg.sender == owner */\n      0xffffffffffffffffffffffffffffffffffffffff\n      and\n        /* \"wwcc-contracts/contracts/wwccPool.sol\":12809:12819  msg.sender */\n      caller\n        /* \"wwcc-contracts/contracts/wwccPool.sol\":12809:12828  msg.sender == owner */\n      0xffffffffffffffffffffffffffffffffffffffff\n      and\n      eq\n        /* \"wwcc-contracts/contracts/wwccPool.sol\":12788:12879  require(... */\n      tag_167\n      jumpi\n      mload(0x40)\n      0x08c379a000000000000000000000000000000000000000000000000000000000\n      dup2\n      mstore\n      0x04\n      add\n      tag_168\n      swap1\n      tag_76\n      jump\t// in\n    tag_168:\n      mload(0x40)\n      dup1\n      swap2\n      sub\n      swap1\n      revert\n    tag_167:\n        /* \"wwcc-contracts/contracts/wwccPool.sol\":6117:6134  contains(poolKey) */\n      tag_170\n        /* \"wwcc-contracts/contracts/wwccPool.sol\":6126:6133  poolKey */\n      dup3\n        /* \"wwcc-contracts/contracts/wwccPool.sol\":6117:6125  contains */\n      tag_79\n        /* \"wwcc-contracts/contracts/wwccPool.sol\":6117:6134  contains(poolKey) */\n      jump\t// in\n    tag_170:\n        /* \"wwcc-contracts/contracts/wwccPool.sol\":6113:6373  if(!contains(poolKey)) { ... */\n      tag_171\n      jumpi\n        /* \"wwcc-contracts/contracts/wwccPool.sol\":6151:6175  revert(\"pool not exist\") */\n      mload(0x40)\n      0x08c379a000000000000000000000000000000000000000000000000000000000\n      dup2\n      mstore\n      0x04\n      add\n      tag_172\n      swap1\n      tag_82\n      jump\t// in\n    tag_172:\n      mload(0x40)\n      dup1\n      swap2\n      sub\n      swap1\n      revert\n        /* \"wwcc-contracts/contracts/wwccPool.sol\":6113:6373  if(!contains(poolKey)) { ... */\n    tag_171:\n        /* \"wwcc-contracts/contracts/wwccPool.sol\":6203:6221  WcPool memory pool */\n      0x00\n        /* \"wwcc-contracts/contracts/wwccPool.sol\":6224:6231  WcPools */\n      0x03\n        /* \"wwcc-contracts/contracts/wwccPool.sol\":6224:6240  WcPools[poolKey] */\n      0x00\n        /* \"wwcc-contracts/contracts/wwccPool.sol\":6232:6239  poolKey */\n      dup5\n        /* \"wwcc-contracts/contracts/wwccPool.sol\":6224:6240  WcPools[poolKey] */\n      dup2\n      mstore\n      0x20\n      add\n      swap1\n      dup2\n      mstore\n      0x20\n      add\n      0x00\n      keccak256\n        /* \"wwcc-contracts/contracts/wwccPool.sol\":6203:6240  WcPool memory pool = WcPools[poolKey] */\n      mload(0x40)\n      dup1\n      0x0160\n      add\n      0x40\n      mstore\n      swap1\n      dup2\n      0x00\n      dup3\n      add\n      dup1\n      sload\n      tag_174\n      swap1\n      tag_85\n      jump\t// in\n    tag_174:\n      dup1\n      0x1f\n      add\n      0x20\n      dup1\n      swap2\n      div\n      mul\n      0x20\n      add\n      mload(0x40)\n      swap1\n      dup2\n      add\n      0x40\n      mstore\n      dup1\n      swap3\n      swap2\n      swap1\n      dup2\n      dup2\n      mstore\n      0x20\n      add\n      dup3\n      dup1\n      sload\n      tag_175\n      swap1\n      tag_85\n      jump\t// in\n    tag_175:\n      dup1\n      iszero\n      tag_176\n      jumpi\n      dup1\n      0x1f\n      lt\n      tag_177\n      jumpi\n      0x0100\n      dup1\n      dup4\n      sload\n      div\n      mul\n      dup4\n      mstore\n      swap2\n      0x20\n      add\n      swap2\n      jump(tag_176)\n    tag_177:\n      dup3\n      add\n      swap2\n      swap1\n      0x00\n      mstore\n      keccak256(0x00, 0x20)\n      swap1\n    tag_178:\n      dup2\n      sload\n      dup2\n      mstore\n      swap1\n      0x01\n      add\n      swap1\n      0x20\n      add\n      dup1\n      dup4\n      gt\n      tag_178\n      jumpi\n      dup3\n      swap1\n      sub\n      0x1f\n      and\n      dup3\n      add\n      swap2\n    tag_176:\n      pop\n      pop\n      pop\n      pop\n      pop\n      dup2\n      mstore\n      0x20\n      add\n      0x01\n      dup3\n      add\n      dup1\n      sload\n      tag_179\n      swap1\n      tag_85\n      jump\t// in\n    tag_179:\n      dup1\n      0x1f\n      add\n      0x20\n      dup1\n      swap2\n      div\n      mul\n      0x20\n      add\n      mload(0x40)\n      swap1\n      dup2\n      add\n      0x40\n      mstore\n      dup1\n      swap3\n      swap2\n      swap1\n      dup2\n      dup2\n      mstore\n      0x20\n      add\n      dup3\n      dup1\n      sload\n      tag_180\n      swap1\n      tag_85\n      jump\t// in\n    tag_180:\n      dup1\n      iszero\n      tag_181\n      jumpi\n      dup1\n      0x1f\n      lt\n      tag_182\n      jumpi\n      0x0100\n      dup1\n      dup4\n      sload\n      div\n      mul\n      dup4\n      mstore\n      swap2\n      0x20\n      add\n      swap2\n      jump(tag_181)\n    tag_182:\n      dup3\n      add\n      swap2\n      swap1\n      0x00\n      mstore\n      keccak256(0x00, 0x20)\n      swap1\n    tag_183:\n      dup2\n      sload\n      dup2\n      mstore\n      swap1\n      0x01\n      add\n      swap1\n      0x20\n      add\n      dup1\n      dup4\n      gt\n      tag_183\n      jumpi\n      dup3\n      swap1\n      sub\n      0x1f\n      and\n      dup3\n      add\n      swap2\n    tag_181:\n      pop\n      pop\n      pop\n      pop\n      pop\n      dup2\n      mstore\n      0x20\n      add\n      0x02\n      dup3\n      add\n      dup1\n      sload\n      tag_184\n      swap1\n      tag_85\n      jump\t// in\n    tag_184:\n      dup1\n      0x1f\n      add\n      0x20\n      dup1\n      swap2\n      div\n      mul\n      0x20\n      add\n      mload(0x40)\n      swap1\n      dup2\n      add\n      0x40\n      mstore\n      dup1\n      swap3\n      swap2\n      swap1\n      dup2\n      dup2\n      mstore\n      0x20\n      add\n      dup3\n      dup1\n      sload\n      tag_185\n      swap1\n      tag_85\n      jump\t// in\n    tag_185:\n      dup1\n      iszero\n      tag_186\n      jumpi\n      dup1\n      0x1f\n      lt\n      tag_187\n      jumpi\n      0x0100\n      dup1\n      dup4\n      sload\n      div\n      mul\n      dup4\n      mstore\n      swap2\n      0x20\n      add\n      swap2\n      jump(tag_186)\n    tag_187:\n      dup3\n      add\n      swap2\n      swap1\n      0x00\n      mstore\n      keccak256(0x00, 0x20)\n      swap1\n    tag_188:\n      dup2\n      sload\n      dup2\n      mstore\n      swap1\n      0x01\n      add\n      swap1\n      0x20\n      add\n      dup1\n      dup4\n      gt\n      tag_188\n      jumpi\n      dup3\n      swap1\n      sub\n      0x1f\n      and\n      dup3\n      add\n      swap2\n    tag_186:\n      pop\n      pop\n      pop\n      pop\n      pop\n      dup2\n      mstore\n      0x20\n      add\n      0x03\n      dup3\n      add\n      sload\n      dup2\n      mstore\n      0x20\n      add\n      0x04\n      dup3\n      add\n      sload\n      dup2\n      mstore\n      0x20\n      add\n      0x05\n      dup3\n      add\n      sload\n      dup2\n      mstore\n      0x20\n      add\n      0x06\n      dup3\n      add\n      sload\n      dup2\n      mstore\n      0x20\n      add\n      0x07\n      dup3\n      add\n      sload\n      dup2\n      mstore\n      0x20\n      add\n      0x08\n      dup3\n      add\n      0x00\n      swap1\n      sload\n      swap1\n      0x0100\n      exp\n      swap1\n      div\n      0xff\n      and\n      iszero\n      iszero\n      iszero\n      iszero\n      dup2\n      mstore\n      0x20\n      add\n      0x08\n      dup3\n      add\n      0x01\n      swap1\n      sload\n      swap1\n      0x0100\n      exp\n      swap1\n      div\n      0xff\n      and\n      iszero\n      iszero\n      iszero\n      iszero\n      dup2\n      mstore\n      0x20\n      add\n      0x08\n      dup3\n      add\n      0x02\n      swap1\n      sload\n      swap1\n      0x0100\n      exp\n      swap1\n      div\n      0xff\n      and\n      iszero\n      iszero\n      iszero\n      iszero\n      dup2\n      mstore\n      pop\n      pop\n      swap1\n      pop\n        /* \"wwcc-contracts/contracts/wwccPool.sol\":6253:6267  uint256 expect */\n      0x00\n        /* \"wwcc-contracts/contracts/wwccPool.sol\":6270:6336  (pool.wPool+pool.lPool+pool.dPool+pool.sPool + pool.basal).div(10) */\n      tag_189\n        /* \"wwcc-contracts/contracts/wwccPool.sol\":6333:6335  10 */\n      0x0a\n        /* \"wwcc-contracts/contracts/wwccPool.sol\":6317:6321  pool */\n      dup4\n        /* \"wwcc-contracts/contracts/wwccPool.sol\":6317:6327  pool.basal */\n      0xe0\n      add\n      mload\n        /* \"wwcc-contracts/contracts/wwccPool.sol\":6304:6308  pool */\n      dup5\n        /* \"wwcc-contracts/contracts/wwccPool.sol\":6304:6314  pool.sPool */\n      0xc0\n      add\n      mload\n        /* \"wwcc-contracts/contracts/wwccPool.sol\":6293:6297  pool */\n      dup6\n        /* \"wwcc-contracts/contracts/wwccPool.sol\":6293:6303  pool.dPool */\n      0x80\n      add\n      mload\n        /* \"wwcc-contracts/contracts/wwccPool.sol\":6282:6286  pool */\n      dup7\n        /* \"wwcc-contracts/contracts/wwccPool.sol\":6282:6292  pool.lPool */\n      0xa0\n      add\n      mload\n        /* \"wwcc-contracts/contracts/wwccPool.sol\":6271:6275  pool */\n      dup8\n        /* \"wwcc-contracts/contracts/wwccPool.sol\":6271:6281  pool.wPool */\n      0x60\n      add\n      mload\n        /* \"wwcc-contracts/contracts/wwccPool.sol\":6271:6292  pool.wPool+pool.lPool */\n      tag_190\n      swap2\n      swap1\n      tag_17\n      jump\t// in\n    tag_190:\n        /* \"wwcc-contracts/contracts/wwccPool.sol\":6271:6303  pool.wPool+pool.lPool+pool.dPool */\n      tag_191\n      swap2\n      swap1\n      tag_17\n      jump\t// in\n    tag_191:\n        /* \"wwcc-contracts/contracts/wwccPool.sol\":6271:6314  pool.wPool+pool.lPool+pool.dPool+pool.sPool */\n      tag_192\n      swap2\n      swap1\n      tag_17\n      jump\t// in\n    tag_192:\n        /* \"wwcc-contracts/contracts/wwccPool.sol\":6271:6327  pool.wPool+pool.lPool+pool.dPool+pool.sPool + pool.basal */\n      tag_193\n      swap2\n      swap1\n      tag_17\n      jump\t// in\n    tag_193:\n        /* \"wwcc-contracts/contracts/wwccPool.sol\":6270:6332  (pool.wPool+pool.lPool+pool.dPool+pool.sPool + pool.basal).div */\n      tag_105\n      swap1\n        /* \"wwcc-contracts/contracts/wwccPool.sol\":6270:6336  (pool.wPool+pool.lPool+pool.dPool+pool.sPool + pool.basal).div(10) */\n      swap2\n      swap1\n      0xffffffff\n      and\n      jump\t// in\n    tag_189:\n        /* \"wwcc-contracts/contracts/wwccPool.sol\":6253:6336  uint256 expect = (pool.wPool+pool.lPool+pool.dPool+pool.sPool + pool.basal).div(10) */\n      swap1\n      pop\n        /* \"wwcc-contracts/contracts/wwccPool.sol\":6356:6362  expect */\n      dup1\n        /* \"wwcc-contracts/contracts/wwccPool.sol\":6349:6362  return expect */\n      swap3\n      pop\n      pop\n      pop\n        /* \"wwcc-contracts/contracts/wwccPool.sol\":6021:6379  function CheckExpect(bytes32 poolKey) external onlyManager view  returns (uint256){... */\n      swap2\n      swap1\n      pop\n      jump\t// out\n        /* \"wwcc-contracts/contracts/wwccPool.sol\":2880:4206  function Picking(address joiner,uint256 weight,bytes32 poolKey,uint256 homeScore,uint256 visitScore,uint256 kind) external returns(bool){... */\n    tag_55:\n        /* \"wwcc-contracts/contracts/wwccPool.sol\":3011:3015  bool */\n      0x00\n        /* \"wwcc-contracts/contracts/wwccPool.sol\":3030:3047  contains(poolKey) */\n      tag_195\n        /* \"wwcc-contracts/contracts/wwccPool.sol\":3039:3046  poolKey */\n      dup6\n        /* \"wwcc-contracts/contracts/wwccPool.sol\":3030:3038  contains */\n      tag_79\n        /* \"wwcc-contracts/contracts/wwccPool.sol\":3030:3047  contains(poolKey) */\n      jump\t// in\n    tag_195:\n        /* \"wwcc-contracts/contracts/wwccPool.sol\":3026:4180  if(!contains(poolKey)) { ... */\n      tag_196\n      jumpi\n        /* \"wwcc-contracts/contracts/wwccPool.sol\":3064:3088  revert(\"pool not exist\") */\n      mload(0x40)\n      0x08c379a000000000000000000000000000000000000000000000000000000000\n      dup2\n      mstore\n      0x04\n      add\n      tag_197\n      swap1\n      tag_82\n      jump\t// in\n    tag_197:\n      mload(0x40)\n      dup1\n      swap2\n      sub\n      swap1\n      revert\n        /* \"wwcc-contracts/contracts/wwccPool.sol\":3026:4180  if(!contains(poolKey)) { ... */\n    tag_196:\n        /* \"wwcc-contracts/contracts/wwccPool.sol\":3137:3143  weight */\n      dup6\n        /* \"wwcc-contracts/contracts/wwccPool.sol\":3118:3128  voteAmount */\n      0x02\n        /* \"wwcc-contracts/contracts/wwccPool.sol\":3118:3136  voteAmount[joiner] */\n      0x00\n        /* \"wwcc-contracts/contracts/wwccPool.sol\":3129:3135  joiner */\n      dup10\n        /* \"wwcc-contracts/contracts/wwccPool.sol\":3118:3136  voteAmount[joiner] */\n      0xffffffffffffffffffffffffffffffffffffffff\n      and\n      0xffffffffffffffffffffffffffffffffffffffff\n      and\n      dup2\n      mstore\n      0x20\n      add\n      swap1\n      dup2\n      mstore\n      0x20\n      add\n      0x00\n      keccak256\n      sload\n        /* \"wwcc-contracts/contracts/wwccPool.sol\":3118:3143  voteAmount[joiner]<weight */\n      lt\n        /* \"wwcc-contracts/contracts/wwccPool.sol\":3115:3206  if(voteAmount[joiner]<weight){... */\n      iszero\n      tag_199\n      jumpi\n        /* \"wwcc-contracts/contracts/wwccPool.sol\":3161:3192  revert(\"not enough voteAmount\") */\n      mload(0x40)\n      0x08c379a000000000000000000000000000000000000000000000000000000000\n      dup2\n      mstore\n      0x04\n      add\n      tag_200\n      swap1\n      tag_201\n      jump\t// in\n    tag_200:\n      mload(0x40)\n      dup1\n      swap2\n      sub\n      swap1\n      revert\n        /* \"wwcc-contracts/contracts/wwccPool.sol\":3115:3206  if(voteAmount[joiner]<weight){... */\n    tag_199:\n        /* \"wwcc-contracts/contracts/wwccPool.sol\":3218:3236  WcPool memory pool */\n      0x00\n        /* \"wwcc-contracts/contracts/wwccPool.sol\":3239:3246  WcPools */\n      0x03\n        /* \"wwcc-contracts/contracts/wwccPool.sol\":3239:3255  WcPools[poolKey] */\n      0x00\n        /* \"wwcc-contracts/contracts/wwccPool.sol\":3247:3254  poolKey */\n      dup8\n        /* \"wwcc-contracts/contracts/wwccPool.sol\":3239:3255  WcPools[poolKey] */\n      dup2\n      mstore\n      0x20\n      add\n      swap1\n      dup2\n      mstore\n      0x20\n      add\n      0x00\n      keccak256\n        /* \"wwcc-contracts/contracts/wwccPool.sol\":3218:3255  WcPool memory pool = WcPools[poolKey] */\n      mload(0x40)\n      dup1\n      0x0160\n      add\n      0x40\n      mstore\n      swap1\n      dup2\n      0x00\n      dup3\n      add\n      dup1\n      sload\n      tag_202\n      swap1\n      tag_85\n      jump\t// in\n    tag_202:\n      dup1\n      0x1f\n      add\n      0x20\n      dup1\n      swap2\n      div\n      mul\n      0x20\n      add\n      mload(0x40)\n      swap1\n      dup2\n      add\n      0x40\n      mstore\n      dup1\n      swap3\n      swap2\n      swap1\n      dup2\n      dup2\n      mstore\n      0x20\n      add\n      dup3\n      dup1\n      sload\n      tag_203\n      swap1\n      tag_85\n      jump\t// in\n    tag_203:\n      dup1\n      iszero\n      tag_204\n      jumpi\n      dup1\n      0x1f\n      lt\n      tag_205\n      jumpi\n      0x0100\n      dup1\n      dup4\n      sload\n      div\n      mul\n      dup4\n      mstore\n      swap2\n      0x20\n      add\n      swap2\n      jump(tag_204)\n    tag_205:\n      dup3\n      add\n      swap2\n      swap1\n      0x00\n      mstore\n      keccak256(0x00, 0x20)\n      swap1\n    tag_206:\n      dup2\n      sload\n      dup2\n      mstore\n      swap1\n      0x01\n      add\n      swap1\n      0x20\n      add\n      dup1\n      dup4\n      gt\n      tag_206\n      jumpi\n      dup3\n      swap1\n      sub\n      0x1f\n      and\n      dup3\n      add\n      swap2\n    tag_204:\n      pop\n      pop\n      pop\n      pop\n      pop\n      dup2\n      mstore\n      0x20\n      add\n      0x01\n      dup3\n      add\n      dup1\n      sload\n      tag_207\n      swap1\n      tag_85\n      jump\t// in\n    tag_207:\n      dup1\n      0x1f\n      add\n      0x20\n      dup1\n      swap2\n      div\n      mul\n      0x20\n      add\n      mload(0x40)\n      swap1\n      dup2\n      add\n      0x40\n      mstore\n      dup1\n      swap3\n      swap2\n      swap1\n      dup2\n      dup2\n      mstore\n      0x20\n      add\n      dup3\n      dup1\n      sload\n      tag_208\n      swap1\n      tag_85\n      jump\t// in\n    tag_208:\n      dup1\n      iszero\n      tag_209\n      jumpi\n      dup1\n      0x1f\n      lt\n      tag_210\n      jumpi\n      0x0100\n      dup1\n      dup4\n      sload\n      div\n      mul\n      dup4\n      mstore\n      swap2\n      0x20\n      add\n      swap2\n      jump(tag_209)\n    tag_210:\n      dup3\n      add\n      swap2\n      swap1\n      0x00\n      mstore\n      keccak256(0x00, 0x20)\n      swap1\n    tag_211:\n      dup2\n      sload\n      dup2\n      mstore\n      swap1\n      0x01\n      add\n      swap1\n      0x20\n      add\n      dup1\n      dup4\n      gt\n      tag_211\n      jumpi\n      dup3\n      swap1\n      sub\n      0x1f\n      and\n      dup3\n      add\n      swap2\n    tag_209:\n      pop\n      pop\n      pop\n      pop\n      pop\n      dup2\n      mstore\n      0x20\n      add\n      0x02\n      dup3\n      add\n      dup1\n      sload\n      tag_212\n      swap1\n      tag_85\n      jump\t// in\n    tag_212:\n      dup1\n      0x1f\n      add\n      0x20\n      dup1\n      swap2\n      div\n      mul\n      0x20\n      add\n      mload(0x40)\n      swap1\n      dup2\n      add\n      0x40\n      mstore\n      dup1\n      swap3\n      swap2\n      swap1\n      dup2\n      dup2\n      mstore\n      0x20\n      add\n      dup3\n      dup1\n      sload\n      tag_213\n      swap1\n      tag_85\n      jump\t// in\n    tag_213:\n      dup1\n      iszero\n      tag_214\n      jumpi\n      dup1\n      0x1f\n      lt\n      tag_215\n      jumpi\n      0x0100\n      dup1\n      dup4\n      sload\n      div\n      mul\n      dup4\n      mstore\n      swap2\n      0x20\n      add\n      swap2\n      jump(tag_214)\n    tag_215:\n      dup3\n      add\n      swap2\n      swap1\n      0x00\n      mstore\n      keccak256(0x00, 0x20)\n      swap1\n    tag_216:\n      dup2\n      sload\n      dup2\n      mstore\n      swap1\n      0x01\n      add\n      swap1\n      0x20\n      add\n      dup1\n      dup4\n      gt\n      tag_216\n      jumpi\n      dup3\n      swap1\n      sub\n      0x1f\n      and\n      dup3\n      add\n      swap2\n    tag_214:\n      pop\n      pop\n      pop\n      pop\n      pop\n      dup2\n      mstore\n      0x20\n      add\n      0x03\n      dup3\n      add\n      sload\n      dup2\n      mstore\n      0x20\n      add\n      0x04\n      dup3\n      add\n      sload\n      dup2\n      mstore\n      0x20\n      add\n      0x05\n      dup3\n      add\n      sload\n      dup2\n      mstore\n      0x20\n      add\n      0x06\n      dup3\n      add\n      sload\n      dup2\n      mstore\n      0x20\n      add\n      0x07\n      dup3\n      add\n      sload\n      dup2\n      mstore\n      0x20\n      add\n      0x08\n      dup3\n      add\n      0x00\n      swap1\n      sload\n      swap1\n      0x0100\n      exp\n      swap1\n      div\n      0xff\n      and\n      iszero\n      iszero\n      iszero\n      iszero\n      dup2\n      mstore\n      0x20\n      add\n      0x08\n      dup3\n      add\n      0x01\n      swap1\n      sload\n      swap1\n      0x0100\n      exp\n      swap1\n      div\n      0xff\n      and\n      iszero\n      iszero\n      iszero\n      iszero\n      dup2\n      mstore\n      0x20\n      add\n      0x08\n      dup3\n      add\n      0x02\n      swap1\n      sload\n      swap1\n      0x0100\n      exp\n      swap1\n      div\n      0xff\n      and\n      iszero\n      iszero\n      iszero\n      iszero\n      dup2\n      mstore\n      pop\n      pop\n      swap1\n      pop\n        /* \"wwcc-contracts/contracts/wwccPool.sol\":3268:3285  string  memory si */\n      0x00\n        /* \"wwcc-contracts/contracts/wwccPool.sol\":3288:3353  strConcat(uint256ToString(homeScore),uint256ToString(visitScore)) */\n      tag_217\n        /* \"wwcc-contracts/contracts/wwccPool.sol\":3298:3324  uint256ToString(homeScore) */\n      tag_218\n        /* \"wwcc-contracts/contracts/wwccPool.sol\":3314:3323  homeScore */\n      dup8\n        /* \"wwcc-contracts/contracts/wwccPool.sol\":3298:3313  uint256ToString */\n      tag_219\n        /* \"wwcc-contracts/contracts/wwccPool.sol\":3298:3324  uint256ToString(homeScore) */\n      jump\t// in\n    tag_218:\n        /* \"wwcc-contracts/contracts/wwccPool.sol\":3325:3352  uint256ToString(visitScore) */\n      tag_220\n        /* \"wwcc-contracts/contracts/wwccPool.sol\":3341:3351  visitScore */\n      dup8\n        /* \"wwcc-contracts/contracts/wwccPool.sol\":3325:3340  uint256ToString */\n      tag_219\n        /* \"wwcc-contracts/contracts/wwccPool.sol\":3325:3352  uint256ToString(visitScore) */\n      jump\t// in\n    tag_220:\n        /* \"wwcc-contracts/contracts/wwccPool.sol\":3288:3297  strConcat */\n      tag_149\n        /* \"wwcc-contracts/contracts/wwccPool.sol\":3288:3353  strConcat(uint256ToString(homeScore),uint256ToString(visitScore)) */\n      jump\t// in\n    tag_217:\n        /* \"wwcc-contracts/contracts/wwccPool.sol\":3268:3353  string  memory si = strConcat(uint256ToString(homeScore),uint256ToString(visitScore)) */\n      swap1\n      pop\n        /* \"wwcc-contracts/contracts/wwccPool.sol\":3366:3391  string  memory pickingKey */\n      0x00\n        /* \"wwcc-contracts/contracts/wwccPool.sol\":3394:3432  strConcat(bytes32ToString(poolKey),si) */\n      tag_221\n        /* \"wwcc-contracts/contracts/wwccPool.sol\":3404:3428  bytes32ToString(poolKey) */\n      tag_222\n        /* \"wwcc-contracts/contracts/wwccPool.sol\":3420:3427  poolKey */\n      dup10\n        /* \"wwcc-contracts/contracts/wwccPool.sol\":3404:3419  bytes32ToString */\n      tag_223\n        /* \"wwcc-contracts/contracts/wwccPool.sol\":3404:3428  bytes32ToString(poolKey) */\n      jump\t// in\n    tag_222:\n        /* \"wwcc-contracts/contracts/wwccPool.sol\":3429:3431  si */\n      dup4\n        /* \"wwcc-contracts/contracts/wwccPool.sol\":3394:3403  strConcat */\n      tag_149\n        /* \"wwcc-contracts/contracts/wwccPool.sol\":3394:3432  strConcat(bytes32ToString(poolKey),si) */\n      jump\t// in\n    tag_221:\n        /* \"wwcc-contracts/contracts/wwccPool.sol\":3366:3432  string  memory pickingKey = strConcat(bytes32ToString(poolKey),si) */\n      swap1\n      pop\n        /* \"wwcc-contracts/contracts/wwccPool.sol\":3445:3468  JoinerPicking memory jp */\n      0x00\n        /* \"wwcc-contracts/contracts/wwccPool.sol\":3471:3542  JoinerPicking(weight,kind,homeScore,visitScore,joiner,pickingKey,false) */\n      mload(0x40)\n      dup1\n      0xe0\n      add\n      0x40\n      mstore\n      dup1\n        /* \"wwcc-contracts/contracts/wwccPool.sol\":3485:3491  weight */\n      dup12\n        /* \"wwcc-contracts/contracts/wwccPool.sol\":3471:3542  JoinerPicking(weight,kind,homeScore,visitScore,joiner,pickingKey,false) */\n      dup2\n      mstore\n      0x20\n      add\n        /* \"wwcc-contracts/contracts/wwccPool.sol\":3492:3496  kind */\n      dup8\n        /* \"wwcc-contracts/contracts/wwccPool.sol\":3471:3542  JoinerPicking(weight,kind,homeScore,visitScore,joiner,pickingKey,false) */\n      dup2\n      mstore\n      0x20\n      add\n        /* \"wwcc-contracts/contracts/wwccPool.sol\":3497:3506  homeScore */\n      dup10\n        /* \"wwcc-contracts/contracts/wwccPool.sol\":3471:3542  JoinerPicking(weight,kind,homeScore,visitScore,joiner,pickingKey,false) */\n      dup2\n      mstore\n      0x20\n      add\n        /* \"wwcc-contracts/contracts/wwccPool.sol\":3507:3517  visitScore */\n      dup9\n        /* \"wwcc-contracts/contracts/wwccPool.sol\":3471:3542  JoinerPicking(weight,kind,homeScore,visitScore,joiner,pickingKey,false) */\n      dup2\n      mstore\n      0x20\n      add\n        /* \"wwcc-contracts/contracts/wwccPool.sol\":3518:3524  joiner */\n      dup13\n        /* \"wwcc-contracts/contracts/wwccPool.sol\":3471:3542  JoinerPicking(weight,kind,homeScore,visitScore,joiner,pickingKey,false) */\n      0xffffffffffffffffffffffffffffffffffffffff\n      and\n      dup2\n      mstore\n      0x20\n      add\n        /* \"wwcc-contracts/contracts/wwccPool.sol\":3525:3535  pickingKey */\n      dup4\n        /* \"wwcc-contracts/contracts/wwccPool.sol\":3471:3542  JoinerPicking(weight,kind,homeScore,visitScore,joiner,pickingKey,false) */\n      dup2\n      mstore\n      0x20\n      add\n        /* \"wwcc-contracts/contracts/wwccPool.sol\":3536:3541  false */\n      0x00\n        /* \"wwcc-contracts/contracts/wwccPool.sol\":3471:3542  JoinerPicking(weight,kind,homeScore,visitScore,joiner,pickingKey,false) */\n      iszero\n      iszero\n      dup2\n      mstore\n      pop\n        /* \"wwcc-contracts/contracts/wwccPool.sol\":3445:3542  JoinerPicking memory jp = JoinerPicking(weight,kind,homeScore,visitScore,joiner,pickingKey,false) */\n      swap1\n      pop\n        /* \"wwcc-contracts/contracts/wwccPool.sol\":3591:3598  poolKey */\n      dup9\n        /* \"wwcc-contracts/contracts/wwccPool.sol\":3555:3571  allScorePoolInfo */\n      0x04\n        /* \"wwcc-contracts/contracts/wwccPool.sol\":3555:3580  allScorePoolInfo[poolKey] */\n      0x00\n        /* \"wwcc-contracts/contracts/wwccPool.sol\":3572:3579  poolKey */\n      dup12\n        /* \"wwcc-contracts/contracts/wwccPool.sol\":3555:3580  allScorePoolInfo[poolKey] */\n      dup2\n      mstore\n      0x20\n      add\n      swap1\n      dup2\n      mstore\n      0x20\n      add\n      0x00\n      keccak256\n        /* \"wwcc-contracts/contracts/wwccPool.sol\":3555:3588  allScorePoolInfo[poolKey].poolKey */\n      0x01\n      add\n        /* \"wwcc-contracts/contracts/wwccPool.sol\":3555:3598  allScorePoolInfo[poolKey].poolKey = poolKey */\n      dup2\n      swap1\n      sstore\n      pop\n        /* \"wwcc-contracts/contracts/wwccPool.sol\":3611:3627  allScorePoolInfo */\n      0x04\n        /* \"wwcc-contracts/contracts/wwccPool.sol\":3611:3636  allScorePoolInfo[poolKey] */\n      0x00\n        /* \"wwcc-contracts/contracts/wwccPool.sol\":3628:3635  poolKey */\n      dup11\n        /* \"wwcc-contracts/contracts/wwccPool.sol\":3611:3636  allScorePoolInfo[poolKey] */\n      dup2\n      mstore\n      0x20\n      add\n      swap1\n      dup2\n      mstore\n      0x20\n      add\n      0x00\n      keccak256\n        /* \"wwcc-contracts/contracts/wwccPool.sol\":3611:3648  allScorePoolInfo[poolKey].separateBet */\n      0x00\n      add\n        /* \"wwcc-contracts/contracts/wwccPool.sol\":3654:3656  jp */\n      dup2\n        /* \"wwcc-contracts/contracts/wwccPool.sol\":3611:3657  allScorePoolInfo[poolKey].separateBet.push(jp) */\n      swap1\n      dup1\n      0x01\n      dup2\n      sload\n      add\n      dup1\n      dup3\n      sstore\n      dup1\n      swap2\n      pop\n      pop\n      0x01\n      swap1\n      sub\n      swap1\n      0x00\n      mstore\n      keccak256(0x00, 0x20)\n      swap1\n      0x07\n      mul\n      add\n      0x00\n      swap1\n      swap2\n      swap1\n      swap2\n      swap1\n      swap2\n      pop\n      0x00\n      dup3\n      add\n      mload\n      dup2\n      0x00\n      add\n      sstore\n      0x20\n      dup3\n      add\n      mload\n      dup2\n      0x01\n      add\n      sstore\n      0x40\n      dup3\n      add\n      mload\n      dup2\n      0x02\n      add\n      sstore\n      0x60\n      dup3\n      add\n      mload\n      dup2\n      0x03\n      add\n      sstore\n      0x80\n      dup3\n      add\n      mload\n      dup2\n      0x04\n      add\n      exp(0x0100, 0x00)\n      dup2\n      sload\n      dup2\n      0xffffffffffffffffffffffffffffffffffffffff\n      mul\n      not\n      and\n      swap1\n      dup4\n      0xffffffffffffffffffffffffffffffffffffffff\n      and\n      mul\n      or\n      swap1\n      sstore\n      pop\n      0xa0\n      dup3\n      add\n      mload\n      dup2\n      0x05\n      add\n      swap1\n      dup1\n      mload\n      swap1\n      0x20\n      add\n      swap1\n      tag_225\n      swap3\n      swap2\n      swap1\n      tag_159\n      jump\t// in\n    tag_225:\n      pop\n      0xc0\n      dup3\n      add\n      mload\n      dup2\n      0x06\n      add\n      exp(0x0100, 0x00)\n      dup2\n      sload\n      dup2\n      0xff\n      mul\n      not\n      and\n      swap1\n      dup4\n      iszero\n      iszero\n      mul\n      or\n      swap1\n      sstore\n      pop\n      pop\n      pop\n        /* \"wwcc-contracts/contracts/wwccPool.sol\":3705:3711  joiner */\n      dup11\n        /* \"wwcc-contracts/contracts/wwccPool.sol\":3671:3687  joinerAllPicking */\n      0x06\n        /* \"wwcc-contracts/contracts/wwccPool.sol\":3671:3695  joinerAllPicking[joiner] */\n      0x00\n        /* \"wwcc-contracts/contracts/wwccPool.sol\":3688:3694  joiner */\n      dup14\n        /* \"wwcc-contracts/contracts/wwccPool.sol\":3671:3695  joinerAllPicking[joiner] */\n      0xffffffffffffffffffffffffffffffffffffffff\n      and\n      0xffffffffffffffffffffffffffffffffffffffff\n      and\n      dup2\n      mstore\n      0x20\n      add\n      swap1\n      dup2\n      mstore\n      0x20\n      add\n      0x00\n      keccak256\n        /* \"wwcc-contracts/contracts/wwccPool.sol\":3671:3702  joinerAllPicking[joiner].joiner */\n      0x01\n      add\n      0x00\n        /* \"wwcc-contracts/contracts/wwccPool.sol\":3671:3711  joinerAllPicking[joiner].joiner = joiner */\n      0x0100\n      exp\n      dup2\n      sload\n      dup2\n      0xffffffffffffffffffffffffffffffffffffffff\n      mul\n      not\n      and\n      swap1\n      dup4\n      0xffffffffffffffffffffffffffffffffffffffff\n      and\n      mul\n      or\n      swap1\n      sstore\n      pop\n        /* \"wwcc-contracts/contracts/wwccPool.sol\":3724:3740  allScorePoolInfo */\n      0x04\n        /* \"wwcc-contracts/contracts/wwccPool.sol\":3724:3749  allScorePoolInfo[poolKey] */\n      0x00\n        /* \"wwcc-contracts/contracts/wwccPool.sol\":3741:3748  poolKey */\n      dup11\n        /* \"wwcc-contracts/contracts/wwccPool.sol\":3724:3749  allScorePoolInfo[poolKey] */\n      dup2\n      mstore\n      0x20\n      add\n      swap1\n      dup2\n      mstore\n      0x20\n      add\n      0x00\n      keccak256\n        /* \"wwcc-contracts/contracts/wwccPool.sol\":3724:3761  allScorePoolInfo[poolKey].separateBet */\n      0x00\n      add\n        /* \"wwcc-contracts/contracts/wwccPool.sol\":3767:3769  jp */\n      dup2\n        /* \"wwcc-contracts/contracts/wwccPool.sol\":3724:3770  allScorePoolInfo[poolKey].separateBet.push(jp) */\n      swap1\n      dup1\n      0x01\n      dup2\n      sload\n      add\n      dup1\n      dup3\n      sstore\n      dup1\n      swap2\n      pop\n      pop\n      0x01\n      swap1\n      sub\n      swap1\n      0x00\n      mstore\n      keccak256(0x00, 0x20)\n      swap1\n      0x07\n      mul\n      add\n      0x00\n      swap1\n      swap2\n      swap1\n      swap2\n      swap1\n      swap2\n      pop\n      0x00\n      dup3\n      add\n      mload\n      dup2\n      0x00\n      add\n      sstore\n      0x20\n      dup3\n      add\n      mload\n      dup2\n      0x01\n      add\n      sstore\n      0x40\n      dup3\n      add\n      mload\n      dup2\n      0x02\n      add\n      sstore\n      0x60\n      dup3\n      add\n      mload\n      dup2\n      0x03\n      add\n      sstore\n      0x80\n      dup3\n      add\n      mload\n      dup2\n      0x04\n      add\n      exp(0x0100, 0x00)\n      dup2\n      sload\n      dup2\n      0xffffffffffffffffffffffffffffffffffffffff\n      mul\n      not\n      and\n      swap1\n      dup4\n      0xffffffffffffffffffffffffffffffffffffffff\n      and\n      mul\n      or\n      swap1\n      sstore\n      pop\n      0xa0\n      dup3\n      add\n      mload\n      dup2\n      0x05\n      add\n      swap1\n      dup1\n      mload\n      swap1\n      0x20\n      add\n      swap1\n      tag_227\n      swap3\n      swap2\n      swap1\n      tag_159\n      jump\t// in\n    tag_227:\n      pop\n      0xc0\n      dup3\n      add\n      mload\n      dup2\n      0x06\n      add\n      exp(0x0100, 0x00)\n      dup2\n      sload\n      dup2\n      0xff\n      mul\n      not\n      and\n      swap1\n      dup4\n      iszero\n      iszero\n      mul\n      or\n      swap1\n      sstore\n      pop\n      pop\n      pop\n        /* \"wwcc-contracts/contracts/wwccPool.sol\":3797:3798  2 */\n      0x02\n        /* \"wwcc-contracts/contracts/wwccPool.sol\":3789:3793  kind */\n      dup7\n        /* \"wwcc-contracts/contracts/wwccPool.sol\":3789:3798  kind == 2 */\n      eq\n        /* \"wwcc-contracts/contracts/wwccPool.sol\":3785:4117  if (kind == 2){... */\n      iszero\n      tag_228\n      jumpi\n        /* \"wwcc-contracts/contracts/wwccPool.sol\":3829:3835  weight */\n      dup10\n        /* \"wwcc-contracts/contracts/wwccPool.sol\":3815:3819  pool */\n      dup5\n        /* \"wwcc-contracts/contracts/wwccPool.sol\":3815:3825  pool.sPool */\n      0xc0\n      add\n        /* \"wwcc-contracts/contracts/wwccPool.sol\":3815:3835  pool.sPool += weight */\n      dup2\n      dup2\n      mload\n      tag_229\n      swap2\n      swap1\n      tag_17\n      jump\t// in\n    tag_229:\n      swap2\n      pop\n      dup2\n      dup2\n      mstore\n      pop\n      pop\n        /* \"wwcc-contracts/contracts/wwccPool.sol\":3882:3888  weight */\n      dup10\n        /* \"wwcc-contracts/contracts/wwccPool.sol\":3851:3866  singleScorePool */\n      0x05\n        /* \"wwcc-contracts/contracts/wwccPool.sol\":3867:3877  pickingKey */\n      dup4\n        /* \"wwcc-contracts/contracts/wwccPool.sol\":3851:3878  singleScorePool[pickingKey] */\n      mload(0x40)\n      tag_230\n      swap2\n      swap1\n      tag_152\n      jump\t// in\n    tag_230:\n      swap1\n      dup2\n      mstore\n      0x20\n      add\n      mload(0x40)\n      dup1\n      swap2\n      sub\n      swap1\n      keccak256\n      0x00\n        /* \"wwcc-contracts/contracts/wwccPool.sol\":3851:3888  singleScorePool[pickingKey] += weight */\n      dup3\n      dup3\n      sload\n      tag_231\n      swap2\n      swap1\n      tag_17\n      jump\t// in\n    tag_231:\n      swap3\n      pop\n      pop\n      dup2\n      swap1\n      sstore\n      pop\n        /* \"wwcc-contracts/contracts/wwccPool.sol\":3785:4117  if (kind == 2){... */\n      jump(tag_232)\n    tag_228:\n        /* \"wwcc-contracts/contracts/wwccPool.sol\":3932:3933  3 */\n      0x03\n        /* \"wwcc-contracts/contracts/wwccPool.sol\":3924:3928  kind */\n      dup7\n        /* \"wwcc-contracts/contracts/wwccPool.sol\":3924:3933  kind == 3 */\n      eq\n        /* \"wwcc-contracts/contracts/wwccPool.sol\":3921:4117  if(kind == 3){... */\n      iszero\n      tag_233\n      jumpi\n        /* \"wwcc-contracts/contracts/wwccPool.sol\":3966:3972  weight */\n      dup10\n        /* \"wwcc-contracts/contracts/wwccPool.sol\":3952:3956  pool */\n      dup5\n        /* \"wwcc-contracts/contracts/wwccPool.sol\":3952:3962  pool.wPool */\n      0x60\n      add\n        /* \"wwcc-contracts/contracts/wwccPool.sol\":3952:3972  pool.wPool += weight */\n      dup2\n      dup2\n      mload\n      tag_234\n      swap2\n      swap1\n      tag_17\n      jump\t// in\n    tag_234:\n      swap2\n      pop\n      dup2\n      dup2\n      mstore\n      pop\n      pop\n        /* \"wwcc-contracts/contracts/wwccPool.sol\":3921:4117  if(kind == 3){... */\n      jump(tag_235)\n    tag_233:\n        /* \"wwcc-contracts/contracts/wwccPool.sol\":4004:4005  1 */\n      0x01\n        /* \"wwcc-contracts/contracts/wwccPool.sol\":3996:4000  kind */\n      dup7\n        /* \"wwcc-contracts/contracts/wwccPool.sol\":3996:4005  kind == 1 */\n      eq\n        /* \"wwcc-contracts/contracts/wwccPool.sol\":3992:4117  if (kind == 1){... */\n      iszero\n      tag_236\n      jumpi\n        /* \"wwcc-contracts/contracts/wwccPool.sol\":4038:4044  weight */\n      dup10\n        /* \"wwcc-contracts/contracts/wwccPool.sol\":4024:4028  pool */\n      dup5\n        /* \"wwcc-contracts/contracts/wwccPool.sol\":4024:4034  pool.dPool */\n      0x80\n      add\n        /* \"wwcc-contracts/contracts/wwccPool.sol\":4024:4044  pool.dPool += weight */\n      dup2\n      dup2\n      mload\n      tag_237\n      swap2\n      swap1\n      tag_17\n      jump\t// in\n    tag_237:\n      swap2\n      pop\n      dup2\n      dup2\n      mstore\n      pop\n      pop\n        /* \"wwcc-contracts/contracts/wwccPool.sol\":3992:4117  if (kind == 1){... */\n      jump(tag_238)\n    tag_236:\n        /* \"wwcc-contracts/contracts/wwccPool.sol\":4096:4102  weight */\n      dup10\n        /* \"wwcc-contracts/contracts/wwccPool.sol\":4082:4086  pool */\n      dup5\n        /* \"wwcc-contracts/contracts/wwccPool.sol\":4082:4092  pool.lPool */\n      0xa0\n      add\n        /* \"wwcc-contracts/contracts/wwccPool.sol\":4082:4102  pool.lPool += weight */\n      dup2\n      dup2\n      mload\n      tag_239\n      swap2\n      swap1\n      tag_17\n      jump\t// in\n    tag_239:\n      swap2\n      pop\n      dup2\n      dup2\n      mstore\n      pop\n      pop\n        /* \"wwcc-contracts/contracts/wwccPool.sol\":3992:4117  if (kind == 1){... */\n    tag_238:\n        /* \"wwcc-contracts/contracts/wwccPool.sol\":3921:4117  if(kind == 3){... */\n    tag_235:\n        /* \"wwcc-contracts/contracts/wwccPool.sol\":3785:4117  if (kind == 2){... */\n    tag_232:\n        /* \"wwcc-contracts/contracts/wwccPool.sol\":4152:4158  weight */\n      dup10\n        /* \"wwcc-contracts/contracts/wwccPool.sol\":4130:4140  voteAmount */\n      0x02\n        /* \"wwcc-contracts/contracts/wwccPool.sol\":4130:4148  voteAmount[joiner] */\n      0x00\n        /* \"wwcc-contracts/contracts/wwccPool.sol\":4141:4147  joiner */\n      dup14\n        /* \"wwcc-contracts/contracts/wwccPool.sol\":4130:4148  voteAmount[joiner] */\n      0xffffffffffffffffffffffffffffffffffffffff\n      and\n      0xffffffffffffffffffffffffffffffffffffffff\n      and\n      dup2\n      mstore\n      0x20\n      add\n      swap1\n      dup2\n      mstore\n      0x20\n      add\n      0x00\n      keccak256\n      0x00\n        /* \"wwcc-contracts/contracts/wwccPool.sol\":4130:4158  voteAmount[joiner] -= weight */\n      dup3\n      dup3\n      sload\n      tag_240\n      swap2\n      swap1\n      tag_143\n      jump\t// in\n    tag_240:\n      swap3\n      pop\n      pop\n      dup2\n      swap1\n      sstore\n      pop\n        /* \"wwcc-contracts/contracts/wwccPool.sol\":3102:4180  {... */\n      pop\n      pop\n      pop\n      pop\n        /* \"wwcc-contracts/contracts/wwccPool.sol\":4195:4199  true */\n      0x01\n        /* \"wwcc-contracts/contracts/wwccPool.sol\":4188:4199  return true */\n      swap1\n      pop\n        /* \"wwcc-contracts/contracts/wwccPool.sol\":2880:4206  function Picking(address joiner,uint256 weight,bytes32 poolKey,uint256 homeScore,uint256 visitScore,uint256 kind) external returns(bool){... */\n      swap7\n      swap6\n      pop\n      pop\n      pop\n      pop\n      pop\n      pop\n      jump\t// out\n        /* \"wwcc-contracts/contracts/wwccPool.sol\":6618:10075  function Award(bytes32 poolKey,uint256 homeScore,uint256 visitScore,uint256 result)  external onlyManager  payable returns(bool){... */\n    tag_60:\n        /* \"wwcc-contracts/contracts/wwccPool.sol\":6741:6745  bool */\n      0x00\n        /* \"wwcc-contracts/contracts/wwccPool.sol\":12823:12828  owner */\n      dup1\n      0x00\n      swap1\n      sload\n      swap1\n      0x0100\n      exp\n      swap1\n      div\n      0xffffffffffffffffffffffffffffffffffffffff\n      and\n        /* \"wwcc-contracts/contracts/wwccPool.sol\":12809:12828  msg.sender == owner */\n      0xffffffffffffffffffffffffffffffffffffffff\n      and\n        /* \"wwcc-contracts/contracts/wwccPool.sol\":12809:12819  msg.sender */\n      caller\n        /* \"wwcc-contracts/contracts/wwccPool.sol\":12809:12828  msg.sender == owner */\n      0xffffffffffffffffffffffffffffffffffffffff\n      and\n      eq\n        /* \"wwcc-contracts/contracts/wwccPool.sol\":12788:12879  require(... */\n      tag_242\n      jumpi\n      mload(0x40)\n      0x08c379a000000000000000000000000000000000000000000000000000000000\n      dup2\n      mstore\n      0x04\n      add\n      tag_243\n      swap1\n      tag_76\n      jump\t// in\n    tag_243:\n      mload(0x40)\n      dup1\n      swap2\n      sub\n      swap1\n      revert\n    tag_242:\n        /* \"wwcc-contracts/contracts/wwccPool.sol\":6760:6777  contains(poolKey) */\n      tag_245\n        /* \"wwcc-contracts/contracts/wwccPool.sol\":6769:6776  poolKey */\n      dup6\n        /* \"wwcc-contracts/contracts/wwccPool.sol\":6760:6768  contains */\n      tag_79\n        /* \"wwcc-contracts/contracts/wwccPool.sol\":6760:6777  contains(poolKey) */\n      jump\t// in\n    tag_245:\n        /* \"wwcc-contracts/contracts/wwccPool.sol\":6756:10049  if(!contains(poolKey)) { ... */\n      tag_246\n      jumpi\n        /* \"wwcc-contracts/contracts/wwccPool.sol\":6794:6818  revert(\"pool not exist\") */\n      mload(0x40)\n      0x08c379a000000000000000000000000000000000000000000000000000000000\n      dup2\n      mstore\n      0x04\n      add\n      tag_247\n      swap1\n      tag_82\n      jump\t// in\n    tag_247:\n      mload(0x40)\n      dup1\n      swap2\n      sub\n      swap1\n      revert\n        /* \"wwcc-contracts/contracts/wwccPool.sol\":6756:10049  if(!contains(poolKey)) { ... */\n    tag_246:\n        /* \"wwcc-contracts/contracts/wwccPool.sol\":6845:6863  WcPool memory pool */\n      0x00\n        /* \"wwcc-contracts/contracts/wwccPool.sol\":6866:6873  WcPools */\n      0x03\n        /* \"wwcc-contracts/contracts/wwccPool.sol\":6866:6882  WcPools[poolKey] */\n      0x00\n        /* \"wwcc-contracts/contracts/wwccPool.sol\":6874:6881  poolKey */\n      dup8\n        /* \"wwcc-contracts/contracts/wwccPool.sol\":6866:6882  WcPools[poolKey] */\n      dup2\n      mstore\n      0x20\n      add\n      swap1\n      dup2\n      mstore\n      0x20\n      add\n      0x00\n      keccak256\n        /* \"wwcc-contracts/contracts/wwccPool.sol\":6845:6882  WcPool memory pool = WcPools[poolKey] */\n      mload(0x40)\n      dup1\n      0x0160\n      add\n      0x40\n      mstore\n      swap1\n      dup2\n      0x00\n      dup3\n      add\n      dup1\n      sload\n      tag_249\n      swap1\n      tag_85\n      jump\t// in\n    tag_249:\n      dup1\n      0x1f\n      add\n      0x20\n      dup1\n      swap2\n      div\n      mul\n      0x20\n      add\n      mload(0x40)\n      swap1\n      dup2\n      add\n      0x40\n      mstore\n      dup1\n      swap3\n      swap2\n      swap1\n      dup2\n      dup2\n      mstore\n      0x20\n      add\n      dup3\n      dup1\n      sload\n      tag_250\n      swap1\n      tag_85\n      jump\t// in\n    tag_250:\n      dup1\n      iszero\n      tag_251\n      jumpi\n      dup1\n      0x1f\n      lt\n      tag_252\n      jumpi\n      0x0100\n      dup1\n      dup4\n      sload\n      div\n      mul\n      dup4\n      mstore\n      swap2\n      0x20\n      add\n      swap2\n      jump(tag_251)\n    tag_252:\n      dup3\n      add\n      swap2\n      swap1\n      0x00\n      mstore\n      keccak256(0x00, 0x20)\n      swap1\n    tag_253:\n      dup2\n      sload\n      dup2\n      mstore\n      swap1\n      0x01\n      add\n      swap1\n      0x20\n      add\n      dup1\n      dup4\n      gt\n      tag_253\n      jumpi\n      dup3\n      swap1\n      sub\n      0x1f\n      and\n      dup3\n      add\n      swap2\n    tag_251:\n      pop\n      pop\n      pop\n      pop\n      pop\n      dup2\n      mstore\n      0x20\n      add\n      0x01\n      dup3\n      add\n      dup1\n      sload\n      tag_254\n      swap1\n      tag_85\n      jump\t// in\n    tag_254:\n      dup1\n      0x1f\n      add\n      0x20\n      dup1\n      swap2\n      div\n      mul\n      0x20\n      add\n      mload(0x40)\n      swap1\n      dup2\n      add\n      0x40\n      mstore\n      dup1\n      swap3\n      swap2\n      swap1\n      dup2\n      dup2\n      mstore\n      0x20\n      add\n      dup3\n      dup1\n      sload\n      tag_255\n      swap1\n      tag_85\n      jump\t// in\n    tag_255:\n      dup1\n      iszero\n      tag_256\n      jumpi\n      dup1\n      0x1f\n      lt\n      tag_257\n      jumpi\n      0x0100\n      dup1\n      dup4\n      sload\n      div\n      mul\n      dup4\n      mstore\n      swap2\n      0x20\n      add\n      swap2\n      jump(tag_256)\n    tag_257:\n      dup3\n      add\n      swap2\n      swap1\n      0x00\n      mstore\n      keccak256(0x00, 0x20)\n      swap1\n    tag_258:\n      dup2\n      sload\n      dup2\n      mstore\n      swap1\n      0x01\n      add\n      swap1\n      0x20\n      add\n      dup1\n      dup4\n      gt\n      tag_258\n      jumpi\n      dup3\n      swap1\n      sub\n      0x1f\n      and\n      dup3\n      add\n      swap2\n    tag_256:\n      pop\n      pop\n      pop\n      pop\n      pop\n      dup2\n      mstore\n      0x20\n      add\n      0x02\n      dup3\n      add\n      dup1\n      sload\n      tag_259\n      swap1\n      tag_85\n      jump\t// in\n    tag_259:\n      dup1\n      0x1f\n      add\n      0x20\n      dup1\n      swap2\n      div\n      mul\n      0x20\n      add\n      mload(0x40)\n      swap1\n      dup2\n      add\n      0x40\n      mstore\n      dup1\n      swap3\n      swap2\n      swap1\n      dup2\n      dup2\n      mstore\n      0x20\n      add\n      dup3\n      dup1\n      sload\n      tag_260\n      swap1\n      tag_85\n      jump\t// in\n    tag_260:\n      dup1\n      iszero\n      tag_261\n      jumpi\n      dup1\n      0x1f\n      lt\n      tag_262\n      jumpi\n      0x0100\n      dup1\n      dup4\n      sload\n      div\n      mul\n      dup4\n      mstore\n      swap2\n      0x20\n      add\n      swap2\n      jump(tag_261)\n    tag_262:\n      dup3\n      add\n      swap2\n      swap1\n      0x00\n      mstore\n      keccak256(0x00, 0x20)\n      swap1\n    tag_263:\n      dup2\n      sload\n      dup2\n      mstore\n      swap1\n      0x01\n      add\n      swap1\n      0x20\n      add\n      dup1\n      dup4\n      gt\n      tag_263\n      jumpi\n      dup3\n      swap1\n      sub\n      0x1f\n      and\n      dup3\n      add\n      swap2\n    tag_261:\n      pop\n      pop\n      pop\n      pop\n      pop\n      dup2\n      mstore\n      0x20\n      add\n      0x03\n      dup3\n      add\n      sload\n      dup2\n      mstore\n      0x20\n      add\n      0x04\n      dup3\n      add\n      sload\n      dup2\n      mstore\n      0x20\n      add\n      0x05\n      dup3\n      add\n      sload\n      dup2\n      mstore\n      0x20\n      add\n      0x06\n      dup3\n      add\n      sload\n      dup2\n      mstore\n      0x20\n      add\n      0x07\n      dup3\n      add\n      sload\n      dup2\n      mstore\n      0x20\n      add\n      0x08\n      dup3\n      add\n      0x00\n      swap1\n      sload\n      swap1\n      0x0100\n      exp\n      swap1\n      div\n      0xff\n      and\n      iszero\n      iszero\n      iszero\n      iszero\n      dup2\n      mstore\n      0x20\n      add\n      0x08\n      dup3\n      add\n      0x01\n      swap1\n      sload\n      swap1\n      0x0100\n      exp\n      swap1\n      div\n      0xff\n      and\n      iszero\n      iszero\n      iszero\n      iszero\n      dup2\n      mstore\n      0x20\n      add\n      0x08\n      dup3\n      add\n      0x02\n      swap1\n      sload\n      swap1\n      0x0100\n      exp\n      swap1\n      div\n      0xff\n      and\n      iszero\n      iszero\n      iszero\n      iszero\n      dup2\n      mstore\n      pop\n      pop\n      swap1\n      pop\n        /* \"wwcc-contracts/contracts/wwccPool.sol\":6913:6917  true */\n      0x01\n        /* \"wwcc-contracts/contracts/wwccPool.sol\":6899:6903  pool */\n      dup2\n        /* \"wwcc-contracts/contracts/wwccPool.sol\":6899:6912  pool.finished */\n      0x0140\n      add\n        /* \"wwcc-contracts/contracts/wwccPool.sol\":6899:6917  pool.finished=true */\n      swap1\n      iszero\n      iszero\n      swap1\n      dup2\n      iszero\n      iszero\n      dup2\n      mstore\n      pop\n        /* \"wwcc-contracts/contracts/wwccPool.sol\":6895:6976  if (pool.finished=true){... */\n      iszero\n      tag_264\n      jumpi\n        /* \"wwcc-contracts/contracts/wwccPool.sol\":6935:6962  revert(\"pool has finished\") */\n      mload(0x40)\n      0x08c379a000000000000000000000000000000000000000000000000000000000\n      dup2\n      mstore\n      0x04\n      add\n      tag_265\n      swap1\n      tag_266\n      jump\t// in\n    tag_265:\n      mload(0x40)\n      dup1\n      swap2\n      sub\n      swap1\n      revert\n        /* \"wwcc-contracts/contracts/wwccPool.sol\":6895:6976  if (pool.finished=true){... */\n    tag_264:\n        /* \"wwcc-contracts/contracts/wwccPool.sol\":6988:7023  JoinerPicking[] memory separateBets */\n      0x00\n        /* \"wwcc-contracts/contracts/wwccPool.sol\":7026:7042  allScorePoolInfo */\n      0x04\n        /* \"wwcc-contracts/contracts/wwccPool.sol\":7026:7051  allScorePoolInfo[poolKey] */\n      0x00\n        /* \"wwcc-contracts/contracts/wwccPool.sol\":7043:7050  poolKey */\n      dup9\n        /* \"wwcc-contracts/contracts/wwccPool.sol\":7026:7051  allScorePoolInfo[poolKey] */\n      dup2\n      mstore\n      0x20\n      add\n      swap1\n      dup2\n      mstore\n      0x20\n      add\n      0x00\n      keccak256\n        /* \"wwcc-contracts/contracts/wwccPool.sol\":7026:7063  allScorePoolInfo[poolKey].separateBet */\n      0x00\n      add\n        /* \"wwcc-contracts/contracts/wwccPool.sol\":6988:7063  JoinerPicking[] memory separateBets = allScorePoolInfo[poolKey].separateBet */\n      dup1\n      sload\n      dup1\n      0x20\n      mul\n      0x20\n      add\n      mload(0x40)\n      swap1\n      dup2\n      add\n      0x40\n      mstore\n      dup1\n      swap3\n      swap2\n      swap1\n      dup2\n      dup2\n      mstore\n      0x20\n      add\n      0x00\n      swap1\n    tag_267:\n      dup3\n      dup3\n      lt\n      iszero\n      tag_268\n      jumpi\n      dup4\n      dup3\n      swap1\n      0x00\n      mstore\n      keccak256(0x00, 0x20)\n      swap1\n      0x07\n      mul\n      add\n      mload(0x40)\n      dup1\n      0xe0\n      add\n      0x40\n      mstore\n      swap1\n      dup2\n      0x00\n      dup3\n      add\n      sload\n      dup2\n      mstore\n      0x20\n      add\n      0x01\n      dup3\n      add\n      sload\n      dup2\n      mstore\n      0x20\n      add\n      0x02\n      dup3\n      add\n      sload\n      dup2\n      mstore\n      0x20\n      add\n      0x03\n      dup3\n      add\n      sload\n      dup2\n      mstore\n      0x20\n      add\n      0x04\n      dup3\n      add\n      0x00\n      swap1\n      sload\n      swap1\n      0x0100\n      exp\n      swap1\n      div\n      0xffffffffffffffffffffffffffffffffffffffff\n      and\n      0xffffffffffffffffffffffffffffffffffffffff\n      and\n      0xffffffffffffffffffffffffffffffffffffffff\n      and\n      dup2\n      mstore\n      0x20\n      add\n      0x05\n      dup3\n      add\n      dup1\n      sload\n      tag_270\n      swap1\n      tag_85\n      jump\t// in\n    tag_270:\n      dup1\n      0x1f\n      add\n      0x20\n      dup1\n      swap2\n      div\n      mul\n      0x20\n      add\n      mload(0x40)\n      swap1\n      dup2\n      add\n      0x40\n      mstore\n      dup1\n      swap3\n      swap2\n      swap1\n      dup2\n      dup2\n      mstore\n      0x20\n      add\n      dup3\n      dup1\n      sload\n      tag_271\n      swap1\n      tag_85\n      jump\t// in\n    tag_271:\n      dup1\n      iszero\n      tag_272\n      jumpi\n      dup1\n      0x1f\n      lt\n      tag_273\n      jumpi\n      0x0100\n      dup1\n      dup4\n      sload\n      div\n      mul\n      dup4\n      mstore\n      swap2\n      0x20\n      add\n      swap2\n      jump(tag_272)\n    tag_273:\n      dup3\n      add\n      swap2\n      swap1\n      0x00\n      mstore\n      keccak256(0x00, 0x20)\n      swap1\n    tag_274:\n      dup2\n      sload\n      dup2\n      mstore\n      swap1\n      0x01\n      add\n      swap1\n      0x20\n      add\n      dup1\n      dup4\n      gt\n      tag_274\n      jumpi\n      dup3\n      swap1\n      sub\n      0x1f\n      and\n      dup3\n      add\n      swap2\n    tag_272:\n      pop\n      pop\n      pop\n      pop\n      pop\n      dup2\n      mstore\n      0x20\n      add\n      0x06\n      dup3\n      add\n      0x00\n      swap1\n      sload\n      swap1\n      0x0100\n      exp\n      swap1\n      div\n      0xff\n      and\n      iszero\n      iszero\n      iszero\n      iszero\n      dup2\n      mstore\n      pop\n      pop\n      dup2\n      mstore\n      0x20\n      add\n      swap1\n      0x01\n      add\n      swap1\n      jump(tag_267)\n    tag_268:\n      pop\n      pop\n      pop\n      pop\n      swap1\n      pop\n        /* \"wwcc-contracts/contracts/wwccPool.sol\":7076:7099  uint256 allRewardAmount */\n      0x00\n        /* \"wwcc-contracts/contracts/wwccPool.sol\":7133:7208  (pool.sPool + pool.wPool+pool.lPool+pool.dPool + pool.basal.div(2)).div(20) */\n      tag_275\n        /* \"wwcc-contracts/contracts/wwccPool.sol\":7205:7207  20 */\n      0x14\n        /* \"wwcc-contracts/contracts/wwccPool.sol\":7182:7199  pool.basal.div(2) */\n      tag_276\n        /* \"wwcc-contracts/contracts/wwccPool.sol\":7197:7198  2 */\n      0x02\n        /* \"wwcc-contracts/contracts/wwccPool.sol\":7182:7186  pool */\n      dup7\n        /* \"wwcc-contracts/contracts/wwccPool.sol\":7182:7192  pool.basal */\n      0xe0\n      add\n      mload\n        /* \"wwcc-contracts/contracts/wwccPool.sol\":7182:7196  pool.basal.div */\n      tag_105\n      swap1\n        /* \"wwcc-contracts/contracts/wwccPool.sol\":7182:7199  pool.basal.div(2) */\n      swap2\n      swap1\n      0xffffffff\n      and\n      jump\t// in\n    tag_276:\n        /* \"wwcc-contracts/contracts/wwccPool.sol\":7169:7173  pool */\n      dup6\n        /* \"wwcc-contracts/contracts/wwccPool.sol\":7169:7179  pool.dPool */\n      0x80\n      add\n      mload\n        /* \"wwcc-contracts/contracts/wwccPool.sol\":7158:7162  pool */\n      dup7\n        /* \"wwcc-contracts/contracts/wwccPool.sol\":7158:7168  pool.lPool */\n      0xa0\n      add\n      mload\n        /* \"wwcc-contracts/contracts/wwccPool.sol\":7147:7151  pool */\n      dup8\n        /* \"wwcc-contracts/contracts/wwccPool.sol\":7147:7157  pool.wPool */\n      0x60\n      add\n      mload\n        /* \"wwcc-contracts/contracts/wwccPool.sol\":7134:7138  pool */\n      dup9\n        /* \"wwcc-contracts/contracts/wwccPool.sol\":7134:7144  pool.sPool */\n      0xc0\n      add\n      mload\n        /* \"wwcc-contracts/contracts/wwccPool.sol\":7134:7157  pool.sPool + pool.wPool */\n      tag_277\n      swap2\n      swap1\n      tag_17\n      jump\t// in\n    tag_277:\n        /* \"wwcc-contracts/contracts/wwccPool.sol\":7134:7168  pool.sPool + pool.wPool+pool.lPool */\n      tag_278\n      swap2\n      swap1\n      tag_17\n      jump\t// in\n    tag_278:\n        /* \"wwcc-contracts/contracts/wwccPool.sol\":7134:7179  pool.sPool + pool.wPool+pool.lPool+pool.dPool */\n      tag_279\n      swap2\n      swap1\n      tag_17\n      jump\t// in\n    tag_279:\n        /* \"wwcc-contracts/contracts/wwccPool.sol\":7134:7199  pool.sPool + pool.wPool+pool.lPool+pool.dPool + pool.basal.div(2) */\n      tag_280\n      swap2\n      swap1\n      tag_17\n      jump\t// in\n    tag_280:\n        /* \"wwcc-contracts/contracts/wwccPool.sol\":7133:7204  (pool.sPool + pool.wPool+pool.lPool+pool.dPool + pool.basal.div(2)).div */\n      tag_105\n      swap1\n        /* \"wwcc-contracts/contracts/wwccPool.sol\":7133:7208  (pool.sPool + pool.wPool+pool.lPool+pool.dPool + pool.basal.div(2)).div(20) */\n      swap2\n      swap1\n      0xffffffff\n      and\n      jump\t// in\n    tag_275:\n        /* \"wwcc-contracts/contracts/wwccPool.sol\":7116:7129  nextBasalLast */\n      0x01\n      0x00\n        /* \"wwcc-contracts/contracts/wwccPool.sol\":7116:7208  nextBasalLast += (pool.sPool + pool.wPool+pool.lPool+pool.dPool + pool.basal.div(2)).div(20) */\n      dup3\n      dup3\n      sload\n      tag_281\n      swap2\n      swap1\n      tag_17\n      jump\t// in\n    tag_281:\n      swap3\n      pop\n      pop\n      dup2\n      swap1\n      sstore\n      pop\n        /* \"wwcc-contracts/contracts/wwccPool.sol\":7382:7388  uint j */\n      0x00\n        /* \"wwcc-contracts/contracts/wwccPool.sol\":7360:9877  for (... */\n    tag_282:\n        /* \"wwcc-contracts/contracts/wwccPool.sol\":7435:7436  1 */\n      0x01\n        /* \"wwcc-contracts/contracts/wwccPool.sol\":7415:7427  separateBets */\n      dup4\n        /* \"wwcc-contracts/contracts/wwccPool.sol\":7415:7434  separateBets.length */\n      mload\n        /* \"wwcc-contracts/contracts/wwccPool.sol\":7415:7436  separateBets.length-1 */\n      tag_285\n      swap2\n      swap1\n      tag_143\n      jump\t// in\n    tag_285:\n        /* \"wwcc-contracts/contracts/wwccPool.sol\":7410:7411  j */\n      dup2\n        /* \"wwcc-contracts/contracts/wwccPool.sol\":7410:7436  j <= separateBets.length-1 */\n      gt\n        /* \"wwcc-contracts/contracts/wwccPool.sol\":7360:9877  for (... */\n      tag_283\n      jumpi\n        /* \"wwcc-contracts/contracts/wwccPool.sol\":7526:7531  false */\n      0x00\n        /* \"wwcc-contracts/contracts/wwccPool.sol\":7499:7511  separateBets */\n      dup4\n        /* \"wwcc-contracts/contracts/wwccPool.sol\":7512:7513  j */\n      dup3\n        /* \"wwcc-contracts/contracts/wwccPool.sol\":7499:7514  separateBets[j] */\n      dup2\n      mload\n      dup2\n      lt\n      tag_286\n      jumpi\n      tag_287\n      tag_288\n      jump\t// in\n    tag_287:\n    tag_286:\n      0x20\n      mul\n      0x20\n      add\n      add\n      mload\n        /* \"wwcc-contracts/contracts/wwccPool.sol\":7499:7523  separateBets[j].finished */\n      0xc0\n      add\n        /* \"wwcc-contracts/contracts/wwccPool.sol\":7499:7531  separateBets[j].finished = false */\n      swap1\n      iszero\n      iszero\n      swap1\n      dup2\n      iszero\n      iszero\n      dup2\n      mstore\n      pop\n        /* \"wwcc-contracts/contracts/wwccPool.sol\":7496:9857  if(separateBets[j].finished = false){... */\n      iszero\n      tag_289\n      jumpi\n        /* \"wwcc-contracts/contracts/wwccPool.sol\":7581:7582  2 */\n      0x02\n        /* \"wwcc-contracts/contracts/wwccPool.sol\":7559:7571  separateBets */\n      dup4\n        /* \"wwcc-contracts/contracts/wwccPool.sol\":7572:7573  j */\n      dup3\n        /* \"wwcc-contracts/contracts/wwccPool.sol\":7559:7574  separateBets[j] */\n      dup2\n      mload\n      dup2\n      lt\n      tag_290\n      jumpi\n      tag_291\n      tag_288\n      jump\t// in\n    tag_291:\n    tag_290:\n      0x20\n      mul\n      0x20\n      add\n      add\n      mload\n        /* \"wwcc-contracts/contracts/wwccPool.sol\":7559:7579  separateBets[j].kind */\n      0x20\n      add\n      mload\n        /* \"wwcc-contracts/contracts/wwccPool.sol\":7559:7582  separateBets[j].kind==2 */\n      eq\n        /* \"wwcc-contracts/contracts/wwccPool.sol\":7556:9837  if(separateBets[j].kind==2){... */\n      iszero\n      tag_292\n      jumpi\n        /* \"wwcc-contracts/contracts/wwccPool.sol\":7629:7678  (pool.sPool + pool.basal.div(2)).mul(85).div(100) */\n      tag_293\n        /* \"wwcc-contracts/contracts/wwccPool.sol\":7674:7677  100 */\n      0x64\n        /* \"wwcc-contracts/contracts/wwccPool.sol\":7629:7669  (pool.sPool + pool.basal.div(2)).mul(85) */\n      tag_294\n        /* \"wwcc-contracts/contracts/wwccPool.sol\":7666:7668  85 */\n      0x55\n        /* \"wwcc-contracts/contracts/wwccPool.sol\":7643:7660  pool.basal.div(2) */\n      tag_295\n        /* \"wwcc-contracts/contracts/wwccPool.sol\":7658:7659  2 */\n      0x02\n        /* \"wwcc-contracts/contracts/wwccPool.sol\":7643:7647  pool */\n      dup10\n        /* \"wwcc-contracts/contracts/wwccPool.sol\":7643:7653  pool.basal */\n      0xe0\n      add\n      mload\n        /* \"wwcc-contracts/contracts/wwccPool.sol\":7643:7657  pool.basal.div */\n      tag_105\n      swap1\n        /* \"wwcc-contracts/contracts/wwccPool.sol\":7643:7660  pool.basal.div(2) */\n      swap2\n      swap1\n      0xffffffff\n      and\n      jump\t// in\n    tag_295:\n        /* \"wwcc-contracts/contracts/wwccPool.sol\":7630:7634  pool */\n      dup9\n        /* \"wwcc-contracts/contracts/wwccPool.sol\":7630:7640  pool.sPool */\n      0xc0\n      add\n      mload\n        /* \"wwcc-contracts/contracts/wwccPool.sol\":7630:7660  pool.sPool + pool.basal.div(2) */\n      tag_296\n      swap2\n      swap1\n      tag_17\n      jump\t// in\n    tag_296:\n        /* \"wwcc-contracts/contracts/wwccPool.sol\":7629:7665  (pool.sPool + pool.basal.div(2)).mul */\n      tag_297\n      swap1\n        /* \"wwcc-contracts/contracts/wwccPool.sol\":7629:7669  (pool.sPool + pool.basal.div(2)).mul(85) */\n      swap2\n      swap1\n      0xffffffff\n      and\n      jump\t// in\n    tag_294:\n        /* \"wwcc-contracts/contracts/wwccPool.sol\":7629:7673  (pool.sPool + pool.basal.div(2)).mul(85).div */\n      tag_105\n      swap1\n        /* \"wwcc-contracts/contracts/wwccPool.sol\":7629:7678  (pool.sPool + pool.basal.div(2)).mul(85).div(100) */\n      swap2\n      swap1\n      0xffffffff\n      and\n      jump\t// in\n    tag_293:\n        /* \"wwcc-contracts/contracts/wwccPool.sol\":7611:7678  allRewardAmount = (pool.sPool + pool.basal.div(2)).mul(85).div(100) */\n      swap2\n      pop\n        /* \"wwcc-contracts/contracts/wwccPool.sol\":7733:7742  homeScore */\n      dup8\n        /* \"wwcc-contracts/contracts/wwccPool.sol\":7706:7718  separateBets */\n      dup4\n        /* \"wwcc-contracts/contracts/wwccPool.sol\":7719:7720  j */\n      dup3\n        /* \"wwcc-contracts/contracts/wwccPool.sol\":7706:7721  separateBets[j] */\n      dup2\n      mload\n      dup2\n      lt\n      tag_298\n      jumpi\n      tag_299\n      tag_288\n      jump\t// in\n    tag_299:\n    tag_298:\n      0x20\n      mul\n      0x20\n      add\n      add\n      mload\n        /* \"wwcc-contracts/contracts/wwccPool.sol\":7706:7731  separateBets[j].homeScore */\n      0x40\n      add\n      mload\n        /* \"wwcc-contracts/contracts/wwccPool.sol\":7706:7742  separateBets[j].homeScore==homeScore */\n      eq\n        /* \"wwcc-contracts/contracts/wwccPool.sol\":7706:7784  separateBets[j].homeScore==homeScore && separateBets[j].visitScore==visitScore */\n      dup1\n      iszero\n      tag_300\n      jumpi\n      pop\n        /* \"wwcc-contracts/contracts/wwccPool.sol\":7774:7784  visitScore */\n      dup7\n        /* \"wwcc-contracts/contracts/wwccPool.sol\":7746:7758  separateBets */\n      dup4\n        /* \"wwcc-contracts/contracts/wwccPool.sol\":7759:7760  j */\n      dup3\n        /* \"wwcc-contracts/contracts/wwccPool.sol\":7746:7761  separateBets[j] */\n      dup2\n      mload\n      dup2\n      lt\n      tag_301\n      jumpi\n      tag_302\n      tag_288\n      jump\t// in\n    tag_302:\n    tag_301:\n      0x20\n      mul\n      0x20\n      add\n      add\n      mload\n        /* \"wwcc-contracts/contracts/wwccPool.sol\":7746:7772  separateBets[j].visitScore */\n      0x60\n      add\n      mload\n        /* \"wwcc-contracts/contracts/wwccPool.sol\":7746:7784  separateBets[j].visitScore==visitScore */\n      eq\n        /* \"wwcc-contracts/contracts/wwccPool.sol\":7706:7784  separateBets[j].homeScore==homeScore && separateBets[j].visitScore==visitScore */\n    tag_300:\n        /* \"wwcc-contracts/contracts/wwccPool.sol\":7702:8500  if (separateBets[j].homeScore==homeScore && separateBets[j].visitScore==visitScore){... */\n      iszero\n      tag_303\n      jumpi\n        /* \"wwcc-contracts/contracts/wwccPool.sol\":7813:7842  uint256 singleScorePoolAmount */\n      0x00\n        /* \"wwcc-contracts/contracts/wwccPool.sol\":7845:7860  singleScorePool */\n      0x05\n        /* \"wwcc-contracts/contracts/wwccPool.sol\":7861:7873  separateBets */\n      dup5\n        /* \"wwcc-contracts/contracts/wwccPool.sol\":7874:7875  j */\n      dup4\n        /* \"wwcc-contracts/contracts/wwccPool.sol\":7861:7876  separateBets[j] */\n      dup2\n      mload\n      dup2\n      lt\n      tag_304\n      jumpi\n      tag_305\n      tag_288\n      jump\t// in\n    tag_305:\n    tag_304:\n      0x20\n      mul\n      0x20\n      add\n      add\n      mload\n        /* \"wwcc-contracts/contracts/wwccPool.sol\":7861:7887  separateBets[j].pickingKey */\n      0xa0\n      add\n      mload\n        /* \"wwcc-contracts/contracts/wwccPool.sol\":7845:7888  singleScorePool[separateBets[j].pickingKey] */\n      mload(0x40)\n      tag_306\n      swap2\n      swap1\n      tag_152\n      jump\t// in\n    tag_306:\n      swap1\n      dup2\n      mstore\n      0x20\n      add\n      mload(0x40)\n      dup1\n      swap2\n      sub\n      swap1\n      keccak256\n      sload\n        /* \"wwcc-contracts/contracts/wwccPool.sol\":7813:7888  uint256 singleScorePoolAmount = singleScorePool[separateBets[j].pickingKey] */\n      swap1\n      pop\n        /* \"wwcc-contracts/contracts/wwccPool.sol\":7916:7936  uint256 rewardAmount */\n      0x00\n        /* \"wwcc-contracts/contracts/wwccPool.sol\":7983:8004  singleScorePoolAmount */\n      dup2\n        /* \"wwcc-contracts/contracts/wwccPool.sol\":7957:7969  separateBets */\n      dup6\n        /* \"wwcc-contracts/contracts/wwccPool.sol\":7970:7971  j */\n      dup5\n        /* \"wwcc-contracts/contracts/wwccPool.sol\":7957:7972  separateBets[j] */\n      dup2\n      mload\n      dup2\n      lt\n      tag_307\n      jumpi\n      tag_308\n      tag_288\n      jump\t// in\n    tag_308:\n    tag_307:\n      0x20\n      mul\n      0x20\n      add\n      add\n      mload\n        /* \"wwcc-contracts/contracts/wwccPool.sol\":7957:7979  separateBets[j].weight */\n      0x00\n      add\n      mload\n        /* \"wwcc-contracts/contracts/wwccPool.sol\":7939:7954  allRewardAmount */\n      dup6\n        /* \"wwcc-contracts/contracts/wwccPool.sol\":7939:7979  allRewardAmount * separateBets[j].weight */\n      tag_309\n      swap2\n      swap1\n      tag_310\n      jump\t// in\n    tag_309:\n        /* \"wwcc-contracts/contracts/wwccPool.sol\":7939:8004  allRewardAmount * separateBets[j].weight /  singleScorePoolAmount */\n      tag_311\n      swap2\n      swap1\n      tag_312\n      jump\t// in\n    tag_311:\n        /* \"wwcc-contracts/contracts/wwccPool.sol\":7916:8004  uint256 rewardAmount = allRewardAmount * separateBets[j].weight /  singleScorePoolAmount */\n      swap1\n      pop\n        /* \"wwcc-contracts/contracts/wwccPool.sol\":8376:8388  rewardAmount */\n      dup1\n        /* \"wwcc-contracts/contracts/wwccPool.sol\":8338:8348  voteAmount */\n      0x02\n        /* \"wwcc-contracts/contracts/wwccPool.sol\":8338:8372  voteAmount[separateBets[j].joiner] */\n      0x00\n        /* \"wwcc-contracts/contracts/wwccPool.sol\":8349:8361  separateBets */\n      dup8\n        /* \"wwcc-contracts/contracts/wwccPool.sol\":8362:8363  j */\n      dup7\n        /* \"wwcc-contracts/contracts/wwccPool.sol\":8349:8364  separateBets[j] */\n      dup2\n      mload\n      dup2\n      lt\n      tag_313\n      jumpi\n      tag_314\n      tag_288\n      jump\t// in\n    tag_314:\n    tag_313:\n      0x20\n      mul\n      0x20\n      add\n      add\n      mload\n        /* \"wwcc-contracts/contracts/wwccPool.sol\":8349:8371  separateBets[j].joiner */\n      0x80\n      add\n      mload\n        /* \"wwcc-contracts/contracts/wwccPool.sol\":8338:8372  voteAmount[separateBets[j].joiner] */\n      0xffffffffffffffffffffffffffffffffffffffff\n      and\n      0xffffffffffffffffffffffffffffffffffffffff\n      and\n      dup2\n      mstore\n      0x20\n      add\n      swap1\n      dup2\n      mstore\n      0x20\n      add\n      0x00\n      keccak256\n      0x00\n        /* \"wwcc-contracts/contracts/wwccPool.sol\":8338:8388  voteAmount[separateBets[j].joiner] += rewardAmount */\n      dup3\n      dup3\n      sload\n      tag_315\n      swap2\n      swap1\n      tag_17\n      jump\t// in\n    tag_315:\n      swap3\n      pop\n      pop\n      dup2\n      swap1\n      sstore\n      pop\n        /* \"wwcc-contracts/contracts/wwccPool.sol\":8443:8447  true */\n      0x01\n        /* \"wwcc-contracts/contracts/wwccPool.sol\":8416:8428  separateBets */\n      dup6\n        /* \"wwcc-contracts/contracts/wwccPool.sol\":8429:8430  j */\n      dup5\n        /* \"wwcc-contracts/contracts/wwccPool.sol\":8416:8431  separateBets[j] */\n      dup2\n      mload\n      dup2\n      lt\n      tag_316\n      jumpi\n      tag_317\n      tag_288\n      jump\t// in\n    tag_317:\n    tag_316:\n      0x20\n      mul\n      0x20\n      add\n      add\n      mload\n        /* \"wwcc-contracts/contracts/wwccPool.sol\":8416:8440  separateBets[j].finished */\n      0xc0\n      add\n        /* \"wwcc-contracts/contracts/wwccPool.sol\":8416:8447  separateBets[j].finished = true */\n      swap1\n      iszero\n      iszero\n      swap1\n      dup2\n      iszero\n      iszero\n      dup2\n      mstore\n      pop\n      pop\n        /* \"wwcc-contracts/contracts/wwccPool.sol\":7785:8500  {... */\n      pop\n      pop\n        /* \"wwcc-contracts/contracts/wwccPool.sol\":7702:8500  if (separateBets[j].homeScore==homeScore && separateBets[j].visitScore==visitScore){... */\n    tag_303:\n        /* \"wwcc-contracts/contracts/wwccPool.sol\":7556:9837  if(separateBets[j].kind==2){... */\n      jump(tag_318)\n    tag_292:\n        /* \"wwcc-contracts/contracts/wwccPool.sol\":8575:8581  result */\n      dup6\n        /* \"wwcc-contracts/contracts/wwccPool.sol\":8553:8565  separateBets */\n      dup4\n        /* \"wwcc-contracts/contracts/wwccPool.sol\":8566:8567  j */\n      dup3\n        /* \"wwcc-contracts/contracts/wwccPool.sol\":8553:8568  separateBets[j] */\n      dup2\n      mload\n      dup2\n      lt\n      tag_319\n      jumpi\n      tag_320\n      tag_288\n      jump\t// in\n    tag_320:\n    tag_319:\n      0x20\n      mul\n      0x20\n      add\n      add\n      mload\n        /* \"wwcc-contracts/contracts/wwccPool.sol\":8553:8573  separateBets[j].kind */\n      0x20\n      add\n      mload\n        /* \"wwcc-contracts/contracts/wwccPool.sol\":8553:8581  separateBets[j].kind==result */\n      eq\n        /* \"wwcc-contracts/contracts/wwccPool.sol\":8550:9815  if(separateBets[j].kind==result){... */\n      iszero\n      tag_321\n      jumpi\n        /* \"wwcc-contracts/contracts/wwccPool.sol\":8628:8698  (pool.wPool+pool.lPool+pool.dPool+ pool.basal.div(2)).mul(85).div(100) */\n      tag_322\n        /* \"wwcc-contracts/contracts/wwccPool.sol\":8694:8697  100 */\n      0x64\n        /* \"wwcc-contracts/contracts/wwccPool.sol\":8628:8689  (pool.wPool+pool.lPool+pool.dPool+ pool.basal.div(2)).mul(85) */\n      tag_323\n        /* \"wwcc-contracts/contracts/wwccPool.sol\":8686:8688  85 */\n      0x55\n        /* \"wwcc-contracts/contracts/wwccPool.sol\":8663:8680  pool.basal.div(2) */\n      tag_324\n        /* \"wwcc-contracts/contracts/wwccPool.sol\":8678:8679  2 */\n      0x02\n        /* \"wwcc-contracts/contracts/wwccPool.sol\":8663:8667  pool */\n      dup10\n        /* \"wwcc-contracts/contracts/wwccPool.sol\":8663:8673  pool.basal */\n      0xe0\n      add\n      mload\n        /* \"wwcc-contracts/contracts/wwccPool.sol\":8663:8677  pool.basal.div */\n      tag_105\n      swap1\n        /* \"wwcc-contracts/contracts/wwccPool.sol\":8663:8680  pool.basal.div(2) */\n      swap2\n      swap1\n      0xffffffff\n      and\n      jump\t// in\n    tag_324:\n        /* \"wwcc-contracts/contracts/wwccPool.sol\":8651:8655  pool */\n      dup9\n        /* \"wwcc-contracts/contracts/wwccPool.sol\":8651:8661  pool.dPool */\n      0x80\n      add\n      mload\n        /* \"wwcc-contracts/contracts/wwccPool.sol\":8640:8644  pool */\n      dup10\n        /* \"wwcc-contracts/contracts/wwccPool.sol\":8640:8650  pool.lPool */\n      0xa0\n      add\n      mload\n        /* \"wwcc-contracts/contracts/wwccPool.sol\":8629:8633  pool */\n      dup11\n        /* \"wwcc-contracts/contracts/wwccPool.sol\":8629:8639  pool.wPool */\n      0x60\n      add\n      mload\n        /* \"wwcc-contracts/contracts/wwccPool.sol\":8629:8650  pool.wPool+pool.lPool */\n      tag_325\n      swap2\n      swap1\n      tag_17\n      jump\t// in\n    tag_325:\n        /* \"wwcc-contracts/contracts/wwccPool.sol\":8629:8661  pool.wPool+pool.lPool+pool.dPool */\n      tag_326\n      swap2\n      swap1\n      tag_17\n      jump\t// in\n    tag_326:\n        /* \"wwcc-contracts/contracts/wwccPool.sol\":8629:8680  pool.wPool+pool.lPool+pool.dPool+ pool.basal.div(2) */\n      tag_327\n      swap2\n      swap1\n      tag_17\n      jump\t// in\n    tag_327:\n        /* \"wwcc-contracts/contracts/wwccPool.sol\":8628:8685  (pool.wPool+pool.lPool+pool.dPool+ pool.basal.div(2)).mul */\n      tag_297\n      swap1\n        /* \"wwcc-contracts/contracts/wwccPool.sol\":8628:8689  (pool.wPool+pool.lPool+pool.dPool+ pool.basal.div(2)).mul(85) */\n      swap2\n      swap1\n      0xffffffff\n      and\n      jump\t// in\n    tag_323:\n        /* \"wwcc-contracts/contracts/wwccPool.sol\":8628:8693  (pool.wPool+pool.lPool+pool.dPool+ pool.basal.div(2)).mul(85).div */\n      tag_105\n      swap1\n        /* \"wwcc-contracts/contracts/wwccPool.sol\":8628:8698  (pool.wPool+pool.lPool+pool.dPool+ pool.basal.div(2)).mul(85).div(100) */\n      swap2\n      swap1\n      0xffffffff\n      and\n      jump\t// in\n    tag_322:\n        /* \"wwcc-contracts/contracts/wwccPool.sol\":8610:8698  allRewardAmount = (pool.wPool+pool.lPool+pool.dPool+ pool.basal.div(2)).mul(85).div(100) */\n      swap2\n      pop\n        /* \"wwcc-contracts/contracts/wwccPool.sol\":8726:8748  uint256 pickPoolAmount */\n      0x00\n        /* \"wwcc-contracts/contracts/wwccPool.sol\":8808:8809  0 */\n      dup1\n        /* \"wwcc-contracts/contracts/wwccPool.sol\":8784:8796  separateBets */\n      dup5\n        /* \"wwcc-contracts/contracts/wwccPool.sol\":8797:8798  j */\n      dup4\n        /* \"wwcc-contracts/contracts/wwccPool.sol\":8784:8799  separateBets[j] */\n      dup2\n      mload\n      dup2\n      lt\n      tag_328\n      jumpi\n      tag_329\n      tag_288\n      jump\t// in\n    tag_329:\n    tag_328:\n      0x20\n      mul\n      0x20\n      add\n      add\n      mload\n        /* \"wwcc-contracts/contracts/wwccPool.sol\":8784:8804  separateBets[j].kind */\n      0x20\n      add\n      mload\n        /* \"wwcc-contracts/contracts/wwccPool.sol\":8784:8809  separateBets[j].kind == 0 */\n      eq\n        /* \"wwcc-contracts/contracts/wwccPool.sol\":8780:8915  if (separateBets[j].kind == 0){... */\n      iszero\n      tag_330\n      jumpi\n        /* \"wwcc-contracts/contracts/wwccPool.sol\":8859:8886  pool.lPool.mul(85).div(100) */\n      tag_331\n        /* \"wwcc-contracts/contracts/wwccPool.sol\":8882:8885  100 */\n      0x64\n        /* \"wwcc-contracts/contracts/wwccPool.sol\":8859:8877  pool.lPool.mul(85) */\n      tag_332\n        /* \"wwcc-contracts/contracts/wwccPool.sol\":8874:8876  85 */\n      0x55\n        /* \"wwcc-contracts/contracts/wwccPool.sol\":8859:8863  pool */\n      dup9\n        /* \"wwcc-contracts/contracts/wwccPool.sol\":8859:8869  pool.lPool */\n      0xa0\n      add\n      mload\n        /* \"wwcc-contracts/contracts/wwccPool.sol\":8859:8873  pool.lPool.mul */\n      tag_297\n      swap1\n        /* \"wwcc-contracts/contracts/wwccPool.sol\":8859:8877  pool.lPool.mul(85) */\n      swap2\n      swap1\n      0xffffffff\n      and\n      jump\t// in\n    tag_332:\n        /* \"wwcc-contracts/contracts/wwccPool.sol\":8859:8881  pool.lPool.mul(85).div */\n      tag_105\n      swap1\n        /* \"wwcc-contracts/contracts/wwccPool.sol\":8859:8886  pool.lPool.mul(85).div(100) */\n      swap2\n      swap1\n      0xffffffff\n      and\n      jump\t// in\n    tag_331:\n        /* \"wwcc-contracts/contracts/wwccPool.sol\":8842:8886  pickPoolAmount = pool.lPool.mul(85).div(100) */\n      swap1\n      pop\n        /* \"wwcc-contracts/contracts/wwccPool.sol\":8780:8915  if (separateBets[j].kind == 0){... */\n    tag_330:\n        /* \"wwcc-contracts/contracts/wwccPool.sol\":8970:8971  1 */\n      0x01\n        /* \"wwcc-contracts/contracts/wwccPool.sol\":8946:8958  separateBets */\n      dup5\n        /* \"wwcc-contracts/contracts/wwccPool.sol\":8959:8960  j */\n      dup4\n        /* \"wwcc-contracts/contracts/wwccPool.sol\":8946:8961  separateBets[j] */\n      dup2\n      mload\n      dup2\n      lt\n      tag_333\n      jumpi\n      tag_334\n      tag_288\n      jump\t// in\n    tag_334:\n    tag_333:\n      0x20\n      mul\n      0x20\n      add\n      add\n      mload\n        /* \"wwcc-contracts/contracts/wwccPool.sol\":8946:8966  separateBets[j].kind */\n      0x20\n      add\n      mload\n        /* \"wwcc-contracts/contracts/wwccPool.sol\":8946:8971  separateBets[j].kind == 1 */\n      eq\n        /* \"wwcc-contracts/contracts/wwccPool.sol\":8942:9077  if (separateBets[j].kind == 1){... */\n      iszero\n      tag_335\n      jumpi\n        /* \"wwcc-contracts/contracts/wwccPool.sol\":9021:9048  pool.dPool.mul(85).div(100) */\n      tag_336\n        /* \"wwcc-contracts/contracts/wwccPool.sol\":9044:9047  100 */\n      0x64\n        /* \"wwcc-contracts/contracts/wwccPool.sol\":9021:9039  pool.dPool.mul(85) */\n      tag_337\n        /* \"wwcc-contracts/contracts/wwccPool.sol\":9036:9038  85 */\n      0x55\n        /* \"wwcc-contracts/contracts/wwccPool.sol\":9021:9025  pool */\n      dup9\n        /* \"wwcc-contracts/contracts/wwccPool.sol\":9021:9031  pool.dPool */\n      0x80\n      add\n      mload\n        /* \"wwcc-contracts/contracts/wwccPool.sol\":9021:9035  pool.dPool.mul */\n      tag_297\n      swap1\n        /* \"wwcc-contracts/contracts/wwccPool.sol\":9021:9039  pool.dPool.mul(85) */\n      swap2\n      swap1\n      0xffffffff\n      and\n      jump\t// in\n    tag_337:\n        /* \"wwcc-contracts/contracts/wwccPool.sol\":9021:9043  pool.dPool.mul(85).div */\n      tag_105\n      swap1\n        /* \"wwcc-contracts/contracts/wwccPool.sol\":9021:9048  pool.dPool.mul(85).div(100) */\n      swap2\n      swap1\n      0xffffffff\n      and\n      jump\t// in\n    tag_336:\n        /* \"wwcc-contracts/contracts/wwccPool.sol\":9004:9048  pickPoolAmount = pool.dPool.mul(85).div(100) */\n      swap1\n      pop\n        /* \"wwcc-contracts/contracts/wwccPool.sol\":8942:9077  if (separateBets[j].kind == 1){... */\n    tag_335:\n        /* \"wwcc-contracts/contracts/wwccPool.sol\":9132:9133  3 */\n      0x03\n        /* \"wwcc-contracts/contracts/wwccPool.sol\":9108:9120  separateBets */\n      dup5\n        /* \"wwcc-contracts/contracts/wwccPool.sol\":9121:9122  j */\n      dup4\n        /* \"wwcc-contracts/contracts/wwccPool.sol\":9108:9123  separateBets[j] */\n      dup2\n      mload\n      dup2\n      lt\n      tag_338\n      jumpi\n      tag_339\n      tag_288\n      jump\t// in\n    tag_339:\n    tag_338:\n      0x20\n      mul\n      0x20\n      add\n      add\n      mload\n        /* \"wwcc-contracts/contracts/wwccPool.sol\":9108:9128  separateBets[j].kind */\n      0x20\n      add\n      mload\n        /* \"wwcc-contracts/contracts/wwccPool.sol\":9108:9133  separateBets[j].kind == 3 */\n      eq\n        /* \"wwcc-contracts/contracts/wwccPool.sol\":9104:9239  if (separateBets[j].kind == 3){... */\n      iszero\n      tag_340\n      jumpi\n        /* \"wwcc-contracts/contracts/wwccPool.sol\":9183:9210  pool.wPool.mul(85).div(100) */\n      tag_341\n        /* \"wwcc-contracts/contracts/wwccPool.sol\":9206:9209  100 */\n      0x64\n        /* \"wwcc-contracts/contracts/wwccPool.sol\":9183:9201  pool.wPool.mul(85) */\n      tag_342\n        /* \"wwcc-contracts/contracts/wwccPool.sol\":9198:9200  85 */\n      0x55\n        /* \"wwcc-contracts/contracts/wwccPool.sol\":9183:9187  pool */\n      dup9\n        /* \"wwcc-contracts/contracts/wwccPool.sol\":9183:9193  pool.wPool */\n      0x60\n      add\n      mload\n        /* \"wwcc-contracts/contracts/wwccPool.sol\":9183:9197  pool.wPool.mul */\n      tag_297\n      swap1\n        /* \"wwcc-contracts/contracts/wwccPool.sol\":9183:9201  pool.wPool.mul(85) */\n      swap2\n      swap1\n      0xffffffff\n      and\n      jump\t// in\n    tag_342:\n        /* \"wwcc-contracts/contracts/wwccPool.sol\":9183:9205  pool.wPool.mul(85).div */\n      tag_105\n      swap1\n        /* \"wwcc-contracts/contracts/wwccPool.sol\":9183:9210  pool.wPool.mul(85).div(100) */\n      swap2\n      swap1\n      0xffffffff\n      and\n      jump\t// in\n    tag_341:\n        /* \"wwcc-contracts/contracts/wwccPool.sol\":9166:9210  pickPoolAmount = pool.wPool.mul(85).div(100) */\n      swap1\n      pop\n        /* \"wwcc-contracts/contracts/wwccPool.sol\":9104:9239  if (separateBets[j].kind == 3){... */\n    tag_340:\n        /* \"wwcc-contracts/contracts/wwccPool.sol\":9266:9286  uint256 rewardAmount */\n      0x00\n        /* \"wwcc-contracts/contracts/wwccPool.sol\":9333:9347  pickPoolAmount */\n      dup2\n        /* \"wwcc-contracts/contracts/wwccPool.sol\":9307:9319  separateBets */\n      dup6\n        /* \"wwcc-contracts/contracts/wwccPool.sol\":9320:9321  j */\n      dup5\n        /* \"wwcc-contracts/contracts/wwccPool.sol\":9307:9322  separateBets[j] */\n      dup2\n      mload\n      dup2\n      lt\n      tag_343\n      jumpi\n      tag_344\n      tag_288\n      jump\t// in\n    tag_344:\n    tag_343:\n      0x20\n      mul\n      0x20\n      add\n      add\n      mload\n        /* \"wwcc-contracts/contracts/wwccPool.sol\":9307:9329  separateBets[j].weight */\n      0x00\n      add\n      mload\n        /* \"wwcc-contracts/contracts/wwccPool.sol\":9289:9304  allRewardAmount */\n      dup6\n        /* \"wwcc-contracts/contracts/wwccPool.sol\":9289:9329  allRewardAmount * separateBets[j].weight */\n      tag_345\n      swap2\n      swap1\n      tag_310\n      jump\t// in\n    tag_345:\n        /* \"wwcc-contracts/contracts/wwccPool.sol\":9289:9347  allRewardAmount * separateBets[j].weight /  pickPoolAmount */\n      tag_346\n      swap2\n      swap1\n      tag_312\n      jump\t// in\n    tag_346:\n        /* \"wwcc-contracts/contracts/wwccPool.sol\":9266:9347  uint256 rewardAmount = allRewardAmount * separateBets[j].weight /  pickPoolAmount */\n      swap1\n      pop\n        /* \"wwcc-contracts/contracts/wwccPool.sol\":9719:9731  rewardAmount */\n      dup1\n        /* \"wwcc-contracts/contracts/wwccPool.sol\":9681:9691  voteAmount */\n      0x02\n        /* \"wwcc-contracts/contracts/wwccPool.sol\":9681:9715  voteAmount[separateBets[j].joiner] */\n      0x00\n        /* \"wwcc-contracts/contracts/wwccPool.sol\":9692:9704  separateBets */\n      dup8\n        /* \"wwcc-contracts/contracts/wwccPool.sol\":9705:9706  j */\n      dup7\n        /* \"wwcc-contracts/contracts/wwccPool.sol\":9692:9707  separateBets[j] */\n      dup2\n      mload\n      dup2\n      lt\n      tag_347\n      jumpi\n      tag_348\n      tag_288\n      jump\t// in\n    tag_348:\n    tag_347:\n      0x20\n      mul\n      0x20\n      add\n      add\n      mload\n        /* \"wwcc-contracts/contracts/wwccPool.sol\":9692:9714  separateBets[j].joiner */\n      0x80\n      add\n      mload\n        /* \"wwcc-contracts/contracts/wwccPool.sol\":9681:9715  voteAmount[separateBets[j].joiner] */\n      0xffffffffffffffffffffffffffffffffffffffff\n      and\n      0xffffffffffffffffffffffffffffffffffffffff\n      and\n      dup2\n      mstore\n      0x20\n      add\n      swap1\n      dup2\n      mstore\n      0x20\n      add\n      0x00\n      keccak256\n      0x00\n        /* \"wwcc-contracts/contracts/wwccPool.sol\":9681:9731  voteAmount[separateBets[j].joiner] += rewardAmount */\n      dup3\n      dup3\n      sload\n      tag_349\n      swap2\n      swap1\n      tag_17\n      jump\t// in\n    tag_349:\n      swap3\n      pop\n      pop\n      dup2\n      swap1\n      sstore\n      pop\n        /* \"wwcc-contracts/contracts/wwccPool.sol\":9786:9790  true */\n      0x01\n        /* \"wwcc-contracts/contracts/wwccPool.sol\":9759:9771  separateBets */\n      dup6\n        /* \"wwcc-contracts/contracts/wwccPool.sol\":9772:9773  j */\n      dup5\n        /* \"wwcc-contracts/contracts/wwccPool.sol\":9759:9774  separateBets[j] */\n      dup2\n      mload\n      dup2\n      lt\n      tag_350\n      jumpi\n      tag_351\n      tag_288\n      jump\t// in\n    tag_351:\n    tag_350:\n      0x20\n      mul\n      0x20\n      add\n      add\n      mload\n        /* \"wwcc-contracts/contracts/wwccPool.sol\":9759:9783  separateBets[j].finished */\n      0xc0\n      add\n        /* \"wwcc-contracts/contracts/wwccPool.sol\":9759:9790  separateBets[j].finished = true */\n      swap1\n      iszero\n      iszero\n      swap1\n      dup2\n      iszero\n      iszero\n      dup2\n      mstore\n      pop\n      pop\n        /* \"wwcc-contracts/contracts/wwccPool.sol\":8582:9815  {... */\n      pop\n      pop\n        /* \"wwcc-contracts/contracts/wwccPool.sol\":8550:9815  if(separateBets[j].kind==result){... */\n    tag_321:\n        /* \"wwcc-contracts/contracts/wwccPool.sol\":7556:9837  if(separateBets[j].kind==2){... */\n    tag_318:\n        /* \"wwcc-contracts/contracts/wwccPool.sol\":7496:9857  if(separateBets[j].finished = false){... */\n    tag_289:\n        /* \"wwcc-contracts/contracts/wwccPool.sol\":7454:7458  j ++ */\n      dup1\n      dup1\n      tag_352\n      swap1\n      tag_353\n      jump\t// in\n    tag_352:\n      swap2\n      pop\n      pop\n        /* \"wwcc-contracts/contracts/wwccPool.sol\":7360:9877  for (... */\n      jump(tag_282)\n    tag_283:\n      pop\n        /* \"wwcc-contracts/contracts/wwccPool.sol\":9910:9914  true */\n      0x01\n        /* \"wwcc-contracts/contracts/wwccPool.sol\":9894:9898  pool */\n      dup4\n        /* \"wwcc-contracts/contracts/wwccPool.sol\":9894:9907  pool.finished */\n      0x0140\n      add\n        /* \"wwcc-contracts/contracts/wwccPool.sol\":9894:9914  pool.finished = true */\n      swap1\n      iszero\n      iszero\n      swap1\n      dup2\n      iszero\n      iszero\n      dup2\n      mstore\n      pop\n      pop\n        /* \"wwcc-contracts/contracts/wwccPool.sol\":6832:10049  {... */\n      pop\n      pop\n      pop\n        /* \"wwcc-contracts/contracts/wwccPool.sol\":10064:10068  true */\n      0x01\n        /* \"wwcc-contracts/contracts/wwccPool.sol\":10057:10068  return true */\n      swap1\n      pop\n        /* \"wwcc-contracts/contracts/wwccPool.sol\":6618:10075  function Award(bytes32 poolKey,uint256 homeScore,uint256 visitScore,uint256 result)  external onlyManager  payable returns(bool){... */\n      swap5\n      swap4\n      pop\n      pop\n      pop\n      pop\n      jump\t// out\n        /* \"wwcc-contracts/contracts/wwccPool.sol\":5566:5956  function voteWithdrawal(address joiner,uint256 amount) external onlyManager payable returns (bool){... */\n    tag_65:\n        /* \"wwcc-contracts/contracts/wwccPool.sol\":5659:5663  bool */\n      0x00\n        /* \"wwcc-contracts/contracts/wwccPool.sol\":12823:12828  owner */\n      dup1\n      0x00\n      swap1\n      sload\n      swap1\n      0x0100\n      exp\n      swap1\n      div\n      0xffffffffffffffffffffffffffffffffffffffff\n      and\n        /* \"wwcc-contracts/contracts/wwccPool.sol\":12809:12828  msg.sender == owner */\n      0xffffffffffffffffffffffffffffffffffffffff\n      and\n        /* \"wwcc-contracts/contracts/wwccPool.sol\":12809:12819  msg.sender */\n      caller\n        /* \"wwcc-contracts/contracts/wwccPool.sol\":12809:12828  msg.sender == owner */\n      0xffffffffffffffffffffffffffffffffffffffff\n      and\n      eq\n        /* \"wwcc-contracts/contracts/wwccPool.sol\":12788:12879  require(... */\n      tag_355\n      jumpi\n      mload(0x40)\n      0x08c379a000000000000000000000000000000000000000000000000000000000\n      dup2\n      mstore\n      0x04\n      add\n      tag_356\n      swap1\n      tag_76\n      jump\t// in\n    tag_356:\n      mload(0x40)\n      dup1\n      swap2\n      sub\n      swap1\n      revert\n    tag_355:\n        /* \"wwcc-contracts/contracts/wwccPool.sol\":5699:5705  amount */\n      dup2\n        /* \"wwcc-contracts/contracts/wwccPool.sol\":5677:5687  voteAmount */\n      0x02\n        /* \"wwcc-contracts/contracts/wwccPool.sol\":5677:5695  voteAmount[joiner] */\n      0x00\n        /* \"wwcc-contracts/contracts/wwccPool.sol\":5688:5694  joiner */\n      dup6\n        /* \"wwcc-contracts/contracts/wwccPool.sol\":5677:5695  voteAmount[joiner] */\n      0xffffffffffffffffffffffffffffffffffffffff\n      and\n      0xffffffffffffffffffffffffffffffffffffffff\n      and\n      dup2\n      mstore\n      0x20\n      add\n      swap1\n      dup2\n      mstore\n      0x20\n      add\n      0x00\n      keccak256\n      sload\n        /* \"wwcc-contracts/contracts/wwccPool.sol\":5677:5705  voteAmount[joiner] >= amount */\n      lt\n      iszero\n        /* \"wwcc-contracts/contracts/wwccPool.sol\":5677:5732  voteAmount[joiner] >= amount && voteAmount[joiner] >= 0 */\n      dup1\n      iszero\n      tag_358\n      jumpi\n      pop\n        /* \"wwcc-contracts/contracts/wwccPool.sol\":5731:5732  0 */\n      0x00\n        /* \"wwcc-contracts/contracts/wwccPool.sol\":5709:5719  voteAmount */\n      0x02\n        /* \"wwcc-contracts/contracts/wwccPool.sol\":5709:5727  voteAmount[joiner] */\n      0x00\n        /* \"wwcc-contracts/contracts/wwccPool.sol\":5720:5726  joiner */\n      dup6\n        /* \"wwcc-contracts/contracts/wwccPool.sol\":5709:5727  voteAmount[joiner] */\n      0xffffffffffffffffffffffffffffffffffffffff\n      and\n      0xffffffffffffffffffffffffffffffffffffffff\n      and\n      dup2\n      mstore\n      0x20\n      add\n      swap1\n      dup2\n      mstore\n      0x20\n      add\n      0x00\n      keccak256\n      sload\n        /* \"wwcc-contracts/contracts/wwccPool.sol\":5709:5732  voteAmount[joiner] >= 0 */\n      lt\n      iszero\n        /* \"wwcc-contracts/contracts/wwccPool.sol\":5677:5732  voteAmount[joiner] >= amount && voteAmount[joiner] >= 0 */\n    tag_358:\n        /* \"wwcc-contracts/contracts/wwccPool.sol\":5674:5929  if(voteAmount[joiner] >= amount && voteAmount[joiner] >= 0){... */\n      iszero\n      tag_359\n      jumpi\n        /* \"wwcc-contracts/contracts/wwccPool.sol\":5747:5780  address payable toAddress_address */\n      0x00\n        /* \"wwcc-contracts/contracts/wwccPool.sol\":5791:5797  joiner */\n      dup4\n        /* \"wwcc-contracts/contracts/wwccPool.sol\":5747:5798  address payable toAddress_address = payable(joiner) */\n      swap1\n      pop\n        /* \"wwcc-contracts/contracts/wwccPool.sol\":5812:5829  toAddress_address */\n      dup1\n        /* \"wwcc-contracts/contracts/wwccPool.sol\":5812:5838  toAddress_address.transfer */\n      0xffffffffffffffffffffffffffffffffffffffff\n      and\n        /* \"wwcc-contracts/contracts/wwccPool.sol\":5812:5858  toAddress_address.transfer(voteAmount[joiner]) */\n      0x08fc\n        /* \"wwcc-contracts/contracts/wwccPool.sol\":5839:5849  voteAmount */\n      0x02\n        /* \"wwcc-contracts/contracts/wwccPool.sol\":5839:5857  voteAmount[joiner] */\n      0x00\n        /* \"wwcc-contracts/contracts/wwccPool.sol\":5850:5856  joiner */\n      dup8\n        /* \"wwcc-contracts/contracts/wwccPool.sol\":5839:5857  voteAmount[joiner] */\n      0xffffffffffffffffffffffffffffffffffffffff\n      and\n      0xffffffffffffffffffffffffffffffffffffffff\n      and\n      dup2\n      mstore\n      0x20\n      add\n      swap1\n      dup2\n      mstore\n      0x20\n      add\n      0x00\n      keccak256\n      sload\n        /* \"wwcc-contracts/contracts/wwccPool.sol\":5812:5858  toAddress_address.transfer(voteAmount[joiner]) */\n      swap1\n      dup2\n      iszero\n      mul\n      swap1\n      mload(0x40)\n      0x00\n      mload(0x40)\n      dup1\n      dup4\n      sub\n      dup2\n      dup6\n      dup9\n      dup9\n      call\n      swap4\n      pop\n      pop\n      pop\n      pop\n      iszero\n      dup1\n      iszero\n      tag_361\n      jumpi\n      returndatasize\n      0x00\n      dup1\n      returndatacopy\n      revert(0x00, returndatasize)\n    tag_361:\n      pop\n        /* \"wwcc-contracts/contracts/wwccPool.sol\":5733:5869  {... */\n      pop\n        /* \"wwcc-contracts/contracts/wwccPool.sol\":5674:5929  if(voteAmount[joiner] >= amount && voteAmount[joiner] >= 0){... */\n      jump(tag_362)\n    tag_359:\n        /* \"wwcc-contracts/contracts/wwccPool.sol\":5887:5918  revert(\"not enough voteAmount\") */\n      mload(0x40)\n      0x08c379a000000000000000000000000000000000000000000000000000000000\n      dup2\n      mstore\n      0x04\n      add\n      tag_363\n      swap1\n      tag_201\n      jump\t// in\n    tag_363:\n      mload(0x40)\n      dup1\n      swap2\n      sub\n      swap1\n      revert\n        /* \"wwcc-contracts/contracts/wwccPool.sol\":5674:5929  if(voteAmount[joiner] >= amount && voteAmount[joiner] >= 0){... */\n    tag_362:\n        /* \"wwcc-contracts/contracts/wwccPool.sol\":5945:5949  true */\n      0x01\n        /* \"wwcc-contracts/contracts/wwccPool.sol\":5938:5949  return true */\n      swap1\n      pop\n        /* \"wwcc-contracts/contracts/wwccPool.sol\":5566:5956  function voteWithdrawal(address joiner,uint256 amount) external onlyManager payable returns (bool){... */\n      swap3\n      swap2\n      pop\n      pop\n      jump\t// out\n        /* \"wwcc-contracts/contracts/wwccPool.sol\":10125:10773  function getPool(bytes32 poolKey) external view returns (string memory vs,string memory rounds,PoolViewInfo memory viewInfo){... */\n    tag_70:\n        /* \"wwcc-contracts/contracts/wwccPool.sol\":10182:10198  string memory vs */\n      0x60\n        /* \"wwcc-contracts/contracts/wwccPool.sol\":10199:10219  string memory rounds */\n      dup1\n        /* \"wwcc-contracts/contracts/wwccPool.sol\":10220:10248  PoolViewInfo memory viewInfo */\n      tag_364\n      tag_365\n      jump\t// in\n    tag_364:\n        /* \"wwcc-contracts/contracts/wwccPool.sol\":10263:10280  contains(poolKey) */\n      tag_367\n        /* \"wwcc-contracts/contracts/wwccPool.sol\":10272:10279  poolKey */\n      dup5\n        /* \"wwcc-contracts/contracts/wwccPool.sol\":10263:10271  contains */\n      tag_79\n        /* \"wwcc-contracts/contracts/wwccPool.sol\":10263:10280  contains(poolKey) */\n      jump\t// in\n    tag_367:\n        /* \"wwcc-contracts/contracts/wwccPool.sol\":10259:10767  if(!contains(poolKey)) { ... */\n      tag_368\n      jumpi\n        /* \"wwcc-contracts/contracts/wwccPool.sol\":10297:10316  revert(\"not exist\") */\n      mload(0x40)\n      0x08c379a000000000000000000000000000000000000000000000000000000000\n      dup2\n      mstore\n      0x04\n      add\n      tag_369\n      swap1\n      tag_370\n      jump\t// in\n    tag_369:\n      mload(0x40)\n      dup1\n      swap2\n      sub\n      swap1\n      revert\n        /* \"wwcc-contracts/contracts/wwccPool.sol\":10259:10767  if(!contains(poolKey)) { ... */\n    tag_368:\n        /* \"wwcc-contracts/contracts/wwccPool.sol\":10345:10362  string  memory hv */\n      0x00\n        /* \"wwcc-contracts/contracts/wwccPool.sol\":10365:10404  strConcat(WcPools[poolKey].home,\" vs \") */\n      tag_372\n        /* \"wwcc-contracts/contracts/wwccPool.sol\":10375:10382  WcPools */\n      0x03\n        /* \"wwcc-contracts/contracts/wwccPool.sol\":10375:10391  WcPools[poolKey] */\n      0x00\n        /* \"wwcc-contracts/contracts/wwccPool.sol\":10383:10390  poolKey */\n      dup8\n        /* \"wwcc-contracts/contracts/wwccPool.sol\":10375:10391  WcPools[poolKey] */\n      dup2\n      mstore\n      0x20\n      add\n      swap1\n      dup2\n      mstore\n      0x20\n      add\n      0x00\n      keccak256\n        /* \"wwcc-contracts/contracts/wwccPool.sol\":10375:10396  WcPools[poolKey].home */\n      0x00\n      add\n        /* \"wwcc-contracts/contracts/wwccPool.sol\":10365:10404  strConcat(WcPools[poolKey].home,\" vs \") */\n      dup1\n      sload\n      tag_373\n      swap1\n      tag_85\n      jump\t// in\n    tag_373:\n      dup1\n      0x1f\n      add\n      0x20\n      dup1\n      swap2\n      div\n      mul\n      0x20\n      add\n      mload(0x40)\n      swap1\n      dup2\n      add\n      0x40\n      mstore\n      dup1\n      swap3\n      swap2\n      swap1\n      dup2\n      dup2\n      mstore\n      0x20\n      add\n      dup3\n      dup1\n      sload\n      tag_374\n      swap1\n      tag_85\n      jump\t// in\n    tag_374:\n      dup1\n      iszero\n      tag_375\n      jumpi\n      dup1\n      0x1f\n      lt\n      tag_376\n      jumpi\n      0x0100\n      dup1\n      dup4\n      sload\n      div\n      mul\n      dup4\n      mstore\n      swap2\n      0x20\n      add\n      swap2\n      jump(tag_375)\n    tag_376:\n      dup3\n      add\n      swap2\n      swap1\n      0x00\n      mstore\n      keccak256(0x00, 0x20)\n      swap1\n    tag_377:\n      dup2\n      sload\n      dup2\n      mstore\n      swap1\n      0x01\n      add\n      swap1\n      0x20\n      add\n      dup1\n      dup4\n      gt\n      tag_377\n      jumpi\n      dup3\n      swap1\n      sub\n      0x1f\n      and\n      dup3\n      add\n      swap2\n    tag_375:\n      pop\n      pop\n      pop\n      pop\n      pop\n      mload(0x40)\n      dup1\n      0x40\n      add\n      0x40\n      mstore\n      dup1\n      0x04\n      dup2\n      mstore\n      0x20\n      add\n      0x2076732000000000000000000000000000000000000000000000000000000000\n      dup2\n      mstore\n      pop\n        /* \"wwcc-contracts/contracts/wwccPool.sol\":10365:10374  strConcat */\n      tag_149\n        /* \"wwcc-contracts/contracts/wwccPool.sol\":10365:10404  strConcat(WcPools[poolKey].home,\" vs \") */\n      jump\t// in\n    tag_372:\n        /* \"wwcc-contracts/contracts/wwccPool.sol\":10345:10404  string  memory hv = strConcat(WcPools[poolKey].home,\" vs \") */\n      swap1\n      pop\n        /* \"wwcc-contracts/contracts/wwccPool.sol\":10423:10459  strConcat(hv,WcPools[poolKey].visit) */\n      tag_378\n        /* \"wwcc-contracts/contracts/wwccPool.sol\":10433:10435  hv */\n      dup2\n        /* \"wwcc-contracts/contracts/wwccPool.sol\":10436:10443  WcPools */\n      0x03\n        /* \"wwcc-contracts/contracts/wwccPool.sol\":10436:10452  WcPools[poolKey] */\n      0x00\n        /* \"wwcc-contracts/contracts/wwccPool.sol\":10444:10451  poolKey */\n      dup9\n        /* \"wwcc-contracts/contracts/wwccPool.sol\":10436:10452  WcPools[poolKey] */\n      dup2\n      mstore\n      0x20\n      add\n      swap1\n      dup2\n      mstore\n      0x20\n      add\n      0x00\n      keccak256\n        /* \"wwcc-contracts/contracts/wwccPool.sol\":10436:10458  WcPools[poolKey].visit */\n      0x01\n      add\n        /* \"wwcc-contracts/contracts/wwccPool.sol\":10423:10459  strConcat(hv,WcPools[poolKey].visit) */\n      dup1\n      sload\n      tag_379\n      swap1\n      tag_85\n      jump\t// in\n    tag_379:\n      dup1\n      0x1f\n      add\n      0x20\n      dup1\n      swap2\n      div\n      mul\n      0x20\n      add\n      mload(0x40)\n      swap1\n      dup2\n      add\n      0x40\n      mstore\n      dup1\n      swap3\n      swap2\n      swap1\n      dup2\n      dup2\n      mstore\n      0x20\n      add\n      dup3\n      dup1\n      sload\n      tag_380\n      swap1\n      tag_85\n      jump\t// in\n    tag_380:\n      dup1\n      iszero\n      tag_381\n      jumpi\n      dup1\n      0x1f\n      lt\n      tag_382\n      jumpi\n      0x0100\n      dup1\n      dup4\n      sload\n      div\n      mul\n      dup4\n      mstore\n      swap2\n      0x20\n      add\n      swap2\n      jump(tag_381)\n    tag_382:\n      dup3\n      add\n      swap2\n      swap1\n      0x00\n      mstore\n      keccak256(0x00, 0x20)\n      swap1\n    tag_383:\n      dup2\n      sload\n      dup2\n      mstore\n      swap1\n      0x01\n      add\n      swap1\n      0x20\n      add\n      dup1\n      dup4\n      gt\n      tag_383\n      jumpi\n      dup3\n      swap1\n      sub\n      0x1f\n      and\n      dup3\n      add\n      swap2\n    tag_381:\n      pop\n      pop\n      pop\n      pop\n      pop\n        /* \"wwcc-contracts/contracts/wwccPool.sol\":10423:10432  strConcat */\n      tag_149\n        /* \"wwcc-contracts/contracts/wwccPool.sol\":10423:10459  strConcat(hv,WcPools[poolKey].visit) */\n      jump\t// in\n    tag_378:\n        /* \"wwcc-contracts/contracts/wwccPool.sol\":10418:10459  vs = strConcat(hv,WcPools[poolKey].visit) */\n      swap4\n      pop\n        /* \"wwcc-contracts/contracts/wwccPool.sol\":10473:10495  PoolViewInfo memory vi */\n      0x00\n        /* \"wwcc-contracts/contracts/wwccPool.sol\":10498:10678  PoolViewInfo(WcPools[poolKey].wPool,... */\n      mload(0x40)\n      dup1\n      0xa0\n      add\n      0x40\n      mstore\n      dup1\n        /* \"wwcc-contracts/contracts/wwccPool.sol\":10511:10518  WcPools */\n      0x03\n        /* \"wwcc-contracts/contracts/wwccPool.sol\":10511:10527  WcPools[poolKey] */\n      0x00\n        /* \"wwcc-contracts/contracts/wwccPool.sol\":10519:10526  poolKey */\n      dup10\n        /* \"wwcc-contracts/contracts/wwccPool.sol\":10511:10527  WcPools[poolKey] */\n      dup2\n      mstore\n      0x20\n      add\n      swap1\n      dup2\n      mstore\n      0x20\n      add\n      0x00\n      keccak256\n        /* \"wwcc-contracts/contracts/wwccPool.sol\":10511:10533  WcPools[poolKey].wPool */\n      0x03\n      add\n      sload\n        /* \"wwcc-contracts/contracts/wwccPool.sol\":10498:10678  PoolViewInfo(WcPools[poolKey].wPool,... */\n      dup2\n      mstore\n      0x20\n      add\n        /* \"wwcc-contracts/contracts/wwccPool.sol\":10547:10554  WcPools */\n      0x03\n        /* \"wwcc-contracts/contracts/wwccPool.sol\":10547:10563  WcPools[poolKey] */\n      0x00\n        /* \"wwcc-contracts/contracts/wwccPool.sol\":10555:10562  poolKey */\n      dup10\n        /* \"wwcc-contracts/contracts/wwccPool.sol\":10547:10563  WcPools[poolKey] */\n      dup2\n      mstore\n      0x20\n      add\n      swap1\n      dup2\n      mstore\n      0x20\n      add\n      0x00\n      keccak256\n        /* \"wwcc-contracts/contracts/wwccPool.sol\":10547:10569  WcPools[poolKey].dPool */\n      0x04\n      add\n      sload\n        /* \"wwcc-contracts/contracts/wwccPool.sol\":10498:10678  PoolViewInfo(WcPools[poolKey].wPool,... */\n      dup2\n      mstore\n      0x20\n      add\n        /* \"wwcc-contracts/contracts/wwccPool.sol\":10583:10590  WcPools */\n      0x03\n        /* \"wwcc-contracts/contracts/wwccPool.sol\":10583:10599  WcPools[poolKey] */\n      0x00\n        /* \"wwcc-contracts/contracts/wwccPool.sol\":10591:10598  poolKey */\n      dup10\n        /* \"wwcc-contracts/contracts/wwccPool.sol\":10583:10599  WcPools[poolKey] */\n      dup2\n      mstore\n      0x20\n      add\n      swap1\n      dup2\n      mstore\n      0x20\n      add\n      0x00\n      keccak256\n        /* \"wwcc-contracts/contracts/wwccPool.sol\":10583:10605  WcPools[poolKey].lPool */\n      0x05\n      add\n      sload\n        /* \"wwcc-contracts/contracts/wwccPool.sol\":10498:10678  PoolViewInfo(WcPools[poolKey].wPool,... */\n      dup2\n      mstore\n      0x20\n      add\n        /* \"wwcc-contracts/contracts/wwccPool.sol\":10619:10626  WcPools */\n      0x03\n        /* \"wwcc-contracts/contracts/wwccPool.sol\":10619:10635  WcPools[poolKey] */\n      0x00\n        /* \"wwcc-contracts/contracts/wwccPool.sol\":10627:10634  poolKey */\n      dup10\n        /* \"wwcc-contracts/contracts/wwccPool.sol\":10619:10635  WcPools[poolKey] */\n      dup2\n      mstore\n      0x20\n      add\n      swap1\n      dup2\n      mstore\n      0x20\n      add\n      0x00\n      keccak256\n        /* \"wwcc-contracts/contracts/wwccPool.sol\":10619:10641  WcPools[poolKey].sPool */\n      0x06\n      add\n      sload\n        /* \"wwcc-contracts/contracts/wwccPool.sol\":10498:10678  PoolViewInfo(WcPools[poolKey].wPool,... */\n      dup2\n      mstore\n      0x20\n      add\n        /* \"wwcc-contracts/contracts/wwccPool.sol\":10655:10662  WcPools */\n      0x03\n        /* \"wwcc-contracts/contracts/wwccPool.sol\":10655:10671  WcPools[poolKey] */\n      0x00\n        /* \"wwcc-contracts/contracts/wwccPool.sol\":10663:10670  poolKey */\n      dup10\n        /* \"wwcc-contracts/contracts/wwccPool.sol\":10655:10671  WcPools[poolKey] */\n      dup2\n      mstore\n      0x20\n      add\n      swap1\n      dup2\n      mstore\n      0x20\n      add\n      0x00\n      keccak256\n        /* \"wwcc-contracts/contracts/wwccPool.sol\":10655:10677  WcPools[poolKey].basal */\n      0x07\n      add\n      sload\n        /* \"wwcc-contracts/contracts/wwccPool.sol\":10498:10678  PoolViewInfo(WcPools[poolKey].wPool,... */\n      dup2\n      mstore\n      pop\n        /* \"wwcc-contracts/contracts/wwccPool.sol\":10473:10678  PoolViewInfo memory vi = PoolViewInfo(WcPools[poolKey].wPool,... */\n      swap1\n      pop\n        /* \"wwcc-contracts/contracts/wwccPool.sol\":10700:10702  vs */\n      dup5\n        /* \"wwcc-contracts/contracts/wwccPool.sol\":10716:10723  WcPools */\n      0x03\n        /* \"wwcc-contracts/contracts/wwccPool.sol\":10716:10732  WcPools[poolKey] */\n      0x00\n        /* \"wwcc-contracts/contracts/wwccPool.sol\":10724:10731  poolKey */\n      dup9\n        /* \"wwcc-contracts/contracts/wwccPool.sol\":10716:10732  WcPools[poolKey] */\n      dup2\n      mstore\n      0x20\n      add\n      swap1\n      dup2\n      mstore\n      0x20\n      add\n      0x00\n      keccak256\n        /* \"wwcc-contracts/contracts/wwccPool.sol\":10716:10739  WcPools[poolKey].rounds */\n      0x02\n      add\n        /* \"wwcc-contracts/contracts/wwccPool.sol\":10753:10755  vi */\n      dup3\n        /* \"wwcc-contracts/contracts/wwccPool.sol\":10692:10756  return (vs,... */\n      dup2\n      dup1\n      sload\n      tag_384\n      swap1\n      tag_85\n      jump\t// in\n    tag_384:\n      dup1\n      0x1f\n      add\n      0x20\n      dup1\n      swap2\n      div\n      mul\n      0x20\n      add\n      mload(0x40)\n      swap1\n      dup2\n      add\n      0x40\n      mstore\n      dup1\n      swap3\n      swap2\n      swap1\n      dup2\n      dup2\n      mstore\n      0x20\n      add\n      dup3\n      dup1\n      sload\n      tag_385\n      swap1\n      tag_85\n      jump\t// in\n    tag_385:\n      dup1\n      iszero\n      tag_386\n      jumpi\n      dup1\n      0x1f\n      lt\n      tag_387\n      jumpi\n      0x0100\n      dup1\n      dup4\n      sload\n      div\n      mul\n      dup4\n      mstore\n      swap2\n      0x20\n      add\n      swap2\n      jump(tag_386)\n    tag_387:\n      dup3\n      add\n      swap2\n      swap1\n      0x00\n      mstore\n      keccak256(0x00, 0x20)\n      swap1\n    tag_388:\n      dup2\n      sload\n      dup2\n      mstore\n      swap1\n      0x01\n      add\n      swap1\n      0x20\n      add\n      dup1\n      dup4\n      gt\n      tag_388\n      jumpi\n      dup3\n      swap1\n      sub\n      0x1f\n      and\n      dup3\n      add\n      swap2\n    tag_386:\n      pop\n      pop\n      pop\n      pop\n      pop\n      swap2\n      pop\n      swap5\n      pop\n      swap5\n      pop\n      swap5\n      pop\n      pop\n      pop\n        /* \"wwcc-contracts/contracts/wwccPool.sol\":10125:10773  function getPool(bytes32 poolKey) external view returns (string memory vs,string memory rounds,PoolViewInfo memory viewInfo){... */\n      swap2\n      swap4\n      swap1\n      swap3\n      pop\n      jump\t// out\n        /* \"wwcc-contracts/contracts/wwccPool.sol\":10837:10950  function contains(bytes32 poolKey) internal view returns (bool) {... */\n    tag_79:\n        /* \"wwcc-contracts/contracts/wwccPool.sol\":10895:10899  bool */\n      0x00\n        /* \"wwcc-contracts/contracts/wwccPool.sol\":10922:10929  WcPools */\n      0x03\n        /* \"wwcc-contracts/contracts/wwccPool.sol\":10922:10938  WcPools[poolKey] */\n      0x00\n        /* \"wwcc-contracts/contracts/wwccPool.sol\":10930:10937  poolKey */\n      dup4\n        /* \"wwcc-contracts/contracts/wwccPool.sol\":10922:10938  WcPools[poolKey] */\n      dup2\n      mstore\n      0x20\n      add\n      swap1\n      dup2\n      mstore\n      0x20\n      add\n      0x00\n      keccak256\n        /* \"wwcc-contracts/contracts/wwccPool.sol\":10922:10943  WcPools[poolKey].used */\n      0x08\n      add\n      0x01\n      swap1\n      sload\n      swap1\n      0x0100\n      exp\n      swap1\n      div\n      0xff\n      and\n        /* \"wwcc-contracts/contracts/wwccPool.sol\":10915:10943  return WcPools[poolKey].used */\n      swap1\n      pop\n        /* \"wwcc-contracts/contracts/wwccPool.sol\":10837:10950  function contains(bytes32 poolKey) internal view returns (bool) {... */\n      swap2\n      swap1\n      pop\n      jump\t// out\n        /* \"wwcc-contracts/contracts/safemath.sol\":274:417  function div(uint256 a, uint256 b) internal pure returns (uint256) {... */\n    tag_105:\n        /* \"wwcc-contracts/contracts/safemath.sol\":332:339  uint256 */\n      0x00\n        /* \"wwcc-contracts/contracts/safemath.sol\":363:364  0 */\n      dup1\n        /* \"wwcc-contracts/contracts/safemath.sol\":359:360  b */\n      dup3\n        /* \"wwcc-contracts/contracts/safemath.sol\":359:364  b > 0 */\n      gt\n        /* \"wwcc-contracts/contracts/safemath.sol\":351:365  require(b > 0) */\n      tag_391\n      jumpi\n      0x00\n      dup1\n      revert\n    tag_391:\n        /* \"wwcc-contracts/contracts/safemath.sol\":375:384  uint256 c */\n      0x00\n        /* \"wwcc-contracts/contracts/safemath.sol\":391:392  b */\n      dup3\n        /* \"wwcc-contracts/contracts/safemath.sol\":387:388  a */\n      dup5\n        /* \"wwcc-contracts/contracts/safemath.sol\":387:392  a / b */\n      tag_392\n      swap2\n      swap1\n      tag_312\n      jump\t// in\n    tag_392:\n        /* \"wwcc-contracts/contracts/safemath.sol\":375:392  uint256 c = a / b */\n      swap1\n      pop\n        /* \"wwcc-contracts/contracts/safemath.sol\":409:410  c */\n      dup1\n        /* \"wwcc-contracts/contracts/safemath.sol\":402:410  return c */\n      swap2\n      pop\n      pop\n        /* \"wwcc-contracts/contracts/safemath.sol\":274:417  function div(uint256 a, uint256 b) internal pure returns (uint256) {... */\n      swap3\n      swap2\n      pop\n      pop\n      jump\t// out\n        /* \"wwcc-contracts/contracts/wwccPool.sol\":10980:11469  function strConcat(string memory _a,string memory _b) internal pure returns (string memory){... */\n    tag_149:\n        /* \"wwcc-contracts/contracts/wwccPool.sol\":11057:11070  string memory */\n      0x60\n        /* \"wwcc-contracts/contracts/wwccPool.sol\":11085:11101  bytes memory _ba */\n      0x00\n        /* \"wwcc-contracts/contracts/wwccPool.sol\":11110:11112  _a */\n      dup4\n        /* \"wwcc-contracts/contracts/wwccPool.sol\":11085:11113  bytes memory _ba = bytes(_a) */\n      swap1\n      pop\n        /* \"wwcc-contracts/contracts/wwccPool.sol\":11127:11143  bytes memory _bb */\n      0x00\n        /* \"wwcc-contracts/contracts/wwccPool.sol\":11152:11154  _b */\n      dup4\n        /* \"wwcc-contracts/contracts/wwccPool.sol\":11127:11155  bytes memory _bb = bytes(_b) */\n      swap1\n      pop\n        /* \"wwcc-contracts/contracts/wwccPool.sol\":11169:11186  string memory ret */\n      0x00\n        /* \"wwcc-contracts/contracts/wwccPool.sol\":11213:11216  _bb */\n      dup2\n        /* \"wwcc-contracts/contracts/wwccPool.sol\":11213:11223  _bb.length */\n      mload\n        /* \"wwcc-contracts/contracts/wwccPool.sol\":11200:11203  _ba */\n      dup4\n        /* \"wwcc-contracts/contracts/wwccPool.sol\":11200:11210  _ba.length */\n      mload\n        /* \"wwcc-contracts/contracts/wwccPool.sol\":11200:11223  _ba.length + _bb.length */\n      tag_394\n      swap2\n      swap1\n      tag_17\n      jump\t// in\n    tag_394:\n        /* \"wwcc-contracts/contracts/wwccPool.sol\":11189:11224  new string(_ba.length + _bb.length) */\n      0xffffffffffffffff\n      dup2\n      gt\n      iszero\n      tag_395\n      jumpi\n      tag_396\n      tag_397\n      jump\t// in\n    tag_396:\n    tag_395:\n      mload(0x40)\n      swap1\n      dup1\n      dup3\n      mstore\n      dup1\n      0x1f\n      add\n      not(0x1f)\n      and\n      0x20\n      add\n      dup3\n      add\n      0x40\n      mstore\n      dup1\n      iszero\n      tag_398\n      jumpi\n      dup2\n      0x20\n      add\n      0x01\n      dup3\n      mul\n      dup1\n      calldatasize\n      dup4\n      calldatacopy\n      dup1\n      dup3\n      add\n      swap2\n      pop\n      pop\n      swap1\n      pop\n    tag_398:\n      pop\n        /* \"wwcc-contracts/contracts/wwccPool.sol\":11169:11224  string memory ret = new string(_ba.length + _bb.length) */\n      swap1\n      pop\n        /* \"wwcc-contracts/contracts/wwccPool.sol\":11238:11255  bytes memory bret */\n      0x00\n        /* \"wwcc-contracts/contracts/wwccPool.sol\":11264:11267  ret */\n      dup2\n        /* \"wwcc-contracts/contracts/wwccPool.sol\":11238:11268  bytes memory bret = bytes(ret) */\n      swap1\n      pop\n        /* \"wwcc-contracts/contracts/wwccPool.sol\":11282:11288  uint k */\n      0x00\n        /* \"wwcc-contracts/contracts/wwccPool.sol\":11310:11316  uint i */\n      dup1\n        /* \"wwcc-contracts/contracts/wwccPool.sol\":11306:11359  for(uint i = 0;i < _ba.length;i++) bret[k++] = _ba[i] */\n    tag_399:\n        /* \"wwcc-contracts/contracts/wwccPool.sol\":11325:11328  _ba */\n      dup6\n        /* \"wwcc-contracts/contracts/wwccPool.sol\":11325:11335  _ba.length */\n      mload\n        /* \"wwcc-contracts/contracts/wwccPool.sol\":11321:11322  i */\n      dup2\n        /* \"wwcc-contracts/contracts/wwccPool.sol\":11321:11335  i < _ba.length */\n      lt\n        /* \"wwcc-contracts/contracts/wwccPool.sol\":11306:11359  for(uint i = 0;i < _ba.length;i++) bret[k++] = _ba[i] */\n      iszero\n      tag_400\n      jumpi\n        /* \"wwcc-contracts/contracts/wwccPool.sol\":11353:11356  _ba */\n      dup6\n        /* \"wwcc-contracts/contracts/wwccPool.sol\":11357:11358  i */\n      dup2\n        /* \"wwcc-contracts/contracts/wwccPool.sol\":11353:11359  _ba[i] */\n      dup2\n      mload\n      dup2\n      lt\n      tag_402\n      jumpi\n      tag_403\n      tag_288\n      jump\t// in\n    tag_403:\n    tag_402:\n      0x20\n      add\n      add\n      mload\n      0xf8\n      shr\n      0xf8\n      shl\n        /* \"wwcc-contracts/contracts/wwccPool.sol\":11341:11345  bret */\n      dup4\n        /* \"wwcc-contracts/contracts/wwccPool.sol\":11346:11349  k++ */\n      dup4\n      dup1\n      tag_404\n      swap1\n      tag_353\n      jump\t// in\n    tag_404:\n      swap5\n      pop\n        /* \"wwcc-contracts/contracts/wwccPool.sol\":11341:11350  bret[k++] */\n      dup2\n      mload\n      dup2\n      lt\n      tag_405\n      jumpi\n      tag_406\n      tag_288\n      jump\t// in\n    tag_406:\n    tag_405:\n      0x20\n      add\n      add\n        /* \"wwcc-contracts/contracts/wwccPool.sol\":11341:11359  bret[k++] = _ba[i] */\n      swap1\n      not(0xffffffffffffffffffffffffffffffffffffffffffffffffffffffffffffff)\n      and\n      swap1\n      dup2\n      0x00\n      byte\n      swap1\n      mstore8\n      pop\n        /* \"wwcc-contracts/contracts/wwccPool.sol\":11336:11339  i++ */\n      dup1\n      dup1\n      tag_407\n      swap1\n      tag_353\n      jump\t// in\n    tag_407:\n      swap2\n      pop\n      pop\n        /* \"wwcc-contracts/contracts/wwccPool.sol\":11306:11359  for(uint i = 0;i < _ba.length;i++) bret[k++] = _ba[i] */\n      jump(tag_399)\n    tag_400:\n      pop\n        /* \"wwcc-contracts/contracts/wwccPool.sol\":11377:11383  uint i */\n      0x00\n        /* \"wwcc-contracts/contracts/wwccPool.sol\":11373:11426  for(uint i = 0;i < _bb.length;i++) bret[k++] = _bb[i] */\n    tag_408:\n        /* \"wwcc-contracts/contracts/wwccPool.sol\":11392:11395  _bb */\n      dup5\n        /* \"wwcc-contracts/contracts/wwccPool.sol\":11392:11402  _bb.length */\n      mload\n        /* \"wwcc-contracts/contracts/wwccPool.sol\":11388:11389  i */\n      dup2\n        /* \"wwcc-contracts/contracts/wwccPool.sol\":11388:11402  i < _bb.length */\n      lt\n        /* \"wwcc-contracts/contracts/wwccPool.sol\":11373:11426  for(uint i = 0;i < _bb.length;i++) bret[k++] = _bb[i] */\n      iszero\n      tag_409\n      jumpi\n        /* \"wwcc-contracts/contracts/wwccPool.sol\":11420:11423  _bb */\n      dup5\n        /* \"wwcc-contracts/contracts/wwccPool.sol\":11424:11425  i */\n      dup2\n        /* \"wwcc-contracts/contracts/wwccPool.sol\":11420:11426  _bb[i] */\n      dup2\n      mload\n      dup2\n      lt\n      tag_411\n      jumpi\n      tag_412\n      tag_288\n      jump\t// in\n    tag_412:\n    tag_411:\n      0x20\n      add\n      add\n      mload\n      0xf8\n      shr\n      0xf8\n      shl\n        /* \"wwcc-contracts/contracts/wwccPool.sol\":11408:11412  bret */\n      dup4\n        /* \"wwcc-contracts/contracts/wwccPool.sol\":11413:11416  k++ */\n      dup4\n      dup1\n      tag_413\n      swap1\n      tag_353\n      jump\t// in\n    tag_413:\n      swap5\n      pop\n        /* \"wwcc-contracts/contracts/wwccPool.sol\":11408:11417  bret[k++] */\n      dup2\n      mload\n      dup2\n      lt\n      tag_414\n      jumpi\n      tag_415\n      tag_288\n      jump\t// in\n    tag_415:\n    tag_414:\n      0x20\n      add\n      add\n        /* \"wwcc-contracts/contracts/wwccPool.sol\":11408:11426  bret[k++] = _bb[i] */\n      swap1\n      not(0xffffffffffffffffffffffffffffffffffffffffffffffffffffffffffffff)\n      and\n      swap1\n      dup2\n      0x00\n      byte\n      swap1\n      mstore8\n      pop\n        /* \"wwcc-contracts/contracts/wwccPool.sol\":11403:11406  i++ */\n      dup1\n      dup1\n      tag_416\n      swap1\n      tag_353\n      jump\t// in\n    tag_416:\n      swap2\n      pop\n      pop\n        /* \"wwcc-contracts/contracts/wwccPool.sol\":11373:11426  for(uint i = 0;i < _bb.length;i++) bret[k++] = _bb[i] */\n      jump(tag_408)\n    tag_409:\n      pop\n        /* \"wwcc-contracts/contracts/wwccPool.sol\":11454:11457  ret */\n      dup3\n        /* \"wwcc-contracts/contracts/wwccPool.sol\":11440:11458  return string(ret) */\n      swap6\n      pop\n      pop\n      pop\n      pop\n      pop\n      pop\n        /* \"wwcc-contracts/contracts/wwccPool.sol\":10980:11469  function strConcat(string memory _a,string memory _b) internal pure returns (string memory){... */\n      swap3\n      swap2\n      pop\n      pop\n      jump\t// out\n        /* \"wwcc-contracts/contracts/wwccPool.sol\":11633:11762  function uint256ToString(uint256 u) internal pure returns(string memory){... */\n    tag_219:\n        /* \"wwcc-contracts/contracts/wwccPool.sol\":11691:11704  string memory */\n      0x60\n        /* \"wwcc-contracts/contracts/wwccPool.sol\":11726:11755  toString(abi.encodePacked(u)) */\n      tag_418\n        /* \"wwcc-contracts/contracts/wwccPool.sol\":11752:11753  u */\n      dup3\n        /* \"wwcc-contracts/contracts/wwccPool.sol\":11735:11754  abi.encodePacked(u) */\n      add(0x20, mload(0x40))\n      tag_419\n      swap2\n      swap1\n      tag_420\n      jump\t// in\n    tag_419:\n      mload(0x40)\n      0x20\n      dup2\n      dup4\n      sub\n      sub\n      dup2\n      mstore\n      swap1\n      0x40\n      mstore\n        /* \"wwcc-contracts/contracts/wwccPool.sol\":11726:11734  toString */\n      tag_421\n        /* \"wwcc-contracts/contracts/wwccPool.sol\":11726:11755  toString(abi.encodePacked(u)) */\n      jump\t// in\n    tag_418:\n        /* \"wwcc-contracts/contracts/wwccPool.sol\":11719:11755  return toString(abi.encodePacked(u)) */\n      swap1\n      pop\n        /* \"wwcc-contracts/contracts/wwccPool.sol\":11633:11762  function uint256ToString(uint256 u) internal pure returns(string memory){... */\n      swap2\n      swap1\n      pop\n      jump\t// out\n        /* \"wwcc-contracts/contracts/wwccPool.sol\":11767:11896  function bytes32ToString(bytes32 b) internal pure returns(string memory){... */\n    tag_223:\n        /* \"wwcc-contracts/contracts/wwccPool.sol\":11825:11838  string memory */\n      0x60\n        /* \"wwcc-contracts/contracts/wwccPool.sol\":11860:11889  toString(abi.encodePacked(b)) */\n      tag_423\n        /* \"wwcc-contracts/contracts/wwccPool.sol\":11886:11887  b */\n      dup3\n        /* \"wwcc-contracts/contracts/wwccPool.sol\":11869:11888  abi.encodePacked(b) */\n      add(0x20, mload(0x40))\n      tag_424\n      swap2\n      swap1\n      tag_425\n      jump\t// in\n    tag_424:\n      mload(0x40)\n      0x20\n      dup2\n      dup4\n      sub\n      sub\n      dup2\n      mstore\n      swap1\n      0x40\n      mstore\n        /* \"wwcc-contracts/contracts/wwccPool.sol\":11860:11868  toString */\n      tag_421\n        /* \"wwcc-contracts/contracts/wwccPool.sol\":11860:11889  toString(abi.encodePacked(b)) */\n      jump\t// in\n    tag_423:\n        /* \"wwcc-contracts/contracts/wwccPool.sol\":11853:11889  return toString(abi.encodePacked(b)) */\n      swap1\n      pop\n        /* \"wwcc-contracts/contracts/wwccPool.sol\":11767:11896  function bytes32ToString(bytes32 b) internal pure returns(string memory){... */\n      swap2\n      swap1\n      pop\n      jump\t// out\n        /* \"wwcc-contracts/contracts/safemath.sol\":62:266  function mul(uint256 a, uint256 b) internal pure returns (uint256) {... */\n    tag_297:\n        /* \"wwcc-contracts/contracts/safemath.sol\":120:127  uint256 */\n      0x00\n        /* \"wwcc-contracts/contracts/safemath.sol\":148:149  0 */\n      dup1\n        /* \"wwcc-contracts/contracts/safemath.sol\":143:144  a */\n      dup4\n        /* \"wwcc-contracts/contracts/safemath.sol\":143:149  a == 0 */\n      eq\n        /* \"wwcc-contracts/contracts/safemath.sol\":139:184  if (a == 0) {... */\n      iszero\n      tag_427\n      jumpi\n        /* \"wwcc-contracts/contracts/safemath.sol\":172:173  0 */\n      0x00\n        /* \"wwcc-contracts/contracts/safemath.sol\":165:173  return 0 */\n      swap1\n      pop\n      jump(tag_426)\n        /* \"wwcc-contracts/contracts/safemath.sol\":139:184  if (a == 0) {... */\n    tag_427:\n        /* \"wwcc-contracts/contracts/safemath.sol\":195:204  uint256 c */\n      0x00\n        /* \"wwcc-contracts/contracts/safemath.sol\":211:212  b */\n      dup3\n        /* \"wwcc-contracts/contracts/safemath.sol\":207:208  a */\n      dup5\n        /* \"wwcc-contracts/contracts/safemath.sol\":207:212  a * b */\n      tag_428\n      swap2\n      swap1\n      tag_310\n      jump\t// in\n    tag_428:\n        /* \"wwcc-contracts/contracts/safemath.sol\":195:212  uint256 c = a * b */\n      swap1\n      pop\n        /* \"wwcc-contracts/contracts/safemath.sol\":239:240  b */\n      dup3\n        /* \"wwcc-contracts/contracts/safemath.sol\":234:235  a */\n      dup5\n        /* \"wwcc-contracts/contracts/safemath.sol\":230:231  c */\n      dup3\n        /* \"wwcc-contracts/contracts/safemath.sol\":230:235  c / a */\n      tag_429\n      swap2\n      swap1\n      tag_312\n      jump\t// in\n    tag_429:\n        /* \"wwcc-contracts/contracts/safemath.sol\":230:240  c / a == b */\n      eq\n        /* \"wwcc-contracts/contracts/safemath.sol\":222:241  require(c / a == b) */\n      tag_430\n      jumpi\n      0x00\n      dup1\n      revert\n    tag_430:\n        /* \"wwcc-contracts/contracts/safemath.sol\":258:259  c */\n      dup1\n        /* \"wwcc-contracts/contracts/safemath.sol\":251:259  return c */\n      swap2\n      pop\n      pop\n        /* \"wwcc-contracts/contracts/safemath.sol\":62:266  function mul(uint256 a, uint256 b) internal pure returns (uint256) {... */\n    tag_426:\n      swap3\n      swap2\n      pop\n      pop\n      jump\t// out\n        /* \"wwcc-contracts/contracts/wwccPool.sol\":11901:12388  function toString(bytes memory data) internal pure returns(string memory){... */\n    tag_421:\n        /* \"wwcc-contracts/contracts/wwccPool.sol\":11960:11973  string memory */\n      0x60\n        /* \"wwcc-contracts/contracts/wwccPool.sol\":11988:12009  bytes memory alphabet */\n      0x00\n        /* \"wwcc-contracts/contracts/wwccPool.sol\":11988:12030  bytes memory alphabet = \"0123456789abcdef\" */\n      mload(0x40)\n      dup1\n      0x40\n      add\n      0x40\n      mstore\n      dup1\n      0x10\n      dup2\n      mstore\n      0x20\n      add\n      0x3031323334353637383961626364656600000000000000000000000000000000\n      dup2\n      mstore\n      pop\n      swap1\n      pop\n        /* \"wwcc-contracts/contracts/wwccPool.sol\":12044:12060  bytes memory str */\n      0x00\n        /* \"wwcc-contracts/contracts/wwccPool.sol\":12091:12092  2 */\n      0x02\n        /* \"wwcc-contracts/contracts/wwccPool.sol\":12077:12081  data */\n      dup5\n        /* \"wwcc-contracts/contracts/wwccPool.sol\":12077:12088  data.length */\n      mload\n        /* \"wwcc-contracts/contracts/wwccPool.sol\":12077:12092  data.length * 2 */\n      tag_432\n      swap2\n      swap1\n      tag_310\n      jump\t// in\n    tag_432:\n        /* \"wwcc-contracts/contracts/wwccPool.sol\":12073:12074  2 */\n      0x02\n        /* \"wwcc-contracts/contracts/wwccPool.sol\":12073:12092  2 + data.length * 2 */\n      tag_433\n      swap2\n      swap1\n      tag_17\n      jump\t// in\n    tag_433:\n        /* \"wwcc-contracts/contracts/wwccPool.sol\":12063:12093  new bytes(2 + data.length * 2) */\n      0xffffffffffffffff\n      dup2\n      gt\n      iszero\n      tag_434\n      jumpi\n      tag_435\n      tag_397\n      jump\t// in\n    tag_435:\n    tag_434:\n      mload(0x40)\n      swap1\n      dup1\n      dup3\n      mstore\n      dup1\n      0x1f\n      add\n      not(0x1f)\n      and\n      0x20\n      add\n      dup3\n      add\n      0x40\n      mstore\n      dup1\n      iszero\n      tag_436\n      jumpi\n      dup2\n      0x20\n      add\n      0x01\n      dup3\n      mul\n      dup1\n      calldatasize\n      dup4\n      calldatacopy\n      dup1\n      dup3\n      add\n      swap2\n      pop\n      pop\n      swap1\n      pop\n    tag_436:\n      pop\n        /* \"wwcc-contracts/contracts/wwccPool.sol\":12044:12093  bytes memory str = new bytes(2 + data.length * 2) */\n      swap1\n      pop\n        /* \"wwcc-contracts/contracts/wwccPool.sol\":12107:12119  str[0] = \"0\" */\n      0x3000000000000000000000000000000000000000000000000000000000000000\n        /* \"wwcc-contracts/contracts/wwccPool.sol\":12107:12110  str */\n      dup2\n        /* \"wwcc-contracts/contracts/wwccPool.sol\":12111:12112  0 */\n      0x00\n        /* \"wwcc-contracts/contracts/wwccPool.sol\":12107:12113  str[0] */\n      dup2\n      mload\n      dup2\n      lt\n      tag_437\n      jumpi\n      tag_438\n      tag_288\n      jump\t// in\n    tag_438:\n    tag_437:\n      0x20\n      add\n      add\n        /* \"wwcc-contracts/contracts/wwccPool.sol\":12107:12119  str[0] = \"0\" */\n      swap1\n      not(0xffffffffffffffffffffffffffffffffffffffffffffffffffffffffffffff)\n      and\n      swap1\n      dup2\n      0x00\n      byte\n      swap1\n      mstore8\n      pop\n        /* \"wwcc-contracts/contracts/wwccPool.sol\":12133:12145  str[1] = \"x\" */\n      0x7800000000000000000000000000000000000000000000000000000000000000\n        /* \"wwcc-contracts/contracts/wwccPool.sol\":12133:12136  str */\n      dup2\n        /* \"wwcc-contracts/contracts/wwccPool.sol\":12137:12138  1 */\n      0x01\n        /* \"wwcc-contracts/contracts/wwccPool.sol\":12133:12139  str[1] */\n      dup2\n      mload\n      dup2\n      lt\n      tag_439\n      jumpi\n      tag_440\n      tag_288\n      jump\t// in\n    tag_440:\n    tag_439:\n      0x20\n      add\n      add\n        /* \"wwcc-contracts/contracts/wwccPool.sol\":12133:12145  str[1] = \"x\" */\n      swap1\n      not(0xffffffffffffffffffffffffffffffffffffffffffffffffffffffffffffff)\n      and\n      swap1\n      dup2\n      0x00\n      byte\n      swap1\n      mstore8\n      pop\n        /* \"wwcc-contracts/contracts/wwccPool.sol\":12163:12169  uint i */\n      0x00\n        /* \"wwcc-contracts/contracts/wwccPool.sol\":12159:12350  for(uint i =0;i < data.length;i++){... */\n    tag_441:\n        /* \"wwcc-contracts/contracts/wwccPool.sol\":12177:12181  data */\n      dup5\n        /* \"wwcc-contracts/contracts/wwccPool.sol\":12177:12188  data.length */\n      mload\n        /* \"wwcc-contracts/contracts/wwccPool.sol\":12173:12174  i */\n      dup2\n        /* \"wwcc-contracts/contracts/wwccPool.sol\":12173:12188  i < data.length */\n      lt\n        /* \"wwcc-contracts/contracts/wwccPool.sol\":12159:12350  for(uint i =0;i < data.length;i++){... */\n      iszero\n      tag_442\n      jumpi\n        /* \"wwcc-contracts/contracts/wwccPool.sol\":12228:12236  alphabet */\n      dup3\n        /* \"wwcc-contracts/contracts/wwccPool.sol\":12259:12260  4 */\n      0x04\n        /* \"wwcc-contracts/contracts/wwccPool.sol\":12248:12252  data */\n      dup7\n        /* \"wwcc-contracts/contracts/wwccPool.sol\":12253:12254  i */\n      dup4\n        /* \"wwcc-contracts/contracts/wwccPool.sol\":12248:12255  data[i] */\n      dup2\n      mload\n      dup2\n      lt\n      tag_444\n      jumpi\n      tag_445\n      tag_288\n      jump\t// in\n    tag_445:\n    tag_444:\n      0x20\n      add\n      add\n      mload\n      0xf8\n      shr\n      0xf8\n      shl\n        /* \"wwcc-contracts/contracts/wwccPool.sol\":12248:12260  data[i] >> 4 */\n      not(0xffffffffffffffffffffffffffffffffffffffffffffffffffffffffffffff)\n      and\n      swap1\n      shr\n        /* \"wwcc-contracts/contracts/wwccPool.sol\":12242:12261  uint8(data[i] >> 4) */\n      0xf8\n      shr\n        /* \"wwcc-contracts/contracts/wwccPool.sol\":12237:12262  uint(uint8(data[i] >> 4)) */\n      0xff\n      and\n        /* \"wwcc-contracts/contracts/wwccPool.sol\":12228:12263  alphabet[uint(uint8(data[i] >> 4))] */\n      dup2\n      mload\n      dup2\n      lt\n      tag_446\n      jumpi\n      tag_447\n      tag_288\n      jump\t// in\n    tag_447:\n    tag_446:\n      0x20\n      add\n      add\n      mload\n      0xf8\n      shr\n      0xf8\n      shl\n        /* \"wwcc-contracts/contracts/wwccPool.sol\":12211:12214  str */\n      dup3\n        /* \"wwcc-contracts/contracts/wwccPool.sol\":12223:12224  2 */\n      0x02\n        /* \"wwcc-contracts/contracts/wwccPool.sol\":12219:12220  i */\n      dup4\n        /* \"wwcc-contracts/contracts/wwccPool.sol\":12219:12224  i * 2 */\n      tag_448\n      swap2\n      swap1\n      tag_310\n      jump\t// in\n    tag_448:\n        /* \"wwcc-contracts/contracts/wwccPool.sol\":12215:12216  2 */\n      0x02\n        /* \"wwcc-contracts/contracts/wwccPool.sol\":12215:12224  2 + i * 2 */\n      tag_449\n      swap2\n      swap1\n      tag_17\n      jump\t// in\n    tag_449:\n        /* \"wwcc-contracts/contracts/wwccPool.sol\":12211:12225  str[2 + i * 2] */\n      dup2\n      mload\n      dup2\n      lt\n      tag_450\n      jumpi\n      tag_451\n      tag_288\n      jump\t// in\n    tag_451:\n    tag_450:\n      0x20\n      add\n      add\n        /* \"wwcc-contracts/contracts/wwccPool.sol\":12211:12263  str[2 + i * 2] = alphabet[uint(uint8(data[i] >> 4))] */\n      swap1\n      not(0xffffffffffffffffffffffffffffffffffffffffffffffffffffffffffffff)\n      and\n      swap1\n      dup2\n      0x00\n      byte\n      swap1\n      mstore8\n      pop\n        /* \"wwcc-contracts/contracts/wwccPool.sol\":12298:12306  alphabet */\n      dup3\n        /* \"wwcc-contracts/contracts/wwccPool.sol\":12328:12332  0x0f */\n      0x0f\n        /* \"wwcc-contracts/contracts/wwccPool.sol\":12318:12332  data[i] & 0x0f */\n      0xf8\n      shl\n        /* \"wwcc-contracts/contracts/wwccPool.sol\":12318:12322  data */\n      dup7\n        /* \"wwcc-contracts/contracts/wwccPool.sol\":12323:12324  i */\n      dup4\n        /* \"wwcc-contracts/contracts/wwccPool.sol\":12318:12325  data[i] */\n      dup2\n      mload\n      dup2\n      lt\n      tag_452\n      jumpi\n      tag_453\n      tag_288\n      jump\t// in\n    tag_453:\n    tag_452:\n      0x20\n      add\n      add\n      mload\n      0xf8\n      shr\n      0xf8\n      shl\n        /* \"wwcc-contracts/contracts/wwccPool.sol\":12318:12332  data[i] & 0x0f */\n      and\n        /* \"wwcc-contracts/contracts/wwccPool.sol\":12312:12333  uint8(data[i] & 0x0f) */\n      0xf8\n      shr\n        /* \"wwcc-contracts/contracts/wwccPool.sol\":12307:12334  uint(uint8(data[i] & 0x0f)) */\n      0xff\n      and\n        /* \"wwcc-contracts/contracts/wwccPool.sol\":12298:12335  alphabet[uint(uint8(data[i] & 0x0f))] */\n      dup2\n      mload\n      dup2\n      lt\n      tag_454\n      jumpi\n      tag_455\n      tag_288\n      jump\t// in\n    tag_455:\n    tag_454:\n      0x20\n      add\n      add\n      mload\n      0xf8\n      shr\n      0xf8\n      shl\n        /* \"wwcc-contracts/contracts/wwccPool.sol\":12281:12284  str */\n      dup3\n        /* \"wwcc-contracts/contracts/wwccPool.sol\":12293:12294  2 */\n      0x02\n        /* \"wwcc-contracts/contracts/wwccPool.sol\":12289:12290  i */\n      dup4\n        /* \"wwcc-contracts/contracts/wwccPool.sol\":12289:12294  i * 2 */\n      tag_456\n      swap2\n      swap1\n      tag_310\n      jump\t// in\n    tag_456:\n        /* \"wwcc-contracts/contracts/wwccPool.sol\":12285:12286  3 */\n      0x03\n        /* \"wwcc-contracts/contracts/wwccPool.sol\":12285:12294  3 + i * 2 */\n      tag_457\n      swap2\n      swap1\n      tag_17\n      jump\t// in\n    tag_457:\n        /* \"wwcc-contracts/contracts/wwccPool.sol\":12281:12295  str[3 + i * 2] */\n      dup2\n      mload\n      dup2\n      lt\n      tag_458\n      jumpi\n      tag_459\n      tag_288\n      jump\t// in\n    tag_459:\n    tag_458:\n      0x20\n      add\n      add\n        /* \"wwcc-contracts/contracts/wwccPool.sol\":12281:12335  str[3 + i * 2] = alphabet[uint(uint8(data[i] & 0x0f))] */\n      swap1\n      not(0xffffffffffffffffffffffffffffffffffffffffffffffffffffffffffffff)\n      and\n      swap1\n      dup2\n      0x00\n      byte\n      swap1\n      mstore8\n      pop\n        /* \"wwcc-contracts/contracts/wwccPool.sol\":12189:12192  i++ */\n      dup1\n      dup1\n      tag_460\n      swap1\n      tag_353\n      jump\t// in\n    tag_460:\n      swap2\n      pop\n      pop\n        /* \"wwcc-contracts/contracts/wwccPool.sol\":12159:12350  for(uint i =0;i < data.length;i++){... */\n      jump(tag_441)\n    tag_442:\n      pop\n        /* \"wwcc-contracts/contracts/wwccPool.sol\":12377:12380  str */\n      dup1\n        /* \"wwcc-contracts/contracts/wwccPool.sol\":12363:12381  return string(str) */\n      swap3\n      pop\n      pop\n      pop\n        /* \"wwcc-contracts/contracts/wwccPool.sol\":11901:12388  function toString(bytes memory data) internal pure returns(string memory){... */\n      swap2\n      swap1\n      pop\n      jump\t// out\n    tag_159:\n      dup3\n      dup1\n      sload\n      tag_461\n      swap1\n      tag_85\n      jump\t// in\n    tag_461:\n      swap1\n      0x00\n      mstore\n      keccak256(0x00, 0x20)\n      swap1\n      0x1f\n      add\n      0x20\n      swap1\n      div\n      dup2\n      add\n      swap3\n      dup3\n      tag_463\n      jumpi\n      0x00\n      dup6\n      sstore\n      jump(tag_462)\n    tag_463:\n      dup3\n      0x1f\n      lt\n      tag_464\n      jumpi\n      dup1\n      mload\n      not(0xff)\n      and\n      dup4\n      dup1\n      add\n      or\n      dup6\n      sstore\n      jump(tag_462)\n    tag_464:\n      dup3\n      dup1\n      add\n      0x01\n      add\n      dup6\n      sstore\n      dup3\n      iszero\n      tag_462\n      jumpi\n      swap2\n      dup3\n      add\n    tag_465:\n      dup3\n      dup2\n      gt\n      iszero\n      tag_466\n      jumpi\n      dup3\n      mload\n      dup3\n      sstore\n      swap2\n      0x20\n      add\n      swap2\n      swap1\n      0x01\n      add\n      swap1\n      jump(tag_465)\n    tag_466:\n    tag_462:\n      pop\n      swap1\n      pop\n      tag_467\n      swap2\n      swap1\n      tag_468\n      jump\t// in\n    tag_467:\n      pop\n      swap1\n      jump\t// out\n    tag_365:\n      mload(0x40)\n      dup1\n      0xa0\n      add\n      0x40\n      mstore\n      dup1\n      0x00\n      dup2\n      mstore\n      0x20\n      add\n      0x00\n      dup2\n      mstore\n      0x20\n      add\n      0x00\n      dup2\n      mstore\n      0x20\n      add\n      0x00\n      dup2\n      mstore\n      0x20\n      add\n      0x00\n      dup2\n      mstore\n      pop\n      swap1\n      jump\t// out\n    tag_468:\n    tag_469:\n      dup1\n      dup3\n      gt\n      iszero\n      tag_470\n      jumpi\n      0x00\n      dup2\n      0x00\n      swap1\n      sstore\n      pop\n      0x01\n      add\n      jump(tag_469)\n    tag_470:\n      pop\n      swap1\n      jump\t// out\n        /* \"#utility.yul\":7:419   */\n    tag_472:\n        /* \"#utility.yul\":85:90   */\n      0x00\n        /* \"#utility.yul\":110:176   */\n      tag_474\n        /* \"#utility.yul\":126:175   */\n      tag_475\n        /* \"#utility.yul\":168:174   */\n      dup5\n        /* \"#utility.yul\":126:175   */\n      tag_476\n      jump\t// in\n    tag_475:\n        /* \"#utility.yul\":110:176   */\n      tag_477\n      jump\t// in\n    tag_474:\n        /* \"#utility.yul\":101:176   */\n      swap1\n      pop\n        /* \"#utility.yul\":199:205   */\n      dup3\n        /* \"#utility.yul\":192:197   */\n      dup2\n        /* \"#utility.yul\":185:206   */\n      mstore\n        /* \"#utility.yul\":237:241   */\n      0x20\n        /* \"#utility.yul\":230:235   */\n      dup2\n        /* \"#utility.yul\":226:242   */\n      add\n        /* \"#utility.yul\":275:278   */\n      dup5\n        /* \"#utility.yul\":266:272   */\n      dup5\n        /* \"#utility.yul\":261:264   */\n      dup5\n        /* \"#utility.yul\":257:273   */\n      add\n        /* \"#utility.yul\":254:279   */\n      gt\n        /* \"#utility.yul\":251:363   */\n      iszero\n      tag_478\n      jumpi\n        /* \"#utility.yul\":282:361   */\n      tag_479\n      tag_480\n      jump\t// in\n    tag_479:\n        /* \"#utility.yul\":251:363   */\n    tag_478:\n        /* \"#utility.yul\":372:413   */\n      tag_481\n        /* \"#utility.yul\":406:412   */\n      dup5\n        /* \"#utility.yul\":401:404   */\n      dup3\n        /* \"#utility.yul\":396:399   */\n      dup6\n        /* \"#utility.yul\":372:413   */\n      tag_482\n      jump\t// in\n    tag_481:\n        /* \"#utility.yul\":91:419   */\n      pop\n        /* \"#utility.yul\":7:419   */\n      swap4\n      swap3\n      pop\n      pop\n      pop\n      jump\t// out\n        /* \"#utility.yul\":425:564   */\n    tag_483:\n        /* \"#utility.yul\":471:476   */\n      0x00\n        /* \"#utility.yul\":509:515   */\n      dup2\n        /* \"#utility.yul\":496:516   */\n      calldataload\n        /* \"#utility.yul\":487:516   */\n      swap1\n      pop\n        /* \"#utility.yul\":525:558   */\n      tag_485\n        /* \"#utility.yul\":552:557   */\n      dup2\n        /* \"#utility.yul\":525:558   */\n      tag_486\n      jump\t// in\n    tag_485:\n        /* \"#utility.yul\":425:564   */\n      swap3\n      swap2\n      pop\n      pop\n      jump\t// out\n        /* \"#utility.yul\":570:703   */\n    tag_487:\n        /* \"#utility.yul\":613:618   */\n      0x00\n        /* \"#utility.yul\":651:657   */\n      dup2\n        /* \"#utility.yul\":638:658   */\n      calldataload\n        /* \"#utility.yul\":629:658   */\n      swap1\n      pop\n        /* \"#utility.yul\":667:697   */\n      tag_489\n        /* \"#utility.yul\":691:696   */\n      dup2\n        /* \"#utility.yul\":667:697   */\n      tag_490\n      jump\t// in\n    tag_489:\n        /* \"#utility.yul\":570:703   */\n      swap3\n      swap2\n      pop\n      pop\n      jump\t// out\n        /* \"#utility.yul\":709:848   */\n    tag_491:\n        /* \"#utility.yul\":755:760   */\n      0x00\n        /* \"#utility.yul\":793:799   */\n      dup2\n        /* \"#utility.yul\":780:800   */\n      calldataload\n        /* \"#utility.yul\":771:800   */\n      swap1\n      pop\n        /* \"#utility.yul\":809:842   */\n      tag_493\n        /* \"#utility.yul\":836:841   */\n      dup2\n        /* \"#utility.yul\":809:842   */\n      tag_494\n      jump\t// in\n    tag_493:\n        /* \"#utility.yul\":709:848   */\n      swap3\n      swap2\n      pop\n      pop\n      jump\t// out\n        /* \"#utility.yul\":868:1208   */\n    tag_495:\n        /* \"#utility.yul\":924:929   */\n      0x00\n        /* \"#utility.yul\":973:976   */\n      dup3\n        /* \"#utility.yul\":966:970   */\n      0x1f\n        /* \"#utility.yul\":958:964   */\n      dup4\n        /* \"#utility.yul\":954:971   */\n      add\n        /* \"#utility.yul\":950:977   */\n      slt\n        /* \"#utility.yul\":940:1062   */\n      tag_497\n      jumpi\n        /* \"#utility.yul\":981:1060   */\n      tag_498\n      tag_499\n      jump\t// in\n    tag_498:\n        /* \"#utility.yul\":940:1062   */\n    tag_497:\n        /* \"#utility.yul\":1098:1104   */\n      dup2\n        /* \"#utility.yul\":1085:1105   */\n      calldataload\n        /* \"#utility.yul\":1123:1202   */\n      tag_500\n        /* \"#utility.yul\":1198:1201   */\n      dup5\n        /* \"#utility.yul\":1190:1196   */\n      dup3\n        /* \"#utility.yul\":1183:1187   */\n      0x20\n        /* \"#utility.yul\":1175:1181   */\n      dup7\n        /* \"#utility.yul\":1171:1188   */\n      add\n        /* \"#utility.yul\":1123:1202   */\n      tag_472\n      jump\t// in\n    tag_500:\n        /* \"#utility.yul\":1114:1202   */\n      swap2\n      pop\n        /* \"#utility.yul\":930:1208   */\n      pop\n        /* \"#utility.yul\":868:1208   */\n      swap3\n      swap2\n      pop\n      pop\n      jump\t// out\n        /* \"#utility.yul\":1214:1353   */\n    tag_501:\n        /* \"#utility.yul\":1260:1265   */\n      0x00\n        /* \"#utility.yul\":1298:1304   */\n      dup2\n        /* \"#utility.yul\":1285:1305   */\n      calldataload\n        /* \"#utility.yul\":1276:1305   */\n      swap1\n      pop\n        /* \"#utility.yul\":1314:1347   */\n      tag_503\n        /* \"#utility.yul\":1341:1346   */\n      dup2\n        /* \"#utility.yul\":1314:1347   */\n      tag_504\n      jump\t// in\n    tag_503:\n        /* \"#utility.yul\":1214:1353   */\n      swap3\n      swap2\n      pop\n      pop\n      jump\t// out\n        /* \"#utility.yul\":1359:1833   */\n    tag_23:\n        /* \"#utility.yul\":1427:1433   */\n      0x00\n        /* \"#utility.yul\":1435:1441   */\n      dup1\n        /* \"#utility.yul\":1484:1486   */\n      0x40\n        /* \"#utility.yul\":1472:1481   */\n      dup4\n        /* \"#utility.yul\":1463:1470   */\n      dup6\n        /* \"#utility.yul\":1459:1482   */\n      sub\n        /* \"#utility.yul\":1455:1487   */\n      slt\n        /* \"#utility.yul\":1452:1571   */\n      iszero\n      tag_506\n      jumpi\n        /* \"#utility.yul\":1490:1569   */\n      tag_507\n      tag_508\n      jump\t// in\n    tag_507:\n        /* \"#utility.yul\":1452:1571   */\n    tag_506:\n        /* \"#utility.yul\":1610:1611   */\n      0x00\n        /* \"#utility.yul\":1635:1688   */\n      tag_509\n        /* \"#utility.yul\":1680:1687   */\n      dup6\n        /* \"#utility.yul\":1671:1677   */\n      dup3\n        /* \"#utility.yul\":1660:1669   */\n      dup7\n        /* \"#utility.yul\":1656:1678   */\n      add\n        /* \"#utility.yul\":1635:1688   */\n      tag_483\n      jump\t// in\n    tag_509:\n        /* \"#utility.yul\":1625:1688   */\n      swap3\n      pop\n        /* \"#utility.yul\":1581:1698   */\n      pop\n        /* \"#utility.yul\":1737:1739   */\n      0x20\n        /* \"#utility.yul\":1763:1816   */\n      tag_510\n        /* \"#utility.yul\":1808:1815   */\n      dup6\n        /* \"#utility.yul\":1799:1805   */\n      dup3\n        /* \"#utility.yul\":1788:1797   */\n      dup7\n        /* \"#utility.yul\":1784:1806   */\n      add\n        /* \"#utility.yul\":1763:1816   */\n      tag_491\n      jump\t// in\n    tag_510:\n        /* \"#utility.yul\":1753:1816   */\n      swap2\n      pop\n        /* \"#utility.yul\":1708:1826   */\n      pop\n        /* \"#utility.yul\":1359:1833   */\n      swap3\n      pop\n      swap3\n      swap1\n      pop\n      jump\t// out\n        /* \"#utility.yul\":1839:2313   */\n    tag_64:\n        /* \"#utility.yul\":1907:1913   */\n      0x00\n        /* \"#utility.yul\":1915:1921   */\n      dup1\n        /* \"#utility.yul\":1964:1966   */\n      0x40\n        /* \"#utility.yul\":1952:1961   */\n      dup4\n        /* \"#utility.yul\":1943:1950   */\n      dup6\n        /* \"#utility.yul\":1939:1962   */\n      sub\n        /* \"#utility.yul\":1935:1967   */\n      slt\n        /* \"#utility.yul\":1932:2051   */\n      iszero\n      tag_512\n      jumpi\n        /* \"#utility.yul\":1970:2049   */\n      tag_513\n      tag_508\n      jump\t// in\n    tag_513:\n        /* \"#utility.yul\":1932:2051   */\n    tag_512:\n        /* \"#utility.yul\":2090:2091   */\n      0x00\n        /* \"#utility.yul\":2115:2168   */\n      tag_514\n        /* \"#utility.yul\":2160:2167   */\n      dup6\n        /* \"#utility.yul\":2151:2157   */\n      dup3\n        /* \"#utility.yul\":2140:2149   */\n      dup7\n        /* \"#utility.yul\":2136:2158   */\n      add\n        /* \"#utility.yul\":2115:2168   */\n      tag_483\n      jump\t// in\n    tag_514:\n        /* \"#utility.yul\":2105:2168   */\n      swap3\n      pop\n        /* \"#utility.yul\":2061:2178   */\n      pop\n        /* \"#utility.yul\":2217:2219   */\n      0x20\n        /* \"#utility.yul\":2243:2296   */\n      tag_515\n        /* \"#utility.yul\":2288:2295   */\n      dup6\n        /* \"#utility.yul\":2279:2285   */\n      dup3\n        /* \"#utility.yul\":2268:2277   */\n      dup7\n        /* \"#utility.yul\":2264:2286   */\n      add\n        /* \"#utility.yul\":2243:2296   */\n      tag_501\n      jump\t// in\n    tag_515:\n        /* \"#utility.yul\":2233:2296   */\n      swap2\n      pop\n        /* \"#utility.yul\":2188:2306   */\n      pop\n        /* \"#utility.yul\":1839:2313   */\n      swap3\n      pop\n      swap3\n      swap1\n      pop\n      jump\t// out\n        /* \"#utility.yul\":2319:3376   */\n    tag_54:\n        /* \"#utility.yul\":2423:2429   */\n      0x00\n        /* \"#utility.yul\":2431:2437   */\n      dup1\n        /* \"#utility.yul\":2439:2445   */\n      0x00\n        /* \"#utility.yul\":2447:2453   */\n      dup1\n        /* \"#utility.yul\":2455:2461   */\n      0x00\n        /* \"#utility.yul\":2463:2469   */\n      dup1\n        /* \"#utility.yul\":2512:2515   */\n      0xc0\n        /* \"#utility.yul\":2500:2509   */\n      dup8\n        /* \"#utility.yul\":2491:2498   */\n      dup10\n        /* \"#utility.yul\":2487:2510   */\n      sub\n        /* \"#utility.yul\":2483:2516   */\n      slt\n        /* \"#utility.yul\":2480:2600   */\n      iszero\n      tag_517\n      jumpi\n        /* \"#utility.yul\":2519:2598   */\n      tag_518\n      tag_508\n      jump\t// in\n    tag_518:\n        /* \"#utility.yul\":2480:2600   */\n    tag_517:\n        /* \"#utility.yul\":2639:2640   */\n      0x00\n        /* \"#utility.yul\":2664:2717   */\n      tag_519\n        /* \"#utility.yul\":2709:2716   */\n      dup10\n        /* \"#utility.yul\":2700:2706   */\n      dup3\n        /* \"#utility.yul\":2689:2698   */\n      dup11\n        /* \"#utility.yul\":2685:2707   */\n      add\n        /* \"#utility.yul\":2664:2717   */\n      tag_483\n      jump\t// in\n    tag_519:\n        /* \"#utility.yul\":2654:2717   */\n      swap7\n      pop\n        /* \"#utility.yul\":2610:2727   */\n      pop\n        /* \"#utility.yul\":2766:2768   */\n      0x20\n        /* \"#utility.yul\":2792:2845   */\n      tag_520\n        /* \"#utility.yul\":2837:2844   */\n      dup10\n        /* \"#utility.yul\":2828:2834   */\n      dup3\n        /* \"#utility.yul\":2817:2826   */\n      dup11\n        /* \"#utility.yul\":2813:2835   */\n      add\n        /* \"#utility.yul\":2792:2845   */\n      tag_501\n      jump\t// in\n    tag_520:\n        /* \"#utility.yul\":2782:2845   */\n      swap6\n      pop\n        /* \"#utility.yul\":2737:2855   */\n      pop\n        /* \"#utility.yul\":2894:2896   */\n      0x40\n        /* \"#utility.yul\":2920:2973   */\n      tag_521\n        /* \"#utility.yul\":2965:2972   */\n      dup10\n        /* \"#utility.yul\":2956:2962   */\n      dup3\n        /* \"#utility.yul\":2945:2954   */\n      dup11\n        /* \"#utility.yul\":2941:2963   */\n      add\n        /* \"#utility.yul\":2920:2973   */\n      tag_491\n      jump\t// in\n    tag_521:\n        /* \"#utility.yul\":2910:2973   */\n      swap5\n      pop\n        /* \"#utility.yul\":2865:2983   */\n      pop\n        /* \"#utility.yul\":3022:3024   */\n      0x60\n        /* \"#utility.yul\":3048:3101   */\n      tag_522\n        /* \"#utility.yul\":3093:3100   */\n      dup10\n        /* \"#utility.yul\":3084:3090   */\n      dup3\n        /* \"#utility.yul\":3073:3082   */\n      dup11\n        /* \"#utility.yul\":3069:3091   */\n      add\n        /* \"#utility.yul\":3048:3101   */\n      tag_501\n      jump\t// in\n    tag_522:\n        /* \"#utility.yul\":3038:3101   */\n      swap4\n      pop\n        /* \"#utility.yul\":2993:3111   */\n      pop\n        /* \"#utility.yul\":3150:3153   */\n      0x80\n        /* \"#utility.yul\":3177:3230   */\n      tag_523\n        /* \"#utility.yul\":3222:3229   */\n      dup10\n        /* \"#utility.yul\":3213:3219   */\n      dup3\n        /* \"#utility.yul\":3202:3211   */\n      dup11\n        /* \"#utility.yul\":3198:3220   */\n      add\n        /* \"#utility.yul\":3177:3230   */\n      tag_501\n      jump\t// in\n    tag_523:\n        /* \"#utility.yul\":3167:3230   */\n      swap3\n      pop\n        /* \"#utility.yul\":3121:3240   */\n      pop\n        /* \"#utility.yul\":3279:3282   */\n      0xa0\n        /* \"#utility.yul\":3306:3359   */\n      tag_524\n        /* \"#utility.yul\":3351:3358   */\n      dup10\n        /* \"#utility.yul\":3342:3348   */\n      dup3\n        /* \"#utility.yul\":3331:3340   */\n      dup11\n        /* \"#utility.yul\":3327:3349   */\n      add\n        /* \"#utility.yul\":3306:3359   */\n      tag_501\n      jump\t// in\n    tag_524:\n        /* \"#utility.yul\":3296:3359   */\n      swap2\n      pop\n        /* \"#utility.yul\":3250:3369   */\n      pop\n        /* \"#utility.yul\":2319:3376   */\n      swap3\n      swap6\n      pop\n      swap3\n      swap6\n      pop\n      swap3\n      swap6\n      jump\t// out\n        /* \"#utility.yul\":3382:3711   */\n    tag_48:\n        /* \"#utility.yul\":3441:3447   */\n      0x00\n        /* \"#utility.yul\":3490:3492   */\n      0x20\n        /* \"#utility.yul\":3478:3487   */\n      dup3\n        /* \"#utility.yul\":3469:3476   */\n      dup5\n        /* \"#utility.yul\":3465:3488   */\n      sub\n        /* \"#utility.yul\":3461:3493   */\n      slt\n        /* \"#utility.yul\":3458:3577   */\n      iszero\n      tag_526\n      jumpi\n        /* \"#utility.yul\":3496:3575   */\n      tag_527\n      tag_508\n      jump\t// in\n    tag_527:\n        /* \"#utility.yul\":3458:3577   */\n    tag_526:\n        /* \"#utility.yul\":3616:3617   */\n      0x00\n        /* \"#utility.yul\":3641:3694   */\n      tag_528\n        /* \"#utility.yul\":3686:3693   */\n      dup5\n        /* \"#utility.yul\":3677:3683   */\n      dup3\n        /* \"#utility.yul\":3666:3675   */\n      dup6\n        /* \"#utility.yul\":3662:3684   */\n      add\n        /* \"#utility.yul\":3641:3694   */\n      tag_491\n      jump\t// in\n    tag_528:\n        /* \"#utility.yul\":3631:3694   */\n      swap2\n      pop\n        /* \"#utility.yul\":3587:3704   */\n      pop\n        /* \"#utility.yul\":3382:3711   */\n      swap3\n      swap2\n      pop\n      pop\n      jump\t// out\n        /* \"#utility.yul\":3717:4191   */\n    tag_30:\n        /* \"#utility.yul\":3785:3791   */\n      0x00\n        /* \"#utility.yul\":3793:3799   */\n      dup1\n        /* \"#utility.yul\":3842:3844   */\n      0x40\n        /* \"#utility.yul\":3830:3839   */\n      dup4\n        /* \"#utility.yul\":3821:3828   */\n      dup6\n        /* \"#utility.yul\":3817:3840   */\n      sub\n        /* \"#utility.yul\":3813:3845   */\n      slt\n        /* \"#utility.yul\":3810:3929   */\n      iszero\n      tag_530\n      jumpi\n        /* \"#utility.yul\":3848:3927   */\n      tag_531\n      tag_508\n      jump\t// in\n    tag_531:\n        /* \"#utility.yul\":3810:3929   */\n    tag_530:\n        /* \"#utility.yul\":3968:3969   */\n      0x00\n        /* \"#utility.yul\":3993:4046   */\n      tag_532\n        /* \"#utility.yul\":4038:4045   */\n      dup6\n        /* \"#utility.yul\":4029:4035   */\n      dup3\n        /* \"#utility.yul\":4018:4027   */\n      dup7\n        /* \"#utility.yul\":4014:4036   */\n      add\n        /* \"#utility.yul\":3993:4046   */\n      tag_491\n      jump\t// in\n    tag_532:\n        /* \"#utility.yul\":3983:4046   */\n      swap3\n      pop\n        /* \"#utility.yul\":3939:4056   */\n      pop\n        /* \"#utility.yul\":4095:4097   */\n      0x20\n        /* \"#utility.yul\":4121:4174   */\n      tag_533\n        /* \"#utility.yul\":4166:4173   */\n      dup6\n        /* \"#utility.yul\":4157:4163   */\n      dup3\n        /* \"#utility.yul\":4146:4155   */\n      dup7\n        /* \"#utility.yul\":4142:4164   */\n      add\n        /* \"#utility.yul\":4121:4174   */\n      tag_501\n      jump\t// in\n    tag_533:\n        /* \"#utility.yul\":4111:4174   */\n      swap2\n      pop\n        /* \"#utility.yul\":4066:4184   */\n      pop\n        /* \"#utility.yul\":3717:4191   */\n      swap3\n      pop\n      swap3\n      swap1\n      pop\n      jump\t// out\n        /* \"#utility.yul\":4197:4962   */\n    tag_59:\n        /* \"#utility.yul\":4283:4289   */\n      0x00\n        /* \"#utility.yul\":4291:4297   */\n      dup1\n        /* \"#utility.yul\":4299:4305   */\n      0x00\n        /* \"#utility.yul\":4307:4313   */\n      dup1\n        /* \"#utility.yul\":4356:4359   */\n      0x80\n        /* \"#utility.yul\":4344:4353   */\n      dup6\n        /* \"#utility.yul\":4335:4342   */\n      dup8\n        /* \"#utility.yul\":4331:4354   */\n      sub\n        /* \"#utility.yul\":4327:4360   */\n      slt\n        /* \"#utility.yul\":4324:4444   */\n      iszero\n      tag_535\n      jumpi\n        /* \"#utility.yul\":4363:4442   */\n      tag_536\n      tag_508\n      jump\t// in\n    tag_536:\n        /* \"#utility.yul\":4324:4444   */\n    tag_535:\n        /* \"#utility.yul\":4483:4484   */\n      0x00\n        /* \"#utility.yul\":4508:4561   */\n      tag_537\n        /* \"#utility.yul\":4553:4560   */\n      dup8\n        /* \"#utility.yul\":4544:4550   */\n      dup3\n        /* \"#utility.yul\":4533:4542   */\n      dup9\n        /* \"#utility.yul\":4529:4551   */\n      add\n        /* \"#utility.yul\":4508:4561   */\n      tag_491\n      jump\t// in\n    tag_537:\n        /* \"#utility.yul\":4498:4561   */\n      swap5\n      pop\n        /* \"#utility.yul\":4454:4571   */\n      pop\n        /* \"#utility.yul\":4610:4612   */\n      0x20\n        /* \"#utility.yul\":4636:4689   */\n      tag_538\n        /* \"#utility.yul\":4681:4688   */\n      dup8\n        /* \"#utility.yul\":4672:4678   */\n      dup3\n        /* \"#utility.yul\":4661:4670   */\n      dup9\n        /* \"#utility.yul\":4657:4679   */\n      add\n        /* \"#utility.yul\":4636:4689   */\n      tag_501\n      jump\t// in\n    tag_538:\n        /* \"#utility.yul\":4626:4689   */\n      swap4\n      pop\n        /* \"#utility.yul\":4581:4699   */\n      pop\n        /* \"#utility.yul\":4738:4740   */\n      0x40\n        /* \"#utility.yul\":4764:4817   */\n      tag_539\n        /* \"#utility.yul\":4809:4816   */\n      dup8\n        /* \"#utility.yul\":4800:4806   */\n      dup3\n        /* \"#utility.yul\":4789:4798   */\n      dup9\n        /* \"#utility.yul\":4785:4807   */\n      add\n        /* \"#utility.yul\":4764:4817   */\n      tag_501\n      jump\t// in\n    tag_539:\n        /* \"#utility.yul\":4754:4817   */\n      swap3\n      pop\n        /* \"#utility.yul\":4709:4827   */\n      pop\n        /* \"#utility.yul\":4866:4868   */\n      0x60\n        /* \"#utility.yul\":4892:4945   */\n      tag_540\n        /* \"#utility.yul\":4937:4944   */\n      dup8\n        /* \"#utility.yul\":4928:4934   */\n      dup3\n        /* \"#utility.yul\":4917:4926   */\n      dup9\n        /* \"#utility.yul\":4913:4935   */\n      add\n        /* \"#utility.yul\":4892:4945   */\n      tag_501\n      jump\t// in\n    tag_540:\n        /* \"#utility.yul\":4882:4945   */\n      swap2\n      pop\n        /* \"#utility.yul\":4837:4955   */\n      pop\n        /* \"#utility.yul\":4197:4962   */\n      swap3\n      swap6\n      swap2\n      swap5\n      pop\n      swap3\n      pop\n      jump\t// out\n        /* \"#utility.yul\":4968:6267   */\n    tag_36:\n        /* \"#utility.yul\":5081:5087   */\n      0x00\n        /* \"#utility.yul\":5089:5095   */\n      dup1\n        /* \"#utility.yul\":5097:5103   */\n      0x00\n        /* \"#utility.yul\":5105:5111   */\n      dup1\n        /* \"#utility.yul\":5154:5157   */\n      0x80\n        /* \"#utility.yul\":5142:5151   */\n      dup6\n        /* \"#utility.yul\":5133:5140   */\n      dup8\n        /* \"#utility.yul\":5129:5152   */\n      sub\n        /* \"#utility.yul\":5125:5158   */\n      slt\n        /* \"#utility.yul\":5122:5242   */\n      iszero\n      tag_542\n      jumpi\n        /* \"#utility.yul\":5161:5240   */\n      tag_543\n      tag_508\n      jump\t// in\n    tag_543:\n        /* \"#utility.yul\":5122:5242   */\n    tag_542:\n        /* \"#utility.yul\":5309:5310   */\n      0x00\n        /* \"#utility.yul\":5298:5307   */\n      dup6\n        /* \"#utility.yul\":5294:5311   */\n      add\n        /* \"#utility.yul\":5281:5312   */\n      calldataload\n        /* \"#utility.yul\":5339:5357   */\n      0xffffffffffffffff\n        /* \"#utility.yul\":5331:5337   */\n      dup2\n        /* \"#utility.yul\":5328:5358   */\n      gt\n        /* \"#utility.yul\":5325:5442   */\n      iszero\n      tag_544\n      jumpi\n        /* \"#utility.yul\":5361:5440   */\n      tag_545\n      tag_546\n      jump\t// in\n    tag_545:\n        /* \"#utility.yul\":5325:5442   */\n    tag_544:\n        /* \"#utility.yul\":5466:5529   */\n      tag_547\n        /* \"#utility.yul\":5521:5528   */\n      dup8\n        /* \"#utility.yul\":5512:5518   */\n      dup3\n        /* \"#utility.yul\":5501:5510   */\n      dup9\n        /* \"#utility.yul\":5497:5519   */\n      add\n        /* \"#utility.yul\":5466:5529   */\n      tag_495\n      jump\t// in\n    tag_547:\n        /* \"#utility.yul\":5456:5529   */\n      swap5\n      pop\n        /* \"#utility.yul\":5252:5539   */\n      pop\n        /* \"#utility.yul\":5606:5608   */\n      0x20\n        /* \"#utility.yul\":5595:5604   */\n      dup6\n        /* \"#utility.yul\":5591:5609   */\n      add\n        /* \"#utility.yul\":5578:5610   */\n      calldataload\n        /* \"#utility.yul\":5637:5655   */\n      0xffffffffffffffff\n        /* \"#utility.yul\":5629:5635   */\n      dup2\n        /* \"#utility.yul\":5626:5656   */\n      gt\n        /* \"#utility.yul\":5623:5740   */\n      iszero\n      tag_548\n      jumpi\n        /* \"#utility.yul\":5659:5738   */\n      tag_549\n      tag_546\n      jump\t// in\n    tag_549:\n        /* \"#utility.yul\":5623:5740   */\n    tag_548:\n        /* \"#utility.yul\":5764:5827   */\n      tag_550\n        /* \"#utility.yul\":5819:5826   */\n      dup8\n        /* \"#utility.yul\":5810:5816   */\n      dup3\n        /* \"#utility.yul\":5799:5808   */\n      dup9\n        /* \"#utility.yul\":5795:5817   */\n      add\n        /* \"#utility.yul\":5764:5827   */\n      tag_495\n      jump\t// in\n    tag_550:\n        /* \"#utility.yul\":5754:5827   */\n      swap4\n      pop\n        /* \"#utility.yul\":5549:5837   */\n      pop\n        /* \"#utility.yul\":5904:5906   */\n      0x40\n        /* \"#utility.yul\":5893:5902   */\n      dup6\n        /* \"#utility.yul\":5889:5907   */\n      add\n        /* \"#utility.yul\":5876:5908   */\n      calldataload\n        /* \"#utility.yul\":5935:5953   */\n      0xffffffffffffffff\n        /* \"#utility.yul\":5927:5933   */\n      dup2\n        /* \"#utility.yul\":5924:5954   */\n      gt\n        /* \"#utility.yul\":5921:6038   */\n      iszero\n      tag_551\n      jumpi\n        /* \"#utility.yul\":5957:6036   */\n      tag_552\n      tag_546\n      jump\t// in\n    tag_552:\n        /* \"#utility.yul\":5921:6038   */\n    tag_551:\n        /* \"#utility.yul\":6062:6125   */\n      tag_553\n        /* \"#utility.yul\":6117:6124   */\n      dup8\n        /* \"#utility.yul\":6108:6114   */\n      dup3\n        /* \"#utility.yul\":6097:6106   */\n      dup9\n        /* \"#utility.yul\":6093:6115   */\n      add\n        /* \"#utility.yul\":6062:6125   */\n      tag_495\n      jump\t// in\n    tag_553:\n        /* \"#utility.yul\":6052:6125   */\n      swap3\n      pop\n        /* \"#utility.yul\":5847:6135   */\n      pop\n        /* \"#utility.yul\":6174:6176   */\n      0x60\n        /* \"#utility.yul\":6200:6250   */\n      tag_554\n        /* \"#utility.yul\":6242:6249   */\n      dup8\n        /* \"#utility.yul\":6233:6239   */\n      dup3\n        /* \"#utility.yul\":6222:6231   */\n      dup9\n        /* \"#utility.yul\":6218:6240   */\n      add\n        /* \"#utility.yul\":6200:6250   */\n      tag_487\n      jump\t// in\n    tag_554:\n        /* \"#utility.yul\":6190:6250   */\n      swap2\n      pop\n        /* \"#utility.yul\":6145:6260   */\n      pop\n        /* \"#utility.yul\":4968:6267   */\n      swap3\n      swap6\n      swap2\n      swap5\n      pop\n      swap3\n      pop\n      jump\t// out\n        /* \"#utility.yul\":6273:6391   */\n    tag_555:\n        /* \"#utility.yul\":6360:6384   */\n      tag_557\n        /* \"#utility.yul\":6378:6383   */\n      dup2\n        /* \"#utility.yul\":6360:6384   */\n      tag_558\n      jump\t// in\n    tag_557:\n        /* \"#utility.yul\":6355:6358   */\n      dup3\n        /* \"#utility.yul\":6348:6385   */\n      mstore\n        /* \"#utility.yul\":6273:6391   */\n      pop\n      pop\n      jump\t// out\n        /* \"#utility.yul\":6397:6506   */\n    tag_559:\n        /* \"#utility.yul\":6478:6499   */\n      tag_561\n        /* \"#utility.yul\":6493:6498   */\n      dup2\n        /* \"#utility.yul\":6478:6499   */\n      tag_562\n      jump\t// in\n    tag_561:\n        /* \"#utility.yul\":6473:6476   */\n      dup3\n        /* \"#utility.yul\":6466:6500   */\n      mstore\n        /* \"#utility.yul\":6397:6506   */\n      pop\n      pop\n      jump\t// out\n        /* \"#utility.yul\":6512:6630   */\n    tag_563:\n        /* \"#utility.yul\":6599:6623   */\n      tag_565\n        /* \"#utility.yul\":6617:6622   */\n      dup2\n        /* \"#utility.yul\":6599:6623   */\n      tag_566\n      jump\t// in\n    tag_565:\n        /* \"#utility.yul\":6594:6597   */\n      dup3\n        /* \"#utility.yul\":6587:6624   */\n      mstore\n        /* \"#utility.yul\":6512:6630   */\n      pop\n      pop\n      jump\t// out\n        /* \"#utility.yul\":6636:6793   */\n    tag_567:\n        /* \"#utility.yul\":6741:6786   */\n      tag_569\n        /* \"#utility.yul\":6761:6785   */\n      tag_570\n        /* \"#utility.yul\":6779:6784   */\n      dup3\n        /* \"#utility.yul\":6761:6785   */\n      tag_566\n      jump\t// in\n    tag_570:\n        /* \"#utility.yul\":6741:6786   */\n      tag_571\n      jump\t// in\n    tag_569:\n        /* \"#utility.yul\":6736:6739   */\n      dup3\n        /* \"#utility.yul\":6729:6787   */\n      mstore\n        /* \"#utility.yul\":6636:6793   */\n      pop\n      pop\n      jump\t// out\n        /* \"#utility.yul\":6799:7163   */\n    tag_572:\n        /* \"#utility.yul\":6887:6890   */\n      0x00\n        /* \"#utility.yul\":6915:6954   */\n      tag_574\n        /* \"#utility.yul\":6948:6953   */\n      dup3\n        /* \"#utility.yul\":6915:6954   */\n      tag_575\n      jump\t// in\n    tag_574:\n        /* \"#utility.yul\":6970:7041   */\n      tag_576\n        /* \"#utility.yul\":7034:7040   */\n      dup2\n        /* \"#utility.yul\":7029:7032   */\n      dup6\n        /* \"#utility.yul\":6970:7041   */\n      tag_577\n      jump\t// in\n    tag_576:\n        /* \"#utility.yul\":6963:7041   */\n      swap4\n      pop\n        /* \"#utility.yul\":7050:7102   */\n      tag_578\n        /* \"#utility.yul\":7095:7101   */\n      dup2\n        /* \"#utility.yul\":7090:7093   */\n      dup6\n        /* \"#utility.yul\":7083:7087   */\n      0x20\n        /* \"#utility.yul\":7076:7081   */\n      dup7\n        /* \"#utility.yul\":7072:7088   */\n      add\n        /* \"#utility.yul\":7050:7102   */\n      tag_579\n      jump\t// in\n    tag_578:\n        /* \"#utility.yul\":7127:7156   */\n      tag_580\n        /* \"#utility.yul\":7149:7155   */\n      dup2\n        /* \"#utility.yul\":7127:7156   */\n      tag_581\n      jump\t// in\n    tag_580:\n        /* \"#utility.yul\":7122:7125   */\n      dup5\n        /* \"#utility.yul\":7118:7157   */\n      add\n        /* \"#utility.yul\":7111:7157   */\n      swap2\n      pop\n        /* \"#utility.yul\":6891:7163   */\n      pop\n        /* \"#utility.yul\":6799:7163   */\n      swap3\n      swap2\n      pop\n      pop\n      jump\t// out\n        /* \"#utility.yul\":7169:7546   */\n    tag_582:\n        /* \"#utility.yul\":7275:7278   */\n      0x00\n        /* \"#utility.yul\":7303:7342   */\n      tag_584\n        /* \"#utility.yul\":7336:7341   */\n      dup3\n        /* \"#utility.yul\":7303:7342   */\n      tag_575\n      jump\t// in\n    tag_584:\n        /* \"#utility.yul\":7358:7447   */\n      tag_585\n        /* \"#utility.yul\":7440:7446   */\n      dup2\n        /* \"#utility.yul\":7435:7438   */\n      dup6\n        /* \"#utility.yul\":7358:7447   */\n      tag_586\n      jump\t// in\n    tag_585:\n        /* \"#utility.yul\":7351:7447   */\n      swap4\n      pop\n        /* \"#utility.yul\":7456:7508   */\n      tag_587\n        /* \"#utility.yul\":7501:7507   */\n      dup2\n        /* \"#utility.yul\":7496:7499   */\n      dup6\n        /* \"#utility.yul\":7489:7493   */\n      0x20\n        /* \"#utility.yul\":7482:7487   */\n      dup7\n        /* \"#utility.yul\":7478:7494   */\n      add\n        /* \"#utility.yul\":7456:7508   */\n      tag_579\n      jump\t// in\n    tag_587:\n        /* \"#utility.yul\":7533:7539   */\n      dup1\n        /* \"#utility.yul\":7528:7531   */\n      dup5\n        /* \"#utility.yul\":7524:7540   */\n      add\n        /* \"#utility.yul\":7517:7540   */\n      swap2\n      pop\n        /* \"#utility.yul\":7279:7546   */\n      pop\n        /* \"#utility.yul\":7169:7546   */\n      swap3\n      swap2\n      pop\n      pop\n      jump\t// out\n        /* \"#utility.yul\":7552:7918   */\n    tag_588:\n        /* \"#utility.yul\":7694:7697   */\n      0x00\n        /* \"#utility.yul\":7715:7782   */\n      tag_590\n        /* \"#utility.yul\":7779:7781   */\n      0x19\n        /* \"#utility.yul\":7774:7777   */\n      dup4\n        /* \"#utility.yul\":7715:7782   */\n      tag_577\n      jump\t// in\n    tag_590:\n        /* \"#utility.yul\":7708:7782   */\n      swap2\n      pop\n        /* \"#utility.yul\":7791:7884   */\n      tag_591\n        /* \"#utility.yul\":7880:7883   */\n      dup3\n        /* \"#utility.yul\":7791:7884   */\n      tag_592\n      jump\t// in\n    tag_591:\n        /* \"#utility.yul\":7909:7911   */\n      0x20\n        /* \"#utility.yul\":7904:7907   */\n      dup3\n        /* \"#utility.yul\":7900:7912   */\n      add\n        /* \"#utility.yul\":7893:7912   */\n      swap1\n      pop\n        /* \"#utility.yul\":7552:7918   */\n      swap2\n      swap1\n      pop\n      jump\t// out\n        /* \"#utility.yul\":7924:8289   */\n    tag_593:\n        /* \"#utility.yul\":8066:8069   */\n      0x00\n        /* \"#utility.yul\":8087:8153   */\n      tag_595\n        /* \"#utility.yul\":8151:8152   */\n      0x09\n        /* \"#utility.yul\":8146:8149   */\n      dup4\n        /* \"#utility.yul\":8087:8153   */\n      tag_577\n      jump\t// in\n    tag_595:\n        /* \"#utility.yul\":8080:8153   */\n      swap2\n      pop\n        /* \"#utility.yul\":8162:8255   */\n      tag_596\n        /* \"#utility.yul\":8251:8254   */\n      dup3\n        /* \"#utility.yul\":8162:8255   */\n      tag_597\n      jump\t// in\n    tag_596:\n        /* \"#utility.yul\":8280:8282   */\n      0x20\n        /* \"#utility.yul\":8275:8278   */\n      dup3\n        /* \"#utility.yul\":8271:8283   */\n      add\n        /* \"#utility.yul\":8264:8283   */\n      swap1\n      pop\n        /* \"#utility.yul\":7924:8289   */\n      swap2\n      swap1\n      pop\n      jump\t// out\n        /* \"#utility.yul\":8295:8661   */\n    tag_598:\n        /* \"#utility.yul\":8437:8440   */\n      0x00\n        /* \"#utility.yul\":8458:8525   */\n      tag_600\n        /* \"#utility.yul\":8522:8524   */\n      0x0e\n        /* \"#utility.yul\":8517:8520   */\n      dup4\n        /* \"#utility.yul\":8458:8525   */\n      tag_577\n      jump\t// in\n    tag_600:\n        /* \"#utility.yul\":8451:8525   */\n      swap2\n      pop\n        /* \"#utility.yul\":8534:8627   */\n      tag_601\n        /* \"#utility.yul\":8623:8626   */\n      dup3\n        /* \"#utility.yul\":8534:8627   */\n      tag_602\n      jump\t// in\n    tag_601:\n        /* \"#utility.yul\":8652:8654   */\n      0x20\n        /* \"#utility.yul\":8647:8650   */\n      dup3\n        /* \"#utility.yul\":8643:8655   */\n      add\n        /* \"#utility.yul\":8636:8655   */\n      swap1\n      pop\n        /* \"#utility.yul\":8295:8661   */\n      swap2\n      swap1\n      pop\n      jump\t// out\n        /* \"#utility.yul\":8667:9033   */\n    tag_603:\n        /* \"#utility.yul\":8809:8812   */\n      0x00\n        /* \"#utility.yul\":8830:8897   */\n      tag_605\n        /* \"#utility.yul\":8894:8896   */\n      0x17\n        /* \"#utility.yul\":8889:8892   */\n      dup4\n        /* \"#utility.yul\":8830:8897   */\n      tag_577\n      jump\t// in\n    tag_605:\n        /* \"#utility.yul\":8823:8897   */\n      swap2\n      pop\n        /* \"#utility.yul\":8906:8999   */\n      tag_606\n        /* \"#utility.yul\":8995:8998   */\n      dup3\n        /* \"#utility.yul\":8906:8999   */\n      tag_607\n      jump\t// in\n    tag_606:\n        /* \"#utility.yul\":9024:9026   */\n      0x20\n        /* \"#utility.yul\":9019:9022   */\n      dup3\n        /* \"#utility.yul\":9015:9027   */\n      add\n        /* \"#utility.yul\":9008:9027   */\n      swap1\n      pop\n        /* \"#utility.yul\":8667:9033   */\n      swap2\n      swap1\n      pop\n      jump\t// out\n        /* \"#utility.yul\":9039:9405   */\n    tag_608:\n        /* \"#utility.yul\":9181:9184   */\n      0x00\n        /* \"#utility.yul\":9202:9269   */\n      tag_610\n        /* \"#utility.yul\":9266:9268   */\n      0x0a\n        /* \"#utility.yul\":9261:9264   */\n      dup4\n        /* \"#utility.yul\":9202:9269   */\n      tag_577\n      jump\t// in\n    tag_610:\n        /* \"#utility.yul\":9195:9269   */\n      swap2\n      pop\n        /* \"#utility.yul\":9278:9371   */\n      tag_611\n        /* \"#utility.yul\":9367:9370   */\n      dup3\n        /* \"#utility.yul\":9278:9371   */\n      tag_612\n      jump\t// in\n    tag_611:\n        /* \"#utility.yul\":9396:9398   */\n      0x20\n        /* \"#utility.yul\":9391:9394   */\n      dup3\n        /* \"#utility.yul\":9387:9399   */\n      add\n        /* \"#utility.yul\":9380:9399   */\n      swap1\n      pop\n        /* \"#utility.yul\":9039:9405   */\n      swap2\n      swap1\n      pop\n      jump\t// out\n        /* \"#utility.yul\":9411:9777   */\n    tag_613:\n        /* \"#utility.yul\":9553:9556   */\n      0x00\n        /* \"#utility.yul\":9574:9641   */\n      tag_615\n        /* \"#utility.yul\":9638:9640   */\n      0x15\n        /* \"#utility.yul\":9633:9636   */\n      dup4\n        /* \"#utility.yul\":9574:9641   */\n      tag_577\n      jump\t// in\n    tag_615:\n        /* \"#utility.yul\":9567:9641   */\n      swap2\n      pop\n        /* \"#utility.yul\":9650:9743   */\n      tag_616\n        /* \"#utility.yul\":9739:9742   */\n      dup3\n        /* \"#utility.yul\":9650:9743   */\n      tag_617\n      jump\t// in\n    tag_616:\n        /* \"#utility.yul\":9768:9770   */\n      0x20\n        /* \"#utility.yul\":9763:9766   */\n      dup3\n        /* \"#utility.yul\":9759:9771   */\n      add\n        /* \"#utility.yul\":9752:9771   */\n      swap1\n      pop\n        /* \"#utility.yul\":9411:9777   */\n      swap2\n      swap1\n      pop\n      jump\t// out\n        /* \"#utility.yul\":9783:10149   */\n    tag_618:\n        /* \"#utility.yul\":9925:9928   */\n      0x00\n        /* \"#utility.yul\":9946:10013   */\n      tag_620\n        /* \"#utility.yul\":10010:10012   */\n      0x15\n        /* \"#utility.yul\":10005:10008   */\n      dup4\n        /* \"#utility.yul\":9946:10013   */\n      tag_577\n      jump\t// in\n    tag_620:\n        /* \"#utility.yul\":9939:10013   */\n      swap2\n      pop\n        /* \"#utility.yul\":10022:10115   */\n      tag_621\n        /* \"#utility.yul\":10111:10114   */\n      dup3\n        /* \"#utility.yul\":10022:10115   */\n      tag_622\n      jump\t// in\n    tag_621:\n        /* \"#utility.yul\":10140:10142   */\n      0x20\n        /* \"#utility.yul\":10135:10138   */\n      dup3\n        /* \"#utility.yul\":10131:10143   */\n      add\n        /* \"#utility.yul\":10124:10143   */\n      swap1\n      pop\n        /* \"#utility.yul\":9783:10149   */\n      swap2\n      swap1\n      pop\n      jump\t// out\n        /* \"#utility.yul\":10155:10521   */\n    tag_623:\n        /* \"#utility.yul\":10297:10300   */\n      0x00\n        /* \"#utility.yul\":10318:10385   */\n      tag_625\n        /* \"#utility.yul\":10382:10384   */\n      0x10\n        /* \"#utility.yul\":10377:10380   */\n      dup4\n        /* \"#utility.yul\":10318:10385   */\n      tag_577\n      jump\t// in\n    tag_625:\n        /* \"#utility.yul\":10311:10385   */\n      swap2\n      pop\n        /* \"#utility.yul\":10394:10487   */\n      tag_626\n        /* \"#utility.yul\":10483:10486   */\n      dup3\n        /* \"#utility.yul\":10394:10487   */\n      tag_627\n      jump\t// in\n    tag_626:\n        /* \"#utility.yul\":10512:10514   */\n      0x20\n        /* \"#utility.yul\":10507:10510   */\n      dup3\n        /* \"#utility.yul\":10503:10515   */\n      add\n        /* \"#utility.yul\":10496:10515   */\n      swap1\n      pop\n        /* \"#utility.yul\":10155:10521   */\n      swap2\n      swap1\n      pop\n      jump\t// out\n        /* \"#utility.yul\":10527:10893   */\n    tag_628:\n        /* \"#utility.yul\":10669:10672   */\n      0x00\n        /* \"#utility.yul\":10690:10757   */\n      tag_630\n        /* \"#utility.yul\":10754:10756   */\n      0x11\n        /* \"#utility.yul\":10749:10752   */\n      dup4\n        /* \"#utility.yul\":10690:10757   */\n      tag_577\n      jump\t// in\n    tag_630:\n        /* \"#utility.yul\":10683:10757   */\n      swap2\n      pop\n        /* \"#utility.yul\":10766:10859   */\n      tag_631\n        /* \"#utility.yul\":10855:10858   */\n      dup3\n        /* \"#utility.yul\":10766:10859   */\n      tag_632\n      jump\t// in\n    tag_631:\n        /* \"#utility.yul\":10884:10886   */\n      0x20\n        /* \"#utility.yul\":10879:10882   */\n      dup3\n        /* \"#utility.yul\":10875:10887   */\n      add\n        /* \"#utility.yul\":10868:10887   */\n      swap1\n      pop\n        /* \"#utility.yul\":10527:10893   */\n      swap2\n      swap1\n      pop\n      jump\t// out\n        /* \"#utility.yul\":10963:12005   */\n    tag_633:\n        /* \"#utility.yul\":11118:11122   */\n      0xa0\n        /* \"#utility.yul\":11113:11116   */\n      dup3\n        /* \"#utility.yul\":11109:11123   */\n      add\n        /* \"#utility.yul\":11206:11210   */\n      0x00\n        /* \"#utility.yul\":11199:11204   */\n      dup3\n        /* \"#utility.yul\":11195:11211   */\n      add\n        /* \"#utility.yul\":11189:11212   */\n      mload\n        /* \"#utility.yul\":11225:11288   */\n      tag_635\n        /* \"#utility.yul\":11282:11286   */\n      0x00\n        /* \"#utility.yul\":11277:11280   */\n      dup6\n        /* \"#utility.yul\":11273:11287   */\n      add\n        /* \"#utility.yul\":11259:11271   */\n      dup3\n        /* \"#utility.yul\":11225:11288   */\n      tag_636\n      jump\t// in\n    tag_635:\n        /* \"#utility.yul\":11133:11298   */\n      pop\n        /* \"#utility.yul\":11381:11385   */\n      0x20\n        /* \"#utility.yul\":11374:11379   */\n      dup3\n        /* \"#utility.yul\":11370:11386   */\n      add\n        /* \"#utility.yul\":11364:11387   */\n      mload\n        /* \"#utility.yul\":11400:11463   */\n      tag_637\n        /* \"#utility.yul\":11457:11461   */\n      0x20\n        /* \"#utility.yul\":11452:11455   */\n      dup6\n        /* \"#utility.yul\":11448:11462   */\n      add\n        /* \"#utility.yul\":11434:11446   */\n      dup3\n        /* \"#utility.yul\":11400:11463   */\n      tag_636\n      jump\t// in\n    tag_637:\n        /* \"#utility.yul\":11308:11473   */\n      pop\n        /* \"#utility.yul\":11556:11560   */\n      0x40\n        /* \"#utility.yul\":11549:11554   */\n      dup3\n        /* \"#utility.yul\":11545:11561   */\n      add\n        /* \"#utility.yul\":11539:11562   */\n      mload\n        /* \"#utility.yul\":11575:11638   */\n      tag_638\n        /* \"#utility.yul\":11632:11636   */\n      0x40\n        /* \"#utility.yul\":11627:11630   */\n      dup6\n        /* \"#utility.yul\":11623:11637   */\n      add\n        /* \"#utility.yul\":11609:11621   */\n      dup3\n        /* \"#utility.yul\":11575:11638   */\n      tag_636\n      jump\t// in\n    tag_638:\n        /* \"#utility.yul\":11483:11648   */\n      pop\n        /* \"#utility.yul\":11731:11735   */\n      0x60\n        /* \"#utility.yul\":11724:11729   */\n      dup3\n        /* \"#utility.yul\":11720:11736   */\n      add\n        /* \"#utility.yul\":11714:11737   */\n      mload\n        /* \"#utility.yul\":11750:11813   */\n      tag_639\n        /* \"#utility.yul\":11807:11811   */\n      0x60\n        /* \"#utility.yul\":11802:11805   */\n      dup6\n        /* \"#utility.yul\":11798:11812   */\n      add\n        /* \"#utility.yul\":11784:11796   */\n      dup3\n        /* \"#utility.yul\":11750:11813   */\n      tag_636\n      jump\t// in\n    tag_639:\n        /* \"#utility.yul\":11658:11823   */\n      pop\n        /* \"#utility.yul\":11906:11910   */\n      0x80\n        /* \"#utility.yul\":11899:11904   */\n      dup3\n        /* \"#utility.yul\":11895:11911   */\n      add\n        /* \"#utility.yul\":11889:11912   */\n      mload\n        /* \"#utility.yul\":11925:11988   */\n      tag_640\n        /* \"#utility.yul\":11982:11986   */\n      0x80\n        /* \"#utility.yul\":11977:11980   */\n      dup6\n        /* \"#utility.yul\":11973:11987   */\n      add\n        /* \"#utility.yul\":11959:11971   */\n      dup3\n        /* \"#utility.yul\":11925:11988   */\n      tag_636\n      jump\t// in\n    tag_640:\n        /* \"#utility.yul\":11833:11998   */\n      pop\n        /* \"#utility.yul\":11087:12005   */\n      pop\n        /* \"#utility.yul\":10963:12005   */\n      pop\n      pop\n      jump\t// out\n        /* \"#utility.yul\":12011:12119   */\n    tag_636:\n        /* \"#utility.yul\":12088:12112   */\n      tag_642\n        /* \"#utility.yul\":12106:12111   */\n      dup2\n        /* \"#utility.yul\":12088:12112   */\n      tag_643\n      jump\t// in\n    tag_642:\n        /* \"#utility.yul\":12083:12086   */\n      dup3\n        /* \"#utility.yul\":12076:12113   */\n      mstore\n        /* \"#utility.yul\":12011:12119   */\n      pop\n      pop\n      jump\t// out\n        /* \"#utility.yul\":12125:12243   */\n    tag_644:\n        /* \"#utility.yul\":12212:12236   */\n      tag_646\n        /* \"#utility.yul\":12230:12235   */\n      dup2\n        /* \"#utility.yul\":12212:12236   */\n      tag_643\n      jump\t// in\n    tag_646:\n        /* \"#utility.yul\":12207:12210   */\n      dup3\n        /* \"#utility.yul\":12200:12237   */\n      mstore\n        /* \"#utility.yul\":12125:12243   */\n      pop\n      pop\n      jump\t// out\n        /* \"#utility.yul\":12249:12406   */\n    tag_647:\n        /* \"#utility.yul\":12354:12399   */\n      tag_649\n        /* \"#utility.yul\":12374:12398   */\n      tag_650\n        /* \"#utility.yul\":12392:12397   */\n      dup3\n        /* \"#utility.yul\":12374:12398   */\n      tag_643\n      jump\t// in\n    tag_650:\n        /* \"#utility.yul\":12354:12399   */\n      tag_651\n      jump\t// in\n    tag_649:\n        /* \"#utility.yul\":12349:12352   */\n      dup3\n        /* \"#utility.yul\":12342:12400   */\n      mstore\n        /* \"#utility.yul\":12249:12406   */\n      pop\n      pop\n      jump\t// out\n        /* \"#utility.yul\":12412:12668   */\n    tag_425:\n        /* \"#utility.yul\":12524:12527   */\n      0x00\n        /* \"#utility.yul\":12539:12614   */\n      tag_653\n        /* \"#utility.yul\":12610:12613   */\n      dup3\n        /* \"#utility.yul\":12601:12607   */\n      dup5\n        /* \"#utility.yul\":12539:12614   */\n      tag_567\n      jump\t// in\n    tag_653:\n        /* \"#utility.yul\":12639:12641   */\n      0x20\n        /* \"#utility.yul\":12634:12637   */\n      dup3\n        /* \"#utility.yul\":12630:12642   */\n      add\n        /* \"#utility.yul\":12623:12642   */\n      swap2\n      pop\n        /* \"#utility.yul\":12659:12662   */\n      dup2\n        /* \"#utility.yul\":12652:12662   */\n      swap1\n      pop\n        /* \"#utility.yul\":12412:12668   */\n      swap3\n      swap2\n      pop\n      pop\n      jump\t// out\n        /* \"#utility.yul\":12674:12949   */\n    tag_152:\n        /* \"#utility.yul\":12806:12809   */\n      0x00\n        /* \"#utility.yul\":12828:12923   */\n      tag_655\n        /* \"#utility.yul\":12919:12922   */\n      dup3\n        /* \"#utility.yul\":12910:12916   */\n      dup5\n        /* \"#utility.yul\":12828:12923   */\n      tag_582\n      jump\t// in\n    tag_655:\n        /* \"#utility.yul\":12821:12923   */\n      swap2\n      pop\n        /* \"#utility.yul\":12940:12943   */\n      dup2\n        /* \"#utility.yul\":12933:12943   */\n      swap1\n      pop\n        /* \"#utility.yul\":12674:12949   */\n      swap3\n      swap2\n      pop\n      pop\n      jump\t// out\n        /* \"#utility.yul\":12955:13211   */\n    tag_420:\n        /* \"#utility.yul\":13067:13070   */\n      0x00\n        /* \"#utility.yul\":13082:13157   */\n      tag_657\n        /* \"#utility.yul\":13153:13156   */\n      dup3\n        /* \"#utility.yul\":13144:13150   */\n      dup5\n        /* \"#utility.yul\":13082:13157   */\n      tag_647\n      jump\t// in\n    tag_657:\n        /* \"#utility.yul\":13182:13184   */\n      0x20\n        /* \"#utility.yul\":13177:13180   */\n      dup3\n        /* \"#utility.yul\":13173:13185   */\n      add\n        /* \"#utility.yul\":13166:13185   */\n      swap2\n      pop\n        /* \"#utility.yul\":13202:13205   */\n      dup2\n        /* \"#utility.yul\":13195:13205   */\n      swap1\n      pop\n        /* \"#utility.yul\":12955:13211   */\n      swap3\n      swap2\n      pop\n      pop\n      jump\t// out\n        /* \"#utility.yul\":13217:13549   */\n    tag_19:\n        /* \"#utility.yul\":13338:13342   */\n      0x00\n        /* \"#utility.yul\":13376:13378   */\n      0x40\n        /* \"#utility.yul\":13365:13374   */\n      dup3\n        /* \"#utility.yul\":13361:13379   */\n      add\n        /* \"#utility.yul\":13353:13379   */\n      swap1\n      pop\n        /* \"#utility.yul\":13389:13460   */\n      tag_659\n        /* \"#utility.yul\":13457:13458   */\n      0x00\n        /* \"#utility.yul\":13446:13455   */\n      dup4\n        /* \"#utility.yul\":13442:13459   */\n      add\n        /* \"#utility.yul\":13433:13439   */\n      dup6\n        /* \"#utility.yul\":13389:13460   */\n      tag_555\n      jump\t// in\n    tag_659:\n        /* \"#utility.yul\":13470:13542   */\n      tag_660\n        /* \"#utility.yul\":13538:13540   */\n      0x20\n        /* \"#utility.yul\":13527:13536   */\n      dup4\n        /* \"#utility.yul\":13523:13541   */\n      add\n        /* \"#utility.yul\":13514:13520   */\n      dup5\n        /* \"#utility.yul\":13470:13542   */\n      tag_644\n      jump\t// in\n    tag_660:\n        /* \"#utility.yul\":13217:13549   */\n      swap4\n      swap3\n      pop\n      pop\n      pop\n      jump\t// out\n        /* \"#utility.yul\":13555:13765   */\n    tag_26:\n        /* \"#utility.yul\":13642:13646   */\n      0x00\n        /* \"#utility.yul\":13680:13682   */\n      0x20\n        /* \"#utility.yul\":13669:13678   */\n      dup3\n        /* \"#utility.yul\":13665:13683   */\n      add\n        /* \"#utility.yul\":13657:13683   */\n      swap1\n      pop\n        /* \"#utility.yul\":13693:13758   */\n      tag_662\n        /* \"#utility.yul\":13755:13756   */\n      0x00\n        /* \"#utility.yul\":13744:13753   */\n      dup4\n        /* \"#utility.yul\":13740:13757   */\n      add\n        /* \"#utility.yul\":13731:13737   */\n      dup5\n        /* \"#utility.yul\":13693:13758   */\n      tag_559\n      jump\t// in\n    tag_662:\n        /* \"#utility.yul\":13555:13765   */\n      swap3\n      swap2\n      pop\n      pop\n      jump\t// out\n        /* \"#utility.yul\":13771:13993   */\n    tag_39:\n        /* \"#utility.yul\":13864:13868   */\n      0x00\n        /* \"#utility.yul\":13902:13904   */\n      0x20\n        /* \"#utility.yul\":13891:13900   */\n      dup3\n        /* \"#utility.yul\":13887:13905   */\n      add\n        /* \"#utility.yul\":13879:13905   */\n      swap1\n      pop\n        /* \"#utility.yul\":13915:13986   */\n      tag_664\n        /* \"#utility.yul\":13983:13984   */\n      0x00\n        /* \"#utility.yul\":13972:13981   */\n      dup4\n        /* \"#utility.yul\":13968:13985   */\n      add\n        /* \"#utility.yul\":13959:13965   */\n      dup5\n        /* \"#utility.yul\":13915:13986   */\n      tag_563\n      jump\t// in\n    tag_664:\n        /* \"#utility.yul\":13771:13993   */\n      swap3\n      swap2\n      pop\n      pop\n      jump\t// out\n        /* \"#utility.yul\":13999:14740   */\n    tag_72:\n        /* \"#utility.yul\":14246:14250   */\n      0x00\n        /* \"#utility.yul\":14284:14287   */\n      0xe0\n        /* \"#utility.yul\":14273:14282   */\n      dup3\n        /* \"#utility.yul\":14269:14288   */\n      add\n        /* \"#utility.yul\":14261:14288   */\n      swap1\n      pop\n        /* \"#utility.yul\":14334:14343   */\n      dup2\n        /* \"#utility.yul\":14328:14332   */\n      dup2\n        /* \"#utility.yul\":14324:14344   */\n      sub\n        /* \"#utility.yul\":14320:14321   */\n      0x00\n        /* \"#utility.yul\":14309:14318   */\n      dup4\n        /* \"#utility.yul\":14305:14322   */\n      add\n        /* \"#utility.yul\":14298:14345   */\n      mstore\n        /* \"#utility.yul\":14362:14440   */\n      tag_666\n        /* \"#utility.yul\":14435:14439   */\n      dup2\n        /* \"#utility.yul\":14426:14432   */\n      dup7\n        /* \"#utility.yul\":14362:14440   */\n      tag_572\n      jump\t// in\n    tag_666:\n        /* \"#utility.yul\":14354:14440   */\n      swap1\n      pop\n        /* \"#utility.yul\":14487:14496   */\n      dup2\n        /* \"#utility.yul\":14481:14485   */\n      dup2\n        /* \"#utility.yul\":14477:14497   */\n      sub\n        /* \"#utility.yul\":14472:14474   */\n      0x20\n        /* \"#utility.yul\":14461:14470   */\n      dup4\n        /* \"#utility.yul\":14457:14475   */\n      add\n        /* \"#utility.yul\":14450:14498   */\n      mstore\n        /* \"#utility.yul\":14515:14593   */\n      tag_667\n        /* \"#utility.yul\":14588:14592   */\n      dup2\n        /* \"#utility.yul\":14579:14585   */\n      dup6\n        /* \"#utility.yul\":14515:14593   */\n      tag_572\n      jump\t// in\n    tag_667:\n        /* \"#utility.yul\":14507:14593   */\n      swap1\n      pop\n        /* \"#utility.yul\":14603:14733   */\n      tag_668\n        /* \"#utility.yul\":14729:14731   */\n      0x40\n        /* \"#utility.yul\":14718:14727   */\n      dup4\n        /* \"#utility.yul\":14714:14732   */\n      add\n        /* \"#utility.yul\":14705:14711   */\n      dup5\n        /* \"#utility.yul\":14603:14733   */\n      tag_633\n      jump\t// in\n    tag_668:\n        /* \"#utility.yul\":13999:14740   */\n      swap5\n      swap4\n      pop\n      pop\n      pop\n      pop\n      jump\t// out\n        /* \"#utility.yul\":14746:15165   */\n    tag_76:\n        /* \"#utility.yul\":14912:14916   */\n      0x00\n        /* \"#utility.yul\":14950:14952   */\n      0x20\n        /* \"#utility.yul\":14939:14948   */\n      dup3\n        /* \"#utility.yul\":14935:14953   */\n      add\n        /* \"#utility.yul\":14927:14953   */\n      swap1\n      pop\n        /* \"#utility.yul\":14999:15008   */\n      dup2\n        /* \"#utility.yul\":14993:14997   */\n      dup2\n        /* \"#utility.yul\":14989:15009   */\n      sub\n        /* \"#utility.yul\":14985:14986   */\n      0x00\n        /* \"#utility.yul\":14974:14983   */\n      dup4\n        /* \"#utility.yul\":14970:14987   */\n      add\n        /* \"#utility.yul\":14963:15010   */\n      mstore\n        /* \"#utility.yul\":15027:15158   */\n      tag_670\n        /* \"#utility.yul\":15153:15157   */\n      dup2\n        /* \"#utility.yul\":15027:15158   */\n      tag_588\n      jump\t// in\n    tag_670:\n        /* \"#utility.yul\":15019:15158   */\n      swap1\n      pop\n        /* \"#utility.yul\":14746:15165   */\n      swap2\n      swap1\n      pop\n      jump\t// out\n        /* \"#utility.yul\":15171:15590   */\n    tag_370:\n        /* \"#utility.yul\":15337:15341   */\n      0x00\n        /* \"#utility.yul\":15375:15377   */\n      0x20\n        /* \"#utility.yul\":15364:15373   */\n      dup3\n        /* \"#utility.yul\":15360:15378   */\n      add\n        /* \"#utility.yul\":15352:15378   */\n      swap1\n      pop\n        /* \"#utility.yul\":15424:15433   */\n      dup2\n        /* \"#utility.yul\":15418:15422   */\n      dup2\n        /* \"#utility.yul\":15414:15434   */\n      sub\n        /* \"#utility.yul\":15410:15411   */\n      0x00\n        /* \"#utility.yul\":15399:15408   */\n      dup4\n        /* \"#utility.yul\":15395:15412   */\n      add\n        /* \"#utility.yul\":15388:15435   */\n      mstore\n        /* \"#utility.yul\":15452:15583   */\n      tag_672\n        /* \"#utility.yul\":15578:15582   */\n      dup2\n        /* \"#utility.yul\":15452:15583   */\n      tag_593\n      jump\t// in\n    tag_672:\n        /* \"#utility.yul\":15444:15583   */\n      swap1\n      pop\n        /* \"#utility.yul\":15171:15590   */\n      swap2\n      swap1\n      pop\n      jump\t// out\n        /* \"#utility.yul\":15596:16015   */\n    tag_82:\n        /* \"#utility.yul\":15762:15766   */\n      0x00\n        /* \"#utility.yul\":15800:15802   */\n      0x20\n        /* \"#utility.yul\":15789:15798   */\n      dup3\n        /* \"#utility.yul\":15785:15803   */\n      add\n        /* \"#utility.yul\":15777:15803   */\n      swap1\n      pop\n        /* \"#utility.yul\":15849:15858   */\n      dup2\n        /* \"#utility.yul\":15843:15847   */\n      dup2\n        /* \"#utility.yul\":15839:15859   */\n      sub\n        /* \"#utility.yul\":15835:15836   */\n      0x00\n        /* \"#utility.yul\":15824:15833   */\n      dup4\n        /* \"#utility.yul\":15820:15837   */\n      add\n        /* \"#utility.yul\":15813:15860   */\n      mstore\n        /* \"#utility.yul\":15877:16008   */\n      tag_674\n        /* \"#utility.yul\":16003:16007   */\n      dup2\n        /* \"#utility.yul\":15877:16008   */\n      tag_598\n      jump\t// in\n    tag_674:\n        /* \"#utility.yul\":15869:16008   */\n      swap1\n      pop\n        /* \"#utility.yul\":15596:16015   */\n      swap2\n      swap1\n      pop\n      jump\t// out\n        /* \"#utility.yul\":16021:16440   */\n    tag_137:\n        /* \"#utility.yul\":16187:16191   */\n      0x00\n        /* \"#utility.yul\":16225:16227   */\n      0x20\n        /* \"#utility.yul\":16214:16223   */\n      dup3\n        /* \"#utility.yul\":16210:16228   */\n      add\n        /* \"#utility.yul\":16202:16228   */\n      swap1\n      pop\n        /* \"#utility.yul\":16274:16283   */\n      dup2\n        /* \"#utility.yul\":16268:16272   */\n      dup2\n        /* \"#utility.yul\":16264:16284   */\n      sub\n        /* \"#utility.yul\":16260:16261   */\n      0x00\n        /* \"#utility.yul\":16249:16258   */\n      dup4\n        /* \"#utility.yul\":16245:16262   */\n      add\n        /* \"#utility.yul\":16238:16285   */\n      mstore\n        /* \"#utility.yul\":16302:16433   */\n      tag_676\n        /* \"#utility.yul\":16428:16432   */\n      dup2\n        /* \"#utility.yul\":16302:16433   */\n      tag_603\n      jump\t// in\n    tag_676:\n        /* \"#utility.yul\":16294:16433   */\n      swap1\n      pop\n        /* \"#utility.yul\":16021:16440   */\n      swap2\n      swap1\n      pop\n      jump\t// out\n        /* \"#utility.yul\":16446:16865   */\n    tag_156:\n        /* \"#utility.yul\":16612:16616   */\n      0x00\n        /* \"#utility.yul\":16650:16652   */\n      0x20\n        /* \"#utility.yul\":16639:16648   */\n      dup3\n        /* \"#utility.yul\":16635:16653   */\n      add\n        /* \"#utility.yul\":16627:16653   */\n      swap1\n      pop\n        /* \"#utility.yul\":16699:16708   */\n      dup2\n        /* \"#utility.yul\":16693:16697   */\n      dup2\n        /* \"#utility.yul\":16689:16709   */\n      sub\n        /* \"#utility.yul\":16685:16686   */\n      0x00\n        /* \"#utility.yul\":16674:16683   */\n      dup4\n        /* \"#utility.yul\":16670:16687   */\n      add\n        /* \"#utility.yul\":16663:16710   */\n      mstore\n        /* \"#utility.yul\":16727:16858   */\n      tag_678\n        /* \"#utility.yul\":16853:16857   */\n      dup2\n        /* \"#utility.yul\":16727:16858   */\n      tag_608\n      jump\t// in\n    tag_678:\n        /* \"#utility.yul\":16719:16858   */\n      swap1\n      pop\n        /* \"#utility.yul\":16446:16865   */\n      swap2\n      swap1\n      pop\n      jump\t// out\n        /* \"#utility.yul\":16871:17290   */\n    tag_111:\n        /* \"#utility.yul\":17037:17041   */\n      0x00\n        /* \"#utility.yul\":17075:17077   */\n      0x20\n        /* \"#utility.yul\":17064:17073   */\n      dup3\n        /* \"#utility.yul\":17060:17078   */\n      add\n        /* \"#utility.yul\":17052:17078   */\n      swap1\n      pop\n        /* \"#utility.yul\":17124:17133   */\n      dup2\n        /* \"#utility.yul\":17118:17122   */\n      dup2\n        /* \"#utility.yul\":17114:17134   */\n      sub\n        /* \"#utility.yul\":17110:17111   */\n      0x00\n        /* \"#utility.yul\":17099:17108   */\n      dup4\n        /* \"#utility.yul\":17095:17112   */\n      add\n        /* \"#utility.yul\":17088:17135   */\n      mstore\n        /* \"#utility.yul\":17152:17283   */\n      tag_680\n        /* \"#utility.yul\":17278:17282   */\n      dup2\n        /* \"#utility.yul\":17152:17283   */\n      tag_613\n      jump\t// in\n    tag_680:\n        /* \"#utility.yul\":17144:17283   */\n      swap1\n      pop\n        /* \"#utility.yul\":16871:17290   */\n      swap2\n      swap1\n      pop\n      jump\t// out\n        /* \"#utility.yul\":17296:17715   */\n    tag_201:\n        /* \"#utility.yul\":17462:17466   */\n      0x00\n        /* \"#utility.yul\":17500:17502   */\n      0x20\n        /* \"#utility.yul\":17489:17498   */\n      dup3\n        /* \"#utility.yul\":17485:17503   */\n      add\n        /* \"#utility.yul\":17477:17503   */\n      swap1\n      pop\n        /* \"#utility.yul\":17549:17558   */\n      dup2\n        /* \"#utility.yul\":17543:17547   */\n      dup2\n        /* \"#utility.yul\":17539:17559   */\n      sub\n        /* \"#utility.yul\":17535:17536   */\n      0x00\n        /* \"#utility.yul\":17524:17533   */\n      dup4\n        /* \"#utility.yul\":17520:17537   */\n      add\n        /* \"#utility.yul\":17513:17560   */\n      mstore\n        /* \"#utility.yul\":17577:17708   */\n      tag_682\n        /* \"#utility.yul\":17703:17707   */\n      dup2\n        /* \"#utility.yul\":17577:17708   */\n      tag_618\n      jump\t// in\n    tag_682:\n        /* \"#utility.yul\":17569:17708   */\n      swap1\n      pop\n        /* \"#utility.yul\":17296:17715   */\n      swap2\n      swap1\n      pop\n      jump\t// out\n        /* \"#utility.yul\":17721:18140   */\n    tag_140:\n        /* \"#utility.yul\":17887:17891   */\n      0x00\n        /* \"#utility.yul\":17925:17927   */\n      0x20\n        /* \"#utility.yul\":17914:17923   */\n      dup3\n        /* \"#utility.yul\":17910:17928   */\n      add\n        /* \"#utility.yul\":17902:17928   */\n      swap1\n      pop\n        /* \"#utility.yul\":17974:17983   */\n      dup2\n        /* \"#utility.yul\":17968:17972   */\n      dup2\n        /* \"#utility.yul\":17964:17984   */\n      sub\n        /* \"#utility.yul\":17960:17961   */\n      0x00\n        /* \"#utility.yul\":17949:17958   */\n      dup4\n        /* \"#utility.yul\":17945:17962   */\n      add\n        /* \"#utility.yul\":17938:17985   */\n      mstore\n        /* \"#utility.yul\":18002:18133   */\n      tag_684\n        /* \"#utility.yul\":18128:18132   */\n      dup2\n        /* \"#utility.yul\":18002:18133   */\n      tag_623\n      jump\t// in\n    tag_684:\n        /* \"#utility.yul\":17994:18133   */\n      swap1\n      pop\n        /* \"#utility.yul\":17721:18140   */\n      swap2\n      swap1\n      pop\n      jump\t// out\n        /* \"#utility.yul\":18146:18565   */\n    tag_266:\n        /* \"#utility.yul\":18312:18316   */\n      0x00\n        /* \"#utility.yul\":18350:18352   */\n      0x20\n        /* \"#utility.yul\":18339:18348   */\n      dup3\n        /* \"#utility.yul\":18335:18353   */\n      add\n        /* \"#utility.yul\":18327:18353   */\n      swap1\n      pop\n        /* \"#utility.yul\":18399:18408   */\n      dup2\n        /* \"#utility.yul\":18393:18397   */\n      dup2\n        /* \"#utility.yul\":18389:18409   */\n      sub\n        /* \"#utility.yul\":18385:18386   */\n      0x00\n        /* \"#utility.yul\":18374:18383   */\n      dup4\n        /* \"#utility.yul\":18370:18387   */\n      add\n        /* \"#utility.yul\":18363:18410   */\n      mstore\n        /* \"#utility.yul\":18427:18558   */\n      tag_686\n        /* \"#utility.yul\":18553:18557   */\n      dup2\n        /* \"#utility.yul\":18427:18558   */\n      tag_628\n      jump\t// in\n    tag_686:\n        /* \"#utility.yul\":18419:18558   */\n      swap1\n      pop\n        /* \"#utility.yul\":18146:18565   */\n      swap2\n      swap1\n      pop\n      jump\t// out\n        /* \"#utility.yul\":18571:18793   */\n    tag_44:\n        /* \"#utility.yul\":18664:18668   */\n      0x00\n        /* \"#utility.yul\":18702:18704   */\n      0x20\n        /* \"#utility.yul\":18691:18700   */\n      dup3\n        /* \"#utility.yul\":18687:18705   */\n      add\n        /* \"#utility.yul\":18679:18705   */\n      swap1\n      pop\n        /* \"#utility.yul\":18715:18786   */\n      tag_688\n        /* \"#utility.yul\":18783:18784   */\n      0x00\n        /* \"#utility.yul\":18772:18781   */\n      dup4\n        /* \"#utility.yul\":18768:18785   */\n      add\n        /* \"#utility.yul\":18759:18765   */\n      dup5\n        /* \"#utility.yul\":18715:18786   */\n      tag_644\n      jump\t// in\n    tag_688:\n        /* \"#utility.yul\":18571:18793   */\n      swap3\n      swap2\n      pop\n      pop\n      jump\t// out\n        /* \"#utility.yul\":18799:18928   */\n    tag_477:\n        /* \"#utility.yul\":18833:18839   */\n      0x00\n        /* \"#utility.yul\":18860:18880   */\n      tag_690\n      tag_691\n      jump\t// in\n    tag_690:\n        /* \"#utility.yul\":18850:18880   */\n      swap1\n      pop\n        /* \"#utility.yul\":18889:18922   */\n      tag_692\n        /* \"#utility.yul\":18917:18921   */\n      dup3\n        /* \"#utility.yul\":18909:18915   */\n      dup3\n        /* \"#utility.yul\":18889:18922   */\n      tag_693\n      jump\t// in\n    tag_692:\n        /* \"#utility.yul\":18799:18928   */\n      swap2\n      swap1\n      pop\n      jump\t// out\n        /* \"#utility.yul\":18934:19009   */\n    tag_691:\n        /* \"#utility.yul\":18967:18973   */\n      0x00\n        /* \"#utility.yul\":19000:19002   */\n      0x40\n        /* \"#utility.yul\":18994:19003   */\n      mload\n        /* \"#utility.yul\":18984:19003   */\n      swap1\n      pop\n        /* \"#utility.yul\":18934:19009   */\n      swap1\n      jump\t// out\n        /* \"#utility.yul\":19015:19323   */\n    tag_476:\n        /* \"#utility.yul\":19077:19081   */\n      0x00\n        /* \"#utility.yul\":19167:19185   */\n      0xffffffffffffffff\n        /* \"#utility.yul\":19159:19165   */\n      dup3\n        /* \"#utility.yul\":19156:19186   */\n      gt\n        /* \"#utility.yul\":19153:19209   */\n      iszero\n      tag_696\n      jumpi\n        /* \"#utility.yul\":19189:19207   */\n      tag_697\n      tag_397\n      jump\t// in\n    tag_697:\n        /* \"#utility.yul\":19153:19209   */\n    tag_696:\n        /* \"#utility.yul\":19227:19256   */\n      tag_698\n        /* \"#utility.yul\":19249:19255   */\n      dup3\n        /* \"#utility.yul\":19227:19256   */\n      tag_581\n      jump\t// in\n    tag_698:\n        /* \"#utility.yul\":19219:19256   */\n      swap1\n      pop\n        /* \"#utility.yul\":19311:19315   */\n      0x20\n        /* \"#utility.yul\":19305:19309   */\n      dup2\n        /* \"#utility.yul\":19301:19316   */\n      add\n        /* \"#utility.yul\":19293:19316   */\n      swap1\n      pop\n        /* \"#utility.yul\":19015:19323   */\n      swap2\n      swap1\n      pop\n      jump\t// out\n        /* \"#utility.yul\":19329:19428   */\n    tag_575:\n        /* \"#utility.yul\":19381:19387   */\n      0x00\n        /* \"#utility.yul\":19415:19420   */\n      dup2\n        /* \"#utility.yul\":19409:19421   */\n      mload\n        /* \"#utility.yul\":19399:19421   */\n      swap1\n      pop\n        /* \"#utility.yul\":19329:19428   */\n      swap2\n      swap1\n      pop\n      jump\t// out\n        /* \"#utility.yul\":19434:19603   */\n    tag_577:\n        /* \"#utility.yul\":19518:19529   */\n      0x00\n        /* \"#utility.yul\":19552:19558   */\n      dup3\n        /* \"#utility.yul\":19547:19550   */\n      dup3\n        /* \"#utility.yul\":19540:19559   */\n      mstore\n        /* \"#utility.yul\":19592:19596   */\n      0x20\n        /* \"#utility.yul\":19587:19590   */\n      dup3\n        /* \"#utility.yul\":19583:19597   */\n      add\n        /* \"#utility.yul\":19568:19597   */\n      swap1\n      pop\n        /* \"#utility.yul\":19434:19603   */\n      swap3\n      swap2\n      pop\n      pop\n      jump\t// out\n        /* \"#utility.yul\":19609:19757   */\n    tag_586:\n        /* \"#utility.yul\":19711:19722   */\n      0x00\n        /* \"#utility.yul\":19748:19751   */\n      dup2\n        /* \"#utility.yul\":19733:19751   */\n      swap1\n      pop\n        /* \"#utility.yul\":19609:19757   */\n      swap3\n      swap2\n      pop\n      pop\n      jump\t// out\n        /* \"#utility.yul\":19763:20068   */\n    tag_17:\n        /* \"#utility.yul\":19803:19806   */\n      0x00\n        /* \"#utility.yul\":19822:19842   */\n      tag_703\n        /* \"#utility.yul\":19840:19841   */\n      dup3\n        /* \"#utility.yul\":19822:19842   */\n      tag_643\n      jump\t// in\n    tag_703:\n        /* \"#utility.yul\":19817:19842   */\n      swap2\n      pop\n        /* \"#utility.yul\":19856:19876   */\n      tag_704\n        /* \"#utility.yul\":19874:19875   */\n      dup4\n        /* \"#utility.yul\":19856:19876   */\n      tag_643\n      jump\t// in\n    tag_704:\n        /* \"#utility.yul\":19851:19876   */\n      swap3\n      pop\n        /* \"#utility.yul\":20010:20011   */\n      dup3\n        /* \"#utility.yul\":19942:20008   */\n      0xffffffffffffffffffffffffffffffffffffffffffffffffffffffffffffffff\n        /* \"#utility.yul\":19938:20012   */\n      sub\n        /* \"#utility.yul\":19935:19936   */\n      dup3\n        /* \"#utility.yul\":19932:20013   */\n      gt\n        /* \"#utility.yul\":19929:20036   */\n      iszero\n      tag_705\n      jumpi\n        /* \"#utility.yul\":20016:20034   */\n      tag_706\n      tag_707\n      jump\t// in\n    tag_706:\n        /* \"#utility.yul\":19929:20036   */\n    tag_705:\n        /* \"#utility.yul\":20060:20061   */\n      dup3\n        /* \"#utility.yul\":20057:20058   */\n      dup3\n        /* \"#utility.yul\":20053:20062   */\n      add\n        /* \"#utility.yul\":20046:20062   */\n      swap1\n      pop\n        /* \"#utility.yul\":19763:20068   */\n      swap3\n      swap2\n      pop\n      pop\n      jump\t// out\n        /* \"#utility.yul\":20074:20259   */\n    tag_312:\n        /* \"#utility.yul\":20114:20115   */\n      0x00\n        /* \"#utility.yul\":20131:20151   */\n      tag_709\n        /* \"#utility.yul\":20149:20150   */\n      dup3\n        /* \"#utility.yul\":20131:20151   */\n      tag_643\n      jump\t// in\n    tag_709:\n        /* \"#utility.yul\":20126:20151   */\n      swap2\n      pop\n        /* \"#utility.yul\":20165:20185   */\n      tag_710\n        /* \"#utility.yul\":20183:20184   */\n      dup4\n        /* \"#utility.yul\":20165:20185   */\n      tag_643\n      jump\t// in\n    tag_710:\n        /* \"#utility.yul\":20160:20185   */\n      swap3\n      pop\n        /* \"#utility.yul\":20204:20205   */\n      dup3\n        /* \"#utility.yul\":20194:20229   */\n      tag_711\n      jumpi\n        /* \"#utility.yul\":20209:20227   */\n      tag_712\n      tag_713\n      jump\t// in\n    tag_712:\n        /* \"#utility.yul\":20194:20229   */\n    tag_711:\n        /* \"#utility.yul\":20251:20252   */\n      dup3\n        /* \"#utility.yul\":20248:20249   */\n      dup3\n        /* \"#utility.yul\":20244:20253   */\n      div\n        /* \"#utility.yul\":20239:20253   */\n      swap1\n      pop\n        /* \"#utility.yul\":20074:20259   */\n      swap3\n      swap2\n      pop\n      pop\n      jump\t// out\n        /* \"#utility.yul\":20265:20613   */\n    tag_310:\n        /* \"#utility.yul\":20305:20312   */\n      0x00\n        /* \"#utility.yul\":20328:20348   */\n      tag_715\n        /* \"#utility.yul\":20346:20347   */\n      dup3\n        /* \"#utility.yul\":20328:20348   */\n      tag_643\n      jump\t// in\n    tag_715:\n        /* \"#utility.yul\":20323:20348   */\n      swap2\n      pop\n        /* \"#utility.yul\":20362:20382   */\n      tag_716\n        /* \"#utility.yul\":20380:20381   */\n      dup4\n        /* \"#utility.yul\":20362:20382   */\n      tag_643\n      jump\t// in\n    tag_716:\n        /* \"#utility.yul\":20357:20382   */\n      swap3\n      pop\n        /* \"#utility.yul\":20550:20551   */\n      dup2\n        /* \"#utility.yul\":20482:20548   */\n      0xffffffffffffffffffffffffffffffffffffffffffffffffffffffffffffffff\n        /* \"#utility.yul\":20478:20552   */\n      div\n        /* \"#utility.yul\":20475:20476   */\n      dup4\n        /* \"#utility.yul\":20472:20553   */\n      gt\n        /* \"#utility.yul\":20467:20468   */\n      dup3\n        /* \"#utility.yul\":20460:20469   */\n      iszero\n        /* \"#utility.yul\":20453:20470   */\n      iszero\n        /* \"#utility.yul\":20449:20554   */\n      and\n        /* \"#utility.yul\":20446:20577   */\n      iszero\n      tag_717\n      jumpi\n        /* \"#utility.yul\":20557:20575   */\n      tag_718\n      tag_707\n      jump\t// in\n    tag_718:\n        /* \"#utility.yul\":20446:20577   */\n    tag_717:\n        /* \"#utility.yul\":20605:20606   */\n      dup3\n        /* \"#utility.yul\":20602:20603   */\n      dup3\n        /* \"#utility.yul\":20598:20607   */\n      mul\n        /* \"#utility.yul\":20587:20607   */\n      swap1\n      pop\n        /* \"#utility.yul\":20265:20613   */\n      swap3\n      swap2\n      pop\n      pop\n      jump\t// out\n        /* \"#utility.yul\":20619:20810   */\n    tag_143:\n        /* \"#utility.yul\":20659:20663   */\n      0x00\n        /* \"#utility.yul\":20679:20699   */\n      tag_720\n        /* \"#utility.yul\":20697:20698   */\n      dup3\n        /* \"#utility.yul\":20679:20699   */\n      tag_643\n      jump\t// in\n    tag_720:\n        /* \"#utility.yul\":20674:20699   */\n      swap2\n      pop\n        /* \"#utility.yul\":20713:20733   */\n      tag_721\n        /* \"#utility.yul\":20731:20732   */\n      dup4\n        /* \"#utility.yul\":20713:20733   */\n      tag_643\n      jump\t// in\n    tag_721:\n        /* \"#utility.yul\":20708:20733   */\n      swap3\n      pop\n        /* \"#utility.yul\":20752:20753   */\n      dup3\n        /* \"#utility.yul\":20749:20750   */\n      dup3\n        /* \"#utility.yul\":20746:20754   */\n      lt\n        /* \"#utility.yul\":20743:20777   */\n      iszero\n      tag_722\n      jumpi\n        /* \"#utility.yul\":20757:20775   */\n      tag_723\n      tag_707\n      jump\t// in\n    tag_723:\n        /* \"#utility.yul\":20743:20777   */\n    tag_722:\n        /* \"#utility.yul\":20802:20803   */\n      dup3\n        /* \"#utility.yul\":20799:20800   */\n      dup3\n        /* \"#utility.yul\":20795:20804   */\n      sub\n        /* \"#utility.yul\":20787:20804   */\n      swap1\n      pop\n        /* \"#utility.yul\":20619:20810   */\n      swap3\n      swap2\n      pop\n      pop\n      jump\t// out\n        /* \"#utility.yul\":20816:20912   */\n    tag_558:\n        /* \"#utility.yul\":20853:20860   */\n      0x00\n        /* \"#utility.yul\":20882:20906   */\n      tag_725\n        /* \"#utility.yul\":20900:20905   */\n      dup3\n        /* \"#utility.yul\":20882:20906   */\n      tag_726\n      jump\t// in\n    tag_725:\n        /* \"#utility.yul\":20871:20906   */\n      swap1\n      pop\n        /* \"#utility.yul\":20816:20912   */\n      swap2\n      swap1\n      pop\n      jump\t// out\n        /* \"#utility.yul\":20918:21008   */\n    tag_562:\n        /* \"#utility.yul\":20952:20959   */\n      0x00\n        /* \"#utility.yul\":20995:21000   */\n      dup2\n        /* \"#utility.yul\":20988:21001   */\n      iszero\n        /* \"#utility.yul\":20981:21002   */\n      iszero\n        /* \"#utility.yul\":20970:21002   */\n      swap1\n      pop\n        /* \"#utility.yul\":20918:21008   */\n      swap2\n      swap1\n      pop\n      jump\t// out\n        /* \"#utility.yul\":21014:21091   */\n    tag_566:\n        /* \"#utility.yul\":21051:21058   */\n      0x00\n        /* \"#utility.yul\":21080:21085   */\n      dup2\n        /* \"#utility.yul\":21069:21085   */\n      swap1\n      pop\n        /* \"#utility.yul\":21014:21091   */\n      swap2\n      swap1\n      pop\n      jump\t// out\n        /* \"#utility.yul\":21097:21223   */\n    tag_726:\n        /* \"#utility.yul\":21134:21141   */\n      0x00\n        /* \"#utility.yul\":21174:21216   */\n      0xffffffffffffffffffffffffffffffffffffffff\n        /* \"#utility.yul\":21167:21172   */\n      dup3\n        /* \"#utility.yul\":21163:21217   */\n      and\n        /* \"#utility.yul\":21152:21217   */\n      swap1\n      pop\n        /* \"#utility.yul\":21097:21223   */\n      swap2\n      swap1\n      pop\n      jump\t// out\n        /* \"#utility.yul\":21229:21306   */\n    tag_643:\n        /* \"#utility.yul\":21266:21273   */\n      0x00\n        /* \"#utility.yul\":21295:21300   */\n      dup2\n        /* \"#utility.yul\":21284:21300   */\n      swap1\n      pop\n        /* \"#utility.yul\":21229:21306   */\n      swap2\n      swap1\n      pop\n      jump\t// out\n        /* \"#utility.yul\":21312:21466   */\n    tag_482:\n        /* \"#utility.yul\":21396:21402   */\n      dup3\n        /* \"#utility.yul\":21391:21394   */\n      dup2\n        /* \"#utility.yul\":21386:21389   */\n      dup4\n        /* \"#utility.yul\":21373:21403   */\n      calldatacopy\n        /* \"#utility.yul\":21458:21459   */\n      0x00\n        /* \"#utility.yul\":21449:21455   */\n      dup4\n        /* \"#utility.yul\":21444:21447   */\n      dup4\n        /* \"#utility.yul\":21440:21456   */\n      add\n        /* \"#utility.yul\":21433:21460   */\n      mstore\n        /* \"#utility.yul\":21312:21466   */\n      pop\n      pop\n      pop\n      jump\t// out\n        /* \"#utility.yul\":21472:21779   */\n    tag_579:\n        /* \"#utility.yul\":21540:21541   */\n      0x00\n        /* \"#utility.yul\":21550:21663   */\n    tag_733:\n        /* \"#utility.yul\":21564:21570   */\n      dup4\n        /* \"#utility.yul\":21561:21562   */\n      dup2\n        /* \"#utility.yul\":21558:21571   */\n      lt\n        /* \"#utility.yul\":21550:21663   */\n      iszero\n      tag_735\n      jumpi\n        /* \"#utility.yul\":21649:21650   */\n      dup1\n        /* \"#utility.yul\":21644:21647   */\n      dup3\n        /* \"#utility.yul\":21640:21651   */\n      add\n        /* \"#utility.yul\":21634:21652   */\n      mload\n        /* \"#utility.yul\":21630:21631   */\n      dup2\n        /* \"#utility.yul\":21625:21628   */\n      dup5\n        /* \"#utility.yul\":21621:21632   */\n      add\n        /* \"#utility.yul\":21614:21653   */\n      mstore\n        /* \"#utility.yul\":21586:21588   */\n      0x20\n        /* \"#utility.yul\":21583:21584   */\n      dup2\n        /* \"#utility.yul\":21579:21589   */\n      add\n        /* \"#utility.yul\":21574:21589   */\n      swap1\n      pop\n        /* \"#utility.yul\":21550:21663   */\n      jump(tag_733)\n    tag_735:\n        /* \"#utility.yul\":21681:21687   */\n      dup4\n        /* \"#utility.yul\":21678:21679   */\n      dup2\n        /* \"#utility.yul\":21675:21688   */\n      gt\n        /* \"#utility.yul\":21672:21773   */\n      iszero\n      tag_736\n      jumpi\n        /* \"#utility.yul\":21761:21762   */\n      0x00\n        /* \"#utility.yul\":21752:21758   */\n      dup5\n        /* \"#utility.yul\":21747:21750   */\n      dup5\n        /* \"#utility.yul\":21743:21759   */\n      add\n        /* \"#utility.yul\":21736:21763   */\n      mstore\n        /* \"#utility.yul\":21672:21773   */\n    tag_736:\n        /* \"#utility.yul\":21521:21779   */\n      pop\n        /* \"#utility.yul\":21472:21779   */\n      pop\n      pop\n      pop\n      jump\t// out\n        /* \"#utility.yul\":21785:22105   */\n    tag_85:\n        /* \"#utility.yul\":21829:21835   */\n      0x00\n        /* \"#utility.yul\":21866:21867   */\n      0x02\n        /* \"#utility.yul\":21860:21864   */\n      dup3\n        /* \"#utility.yul\":21856:21868   */\n      div\n        /* \"#utility.yul\":21846:21868   */\n      swap1\n      pop\n        /* \"#utility.yul\":21913:21914   */\n      0x01\n        /* \"#utility.yul\":21907:21911   */\n      dup3\n        /* \"#utility.yul\":21903:21915   */\n      and\n        /* \"#utility.yul\":21934:21952   */\n      dup1\n        /* \"#utility.yul\":21924:22005   */\n      tag_738\n      jumpi\n        /* \"#utility.yul\":21990:21994   */\n      0x7f\n        /* \"#utility.yul\":21982:21988   */\n      dup3\n        /* \"#utility.yul\":21978:21995   */\n      and\n        /* \"#utility.yul\":21968:21995   */\n      swap2\n      pop\n        /* \"#utility.yul\":21924:22005   */\n    tag_738:\n        /* \"#utility.yul\":22052:22054   */\n      0x20\n        /* \"#utility.yul\":22044:22050   */\n      dup3\n        /* \"#utility.yul\":22041:22055   */\n      lt\n        /* \"#utility.yul\":22021:22039   */\n      dup2\n        /* \"#utility.yul\":22018:22056   */\n      eq\n        /* \"#utility.yul\":22015:22099   */\n      iszero\n      tag_739\n      jumpi\n        /* \"#utility.yul\":22071:22089   */\n      tag_740\n      tag_741\n      jump\t// in\n    tag_740:\n        /* \"#utility.yul\":22015:22099   */\n    tag_739:\n        /* \"#utility.yul\":21836:22105   */\n      pop\n        /* \"#utility.yul\":21785:22105   */\n      swap2\n      swap1\n      pop\n      jump\t// out\n        /* \"#utility.yul\":22111:22392   */\n    tag_693:\n        /* \"#utility.yul\":22194:22221   */\n      tag_743\n        /* \"#utility.yul\":22216:22220   */\n      dup3\n        /* \"#utility.yul\":22194:22221   */\n      tag_581\n      jump\t// in\n    tag_743:\n        /* \"#utility.yul\":22186:22192   */\n      dup2\n        /* \"#utility.yul\":22182:22222   */\n      add\n        /* \"#utility.yul\":22324:22330   */\n      dup2\n        /* \"#utility.yul\":22312:22322   */\n      dup2\n        /* \"#utility.yul\":22309:22331   */\n      lt\n        /* \"#utility.yul\":22288:22306   */\n      0xffffffffffffffff\n        /* \"#utility.yul\":22276:22286   */\n      dup3\n        /* \"#utility.yul\":22273:22307   */\n      gt\n        /* \"#utility.yul\":22270:22332   */\n      or\n        /* \"#utility.yul\":22267:22355   */\n      iszero\n      tag_744\n      jumpi\n        /* \"#utility.yul\":22335:22353   */\n      tag_745\n      tag_397\n      jump\t// in\n    tag_745:\n        /* \"#utility.yul\":22267:22355   */\n    tag_744:\n        /* \"#utility.yul\":22375:22385   */\n      dup1\n        /* \"#utility.yul\":22371:22373   */\n      0x40\n        /* \"#utility.yul\":22364:22386   */\n      mstore\n        /* \"#utility.yul\":22154:22392   */\n      pop\n        /* \"#utility.yul\":22111:22392   */\n      pop\n      pop\n      jump\t// out\n        /* \"#utility.yul\":22398:22631   */\n    tag_353:\n        /* \"#utility.yul\":22437:22440   */\n      0x00\n        /* \"#utility.yul\":22460:22484   */\n      tag_747\n        /* \"#utility.yul\":22478:22483   */\n      dup3\n        /* \"#utility.yul\":22460:22484   */\n      tag_643\n      jump\t// in\n    tag_747:\n        /* \"#utility.yul\":22451:22484   */\n      swap2\n      pop\n        /* \"#utility.yul\":22506:22572   */\n      0xffffffffffffffffffffffffffffffffffffffffffffffffffffffffffffffff\n        /* \"#utility.yul\":22499:22504   */\n      dup3\n        /* \"#utility.yul\":22496:22573   */\n      eq\n        /* \"#utility.yul\":22493:22596   */\n      iszero\n      tag_748\n      jumpi\n        /* \"#utility.yul\":22576:22594   */\n      tag_749\n      tag_707\n      jump\t// in\n    tag_749:\n        /* \"#utility.yul\":22493:22596   */\n    tag_748:\n        /* \"#utility.yul\":22623:22624   */\n      0x01\n        /* \"#utility.yul\":22616:22621   */\n      dup3\n        /* \"#utility.yul\":22612:22625   */\n      add\n        /* \"#utility.yul\":22605:22625   */\n      swap1\n      pop\n        /* \"#utility.yul\":22398:22631   */\n      swap2\n      swap1\n      pop\n      jump\t// out\n        /* \"#utility.yul\":22637:22716   */\n    tag_571:\n        /* \"#utility.yul\":22676:22683   */\n      0x00\n        /* \"#utility.yul\":22705:22710   */\n      dup2\n        /* \"#utility.yul\":22694:22710   */\n      swap1\n      pop\n        /* \"#utility.yul\":22637:22716   */\n      swap2\n      swap1\n      pop\n      jump\t// out\n        /* \"#utility.yul\":22722:22801   */\n    tag_651:\n        /* \"#utility.yul\":22761:22768   */\n      0x00\n        /* \"#utility.yul\":22790:22795   */\n      dup2\n        /* \"#utility.yul\":22779:22795   */\n      swap1\n      pop\n        /* \"#utility.yul\":22722:22801   */\n      swap2\n      swap1\n      pop\n      jump\t// out\n        /* \"#utility.yul\":22807:22987   */\n    tag_707:\n        /* \"#utility.yul\":22855:22932   */\n      0x4e487b7100000000000000000000000000000000000000000000000000000000\n        /* \"#utility.yul\":22852:22853   */\n      0x00\n        /* \"#utility.yul\":22845:22933   */\n      mstore\n        /* \"#utility.yul\":22952:22956   */\n      0x11\n        /* \"#utility.yul\":22949:22950   */\n      0x04\n        /* \"#utility.yul\":22942:22957   */\n      mstore\n        /* \"#utility.yul\":22976:22980   */\n      0x24\n        /* \"#utility.yul\":22973:22974   */\n      0x00\n        /* \"#utility.yul\":22966:22981   */\n      revert\n        /* \"#utility.yul\":22993:23173   */\n    tag_713:\n        /* \"#utility.yul\":23041:23118   */\n      0x4e487b7100000000000000000000000000000000000000000000000000000000\n        /* \"#utility.yul\":23038:23039   */\n      0x00\n        /* \"#utility.yul\":23031:23119   */\n      mstore\n        /* \"#utility.yul\":23138:23142   */\n      0x12\n        /* \"#utility.yul\":23135:23136   */\n      0x04\n        /* \"#utility.yul\":23128:23143   */\n      mstore\n        /* \"#utility.yul\":23162:23166   */\n      0x24\n        /* \"#utility.yul\":23159:23160   */\n      0x00\n        /* \"#utility.yul\":23152:23167   */\n      revert\n        /* \"#utility.yul\":23179:23359   */\n    tag_741:\n        /* \"#utility.yul\":23227:23304   */\n      0x4e487b7100000000000000000000000000000000000000000000000000000000\n        /* \"#utility.yul\":23224:23225   */\n      0x00\n        /* \"#utility.yul\":23217:23305   */\n      mstore\n        /* \"#utility.yul\":23324:23328   */\n      0x22\n        /* \"#utility.yul\":23321:23322   */\n      0x04\n        /* \"#utility.yul\":23314:23329   */\n      mstore\n        /* \"#utility.yul\":23348:23352   */\n      0x24\n        /* \"#utility.yul\":23345:23346   */\n      0x00\n        /* \"#utility.yul\":23338:23353   */\n      revert\n        /* \"#utility.yul\":23365:23545   */\n    tag_288:\n        /* \"#utility.yul\":23413:23490   */\n      0x4e487b7100000000000000000000000000000000000000000000000000000000\n        /* \"#utility.yul\":23410:23411   */\n      0x00\n        /* \"#utility.yul\":23403:23491   */\n      mstore\n        /* \"#utility.yul\":23510:23514   */\n      0x32\n        /* \"#utility.yul\":23507:23508   */\n      0x04\n        /* \"#utility.yul\":23500:23515   */\n      mstore\n        /* \"#utility.yul\":23534:23538   */\n      0x24\n        /* \"#utility.yul\":23531:23532   */\n      0x00\n        /* \"#utility.yul\":23524:23539   */\n      revert\n        /* \"#utility.yul\":23551:23731   */\n    tag_397:\n        /* \"#utility.yul\":23599:23676   */\n      0x4e487b7100000000000000000000000000000000000000000000000000000000\n        /* \"#utility.yul\":23596:23597   */\n      0x00\n        /* \"#utility.yul\":23589:23677   */\n      mstore\n        /* \"#utility.yul\":23696:23700   */\n      0x41\n        /* \"#utility.yul\":23693:23694   */\n      0x04\n        /* \"#utility.yul\":23686:23701   */\n      mstore\n        /* \"#utility.yul\":23720:23724   */\n      0x24\n        /* \"#utility.yul\":23717:23718   */\n      0x00\n        /* \"#utility.yul\":23710:23725   */\n      revert\n        /* \"#utility.yul\":23737:23854   */\n    tag_499:\n        /* \"#utility.yul\":23846:23847   */\n      0x00\n        /* \"#utility.yul\":23843:23844   */\n      dup1\n        /* \"#utility.yul\":23836:23848   */\n      revert\n        /* \"#utility.yul\":23860:23977   */\n    tag_480:\n        /* \"#utility.yul\":23969:23970   */\n      0x00\n        /* \"#utility.yul\":23966:23967   */\n      dup1\n        /* \"#utility.yul\":23959:23971   */\n      revert\n        /* \"#utility.yul\":23983:24100   */\n    tag_546:\n        /* \"#utility.yul\":24092:24093   */\n      0x00\n        /* \"#utility.yul\":24089:24090   */\n      dup1\n        /* \"#utility.yul\":24082:24094   */\n      revert\n        /* \"#utility.yul\":24106:24223   */\n    tag_508:\n        /* \"#utility.yul\":24215:24216   */\n      0x00\n        /* \"#utility.yul\":24212:24213   */\n      dup1\n        /* \"#utility.yul\":24205:24217   */\n      revert\n        /* \"#utility.yul\":24229:24331   */\n    tag_581:\n        /* \"#utility.yul\":24270:24276   */\n      0x00\n        /* \"#utility.yul\":24321:24323   */\n      0x1f\n        /* \"#utility.yul\":24317:24324   */\n      not\n        /* \"#utility.yul\":24312:24314   */\n      0x1f\n        /* \"#utility.yul\":24305:24310   */\n      dup4\n        /* \"#utility.yul\":24301:24315   */\n      add\n        /* \"#utility.yul\":24297:24325   */\n      and\n        /* \"#utility.yul\":24287:24325   */\n      swap1\n      pop\n        /* \"#utility.yul\":24229:24331   */\n      swap2\n      swap1\n      pop\n      jump\t// out\n        /* \"#utility.yul\":24337:24512   */\n    tag_592:\n        /* \"#utility.yul\":24477:24504   */\n      0x4f6e6c79206f776e65722063616e2063616c6c20746869732e00000000000000\n        /* \"#utility.yul\":24473:24474   */\n      0x00\n        /* \"#utility.yul\":24465:24471   */\n      dup3\n        /* \"#utility.yul\":24461:24475   */\n      add\n        /* \"#utility.yul\":24454:24505   */\n      mstore\n        /* \"#utility.yul\":24337:24512   */\n      pop\n      jump\t// out\n        /* \"#utility.yul\":24518:24677   */\n    tag_597:\n        /* \"#utility.yul\":24658:24669   */\n      0x6e6f742065786973740000000000000000000000000000000000000000000000\n        /* \"#utility.yul\":24654:24655   */\n      0x00\n        /* \"#utility.yul\":24646:24652   */\n      dup3\n        /* \"#utility.yul\":24642:24656   */\n      add\n        /* \"#utility.yul\":24635:24670   */\n      mstore\n        /* \"#utility.yul\":24518:24677   */\n      pop\n      jump\t// out\n        /* \"#utility.yul\":24683:24847   */\n    tag_602:\n        /* \"#utility.yul\":24823:24839   */\n      0x706f6f6c206e6f74206578697374000000000000000000000000000000000000\n        /* \"#utility.yul\":24819:24820   */\n      0x00\n        /* \"#utility.yul\":24811:24817   */\n      dup3\n        /* \"#utility.yul\":24807:24821   */\n      add\n        /* \"#utility.yul\":24800:24840   */\n      mstore\n        /* \"#utility.yul\":24683:24847   */\n      pop\n      jump\t// out\n        /* \"#utility.yul\":24853:25026   */\n    tag_607:\n        /* \"#utility.yul\":24993:25018   */\n      0x706f6f6c20626173616c20686173206265656e20736574000000000000000000\n        /* \"#utility.yul\":24989:24990   */\n      0x00\n        /* \"#utility.yul\":24981:24987   */\n      dup3\n        /* \"#utility.yul\":24977:24991   */\n      add\n        /* \"#utility.yul\":24970:25019   */\n      mstore\n        /* \"#utility.yul\":24853:25026   */\n      pop\n      jump\t// out\n        /* \"#utility.yul\":25032:25192   */\n    tag_612:\n        /* \"#utility.yul\":25172:25184   */\n      0x7061697220657869737400000000000000000000000000000000000000000000\n        /* \"#utility.yul\":25168:25169   */\n      0x00\n        /* \"#utility.yul\":25160:25166   */\n      dup3\n        /* \"#utility.yul\":25156:25170   */\n      add\n        /* \"#utility.yul\":25149:25185   */\n      mstore\n        /* \"#utility.yul\":25032:25192   */\n      pop\n      jump\t// out\n        /* \"#utility.yul\":25198:25369   */\n    tag_617:\n        /* \"#utility.yul\":25338:25361   */\n      0x706f6f6c20686173206e6f742066696e69736865640000000000000000000000\n        /* \"#utility.yul\":25334:25335   */\n      0x00\n        /* \"#utility.yul\":25326:25332   */\n      dup3\n        /* \"#utility.yul\":25322:25336   */\n      add\n        /* \"#utility.yul\":25315:25362   */\n      mstore\n        /* \"#utility.yul\":25198:25369   */\n      pop\n      jump\t// out\n        /* \"#utility.yul\":25375:25546   */\n    tag_622:\n        /* \"#utility.yul\":25515:25538   */\n      0x6e6f7420656e6f75676820766f7465416d6f756e740000000000000000000000\n        /* \"#utility.yul\":25511:25512   */\n      0x00\n        /* \"#utility.yul\":25503:25509   */\n      dup3\n        /* \"#utility.yul\":25499:25513   */\n      add\n        /* \"#utility.yul\":25492:25539   */\n      mstore\n        /* \"#utility.yul\":25375:25546   */\n      pop\n      jump\t// out\n        /* \"#utility.yul\":25552:25718   */\n    tag_627:\n        /* \"#utility.yul\":25692:25710   */\n      0x6e6f7420656e6f75676820626173616c00000000000000000000000000000000\n        /* \"#utility.yul\":25688:25689   */\n      0x00\n        /* \"#utility.yul\":25680:25686   */\n      dup3\n        /* \"#utility.yul\":25676:25690   */\n      add\n        /* \"#utility.yul\":25669:25711   */\n      mstore\n        /* \"#utility.yul\":25552:25718   */\n      pop\n      jump\t// out\n        /* \"#utility.yul\":25724:25891   */\n    tag_632:\n        /* \"#utility.yul\":25864:25883   */\n      0x706f6f6c206861732066696e6973686564000000000000000000000000000000\n        /* \"#utility.yul\":25860:25861   */\n      0x00\n        /* \"#utility.yul\":25852:25858   */\n      dup3\n        /* \"#utility.yul\":25848:25862   */\n      add\n        /* \"#utility.yul\":25841:25884   */\n      mstore\n        /* \"#utility.yul\":25724:25891   */\n      pop\n      jump\t// out\n        /* \"#utility.yul\":25897:26019   */\n    tag_486:\n        /* \"#utility.yul\":25970:25994   */\n      tag_772\n        /* \"#utility.yul\":25988:25993   */\n      dup2\n        /* \"#utility.yul\":25970:25994   */\n      tag_558\n      jump\t// in\n    tag_772:\n        /* \"#utility.yul\":25963:25968   */\n      dup2\n        /* \"#utility.yul\":25960:25995   */\n      eq\n        /* \"#utility.yul\":25950:26013   */\n      tag_773\n      jumpi\n        /* \"#utility.yul\":26009:26010   */\n      0x00\n        /* \"#utility.yul\":26006:26007   */\n      dup1\n        /* \"#utility.yul\":25999:26011   */\n      revert\n        /* \"#utility.yul\":25950:26013   */\n    tag_773:\n        /* \"#utility.yul\":25897:26019   */\n      pop\n      jump\t// out\n        /* \"#utility.yul\":26025:26141   */\n    tag_490:\n        /* \"#utility.yul\":26095:26116   */\n      tag_775\n        /* \"#utility.yul\":26110:26115   */\n      dup2\n        /* \"#utility.yul\":26095:26116   */\n      tag_562\n      jump\t// in\n    tag_775:\n        /* \"#utility.yul\":26088:26093   */\n      dup2\n        /* \"#utility.yul\":26085:26117   */\n      eq\n        /* \"#utility.yul\":26075:26135   */\n      tag_776\n      jumpi\n        /* \"#utility.yul\":26131:26132   */\n      0x00\n        /* \"#utility.yul\":26128:26129   */\n      dup1\n        /* \"#utility.yul\":26121:26133   */\n      revert\n        /* \"#utility.yul\":26075:26135   */\n    tag_776:\n        /* \"#utility.yul\":26025:26141   */\n      pop\n      jump\t// out\n        /* \"#utility.yul\":26147:26269   */\n    tag_494:\n        /* \"#utility.yul\":26220:26244   */\n      tag_778\n        /* \"#utility.yul\":26238:26243   */\n      dup2\n        /* \"#utility.yul\":26220:26244   */\n      tag_566\n      jump\t// in\n    tag_778:\n        /* \"#utility.yul\":26213:26218   */\n      dup2\n        /* \"#utility.yul\":26210:26245   */\n      eq\n        /* \"#utility.yul\":26200:26263   */\n      tag_779\n      jumpi\n        /* \"#utility.yul\":26259:26260   */\n      0x00\n        /* \"#utility.yul\":26256:26257   */\n      dup1\n        /* \"#utility.yul\":26249:26261   */\n      revert\n        /* \"#utility.yul\":26200:26263   */\n    tag_779:\n        /* \"#utility.yul\":26147:26269   */\n      pop\n      jump\t// out\n        /* \"#utility.yul\":26275:26397   */\n    tag_504:\n        /* \"#utility.yul\":26348:26372   */\n      tag_781\n        /* \"#utility.yul\":26366:26371   */\n      dup2\n        /* \"#utility.yul\":26348:26372   */\n      tag_643\n      jump\t// in\n    tag_781:\n        /* \"#utility.yul\":26341:26346   */\n      dup2\n        /* \"#utility.yul\":26338:26373   */\n      eq\n        /* \"#utility.yul\":26328:26391   */\n      tag_782\n      jumpi\n        /* \"#utility.yul\":26387:26388   */\n      0x00\n        /* \"#utility.yul\":26384:26385   */\n      dup1\n        /* \"#utility.yul\":26377:26389   */\n      revert\n        /* \"#utility.yul\":26328:26391   */\n    tag_782:\n        /* \"#utility.yul\":26275:26397   */\n      pop\n      jump\t// out\n\n    auxdata: 0xa2646970667358221220444ee6390d97c78b77d16b1f22c0fd862e84764199a8f0317826cba0f55645c564736f6c63430008070033\n}\n",
				"bytecode": {
					"linkReferences": {},
					"object": "60806040523480156200001157600080fd5b5060405162003f7438038062003f748339818101604052810190620000379190620000b4565b816000806101000a81548173ffffffffffffffffffffffffffffffffffffffff021916908373ffffffffffffffffffffffffffffffffffffffff16021790555080600181905550505062000172565b60008151905062000097816200013e565b92915050565b600081519050620000ae8162000158565b92915050565b60008060408385031215620000ce57620000cd62000139565b5b6000620000de8582860162000086565b9250506020620000f1858286016200009d565b9150509250929050565b600062000108826200010f565b9050919050565b600073ffffffffffffffffffffffffffffffffffffffff82169050919050565b6000819050919050565b600080fd5b6200014981620000fb565b81146200015557600080fd5b50565b62000163816200012f565b81146200016f57600080fd5b50565b613df280620001826000396000f3fe60806040526004361061008a5760003560e01c80634121855f116100595780634121855f1461025357806347e4dd271461029057806374fe9bc2146102cd5780639bd0abf1146102fd578063f6c009271461032d57610179565b80630ce490531461017e5780632bf21ecc146101ae578063357965ba146101eb5780633e6ff1a21461022857610179565b366101795760008054906101000a900473ffffffffffffffffffffffffffffffffffffffff1673ffffffffffffffffffffffffffffffffffffffff163373ffffffffffffffffffffffffffffffffffffffff16146101765734600260003373ffffffffffffffffffffffffffffffffffffffff1673ffffffffffffffffffffffffffffffffffffffff16815260200190815260200160002060008282546101319190613876565b925050819055507f88a5966d370b9919b20f3e2c13ff65706f196a4e32cc2c12bf57088f88525874333460405161016992919061361a565b60405180910390a1610177565b5b005b600080fd5b610198600480360381019061019391906130ab565b61036c565b6040516101a59190613643565b60405180910390f35b3480156101ba57600080fd5b506101d560048036038101906101d091906131e5565b6107a8565b6040516101e29190613643565b60405180910390f35b3480156101f757600080fd5b50610212600480360381019061020d919061328c565b610ba7565b60405161021f919061365e565b60405180910390f35b34801561023457600080fd5b5061023d610e6f565b60405161024a91906137de565b60405180910390f35b34801561025f57600080fd5b5061027a600480360381019061027591906131b8565b610f08565b60405161028791906137de565b60405180910390f35b34801561029c57600080fd5b506102b760048036038101906102b2919061312b565b61129f565b6040516102c49190613643565b60405180910390f35b6102e760048036038101906102e29190613225565b6119f1565b6040516102f49190613643565b60405180910390f35b610317600480360381019061031291906130eb565b612464565b6040516103249190613643565b60405180910390f35b34801561033957600080fd5b50610354600480360381019061034f91906131b8565b61265f565b60405161036393929190613679565b60405180910390f35b60008060009054906101000a900473ffffffffffffffffffffffffffffffffffffffff1673ffffffffffffffffffffffffffffffffffffffff163373ffffffffffffffffffffffffffffffffffffffff16146103fd576040517f08c379a00000000000000000000000000000000000000000000000000000000081526004016103f4906136be565b60405180910390fd5b61040682612989565b610445576040517f08c379a000000000000000000000000000000000000000000000000000000000815260040161043c906136fe565b60405180910390fd5b6000600360008481526020019081526020016000206040518061016001604052908160008201805461047690613a1f565b80601f01602080910402602001604051908101604052809291908181526020018280546104a290613a1f565b80156104ef5780601f106104c4576101008083540402835291602001916104ef565b820191906000526020600020905b8154815290600101906020018083116104d257829003601f168201915b5050505050815260200160018201805461050890613a1f565b80601f016020809104026020016040519081016040528092919081815260200182805461053490613a1f565b80156105815780601f1061055657610100808354040283529160200191610581565b820191906000526020600020905b81548152906001019060200180831161056457829003601f168201915b5050505050815260200160028201805461059a90613a1f565b80601f01602080910402602001604051908101604052809291908181526020018280546105c690613a1f565b80156106135780601f106105e857610100808354040283529160200191610613565b820191906000526020600020905b8154815290600101906020018083116105f657829003601f168201915b5050505050815260200160038201548152602001600482015481526020016005820154815260200160068201548152602001600782015481526020016008820160009054906101000a900460ff161515151581526020016008820160019054906101000a900460ff161515151581526020016008820160029054906101000a900460ff161515151581525050905060006106f7600a8360e001518460c0015185608001518660a0015187606001516106cb9190613876565b6106d59190613876565b6106df9190613876565b6106e99190613876565b6129b690919063ffffffff16565b90506001826101400190151590811515815250156107615760008590508073ffffffffffffffffffffffffffffffffffffffff166108fc839081150290604051600060405180830381858888f1935050505015801561075a573d6000803e3d6000fd5b505061079c565b6040517f08c379a00000000000000000000000000000000000000000000000000000000081526004016107939061375e565b60405180910390fd5b50506001905092915050565b60008060009054906101000a900473ffffffffffffffffffffffffffffffffffffffff1673ffffffffffffffffffffffffffffffffffffffff163373ffffffffffffffffffffffffffffffffffffffff1614610839576040517f08c379a0000000000000000000000000000000000000000000000000000000008152600401610830906136be565b60405180910390fd5b61084283612989565b610881576040517f08c379a0000000000000000000000000000000000000000000000000000000008152600401610878906136fe565b60405180910390fd5b600060036000858152602001908152602001600020604051806101600160405290816000820180546108b290613a1f565b80601f01602080910402602001604051908101604052809291908181526020018280546108de90613a1f565b801561092b5780601f106109005761010080835404028352916020019161092b565b820191906000526020600020905b81548152906001019060200180831161090e57829003601f168201915b5050505050815260200160018201805461094490613a1f565b80601f016020809104026020016040519081016040528092919081815260200182805461097090613a1f565b80156109bd5780601f10610992576101008083540402835291602001916109bd565b820191906000526020600020905b8154815290600101906020018083116109a057829003601f168201915b505050505081526020016002820180546109d690613a1f565b80601f0160208091040260200160405190810160405280929190818152602001828054610a0290613a1f565b8015610a4f5780601f10610a2457610100808354040283529160200191610a4f565b820191906000526020600020905b815481529060010190602001808311610a3257829003601f168201915b5050505050815260200160038201548152602001600482015481526020016005820154815260200160068201548152602001600782015481526020016008820160009054906101000a900460ff161515151581526020016008820160019054906101000a900460ff161515151581526020016008820160029054906101000a900460ff161515151581525050905060008160e001511115610b25576040517f08c379a0000000000000000000000000000000000000000000000000000000008152600401610b1c9061371e565b60405180910390fd5b826001541115610b6a576040517f08c379a0000000000000000000000000000000000000000000000000000000008152600401610b619061379e565b60405180910390fd5b828160e001818151610b7c9190613876565b915081815250508260016000828254610b959190613957565b92505081905550600191505092915050565b60008060009054906101000a900473ffffffffffffffffffffffffffffffffffffffff1673ffffffffffffffffffffffffffffffffffffffff163373ffffffffffffffffffffffffffffffffffffffff1614610c38576040517f08c379a0000000000000000000000000000000000000000000000000000000008152600401610c2f906136be565b60405180910390fd5b6000610c4486866129de565b90506000610c5282866129de565b9050600081604051602001610c6791906135e8565b604051602081830303815290604052805190602001209050610c8881612989565b15610cc8576040517f08c379a0000000000000000000000000000000000000000000000000000000008152600401610cbf9061373e565b60405180910390fd5b60016003600083815260200190815260200160002060080160016101000a81548160ff02191690831515021790555087600360008381526020019081526020016000206000019080519060200190610d21929190612f15565b5086600360008381526020019081526020016000206001019080519060200190610d4c929190612f15565b5085600360008381526020019081526020016000206002019080519060200190610d77929190612f15565b506000600360008381526020019081526020016000206003018190555060006003600083815260200190815260200160002060040181905550600060036000838152602001908152602001600020600501819055506000600360008381526020019081526020016000206006018190555060006003600083815260200190815260200160002060070181905550846003600083815260200190815260200160002060080160006101000a81548160ff02191690831515021790555060006003600083815260200190815260200160002060080160026101000a81548160ff021916908315150217905550809350505050949350505050565b60008060009054906101000a900473ffffffffffffffffffffffffffffffffffffffff1673ffffffffffffffffffffffffffffffffffffffff163373ffffffffffffffffffffffffffffffffffffffff1614610f00576040517f08c379a0000000000000000000000000000000000000000000000000000000008152600401610ef7906136be565b60405180910390fd5b600154905090565b60008060009054906101000a900473ffffffffffffffffffffffffffffffffffffffff1673ffffffffffffffffffffffffffffffffffffffff163373ffffffffffffffffffffffffffffffffffffffff1614610f99576040517f08c379a0000000000000000000000000000000000000000000000000000000008152600401610f90906136be565b60405180910390fd5b610fa282612989565b610fe1576040517f08c379a0000000000000000000000000000000000000000000000000000000008152600401610fd8906136fe565b60405180910390fd5b6000600360008481526020019081526020016000206040518061016001604052908160008201805461101290613a1f565b80601f016020809104026020016040519081016040528092919081815260200182805461103e90613a1f565b801561108b5780601f106110605761010080835404028352916020019161108b565b820191906000526020600020905b81548152906001019060200180831161106e57829003601f168201915b505050505081526020016001820180546110a490613a1f565b80601f01602080910402602001604051908101604052809291908181526020018280546110d090613a1f565b801561111d5780601f106110f25761010080835404028352916020019161111d565b820191906000526020600020905b81548152906001019060200180831161110057829003601f168201915b5050505050815260200160028201805461113690613a1f565b80601f016020809104026020016040519081016040528092919081815260200182805461116290613a1f565b80156111af5780601f10611184576101008083540402835291602001916111af565b820191906000526020600020905b81548152906001019060200180831161119257829003601f168201915b5050505050815260200160038201548152602001600482015481526020016005820154815260200160068201548152602001600782015481526020016008820160009054906101000a900460ff161515151581526020016008820160019054906101000a900460ff161515151581526020016008820160029054906101000a900460ff16151515158152505090506000611293600a8360e001518460c0015185608001518660a0015187606001516112679190613876565b6112719190613876565b61127b9190613876565b6112859190613876565b6129b690919063ffffffff16565b90508092505050919050565b60006112aa85612989565b6112e9576040517f08c379a00000000000000000000000000000000000000000000000000000000081526004016112e0906136fe565b60405180910390fd5b85600260008973ffffffffffffffffffffffffffffffffffffffff1673ffffffffffffffffffffffffffffffffffffffff16815260200190815260200160002054101561136b576040517f08c379a00000000000000000000000000000000000000000000000000000000081526004016113629061377e565b60405180910390fd5b6000600360008781526020019081526020016000206040518061016001604052908160008201805461139c90613a1f565b80601f01602080910402602001604051908101604052809291908181526020018280546113c890613a1f565b80156114155780601f106113ea57610100808354040283529160200191611415565b820191906000526020600020905b8154815290600101906020018083116113f857829003601f168201915b5050505050815260200160018201805461142e90613a1f565b80601f016020809104026020016040519081016040528092919081815260200182805461145a90613a1f565b80156114a75780601f1061147c576101008083540402835291602001916114a7565b820191906000526020600020905b81548152906001019060200180831161148a57829003601f168201915b505050505081526020016002820180546114c090613a1f565b80601f01602080910402602001604051908101604052809291908181526020018280546114ec90613a1f565b80156115395780601f1061150e57610100808354040283529160200191611539565b820191906000526020600020905b81548152906001019060200180831161151c57829003601f168201915b5050505050815260200160038201548152602001600482015481526020016005820154815260200160068201548152602001600782015481526020016008820160009054906101000a900460ff161515151581526020016008820160019054906101000a900460ff161515151581526020016008820160029054906101000a900460ff161515151581525050905060006115e36115d587612b74565b6115de87612b74565b6129de565b905060006115f96115f389612ba5565b836129de565b905060006040518060e001604052808b81526020018781526020018981526020018881526020018c73ffffffffffffffffffffffffffffffffffffffff16815260200183815260200160001515815250905088600460008b815260200190815260200160002060010181905550600460008a81526020019081526020016000206000018190806001815401808255809150506001900390600052602060002090600702016000909190919091506000820151816000015560208201518160010155604082015181600201556060820151816003015560808201518160040160006101000a81548173ffffffffffffffffffffffffffffffffffffffff021916908373ffffffffffffffffffffffffffffffffffffffff16021790555060a0820151816005019080519060200190611731929190612f15565b5060c08201518160060160006101000a81548160ff02191690831515021790555050508a600660008d73ffffffffffffffffffffffffffffffffffffffff1673ffffffffffffffffffffffffffffffffffffffff16815260200190815260200160002060010160006101000a81548173ffffffffffffffffffffffffffffffffffffffff021916908373ffffffffffffffffffffffffffffffffffffffff160217905550600460008a81526020019081526020016000206000018190806001815401808255809150506001900390600052602060002090600702016000909190919091506000820151816000015560208201518160010155604082015181600201556060820151816003015560808201518160040160006101000a81548173ffffffffffffffffffffffffffffffffffffffff021916908373ffffffffffffffffffffffffffffffffffffffff16021790555060a08201518160050190805190602001906118a0929190612f15565b5060c08201518160060160006101000a81548160ff0219169083151502179055505050600286141561191f57898460c0018181516118de9190613876565b91508181525050896005836040516118f691906135e8565b908152602001604051809103902060008282546119139190613876565b92505081905550611989565b600386141561194657898460600181815161193a9190613876565b91508181525050611988565b600186141561196d5789846080018181516119619190613876565b91508181525050611987565b898460a00181815161197f9190613876565b915081815250505b5b5b89600260008d73ffffffffffffffffffffffffffffffffffffffff1673ffffffffffffffffffffffffffffffffffffffff16815260200190815260200160002060008282546119d89190613957565b9250508190555050505050600190509695505050505050565b60008060009054906101000a900473ffffffffffffffffffffffffffffffffffffffff1673ffffffffffffffffffffffffffffffffffffffff163373ffffffffffffffffffffffffffffffffffffffff1614611a82576040517f08c379a0000000000000000000000000000000000000000000000000000000008152600401611a79906136be565b60405180910390fd5b611a8b85612989565b611aca576040517f08c379a0000000000000000000000000000000000000000000000000000000008152600401611ac1906136fe565b60405180910390fd5b60006003600087815260200190815260200160002060405180610160016040529081600082018054611afb90613a1f565b80601f0160208091040260200160405190810160405280929190818152602001828054611b2790613a1f565b8015611b745780601f10611b4957610100808354040283529160200191611b74565b820191906000526020600020905b815481529060010190602001808311611b5757829003601f168201915b50505050508152602001600182018054611b8d90613a1f565b80601f0160208091040260200160405190810160405280929190818152602001828054611bb990613a1f565b8015611c065780601f10611bdb57610100808354040283529160200191611c06565b820191906000526020600020905b815481529060010190602001808311611be957829003601f168201915b50505050508152602001600282018054611c1f90613a1f565b80601f0160208091040260200160405190810160405280929190818152602001828054611c4b90613a1f565b8015611c985780601f10611c6d57610100808354040283529160200191611c98565b820191906000526020600020905b815481529060010190602001808311611c7b57829003601f168201915b5050505050815260200160038201548152602001600482015481526020016005820154815260200160068201548152602001600782015481526020016008820160009054906101000a900460ff161515151581526020016008820160019054906101000a900460ff161515151581526020016008820160029054906101000a900460ff1615151515815250509050600181610140019015159081151581525015611d77576040517f08c379a0000000000000000000000000000000000000000000000000000000008152600401611d6e906137be565b60405180910390fd5b600060046000888152602001908152602001600020600001805480602002602001604051908101604052809291908181526020016000905b82821015611f0c57838290600052602060002090600702016040518060e0016040529081600082015481526020016001820154815260200160028201548152602001600382015481526020016004820160009054906101000a900473ffffffffffffffffffffffffffffffffffffffff1673ffffffffffffffffffffffffffffffffffffffff1673ffffffffffffffffffffffffffffffffffffffff168152602001600582018054611e6090613a1f565b80601f0160208091040260200160405190810160405280929190818152602001828054611e8c90613a1f565b8015611ed95780601f10611eae57610100808354040283529160200191611ed9565b820191906000526020600020905b815481529060010190602001808311611ebc57829003601f168201915b505050505081526020016006820160009054906101000a900460ff16151515158152505081526020019060010190611daf565b5050505090506000611f7b6014611f3160028660e001516129b690919063ffffffff16565b85608001518660a0015187606001518860c00151611f4f9190613876565b611f599190613876565b611f639190613876565b611f6d9190613876565b6129b690919063ffffffff16565b60016000828254611f8c9190613876565b9250508190555060005b60018351611fa49190613957565b8111612442576000838281518110611fbf57611fbe613b6c565b5b602002602001015160c001901515908115158152501561242f576002838281518110611fee57611fed613b6c565b5b60200260200101516020015114156121bf5761204d606461203f605561202260028960e001516129b690919063ffffffff16565b8860c001516120319190613876565b612bd690919063ffffffff16565b6129b690919063ffffffff16565b91508783828151811061206357612062613b6c565b5b60200260200101516040015114801561209957508683828151811061208b5761208a613b6c565b5b602002602001015160600151145b156121ba57600060058483815181106120b5576120b4613b6c565b5b602002602001015160a001516040516120ce91906135e8565b90815260200160405180910390205490506000818584815181106120f5576120f4613b6c565b5b6020026020010151600001518561210c91906138fd565b61211691906138cc565b905080600260008786815181106121305761212f613b6c565b5b60200260200101516080015173ffffffffffffffffffffffffffffffffffffffff1673ffffffffffffffffffffffffffffffffffffffff16815260200190815260200160002060008282546121859190613876565b9250508190555060018584815181106121a1576121a0613b6c565b5b602002602001015160c001901515908115158152505050505b61242e565b858382815181106121d3576121d2613b6c565b5b602002602001015160200151141561242d576122506064612242605561220760028960e001516129b690919063ffffffff16565b88608001518960a001518a606001516122209190613876565b61222a9190613876565b6122349190613876565b612bd690919063ffffffff16565b6129b690919063ffffffff16565b915060008084838151811061226857612267613b6c565b5b60200260200101516020015114156122a8576122a5606461229760558860a00151612bd690919063ffffffff16565b6129b690919063ffffffff16565b90505b60018483815181106122bd576122bc613b6c565b5b60200260200101516020015114156122fd576122fa60646122ec60558860800151612bd690919063ffffffff16565b6129b690919063ffffffff16565b90505b600384838151811061231257612311613b6c565b5b60200260200101516020015114156123525761234f606461234160558860600151612bd690919063ffffffff16565b6129b690919063ffffffff16565b90505b60008185848151811061236857612367613b6c565b5b6020026020010151600001518561237f91906138fd565b61238991906138cc565b905080600260008786815181106123a3576123a2613b6c565b5b60200260200101516080015173ffffffffffffffffffffffffffffffffffffffff1673ffffffffffffffffffffffffffffffffffffffff16815260200190815260200160002060008282546123f89190613876565b92505081905550600185848151811061241457612413613b6c565b5b602002602001015160c001901515908115158152505050505b5b5b808061243a90613a82565b915050611f96565b5060018361014001901515908115158152505050505060019050949350505050565b60008060009054906101000a900473ffffffffffffffffffffffffffffffffffffffff1673ffffffffffffffffffffffffffffffffffffffff163373ffffffffffffffffffffffffffffffffffffffff16146124f5576040517f08c379a00000000000000000000000000000000000000000000000000000000081526004016124ec906136be565b60405180910390fd5b81600260008573ffffffffffffffffffffffffffffffffffffffff1673ffffffffffffffffffffffffffffffffffffffff168152602001908152602001600020541015801561258457506000600260008573ffffffffffffffffffffffffffffffffffffffff1673ffffffffffffffffffffffffffffffffffffffff1681526020019081526020016000205410155b1561261a5760008390508073ffffffffffffffffffffffffffffffffffffffff166108fc600260008773ffffffffffffffffffffffffffffffffffffffff1673ffffffffffffffffffffffffffffffffffffffff168152602001908152602001600020549081150290604051600060405180830381858888f19350505050158015612613573d6000803e3d6000fd5b5050612655565b6040517f08c379a000000000000000000000000000000000000000000000000000000000815260040161264c9061377e565b60405180910390fd5b6001905092915050565b60608061266a612f9b565b61267384612989565b6126b2576040517f08c379a00000000000000000000000000000000000000000000000000000000081526004016126a9906136de565b60405180910390fd5b60006127916003600087815260200190815260200160002060000180546126d890613a1f565b80601f016020809104026020016040519081016040528092919081815260200182805461270490613a1f565b80156127515780601f1061272657610100808354040283529160200191612751565b820191906000526020600020905b81548152906001019060200180831161273457829003601f168201915b50505050506040518060400160405280600481526020017f20767320000000000000000000000000000000000000000000000000000000008152506129de565b905061283b816003600088815260200190815260200160002060010180546127b890613a1f565b80601f01602080910402602001604051908101604052809291908181526020018280546127e490613a1f565b80156128315780601f1061280657610100808354040283529160200191612831565b820191906000526020600020905b81548152906001019060200180831161281457829003601f168201915b50505050506129de565b935060006040518060a0016040528060036000898152602001908152602001600020600301548152602001600360008981526020019081526020016000206004015481526020016003600089815260200190815260200160002060050154815260200160036000898152602001908152602001600020600601548152602001600360008981526020019081526020016000206007015481525090508460036000888152602001908152602001600020600201828180546128fa90613a1f565b80601f016020809104026020016040519081016040528092919081815260200182805461292690613a1f565b80156129735780601f1061294857610100808354040283529160200191612973565b820191906000526020600020905b81548152906001019060200180831161295657829003601f168201915b5050505050915094509450945050509193909250565b60006003600083815260200190815260200160002060080160019054906101000a900460ff169050919050565b60008082116129c457600080fd5b600082846129d291906138cc565b90508091505092915050565b6060600083905060008390506000815183516129fa9190613876565b67ffffffffffffffff811115612a1357612a12613b9b565b5b6040519080825280601f01601f191660200182016040528015612a455781602001600182028036833780820191505090505b50905060008190506000805b8551811015612ad957858181518110612a6d57612a6c613b6c565b5b602001015160f81c60f81b838380612a8490613a82565b945081518110612a9757612a96613b6c565b5b60200101907effffffffffffffffffffffffffffffffffffffffffffffffffffffffffffff1916908160001a9053508080612ad190613a82565b915050612a51565b5060005b8451811015612b6557848181518110612af957612af8613b6c565b5b602001015160f81c60f81b838380612b1090613a82565b945081518110612b2357612b22613b6c565b5b60200101907effffffffffffffffffffffffffffffffffffffffffffffffffffffffffffff1916908160001a9053508080612b5d90613a82565b915050612add565b50829550505050505092915050565b6060612b9e82604051602001612b8a91906135ff565b604051602081830303815290604052612c1b565b9050919050565b6060612bcf82604051602001612bbb91906135cd565b604051602081830303815290604052612c1b565b9050919050565b600080831415612be95760009050612c15565b60008284612bf791906138fd565b9050828482612c0691906138cc565b14612c1057600080fd5b809150505b92915050565b606060006040518060400160405280601081526020017f30313233343536373839616263646566000000000000000000000000000000008152509050600060028451612c6791906138fd565b6002612c739190613876565b67ffffffffffffffff811115612c8c57612c8b613b9b565b5b6040519080825280601f01601f191660200182016040528015612cbe5781602001600182028036833780820191505090505b5090507f300000000000000000000000000000000000000000000000000000000000000081600081518110612cf657612cf5613b6c565b5b60200101907effffffffffffffffffffffffffffffffffffffffffffffffffffffffffffff1916908160001a9053507f780000000000000000000000000000000000000000000000000000000000000081600181518110612d5a57612d59613b6c565b5b60200101907effffffffffffffffffffffffffffffffffffffffffffffffffffffffffffff1916908160001a90535060005b8451811015612f0a57826004868381518110612dab57612daa613b6c565b5b602001015160f81c60f81b7effffffffffffffffffffffffffffffffffffffffffffffffffffffffffffff1916901c60f81c60ff1681518110612df157612df0613b6c565b5b602001015160f81c60f81b82600283612e0a91906138fd565b6002612e169190613876565b81518110612e2757612e26613b6c565b5b60200101907effffffffffffffffffffffffffffffffffffffffffffffffffffffffffffff1916908160001a90535082600f60f81b868381518110612e6f57612e6e613b6c565b5b602001015160f81c60f81b1660f81c60ff1681518110612e9257612e91613b6c565b5b602001015160f81c60f81b82600283612eab91906138fd565b6003612eb79190613876565b81518110612ec857612ec7613b6c565b5b60200101907effffffffffffffffffffffffffffffffffffffffffffffffffffffffffffff1916908160001a9053508080612f0290613a82565b915050612d8c565b508092505050919050565b828054612f2190613a1f565b90600052602060002090601f016020900481019282612f435760008555612f8a565b82601f10612f5c57805160ff1916838001178555612f8a565b82800160010185558215612f8a579182015b82811115612f89578251825591602001919060010190612f6e565b5b509050612f979190612fca565b5090565b6040518060a0016040528060008152602001600081526020016000815260200160008152602001600081525090565b5b80821115612fe3576000816000905550600101612fcb565b5090565b6000612ffa612ff58461381e565b6137f9565b90508281526020810184848401111561301657613015613bcf565b5b6130218482856139dd565b509392505050565b60008135905061303881613d60565b92915050565b60008135905061304d81613d77565b92915050565b60008135905061306281613d8e565b92915050565b600082601f83011261307d5761307c613bca565b5b813561308d848260208601612fe7565b91505092915050565b6000813590506130a581613da5565b92915050565b600080604083850312156130c2576130c1613bd9565b5b60006130d085828601613029565b92505060206130e185828601613053565b9150509250929050565b6000806040838503121561310257613101613bd9565b5b600061311085828601613029565b925050602061312185828601613096565b9150509250929050565b60008060008060008060c0878903121561314857613147613bd9565b5b600061315689828a01613029565b965050602061316789828a01613096565b955050604061317889828a01613053565b945050606061318989828a01613096565b935050608061319a89828a01613096565b92505060a06131ab89828a01613096565b9150509295509295509295565b6000602082840312156131ce576131cd613bd9565b5b60006131dc84828501613053565b91505092915050565b600080604083850312156131fc576131fb613bd9565b5b600061320a85828601613053565b925050602061321b85828601613096565b9150509250929050565b6000806000806080858703121561323f5761323e613bd9565b5b600061324d87828801613053565b945050602061325e87828801613096565b935050604061326f87828801613096565b925050606061328087828801613096565b91505092959194509250565b600080600080608085870312156132a6576132a5613bd9565b5b600085013567ffffffffffffffff8111156132c4576132c3613bd4565b5b6132d087828801613068565b945050602085013567ffffffffffffffff8111156132f1576132f0613bd4565b5b6132fd87828801613068565b935050604085013567ffffffffffffffff81111561331e5761331d613bd4565b5b61332a87828801613068565b925050606061333b8782880161303e565b91505092959194509250565b6133508161398b565b82525050565b61335f8161399d565b82525050565b61336e816139a9565b82525050565b613385613380826139a9565b613acb565b82525050565b60006133968261384f565b6133a0818561385a565b93506133b08185602086016139ec565b6133b981613bde565b840191505092915050565b60006133cf8261384f565b6133d9818561386b565b93506133e98185602086016139ec565b80840191505092915050565b600061340260198361385a565b915061340d82613bef565b602082019050919050565b600061342560098361385a565b915061343082613c18565b602082019050919050565b6000613448600e8361385a565b915061345382613c41565b602082019050919050565b600061346b60178361385a565b915061347682613c6a565b602082019050919050565b600061348e600a8361385a565b915061349982613c93565b602082019050919050565b60006134b160158361385a565b91506134bc82613cbc565b602082019050919050565b60006134d460158361385a565b91506134df82613ce5565b602082019050919050565b60006134f760108361385a565b915061350282613d0e565b602082019050919050565b600061351a60118361385a565b915061352582613d37565b602082019050919050565b60a0820160008201516135466000850182613598565b5060208201516135596020850182613598565b50604082015161356c6040850182613598565b50606082015161357f6060850182613598565b5060808201516135926080850182613598565b50505050565b6135a1816139d3565b82525050565b6135b0816139d3565b82525050565b6135c76135c2826139d3565b613ad5565b82525050565b60006135d98284613374565b60208201915081905092915050565b60006135f482846133c4565b915081905092915050565b600061360b82846135b6565b60208201915081905092915050565b600060408201905061362f6000830185613347565b61363c60208301846135a7565b9392505050565b60006020820190506136586000830184613356565b92915050565b60006020820190506136736000830184613365565b92915050565b600060e0820190508181036000830152613693818661338b565b905081810360208301526136a7818561338b565b90506136b66040830184613530565b949350505050565b600060208201905081810360008301526136d7816133f5565b9050919050565b600060208201905081810360008301526136f781613418565b9050919050565b600060208201905081810360008301526137178161343b565b9050919050565b600060208201905081810360008301526137378161345e565b9050919050565b6000602082019050818103600083015261375781613481565b9050919050565b60006020820190508181036000830152613777816134a4565b9050919050565b60006020820190508181036000830152613797816134c7565b9050919050565b600060208201905081810360008301526137b7816134ea565b9050919050565b600060208201905081810360008301526137d78161350d565b9050919050565b60006020820190506137f360008301846135a7565b92915050565b6000613803613814565b905061380f8282613a51565b919050565b6000604051905090565b600067ffffffffffffffff82111561383957613838613b9b565b5b61384282613bde565b9050602081019050919050565b600081519050919050565b600082825260208201905092915050565b600081905092915050565b6000613881826139d3565b915061388c836139d3565b9250827fffffffffffffffffffffffffffffffffffffffffffffffffffffffffffffffff038211156138c1576138c0613adf565b5b828201905092915050565b60006138d7826139d3565b91506138e2836139d3565b9250826138f2576138f1613b0e565b5b828204905092915050565b6000613908826139d3565b9150613913836139d3565b9250817fffffffffffffffffffffffffffffffffffffffffffffffffffffffffffffffff048311821515161561394c5761394b613adf565b5b828202905092915050565b6000613962826139d3565b915061396d836139d3565b9250828210156139805761397f613adf565b5b828203905092915050565b6000613996826139b3565b9050919050565b60008115159050919050565b6000819050919050565b600073ffffffffffffffffffffffffffffffffffffffff82169050919050565b6000819050919050565b82818337600083830152505050565b60005b83811015613a0a5780820151818401526020810190506139ef565b83811115613a19576000848401525b50505050565b60006002820490506001821680613a3757607f821691505b60208210811415613a4b57613a4a613b3d565b5b50919050565b613a5a82613bde565b810181811067ffffffffffffffff82111715613a7957613a78613b9b565b5b80604052505050565b6000613a8d826139d3565b91507fffffffffffffffffffffffffffffffffffffffffffffffffffffffffffffffff821415613ac057613abf613adf565b5b600182019050919050565b6000819050919050565b6000819050919050565b7f4e487b7100000000000000000000000000000000000000000000000000000000600052601160045260246000fd5b7f4e487b7100000000000000000000000000000000000000000000000000000000600052601260045260246000fd5b7f4e487b7100000000000000000000000000000000000000000000000000000000600052602260045260246000fd5b7f4e487b7100000000000000000000000000000000000000000000000000000000600052603260045260246000fd5b7f4e487b7100000000000000000000000000000000000000000000000000000000600052604160045260246000fd5b600080fd5b600080fd5b600080fd5b600080fd5b6000601f19601f8301169050919050565b7f4f6e6c79206f776e65722063616e2063616c6c20746869732e00000000000000600082015250565b7f6e6f742065786973740000000000000000000000000000000000000000000000600082015250565b7f706f6f6c206e6f74206578697374000000000000000000000000000000000000600082015250565b7f706f6f6c20626173616c20686173206265656e20736574000000000000000000600082015250565b7f7061697220657869737400000000000000000000000000000000000000000000600082015250565b7f706f6f6c20686173206e6f742066696e69736865640000000000000000000000600082015250565b7f6e6f7420656e6f75676820766f7465416d6f756e740000000000000000000000600082015250565b7f6e6f7420656e6f75676820626173616c00000000000000000000000000000000600082015250565b7f706f6f6c206861732066696e6973686564000000000000000000000000000000600082015250565b613d698161398b565b8114613d7457600080fd5b50565b613d808161399d565b8114613d8b57600080fd5b50565b613d97816139a9565b8114613da257600080fd5b50565b613dae816139d3565b8114613db957600080fd5b5056fea2646970667358221220444ee6390d97c78b77d16b1f22c0fd862e84764199a8f0317826cba0f55645c564736f6c63430008070033",
					"opcodes": "PUSH1 0x80 PUSH1 0x40 MSTORE CALLVALUE DUP1 ISZERO PUSH3 0x11 JUMPI PUSH1 0x0 DUP1 REVERT JUMPDEST POP PUSH1 0x40 MLOAD PUSH3 0x3F74 CODESIZE SUB DUP1 PUSH3 0x3F74 DUP4 CODECOPY DUP2 DUP2 ADD PUSH1 0x40 MSTORE DUP2 ADD SWAP1 PUSH3 0x37 SWAP2 SWAP1 PUSH3 0xB4 JUMP JUMPDEST DUP2 PUSH1 0x0 DUP1 PUSH2 0x100 EXP DUP2 SLOAD DUP2 PUSH20 0xFFFFFFFFFFFFFFFFFFFFFFFFFFFFFFFFFFFFFFFF MUL NOT AND SWAP1 DUP4 PUSH20 0xFFFFFFFFFFFFFFFFFFFFFFFFFFFFFFFFFFFFFFFF AND MUL OR SWAP1 SSTORE POP DUP1 PUSH1 0x1 DUP2 SWAP1 SSTORE POP POP POP PUSH3 0x172 JUMP JUMPDEST PUSH1 0x0 DUP2 MLOAD SWAP1 POP PUSH3 0x97 DUP2 PUSH3 0x13E JUMP JUMPDEST SWAP3 SWAP2 POP POP JUMP JUMPDEST PUSH1 0x0 DUP2 MLOAD SWAP1 POP PUSH3 0xAE DUP2 PUSH3 0x158 JUMP JUMPDEST SWAP3 SWAP2 POP POP JUMP JUMPDEST PUSH1 0x0 DUP1 PUSH1 0x40 DUP4 DUP6 SUB SLT ISZERO PUSH3 0xCE JUMPI PUSH3 0xCD PUSH3 0x139 JUMP JUMPDEST JUMPDEST PUSH1 0x0 PUSH3 0xDE DUP6 DUP3 DUP7 ADD PUSH3 0x86 JUMP JUMPDEST SWAP3 POP POP PUSH1 0x20 PUSH3 0xF1 DUP6 DUP3 DUP7 ADD PUSH3 0x9D JUMP JUMPDEST SWAP2 POP POP SWAP3 POP SWAP3 SWAP1 POP JUMP JUMPDEST PUSH1 0x0 PUSH3 0x108 DUP3 PUSH3 0x10F JUMP JUMPDEST SWAP1 POP SWAP2 SWAP1 POP JUMP JUMPDEST PUSH1 0x0 PUSH20 0xFFFFFFFFFFFFFFFFFFFFFFFFFFFFFFFFFFFFFFFF DUP3 AND SWAP1 POP SWAP2 SWAP1 POP JUMP JUMPDEST PUSH1 0x0 DUP2 SWAP1 POP SWAP2 SWAP1 POP JUMP JUMPDEST PUSH1 0x0 DUP1 REVERT JUMPDEST PUSH3 0x149 DUP2 PUSH3 0xFB JUMP JUMPDEST DUP2 EQ PUSH3 0x155 JUMPI PUSH1 0x0 DUP1 REVERT JUMPDEST POP JUMP JUMPDEST PUSH3 0x163 DUP2 PUSH3 0x12F JUMP JUMPDEST DUP2 EQ PUSH3 0x16F JUMPI PUSH1 0x0 DUP1 REVERT JUMPDEST POP JUMP JUMPDEST PUSH2 0x3DF2 DUP1 PUSH3 0x182 PUSH1 0x0 CODECOPY PUSH1 0x0 RETURN INVALID PUSH1 0x80 PUSH1 0x40 MSTORE PUSH1 0x4 CALLDATASIZE LT PUSH2 0x8A JUMPI PUSH1 0x0 CALLDATALOAD PUSH1 0xE0 SHR DUP1 PUSH4 0x4121855F GT PUSH2 0x59 JUMPI DUP1 PUSH4 0x4121855F EQ PUSH2 0x253 JUMPI DUP1 PUSH4 0x47E4DD27 EQ PUSH2 0x290 JUMPI DUP1 PUSH4 0x74FE9BC2 EQ PUSH2 0x2CD JUMPI DUP1 PUSH4 0x9BD0ABF1 EQ PUSH2 0x2FD JUMPI DUP1 PUSH4 0xF6C00927 EQ PUSH2 0x32D JUMPI PUSH2 0x179 JUMP JUMPDEST DUP1 PUSH4 0xCE49053 EQ PUSH2 0x17E JUMPI DUP1 PUSH4 0x2BF21ECC EQ PUSH2 0x1AE JUMPI DUP1 PUSH4 0x357965BA EQ PUSH2 0x1EB JUMPI DUP1 PUSH4 0x3E6FF1A2 EQ PUSH2 0x228 JUMPI PUSH2 0x179 JUMP JUMPDEST CALLDATASIZE PUSH2 0x179 JUMPI PUSH1 0x0 DUP1 SLOAD SWAP1 PUSH2 0x100 EXP SWAP1 DIV PUSH20 0xFFFFFFFFFFFFFFFFFFFFFFFFFFFFFFFFFFFFFFFF AND PUSH20 0xFFFFFFFFFFFFFFFFFFFFFFFFFFFFFFFFFFFFFFFF AND CALLER PUSH20 0xFFFFFFFFFFFFFFFFFFFFFFFFFFFFFFFFFFFFFFFF AND EQ PUSH2 0x176 JUMPI CALLVALUE PUSH1 0x2 PUSH1 0x0 CALLER PUSH20 0xFFFFFFFFFFFFFFFFFFFFFFFFFFFFFFFFFFFFFFFF AND PUSH20 0xFFFFFFFFFFFFFFFFFFFFFFFFFFFFFFFFFFFFFFFF AND DUP2 MSTORE PUSH1 0x20 ADD SWAP1 DUP2 MSTORE PUSH1 0x20 ADD PUSH1 0x0 KECCAK256 PUSH1 0x0 DUP3 DUP3 SLOAD PUSH2 0x131 SWAP2 SWAP1 PUSH2 0x3876 JUMP JUMPDEST SWAP3 POP POP DUP2 SWAP1 SSTORE POP PUSH32 0x88A5966D370B9919B20F3E2C13FF65706F196A4E32CC2C12BF57088F88525874 CALLER CALLVALUE PUSH1 0x40 MLOAD PUSH2 0x169 SWAP3 SWAP2 SWAP1 PUSH2 0x361A JUMP JUMPDEST PUSH1 0x40 MLOAD DUP1 SWAP2 SUB SWAP1 LOG1 PUSH2 0x177 JUMP JUMPDEST JUMPDEST STOP JUMPDEST PUSH1 0x0 DUP1 REVERT JUMPDEST PUSH2 0x198 PUSH1 0x4 DUP1 CALLDATASIZE SUB DUP2 ADD SWAP1 PUSH2 0x193 SWAP2 SWAP1 PUSH2 0x30AB JUMP JUMPDEST PUSH2 0x36C JUMP JUMPDEST PUSH1 0x40 MLOAD PUSH2 0x1A5 SWAP2 SWAP1 PUSH2 0x3643 JUMP JUMPDEST PUSH1 0x40 MLOAD DUP1 SWAP2 SUB SWAP1 RETURN JUMPDEST CALLVALUE DUP1 ISZERO PUSH2 0x1BA JUMPI PUSH1 0x0 DUP1 REVERT JUMPDEST POP PUSH2 0x1D5 PUSH1 0x4 DUP1 CALLDATASIZE SUB DUP2 ADD SWAP1 PUSH2 0x1D0 SWAP2 SWAP1 PUSH2 0x31E5 JUMP JUMPDEST PUSH2 0x7A8 JUMP JUMPDEST PUSH1 0x40 MLOAD PUSH2 0x1E2 SWAP2 SWAP1 PUSH2 0x3643 JUMP JUMPDEST PUSH1 0x40 MLOAD DUP1 SWAP2 SUB SWAP1 RETURN JUMPDEST CALLVALUE DUP1 ISZERO PUSH2 0x1F7 JUMPI PUSH1 0x0 DUP1 REVERT JUMPDEST POP PUSH2 0x212 PUSH1 0x4 DUP1 CALLDATASIZE SUB DUP2 ADD SWAP1 PUSH2 0x20D SWAP2 SWAP1 PUSH2 0x328C JUMP JUMPDEST PUSH2 0xBA7 JUMP JUMPDEST PUSH1 0x40 MLOAD PUSH2 0x21F SWAP2 SWAP1 PUSH2 0x365E JUMP JUMPDEST PUSH1 0x40 MLOAD DUP1 SWAP2 SUB SWAP1 RETURN JUMPDEST CALLVALUE DUP1 ISZERO PUSH2 0x234 JUMPI PUSH1 0x0 DUP1 REVERT JUMPDEST POP PUSH2 0x23D PUSH2 0xE6F JUMP JUMPDEST PUSH1 0x40 MLOAD PUSH2 0x24A SWAP2 SWAP1 PUSH2 0x37DE JUMP JUMPDEST PUSH1 0x40 MLOAD DUP1 SWAP2 SUB SWAP1 RETURN JUMPDEST CALLVALUE DUP1 ISZERO PUSH2 0x25F JUMPI PUSH1 0x0 DUP1 REVERT JUMPDEST POP PUSH2 0x27A PUSH1 0x4 DUP1 CALLDATASIZE SUB DUP2 ADD SWAP1 PUSH2 0x275 SWAP2 SWAP1 PUSH2 0x31B8 JUMP JUMPDEST PUSH2 0xF08 JUMP JUMPDEST PUSH1 0x40 MLOAD PUSH2 0x287 SWAP2 SWAP1 PUSH2 0x37DE JUMP JUMPDEST PUSH1 0x40 MLOAD DUP1 SWAP2 SUB SWAP1 RETURN JUMPDEST CALLVALUE DUP1 ISZERO PUSH2 0x29C JUMPI PUSH1 0x0 DUP1 REVERT JUMPDEST POP PUSH2 0x2B7 PUSH1 0x4 DUP1 CALLDATASIZE SUB DUP2 ADD SWAP1 PUSH2 0x2B2 SWAP2 SWAP1 PUSH2 0x312B JUMP JUMPDEST PUSH2 0x129F JUMP JUMPDEST PUSH1 0x40 MLOAD PUSH2 0x2C4 SWAP2 SWAP1 PUSH2 0x3643 JUMP JUMPDEST PUSH1 0x40 MLOAD DUP1 SWAP2 SUB SWAP1 RETURN JUMPDEST PUSH2 0x2E7 PUSH1 0x4 DUP1 CALLDATASIZE SUB DUP2 ADD SWAP1 PUSH2 0x2E2 SWAP2 SWAP1 PUSH2 0x3225 JUMP JUMPDEST PUSH2 0x19F1 JUMP JUMPDEST PUSH1 0x40 MLOAD PUSH2 0x2F4 SWAP2 SWAP1 PUSH2 0x3643 JUMP JUMPDEST PUSH1 0x40 MLOAD DUP1 SWAP2 SUB SWAP1 RETURN JUMPDEST PUSH2 0x317 PUSH1 0x4 DUP1 CALLDATASIZE SUB DUP2 ADD SWAP1 PUSH2 0x312 SWAP2 SWAP1 PUSH2 0x30EB JUMP JUMPDEST PUSH2 0x2464 JUMP JUMPDEST PUSH1 0x40 MLOAD PUSH2 0x324 SWAP2 SWAP1 PUSH2 0x3643 JUMP JUMPDEST PUSH1 0x40 MLOAD DUP1 SWAP2 SUB SWAP1 RETURN JUMPDEST CALLVALUE DUP1 ISZERO PUSH2 0x339 JUMPI PUSH1 0x0 DUP1 REVERT JUMPDEST POP PUSH2 0x354 PUSH1 0x4 DUP1 CALLDATASIZE SUB DUP2 ADD SWAP1 PUSH2 0x34F SWAP2 SWAP1 PUSH2 0x31B8 JUMP JUMPDEST PUSH2 0x265F JUMP JUMPDEST PUSH1 0x40 MLOAD PUSH2 0x363 SWAP4 SWAP3 SWAP2 SWAP1 PUSH2 0x3679 JUMP JUMPDEST PUSH1 0x40 MLOAD DUP1 SWAP2 SUB SWAP1 RETURN JUMPDEST PUSH1 0x0 DUP1 PUSH1 0x0 SWAP1 SLOAD SWAP1 PUSH2 0x100 EXP SWAP1 DIV PUSH20 0xFFFFFFFFFFFFFFFFFFFFFFFFFFFFFFFFFFFFFFFF AND PUSH20 0xFFFFFFFFFFFFFFFFFFFFFFFFFFFFFFFFFFFFFFFF AND CALLER PUSH20 0xFFFFFFFFFFFFFFFFFFFFFFFFFFFFFFFFFFFFFFFF AND EQ PUSH2 0x3FD JUMPI PUSH1 0x40 MLOAD PUSH32 0x8C379A000000000000000000000000000000000000000000000000000000000 DUP2 MSTORE PUSH1 0x4 ADD PUSH2 0x3F4 SWAP1 PUSH2 0x36BE JUMP JUMPDEST PUSH1 0x40 MLOAD DUP1 SWAP2 SUB SWAP1 REVERT JUMPDEST PUSH2 0x406 DUP3 PUSH2 0x2989 JUMP JUMPDEST PUSH2 0x445 JUMPI PUSH1 0x40 MLOAD PUSH32 0x8C379A000000000000000000000000000000000000000000000000000000000 DUP2 MSTORE PUSH1 0x4 ADD PUSH2 0x43C SWAP1 PUSH2 0x36FE JUMP JUMPDEST PUSH1 0x40 MLOAD DUP1 SWAP2 SUB SWAP1 REVERT JUMPDEST PUSH1 0x0 PUSH1 0x3 PUSH1 0x0 DUP5 DUP2 MSTORE PUSH1 0x20 ADD SWAP1 DUP2 MSTORE PUSH1 0x20 ADD PUSH1 0x0 KECCAK256 PUSH1 0x40 MLOAD DUP1 PUSH2 0x160 ADD PUSH1 0x40 MSTORE SWAP1 DUP2 PUSH1 0x0 DUP3 ADD DUP1 SLOAD PUSH2 0x476 SWAP1 PUSH2 0x3A1F JUMP JUMPDEST DUP1 PUSH1 0x1F ADD PUSH1 0x20 DUP1 SWAP2 DIV MUL PUSH1 0x20 ADD PUSH1 0x40 MLOAD SWAP1 DUP2 ADD PUSH1 0x40 MSTORE DUP1 SWAP3 SWAP2 SWAP1 DUP2 DUP2 MSTORE PUSH1 0x20 ADD DUP3 DUP1 SLOAD PUSH2 0x4A2 SWAP1 PUSH2 0x3A1F JUMP JUMPDEST DUP1 ISZERO PUSH2 0x4EF JUMPI DUP1 PUSH1 0x1F LT PUSH2 0x4C4 JUMPI PUSH2 0x100 DUP1 DUP4 SLOAD DIV MUL DUP4 MSTORE SWAP2 PUSH1 0x20 ADD SWAP2 PUSH2 0x4EF JUMP JUMPDEST DUP3 ADD SWAP2 SWAP1 PUSH1 0x0 MSTORE PUSH1 0x20 PUSH1 0x0 KECCAK256 SWAP1 JUMPDEST DUP2 SLOAD DUP2 MSTORE SWAP1 PUSH1 0x1 ADD SWAP1 PUSH1 0x20 ADD DUP1 DUP4 GT PUSH2 0x4D2 JUMPI DUP3 SWAP1 SUB PUSH1 0x1F AND DUP3 ADD SWAP2 JUMPDEST POP POP POP POP POP DUP2 MSTORE PUSH1 0x20 ADD PUSH1 0x1 DUP3 ADD DUP1 SLOAD PUSH2 0x508 SWAP1 PUSH2 0x3A1F JUMP JUMPDEST DUP1 PUSH1 0x1F ADD PUSH1 0x20 DUP1 SWAP2 DIV MUL PUSH1 0x20 ADD PUSH1 0x40 MLOAD SWAP1 DUP2 ADD PUSH1 0x40 MSTORE DUP1 SWAP3 SWAP2 SWAP1 DUP2 DUP2 MSTORE PUSH1 0x20 ADD DUP3 DUP1 SLOAD PUSH2 0x534 SWAP1 PUSH2 0x3A1F JUMP JUMPDEST DUP1 ISZERO PUSH2 0x581 JUMPI DUP1 PUSH1 0x1F LT PUSH2 0x556 JUMPI PUSH2 0x100 DUP1 DUP4 SLOAD DIV MUL DUP4 MSTORE SWAP2 PUSH1 0x20 ADD SWAP2 PUSH2 0x581 JUMP JUMPDEST DUP3 ADD SWAP2 SWAP1 PUSH1 0x0 MSTORE PUSH1 0x20 PUSH1 0x0 KECCAK256 SWAP1 JUMPDEST DUP2 SLOAD DUP2 MSTORE SWAP1 PUSH1 0x1 ADD SWAP1 PUSH1 0x20 ADD DUP1 DUP4 GT PUSH2 0x564 JUMPI DUP3 SWAP1 SUB PUSH1 0x1F AND DUP3 ADD SWAP2 JUMPDEST POP POP POP POP POP DUP2 MSTORE PUSH1 0x20 ADD PUSH1 0x2 DUP3 ADD DUP1 SLOAD PUSH2 0x59A SWAP1 PUSH2 0x3A1F JUMP JUMPDEST DUP1 PUSH1 0x1F ADD PUSH1 0x20 DUP1 SWAP2 DIV MUL PUSH1 0x20 ADD PUSH1 0x40 MLOAD SWAP1 DUP2 ADD PUSH1 0x40 MSTORE DUP1 SWAP3 SWAP2 SWAP1 DUP2 DUP2 MSTORE PUSH1 0x20 ADD DUP3 DUP1 SLOAD PUSH2 0x5C6 SWAP1 PUSH2 0x3A1F JUMP JUMPDEST DUP1 ISZERO PUSH2 0x613 JUMPI DUP1 PUSH1 0x1F LT PUSH2 0x5E8 JUMPI PUSH2 0x100 DUP1 DUP4 SLOAD DIV MUL DUP4 MSTORE SWAP2 PUSH1 0x20 ADD SWAP2 PUSH2 0x613 JUMP JUMPDEST DUP3 ADD SWAP2 SWAP1 PUSH1 0x0 MSTORE PUSH1 0x20 PUSH1 0x0 KECCAK256 SWAP1 JUMPDEST DUP2 SLOAD DUP2 MSTORE SWAP1 PUSH1 0x1 ADD SWAP1 PUSH1 0x20 ADD DUP1 DUP4 GT PUSH2 0x5F6 JUMPI DUP3 SWAP1 SUB PUSH1 0x1F AND DUP3 ADD SWAP2 JUMPDEST POP POP POP POP POP DUP2 MSTORE PUSH1 0x20 ADD PUSH1 0x3 DUP3 ADD SLOAD DUP2 MSTORE PUSH1 0x20 ADD PUSH1 0x4 DUP3 ADD SLOAD DUP2 MSTORE PUSH1 0x20 ADD PUSH1 0x5 DUP3 ADD SLOAD DUP2 MSTORE PUSH1 0x20 ADD PUSH1 0x6 DUP3 ADD SLOAD DUP2 MSTORE PUSH1 0x20 ADD PUSH1 0x7 DUP3 ADD SLOAD DUP2 MSTORE PUSH1 0x20 ADD PUSH1 0x8 DUP3 ADD PUSH1 0x0 SWAP1 SLOAD SWAP1 PUSH2 0x100 EXP SWAP1 DIV PUSH1 0xFF AND ISZERO ISZERO ISZERO ISZERO DUP2 MSTORE PUSH1 0x20 ADD PUSH1 0x8 DUP3 ADD PUSH1 0x1 SWAP1 SLOAD SWAP1 PUSH2 0x100 EXP SWAP1 DIV PUSH1 0xFF AND ISZERO ISZERO ISZERO ISZERO DUP2 MSTORE PUSH1 0x20 ADD PUSH1 0x8 DUP3 ADD PUSH1 0x2 SWAP1 SLOAD SWAP1 PUSH2 0x100 EXP SWAP1 DIV PUSH1 0xFF AND ISZERO ISZERO ISZERO ISZERO DUP2 MSTORE POP POP SWAP1 POP PUSH1 0x0 PUSH2 0x6F7 PUSH1 0xA DUP4 PUSH1 0xE0 ADD MLOAD DUP5 PUSH1 0xC0 ADD MLOAD DUP6 PUSH1 0x80 ADD MLOAD DUP7 PUSH1 0xA0 ADD MLOAD DUP8 PUSH1 0x60 ADD MLOAD PUSH2 0x6CB SWAP2 SWAP1 PUSH2 0x3876 JUMP JUMPDEST PUSH2 0x6D5 SWAP2 SWAP1 PUSH2 0x3876 JUMP JUMPDEST PUSH2 0x6DF SWAP2 SWAP1 PUSH2 0x3876 JUMP JUMPDEST PUSH2 0x6E9 SWAP2 SWAP1 PUSH2 0x3876 JUMP JUMPDEST PUSH2 0x29B6 SWAP1 SWAP2 SWAP1 PUSH4 0xFFFFFFFF AND JUMP JUMPDEST SWAP1 POP PUSH1 0x1 DUP3 PUSH2 0x140 ADD SWAP1 ISZERO ISZERO SWAP1 DUP2 ISZERO ISZERO DUP2 MSTORE POP ISZERO PUSH2 0x761 JUMPI PUSH1 0x0 DUP6 SWAP1 POP DUP1 PUSH20 0xFFFFFFFFFFFFFFFFFFFFFFFFFFFFFFFFFFFFFFFF AND PUSH2 0x8FC DUP4 SWAP1 DUP2 ISZERO MUL SWAP1 PUSH1 0x40 MLOAD PUSH1 0x0 PUSH1 0x40 MLOAD DUP1 DUP4 SUB DUP2 DUP6 DUP9 DUP9 CALL SWAP4 POP POP POP POP ISZERO DUP1 ISZERO PUSH2 0x75A JUMPI RETURNDATASIZE PUSH1 0x0 DUP1 RETURNDATACOPY RETURNDATASIZE PUSH1 0x0 REVERT JUMPDEST POP POP PUSH2 0x79C JUMP JUMPDEST PUSH1 0x40 MLOAD PUSH32 0x8C379A000000000000000000000000000000000000000000000000000000000 DUP2 MSTORE PUSH1 0x4 ADD PUSH2 0x793 SWAP1 PUSH2 0x375E JUMP JUMPDEST PUSH1 0x40 MLOAD DUP1 SWAP2 SUB SWAP1 REVERT JUMPDEST POP POP PUSH1 0x1 SWAP1 POP SWAP3 SWAP2 POP POP JUMP JUMPDEST PUSH1 0x0 DUP1 PUSH1 0x0 SWAP1 SLOAD SWAP1 PUSH2 0x100 EXP SWAP1 DIV PUSH20 0xFFFFFFFFFFFFFFFFFFFFFFFFFFFFFFFFFFFFFFFF AND PUSH20 0xFFFFFFFFFFFFFFFFFFFFFFFFFFFFFFFFFFFFFFFF AND CALLER PUSH20 0xFFFFFFFFFFFFFFFFFFFFFFFFFFFFFFFFFFFFFFFF AND EQ PUSH2 0x839 JUMPI PUSH1 0x40 MLOAD PUSH32 0x8C379A000000000000000000000000000000000000000000000000000000000 DUP2 MSTORE PUSH1 0x4 ADD PUSH2 0x830 SWAP1 PUSH2 0x36BE JUMP JUMPDEST PUSH1 0x40 MLOAD DUP1 SWAP2 SUB SWAP1 REVERT JUMPDEST PUSH2 0x842 DUP4 PUSH2 0x2989 JUMP JUMPDEST PUSH2 0x881 JUMPI PUSH1 0x40 MLOAD PUSH32 0x8C379A000000000000000000000000000000000000000000000000000000000 DUP2 MSTORE PUSH1 0x4 ADD PUSH2 0x878 SWAP1 PUSH2 0x36FE JUMP JUMPDEST PUSH1 0x40 MLOAD DUP1 SWAP2 SUB SWAP1 REVERT JUMPDEST PUSH1 0x0 PUSH1 0x3 PUSH1 0x0 DUP6 DUP2 MSTORE PUSH1 0x20 ADD SWAP1 DUP2 MSTORE PUSH1 0x20 ADD PUSH1 0x0 KECCAK256 PUSH1 0x40 MLOAD DUP1 PUSH2 0x160 ADD PUSH1 0x40 MSTORE SWAP1 DUP2 PUSH1 0x0 DUP3 ADD DUP1 SLOAD PUSH2 0x8B2 SWAP1 PUSH2 0x3A1F JUMP JUMPDEST DUP1 PUSH1 0x1F ADD PUSH1 0x20 DUP1 SWAP2 DIV MUL PUSH1 0x20 ADD PUSH1 0x40 MLOAD SWAP1 DUP2 ADD PUSH1 0x40 MSTORE DUP1 SWAP3 SWAP2 SWAP1 DUP2 DUP2 MSTORE PUSH1 0x20 ADD DUP3 DUP1 SLOAD PUSH2 0x8DE SWAP1 PUSH2 0x3A1F JUMP JUMPDEST DUP1 ISZERO PUSH2 0x92B JUMPI DUP1 PUSH1 0x1F LT PUSH2 0x900 JUMPI PUSH2 0x100 DUP1 DUP4 SLOAD DIV MUL DUP4 MSTORE SWAP2 PUSH1 0x20 ADD SWAP2 PUSH2 0x92B JUMP JUMPDEST DUP3 ADD SWAP2 SWAP1 PUSH1 0x0 MSTORE PUSH1 0x20 PUSH1 0x0 KECCAK256 SWAP1 JUMPDEST DUP2 SLOAD DUP2 MSTORE SWAP1 PUSH1 0x1 ADD SWAP1 PUSH1 0x20 ADD DUP1 DUP4 GT PUSH2 0x90E JUMPI DUP3 SWAP1 SUB PUSH1 0x1F AND DUP3 ADD SWAP2 JUMPDEST POP POP POP POP POP DUP2 MSTORE PUSH1 0x20 ADD PUSH1 0x1 DUP3 ADD DUP1 SLOAD PUSH2 0x944 SWAP1 PUSH2 0x3A1F JUMP JUMPDEST DUP1 PUSH1 0x1F ADD PUSH1 0x20 DUP1 SWAP2 DIV MUL PUSH1 0x20 ADD PUSH1 0x40 MLOAD SWAP1 DUP2 ADD PUSH1 0x40 MSTORE DUP1 SWAP3 SWAP2 SWAP1 DUP2 DUP2 MSTORE PUSH1 0x20 ADD DUP3 DUP1 SLOAD PUSH2 0x970 SWAP1 PUSH2 0x3A1F JUMP JUMPDEST DUP1 ISZERO PUSH2 0x9BD JUMPI DUP1 PUSH1 0x1F LT PUSH2 0x992 JUMPI PUSH2 0x100 DUP1 DUP4 SLOAD DIV MUL DUP4 MSTORE SWAP2 PUSH1 0x20 ADD SWAP2 PUSH2 0x9BD JUMP JUMPDEST DUP3 ADD SWAP2 SWAP1 PUSH1 0x0 MSTORE PUSH1 0x20 PUSH1 0x0 KECCAK256 SWAP1 JUMPDEST DUP2 SLOAD DUP2 MSTORE SWAP1 PUSH1 0x1 ADD SWAP1 PUSH1 0x20 ADD DUP1 DUP4 GT PUSH2 0x9A0 JUMPI DUP3 SWAP1 SUB PUSH1 0x1F AND DUP3 ADD SWAP2 JUMPDEST POP POP POP POP POP DUP2 MSTORE PUSH1 0x20 ADD PUSH1 0x2 DUP3 ADD DUP1 SLOAD PUSH2 0x9D6 SWAP1 PUSH2 0x3A1F JUMP JUMPDEST DUP1 PUSH1 0x1F ADD PUSH1 0x20 DUP1 SWAP2 DIV MUL PUSH1 0x20 ADD PUSH1 0x40 MLOAD SWAP1 DUP2 ADD PUSH1 0x40 MSTORE DUP1 SWAP3 SWAP2 SWAP1 DUP2 DUP2 MSTORE PUSH1 0x20 ADD DUP3 DUP1 SLOAD PUSH2 0xA02 SWAP1 PUSH2 0x3A1F JUMP JUMPDEST DUP1 ISZERO PUSH2 0xA4F JUMPI DUP1 PUSH1 0x1F LT PUSH2 0xA24 JUMPI PUSH2 0x100 DUP1 DUP4 SLOAD DIV MUL DUP4 MSTORE SWAP2 PUSH1 0x20 ADD SWAP2 PUSH2 0xA4F JUMP JUMPDEST DUP3 ADD SWAP2 SWAP1 PUSH1 0x0 MSTORE PUSH1 0x20 PUSH1 0x0 KECCAK256 SWAP1 JUMPDEST DUP2 SLOAD DUP2 MSTORE SWAP1 PUSH1 0x1 ADD SWAP1 PUSH1 0x20 ADD DUP1 DUP4 GT PUSH2 0xA32 JUMPI DUP3 SWAP1 SUB PUSH1 0x1F AND DUP3 ADD SWAP2 JUMPDEST POP POP POP POP POP DUP2 MSTORE PUSH1 0x20 ADD PUSH1 0x3 DUP3 ADD SLOAD DUP2 MSTORE PUSH1 0x20 ADD PUSH1 0x4 DUP3 ADD SLOAD DUP2 MSTORE PUSH1 0x20 ADD PUSH1 0x5 DUP3 ADD SLOAD DUP2 MSTORE PUSH1 0x20 ADD PUSH1 0x6 DUP3 ADD SLOAD DUP2 MSTORE PUSH1 0x20 ADD PUSH1 0x7 DUP3 ADD SLOAD DUP2 MSTORE PUSH1 0x20 ADD PUSH1 0x8 DUP3 ADD PUSH1 0x0 SWAP1 SLOAD SWAP1 PUSH2 0x100 EXP SWAP1 DIV PUSH1 0xFF AND ISZERO ISZERO ISZERO ISZERO DUP2 MSTORE PUSH1 0x20 ADD PUSH1 0x8 DUP3 ADD PUSH1 0x1 SWAP1 SLOAD SWAP1 PUSH2 0x100 EXP SWAP1 DIV PUSH1 0xFF AND ISZERO ISZERO ISZERO ISZERO DUP2 MSTORE PUSH1 0x20 ADD PUSH1 0x8 DUP3 ADD PUSH1 0x2 SWAP1 SLOAD SWAP1 PUSH2 0x100 EXP SWAP1 DIV PUSH1 0xFF AND ISZERO ISZERO ISZERO ISZERO DUP2 MSTORE POP POP SWAP1 POP PUSH1 0x0 DUP2 PUSH1 0xE0 ADD MLOAD GT ISZERO PUSH2 0xB25 JUMPI PUSH1 0x40 MLOAD PUSH32 0x8C379A000000000000000000000000000000000000000000000000000000000 DUP2 MSTORE PUSH1 0x4 ADD PUSH2 0xB1C SWAP1 PUSH2 0x371E JUMP JUMPDEST PUSH1 0x40 MLOAD DUP1 SWAP2 SUB SWAP1 REVERT JUMPDEST DUP3 PUSH1 0x1 SLOAD GT ISZERO PUSH2 0xB6A JUMPI PUSH1 0x40 MLOAD PUSH32 0x8C379A000000000000000000000000000000000000000000000000000000000 DUP2 MSTORE PUSH1 0x4 ADD PUSH2 0xB61 SWAP1 PUSH2 0x379E JUMP JUMPDEST PUSH1 0x40 MLOAD DUP1 SWAP2 SUB SWAP1 REVERT JUMPDEST DUP3 DUP2 PUSH1 0xE0 ADD DUP2 DUP2 MLOAD PUSH2 0xB7C SWAP2 SWAP1 PUSH2 0x3876 JUMP JUMPDEST SWAP2 POP DUP2 DUP2 MSTORE POP POP DUP3 PUSH1 0x1 PUSH1 0x0 DUP3 DUP3 SLOAD PUSH2 0xB95 SWAP2 SWAP1 PUSH2 0x3957 JUMP JUMPDEST SWAP3 POP POP DUP2 SWAP1 SSTORE POP PUSH1 0x1 SWAP2 POP POP SWAP3 SWAP2 POP POP JUMP JUMPDEST PUSH1 0x0 DUP1 PUSH1 0x0 SWAP1 SLOAD SWAP1 PUSH2 0x100 EXP SWAP1 DIV PUSH20 0xFFFFFFFFFFFFFFFFFFFFFFFFFFFFFFFFFFFFFFFF AND PUSH20 0xFFFFFFFFFFFFFFFFFFFFFFFFFFFFFFFFFFFFFFFF AND CALLER PUSH20 0xFFFFFFFFFFFFFFFFFFFFFFFFFFFFFFFFFFFFFFFF AND EQ PUSH2 0xC38 JUMPI PUSH1 0x40 MLOAD PUSH32 0x8C379A000000000000000000000000000000000000000000000000000000000 DUP2 MSTORE PUSH1 0x4 ADD PUSH2 0xC2F SWAP1 PUSH2 0x36BE JUMP JUMPDEST PUSH1 0x40 MLOAD DUP1 SWAP2 SUB SWAP1 REVERT JUMPDEST PUSH1 0x0 PUSH2 0xC44 DUP7 DUP7 PUSH2 0x29DE JUMP JUMPDEST SWAP1 POP PUSH1 0x0 PUSH2 0xC52 DUP3 DUP7 PUSH2 0x29DE JUMP JUMPDEST SWAP1 POP PUSH1 0x0 DUP2 PUSH1 0x40 MLOAD PUSH1 0x20 ADD PUSH2 0xC67 SWAP2 SWAP1 PUSH2 0x35E8 JUMP JUMPDEST PUSH1 0x40 MLOAD PUSH1 0x20 DUP2 DUP4 SUB SUB DUP2 MSTORE SWAP1 PUSH1 0x40 MSTORE DUP1 MLOAD SWAP1 PUSH1 0x20 ADD KECCAK256 SWAP1 POP PUSH2 0xC88 DUP2 PUSH2 0x2989 JUMP JUMPDEST ISZERO PUSH2 0xCC8 JUMPI PUSH1 0x40 MLOAD PUSH32 0x8C379A000000000000000000000000000000000000000000000000000000000 DUP2 MSTORE PUSH1 0x4 ADD PUSH2 0xCBF SWAP1 PUSH2 0x373E JUMP JUMPDEST PUSH1 0x40 MLOAD DUP1 SWAP2 SUB SWAP1 REVERT JUMPDEST PUSH1 0x1 PUSH1 0x3 PUSH1 0x0 DUP4 DUP2 MSTORE PUSH1 0x20 ADD SWAP1 DUP2 MSTORE PUSH1 0x20 ADD PUSH1 0x0 KECCAK256 PUSH1 0x8 ADD PUSH1 0x1 PUSH2 0x100 EXP DUP2 SLOAD DUP2 PUSH1 0xFF MUL NOT AND SWAP1 DUP4 ISZERO ISZERO MUL OR SWAP1 SSTORE POP DUP8 PUSH1 0x3 PUSH1 0x0 DUP4 DUP2 MSTORE PUSH1 0x20 ADD SWAP1 DUP2 MSTORE PUSH1 0x20 ADD PUSH1 0x0 KECCAK256 PUSH1 0x0 ADD SWAP1 DUP1 MLOAD SWAP1 PUSH1 0x20 ADD SWAP1 PUSH2 0xD21 SWAP3 SWAP2 SWAP1 PUSH2 0x2F15 JUMP JUMPDEST POP DUP7 PUSH1 0x3 PUSH1 0x0 DUP4 DUP2 MSTORE PUSH1 0x20 ADD SWAP1 DUP2 MSTORE PUSH1 0x20 ADD PUSH1 0x0 KECCAK256 PUSH1 0x1 ADD SWAP1 DUP1 MLOAD SWAP1 PUSH1 0x20 ADD SWAP1 PUSH2 0xD4C SWAP3 SWAP2 SWAP1 PUSH2 0x2F15 JUMP JUMPDEST POP DUP6 PUSH1 0x3 PUSH1 0x0 DUP4 DUP2 MSTORE PUSH1 0x20 ADD SWAP1 DUP2 MSTORE PUSH1 0x20 ADD PUSH1 0x0 KECCAK256 PUSH1 0x2 ADD SWAP1 DUP1 MLOAD SWAP1 PUSH1 0x20 ADD SWAP1 PUSH2 0xD77 SWAP3 SWAP2 SWAP1 PUSH2 0x2F15 JUMP JUMPDEST POP PUSH1 0x0 PUSH1 0x3 PUSH1 0x0 DUP4 DUP2 MSTORE PUSH1 0x20 ADD SWAP1 DUP2 MSTORE PUSH1 0x20 ADD PUSH1 0x0 KECCAK256 PUSH1 0x3 ADD DUP2 SWAP1 SSTORE POP PUSH1 0x0 PUSH1 0x3 PUSH1 0x0 DUP4 DUP2 MSTORE PUSH1 0x20 ADD SWAP1 DUP2 MSTORE PUSH1 0x20 ADD PUSH1 0x0 KECCAK256 PUSH1 0x4 ADD DUP2 SWAP1 SSTORE POP PUSH1 0x0 PUSH1 0x3 PUSH1 0x0 DUP4 DUP2 MSTORE PUSH1 0x20 ADD SWAP1 DUP2 MSTORE PUSH1 0x20 ADD PUSH1 0x0 KECCAK256 PUSH1 0x5 ADD DUP2 SWAP1 SSTORE POP PUSH1 0x0 PUSH1 0x3 PUSH1 0x0 DUP4 DUP2 MSTORE PUSH1 0x20 ADD SWAP1 DUP2 MSTORE PUSH1 0x20 ADD PUSH1 0x0 KECCAK256 PUSH1 0x6 ADD DUP2 SWAP1 SSTORE POP PUSH1 0x0 PUSH1 0x3 PUSH1 0x0 DUP4 DUP2 MSTORE PUSH1 0x20 ADD SWAP1 DUP2 MSTORE PUSH1 0x20 ADD PUSH1 0x0 KECCAK256 PUSH1 0x7 ADD DUP2 SWAP1 SSTORE POP DUP5 PUSH1 0x3 PUSH1 0x0 DUP4 DUP2 MSTORE PUSH1 0x20 ADD SWAP1 DUP2 MSTORE PUSH1 0x20 ADD PUSH1 0x0 KECCAK256 PUSH1 0x8 ADD PUSH1 0x0 PUSH2 0x100 EXP DUP2 SLOAD DUP2 PUSH1 0xFF MUL NOT AND SWAP1 DUP4 ISZERO ISZERO MUL OR SWAP1 SSTORE POP PUSH1 0x0 PUSH1 0x3 PUSH1 0x0 DUP4 DUP2 MSTORE PUSH1 0x20 ADD SWAP1 DUP2 MSTORE PUSH1 0x20 ADD PUSH1 0x0 KECCAK256 PUSH1 0x8 ADD PUSH1 0x2 PUSH2 0x100 EXP DUP2 SLOAD DUP2 PUSH1 0xFF MUL NOT AND SWAP1 DUP4 ISZERO ISZERO MUL OR SWAP1 SSTORE POP DUP1 SWAP4 POP POP POP POP SWAP5 SWAP4 POP POP POP POP JUMP JUMPDEST PUSH1 0x0 DUP1 PUSH1 0x0 SWAP1 SLOAD SWAP1 PUSH2 0x100 EXP SWAP1 DIV PUSH20 0xFFFFFFFFFFFFFFFFFFFFFFFFFFFFFFFFFFFFFFFF AND PUSH20 0xFFFFFFFFFFFFFFFFFFFFFFFFFFFFFFFFFFFFFFFF AND CALLER PUSH20 0xFFFFFFFFFFFFFFFFFFFFFFFFFFFFFFFFFFFFFFFF AND EQ PUSH2 0xF00 JUMPI PUSH1 0x40 MLOAD PUSH32 0x8C379A000000000000000000000000000000000000000000000000000000000 DUP2 MSTORE PUSH1 0x4 ADD PUSH2 0xEF7 SWAP1 PUSH2 0x36BE JUMP JUMPDEST PUSH1 0x40 MLOAD DUP1 SWAP2 SUB SWAP1 REVERT JUMPDEST PUSH1 0x1 SLOAD SWAP1 POP SWAP1 JUMP JUMPDEST PUSH1 0x0 DUP1 PUSH1 0x0 SWAP1 SLOAD SWAP1 PUSH2 0x100 EXP SWAP1 DIV PUSH20 0xFFFFFFFFFFFFFFFFFFFFFFFFFFFFFFFFFFFFFFFF AND PUSH20 0xFFFFFFFFFFFFFFFFFFFFFFFFFFFFFFFFFFFFFFFF AND CALLER PUSH20 0xFFFFFFFFFFFFFFFFFFFFFFFFFFFFFFFFFFFFFFFF AND EQ PUSH2 0xF99 JUMPI PUSH1 0x40 MLOAD PUSH32 0x8C379A000000000000000000000000000000000000000000000000000000000 DUP2 MSTORE PUSH1 0x4 ADD PUSH2 0xF90 SWAP1 PUSH2 0x36BE JUMP JUMPDEST PUSH1 0x40 MLOAD DUP1 SWAP2 SUB SWAP1 REVERT JUMPDEST PUSH2 0xFA2 DUP3 PUSH2 0x2989 JUMP JUMPDEST PUSH2 0xFE1 JUMPI PUSH1 0x40 MLOAD PUSH32 0x8C379A000000000000000000000000000000000000000000000000000000000 DUP2 MSTORE PUSH1 0x4 ADD PUSH2 0xFD8 SWAP1 PUSH2 0x36FE JUMP JUMPDEST PUSH1 0x40 MLOAD DUP1 SWAP2 SUB SWAP1 REVERT JUMPDEST PUSH1 0x0 PUSH1 0x3 PUSH1 0x0 DUP5 DUP2 MSTORE PUSH1 0x20 ADD SWAP1 DUP2 MSTORE PUSH1 0x20 ADD PUSH1 0x0 KECCAK256 PUSH1 0x40 MLOAD DUP1 PUSH2 0x160 ADD PUSH1 0x40 MSTORE SWAP1 DUP2 PUSH1 0x0 DUP3 ADD DUP1 SLOAD PUSH2 0x1012 SWAP1 PUSH2 0x3A1F JUMP JUMPDEST DUP1 PUSH1 0x1F ADD PUSH1 0x20 DUP1 SWAP2 DIV MUL PUSH1 0x20 ADD PUSH1 0x40 MLOAD SWAP1 DUP2 ADD PUSH1 0x40 MSTORE DUP1 SWAP3 SWAP2 SWAP1 DUP2 DUP2 MSTORE PUSH1 0x20 ADD DUP3 DUP1 SLOAD PUSH2 0x103E SWAP1 PUSH2 0x3A1F JUMP JUMPDEST DUP1 ISZERO PUSH2 0x108B JUMPI DUP1 PUSH1 0x1F LT PUSH2 0x1060 JUMPI PUSH2 0x100 DUP1 DUP4 SLOAD DIV MUL DUP4 MSTORE SWAP2 PUSH1 0x20 ADD SWAP2 PUSH2 0x108B JUMP JUMPDEST DUP3 ADD SWAP2 SWAP1 PUSH1 0x0 MSTORE PUSH1 0x20 PUSH1 0x0 KECCAK256 SWAP1 JUMPDEST DUP2 SLOAD DUP2 MSTORE SWAP1 PUSH1 0x1 ADD SWAP1 PUSH1 0x20 ADD DUP1 DUP4 GT PUSH2 0x106E JUMPI DUP3 SWAP1 SUB PUSH1 0x1F AND DUP3 ADD SWAP2 JUMPDEST POP POP POP POP POP DUP2 MSTORE PUSH1 0x20 ADD PUSH1 0x1 DUP3 ADD DUP1 SLOAD PUSH2 0x10A4 SWAP1 PUSH2 0x3A1F JUMP JUMPDEST DUP1 PUSH1 0x1F ADD PUSH1 0x20 DUP1 SWAP2 DIV MUL PUSH1 0x20 ADD PUSH1 0x40 MLOAD SWAP1 DUP2 ADD PUSH1 0x40 MSTORE DUP1 SWAP3 SWAP2 SWAP1 DUP2 DUP2 MSTORE PUSH1 0x20 ADD DUP3 DUP1 SLOAD PUSH2 0x10D0 SWAP1 PUSH2 0x3A1F JUMP JUMPDEST DUP1 ISZERO PUSH2 0x111D JUMPI DUP1 PUSH1 0x1F LT PUSH2 0x10F2 JUMPI PUSH2 0x100 DUP1 DUP4 SLOAD DIV MUL DUP4 MSTORE SWAP2 PUSH1 0x20 ADD SWAP2 PUSH2 0x111D JUMP JUMPDEST DUP3 ADD SWAP2 SWAP1 PUSH1 0x0 MSTORE PUSH1 0x20 PUSH1 0x0 KECCAK256 SWAP1 JUMPDEST DUP2 SLOAD DUP2 MSTORE SWAP1 PUSH1 0x1 ADD SWAP1 PUSH1 0x20 ADD DUP1 DUP4 GT PUSH2 0x1100 JUMPI DUP3 SWAP1 SUB PUSH1 0x1F AND DUP3 ADD SWAP2 JUMPDEST POP POP POP POP POP DUP2 MSTORE PUSH1 0x20 ADD PUSH1 0x2 DUP3 ADD DUP1 SLOAD PUSH2 0x1136 SWAP1 PUSH2 0x3A1F JUMP JUMPDEST DUP1 PUSH1 0x1F ADD PUSH1 0x20 DUP1 SWAP2 DIV MUL PUSH1 0x20 ADD PUSH1 0x40 MLOAD SWAP1 DUP2 ADD PUSH1 0x40 MSTORE DUP1 SWAP3 SWAP2 SWAP1 DUP2 DUP2 MSTORE PUSH1 0x20 ADD DUP3 DUP1 SLOAD PUSH2 0x1162 SWAP1 PUSH2 0x3A1F JUMP JUMPDEST DUP1 ISZERO PUSH2 0x11AF JUMPI DUP1 PUSH1 0x1F LT PUSH2 0x1184 JUMPI PUSH2 0x100 DUP1 DUP4 SLOAD DIV MUL DUP4 MSTORE SWAP2 PUSH1 0x20 ADD SWAP2 PUSH2 0x11AF JUMP JUMPDEST DUP3 ADD SWAP2 SWAP1 PUSH1 0x0 MSTORE PUSH1 0x20 PUSH1 0x0 KECCAK256 SWAP1 JUMPDEST DUP2 SLOAD DUP2 MSTORE SWAP1 PUSH1 0x1 ADD SWAP1 PUSH1 0x20 ADD DUP1 DUP4 GT PUSH2 0x1192 JUMPI DUP3 SWAP1 SUB PUSH1 0x1F AND DUP3 ADD SWAP2 JUMPDEST POP POP POP POP POP DUP2 MSTORE PUSH1 0x20 ADD PUSH1 0x3 DUP3 ADD SLOAD DUP2 MSTORE PUSH1 0x20 ADD PUSH1 0x4 DUP3 ADD SLOAD DUP2 MSTORE PUSH1 0x20 ADD PUSH1 0x5 DUP3 ADD SLOAD DUP2 MSTORE PUSH1 0x20 ADD PUSH1 0x6 DUP3 ADD SLOAD DUP2 MSTORE PUSH1 0x20 ADD PUSH1 0x7 DUP3 ADD SLOAD DUP2 MSTORE PUSH1 0x20 ADD PUSH1 0x8 DUP3 ADD PUSH1 0x0 SWAP1 SLOAD SWAP1 PUSH2 0x100 EXP SWAP1 DIV PUSH1 0xFF AND ISZERO ISZERO ISZERO ISZERO DUP2 MSTORE PUSH1 0x20 ADD PUSH1 0x8 DUP3 ADD PUSH1 0x1 SWAP1 SLOAD SWAP1 PUSH2 0x100 EXP SWAP1 DIV PUSH1 0xFF AND ISZERO ISZERO ISZERO ISZERO DUP2 MSTORE PUSH1 0x20 ADD PUSH1 0x8 DUP3 ADD PUSH1 0x2 SWAP1 SLOAD SWAP1 PUSH2 0x100 EXP SWAP1 DIV PUSH1 0xFF AND ISZERO ISZERO ISZERO ISZERO DUP2 MSTORE POP POP SWAP1 POP PUSH1 0x0 PUSH2 0x1293 PUSH1 0xA DUP4 PUSH1 0xE0 ADD MLOAD DUP5 PUSH1 0xC0 ADD MLOAD DUP6 PUSH1 0x80 ADD MLOAD DUP7 PUSH1 0xA0 ADD MLOAD DUP8 PUSH1 0x60 ADD MLOAD PUSH2 0x1267 SWAP2 SWAP1 PUSH2 0x3876 JUMP JUMPDEST PUSH2 0x1271 SWAP2 SWAP1 PUSH2 0x3876 JUMP JUMPDEST PUSH2 0x127B SWAP2 SWAP1 PUSH2 0x3876 JUMP JUMPDEST PUSH2 0x1285 SWAP2 SWAP1 PUSH2 0x3876 JUMP JUMPDEST PUSH2 0x29B6 SWAP1 SWAP2 SWAP1 PUSH4 0xFFFFFFFF AND JUMP JUMPDEST SWAP1 POP DUP1 SWAP3 POP POP POP SWAP2 SWAP1 POP JUMP JUMPDEST PUSH1 0x0 PUSH2 0x12AA DUP6 PUSH2 0x2989 JUMP JUMPDEST PUSH2 0x12E9 JUMPI PUSH1 0x40 MLOAD PUSH32 0x8C379A000000000000000000000000000000000000000000000000000000000 DUP2 MSTORE PUSH1 0x4 ADD PUSH2 0x12E0 SWAP1 PUSH2 0x36FE JUMP JUMPDEST PUSH1 0x40 MLOAD DUP1 SWAP2 SUB SWAP1 REVERT JUMPDEST DUP6 PUSH1 0x2 PUSH1 0x0 DUP10 PUSH20 0xFFFFFFFFFFFFFFFFFFFFFFFFFFFFFFFFFFFFFFFF AND PUSH20 0xFFFFFFFFFFFFFFFFFFFFFFFFFFFFFFFFFFFFFFFF AND DUP2 MSTORE PUSH1 0x20 ADD SWAP1 DUP2 MSTORE PUSH1 0x20 ADD PUSH1 0x0 KECCAK256 SLOAD LT ISZERO PUSH2 0x136B JUMPI PUSH1 0x40 MLOAD PUSH32 0x8C379A000000000000000000000000000000000000000000000000000000000 DUP2 MSTORE PUSH1 0x4 ADD PUSH2 0x1362 SWAP1 PUSH2 0x377E JUMP JUMPDEST PUSH1 0x40 MLOAD DUP1 SWAP2 SUB SWAP1 REVERT JUMPDEST PUSH1 0x0 PUSH1 0x3 PUSH1 0x0 DUP8 DUP2 MSTORE PUSH1 0x20 ADD SWAP1 DUP2 MSTORE PUSH1 0x20 ADD PUSH1 0x0 KECCAK256 PUSH1 0x40 MLOAD DUP1 PUSH2 0x160 ADD PUSH1 0x40 MSTORE SWAP1 DUP2 PUSH1 0x0 DUP3 ADD DUP1 SLOAD PUSH2 0x139C SWAP1 PUSH2 0x3A1F JUMP JUMPDEST DUP1 PUSH1 0x1F ADD PUSH1 0x20 DUP1 SWAP2 DIV MUL PUSH1 0x20 ADD PUSH1 0x40 MLOAD SWAP1 DUP2 ADD PUSH1 0x40 MSTORE DUP1 SWAP3 SWAP2 SWAP1 DUP2 DUP2 MSTORE PUSH1 0x20 ADD DUP3 DUP1 SLOAD PUSH2 0x13C8 SWAP1 PUSH2 0x3A1F JUMP JUMPDEST DUP1 ISZERO PUSH2 0x1415 JUMPI DUP1 PUSH1 0x1F LT PUSH2 0x13EA JUMPI PUSH2 0x100 DUP1 DUP4 SLOAD DIV MUL DUP4 MSTORE SWAP2 PUSH1 0x20 ADD SWAP2 PUSH2 0x1415 JUMP JUMPDEST DUP3 ADD SWAP2 SWAP1 PUSH1 0x0 MSTORE PUSH1 0x20 PUSH1 0x0 KECCAK256 SWAP1 JUMPDEST DUP2 SLOAD DUP2 MSTORE SWAP1 PUSH1 0x1 ADD SWAP1 PUSH1 0x20 ADD DUP1 DUP4 GT PUSH2 0x13F8 JUMPI DUP3 SWAP1 SUB PUSH1 0x1F AND DUP3 ADD SWAP2 JUMPDEST POP POP POP POP POP DUP2 MSTORE PUSH1 0x20 ADD PUSH1 0x1 DUP3 ADD DUP1 SLOAD PUSH2 0x142E SWAP1 PUSH2 0x3A1F JUMP JUMPDEST DUP1 PUSH1 0x1F ADD PUSH1 0x20 DUP1 SWAP2 DIV MUL PUSH1 0x20 ADD PUSH1 0x40 MLOAD SWAP1 DUP2 ADD PUSH1 0x40 MSTORE DUP1 SWAP3 SWAP2 SWAP1 DUP2 DUP2 MSTORE PUSH1 0x20 ADD DUP3 DUP1 SLOAD PUSH2 0x145A SWAP1 PUSH2 0x3A1F JUMP JUMPDEST DUP1 ISZERO PUSH2 0x14A7 JUMPI DUP1 PUSH1 0x1F LT PUSH2 0x147C JUMPI PUSH2 0x100 DUP1 DUP4 SLOAD DIV MUL DUP4 MSTORE SWAP2 PUSH1 0x20 ADD SWAP2 PUSH2 0x14A7 JUMP JUMPDEST DUP3 ADD SWAP2 SWAP1 PUSH1 0x0 MSTORE PUSH1 0x20 PUSH1 0x0 KECCAK256 SWAP1 JUMPDEST DUP2 SLOAD DUP2 MSTORE SWAP1 PUSH1 0x1 ADD SWAP1 PUSH1 0x20 ADD DUP1 DUP4 GT PUSH2 0x148A JUMPI DUP3 SWAP1 SUB PUSH1 0x1F AND DUP3 ADD SWAP2 JUMPDEST POP POP POP POP POP DUP2 MSTORE PUSH1 0x20 ADD PUSH1 0x2 DUP3 ADD DUP1 SLOAD PUSH2 0x14C0 SWAP1 PUSH2 0x3A1F JUMP JUMPDEST DUP1 PUSH1 0x1F ADD PUSH1 0x20 DUP1 SWAP2 DIV MUL PUSH1 0x20 ADD PUSH1 0x40 MLOAD SWAP1 DUP2 ADD PUSH1 0x40 MSTORE DUP1 SWAP3 SWAP2 SWAP1 DUP2 DUP2 MSTORE PUSH1 0x20 ADD DUP3 DUP1 SLOAD PUSH2 0x14EC SWAP1 PUSH2 0x3A1F JUMP JUMPDEST DUP1 ISZERO PUSH2 0x1539 JUMPI DUP1 PUSH1 0x1F LT PUSH2 0x150E JUMPI PUSH2 0x100 DUP1 DUP4 SLOAD DIV MUL DUP4 MSTORE SWAP2 PUSH1 0x20 ADD SWAP2 PUSH2 0x1539 JUMP JUMPDEST DUP3 ADD SWAP2 SWAP1 PUSH1 0x0 MSTORE PUSH1 0x20 PUSH1 0x0 KECCAK256 SWAP1 JUMPDEST DUP2 SLOAD DUP2 MSTORE SWAP1 PUSH1 0x1 ADD SWAP1 PUSH1 0x20 ADD DUP1 DUP4 GT PUSH2 0x151C JUMPI DUP3 SWAP1 SUB PUSH1 0x1F AND DUP3 ADD SWAP2 JUMPDEST POP POP POP POP POP DUP2 MSTORE PUSH1 0x20 ADD PUSH1 0x3 DUP3 ADD SLOAD DUP2 MSTORE PUSH1 0x20 ADD PUSH1 0x4 DUP3 ADD SLOAD DUP2 MSTORE PUSH1 0x20 ADD PUSH1 0x5 DUP3 ADD SLOAD DUP2 MSTORE PUSH1 0x20 ADD PUSH1 0x6 DUP3 ADD SLOAD DUP2 MSTORE PUSH1 0x20 ADD PUSH1 0x7 DUP3 ADD SLOAD DUP2 MSTORE PUSH1 0x20 ADD PUSH1 0x8 DUP3 ADD PUSH1 0x0 SWAP1 SLOAD SWAP1 PUSH2 0x100 EXP SWAP1 DIV PUSH1 0xFF AND ISZERO ISZERO ISZERO ISZERO DUP2 MSTORE PUSH1 0x20 ADD PUSH1 0x8 DUP3 ADD PUSH1 0x1 SWAP1 SLOAD SWAP1 PUSH2 0x100 EXP SWAP1 DIV PUSH1 0xFF AND ISZERO ISZERO ISZERO ISZERO DUP2 MSTORE PUSH1 0x20 ADD PUSH1 0x8 DUP3 ADD PUSH1 0x2 SWAP1 SLOAD SWAP1 PUSH2 0x100 EXP SWAP1 DIV PUSH1 0xFF AND ISZERO ISZERO ISZERO ISZERO DUP2 MSTORE POP POP SWAP1 POP PUSH1 0x0 PUSH2 0x15E3 PUSH2 0x15D5 DUP8 PUSH2 0x2B74 JUMP JUMPDEST PUSH2 0x15DE DUP8 PUSH2 0x2B74 JUMP JUMPDEST PUSH2 0x29DE JUMP JUMPDEST SWAP1 POP PUSH1 0x0 PUSH2 0x15F9 PUSH2 0x15F3 DUP10 PUSH2 0x2BA5 JUMP JUMPDEST DUP4 PUSH2 0x29DE JUMP JUMPDEST SWAP1 POP PUSH1 0x0 PUSH1 0x40 MLOAD DUP1 PUSH1 0xE0 ADD PUSH1 0x40 MSTORE DUP1 DUP12 DUP2 MSTORE PUSH1 0x20 ADD DUP8 DUP2 MSTORE PUSH1 0x20 ADD DUP10 DUP2 MSTORE PUSH1 0x20 ADD DUP9 DUP2 MSTORE PUSH1 0x20 ADD DUP13 PUSH20 0xFFFFFFFFFFFFFFFFFFFFFFFFFFFFFFFFFFFFFFFF AND DUP2 MSTORE PUSH1 0x20 ADD DUP4 DUP2 MSTORE PUSH1 0x20 ADD PUSH1 0x0 ISZERO ISZERO DUP2 MSTORE POP SWAP1 POP DUP9 PUSH1 0x4 PUSH1 0x0 DUP12 DUP2 MSTORE PUSH1 0x20 ADD SWAP1 DUP2 MSTORE PUSH1 0x20 ADD PUSH1 0x0 KECCAK256 PUSH1 0x1 ADD DUP2 SWAP1 SSTORE POP PUSH1 0x4 PUSH1 0x0 DUP11 DUP2 MSTORE PUSH1 0x20 ADD SWAP1 DUP2 MSTORE PUSH1 0x20 ADD PUSH1 0x0 KECCAK256 PUSH1 0x0 ADD DUP2 SWAP1 DUP1 PUSH1 0x1 DUP2 SLOAD ADD DUP1 DUP3 SSTORE DUP1 SWAP2 POP POP PUSH1 0x1 SWAP1 SUB SWAP1 PUSH1 0x0 MSTORE PUSH1 0x20 PUSH1 0x0 KECCAK256 SWAP1 PUSH1 0x7 MUL ADD PUSH1 0x0 SWAP1 SWAP2 SWAP1 SWAP2 SWAP1 SWAP2 POP PUSH1 0x0 DUP3 ADD MLOAD DUP2 PUSH1 0x0 ADD SSTORE PUSH1 0x20 DUP3 ADD MLOAD DUP2 PUSH1 0x1 ADD SSTORE PUSH1 0x40 DUP3 ADD MLOAD DUP2 PUSH1 0x2 ADD SSTORE PUSH1 0x60 DUP3 ADD MLOAD DUP2 PUSH1 0x3 ADD SSTORE PUSH1 0x80 DUP3 ADD MLOAD DUP2 PUSH1 0x4 ADD PUSH1 0x0 PUSH2 0x100 EXP DUP2 SLOAD DUP2 PUSH20 0xFFFFFFFFFFFFFFFFFFFFFFFFFFFFFFFFFFFFFFFF MUL NOT AND SWAP1 DUP4 PUSH20 0xFFFFFFFFFFFFFFFFFFFFFFFFFFFFFFFFFFFFFFFF AND MUL OR SWAP1 SSTORE POP PUSH1 0xA0 DUP3 ADD MLOAD DUP2 PUSH1 0x5 ADD SWAP1 DUP1 MLOAD SWAP1 PUSH1 0x20 ADD SWAP1 PUSH2 0x1731 SWAP3 SWAP2 SWAP1 PUSH2 0x2F15 JUMP JUMPDEST POP PUSH1 0xC0 DUP3 ADD MLOAD DUP2 PUSH1 0x6 ADD PUSH1 0x0 PUSH2 0x100 EXP DUP2 SLOAD DUP2 PUSH1 0xFF MUL NOT AND SWAP1 DUP4 ISZERO ISZERO MUL OR SWAP1 SSTORE POP POP POP DUP11 PUSH1 0x6 PUSH1 0x0 DUP14 PUSH20 0xFFFFFFFFFFFFFFFFFFFFFFFFFFFFFFFFFFFFFFFF AND PUSH20 0xFFFFFFFFFFFFFFFFFFFFFFFFFFFFFFFFFFFFFFFF AND DUP2 MSTORE PUSH1 0x20 ADD SWAP1 DUP2 MSTORE PUSH1 0x20 ADD PUSH1 0x0 KECCAK256 PUSH1 0x1 ADD PUSH1 0x0 PUSH2 0x100 EXP DUP2 SLOAD DUP2 PUSH20 0xFFFFFFFFFFFFFFFFFFFFFFFFFFFFFFFFFFFFFFFF MUL NOT AND SWAP1 DUP4 PUSH20 0xFFFFFFFFFFFFFFFFFFFFFFFFFFFFFFFFFFFFFFFF AND MUL OR SWAP1 SSTORE POP PUSH1 0x4 PUSH1 0x0 DUP11 DUP2 MSTORE PUSH1 0x20 ADD SWAP1 DUP2 MSTORE PUSH1 0x20 ADD PUSH1 0x0 KECCAK256 PUSH1 0x0 ADD DUP2 SWAP1 DUP1 PUSH1 0x1 DUP2 SLOAD ADD DUP1 DUP3 SSTORE DUP1 SWAP2 POP POP PUSH1 0x1 SWAP1 SUB SWAP1 PUSH1 0x0 MSTORE PUSH1 0x20 PUSH1 0x0 KECCAK256 SWAP1 PUSH1 0x7 MUL ADD PUSH1 0x0 SWAP1 SWAP2 SWAP1 SWAP2 SWAP1 SWAP2 POP PUSH1 0x0 DUP3 ADD MLOAD DUP2 PUSH1 0x0 ADD SSTORE PUSH1 0x20 DUP3 ADD MLOAD DUP2 PUSH1 0x1 ADD SSTORE PUSH1 0x40 DUP3 ADD MLOAD DUP2 PUSH1 0x2 ADD SSTORE PUSH1 0x60 DUP3 ADD MLOAD DUP2 PUSH1 0x3 ADD SSTORE PUSH1 0x80 DUP3 ADD MLOAD DUP2 PUSH1 0x4 ADD PUSH1 0x0 PUSH2 0x100 EXP DUP2 SLOAD DUP2 PUSH20 0xFFFFFFFFFFFFFFFFFFFFFFFFFFFFFFFFFFFFFFFF MUL NOT AND SWAP1 DUP4 PUSH20 0xFFFFFFFFFFFFFFFFFFFFFFFFFFFFFFFFFFFFFFFF AND MUL OR SWAP1 SSTORE POP PUSH1 0xA0 DUP3 ADD MLOAD DUP2 PUSH1 0x5 ADD SWAP1 DUP1 MLOAD SWAP1 PUSH1 0x20 ADD SWAP1 PUSH2 0x18A0 SWAP3 SWAP2 SWAP1 PUSH2 0x2F15 JUMP JUMPDEST POP PUSH1 0xC0 DUP3 ADD MLOAD DUP2 PUSH1 0x6 ADD PUSH1 0x0 PUSH2 0x100 EXP DUP2 SLOAD DUP2 PUSH1 0xFF MUL NOT AND SWAP1 DUP4 ISZERO ISZERO MUL OR SWAP1 SSTORE POP POP POP PUSH1 0x2 DUP7 EQ ISZERO PUSH2 0x191F JUMPI DUP10 DUP5 PUSH1 0xC0 ADD DUP2 DUP2 MLOAD PUSH2 0x18DE SWAP2 SWAP1 PUSH2 0x3876 JUMP JUMPDEST SWAP2 POP DUP2 DUP2 MSTORE POP POP DUP10 PUSH1 0x5 DUP4 PUSH1 0x40 MLOAD PUSH2 0x18F6 SWAP2 SWAP1 PUSH2 0x35E8 JUMP JUMPDEST SWAP1 DUP2 MSTORE PUSH1 0x20 ADD PUSH1 0x40 MLOAD DUP1 SWAP2 SUB SWAP1 KECCAK256 PUSH1 0x0 DUP3 DUP3 SLOAD PUSH2 0x1913 SWAP2 SWAP1 PUSH2 0x3876 JUMP JUMPDEST SWAP3 POP POP DUP2 SWAP1 SSTORE POP PUSH2 0x1989 JUMP JUMPDEST PUSH1 0x3 DUP7 EQ ISZERO PUSH2 0x1946 JUMPI DUP10 DUP5 PUSH1 0x60 ADD DUP2 DUP2 MLOAD PUSH2 0x193A SWAP2 SWAP1 PUSH2 0x3876 JUMP JUMPDEST SWAP2 POP DUP2 DUP2 MSTORE POP POP PUSH2 0x1988 JUMP JUMPDEST PUSH1 0x1 DUP7 EQ ISZERO PUSH2 0x196D JUMPI DUP10 DUP5 PUSH1 0x80 ADD DUP2 DUP2 MLOAD PUSH2 0x1961 SWAP2 SWAP1 PUSH2 0x3876 JUMP JUMPDEST SWAP2 POP DUP2 DUP2 MSTORE POP POP PUSH2 0x1987 JUMP JUMPDEST DUP10 DUP5 PUSH1 0xA0 ADD DUP2 DUP2 MLOAD PUSH2 0x197F SWAP2 SWAP1 PUSH2 0x3876 JUMP JUMPDEST SWAP2 POP DUP2 DUP2 MSTORE POP POP JUMPDEST JUMPDEST JUMPDEST DUP10 PUSH1 0x2 PUSH1 0x0 DUP14 PUSH20 0xFFFFFFFFFFFFFFFFFFFFFFFFFFFFFFFFFFFFFFFF AND PUSH20 0xFFFFFFFFFFFFFFFFFFFFFFFFFFFFFFFFFFFFFFFF AND DUP2 MSTORE PUSH1 0x20 ADD SWAP1 DUP2 MSTORE PUSH1 0x20 ADD PUSH1 0x0 KECCAK256 PUSH1 0x0 DUP3 DUP3 SLOAD PUSH2 0x19D8 SWAP2 SWAP1 PUSH2 0x3957 JUMP JUMPDEST SWAP3 POP POP DUP2 SWAP1 SSTORE POP POP POP POP POP PUSH1 0x1 SWAP1 POP SWAP7 SWAP6 POP POP POP POP POP POP JUMP JUMPDEST PUSH1 0x0 DUP1 PUSH1 0x0 SWAP1 SLOAD SWAP1 PUSH2 0x100 EXP SWAP1 DIV PUSH20 0xFFFFFFFFFFFFFFFFFFFFFFFFFFFFFFFFFFFFFFFF AND PUSH20 0xFFFFFFFFFFFFFFFFFFFFFFFFFFFFFFFFFFFFFFFF AND CALLER PUSH20 0xFFFFFFFFFFFFFFFFFFFFFFFFFFFFFFFFFFFFFFFF AND EQ PUSH2 0x1A82 JUMPI PUSH1 0x40 MLOAD PUSH32 0x8C379A000000000000000000000000000000000000000000000000000000000 DUP2 MSTORE PUSH1 0x4 ADD PUSH2 0x1A79 SWAP1 PUSH2 0x36BE JUMP JUMPDEST PUSH1 0x40 MLOAD DUP1 SWAP2 SUB SWAP1 REVERT JUMPDEST PUSH2 0x1A8B DUP6 PUSH2 0x2989 JUMP JUMPDEST PUSH2 0x1ACA JUMPI PUSH1 0x40 MLOAD PUSH32 0x8C379A000000000000000000000000000000000000000000000000000000000 DUP2 MSTORE PUSH1 0x4 ADD PUSH2 0x1AC1 SWAP1 PUSH2 0x36FE JUMP JUMPDEST PUSH1 0x40 MLOAD DUP1 SWAP2 SUB SWAP1 REVERT JUMPDEST PUSH1 0x0 PUSH1 0x3 PUSH1 0x0 DUP8 DUP2 MSTORE PUSH1 0x20 ADD SWAP1 DUP2 MSTORE PUSH1 0x20 ADD PUSH1 0x0 KECCAK256 PUSH1 0x40 MLOAD DUP1 PUSH2 0x160 ADD PUSH1 0x40 MSTORE SWAP1 DUP2 PUSH1 0x0 DUP3 ADD DUP1 SLOAD PUSH2 0x1AFB SWAP1 PUSH2 0x3A1F JUMP JUMPDEST DUP1 PUSH1 0x1F ADD PUSH1 0x20 DUP1 SWAP2 DIV MUL PUSH1 0x20 ADD PUSH1 0x40 MLOAD SWAP1 DUP2 ADD PUSH1 0x40 MSTORE DUP1 SWAP3 SWAP2 SWAP1 DUP2 DUP2 MSTORE PUSH1 0x20 ADD DUP3 DUP1 SLOAD PUSH2 0x1B27 SWAP1 PUSH2 0x3A1F JUMP JUMPDEST DUP1 ISZERO PUSH2 0x1B74 JUMPI DUP1 PUSH1 0x1F LT PUSH2 0x1B49 JUMPI PUSH2 0x100 DUP1 DUP4 SLOAD DIV MUL DUP4 MSTORE SWAP2 PUSH1 0x20 ADD SWAP2 PUSH2 0x1B74 JUMP JUMPDEST DUP3 ADD SWAP2 SWAP1 PUSH1 0x0 MSTORE PUSH1 0x20 PUSH1 0x0 KECCAK256 SWAP1 JUMPDEST DUP2 SLOAD DUP2 MSTORE SWAP1 PUSH1 0x1 ADD SWAP1 PUSH1 0x20 ADD DUP1 DUP4 GT PUSH2 0x1B57 JUMPI DUP3 SWAP1 SUB PUSH1 0x1F AND DUP3 ADD SWAP2 JUMPDEST POP POP POP POP POP DUP2 MSTORE PUSH1 0x20 ADD PUSH1 0x1 DUP3 ADD DUP1 SLOAD PUSH2 0x1B8D SWAP1 PUSH2 0x3A1F JUMP JUMPDEST DUP1 PUSH1 0x1F ADD PUSH1 0x20 DUP1 SWAP2 DIV MUL PUSH1 0x20 ADD PUSH1 0x40 MLOAD SWAP1 DUP2 ADD PUSH1 0x40 MSTORE DUP1 SWAP3 SWAP2 SWAP1 DUP2 DUP2 MSTORE PUSH1 0x20 ADD DUP3 DUP1 SLOAD PUSH2 0x1BB9 SWAP1 PUSH2 0x3A1F JUMP JUMPDEST DUP1 ISZERO PUSH2 0x1C06 JUMPI DUP1 PUSH1 0x1F LT PUSH2 0x1BDB JUMPI PUSH2 0x100 DUP1 DUP4 SLOAD DIV MUL DUP4 MSTORE SWAP2 PUSH1 0x20 ADD SWAP2 PUSH2 0x1C06 JUMP JUMPDEST DUP3 ADD SWAP2 SWAP1 PUSH1 0x0 MSTORE PUSH1 0x20 PUSH1 0x0 KECCAK256 SWAP1 JUMPDEST DUP2 SLOAD DUP2 MSTORE SWAP1 PUSH1 0x1 ADD SWAP1 PUSH1 0x20 ADD DUP1 DUP4 GT PUSH2 0x1BE9 JUMPI DUP3 SWAP1 SUB PUSH1 0x1F AND DUP3 ADD SWAP2 JUMPDEST POP POP POP POP POP DUP2 MSTORE PUSH1 0x20 ADD PUSH1 0x2 DUP3 ADD DUP1 SLOAD PUSH2 0x1C1F SWAP1 PUSH2 0x3A1F JUMP JUMPDEST DUP1 PUSH1 0x1F ADD PUSH1 0x20 DUP1 SWAP2 DIV MUL PUSH1 0x20 ADD PUSH1 0x40 MLOAD SWAP1 DUP2 ADD PUSH1 0x40 MSTORE DUP1 SWAP3 SWAP2 SWAP1 DUP2 DUP2 MSTORE PUSH1 0x20 ADD DUP3 DUP1 SLOAD PUSH2 0x1C4B SWAP1 PUSH2 0x3A1F JUMP JUMPDEST DUP1 ISZERO PUSH2 0x1C98 JUMPI DUP1 PUSH1 0x1F LT PUSH2 0x1C6D JUMPI PUSH2 0x100 DUP1 DUP4 SLOAD DIV MUL DUP4 MSTORE SWAP2 PUSH1 0x20 ADD SWAP2 PUSH2 0x1C98 JUMP JUMPDEST DUP3 ADD SWAP2 SWAP1 PUSH1 0x0 MSTORE PUSH1 0x20 PUSH1 0x0 KECCAK256 SWAP1 JUMPDEST DUP2 SLOAD DUP2 MSTORE SWAP1 PUSH1 0x1 ADD SWAP1 PUSH1 0x20 ADD DUP1 DUP4 GT PUSH2 0x1C7B JUMPI DUP3 SWAP1 SUB PUSH1 0x1F AND DUP3 ADD SWAP2 JUMPDEST POP POP POP POP POP DUP2 MSTORE PUSH1 0x20 ADD PUSH1 0x3 DUP3 ADD SLOAD DUP2 MSTORE PUSH1 0x20 ADD PUSH1 0x4 DUP3 ADD SLOAD DUP2 MSTORE PUSH1 0x20 ADD PUSH1 0x5 DUP3 ADD SLOAD DUP2 MSTORE PUSH1 0x20 ADD PUSH1 0x6 DUP3 ADD SLOAD DUP2 MSTORE PUSH1 0x20 ADD PUSH1 0x7 DUP3 ADD SLOAD DUP2 MSTORE PUSH1 0x20 ADD PUSH1 0x8 DUP3 ADD PUSH1 0x0 SWAP1 SLOAD SWAP1 PUSH2 0x100 EXP SWAP1 DIV PUSH1 0xFF AND ISZERO ISZERO ISZERO ISZERO DUP2 MSTORE PUSH1 0x20 ADD PUSH1 0x8 DUP3 ADD PUSH1 0x1 SWAP1 SLOAD SWAP1 PUSH2 0x100 EXP SWAP1 DIV PUSH1 0xFF AND ISZERO ISZERO ISZERO ISZERO DUP2 MSTORE PUSH1 0x20 ADD PUSH1 0x8 DUP3 ADD PUSH1 0x2 SWAP1 SLOAD SWAP1 PUSH2 0x100 EXP SWAP1 DIV PUSH1 0xFF AND ISZERO ISZERO ISZERO ISZERO DUP2 MSTORE POP POP SWAP1 POP PUSH1 0x1 DUP2 PUSH2 0x140 ADD SWAP1 ISZERO ISZERO SWAP1 DUP2 ISZERO ISZERO DUP2 MSTORE POP ISZERO PUSH2 0x1D77 JUMPI PUSH1 0x40 MLOAD PUSH32 0x8C379A000000000000000000000000000000000000000000000000000000000 DUP2 MSTORE PUSH1 0x4 ADD PUSH2 0x1D6E SWAP1 PUSH2 0x37BE JUMP JUMPDEST PUSH1 0x40 MLOAD DUP1 SWAP2 SUB SWAP1 REVERT JUMPDEST PUSH1 0x0 PUSH1 0x4 PUSH1 0x0 DUP9 DUP2 MSTORE PUSH1 0x20 ADD SWAP1 DUP2 MSTORE PUSH1 0x20 ADD PUSH1 0x0 KECCAK256 PUSH1 0x0 ADD DUP1 SLOAD DUP1 PUSH1 0x20 MUL PUSH1 0x20 ADD PUSH1 0x40 MLOAD SWAP1 DUP2 ADD PUSH1 0x40 MSTORE DUP1 SWAP3 SWAP2 SWAP1 DUP2 DUP2 MSTORE PUSH1 0x20 ADD PUSH1 0x0 SWAP1 JUMPDEST DUP3 DUP3 LT ISZERO PUSH2 0x1F0C JUMPI DUP4 DUP3 SWAP1 PUSH1 0x0 MSTORE PUSH1 0x20 PUSH1 0x0 KECCAK256 SWAP1 PUSH1 0x7 MUL ADD PUSH1 0x40 MLOAD DUP1 PUSH1 0xE0 ADD PUSH1 0x40 MSTORE SWAP1 DUP2 PUSH1 0x0 DUP3 ADD SLOAD DUP2 MSTORE PUSH1 0x20 ADD PUSH1 0x1 DUP3 ADD SLOAD DUP2 MSTORE PUSH1 0x20 ADD PUSH1 0x2 DUP3 ADD SLOAD DUP2 MSTORE PUSH1 0x20 ADD PUSH1 0x3 DUP3 ADD SLOAD DUP2 MSTORE PUSH1 0x20 ADD PUSH1 0x4 DUP3 ADD PUSH1 0x0 SWAP1 SLOAD SWAP1 PUSH2 0x100 EXP SWAP1 DIV PUSH20 0xFFFFFFFFFFFFFFFFFFFFFFFFFFFFFFFFFFFFFFFF AND PUSH20 0xFFFFFFFFFFFFFFFFFFFFFFFFFFFFFFFFFFFFFFFF AND PUSH20 0xFFFFFFFFFFFFFFFFFFFFFFFFFFFFFFFFFFFFFFFF AND DUP2 MSTORE PUSH1 0x20 ADD PUSH1 0x5 DUP3 ADD DUP1 SLOAD PUSH2 0x1E60 SWAP1 PUSH2 0x3A1F JUMP JUMPDEST DUP1 PUSH1 0x1F ADD PUSH1 0x20 DUP1 SWAP2 DIV MUL PUSH1 0x20 ADD PUSH1 0x40 MLOAD SWAP1 DUP2 ADD PUSH1 0x40 MSTORE DUP1 SWAP3 SWAP2 SWAP1 DUP2 DUP2 MSTORE PUSH1 0x20 ADD DUP3 DUP1 SLOAD PUSH2 0x1E8C SWAP1 PUSH2 0x3A1F JUMP JUMPDEST DUP1 ISZERO PUSH2 0x1ED9 JUMPI DUP1 PUSH1 0x1F LT PUSH2 0x1EAE JUMPI PUSH2 0x100 DUP1 DUP4 SLOAD DIV MUL DUP4 MSTORE SWAP2 PUSH1 0x20 ADD SWAP2 PUSH2 0x1ED9 JUMP JUMPDEST DUP3 ADD SWAP2 SWAP1 PUSH1 0x0 MSTORE PUSH1 0x20 PUSH1 0x0 KECCAK256 SWAP1 JUMPDEST DUP2 SLOAD DUP2 MSTORE SWAP1 PUSH1 0x1 ADD SWAP1 PUSH1 0x20 ADD DUP1 DUP4 GT PUSH2 0x1EBC JUMPI DUP3 SWAP1 SUB PUSH1 0x1F AND DUP3 ADD SWAP2 JUMPDEST POP POP POP POP POP DUP2 MSTORE PUSH1 0x20 ADD PUSH1 0x6 DUP3 ADD PUSH1 0x0 SWAP1 SLOAD SWAP1 PUSH2 0x100 EXP SWAP1 DIV PUSH1 0xFF AND ISZERO ISZERO ISZERO ISZERO DUP2 MSTORE POP POP DUP2 MSTORE PUSH1 0x20 ADD SWAP1 PUSH1 0x1 ADD SWAP1 PUSH2 0x1DAF JUMP JUMPDEST POP POP POP POP SWAP1 POP PUSH1 0x0 PUSH2 0x1F7B PUSH1 0x14 PUSH2 0x1F31 PUSH1 0x2 DUP7 PUSH1 0xE0 ADD MLOAD PUSH2 0x29B6 SWAP1 SWAP2 SWAP1 PUSH4 0xFFFFFFFF AND JUMP JUMPDEST DUP6 PUSH1 0x80 ADD MLOAD DUP7 PUSH1 0xA0 ADD MLOAD DUP8 PUSH1 0x60 ADD MLOAD DUP9 PUSH1 0xC0 ADD MLOAD PUSH2 0x1F4F SWAP2 SWAP1 PUSH2 0x3876 JUMP JUMPDEST PUSH2 0x1F59 SWAP2 SWAP1 PUSH2 0x3876 JUMP JUMPDEST PUSH2 0x1F63 SWAP2 SWAP1 PUSH2 0x3876 JUMP JUMPDEST PUSH2 0x1F6D SWAP2 SWAP1 PUSH2 0x3876 JUMP JUMPDEST PUSH2 0x29B6 SWAP1 SWAP2 SWAP1 PUSH4 0xFFFFFFFF AND JUMP JUMPDEST PUSH1 0x1 PUSH1 0x0 DUP3 DUP3 SLOAD PUSH2 0x1F8C SWAP2 SWAP1 PUSH2 0x3876 JUMP JUMPDEST SWAP3 POP POP DUP2 SWAP1 SSTORE POP PUSH1 0x0 JUMPDEST PUSH1 0x1 DUP4 MLOAD PUSH2 0x1FA4 SWAP2 SWAP1 PUSH2 0x3957 JUMP JUMPDEST DUP2 GT PUSH2 0x2442 JUMPI PUSH1 0x0 DUP4 DUP3 DUP2 MLOAD DUP2 LT PUSH2 0x1FBF JUMPI PUSH2 0x1FBE PUSH2 0x3B6C JUMP JUMPDEST JUMPDEST PUSH1 0x20 MUL PUSH1 0x20 ADD ADD MLOAD PUSH1 0xC0 ADD SWAP1 ISZERO ISZERO SWAP1 DUP2 ISZERO ISZERO DUP2 MSTORE POP ISZERO PUSH2 0x242F JUMPI PUSH1 0x2 DUP4 DUP3 DUP2 MLOAD DUP2 LT PUSH2 0x1FEE JUMPI PUSH2 0x1FED PUSH2 0x3B6C JUMP JUMPDEST JUMPDEST PUSH1 0x20 MUL PUSH1 0x20 ADD ADD MLOAD PUSH1 0x20 ADD MLOAD EQ ISZERO PUSH2 0x21BF JUMPI PUSH2 0x204D PUSH1 0x64 PUSH2 0x203F PUSH1 0x55 PUSH2 0x2022 PUSH1 0x2 DUP10 PUSH1 0xE0 ADD MLOAD PUSH2 0x29B6 SWAP1 SWAP2 SWAP1 PUSH4 0xFFFFFFFF AND JUMP JUMPDEST DUP9 PUSH1 0xC0 ADD MLOAD PUSH2 0x2031 SWAP2 SWAP1 PUSH2 0x3876 JUMP JUMPDEST PUSH2 0x2BD6 SWAP1 SWAP2 SWAP1 PUSH4 0xFFFFFFFF AND JUMP JUMPDEST PUSH2 0x29B6 SWAP1 SWAP2 SWAP1 PUSH4 0xFFFFFFFF AND JUMP JUMPDEST SWAP2 POP DUP8 DUP4 DUP3 DUP2 MLOAD DUP2 LT PUSH2 0x2063 JUMPI PUSH2 0x2062 PUSH2 0x3B6C JUMP JUMPDEST JUMPDEST PUSH1 0x20 MUL PUSH1 0x20 ADD ADD MLOAD PUSH1 0x40 ADD MLOAD EQ DUP1 ISZERO PUSH2 0x2099 JUMPI POP DUP7 DUP4 DUP3 DUP2 MLOAD DUP2 LT PUSH2 0x208B JUMPI PUSH2 0x208A PUSH2 0x3B6C JUMP JUMPDEST JUMPDEST PUSH1 0x20 MUL PUSH1 0x20 ADD ADD MLOAD PUSH1 0x60 ADD MLOAD EQ JUMPDEST ISZERO PUSH2 0x21BA JUMPI PUSH1 0x0 PUSH1 0x5 DUP5 DUP4 DUP2 MLOAD DUP2 LT PUSH2 0x20B5 JUMPI PUSH2 0x20B4 PUSH2 0x3B6C JUMP JUMPDEST JUMPDEST PUSH1 0x20 MUL PUSH1 0x20 ADD ADD MLOAD PUSH1 0xA0 ADD MLOAD PUSH1 0x40 MLOAD PUSH2 0x20CE SWAP2 SWAP1 PUSH2 0x35E8 JUMP JUMPDEST SWAP1 DUP2 MSTORE PUSH1 0x20 ADD PUSH1 0x40 MLOAD DUP1 SWAP2 SUB SWAP1 KECCAK256 SLOAD SWAP1 POP PUSH1 0x0 DUP2 DUP6 DUP5 DUP2 MLOAD DUP2 LT PUSH2 0x20F5 JUMPI PUSH2 0x20F4 PUSH2 0x3B6C JUMP JUMPDEST JUMPDEST PUSH1 0x20 MUL PUSH1 0x20 ADD ADD MLOAD PUSH1 0x0 ADD MLOAD DUP6 PUSH2 0x210C SWAP2 SWAP1 PUSH2 0x38FD JUMP JUMPDEST PUSH2 0x2116 SWAP2 SWAP1 PUSH2 0x38CC JUMP JUMPDEST SWAP1 POP DUP1 PUSH1 0x2 PUSH1 0x0 DUP8 DUP7 DUP2 MLOAD DUP2 LT PUSH2 0x2130 JUMPI PUSH2 0x212F PUSH2 0x3B6C JUMP JUMPDEST JUMPDEST PUSH1 0x20 MUL PUSH1 0x20 ADD ADD MLOAD PUSH1 0x80 ADD MLOAD PUSH20 0xFFFFFFFFFFFFFFFFFFFFFFFFFFFFFFFFFFFFFFFF AND PUSH20 0xFFFFFFFFFFFFFFFFFFFFFFFFFFFFFFFFFFFFFFFF AND DUP2 MSTORE PUSH1 0x20 ADD SWAP1 DUP2 MSTORE PUSH1 0x20 ADD PUSH1 0x0 KECCAK256 PUSH1 0x0 DUP3 DUP3 SLOAD PUSH2 0x2185 SWAP2 SWAP1 PUSH2 0x3876 JUMP JUMPDEST SWAP3 POP POP DUP2 SWAP1 SSTORE POP PUSH1 0x1 DUP6 DUP5 DUP2 MLOAD DUP2 LT PUSH2 0x21A1 JUMPI PUSH2 0x21A0 PUSH2 0x3B6C JUMP JUMPDEST JUMPDEST PUSH1 0x20 MUL PUSH1 0x20 ADD ADD MLOAD PUSH1 0xC0 ADD SWAP1 ISZERO ISZERO SWAP1 DUP2 ISZERO ISZERO DUP2 MSTORE POP POP POP POP JUMPDEST PUSH2 0x242E JUMP JUMPDEST DUP6 DUP4 DUP3 DUP2 MLOAD DUP2 LT PUSH2 0x21D3 JUMPI PUSH2 0x21D2 PUSH2 0x3B6C JUMP JUMPDEST JUMPDEST PUSH1 0x20 MUL PUSH1 0x20 ADD ADD MLOAD PUSH1 0x20 ADD MLOAD EQ ISZERO PUSH2 0x242D JUMPI PUSH2 0x2250 PUSH1 0x64 PUSH2 0x2242 PUSH1 0x55 PUSH2 0x2207 PUSH1 0x2 DUP10 PUSH1 0xE0 ADD MLOAD PUSH2 0x29B6 SWAP1 SWAP2 SWAP1 PUSH4 0xFFFFFFFF AND JUMP JUMPDEST DUP9 PUSH1 0x80 ADD MLOAD DUP10 PUSH1 0xA0 ADD MLOAD DUP11 PUSH1 0x60 ADD MLOAD PUSH2 0x2220 SWAP2 SWAP1 PUSH2 0x3876 JUMP JUMPDEST PUSH2 0x222A SWAP2 SWAP1 PUSH2 0x3876 JUMP JUMPDEST PUSH2 0x2234 SWAP2 SWAP1 PUSH2 0x3876 JUMP JUMPDEST PUSH2 0x2BD6 SWAP1 SWAP2 SWAP1 PUSH4 0xFFFFFFFF AND JUMP JUMPDEST PUSH2 0x29B6 SWAP1 SWAP2 SWAP1 PUSH4 0xFFFFFFFF AND JUMP JUMPDEST SWAP2 POP PUSH1 0x0 DUP1 DUP5 DUP4 DUP2 MLOAD DUP2 LT PUSH2 0x2268 JUMPI PUSH2 0x2267 PUSH2 0x3B6C JUMP JUMPDEST JUMPDEST PUSH1 0x20 MUL PUSH1 0x20 ADD ADD MLOAD PUSH1 0x20 ADD MLOAD EQ ISZERO PUSH2 0x22A8 JUMPI PUSH2 0x22A5 PUSH1 0x64 PUSH2 0x2297 PUSH1 0x55 DUP9 PUSH1 0xA0 ADD MLOAD PUSH2 0x2BD6 SWAP1 SWAP2 SWAP1 PUSH4 0xFFFFFFFF AND JUMP JUMPDEST PUSH2 0x29B6 SWAP1 SWAP2 SWAP1 PUSH4 0xFFFFFFFF AND JUMP JUMPDEST SWAP1 POP JUMPDEST PUSH1 0x1 DUP5 DUP4 DUP2 MLOAD DUP2 LT PUSH2 0x22BD JUMPI PUSH2 0x22BC PUSH2 0x3B6C JUMP JUMPDEST JUMPDEST PUSH1 0x20 MUL PUSH1 0x20 ADD ADD MLOAD PUSH1 0x20 ADD MLOAD EQ ISZERO PUSH2 0x22FD JUMPI PUSH2 0x22FA PUSH1 0x64 PUSH2 0x22EC PUSH1 0x55 DUP9 PUSH1 0x80 ADD MLOAD PUSH2 0x2BD6 SWAP1 SWAP2 SWAP1 PUSH4 0xFFFFFFFF AND JUMP JUMPDEST PUSH2 0x29B6 SWAP1 SWAP2 SWAP1 PUSH4 0xFFFFFFFF AND JUMP JUMPDEST SWAP1 POP JUMPDEST PUSH1 0x3 DUP5 DUP4 DUP2 MLOAD DUP2 LT PUSH2 0x2312 JUMPI PUSH2 0x2311 PUSH2 0x3B6C JUMP JUMPDEST JUMPDEST PUSH1 0x20 MUL PUSH1 0x20 ADD ADD MLOAD PUSH1 0x20 ADD MLOAD EQ ISZERO PUSH2 0x2352 JUMPI PUSH2 0x234F PUSH1 0x64 PUSH2 0x2341 PUSH1 0x55 DUP9 PUSH1 0x60 ADD MLOAD PUSH2 0x2BD6 SWAP1 SWAP2 SWAP1 PUSH4 0xFFFFFFFF AND JUMP JUMPDEST PUSH2 0x29B6 SWAP1 SWAP2 SWAP1 PUSH4 0xFFFFFFFF AND JUMP JUMPDEST SWAP1 POP JUMPDEST PUSH1 0x0 DUP2 DUP6 DUP5 DUP2 MLOAD DUP2 LT PUSH2 0x2368 JUMPI PUSH2 0x2367 PUSH2 0x3B6C JUMP JUMPDEST JUMPDEST PUSH1 0x20 MUL PUSH1 0x20 ADD ADD MLOAD PUSH1 0x0 ADD MLOAD DUP6 PUSH2 0x237F SWAP2 SWAP1 PUSH2 0x38FD JUMP JUMPDEST PUSH2 0x2389 SWAP2 SWAP1 PUSH2 0x38CC JUMP JUMPDEST SWAP1 POP DUP1 PUSH1 0x2 PUSH1 0x0 DUP8 DUP7 DUP2 MLOAD DUP2 LT PUSH2 0x23A3 JUMPI PUSH2 0x23A2 PUSH2 0x3B6C JUMP JUMPDEST JUMPDEST PUSH1 0x20 MUL PUSH1 0x20 ADD ADD MLOAD PUSH1 0x80 ADD MLOAD PUSH20 0xFFFFFFFFFFFFFFFFFFFFFFFFFFFFFFFFFFFFFFFF AND PUSH20 0xFFFFFFFFFFFFFFFFFFFFFFFFFFFFFFFFFFFFFFFF AND DUP2 MSTORE PUSH1 0x20 ADD SWAP1 DUP2 MSTORE PUSH1 0x20 ADD PUSH1 0x0 KECCAK256 PUSH1 0x0 DUP3 DUP3 SLOAD PUSH2 0x23F8 SWAP2 SWAP1 PUSH2 0x3876 JUMP JUMPDEST SWAP3 POP POP DUP2 SWAP1 SSTORE POP PUSH1 0x1 DUP6 DUP5 DUP2 MLOAD DUP2 LT PUSH2 0x2414 JUMPI PUSH2 0x2413 PUSH2 0x3B6C JUMP JUMPDEST JUMPDEST PUSH1 0x20 MUL PUSH1 0x20 ADD ADD MLOAD PUSH1 0xC0 ADD SWAP1 ISZERO ISZERO SWAP1 DUP2 ISZERO ISZERO DUP2 MSTORE POP POP POP POP JUMPDEST JUMPDEST JUMPDEST DUP1 DUP1 PUSH2 0x243A SWAP1 PUSH2 0x3A82 JUMP JUMPDEST SWAP2 POP POP PUSH2 0x1F96 JUMP JUMPDEST POP PUSH1 0x1 DUP4 PUSH2 0x140 ADD SWAP1 ISZERO ISZERO SWAP1 DUP2 ISZERO ISZERO DUP2 MSTORE POP POP POP POP POP PUSH1 0x1 SWAP1 POP SWAP5 SWAP4 POP POP POP POP JUMP JUMPDEST PUSH1 0x0 DUP1 PUSH1 0x0 SWAP1 SLOAD SWAP1 PUSH2 0x100 EXP SWAP1 DIV PUSH20 0xFFFFFFFFFFFFFFFFFFFFFFFFFFFFFFFFFFFFFFFF AND PUSH20 0xFFFFFFFFFFFFFFFFFFFFFFFFFFFFFFFFFFFFFFFF AND CALLER PUSH20 0xFFFFFFFFFFFFFFFFFFFFFFFFFFFFFFFFFFFFFFFF AND EQ PUSH2 0x24F5 JUMPI PUSH1 0x40 MLOAD PUSH32 0x8C379A000000000000000000000000000000000000000000000000000000000 DUP2 MSTORE PUSH1 0x4 ADD PUSH2 0x24EC SWAP1 PUSH2 0x36BE JUMP JUMPDEST PUSH1 0x40 MLOAD DUP1 SWAP2 SUB SWAP1 REVERT JUMPDEST DUP2 PUSH1 0x2 PUSH1 0x0 DUP6 PUSH20 0xFFFFFFFFFFFFFFFFFFFFFFFFFFFFFFFFFFFFFFFF AND PUSH20 0xFFFFFFFFFFFFFFFFFFFFFFFFFFFFFFFFFFFFFFFF AND DUP2 MSTORE PUSH1 0x20 ADD SWAP1 DUP2 MSTORE PUSH1 0x20 ADD PUSH1 0x0 KECCAK256 SLOAD LT ISZERO DUP1 ISZERO PUSH2 0x2584 JUMPI POP PUSH1 0x0 PUSH1 0x2 PUSH1 0x0 DUP6 PUSH20 0xFFFFFFFFFFFFFFFFFFFFFFFFFFFFFFFFFFFFFFFF AND PUSH20 0xFFFFFFFFFFFFFFFFFFFFFFFFFFFFFFFFFFFFFFFF AND DUP2 MSTORE PUSH1 0x20 ADD SWAP1 DUP2 MSTORE PUSH1 0x20 ADD PUSH1 0x0 KECCAK256 SLOAD LT ISZERO JUMPDEST ISZERO PUSH2 0x261A JUMPI PUSH1 0x0 DUP4 SWAP1 POP DUP1 PUSH20 0xFFFFFFFFFFFFFFFFFFFFFFFFFFFFFFFFFFFFFFFF AND PUSH2 0x8FC PUSH1 0x2 PUSH1 0x0 DUP8 PUSH20 0xFFFFFFFFFFFFFFFFFFFFFFFFFFFFFFFFFFFFFFFF AND PUSH20 0xFFFFFFFFFFFFFFFFFFFFFFFFFFFFFFFFFFFFFFFF AND DUP2 MSTORE PUSH1 0x20 ADD SWAP1 DUP2 MSTORE PUSH1 0x20 ADD PUSH1 0x0 KECCAK256 SLOAD SWAP1 DUP2 ISZERO MUL SWAP1 PUSH1 0x40 MLOAD PUSH1 0x0 PUSH1 0x40 MLOAD DUP1 DUP4 SUB DUP2 DUP6 DUP9 DUP9 CALL SWAP4 POP POP POP POP ISZERO DUP1 ISZERO PUSH2 0x2613 JUMPI RETURNDATASIZE PUSH1 0x0 DUP1 RETURNDATACOPY RETURNDATASIZE PUSH1 0x0 REVERT JUMPDEST POP POP PUSH2 0x2655 JUMP JUMPDEST PUSH1 0x40 MLOAD PUSH32 0x8C379A000000000000000000000000000000000000000000000000000000000 DUP2 MSTORE PUSH1 0x4 ADD PUSH2 0x264C SWAP1 PUSH2 0x377E JUMP JUMPDEST PUSH1 0x40 MLOAD DUP1 SWAP2 SUB SWAP1 REVERT JUMPDEST PUSH1 0x1 SWAP1 POP SWAP3 SWAP2 POP POP JUMP JUMPDEST PUSH1 0x60 DUP1 PUSH2 0x266A PUSH2 0x2F9B JUMP JUMPDEST PUSH2 0x2673 DUP5 PUSH2 0x2989 JUMP JUMPDEST PUSH2 0x26B2 JUMPI PUSH1 0x40 MLOAD PUSH32 0x8C379A000000000000000000000000000000000000000000000000000000000 DUP2 MSTORE PUSH1 0x4 ADD PUSH2 0x26A9 SWAP1 PUSH2 0x36DE JUMP JUMPDEST PUSH1 0x40 MLOAD DUP1 SWAP2 SUB SWAP1 REVERT JUMPDEST PUSH1 0x0 PUSH2 0x2791 PUSH1 0x3 PUSH1 0x0 DUP8 DUP2 MSTORE PUSH1 0x20 ADD SWAP1 DUP2 MSTORE PUSH1 0x20 ADD PUSH1 0x0 KECCAK256 PUSH1 0x0 ADD DUP1 SLOAD PUSH2 0x26D8 SWAP1 PUSH2 0x3A1F JUMP JUMPDEST DUP1 PUSH1 0x1F ADD PUSH1 0x20 DUP1 SWAP2 DIV MUL PUSH1 0x20 ADD PUSH1 0x40 MLOAD SWAP1 DUP2 ADD PUSH1 0x40 MSTORE DUP1 SWAP3 SWAP2 SWAP1 DUP2 DUP2 MSTORE PUSH1 0x20 ADD DUP3 DUP1 SLOAD PUSH2 0x2704 SWAP1 PUSH2 0x3A1F JUMP JUMPDEST DUP1 ISZERO PUSH2 0x2751 JUMPI DUP1 PUSH1 0x1F LT PUSH2 0x2726 JUMPI PUSH2 0x100 DUP1 DUP4 SLOAD DIV MUL DUP4 MSTORE SWAP2 PUSH1 0x20 ADD SWAP2 PUSH2 0x2751 JUMP JUMPDEST DUP3 ADD SWAP2 SWAP1 PUSH1 0x0 MSTORE PUSH1 0x20 PUSH1 0x0 KECCAK256 SWAP1 JUMPDEST DUP2 SLOAD DUP2 MSTORE SWAP1 PUSH1 0x1 ADD SWAP1 PUSH1 0x20 ADD DUP1 DUP4 GT PUSH2 0x2734 JUMPI DUP3 SWAP1 SUB PUSH1 0x1F AND DUP3 ADD SWAP2 JUMPDEST POP POP POP POP POP PUSH1 0x40 MLOAD DUP1 PUSH1 0x40 ADD PUSH1 0x40 MSTORE DUP1 PUSH1 0x4 DUP2 MSTORE PUSH1 0x20 ADD PUSH32 0x2076732000000000000000000000000000000000000000000000000000000000 DUP2 MSTORE POP PUSH2 0x29DE JUMP JUMPDEST SWAP1 POP PUSH2 0x283B DUP2 PUSH1 0x3 PUSH1 0x0 DUP9 DUP2 MSTORE PUSH1 0x20 ADD SWAP1 DUP2 MSTORE PUSH1 0x20 ADD PUSH1 0x0 KECCAK256 PUSH1 0x1 ADD DUP1 SLOAD PUSH2 0x27B8 SWAP1 PUSH2 0x3A1F JUMP JUMPDEST DUP1 PUSH1 0x1F ADD PUSH1 0x20 DUP1 SWAP2 DIV MUL PUSH1 0x20 ADD PUSH1 0x40 MLOAD SWAP1 DUP2 ADD PUSH1 0x40 MSTORE DUP1 SWAP3 SWAP2 SWAP1 DUP2 DUP2 MSTORE PUSH1 0x20 ADD DUP3 DUP1 SLOAD PUSH2 0x27E4 SWAP1 PUSH2 0x3A1F JUMP JUMPDEST DUP1 ISZERO PUSH2 0x2831 JUMPI DUP1 PUSH1 0x1F LT PUSH2 0x2806 JUMPI PUSH2 0x100 DUP1 DUP4 SLOAD DIV MUL DUP4 MSTORE SWAP2 PUSH1 0x20 ADD SWAP2 PUSH2 0x2831 JUMP JUMPDEST DUP3 ADD SWAP2 SWAP1 PUSH1 0x0 MSTORE PUSH1 0x20 PUSH1 0x0 KECCAK256 SWAP1 JUMPDEST DUP2 SLOAD DUP2 MSTORE SWAP1 PUSH1 0x1 ADD SWAP1 PUSH1 0x20 ADD DUP1 DUP4 GT PUSH2 0x2814 JUMPI DUP3 SWAP1 SUB PUSH1 0x1F AND DUP3 ADD SWAP2 JUMPDEST POP POP POP POP POP PUSH2 0x29DE JUMP JUMPDEST SWAP4 POP PUSH1 0x0 PUSH1 0x40 MLOAD DUP1 PUSH1 0xA0 ADD PUSH1 0x40 MSTORE DUP1 PUSH1 0x3 PUSH1 0x0 DUP10 DUP2 MSTORE PUSH1 0x20 ADD SWAP1 DUP2 MSTORE PUSH1 0x20 ADD PUSH1 0x0 KECCAK256 PUSH1 0x3 ADD SLOAD DUP2 MSTORE PUSH1 0x20 ADD PUSH1 0x3 PUSH1 0x0 DUP10 DUP2 MSTORE PUSH1 0x20 ADD SWAP1 DUP2 MSTORE PUSH1 0x20 ADD PUSH1 0x0 KECCAK256 PUSH1 0x4 ADD SLOAD DUP2 MSTORE PUSH1 0x20 ADD PUSH1 0x3 PUSH1 0x0 DUP10 DUP2 MSTORE PUSH1 0x20 ADD SWAP1 DUP2 MSTORE PUSH1 0x20 ADD PUSH1 0x0 KECCAK256 PUSH1 0x5 ADD SLOAD DUP2 MSTORE PUSH1 0x20 ADD PUSH1 0x3 PUSH1 0x0 DUP10 DUP2 MSTORE PUSH1 0x20 ADD SWAP1 DUP2 MSTORE PUSH1 0x20 ADD PUSH1 0x0 KECCAK256 PUSH1 0x6 ADD SLOAD DUP2 MSTORE PUSH1 0x20 ADD PUSH1 0x3 PUSH1 0x0 DUP10 DUP2 MSTORE PUSH1 0x20 ADD SWAP1 DUP2 MSTORE PUSH1 0x20 ADD PUSH1 0x0 KECCAK256 PUSH1 0x7 ADD SLOAD DUP2 MSTORE POP SWAP1 POP DUP5 PUSH1 0x3 PUSH1 0x0 DUP9 DUP2 MSTORE PUSH1 0x20 ADD SWAP1 DUP2 MSTORE PUSH1 0x20 ADD PUSH1 0x0 KECCAK256 PUSH1 0x2 ADD DUP3 DUP2 DUP1 SLOAD PUSH2 0x28FA SWAP1 PUSH2 0x3A1F JUMP JUMPDEST DUP1 PUSH1 0x1F ADD PUSH1 0x20 DUP1 SWAP2 DIV MUL PUSH1 0x20 ADD PUSH1 0x40 MLOAD SWAP1 DUP2 ADD PUSH1 0x40 MSTORE DUP1 SWAP3 SWAP2 SWAP1 DUP2 DUP2 MSTORE PUSH1 0x20 ADD DUP3 DUP1 SLOAD PUSH2 0x2926 SWAP1 PUSH2 0x3A1F JUMP JUMPDEST DUP1 ISZERO PUSH2 0x2973 JUMPI DUP1 PUSH1 0x1F LT PUSH2 0x2948 JUMPI PUSH2 0x100 DUP1 DUP4 SLOAD DIV MUL DUP4 MSTORE SWAP2 PUSH1 0x20 ADD SWAP2 PUSH2 0x2973 JUMP JUMPDEST DUP3 ADD SWAP2 SWAP1 PUSH1 0x0 MSTORE PUSH1 0x20 PUSH1 0x0 KECCAK256 SWAP1 JUMPDEST DUP2 SLOAD DUP2 MSTORE SWAP1 PUSH1 0x1 ADD SWAP1 PUSH1 0x20 ADD DUP1 DUP4 GT PUSH2 0x2956 JUMPI DUP3 SWAP1 SUB PUSH1 0x1F AND DUP3 ADD SWAP2 JUMPDEST POP POP POP POP POP SWAP2 POP SWAP5 POP SWAP5 POP SWAP5 POP POP POP SWAP2 SWAP4 SWAP1 SWAP3 POP JUMP JUMPDEST PUSH1 0x0 PUSH1 0x3 PUSH1 0x0 DUP4 DUP2 MSTORE PUSH1 0x20 ADD SWAP1 DUP2 MSTORE PUSH1 0x20 ADD PUSH1 0x0 KECCAK256 PUSH1 0x8 ADD PUSH1 0x1 SWAP1 SLOAD SWAP1 PUSH2 0x100 EXP SWAP1 DIV PUSH1 0xFF AND SWAP1 POP SWAP2 SWAP1 POP JUMP JUMPDEST PUSH1 0x0 DUP1 DUP3 GT PUSH2 0x29C4 JUMPI PUSH1 0x0 DUP1 REVERT JUMPDEST PUSH1 0x0 DUP3 DUP5 PUSH2 0x29D2 SWAP2 SWAP1 PUSH2 0x38CC JUMP JUMPDEST SWAP1 POP DUP1 SWAP2 POP POP SWAP3 SWAP2 POP POP JUMP JUMPDEST PUSH1 0x60 PUSH1 0x0 DUP4 SWAP1 POP PUSH1 0x0 DUP4 SWAP1 POP PUSH1 0x0 DUP2 MLOAD DUP4 MLOAD PUSH2 0x29FA SWAP2 SWAP1 PUSH2 0x3876 JUMP JUMPDEST PUSH8 0xFFFFFFFFFFFFFFFF DUP2 GT ISZERO PUSH2 0x2A13 JUMPI PUSH2 0x2A12 PUSH2 0x3B9B JUMP JUMPDEST JUMPDEST PUSH1 0x40 MLOAD SWAP1 DUP1 DUP3 MSTORE DUP1 PUSH1 0x1F ADD PUSH1 0x1F NOT AND PUSH1 0x20 ADD DUP3 ADD PUSH1 0x40 MSTORE DUP1 ISZERO PUSH2 0x2A45 JUMPI DUP2 PUSH1 0x20 ADD PUSH1 0x1 DUP3 MUL DUP1 CALLDATASIZE DUP4 CALLDATACOPY DUP1 DUP3 ADD SWAP2 POP POP SWAP1 POP JUMPDEST POP SWAP1 POP PUSH1 0x0 DUP2 SWAP1 POP PUSH1 0x0 DUP1 JUMPDEST DUP6 MLOAD DUP2 LT ISZERO PUSH2 0x2AD9 JUMPI DUP6 DUP2 DUP2 MLOAD DUP2 LT PUSH2 0x2A6D JUMPI PUSH2 0x2A6C PUSH2 0x3B6C JUMP JUMPDEST JUMPDEST PUSH1 0x20 ADD ADD MLOAD PUSH1 0xF8 SHR PUSH1 0xF8 SHL DUP4 DUP4 DUP1 PUSH2 0x2A84 SWAP1 PUSH2 0x3A82 JUMP JUMPDEST SWAP5 POP DUP2 MLOAD DUP2 LT PUSH2 0x2A97 JUMPI PUSH2 0x2A96 PUSH2 0x3B6C JUMP JUMPDEST JUMPDEST PUSH1 0x20 ADD ADD SWAP1 PUSH31 0xFFFFFFFFFFFFFFFFFFFFFFFFFFFFFFFFFFFFFFFFFFFFFFFFFFFFFFFFFFFFFF NOT AND SWAP1 DUP2 PUSH1 0x0 BYTE SWAP1 MSTORE8 POP DUP1 DUP1 PUSH2 0x2AD1 SWAP1 PUSH2 0x3A82 JUMP JUMPDEST SWAP2 POP POP PUSH2 0x2A51 JUMP JUMPDEST POP PUSH1 0x0 JUMPDEST DUP5 MLOAD DUP2 LT ISZERO PUSH2 0x2B65 JUMPI DUP5 DUP2 DUP2 MLOAD DUP2 LT PUSH2 0x2AF9 JUMPI PUSH2 0x2AF8 PUSH2 0x3B6C JUMP JUMPDEST JUMPDEST PUSH1 0x20 ADD ADD MLOAD PUSH1 0xF8 SHR PUSH1 0xF8 SHL DUP4 DUP4 DUP1 PUSH2 0x2B10 SWAP1 PUSH2 0x3A82 JUMP JUMPDEST SWAP5 POP DUP2 MLOAD DUP2 LT PUSH2 0x2B23 JUMPI PUSH2 0x2B22 PUSH2 0x3B6C JUMP JUMPDEST JUMPDEST PUSH1 0x20 ADD ADD SWAP1 PUSH31 0xFFFFFFFFFFFFFFFFFFFFFFFFFFFFFFFFFFFFFFFFFFFFFFFFFFFFFFFFFFFFFF NOT AND SWAP1 DUP2 PUSH1 0x0 BYTE SWAP1 MSTORE8 POP DUP1 DUP1 PUSH2 0x2B5D SWAP1 PUSH2 0x3A82 JUMP JUMPDEST SWAP2 POP POP PUSH2 0x2ADD JUMP JUMPDEST POP DUP3 SWAP6 POP POP POP POP POP POP SWAP3 SWAP2 POP POP JUMP JUMPDEST PUSH1 0x60 PUSH2 0x2B9E DUP3 PUSH1 0x40 MLOAD PUSH1 0x20 ADD PUSH2 0x2B8A SWAP2 SWAP1 PUSH2 0x35FF JUMP JUMPDEST PUSH1 0x40 MLOAD PUSH1 0x20 DUP2 DUP4 SUB SUB DUP2 MSTORE SWAP1 PUSH1 0x40 MSTORE PUSH2 0x2C1B JUMP JUMPDEST SWAP1 POP SWAP2 SWAP1 POP JUMP JUMPDEST PUSH1 0x60 PUSH2 0x2BCF DUP3 PUSH1 0x40 MLOAD PUSH1 0x20 ADD PUSH2 0x2BBB SWAP2 SWAP1 PUSH2 0x35CD JUMP JUMPDEST PUSH1 0x40 MLOAD PUSH1 0x20 DUP2 DUP4 SUB SUB DUP2 MSTORE SWAP1 PUSH1 0x40 MSTORE PUSH2 0x2C1B JUMP JUMPDEST SWAP1 POP SWAP2 SWAP1 POP JUMP JUMPDEST PUSH1 0x0 DUP1 DUP4 EQ ISZERO PUSH2 0x2BE9 JUMPI PUSH1 0x0 SWAP1 POP PUSH2 0x2C15 JUMP JUMPDEST PUSH1 0x0 DUP3 DUP5 PUSH2 0x2BF7 SWAP2 SWAP1 PUSH2 0x38FD JUMP JUMPDEST SWAP1 POP DUP3 DUP5 DUP3 PUSH2 0x2C06 SWAP2 SWAP1 PUSH2 0x38CC JUMP JUMPDEST EQ PUSH2 0x2C10 JUMPI PUSH1 0x0 DUP1 REVERT JUMPDEST DUP1 SWAP2 POP POP JUMPDEST SWAP3 SWAP2 POP POP JUMP JUMPDEST PUSH1 0x60 PUSH1 0x0 PUSH1 0x40 MLOAD DUP1 PUSH1 0x40 ADD PUSH1 0x40 MSTORE DUP1 PUSH1 0x10 DUP2 MSTORE PUSH1 0x20 ADD PUSH32 0x3031323334353637383961626364656600000000000000000000000000000000 DUP2 MSTORE POP SWAP1 POP PUSH1 0x0 PUSH1 0x2 DUP5 MLOAD PUSH2 0x2C67 SWAP2 SWAP1 PUSH2 0x38FD JUMP JUMPDEST PUSH1 0x2 PUSH2 0x2C73 SWAP2 SWAP1 PUSH2 0x3876 JUMP JUMPDEST PUSH8 0xFFFFFFFFFFFFFFFF DUP2 GT ISZERO PUSH2 0x2C8C JUMPI PUSH2 0x2C8B PUSH2 0x3B9B JUMP JUMPDEST JUMPDEST PUSH1 0x40 MLOAD SWAP1 DUP1 DUP3 MSTORE DUP1 PUSH1 0x1F ADD PUSH1 0x1F NOT AND PUSH1 0x20 ADD DUP3 ADD PUSH1 0x40 MSTORE DUP1 ISZERO PUSH2 0x2CBE JUMPI DUP2 PUSH1 0x20 ADD PUSH1 0x1 DUP3 MUL DUP1 CALLDATASIZE DUP4 CALLDATACOPY DUP1 DUP3 ADD SWAP2 POP POP SWAP1 POP JUMPDEST POP SWAP1 POP PUSH32 0x3000000000000000000000000000000000000000000000000000000000000000 DUP2 PUSH1 0x0 DUP2 MLOAD DUP2 LT PUSH2 0x2CF6 JUMPI PUSH2 0x2CF5 PUSH2 0x3B6C JUMP JUMPDEST JUMPDEST PUSH1 0x20 ADD ADD SWAP1 PUSH31 0xFFFFFFFFFFFFFFFFFFFFFFFFFFFFFFFFFFFFFFFFFFFFFFFFFFFFFFFFFFFFFF NOT AND SWAP1 DUP2 PUSH1 0x0 BYTE SWAP1 MSTORE8 POP PUSH32 0x7800000000000000000000000000000000000000000000000000000000000000 DUP2 PUSH1 0x1 DUP2 MLOAD DUP2 LT PUSH2 0x2D5A JUMPI PUSH2 0x2D59 PUSH2 0x3B6C JUMP JUMPDEST JUMPDEST PUSH1 0x20 ADD ADD SWAP1 PUSH31 0xFFFFFFFFFFFFFFFFFFFFFFFFFFFFFFFFFFFFFFFFFFFFFFFFFFFFFFFFFFFFFF NOT AND SWAP1 DUP2 PUSH1 0x0 BYTE SWAP1 MSTORE8 POP PUSH1 0x0 JUMPDEST DUP5 MLOAD DUP2 LT ISZERO PUSH2 0x2F0A JUMPI DUP3 PUSH1 0x4 DUP7 DUP4 DUP2 MLOAD DUP2 LT PUSH2 0x2DAB JUMPI PUSH2 0x2DAA PUSH2 0x3B6C JUMP JUMPDEST JUMPDEST PUSH1 0x20 ADD ADD MLOAD PUSH1 0xF8 SHR PUSH1 0xF8 SHL PUSH31 0xFFFFFFFFFFFFFFFFFFFFFFFFFFFFFFFFFFFFFFFFFFFFFFFFFFFFFFFFFFFFFF NOT AND SWAP1 SHR PUSH1 0xF8 SHR PUSH1 0xFF AND DUP2 MLOAD DUP2 LT PUSH2 0x2DF1 JUMPI PUSH2 0x2DF0 PUSH2 0x3B6C JUMP JUMPDEST JUMPDEST PUSH1 0x20 ADD ADD MLOAD PUSH1 0xF8 SHR PUSH1 0xF8 SHL DUP3 PUSH1 0x2 DUP4 PUSH2 0x2E0A SWAP2 SWAP1 PUSH2 0x38FD JUMP JUMPDEST PUSH1 0x2 PUSH2 0x2E16 SWAP2 SWAP1 PUSH2 0x3876 JUMP JUMPDEST DUP2 MLOAD DUP2 LT PUSH2 0x2E27 JUMPI PUSH2 0x2E26 PUSH2 0x3B6C JUMP JUMPDEST JUMPDEST PUSH1 0x20 ADD ADD SWAP1 PUSH31 0xFFFFFFFFFFFFFFFFFFFFFFFFFFFFFFFFFFFFFFFFFFFFFFFFFFFFFFFFFFFFFF NOT AND SWAP1 DUP2 PUSH1 0x0 BYTE SWAP1 MSTORE8 POP DUP3 PUSH1 0xF PUSH1 0xF8 SHL DUP7 DUP4 DUP2 MLOAD DUP2 LT PUSH2 0x2E6F JUMPI PUSH2 0x2E6E PUSH2 0x3B6C JUMP JUMPDEST JUMPDEST PUSH1 0x20 ADD ADD MLOAD PUSH1 0xF8 SHR PUSH1 0xF8 SHL AND PUSH1 0xF8 SHR PUSH1 0xFF AND DUP2 MLOAD DUP2 LT PUSH2 0x2E92 JUMPI PUSH2 0x2E91 PUSH2 0x3B6C JUMP JUMPDEST JUMPDEST PUSH1 0x20 ADD ADD MLOAD PUSH1 0xF8 SHR PUSH1 0xF8 SHL DUP3 PUSH1 0x2 DUP4 PUSH2 0x2EAB SWAP2 SWAP1 PUSH2 0x38FD JUMP JUMPDEST PUSH1 0x3 PUSH2 0x2EB7 SWAP2 SWAP1 PUSH2 0x3876 JUMP JUMPDEST DUP2 MLOAD DUP2 LT PUSH2 0x2EC8 JUMPI PUSH2 0x2EC7 PUSH2 0x3B6C JUMP JUMPDEST JUMPDEST PUSH1 0x20 ADD ADD SWAP1 PUSH31 0xFFFFFFFFFFFFFFFFFFFFFFFFFFFFFFFFFFFFFFFFFFFFFFFFFFFFFFFFFFFFFF NOT AND SWAP1 DUP2 PUSH1 0x0 BYTE SWAP1 MSTORE8 POP DUP1 DUP1 PUSH2 0x2F02 SWAP1 PUSH2 0x3A82 JUMP JUMPDEST SWAP2 POP POP PUSH2 0x2D8C JUMP JUMPDEST POP DUP1 SWAP3 POP POP POP SWAP2 SWAP1 POP JUMP JUMPDEST DUP3 DUP1 SLOAD PUSH2 0x2F21 SWAP1 PUSH2 0x3A1F JUMP JUMPDEST SWAP1 PUSH1 0x0 MSTORE PUSH1 0x20 PUSH1 0x0 KECCAK256 SWAP1 PUSH1 0x1F ADD PUSH1 0x20 SWAP1 DIV DUP2 ADD SWAP3 DUP3 PUSH2 0x2F43 JUMPI PUSH1 0x0 DUP6 SSTORE PUSH2 0x2F8A JUMP JUMPDEST DUP3 PUSH1 0x1F LT PUSH2 0x2F5C JUMPI DUP1 MLOAD PUSH1 0xFF NOT AND DUP4 DUP1 ADD OR DUP6 SSTORE PUSH2 0x2F8A JUMP JUMPDEST DUP3 DUP1 ADD PUSH1 0x1 ADD DUP6 SSTORE DUP3 ISZERO PUSH2 0x2F8A JUMPI SWAP2 DUP3 ADD JUMPDEST DUP3 DUP2 GT ISZERO PUSH2 0x2F89 JUMPI DUP3 MLOAD DUP3 SSTORE SWAP2 PUSH1 0x20 ADD SWAP2 SWAP1 PUSH1 0x1 ADD SWAP1 PUSH2 0x2F6E JUMP JUMPDEST JUMPDEST POP SWAP1 POP PUSH2 0x2F97 SWAP2 SWAP1 PUSH2 0x2FCA JUMP JUMPDEST POP SWAP1 JUMP JUMPDEST PUSH1 0x40 MLOAD DUP1 PUSH1 0xA0 ADD PUSH1 0x40 MSTORE DUP1 PUSH1 0x0 DUP2 MSTORE PUSH1 0x20 ADD PUSH1 0x0 DUP2 MSTORE PUSH1 0x20 ADD PUSH1 0x0 DUP2 MSTORE PUSH1 0x20 ADD PUSH1 0x0 DUP2 MSTORE PUSH1 0x20 ADD PUSH1 0x0 DUP2 MSTORE POP SWAP1 JUMP JUMPDEST JUMPDEST DUP1 DUP3 GT ISZERO PUSH2 0x2FE3 JUMPI PUSH1 0x0 DUP2 PUSH1 0x0 SWAP1 SSTORE POP PUSH1 0x1 ADD PUSH2 0x2FCB JUMP JUMPDEST POP SWAP1 JUMP JUMPDEST PUSH1 0x0 PUSH2 0x2FFA PUSH2 0x2FF5 DUP5 PUSH2 0x381E JUMP JUMPDEST PUSH2 0x37F9 JUMP JUMPDEST SWAP1 POP DUP3 DUP2 MSTORE PUSH1 0x20 DUP2 ADD DUP5 DUP5 DUP5 ADD GT ISZERO PUSH2 0x3016 JUMPI PUSH2 0x3015 PUSH2 0x3BCF JUMP JUMPDEST JUMPDEST PUSH2 0x3021 DUP5 DUP3 DUP6 PUSH2 0x39DD JUMP JUMPDEST POP SWAP4 SWAP3 POP POP POP JUMP JUMPDEST PUSH1 0x0 DUP2 CALLDATALOAD SWAP1 POP PUSH2 0x3038 DUP2 PUSH2 0x3D60 JUMP JUMPDEST SWAP3 SWAP2 POP POP JUMP JUMPDEST PUSH1 0x0 DUP2 CALLDATALOAD SWAP1 POP PUSH2 0x304D DUP2 PUSH2 0x3D77 JUMP JUMPDEST SWAP3 SWAP2 POP POP JUMP JUMPDEST PUSH1 0x0 DUP2 CALLDATALOAD SWAP1 POP PUSH2 0x3062 DUP2 PUSH2 0x3D8E JUMP JUMPDEST SWAP3 SWAP2 POP POP JUMP JUMPDEST PUSH1 0x0 DUP3 PUSH1 0x1F DUP4 ADD SLT PUSH2 0x307D JUMPI PUSH2 0x307C PUSH2 0x3BCA JUMP JUMPDEST JUMPDEST DUP2 CALLDATALOAD PUSH2 0x308D DUP5 DUP3 PUSH1 0x20 DUP7 ADD PUSH2 0x2FE7 JUMP JUMPDEST SWAP2 POP POP SWAP3 SWAP2 POP POP JUMP JUMPDEST PUSH1 0x0 DUP2 CALLDATALOAD SWAP1 POP PUSH2 0x30A5 DUP2 PUSH2 0x3DA5 JUMP JUMPDEST SWAP3 SWAP2 POP POP JUMP JUMPDEST PUSH1 0x0 DUP1 PUSH1 0x40 DUP4 DUP6 SUB SLT ISZERO PUSH2 0x30C2 JUMPI PUSH2 0x30C1 PUSH2 0x3BD9 JUMP JUMPDEST JUMPDEST PUSH1 0x0 PUSH2 0x30D0 DUP6 DUP3 DUP7 ADD PUSH2 0x3029 JUMP JUMPDEST SWAP3 POP POP PUSH1 0x20 PUSH2 0x30E1 DUP6 DUP3 DUP7 ADD PUSH2 0x3053 JUMP JUMPDEST SWAP2 POP POP SWAP3 POP SWAP3 SWAP1 POP JUMP JUMPDEST PUSH1 0x0 DUP1 PUSH1 0x40 DUP4 DUP6 SUB SLT ISZERO PUSH2 0x3102 JUMPI PUSH2 0x3101 PUSH2 0x3BD9 JUMP JUMPDEST JUMPDEST PUSH1 0x0 PUSH2 0x3110 DUP6 DUP3 DUP7 ADD PUSH2 0x3029 JUMP JUMPDEST SWAP3 POP POP PUSH1 0x20 PUSH2 0x3121 DUP6 DUP3 DUP7 ADD PUSH2 0x3096 JUMP JUMPDEST SWAP2 POP POP SWAP3 POP SWAP3 SWAP1 POP JUMP JUMPDEST PUSH1 0x0 DUP1 PUSH1 0x0 DUP1 PUSH1 0x0 DUP1 PUSH1 0xC0 DUP8 DUP10 SUB SLT ISZERO PUSH2 0x3148 JUMPI PUSH2 0x3147 PUSH2 0x3BD9 JUMP JUMPDEST JUMPDEST PUSH1 0x0 PUSH2 0x3156 DUP10 DUP3 DUP11 ADD PUSH2 0x3029 JUMP JUMPDEST SWAP7 POP POP PUSH1 0x20 PUSH2 0x3167 DUP10 DUP3 DUP11 ADD PUSH2 0x3096 JUMP JUMPDEST SWAP6 POP POP PUSH1 0x40 PUSH2 0x3178 DUP10 DUP3 DUP11 ADD PUSH2 0x3053 JUMP JUMPDEST SWAP5 POP POP PUSH1 0x60 PUSH2 0x3189 DUP10 DUP3 DUP11 ADD PUSH2 0x3096 JUMP JUMPDEST SWAP4 POP POP PUSH1 0x80 PUSH2 0x319A DUP10 DUP3 DUP11 ADD PUSH2 0x3096 JUMP JUMPDEST SWAP3 POP POP PUSH1 0xA0 PUSH2 0x31AB DUP10 DUP3 DUP11 ADD PUSH2 0x3096 JUMP JUMPDEST SWAP2 POP POP SWAP3 SWAP6 POP SWAP3 SWAP6 POP SWAP3 SWAP6 JUMP JUMPDEST PUSH1 0x0 PUSH1 0x20 DUP3 DUP5 SUB SLT ISZERO PUSH2 0x31CE JUMPI PUSH2 0x31CD PUSH2 0x3BD9 JUMP JUMPDEST JUMPDEST PUSH1 0x0 PUSH2 0x31DC DUP5 DUP3 DUP6 ADD PUSH2 0x3053 JUMP JUMPDEST SWAP2 POP POP SWAP3 SWAP2 POP POP JUMP JUMPDEST PUSH1 0x0 DUP1 PUSH1 0x40 DUP4 DUP6 SUB SLT ISZERO PUSH2 0x31FC JUMPI PUSH2 0x31FB PUSH2 0x3BD9 JUMP JUMPDEST JUMPDEST PUSH1 0x0 PUSH2 0x320A DUP6 DUP3 DUP7 ADD PUSH2 0x3053 JUMP JUMPDEST SWAP3 POP POP PUSH1 0x20 PUSH2 0x321B DUP6 DUP3 DUP7 ADD PUSH2 0x3096 JUMP JUMPDEST SWAP2 POP POP SWAP3 POP SWAP3 SWAP1 POP JUMP JUMPDEST PUSH1 0x0 DUP1 PUSH1 0x0 DUP1 PUSH1 0x80 DUP6 DUP8 SUB SLT ISZERO PUSH2 0x323F JUMPI PUSH2 0x323E PUSH2 0x3BD9 JUMP JUMPDEST JUMPDEST PUSH1 0x0 PUSH2 0x324D DUP8 DUP3 DUP9 ADD PUSH2 0x3053 JUMP JUMPDEST SWAP5 POP POP PUSH1 0x20 PUSH2 0x325E DUP8 DUP3 DUP9 ADD PUSH2 0x3096 JUMP JUMPDEST SWAP4 POP POP PUSH1 0x40 PUSH2 0x326F DUP8 DUP3 DUP9 ADD PUSH2 0x3096 JUMP JUMPDEST SWAP3 POP POP PUSH1 0x60 PUSH2 0x3280 DUP8 DUP3 DUP9 ADD PUSH2 0x3096 JUMP JUMPDEST SWAP2 POP POP SWAP3 SWAP6 SWAP2 SWAP5 POP SWAP3 POP JUMP JUMPDEST PUSH1 0x0 DUP1 PUSH1 0x0 DUP1 PUSH1 0x80 DUP6 DUP8 SUB SLT ISZERO PUSH2 0x32A6 JUMPI PUSH2 0x32A5 PUSH2 0x3BD9 JUMP JUMPDEST JUMPDEST PUSH1 0x0 DUP6 ADD CALLDATALOAD PUSH8 0xFFFFFFFFFFFFFFFF DUP2 GT ISZERO PUSH2 0x32C4 JUMPI PUSH2 0x32C3 PUSH2 0x3BD4 JUMP JUMPDEST JUMPDEST PUSH2 0x32D0 DUP8 DUP3 DUP9 ADD PUSH2 0x3068 JUMP JUMPDEST SWAP5 POP POP PUSH1 0x20 DUP6 ADD CALLDATALOAD PUSH8 0xFFFFFFFFFFFFFFFF DUP2 GT ISZERO PUSH2 0x32F1 JUMPI PUSH2 0x32F0 PUSH2 0x3BD4 JUMP JUMPDEST JUMPDEST PUSH2 0x32FD DUP8 DUP3 DUP9 ADD PUSH2 0x3068 JUMP JUMPDEST SWAP4 POP POP PUSH1 0x40 DUP6 ADD CALLDATALOAD PUSH8 0xFFFFFFFFFFFFFFFF DUP2 GT ISZERO PUSH2 0x331E JUMPI PUSH2 0x331D PUSH2 0x3BD4 JUMP JUMPDEST JUMPDEST PUSH2 0x332A DUP8 DUP3 DUP9 ADD PUSH2 0x3068 JUMP JUMPDEST SWAP3 POP POP PUSH1 0x60 PUSH2 0x333B DUP8 DUP3 DUP9 ADD PUSH2 0x303E JUMP JUMPDEST SWAP2 POP POP SWAP3 SWAP6 SWAP2 SWAP5 POP SWAP3 POP JUMP JUMPDEST PUSH2 0x3350 DUP2 PUSH2 0x398B JUMP JUMPDEST DUP3 MSTORE POP POP JUMP JUMPDEST PUSH2 0x335F DUP2 PUSH2 0x399D JUMP JUMPDEST DUP3 MSTORE POP POP JUMP JUMPDEST PUSH2 0x336E DUP2 PUSH2 0x39A9 JUMP JUMPDEST DUP3 MSTORE POP POP JUMP JUMPDEST PUSH2 0x3385 PUSH2 0x3380 DUP3 PUSH2 0x39A9 JUMP JUMPDEST PUSH2 0x3ACB JUMP JUMPDEST DUP3 MSTORE POP POP JUMP JUMPDEST PUSH1 0x0 PUSH2 0x3396 DUP3 PUSH2 0x384F JUMP JUMPDEST PUSH2 0x33A0 DUP2 DUP6 PUSH2 0x385A JUMP JUMPDEST SWAP4 POP PUSH2 0x33B0 DUP2 DUP6 PUSH1 0x20 DUP7 ADD PUSH2 0x39EC JUMP JUMPDEST PUSH2 0x33B9 DUP2 PUSH2 0x3BDE JUMP JUMPDEST DUP5 ADD SWAP2 POP POP SWAP3 SWAP2 POP POP JUMP JUMPDEST PUSH1 0x0 PUSH2 0x33CF DUP3 PUSH2 0x384F JUMP JUMPDEST PUSH2 0x33D9 DUP2 DUP6 PUSH2 0x386B JUMP JUMPDEST SWAP4 POP PUSH2 0x33E9 DUP2 DUP6 PUSH1 0x20 DUP7 ADD PUSH2 0x39EC JUMP JUMPDEST DUP1 DUP5 ADD SWAP2 POP POP SWAP3 SWAP2 POP POP JUMP JUMPDEST PUSH1 0x0 PUSH2 0x3402 PUSH1 0x19 DUP4 PUSH2 0x385A JUMP JUMPDEST SWAP2 POP PUSH2 0x340D DUP3 PUSH2 0x3BEF JUMP JUMPDEST PUSH1 0x20 DUP3 ADD SWAP1 POP SWAP2 SWAP1 POP JUMP JUMPDEST PUSH1 0x0 PUSH2 0x3425 PUSH1 0x9 DUP4 PUSH2 0x385A JUMP JUMPDEST SWAP2 POP PUSH2 0x3430 DUP3 PUSH2 0x3C18 JUMP JUMPDEST PUSH1 0x20 DUP3 ADD SWAP1 POP SWAP2 SWAP1 POP JUMP JUMPDEST PUSH1 0x0 PUSH2 0x3448 PUSH1 0xE DUP4 PUSH2 0x385A JUMP JUMPDEST SWAP2 POP PUSH2 0x3453 DUP3 PUSH2 0x3C41 JUMP JUMPDEST PUSH1 0x20 DUP3 ADD SWAP1 POP SWAP2 SWAP1 POP JUMP JUMPDEST PUSH1 0x0 PUSH2 0x346B PUSH1 0x17 DUP4 PUSH2 0x385A JUMP JUMPDEST SWAP2 POP PUSH2 0x3476 DUP3 PUSH2 0x3C6A JUMP JUMPDEST PUSH1 0x20 DUP3 ADD SWAP1 POP SWAP2 SWAP1 POP JUMP JUMPDEST PUSH1 0x0 PUSH2 0x348E PUSH1 0xA DUP4 PUSH2 0x385A JUMP JUMPDEST SWAP2 POP PUSH2 0x3499 DUP3 PUSH2 0x3C93 JUMP JUMPDEST PUSH1 0x20 DUP3 ADD SWAP1 POP SWAP2 SWAP1 POP JUMP JUMPDEST PUSH1 0x0 PUSH2 0x34B1 PUSH1 0x15 DUP4 PUSH2 0x385A JUMP JUMPDEST SWAP2 POP PUSH2 0x34BC DUP3 PUSH2 0x3CBC JUMP JUMPDEST PUSH1 0x20 DUP3 ADD SWAP1 POP SWAP2 SWAP1 POP JUMP JUMPDEST PUSH1 0x0 PUSH2 0x34D4 PUSH1 0x15 DUP4 PUSH2 0x385A JUMP JUMPDEST SWAP2 POP PUSH2 0x34DF DUP3 PUSH2 0x3CE5 JUMP JUMPDEST PUSH1 0x20 DUP3 ADD SWAP1 POP SWAP2 SWAP1 POP JUMP JUMPDEST PUSH1 0x0 PUSH2 0x34F7 PUSH1 0x10 DUP4 PUSH2 0x385A JUMP JUMPDEST SWAP2 POP PUSH2 0x3502 DUP3 PUSH2 0x3D0E JUMP JUMPDEST PUSH1 0x20 DUP3 ADD SWAP1 POP SWAP2 SWAP1 POP JUMP JUMPDEST PUSH1 0x0 PUSH2 0x351A PUSH1 0x11 DUP4 PUSH2 0x385A JUMP JUMPDEST SWAP2 POP PUSH2 0x3525 DUP3 PUSH2 0x3D37 JUMP JUMPDEST PUSH1 0x20 DUP3 ADD SWAP1 POP SWAP2 SWAP1 POP JUMP JUMPDEST PUSH1 0xA0 DUP3 ADD PUSH1 0x0 DUP3 ADD MLOAD PUSH2 0x3546 PUSH1 0x0 DUP6 ADD DUP3 PUSH2 0x3598 JUMP JUMPDEST POP PUSH1 0x20 DUP3 ADD MLOAD PUSH2 0x3559 PUSH1 0x20 DUP6 ADD DUP3 PUSH2 0x3598 JUMP JUMPDEST POP PUSH1 0x40 DUP3 ADD MLOAD PUSH2 0x356C PUSH1 0x40 DUP6 ADD DUP3 PUSH2 0x3598 JUMP JUMPDEST POP PUSH1 0x60 DUP3 ADD MLOAD PUSH2 0x357F PUSH1 0x60 DUP6 ADD DUP3 PUSH2 0x3598 JUMP JUMPDEST POP PUSH1 0x80 DUP3 ADD MLOAD PUSH2 0x3592 PUSH1 0x80 DUP6 ADD DUP3 PUSH2 0x3598 JUMP JUMPDEST POP POP POP POP JUMP JUMPDEST PUSH2 0x35A1 DUP2 PUSH2 0x39D3 JUMP JUMPDEST DUP3 MSTORE POP POP JUMP JUMPDEST PUSH2 0x35B0 DUP2 PUSH2 0x39D3 JUMP JUMPDEST DUP3 MSTORE POP POP JUMP JUMPDEST PUSH2 0x35C7 PUSH2 0x35C2 DUP3 PUSH2 0x39D3 JUMP JUMPDEST PUSH2 0x3AD5 JUMP JUMPDEST DUP3 MSTORE POP POP JUMP JUMPDEST PUSH1 0x0 PUSH2 0x35D9 DUP3 DUP5 PUSH2 0x3374 JUMP JUMPDEST PUSH1 0x20 DUP3 ADD SWAP2 POP DUP2 SWAP1 POP SWAP3 SWAP2 POP POP JUMP JUMPDEST PUSH1 0x0 PUSH2 0x35F4 DUP3 DUP5 PUSH2 0x33C4 JUMP JUMPDEST SWAP2 POP DUP2 SWAP1 POP SWAP3 SWAP2 POP POP JUMP JUMPDEST PUSH1 0x0 PUSH2 0x360B DUP3 DUP5 PUSH2 0x35B6 JUMP JUMPDEST PUSH1 0x20 DUP3 ADD SWAP2 POP DUP2 SWAP1 POP SWAP3 SWAP2 POP POP JUMP JUMPDEST PUSH1 0x0 PUSH1 0x40 DUP3 ADD SWAP1 POP PUSH2 0x362F PUSH1 0x0 DUP4 ADD DUP6 PUSH2 0x3347 JUMP JUMPDEST PUSH2 0x363C PUSH1 0x20 DUP4 ADD DUP5 PUSH2 0x35A7 JUMP JUMPDEST SWAP4 SWAP3 POP POP POP JUMP JUMPDEST PUSH1 0x0 PUSH1 0x20 DUP3 ADD SWAP1 POP PUSH2 0x3658 PUSH1 0x0 DUP4 ADD DUP5 PUSH2 0x3356 JUMP JUMPDEST SWAP3 SWAP2 POP POP JUMP JUMPDEST PUSH1 0x0 PUSH1 0x20 DUP3 ADD SWAP1 POP PUSH2 0x3673 PUSH1 0x0 DUP4 ADD DUP5 PUSH2 0x3365 JUMP JUMPDEST SWAP3 SWAP2 POP POP JUMP JUMPDEST PUSH1 0x0 PUSH1 0xE0 DUP3 ADD SWAP1 POP DUP2 DUP2 SUB PUSH1 0x0 DUP4 ADD MSTORE PUSH2 0x3693 DUP2 DUP7 PUSH2 0x338B JUMP JUMPDEST SWAP1 POP DUP2 DUP2 SUB PUSH1 0x20 DUP4 ADD MSTORE PUSH2 0x36A7 DUP2 DUP6 PUSH2 0x338B JUMP JUMPDEST SWAP1 POP PUSH2 0x36B6 PUSH1 0x40 DUP4 ADD DUP5 PUSH2 0x3530 JUMP JUMPDEST SWAP5 SWAP4 POP POP POP POP JUMP JUMPDEST PUSH1 0x0 PUSH1 0x20 DUP3 ADD SWAP1 POP DUP2 DUP2 SUB PUSH1 0x0 DUP4 ADD MSTORE PUSH2 0x36D7 DUP2 PUSH2 0x33F5 JUMP JUMPDEST SWAP1 POP SWAP2 SWAP1 POP JUMP JUMPDEST PUSH1 0x0 PUSH1 0x20 DUP3 ADD SWAP1 POP DUP2 DUP2 SUB PUSH1 0x0 DUP4 ADD MSTORE PUSH2 0x36F7 DUP2 PUSH2 0x3418 JUMP JUMPDEST SWAP1 POP SWAP2 SWAP1 POP JUMP JUMPDEST PUSH1 0x0 PUSH1 0x20 DUP3 ADD SWAP1 POP DUP2 DUP2 SUB PUSH1 0x0 DUP4 ADD MSTORE PUSH2 0x3717 DUP2 PUSH2 0x343B JUMP JUMPDEST SWAP1 POP SWAP2 SWAP1 POP JUMP JUMPDEST PUSH1 0x0 PUSH1 0x20 DUP3 ADD SWAP1 POP DUP2 DUP2 SUB PUSH1 0x0 DUP4 ADD MSTORE PUSH2 0x3737 DUP2 PUSH2 0x345E JUMP JUMPDEST SWAP1 POP SWAP2 SWAP1 POP JUMP JUMPDEST PUSH1 0x0 PUSH1 0x20 DUP3 ADD SWAP1 POP DUP2 DUP2 SUB PUSH1 0x0 DUP4 ADD MSTORE PUSH2 0x3757 DUP2 PUSH2 0x3481 JUMP JUMPDEST SWAP1 POP SWAP2 SWAP1 POP JUMP JUMPDEST PUSH1 0x0 PUSH1 0x20 DUP3 ADD SWAP1 POP DUP2 DUP2 SUB PUSH1 0x0 DUP4 ADD MSTORE PUSH2 0x3777 DUP2 PUSH2 0x34A4 JUMP JUMPDEST SWAP1 POP SWAP2 SWAP1 POP JUMP JUMPDEST PUSH1 0x0 PUSH1 0x20 DUP3 ADD SWAP1 POP DUP2 DUP2 SUB PUSH1 0x0 DUP4 ADD MSTORE PUSH2 0x3797 DUP2 PUSH2 0x34C7 JUMP JUMPDEST SWAP1 POP SWAP2 SWAP1 POP JUMP JUMPDEST PUSH1 0x0 PUSH1 0x20 DUP3 ADD SWAP1 POP DUP2 DUP2 SUB PUSH1 0x0 DUP4 ADD MSTORE PUSH2 0x37B7 DUP2 PUSH2 0x34EA JUMP JUMPDEST SWAP1 POP SWAP2 SWAP1 POP JUMP JUMPDEST PUSH1 0x0 PUSH1 0x20 DUP3 ADD SWAP1 POP DUP2 DUP2 SUB PUSH1 0x0 DUP4 ADD MSTORE PUSH2 0x37D7 DUP2 PUSH2 0x350D JUMP JUMPDEST SWAP1 POP SWAP2 SWAP1 POP JUMP JUMPDEST PUSH1 0x0 PUSH1 0x20 DUP3 ADD SWAP1 POP PUSH2 0x37F3 PUSH1 0x0 DUP4 ADD DUP5 PUSH2 0x35A7 JUMP JUMPDEST SWAP3 SWAP2 POP POP JUMP JUMPDEST PUSH1 0x0 PUSH2 0x3803 PUSH2 0x3814 JUMP JUMPDEST SWAP1 POP PUSH2 0x380F DUP3 DUP3 PUSH2 0x3A51 JUMP JUMPDEST SWAP2 SWAP1 POP JUMP JUMPDEST PUSH1 0x0 PUSH1 0x40 MLOAD SWAP1 POP SWAP1 JUMP JUMPDEST PUSH1 0x0 PUSH8 0xFFFFFFFFFFFFFFFF DUP3 GT ISZERO PUSH2 0x3839 JUMPI PUSH2 0x3838 PUSH2 0x3B9B JUMP JUMPDEST JUMPDEST PUSH2 0x3842 DUP3 PUSH2 0x3BDE JUMP JUMPDEST SWAP1 POP PUSH1 0x20 DUP2 ADD SWAP1 POP SWAP2 SWAP1 POP JUMP JUMPDEST PUSH1 0x0 DUP2 MLOAD SWAP1 POP SWAP2 SWAP1 POP JUMP JUMPDEST PUSH1 0x0 DUP3 DUP3 MSTORE PUSH1 0x20 DUP3 ADD SWAP1 POP SWAP3 SWAP2 POP POP JUMP JUMPDEST PUSH1 0x0 DUP2 SWAP1 POP SWAP3 SWAP2 POP POP JUMP JUMPDEST PUSH1 0x0 PUSH2 0x3881 DUP3 PUSH2 0x39D3 JUMP JUMPDEST SWAP2 POP PUSH2 0x388C DUP4 PUSH2 0x39D3 JUMP JUMPDEST SWAP3 POP DUP3 PUSH32 0xFFFFFFFFFFFFFFFFFFFFFFFFFFFFFFFFFFFFFFFFFFFFFFFFFFFFFFFFFFFFFFFF SUB DUP3 GT ISZERO PUSH2 0x38C1 JUMPI PUSH2 0x38C0 PUSH2 0x3ADF JUMP JUMPDEST JUMPDEST DUP3 DUP3 ADD SWAP1 POP SWAP3 SWAP2 POP POP JUMP JUMPDEST PUSH1 0x0 PUSH2 0x38D7 DUP3 PUSH2 0x39D3 JUMP JUMPDEST SWAP2 POP PUSH2 0x38E2 DUP4 PUSH2 0x39D3 JUMP JUMPDEST SWAP3 POP DUP3 PUSH2 0x38F2 JUMPI PUSH2 0x38F1 PUSH2 0x3B0E JUMP JUMPDEST JUMPDEST DUP3 DUP3 DIV SWAP1 POP SWAP3 SWAP2 POP POP JUMP JUMPDEST PUSH1 0x0 PUSH2 0x3908 DUP3 PUSH2 0x39D3 JUMP JUMPDEST SWAP2 POP PUSH2 0x3913 DUP4 PUSH2 0x39D3 JUMP JUMPDEST SWAP3 POP DUP2 PUSH32 0xFFFFFFFFFFFFFFFFFFFFFFFFFFFFFFFFFFFFFFFFFFFFFFFFFFFFFFFFFFFFFFFF DIV DUP4 GT DUP3 ISZERO ISZERO AND ISZERO PUSH2 0x394C JUMPI PUSH2 0x394B PUSH2 0x3ADF JUMP JUMPDEST JUMPDEST DUP3 DUP3 MUL SWAP1 POP SWAP3 SWAP2 POP POP JUMP JUMPDEST PUSH1 0x0 PUSH2 0x3962 DUP3 PUSH2 0x39D3 JUMP JUMPDEST SWAP2 POP PUSH2 0x396D DUP4 PUSH2 0x39D3 JUMP JUMPDEST SWAP3 POP DUP3 DUP3 LT ISZERO PUSH2 0x3980 JUMPI PUSH2 0x397F PUSH2 0x3ADF JUMP JUMPDEST JUMPDEST DUP3 DUP3 SUB SWAP1 POP SWAP3 SWAP2 POP POP JUMP JUMPDEST PUSH1 0x0 PUSH2 0x3996 DUP3 PUSH2 0x39B3 JUMP JUMPDEST SWAP1 POP SWAP2 SWAP1 POP JUMP JUMPDEST PUSH1 0x0 DUP2 ISZERO ISZERO SWAP1 POP SWAP2 SWAP1 POP JUMP JUMPDEST PUSH1 0x0 DUP2 SWAP1 POP SWAP2 SWAP1 POP JUMP JUMPDEST PUSH1 0x0 PUSH20 0xFFFFFFFFFFFFFFFFFFFFFFFFFFFFFFFFFFFFFFFF DUP3 AND SWAP1 POP SWAP2 SWAP1 POP JUMP JUMPDEST PUSH1 0x0 DUP2 SWAP1 POP SWAP2 SWAP1 POP JUMP JUMPDEST DUP3 DUP2 DUP4 CALLDATACOPY PUSH1 0x0 DUP4 DUP4 ADD MSTORE POP POP POP JUMP JUMPDEST PUSH1 0x0 JUMPDEST DUP4 DUP2 LT ISZERO PUSH2 0x3A0A JUMPI DUP1 DUP3 ADD MLOAD DUP2 DUP5 ADD MSTORE PUSH1 0x20 DUP2 ADD SWAP1 POP PUSH2 0x39EF JUMP JUMPDEST DUP4 DUP2 GT ISZERO PUSH2 0x3A19 JUMPI PUSH1 0x0 DUP5 DUP5 ADD MSTORE JUMPDEST POP POP POP POP JUMP JUMPDEST PUSH1 0x0 PUSH1 0x2 DUP3 DIV SWAP1 POP PUSH1 0x1 DUP3 AND DUP1 PUSH2 0x3A37 JUMPI PUSH1 0x7F DUP3 AND SWAP2 POP JUMPDEST PUSH1 0x20 DUP3 LT DUP2 EQ ISZERO PUSH2 0x3A4B JUMPI PUSH2 0x3A4A PUSH2 0x3B3D JUMP JUMPDEST JUMPDEST POP SWAP2 SWAP1 POP JUMP JUMPDEST PUSH2 0x3A5A DUP3 PUSH2 0x3BDE JUMP JUMPDEST DUP2 ADD DUP2 DUP2 LT PUSH8 0xFFFFFFFFFFFFFFFF DUP3 GT OR ISZERO PUSH2 0x3A79 JUMPI PUSH2 0x3A78 PUSH2 0x3B9B JUMP JUMPDEST JUMPDEST DUP1 PUSH1 0x40 MSTORE POP POP POP JUMP JUMPDEST PUSH1 0x0 PUSH2 0x3A8D DUP3 PUSH2 0x39D3 JUMP JUMPDEST SWAP2 POP PUSH32 0xFFFFFFFFFFFFFFFFFFFFFFFFFFFFFFFFFFFFFFFFFFFFFFFFFFFFFFFFFFFFFFFF DUP3 EQ ISZERO PUSH2 0x3AC0 JUMPI PUSH2 0x3ABF PUSH2 0x3ADF JUMP JUMPDEST JUMPDEST PUSH1 0x1 DUP3 ADD SWAP1 POP SWAP2 SWAP1 POP JUMP JUMPDEST PUSH1 0x0 DUP2 SWAP1 POP SWAP2 SWAP1 POP JUMP JUMPDEST PUSH1 0x0 DUP2 SWAP1 POP SWAP2 SWAP1 POP JUMP JUMPDEST PUSH32 0x4E487B7100000000000000000000000000000000000000000000000000000000 PUSH1 0x0 MSTORE PUSH1 0x11 PUSH1 0x4 MSTORE PUSH1 0x24 PUSH1 0x0 REVERT JUMPDEST PUSH32 0x4E487B7100000000000000000000000000000000000000000000000000000000 PUSH1 0x0 MSTORE PUSH1 0x12 PUSH1 0x4 MSTORE PUSH1 0x24 PUSH1 0x0 REVERT JUMPDEST PUSH32 0x4E487B7100000000000000000000000000000000000000000000000000000000 PUSH1 0x0 MSTORE PUSH1 0x22 PUSH1 0x4 MSTORE PUSH1 0x24 PUSH1 0x0 REVERT JUMPDEST PUSH32 0x4E487B7100000000000000000000000000000000000000000000000000000000 PUSH1 0x0 MSTORE PUSH1 0x32 PUSH1 0x4 MSTORE PUSH1 0x24 PUSH1 0x0 REVERT JUMPDEST PUSH32 0x4E487B7100000000000000000000000000000000000000000000000000000000 PUSH1 0x0 MSTORE PUSH1 0x41 PUSH1 0x4 MSTORE PUSH1 0x24 PUSH1 0x0 REVERT JUMPDEST PUSH1 0x0 DUP1 REVERT JUMPDEST PUSH1 0x0 DUP1 REVERT JUMPDEST PUSH1 0x0 DUP1 REVERT JUMPDEST PUSH1 0x0 DUP1 REVERT JUMPDEST PUSH1 0x0 PUSH1 0x1F NOT PUSH1 0x1F DUP4 ADD AND SWAP1 POP SWAP2 SWAP1 POP JUMP JUMPDEST PUSH32 0x4F6E6C79206F776E65722063616E2063616C6C20746869732E00000000000000 PUSH1 0x0 DUP3 ADD MSTORE POP JUMP JUMPDEST PUSH32 0x6E6F742065786973740000000000000000000000000000000000000000000000 PUSH1 0x0 DUP3 ADD MSTORE POP JUMP JUMPDEST PUSH32 0x706F6F6C206E6F74206578697374000000000000000000000000000000000000 PUSH1 0x0 DUP3 ADD MSTORE POP JUMP JUMPDEST PUSH32 0x706F6F6C20626173616C20686173206265656E20736574000000000000000000 PUSH1 0x0 DUP3 ADD MSTORE POP JUMP JUMPDEST PUSH32 0x7061697220657869737400000000000000000000000000000000000000000000 PUSH1 0x0 DUP3 ADD MSTORE POP JUMP JUMPDEST PUSH32 0x706F6F6C20686173206E6F742066696E69736865640000000000000000000000 PUSH1 0x0 DUP3 ADD MSTORE POP JUMP JUMPDEST PUSH32 0x6E6F7420656E6F75676820766F7465416D6F756E740000000000000000000000 PUSH1 0x0 DUP3 ADD MSTORE POP JUMP JUMPDEST PUSH32 0x6E6F7420656E6F75676820626173616C00000000000000000000000000000000 PUSH1 0x0 DUP3 ADD MSTORE POP JUMP JUMPDEST PUSH32 0x706F6F6C206861732066696E6973686564000000000000000000000000000000 PUSH1 0x0 DUP3 ADD MSTORE POP JUMP JUMPDEST PUSH2 0x3D69 DUP2 PUSH2 0x398B JUMP JUMPDEST DUP2 EQ PUSH2 0x3D74 JUMPI PUSH1 0x0 DUP1 REVERT JUMPDEST POP JUMP JUMPDEST PUSH2 0x3D80 DUP2 PUSH2 0x399D JUMP JUMPDEST DUP2 EQ PUSH2 0x3D8B JUMPI PUSH1 0x0 DUP1 REVERT JUMPDEST POP JUMP JUMPDEST PUSH2 0x3D97 DUP2 PUSH2 0x39A9 JUMP JUMPDEST DUP2 EQ PUSH2 0x3DA2 JUMPI PUSH1 0x0 DUP1 REVERT JUMPDEST POP JUMP JUMPDEST PUSH2 0x3DAE DUP2 PUSH2 0x39D3 JUMP JUMPDEST DUP2 EQ PUSH2 0x3DB9 JUMPI PUSH1 0x0 DUP1 REVERT JUMPDEST POP JUMP INVALID LOG2 PUSH5 0x6970667358 0x22 SLT KECCAK256 DIFFICULTY 0x4E 0xE6 CODECOPY 0xD SWAP8 0xC7 DUP12 PUSH24 0xD16B1F22C0FD862E84764199A8F0317826CBA0F55645C564 PUSH20 0x6F6C634300080700330000000000000000000000 "
				},
				"gasEstimates": {
					"creation": {
						"codeDepositCost": "3171600",
						"executionCost": "infinite",
						"totalCost": "infinite"
					},
					"external": {
						"Award(bytes32,uint256,uint256,uint256)": "infinite",
						"CheckBasal()": "4674",
						"CheckExpect(bytes32)": "infinite",
						"Picking(address,uint256,bytes32,uint256,uint256,uint256)": "infinite",
						"Set_Basal(bytes32,uint256)": "infinite",
						"Set_Pool(string,string,string,bool)": "infinite",
						"Withdrawal(address,bytes32)": "infinite",
						"getPool(bytes32)": "infinite",
						"voteWithdrawal(address,uint256)": "infinite"
					},
					"internal": {
						"addressToString(address)": "infinite",
						"bytes32ToString(bytes32)": "infinite",
						"contains(bytes32)": "2304",
						"strConcat(string memory,string memory)": "infinite",
						"stringCompare(string memory,string memory)": "infinite",
						"toString(bytes memory)": "infinite",
						"uint256ToString(uint256)": "infinite"
					}
				},
				"methodIdentifiers": {
					"Award(bytes32,uint256,uint256,uint256)": "74fe9bc2",
					"CheckBasal()": "3e6ff1a2",
					"CheckExpect(bytes32)": "4121855f",
					"Picking(address,uint256,bytes32,uint256,uint256,uint256)": "47e4dd27",
					"Set_Basal(bytes32,uint256)": "2bf21ecc",
					"Set_Pool(string,string,string,bool)": "357965ba",
					"Withdrawal(address,bytes32)": "0ce49053",
					"getPool(bytes32)": "f6c00927",
					"voteWithdrawal(address,uint256)": "9bd0abf1"
				}
			},
			"storageLayout": {
				"storage": [
					{
						"astId": 198,
						"contract": "wwcc-contracts/contracts/wwccPool.sol:WCPOOL",
						"label": "owner",
						"offset": 0,
						"slot": "0",
						"type": "t_address"
					},
					{
						"astId": 200,
						"contract": "wwcc-contracts/contracts/wwccPool.sol:WCPOOL",
						"label": "nextBasalLast",
						"offset": 0,
						"slot": "1",
						"type": "t_uint256"
					},
					{
						"astId": 204,
						"contract": "wwcc-contracts/contracts/wwccPool.sol:WCPOOL",
						"label": "voteAmount",
						"offset": 0,
						"slot": "2",
						"type": "t_mapping(t_address,t_uint256)"
					},
					{
						"astId": 209,
						"contract": "wwcc-contracts/contracts/wwccPool.sol:WCPOOL",
						"label": "WcPools",
						"offset": 0,
						"slot": "3",
						"type": "t_mapping(t_bytes32,t_struct(WcPool)153_storage)"
					},
					{
						"astId": 214,
						"contract": "wwcc-contracts/contracts/wwccPool.sol:WCPOOL",
						"label": "allScorePoolInfo",
						"offset": 0,
						"slot": "4",
						"type": "t_mapping(t_bytes32,t_struct(AllScorePool)171_storage)"
					},
					{
						"astId": 218,
						"contract": "wwcc-contracts/contracts/wwccPool.sol:WCPOOL",
						"label": "singleScorePool",
						"offset": 0,
						"slot": "5",
						"type": "t_mapping(t_string_memory_ptr,t_uint256)"
					},
					{
						"astId": 223,
						"contract": "wwcc-contracts/contracts/wwccPool.sol:WCPOOL",
						"label": "joinerAllPicking",
						"offset": 0,
						"slot": "6",
						"type": "t_mapping(t_address,t_struct(JoinerAllPicking)178_storage)"
					}
				],
				"types": {
					"t_address": {
						"encoding": "inplace",
						"label": "address",
						"numberOfBytes": "20"
					},
					"t_array(t_struct(JoinerPicking)193_storage)dyn_storage": {
						"base": "t_struct(JoinerPicking)193_storage",
						"encoding": "dynamic_array",
						"label": "struct WCPOOL.JoinerPicking[]",
						"numberOfBytes": "32"
					},
					"t_bool": {
						"encoding": "inplace",
						"label": "bool",
						"numberOfBytes": "1"
					},
					"t_bytes32": {
						"encoding": "inplace",
						"label": "bytes32",
						"numberOfBytes": "32"
					},
					"t_mapping(t_address,t_struct(JoinerAllPicking)178_storage)": {
						"encoding": "mapping",
						"key": "t_address",
						"label": "mapping(address => struct WCPOOL.JoinerAllPicking)",
						"numberOfBytes": "32",
						"value": "t_struct(JoinerAllPicking)178_storage"
					},
					"t_mapping(t_address,t_uint256)": {
						"encoding": "mapping",
						"key": "t_address",
						"label": "mapping(address => uint256)",
						"numberOfBytes": "32",
						"value": "t_uint256"
					},
					"t_mapping(t_bytes32,t_struct(AllScorePool)171_storage)": {
						"encoding": "mapping",
						"key": "t_bytes32",
						"label": "mapping(bytes32 => struct WCPOOL.AllScorePool)",
						"numberOfBytes": "32",
						"value": "t_struct(AllScorePool)171_storage"
					},
					"t_mapping(t_bytes32,t_struct(WcPool)153_storage)": {
						"encoding": "mapping",
						"key": "t_bytes32",
						"label": "mapping(bytes32 => struct WCPOOL.WcPool)",
						"numberOfBytes": "32",
						"value": "t_struct(WcPool)153_storage"
					},
					"t_mapping(t_string_memory_ptr,t_uint256)": {
						"encoding": "mapping",
						"key": "t_string_memory_ptr",
						"label": "mapping(string => uint256)",
						"numberOfBytes": "32",
						"value": "t_uint256"
					},
					"t_string_memory_ptr": {
						"encoding": "bytes",
						"label": "string",
						"numberOfBytes": "32"
					},
					"t_string_storage": {
						"encoding": "bytes",
						"label": "string",
						"numberOfBytes": "32"
					},
					"t_struct(AllScorePool)171_storage": {
						"encoding": "inplace",
						"label": "struct WCPOOL.AllScorePool",
						"members": [
							{
								"astId": 168,
								"contract": "wwcc-contracts/contracts/wwccPool.sol:WCPOOL",
								"label": "separateBet",
								"offset": 0,
								"slot": "0",
								"type": "t_array(t_struct(JoinerPicking)193_storage)dyn_storage"
							},
							{
								"astId": 170,
								"contract": "wwcc-contracts/contracts/wwccPool.sol:WCPOOL",
								"label": "poolKey",
								"offset": 0,
								"slot": "1",
								"type": "t_bytes32"
							}
						],
						"numberOfBytes": "64"
					},
					"t_struct(JoinerAllPicking)178_storage": {
						"encoding": "inplace",
						"label": "struct WCPOOL.JoinerAllPicking",
						"members": [
							{
								"astId": 175,
								"contract": "wwcc-contracts/contracts/wwccPool.sol:WCPOOL",
								"label": "separateBet",
								"offset": 0,
								"slot": "0",
								"type": "t_array(t_struct(JoinerPicking)193_storage)dyn_storage"
							},
							{
								"astId": 177,
								"contract": "wwcc-contracts/contracts/wwccPool.sol:WCPOOL",
								"label": "joiner",
								"offset": 0,
								"slot": "1",
								"type": "t_address"
							}
						],
						"numberOfBytes": "64"
					},
					"t_struct(JoinerPicking)193_storage": {
						"encoding": "inplace",
						"label": "struct WCPOOL.JoinerPicking",
						"members": [
							{
								"astId": 180,
								"contract": "wwcc-contracts/contracts/wwccPool.sol:WCPOOL",
								"label": "weight",
								"offset": 0,
								"slot": "0",
								"type": "t_uint256"
							},
							{
								"astId": 182,
								"contract": "wwcc-contracts/contracts/wwccPool.sol:WCPOOL",
								"label": "kind",
								"offset": 0,
								"slot": "1",
								"type": "t_uint256"
							},
							{
								"astId": 184,
								"contract": "wwcc-contracts/contracts/wwccPool.sol:WCPOOL",
								"label": "homeScore",
								"offset": 0,
								"slot": "2",
								"type": "t_uint256"
							},
							{
								"astId": 186,
								"contract": "wwcc-contracts/contracts/wwccPool.sol:WCPOOL",
								"label": "visitScore",
								"offset": 0,
								"slot": "3",
								"type": "t_uint256"
							},
							{
								"astId": 188,
								"contract": "wwcc-contracts/contracts/wwccPool.sol:WCPOOL",
								"label": "joiner",
								"offset": 0,
								"slot": "4",
								"type": "t_address"
							},
							{
								"astId": 190,
								"contract": "wwcc-contracts/contracts/wwccPool.sol:WCPOOL",
								"label": "pickingKey",
								"offset": 0,
								"slot": "5",
								"type": "t_string_storage"
							},
							{
								"astId": 192,
								"contract": "wwcc-contracts/contracts/wwccPool.sol:WCPOOL",
								"label": "finished",
								"offset": 0,
								"slot": "6",
								"type": "t_bool"
							}
						],
						"numberOfBytes": "224"
					},
					"t_struct(WcPool)153_storage": {
						"encoding": "inplace",
						"label": "struct WCPOOL.WcPool",
						"members": [
							{
								"astId": 132,
								"contract": "wwcc-contracts/contracts/wwccPool.sol:WCPOOL",
								"label": "home",
								"offset": 0,
								"slot": "0",
								"type": "t_string_storage"
							},
							{
								"astId": 134,
								"contract": "wwcc-contracts/contracts/wwccPool.sol:WCPOOL",
								"label": "visit",
								"offset": 0,
								"slot": "1",
								"type": "t_string_storage"
							},
							{
								"astId": 136,
								"contract": "wwcc-contracts/contracts/wwccPool.sol:WCPOOL",
								"label": "rounds",
								"offset": 0,
								"slot": "2",
								"type": "t_string_storage"
							},
							{
								"astId": 138,
								"contract": "wwcc-contracts/contracts/wwccPool.sol:WCPOOL",
								"label": "wPool",
								"offset": 0,
								"slot": "3",
								"type": "t_uint256"
							},
							{
								"astId": 140,
								"contract": "wwcc-contracts/contracts/wwccPool.sol:WCPOOL",
								"label": "dPool",
								"offset": 0,
								"slot": "4",
								"type": "t_uint256"
							},
							{
								"astId": 142,
								"contract": "wwcc-contracts/contracts/wwccPool.sol:WCPOOL",
								"label": "lPool",
								"offset": 0,
								"slot": "5",
								"type": "t_uint256"
							},
							{
								"astId": 144,
								"contract": "wwcc-contracts/contracts/wwccPool.sol:WCPOOL",
								"label": "sPool",
								"offset": 0,
								"slot": "6",
								"type": "t_uint256"
							},
							{
								"astId": 146,
								"contract": "wwcc-contracts/contracts/wwccPool.sol:WCPOOL",
								"label": "basal",
								"offset": 0,
								"slot": "7",
								"type": "t_uint256"
							},
							{
								"astId": 148,
								"contract": "wwcc-contracts/contracts/wwccPool.sol:WCPOOL",
								"label": "decided",
								"offset": 0,
								"slot": "8",
								"type": "t_bool"
							},
							{
								"astId": 150,
								"contract": "wwcc-contracts/contracts/wwccPool.sol:WCPOOL",
								"label": "used",
								"offset": 1,
								"slot": "8",
								"type": "t_bool"
							},
							{
								"astId": 152,
								"contract": "wwcc-contracts/contracts/wwccPool.sol:WCPOOL",
								"label": "finished",
								"offset": 2,
								"slot": "8",
								"type": "t_bool"
							}
						],
						"numberOfBytes": "288"
					},
					"t_uint256": {
						"encoding": "inplace",
						"label": "uint256",
						"numberOfBytes": "32"
					}
				}
			},
			"userdoc": {
				"kind": "user",
				"methods": {},
				"version": 1
			}
		}
	}
}