{
	"wwcc-contracts/contracts/wwccPool.sol": {
		"WCPOOL": {
			"abi": [
				{
					"inputs": [
						{
							"internalType": "address",
							"name": "holder",
							"type": "address"
						}
					],
					"stateMutability": "nonpayable",
					"type": "constructor"
				},
				{
					"anonymous": false,
					"inputs": [
						{
							"indexed": false,
							"internalType": "address",
							"name": "owner",
							"type": "address"
						},
						{
							"indexed": false,
							"internalType": "address",
							"name": "spender",
							"type": "address"
						},
						{
							"indexed": false,
							"internalType": "uint256",
							"name": "value",
							"type": "uint256"
						}
					],
					"name": "Approval",
					"type": "event"
				},
				{
					"anonymous": false,
					"inputs": [
						{
							"indexed": false,
							"internalType": "address",
							"name": "owner",
							"type": "address"
						},
						{
							"indexed": false,
							"internalType": "address",
							"name": "spender",
							"type": "address"
						},
						{
							"indexed": false,
							"internalType": "uint256",
							"name": "value",
							"type": "uint256"
						}
					],
					"name": "Transfer",
					"type": "event"
				},
				{
					"inputs": [
						{
							"internalType": "bytes32",
							"name": "poolKey",
							"type": "bytes32"
						}
					],
					"name": "getPair",
					"outputs": [
						{
							"internalType": "string",
							"name": "home",
							"type": "string"
						},
						{
							"internalType": "string",
							"name": "visit",
							"type": "string"
						},
						{
							"internalType": "string",
							"name": "rounds",
							"type": "string"
						},
						{
							"internalType": "uint256",
							"name": "wPool",
							"type": "uint256"
						},
						{
							"internalType": "uint256",
							"name": "dPool",
							"type": "uint256"
						},
						{
							"internalType": "uint256",
							"name": "lPool",
							"type": "uint256"
						},
						{
							"internalType": "uint256",
							"name": "sPool",
							"type": "uint256"
						}
					],
					"stateMutability": "view",
					"type": "function"
				},
				{
					"inputs": [
						{
							"internalType": "address",
							"name": "joiner",
							"type": "address"
						},
						{
							"internalType": "uint256",
							"name": "weight",
							"type": "uint256"
						},
						{
							"internalType": "bytes32",
							"name": "poolKey",
							"type": "bytes32"
						},
						{
							"internalType": "uint256",
							"name": "homeScore",
							"type": "uint256"
						},
						{
							"internalType": "uint256",
							"name": "visitScore",
							"type": "uint256"
						},
						{
							"internalType": "uint256",
							"name": "kind",
							"type": "uint256"
						}
					],
					"name": "picking",
					"outputs": [
						{
							"internalType": "bool",
							"name": "",
							"type": "bool"
						}
					],
					"stateMutability": "nonpayable",
					"type": "function"
				},
				{
					"inputs": [
						{
							"internalType": "string",
							"name": "home",
							"type": "string"
						},
						{
							"internalType": "string",
							"name": "visit",
							"type": "string"
						},
						{
							"internalType": "string",
							"name": "rounds",
							"type": "string"
						},
						{
							"internalType": "bool",
							"name": "decided",
							"type": "bool"
						}
					],
					"name": "set_Pool",
					"outputs": [
						{
							"internalType": "bytes32",
							"name": "",
							"type": "bytes32"
						}
					],
					"stateMutability": "nonpayable",
					"type": "function"
				}
			],
			"devdoc": {
				"kind": "dev",
				"methods": {},
				"version": 1
			},
			"evm": {
				"assembly": "    /* \"wwcc-contracts/contracts/wwccPool.sol\":72:4992  contract WCPOOL {... */\n  mstore(0x40, 0x80)\n    /* \"wwcc-contracts/contracts/wwccPool.sol\":877:999  constructor(... */\n  callvalue\n  dup1\n  iszero\n  tag_1\n  jumpi\n  0x00\n  dup1\n  revert\ntag_1:\n  pop\n  mload(0x40)\n  sub(codesize, bytecodeSize)\n  dup1\n  bytecodeSize\n  dup4\n  codecopy\n  dup2\n  dup2\n  add\n  0x40\n  mstore\n  dup2\n  add\n  swap1\n  tag_2\n  swap2\n  swap1\n  tag_3\n  jump\t// in\ntag_2:\n    /* \"wwcc-contracts/contracts/wwccPool.sol\":986:992  holder */\n  dup1\n    /* \"wwcc-contracts/contracts/wwccPool.sol\":978:983  owner */\n  0x00\n  dup1\n    /* \"wwcc-contracts/contracts/wwccPool.sol\":978:992  owner = holder */\n  0x0100\n  exp\n  dup2\n  sload\n  dup2\n  0xffffffffffffffffffffffffffffffffffffffff\n  mul\n  not\n  and\n  swap1\n  dup4\n  0xffffffffffffffffffffffffffffffffffffffff\n  and\n  mul\n  or\n  swap1\n  sstore\n  pop\n    /* \"wwcc-contracts/contracts/wwccPool.sol\":877:999  constructor(... */\n  pop\n    /* \"wwcc-contracts/contracts/wwccPool.sol\":72:4992  contract WCPOOL {... */\n  jump(tag_6)\n    /* \"#utility.yul\":7:150   */\ntag_8:\n    /* \"#utility.yul\":64:69   */\n  0x00\n    /* \"#utility.yul\":95:101   */\n  dup2\n    /* \"#utility.yul\":89:102   */\n  mload\n    /* \"#utility.yul\":80:102   */\n  swap1\n  pop\n    /* \"#utility.yul\":111:144   */\n  tag_10\n    /* \"#utility.yul\":138:143   */\n  dup2\n    /* \"#utility.yul\":111:144   */\n  tag_11\n  jump\t// in\ntag_10:\n    /* \"#utility.yul\":7:150   */\n  swap3\n  swap2\n  pop\n  pop\n  jump\t// out\n    /* \"#utility.yul\":156:507   */\ntag_3:\n    /* \"#utility.yul\":226:232   */\n  0x00\n    /* \"#utility.yul\":275:277   */\n  0x20\n    /* \"#utility.yul\":263:272   */\n  dup3\n    /* \"#utility.yul\":254:261   */\n  dup5\n    /* \"#utility.yul\":250:273   */\n  sub\n    /* \"#utility.yul\":246:278   */\n  slt\n    /* \"#utility.yul\":243:362   */\n  iszero\n  tag_13\n  jumpi\n    /* \"#utility.yul\":281:360   */\n  tag_14\n  tag_15\n  jump\t// in\ntag_14:\n    /* \"#utility.yul\":243:362   */\ntag_13:\n    /* \"#utility.yul\":401:402   */\n  0x00\n    /* \"#utility.yul\":426:490   */\n  tag_16\n    /* \"#utility.yul\":482:489   */\n  dup5\n    /* \"#utility.yul\":473:479   */\n  dup3\n    /* \"#utility.yul\":462:471   */\n  dup6\n    /* \"#utility.yul\":458:480   */\n  add\n    /* \"#utility.yul\":426:490   */\n  tag_8\n  jump\t// in\ntag_16:\n    /* \"#utility.yul\":416:490   */\n  swap2\n  pop\n    /* \"#utility.yul\":372:500   */\n  pop\n    /* \"#utility.yul\":156:507   */\n  swap3\n  swap2\n  pop\n  pop\n  jump\t// out\n    /* \"#utility.yul\":594:690   */\ntag_19:\n    /* \"#utility.yul\":631:638   */\n  0x00\n    /* \"#utility.yul\":660:684   */\n  tag_21\n    /* \"#utility.yul\":678:683   */\n  dup3\n    /* \"#utility.yul\":660:684   */\n  tag_22\n  jump\t// in\ntag_21:\n    /* \"#utility.yul\":649:684   */\n  swap1\n  pop\n    /* \"#utility.yul\":594:690   */\n  swap2\n  swap1\n  pop\n  jump\t// out\n    /* \"#utility.yul\":696:822   */\ntag_22:\n    /* \"#utility.yul\":733:740   */\n  0x00\n    /* \"#utility.yul\":773:815   */\n  0xffffffffffffffffffffffffffffffffffffffff\n    /* \"#utility.yul\":766:771   */\n  dup3\n    /* \"#utility.yul\":762:816   */\n  and\n    /* \"#utility.yul\":751:816   */\n  swap1\n  pop\n    /* \"#utility.yul\":696:822   */\n  swap2\n  swap1\n  pop\n  jump\t// out\n    /* \"#utility.yul\":951:1068   */\ntag_15:\n    /* \"#utility.yul\":1060:1061   */\n  0x00\n    /* \"#utility.yul\":1057:1058   */\n  dup1\n    /* \"#utility.yul\":1050:1062   */\n  revert\n    /* \"#utility.yul\":1074:1196   */\ntag_11:\n    /* \"#utility.yul\":1147:1171   */\n  tag_28\n    /* \"#utility.yul\":1165:1170   */\n  dup2\n    /* \"#utility.yul\":1147:1171   */\n  tag_19\n  jump\t// in\ntag_28:\n    /* \"#utility.yul\":1140:1145   */\n  dup2\n    /* \"#utility.yul\":1137:1172   */\n  eq\n    /* \"#utility.yul\":1127:1190   */\n  tag_29\n  jumpi\n    /* \"#utility.yul\":1186:1187   */\n  0x00\n    /* \"#utility.yul\":1183:1184   */\n  dup1\n    /* \"#utility.yul\":1176:1188   */\n  revert\n    /* \"#utility.yul\":1127:1190   */\ntag_29:\n    /* \"#utility.yul\":1074:1196   */\n  pop\n  jump\t// out\n    /* \"wwcc-contracts/contracts/wwccPool.sol\":72:4992  contract WCPOOL {... */\ntag_6:\n  dataSize(sub_0)\n  dup1\n  dataOffset(sub_0)\n  0x00\n  codecopy\n  0x00\n  return\nstop\n\nsub_0: assembly {\n        /* \"wwcc-contracts/contracts/wwccPool.sol\":72:4992  contract WCPOOL {... */\n      mstore(0x40, 0x80)\n      callvalue\n      dup1\n      iszero\n      tag_1\n      jumpi\n      0x00\n      dup1\n      revert\n    tag_1:\n      pop\n      jumpi(tag_2, lt(calldatasize, 0x04))\n      shr(0xe0, calldataload(0x00))\n      dup1\n      0x3d29c6ff\n      eq\n      tag_3\n      jumpi\n      dup1\n      0x68a52520\n      eq\n      tag_4\n      jumpi\n      dup1\n      0xb8e5303d\n      eq\n      tag_5\n      jumpi\n    tag_2:\n      0x00\n      dup1\n      revert\n        /* \"wwcc-contracts/contracts/wwccPool.sol\":1004:1797  function set_Pool(... */\n    tag_3:\n      tag_6\n      0x04\n      dup1\n      calldatasize\n      sub\n      dup2\n      add\n      swap1\n      tag_7\n      swap2\n      swap1\n      tag_8\n      jump\t// in\n    tag_7:\n      tag_9\n      jump\t// in\n    tag_6:\n      mload(0x40)\n      tag_10\n      swap2\n      swap1\n      tag_11\n      jump\t// in\n    tag_10:\n      mload(0x40)\n      dup1\n      swap2\n      sub\n      swap1\n      return\n        /* \"wwcc-contracts/contracts/wwccPool.sol\":1802:2667  function picking(address joiner,uint256 weight,bytes32 poolKey,uint256 homeScore,uint256 visitScore,uint256 kind) external returns(bool){... */\n    tag_4:\n      tag_12\n      0x04\n      dup1\n      calldatasize\n      sub\n      dup2\n      add\n      swap1\n      tag_13\n      swap2\n      swap1\n      tag_14\n      jump\t// in\n    tag_13:\n      tag_15\n      jump\t// in\n    tag_12:\n      mload(0x40)\n      tag_16\n      swap2\n      swap1\n      tag_17\n      jump\t// in\n    tag_16:\n      mload(0x40)\n      dup1\n      swap2\n      sub\n      swap1\n      return\n        /* \"wwcc-contracts/contracts/wwccPool.sol\":2672:3205  function getPair(bytes32 poolKey) external view returns (string memory home,string memory visit,string memory rounds,uint256 wPool,uint256 dPool,uint256 lPool,uint256 sPool){... */\n    tag_5:\n      tag_18\n      0x04\n      dup1\n      calldatasize\n      sub\n      dup2\n      add\n      swap1\n      tag_19\n      swap2\n      swap1\n      tag_20\n      jump\t// in\n    tag_19:\n      tag_21\n      jump\t// in\n    tag_18:\n      mload(0x40)\n      tag_22\n      swap8\n      swap7\n      swap6\n      swap5\n      swap4\n      swap3\n      swap2\n      swap1\n      tag_23\n      jump\t// in\n    tag_22:\n      mload(0x40)\n      dup1\n      swap2\n      sub\n      swap1\n      return\n        /* \"wwcc-contracts/contracts/wwccPool.sol\":1004:1797  function set_Pool(... */\n    tag_9:\n        /* \"wwcc-contracts/contracts/wwccPool.sol\":1140:1147  bytes32 */\n      0x00\n        /* \"wwcc-contracts/contracts/wwccPool.sol\":1158:1174  string memory s1 */\n      dup1\n        /* \"wwcc-contracts/contracts/wwccPool.sol\":1177:1198  strConcat(home,visit) */\n      tag_25\n        /* \"wwcc-contracts/contracts/wwccPool.sol\":1187:1191  home */\n      dup7\n        /* \"wwcc-contracts/contracts/wwccPool.sol\":1192:1197  visit */\n      dup7\n        /* \"wwcc-contracts/contracts/wwccPool.sol\":1177:1186  strConcat */\n      tag_26\n        /* \"wwcc-contracts/contracts/wwccPool.sol\":1177:1198  strConcat(home,visit) */\n      jump\t// in\n    tag_25:\n        /* \"wwcc-contracts/contracts/wwccPool.sol\":1158:1198  string memory s1 = strConcat(home,visit) */\n      swap1\n      pop\n        /* \"wwcc-contracts/contracts/wwccPool.sol\":1207:1223  string memory s2 */\n      0x00\n        /* \"wwcc-contracts/contracts/wwccPool.sol\":1226:1246  strConcat(s1,rounds) */\n      tag_27\n        /* \"wwcc-contracts/contracts/wwccPool.sol\":1236:1238  s1 */\n      dup3\n        /* \"wwcc-contracts/contracts/wwccPool.sol\":1239:1245  rounds */\n      dup7\n        /* \"wwcc-contracts/contracts/wwccPool.sol\":1226:1235  strConcat */\n      tag_26\n        /* \"wwcc-contracts/contracts/wwccPool.sol\":1226:1246  strConcat(s1,rounds) */\n      jump\t// in\n    tag_27:\n        /* \"wwcc-contracts/contracts/wwccPool.sol\":1207:1246  string memory s2 = strConcat(s1,rounds) */\n      swap1\n      pop\n        /* \"wwcc-contracts/contracts/wwccPool.sol\":1255:1270  bytes32 poolKey */\n      0x00\n        /* \"wwcc-contracts/contracts/wwccPool.sol\":1300:1302  s2 */\n      dup2\n        /* \"wwcc-contracts/contracts/wwccPool.sol\":1283:1303  abi.encodePacked(s2) */\n      add(0x20, mload(0x40))\n      tag_28\n      swap2\n      swap1\n      tag_29\n      jump\t// in\n    tag_28:\n      mload(0x40)\n      0x20\n      dup2\n      dup4\n      sub\n      sub\n      dup2\n      mstore\n      swap1\n      0x40\n      mstore\n        /* \"wwcc-contracts/contracts/wwccPool.sol\":1273:1304  keccak256(abi.encodePacked(s2)) */\n      dup1\n      mload\n      swap1\n      0x20\n      add\n      keccak256\n        /* \"wwcc-contracts/contracts/wwccPool.sol\":1255:1304  bytes32 poolKey = keccak256(abi.encodePacked(s2)) */\n      swap1\n      pop\n        /* \"wwcc-contracts/contracts/wwccPool.sol\":1316:1333  contains(poolKey) */\n      tag_30\n        /* \"wwcc-contracts/contracts/wwccPool.sol\":1325:1332  poolKey */\n      dup2\n        /* \"wwcc-contracts/contracts/wwccPool.sol\":1316:1324  contains */\n      tag_31\n        /* \"wwcc-contracts/contracts/wwccPool.sol\":1316:1333  contains(poolKey) */\n      jump\t// in\n    tag_30:\n        /* \"wwcc-contracts/contracts/wwccPool.sol\":1313:1768  if(contains(poolKey)) { ... */\n      iszero\n      tag_32\n      jumpi\n        /* \"wwcc-contracts/contracts/wwccPool.sol\":1350:1370  revert(\"pair exist\") */\n      mload(0x40)\n      0x08c379a000000000000000000000000000000000000000000000000000000000\n      dup2\n      mstore\n      0x04\n      add\n      tag_33\n      swap1\n      tag_34\n      jump\t// in\n    tag_33:\n      mload(0x40)\n      dup1\n      swap2\n      sub\n      swap1\n      revert\n        /* \"wwcc-contracts/contracts/wwccPool.sol\":1313:1768  if(contains(poolKey)) { ... */\n    tag_32:\n        /* \"wwcc-contracts/contracts/wwccPool.sol\":1421:1425  true */\n      0x01\n        /* \"wwcc-contracts/contracts/wwccPool.sol\":1397:1404  WcPools */\n      0x03\n        /* \"wwcc-contracts/contracts/wwccPool.sol\":1397:1413  WcPools[poolKey] */\n      0x00\n        /* \"wwcc-contracts/contracts/wwccPool.sol\":1405:1412  poolKey */\n      dup4\n        /* \"wwcc-contracts/contracts/wwccPool.sol\":1397:1413  WcPools[poolKey] */\n      dup2\n      mstore\n      0x20\n      add\n      swap1\n      dup2\n      mstore\n      0x20\n      add\n      0x00\n      keccak256\n        /* \"wwcc-contracts/contracts/wwccPool.sol\":1397:1418  WcPools[poolKey].used */\n      0x07\n      add\n      0x01\n        /* \"wwcc-contracts/contracts/wwccPool.sol\":1397:1425  WcPools[poolKey].used = true */\n      0x0100\n      exp\n      dup2\n      sload\n      dup2\n      0xff\n      mul\n      not\n      and\n      swap1\n      dup4\n      iszero\n      iszero\n      mul\n      or\n      swap1\n      sstore\n      pop\n        /* \"wwcc-contracts/contracts/wwccPool.sol\":1462:1466  home */\n      dup8\n        /* \"wwcc-contracts/contracts/wwccPool.sol\":1438:1445  WcPools */\n      0x03\n        /* \"wwcc-contracts/contracts/wwccPool.sol\":1438:1454  WcPools[poolKey] */\n      0x00\n        /* \"wwcc-contracts/contracts/wwccPool.sol\":1446:1453  poolKey */\n      dup4\n        /* \"wwcc-contracts/contracts/wwccPool.sol\":1438:1454  WcPools[poolKey] */\n      dup2\n      mstore\n      0x20\n      add\n      swap1\n      dup2\n      mstore\n      0x20\n      add\n      0x00\n      keccak256\n        /* \"wwcc-contracts/contracts/wwccPool.sol\":1438:1459  WcPools[poolKey].home */\n      0x00\n      add\n        /* \"wwcc-contracts/contracts/wwccPool.sol\":1438:1466  WcPools[poolKey].home = home */\n      swap1\n      dup1\n      mload\n      swap1\n      0x20\n      add\n      swap1\n      tag_36\n      swap3\n      swap2\n      swap1\n      tag_37\n      jump\t// in\n    tag_36:\n      pop\n        /* \"wwcc-contracts/contracts/wwccPool.sol\":1504:1509  visit */\n      dup7\n        /* \"wwcc-contracts/contracts/wwccPool.sol\":1479:1486  WcPools */\n      0x03\n        /* \"wwcc-contracts/contracts/wwccPool.sol\":1479:1495  WcPools[poolKey] */\n      0x00\n        /* \"wwcc-contracts/contracts/wwccPool.sol\":1487:1494  poolKey */\n      dup4\n        /* \"wwcc-contracts/contracts/wwccPool.sol\":1479:1495  WcPools[poolKey] */\n      dup2\n      mstore\n      0x20\n      add\n      swap1\n      dup2\n      mstore\n      0x20\n      add\n      0x00\n      keccak256\n        /* \"wwcc-contracts/contracts/wwccPool.sol\":1479:1501  WcPools[poolKey].visit */\n      0x01\n      add\n        /* \"wwcc-contracts/contracts/wwccPool.sol\":1479:1509  WcPools[poolKey].visit = visit */\n      swap1\n      dup1\n      mload\n      swap1\n      0x20\n      add\n      swap1\n      tag_38\n      swap3\n      swap2\n      swap1\n      tag_37\n      jump\t// in\n    tag_38:\n      pop\n        /* \"wwcc-contracts/contracts/wwccPool.sol\":1548:1554  rounds */\n      dup6\n        /* \"wwcc-contracts/contracts/wwccPool.sol\":1522:1529  WcPools */\n      0x03\n        /* \"wwcc-contracts/contracts/wwccPool.sol\":1522:1538  WcPools[poolKey] */\n      0x00\n        /* \"wwcc-contracts/contracts/wwccPool.sol\":1530:1537  poolKey */\n      dup4\n        /* \"wwcc-contracts/contracts/wwccPool.sol\":1522:1538  WcPools[poolKey] */\n      dup2\n      mstore\n      0x20\n      add\n      swap1\n      dup2\n      mstore\n      0x20\n      add\n      0x00\n      keccak256\n        /* \"wwcc-contracts/contracts/wwccPool.sol\":1522:1545  WcPools[poolKey].rounds */\n      0x02\n      add\n        /* \"wwcc-contracts/contracts/wwccPool.sol\":1522:1554  WcPools[poolKey].rounds = rounds */\n      swap1\n      dup1\n      mload\n      swap1\n      0x20\n      add\n      swap1\n      tag_39\n      swap3\n      swap2\n      swap1\n      tag_37\n      jump\t// in\n    tag_39:\n      pop\n        /* \"wwcc-contracts/contracts/wwccPool.sol\":1592:1593  0 */\n      0x00\n        /* \"wwcc-contracts/contracts/wwccPool.sol\":1567:1574  WcPools */\n      0x03\n        /* \"wwcc-contracts/contracts/wwccPool.sol\":1567:1583  WcPools[poolKey] */\n      0x00\n        /* \"wwcc-contracts/contracts/wwccPool.sol\":1575:1582  poolKey */\n      dup4\n        /* \"wwcc-contracts/contracts/wwccPool.sol\":1567:1583  WcPools[poolKey] */\n      dup2\n      mstore\n      0x20\n      add\n      swap1\n      dup2\n      mstore\n      0x20\n      add\n      0x00\n      keccak256\n        /* \"wwcc-contracts/contracts/wwccPool.sol\":1567:1589  WcPools[poolKey].wPool */\n      0x03\n      add\n        /* \"wwcc-contracts/contracts/wwccPool.sol\":1567:1593  WcPools[poolKey].wPool = 0 */\n      dup2\n      swap1\n      sstore\n      pop\n        /* \"wwcc-contracts/contracts/wwccPool.sol\":1631:1632  0 */\n      0x00\n        /* \"wwcc-contracts/contracts/wwccPool.sol\":1606:1613  WcPools */\n      0x03\n        /* \"wwcc-contracts/contracts/wwccPool.sol\":1606:1622  WcPools[poolKey] */\n      0x00\n        /* \"wwcc-contracts/contracts/wwccPool.sol\":1614:1621  poolKey */\n      dup4\n        /* \"wwcc-contracts/contracts/wwccPool.sol\":1606:1622  WcPools[poolKey] */\n      dup2\n      mstore\n      0x20\n      add\n      swap1\n      dup2\n      mstore\n      0x20\n      add\n      0x00\n      keccak256\n        /* \"wwcc-contracts/contracts/wwccPool.sol\":1606:1628  WcPools[poolKey].dPool */\n      0x04\n      add\n        /* \"wwcc-contracts/contracts/wwccPool.sol\":1606:1632  WcPools[poolKey].dPool = 0 */\n      dup2\n      swap1\n      sstore\n      pop\n        /* \"wwcc-contracts/contracts/wwccPool.sol\":1670:1671  0 */\n      0x00\n        /* \"wwcc-contracts/contracts/wwccPool.sol\":1645:1652  WcPools */\n      0x03\n        /* \"wwcc-contracts/contracts/wwccPool.sol\":1645:1661  WcPools[poolKey] */\n      0x00\n        /* \"wwcc-contracts/contracts/wwccPool.sol\":1653:1660  poolKey */\n      dup4\n        /* \"wwcc-contracts/contracts/wwccPool.sol\":1645:1661  WcPools[poolKey] */\n      dup2\n      mstore\n      0x20\n      add\n      swap1\n      dup2\n      mstore\n      0x20\n      add\n      0x00\n      keccak256\n        /* \"wwcc-contracts/contracts/wwccPool.sol\":1645:1667  WcPools[poolKey].lPool */\n      0x05\n      add\n        /* \"wwcc-contracts/contracts/wwccPool.sol\":1645:1671  WcPools[poolKey].lPool = 0 */\n      dup2\n      swap1\n      sstore\n      pop\n        /* \"wwcc-contracts/contracts/wwccPool.sol\":1709:1710  0 */\n      0x00\n        /* \"wwcc-contracts/contracts/wwccPool.sol\":1684:1691  WcPools */\n      0x03\n        /* \"wwcc-contracts/contracts/wwccPool.sol\":1684:1700  WcPools[poolKey] */\n      0x00\n        /* \"wwcc-contracts/contracts/wwccPool.sol\":1692:1699  poolKey */\n      dup4\n        /* \"wwcc-contracts/contracts/wwccPool.sol\":1684:1700  WcPools[poolKey] */\n      dup2\n      mstore\n      0x20\n      add\n      swap1\n      dup2\n      mstore\n      0x20\n      add\n      0x00\n      keccak256\n        /* \"wwcc-contracts/contracts/wwccPool.sol\":1684:1706  WcPools[poolKey].sPool */\n      0x06\n      add\n        /* \"wwcc-contracts/contracts/wwccPool.sol\":1684:1710  WcPools[poolKey].sPool = 0 */\n      dup2\n      swap1\n      sstore\n      pop\n        /* \"wwcc-contracts/contracts/wwccPool.sol\":1750:1757  decided */\n      dup5\n        /* \"wwcc-contracts/contracts/wwccPool.sol\":1723:1730  WcPools */\n      0x03\n        /* \"wwcc-contracts/contracts/wwccPool.sol\":1723:1739  WcPools[poolKey] */\n      0x00\n        /* \"wwcc-contracts/contracts/wwccPool.sol\":1731:1738  poolKey */\n      dup4\n        /* \"wwcc-contracts/contracts/wwccPool.sol\":1723:1739  WcPools[poolKey] */\n      dup2\n      mstore\n      0x20\n      add\n      swap1\n      dup2\n      mstore\n      0x20\n      add\n      0x00\n      keccak256\n        /* \"wwcc-contracts/contracts/wwccPool.sol\":1723:1747  WcPools[poolKey].decided */\n      0x07\n      add\n      0x00\n        /* \"wwcc-contracts/contracts/wwccPool.sol\":1723:1757  WcPools[poolKey].decided = decided */\n      0x0100\n      exp\n      dup2\n      sload\n      dup2\n      0xff\n      mul\n      not\n      and\n      swap1\n      dup4\n      iszero\n      iszero\n      mul\n      or\n      swap1\n      sstore\n      pop\n        /* \"wwcc-contracts/contracts/wwccPool.sol\":1783:1790  poolKey */\n      dup1\n        /* \"wwcc-contracts/contracts/wwccPool.sol\":1776:1790  return poolKey */\n      swap4\n      pop\n      pop\n      pop\n      pop\n        /* \"wwcc-contracts/contracts/wwccPool.sol\":1004:1797  function set_Pool(... */\n      swap5\n      swap4\n      pop\n      pop\n      pop\n      pop\n      jump\t// out\n        /* \"wwcc-contracts/contracts/wwccPool.sol\":1802:2667  function picking(address joiner,uint256 weight,bytes32 poolKey,uint256 homeScore,uint256 visitScore,uint256 kind) external returns(bool){... */\n    tag_15:\n        /* \"wwcc-contracts/contracts/wwccPool.sol\":1933:1937  bool */\n      0x00\n        /* \"wwcc-contracts/contracts/wwccPool.sol\":1952:1969  contains(poolKey) */\n      tag_41\n        /* \"wwcc-contracts/contracts/wwccPool.sol\":1961:1968  poolKey */\n      dup6\n        /* \"wwcc-contracts/contracts/wwccPool.sol\":1952:1960  contains */\n      tag_31\n        /* \"wwcc-contracts/contracts/wwccPool.sol\":1952:1969  contains(poolKey) */\n      jump\t// in\n    tag_41:\n        /* \"wwcc-contracts/contracts/wwccPool.sol\":1948:2661  if(!contains(poolKey)) { ... */\n      tag_42\n      jumpi\n        /* \"wwcc-contracts/contracts/wwccPool.sol\":1986:2010  revert(\"pool not exist\") */\n      mload(0x40)\n      0x08c379a000000000000000000000000000000000000000000000000000000000\n      dup2\n      mstore\n      0x04\n      add\n      tag_43\n      swap1\n      tag_44\n      jump\t// in\n    tag_43:\n      mload(0x40)\n      dup1\n      swap2\n      sub\n      swap1\n      revert\n        /* \"wwcc-contracts/contracts/wwccPool.sol\":1948:2661  if(!contains(poolKey)) { ... */\n    tag_42:\n        /* \"wwcc-contracts/contracts/wwccPool.sol\":2037:2055  WcPool memory pool */\n      0x00\n        /* \"wwcc-contracts/contracts/wwccPool.sol\":2058:2065  WcPools */\n      0x03\n        /* \"wwcc-contracts/contracts/wwccPool.sol\":2058:2074  WcPools[poolKey] */\n      0x00\n        /* \"wwcc-contracts/contracts/wwccPool.sol\":2066:2073  poolKey */\n      dup8\n        /* \"wwcc-contracts/contracts/wwccPool.sol\":2058:2074  WcPools[poolKey] */\n      dup2\n      mstore\n      0x20\n      add\n      swap1\n      dup2\n      mstore\n      0x20\n      add\n      0x00\n      keccak256\n        /* \"wwcc-contracts/contracts/wwccPool.sol\":2037:2074  WcPool memory pool = WcPools[poolKey] */\n      mload(0x40)\n      dup1\n      0x0120\n      add\n      0x40\n      mstore\n      swap1\n      dup2\n      0x00\n      dup3\n      add\n      dup1\n      sload\n      tag_46\n      swap1\n      tag_47\n      jump\t// in\n    tag_46:\n      dup1\n      0x1f\n      add\n      0x20\n      dup1\n      swap2\n      div\n      mul\n      0x20\n      add\n      mload(0x40)\n      swap1\n      dup2\n      add\n      0x40\n      mstore\n      dup1\n      swap3\n      swap2\n      swap1\n      dup2\n      dup2\n      mstore\n      0x20\n      add\n      dup3\n      dup1\n      sload\n      tag_48\n      swap1\n      tag_47\n      jump\t// in\n    tag_48:\n      dup1\n      iszero\n      tag_49\n      jumpi\n      dup1\n      0x1f\n      lt\n      tag_50\n      jumpi\n      0x0100\n      dup1\n      dup4\n      sload\n      div\n      mul\n      dup4\n      mstore\n      swap2\n      0x20\n      add\n      swap2\n      jump(tag_49)\n    tag_50:\n      dup3\n      add\n      swap2\n      swap1\n      0x00\n      mstore\n      keccak256(0x00, 0x20)\n      swap1\n    tag_51:\n      dup2\n      sload\n      dup2\n      mstore\n      swap1\n      0x01\n      add\n      swap1\n      0x20\n      add\n      dup1\n      dup4\n      gt\n      tag_51\n      jumpi\n      dup3\n      swap1\n      sub\n      0x1f\n      and\n      dup3\n      add\n      swap2\n    tag_49:\n      pop\n      pop\n      pop\n      pop\n      pop\n      dup2\n      mstore\n      0x20\n      add\n      0x01\n      dup3\n      add\n      dup1\n      sload\n      tag_52\n      swap1\n      tag_47\n      jump\t// in\n    tag_52:\n      dup1\n      0x1f\n      add\n      0x20\n      dup1\n      swap2\n      div\n      mul\n      0x20\n      add\n      mload(0x40)\n      swap1\n      dup2\n      add\n      0x40\n      mstore\n      dup1\n      swap3\n      swap2\n      swap1\n      dup2\n      dup2\n      mstore\n      0x20\n      add\n      dup3\n      dup1\n      sload\n      tag_53\n      swap1\n      tag_47\n      jump\t// in\n    tag_53:\n      dup1\n      iszero\n      tag_54\n      jumpi\n      dup1\n      0x1f\n      lt\n      tag_55\n      jumpi\n      0x0100\n      dup1\n      dup4\n      sload\n      div\n      mul\n      dup4\n      mstore\n      swap2\n      0x20\n      add\n      swap2\n      jump(tag_54)\n    tag_55:\n      dup3\n      add\n      swap2\n      swap1\n      0x00\n      mstore\n      keccak256(0x00, 0x20)\n      swap1\n    tag_56:\n      dup2\n      sload\n      dup2\n      mstore\n      swap1\n      0x01\n      add\n      swap1\n      0x20\n      add\n      dup1\n      dup4\n      gt\n      tag_56\n      jumpi\n      dup3\n      swap1\n      sub\n      0x1f\n      and\n      dup3\n      add\n      swap2\n    tag_54:\n      pop\n      pop\n      pop\n      pop\n      pop\n      dup2\n      mstore\n      0x20\n      add\n      0x02\n      dup3\n      add\n      dup1\n      sload\n      tag_57\n      swap1\n      tag_47\n      jump\t// in\n    tag_57:\n      dup1\n      0x1f\n      add\n      0x20\n      dup1\n      swap2\n      div\n      mul\n      0x20\n      add\n      mload(0x40)\n      swap1\n      dup2\n      add\n      0x40\n      mstore\n      dup1\n      swap3\n      swap2\n      swap1\n      dup2\n      dup2\n      mstore\n      0x20\n      add\n      dup3\n      dup1\n      sload\n      tag_58\n      swap1\n      tag_47\n      jump\t// in\n    tag_58:\n      dup1\n      iszero\n      tag_59\n      jumpi\n      dup1\n      0x1f\n      lt\n      tag_60\n      jumpi\n      0x0100\n      dup1\n      dup4\n      sload\n      div\n      mul\n      dup4\n      mstore\n      swap2\n      0x20\n      add\n      swap2\n      jump(tag_59)\n    tag_60:\n      dup3\n      add\n      swap2\n      swap1\n      0x00\n      mstore\n      keccak256(0x00, 0x20)\n      swap1\n    tag_61:\n      dup2\n      sload\n      dup2\n      mstore\n      swap1\n      0x01\n      add\n      swap1\n      0x20\n      add\n      dup1\n      dup4\n      gt\n      tag_61\n      jumpi\n      dup3\n      swap1\n      sub\n      0x1f\n      and\n      dup3\n      add\n      swap2\n    tag_59:\n      pop\n      pop\n      pop\n      pop\n      pop\n      dup2\n      mstore\n      0x20\n      add\n      0x03\n      dup3\n      add\n      sload\n      dup2\n      mstore\n      0x20\n      add\n      0x04\n      dup3\n      add\n      sload\n      dup2\n      mstore\n      0x20\n      add\n      0x05\n      dup3\n      add\n      sload\n      dup2\n      mstore\n      0x20\n      add\n      0x06\n      dup3\n      add\n      sload\n      dup2\n      mstore\n      0x20\n      add\n      0x07\n      dup3\n      add\n      0x00\n      swap1\n      sload\n      swap1\n      0x0100\n      exp\n      swap1\n      div\n      0xff\n      and\n      iszero\n      iszero\n      iszero\n      iszero\n      dup2\n      mstore\n      0x20\n      add\n      0x07\n      dup3\n      add\n      0x01\n      swap1\n      sload\n      swap1\n      0x0100\n      exp\n      swap1\n      div\n      0xff\n      and\n      iszero\n      iszero\n      iszero\n      iszero\n      dup2\n      mstore\n      pop\n      pop\n      swap1\n      pop\n        /* \"wwcc-contracts/contracts/wwccPool.sol\":2087:2104  string  memory si */\n      0x00\n        /* \"wwcc-contracts/contracts/wwccPool.sol\":2107:2172  strConcat(uint256ToString(homeScore),uint256ToString(visitScore)) */\n      tag_62\n        /* \"wwcc-contracts/contracts/wwccPool.sol\":2117:2143  uint256ToString(homeScore) */\n      tag_63\n        /* \"wwcc-contracts/contracts/wwccPool.sol\":2133:2142  homeScore */\n      dup8\n        /* \"wwcc-contracts/contracts/wwccPool.sol\":2117:2132  uint256ToString */\n      tag_64\n        /* \"wwcc-contracts/contracts/wwccPool.sol\":2117:2143  uint256ToString(homeScore) */\n      jump\t// in\n    tag_63:\n        /* \"wwcc-contracts/contracts/wwccPool.sol\":2144:2171  uint256ToString(visitScore) */\n      tag_65\n        /* \"wwcc-contracts/contracts/wwccPool.sol\":2160:2170  visitScore */\n      dup8\n        /* \"wwcc-contracts/contracts/wwccPool.sol\":2144:2159  uint256ToString */\n      tag_64\n        /* \"wwcc-contracts/contracts/wwccPool.sol\":2144:2171  uint256ToString(visitScore) */\n      jump\t// in\n    tag_65:\n        /* \"wwcc-contracts/contracts/wwccPool.sol\":2107:2116  strConcat */\n      tag_26\n        /* \"wwcc-contracts/contracts/wwccPool.sol\":2107:2172  strConcat(uint256ToString(homeScore),uint256ToString(visitScore)) */\n      jump\t// in\n    tag_62:\n        /* \"wwcc-contracts/contracts/wwccPool.sol\":2087:2172  string  memory si = strConcat(uint256ToString(homeScore),uint256ToString(visitScore)) */\n      swap1\n      pop\n        /* \"wwcc-contracts/contracts/wwccPool.sol\":2185:2202  string  memory jk */\n      0x00\n        /* \"wwcc-contracts/contracts/wwccPool.sol\":2205:2261  strConcat(addressToString(joiner),uint256ToString(kind)) */\n      tag_66\n        /* \"wwcc-contracts/contracts/wwccPool.sol\":2215:2238  addressToString(joiner) */\n      tag_67\n        /* \"wwcc-contracts/contracts/wwccPool.sol\":2231:2237  joiner */\n      dup12\n        /* \"wwcc-contracts/contracts/wwccPool.sol\":2215:2230  addressToString */\n      tag_68\n        /* \"wwcc-contracts/contracts/wwccPool.sol\":2215:2238  addressToString(joiner) */\n      jump\t// in\n    tag_67:\n        /* \"wwcc-contracts/contracts/wwccPool.sol\":2239:2260  uint256ToString(kind) */\n      tag_69\n        /* \"wwcc-contracts/contracts/wwccPool.sol\":2255:2259  kind */\n      dup8\n        /* \"wwcc-contracts/contracts/wwccPool.sol\":2239:2254  uint256ToString */\n      tag_64\n        /* \"wwcc-contracts/contracts/wwccPool.sol\":2239:2260  uint256ToString(kind) */\n      jump\t// in\n    tag_69:\n        /* \"wwcc-contracts/contracts/wwccPool.sol\":2205:2214  strConcat */\n      tag_26\n        /* \"wwcc-contracts/contracts/wwccPool.sol\":2205:2261  strConcat(addressToString(joiner),uint256ToString(kind)) */\n      jump\t// in\n    tag_66:\n        /* \"wwcc-contracts/contracts/wwccPool.sol\":2185:2261  string  memory jk = strConcat(addressToString(joiner),uint256ToString(kind)) */\n      swap1\n      pop\n        /* \"wwcc-contracts/contracts/wwccPool.sol\":2274:2291  string  memory pk */\n      0x00\n        /* \"wwcc-contracts/contracts/wwccPool.sol\":2294:2310  strConcat(jk,si) */\n      tag_70\n        /* \"wwcc-contracts/contracts/wwccPool.sol\":2304:2306  jk */\n      dup3\n        /* \"wwcc-contracts/contracts/wwccPool.sol\":2307:2309  si */\n      dup5\n        /* \"wwcc-contracts/contracts/wwccPool.sol\":2294:2303  strConcat */\n      tag_26\n        /* \"wwcc-contracts/contracts/wwccPool.sol\":2294:2310  strConcat(jk,si) */\n      jump\t// in\n    tag_70:\n        /* \"wwcc-contracts/contracts/wwccPool.sol\":2274:2310  string  memory pk = strConcat(jk,si) */\n      swap1\n      pop\n        /* \"wwcc-contracts/contracts/wwccPool.sol\":2336:2337  2 */\n      0x02\n        /* \"wwcc-contracts/contracts/wwccPool.sol\":2328:2332  kind */\n      dup7\n        /* \"wwcc-contracts/contracts/wwccPool.sol\":2328:2337  kind == 2 */\n      eq\n        /* \"wwcc-contracts/contracts/wwccPool.sol\":2324:2603  if (kind == 2){... */\n      iszero\n      tag_71\n      jumpi\n        /* \"wwcc-contracts/contracts/wwccPool.sol\":2368:2374  weight */\n      dup10\n        /* \"wwcc-contracts/contracts/wwccPool.sol\":2354:2358  pool */\n      dup5\n        /* \"wwcc-contracts/contracts/wwccPool.sol\":2354:2364  pool.sPool */\n      0xc0\n      add\n        /* \"wwcc-contracts/contracts/wwccPool.sol\":2354:2374  pool.sPool += weight */\n      dup2\n      dup2\n      mload\n      tag_72\n      swap2\n      swap1\n      tag_73\n      jump\t// in\n    tag_72:\n      swap2\n      pop\n      dup2\n      dup2\n      mstore\n      pop\n      pop\n        /* \"wwcc-contracts/contracts/wwccPool.sol\":2324:2603  if (kind == 2){... */\n      jump(tag_74)\n    tag_71:\n        /* \"wwcc-contracts/contracts/wwccPool.sol\":2418:2419  3 */\n      0x03\n        /* \"wwcc-contracts/contracts/wwccPool.sol\":2410:2414  kind */\n      dup7\n        /* \"wwcc-contracts/contracts/wwccPool.sol\":2410:2419  kind == 3 */\n      eq\n        /* \"wwcc-contracts/contracts/wwccPool.sol\":2407:2603  if(kind == 3){... */\n      iszero\n      tag_75\n      jumpi\n        /* \"wwcc-contracts/contracts/wwccPool.sol\":2452:2458  weight */\n      dup10\n        /* \"wwcc-contracts/contracts/wwccPool.sol\":2438:2442  pool */\n      dup5\n        /* \"wwcc-contracts/contracts/wwccPool.sol\":2438:2448  pool.wPool */\n      0x60\n      add\n        /* \"wwcc-contracts/contracts/wwccPool.sol\":2438:2458  pool.wPool += weight */\n      dup2\n      dup2\n      mload\n      tag_76\n      swap2\n      swap1\n      tag_73\n      jump\t// in\n    tag_76:\n      swap2\n      pop\n      dup2\n      dup2\n      mstore\n      pop\n      pop\n        /* \"wwcc-contracts/contracts/wwccPool.sol\":2407:2603  if(kind == 3){... */\n      jump(tag_77)\n    tag_75:\n        /* \"wwcc-contracts/contracts/wwccPool.sol\":2490:2491  1 */\n      0x01\n        /* \"wwcc-contracts/contracts/wwccPool.sol\":2482:2486  kind */\n      dup7\n        /* \"wwcc-contracts/contracts/wwccPool.sol\":2482:2491  kind == 1 */\n      eq\n        /* \"wwcc-contracts/contracts/wwccPool.sol\":2478:2603  if (kind == 1){... */\n      iszero\n      tag_78\n      jumpi\n        /* \"wwcc-contracts/contracts/wwccPool.sol\":2524:2530  weight */\n      dup10\n        /* \"wwcc-contracts/contracts/wwccPool.sol\":2510:2514  pool */\n      dup5\n        /* \"wwcc-contracts/contracts/wwccPool.sol\":2510:2520  pool.dPool */\n      0x80\n      add\n        /* \"wwcc-contracts/contracts/wwccPool.sol\":2510:2530  pool.dPool += weight */\n      dup2\n      dup2\n      mload\n      tag_79\n      swap2\n      swap1\n      tag_73\n      jump\t// in\n    tag_79:\n      swap2\n      pop\n      dup2\n      dup2\n      mstore\n      pop\n      pop\n        /* \"wwcc-contracts/contracts/wwccPool.sol\":2478:2603  if (kind == 1){... */\n      jump(tag_80)\n    tag_78:\n        /* \"wwcc-contracts/contracts/wwccPool.sol\":2582:2588  weight */\n      dup10\n        /* \"wwcc-contracts/contracts/wwccPool.sol\":2568:2572  pool */\n      dup5\n        /* \"wwcc-contracts/contracts/wwccPool.sol\":2568:2578  pool.lPool */\n      0xa0\n      add\n        /* \"wwcc-contracts/contracts/wwccPool.sol\":2568:2588  pool.lPool += weight */\n      dup2\n      dup2\n      mload\n      tag_81\n      swap2\n      swap1\n      tag_73\n      jump\t// in\n    tag_81:\n      swap2\n      pop\n      dup2\n      dup2\n      mstore\n      pop\n      pop\n        /* \"wwcc-contracts/contracts/wwccPool.sol\":2478:2603  if (kind == 1){... */\n    tag_80:\n        /* \"wwcc-contracts/contracts/wwccPool.sol\":2407:2603  if(kind == 3){... */\n    tag_77:\n        /* \"wwcc-contracts/contracts/wwccPool.sol\":2324:2603  if (kind == 2){... */\n    tag_74:\n        /* \"wwcc-contracts/contracts/wwccPool.sol\":2633:2639  weight */\n      dup10\n        /* \"wwcc-contracts/contracts/wwccPool.sol\":2615:2625  joinerInfo */\n      0x02\n        /* \"wwcc-contracts/contracts/wwccPool.sol\":2626:2628  pk */\n      dup3\n        /* \"wwcc-contracts/contracts/wwccPool.sol\":2615:2629  joinerInfo[pk] */\n      mload(0x40)\n      tag_82\n      swap2\n      swap1\n      tag_29\n      jump\t// in\n    tag_82:\n      swap1\n      dup2\n      mstore\n      0x20\n      add\n      mload(0x40)\n      dup1\n      swap2\n      sub\n      swap1\n      keccak256\n      0x00\n        /* \"wwcc-contracts/contracts/wwccPool.sol\":2615:2639  joinerInfo[pk] += weight */\n      dup3\n      dup3\n      sload\n      tag_83\n      swap2\n      swap1\n      tag_73\n      jump\t// in\n    tag_83:\n      swap3\n      pop\n      pop\n      dup2\n      swap1\n      sstore\n      pop\n        /* \"wwcc-contracts/contracts/wwccPool.sol\":2024:2661  {... */\n      pop\n      pop\n      pop\n      pop\n        /* \"wwcc-contracts/contracts/wwccPool.sol\":1802:2667  function picking(address joiner,uint256 weight,bytes32 poolKey,uint256 homeScore,uint256 visitScore,uint256 kind) external returns(bool){... */\n      swap7\n      swap6\n      pop\n      pop\n      pop\n      pop\n      pop\n      pop\n      jump\t// out\n        /* \"wwcc-contracts/contracts/wwccPool.sol\":2672:3205  function getPair(bytes32 poolKey) external view returns (string memory home,string memory visit,string memory rounds,uint256 wPool,uint256 dPool,uint256 lPool,uint256 sPool){... */\n    tag_21:\n        /* \"wwcc-contracts/contracts/wwccPool.sol\":2729:2747  string memory home */\n      0x60\n        /* \"wwcc-contracts/contracts/wwccPool.sol\":2748:2767  string memory visit */\n      dup1\n        /* \"wwcc-contracts/contracts/wwccPool.sol\":2768:2788  string memory rounds */\n      0x60\n        /* \"wwcc-contracts/contracts/wwccPool.sol\":2789:2802  uint256 wPool */\n      0x00\n        /* \"wwcc-contracts/contracts/wwccPool.sol\":2803:2816  uint256 dPool */\n      dup1\n        /* \"wwcc-contracts/contracts/wwccPool.sol\":2817:2830  uint256 lPool */\n      0x00\n        /* \"wwcc-contracts/contracts/wwccPool.sol\":2831:2844  uint256 sPool */\n      dup1\n        /* \"wwcc-contracts/contracts/wwccPool.sol\":2859:2876  contains(poolKey) */\n      tag_85\n        /* \"wwcc-contracts/contracts/wwccPool.sol\":2868:2875  poolKey */\n      dup9\n        /* \"wwcc-contracts/contracts/wwccPool.sol\":2859:2867  contains */\n      tag_31\n        /* \"wwcc-contracts/contracts/wwccPool.sol\":2859:2876  contains(poolKey) */\n      jump\t// in\n    tag_85:\n        /* \"wwcc-contracts/contracts/wwccPool.sol\":2855:3199  if(!contains(poolKey)) { ... */\n      tag_86\n      jumpi\n        /* \"wwcc-contracts/contracts/wwccPool.sol\":2893:2912  revert(\"not exist\") */\n      mload(0x40)\n      0x08c379a000000000000000000000000000000000000000000000000000000000\n      dup2\n      mstore\n      0x04\n      add\n      tag_87\n      swap1\n      tag_88\n      jump\t// in\n    tag_87:\n      mload(0x40)\n      dup1\n      swap2\n      sub\n      swap1\n      revert\n        /* \"wwcc-contracts/contracts/wwccPool.sol\":2855:3199  if(!contains(poolKey)) { ... */\n    tag_86:\n        /* \"wwcc-contracts/contracts/wwccPool.sol\":2949:2956  WcPools */\n      0x03\n        /* \"wwcc-contracts/contracts/wwccPool.sol\":2949:2965  WcPools[poolKey] */\n      0x00\n        /* \"wwcc-contracts/contracts/wwccPool.sol\":2957:2964  poolKey */\n      dup10\n        /* \"wwcc-contracts/contracts/wwccPool.sol\":2949:2965  WcPools[poolKey] */\n      dup2\n      mstore\n      0x20\n      add\n      swap1\n      dup2\n      mstore\n      0x20\n      add\n      0x00\n      keccak256\n        /* \"wwcc-contracts/contracts/wwccPool.sol\":2949:2970  WcPools[poolKey].home */\n      0x00\n      add\n        /* \"wwcc-contracts/contracts/wwccPool.sol\":2984:2991  WcPools */\n      0x03\n        /* \"wwcc-contracts/contracts/wwccPool.sol\":2984:3000  WcPools[poolKey] */\n      0x00\n        /* \"wwcc-contracts/contracts/wwccPool.sol\":2992:2999  poolKey */\n      dup11\n        /* \"wwcc-contracts/contracts/wwccPool.sol\":2984:3000  WcPools[poolKey] */\n      dup2\n      mstore\n      0x20\n      add\n      swap1\n      dup2\n      mstore\n      0x20\n      add\n      0x00\n      keccak256\n        /* \"wwcc-contracts/contracts/wwccPool.sol\":2984:3006  WcPools[poolKey].visit */\n      0x01\n      add\n        /* \"wwcc-contracts/contracts/wwccPool.sol\":3020:3027  WcPools */\n      0x03\n        /* \"wwcc-contracts/contracts/wwccPool.sol\":3020:3036  WcPools[poolKey] */\n      0x00\n        /* \"wwcc-contracts/contracts/wwccPool.sol\":3028:3035  poolKey */\n      dup12\n        /* \"wwcc-contracts/contracts/wwccPool.sol\":3020:3036  WcPools[poolKey] */\n      dup2\n      mstore\n      0x20\n      add\n      swap1\n      dup2\n      mstore\n      0x20\n      add\n      0x00\n      keccak256\n        /* \"wwcc-contracts/contracts/wwccPool.sol\":3020:3043  WcPools[poolKey].rounds */\n      0x02\n      add\n        /* \"wwcc-contracts/contracts/wwccPool.sol\":3057:3064  WcPools */\n      0x03\n        /* \"wwcc-contracts/contracts/wwccPool.sol\":3057:3073  WcPools[poolKey] */\n      0x00\n        /* \"wwcc-contracts/contracts/wwccPool.sol\":3065:3072  poolKey */\n      dup13\n        /* \"wwcc-contracts/contracts/wwccPool.sol\":3057:3073  WcPools[poolKey] */\n      dup2\n      mstore\n      0x20\n      add\n      swap1\n      dup2\n      mstore\n      0x20\n      add\n      0x00\n      keccak256\n        /* \"wwcc-contracts/contracts/wwccPool.sol\":3057:3079  WcPools[poolKey].wPool */\n      0x03\n      add\n      sload\n        /* \"wwcc-contracts/contracts/wwccPool.sol\":3093:3100  WcPools */\n      0x03\n        /* \"wwcc-contracts/contracts/wwccPool.sol\":3093:3109  WcPools[poolKey] */\n      0x00\n        /* \"wwcc-contracts/contracts/wwccPool.sol\":3101:3108  poolKey */\n      dup14\n        /* \"wwcc-contracts/contracts/wwccPool.sol\":3093:3109  WcPools[poolKey] */\n      dup2\n      mstore\n      0x20\n      add\n      swap1\n      dup2\n      mstore\n      0x20\n      add\n      0x00\n      keccak256\n        /* \"wwcc-contracts/contracts/wwccPool.sol\":3093:3115  WcPools[poolKey].dPool */\n      0x04\n      add\n      sload\n        /* \"wwcc-contracts/contracts/wwccPool.sol\":3129:3136  WcPools */\n      0x03\n        /* \"wwcc-contracts/contracts/wwccPool.sol\":3129:3145  WcPools[poolKey] */\n      0x00\n        /* \"wwcc-contracts/contracts/wwccPool.sol\":3137:3144  poolKey */\n      dup15\n        /* \"wwcc-contracts/contracts/wwccPool.sol\":3129:3145  WcPools[poolKey] */\n      dup2\n      mstore\n      0x20\n      add\n      swap1\n      dup2\n      mstore\n      0x20\n      add\n      0x00\n      keccak256\n        /* \"wwcc-contracts/contracts/wwccPool.sol\":3129:3151  WcPools[poolKey].lPool */\n      0x05\n      add\n      sload\n        /* \"wwcc-contracts/contracts/wwccPool.sol\":3165:3172  WcPools */\n      0x03\n        /* \"wwcc-contracts/contracts/wwccPool.sol\":3165:3181  WcPools[poolKey] */\n      0x00\n        /* \"wwcc-contracts/contracts/wwccPool.sol\":3173:3180  poolKey */\n      dup16\n        /* \"wwcc-contracts/contracts/wwccPool.sol\":3165:3181  WcPools[poolKey] */\n      dup2\n      mstore\n      0x20\n      add\n      swap1\n      dup2\n      mstore\n      0x20\n      add\n      0x00\n      keccak256\n        /* \"wwcc-contracts/contracts/wwccPool.sol\":3165:3187  WcPools[poolKey].sPool */\n      0x06\n      add\n      sload\n        /* \"wwcc-contracts/contracts/wwccPool.sol\":2941:3188  return (WcPools[poolKey].home,... */\n      dup7\n      dup1\n      sload\n      tag_90\n      swap1\n      tag_47\n      jump\t// in\n    tag_90:\n      dup1\n      0x1f\n      add\n      0x20\n      dup1\n      swap2\n      div\n      mul\n      0x20\n      add\n      mload(0x40)\n      swap1\n      dup2\n      add\n      0x40\n      mstore\n      dup1\n      swap3\n      swap2\n      swap1\n      dup2\n      dup2\n      mstore\n      0x20\n      add\n      dup3\n      dup1\n      sload\n      tag_91\n      swap1\n      tag_47\n      jump\t// in\n    tag_91:\n      dup1\n      iszero\n      tag_92\n      jumpi\n      dup1\n      0x1f\n      lt\n      tag_93\n      jumpi\n      0x0100\n      dup1\n      dup4\n      sload\n      div\n      mul\n      dup4\n      mstore\n      swap2\n      0x20\n      add\n      swap2\n      jump(tag_92)\n    tag_93:\n      dup3\n      add\n      swap2\n      swap1\n      0x00\n      mstore\n      keccak256(0x00, 0x20)\n      swap1\n    tag_94:\n      dup2\n      sload\n      dup2\n      mstore\n      swap1\n      0x01\n      add\n      swap1\n      0x20\n      add\n      dup1\n      dup4\n      gt\n      tag_94\n      jumpi\n      dup3\n      swap1\n      sub\n      0x1f\n      and\n      dup3\n      add\n      swap2\n    tag_92:\n      pop\n      pop\n      pop\n      pop\n      pop\n      swap7\n      pop\n      dup6\n      dup1\n      sload\n      tag_95\n      swap1\n      tag_47\n      jump\t// in\n    tag_95:\n      dup1\n      0x1f\n      add\n      0x20\n      dup1\n      swap2\n      div\n      mul\n      0x20\n      add\n      mload(0x40)\n      swap1\n      dup2\n      add\n      0x40\n      mstore\n      dup1\n      swap3\n      swap2\n      swap1\n      dup2\n      dup2\n      mstore\n      0x20\n      add\n      dup3\n      dup1\n      sload\n      tag_96\n      swap1\n      tag_47\n      jump\t// in\n    tag_96:\n      dup1\n      iszero\n      tag_97\n      jumpi\n      dup1\n      0x1f\n      lt\n      tag_98\n      jumpi\n      0x0100\n      dup1\n      dup4\n      sload\n      div\n      mul\n      dup4\n      mstore\n      swap2\n      0x20\n      add\n      swap2\n      jump(tag_97)\n    tag_98:\n      dup3\n      add\n      swap2\n      swap1\n      0x00\n      mstore\n      keccak256(0x00, 0x20)\n      swap1\n    tag_99:\n      dup2\n      sload\n      dup2\n      mstore\n      swap1\n      0x01\n      add\n      swap1\n      0x20\n      add\n      dup1\n      dup4\n      gt\n      tag_99\n      jumpi\n      dup3\n      swap1\n      sub\n      0x1f\n      and\n      dup3\n      add\n      swap2\n    tag_97:\n      pop\n      pop\n      pop\n      pop\n      pop\n      swap6\n      pop\n      dup5\n      dup1\n      sload\n      tag_100\n      swap1\n      tag_47\n      jump\t// in\n    tag_100:\n      dup1\n      0x1f\n      add\n      0x20\n      dup1\n      swap2\n      div\n      mul\n      0x20\n      add\n      mload(0x40)\n      swap1\n      dup2\n      add\n      0x40\n      mstore\n      dup1\n      swap3\n      swap2\n      swap1\n      dup2\n      dup2\n      mstore\n      0x20\n      add\n      dup3\n      dup1\n      sload\n      tag_101\n      swap1\n      tag_47\n      jump\t// in\n    tag_101:\n      dup1\n      iszero\n      tag_102\n      jumpi\n      dup1\n      0x1f\n      lt\n      tag_103\n      jumpi\n      0x0100\n      dup1\n      dup4\n      sload\n      div\n      mul\n      dup4\n      mstore\n      swap2\n      0x20\n      add\n      swap2\n      jump(tag_102)\n    tag_103:\n      dup3\n      add\n      swap2\n      swap1\n      0x00\n      mstore\n      keccak256(0x00, 0x20)\n      swap1\n    tag_104:\n      dup2\n      sload\n      dup2\n      mstore\n      swap1\n      0x01\n      add\n      swap1\n      0x20\n      add\n      dup1\n      dup4\n      gt\n      tag_104\n      jumpi\n      dup3\n      swap1\n      sub\n      0x1f\n      and\n      dup3\n      add\n      swap2\n    tag_102:\n      pop\n      pop\n      pop\n      pop\n      pop\n      swap5\n      pop\n      swap7\n      pop\n      swap7\n      pop\n      swap7\n      pop\n      swap7\n      pop\n      swap7\n      pop\n      swap7\n      pop\n      swap7\n      pop\n        /* \"wwcc-contracts/contracts/wwccPool.sol\":2672:3205  function getPair(bytes32 poolKey) external view returns (string memory home,string memory visit,string memory rounds,uint256 wPool,uint256 dPool,uint256 lPool,uint256 sPool){... */\n      swap2\n      swap4\n      swap6\n      swap8\n      swap1\n      swap3\n      swap5\n      swap7\n      pop\n      jump\t// out\n        /* \"wwcc-contracts/contracts/wwccPool.sol\":3328:3817  function strConcat(string memory _a,string memory _b) internal pure returns (string memory){... */\n    tag_26:\n        /* \"wwcc-contracts/contracts/wwccPool.sol\":3405:3418  string memory */\n      0x60\n        /* \"wwcc-contracts/contracts/wwccPool.sol\":3433:3449  bytes memory _ba */\n      0x00\n        /* \"wwcc-contracts/contracts/wwccPool.sol\":3458:3460  _a */\n      dup4\n        /* \"wwcc-contracts/contracts/wwccPool.sol\":3433:3461  bytes memory _ba = bytes(_a) */\n      swap1\n      pop\n        /* \"wwcc-contracts/contracts/wwccPool.sol\":3475:3491  bytes memory _bb */\n      0x00\n        /* \"wwcc-contracts/contracts/wwccPool.sol\":3500:3502  _b */\n      dup4\n        /* \"wwcc-contracts/contracts/wwccPool.sol\":3475:3503  bytes memory _bb = bytes(_b) */\n      swap1\n      pop\n        /* \"wwcc-contracts/contracts/wwccPool.sol\":3517:3534  string memory ret */\n      0x00\n        /* \"wwcc-contracts/contracts/wwccPool.sol\":3561:3564  _bb */\n      dup2\n        /* \"wwcc-contracts/contracts/wwccPool.sol\":3561:3571  _bb.length */\n      mload\n        /* \"wwcc-contracts/contracts/wwccPool.sol\":3548:3551  _ba */\n      dup4\n        /* \"wwcc-contracts/contracts/wwccPool.sol\":3548:3558  _ba.length */\n      mload\n        /* \"wwcc-contracts/contracts/wwccPool.sol\":3548:3571  _ba.length + _bb.length */\n      tag_106\n      swap2\n      swap1\n      tag_73\n      jump\t// in\n    tag_106:\n        /* \"wwcc-contracts/contracts/wwccPool.sol\":3537:3572  new string(_ba.length + _bb.length) */\n      0xffffffffffffffff\n      dup2\n      gt\n      iszero\n      tag_107\n      jumpi\n      tag_108\n      tag_109\n      jump\t// in\n    tag_108:\n    tag_107:\n      mload(0x40)\n      swap1\n      dup1\n      dup3\n      mstore\n      dup1\n      0x1f\n      add\n      not(0x1f)\n      and\n      0x20\n      add\n      dup3\n      add\n      0x40\n      mstore\n      dup1\n      iszero\n      tag_110\n      jumpi\n      dup2\n      0x20\n      add\n      0x01\n      dup3\n      mul\n      dup1\n      calldatasize\n      dup4\n      calldatacopy\n      dup1\n      dup3\n      add\n      swap2\n      pop\n      pop\n      swap1\n      pop\n    tag_110:\n      pop\n        /* \"wwcc-contracts/contracts/wwccPool.sol\":3517:3572  string memory ret = new string(_ba.length + _bb.length) */\n      swap1\n      pop\n        /* \"wwcc-contracts/contracts/wwccPool.sol\":3586:3603  bytes memory bret */\n      0x00\n        /* \"wwcc-contracts/contracts/wwccPool.sol\":3612:3615  ret */\n      dup2\n        /* \"wwcc-contracts/contracts/wwccPool.sol\":3586:3616  bytes memory bret = bytes(ret) */\n      swap1\n      pop\n        /* \"wwcc-contracts/contracts/wwccPool.sol\":3630:3636  uint k */\n      0x00\n        /* \"wwcc-contracts/contracts/wwccPool.sol\":3658:3664  uint i */\n      dup1\n        /* \"wwcc-contracts/contracts/wwccPool.sol\":3654:3707  for(uint i = 0;i < _ba.length;i++) bret[k++] = _ba[i] */\n    tag_111:\n        /* \"wwcc-contracts/contracts/wwccPool.sol\":3673:3676  _ba */\n      dup6\n        /* \"wwcc-contracts/contracts/wwccPool.sol\":3673:3683  _ba.length */\n      mload\n        /* \"wwcc-contracts/contracts/wwccPool.sol\":3669:3670  i */\n      dup2\n        /* \"wwcc-contracts/contracts/wwccPool.sol\":3669:3683  i < _ba.length */\n      lt\n        /* \"wwcc-contracts/contracts/wwccPool.sol\":3654:3707  for(uint i = 0;i < _ba.length;i++) bret[k++] = _ba[i] */\n      iszero\n      tag_112\n      jumpi\n        /* \"wwcc-contracts/contracts/wwccPool.sol\":3701:3704  _ba */\n      dup6\n        /* \"wwcc-contracts/contracts/wwccPool.sol\":3705:3706  i */\n      dup2\n        /* \"wwcc-contracts/contracts/wwccPool.sol\":3701:3707  _ba[i] */\n      dup2\n      mload\n      dup2\n      lt\n      tag_114\n      jumpi\n      tag_115\n      tag_116\n      jump\t// in\n    tag_115:\n    tag_114:\n      0x20\n      add\n      add\n      mload\n      0xf8\n      shr\n      0xf8\n      shl\n        /* \"wwcc-contracts/contracts/wwccPool.sol\":3689:3693  bret */\n      dup4\n        /* \"wwcc-contracts/contracts/wwccPool.sol\":3694:3697  k++ */\n      dup4\n      dup1\n      tag_117\n      swap1\n      tag_118\n      jump\t// in\n    tag_117:\n      swap5\n      pop\n        /* \"wwcc-contracts/contracts/wwccPool.sol\":3689:3698  bret[k++] */\n      dup2\n      mload\n      dup2\n      lt\n      tag_119\n      jumpi\n      tag_120\n      tag_116\n      jump\t// in\n    tag_120:\n    tag_119:\n      0x20\n      add\n      add\n        /* \"wwcc-contracts/contracts/wwccPool.sol\":3689:3707  bret[k++] = _ba[i] */\n      swap1\n      not(0xffffffffffffffffffffffffffffffffffffffffffffffffffffffffffffff)\n      and\n      swap1\n      dup2\n      0x00\n      byte\n      swap1\n      mstore8\n      pop\n        /* \"wwcc-contracts/contracts/wwccPool.sol\":3684:3687  i++ */\n      dup1\n      dup1\n      tag_121\n      swap1\n      tag_118\n      jump\t// in\n    tag_121:\n      swap2\n      pop\n      pop\n        /* \"wwcc-contracts/contracts/wwccPool.sol\":3654:3707  for(uint i = 0;i < _ba.length;i++) bret[k++] = _ba[i] */\n      jump(tag_111)\n    tag_112:\n      pop\n        /* \"wwcc-contracts/contracts/wwccPool.sol\":3725:3731  uint i */\n      0x00\n        /* \"wwcc-contracts/contracts/wwccPool.sol\":3721:3774  for(uint i = 0;i < _bb.length;i++) bret[k++] = _bb[i] */\n    tag_122:\n        /* \"wwcc-contracts/contracts/wwccPool.sol\":3740:3743  _bb */\n      dup5\n        /* \"wwcc-contracts/contracts/wwccPool.sol\":3740:3750  _bb.length */\n      mload\n        /* \"wwcc-contracts/contracts/wwccPool.sol\":3736:3737  i */\n      dup2\n        /* \"wwcc-contracts/contracts/wwccPool.sol\":3736:3750  i < _bb.length */\n      lt\n        /* \"wwcc-contracts/contracts/wwccPool.sol\":3721:3774  for(uint i = 0;i < _bb.length;i++) bret[k++] = _bb[i] */\n      iszero\n      tag_123\n      jumpi\n        /* \"wwcc-contracts/contracts/wwccPool.sol\":3768:3771  _bb */\n      dup5\n        /* \"wwcc-contracts/contracts/wwccPool.sol\":3772:3773  i */\n      dup2\n        /* \"wwcc-contracts/contracts/wwccPool.sol\":3768:3774  _bb[i] */\n      dup2\n      mload\n      dup2\n      lt\n      tag_125\n      jumpi\n      tag_126\n      tag_116\n      jump\t// in\n    tag_126:\n    tag_125:\n      0x20\n      add\n      add\n      mload\n      0xf8\n      shr\n      0xf8\n      shl\n        /* \"wwcc-contracts/contracts/wwccPool.sol\":3756:3760  bret */\n      dup4\n        /* \"wwcc-contracts/contracts/wwccPool.sol\":3761:3764  k++ */\n      dup4\n      dup1\n      tag_127\n      swap1\n      tag_118\n      jump\t// in\n    tag_127:\n      swap5\n      pop\n        /* \"wwcc-contracts/contracts/wwccPool.sol\":3756:3765  bret[k++] */\n      dup2\n      mload\n      dup2\n      lt\n      tag_128\n      jumpi\n      tag_129\n      tag_116\n      jump\t// in\n    tag_129:\n    tag_128:\n      0x20\n      add\n      add\n        /* \"wwcc-contracts/contracts/wwccPool.sol\":3756:3774  bret[k++] = _bb[i] */\n      swap1\n      not(0xffffffffffffffffffffffffffffffffffffffffffffffffffffffffffffff)\n      and\n      swap1\n      dup2\n      0x00\n      byte\n      swap1\n      mstore8\n      pop\n        /* \"wwcc-contracts/contracts/wwccPool.sol\":3751:3754  i++ */\n      dup1\n      dup1\n      tag_130\n      swap1\n      tag_118\n      jump\t// in\n    tag_130:\n      swap2\n      pop\n      pop\n        /* \"wwcc-contracts/contracts/wwccPool.sol\":3721:3774  for(uint i = 0;i < _bb.length;i++) bret[k++] = _bb[i] */\n      jump(tag_122)\n    tag_123:\n      pop\n        /* \"wwcc-contracts/contracts/wwccPool.sol\":3802:3805  ret */\n      dup3\n        /* \"wwcc-contracts/contracts/wwccPool.sol\":3788:3806  return string(ret) */\n      swap6\n      pop\n      pop\n      pop\n      pop\n      pop\n      pop\n        /* \"wwcc-contracts/contracts/wwccPool.sol\":3328:3817  function strConcat(string memory _a,string memory _b) internal pure returns (string memory){... */\n      swap3\n      swap2\n      pop\n      pop\n      jump\t// out\n        /* \"wwcc-contracts/contracts/wwccPool.sol\":3210:3323  function contains(bytes32 poolKey) internal view returns (bool) {... */\n    tag_31:\n        /* \"wwcc-contracts/contracts/wwccPool.sol\":3268:3272  bool */\n      0x00\n        /* \"wwcc-contracts/contracts/wwccPool.sol\":3295:3302  WcPools */\n      0x03\n        /* \"wwcc-contracts/contracts/wwccPool.sol\":3295:3311  WcPools[poolKey] */\n      0x00\n        /* \"wwcc-contracts/contracts/wwccPool.sol\":3303:3310  poolKey */\n      dup4\n        /* \"wwcc-contracts/contracts/wwccPool.sol\":3295:3311  WcPools[poolKey] */\n      dup2\n      mstore\n      0x20\n      add\n      swap1\n      dup2\n      mstore\n      0x20\n      add\n      0x00\n      keccak256\n        /* \"wwcc-contracts/contracts/wwccPool.sol\":3295:3316  WcPools[poolKey].used */\n      0x07\n      add\n      0x01\n      swap1\n      sload\n      swap1\n      0x0100\n      exp\n      swap1\n      div\n      0xff\n      and\n        /* \"wwcc-contracts/contracts/wwccPool.sol\":3288:3316  return WcPools[poolKey].used */\n      swap1\n      pop\n        /* \"wwcc-contracts/contracts/wwccPool.sol\":3210:3323  function contains(bytes32 poolKey) internal view returns (bool) {... */\n      swap2\n      swap1\n      pop\n      jump\t// out\n        /* \"wwcc-contracts/contracts/wwccPool.sol\":3956:4085  function uint256ToString(uint256 u) internal pure returns(string memory){... */\n    tag_64:\n        /* \"wwcc-contracts/contracts/wwccPool.sol\":4014:4027  string memory */\n      0x60\n        /* \"wwcc-contracts/contracts/wwccPool.sol\":4049:4078  toString(abi.encodePacked(u)) */\n      tag_133\n        /* \"wwcc-contracts/contracts/wwccPool.sol\":4075:4076  u */\n      dup3\n        /* \"wwcc-contracts/contracts/wwccPool.sol\":4058:4077  abi.encodePacked(u) */\n      add(0x20, mload(0x40))\n      tag_134\n      swap2\n      swap1\n      tag_135\n      jump\t// in\n    tag_134:\n      mload(0x40)\n      0x20\n      dup2\n      dup4\n      sub\n      sub\n      dup2\n      mstore\n      swap1\n      0x40\n      mstore\n        /* \"wwcc-contracts/contracts/wwccPool.sol\":4049:4057  toString */\n      tag_136\n        /* \"wwcc-contracts/contracts/wwccPool.sol\":4049:4078  toString(abi.encodePacked(u)) */\n      jump\t// in\n    tag_133:\n        /* \"wwcc-contracts/contracts/wwccPool.sol\":4042:4078  return toString(abi.encodePacked(u)) */\n      swap1\n      pop\n        /* \"wwcc-contracts/contracts/wwccPool.sol\":3956:4085  function uint256ToString(uint256 u) internal pure returns(string memory){... */\n      swap2\n      swap1\n      pop\n      jump\t// out\n        /* \"wwcc-contracts/contracts/wwccPool.sol\":3822:3951  function addressToString(address a) internal pure returns(string memory){... */\n    tag_68:\n        /* \"wwcc-contracts/contracts/wwccPool.sol\":3880:3893  string memory */\n      0x60\n        /* \"wwcc-contracts/contracts/wwccPool.sol\":3915:3944  toString(abi.encodePacked(a)) */\n      tag_138\n        /* \"wwcc-contracts/contracts/wwccPool.sol\":3941:3942  a */\n      dup3\n        /* \"wwcc-contracts/contracts/wwccPool.sol\":3924:3943  abi.encodePacked(a) */\n      add(0x20, mload(0x40))\n      tag_139\n      swap2\n      swap1\n      tag_140\n      jump\t// in\n    tag_139:\n      mload(0x40)\n      0x20\n      dup2\n      dup4\n      sub\n      sub\n      dup2\n      mstore\n      swap1\n      0x40\n      mstore\n        /* \"wwcc-contracts/contracts/wwccPool.sol\":3915:3923  toString */\n      tag_136\n        /* \"wwcc-contracts/contracts/wwccPool.sol\":3915:3944  toString(abi.encodePacked(a)) */\n      jump\t// in\n    tag_138:\n        /* \"wwcc-contracts/contracts/wwccPool.sol\":3908:3944  return toString(abi.encodePacked(a)) */\n      swap1\n      pop\n        /* \"wwcc-contracts/contracts/wwccPool.sol\":3822:3951  function addressToString(address a) internal pure returns(string memory){... */\n      swap2\n      swap1\n      pop\n      jump\t// out\n        /* \"wwcc-contracts/contracts/wwccPool.sol\":4225:4712  function toString(bytes memory data) internal pure returns(string memory){... */\n    tag_136:\n        /* \"wwcc-contracts/contracts/wwccPool.sol\":4284:4297  string memory */\n      0x60\n        /* \"wwcc-contracts/contracts/wwccPool.sol\":4312:4333  bytes memory alphabet */\n      0x00\n        /* \"wwcc-contracts/contracts/wwccPool.sol\":4312:4354  bytes memory alphabet = \"0123456789abcdef\" */\n      mload(0x40)\n      dup1\n      0x40\n      add\n      0x40\n      mstore\n      dup1\n      0x10\n      dup2\n      mstore\n      0x20\n      add\n      0x3031323334353637383961626364656600000000000000000000000000000000\n      dup2\n      mstore\n      pop\n      swap1\n      pop\n        /* \"wwcc-contracts/contracts/wwccPool.sol\":4368:4384  bytes memory str */\n      0x00\n        /* \"wwcc-contracts/contracts/wwccPool.sol\":4415:4416  2 */\n      0x02\n        /* \"wwcc-contracts/contracts/wwccPool.sol\":4401:4405  data */\n      dup5\n        /* \"wwcc-contracts/contracts/wwccPool.sol\":4401:4412  data.length */\n      mload\n        /* \"wwcc-contracts/contracts/wwccPool.sol\":4401:4416  data.length * 2 */\n      tag_142\n      swap2\n      swap1\n      tag_143\n      jump\t// in\n    tag_142:\n        /* \"wwcc-contracts/contracts/wwccPool.sol\":4397:4398  2 */\n      0x02\n        /* \"wwcc-contracts/contracts/wwccPool.sol\":4397:4416  2 + data.length * 2 */\n      tag_144\n      swap2\n      swap1\n      tag_73\n      jump\t// in\n    tag_144:\n        /* \"wwcc-contracts/contracts/wwccPool.sol\":4387:4417  new bytes(2 + data.length * 2) */\n      0xffffffffffffffff\n      dup2\n      gt\n      iszero\n      tag_145\n      jumpi\n      tag_146\n      tag_109\n      jump\t// in\n    tag_146:\n    tag_145:\n      mload(0x40)\n      swap1\n      dup1\n      dup3\n      mstore\n      dup1\n      0x1f\n      add\n      not(0x1f)\n      and\n      0x20\n      add\n      dup3\n      add\n      0x40\n      mstore\n      dup1\n      iszero\n      tag_147\n      jumpi\n      dup2\n      0x20\n      add\n      0x01\n      dup3\n      mul\n      dup1\n      calldatasize\n      dup4\n      calldatacopy\n      dup1\n      dup3\n      add\n      swap2\n      pop\n      pop\n      swap1\n      pop\n    tag_147:\n      pop\n        /* \"wwcc-contracts/contracts/wwccPool.sol\":4368:4417  bytes memory str = new bytes(2 + data.length * 2) */\n      swap1\n      pop\n        /* \"wwcc-contracts/contracts/wwccPool.sol\":4431:4443  str[0] = \"0\" */\n      0x3000000000000000000000000000000000000000000000000000000000000000\n        /* \"wwcc-contracts/contracts/wwccPool.sol\":4431:4434  str */\n      dup2\n        /* \"wwcc-contracts/contracts/wwccPool.sol\":4435:4436  0 */\n      0x00\n        /* \"wwcc-contracts/contracts/wwccPool.sol\":4431:4437  str[0] */\n      dup2\n      mload\n      dup2\n      lt\n      tag_148\n      jumpi\n      tag_149\n      tag_116\n      jump\t// in\n    tag_149:\n    tag_148:\n      0x20\n      add\n      add\n        /* \"wwcc-contracts/contracts/wwccPool.sol\":4431:4443  str[0] = \"0\" */\n      swap1\n      not(0xffffffffffffffffffffffffffffffffffffffffffffffffffffffffffffff)\n      and\n      swap1\n      dup2\n      0x00\n      byte\n      swap1\n      mstore8\n      pop\n        /* \"wwcc-contracts/contracts/wwccPool.sol\":4457:4469  str[1] = \"x\" */\n      0x7800000000000000000000000000000000000000000000000000000000000000\n        /* \"wwcc-contracts/contracts/wwccPool.sol\":4457:4460  str */\n      dup2\n        /* \"wwcc-contracts/contracts/wwccPool.sol\":4461:4462  1 */\n      0x01\n        /* \"wwcc-contracts/contracts/wwccPool.sol\":4457:4463  str[1] */\n      dup2\n      mload\n      dup2\n      lt\n      tag_150\n      jumpi\n      tag_151\n      tag_116\n      jump\t// in\n    tag_151:\n    tag_150:\n      0x20\n      add\n      add\n        /* \"wwcc-contracts/contracts/wwccPool.sol\":4457:4469  str[1] = \"x\" */\n      swap1\n      not(0xffffffffffffffffffffffffffffffffffffffffffffffffffffffffffffff)\n      and\n      swap1\n      dup2\n      0x00\n      byte\n      swap1\n      mstore8\n      pop\n        /* \"wwcc-contracts/contracts/wwccPool.sol\":4487:4493  uint i */\n      0x00\n        /* \"wwcc-contracts/contracts/wwccPool.sol\":4483:4674  for(uint i =0;i < data.length;i++){... */\n    tag_152:\n        /* \"wwcc-contracts/contracts/wwccPool.sol\":4501:4505  data */\n      dup5\n        /* \"wwcc-contracts/contracts/wwccPool.sol\":4501:4512  data.length */\n      mload\n        /* \"wwcc-contracts/contracts/wwccPool.sol\":4497:4498  i */\n      dup2\n        /* \"wwcc-contracts/contracts/wwccPool.sol\":4497:4512  i < data.length */\n      lt\n        /* \"wwcc-contracts/contracts/wwccPool.sol\":4483:4674  for(uint i =0;i < data.length;i++){... */\n      iszero\n      tag_153\n      jumpi\n        /* \"wwcc-contracts/contracts/wwccPool.sol\":4552:4560  alphabet */\n      dup3\n        /* \"wwcc-contracts/contracts/wwccPool.sol\":4583:4584  4 */\n      0x04\n        /* \"wwcc-contracts/contracts/wwccPool.sol\":4572:4576  data */\n      dup7\n        /* \"wwcc-contracts/contracts/wwccPool.sol\":4577:4578  i */\n      dup4\n        /* \"wwcc-contracts/contracts/wwccPool.sol\":4572:4579  data[i] */\n      dup2\n      mload\n      dup2\n      lt\n      tag_155\n      jumpi\n      tag_156\n      tag_116\n      jump\t// in\n    tag_156:\n    tag_155:\n      0x20\n      add\n      add\n      mload\n      0xf8\n      shr\n      0xf8\n      shl\n        /* \"wwcc-contracts/contracts/wwccPool.sol\":4572:4584  data[i] >> 4 */\n      not(0xffffffffffffffffffffffffffffffffffffffffffffffffffffffffffffff)\n      and\n      swap1\n      shr\n        /* \"wwcc-contracts/contracts/wwccPool.sol\":4566:4585  uint8(data[i] >> 4) */\n      0xf8\n      shr\n        /* \"wwcc-contracts/contracts/wwccPool.sol\":4561:4586  uint(uint8(data[i] >> 4)) */\n      0xff\n      and\n        /* \"wwcc-contracts/contracts/wwccPool.sol\":4552:4587  alphabet[uint(uint8(data[i] >> 4))] */\n      dup2\n      mload\n      dup2\n      lt\n      tag_157\n      jumpi\n      tag_158\n      tag_116\n      jump\t// in\n    tag_158:\n    tag_157:\n      0x20\n      add\n      add\n      mload\n      0xf8\n      shr\n      0xf8\n      shl\n        /* \"wwcc-contracts/contracts/wwccPool.sol\":4535:4538  str */\n      dup3\n        /* \"wwcc-contracts/contracts/wwccPool.sol\":4547:4548  2 */\n      0x02\n        /* \"wwcc-contracts/contracts/wwccPool.sol\":4543:4544  i */\n      dup4\n        /* \"wwcc-contracts/contracts/wwccPool.sol\":4543:4548  i * 2 */\n      tag_159\n      swap2\n      swap1\n      tag_143\n      jump\t// in\n    tag_159:\n        /* \"wwcc-contracts/contracts/wwccPool.sol\":4539:4540  2 */\n      0x02\n        /* \"wwcc-contracts/contracts/wwccPool.sol\":4539:4548  2 + i * 2 */\n      tag_160\n      swap2\n      swap1\n      tag_73\n      jump\t// in\n    tag_160:\n        /* \"wwcc-contracts/contracts/wwccPool.sol\":4535:4549  str[2 + i * 2] */\n      dup2\n      mload\n      dup2\n      lt\n      tag_161\n      jumpi\n      tag_162\n      tag_116\n      jump\t// in\n    tag_162:\n    tag_161:\n      0x20\n      add\n      add\n        /* \"wwcc-contracts/contracts/wwccPool.sol\":4535:4587  str[2 + i * 2] = alphabet[uint(uint8(data[i] >> 4))] */\n      swap1\n      not(0xffffffffffffffffffffffffffffffffffffffffffffffffffffffffffffff)\n      and\n      swap1\n      dup2\n      0x00\n      byte\n      swap1\n      mstore8\n      pop\n        /* \"wwcc-contracts/contracts/wwccPool.sol\":4622:4630  alphabet */\n      dup3\n        /* \"wwcc-contracts/contracts/wwccPool.sol\":4652:4656  0x0f */\n      0x0f\n        /* \"wwcc-contracts/contracts/wwccPool.sol\":4642:4656  data[i] & 0x0f */\n      0xf8\n      shl\n        /* \"wwcc-contracts/contracts/wwccPool.sol\":4642:4646  data */\n      dup7\n        /* \"wwcc-contracts/contracts/wwccPool.sol\":4647:4648  i */\n      dup4\n        /* \"wwcc-contracts/contracts/wwccPool.sol\":4642:4649  data[i] */\n      dup2\n      mload\n      dup2\n      lt\n      tag_163\n      jumpi\n      tag_164\n      tag_116\n      jump\t// in\n    tag_164:\n    tag_163:\n      0x20\n      add\n      add\n      mload\n      0xf8\n      shr\n      0xf8\n      shl\n        /* \"wwcc-contracts/contracts/wwccPool.sol\":4642:4656  data[i] & 0x0f */\n      and\n        /* \"wwcc-contracts/contracts/wwccPool.sol\":4636:4657  uint8(data[i] & 0x0f) */\n      0xf8\n      shr\n        /* \"wwcc-contracts/contracts/wwccPool.sol\":4631:4658  uint(uint8(data[i] & 0x0f)) */\n      0xff\n      and\n        /* \"wwcc-contracts/contracts/wwccPool.sol\":4622:4659  alphabet[uint(uint8(data[i] & 0x0f))] */\n      dup2\n      mload\n      dup2\n      lt\n      tag_165\n      jumpi\n      tag_166\n      tag_116\n      jump\t// in\n    tag_166:\n    tag_165:\n      0x20\n      add\n      add\n      mload\n      0xf8\n      shr\n      0xf8\n      shl\n        /* \"wwcc-contracts/contracts/wwccPool.sol\":4605:4608  str */\n      dup3\n        /* \"wwcc-contracts/contracts/wwccPool.sol\":4617:4618  2 */\n      0x02\n        /* \"wwcc-contracts/contracts/wwccPool.sol\":4613:4614  i */\n      dup4\n        /* \"wwcc-contracts/contracts/wwccPool.sol\":4613:4618  i * 2 */\n      tag_167\n      swap2\n      swap1\n      tag_143\n      jump\t// in\n    tag_167:\n        /* \"wwcc-contracts/contracts/wwccPool.sol\":4609:4610  3 */\n      0x03\n        /* \"wwcc-contracts/contracts/wwccPool.sol\":4609:4618  3 + i * 2 */\n      tag_168\n      swap2\n      swap1\n      tag_73\n      jump\t// in\n    tag_168:\n        /* \"wwcc-contracts/contracts/wwccPool.sol\":4605:4619  str[3 + i * 2] */\n      dup2\n      mload\n      dup2\n      lt\n      tag_169\n      jumpi\n      tag_170\n      tag_116\n      jump\t// in\n    tag_170:\n    tag_169:\n      0x20\n      add\n      add\n        /* \"wwcc-contracts/contracts/wwccPool.sol\":4605:4659  str[3 + i * 2] = alphabet[uint(uint8(data[i] & 0x0f))] */\n      swap1\n      not(0xffffffffffffffffffffffffffffffffffffffffffffffffffffffffffffff)\n      and\n      swap1\n      dup2\n      0x00\n      byte\n      swap1\n      mstore8\n      pop\n        /* \"wwcc-contracts/contracts/wwccPool.sol\":4513:4516  i++ */\n      dup1\n      dup1\n      tag_171\n      swap1\n      tag_118\n      jump\t// in\n    tag_171:\n      swap2\n      pop\n      pop\n        /* \"wwcc-contracts/contracts/wwccPool.sol\":4483:4674  for(uint i =0;i < data.length;i++){... */\n      jump(tag_152)\n    tag_153:\n      pop\n        /* \"wwcc-contracts/contracts/wwccPool.sol\":4701:4704  str */\n      dup1\n        /* \"wwcc-contracts/contracts/wwccPool.sol\":4687:4705  return string(str) */\n      swap3\n      pop\n      pop\n      pop\n        /* \"wwcc-contracts/contracts/wwccPool.sol\":4225:4712  function toString(bytes memory data) internal pure returns(string memory){... */\n      swap2\n      swap1\n      pop\n      jump\t// out\n    tag_37:\n      dup3\n      dup1\n      sload\n      tag_172\n      swap1\n      tag_47\n      jump\t// in\n    tag_172:\n      swap1\n      0x00\n      mstore\n      keccak256(0x00, 0x20)\n      swap1\n      0x1f\n      add\n      0x20\n      swap1\n      div\n      dup2\n      add\n      swap3\n      dup3\n      tag_174\n      jumpi\n      0x00\n      dup6\n      sstore\n      jump(tag_173)\n    tag_174:\n      dup3\n      0x1f\n      lt\n      tag_175\n      jumpi\n      dup1\n      mload\n      not(0xff)\n      and\n      dup4\n      dup1\n      add\n      or\n      dup6\n      sstore\n      jump(tag_173)\n    tag_175:\n      dup3\n      dup1\n      add\n      0x01\n      add\n      dup6\n      sstore\n      dup3\n      iszero\n      tag_173\n      jumpi\n      swap2\n      dup3\n      add\n    tag_176:\n      dup3\n      dup2\n      gt\n      iszero\n      tag_177\n      jumpi\n      dup3\n      mload\n      dup3\n      sstore\n      swap2\n      0x20\n      add\n      swap2\n      swap1\n      0x01\n      add\n      swap1\n      jump(tag_176)\n    tag_177:\n    tag_173:\n      pop\n      swap1\n      pop\n      tag_178\n      swap2\n      swap1\n      tag_179\n      jump\t// in\n    tag_178:\n      pop\n      swap1\n      jump\t// out\n    tag_179:\n    tag_180:\n      dup1\n      dup3\n      gt\n      iszero\n      tag_181\n      jumpi\n      0x00\n      dup2\n      0x00\n      swap1\n      sstore\n      pop\n      0x01\n      add\n      jump(tag_180)\n    tag_181:\n      pop\n      swap1\n      jump\t// out\n        /* \"#utility.yul\":7:419   */\n    tag_183:\n        /* \"#utility.yul\":85:90   */\n      0x00\n        /* \"#utility.yul\":110:176   */\n      tag_185\n        /* \"#utility.yul\":126:175   */\n      tag_186\n        /* \"#utility.yul\":168:174   */\n      dup5\n        /* \"#utility.yul\":126:175   */\n      tag_187\n      jump\t// in\n    tag_186:\n        /* \"#utility.yul\":110:176   */\n      tag_188\n      jump\t// in\n    tag_185:\n        /* \"#utility.yul\":101:176   */\n      swap1\n      pop\n        /* \"#utility.yul\":199:205   */\n      dup3\n        /* \"#utility.yul\":192:197   */\n      dup2\n        /* \"#utility.yul\":185:206   */\n      mstore\n        /* \"#utility.yul\":237:241   */\n      0x20\n        /* \"#utility.yul\":230:235   */\n      dup2\n        /* \"#utility.yul\":226:242   */\n      add\n        /* \"#utility.yul\":275:278   */\n      dup5\n        /* \"#utility.yul\":266:272   */\n      dup5\n        /* \"#utility.yul\":261:264   */\n      dup5\n        /* \"#utility.yul\":257:273   */\n      add\n        /* \"#utility.yul\":254:279   */\n      gt\n        /* \"#utility.yul\":251:363   */\n      iszero\n      tag_189\n      jumpi\n        /* \"#utility.yul\":282:361   */\n      tag_190\n      tag_191\n      jump\t// in\n    tag_190:\n        /* \"#utility.yul\":251:363   */\n    tag_189:\n        /* \"#utility.yul\":372:413   */\n      tag_192\n        /* \"#utility.yul\":406:412   */\n      dup5\n        /* \"#utility.yul\":401:404   */\n      dup3\n        /* \"#utility.yul\":396:399   */\n      dup6\n        /* \"#utility.yul\":372:413   */\n      tag_193\n      jump\t// in\n    tag_192:\n        /* \"#utility.yul\":91:419   */\n      pop\n        /* \"#utility.yul\":7:419   */\n      swap4\n      swap3\n      pop\n      pop\n      pop\n      jump\t// out\n        /* \"#utility.yul\":425:564   */\n    tag_194:\n        /* \"#utility.yul\":471:476   */\n      0x00\n        /* \"#utility.yul\":509:515   */\n      dup2\n        /* \"#utility.yul\":496:516   */\n      calldataload\n        /* \"#utility.yul\":487:516   */\n      swap1\n      pop\n        /* \"#utility.yul\":525:558   */\n      tag_196\n        /* \"#utility.yul\":552:557   */\n      dup2\n        /* \"#utility.yul\":525:558   */\n      tag_197\n      jump\t// in\n    tag_196:\n        /* \"#utility.yul\":425:564   */\n      swap3\n      swap2\n      pop\n      pop\n      jump\t// out\n        /* \"#utility.yul\":570:703   */\n    tag_198:\n        /* \"#utility.yul\":613:618   */\n      0x00\n        /* \"#utility.yul\":651:657   */\n      dup2\n        /* \"#utility.yul\":638:658   */\n      calldataload\n        /* \"#utility.yul\":629:658   */\n      swap1\n      pop\n        /* \"#utility.yul\":667:697   */\n      tag_200\n        /* \"#utility.yul\":691:696   */\n      dup2\n        /* \"#utility.yul\":667:697   */\n      tag_201\n      jump\t// in\n    tag_200:\n        /* \"#utility.yul\":570:703   */\n      swap3\n      swap2\n      pop\n      pop\n      jump\t// out\n        /* \"#utility.yul\":709:848   */\n    tag_202:\n        /* \"#utility.yul\":755:760   */\n      0x00\n        /* \"#utility.yul\":793:799   */\n      dup2\n        /* \"#utility.yul\":780:800   */\n      calldataload\n        /* \"#utility.yul\":771:800   */\n      swap1\n      pop\n        /* \"#utility.yul\":809:842   */\n      tag_204\n        /* \"#utility.yul\":836:841   */\n      dup2\n        /* \"#utility.yul\":809:842   */\n      tag_205\n      jump\t// in\n    tag_204:\n        /* \"#utility.yul\":709:848   */\n      swap3\n      swap2\n      pop\n      pop\n      jump\t// out\n        /* \"#utility.yul\":868:1208   */\n    tag_206:\n        /* \"#utility.yul\":924:929   */\n      0x00\n        /* \"#utility.yul\":973:976   */\n      dup3\n        /* \"#utility.yul\":966:970   */\n      0x1f\n        /* \"#utility.yul\":958:964   */\n      dup4\n        /* \"#utility.yul\":954:971   */\n      add\n        /* \"#utility.yul\":950:977   */\n      slt\n        /* \"#utility.yul\":940:1062   */\n      tag_208\n      jumpi\n        /* \"#utility.yul\":981:1060   */\n      tag_209\n      tag_210\n      jump\t// in\n    tag_209:\n        /* \"#utility.yul\":940:1062   */\n    tag_208:\n        /* \"#utility.yul\":1098:1104   */\n      dup2\n        /* \"#utility.yul\":1085:1105   */\n      calldataload\n        /* \"#utility.yul\":1123:1202   */\n      tag_211\n        /* \"#utility.yul\":1198:1201   */\n      dup5\n        /* \"#utility.yul\":1190:1196   */\n      dup3\n        /* \"#utility.yul\":1183:1187   */\n      0x20\n        /* \"#utility.yul\":1175:1181   */\n      dup7\n        /* \"#utility.yul\":1171:1188   */\n      add\n        /* \"#utility.yul\":1123:1202   */\n      tag_183\n      jump\t// in\n    tag_211:\n        /* \"#utility.yul\":1114:1202   */\n      swap2\n      pop\n        /* \"#utility.yul\":930:1208   */\n      pop\n        /* \"#utility.yul\":868:1208   */\n      swap3\n      swap2\n      pop\n      pop\n      jump\t// out\n        /* \"#utility.yul\":1214:1353   */\n    tag_212:\n        /* \"#utility.yul\":1260:1265   */\n      0x00\n        /* \"#utility.yul\":1298:1304   */\n      dup2\n        /* \"#utility.yul\":1285:1305   */\n      calldataload\n        /* \"#utility.yul\":1276:1305   */\n      swap1\n      pop\n        /* \"#utility.yul\":1314:1347   */\n      tag_214\n        /* \"#utility.yul\":1341:1346   */\n      dup2\n        /* \"#utility.yul\":1314:1347   */\n      tag_215\n      jump\t// in\n    tag_214:\n        /* \"#utility.yul\":1214:1353   */\n      swap3\n      swap2\n      pop\n      pop\n      jump\t// out\n        /* \"#utility.yul\":1359:2416   */\n    tag_14:\n        /* \"#utility.yul\":1463:1469   */\n      0x00\n        /* \"#utility.yul\":1471:1477   */\n      dup1\n        /* \"#utility.yul\":1479:1485   */\n      0x00\n        /* \"#utility.yul\":1487:1493   */\n      dup1\n        /* \"#utility.yul\":1495:1501   */\n      0x00\n        /* \"#utility.yul\":1503:1509   */\n      dup1\n        /* \"#utility.yul\":1552:1555   */\n      0xc0\n        /* \"#utility.yul\":1540:1549   */\n      dup8\n        /* \"#utility.yul\":1531:1538   */\n      dup10\n        /* \"#utility.yul\":1527:1550   */\n      sub\n        /* \"#utility.yul\":1523:1556   */\n      slt\n        /* \"#utility.yul\":1520:1640   */\n      iszero\n      tag_217\n      jumpi\n        /* \"#utility.yul\":1559:1638   */\n      tag_218\n      tag_219\n      jump\t// in\n    tag_218:\n        /* \"#utility.yul\":1520:1640   */\n    tag_217:\n        /* \"#utility.yul\":1679:1680   */\n      0x00\n        /* \"#utility.yul\":1704:1757   */\n      tag_220\n        /* \"#utility.yul\":1749:1756   */\n      dup10\n        /* \"#utility.yul\":1740:1746   */\n      dup3\n        /* \"#utility.yul\":1729:1738   */\n      dup11\n        /* \"#utility.yul\":1725:1747   */\n      add\n        /* \"#utility.yul\":1704:1757   */\n      tag_194\n      jump\t// in\n    tag_220:\n        /* \"#utility.yul\":1694:1757   */\n      swap7\n      pop\n        /* \"#utility.yul\":1650:1767   */\n      pop\n        /* \"#utility.yul\":1806:1808   */\n      0x20\n        /* \"#utility.yul\":1832:1885   */\n      tag_221\n        /* \"#utility.yul\":1877:1884   */\n      dup10\n        /* \"#utility.yul\":1868:1874   */\n      dup3\n        /* \"#utility.yul\":1857:1866   */\n      dup11\n        /* \"#utility.yul\":1853:1875   */\n      add\n        /* \"#utility.yul\":1832:1885   */\n      tag_212\n      jump\t// in\n    tag_221:\n        /* \"#utility.yul\":1822:1885   */\n      swap6\n      pop\n        /* \"#utility.yul\":1777:1895   */\n      pop\n        /* \"#utility.yul\":1934:1936   */\n      0x40\n        /* \"#utility.yul\":1960:2013   */\n      tag_222\n        /* \"#utility.yul\":2005:2012   */\n      dup10\n        /* \"#utility.yul\":1996:2002   */\n      dup3\n        /* \"#utility.yul\":1985:1994   */\n      dup11\n        /* \"#utility.yul\":1981:2003   */\n      add\n        /* \"#utility.yul\":1960:2013   */\n      tag_202\n      jump\t// in\n    tag_222:\n        /* \"#utility.yul\":1950:2013   */\n      swap5\n      pop\n        /* \"#utility.yul\":1905:2023   */\n      pop\n        /* \"#utility.yul\":2062:2064   */\n      0x60\n        /* \"#utility.yul\":2088:2141   */\n      tag_223\n        /* \"#utility.yul\":2133:2140   */\n      dup10\n        /* \"#utility.yul\":2124:2130   */\n      dup3\n        /* \"#utility.yul\":2113:2122   */\n      dup11\n        /* \"#utility.yul\":2109:2131   */\n      add\n        /* \"#utility.yul\":2088:2141   */\n      tag_212\n      jump\t// in\n    tag_223:\n        /* \"#utility.yul\":2078:2141   */\n      swap4\n      pop\n        /* \"#utility.yul\":2033:2151   */\n      pop\n        /* \"#utility.yul\":2190:2193   */\n      0x80\n        /* \"#utility.yul\":2217:2270   */\n      tag_224\n        /* \"#utility.yul\":2262:2269   */\n      dup10\n        /* \"#utility.yul\":2253:2259   */\n      dup3\n        /* \"#utility.yul\":2242:2251   */\n      dup11\n        /* \"#utility.yul\":2238:2260   */\n      add\n        /* \"#utility.yul\":2217:2270   */\n      tag_212\n      jump\t// in\n    tag_224:\n        /* \"#utility.yul\":2207:2270   */\n      swap3\n      pop\n        /* \"#utility.yul\":2161:2280   */\n      pop\n        /* \"#utility.yul\":2319:2322   */\n      0xa0\n        /* \"#utility.yul\":2346:2399   */\n      tag_225\n        /* \"#utility.yul\":2391:2398   */\n      dup10\n        /* \"#utility.yul\":2382:2388   */\n      dup3\n        /* \"#utility.yul\":2371:2380   */\n      dup11\n        /* \"#utility.yul\":2367:2389   */\n      add\n        /* \"#utility.yul\":2346:2399   */\n      tag_212\n      jump\t// in\n    tag_225:\n        /* \"#utility.yul\":2336:2399   */\n      swap2\n      pop\n        /* \"#utility.yul\":2290:2409   */\n      pop\n        /* \"#utility.yul\":1359:2416   */\n      swap3\n      swap6\n      pop\n      swap3\n      swap6\n      pop\n      swap3\n      swap6\n      jump\t// out\n        /* \"#utility.yul\":2422:2751   */\n    tag_20:\n        /* \"#utility.yul\":2481:2487   */\n      0x00\n        /* \"#utility.yul\":2530:2532   */\n      0x20\n        /* \"#utility.yul\":2518:2527   */\n      dup3\n        /* \"#utility.yul\":2509:2516   */\n      dup5\n        /* \"#utility.yul\":2505:2528   */\n      sub\n        /* \"#utility.yul\":2501:2533   */\n      slt\n        /* \"#utility.yul\":2498:2617   */\n      iszero\n      tag_227\n      jumpi\n        /* \"#utility.yul\":2536:2615   */\n      tag_228\n      tag_219\n      jump\t// in\n    tag_228:\n        /* \"#utility.yul\":2498:2617   */\n    tag_227:\n        /* \"#utility.yul\":2656:2657   */\n      0x00\n        /* \"#utility.yul\":2681:2734   */\n      tag_229\n        /* \"#utility.yul\":2726:2733   */\n      dup5\n        /* \"#utility.yul\":2717:2723   */\n      dup3\n        /* \"#utility.yul\":2706:2715   */\n      dup6\n        /* \"#utility.yul\":2702:2724   */\n      add\n        /* \"#utility.yul\":2681:2734   */\n      tag_202\n      jump\t// in\n    tag_229:\n        /* \"#utility.yul\":2671:2734   */\n      swap2\n      pop\n        /* \"#utility.yul\":2627:2744   */\n      pop\n        /* \"#utility.yul\":2422:2751   */\n      swap3\n      swap2\n      pop\n      pop\n      jump\t// out\n        /* \"#utility.yul\":2757:4056   */\n    tag_8:\n        /* \"#utility.yul\":2870:2876   */\n      0x00\n        /* \"#utility.yul\":2878:2884   */\n      dup1\n        /* \"#utility.yul\":2886:2892   */\n      0x00\n        /* \"#utility.yul\":2894:2900   */\n      dup1\n        /* \"#utility.yul\":2943:2946   */\n      0x80\n        /* \"#utility.yul\":2931:2940   */\n      dup6\n        /* \"#utility.yul\":2922:2929   */\n      dup8\n        /* \"#utility.yul\":2918:2941   */\n      sub\n        /* \"#utility.yul\":2914:2947   */\n      slt\n        /* \"#utility.yul\":2911:3031   */\n      iszero\n      tag_231\n      jumpi\n        /* \"#utility.yul\":2950:3029   */\n      tag_232\n      tag_219\n      jump\t// in\n    tag_232:\n        /* \"#utility.yul\":2911:3031   */\n    tag_231:\n        /* \"#utility.yul\":3098:3099   */\n      0x00\n        /* \"#utility.yul\":3087:3096   */\n      dup6\n        /* \"#utility.yul\":3083:3100   */\n      add\n        /* \"#utility.yul\":3070:3101   */\n      calldataload\n        /* \"#utility.yul\":3128:3146   */\n      0xffffffffffffffff\n        /* \"#utility.yul\":3120:3126   */\n      dup2\n        /* \"#utility.yul\":3117:3147   */\n      gt\n        /* \"#utility.yul\":3114:3231   */\n      iszero\n      tag_233\n      jumpi\n        /* \"#utility.yul\":3150:3229   */\n      tag_234\n      tag_235\n      jump\t// in\n    tag_234:\n        /* \"#utility.yul\":3114:3231   */\n    tag_233:\n        /* \"#utility.yul\":3255:3318   */\n      tag_236\n        /* \"#utility.yul\":3310:3317   */\n      dup8\n        /* \"#utility.yul\":3301:3307   */\n      dup3\n        /* \"#utility.yul\":3290:3299   */\n      dup9\n        /* \"#utility.yul\":3286:3308   */\n      add\n        /* \"#utility.yul\":3255:3318   */\n      tag_206\n      jump\t// in\n    tag_236:\n        /* \"#utility.yul\":3245:3318   */\n      swap5\n      pop\n        /* \"#utility.yul\":3041:3328   */\n      pop\n        /* \"#utility.yul\":3395:3397   */\n      0x20\n        /* \"#utility.yul\":3384:3393   */\n      dup6\n        /* \"#utility.yul\":3380:3398   */\n      add\n        /* \"#utility.yul\":3367:3399   */\n      calldataload\n        /* \"#utility.yul\":3426:3444   */\n      0xffffffffffffffff\n        /* \"#utility.yul\":3418:3424   */\n      dup2\n        /* \"#utility.yul\":3415:3445   */\n      gt\n        /* \"#utility.yul\":3412:3529   */\n      iszero\n      tag_237\n      jumpi\n        /* \"#utility.yul\":3448:3527   */\n      tag_238\n      tag_235\n      jump\t// in\n    tag_238:\n        /* \"#utility.yul\":3412:3529   */\n    tag_237:\n        /* \"#utility.yul\":3553:3616   */\n      tag_239\n        /* \"#utility.yul\":3608:3615   */\n      dup8\n        /* \"#utility.yul\":3599:3605   */\n      dup3\n        /* \"#utility.yul\":3588:3597   */\n      dup9\n        /* \"#utility.yul\":3584:3606   */\n      add\n        /* \"#utility.yul\":3553:3616   */\n      tag_206\n      jump\t// in\n    tag_239:\n        /* \"#utility.yul\":3543:3616   */\n      swap4\n      pop\n        /* \"#utility.yul\":3338:3626   */\n      pop\n        /* \"#utility.yul\":3693:3695   */\n      0x40\n        /* \"#utility.yul\":3682:3691   */\n      dup6\n        /* \"#utility.yul\":3678:3696   */\n      add\n        /* \"#utility.yul\":3665:3697   */\n      calldataload\n        /* \"#utility.yul\":3724:3742   */\n      0xffffffffffffffff\n        /* \"#utility.yul\":3716:3722   */\n      dup2\n        /* \"#utility.yul\":3713:3743   */\n      gt\n        /* \"#utility.yul\":3710:3827   */\n      iszero\n      tag_240\n      jumpi\n        /* \"#utility.yul\":3746:3825   */\n      tag_241\n      tag_235\n      jump\t// in\n    tag_241:\n        /* \"#utility.yul\":3710:3827   */\n    tag_240:\n        /* \"#utility.yul\":3851:3914   */\n      tag_242\n        /* \"#utility.yul\":3906:3913   */\n      dup8\n        /* \"#utility.yul\":3897:3903   */\n      dup3\n        /* \"#utility.yul\":3886:3895   */\n      dup9\n        /* \"#utility.yul\":3882:3904   */\n      add\n        /* \"#utility.yul\":3851:3914   */\n      tag_206\n      jump\t// in\n    tag_242:\n        /* \"#utility.yul\":3841:3914   */\n      swap3\n      pop\n        /* \"#utility.yul\":3636:3924   */\n      pop\n        /* \"#utility.yul\":3963:3965   */\n      0x60\n        /* \"#utility.yul\":3989:4039   */\n      tag_243\n        /* \"#utility.yul\":4031:4038   */\n      dup8\n        /* \"#utility.yul\":4022:4028   */\n      dup3\n        /* \"#utility.yul\":4011:4020   */\n      dup9\n        /* \"#utility.yul\":4007:4029   */\n      add\n        /* \"#utility.yul\":3989:4039   */\n      tag_198\n      jump\t// in\n    tag_243:\n        /* \"#utility.yul\":3979:4039   */\n      swap2\n      pop\n        /* \"#utility.yul\":3934:4049   */\n      pop\n        /* \"#utility.yul\":2757:4056   */\n      swap3\n      swap6\n      swap2\n      swap5\n      pop\n      swap3\n      pop\n      jump\t// out\n        /* \"#utility.yul\":4062:4219   */\n    tag_244:\n        /* \"#utility.yul\":4167:4212   */\n      tag_246\n        /* \"#utility.yul\":4187:4211   */\n      tag_247\n        /* \"#utility.yul\":4205:4210   */\n      dup3\n        /* \"#utility.yul\":4187:4211   */\n      tag_248\n      jump\t// in\n    tag_247:\n        /* \"#utility.yul\":4167:4212   */\n      tag_249\n      jump\t// in\n    tag_246:\n        /* \"#utility.yul\":4162:4165   */\n      dup3\n        /* \"#utility.yul\":4155:4213   */\n      mstore\n        /* \"#utility.yul\":4062:4219   */\n      pop\n      pop\n      jump\t// out\n        /* \"#utility.yul\":4225:4334   */\n    tag_250:\n        /* \"#utility.yul\":4306:4327   */\n      tag_252\n        /* \"#utility.yul\":4321:4326   */\n      dup2\n        /* \"#utility.yul\":4306:4327   */\n      tag_253\n      jump\t// in\n    tag_252:\n        /* \"#utility.yul\":4301:4304   */\n      dup3\n        /* \"#utility.yul\":4294:4328   */\n      mstore\n        /* \"#utility.yul\":4225:4334   */\n      pop\n      pop\n      jump\t// out\n        /* \"#utility.yul\":4340:4458   */\n    tag_254:\n        /* \"#utility.yul\":4427:4451   */\n      tag_256\n        /* \"#utility.yul\":4445:4450   */\n      dup2\n        /* \"#utility.yul\":4427:4451   */\n      tag_257\n      jump\t// in\n    tag_256:\n        /* \"#utility.yul\":4422:4425   */\n      dup3\n        /* \"#utility.yul\":4415:4452   */\n      mstore\n        /* \"#utility.yul\":4340:4458   */\n      pop\n      pop\n      jump\t// out\n        /* \"#utility.yul\":4464:4828   */\n    tag_258:\n        /* \"#utility.yul\":4552:4555   */\n      0x00\n        /* \"#utility.yul\":4580:4619   */\n      tag_260\n        /* \"#utility.yul\":4613:4618   */\n      dup3\n        /* \"#utility.yul\":4580:4619   */\n      tag_261\n      jump\t// in\n    tag_260:\n        /* \"#utility.yul\":4635:4706   */\n      tag_262\n        /* \"#utility.yul\":4699:4705   */\n      dup2\n        /* \"#utility.yul\":4694:4697   */\n      dup6\n        /* \"#utility.yul\":4635:4706   */\n      tag_263\n      jump\t// in\n    tag_262:\n        /* \"#utility.yul\":4628:4706   */\n      swap4\n      pop\n        /* \"#utility.yul\":4715:4767   */\n      tag_264\n        /* \"#utility.yul\":4760:4766   */\n      dup2\n        /* \"#utility.yul\":4755:4758   */\n      dup6\n        /* \"#utility.yul\":4748:4752   */\n      0x20\n        /* \"#utility.yul\":4741:4746   */\n      dup7\n        /* \"#utility.yul\":4737:4753   */\n      add\n        /* \"#utility.yul\":4715:4767   */\n      tag_265\n      jump\t// in\n    tag_264:\n        /* \"#utility.yul\":4792:4821   */\n      tag_266\n        /* \"#utility.yul\":4814:4820   */\n      dup2\n        /* \"#utility.yul\":4792:4821   */\n      tag_267\n      jump\t// in\n    tag_266:\n        /* \"#utility.yul\":4787:4790   */\n      dup5\n        /* \"#utility.yul\":4783:4822   */\n      add\n        /* \"#utility.yul\":4776:4822   */\n      swap2\n      pop\n        /* \"#utility.yul\":4556:4828   */\n      pop\n        /* \"#utility.yul\":4464:4828   */\n      swap3\n      swap2\n      pop\n      pop\n      jump\t// out\n        /* \"#utility.yul\":4834:5211   */\n    tag_268:\n        /* \"#utility.yul\":4940:4943   */\n      0x00\n        /* \"#utility.yul\":4968:5007   */\n      tag_270\n        /* \"#utility.yul\":5001:5006   */\n      dup3\n        /* \"#utility.yul\":4968:5007   */\n      tag_261\n      jump\t// in\n    tag_270:\n        /* \"#utility.yul\":5023:5112   */\n      tag_271\n        /* \"#utility.yul\":5105:5111   */\n      dup2\n        /* \"#utility.yul\":5100:5103   */\n      dup6\n        /* \"#utility.yul\":5023:5112   */\n      tag_272\n      jump\t// in\n    tag_271:\n        /* \"#utility.yul\":5016:5112   */\n      swap4\n      pop\n        /* \"#utility.yul\":5121:5173   */\n      tag_273\n        /* \"#utility.yul\":5166:5172   */\n      dup2\n        /* \"#utility.yul\":5161:5164   */\n      dup6\n        /* \"#utility.yul\":5154:5158   */\n      0x20\n        /* \"#utility.yul\":5147:5152   */\n      dup7\n        /* \"#utility.yul\":5143:5159   */\n      add\n        /* \"#utility.yul\":5121:5173   */\n      tag_265\n      jump\t// in\n    tag_273:\n        /* \"#utility.yul\":5198:5204   */\n      dup1\n        /* \"#utility.yul\":5193:5196   */\n      dup5\n        /* \"#utility.yul\":5189:5205   */\n      add\n        /* \"#utility.yul\":5182:5205   */\n      swap2\n      pop\n        /* \"#utility.yul\":4944:5211   */\n      pop\n        /* \"#utility.yul\":4834:5211   */\n      swap3\n      swap2\n      pop\n      pop\n      jump\t// out\n        /* \"#utility.yul\":5217:5582   */\n    tag_274:\n        /* \"#utility.yul\":5359:5362   */\n      0x00\n        /* \"#utility.yul\":5380:5446   */\n      tag_276\n        /* \"#utility.yul\":5444:5445   */\n      0x09\n        /* \"#utility.yul\":5439:5442   */\n      dup4\n        /* \"#utility.yul\":5380:5446   */\n      tag_263\n      jump\t// in\n    tag_276:\n        /* \"#utility.yul\":5373:5446   */\n      swap2\n      pop\n        /* \"#utility.yul\":5455:5548   */\n      tag_277\n        /* \"#utility.yul\":5544:5547   */\n      dup3\n        /* \"#utility.yul\":5455:5548   */\n      tag_278\n      jump\t// in\n    tag_277:\n        /* \"#utility.yul\":5573:5575   */\n      0x20\n        /* \"#utility.yul\":5568:5571   */\n      dup3\n        /* \"#utility.yul\":5564:5576   */\n      add\n        /* \"#utility.yul\":5557:5576   */\n      swap1\n      pop\n        /* \"#utility.yul\":5217:5582   */\n      swap2\n      swap1\n      pop\n      jump\t// out\n        /* \"#utility.yul\":5588:5954   */\n    tag_279:\n        /* \"#utility.yul\":5730:5733   */\n      0x00\n        /* \"#utility.yul\":5751:5818   */\n      tag_281\n        /* \"#utility.yul\":5815:5817   */\n      0x0e\n        /* \"#utility.yul\":5810:5813   */\n      dup4\n        /* \"#utility.yul\":5751:5818   */\n      tag_263\n      jump\t// in\n    tag_281:\n        /* \"#utility.yul\":5744:5818   */\n      swap2\n      pop\n        /* \"#utility.yul\":5827:5920   */\n      tag_282\n        /* \"#utility.yul\":5916:5919   */\n      dup3\n        /* \"#utility.yul\":5827:5920   */\n      tag_283\n      jump\t// in\n    tag_282:\n        /* \"#utility.yul\":5945:5947   */\n      0x20\n        /* \"#utility.yul\":5940:5943   */\n      dup3\n        /* \"#utility.yul\":5936:5948   */\n      add\n        /* \"#utility.yul\":5929:5948   */\n      swap1\n      pop\n        /* \"#utility.yul\":5588:5954   */\n      swap2\n      swap1\n      pop\n      jump\t// out\n        /* \"#utility.yul\":5960:6326   */\n    tag_284:\n        /* \"#utility.yul\":6102:6105   */\n      0x00\n        /* \"#utility.yul\":6123:6190   */\n      tag_286\n        /* \"#utility.yul\":6187:6189   */\n      0x0a\n        /* \"#utility.yul\":6182:6185   */\n      dup4\n        /* \"#utility.yul\":6123:6190   */\n      tag_263\n      jump\t// in\n    tag_286:\n        /* \"#utility.yul\":6116:6190   */\n      swap2\n      pop\n        /* \"#utility.yul\":6199:6292   */\n      tag_287\n        /* \"#utility.yul\":6288:6291   */\n      dup3\n        /* \"#utility.yul\":6199:6292   */\n      tag_288\n      jump\t// in\n    tag_287:\n        /* \"#utility.yul\":6317:6319   */\n      0x20\n        /* \"#utility.yul\":6312:6315   */\n      dup3\n        /* \"#utility.yul\":6308:6320   */\n      add\n        /* \"#utility.yul\":6301:6320   */\n      swap1\n      pop\n        /* \"#utility.yul\":5960:6326   */\n      swap2\n      swap1\n      pop\n      jump\t// out\n        /* \"#utility.yul\":6332:6450   */\n    tag_289:\n        /* \"#utility.yul\":6419:6443   */\n      tag_291\n        /* \"#utility.yul\":6437:6442   */\n      dup2\n        /* \"#utility.yul\":6419:6443   */\n      tag_292\n      jump\t// in\n    tag_291:\n        /* \"#utility.yul\":6414:6417   */\n      dup3\n        /* \"#utility.yul\":6407:6444   */\n      mstore\n        /* \"#utility.yul\":6332:6450   */\n      pop\n      pop\n      jump\t// out\n        /* \"#utility.yul\":6456:6613   */\n    tag_293:\n        /* \"#utility.yul\":6561:6606   */\n      tag_295\n        /* \"#utility.yul\":6581:6605   */\n      tag_296\n        /* \"#utility.yul\":6599:6604   */\n      dup3\n        /* \"#utility.yul\":6581:6605   */\n      tag_292\n      jump\t// in\n    tag_296:\n        /* \"#utility.yul\":6561:6606   */\n      tag_297\n      jump\t// in\n    tag_295:\n        /* \"#utility.yul\":6556:6559   */\n      dup3\n        /* \"#utility.yul\":6549:6607   */\n      mstore\n        /* \"#utility.yul\":6456:6613   */\n      pop\n      pop\n      jump\t// out\n        /* \"#utility.yul\":6619:6875   */\n    tag_140:\n        /* \"#utility.yul\":6731:6734   */\n      0x00\n        /* \"#utility.yul\":6746:6821   */\n      tag_299\n        /* \"#utility.yul\":6817:6820   */\n      dup3\n        /* \"#utility.yul\":6808:6814   */\n      dup5\n        /* \"#utility.yul\":6746:6821   */\n      tag_244\n      jump\t// in\n    tag_299:\n        /* \"#utility.yul\":6846:6848   */\n      0x14\n        /* \"#utility.yul\":6841:6844   */\n      dup3\n        /* \"#utility.yul\":6837:6849   */\n      add\n        /* \"#utility.yul\":6830:6849   */\n      swap2\n      pop\n        /* \"#utility.yul\":6866:6869   */\n      dup2\n        /* \"#utility.yul\":6859:6869   */\n      swap1\n      pop\n        /* \"#utility.yul\":6619:6875   */\n      swap3\n      swap2\n      pop\n      pop\n      jump\t// out\n        /* \"#utility.yul\":6881:7156   */\n    tag_29:\n        /* \"#utility.yul\":7013:7016   */\n      0x00\n        /* \"#utility.yul\":7035:7130   */\n      tag_301\n        /* \"#utility.yul\":7126:7129   */\n      dup3\n        /* \"#utility.yul\":7117:7123   */\n      dup5\n        /* \"#utility.yul\":7035:7130   */\n      tag_268\n      jump\t// in\n    tag_301:\n        /* \"#utility.yul\":7028:7130   */\n      swap2\n      pop\n        /* \"#utility.yul\":7147:7150   */\n      dup2\n        /* \"#utility.yul\":7140:7150   */\n      swap1\n      pop\n        /* \"#utility.yul\":6881:7156   */\n      swap3\n      swap2\n      pop\n      pop\n      jump\t// out\n        /* \"#utility.yul\":7162:7418   */\n    tag_135:\n        /* \"#utility.yul\":7274:7277   */\n      0x00\n        /* \"#utility.yul\":7289:7364   */\n      tag_303\n        /* \"#utility.yul\":7360:7363   */\n      dup3\n        /* \"#utility.yul\":7351:7357   */\n      dup5\n        /* \"#utility.yul\":7289:7364   */\n      tag_293\n      jump\t// in\n    tag_303:\n        /* \"#utility.yul\":7389:7391   */\n      0x20\n        /* \"#utility.yul\":7384:7387   */\n      dup3\n        /* \"#utility.yul\":7380:7392   */\n      add\n        /* \"#utility.yul\":7373:7392   */\n      swap2\n      pop\n        /* \"#utility.yul\":7409:7412   */\n      dup2\n        /* \"#utility.yul\":7402:7412   */\n      swap1\n      pop\n        /* \"#utility.yul\":7162:7418   */\n      swap3\n      swap2\n      pop\n      pop\n      jump\t// out\n        /* \"#utility.yul\":7424:7634   */\n    tag_17:\n        /* \"#utility.yul\":7511:7515   */\n      0x00\n        /* \"#utility.yul\":7549:7551   */\n      0x20\n        /* \"#utility.yul\":7538:7547   */\n      dup3\n        /* \"#utility.yul\":7534:7552   */\n      add\n        /* \"#utility.yul\":7526:7552   */\n      swap1\n      pop\n        /* \"#utility.yul\":7562:7627   */\n      tag_305\n        /* \"#utility.yul\":7624:7625   */\n      0x00\n        /* \"#utility.yul\":7613:7622   */\n      dup4\n        /* \"#utility.yul\":7609:7626   */\n      add\n        /* \"#utility.yul\":7600:7606   */\n      dup5\n        /* \"#utility.yul\":7562:7627   */\n      tag_250\n      jump\t// in\n    tag_305:\n        /* \"#utility.yul\":7424:7634   */\n      swap3\n      swap2\n      pop\n      pop\n      jump\t// out\n        /* \"#utility.yul\":7640:7862   */\n    tag_11:\n        /* \"#utility.yul\":7733:7737   */\n      0x00\n        /* \"#utility.yul\":7771:7773   */\n      0x20\n        /* \"#utility.yul\":7760:7769   */\n      dup3\n        /* \"#utility.yul\":7756:7774   */\n      add\n        /* \"#utility.yul\":7748:7774   */\n      swap1\n      pop\n        /* \"#utility.yul\":7784:7855   */\n      tag_307\n        /* \"#utility.yul\":7852:7853   */\n      0x00\n        /* \"#utility.yul\":7841:7850   */\n      dup4\n        /* \"#utility.yul\":7837:7854   */\n      add\n        /* \"#utility.yul\":7828:7834   */\n      dup5\n        /* \"#utility.yul\":7784:7855   */\n      tag_254\n      jump\t// in\n    tag_307:\n        /* \"#utility.yul\":7640:7862   */\n      swap3\n      swap2\n      pop\n      pop\n      jump\t// out\n        /* \"#utility.yul\":7868:9027   */\n    tag_23:\n        /* \"#utility.yul\":8189:8193   */\n      0x00\n        /* \"#utility.yul\":8227:8230   */\n      0xe0\n        /* \"#utility.yul\":8216:8225   */\n      dup3\n        /* \"#utility.yul\":8212:8231   */\n      add\n        /* \"#utility.yul\":8204:8231   */\n      swap1\n      pop\n        /* \"#utility.yul\":8277:8286   */\n      dup2\n        /* \"#utility.yul\":8271:8275   */\n      dup2\n        /* \"#utility.yul\":8267:8287   */\n      sub\n        /* \"#utility.yul\":8263:8264   */\n      0x00\n        /* \"#utility.yul\":8252:8261   */\n      dup4\n        /* \"#utility.yul\":8248:8265   */\n      add\n        /* \"#utility.yul\":8241:8288   */\n      mstore\n        /* \"#utility.yul\":8305:8383   */\n      tag_309\n        /* \"#utility.yul\":8378:8382   */\n      dup2\n        /* \"#utility.yul\":8369:8375   */\n      dup11\n        /* \"#utility.yul\":8305:8383   */\n      tag_258\n      jump\t// in\n    tag_309:\n        /* \"#utility.yul\":8297:8383   */\n      swap1\n      pop\n        /* \"#utility.yul\":8430:8439   */\n      dup2\n        /* \"#utility.yul\":8424:8428   */\n      dup2\n        /* \"#utility.yul\":8420:8440   */\n      sub\n        /* \"#utility.yul\":8415:8417   */\n      0x20\n        /* \"#utility.yul\":8404:8413   */\n      dup4\n        /* \"#utility.yul\":8400:8418   */\n      add\n        /* \"#utility.yul\":8393:8441   */\n      mstore\n        /* \"#utility.yul\":8458:8536   */\n      tag_310\n        /* \"#utility.yul\":8531:8535   */\n      dup2\n        /* \"#utility.yul\":8522:8528   */\n      dup10\n        /* \"#utility.yul\":8458:8536   */\n      tag_258\n      jump\t// in\n    tag_310:\n        /* \"#utility.yul\":8450:8536   */\n      swap1\n      pop\n        /* \"#utility.yul\":8583:8592   */\n      dup2\n        /* \"#utility.yul\":8577:8581   */\n      dup2\n        /* \"#utility.yul\":8573:8593   */\n      sub\n        /* \"#utility.yul\":8568:8570   */\n      0x40\n        /* \"#utility.yul\":8557:8566   */\n      dup4\n        /* \"#utility.yul\":8553:8571   */\n      add\n        /* \"#utility.yul\":8546:8594   */\n      mstore\n        /* \"#utility.yul\":8611:8689   */\n      tag_311\n        /* \"#utility.yul\":8684:8688   */\n      dup2\n        /* \"#utility.yul\":8675:8681   */\n      dup9\n        /* \"#utility.yul\":8611:8689   */\n      tag_258\n      jump\t// in\n    tag_311:\n        /* \"#utility.yul\":8603:8689   */\n      swap1\n      pop\n        /* \"#utility.yul\":8699:8771   */\n      tag_312\n        /* \"#utility.yul\":8767:8769   */\n      0x60\n        /* \"#utility.yul\":8756:8765   */\n      dup4\n        /* \"#utility.yul\":8752:8770   */\n      add\n        /* \"#utility.yul\":8743:8749   */\n      dup8\n        /* \"#utility.yul\":8699:8771   */\n      tag_289\n      jump\t// in\n    tag_312:\n        /* \"#utility.yul\":8781:8854   */\n      tag_313\n        /* \"#utility.yul\":8849:8852   */\n      0x80\n        /* \"#utility.yul\":8838:8847   */\n      dup4\n        /* \"#utility.yul\":8834:8853   */\n      add\n        /* \"#utility.yul\":8825:8831   */\n      dup7\n        /* \"#utility.yul\":8781:8854   */\n      tag_289\n      jump\t// in\n    tag_313:\n        /* \"#utility.yul\":8864:8937   */\n      tag_314\n        /* \"#utility.yul\":8932:8935   */\n      0xa0\n        /* \"#utility.yul\":8921:8930   */\n      dup4\n        /* \"#utility.yul\":8917:8936   */\n      add\n        /* \"#utility.yul\":8908:8914   */\n      dup6\n        /* \"#utility.yul\":8864:8937   */\n      tag_289\n      jump\t// in\n    tag_314:\n        /* \"#utility.yul\":8947:9020   */\n      tag_315\n        /* \"#utility.yul\":9015:9018   */\n      0xc0\n        /* \"#utility.yul\":9004:9013   */\n      dup4\n        /* \"#utility.yul\":9000:9019   */\n      add\n        /* \"#utility.yul\":8991:8997   */\n      dup5\n        /* \"#utility.yul\":8947:9020   */\n      tag_289\n      jump\t// in\n    tag_315:\n        /* \"#utility.yul\":7868:9027   */\n      swap9\n      swap8\n      pop\n      pop\n      pop\n      pop\n      pop\n      pop\n      pop\n      pop\n      jump\t// out\n        /* \"#utility.yul\":9033:9452   */\n    tag_88:\n        /* \"#utility.yul\":9199:9203   */\n      0x00\n        /* \"#utility.yul\":9237:9239   */\n      0x20\n        /* \"#utility.yul\":9226:9235   */\n      dup3\n        /* \"#utility.yul\":9222:9240   */\n      add\n        /* \"#utility.yul\":9214:9240   */\n      swap1\n      pop\n        /* \"#utility.yul\":9286:9295   */\n      dup2\n        /* \"#utility.yul\":9280:9284   */\n      dup2\n        /* \"#utility.yul\":9276:9296   */\n      sub\n        /* \"#utility.yul\":9272:9273   */\n      0x00\n        /* \"#utility.yul\":9261:9270   */\n      dup4\n        /* \"#utility.yul\":9257:9274   */\n      add\n        /* \"#utility.yul\":9250:9297   */\n      mstore\n        /* \"#utility.yul\":9314:9445   */\n      tag_317\n        /* \"#utility.yul\":9440:9444   */\n      dup2\n        /* \"#utility.yul\":9314:9445   */\n      tag_274\n      jump\t// in\n    tag_317:\n        /* \"#utility.yul\":9306:9445   */\n      swap1\n      pop\n        /* \"#utility.yul\":9033:9452   */\n      swap2\n      swap1\n      pop\n      jump\t// out\n        /* \"#utility.yul\":9458:9877   */\n    tag_44:\n        /* \"#utility.yul\":9624:9628   */\n      0x00\n        /* \"#utility.yul\":9662:9664   */\n      0x20\n        /* \"#utility.yul\":9651:9660   */\n      dup3\n        /* \"#utility.yul\":9647:9665   */\n      add\n        /* \"#utility.yul\":9639:9665   */\n      swap1\n      pop\n        /* \"#utility.yul\":9711:9720   */\n      dup2\n        /* \"#utility.yul\":9705:9709   */\n      dup2\n        /* \"#utility.yul\":9701:9721   */\n      sub\n        /* \"#utility.yul\":9697:9698   */\n      0x00\n        /* \"#utility.yul\":9686:9695   */\n      dup4\n        /* \"#utility.yul\":9682:9699   */\n      add\n        /* \"#utility.yul\":9675:9722   */\n      mstore\n        /* \"#utility.yul\":9739:9870   */\n      tag_319\n        /* \"#utility.yul\":9865:9869   */\n      dup2\n        /* \"#utility.yul\":9739:9870   */\n      tag_279\n      jump\t// in\n    tag_319:\n        /* \"#utility.yul\":9731:9870   */\n      swap1\n      pop\n        /* \"#utility.yul\":9458:9877   */\n      swap2\n      swap1\n      pop\n      jump\t// out\n        /* \"#utility.yul\":9883:10302   */\n    tag_34:\n        /* \"#utility.yul\":10049:10053   */\n      0x00\n        /* \"#utility.yul\":10087:10089   */\n      0x20\n        /* \"#utility.yul\":10076:10085   */\n      dup3\n        /* \"#utility.yul\":10072:10090   */\n      add\n        /* \"#utility.yul\":10064:10090   */\n      swap1\n      pop\n        /* \"#utility.yul\":10136:10145   */\n      dup2\n        /* \"#utility.yul\":10130:10134   */\n      dup2\n        /* \"#utility.yul\":10126:10146   */\n      sub\n        /* \"#utility.yul\":10122:10123   */\n      0x00\n        /* \"#utility.yul\":10111:10120   */\n      dup4\n        /* \"#utility.yul\":10107:10124   */\n      add\n        /* \"#utility.yul\":10100:10147   */\n      mstore\n        /* \"#utility.yul\":10164:10295   */\n      tag_321\n        /* \"#utility.yul\":10290:10294   */\n      dup2\n        /* \"#utility.yul\":10164:10295   */\n      tag_284\n      jump\t// in\n    tag_321:\n        /* \"#utility.yul\":10156:10295   */\n      swap1\n      pop\n        /* \"#utility.yul\":9883:10302   */\n      swap2\n      swap1\n      pop\n      jump\t// out\n        /* \"#utility.yul\":10308:10437   */\n    tag_188:\n        /* \"#utility.yul\":10342:10348   */\n      0x00\n        /* \"#utility.yul\":10369:10389   */\n      tag_323\n      tag_324\n      jump\t// in\n    tag_323:\n        /* \"#utility.yul\":10359:10389   */\n      swap1\n      pop\n        /* \"#utility.yul\":10398:10431   */\n      tag_325\n        /* \"#utility.yul\":10426:10430   */\n      dup3\n        /* \"#utility.yul\":10418:10424   */\n      dup3\n        /* \"#utility.yul\":10398:10431   */\n      tag_326\n      jump\t// in\n    tag_325:\n        /* \"#utility.yul\":10308:10437   */\n      swap2\n      swap1\n      pop\n      jump\t// out\n        /* \"#utility.yul\":10443:10518   */\n    tag_324:\n        /* \"#utility.yul\":10476:10482   */\n      0x00\n        /* \"#utility.yul\":10509:10511   */\n      0x40\n        /* \"#utility.yul\":10503:10512   */\n      mload\n        /* \"#utility.yul\":10493:10512   */\n      swap1\n      pop\n        /* \"#utility.yul\":10443:10518   */\n      swap1\n      jump\t// out\n        /* \"#utility.yul\":10524:10832   */\n    tag_187:\n        /* \"#utility.yul\":10586:10590   */\n      0x00\n        /* \"#utility.yul\":10676:10694   */\n      0xffffffffffffffff\n        /* \"#utility.yul\":10668:10674   */\n      dup3\n        /* \"#utility.yul\":10665:10695   */\n      gt\n        /* \"#utility.yul\":10662:10718   */\n      iszero\n      tag_329\n      jumpi\n        /* \"#utility.yul\":10698:10716   */\n      tag_330\n      tag_109\n      jump\t// in\n    tag_330:\n        /* \"#utility.yul\":10662:10718   */\n    tag_329:\n        /* \"#utility.yul\":10736:10765   */\n      tag_331\n        /* \"#utility.yul\":10758:10764   */\n      dup3\n        /* \"#utility.yul\":10736:10765   */\n      tag_267\n      jump\t// in\n    tag_331:\n        /* \"#utility.yul\":10728:10765   */\n      swap1\n      pop\n        /* \"#utility.yul\":10820:10824   */\n      0x20\n        /* \"#utility.yul\":10814:10818   */\n      dup2\n        /* \"#utility.yul\":10810:10825   */\n      add\n        /* \"#utility.yul\":10802:10825   */\n      swap1\n      pop\n        /* \"#utility.yul\":10524:10832   */\n      swap2\n      swap1\n      pop\n      jump\t// out\n        /* \"#utility.yul\":10838:10937   */\n    tag_261:\n        /* \"#utility.yul\":10890:10896   */\n      0x00\n        /* \"#utility.yul\":10924:10929   */\n      dup2\n        /* \"#utility.yul\":10918:10930   */\n      mload\n        /* \"#utility.yul\":10908:10930   */\n      swap1\n      pop\n        /* \"#utility.yul\":10838:10937   */\n      swap2\n      swap1\n      pop\n      jump\t// out\n        /* \"#utility.yul\":10943:11112   */\n    tag_263:\n        /* \"#utility.yul\":11027:11038   */\n      0x00\n        /* \"#utility.yul\":11061:11067   */\n      dup3\n        /* \"#utility.yul\":11056:11059   */\n      dup3\n        /* \"#utility.yul\":11049:11068   */\n      mstore\n        /* \"#utility.yul\":11101:11105   */\n      0x20\n        /* \"#utility.yul\":11096:11099   */\n      dup3\n        /* \"#utility.yul\":11092:11106   */\n      add\n        /* \"#utility.yul\":11077:11106   */\n      swap1\n      pop\n        /* \"#utility.yul\":10943:11112   */\n      swap3\n      swap2\n      pop\n      pop\n      jump\t// out\n        /* \"#utility.yul\":11118:11266   */\n    tag_272:\n        /* \"#utility.yul\":11220:11231   */\n      0x00\n        /* \"#utility.yul\":11257:11260   */\n      dup2\n        /* \"#utility.yul\":11242:11260   */\n      swap1\n      pop\n        /* \"#utility.yul\":11118:11266   */\n      swap3\n      swap2\n      pop\n      pop\n      jump\t// out\n        /* \"#utility.yul\":11272:11577   */\n    tag_73:\n        /* \"#utility.yul\":11312:11315   */\n      0x00\n        /* \"#utility.yul\":11331:11351   */\n      tag_336\n        /* \"#utility.yul\":11349:11350   */\n      dup3\n        /* \"#utility.yul\":11331:11351   */\n      tag_292\n      jump\t// in\n    tag_336:\n        /* \"#utility.yul\":11326:11351   */\n      swap2\n      pop\n        /* \"#utility.yul\":11365:11385   */\n      tag_337\n        /* \"#utility.yul\":11383:11384   */\n      dup4\n        /* \"#utility.yul\":11365:11385   */\n      tag_292\n      jump\t// in\n    tag_337:\n        /* \"#utility.yul\":11360:11385   */\n      swap3\n      pop\n        /* \"#utility.yul\":11519:11520   */\n      dup3\n        /* \"#utility.yul\":11451:11517   */\n      0xffffffffffffffffffffffffffffffffffffffffffffffffffffffffffffffff\n        /* \"#utility.yul\":11447:11521   */\n      sub\n        /* \"#utility.yul\":11444:11445   */\n      dup3\n        /* \"#utility.yul\":11441:11522   */\n      gt\n        /* \"#utility.yul\":11438:11545   */\n      iszero\n      tag_338\n      jumpi\n        /* \"#utility.yul\":11525:11543   */\n      tag_339\n      tag_340\n      jump\t// in\n    tag_339:\n        /* \"#utility.yul\":11438:11545   */\n    tag_338:\n        /* \"#utility.yul\":11569:11570   */\n      dup3\n        /* \"#utility.yul\":11566:11567   */\n      dup3\n        /* \"#utility.yul\":11562:11571   */\n      add\n        /* \"#utility.yul\":11555:11571   */\n      swap1\n      pop\n        /* \"#utility.yul\":11272:11577   */\n      swap3\n      swap2\n      pop\n      pop\n      jump\t// out\n        /* \"#utility.yul\":11583:11931   */\n    tag_143:\n        /* \"#utility.yul\":11623:11630   */\n      0x00\n        /* \"#utility.yul\":11646:11666   */\n      tag_342\n        /* \"#utility.yul\":11664:11665   */\n      dup3\n        /* \"#utility.yul\":11646:11666   */\n      tag_292\n      jump\t// in\n    tag_342:\n        /* \"#utility.yul\":11641:11666   */\n      swap2\n      pop\n        /* \"#utility.yul\":11680:11700   */\n      tag_343\n        /* \"#utility.yul\":11698:11699   */\n      dup4\n        /* \"#utility.yul\":11680:11700   */\n      tag_292\n      jump\t// in\n    tag_343:\n        /* \"#utility.yul\":11675:11700   */\n      swap3\n      pop\n        /* \"#utility.yul\":11868:11869   */\n      dup2\n        /* \"#utility.yul\":11800:11866   */\n      0xffffffffffffffffffffffffffffffffffffffffffffffffffffffffffffffff\n        /* \"#utility.yul\":11796:11870   */\n      div\n        /* \"#utility.yul\":11793:11794   */\n      dup4\n        /* \"#utility.yul\":11790:11871   */\n      gt\n        /* \"#utility.yul\":11785:11786   */\n      dup3\n        /* \"#utility.yul\":11778:11787   */\n      iszero\n        /* \"#utility.yul\":11771:11788   */\n      iszero\n        /* \"#utility.yul\":11767:11872   */\n      and\n        /* \"#utility.yul\":11764:11895   */\n      iszero\n      tag_344\n      jumpi\n        /* \"#utility.yul\":11875:11893   */\n      tag_345\n      tag_340\n      jump\t// in\n    tag_345:\n        /* \"#utility.yul\":11764:11895   */\n    tag_344:\n        /* \"#utility.yul\":11923:11924   */\n      dup3\n        /* \"#utility.yul\":11920:11921   */\n      dup3\n        /* \"#utility.yul\":11916:11925   */\n      mul\n        /* \"#utility.yul\":11905:11925   */\n      swap1\n      pop\n        /* \"#utility.yul\":11583:11931   */\n      swap3\n      swap2\n      pop\n      pop\n      jump\t// out\n        /* \"#utility.yul\":11937:12033   */\n    tag_248:\n        /* \"#utility.yul\":11974:11981   */\n      0x00\n        /* \"#utility.yul\":12003:12027   */\n      tag_347\n        /* \"#utility.yul\":12021:12026   */\n      dup3\n        /* \"#utility.yul\":12003:12027   */\n      tag_348\n      jump\t// in\n    tag_347:\n        /* \"#utility.yul\":11992:12027   */\n      swap1\n      pop\n        /* \"#utility.yul\":11937:12033   */\n      swap2\n      swap1\n      pop\n      jump\t// out\n        /* \"#utility.yul\":12039:12129   */\n    tag_253:\n        /* \"#utility.yul\":12073:12080   */\n      0x00\n        /* \"#utility.yul\":12116:12121   */\n      dup2\n        /* \"#utility.yul\":12109:12122   */\n      iszero\n        /* \"#utility.yul\":12102:12123   */\n      iszero\n        /* \"#utility.yul\":12091:12123   */\n      swap1\n      pop\n        /* \"#utility.yul\":12039:12129   */\n      swap2\n      swap1\n      pop\n      jump\t// out\n        /* \"#utility.yul\":12135:12212   */\n    tag_257:\n        /* \"#utility.yul\":12172:12179   */\n      0x00\n        /* \"#utility.yul\":12201:12206   */\n      dup2\n        /* \"#utility.yul\":12190:12206   */\n      swap1\n      pop\n        /* \"#utility.yul\":12135:12212   */\n      swap2\n      swap1\n      pop\n      jump\t// out\n        /* \"#utility.yul\":12218:12344   */\n    tag_348:\n        /* \"#utility.yul\":12255:12262   */\n      0x00\n        /* \"#utility.yul\":12295:12337   */\n      0xffffffffffffffffffffffffffffffffffffffff\n        /* \"#utility.yul\":12288:12293   */\n      dup3\n        /* \"#utility.yul\":12284:12338   */\n      and\n        /* \"#utility.yul\":12273:12338   */\n      swap1\n      pop\n        /* \"#utility.yul\":12218:12344   */\n      swap2\n      swap1\n      pop\n      jump\t// out\n        /* \"#utility.yul\":12350:12427   */\n    tag_292:\n        /* \"#utility.yul\":12387:12394   */\n      0x00\n        /* \"#utility.yul\":12416:12421   */\n      dup2\n        /* \"#utility.yul\":12405:12421   */\n      swap1\n      pop\n        /* \"#utility.yul\":12350:12427   */\n      swap2\n      swap1\n      pop\n      jump\t// out\n        /* \"#utility.yul\":12433:12587   */\n    tag_193:\n        /* \"#utility.yul\":12517:12523   */\n      dup3\n        /* \"#utility.yul\":12512:12515   */\n      dup2\n        /* \"#utility.yul\":12507:12510   */\n      dup4\n        /* \"#utility.yul\":12494:12524   */\n      calldatacopy\n        /* \"#utility.yul\":12579:12580   */\n      0x00\n        /* \"#utility.yul\":12570:12576   */\n      dup4\n        /* \"#utility.yul\":12565:12568   */\n      dup4\n        /* \"#utility.yul\":12561:12577   */\n      add\n        /* \"#utility.yul\":12554:12581   */\n      mstore\n        /* \"#utility.yul\":12433:12587   */\n      pop\n      pop\n      pop\n      jump\t// out\n        /* \"#utility.yul\":12593:12900   */\n    tag_265:\n        /* \"#utility.yul\":12661:12662   */\n      0x00\n        /* \"#utility.yul\":12671:12784   */\n    tag_355:\n        /* \"#utility.yul\":12685:12691   */\n      dup4\n        /* \"#utility.yul\":12682:12683   */\n      dup2\n        /* \"#utility.yul\":12679:12692   */\n      lt\n        /* \"#utility.yul\":12671:12784   */\n      iszero\n      tag_357\n      jumpi\n        /* \"#utility.yul\":12770:12771   */\n      dup1\n        /* \"#utility.yul\":12765:12768   */\n      dup3\n        /* \"#utility.yul\":12761:12772   */\n      add\n        /* \"#utility.yul\":12755:12773   */\n      mload\n        /* \"#utility.yul\":12751:12752   */\n      dup2\n        /* \"#utility.yul\":12746:12749   */\n      dup5\n        /* \"#utility.yul\":12742:12753   */\n      add\n        /* \"#utility.yul\":12735:12774   */\n      mstore\n        /* \"#utility.yul\":12707:12709   */\n      0x20\n        /* \"#utility.yul\":12704:12705   */\n      dup2\n        /* \"#utility.yul\":12700:12710   */\n      add\n        /* \"#utility.yul\":12695:12710   */\n      swap1\n      pop\n        /* \"#utility.yul\":12671:12784   */\n      jump(tag_355)\n    tag_357:\n        /* \"#utility.yul\":12802:12808   */\n      dup4\n        /* \"#utility.yul\":12799:12800   */\n      dup2\n        /* \"#utility.yul\":12796:12809   */\n      gt\n        /* \"#utility.yul\":12793:12894   */\n      iszero\n      tag_358\n      jumpi\n        /* \"#utility.yul\":12882:12883   */\n      0x00\n        /* \"#utility.yul\":12873:12879   */\n      dup5\n        /* \"#utility.yul\":12868:12871   */\n      dup5\n        /* \"#utility.yul\":12864:12880   */\n      add\n        /* \"#utility.yul\":12857:12884   */\n      mstore\n        /* \"#utility.yul\":12793:12894   */\n    tag_358:\n        /* \"#utility.yul\":12642:12900   */\n      pop\n        /* \"#utility.yul\":12593:12900   */\n      pop\n      pop\n      pop\n      jump\t// out\n        /* \"#utility.yul\":12906:13226   */\n    tag_47:\n        /* \"#utility.yul\":12950:12956   */\n      0x00\n        /* \"#utility.yul\":12987:12988   */\n      0x02\n        /* \"#utility.yul\":12981:12985   */\n      dup3\n        /* \"#utility.yul\":12977:12989   */\n      div\n        /* \"#utility.yul\":12967:12989   */\n      swap1\n      pop\n        /* \"#utility.yul\":13034:13035   */\n      0x01\n        /* \"#utility.yul\":13028:13032   */\n      dup3\n        /* \"#utility.yul\":13024:13036   */\n      and\n        /* \"#utility.yul\":13055:13073   */\n      dup1\n        /* \"#utility.yul\":13045:13126   */\n      tag_360\n      jumpi\n        /* \"#utility.yul\":13111:13115   */\n      0x7f\n        /* \"#utility.yul\":13103:13109   */\n      dup3\n        /* \"#utility.yul\":13099:13116   */\n      and\n        /* \"#utility.yul\":13089:13116   */\n      swap2\n      pop\n        /* \"#utility.yul\":13045:13126   */\n    tag_360:\n        /* \"#utility.yul\":13173:13175   */\n      0x20\n        /* \"#utility.yul\":13165:13171   */\n      dup3\n        /* \"#utility.yul\":13162:13176   */\n      lt\n        /* \"#utility.yul\":13142:13160   */\n      dup2\n        /* \"#utility.yul\":13139:13177   */\n      eq\n        /* \"#utility.yul\":13136:13220   */\n      iszero\n      tag_361\n      jumpi\n        /* \"#utility.yul\":13192:13210   */\n      tag_362\n      tag_363\n      jump\t// in\n    tag_362:\n        /* \"#utility.yul\":13136:13220   */\n    tag_361:\n        /* \"#utility.yul\":12957:13226   */\n      pop\n        /* \"#utility.yul\":12906:13226   */\n      swap2\n      swap1\n      pop\n      jump\t// out\n        /* \"#utility.yul\":13232:13513   */\n    tag_326:\n        /* \"#utility.yul\":13315:13342   */\n      tag_365\n        /* \"#utility.yul\":13337:13341   */\n      dup3\n        /* \"#utility.yul\":13315:13342   */\n      tag_267\n      jump\t// in\n    tag_365:\n        /* \"#utility.yul\":13307:13313   */\n      dup2\n        /* \"#utility.yul\":13303:13343   */\n      add\n        /* \"#utility.yul\":13445:13451   */\n      dup2\n        /* \"#utility.yul\":13433:13443   */\n      dup2\n        /* \"#utility.yul\":13430:13452   */\n      lt\n        /* \"#utility.yul\":13409:13427   */\n      0xffffffffffffffff\n        /* \"#utility.yul\":13397:13407   */\n      dup3\n        /* \"#utility.yul\":13394:13428   */\n      gt\n        /* \"#utility.yul\":13391:13453   */\n      or\n        /* \"#utility.yul\":13388:13476   */\n      iszero\n      tag_366\n      jumpi\n        /* \"#utility.yul\":13456:13474   */\n      tag_367\n      tag_109\n      jump\t// in\n    tag_367:\n        /* \"#utility.yul\":13388:13476   */\n    tag_366:\n        /* \"#utility.yul\":13496:13506   */\n      dup1\n        /* \"#utility.yul\":13492:13494   */\n      0x40\n        /* \"#utility.yul\":13485:13507   */\n      mstore\n        /* \"#utility.yul\":13275:13513   */\n      pop\n        /* \"#utility.yul\":13232:13513   */\n      pop\n      pop\n      jump\t// out\n        /* \"#utility.yul\":13519:13752   */\n    tag_118:\n        /* \"#utility.yul\":13558:13561   */\n      0x00\n        /* \"#utility.yul\":13581:13605   */\n      tag_369\n        /* \"#utility.yul\":13599:13604   */\n      dup3\n        /* \"#utility.yul\":13581:13605   */\n      tag_292\n      jump\t// in\n    tag_369:\n        /* \"#utility.yul\":13572:13605   */\n      swap2\n      pop\n        /* \"#utility.yul\":13627:13693   */\n      0xffffffffffffffffffffffffffffffffffffffffffffffffffffffffffffffff\n        /* \"#utility.yul\":13620:13625   */\n      dup3\n        /* \"#utility.yul\":13617:13694   */\n      eq\n        /* \"#utility.yul\":13614:13717   */\n      iszero\n      tag_370\n      jumpi\n        /* \"#utility.yul\":13697:13715   */\n      tag_371\n      tag_340\n      jump\t// in\n    tag_371:\n        /* \"#utility.yul\":13614:13717   */\n    tag_370:\n        /* \"#utility.yul\":13744:13745   */\n      0x01\n        /* \"#utility.yul\":13737:13742   */\n      dup3\n        /* \"#utility.yul\":13733:13746   */\n      add\n        /* \"#utility.yul\":13726:13746   */\n      swap1\n      pop\n        /* \"#utility.yul\":13519:13752   */\n      swap2\n      swap1\n      pop\n      jump\t// out\n        /* \"#utility.yul\":13758:13858   */\n    tag_249:\n        /* \"#utility.yul\":13797:13804   */\n      0x00\n        /* \"#utility.yul\":13826:13852   */\n      tag_373\n        /* \"#utility.yul\":13846:13851   */\n      dup3\n        /* \"#utility.yul\":13826:13852   */\n      tag_374\n      jump\t// in\n    tag_373:\n        /* \"#utility.yul\":13815:13852   */\n      swap1\n      pop\n        /* \"#utility.yul\":13758:13858   */\n      swap2\n      swap1\n      pop\n      jump\t// out\n        /* \"#utility.yul\":13864:13958   */\n    tag_374:\n        /* \"#utility.yul\":13903:13910   */\n      0x00\n        /* \"#utility.yul\":13932:13952   */\n      tag_376\n        /* \"#utility.yul\":13946:13951   */\n      dup3\n        /* \"#utility.yul\":13932:13952   */\n      tag_377\n      jump\t// in\n    tag_376:\n        /* \"#utility.yul\":13921:13952   */\n      swap1\n      pop\n        /* \"#utility.yul\":13864:13958   */\n      swap2\n      swap1\n      pop\n      jump\t// out\n        /* \"#utility.yul\":13964:14043   */\n    tag_297:\n        /* \"#utility.yul\":14003:14010   */\n      0x00\n        /* \"#utility.yul\":14032:14037   */\n      dup2\n        /* \"#utility.yul\":14021:14037   */\n      swap1\n      pop\n        /* \"#utility.yul\":13964:14043   */\n      swap2\n      swap1\n      pop\n      jump\t// out\n        /* \"#utility.yul\":14049:14229   */\n    tag_340:\n        /* \"#utility.yul\":14097:14174   */\n      0x4e487b7100000000000000000000000000000000000000000000000000000000\n        /* \"#utility.yul\":14094:14095   */\n      0x00\n        /* \"#utility.yul\":14087:14175   */\n      mstore\n        /* \"#utility.yul\":14194:14198   */\n      0x11\n        /* \"#utility.yul\":14191:14192   */\n      0x04\n        /* \"#utility.yul\":14184:14199   */\n      mstore\n        /* \"#utility.yul\":14218:14222   */\n      0x24\n        /* \"#utility.yul\":14215:14216   */\n      0x00\n        /* \"#utility.yul\":14208:14223   */\n      revert\n        /* \"#utility.yul\":14235:14415   */\n    tag_363:\n        /* \"#utility.yul\":14283:14360   */\n      0x4e487b7100000000000000000000000000000000000000000000000000000000\n        /* \"#utility.yul\":14280:14281   */\n      0x00\n        /* \"#utility.yul\":14273:14361   */\n      mstore\n        /* \"#utility.yul\":14380:14384   */\n      0x22\n        /* \"#utility.yul\":14377:14378   */\n      0x04\n        /* \"#utility.yul\":14370:14385   */\n      mstore\n        /* \"#utility.yul\":14404:14408   */\n      0x24\n        /* \"#utility.yul\":14401:14402   */\n      0x00\n        /* \"#utility.yul\":14394:14409   */\n      revert\n        /* \"#utility.yul\":14421:14601   */\n    tag_116:\n        /* \"#utility.yul\":14469:14546   */\n      0x4e487b7100000000000000000000000000000000000000000000000000000000\n        /* \"#utility.yul\":14466:14467   */\n      0x00\n        /* \"#utility.yul\":14459:14547   */\n      mstore\n        /* \"#utility.yul\":14566:14570   */\n      0x32\n        /* \"#utility.yul\":14563:14564   */\n      0x04\n        /* \"#utility.yul\":14556:14571   */\n      mstore\n        /* \"#utility.yul\":14590:14594   */\n      0x24\n        /* \"#utility.yul\":14587:14588   */\n      0x00\n        /* \"#utility.yul\":14580:14595   */\n      revert\n        /* \"#utility.yul\":14607:14787   */\n    tag_109:\n        /* \"#utility.yul\":14655:14732   */\n      0x4e487b7100000000000000000000000000000000000000000000000000000000\n        /* \"#utility.yul\":14652:14653   */\n      0x00\n        /* \"#utility.yul\":14645:14733   */\n      mstore\n        /* \"#utility.yul\":14752:14756   */\n      0x41\n        /* \"#utility.yul\":14749:14750   */\n      0x04\n        /* \"#utility.yul\":14742:14757   */\n      mstore\n        /* \"#utility.yul\":14776:14780   */\n      0x24\n        /* \"#utility.yul\":14773:14774   */\n      0x00\n        /* \"#utility.yul\":14766:14781   */\n      revert\n        /* \"#utility.yul\":14793:14910   */\n    tag_210:\n        /* \"#utility.yul\":14902:14903   */\n      0x00\n        /* \"#utility.yul\":14899:14900   */\n      dup1\n        /* \"#utility.yul\":14892:14904   */\n      revert\n        /* \"#utility.yul\":14916:15033   */\n    tag_191:\n        /* \"#utility.yul\":15025:15026   */\n      0x00\n        /* \"#utility.yul\":15022:15023   */\n      dup1\n        /* \"#utility.yul\":15015:15027   */\n      revert\n        /* \"#utility.yul\":15039:15156   */\n    tag_235:\n        /* \"#utility.yul\":15148:15149   */\n      0x00\n        /* \"#utility.yul\":15145:15146   */\n      dup1\n        /* \"#utility.yul\":15138:15150   */\n      revert\n        /* \"#utility.yul\":15162:15279   */\n    tag_219:\n        /* \"#utility.yul\":15271:15272   */\n      0x00\n        /* \"#utility.yul\":15268:15269   */\n      dup1\n        /* \"#utility.yul\":15261:15273   */\n      revert\n        /* \"#utility.yul\":15285:15387   */\n    tag_267:\n        /* \"#utility.yul\":15326:15332   */\n      0x00\n        /* \"#utility.yul\":15377:15379   */\n      0x1f\n        /* \"#utility.yul\":15373:15380   */\n      not\n        /* \"#utility.yul\":15368:15370   */\n      0x1f\n        /* \"#utility.yul\":15361:15366   */\n      dup4\n        /* \"#utility.yul\":15357:15371   */\n      add\n        /* \"#utility.yul\":15353:15381   */\n      and\n        /* \"#utility.yul\":15343:15381   */\n      swap1\n      pop\n        /* \"#utility.yul\":15285:15387   */\n      swap2\n      swap1\n      pop\n      jump\t// out\n        /* \"#utility.yul\":15393:15487   */\n    tag_377:\n        /* \"#utility.yul\":15426:15434   */\n      0x00\n        /* \"#utility.yul\":15474:15479   */\n      dup2\n        /* \"#utility.yul\":15470:15472   */\n      0x60\n        /* \"#utility.yul\":15466:15480   */\n      shl\n        /* \"#utility.yul\":15445:15480   */\n      swap1\n      pop\n        /* \"#utility.yul\":15393:15487   */\n      swap2\n      swap1\n      pop\n      jump\t// out\n        /* \"#utility.yul\":15493:15652   */\n    tag_278:\n        /* \"#utility.yul\":15633:15644   */\n      0x6e6f742065786973740000000000000000000000000000000000000000000000\n        /* \"#utility.yul\":15629:15630   */\n      0x00\n        /* \"#utility.yul\":15621:15627   */\n      dup3\n        /* \"#utility.yul\":15617:15631   */\n      add\n        /* \"#utility.yul\":15610:15645   */\n      mstore\n        /* \"#utility.yul\":15493:15652   */\n      pop\n      jump\t// out\n        /* \"#utility.yul\":15658:15822   */\n    tag_283:\n        /* \"#utility.yul\":15798:15814   */\n      0x706f6f6c206e6f74206578697374000000000000000000000000000000000000\n        /* \"#utility.yul\":15794:15795   */\n      0x00\n        /* \"#utility.yul\":15786:15792   */\n      dup3\n        /* \"#utility.yul\":15782:15796   */\n      add\n        /* \"#utility.yul\":15775:15815   */\n      mstore\n        /* \"#utility.yul\":15658:15822   */\n      pop\n      jump\t// out\n        /* \"#utility.yul\":15828:15988   */\n    tag_288:\n        /* \"#utility.yul\":15968:15980   */\n      0x7061697220657869737400000000000000000000000000000000000000000000\n        /* \"#utility.yul\":15964:15965   */\n      0x00\n        /* \"#utility.yul\":15956:15962   */\n      dup3\n        /* \"#utility.yul\":15952:15966   */\n      add\n        /* \"#utility.yul\":15945:15981   */\n      mstore\n        /* \"#utility.yul\":15828:15988   */\n      pop\n      jump\t// out\n        /* \"#utility.yul\":15994:16116   */\n    tag_197:\n        /* \"#utility.yul\":16067:16091   */\n      tag_393\n        /* \"#utility.yul\":16085:16090   */\n      dup2\n        /* \"#utility.yul\":16067:16091   */\n      tag_248\n      jump\t// in\n    tag_393:\n        /* \"#utility.yul\":16060:16065   */\n      dup2\n        /* \"#utility.yul\":16057:16092   */\n      eq\n        /* \"#utility.yul\":16047:16110   */\n      tag_394\n      jumpi\n        /* \"#utility.yul\":16106:16107   */\n      0x00\n        /* \"#utility.yul\":16103:16104   */\n      dup1\n        /* \"#utility.yul\":16096:16108   */\n      revert\n        /* \"#utility.yul\":16047:16110   */\n    tag_394:\n        /* \"#utility.yul\":15994:16116   */\n      pop\n      jump\t// out\n        /* \"#utility.yul\":16122:16238   */\n    tag_201:\n        /* \"#utility.yul\":16192:16213   */\n      tag_396\n        /* \"#utility.yul\":16207:16212   */\n      dup2\n        /* \"#utility.yul\":16192:16213   */\n      tag_253\n      jump\t// in\n    tag_396:\n        /* \"#utility.yul\":16185:16190   */\n      dup2\n        /* \"#utility.yul\":16182:16214   */\n      eq\n        /* \"#utility.yul\":16172:16232   */\n      tag_397\n      jumpi\n        /* \"#utility.yul\":16228:16229   */\n      0x00\n        /* \"#utility.yul\":16225:16226   */\n      dup1\n        /* \"#utility.yul\":16218:16230   */\n      revert\n        /* \"#utility.yul\":16172:16232   */\n    tag_397:\n        /* \"#utility.yul\":16122:16238   */\n      pop\n      jump\t// out\n        /* \"#utility.yul\":16244:16366   */\n    tag_205:\n        /* \"#utility.yul\":16317:16341   */\n      tag_399\n        /* \"#utility.yul\":16335:16340   */\n      dup2\n        /* \"#utility.yul\":16317:16341   */\n      tag_257\n      jump\t// in\n    tag_399:\n        /* \"#utility.yul\":16310:16315   */\n      dup2\n        /* \"#utility.yul\":16307:16342   */\n      eq\n        /* \"#utility.yul\":16297:16360   */\n      tag_400\n      jumpi\n        /* \"#utility.yul\":16356:16357   */\n      0x00\n        /* \"#utility.yul\":16353:16354   */\n      dup1\n        /* \"#utility.yul\":16346:16358   */\n      revert\n        /* \"#utility.yul\":16297:16360   */\n    tag_400:\n        /* \"#utility.yul\":16244:16366   */\n      pop\n      jump\t// out\n        /* \"#utility.yul\":16372:16494   */\n    tag_215:\n        /* \"#utility.yul\":16445:16469   */\n      tag_402\n        /* \"#utility.yul\":16463:16468   */\n      dup2\n        /* \"#utility.yul\":16445:16469   */\n      tag_292\n      jump\t// in\n    tag_402:\n        /* \"#utility.yul\":16438:16443   */\n      dup2\n        /* \"#utility.yul\":16435:16470   */\n      eq\n        /* \"#utility.yul\":16425:16488   */\n      tag_403\n      jumpi\n        /* \"#utility.yul\":16484:16485   */\n      0x00\n        /* \"#utility.yul\":16481:16482   */\n      dup1\n        /* \"#utility.yul\":16474:16486   */\n      revert\n        /* \"#utility.yul\":16425:16488   */\n    tag_403:\n        /* \"#utility.yul\":16372:16494   */\n      pop\n      jump\t// out\n\n    auxdata: 0xa26469706673582212202d4e491553e910a554362b64484c5d21d32847572730770d1248305fcd718f4764736f6c63430008070033\n}\n",
				"bytecode": {
					"linkReferences": {},
					"object": "60806040523480156200001157600080fd5b506040516200196638038062001966833981810160405281019062000037919062000095565b806000806101000a81548173ffffffffffffffffffffffffffffffffffffffff021916908373ffffffffffffffffffffffffffffffffffffffff160217905550506200011a565b6000815190506200008f8162000100565b92915050565b600060208284031215620000ae57620000ad620000fb565b5b6000620000be848285016200007e565b91505092915050565b6000620000d482620000db565b9050919050565b600073ffffffffffffffffffffffffffffffffffffffff82169050919050565b600080fd5b6200010b81620000c7565b81146200011757600080fd5b50565b61183c806200012a6000396000f3fe608060405234801561001057600080fd5b50600436106100415760003560e01c80633d29c6ff1461004657806368a5252014610076578063b8e5303d146100a6575b600080fd5b610060600480360381019061005b9190611056565b6100dc565b60405161006d91906112a7565b60405180910390f35b610090600480360381019061008b9190610f9c565b6102c9565b60405161009d919061128c565b60405180910390f35b6100c060048036038101906100bb9190611029565b610668565b6040516100d397969594939291906112c2565b60405180910390f35b6000806100e98686610916565b905060006100f78286610916565b905060008160405160200161010c919061125a565b60405160208183030381529060405280519060200120905061012d81610aac565b1561016d576040517f08c379a000000000000000000000000000000000000000000000000000000000815260040161016490611386565b60405180910390fd5b60016003600083815260200190815260200160002060070160016101000a81548160ff021916908315150217905550876003600083815260200190815260200160002060000190805190602001906101c6929190610e35565b50866003600083815260200190815260200160002060010190805190602001906101f1929190610e35565b508560036000838152602001908152602001600020600201908051906020019061021c929190610e35565b5060006003600083815260200190815260200160002060030181905550600060036000838152602001908152602001600020600401819055506000600360008381526020019081526020016000206005018190555060006003600083815260200190815260200160002060060181905550846003600083815260200190815260200160002060070160006101000a81548160ff021916908315150217905550809350505050949350505050565b60006102d485610aac565b610313576040517f08c379a000000000000000000000000000000000000000000000000000000000815260040161030a90611366565b60405180910390fd5b6000600360008781526020019081526020016000206040518061012001604052908160008201805461034490611567565b80601f016020809104026020016040519081016040528092919081815260200182805461037090611567565b80156103bd5780601f10610392576101008083540402835291602001916103bd565b820191906000526020600020905b8154815290600101906020018083116103a057829003601f168201915b505050505081526020016001820180546103d690611567565b80601f016020809104026020016040519081016040528092919081815260200182805461040290611567565b801561044f5780601f106104245761010080835404028352916020019161044f565b820191906000526020600020905b81548152906001019060200180831161043257829003601f168201915b5050505050815260200160028201805461046890611567565b80601f016020809104026020016040519081016040528092919081815260200182805461049490611567565b80156104e15780601f106104b6576101008083540402835291602001916104e1565b820191906000526020600020905b8154815290600101906020018083116104c457829003601f168201915b50505050508152602001600382015481526020016004820154815260200160058201548152602001600682015481526020016007820160009054906101000a900460ff161515151581526020016007820160019054906101000a900460ff1615151515815250509050600061056661055887610ad9565b61056187610ad9565b610916565b905060006105846105768b610b0a565b61057f87610ad9565b610916565b905060006105928284610916565b905060028614156105bb57898460c0018181516105af9190611423565b91508181525050610625565b60038614156105e25789846060018181516105d69190611423565b91508181525050610624565b60018614156106095789846080018181516105fd9190611423565b91508181525050610623565b898460a00181815161061b9190611423565b915081815250505b5b5b89600282604051610636919061125a565b908152602001604051809103902060008282546106539190611423565b92505081905550505050509695505050505050565b606080606060008060008061067c88610aac565b6106bb576040517f08c379a00000000000000000000000000000000000000000000000000000000081526004016106b290611346565b60405180910390fd5b60036000898152602001908152602001600020600001600360008a8152602001908152602001600020600101600360008b8152602001908152602001600020600201600360008c815260200190815260200160002060030154600360008d815260200190815260200160002060040154600360008e815260200190815260200160002060050154600360008f81526020019081526020016000206006015486805461076590611567565b80601f016020809104026020016040519081016040528092919081815260200182805461079190611567565b80156107de5780601f106107b3576101008083540402835291602001916107de565b820191906000526020600020905b8154815290600101906020018083116107c157829003601f168201915b505050505096508580546107f190611567565b80601f016020809104026020016040519081016040528092919081815260200182805461081d90611567565b801561086a5780601f1061083f5761010080835404028352916020019161086a565b820191906000526020600020905b81548152906001019060200180831161084d57829003601f168201915b5050505050955084805461087d90611567565b80601f01602080910402602001604051908101604052809291908181526020018280546108a990611567565b80156108f65780601f106108cb576101008083540402835291602001916108f6565b820191906000526020600020905b8154815290600101906020018083116108d957829003601f168201915b505050505094509650965096509650965096509650919395979092949650565b6060600083905060008390506000815183516109329190611423565b67ffffffffffffffff81111561094b5761094a6116ce565b5b6040519080825280601f01601f19166020018201604052801561097d5781602001600182028036833780820191505090505b50905060008190506000805b8551811015610a11578581815181106109a5576109a461169f565b5b602001015160f81c60f81b8383806109bc906115ca565b9450815181106109cf576109ce61169f565b5b60200101907effffffffffffffffffffffffffffffffffffffffffffffffffffffffffffff1916908160001a9053508080610a09906115ca565b915050610989565b5060005b8451811015610a9d57848181518110610a3157610a3061169f565b5b602001015160f81c60f81b838380610a48906115ca565b945081518110610a5b57610a5a61169f565b5b60200101907effffffffffffffffffffffffffffffffffffffffffffffffffffffffffffff1916908160001a9053508080610a95906115ca565b915050610a15565b50829550505050505092915050565b60006003600083815260200190815260200160002060070160019054906101000a900460ff169050919050565b6060610b0382604051602001610aef9190611271565b604051602081830303815290604052610b3b565b9050919050565b6060610b3482604051602001610b20919061123f565b604051602081830303815290604052610b3b565b9050919050565b606060006040518060400160405280601081526020017f30313233343536373839616263646566000000000000000000000000000000008152509050600060028451610b879190611479565b6002610b939190611423565b67ffffffffffffffff811115610bac57610bab6116ce565b5b6040519080825280601f01601f191660200182016040528015610bde5781602001600182028036833780820191505090505b5090507f300000000000000000000000000000000000000000000000000000000000000081600081518110610c1657610c1561169f565b5b60200101907effffffffffffffffffffffffffffffffffffffffffffffffffffffffffffff1916908160001a9053507f780000000000000000000000000000000000000000000000000000000000000081600181518110610c7a57610c7961169f565b5b60200101907effffffffffffffffffffffffffffffffffffffffffffffffffffffffffffff1916908160001a90535060005b8451811015610e2a57826004868381518110610ccb57610cca61169f565b5b602001015160f81c60f81b7effffffffffffffffffffffffffffffffffffffffffffffffffffffffffffff1916901c60f81c60ff1681518110610d1157610d1061169f565b5b602001015160f81c60f81b82600283610d2a9190611479565b6002610d369190611423565b81518110610d4757610d4661169f565b5b60200101907effffffffffffffffffffffffffffffffffffffffffffffffffffffffffffff1916908160001a90535082600f60f81b868381518110610d8f57610d8e61169f565b5b602001015160f81c60f81b1660f81c60ff1681518110610db257610db161169f565b5b602001015160f81c60f81b82600283610dcb9190611479565b6003610dd79190611423565b81518110610de857610de761169f565b5b60200101907effffffffffffffffffffffffffffffffffffffffffffffffffffffffffffff1916908160001a9053508080610e22906115ca565b915050610cac565b508092505050919050565b828054610e4190611567565b90600052602060002090601f016020900481019282610e635760008555610eaa565b82601f10610e7c57805160ff1916838001178555610eaa565b82800160010185558215610eaa579182015b82811115610ea9578251825591602001919060010190610e8e565b5b509050610eb79190610ebb565b5090565b5b80821115610ed4576000816000905550600101610ebc565b5090565b6000610eeb610ee6846113cb565b6113a6565b905082815260208101848484011115610f0757610f06611702565b5b610f12848285611525565b509392505050565b600081359050610f29816117aa565b92915050565b600081359050610f3e816117c1565b92915050565b600081359050610f53816117d8565b92915050565b600082601f830112610f6e57610f6d6116fd565b5b8135610f7e848260208601610ed8565b91505092915050565b600081359050610f96816117ef565b92915050565b60008060008060008060c08789031215610fb957610fb861170c565b5b6000610fc789828a01610f1a565b9650506020610fd889828a01610f87565b9550506040610fe989828a01610f44565b9450506060610ffa89828a01610f87565b935050608061100b89828a01610f87565b92505060a061101c89828a01610f87565b9150509295509295509295565b60006020828403121561103f5761103e61170c565b5b600061104d84828501610f44565b91505092915050565b600080600080608085870312156110705761106f61170c565b5b600085013567ffffffffffffffff81111561108e5761108d611707565b5b61109a87828801610f59565b945050602085013567ffffffffffffffff8111156110bb576110ba611707565b5b6110c787828801610f59565b935050604085013567ffffffffffffffff8111156110e8576110e7611707565b5b6110f487828801610f59565b925050606061110587828801610f2f565b91505092959194509250565b61112261111d826114d3565b611613565b82525050565b611131816114e5565b82525050565b611140816114f1565b82525050565b6000611151826113fc565b61115b8185611407565b935061116b818560208601611534565b61117481611711565b840191505092915050565b600061118a826113fc565b6111948185611418565b93506111a4818560208601611534565b80840191505092915050565b60006111bd600983611407565b91506111c88261172f565b602082019050919050565b60006111e0600e83611407565b91506111eb82611758565b602082019050919050565b6000611203600a83611407565b915061120e82611781565b602082019050919050565b6112228161151b565b82525050565b6112396112348261151b565b611637565b82525050565b600061124b8284611111565b60148201915081905092915050565b6000611266828461117f565b915081905092915050565b600061127d8284611228565b60208201915081905092915050565b60006020820190506112a16000830184611128565b92915050565b60006020820190506112bc6000830184611137565b92915050565b600060e08201905081810360008301526112dc818a611146565b905081810360208301526112f08189611146565b905081810360408301526113048188611146565b90506113136060830187611219565b6113206080830186611219565b61132d60a0830185611219565b61133a60c0830184611219565b98975050505050505050565b6000602082019050818103600083015261135f816111b0565b9050919050565b6000602082019050818103600083015261137f816111d3565b9050919050565b6000602082019050818103600083015261139f816111f6565b9050919050565b60006113b06113c1565b90506113bc8282611599565b919050565b6000604051905090565b600067ffffffffffffffff8211156113e6576113e56116ce565b5b6113ef82611711565b9050602081019050919050565b600081519050919050565b600082825260208201905092915050565b600081905092915050565b600061142e8261151b565b91506114398361151b565b9250827fffffffffffffffffffffffffffffffffffffffffffffffffffffffffffffffff0382111561146e5761146d611641565b5b828201905092915050565b60006114848261151b565b915061148f8361151b565b9250817fffffffffffffffffffffffffffffffffffffffffffffffffffffffffffffffff04831182151516156114c8576114c7611641565b5b828202905092915050565b60006114de826114fb565b9050919050565b60008115159050919050565b6000819050919050565b600073ffffffffffffffffffffffffffffffffffffffff82169050919050565b6000819050919050565b82818337600083830152505050565b60005b83811015611552578082015181840152602081019050611537565b83811115611561576000848401525b50505050565b6000600282049050600182168061157f57607f821691505b6020821081141561159357611592611670565b5b50919050565b6115a282611711565b810181811067ffffffffffffffff821117156115c1576115c06116ce565b5b80604052505050565b60006115d58261151b565b91507fffffffffffffffffffffffffffffffffffffffffffffffffffffffffffffffff82141561160857611607611641565b5b600182019050919050565b600061161e82611625565b9050919050565b600061163082611722565b9050919050565b6000819050919050565b7f4e487b7100000000000000000000000000000000000000000000000000000000600052601160045260246000fd5b7f4e487b7100000000000000000000000000000000000000000000000000000000600052602260045260246000fd5b7f4e487b7100000000000000000000000000000000000000000000000000000000600052603260045260246000fd5b7f4e487b7100000000000000000000000000000000000000000000000000000000600052604160045260246000fd5b600080fd5b600080fd5b600080fd5b600080fd5b6000601f19601f8301169050919050565b60008160601b9050919050565b7f6e6f742065786973740000000000000000000000000000000000000000000000600082015250565b7f706f6f6c206e6f74206578697374000000000000000000000000000000000000600082015250565b7f7061697220657869737400000000000000000000000000000000000000000000600082015250565b6117b3816114d3565b81146117be57600080fd5b50565b6117ca816114e5565b81146117d557600080fd5b50565b6117e1816114f1565b81146117ec57600080fd5b50565b6117f88161151b565b811461180357600080fd5b5056fea26469706673582212202d4e491553e910a554362b64484c5d21d32847572730770d1248305fcd718f4764736f6c63430008070033",
					"opcodes": "PUSH1 0x80 PUSH1 0x40 MSTORE CALLVALUE DUP1 ISZERO PUSH3 0x11 JUMPI PUSH1 0x0 DUP1 REVERT JUMPDEST POP PUSH1 0x40 MLOAD PUSH3 0x1966 CODESIZE SUB DUP1 PUSH3 0x1966 DUP4 CODECOPY DUP2 DUP2 ADD PUSH1 0x40 MSTORE DUP2 ADD SWAP1 PUSH3 0x37 SWAP2 SWAP1 PUSH3 0x95 JUMP JUMPDEST DUP1 PUSH1 0x0 DUP1 PUSH2 0x100 EXP DUP2 SLOAD DUP2 PUSH20 0xFFFFFFFFFFFFFFFFFFFFFFFFFFFFFFFFFFFFFFFF MUL NOT AND SWAP1 DUP4 PUSH20 0xFFFFFFFFFFFFFFFFFFFFFFFFFFFFFFFFFFFFFFFF AND MUL OR SWAP1 SSTORE POP POP PUSH3 0x11A JUMP JUMPDEST PUSH1 0x0 DUP2 MLOAD SWAP1 POP PUSH3 0x8F DUP2 PUSH3 0x100 JUMP JUMPDEST SWAP3 SWAP2 POP POP JUMP JUMPDEST PUSH1 0x0 PUSH1 0x20 DUP3 DUP5 SUB SLT ISZERO PUSH3 0xAE JUMPI PUSH3 0xAD PUSH3 0xFB JUMP JUMPDEST JUMPDEST PUSH1 0x0 PUSH3 0xBE DUP5 DUP3 DUP6 ADD PUSH3 0x7E JUMP JUMPDEST SWAP2 POP POP SWAP3 SWAP2 POP POP JUMP JUMPDEST PUSH1 0x0 PUSH3 0xD4 DUP3 PUSH3 0xDB JUMP JUMPDEST SWAP1 POP SWAP2 SWAP1 POP JUMP JUMPDEST PUSH1 0x0 PUSH20 0xFFFFFFFFFFFFFFFFFFFFFFFFFFFFFFFFFFFFFFFF DUP3 AND SWAP1 POP SWAP2 SWAP1 POP JUMP JUMPDEST PUSH1 0x0 DUP1 REVERT JUMPDEST PUSH3 0x10B DUP2 PUSH3 0xC7 JUMP JUMPDEST DUP2 EQ PUSH3 0x117 JUMPI PUSH1 0x0 DUP1 REVERT JUMPDEST POP JUMP JUMPDEST PUSH2 0x183C DUP1 PUSH3 0x12A PUSH1 0x0 CODECOPY PUSH1 0x0 RETURN INVALID PUSH1 0x80 PUSH1 0x40 MSTORE CALLVALUE DUP1 ISZERO PUSH2 0x10 JUMPI PUSH1 0x0 DUP1 REVERT JUMPDEST POP PUSH1 0x4 CALLDATASIZE LT PUSH2 0x41 JUMPI PUSH1 0x0 CALLDATALOAD PUSH1 0xE0 SHR DUP1 PUSH4 0x3D29C6FF EQ PUSH2 0x46 JUMPI DUP1 PUSH4 0x68A52520 EQ PUSH2 0x76 JUMPI DUP1 PUSH4 0xB8E5303D EQ PUSH2 0xA6 JUMPI JUMPDEST PUSH1 0x0 DUP1 REVERT JUMPDEST PUSH2 0x60 PUSH1 0x4 DUP1 CALLDATASIZE SUB DUP2 ADD SWAP1 PUSH2 0x5B SWAP2 SWAP1 PUSH2 0x1056 JUMP JUMPDEST PUSH2 0xDC JUMP JUMPDEST PUSH1 0x40 MLOAD PUSH2 0x6D SWAP2 SWAP1 PUSH2 0x12A7 JUMP JUMPDEST PUSH1 0x40 MLOAD DUP1 SWAP2 SUB SWAP1 RETURN JUMPDEST PUSH2 0x90 PUSH1 0x4 DUP1 CALLDATASIZE SUB DUP2 ADD SWAP1 PUSH2 0x8B SWAP2 SWAP1 PUSH2 0xF9C JUMP JUMPDEST PUSH2 0x2C9 JUMP JUMPDEST PUSH1 0x40 MLOAD PUSH2 0x9D SWAP2 SWAP1 PUSH2 0x128C JUMP JUMPDEST PUSH1 0x40 MLOAD DUP1 SWAP2 SUB SWAP1 RETURN JUMPDEST PUSH2 0xC0 PUSH1 0x4 DUP1 CALLDATASIZE SUB DUP2 ADD SWAP1 PUSH2 0xBB SWAP2 SWAP1 PUSH2 0x1029 JUMP JUMPDEST PUSH2 0x668 JUMP JUMPDEST PUSH1 0x40 MLOAD PUSH2 0xD3 SWAP8 SWAP7 SWAP6 SWAP5 SWAP4 SWAP3 SWAP2 SWAP1 PUSH2 0x12C2 JUMP JUMPDEST PUSH1 0x40 MLOAD DUP1 SWAP2 SUB SWAP1 RETURN JUMPDEST PUSH1 0x0 DUP1 PUSH2 0xE9 DUP7 DUP7 PUSH2 0x916 JUMP JUMPDEST SWAP1 POP PUSH1 0x0 PUSH2 0xF7 DUP3 DUP7 PUSH2 0x916 JUMP JUMPDEST SWAP1 POP PUSH1 0x0 DUP2 PUSH1 0x40 MLOAD PUSH1 0x20 ADD PUSH2 0x10C SWAP2 SWAP1 PUSH2 0x125A JUMP JUMPDEST PUSH1 0x40 MLOAD PUSH1 0x20 DUP2 DUP4 SUB SUB DUP2 MSTORE SWAP1 PUSH1 0x40 MSTORE DUP1 MLOAD SWAP1 PUSH1 0x20 ADD KECCAK256 SWAP1 POP PUSH2 0x12D DUP2 PUSH2 0xAAC JUMP JUMPDEST ISZERO PUSH2 0x16D JUMPI PUSH1 0x40 MLOAD PUSH32 0x8C379A000000000000000000000000000000000000000000000000000000000 DUP2 MSTORE PUSH1 0x4 ADD PUSH2 0x164 SWAP1 PUSH2 0x1386 JUMP JUMPDEST PUSH1 0x40 MLOAD DUP1 SWAP2 SUB SWAP1 REVERT JUMPDEST PUSH1 0x1 PUSH1 0x3 PUSH1 0x0 DUP4 DUP2 MSTORE PUSH1 0x20 ADD SWAP1 DUP2 MSTORE PUSH1 0x20 ADD PUSH1 0x0 KECCAK256 PUSH1 0x7 ADD PUSH1 0x1 PUSH2 0x100 EXP DUP2 SLOAD DUP2 PUSH1 0xFF MUL NOT AND SWAP1 DUP4 ISZERO ISZERO MUL OR SWAP1 SSTORE POP DUP8 PUSH1 0x3 PUSH1 0x0 DUP4 DUP2 MSTORE PUSH1 0x20 ADD SWAP1 DUP2 MSTORE PUSH1 0x20 ADD PUSH1 0x0 KECCAK256 PUSH1 0x0 ADD SWAP1 DUP1 MLOAD SWAP1 PUSH1 0x20 ADD SWAP1 PUSH2 0x1C6 SWAP3 SWAP2 SWAP1 PUSH2 0xE35 JUMP JUMPDEST POP DUP7 PUSH1 0x3 PUSH1 0x0 DUP4 DUP2 MSTORE PUSH1 0x20 ADD SWAP1 DUP2 MSTORE PUSH1 0x20 ADD PUSH1 0x0 KECCAK256 PUSH1 0x1 ADD SWAP1 DUP1 MLOAD SWAP1 PUSH1 0x20 ADD SWAP1 PUSH2 0x1F1 SWAP3 SWAP2 SWAP1 PUSH2 0xE35 JUMP JUMPDEST POP DUP6 PUSH1 0x3 PUSH1 0x0 DUP4 DUP2 MSTORE PUSH1 0x20 ADD SWAP1 DUP2 MSTORE PUSH1 0x20 ADD PUSH1 0x0 KECCAK256 PUSH1 0x2 ADD SWAP1 DUP1 MLOAD SWAP1 PUSH1 0x20 ADD SWAP1 PUSH2 0x21C SWAP3 SWAP2 SWAP1 PUSH2 0xE35 JUMP JUMPDEST POP PUSH1 0x0 PUSH1 0x3 PUSH1 0x0 DUP4 DUP2 MSTORE PUSH1 0x20 ADD SWAP1 DUP2 MSTORE PUSH1 0x20 ADD PUSH1 0x0 KECCAK256 PUSH1 0x3 ADD DUP2 SWAP1 SSTORE POP PUSH1 0x0 PUSH1 0x3 PUSH1 0x0 DUP4 DUP2 MSTORE PUSH1 0x20 ADD SWAP1 DUP2 MSTORE PUSH1 0x20 ADD PUSH1 0x0 KECCAK256 PUSH1 0x4 ADD DUP2 SWAP1 SSTORE POP PUSH1 0x0 PUSH1 0x3 PUSH1 0x0 DUP4 DUP2 MSTORE PUSH1 0x20 ADD SWAP1 DUP2 MSTORE PUSH1 0x20 ADD PUSH1 0x0 KECCAK256 PUSH1 0x5 ADD DUP2 SWAP1 SSTORE POP PUSH1 0x0 PUSH1 0x3 PUSH1 0x0 DUP4 DUP2 MSTORE PUSH1 0x20 ADD SWAP1 DUP2 MSTORE PUSH1 0x20 ADD PUSH1 0x0 KECCAK256 PUSH1 0x6 ADD DUP2 SWAP1 SSTORE POP DUP5 PUSH1 0x3 PUSH1 0x0 DUP4 DUP2 MSTORE PUSH1 0x20 ADD SWAP1 DUP2 MSTORE PUSH1 0x20 ADD PUSH1 0x0 KECCAK256 PUSH1 0x7 ADD PUSH1 0x0 PUSH2 0x100 EXP DUP2 SLOAD DUP2 PUSH1 0xFF MUL NOT AND SWAP1 DUP4 ISZERO ISZERO MUL OR SWAP1 SSTORE POP DUP1 SWAP4 POP POP POP POP SWAP5 SWAP4 POP POP POP POP JUMP JUMPDEST PUSH1 0x0 PUSH2 0x2D4 DUP6 PUSH2 0xAAC JUMP JUMPDEST PUSH2 0x313 JUMPI PUSH1 0x40 MLOAD PUSH32 0x8C379A000000000000000000000000000000000000000000000000000000000 DUP2 MSTORE PUSH1 0x4 ADD PUSH2 0x30A SWAP1 PUSH2 0x1366 JUMP JUMPDEST PUSH1 0x40 MLOAD DUP1 SWAP2 SUB SWAP1 REVERT JUMPDEST PUSH1 0x0 PUSH1 0x3 PUSH1 0x0 DUP8 DUP2 MSTORE PUSH1 0x20 ADD SWAP1 DUP2 MSTORE PUSH1 0x20 ADD PUSH1 0x0 KECCAK256 PUSH1 0x40 MLOAD DUP1 PUSH2 0x120 ADD PUSH1 0x40 MSTORE SWAP1 DUP2 PUSH1 0x0 DUP3 ADD DUP1 SLOAD PUSH2 0x344 SWAP1 PUSH2 0x1567 JUMP JUMPDEST DUP1 PUSH1 0x1F ADD PUSH1 0x20 DUP1 SWAP2 DIV MUL PUSH1 0x20 ADD PUSH1 0x40 MLOAD SWAP1 DUP2 ADD PUSH1 0x40 MSTORE DUP1 SWAP3 SWAP2 SWAP1 DUP2 DUP2 MSTORE PUSH1 0x20 ADD DUP3 DUP1 SLOAD PUSH2 0x370 SWAP1 PUSH2 0x1567 JUMP JUMPDEST DUP1 ISZERO PUSH2 0x3BD JUMPI DUP1 PUSH1 0x1F LT PUSH2 0x392 JUMPI PUSH2 0x100 DUP1 DUP4 SLOAD DIV MUL DUP4 MSTORE SWAP2 PUSH1 0x20 ADD SWAP2 PUSH2 0x3BD JUMP JUMPDEST DUP3 ADD SWAP2 SWAP1 PUSH1 0x0 MSTORE PUSH1 0x20 PUSH1 0x0 KECCAK256 SWAP1 JUMPDEST DUP2 SLOAD DUP2 MSTORE SWAP1 PUSH1 0x1 ADD SWAP1 PUSH1 0x20 ADD DUP1 DUP4 GT PUSH2 0x3A0 JUMPI DUP3 SWAP1 SUB PUSH1 0x1F AND DUP3 ADD SWAP2 JUMPDEST POP POP POP POP POP DUP2 MSTORE PUSH1 0x20 ADD PUSH1 0x1 DUP3 ADD DUP1 SLOAD PUSH2 0x3D6 SWAP1 PUSH2 0x1567 JUMP JUMPDEST DUP1 PUSH1 0x1F ADD PUSH1 0x20 DUP1 SWAP2 DIV MUL PUSH1 0x20 ADD PUSH1 0x40 MLOAD SWAP1 DUP2 ADD PUSH1 0x40 MSTORE DUP1 SWAP3 SWAP2 SWAP1 DUP2 DUP2 MSTORE PUSH1 0x20 ADD DUP3 DUP1 SLOAD PUSH2 0x402 SWAP1 PUSH2 0x1567 JUMP JUMPDEST DUP1 ISZERO PUSH2 0x44F JUMPI DUP1 PUSH1 0x1F LT PUSH2 0x424 JUMPI PUSH2 0x100 DUP1 DUP4 SLOAD DIV MUL DUP4 MSTORE SWAP2 PUSH1 0x20 ADD SWAP2 PUSH2 0x44F JUMP JUMPDEST DUP3 ADD SWAP2 SWAP1 PUSH1 0x0 MSTORE PUSH1 0x20 PUSH1 0x0 KECCAK256 SWAP1 JUMPDEST DUP2 SLOAD DUP2 MSTORE SWAP1 PUSH1 0x1 ADD SWAP1 PUSH1 0x20 ADD DUP1 DUP4 GT PUSH2 0x432 JUMPI DUP3 SWAP1 SUB PUSH1 0x1F AND DUP3 ADD SWAP2 JUMPDEST POP POP POP POP POP DUP2 MSTORE PUSH1 0x20 ADD PUSH1 0x2 DUP3 ADD DUP1 SLOAD PUSH2 0x468 SWAP1 PUSH2 0x1567 JUMP JUMPDEST DUP1 PUSH1 0x1F ADD PUSH1 0x20 DUP1 SWAP2 DIV MUL PUSH1 0x20 ADD PUSH1 0x40 MLOAD SWAP1 DUP2 ADD PUSH1 0x40 MSTORE DUP1 SWAP3 SWAP2 SWAP1 DUP2 DUP2 MSTORE PUSH1 0x20 ADD DUP3 DUP1 SLOAD PUSH2 0x494 SWAP1 PUSH2 0x1567 JUMP JUMPDEST DUP1 ISZERO PUSH2 0x4E1 JUMPI DUP1 PUSH1 0x1F LT PUSH2 0x4B6 JUMPI PUSH2 0x100 DUP1 DUP4 SLOAD DIV MUL DUP4 MSTORE SWAP2 PUSH1 0x20 ADD SWAP2 PUSH2 0x4E1 JUMP JUMPDEST DUP3 ADD SWAP2 SWAP1 PUSH1 0x0 MSTORE PUSH1 0x20 PUSH1 0x0 KECCAK256 SWAP1 JUMPDEST DUP2 SLOAD DUP2 MSTORE SWAP1 PUSH1 0x1 ADD SWAP1 PUSH1 0x20 ADD DUP1 DUP4 GT PUSH2 0x4C4 JUMPI DUP3 SWAP1 SUB PUSH1 0x1F AND DUP3 ADD SWAP2 JUMPDEST POP POP POP POP POP DUP2 MSTORE PUSH1 0x20 ADD PUSH1 0x3 DUP3 ADD SLOAD DUP2 MSTORE PUSH1 0x20 ADD PUSH1 0x4 DUP3 ADD SLOAD DUP2 MSTORE PUSH1 0x20 ADD PUSH1 0x5 DUP3 ADD SLOAD DUP2 MSTORE PUSH1 0x20 ADD PUSH1 0x6 DUP3 ADD SLOAD DUP2 MSTORE PUSH1 0x20 ADD PUSH1 0x7 DUP3 ADD PUSH1 0x0 SWAP1 SLOAD SWAP1 PUSH2 0x100 EXP SWAP1 DIV PUSH1 0xFF AND ISZERO ISZERO ISZERO ISZERO DUP2 MSTORE PUSH1 0x20 ADD PUSH1 0x7 DUP3 ADD PUSH1 0x1 SWAP1 SLOAD SWAP1 PUSH2 0x100 EXP SWAP1 DIV PUSH1 0xFF AND ISZERO ISZERO ISZERO ISZERO DUP2 MSTORE POP POP SWAP1 POP PUSH1 0x0 PUSH2 0x566 PUSH2 0x558 DUP8 PUSH2 0xAD9 JUMP JUMPDEST PUSH2 0x561 DUP8 PUSH2 0xAD9 JUMP JUMPDEST PUSH2 0x916 JUMP JUMPDEST SWAP1 POP PUSH1 0x0 PUSH2 0x584 PUSH2 0x576 DUP12 PUSH2 0xB0A JUMP JUMPDEST PUSH2 0x57F DUP8 PUSH2 0xAD9 JUMP JUMPDEST PUSH2 0x916 JUMP JUMPDEST SWAP1 POP PUSH1 0x0 PUSH2 0x592 DUP3 DUP5 PUSH2 0x916 JUMP JUMPDEST SWAP1 POP PUSH1 0x2 DUP7 EQ ISZERO PUSH2 0x5BB JUMPI DUP10 DUP5 PUSH1 0xC0 ADD DUP2 DUP2 MLOAD PUSH2 0x5AF SWAP2 SWAP1 PUSH2 0x1423 JUMP JUMPDEST SWAP2 POP DUP2 DUP2 MSTORE POP POP PUSH2 0x625 JUMP JUMPDEST PUSH1 0x3 DUP7 EQ ISZERO PUSH2 0x5E2 JUMPI DUP10 DUP5 PUSH1 0x60 ADD DUP2 DUP2 MLOAD PUSH2 0x5D6 SWAP2 SWAP1 PUSH2 0x1423 JUMP JUMPDEST SWAP2 POP DUP2 DUP2 MSTORE POP POP PUSH2 0x624 JUMP JUMPDEST PUSH1 0x1 DUP7 EQ ISZERO PUSH2 0x609 JUMPI DUP10 DUP5 PUSH1 0x80 ADD DUP2 DUP2 MLOAD PUSH2 0x5FD SWAP2 SWAP1 PUSH2 0x1423 JUMP JUMPDEST SWAP2 POP DUP2 DUP2 MSTORE POP POP PUSH2 0x623 JUMP JUMPDEST DUP10 DUP5 PUSH1 0xA0 ADD DUP2 DUP2 MLOAD PUSH2 0x61B SWAP2 SWAP1 PUSH2 0x1423 JUMP JUMPDEST SWAP2 POP DUP2 DUP2 MSTORE POP POP JUMPDEST JUMPDEST JUMPDEST DUP10 PUSH1 0x2 DUP3 PUSH1 0x40 MLOAD PUSH2 0x636 SWAP2 SWAP1 PUSH2 0x125A JUMP JUMPDEST SWAP1 DUP2 MSTORE PUSH1 0x20 ADD PUSH1 0x40 MLOAD DUP1 SWAP2 SUB SWAP1 KECCAK256 PUSH1 0x0 DUP3 DUP3 SLOAD PUSH2 0x653 SWAP2 SWAP1 PUSH2 0x1423 JUMP JUMPDEST SWAP3 POP POP DUP2 SWAP1 SSTORE POP POP POP POP POP SWAP7 SWAP6 POP POP POP POP POP POP JUMP JUMPDEST PUSH1 0x60 DUP1 PUSH1 0x60 PUSH1 0x0 DUP1 PUSH1 0x0 DUP1 PUSH2 0x67C DUP9 PUSH2 0xAAC JUMP JUMPDEST PUSH2 0x6BB JUMPI PUSH1 0x40 MLOAD PUSH32 0x8C379A000000000000000000000000000000000000000000000000000000000 DUP2 MSTORE PUSH1 0x4 ADD PUSH2 0x6B2 SWAP1 PUSH2 0x1346 JUMP JUMPDEST PUSH1 0x40 MLOAD DUP1 SWAP2 SUB SWAP1 REVERT JUMPDEST PUSH1 0x3 PUSH1 0x0 DUP10 DUP2 MSTORE PUSH1 0x20 ADD SWAP1 DUP2 MSTORE PUSH1 0x20 ADD PUSH1 0x0 KECCAK256 PUSH1 0x0 ADD PUSH1 0x3 PUSH1 0x0 DUP11 DUP2 MSTORE PUSH1 0x20 ADD SWAP1 DUP2 MSTORE PUSH1 0x20 ADD PUSH1 0x0 KECCAK256 PUSH1 0x1 ADD PUSH1 0x3 PUSH1 0x0 DUP12 DUP2 MSTORE PUSH1 0x20 ADD SWAP1 DUP2 MSTORE PUSH1 0x20 ADD PUSH1 0x0 KECCAK256 PUSH1 0x2 ADD PUSH1 0x3 PUSH1 0x0 DUP13 DUP2 MSTORE PUSH1 0x20 ADD SWAP1 DUP2 MSTORE PUSH1 0x20 ADD PUSH1 0x0 KECCAK256 PUSH1 0x3 ADD SLOAD PUSH1 0x3 PUSH1 0x0 DUP14 DUP2 MSTORE PUSH1 0x20 ADD SWAP1 DUP2 MSTORE PUSH1 0x20 ADD PUSH1 0x0 KECCAK256 PUSH1 0x4 ADD SLOAD PUSH1 0x3 PUSH1 0x0 DUP15 DUP2 MSTORE PUSH1 0x20 ADD SWAP1 DUP2 MSTORE PUSH1 0x20 ADD PUSH1 0x0 KECCAK256 PUSH1 0x5 ADD SLOAD PUSH1 0x3 PUSH1 0x0 DUP16 DUP2 MSTORE PUSH1 0x20 ADD SWAP1 DUP2 MSTORE PUSH1 0x20 ADD PUSH1 0x0 KECCAK256 PUSH1 0x6 ADD SLOAD DUP7 DUP1 SLOAD PUSH2 0x765 SWAP1 PUSH2 0x1567 JUMP JUMPDEST DUP1 PUSH1 0x1F ADD PUSH1 0x20 DUP1 SWAP2 DIV MUL PUSH1 0x20 ADD PUSH1 0x40 MLOAD SWAP1 DUP2 ADD PUSH1 0x40 MSTORE DUP1 SWAP3 SWAP2 SWAP1 DUP2 DUP2 MSTORE PUSH1 0x20 ADD DUP3 DUP1 SLOAD PUSH2 0x791 SWAP1 PUSH2 0x1567 JUMP JUMPDEST DUP1 ISZERO PUSH2 0x7DE JUMPI DUP1 PUSH1 0x1F LT PUSH2 0x7B3 JUMPI PUSH2 0x100 DUP1 DUP4 SLOAD DIV MUL DUP4 MSTORE SWAP2 PUSH1 0x20 ADD SWAP2 PUSH2 0x7DE JUMP JUMPDEST DUP3 ADD SWAP2 SWAP1 PUSH1 0x0 MSTORE PUSH1 0x20 PUSH1 0x0 KECCAK256 SWAP1 JUMPDEST DUP2 SLOAD DUP2 MSTORE SWAP1 PUSH1 0x1 ADD SWAP1 PUSH1 0x20 ADD DUP1 DUP4 GT PUSH2 0x7C1 JUMPI DUP3 SWAP1 SUB PUSH1 0x1F AND DUP3 ADD SWAP2 JUMPDEST POP POP POP POP POP SWAP7 POP DUP6 DUP1 SLOAD PUSH2 0x7F1 SWAP1 PUSH2 0x1567 JUMP JUMPDEST DUP1 PUSH1 0x1F ADD PUSH1 0x20 DUP1 SWAP2 DIV MUL PUSH1 0x20 ADD PUSH1 0x40 MLOAD SWAP1 DUP2 ADD PUSH1 0x40 MSTORE DUP1 SWAP3 SWAP2 SWAP1 DUP2 DUP2 MSTORE PUSH1 0x20 ADD DUP3 DUP1 SLOAD PUSH2 0x81D SWAP1 PUSH2 0x1567 JUMP JUMPDEST DUP1 ISZERO PUSH2 0x86A JUMPI DUP1 PUSH1 0x1F LT PUSH2 0x83F JUMPI PUSH2 0x100 DUP1 DUP4 SLOAD DIV MUL DUP4 MSTORE SWAP2 PUSH1 0x20 ADD SWAP2 PUSH2 0x86A JUMP JUMPDEST DUP3 ADD SWAP2 SWAP1 PUSH1 0x0 MSTORE PUSH1 0x20 PUSH1 0x0 KECCAK256 SWAP1 JUMPDEST DUP2 SLOAD DUP2 MSTORE SWAP1 PUSH1 0x1 ADD SWAP1 PUSH1 0x20 ADD DUP1 DUP4 GT PUSH2 0x84D JUMPI DUP3 SWAP1 SUB PUSH1 0x1F AND DUP3 ADD SWAP2 JUMPDEST POP POP POP POP POP SWAP6 POP DUP5 DUP1 SLOAD PUSH2 0x87D SWAP1 PUSH2 0x1567 JUMP JUMPDEST DUP1 PUSH1 0x1F ADD PUSH1 0x20 DUP1 SWAP2 DIV MUL PUSH1 0x20 ADD PUSH1 0x40 MLOAD SWAP1 DUP2 ADD PUSH1 0x40 MSTORE DUP1 SWAP3 SWAP2 SWAP1 DUP2 DUP2 MSTORE PUSH1 0x20 ADD DUP3 DUP1 SLOAD PUSH2 0x8A9 SWAP1 PUSH2 0x1567 JUMP JUMPDEST DUP1 ISZERO PUSH2 0x8F6 JUMPI DUP1 PUSH1 0x1F LT PUSH2 0x8CB JUMPI PUSH2 0x100 DUP1 DUP4 SLOAD DIV MUL DUP4 MSTORE SWAP2 PUSH1 0x20 ADD SWAP2 PUSH2 0x8F6 JUMP JUMPDEST DUP3 ADD SWAP2 SWAP1 PUSH1 0x0 MSTORE PUSH1 0x20 PUSH1 0x0 KECCAK256 SWAP1 JUMPDEST DUP2 SLOAD DUP2 MSTORE SWAP1 PUSH1 0x1 ADD SWAP1 PUSH1 0x20 ADD DUP1 DUP4 GT PUSH2 0x8D9 JUMPI DUP3 SWAP1 SUB PUSH1 0x1F AND DUP3 ADD SWAP2 JUMPDEST POP POP POP POP POP SWAP5 POP SWAP7 POP SWAP7 POP SWAP7 POP SWAP7 POP SWAP7 POP SWAP7 POP SWAP7 POP SWAP2 SWAP4 SWAP6 SWAP8 SWAP1 SWAP3 SWAP5 SWAP7 POP JUMP JUMPDEST PUSH1 0x60 PUSH1 0x0 DUP4 SWAP1 POP PUSH1 0x0 DUP4 SWAP1 POP PUSH1 0x0 DUP2 MLOAD DUP4 MLOAD PUSH2 0x932 SWAP2 SWAP1 PUSH2 0x1423 JUMP JUMPDEST PUSH8 0xFFFFFFFFFFFFFFFF DUP2 GT ISZERO PUSH2 0x94B JUMPI PUSH2 0x94A PUSH2 0x16CE JUMP JUMPDEST JUMPDEST PUSH1 0x40 MLOAD SWAP1 DUP1 DUP3 MSTORE DUP1 PUSH1 0x1F ADD PUSH1 0x1F NOT AND PUSH1 0x20 ADD DUP3 ADD PUSH1 0x40 MSTORE DUP1 ISZERO PUSH2 0x97D JUMPI DUP2 PUSH1 0x20 ADD PUSH1 0x1 DUP3 MUL DUP1 CALLDATASIZE DUP4 CALLDATACOPY DUP1 DUP3 ADD SWAP2 POP POP SWAP1 POP JUMPDEST POP SWAP1 POP PUSH1 0x0 DUP2 SWAP1 POP PUSH1 0x0 DUP1 JUMPDEST DUP6 MLOAD DUP2 LT ISZERO PUSH2 0xA11 JUMPI DUP6 DUP2 DUP2 MLOAD DUP2 LT PUSH2 0x9A5 JUMPI PUSH2 0x9A4 PUSH2 0x169F JUMP JUMPDEST JUMPDEST PUSH1 0x20 ADD ADD MLOAD PUSH1 0xF8 SHR PUSH1 0xF8 SHL DUP4 DUP4 DUP1 PUSH2 0x9BC SWAP1 PUSH2 0x15CA JUMP JUMPDEST SWAP5 POP DUP2 MLOAD DUP2 LT PUSH2 0x9CF JUMPI PUSH2 0x9CE PUSH2 0x169F JUMP JUMPDEST JUMPDEST PUSH1 0x20 ADD ADD SWAP1 PUSH31 0xFFFFFFFFFFFFFFFFFFFFFFFFFFFFFFFFFFFFFFFFFFFFFFFFFFFFFFFFFFFFFF NOT AND SWAP1 DUP2 PUSH1 0x0 BYTE SWAP1 MSTORE8 POP DUP1 DUP1 PUSH2 0xA09 SWAP1 PUSH2 0x15CA JUMP JUMPDEST SWAP2 POP POP PUSH2 0x989 JUMP JUMPDEST POP PUSH1 0x0 JUMPDEST DUP5 MLOAD DUP2 LT ISZERO PUSH2 0xA9D JUMPI DUP5 DUP2 DUP2 MLOAD DUP2 LT PUSH2 0xA31 JUMPI PUSH2 0xA30 PUSH2 0x169F JUMP JUMPDEST JUMPDEST PUSH1 0x20 ADD ADD MLOAD PUSH1 0xF8 SHR PUSH1 0xF8 SHL DUP4 DUP4 DUP1 PUSH2 0xA48 SWAP1 PUSH2 0x15CA JUMP JUMPDEST SWAP5 POP DUP2 MLOAD DUP2 LT PUSH2 0xA5B JUMPI PUSH2 0xA5A PUSH2 0x169F JUMP JUMPDEST JUMPDEST PUSH1 0x20 ADD ADD SWAP1 PUSH31 0xFFFFFFFFFFFFFFFFFFFFFFFFFFFFFFFFFFFFFFFFFFFFFFFFFFFFFFFFFFFFFF NOT AND SWAP1 DUP2 PUSH1 0x0 BYTE SWAP1 MSTORE8 POP DUP1 DUP1 PUSH2 0xA95 SWAP1 PUSH2 0x15CA JUMP JUMPDEST SWAP2 POP POP PUSH2 0xA15 JUMP JUMPDEST POP DUP3 SWAP6 POP POP POP POP POP POP SWAP3 SWAP2 POP POP JUMP JUMPDEST PUSH1 0x0 PUSH1 0x3 PUSH1 0x0 DUP4 DUP2 MSTORE PUSH1 0x20 ADD SWAP1 DUP2 MSTORE PUSH1 0x20 ADD PUSH1 0x0 KECCAK256 PUSH1 0x7 ADD PUSH1 0x1 SWAP1 SLOAD SWAP1 PUSH2 0x100 EXP SWAP1 DIV PUSH1 0xFF AND SWAP1 POP SWAP2 SWAP1 POP JUMP JUMPDEST PUSH1 0x60 PUSH2 0xB03 DUP3 PUSH1 0x40 MLOAD PUSH1 0x20 ADD PUSH2 0xAEF SWAP2 SWAP1 PUSH2 0x1271 JUMP JUMPDEST PUSH1 0x40 MLOAD PUSH1 0x20 DUP2 DUP4 SUB SUB DUP2 MSTORE SWAP1 PUSH1 0x40 MSTORE PUSH2 0xB3B JUMP JUMPDEST SWAP1 POP SWAP2 SWAP1 POP JUMP JUMPDEST PUSH1 0x60 PUSH2 0xB34 DUP3 PUSH1 0x40 MLOAD PUSH1 0x20 ADD PUSH2 0xB20 SWAP2 SWAP1 PUSH2 0x123F JUMP JUMPDEST PUSH1 0x40 MLOAD PUSH1 0x20 DUP2 DUP4 SUB SUB DUP2 MSTORE SWAP1 PUSH1 0x40 MSTORE PUSH2 0xB3B JUMP JUMPDEST SWAP1 POP SWAP2 SWAP1 POP JUMP JUMPDEST PUSH1 0x60 PUSH1 0x0 PUSH1 0x40 MLOAD DUP1 PUSH1 0x40 ADD PUSH1 0x40 MSTORE DUP1 PUSH1 0x10 DUP2 MSTORE PUSH1 0x20 ADD PUSH32 0x3031323334353637383961626364656600000000000000000000000000000000 DUP2 MSTORE POP SWAP1 POP PUSH1 0x0 PUSH1 0x2 DUP5 MLOAD PUSH2 0xB87 SWAP2 SWAP1 PUSH2 0x1479 JUMP JUMPDEST PUSH1 0x2 PUSH2 0xB93 SWAP2 SWAP1 PUSH2 0x1423 JUMP JUMPDEST PUSH8 0xFFFFFFFFFFFFFFFF DUP2 GT ISZERO PUSH2 0xBAC JUMPI PUSH2 0xBAB PUSH2 0x16CE JUMP JUMPDEST JUMPDEST PUSH1 0x40 MLOAD SWAP1 DUP1 DUP3 MSTORE DUP1 PUSH1 0x1F ADD PUSH1 0x1F NOT AND PUSH1 0x20 ADD DUP3 ADD PUSH1 0x40 MSTORE DUP1 ISZERO PUSH2 0xBDE JUMPI DUP2 PUSH1 0x20 ADD PUSH1 0x1 DUP3 MUL DUP1 CALLDATASIZE DUP4 CALLDATACOPY DUP1 DUP3 ADD SWAP2 POP POP SWAP1 POP JUMPDEST POP SWAP1 POP PUSH32 0x3000000000000000000000000000000000000000000000000000000000000000 DUP2 PUSH1 0x0 DUP2 MLOAD DUP2 LT PUSH2 0xC16 JUMPI PUSH2 0xC15 PUSH2 0x169F JUMP JUMPDEST JUMPDEST PUSH1 0x20 ADD ADD SWAP1 PUSH31 0xFFFFFFFFFFFFFFFFFFFFFFFFFFFFFFFFFFFFFFFFFFFFFFFFFFFFFFFFFFFFFF NOT AND SWAP1 DUP2 PUSH1 0x0 BYTE SWAP1 MSTORE8 POP PUSH32 0x7800000000000000000000000000000000000000000000000000000000000000 DUP2 PUSH1 0x1 DUP2 MLOAD DUP2 LT PUSH2 0xC7A JUMPI PUSH2 0xC79 PUSH2 0x169F JUMP JUMPDEST JUMPDEST PUSH1 0x20 ADD ADD SWAP1 PUSH31 0xFFFFFFFFFFFFFFFFFFFFFFFFFFFFFFFFFFFFFFFFFFFFFFFFFFFFFFFFFFFFFF NOT AND SWAP1 DUP2 PUSH1 0x0 BYTE SWAP1 MSTORE8 POP PUSH1 0x0 JUMPDEST DUP5 MLOAD DUP2 LT ISZERO PUSH2 0xE2A JUMPI DUP3 PUSH1 0x4 DUP7 DUP4 DUP2 MLOAD DUP2 LT PUSH2 0xCCB JUMPI PUSH2 0xCCA PUSH2 0x169F JUMP JUMPDEST JUMPDEST PUSH1 0x20 ADD ADD MLOAD PUSH1 0xF8 SHR PUSH1 0xF8 SHL PUSH31 0xFFFFFFFFFFFFFFFFFFFFFFFFFFFFFFFFFFFFFFFFFFFFFFFFFFFFFFFFFFFFFF NOT AND SWAP1 SHR PUSH1 0xF8 SHR PUSH1 0xFF AND DUP2 MLOAD DUP2 LT PUSH2 0xD11 JUMPI PUSH2 0xD10 PUSH2 0x169F JUMP JUMPDEST JUMPDEST PUSH1 0x20 ADD ADD MLOAD PUSH1 0xF8 SHR PUSH1 0xF8 SHL DUP3 PUSH1 0x2 DUP4 PUSH2 0xD2A SWAP2 SWAP1 PUSH2 0x1479 JUMP JUMPDEST PUSH1 0x2 PUSH2 0xD36 SWAP2 SWAP1 PUSH2 0x1423 JUMP JUMPDEST DUP2 MLOAD DUP2 LT PUSH2 0xD47 JUMPI PUSH2 0xD46 PUSH2 0x169F JUMP JUMPDEST JUMPDEST PUSH1 0x20 ADD ADD SWAP1 PUSH31 0xFFFFFFFFFFFFFFFFFFFFFFFFFFFFFFFFFFFFFFFFFFFFFFFFFFFFFFFFFFFFFF NOT AND SWAP1 DUP2 PUSH1 0x0 BYTE SWAP1 MSTORE8 POP DUP3 PUSH1 0xF PUSH1 0xF8 SHL DUP7 DUP4 DUP2 MLOAD DUP2 LT PUSH2 0xD8F JUMPI PUSH2 0xD8E PUSH2 0x169F JUMP JUMPDEST JUMPDEST PUSH1 0x20 ADD ADD MLOAD PUSH1 0xF8 SHR PUSH1 0xF8 SHL AND PUSH1 0xF8 SHR PUSH1 0xFF AND DUP2 MLOAD DUP2 LT PUSH2 0xDB2 JUMPI PUSH2 0xDB1 PUSH2 0x169F JUMP JUMPDEST JUMPDEST PUSH1 0x20 ADD ADD MLOAD PUSH1 0xF8 SHR PUSH1 0xF8 SHL DUP3 PUSH1 0x2 DUP4 PUSH2 0xDCB SWAP2 SWAP1 PUSH2 0x1479 JUMP JUMPDEST PUSH1 0x3 PUSH2 0xDD7 SWAP2 SWAP1 PUSH2 0x1423 JUMP JUMPDEST DUP2 MLOAD DUP2 LT PUSH2 0xDE8 JUMPI PUSH2 0xDE7 PUSH2 0x169F JUMP JUMPDEST JUMPDEST PUSH1 0x20 ADD ADD SWAP1 PUSH31 0xFFFFFFFFFFFFFFFFFFFFFFFFFFFFFFFFFFFFFFFFFFFFFFFFFFFFFFFFFFFFFF NOT AND SWAP1 DUP2 PUSH1 0x0 BYTE SWAP1 MSTORE8 POP DUP1 DUP1 PUSH2 0xE22 SWAP1 PUSH2 0x15CA JUMP JUMPDEST SWAP2 POP POP PUSH2 0xCAC JUMP JUMPDEST POP DUP1 SWAP3 POP POP POP SWAP2 SWAP1 POP JUMP JUMPDEST DUP3 DUP1 SLOAD PUSH2 0xE41 SWAP1 PUSH2 0x1567 JUMP JUMPDEST SWAP1 PUSH1 0x0 MSTORE PUSH1 0x20 PUSH1 0x0 KECCAK256 SWAP1 PUSH1 0x1F ADD PUSH1 0x20 SWAP1 DIV DUP2 ADD SWAP3 DUP3 PUSH2 0xE63 JUMPI PUSH1 0x0 DUP6 SSTORE PUSH2 0xEAA JUMP JUMPDEST DUP3 PUSH1 0x1F LT PUSH2 0xE7C JUMPI DUP1 MLOAD PUSH1 0xFF NOT AND DUP4 DUP1 ADD OR DUP6 SSTORE PUSH2 0xEAA JUMP JUMPDEST DUP3 DUP1 ADD PUSH1 0x1 ADD DUP6 SSTORE DUP3 ISZERO PUSH2 0xEAA JUMPI SWAP2 DUP3 ADD JUMPDEST DUP3 DUP2 GT ISZERO PUSH2 0xEA9 JUMPI DUP3 MLOAD DUP3 SSTORE SWAP2 PUSH1 0x20 ADD SWAP2 SWAP1 PUSH1 0x1 ADD SWAP1 PUSH2 0xE8E JUMP JUMPDEST JUMPDEST POP SWAP1 POP PUSH2 0xEB7 SWAP2 SWAP1 PUSH2 0xEBB JUMP JUMPDEST POP SWAP1 JUMP JUMPDEST JUMPDEST DUP1 DUP3 GT ISZERO PUSH2 0xED4 JUMPI PUSH1 0x0 DUP2 PUSH1 0x0 SWAP1 SSTORE POP PUSH1 0x1 ADD PUSH2 0xEBC JUMP JUMPDEST POP SWAP1 JUMP JUMPDEST PUSH1 0x0 PUSH2 0xEEB PUSH2 0xEE6 DUP5 PUSH2 0x13CB JUMP JUMPDEST PUSH2 0x13A6 JUMP JUMPDEST SWAP1 POP DUP3 DUP2 MSTORE PUSH1 0x20 DUP2 ADD DUP5 DUP5 DUP5 ADD GT ISZERO PUSH2 0xF07 JUMPI PUSH2 0xF06 PUSH2 0x1702 JUMP JUMPDEST JUMPDEST PUSH2 0xF12 DUP5 DUP3 DUP6 PUSH2 0x1525 JUMP JUMPDEST POP SWAP4 SWAP3 POP POP POP JUMP JUMPDEST PUSH1 0x0 DUP2 CALLDATALOAD SWAP1 POP PUSH2 0xF29 DUP2 PUSH2 0x17AA JUMP JUMPDEST SWAP3 SWAP2 POP POP JUMP JUMPDEST PUSH1 0x0 DUP2 CALLDATALOAD SWAP1 POP PUSH2 0xF3E DUP2 PUSH2 0x17C1 JUMP JUMPDEST SWAP3 SWAP2 POP POP JUMP JUMPDEST PUSH1 0x0 DUP2 CALLDATALOAD SWAP1 POP PUSH2 0xF53 DUP2 PUSH2 0x17D8 JUMP JUMPDEST SWAP3 SWAP2 POP POP JUMP JUMPDEST PUSH1 0x0 DUP3 PUSH1 0x1F DUP4 ADD SLT PUSH2 0xF6E JUMPI PUSH2 0xF6D PUSH2 0x16FD JUMP JUMPDEST JUMPDEST DUP2 CALLDATALOAD PUSH2 0xF7E DUP5 DUP3 PUSH1 0x20 DUP7 ADD PUSH2 0xED8 JUMP JUMPDEST SWAP2 POP POP SWAP3 SWAP2 POP POP JUMP JUMPDEST PUSH1 0x0 DUP2 CALLDATALOAD SWAP1 POP PUSH2 0xF96 DUP2 PUSH2 0x17EF JUMP JUMPDEST SWAP3 SWAP2 POP POP JUMP JUMPDEST PUSH1 0x0 DUP1 PUSH1 0x0 DUP1 PUSH1 0x0 DUP1 PUSH1 0xC0 DUP8 DUP10 SUB SLT ISZERO PUSH2 0xFB9 JUMPI PUSH2 0xFB8 PUSH2 0x170C JUMP JUMPDEST JUMPDEST PUSH1 0x0 PUSH2 0xFC7 DUP10 DUP3 DUP11 ADD PUSH2 0xF1A JUMP JUMPDEST SWAP7 POP POP PUSH1 0x20 PUSH2 0xFD8 DUP10 DUP3 DUP11 ADD PUSH2 0xF87 JUMP JUMPDEST SWAP6 POP POP PUSH1 0x40 PUSH2 0xFE9 DUP10 DUP3 DUP11 ADD PUSH2 0xF44 JUMP JUMPDEST SWAP5 POP POP PUSH1 0x60 PUSH2 0xFFA DUP10 DUP3 DUP11 ADD PUSH2 0xF87 JUMP JUMPDEST SWAP4 POP POP PUSH1 0x80 PUSH2 0x100B DUP10 DUP3 DUP11 ADD PUSH2 0xF87 JUMP JUMPDEST SWAP3 POP POP PUSH1 0xA0 PUSH2 0x101C DUP10 DUP3 DUP11 ADD PUSH2 0xF87 JUMP JUMPDEST SWAP2 POP POP SWAP3 SWAP6 POP SWAP3 SWAP6 POP SWAP3 SWAP6 JUMP JUMPDEST PUSH1 0x0 PUSH1 0x20 DUP3 DUP5 SUB SLT ISZERO PUSH2 0x103F JUMPI PUSH2 0x103E PUSH2 0x170C JUMP JUMPDEST JUMPDEST PUSH1 0x0 PUSH2 0x104D DUP5 DUP3 DUP6 ADD PUSH2 0xF44 JUMP JUMPDEST SWAP2 POP POP SWAP3 SWAP2 POP POP JUMP JUMPDEST PUSH1 0x0 DUP1 PUSH1 0x0 DUP1 PUSH1 0x80 DUP6 DUP8 SUB SLT ISZERO PUSH2 0x1070 JUMPI PUSH2 0x106F PUSH2 0x170C JUMP JUMPDEST JUMPDEST PUSH1 0x0 DUP6 ADD CALLDATALOAD PUSH8 0xFFFFFFFFFFFFFFFF DUP2 GT ISZERO PUSH2 0x108E JUMPI PUSH2 0x108D PUSH2 0x1707 JUMP JUMPDEST JUMPDEST PUSH2 0x109A DUP8 DUP3 DUP9 ADD PUSH2 0xF59 JUMP JUMPDEST SWAP5 POP POP PUSH1 0x20 DUP6 ADD CALLDATALOAD PUSH8 0xFFFFFFFFFFFFFFFF DUP2 GT ISZERO PUSH2 0x10BB JUMPI PUSH2 0x10BA PUSH2 0x1707 JUMP JUMPDEST JUMPDEST PUSH2 0x10C7 DUP8 DUP3 DUP9 ADD PUSH2 0xF59 JUMP JUMPDEST SWAP4 POP POP PUSH1 0x40 DUP6 ADD CALLDATALOAD PUSH8 0xFFFFFFFFFFFFFFFF DUP2 GT ISZERO PUSH2 0x10E8 JUMPI PUSH2 0x10E7 PUSH2 0x1707 JUMP JUMPDEST JUMPDEST PUSH2 0x10F4 DUP8 DUP3 DUP9 ADD PUSH2 0xF59 JUMP JUMPDEST SWAP3 POP POP PUSH1 0x60 PUSH2 0x1105 DUP8 DUP3 DUP9 ADD PUSH2 0xF2F JUMP JUMPDEST SWAP2 POP POP SWAP3 SWAP6 SWAP2 SWAP5 POP SWAP3 POP JUMP JUMPDEST PUSH2 0x1122 PUSH2 0x111D DUP3 PUSH2 0x14D3 JUMP JUMPDEST PUSH2 0x1613 JUMP JUMPDEST DUP3 MSTORE POP POP JUMP JUMPDEST PUSH2 0x1131 DUP2 PUSH2 0x14E5 JUMP JUMPDEST DUP3 MSTORE POP POP JUMP JUMPDEST PUSH2 0x1140 DUP2 PUSH2 0x14F1 JUMP JUMPDEST DUP3 MSTORE POP POP JUMP JUMPDEST PUSH1 0x0 PUSH2 0x1151 DUP3 PUSH2 0x13FC JUMP JUMPDEST PUSH2 0x115B DUP2 DUP6 PUSH2 0x1407 JUMP JUMPDEST SWAP4 POP PUSH2 0x116B DUP2 DUP6 PUSH1 0x20 DUP7 ADD PUSH2 0x1534 JUMP JUMPDEST PUSH2 0x1174 DUP2 PUSH2 0x1711 JUMP JUMPDEST DUP5 ADD SWAP2 POP POP SWAP3 SWAP2 POP POP JUMP JUMPDEST PUSH1 0x0 PUSH2 0x118A DUP3 PUSH2 0x13FC JUMP JUMPDEST PUSH2 0x1194 DUP2 DUP6 PUSH2 0x1418 JUMP JUMPDEST SWAP4 POP PUSH2 0x11A4 DUP2 DUP6 PUSH1 0x20 DUP7 ADD PUSH2 0x1534 JUMP JUMPDEST DUP1 DUP5 ADD SWAP2 POP POP SWAP3 SWAP2 POP POP JUMP JUMPDEST PUSH1 0x0 PUSH2 0x11BD PUSH1 0x9 DUP4 PUSH2 0x1407 JUMP JUMPDEST SWAP2 POP PUSH2 0x11C8 DUP3 PUSH2 0x172F JUMP JUMPDEST PUSH1 0x20 DUP3 ADD SWAP1 POP SWAP2 SWAP1 POP JUMP JUMPDEST PUSH1 0x0 PUSH2 0x11E0 PUSH1 0xE DUP4 PUSH2 0x1407 JUMP JUMPDEST SWAP2 POP PUSH2 0x11EB DUP3 PUSH2 0x1758 JUMP JUMPDEST PUSH1 0x20 DUP3 ADD SWAP1 POP SWAP2 SWAP1 POP JUMP JUMPDEST PUSH1 0x0 PUSH2 0x1203 PUSH1 0xA DUP4 PUSH2 0x1407 JUMP JUMPDEST SWAP2 POP PUSH2 0x120E DUP3 PUSH2 0x1781 JUMP JUMPDEST PUSH1 0x20 DUP3 ADD SWAP1 POP SWAP2 SWAP1 POP JUMP JUMPDEST PUSH2 0x1222 DUP2 PUSH2 0x151B JUMP JUMPDEST DUP3 MSTORE POP POP JUMP JUMPDEST PUSH2 0x1239 PUSH2 0x1234 DUP3 PUSH2 0x151B JUMP JUMPDEST PUSH2 0x1637 JUMP JUMPDEST DUP3 MSTORE POP POP JUMP JUMPDEST PUSH1 0x0 PUSH2 0x124B DUP3 DUP5 PUSH2 0x1111 JUMP JUMPDEST PUSH1 0x14 DUP3 ADD SWAP2 POP DUP2 SWAP1 POP SWAP3 SWAP2 POP POP JUMP JUMPDEST PUSH1 0x0 PUSH2 0x1266 DUP3 DUP5 PUSH2 0x117F JUMP JUMPDEST SWAP2 POP DUP2 SWAP1 POP SWAP3 SWAP2 POP POP JUMP JUMPDEST PUSH1 0x0 PUSH2 0x127D DUP3 DUP5 PUSH2 0x1228 JUMP JUMPDEST PUSH1 0x20 DUP3 ADD SWAP2 POP DUP2 SWAP1 POP SWAP3 SWAP2 POP POP JUMP JUMPDEST PUSH1 0x0 PUSH1 0x20 DUP3 ADD SWAP1 POP PUSH2 0x12A1 PUSH1 0x0 DUP4 ADD DUP5 PUSH2 0x1128 JUMP JUMPDEST SWAP3 SWAP2 POP POP JUMP JUMPDEST PUSH1 0x0 PUSH1 0x20 DUP3 ADD SWAP1 POP PUSH2 0x12BC PUSH1 0x0 DUP4 ADD DUP5 PUSH2 0x1137 JUMP JUMPDEST SWAP3 SWAP2 POP POP JUMP JUMPDEST PUSH1 0x0 PUSH1 0xE0 DUP3 ADD SWAP1 POP DUP2 DUP2 SUB PUSH1 0x0 DUP4 ADD MSTORE PUSH2 0x12DC DUP2 DUP11 PUSH2 0x1146 JUMP JUMPDEST SWAP1 POP DUP2 DUP2 SUB PUSH1 0x20 DUP4 ADD MSTORE PUSH2 0x12F0 DUP2 DUP10 PUSH2 0x1146 JUMP JUMPDEST SWAP1 POP DUP2 DUP2 SUB PUSH1 0x40 DUP4 ADD MSTORE PUSH2 0x1304 DUP2 DUP9 PUSH2 0x1146 JUMP JUMPDEST SWAP1 POP PUSH2 0x1313 PUSH1 0x60 DUP4 ADD DUP8 PUSH2 0x1219 JUMP JUMPDEST PUSH2 0x1320 PUSH1 0x80 DUP4 ADD DUP7 PUSH2 0x1219 JUMP JUMPDEST PUSH2 0x132D PUSH1 0xA0 DUP4 ADD DUP6 PUSH2 0x1219 JUMP JUMPDEST PUSH2 0x133A PUSH1 0xC0 DUP4 ADD DUP5 PUSH2 0x1219 JUMP JUMPDEST SWAP9 SWAP8 POP POP POP POP POP POP POP POP JUMP JUMPDEST PUSH1 0x0 PUSH1 0x20 DUP3 ADD SWAP1 POP DUP2 DUP2 SUB PUSH1 0x0 DUP4 ADD MSTORE PUSH2 0x135F DUP2 PUSH2 0x11B0 JUMP JUMPDEST SWAP1 POP SWAP2 SWAP1 POP JUMP JUMPDEST PUSH1 0x0 PUSH1 0x20 DUP3 ADD SWAP1 POP DUP2 DUP2 SUB PUSH1 0x0 DUP4 ADD MSTORE PUSH2 0x137F DUP2 PUSH2 0x11D3 JUMP JUMPDEST SWAP1 POP SWAP2 SWAP1 POP JUMP JUMPDEST PUSH1 0x0 PUSH1 0x20 DUP3 ADD SWAP1 POP DUP2 DUP2 SUB PUSH1 0x0 DUP4 ADD MSTORE PUSH2 0x139F DUP2 PUSH2 0x11F6 JUMP JUMPDEST SWAP1 POP SWAP2 SWAP1 POP JUMP JUMPDEST PUSH1 0x0 PUSH2 0x13B0 PUSH2 0x13C1 JUMP JUMPDEST SWAP1 POP PUSH2 0x13BC DUP3 DUP3 PUSH2 0x1599 JUMP JUMPDEST SWAP2 SWAP1 POP JUMP JUMPDEST PUSH1 0x0 PUSH1 0x40 MLOAD SWAP1 POP SWAP1 JUMP JUMPDEST PUSH1 0x0 PUSH8 0xFFFFFFFFFFFFFFFF DUP3 GT ISZERO PUSH2 0x13E6 JUMPI PUSH2 0x13E5 PUSH2 0x16CE JUMP JUMPDEST JUMPDEST PUSH2 0x13EF DUP3 PUSH2 0x1711 JUMP JUMPDEST SWAP1 POP PUSH1 0x20 DUP2 ADD SWAP1 POP SWAP2 SWAP1 POP JUMP JUMPDEST PUSH1 0x0 DUP2 MLOAD SWAP1 POP SWAP2 SWAP1 POP JUMP JUMPDEST PUSH1 0x0 DUP3 DUP3 MSTORE PUSH1 0x20 DUP3 ADD SWAP1 POP SWAP3 SWAP2 POP POP JUMP JUMPDEST PUSH1 0x0 DUP2 SWAP1 POP SWAP3 SWAP2 POP POP JUMP JUMPDEST PUSH1 0x0 PUSH2 0x142E DUP3 PUSH2 0x151B JUMP JUMPDEST SWAP2 POP PUSH2 0x1439 DUP4 PUSH2 0x151B JUMP JUMPDEST SWAP3 POP DUP3 PUSH32 0xFFFFFFFFFFFFFFFFFFFFFFFFFFFFFFFFFFFFFFFFFFFFFFFFFFFFFFFFFFFFFFFF SUB DUP3 GT ISZERO PUSH2 0x146E JUMPI PUSH2 0x146D PUSH2 0x1641 JUMP JUMPDEST JUMPDEST DUP3 DUP3 ADD SWAP1 POP SWAP3 SWAP2 POP POP JUMP JUMPDEST PUSH1 0x0 PUSH2 0x1484 DUP3 PUSH2 0x151B JUMP JUMPDEST SWAP2 POP PUSH2 0x148F DUP4 PUSH2 0x151B JUMP JUMPDEST SWAP3 POP DUP2 PUSH32 0xFFFFFFFFFFFFFFFFFFFFFFFFFFFFFFFFFFFFFFFFFFFFFFFFFFFFFFFFFFFFFFFF DIV DUP4 GT DUP3 ISZERO ISZERO AND ISZERO PUSH2 0x14C8 JUMPI PUSH2 0x14C7 PUSH2 0x1641 JUMP JUMPDEST JUMPDEST DUP3 DUP3 MUL SWAP1 POP SWAP3 SWAP2 POP POP JUMP JUMPDEST PUSH1 0x0 PUSH2 0x14DE DUP3 PUSH2 0x14FB JUMP JUMPDEST SWAP1 POP SWAP2 SWAP1 POP JUMP JUMPDEST PUSH1 0x0 DUP2 ISZERO ISZERO SWAP1 POP SWAP2 SWAP1 POP JUMP JUMPDEST PUSH1 0x0 DUP2 SWAP1 POP SWAP2 SWAP1 POP JUMP JUMPDEST PUSH1 0x0 PUSH20 0xFFFFFFFFFFFFFFFFFFFFFFFFFFFFFFFFFFFFFFFF DUP3 AND SWAP1 POP SWAP2 SWAP1 POP JUMP JUMPDEST PUSH1 0x0 DUP2 SWAP1 POP SWAP2 SWAP1 POP JUMP JUMPDEST DUP3 DUP2 DUP4 CALLDATACOPY PUSH1 0x0 DUP4 DUP4 ADD MSTORE POP POP POP JUMP JUMPDEST PUSH1 0x0 JUMPDEST DUP4 DUP2 LT ISZERO PUSH2 0x1552 JUMPI DUP1 DUP3 ADD MLOAD DUP2 DUP5 ADD MSTORE PUSH1 0x20 DUP2 ADD SWAP1 POP PUSH2 0x1537 JUMP JUMPDEST DUP4 DUP2 GT ISZERO PUSH2 0x1561 JUMPI PUSH1 0x0 DUP5 DUP5 ADD MSTORE JUMPDEST POP POP POP POP JUMP JUMPDEST PUSH1 0x0 PUSH1 0x2 DUP3 DIV SWAP1 POP PUSH1 0x1 DUP3 AND DUP1 PUSH2 0x157F JUMPI PUSH1 0x7F DUP3 AND SWAP2 POP JUMPDEST PUSH1 0x20 DUP3 LT DUP2 EQ ISZERO PUSH2 0x1593 JUMPI PUSH2 0x1592 PUSH2 0x1670 JUMP JUMPDEST JUMPDEST POP SWAP2 SWAP1 POP JUMP JUMPDEST PUSH2 0x15A2 DUP3 PUSH2 0x1711 JUMP JUMPDEST DUP2 ADD DUP2 DUP2 LT PUSH8 0xFFFFFFFFFFFFFFFF DUP3 GT OR ISZERO PUSH2 0x15C1 JUMPI PUSH2 0x15C0 PUSH2 0x16CE JUMP JUMPDEST JUMPDEST DUP1 PUSH1 0x40 MSTORE POP POP POP JUMP JUMPDEST PUSH1 0x0 PUSH2 0x15D5 DUP3 PUSH2 0x151B JUMP JUMPDEST SWAP2 POP PUSH32 0xFFFFFFFFFFFFFFFFFFFFFFFFFFFFFFFFFFFFFFFFFFFFFFFFFFFFFFFFFFFFFFFF DUP3 EQ ISZERO PUSH2 0x1608 JUMPI PUSH2 0x1607 PUSH2 0x1641 JUMP JUMPDEST JUMPDEST PUSH1 0x1 DUP3 ADD SWAP1 POP SWAP2 SWAP1 POP JUMP JUMPDEST PUSH1 0x0 PUSH2 0x161E DUP3 PUSH2 0x1625 JUMP JUMPDEST SWAP1 POP SWAP2 SWAP1 POP JUMP JUMPDEST PUSH1 0x0 PUSH2 0x1630 DUP3 PUSH2 0x1722 JUMP JUMPDEST SWAP1 POP SWAP2 SWAP1 POP JUMP JUMPDEST PUSH1 0x0 DUP2 SWAP1 POP SWAP2 SWAP1 POP JUMP JUMPDEST PUSH32 0x4E487B7100000000000000000000000000000000000000000000000000000000 PUSH1 0x0 MSTORE PUSH1 0x11 PUSH1 0x4 MSTORE PUSH1 0x24 PUSH1 0x0 REVERT JUMPDEST PUSH32 0x4E487B7100000000000000000000000000000000000000000000000000000000 PUSH1 0x0 MSTORE PUSH1 0x22 PUSH1 0x4 MSTORE PUSH1 0x24 PUSH1 0x0 REVERT JUMPDEST PUSH32 0x4E487B7100000000000000000000000000000000000000000000000000000000 PUSH1 0x0 MSTORE PUSH1 0x32 PUSH1 0x4 MSTORE PUSH1 0x24 PUSH1 0x0 REVERT JUMPDEST PUSH32 0x4E487B7100000000000000000000000000000000000000000000000000000000 PUSH1 0x0 MSTORE PUSH1 0x41 PUSH1 0x4 MSTORE PUSH1 0x24 PUSH1 0x0 REVERT JUMPDEST PUSH1 0x0 DUP1 REVERT JUMPDEST PUSH1 0x0 DUP1 REVERT JUMPDEST PUSH1 0x0 DUP1 REVERT JUMPDEST PUSH1 0x0 DUP1 REVERT JUMPDEST PUSH1 0x0 PUSH1 0x1F NOT PUSH1 0x1F DUP4 ADD AND SWAP1 POP SWAP2 SWAP1 POP JUMP JUMPDEST PUSH1 0x0 DUP2 PUSH1 0x60 SHL SWAP1 POP SWAP2 SWAP1 POP JUMP JUMPDEST PUSH32 0x6E6F742065786973740000000000000000000000000000000000000000000000 PUSH1 0x0 DUP3 ADD MSTORE POP JUMP JUMPDEST PUSH32 0x706F6F6C206E6F74206578697374000000000000000000000000000000000000 PUSH1 0x0 DUP3 ADD MSTORE POP JUMP JUMPDEST PUSH32 0x7061697220657869737400000000000000000000000000000000000000000000 PUSH1 0x0 DUP3 ADD MSTORE POP JUMP JUMPDEST PUSH2 0x17B3 DUP2 PUSH2 0x14D3 JUMP JUMPDEST DUP2 EQ PUSH2 0x17BE JUMPI PUSH1 0x0 DUP1 REVERT JUMPDEST POP JUMP JUMPDEST PUSH2 0x17CA DUP2 PUSH2 0x14E5 JUMP JUMPDEST DUP2 EQ PUSH2 0x17D5 JUMPI PUSH1 0x0 DUP1 REVERT JUMPDEST POP JUMP JUMPDEST PUSH2 0x17E1 DUP2 PUSH2 0x14F1 JUMP JUMPDEST DUP2 EQ PUSH2 0x17EC JUMPI PUSH1 0x0 DUP1 REVERT JUMPDEST POP JUMP JUMPDEST PUSH2 0x17F8 DUP2 PUSH2 0x151B JUMP JUMPDEST DUP2 EQ PUSH2 0x1803 JUMPI PUSH1 0x0 DUP1 REVERT JUMPDEST POP JUMP INVALID LOG2 PUSH5 0x6970667358 0x22 SLT KECCAK256 0x2D 0x4E 0x49 ISZERO MSTORE8 0xE9 LT 0xA5 SLOAD CALLDATASIZE 0x2B PUSH5 0x484C5D21D3 0x28 SELFBALANCE JUMPI 0x27 ADDRESS PUSH24 0xD1248305FCD718F4764736F6C6343000807003300000000 "
				},
				"gasEstimates": {
					"creation": {
						"codeDepositCost": "1240800",
						"executionCost": "infinite",
						"totalCost": "infinite"
					},
					"external": {
						"getPair(bytes32)": "infinite",
						"picking(address,uint256,bytes32,uint256,uint256,uint256)": "infinite",
						"set_Pool(string,string,string,bool)": "infinite"
					},
					"internal": {
						"addressToString(address)": "infinite",
						"bytes32ToString(bytes32)": "infinite",
						"contains(bytes32)": "2304",
						"strConcat(string memory,string memory)": "infinite",
						"stringCompare(string memory,string memory)": "infinite",
						"toString(bytes memory)": "infinite",
						"uint256ToString(uint256)": "infinite"
					}
				},
				"methodIdentifiers": {
					"getPair(bytes32)": "b8e5303d",
					"picking(address,uint256,bytes32,uint256,uint256,uint256)": "68a52520",
					"set_Pool(string,string,string,bool)": "3d29c6ff"
				}
			},
			"storageLayout": {
				"storage": [
					{
						"astId": 35,
						"contract": "wwcc-contracts/contracts/wwccPool.sol:WCPOOL",
						"label": "owner",
						"offset": 0,
						"slot": "0",
						"type": "t_address"
					},
					{
						"astId": 39,
						"contract": "wwcc-contracts/contracts/wwccPool.sol:WCPOOL",
						"label": "scorePools",
						"offset": 0,
						"slot": "1",
						"type": "t_mapping(t_string_memory_ptr,t_uint256)"
					},
					{
						"astId": 43,
						"contract": "wwcc-contracts/contracts/wwccPool.sol:WCPOOL",
						"label": "joinerInfo",
						"offset": 0,
						"slot": "2",
						"type": "t_mapping(t_string_memory_ptr,t_uint256)"
					},
					{
						"astId": 48,
						"contract": "wwcc-contracts/contracts/wwccPool.sol:WCPOOL",
						"label": "WcPools",
						"offset": 0,
						"slot": "3",
						"type": "t_mapping(t_bytes32,t_struct(WcPool)20_storage)"
					}
				],
				"types": {
					"t_address": {
						"encoding": "inplace",
						"label": "address",
						"numberOfBytes": "20"
					},
					"t_bool": {
						"encoding": "inplace",
						"label": "bool",
						"numberOfBytes": "1"
					},
					"t_bytes32": {
						"encoding": "inplace",
						"label": "bytes32",
						"numberOfBytes": "32"
					},
					"t_mapping(t_bytes32,t_struct(WcPool)20_storage)": {
						"encoding": "mapping",
						"key": "t_bytes32",
						"label": "mapping(bytes32 => struct WCPOOL.WcPool)",
						"numberOfBytes": "32",
						"value": "t_struct(WcPool)20_storage"
					},
					"t_mapping(t_string_memory_ptr,t_uint256)": {
						"encoding": "mapping",
						"key": "t_string_memory_ptr",
						"label": "mapping(string => uint256)",
						"numberOfBytes": "32",
						"value": "t_uint256"
					},
					"t_string_memory_ptr": {
						"encoding": "bytes",
						"label": "string",
						"numberOfBytes": "32"
					},
					"t_string_storage": {
						"encoding": "bytes",
						"label": "string",
						"numberOfBytes": "32"
					},
					"t_struct(WcPool)20_storage": {
						"encoding": "inplace",
						"label": "struct WCPOOL.WcPool",
						"members": [
							{
								"astId": 3,
								"contract": "wwcc-contracts/contracts/wwccPool.sol:WCPOOL",
								"label": "home",
								"offset": 0,
								"slot": "0",
								"type": "t_string_storage"
							},
							{
								"astId": 5,
								"contract": "wwcc-contracts/contracts/wwccPool.sol:WCPOOL",
								"label": "visit",
								"offset": 0,
								"slot": "1",
								"type": "t_string_storage"
							},
							{
								"astId": 7,
								"contract": "wwcc-contracts/contracts/wwccPool.sol:WCPOOL",
								"label": "rounds",
								"offset": 0,
								"slot": "2",
								"type": "t_string_storage"
							},
							{
								"astId": 9,
								"contract": "wwcc-contracts/contracts/wwccPool.sol:WCPOOL",
								"label": "wPool",
								"offset": 0,
								"slot": "3",
								"type": "t_uint256"
							},
							{
								"astId": 11,
								"contract": "wwcc-contracts/contracts/wwccPool.sol:WCPOOL",
								"label": "dPool",
								"offset": 0,
								"slot": "4",
								"type": "t_uint256"
							},
							{
								"astId": 13,
								"contract": "wwcc-contracts/contracts/wwccPool.sol:WCPOOL",
								"label": "lPool",
								"offset": 0,
								"slot": "5",
								"type": "t_uint256"
							},
							{
								"astId": 15,
								"contract": "wwcc-contracts/contracts/wwccPool.sol:WCPOOL",
								"label": "sPool",
								"offset": 0,
								"slot": "6",
								"type": "t_uint256"
							},
							{
								"astId": 17,
								"contract": "wwcc-contracts/contracts/wwccPool.sol:WCPOOL",
								"label": "decided",
								"offset": 0,
								"slot": "7",
								"type": "t_bool"
							},
							{
								"astId": 19,
								"contract": "wwcc-contracts/contracts/wwccPool.sol:WCPOOL",
								"label": "used",
								"offset": 1,
								"slot": "7",
								"type": "t_bool"
							}
						],
						"numberOfBytes": "256"
					},
					"t_uint256": {
						"encoding": "inplace",
						"label": "uint256",
						"numberOfBytes": "32"
					}
				}
			},
			"userdoc": {
				"kind": "user",
				"methods": {},
				"version": 1
			}
		}
	}
}